{"abi":[{"type":"constructor","inputs":[{"name":"vault","type":"address","internalType":"contract IVault"},{"name":"pauseWindowDuration","type":"uint32","internalType":"uint32"}],"stateMutability":"nonpayable"},{"type":"function","name":"createPool","inputs":[{"name":"name","type":"string","internalType":"string"},{"name":"symbol","type":"string","internalType":"string"}],"outputs":[{"name":"","type":"address","internalType":"address"}],"stateMutability":"nonpayable"},{"type":"function","name":"disable","inputs":[],"outputs":[],"stateMutability":"nonpayable"},{"type":"function","name":"getActionId","inputs":[{"name":"selector","type":"bytes4","internalType":"bytes4"}],"outputs":[{"name":"","type":"bytes32","internalType":"bytes32"}],"stateMutability":"view"},{"type":"function","name":"getAuthorizer","inputs":[],"outputs":[{"name":"","type":"address","internalType":"contract IAuthorizer"}],"stateMutability":"view"},{"type":"function","name":"getDeploymentAddress","inputs":[{"name":"salt","type":"bytes32","internalType":"bytes32"}],"outputs":[{"name":"","type":"address","internalType":"address"}],"stateMutability":"view"},{"type":"function","name":"getNewPoolPauseWindowEndTime","inputs":[],"outputs":[{"name":"","type":"uint32","internalType":"uint32"}],"stateMutability":"view"},{"type":"function","name":"getOriginalPauseWindowEndTime","inputs":[],"outputs":[{"name":"","type":"uint32","internalType":"uint32"}],"stateMutability":"view"},{"type":"function","name":"getPauseWindowDuration","inputs":[],"outputs":[{"name":"","type":"uint32","internalType":"uint32"}],"stateMutability":"view"},{"type":"function","name":"getVault","inputs":[],"outputs":[{"name":"","type":"address","internalType":"contract IVault"}],"stateMutability":"view"},{"type":"function","name":"isDisabled","inputs":[],"outputs":[{"name":"","type":"bool","internalType":"bool"}],"stateMutability":"view"},{"type":"function","name":"isPoolFromFactory","inputs":[{"name":"pool","type":"address","internalType":"address"}],"outputs":[{"name":"","type":"bool","internalType":"bool"}],"stateMutability":"view"},{"type":"function","name":"registerGeneralTestPool","inputs":[{"name":"pool","type":"address","internalType":"address"},{"name":"tokenConfig","type":"tuple[]","internalType":"struct TokenConfig[]","components":[{"name":"token","type":"address","internalType":"contract IERC20"},{"name":"tokenType","type":"uint8","internalType":"enum TokenType"},{"name":"rateProvider","type":"address","internalType":"contract IRateProvider"},{"name":"paysYieldFees","type":"bool","internalType":"bool"}]},{"name":"swapFee","type":"uint256","internalType":"uint256"},{"name":"pauseWindowDuration","type":"uint32","internalType":"uint32"},{"name":"protocolFeeExempt","type":"bool","internalType":"bool"},{"name":"roleAccounts","type":"tuple","internalType":"struct PoolRoleAccounts","components":[{"name":"pauseManager","type":"address","internalType":"address"},{"name":"swapFeeManager","type":"address","internalType":"address"},{"name":"poolCreator","type":"address","internalType":"address"}]},{"name":"poolHooksContract","type":"address","internalType":"address"}],"outputs":[],"stateMutability":"nonpayable"},{"type":"function","name":"registerPool","inputs":[{"name":"pool","type":"address","internalType":"address"},{"name":"tokenConfig","type":"tuple[]","internalType":"struct TokenConfig[]","components":[{"name":"token","type":"address","internalType":"contract IERC20"},{"name":"tokenType","type":"uint8","internalType":"enum TokenType"},{"name":"rateProvider","type":"address","internalType":"contract IRateProvider"},{"name":"paysYieldFees","type":"bool","internalType":"bool"}]},{"name":"roleAccounts","type":"tuple","internalType":"struct PoolRoleAccounts","components":[{"name":"pauseManager","type":"address","internalType":"address"},{"name":"swapFeeManager","type":"address","internalType":"address"},{"name":"poolCreator","type":"address","internalType":"address"}]},{"name":"poolHooksContract","type":"address","internalType":"address"},{"name":"liquidityManagement","type":"tuple","internalType":"struct LiquidityManagement","components":[{"name":"disableUnbalancedLiquidity","type":"bool","internalType":"bool"},{"name":"enableAddLiquidityCustom","type":"bool","internalType":"bool"},{"name":"enableRemoveLiquidityCustom","type":"bool","internalType":"bool"},{"name":"enableDonation","type":"bool","internalType":"bool"}]}],"outputs":[],"stateMutability":"nonpayable"},{"type":"function","name":"registerPoolAtTimestamp","inputs":[{"name":"pool","type":"address","internalType":"address"},{"name":"tokenConfig","type":"tuple[]","internalType":"struct TokenConfig[]","components":[{"name":"token","type":"address","internalType":"contract IERC20"},{"name":"tokenType","type":"uint8","internalType":"enum TokenType"},{"name":"rateProvider","type":"address","internalType":"contract IRateProvider"},{"name":"paysYieldFees","type":"bool","internalType":"bool"}]},{"name":"timestamp","type":"uint32","internalType":"uint32"},{"name":"roleAccounts","type":"tuple","internalType":"struct PoolRoleAccounts","components":[{"name":"pauseManager","type":"address","internalType":"address"},{"name":"swapFeeManager","type":"address","internalType":"address"},{"name":"poolCreator","type":"address","internalType":"address"}]},{"name":"poolHooksContract","type":"address","internalType":"address"},{"name":"liquidityManagement","type":"tuple","internalType":"struct LiquidityManagement","components":[{"name":"disableUnbalancedLiquidity","type":"bool","internalType":"bool"},{"name":"enableAddLiquidityCustom","type":"bool","internalType":"bool"},{"name":"enableRemoveLiquidityCustom","type":"bool","internalType":"bool"},{"name":"enableDonation","type":"bool","internalType":"bool"}]}],"outputs":[],"stateMutability":"nonpayable"},{"type":"function","name":"registerPoolWithSwapFee","inputs":[{"name":"pool","type":"address","internalType":"address"},{"name":"tokenConfig","type":"tuple[]","internalType":"struct TokenConfig[]","components":[{"name":"token","type":"address","internalType":"contract IERC20"},{"name":"tokenType","type":"uint8","internalType":"enum TokenType"},{"name":"rateProvider","type":"address","internalType":"contract IRateProvider"},{"name":"paysYieldFees","type":"bool","internalType":"bool"}]},{"name":"swapFeePercentage","type":"uint256","internalType":"uint256"},{"name":"poolHooksContract","type":"address","internalType":"address"},{"name":"liquidityManagement","type":"tuple","internalType":"struct LiquidityManagement","components":[{"name":"disableUnbalancedLiquidity","type":"bool","internalType":"bool"},{"name":"enableAddLiquidityCustom","type":"bool","internalType":"bool"},{"name":"enableRemoveLiquidityCustom","type":"bool","internalType":"bool"},{"name":"enableDonation","type":"bool","internalType":"bool"}]}],"outputs":[],"stateMutability":"nonpayable"},{"type":"function","name":"registerTestPool","inputs":[{"name":"pool","type":"address","internalType":"address"},{"name":"tokenConfig","type":"tuple[]","internalType":"struct TokenConfig[]","components":[{"name":"token","type":"address","internalType":"contract IERC20"},{"name":"tokenType","type":"uint8","internalType":"enum TokenType"},{"name":"rateProvider","type":"address","internalType":"contract IRateProvider"},{"name":"paysYieldFees","type":"bool","internalType":"bool"}]}],"outputs":[],"stateMutability":"nonpayable"},{"type":"function","name":"registerTestPool","inputs":[{"name":"pool","type":"address","internalType":"address"},{"name":"tokenConfig","type":"tuple[]","internalType":"struct TokenConfig[]","components":[{"name":"token","type":"address","internalType":"contract IERC20"},{"name":"tokenType","type":"uint8","internalType":"enum TokenType"},{"name":"rateProvider","type":"address","internalType":"contract IRateProvider"},{"name":"paysYieldFees","type":"bool","internalType":"bool"}]},{"name":"poolHooksContract","type":"address","internalType":"address"},{"name":"poolCreator","type":"address","internalType":"address"}],"outputs":[],"stateMutability":"nonpayable"},{"type":"function","name":"registerTestPool","inputs":[{"name":"pool","type":"address","internalType":"address"},{"name":"tokenConfig","type":"tuple[]","internalType":"struct TokenConfig[]","components":[{"name":"token","type":"address","internalType":"contract IERC20"},{"name":"tokenType","type":"uint8","internalType":"enum TokenType"},{"name":"rateProvider","type":"address","internalType":"contract IRateProvider"},{"name":"paysYieldFees","type":"bool","internalType":"bool"}]},{"name":"poolHooksContract","type":"address","internalType":"address"}],"outputs":[],"stateMutability":"nonpayable"},{"type":"event","name":"FactoryDisabled","inputs":[],"anonymous":false},{"type":"event","name":"PoolCreated","inputs":[{"name":"pool","type":"address","indexed":true,"internalType":"address"}],"anonymous":false},{"type":"error","name":"Disabled","inputs":[]},{"type":"error","name":"PoolPauseWindowDurationOverflow","inputs":[]},{"type":"error","name":"SenderNotAllowed","inputs":[]}],"bytecode":{"object":"0x61012060405234801562000011575f80fd5b506040516200455c3803806200455c8339810160408190526200003491620000a4565b306080526001600160a01b03821660a052805f6200005963ffffffff831642620000f2565b905063ffffffff81111562000081576040516368755a1160e01b815260040160405180910390fd5b63ffffffff91821660c0521660e052506001600160a01b03166101005262000118565b5f8060408385031215620000b6575f80fd5b82516001600160a01b0381168114620000cd575f80fd5b602084015190925063ffffffff81168114620000e7575f80fd5b809150509250929050565b808201808211156200011257634e487b7160e01b5f52601160045260245ffd5b92915050565b60805160a05160c05160e051610100516143c06200019c5f395f818161037f01528181610465015281816104ef015281816105d50152818161075a015281816108d7015281816109b60152610a9001525f818161031301528181610a1c0152610a5001525f61021e01525f8181610293015261083301525f6106b201526143c05ff3fe608060405234801562000010575f80fd5b506004361062000148575f3560e01c8063851c1bb311620000bb578063c7c90a511162000087578063db035ebc116200006b578063db035ebc1462000307578063e9d56e191462000311578063ed05beaf1462000338575f80fd5b8063c7c90a5114620002d9578063d396a66614620002f0575f80fd5b8063851c1bb3146200026b5780638d928af81462000291578063a7a4b71114620002b8578063aaabadc514620002cf575f80fd5b80636634b75311620001175780636c57f5a911620000fb5780636c57f5a9146200021057806378da80cb146200021c5780637a0b2e8d1462000254575f80fd5b80636634b75314620001ba578063675d605014620001f9575f80fd5b80630e0677ab146200014c5780632f2770db1462000165578063337d4010146200016f5780635ea81a3214620001a3575b5f80fd5b620001636200015d36600462001059565b6200034f565b005b62000163620003fb565b6200018662000180366004620010f8565b62000445565b6040516001600160a01b0390911681526020015b60405180910390f35b62000186620001b436600462001183565b62000461565b620001e8620001cb366004620011ea565b6001600160a01b03165f9081526020819052604090205460ff1690565b60405190151581526020016200019a565b620001636200020a36600462001208565b620004d1565b60015460ff16620001e8565b7f00000000000000000000000000000000000000000000000000000000000000005b60405163ffffffff90911681526020016200019a565b620001636200026536600462001251565b620005cb565b620002826200027c366004620012fe565b620006af565b6040519081526020016200019a565b7f000000000000000000000000000000000000000000000000000000000000000062000186565b62000163620002c93660046200133f565b6200072c565b6200018662000830565b62000163620002ea366004620013ba565b620008b9565b620001636200030136600462001422565b620009b4565b6200023e62000a19565b7f00000000000000000000000000000000000000000000000000000000000000006200023e565b6200016362000349366004620014b0565b62000a72565b6040517feeec802f0000000000000000000000000000000000000000000000000000000081526001600160a01b037f0000000000000000000000000000000000000000000000000000000000000000169063eeec802f90620003c490899089905f908a9082908b908b908b90600401620015b0565b5f604051808303815f87803b158015620003dc575f80fd5b505af1158015620003ef573d5f803e3d5ffd5b50505050505050505050565b6200040562000af3565b6200040f62000b6a565b6001805460ff1916811790556040517f432acbfd662dbb5d8b378384a67159b47ca9d0f1b79f97cf64cf8585fa362d50905f90a1565b5f6200045b620004558362000baa565b62000bce565b92915050565b5f807f00000000000000000000000000000000000000000000000000000000000000008484604051620004949062000e19565b620004a293929190620016d5565b604051809103905ff080158015620004bc573d5f803e3d5ffd5b509050620004ca8162000bdb565b9392505050565b604080516060810182525f80825260208201819052918101919091527f00000000000000000000000000000000000000000000000000000000000000006001600160a01b031663eeec802f84845f6200052962000a19565b5f875f6200057260408051608080820183525f80835260208084018290528385018290526060938401829052845192830185528183529282015260019181018290529182015290565b6040518963ffffffff1660e01b81526004016200059798979695949392919062001716565b5f604051808303815f87803b158015620005af575f80fd5b505af1158015620005c2573d5f803e3d5ffd5b50505050505050565b6001600160a01b037f00000000000000000000000000000000000000000000000000000000000000001663eeec802f888888620006098942620017c9565b8888886200065260408051608080820183525f80835260208084018290528385018290526060938401829052845192830185528183529282015260019181018290529182015290565b6040518963ffffffff1660e01b81526004016200067798979695949392919062001716565b5f604051808303815f87803b1580156200068f575f80fd5b505af1158015620006a2573d5f803e3d5ffd5b5050505050505050505050565b5f7f0000000000000000000000000000000000000000000000000000000000000000826040516020016200070f9291909182527fffffffff0000000000000000000000000000000000000000000000000000000016602082015260240190565b604051602081830303815290604052805190602001209050919050565b604080516060810182525f80825260208201819052918101919091526001600160a01b0380831660408301527f00000000000000000000000000000000000000000000000000000000000000001663eeec802f86865f6200078c62000a19565b5f878a620007d560408051608080820183525f80835260208084018290528385018290526060938401829052845192830185528183529282015260019181018290529182015290565b6040518963ffffffff1660e01b8152600401620007fa98979695949392919062001716565b5f604051808303815f87803b15801562000812575f80fd5b505af115801562000825573d5f803e3d5ffd5b505050505050505050565b5f7f00000000000000000000000000000000000000000000000000000000000000006001600160a01b031663aaabadc56040518163ffffffff1660e01b8152600401602060405180830381865afa1580156200088e573d5f803e3d5ffd5b505050506040513d601f19601f82011682018060405250810190620008b49190620017fa565b905090565b604080516060810182525f80825260208201819052918101919091527f00000000000000000000000000000000000000000000000000000000000000006001600160a01b031663eeec802f85855f6200091162000a19565b5f87896200095a60408051608080820183525f80835260208084018290528385018290526060938401829052845192830185528183529282015260019181018290529182015290565b6040518963ffffffff1660e01b81526004016200097f98979695949392919062001716565b5f604051808303815f87803b15801562000997575f80fd5b505af1158015620009aa573d5f803e3d5ffd5b5050505050505050565b7f00000000000000000000000000000000000000000000000000000000000000006001600160a01b031663eeec802f86865f620009f062000a19565b5f8989896040518963ffffffff1660e01b8152600401620007fa989796959493929190620015b0565b5f7f000000000000000000000000000000000000000000000000000000000000000063ffffffff16421062000a4d57505f90565b507f000000000000000000000000000000000000000000000000000000000000000090565b604080516060810182525f80825260208201819052918101919091527f00000000000000000000000000000000000000000000000000000000000000006001600160a01b031663eeec802f87878762000aca62000a19565b5f878a8a6040518963ffffffff1660e01b8152600401620003c4989796959493929190620015b0565b5f62000b225f357fffffffff0000000000000000000000000000000000000000000000000000000016620006af565b905062000b30813362000c30565b62000b67576040517f23dada5300000000000000000000000000000000000000000000000000000000815260040160405180910390fd5b50565b60015460ff161562000ba8576040517f75884cda00000000000000000000000000000000000000000000000000000000815260040160405180910390fd5b565b604080513360208201524691810191909152606081018290525f906080016200070f565b5f6200045b823062000cce565b62000be562000b6a565b6001600160a01b0381165f81815260208190526040808220805460ff19166001179055517f83a48fbcfc991335314e74d0496aab6a1987e992ddc85dddbcc4d6dd6ef2e9fc9190a250565b5f62000c3b62000830565b6040517f9be2a884000000000000000000000000000000000000000000000000000000008152600481018590526001600160a01b0384811660248301523060448301529190911690639be2a88490606401602060405180830381865afa15801562000ca8573d5f803e3d5ffd5b505050506040513d601f19601f82011682018060405250810190620004ca919062001818565b604080518082018252601081527f67363d3d37363d34f03d5260086018f30000000000000000000000000000000060209182015290517fff00000000000000000000000000000000000000000000000000000000000000918101919091526bffffffffffffffffffffffff19606083901b166021820152603581018390527f21c35dbe1b344a2488cf3321d6ce542f8e9f305544ff09e4993a62319a497c1f60558201525f90819062000d98906075015b6040516020818303038152906040528051906020012090565b6040517fd69400000000000000000000000000000000000000000000000000000000000060208201526bffffffffffffffffffffffff19606083901b1660228201527f0100000000000000000000000000000000000000000000000000000000000000603682015290915062000e119060370162000d7f565b949350505050565b612b54806200183783390190565b6001600160a01b038116811462000b67575f80fd5b634e487b7160e01b5f52604160045260245ffd5b6040516080810167ffffffffffffffff8111828210171562000e765762000e7662000e3c565b60405290565b604051601f8201601f1916810167ffffffffffffffff8111828210171562000ea85762000ea862000e3c565b604052919050565b801515811462000b67575f80fd5b5f82601f83011262000ece575f80fd5b8135602067ffffffffffffffff82111562000eed5762000eed62000e3c565b62000efd818360051b0162000e7c565b82815260079290921b8401810191818101908684111562000f1c575f80fd5b8286015b8481101562000fa0576080818903121562000f39575f80fd5b62000f4362000e50565b813562000f508162000e27565b8152818501356002811062000f63575f80fd5b8186015260408281013562000f788162000e27565b9082015260608281013562000f8d8162000eb0565b9082015283529183019160800162000f20565b509695505050505050565b803563ffffffff8116811462000fbf575f80fd5b919050565b5f6060828403121562000fd5575f80fd5b6040516060810181811067ffffffffffffffff8211171562000ffb5762000ffb62000e3c565b60405290508082356200100e8162000e27565b81526020830135620010208162000e27565b60208201526040830135620010358162000e27565b6040919091015292915050565b5f6080828403121562001053575f80fd5b50919050565b5f805f805f80610160878903121562001070575f80fd5b86356200107d8162000e27565b9550602087013567ffffffffffffffff81111562001099575f80fd5b620010a789828a0162000ebe565b955050620010b86040880162000fab565b9350620010c9886060890162000fc4565b925060c0870135620010db8162000e27565b9150620010ec8860e0890162001042565b90509295509295509295565b5f6020828403121562001109575f80fd5b5035919050565b5f82601f83011262001120575f80fd5b813567ffffffffffffffff8111156200113d576200113d62000e3c565b62001152601f8201601f191660200162000e7c565b81815284602083860101111562001167575f80fd5b816020850160208301375f918101602001919091529392505050565b5f806040838503121562001195575f80fd5b823567ffffffffffffffff80821115620011ad575f80fd5b620011bb8683870162001110565b93506020850135915080821115620011d1575f80fd5b50620011e08582860162001110565b9150509250929050565b5f60208284031215620011fb575f80fd5b8135620004ca8162000e27565b5f80604083850312156200121a575f80fd5b8235620012278162000e27565b9150602083013567ffffffffffffffff81111562001243575f80fd5b620011e08582860162000ebe565b5f805f805f805f610120888a03121562001269575f80fd5b8735620012768162000e27565b9650602088013567ffffffffffffffff81111562001292575f80fd5b620012a08a828b0162000ebe565b96505060408801359450620012b86060890162000fab565b93506080880135620012ca8162000eb0565b9250620012db8960a08a0162000fc4565b9150610100880135620012ee8162000e27565b8091505092959891949750929550565b5f602082840312156200130f575f80fd5b81357fffffffff0000000000000000000000000000000000000000000000000000000081168114620004ca575f80fd5b5f805f806080858703121562001353575f80fd5b8435620013608162000e27565b9350602085013567ffffffffffffffff8111156200137c575f80fd5b6200138a8782880162000ebe565b93505060408501356200139d8162000e27565b91506060850135620013af8162000e27565b939692955090935050565b5f805f60608486031215620013cd575f80fd5b8335620013da8162000e27565b9250602084013567ffffffffffffffff811115620013f6575f80fd5b620014048682870162000ebe565b9250506040840135620014178162000e27565b809150509250925092565b5f805f805f610140868803121562001438575f80fd5b8535620014458162000e27565b9450602086013567ffffffffffffffff81111562001461575f80fd5b6200146f8882890162000ebe565b94505062001481876040880162000fc4565b925060a0860135620014938162000e27565b9150620014a48760c0880162001042565b90509295509295909350565b5f805f805f6101008688031215620014c6575f80fd5b8535620014d38162000e27565b9450602086013567ffffffffffffffff811115620014ef575f80fd5b620014fd8882890162000ebe565b945050604086013592506060860135620015178162000e27565b9150620014a4876080880162001042565b5f815180845260208085019450602084015f5b83811015620015a55781516001600160a01b0380825116895284820151600281106200157557634e487b7160e01b5f52602160045260245ffd5b8986015260408281015190911690890152606090810151151590880152608090960195908201906001016200153b565b509495945050505050565b5f6101a06001600160a01b03808c168452816020850152620015d58285018c62001528565b60408581018c905263ffffffff8b166060870152891515608087015288516001600160a01b0390811660a088015260208a0151811660c0880152908901511660e086015292508516610100840152508235620016318162000eb0565b15156101208301526020830135620016498162000eb0565b15156101408301526040830135620016618162000eb0565b15156101608301526060830135620016798162000eb0565b801515610180840152509998505050505050505050565b5f81518084525f5b81811015620016b65760208185018101518683018201520162001698565b505f602082860101526020601f19601f83011685010191505092915050565b6001600160a01b0384168152606060208201525f620016f8606083018562001690565b82810360408401526200170c818562001690565b9695505050505050565b5f6101a06001600160a01b03808c1684528160208501526200173b8285018c62001528565b60408581018c905263ffffffff8b166060870152891515608087015288516001600160a01b0390811660a088015260208a0151811660c0880152908901511660e0860152925094909416610100830152825115156101208301526020830151151561014083015260408301511515610160830152606090920151151561018090910152979650505050505050565b63ffffffff818116838216019080821115620017f357634e487b7160e01b5f52601160045260245ffd5b5092915050565b5f602082840312156200180b575f80fd5b8151620004ca8162000e27565b5f6020828403121562001829575f80fd5b8151620004ca8162000eb056fe6101a0604052670de0b6b3a76400006005553480156200001d575f80fd5b5060405162002b5438038062002b548339810160408190526200004091620002aa565b828383838282604051806040016040528060018152602001603160f81b815250620000755f836200016160201b90919060201c565b610120526200008681600162000161565b61014052815160208084019190912060e052815190820120610100524660a0526200011360e05161010051604080517f8b73c3c69bb8fe3d512ecc4cf759cc79239f7b179b0ffacaa9a75d522b39400f60208201529081019290925260608201524660808201523060a08201525f9060c00160405160208183030381529060405280519060200120905090565b60805250503060c0526001600160a01b0316610160526003620001378382620003b8565b506004620001468282620003b8565b505050506001600160a01b03166101805250620004dc915050565b5f6020835110156200018057620001788362000199565b905062000193565b816200018d8482620003b8565b5060ff90505b92915050565b5f80829050601f81511115620001cf578260405163305a27a960e01b8152600401620001c6919062000484565b60405180910390fd5b8051620001dc82620004b8565b179392505050565b634e487b7160e01b5f52604160045260245ffd5b5f5b8381101562000214578181015183820152602001620001fa565b50505f910152565b5f82601f8301126200022c575f80fd5b81516001600160401b0380821115620002495762000249620001e4565b604051601f8301601f19908116603f01168101908282118183101715620002745762000274620001e4565b816040528381528660208588010111156200028d575f80fd5b620002a0846020830160208901620001f8565b9695505050505050565b5f805f60608486031215620002bd575f80fd5b83516001600160a01b0381168114620002d4575f80fd5b60208501519093506001600160401b0380821115620002f1575f80fd5b620002ff878388016200021c565b9350604086015191508082111562000315575f80fd5b5062000324868287016200021c565b9150509250925092565b600181811c908216806200034357607f821691505b6020821081036200036257634e487b7160e01b5f52602260045260245ffd5b50919050565b601f821115620003b357805f5260205f20601f840160051c810160208510156200038f5750805b601f840160051c820191505b81811015620003b0575f81556001016200039b565b50505b505050565b81516001600160401b03811115620003d457620003d4620001e4565b620003ec81620003e584546200032e565b8462000368565b602080601f83116001811462000422575f84156200040a5750858301515b5f19600386901b1c1916600185901b1785556200047c565b5f85815260208120601f198616915b82811015620004525788860151825594840194600190910190840162000431565b50858210156200047057878501515f19600388901b60f8161c191681555b505060018460011b0185555b505050505050565b602081525f8251806020840152620004a4816040850160208701620001f8565b601f01601f19169190910160400192915050565b8051602080830151919081101562000362575f1960209190910360031b1b16919050565b60805160a05160c05160e05161010051610120516101405161016051610180516125b0620005a45f395f8181610b6201528181610d3e01528181610e5001528181610efa0152610f9d01525f81816104870152818161066601528181610760015281816108260152818161092801528181610a5001528181610cdc0152818161115801528181611217015281816112de015261149a01525f61151c01525f6114f001525f61141201525f6113ea01525f61134501525f61136f01525f61139901526125b05ff3fe608060405234801561000f575f80fd5b5060043610610269575f3560e01c806372c9818611610157578063aa6ca808116100d2578063ce20ece711610088578063d505accf1161006e578063d505accf1461055f578063dd62ed3e14610572578063e4c4366314610585575f80fd5b8063ce20ece714610551578063d335b0cf14610557575f80fd5b8063abb1dc44116100b8578063abb1dc4414610531578063b156aa0a14610549578063b677fa5614610551575f80fd5b8063aa6ca808146104f9578063ab68e28c1461050e575f80fd5b80638d928af811610127578063979ac7021161010d578063979ac702146104b9578063984de9e8146104d3578063a9059cbb146104e6575f80fd5b80638d928af81461047a57806395d89b41146104b1575f80fd5b806372c981861461041c5780637ecebe001461042f57806381fa807c1461044257806384b0196e1461045f575f80fd5b8063313ce567116101e75780635687f2b8116101b7578063654cf15d1161019d578063654cf15d146103f3578063679aefce1461040157806370a0823114610409575f80fd5b80635687f2b8146103cd578063641579a6146103e0575f80fd5b8063313ce5671461038e578063360c340f1461039d5780633644e515146103b25780634cfe8d1a146103ba575f80fd5b806318160ddd1161023c57806323de66511161022257806323de66511461033b578063273c1adf1461035057806330adf81f14610367575f80fd5b806318160ddd1461032057806323b872dd14610328575f80fd5b806301ffc9a71461026d57806306fdde03146102d7578063095ea7b3146102ec57806316a0b3e0146102ff575b5f80fd5b6102c261027b3660046118aa565b7fffffffff00000000000000000000000000000000000000000000000000000000167f01ffc9a7000000000000000000000000000000000000000000000000000000001490565b60405190151581526020015b60405180910390f35b6102df6105a8565b6040516102ce919061192c565b6102c26102fa366004611952565b610638565b61031261030d366004611a9d565b6106df565b6040519081526020016102ce565b610312610730565b6102c2610336366004611ae7565b6107d7565b61034e610349366004611ae7565b61089d565b005b701d6329f1c35ca4bfabb9f5610000000000610312565b6103127f6e71edae12b1b97f4d1f60370fef10105fa2faae0126114a169c64845d6126c981565b604051601281526020016102ce565b6103a56108f7565b6040516102ce9190611b5f565b6103126109a1565b61034e6103c8366004611b71565b600655565b61034e6103db366004611ae7565b6109aa565b61034e6103ee366004611b71565b600555565b670de0b6b3a7640000610312565b6103126109f7565b610312610417366004611b88565b610a10565b61031261042a366004611ba3565b610abb565b61031261043d366004611b88565b610b09565b61044a610b26565b604080519283526020830191909152016102ce565b610467610be1565b6040516102ce9796959493929190611bda565b6040516001600160a01b037f00000000000000000000000000000000000000000000000000000000000000001681526020016102ce565b6102df610c3f565b61034e335f90815260026020526040902080546001019055565b6103126104e1366004611c6f565b610c51565b6102c26104f4366004611952565b610c95565b610501610d0d565b6040516102ce9190611cf6565b61052161051c366004611d74565b610db1565b6040516102ce9493929190611e12565b610539610e11565b6040516102ce9493929190611e6f565b6103a5610ec9565b5f610312565b610312610f6d565b61034e61056d366004611f1e565b610fd4565b610312610580366004611f8f565b6111cf565b610598610593366004611fbb565b611289565b6040516102ce949392919061201e565b6060600380546105b790612048565b80601f01602080910402602001604051908101604052809291908181526020018280546105e390612048565b801561062e5780601f106106055761010080835404028352916020019161062e565b820191905f5260205f20905b81548152906001019060200180831161061157829003601f168201915b5050505050905090565b60405163e1f21c6760e01b81523360048201526001600160a01b038381166024830152604482018390525f917f00000000000000000000000000000000000000000000000000000000000000009091169063e1f21c67906064015b6020604051808303815f875af11580156106af573d5f803e3d5ffd5b505050506040513d601f19601f820116820180604052508101906106d3919061208e565b50600190505b92915050565b5f806106ec856001610c51565b9050806106f981856112ab565b86868151811061070b5761070b6120a7565b602002602001015161071d91906120cf565b61072791906120e2565b95945050505050565b6040517fe4dc2aa40000000000000000000000000000000000000000000000000000000081523060048201525f907f00000000000000000000000000000000000000000000000000000000000000006001600160a01b03169063e4dc2aa4906024015b602060405180830381865afa1580156107ae573d5f803e3d5ffd5b505050506040513d601f19601f820116820180604052508101906107d291906120f5565b905090565b6040517f15dacbea0000000000000000000000000000000000000000000000000000000081523360048201526001600160a01b0384811660248301528381166044830152606482018390525f917f0000000000000000000000000000000000000000000000000000000000000000909116906315dacbea906084016020604051808303815f875af115801561086e573d5f803e3d5ffd5b505050506040513d601f19601f82011682018060405250810190610892919061208e565b506001949350505050565b6108a56112d3565b816001600160a01b0316836001600160a01b03167fddf252ad1be2c89b69c2b068fc378daa952ba7f163c4a11628f55a4df523b3ef836040516108ea91815260200190565b60405180910390a3505050565b6040517f7e361bde0000000000000000000000000000000000000000000000000000000081523060048201526060907f00000000000000000000000000000000000000000000000000000000000000006001600160a01b031690637e361bde906024015f60405180830381865afa158015610974573d5f803e3d5ffd5b505050506040513d5f823e601f3d908101601f1916820160405261099b9190810190612168565b50919050565b5f6107d2611339565b6109b26112d3565b816001600160a01b0316836001600160a01b03167f8c5be1e5ebec7d5bd14f71427d1e84f3dd0314c0f7b2291e5b200ac8c7c3b925836040516108ea91815260200190565b5f6006545f14610a08575060065490565b6107d2611462565b6040517ff7888aec0000000000000000000000000000000000000000000000000000000081523060048201526001600160a01b0382811660248301525f917f00000000000000000000000000000000000000000000000000000000000000009091169063f7888aec90604401602060405180830381865afa158015610a97573d5f803e3d5ffd5b505050506040513d601f19601f820116820180604052508101906106d991906120f5565b5f80610aca60208401846121c8565b6001811115610adb57610adb611e5b565b14610af757600554610af2906020840135906114c9565b6106d9565b6005546106d9906020840135906112ab565b6001600160a01b0381165f908152600260205260408120546106d9565b6040517ff29486a10000000000000000000000000000000000000000000000000000000081523060048201525f90819081906001600160a01b037f0000000000000000000000000000000000000000000000000000000000000000169063f29486a1906024016101a060405180830381865afa158015610ba8573d5f803e3d5ffd5b505050506040513d601f19601f82011682018060405250810190610bcc9190612288565b90508060400151925080606001519150509091565b5f6060805f805f6060610bf26114e9565b610bfa611515565b604080515f808252602082019092527f0f000000000000000000000000000000000000000000000000000000000000009b939a50919850469750309650945092509050565b6060600480546105b790612048565b50565b5f805f5b8451811015610c8d57848181518110610c7057610c706120a7565b602002602001015182610c8391906120cf565b9150600101610c55565b509392505050565b6040517fbeabacc80000000000000000000000000000000000000000000000000000000081523360048201526001600160a01b038381166024830152604482018390525f917f00000000000000000000000000000000000000000000000000000000000000009091169063beabacc890606401610693565b6040517fca4f28030000000000000000000000000000000000000000000000000000000081523060048201526060907f00000000000000000000000000000000000000000000000000000000000000006001600160a01b03169063ca4f2803906024015f60405180830381865afa158015610d8a573d5f803e3d5ffd5b505050506040513d5f823e601f3d908101601f191682016040526107d291908101906123a3565b5f60608060608787885167ffffffffffffffff811115610dd357610dd361197c565b604051908082528060200260200182016040528015610dfc578160200160208202803683370190505b50919b909a5090985094965093945050505050565b6040517f67e0e0760000000000000000000000000000000000000000000000000000000081523060048201526060908190819081906001600160a01b037f000000000000000000000000000000000000000000000000000000000000000016906367e0e076906024015f60405180830381865afa158015610e94573d5f803e3d5ffd5b505050506040513d5f823e601f3d908101601f19168201604052610ebb91908101906123d5565b935093509350935090919293565b6040517f535cfd8a0000000000000000000000000000000000000000000000000000000081523060048201526060907f00000000000000000000000000000000000000000000000000000000000000006001600160a01b03169063535cfd8a906024015f60405180830381865afa158015610f46573d5f803e3d5ffd5b505050506040513d5f823e601f3d908101601f191682016040526107d29190810190612512565b6040517fb45090f90000000000000000000000000000000000000000000000000000000081523060048201525f907f00000000000000000000000000000000000000000000000000000000000000006001600160a01b03169063b45090f990602401610793565b83421115611016576040517f62791302000000000000000000000000000000000000000000000000000000008152600481018590526024015b60405180910390fd5b5f7f6e71edae12b1b97f4d1f60370fef10105fa2faae0126114a169c64845d6126c98888886110618c6001600160a01b03165f90815260026020526040902080546001810190915590565b6040805160208101969096526001600160a01b0394851690860152929091166060840152608083015260a082015260c0810186905260e0016040516020818303038152906040528051906020012090505f6110bb82611542565b90505f6110ca82878787611589565b9050896001600160a01b0316816001600160a01b03161461112a576040517f4b800e460000000000000000000000000000000000000000000000000000000081526001600160a01b0380831660048301528b16602482015260440161100d565b60405163e1f21c6760e01b81526001600160a01b038b811660048301528a81166024830152604482018a90527f0000000000000000000000000000000000000000000000000000000000000000169063e1f21c67906064016020604051808303815f875af115801561119e573d5f803e3d5ffd5b505050506040513d601f19601f820116820180604052508101906111c2919061208e565b5050505050505050505050565b6040517f927da1050000000000000000000000000000000000000000000000000000000081523060048201526001600160a01b03838116602483015282811660448301525f917f00000000000000000000000000000000000000000000000000000000000000009091169063927da10590606401602060405180830381865afa15801561125e573d5f803e3d5ffd5b505050506040513d601f19601f8201168201806040525081019061128291906120f5565b9392505050565b60605f6060808787895167ffffffffffffffff811115610dd357610dd361197c565b5f806112b78385612544565b90506112cb670de0b6b3a76400008261255b565b949350505050565b336001600160a01b037f00000000000000000000000000000000000000000000000000000000000000001614611337576040517f089676d500000000000000000000000000000000000000000000000000000000815233600482015260240161100d565b565b5f306001600160a01b037f00000000000000000000000000000000000000000000000000000000000000001614801561139157507f000000000000000000000000000000000000000000000000000000000000000046145b156113bb57507f000000000000000000000000000000000000000000000000000000000000000090565b6107d2604080517f8b73c3c69bb8fe3d512ecc4cf759cc79239f7b179b0ffacaa9a75d522b39400f60208201527f0000000000000000000000000000000000000000000000000000000000000000918101919091527f000000000000000000000000000000000000000000000000000000000000000060608201524660808201523060a08201525f9060c00160405160208183030381529060405280519060200120905090565b6040517f4f037ee70000000000000000000000000000000000000000000000000000000081523060048201525f906001600160a01b037f00000000000000000000000000000000000000000000000000000000000000001690634f037ee790602401610793565b5f806114dd670de0b6b3a764000085612544565b90506112cb838261255b565b60606107d27f00000000000000000000000000000000000000000000000000000000000000005f6115b5565b60606107d27f000000000000000000000000000000000000000000000000000000000000000060016115b5565b5f6106d961154e611339565b836040517f19010000000000000000000000000000000000000000000000000000000000008152600281019290925260228201526042902090565b5f805f806115998888888861165e565b9250925092506115a98282611726565b50909695505050505050565b606060ff83146115cf576115c88361182d565b90506106d9565b8180546115db90612048565b80601f016020809104026020016040519081016040528092919081815260200182805461160790612048565b80156116525780601f1061162957610100808354040283529160200191611652565b820191905f5260205f20905b81548152906001019060200180831161163557829003601f168201915b505050505090506106d9565b5f80807f7fffffffffffffffffffffffffffffff5d576e7357a4501ddfe92f46681b20a084111561169757505f9150600390508261171c565b604080515f808252602082018084528a905260ff891692820192909252606081018790526080810186905260019060a0016020604051602081039080840390855afa1580156116e8573d5f803e3d5ffd5b5050604051601f1901519150506001600160a01b03811661171357505f92506001915082905061171c565b92505f91508190505b9450945094915050565b5f82600381111561173957611739611e5b565b03611742575050565b600182600381111561175657611756611e5b565b0361178d576040517ff645eedf00000000000000000000000000000000000000000000000000000000815260040160405180910390fd5b60028260038111156117a1576117a1611e5b565b036117db576040517ffce698f70000000000000000000000000000000000000000000000000000000081526004810182905260240161100d565b60038260038111156117ef576117ef611e5b565b03611829576040517fd78bce0c0000000000000000000000000000000000000000000000000000000081526004810182905260240161100d565b5050565b60605f6118398361186a565b6040805160208082528183019092529192505f91906020820181803683375050509182525060208101929092525090565b5f60ff8216601f8111156106d9576040517fb3512b0c00000000000000000000000000000000000000000000000000000000815260040160405180910390fd5b5f602082840312156118ba575f80fd5b81357fffffffff0000000000000000000000000000000000000000000000000000000081168114611282575f80fd5b5f81518084525f5b8181101561190d576020818501810151868301820152016118f1565b505f602082860101526020601f19601f83011685010191505092915050565b602081525f61128260208301846118e9565b6001600160a01b0381168114610c4e575f80fd5b5f8060408385031215611963575f80fd5b823561196e8161193e565b946020939093013593505050565b634e487b7160e01b5f52604160045260245ffd5b604051610140810167ffffffffffffffff811182821017156119b4576119b461197c565b60405290565b6040516060810167ffffffffffffffff811182821017156119b4576119b461197c565b604051601f8201601f1916810167ffffffffffffffff81118282101715611a0657611a0661197c565b604052919050565b5f67ffffffffffffffff821115611a2757611a2761197c565b5060051b60200190565b5f82601f830112611a40575f80fd5b81356020611a55611a5083611a0e565b6119dd565b8083825260208201915060208460051b870101935086841115611a76575f80fd5b602086015b84811015611a925780358352918301918301611a7b565b509695505050505050565b5f805f60608486031215611aaf575f80fd5b833567ffffffffffffffff811115611ac5575f80fd5b611ad186828701611a31565b9660208601359650604090950135949350505050565b5f805f60608486031215611af9575f80fd5b8335611b048161193e565b92506020840135611b148161193e565b929592945050506040919091013590565b5f815180845260208085019450602084015f5b83811015611b5457815187529582019590820190600101611b38565b509495945050505050565b602081525f6112826020830184611b25565b5f60208284031215611b81575f80fd5b5035919050565b5f60208284031215611b98575f80fd5b81356112828161193e565b5f60208284031215611bb3575f80fd5b813567ffffffffffffffff811115611bc9575f80fd5b820160e08185031215611282575f80fd5b7fff000000000000000000000000000000000000000000000000000000000000008816815260e060208201525f611c1460e08301896118e9565b8281036040840152611c2681896118e9565b90508660608401526001600160a01b03861660808401528460a084015282810360c0840152611c558185611b25565b9a9950505050505050505050565b60028110610c4e575f80fd5b5f8060408385031215611c80575f80fd5b823567ffffffffffffffff811115611c96575f80fd5b611ca285828601611a31565b9250506020830135611cb381611c63565b809150509250929050565b5f815180845260208085019450602084015f5b83811015611b545781516001600160a01b031687529582019590820190600101611cd1565b602081525f6112826020830184611cbe565b5f82601f830112611d17575f80fd5b813567ffffffffffffffff811115611d3157611d3161197c565b611d44601f8201601f19166020016119dd565b818152846020838601011115611d58575f80fd5b816020850160208301375f918101602001919091529392505050565b5f805f805f60a08688031215611d88575f80fd5b8535611d938161193e565b945060208601359350604086013567ffffffffffffffff80821115611db6575f80fd5b611dc289838a01611a31565b94506060880135915080821115611dd7575f80fd5b611de389838a01611a31565b93506080880135915080821115611df8575f80fd5b50611e0588828901611d08565b9150509295509295909350565b848152608060208201525f611e2a6080830186611b25565b8281036040840152611e3c8186611b25565b90508281036060840152611e5081856118e9565b979650505050505050565b634e487b7160e01b5f52602160045260245ffd5b608081525f611e816080830187611cbe565b8281036020848101919091528651808352878201928201905f5b81811015611ef4578451805160028110611ec357634e487b7160e01b5f52602160045260245ffd5b8452808501516001600160a01b03168585015260409081015115159084015293830193606090920191600101611e9b565b50508481036040860152611f088188611b25565b925050508281036060840152611e508185611b25565b5f805f805f805f60e0888a031215611f34575f80fd5b8735611f3f8161193e565b96506020880135611f4f8161193e565b95506040880135945060608801359350608088013560ff81168114611f72575f80fd5b9699959850939692959460a0840135945060c09093013592915050565b5f8060408385031215611fa0575f80fd5b8235611fab8161193e565b91506020830135611cb38161193e565b5f805f805f60a08688031215611fcf575f80fd5b8535611fda8161193e565b9450602086013567ffffffffffffffff80821115611ff6575f80fd5b61200289838a01611a31565b9550604088013594506060880135915080821115611dd7575f80fd5b608081525f6120306080830187611b25565b8560208401528281036040840152611e3c8186611b25565b600181811c9082168061205c57607f821691505b60208210810361099b57634e487b7160e01b5f52602260045260245ffd5b80518015158114612089575f80fd5b919050565b5f6020828403121561209e575f80fd5b6112828261207a565b634e487b7160e01b5f52603260045260245ffd5b634e487b7160e01b5f52601160045260245ffd5b808201808211156106d9576106d96120bb565b818103818111156106d9576106d96120bb565b5f60208284031215612105575f80fd5b5051919050565b5f82601f83011261211b575f80fd5b8151602061212b611a5083611a0e565b8083825260208201915060208460051b87010193508684111561214c575f80fd5b602086015b84811015611a925780518352918301918301612151565b5f8060408385031215612179575f80fd5b825167ffffffffffffffff80821115612190575f80fd5b61219c8683870161210c565b935060208501519150808211156121b1575f80fd5b506121be8582860161210c565b9150509250929050565b5f602082840312156121d8575f80fd5b813561128281611c63565b5f608082840312156121f3575f80fd5b6040516080810181811067ffffffffffffffff821117156122165761221661197c565b6040529050806122258361207a565b81526122336020840161207a565b60208201526122446040840161207a565b60408201526122556060840161207a565b60608201525092915050565b805164ffffffffff81168114612089575f80fd5b805163ffffffff81168114612089575f80fd5b5f6101a08284031215612299575f80fd5b6122a1611990565b6122ab84846121e3565b81526080830151602082015260a0830151604082015260c083015160608201526122d760e08401612261565b60808201526101006122ea818501612275565b60a08301526101206122fd81860161207a565b60c084015261230f610140860161207a565b60e0840152612321610160860161207a565b82840152612332610180860161207a565b90830152509392505050565b5f82601f83011261234d575f80fd5b8151602061235d611a5083611a0e565b8083825260208201915060208460051b87010193508684111561237e575f80fd5b602086015b84811015611a925780516123968161193e565b8352918301918301612383565b5f602082840312156123b3575f80fd5b815167ffffffffffffffff8111156123c9575f80fd5b6112cb8482850161233e565b5f805f80608085870312156123e8575f80fd5b845167ffffffffffffffff808211156123ff575f80fd5b61240b8883890161233e565b9550602091508187015181811115612421575f80fd5b8701601f81018913612431575f80fd5b805161243f611a5082611a0e565b8181526060918202830185019185820191908c84111561245d575f80fd5b938601935b838510156124be5780858e031215612478575f80fd5b6124806119ba565b855161248b81611c63565b81528588015161249a8161193e565b8189015260406124ab87820161207a565b9082015283529384019391860191612462565b5060408b01519098509450505050808211156124d8575f80fd5b6124e48883890161210c565b935060608701519150808211156124f9575f80fd5b506125068782880161210c565b91505092959194509250565b5f60208284031215612522575f80fd5b815167ffffffffffffffff811115612538575f80fd5b6112cb8482850161210c565b80820281158282048414176106d9576106d96120bb565b5f8261257557634e487b7160e01b5f52601260045260245ffd5b50049056fea2646970667358221220050a6cedba5ac35857eeeca7ec1670fa14e3b530d795490391544db346fd572464736f6c63430008180033a264697066735822122025d477cc8c1b24a594ffd7af86ced39a713f4acef46970ddf2ae5d060c9d561a64736f6c63430008180033","linkReferences":{}},"methodIdentifiers":{"createPool(string,string)":"5ea81a32","disable()":"2f2770db","getActionId(bytes4)":"851c1bb3","getAuthorizer()":"aaabadc5","getDeploymentAddress(bytes32)":"337d4010","getNewPoolPauseWindowEndTime()":"db035ebc","getOriginalPauseWindowEndTime()":"e9d56e19","getPauseWindowDuration()":"78da80cb","getVault()":"8d928af8","isDisabled()":"6c57f5a9","isPoolFromFactory(address)":"6634b753","registerGeneralTestPool(address,(address,uint8,address,bool)[],uint256,uint32,bool,(address,address,address),address)":"7a0b2e8d","registerPool(address,(address,uint8,address,bool)[],(address,address,address),address,(bool,bool,bool,bool))":"d396a666","registerPoolAtTimestamp(address,(address,uint8,address,bool)[],uint32,(address,address,address),address,(bool,bool,bool,bool))":"0e0677ab","registerPoolWithSwapFee(address,(address,uint8,address,bool)[],uint256,address,(bool,bool,bool,bool))":"ed05beaf","registerTestPool(address,(address,uint8,address,bool)[])":"675d6050","registerTestPool(address,(address,uint8,address,bool)[],address)":"c7c90a51","registerTestPool(address,(address,uint8,address,bool)[],address,address)":"a7a4b711"},"id":113}