{"abi":[{"type":"constructor","inputs":[{"name":"vaultInstance","type":"address","internalType":"contract IVault"},{"name":"_factoryAddress","type":"address","internalType":"address"},{"name":"name","type":"string","internalType":"string"},{"name":"symbol","type":"string","internalType":"string"},{"name":"_nftMetadata","type":"address","internalType":"address"}],"stateMutability":"nonpayable"},{"type":"function","name":"BRONZE_TIER_AMOUNT","inputs":[],"outputs":[{"name":"","type":"uint256","internalType":"uint256"}],"stateMutability":"view"},{"type":"function","name":"BRONZE_TIER_THRESHOLD","inputs":[],"outputs":[{"name":"","type":"uint256","internalType":"uint256"}],"stateMutability":"view"},{"type":"function","name":"COOLDOWN_PERIOD","inputs":[],"outputs":[{"name":"","type":"uint256","internalType":"uint256"}],"stateMutability":"view"},{"type":"function","name":"GOLD_TIER_AMOUNT","inputs":[],"outputs":[{"name":"","type":"uint256","internalType":"uint256"}],"stateMutability":"view"},{"type":"function","name":"GOLD_TIER_THRESHOLD","inputs":[],"outputs":[{"name":"","type":"uint256","internalType":"uint256"}],"stateMutability":"view"},{"type":"function","name":"REWARD_RATE","inputs":[],"outputs":[{"name":"","type":"uint256","internalType":"uint256"}],"stateMutability":"view"},{"type":"function","name":"SILVER_TIER_AMOUNT","inputs":[],"outputs":[{"name":"","type":"uint256","internalType":"uint256"}],"stateMutability":"view"},{"type":"function","name":"SILVER_TIER_THRESHOLD","inputs":[],"outputs":[{"name":"","type":"uint256","internalType":"uint256"}],"stateMutability":"view"},{"type":"function","name":"UPGRADE_COOLDOWN_PERIOD","inputs":[],"outputs":[{"name":"","type":"uint256","internalType":"uint256"}],"stateMutability":"view"},{"type":"function","name":"approve","inputs":[{"name":"to","type":"address","internalType":"address"},{"name":"tokenId","type":"uint256","internalType":"uint256"}],"outputs":[],"stateMutability":"nonpayable"},{"type":"function","name":"balanceOf","inputs":[{"name":"owner","type":"address","internalType":"address"}],"outputs":[{"name":"","type":"uint256","internalType":"uint256"}],"stateMutability":"view"},{"type":"function","name":"calculateRewards","inputs":[{"name":"user","type":"address","internalType":"address"},{"name":"pool","type":"address","internalType":"address"}],"outputs":[{"name":"","type":"uint256","internalType":"uint256"}],"stateMutability":"view"},{"type":"function","name":"claimRewards","inputs":[{"name":"pool","type":"address","internalType":"address"}],"outputs":[],"stateMutability":"nonpayable"},{"type":"function","name":"delegate","inputs":[{"name":"delegatee","type":"address","internalType":"address"}],"outputs":[],"stateMutability":"nonpayable"},{"type":"function","name":"delegateBySig","inputs":[{"name":"delegatee","type":"address","internalType":"address"},{"name":"nonce","type":"uint256","internalType":"uint256"},{"name":"expiry","type":"uint256","internalType":"uint256"},{"name":"v","type":"uint8","internalType":"uint8"},{"name":"r","type":"bytes32","internalType":"bytes32"},{"name":"s","type":"bytes32","internalType":"bytes32"}],"outputs":[],"stateMutability":"nonpayable"},{"type":"function","name":"delegates","inputs":[{"name":"account","type":"address","internalType":"address"}],"outputs":[{"name":"","type":"address","internalType":"address"}],"stateMutability":"view"},{"type":"function","name":"getApproved","inputs":[{"name":"tokenId","type":"uint256","internalType":"uint256"}],"outputs":[{"name":"","type":"address","internalType":"address"}],"stateMutability":"view"},{"type":"function","name":"getFeeDiscount","inputs":[{"name":"user","type":"address","internalType":"address"},{"name":"pool","type":"address","internalType":"address"}],"outputs":[{"name":"","type":"uint256","internalType":"uint256"}],"stateMutability":"view"},{"type":"function","name":"getFeeDiscounts","inputs":[],"outputs":[{"name":"tiers","type":"uint256[]","internalType":"uint256[]"},{"name":"discounts","type":"uint256[]","internalType":"uint256[]"}],"stateMutability":"view"},{"type":"function","name":"getHookFlags","inputs":[],"outputs":[{"name":"hookFlags","type":"tuple","internalType":"struct HookFlags","components":[{"name":"enableHookAdjustedAmounts","type":"bool","internalType":"bool"},{"name":"shouldCallBeforeInitialize","type":"bool","internalType":"bool"},{"name":"shouldCallAfterInitialize","type":"bool","internalType":"bool"},{"name":"shouldCallComputeDynamicSwapFee","type":"bool","internalType":"bool"},{"name":"shouldCallBeforeSwap","type":"bool","internalType":"bool"},{"name":"shouldCallAfterSwap","type":"bool","internalType":"bool"},{"name":"shouldCallBeforeAddLiquidity","type":"bool","internalType":"bool"},{"name":"shouldCallAfterAddLiquidity","type":"bool","internalType":"bool"},{"name":"shouldCallBeforeRemoveLiquidity","type":"bool","internalType":"bool"},{"name":"shouldCallAfterRemoveLiquidity","type":"bool","internalType":"bool"}]}],"stateMutability":"pure"},{"type":"function","name":"getPastTotalSupply","inputs":[{"name":"timepoint","type":"uint256","internalType":"uint256"}],"outputs":[{"name":"","type":"uint256","internalType":"uint256"}],"stateMutability":"view"},{"type":"function","name":"getPastVotes","inputs":[{"name":"account","type":"address","internalType":"address"},{"name":"timepoint","type":"uint256","internalType":"uint256"}],"outputs":[{"name":"","type":"uint256","internalType":"uint256"}],"stateMutability":"view"},{"type":"function","name":"getRemainingCooldownTime","inputs":[{"name":"user","type":"address","internalType":"address"},{"name":"pool","type":"address","internalType":"address"}],"outputs":[{"name":"","type":"uint256","internalType":"uint256"}],"stateMutability":"view"},{"type":"function","name":"getVotes","inputs":[{"name":"account","type":"address","internalType":"address"}],"outputs":[{"name":"","type":"uint256","internalType":"uint256"}],"stateMutability":"view"},{"type":"function","name":"getVotingPower","inputs":[{"name":"user","type":"address","internalType":"address"},{"name":"pool","type":"address","internalType":"address"}],"outputs":[{"name":"","type":"uint256","internalType":"uint256"}],"stateMutability":"view"},{"type":"function","name":"getYieldBoost","inputs":[{"name":"user","type":"address","internalType":"address"},{"name":"pool","type":"address","internalType":"address"}],"outputs":[{"name":"","type":"uint256","internalType":"uint256"}],"stateMutability":"view"},{"type":"function","name":"governor","inputs":[],"outputs":[{"name":"","type":"address","internalType":"contract NFTGovernor"}],"stateMutability":"view"},{"type":"function","name":"isApprovedForAll","inputs":[{"name":"owner","type":"address","internalType":"address"},{"name":"operator","type":"address","internalType":"address"}],"outputs":[{"name":"","type":"bool","internalType":"bool"}],"stateMutability":"view"},{"type":"function","name":"lastUnstakeTime","inputs":[{"name":"","type":"address","internalType":"address"},{"name":"","type":"address","internalType":"address"}],"outputs":[{"name":"","type":"uint256","internalType":"uint256"}],"stateMutability":"view"},{"type":"function","name":"name","inputs":[],"outputs":[{"name":"","type":"string","internalType":"string"}],"stateMutability":"view"},{"type":"function","name":"nftMetadata","inputs":[],"outputs":[{"name":"","type":"address","internalType":"contract NFTMetadata"}],"stateMutability":"view"},{"type":"function","name":"nftTierToFeeDiscount","inputs":[{"name":"","type":"uint256","internalType":"uint256"}],"outputs":[{"name":"","type":"uint256","internalType":"uint256"}],"stateMutability":"view"},{"type":"function","name":"nftTierToVotingPower","inputs":[{"name":"","type":"uint256","internalType":"uint256"}],"outputs":[{"name":"","type":"uint256","internalType":"uint256"}],"stateMutability":"view"},{"type":"function","name":"nftTierToYieldBoost","inputs":[{"name":"","type":"uint256","internalType":"uint256"}],"outputs":[{"name":"","type":"uint256","internalType":"uint256"}],"stateMutability":"view"},{"type":"function","name":"onAfterAddLiquidity","inputs":[{"name":"router","type":"address","internalType":"address"},{"name":"amountsInScaled18","type":"uint256[]","internalType":"uint256[]"},{"name":"bptAmountOut","type":"uint256","internalType":"uint256"},{"name":"balancesScaled18","type":"uint256[]","internalType":"uint256[]"},{"name":"userData","type":"bytes","internalType":"bytes"}],"outputs":[{"name":"success","type":"bool","internalType":"bool"}],"stateMutability":"nonpayable"},{"type":"function","name":"onAfterAddLiquidity","inputs":[{"name":"","type":"address","internalType":"address"},{"name":"","type":"address","internalType":"address"},{"name":"","type":"uint8","internalType":"enum AddLiquidityKind"},{"name":"","type":"uint256[]","internalType":"uint256[]"},{"name":"amountsInRaw","type":"uint256[]","internalType":"uint256[]"},{"name":"","type":"uint256","internalType":"uint256"},{"name":"","type":"uint256[]","internalType":"uint256[]"},{"name":"","type":"bytes","internalType":"bytes"}],"outputs":[{"name":"","type":"bool","internalType":"bool"},{"name":"","type":"uint256[]","internalType":"uint256[]"}],"stateMutability":"nonpayable"},{"type":"function","name":"onAfterInitialize","inputs":[{"name":"","type":"uint256[]","internalType":"uint256[]"},{"name":"","type":"uint256","internalType":"uint256"},{"name":"","type":"bytes","internalType":"bytes"}],"outputs":[{"name":"","type":"bool","internalType":"bool"}],"stateMutability":"nonpayable"},{"type":"function","name":"onAfterRemoveLiquidity","inputs":[{"name":"","type":"address","internalType":"address"},{"name":"","type":"address","internalType":"address"},{"name":"","type":"uint8","internalType":"enum RemoveLiquidityKind"},{"name":"","type":"uint256","internalType":"uint256"},{"name":"","type":"uint256[]","internalType":"uint256[]"},{"name":"amountsOutRaw","type":"uint256[]","internalType":"uint256[]"},{"name":"","type":"uint256[]","internalType":"uint256[]"},{"name":"","type":"bytes","internalType":"bytes"}],"outputs":[{"name":"","type":"bool","internalType":"bool"},{"name":"","type":"uint256[]","internalType":"uint256[]"}],"stateMutability":"nonpayable"},{"type":"function","name":"onAfterRemoveLiquidity","inputs":[{"name":"router","type":"address","internalType":"address"},{"name":"amountsOutScaled18","type":"uint256[]","internalType":"uint256[]"},{"name":"bptAmountIn","type":"uint256","internalType":"uint256"},{"name":"balancesScaled18","type":"uint256[]","internalType":"uint256[]"},{"name":"userData","type":"bytes","internalType":"bytes"}],"outputs":[{"name":"success","type":"bool","internalType":"bool"}],"stateMutability":"nonpayable"},{"type":"function","name":"onAfterSwap","inputs":[{"name":"","type":"tuple","internalType":"struct AfterSwapParams","components":[{"name":"kind","type":"uint8","internalType":"enum SwapKind"},{"name":"tokenIn","type":"address","internalType":"contract IERC20"},{"name":"tokenOut","type":"address","internalType":"contract IERC20"},{"name":"amountInScaled18","type":"uint256","internalType":"uint256"},{"name":"amountOutScaled18","type":"uint256","internalType":"uint256"},{"name":"tokenInBalanceScaled18","type":"uint256","internalType":"uint256"},{"name":"tokenOutBalanceScaled18","type":"uint256","internalType":"uint256"},{"name":"amountCalculatedScaled18","type":"uint256","internalType":"uint256"},{"name":"amountCalculatedRaw","type":"uint256","internalType":"uint256"},{"name":"router","type":"address","internalType":"address"},{"name":"pool","type":"address","internalType":"address"},{"name":"userData","type":"bytes","internalType":"bytes"}]}],"outputs":[{"name":"","type":"bool","internalType":"bool"},{"name":"","type":"uint256","internalType":"uint256"}],"stateMutability":"nonpayable"},{"type":"function","name":"onBeforeAddLiquidity","inputs":[{"name":"","type":"address","internalType":"address"},{"name":"","type":"address","internalType":"address"},{"name":"","type":"uint8","internalType":"enum AddLiquidityKind"},{"name":"","type":"uint256[]","internalType":"uint256[]"},{"name":"","type":"uint256","internalType":"uint256"},{"name":"","type":"uint256[]","internalType":"uint256[]"},{"name":"","type":"bytes","internalType":"bytes"}],"outputs":[{"name":"","type":"bool","internalType":"bool"}],"stateMutability":"nonpayable"},{"type":"function","name":"onBeforeInitialize","inputs":[{"name":"","type":"uint256[]","internalType":"uint256[]"},{"name":"","type":"bytes","internalType":"bytes"}],"outputs":[{"name":"","type":"bool","internalType":"bool"}],"stateMutability":"nonpayable"},{"type":"function","name":"onBeforeRemoveLiquidity","inputs":[{"name":"","type":"address","internalType":"address"},{"name":"","type":"address","internalType":"address"},{"name":"","type":"uint8","internalType":"enum RemoveLiquidityKind"},{"name":"","type":"uint256","internalType":"uint256"},{"name":"","type":"uint256[]","internalType":"uint256[]"},{"name":"","type":"uint256[]","internalType":"uint256[]"},{"name":"","type":"bytes","internalType":"bytes"}],"outputs":[{"name":"","type":"bool","internalType":"bool"}],"stateMutability":"nonpayable"},{"type":"function","name":"onBeforeSwap","inputs":[{"name":"","type":"tuple","internalType":"struct PoolSwapParams","components":[{"name":"kind","type":"uint8","internalType":"enum SwapKind"},{"name":"amountGivenScaled18","type":"uint256","internalType":"uint256"},{"name":"balancesScaled18","type":"uint256[]","internalType":"uint256[]"},{"name":"indexIn","type":"uint256","internalType":"uint256"},{"name":"indexOut","type":"uint256","internalType":"uint256"},{"name":"router","type":"address","internalType":"address"},{"name":"userData","type":"bytes","internalType":"bytes"}]},{"name":"","type":"address","internalType":"address"}],"outputs":[{"name":"","type":"bool","internalType":"bool"}],"stateMutability":"nonpayable"},{"type":"function","name":"onComputeDynamicSwapFeePercentage","inputs":[{"name":"","type":"tuple","internalType":"struct PoolSwapParams","components":[{"name":"kind","type":"uint8","internalType":"enum SwapKind"},{"name":"amountGivenScaled18","type":"uint256","internalType":"uint256"},{"name":"balancesScaled18","type":"uint256[]","internalType":"uint256[]"},{"name":"indexIn","type":"uint256","internalType":"uint256"},{"name":"indexOut","type":"uint256","internalType":"uint256"},{"name":"router","type":"address","internalType":"address"},{"name":"userData","type":"bytes","internalType":"bytes"}]},{"name":"","type":"address","internalType":"address"},{"name":"","type":"uint256","internalType":"uint256"}],"outputs":[{"name":"","type":"bool","internalType":"bool"},{"name":"","type":"uint256","internalType":"uint256"}],"stateMutability":"view"},{"type":"function","name":"onRegister","inputs":[{"name":"factory","type":"address","internalType":"address"},{"name":"pool","type":"address","internalType":"address"},{"name":"","type":"tuple[]","internalType":"struct TokenConfig[]","components":[{"name":"token","type":"address","internalType":"contract IERC20"},{"name":"tokenType","type":"uint8","internalType":"enum TokenType"},{"name":"rateProvider","type":"address","internalType":"contract IRateProvider"},{"name":"paysYieldFees","type":"bool","internalType":"bool"}]},{"name":"","type":"tuple","internalType":"struct LiquidityManagement","components":[{"name":"disableUnbalancedLiquidity","type":"bool","internalType":"bool"},{"name":"enableAddLiquidityCustom","type":"bool","internalType":"bool"},{"name":"enableRemoveLiquidityCustom","type":"bool","internalType":"bool"},{"name":"enableDonation","type":"bool","internalType":"bool"}]}],"outputs":[{"name":"","type":"bool","internalType":"bool"}],"stateMutability":"view"},{"type":"function","name":"owner","inputs":[],"outputs":[{"name":"","type":"address","internalType":"address"}],"stateMutability":"view"},{"type":"function","name":"ownerOf","inputs":[{"name":"tokenId","type":"uint256","internalType":"uint256"}],"outputs":[{"name":"","type":"address","internalType":"address"}],"stateMutability":"view"},{"type":"function","name":"renounceOwnership","inputs":[],"outputs":[],"stateMutability":"nonpayable"},{"type":"function","name":"rewardToken","inputs":[],"outputs":[{"name":"","type":"address","internalType":"contract RewardToken"}],"stateMutability":"view"},{"type":"function","name":"safeTransferFrom","inputs":[{"name":"from","type":"address","internalType":"address"},{"name":"to","type":"address","internalType":"address"},{"name":"tokenId","type":"uint256","internalType":"uint256"}],"outputs":[],"stateMutability":"nonpayable"},{"type":"function","name":"safeTransferFrom","inputs":[{"name":"from","type":"address","internalType":"address"},{"name":"to","type":"address","internalType":"address"},{"name":"tokenId","type":"uint256","internalType":"uint256"},{"name":"data","type":"bytes","internalType":"bytes"}],"outputs":[],"stateMutability":"nonpayable"},{"type":"function","name":"setApprovalForAll","inputs":[{"name":"operator","type":"address","internalType":"address"},{"name":"approved","type":"bool","internalType":"bool"}],"outputs":[],"stateMutability":"nonpayable"},{"type":"function","name":"setFeeDiscounts","inputs":[{"name":"tiers","type":"uint256[]","internalType":"uint256[]"},{"name":"discounts","type":"uint256[]","internalType":"uint256[]"}],"outputs":[],"stateMutability":"nonpayable"},{"type":"function","name":"setGovernor","inputs":[{"name":"_governor","type":"address","internalType":"address"}],"outputs":[],"stateMutability":"nonpayable"},{"type":"function","name":"setRewardToken","inputs":[{"name":"_rewardToken","type":"address","internalType":"address"}],"outputs":[],"stateMutability":"nonpayable"},{"type":"function","name":"setVotingPowers","inputs":[{"name":"tiers","type":"uint256[]","internalType":"uint256[]"},{"name":"votingPowers","type":"uint256[]","internalType":"uint256[]"}],"outputs":[],"stateMutability":"nonpayable"},{"type":"function","name":"setYieldBoosts","inputs":[{"name":"tiers","type":"uint256[]","internalType":"uint256[]"},{"name":"boosts","type":"uint256[]","internalType":"uint256[]"}],"outputs":[],"stateMutability":"nonpayable"},{"type":"function","name":"stakingInfo","inputs":[{"name":"user","type":"address","internalType":"address"},{"name":"pool","type":"address","internalType":"address"}],"outputs":[{"name":"stakedAmount","type":"uint256","internalType":"uint256"},{"name":"stakingStartTime","type":"uint256","internalType":"uint256"},{"name":"lastMilestoneTime","type":"uint256","internalType":"uint256"},{"name":"currentTier","type":"uint256","internalType":"uint256"},{"name":"lastRewardClaim","type":"uint256","internalType":"uint256"}],"stateMutability":"view"},{"type":"function","name":"supportsInterface","inputs":[{"name":"interfaceId","type":"bytes4","internalType":"bytes4"}],"outputs":[{"name":"","type":"bool","internalType":"bool"}],"stateMutability":"view"},{"type":"function","name":"symbol","inputs":[],"outputs":[{"name":"","type":"string","internalType":"string"}],"stateMutability":"view"},{"type":"function","name":"tokenOfOwnerByIndex","inputs":[{"name":"owner","type":"address","internalType":"address"},{"name":"index","type":"uint256","internalType":"uint256"}],"outputs":[{"name":"","type":"uint256","internalType":"uint256"}],"stateMutability":"view"},{"type":"function","name":"tokenURI","inputs":[{"name":"tokenId","type":"uint256","internalType":"uint256"}],"outputs":[{"name":"","type":"string","internalType":"string"}],"stateMutability":"view"},{"type":"function","name":"transferFrom","inputs":[{"name":"from","type":"address","internalType":"address"},{"name":"to","type":"address","internalType":"address"},{"name":"tokenId","type":"uint256","internalType":"uint256"}],"outputs":[],"stateMutability":"nonpayable"},{"type":"function","name":"transferOwnership","inputs":[{"name":"newOwner","type":"address","internalType":"address"}],"outputs":[],"stateMutability":"nonpayable"},{"type":"function","name":"upgradeNFT","inputs":[{"name":"tokenId","type":"uint256","internalType":"uint256"}],"outputs":[],"stateMutability":"nonpayable"},{"type":"event","name":"Approval","inputs":[{"name":"owner","type":"address","indexed":true,"internalType":"address"},{"name":"approved","type":"address","indexed":true,"internalType":"address"},{"name":"tokenId","type":"uint256","indexed":true,"internalType":"uint256"}],"anonymous":false},{"type":"event","name":"ApprovalForAll","inputs":[{"name":"owner","type":"address","indexed":true,"internalType":"address"},{"name":"operator","type":"address","indexed":true,"internalType":"address"},{"name":"approved","type":"bool","indexed":false,"internalType":"bool"}],"anonymous":false},{"type":"event","name":"DelegateChanged","inputs":[{"name":"delegator","type":"address","indexed":true,"internalType":"address"},{"name":"fromDelegate","type":"address","indexed":true,"internalType":"address"},{"name":"toDelegate","type":"address","indexed":true,"internalType":"address"}],"anonymous":false},{"type":"event","name":"DelegateVotesChanged","inputs":[{"name":"delegate","type":"address","indexed":true,"internalType":"address"},{"name":"previousVotes","type":"uint256","indexed":false,"internalType":"uint256"},{"name":"newVotes","type":"uint256","indexed":false,"internalType":"uint256"}],"anonymous":false},{"type":"event","name":"LiquidityAdded","inputs":[{"name":"user","type":"address","indexed":true,"internalType":"address"},{"name":"pool","type":"address","indexed":true,"internalType":"address"},{"name":"amount","type":"uint256","indexed":false,"internalType":"uint256"}],"anonymous":false},{"type":"event","name":"LiquidityRemoved","inputs":[{"name":"user","type":"address","indexed":true,"internalType":"address"},{"name":"pool","type":"address","indexed":true,"internalType":"address"},{"name":"amount","type":"uint256","indexed":false,"internalType":"uint256"}],"anonymous":false},{"type":"event","name":"NFTMinted","inputs":[{"name":"user","type":"address","indexed":true,"internalType":"address"},{"name":"pool","type":"address","indexed":true,"internalType":"address"},{"name":"tokenId","type":"uint256","indexed":false,"internalType":"uint256"},{"name":"tier","type":"uint256","indexed":false,"internalType":"uint256"}],"anonymous":false},{"type":"event","name":"NFTUpgraded","inputs":[{"name":"user","type":"address","indexed":true,"internalType":"address"},{"name":"pool","type":"address","indexed":true,"internalType":"address"},{"name":"tokenId","type":"uint256","indexed":false,"internalType":"uint256"},{"name":"newTier","type":"uint256","indexed":false,"internalType":"uint256"}],"anonymous":false},{"type":"event","name":"OwnershipTransferred","inputs":[{"name":"previousOwner","type":"address","indexed":true,"internalType":"address"},{"name":"newOwner","type":"address","indexed":true,"internalType":"address"}],"anonymous":false},{"type":"event","name":"RewardsClaimed","inputs":[{"name":"user","type":"address","indexed":true,"internalType":"address"},{"name":"pool","type":"address","indexed":true,"internalType":"address"},{"name":"amount","type":"uint256","indexed":false,"internalType":"uint256"}],"anonymous":false},{"type":"event","name":"Transfer","inputs":[{"name":"from","type":"address","indexed":true,"internalType":"address"},{"name":"to","type":"address","indexed":true,"internalType":"address"},{"name":"tokenId","type":"uint256","indexed":true,"internalType":"uint256"}],"anonymous":false},{"type":"error","name":"ERC721IncorrectOwner","inputs":[{"name":"sender","type":"address","internalType":"address"},{"name":"tokenId","type":"uint256","internalType":"uint256"},{"name":"owner","type":"address","internalType":"address"}]},{"type":"error","name":"ERC721InsufficientApproval","inputs":[{"name":"operator","type":"address","internalType":"address"},{"name":"tokenId","type":"uint256","internalType":"uint256"}]},{"type":"error","name":"ERC721InvalidApprover","inputs":[{"name":"approver","type":"address","internalType":"address"}]},{"type":"error","name":"ERC721InvalidOperator","inputs":[{"name":"operator","type":"address","internalType":"address"}]},{"type":"error","name":"ERC721InvalidOwner","inputs":[{"name":"owner","type":"address","internalType":"address"}]},{"type":"error","name":"ERC721InvalidReceiver","inputs":[{"name":"receiver","type":"address","internalType":"address"}]},{"type":"error","name":"ERC721InvalidSender","inputs":[{"name":"sender","type":"address","internalType":"address"}]},{"type":"error","name":"ERC721NonexistentToken","inputs":[{"name":"tokenId","type":"uint256","internalType":"uint256"}]},{"type":"error","name":"OwnableInvalidOwner","inputs":[{"name":"owner","type":"address","internalType":"address"}]},{"type":"error","name":"OwnableUnauthorizedAccount","inputs":[{"name":"account","type":"address","internalType":"address"}]},{"type":"error","name":"ReentrancyGuardReentrantCall","inputs":[]},{"type":"error","name":"VotesExpiredSignature","inputs":[{"name":"expiry","type":"uint256","internalType":"uint256"}]}],"bytecode":{"object":"0x60a060405234801562000010575f80fd5b506040516200474438038062004744833981016040819052620000339162000259565b843384845f62000044838262000389565b50600162000053828262000389565b5050506001600160a01b0381166200008457604051631e4fbdf760e01b81525f600482015260240160405180910390fd5b6200008f8162000121565b506001600160a01b039081166080526001600755601680546001600160a01b0319169183169190911790556040513090620000ca9062000172565b6001600160a01b039091168152602001604051809103905ff080158015620000f4573d5f803e3d5ffd5b50600980546001600160a01b0319166001600160a01b039290921691909117905550620004559350505050565b600680546001600160a01b038381166001600160a01b0319831681179093556040519116919082907f8be0079c531659141344cd1fd0a4f28419497f9722a3daafe3b4186f6b6457e0905f90a35050565b610ae48062003c6083390190565b6001600160a01b038116811462000195575f80fd5b50565b634e487b7160e01b5f52604160045260245ffd5b5f82601f830112620001bc575f80fd5b81516001600160401b0380821115620001d957620001d962000198565b604051601f8301601f19908116603f0116810190828211818310171562000204576200020462000198565b816040528381526020925086602085880101111562000221575f80fd5b5f91505b8382101562000244578582018301518183018401529082019062000225565b5f602085830101528094505050505092915050565b5f805f805f60a086880312156200026e575f80fd5b85516200027b8162000180565b60208701519095506200028e8162000180565b60408701519094506001600160401b0380821115620002ab575f80fd5b620002b989838a01620001ac565b94506060880151915080821115620002cf575f80fd5b50620002de88828901620001ac565b9250506080860151620002f18162000180565b809150509295509295909350565b600181811c908216806200031457607f821691505b6020821081036200033357634e487b7160e01b5f52602260045260245ffd5b50919050565b601f8211156200038457805f5260205f20601f840160051c81016020851015620003605750805b601f840160051c820191505b8181101562000381575f81556001016200036c565b50505b505050565b81516001600160401b03811115620003a557620003a562000198565b620003bd81620003b68454620002ff565b8462000339565b602080601f831160018114620003f3575f8415620003db5750858301515b5f19600386901b1c1916600185901b1785556200044d565b5f85815260208120601f198616915b82811015620004235788860151825594840194600190910190840162000402565b50858210156200044157878501515f19600388901b60f8161c191681555b505060018460011b0185555b505050505050565b6080516137f56200046b5f395f50506137f55ff3fe608060405234801561000f575f80fd5b50600436106103f2575f3560e01c8063715018a61161020f578063a79d579d1161012e578063ddb5093b116100c3578063ecf686f811610093578063f2fde38b11610079578063f2fde38b14610b37578063f7c618c114610b4a578063f91b598814610b5d575f80fd5b8063ecf686f814610b13578063ef5cfb8c14610b24575f80fd5b8063ddb5093b14610a44578063e167711c14610a57578063e75c610414610a61578063e985e9c514610ad8575f80fd5b8063c3cda520116100fe578063c3cda520146109af578063c42cf535146109c5578063c87b56dd146109d8578063d77153a7146109eb575f80fd5b8063a79d579d14610965578063b28de3891461096f578063b88d4fde1461098e578063ba5f9f40146109a1575f80fd5b806390690c9a116101a45780639ab24eb0116101745780639ab24eb0146108b0578063a0e8f5ac146108c3578063a22cb465146108db578063a60b1145146108ee575f80fd5b806390690c9a1461084e57806392c0526a1461086157806395d89b411461088b578063976907cc14610893575f80fd5b8063851cca0e116101df578063851cca0e146108045780638aee8127146108175780638da5cb5b1461082a5780638e539e8c1461083b575f80fd5b8063715018a6146107d65780638187c641146107a9578063825e57ea146107de57806383274f70146107f1575f80fd5b80632f745c59116103155780635750ec53116102aa5780635f68a6db1161027a5780636e99d52f116102605780636e99d52f146107a9578063707f4439146107b357806370a08231146107c3575f80fd5b80635f68a6db146107835780636352211e14610796575f80fd5b80635750ec53146106b2578063587cde1e146107525780635997bb37146107635780635c19a95c14610772575f80fd5b806342842e0e116102e557806342842e0e1461065857806343cd09e21461066b57806345421ec71461068a5780635211fa77146106a4575f80fd5b80632f745c591461060b57806330c0ddfb1461061e57806338be241d1461062f5780633a46b1a814610645575f80fd5b80630c340a241161038b57806318b6eb551161035b57806318b6eb551461058c5780631c149e28146105b857806323b872dd146105cd5780632754888d146105e0575f80fd5b80630c340a24146105345780630c380e46146105475780630fbd11111461055a578063145e32c514610579575f80fd5b8063081812fc116103c6578063081812fc1461046a578063095ea7b314610495578063098c76d4146104aa5780630b89f18214610521575f80fd5b8062c9d509146103f657806301ffc9a71461041c5780630308f9101461043f57806306fdde0314610455575b5f80fd5b610409610404366004612a4f565b610b67565b6040519081526020015b60405180910390f35b61042f61042a366004612a9b565b610c9e565b6040519015158152602001610413565b610447610d38565b604051610413929190612af7565b61045d610ecb565b6040516104139190612b68565b61047d610478366004612b7a565b610f5a565b6040516001600160a01b039091168152602001610413565b6104a86104a3366004612b91565b610f81565b005b6104096104b8366004612a4f565b6001600160a01b039182165f908152600a60209081526040808320939094168252918252828120835160a081018552815481526001820154818501526002820154818601526003820154606082018190526004909201546080909101528152600e909152205490565b61042f61052f366004612c6f565b610f90565b60085461047d906001600160a01b031681565b6104a8610555366004612dfe565b61101d565b610409610568366004612b7a565b600e6020525f908152604090205481565b60165461047d906001600160a01b031681565b6105a161059a366004612e5e565b505f908190565b604080519215158352602083019190915201610413565b61042f6105c6366004612f0a565b5f92915050565b6104a86105db366004612f60565b6110dc565b6105fd6105ee366004612fac565b5f839850989650505050505050565b60405161041392919061308c565b610409610619366004612b91565b61117e565b61040969010f0cf064dd5920000081565b61042f61063d3660046130a6565b5f9392505050565b610409610653366004612b91565b611232565b6104a8610666366004612f60565b6112b7565b610409610679366004612b7a565b600f6020525f908152604090205481565b61042f61069836600461311c565b5f979650505050505050565b61042f6105c63660046131ec565b61072a6106c0366004612a4f565b6001600160a01b039182165f908152600a60209081526040808320939094168252918252829020825160a081018452815480825260018301549382018490526002830154948201859052600383015460608301819052600490930154608090920182905294929392565b604080519586526020860194909452928401919091526060830152608082015260a001610413565b61047d610760366004613230565b90565b610409670de0b6b3a764000081565b6104a8610780366004613230565b50565b6104a8610791366004612dfe565b6112d1565b61047d6107a4366004612b7a565b611386565b61040962093a8081565b610409683635c9adc5dea0000081565b6104096107d1366004613230565b611390565b6104a86113ee565b61042f6107ec36600461324b565b611401565b6104a86107ff366004612dfe565b611721565b61042f61081236600461324b565b6117d6565b6104a8610825366004613230565b611906565b6006546001600160a01b031661047d565b610409610849366004612b7a565b611930565b6104a861085c366004612b7a565b61199f565b61040961086f366004612a4f565b600b60209081525f928352604080842090915290825290205481565b61045d611bac565b6105fd6108a13660046132e9565b5f849850989650505050505050565b6104096108be366004613230565b611bbb565b6105a16108d136600461338b565b5f80935093915050565b6104a86108e93660046133d0565b611cf2565b6104096108fc366004612a4f565b6001600160a01b039182165f908152600a60209081526040808320939094168252918252828120835160a081018552815481526001820154818501526002820154818601526003820154606082018190526004909201546080909101528152600f909152205490565b61040962ed4e0081565b61040961097d366004612b7a565b60106020525f908152604090205481565b6104a861099c3660046133fc565b611cfd565b61042f610698366004613464565b6104a86109bd3660046134e7565b505050505050565b6104a86109d3366004613230565b611d15565b61045d6109e6366004612b7a565b611d3f565b60408051610140810182525f80825260208201819052818301819052606082018190526080820181905260a0820181905260c08201819052610100820152600160e0820181905261012082015290516104139190613544565b610409610a52366004612a4f565b611e3a565b61040962278d0081565b610409610a6f366004612a4f565b6001600160a01b039182165f908152600a60209081526040808320939094168252918252828120835160a0810185528154815260018201548185015260028201548186015260038201546060820181905260049092015460809091015281526010909152205490565b61042f610ae6366004612a4f565b6001600160a01b039182165f90815260056020908152604080832093909416825291909152205460ff1690565b61040969021e19e0c9bab240000081565b6104a8610b32366004613230565b611e95565b6104a8610b45366004613230565b611fd2565b60095461047d906001600160a01b031681565b6104096276a70081565b6001600160a01b038083165f908152600a602090815260408083209385168352928152828220835160a0810185528154815260018201549281019290925260028101549382019390935260038301546060820152600490920154608083018190529091908290610bd79042613610565b6001600160a01b038681165f908152600a602090815260408083209389168352928152828220835160a081018552815481526001820154818401526002820154818601526003820154606082018190526004909201546080909101528252601090522054909150670de0b6b3a76400006064610c538382613623565b8551670de0b6b3a764000090610c6a908790613636565b610c749190613636565b610c7e9190613636565b610c88919061364d565b610c92919061364d565b93505050505b92915050565b5f6001600160e01b031982167f80ac58cd000000000000000000000000000000000000000000000000000000001480610d0057506001600160e01b031982167f5b5e139f00000000000000000000000000000000000000000000000000000000145b80610c9857507f01ffc9a7000000000000000000000000000000000000000000000000000000006001600160e01b0319831614610c98565b60408051600480825260a0820190925260609182919060208201608080368337505060408051600480825260a082019092529294509050602082016080803683370190505090505f825f81518110610d9257610d9261366c565b602002602001018181525050600182600181518110610db357610db361366c565b602002602001018181525050600282600281518110610dd457610dd461366c565b602002602001018181525050600382600381518110610df557610df561366c565b602002602001018181525050600e5f8081526020019081526020015f2054815f81518110610e2557610e2561366c565b602002602001018181525050600e5f600181526020019081526020015f205481600181518110610e5757610e5761366c565b602002602001018181525050600e5f600281526020019081526020015f205481600281518110610e8957610e8961366c565b602002602001018181525050600e5f600381526020019081526020015f205481600381518110610ebb57610ebb61366c565b6020026020010181815250509091565b60605f8054610ed990613680565b80601f0160208091040260200160405190810160405280929190818152602001828054610f0590613680565b8015610f505780601f10610f2757610100808354040283529160200191610f50565b820191905f5260205f20905b815481529060010190602001808311610f3357829003601f168201915b5050505050905090565b5f610f6482612025565b505f828152600460205260409020546001600160a01b0316610c98565b610f8c82823361205d565b5050565b6040517f6634b7530000000000000000000000000000000000000000000000000000000081526001600160a01b0384811660048301525f9190861690636634b75390602401602060405180830381865afa158015610ff0573d5f803e3d5ffd5b505050506040513d601f19601f8201168201806040525081019061101491906136b2565b95945050505050565b61102561206a565b805182511461107b5760405162461bcd60e51b815260206004820181905260248201527f417272617973206d7573742068617665207468652073616d65206c656e67746860448201526064015b60405180910390fd5b5f5b82518110156110d7578181815181106110985761109861366c565b602002602001015160105f8584815181106110b5576110b561366c565b60209081029190910181015182528101919091526040015f205560010161107d565b505050565b6001600160a01b03821661110557604051633250574960e11b81525f6004820152602401611072565b5f6111118383336120b0565b9050836001600160a01b0316816001600160a01b031614611178576040517f64283d7b0000000000000000000000000000000000000000000000000000000081526001600160a01b0380861660048301526024820184905282166044820152606401611072565b50505050565b6001600160a01b0382165f90815260156020526040812054821061120a5760405162461bcd60e51b815260206004820152602b60248201527f455243373231456e756d657261626c653a206f776e657220696e646578206f7560448201527f74206f6620626f756e64730000000000000000000000000000000000000000006064820152608401611072565b506001600160a01b03919091165f908152601460209081526040808320938352929052205490565b5f4282106112825760405162461bcd60e51b815260206004820152601960248201527f4552433230566f7465733a20667574757265206c6f6f6b7570000000000000006044820152606401611072565b5f61128c836121a2565b5f9081526011602090815260408083206001600160a01b038816845290915290205491505092915050565b6110d783838360405180602001604052805f815250611cfd565b6112d961206a565b805182511461132a5760405162461bcd60e51b815260206004820181905260248201527f417272617973206d7573742068617665207468652073616d65206c656e6774686044820152606401611072565b5f5b82518110156110d7578181815181106113475761134761366c565b6020026020010151600e5f8584815181106113645761136461366c565b60209081029190910181015182528101919091526040015f205560010161132c565b5f610c9882612025565b5f6001600160a01b0382166113d3576040517f89c62b640000000000000000000000000000000000000000000000000000000081525f6004820152602401611072565b506001600160a01b03165f9081526003602052604090205490565b6113f661206a565b6113ff5f61221c565b565b6001600160a01b0385165f908152600a6020908152604080832033808552925282208054889291908711156114785760405162461bcd60e51b815260206004820152601a60248201527f496e73756666696369656e74207374616b656420616d6f756e740000000000006044820152606401611072565b6001600160a01b038084165f908152600b60209081526040808320938616835292905220546114ab9062093a8090613623565b4210156114fa5760405162461bcd60e51b815260206004820152601860248201527f436f6f6c646f776e20706572696f64206e6f74206f76657200000000000000006044820152606401611072565b86815f015f82825461150c9190613610565b90915550506001600160a01b038084165f908152600b60209081526040808320938616835292905290812042905581549003611589576001600160a01b038084165f908152600a60209081526040808320938616835292905290812081815560018101829055600281018290556003810182905560040155611593565b611593838361226d565b5f61159e8484610b67565b90508015611655576009546040516340c10f1960e01b81526001600160a01b03868116600483015260248201849052909116906340c10f19906044015f604051808303815f87803b1580156115f1575f80fd5b505af1158015611603573d5f803e3d5ffd5b50505050826001600160a01b0316846001600160a01b03167f9310ccfcb8de723f578a9e4282ea9f521f05ae40dc08f3068dfad528a65ee3c78360405161164c91815260200190565b60405180910390a35b826001600160a01b0316846001600160a01b03167f983e86fda8e7b1e2eae380201830eaf1cac55772e8e39583da349865e81788638a60405161169a91815260200190565b60405180910390a36001600160a01b038085165f908152600a602090815260408083209387168352928152828220835160a081018552815481526001820154818401526002820154818601526003820154606082018190526004909201546080909101528252600f905220546117119085906122c2565b5060019998505050505050505050565b61172961206a565b805182511461177a5760405162461bcd60e51b815260206004820181905260248201527f417272617973206d7573742068617665207468652073616d65206c656e6774686044820152606401611072565b5f5b82518110156110d7578181815181106117975761179761366c565b6020026020010151600f5f8584815181106117b4576117b461366c565b60209081029190910181015182528101919091526040015f205560010161177c565b6001600160a01b0385165f908152600a60209081526040808320338085529252822080548892919084036118195742600182018190556002820181905560048201555b86815f015f82825461182b9190613623565b9091555061183b90508383612385565b6001600160a01b038084165f908152600a602090815260408083209386168352928152828220835160a081018552815481526001820154818401526002820154818601526003820154606082018190526004909201546080909101528252600f905220546118aa9084906122c2565b816001600160a01b0316836001600160a01b03167f9d278c56ba6dc86a12eefe6b43112bd6e06648eb4ec0b950ee2d783d40e2acb4896040516118ef91815260200190565b60405180910390a350600198975050505050505050565b61190e61206a565b600980546001600160a01b0319166001600160a01b0392909216919091179055565b5f4282106119805760405162461bcd60e51b815260206004820152601960248201527f4552433230566f7465733a20667574757265206c6f6f6b7570000000000000006044820152606401611072565b5f61198a836121a2565b5f908152601260205260409020549392505050565b6119a761247a565b5f6119b182611386565b90506001600160a01b0381163314611a0b5760405162461bcd60e51b815260206004820152601860248201527f4e6f7420746865206f776e6572206f6620746865204e465400000000000000006044820152606401611072565b335f908152600b60209081526040808320858452600c8352818420546001600160a01b03168452909152902054611a469062093a8090613623565b421015611a955760405162461bcd60e51b815260206004820181905260248201527f5570677261646520636f6f6c646f776e20706572696f64206e6f74206f7665726044820152606401611072565b5f828152600c6020908152604080832054338452600a83528184206001600160a01b03909116808552925282208054600182015492939192611ae19190611adc9042613610565b6124bd565b905081600301548111611b365760405162461bcd60e51b815260206004820152601460248201527f4e6f207570677261646520617661696c61626c650000000000000000000000006044820152606401611072565b60038201819055335f818152600b602090815260408083206001600160a01b0388168085529083529281902042905580518981529182018590529192917fbb831840f1be0fa183e481b70ec128bc4ecb3406dbc2a76f59d437ffd6cddc49910160405180910390a3505050506107806001600755565b606060018054610ed990613680565b5f8060015b600d548111611ceb576040517f6352211e000000000000000000000000000000000000000000000000000000008152600481018290523090636352211e90602401602060405180830381865afa925050508015611c3a575060408051601f3d908101601f19168201909252611c37918101906136cd565b60015b15611cd957846001600160a01b0316816001600160a01b031603611cd7575f828152600c60209081526040808320546001600160a01b038981168552600a84528285209116808552908352818420825160a081018452815481526001820154818601526002820154818501526003820154606082018190526004909201546080909101528452600f90925290912054611cd39085613623565b9350505b505b80611ce3816136e8565b915050611bc0565b5092915050565b610f8c338383612542565b611d088484846110dc565b61117833858585856125f9565b611d1d61206a565b600880546001600160a01b0319166001600160a01b0392909216919091179055565b60605f611d4b83611386565b5f848152600c60209081526040808320546001600160a01b038581168552600a845282852091811680865291845293829020825160a08101845281548152600182015494810194909452600281015484840152600381015460608501819052600491820154608086015260165493517f92cb829d0000000000000000000000000000000000000000000000000000000081529182018a9052602482015294955093919216906392cb829d906044015f60405180830381865afa158015611e13573d5f803e3d5ffd5b505050506040513d5f823e601f3d908101601f191682016040526110149190810190613700565b6001600160a01b038083165f908152600b602090815260408083209385168352929052908120548190611e719062093a8090613623565b9050804210611e83575f915050610c98565b611e8d4282613610565b949350505050565b611e9d61247a565b335f908152600a602090815260408083206001600160a01b038516845290915290208054611f0d5760405162461bcd60e51b815260206004820152601360248201527f4e6f207374616b696e6720706f736974696f6e000000000000000000000000006044820152606401611072565b5f611f183384610b67565b426004848101919091556009546040516340c10f1960e01b81523392810192909252602482018390529192506001600160a01b03909116906340c10f19906044015f604051808303815f87803b158015611f70575f80fd5b505af1158015611f82573d5f803e3d5ffd5b50506040518381526001600160a01b03861692503391507f9310ccfcb8de723f578a9e4282ea9f521f05ae40dc08f3068dfad528a65ee3c79060200160405180910390a350506107806001600755565b611fda61206a565b6001600160a01b03811661201c576040517f1e4fbdf70000000000000000000000000000000000000000000000000000000081525f6004820152602401611072565b6107808161221c565b5f818152600260205260408120546001600160a01b031680610c9857604051637e27328960e01b815260048101849052602401611072565b6110d78383836001612718565b6006546001600160a01b031633146113ff576040517f118cdaa7000000000000000000000000000000000000000000000000000000008152336004820152602401611072565b5f828152600260205260408120546001600160a01b03908116908316156120dc576120dc818486612853565b6001600160a01b03811615612116576120f75f855f80612718565b6001600160a01b0381165f90815260036020526040902080545f190190555b6001600160a01b03851615612144576001600160a01b0385165f908152600360205260409020805460010190555b5f8481526002602052604080822080546001600160a01b0319166001600160a01b0389811691821790925591518793918516917fddf252ad1be2c89b69c2b068fc378daa952ba7f163c4a11628f55a4df523b3ef91a4949350505050565b6013545f9081905b808210156121fd575f60026121bf8385613623565b6121c9919061364d565b5f818152601260205260409020549091508510156121e9578091506121f7565b6121f4816001613623565b92505b506121aa565b81156122135761220e600183613610565b611e8d565b5f949350505050565b600680546001600160a01b038381166001600160a01b0319831681179093556040519116919082907f8be0079c531659141344cd1fd0a4f28419497f9722a3daafe3b4186f6b6457e0905f90a35050565b6001600160a01b038083165f908152600a60209081526040808320938516835292905290812060018101549091906122a59042613610565b90506122b4825f0154826124bd565b826003018190555050505050565b60138054905f6122d1836136e8565b9091555050601380545f9081526011602081815260408084206001600160a01b03881685529091528220849055915461230c90600190613610565b81526020019081526020015f205f836001600160a01b03166001600160a01b031681526020019081526020015f20548160125f600160135461234e9190613610565b81526020019081526020015f20546123669190613623565b6123709190613610565b6013545f908152601260205260409020555050565b6001600160a01b038083165f908152600a60209081526040808320938516835292905290812060028101549091906123bd9042613610565b90505f6123cd835f0154836124bd565b9050826003015481111561247357600d80545f91826123eb836136e8565b9190505590506123fb86826128d0565b5f818152600c602090815260409182902080546001600160a01b0319166001600160a01b0389811691821790925542600289015560038801869055835185815292830186905292908916917f9e8a709a89b83b7026f9ebab1f1b5b04c5edf5339369ea5ae302868f443aead7910160405180910390a3505b5050505050565b6002600754036124b6576040517f3ee5aeb500000000000000000000000000000000000000000000000000000000815260040160405180910390fd5b6002600755565b5f62ed4e0082101580156124db575069021e19e0c9bab24000008310155b156124e857506003610c98565b6276a7008210158015612505575069010f0cf064dd592000008310155b1561251257506002610c98565b62278d00821015801561252e5750683635c9adc5dea000008310155b1561253b57506001610c98565b505f610c98565b6001600160a01b03821661258d576040517f5b08ba180000000000000000000000000000000000000000000000000000000081526001600160a01b0383166004820152602401611072565b6001600160a01b038381165f81815260056020908152604080832094871680845294825291829020805460ff191686151590811790915591519182527f17307eab39ab6107e8899845ad3d59bd9653f200f220920489ca2b5937696c31910160405180910390a3505050565b6001600160a01b0383163b1561247357604051630a85bd0160e11b81526001600160a01b0384169063150b7a029061263b908890889087908790600401613769565b6020604051808303815f875af1925050508015612675575060408051601f3d908101601f19168201909252612672918101906137a4565b60015b6126dc573d8080156126a2576040519150601f19603f3d011682016040523d82523d5f602084013e6126a7565b606091505b5080515f036126d457604051633250574960e11b81526001600160a01b0385166004820152602401611072565b805181602001fd5b6001600160e01b03198116630a85bd0160e11b146109bd57604051633250574960e11b81526001600160a01b0385166004820152602401611072565b808061272c57506001600160a01b03821615155b15612824575f61273b84612025565b90506001600160a01b038316158015906127675750826001600160a01b0316816001600160a01b031614155b801561279857506001600160a01b038082165f9081526005602090815260408083209387168352929052205460ff16155b156127da576040517fa9fbf51f0000000000000000000000000000000000000000000000000000000081526001600160a01b0384166004820152602401611072565b81156128225783856001600160a01b0316826001600160a01b03167f8c5be1e5ebec7d5bd14f71427d1e84f3dd0314c0f7b2291e5b200ac8c7c3b92560405160405180910390a45b505b50505f90815260046020526040902080546001600160a01b0319166001600160a01b0392909216919091179055565b61285e8383836128e4565b6110d7576001600160a01b03831661288c57604051637e27328960e01b815260048101829052602401611072565b6040517f177e802f0000000000000000000000000000000000000000000000000000000081526001600160a01b038316600482015260248101829052604401611072565b6128da8282612964565b610f8c82826129de565b5f6001600160a01b03831615801590611e8d5750826001600160a01b0316846001600160a01b0316148061293c57506001600160a01b038085165f9081526005602090815260408083209387168352929052205460ff165b80611e8d5750505f908152600460205260409020546001600160a01b03908116911614919050565b6001600160a01b03821661298d57604051633250574960e11b81525f6004820152602401611072565b5f61299983835f6120b0565b90506001600160a01b038116156110d7576040517f73c6ac6e0000000000000000000000000000000000000000000000000000000081525f6004820152602401611072565b6001600160a01b0382165f8181526015602081815260408084208054601484528286208187528452918520879055948452919052825490929091612a21836136e8565b9190505550505050565b6001600160a01b0381168114610780575f80fd5b8035612a4a81612a2b565b919050565b5f8060408385031215612a60575f80fd5b8235612a6b81612a2b565b91506020830135612a7b81612a2b565b809150509250929050565b6001600160e01b031981168114610780575f80fd5b5f60208284031215612aab575f80fd5b8135612ab681612a86565b9392505050565b5f815180845260208085019450602084015f5b83811015612aec57815187529582019590820190600101612ad0565b509495945050505050565b604081525f612b096040830185612abd565b82810360208401526110148185612abd565b5f5b83811015612b35578181015183820152602001612b1d565b50505f910152565b5f8151808452612b54816020860160208601612b1b565b601f01601f19169290920160200192915050565b602081525f612ab66020830184612b3d565b5f60208284031215612b8a575f80fd5b5035919050565b5f8060408385031215612ba2575f80fd5b8235612bad81612a2b565b946020939093013593505050565b634e487b7160e01b5f52604160045260245ffd5b6040516080810167ffffffffffffffff81118282101715612bf257612bf2612bbb565b60405290565b604051601f8201601f1916810167ffffffffffffffff81118282101715612c2157612c21612bbb565b604052919050565b5f67ffffffffffffffff821115612c4257612c42612bbb565b5060051b60200190565b8015158114610780575f80fd5b5f60808284031215612c69575f80fd5b50919050565b5f805f8060e08587031215612c82575f80fd5b8435612c8d81612a2b565b9350602085810135612c9e81612a2b565b935060408681013567ffffffffffffffff811115612cba575f80fd5b8701601f81018913612cca575f80fd5b8035612cdd612cd882612c29565b612bf8565b81815260079190911b8201840190848101908b831115612cfb575f80fd5b928501925b82841015612d76576080848d031215612d17575f80fd5b612d1f612bcf565b8435612d2a81612a2b565b81528487013560028110612d3c575f80fd5b8188015284860135612d4d81612a2b565b81870152606085810135612d6081612c4c565b9082015282526080939093019290850190612d00565b809750505050505050612d8c8660608701612c59565b905092959194509250565b5f82601f830112612da6575f80fd5b81356020612db6612cd883612c29565b8083825260208201915060208460051b870101935086841115612dd7575f80fd5b602086015b84811015612df35780358352918301918301612ddc565b509695505050505050565b5f8060408385031215612e0f575f80fd5b823567ffffffffffffffff80821115612e26575f80fd5b612e3286838701612d97565b93506020850135915080821115612e47575f80fd5b50612e5485828601612d97565b9150509250929050565b5f60208284031215612e6e575f80fd5b813567ffffffffffffffff811115612e84575f80fd5b82016101808185031215612ab6575f80fd5b5f67ffffffffffffffff821115612eaf57612eaf612bbb565b50601f01601f191660200190565b5f82601f830112612ecc575f80fd5b8135612eda612cd882612e96565b818152846020838601011115612eee575f80fd5b816020850160208301375f918101602001919091529392505050565b5f8060408385031215612f1b575f80fd5b823567ffffffffffffffff80821115612f32575f80fd5b612f3e86838701612d97565b93506020850135915080821115612f53575f80fd5b50612e5485828601612ebd565b5f805f60608486031215612f72575f80fd5b8335612f7d81612a2b565b92506020840135612f8d81612a2b565b929592945050506040919091013590565b803560048110612a4a575f80fd5b5f805f805f805f80610100898b031215612fc4575f80fd5b612fcd89612a3f565b9750612fdb60208a01612a3f565b9650612fe960408a01612f9e565b955060608901359450608089013567ffffffffffffffff8082111561300c575f80fd5b6130188c838d01612d97565b955060a08b013591508082111561302d575f80fd5b6130398c838d01612d97565b945060c08b013591508082111561304e575f80fd5b61305a8c838d01612d97565b935060e08b013591508082111561306f575f80fd5b5061307c8b828c01612ebd565b9150509295985092959890939650565b8215158152604060208201525f611e8d6040830184612abd565b5f805f606084860312156130b8575f80fd5b833567ffffffffffffffff808211156130cf575f80fd5b6130db87838801612d97565b94506020860135935060408601359150808211156130f7575f80fd5b5061310486828701612ebd565b9150509250925092565b803560058110612a4a575f80fd5b5f805f805f805f60e0888a031215613132575f80fd5b873561313d81612a2b565b9650602088013561314d81612a2b565b955061315b6040890161310e565b9450606088013567ffffffffffffffff80821115613177575f80fd5b6131838b838c01612d97565b955060808a0135945060a08a013591508082111561319f575f80fd5b6131ab8b838c01612d97565b935060c08a01359150808211156131c0575f80fd5b506131cd8a828b01612ebd565b91505092959891949750929550565b5f60e08284031215612c69575f80fd5b5f80604083850312156131fd575f80fd5b823567ffffffffffffffff811115613213575f80fd5b61321f858286016131dc565b9250506020830135612a7b81612a2b565b5f60208284031215613240575f80fd5b8135612ab681612a2b565b5f805f805f60a0868803121561325f575f80fd5b853561326a81612a2b565b9450602086013567ffffffffffffffff80821115613286575f80fd5b61329289838a01612d97565b95506040880135945060608801359150808211156132ae575f80fd5b6132ba89838a01612d97565b935060808801359150808211156132cf575f80fd5b506132dc88828901612ebd565b9150509295509295909350565b5f805f805f805f80610100898b031215613301575f80fd5b61330a89612a3f565b975061331860208a01612a3f565b965061332660408a0161310e565b9550606089013567ffffffffffffffff80821115613342575f80fd5b61334e8c838d01612d97565b965060808b0135915080821115613363575f80fd5b61336f8c838d01612d97565b955060a08b0135945060c08b013591508082111561304e575f80fd5b5f805f6060848603121561339d575f80fd5b833567ffffffffffffffff8111156133b3575f80fd5b6133bf868287016131dc565b9350506020840135612f8d81612a2b565b5f80604083850312156133e1575f80fd5b82356133ec81612a2b565b91506020830135612a7b81612c4c565b5f805f806080858703121561340f575f80fd5b843561341a81612a2b565b9350602085013561342a81612a2b565b925060408501359150606085013567ffffffffffffffff81111561344c575f80fd5b61345887828801612ebd565b91505092959194509250565b5f805f805f805f60e0888a03121561347a575f80fd5b873561348581612a2b565b9650602088013561349581612a2b565b95506134a360408901612f9e565b945060608801359350608088013567ffffffffffffffff808211156134c6575f80fd5b6134d28b838c01612d97565b945060a08a013591508082111561319f575f80fd5b5f805f805f8060c087890312156134fc575f80fd5b863561350781612a2b565b95506020870135945060408701359350606087013560ff8116811461352a575f80fd5b9598949750929560808101359460a0909101359350915050565b81511515815261014081016020830151613562602084018215159052565b506040830151613576604084018215159052565b50606083015161358a606084018215159052565b50608083015161359e608084018215159052565b5060a08301516135b260a084018215159052565b5060c08301516135c660c084018215159052565b5060e08301516135da60e084018215159052565b5061010083810151151590830152610120928301511515929091019190915290565b634e487b7160e01b5f52601160045260245ffd5b81810381811115610c9857610c986135fc565b80820180821115610c9857610c986135fc565b8082028115828204841417610c9857610c986135fc565b5f8261366757634e487b7160e01b5f52601260045260245ffd5b500490565b634e487b7160e01b5f52603260045260245ffd5b600181811c9082168061369457607f821691505b602082108103612c6957634e487b7160e01b5f52602260045260245ffd5b5f602082840312156136c2575f80fd5b8151612ab681612c4c565b5f602082840312156136dd575f80fd5b8151612ab681612a2b565b5f600182016136f9576136f96135fc565b5060010190565b5f60208284031215613710575f80fd5b815167ffffffffffffffff811115613726575f80fd5b8201601f81018413613736575f80fd5b8051613744612cd882612e96565b818152856020838501011115613758575f80fd5b611014826020830160208601612b1b565b5f6001600160a01b0380871683528086166020840152508360408301526080606083015261379a6080830184612b3d565b9695505050505050565b5f602082840312156137b4575f80fd5b8151612ab681612a8656fea26469706673582212206a5420611028283e1a5c0bb3174387cceb7f0893211853301cd0a19496ac27c564736f6c63430008180033608060405234801561000f575f80fd5b5060405162000ae438038062000ae4833981016040819052610030916100b6565b6040518060400160405280600c81526020016b2932bbb0b932102a37b5b2b760a11b815250604051806040016040528060038152602001621495d160ea1b8152508160039081610080919061017b565b50600461008d828261017b565b5050600580546001600160a01b0319166001600160a01b0393909316929092179091555061023a565b5f602082840312156100c6575f80fd5b81516001600160a01b03811681146100dc575f80fd5b9392505050565b634e487b7160e01b5f52604160045260245ffd5b600181811c9082168061010b57607f821691505b60208210810361012957634e487b7160e01b5f52602260045260245ffd5b50919050565b601f82111561017657805f5260205f20601f840160051c810160208510156101545750805b601f840160051c820191505b81811015610173575f8155600101610160565b50505b505050565b81516001600160401b03811115610194576101946100e3565b6101a8816101a284546100f7565b8461012f565b602080601f8311600181146101db575f84156101c45750858301515b5f19600386901b1c1916600185901b178555610232565b5f85815260208120601f198616915b82811015610209578886015182559484019460019091019084016101ea565b508582101561022657878501515f19600388901b60f8161c191681555b505060018460011b0185555b505050505050565b61089c80620002485f395ff3fe608060405234801561000f575f80fd5b50600436106100c4575f3560e01c8063313ce5671161007d57806395d89b411161005857806395d89b41146101a1578063a9059cbb146101a9578063dd62ed3e146101bc575f80fd5b8063313ce5671461015557806340c10f191461016457806370a0823114610179575f80fd5b8063095ea7b3116100ad578063095ea7b31461010d57806318160ddd1461013057806323b872dd14610142575f80fd5b80630446e8f9146100c857806306fdde03146100f8575b5f80fd5b6005546100db906001600160a01b031681565b6040516001600160a01b0390911681526020015b60405180910390f35b6101006101f4565b6040516100ef91906106f6565b61012061011b36600461075d565b610284565b60405190151581526020016100ef565b6002545b6040519081526020016100ef565b610120610150366004610785565b61029d565b604051601281526020016100ef565b61017761017236600461075d565b6102c0565b005b6101346101873660046107be565b6001600160a01b03165f9081526020819052604090205490565b610100610347565b6101206101b736600461075d565b610356565b6101346101ca3660046107de565b6001600160a01b039182165f90815260016020908152604080832093909416825291909152205490565b6060600380546102039061080f565b80601f016020809104026020016040519081016040528092919081815260200182805461022f9061080f565b801561027a5780601f106102515761010080835404028352916020019161027a565b820191905f5260205f20905b81548152906001019060200180831161025d57829003601f168201915b5050505050905090565b5f33610291818585610363565b60019150505b92915050565b5f336102aa858285610375565b6102b5858585610409565b506001949350505050565b6005546001600160a01b03163314610339576040517f08c379a000000000000000000000000000000000000000000000000000000000815260206004820152601a60248201527f4f6e6c79207374616b696e6720686f6f6b2063616e206d696e7400000000000060448201526064015b60405180910390fd5b610343828261047f565b5050565b6060600480546102039061080f565b5f33610291818585610409565b61037083838360016104b3565b505050565b6001600160a01b038381165f908152600160209081526040808320938616835292905220545f19811461040357818110156103f5576040517ffb8f41b20000000000000000000000000000000000000000000000000000000081526001600160a01b03841660048201526024810182905260448101839052606401610330565b61040384848484035f6104b3565b50505050565b6001600160a01b03831661044b576040517f96c6fd1e0000000000000000000000000000000000000000000000000000000081525f6004820152602401610330565b6001600160a01b0382166104745760405163ec442f0560e01b81525f6004820152602401610330565b6103708383836105b7565b6001600160a01b0382166104a85760405163ec442f0560e01b81525f6004820152602401610330565b6103435f83836105b7565b6001600160a01b0384166104f5576040517fe602df050000000000000000000000000000000000000000000000000000000081525f6004820152602401610330565b6001600160a01b038316610537576040517f94280d620000000000000000000000000000000000000000000000000000000081525f6004820152602401610330565b6001600160a01b038085165f908152600160209081526040808320938716835292905220829055801561040357826001600160a01b0316846001600160a01b03167f8c5be1e5ebec7d5bd14f71427d1e84f3dd0314c0f7b2291e5b200ac8c7c3b925846040516105a991815260200190565b60405180910390a350505050565b6001600160a01b0383166105e1578060025f8282546105d69190610847565b9091555061066a9050565b6001600160a01b0383165f908152602081905260409020548181101561064c576040517fe450d38c0000000000000000000000000000000000000000000000000000000081526001600160a01b03851660048201526024810182905260448101839052606401610330565b6001600160a01b0384165f9081526020819052604090209082900390555b6001600160a01b038216610686576002805482900390556106a4565b6001600160a01b0382165f9081526020819052604090208054820190555b816001600160a01b0316836001600160a01b03167fddf252ad1be2c89b69c2b068fc378daa952ba7f163c4a11628f55a4df523b3ef836040516106e991815260200190565b60405180910390a3505050565b5f602080835283518060208501525f5b8181101561072257858101830151858201604001528201610706565b505f604082860101526040601f19601f8301168501019250505092915050565b80356001600160a01b0381168114610758575f80fd5b919050565b5f806040838503121561076e575f80fd5b61077783610742565b946020939093013593505050565b5f805f60608486031215610797575f80fd5b6107a084610742565b92506107ae60208501610742565b9150604084013590509250925092565b5f602082840312156107ce575f80fd5b6107d782610742565b9392505050565b5f80604083850312156107ef575f80fd5b6107f883610742565b915061080660208401610742565b90509250929050565b600181811c9082168061082357607f821691505b60208210810361084157634e487b7160e01b5f52602260045260245ffd5b50919050565b8082018082111561029757634e487b7160e01b5f52601160045260245ffdfea2646970667358221220735c1e4ce29fc1a942fec96bdb6b34f797fe10b3cc993f57c28007975bcbdb6d64736f6c63430008180033","linkReferences":{}},"methodIdentifiers":{"BRONZE_TIER_AMOUNT()":"707f4439","BRONZE_TIER_THRESHOLD()":"e167711c","COOLDOWN_PERIOD()":"6e99d52f","GOLD_TIER_AMOUNT()":"ecf686f8","GOLD_TIER_THRESHOLD()":"a79d579d","REWARD_RATE()":"5997bb37","SILVER_TIER_AMOUNT()":"30c0ddfb","SILVER_TIER_THRESHOLD()":"f91b5988","UPGRADE_COOLDOWN_PERIOD()":"8187c641","approve(address,uint256)":"095ea7b3","balanceOf(address)":"70a08231","calculateRewards(address,address)":"00c9d509","claimRewards(address)":"ef5cfb8c","delegate(address)":"5c19a95c","delegateBySig(address,uint256,uint256,uint8,bytes32,bytes32)":"c3cda520","delegates(address)":"587cde1e","getApproved(uint256)":"081812fc","getFeeDiscount(address,address)":"098c76d4","getFeeDiscounts()":"0308f910","getHookFlags()":"d77153a7","getPastTotalSupply(uint256)":"8e539e8c","getPastVotes(address,uint256)":"3a46b1a8","getRemainingCooldownTime(address,address)":"ddb5093b","getVotes(address)":"9ab24eb0","getVotingPower(address,address)":"a60b1145","getYieldBoost(address,address)":"e75c6104","governor()":"0c340a24","isApprovedForAll(address,address)":"e985e9c5","lastUnstakeTime(address,address)":"92c0526a","name()":"06fdde03","nftMetadata()":"145e32c5","nftTierToFeeDiscount(uint256)":"0fbd1111","nftTierToVotingPower(uint256)":"43cd09e2","nftTierToYieldBoost(uint256)":"b28de389","onAfterAddLiquidity(address,address,uint8,uint256[],uint256[],uint256,uint256[],bytes)":"976907cc","onAfterAddLiquidity(address,uint256[],uint256,uint256[],bytes)":"851cca0e","onAfterInitialize(uint256[],uint256,bytes)":"38be241d","onAfterRemoveLiquidity(address,address,uint8,uint256,uint256[],uint256[],uint256[],bytes)":"2754888d","onAfterRemoveLiquidity(address,uint256[],uint256,uint256[],bytes)":"825e57ea","onAfterSwap((uint8,address,address,uint256,uint256,uint256,uint256,uint256,uint256,address,address,bytes))":"18b6eb55","onBeforeAddLiquidity(address,address,uint8,uint256[],uint256,uint256[],bytes)":"45421ec7","onBeforeInitialize(uint256[],bytes)":"1c149e28","onBeforeRemoveLiquidity(address,address,uint8,uint256,uint256[],uint256[],bytes)":"ba5f9f40","onBeforeSwap((uint8,uint256,uint256[],uint256,uint256,address,bytes),address)":"5211fa77","onComputeDynamicSwapFeePercentage((uint8,uint256,uint256[],uint256,uint256,address,bytes),address,uint256)":"a0e8f5ac","onRegister(address,address,(address,uint8,address,bool)[],(bool,bool,bool,bool))":"0b89f182","owner()":"8da5cb5b","ownerOf(uint256)":"6352211e","renounceOwnership()":"715018a6","rewardToken()":"f7c618c1","safeTransferFrom(address,address,uint256)":"42842e0e","safeTransferFrom(address,address,uint256,bytes)":"b88d4fde","setApprovalForAll(address,bool)":"a22cb465","setFeeDiscounts(uint256[],uint256[])":"5f68a6db","setGovernor(address)":"c42cf535","setRewardToken(address)":"8aee8127","setVotingPowers(uint256[],uint256[])":"83274f70","setYieldBoosts(uint256[],uint256[])":"0c380e46","stakingInfo(address,address)":"5750ec53","supportsInterface(bytes4)":"01ffc9a7","symbol()":"95d89b41","tokenOfOwnerByIndex(address,uint256)":"2f745c59","tokenURI(uint256)":"c87b56dd","transferFrom(address,address,uint256)":"23b872dd","transferOwnership(address)":"f2fde38b","upgradeNFT(uint256)":"90690c9a"},"id":6}