{"abi":[{"type":"constructor","inputs":[{"name":"vault","type":"address","internalType":"contract IVault"},{"name":"weth","type":"address","internalType":"contract IWETH"},{"name":"permit2","type":"address","internalType":"contract IPermit2"}],"stateMutability":"nonpayable"},{"type":"receive","stateMutability":"payable"},{"type":"function","name":"assertETHBalance","inputs":[],"outputs":[],"stateMutability":"payable"},{"type":"function","name":"call","inputs":[{"name":"to","type":"address","internalType":"address"},{"name":"data","type":"bytes","internalType":"bytes"}],"outputs":[{"name":"","type":"bytes","internalType":"bytes"}],"stateMutability":"nonpayable"},{"type":"function","name":"emitSender","inputs":[],"outputs":[],"stateMutability":"nonpayable"},{"type":"function","name":"getPermit2","inputs":[],"outputs":[{"name":"permit2","type":"address","internalType":"contract IPermit2"}],"stateMutability":"view"},{"type":"function","name":"getSender","inputs":[],"outputs":[{"name":"","type":"address","internalType":"address"}],"stateMutability":"view"},{"type":"function","name":"getVault","inputs":[],"outputs":[{"name":"","type":"address","internalType":"contract IVault"}],"stateMutability":"view"},{"type":"function","name":"getWeth","inputs":[],"outputs":[{"name":"","type":"address","internalType":"contract IWETH"}],"stateMutability":"view"},{"type":"function","name":"manualGetSenderSlot","inputs":[],"outputs":[{"name":"","type":"bytes32","internalType":"StorageSlotExtension.AddressSlotType"}],"stateMutability":"view"},{"type":"function","name":"manualReturnETH","inputs":[],"outputs":[],"stateMutability":"payable"},{"type":"function","name":"mockSendTokenOut","inputs":[{"name":"sender","type":"address","internalType":"address"},{"name":"tokenOut","type":"address","internalType":"contract IERC20"},{"name":"amountOut","type":"uint256","internalType":"uint256"},{"name":"wethIsEth","type":"bool","internalType":"bool"}],"outputs":[],"stateMutability":"nonpayable"},{"type":"function","name":"mockTakeTokenIn","inputs":[{"name":"sender","type":"address","internalType":"address"},{"name":"tokenIn","type":"address","internalType":"contract IERC20"},{"name":"amountIn","type":"uint256","internalType":"uint256"},{"name":"wethIsEth","type":"bool","internalType":"bool"}],"outputs":[],"stateMutability":"nonpayable"},{"type":"function","name":"multicall","inputs":[{"name":"data","type":"bytes[]","internalType":"bytes[]"}],"outputs":[{"name":"results","type":"bytes[]","internalType":"bytes[]"}],"stateMutability":"payable"},{"type":"function","name":"permitBatchAndCall","inputs":[{"name":"permitBatch","type":"tuple[]","internalType":"struct IRouterCommon.PermitApproval[]","components":[{"name":"token","type":"address","internalType":"address"},{"name":"owner","type":"address","internalType":"address"},{"name":"spender","type":"address","internalType":"address"},{"name":"amount","type":"uint256","internalType":"uint256"},{"name":"nonce","type":"uint256","internalType":"uint256"},{"name":"deadline","type":"uint256","internalType":"uint256"}]},{"name":"permitSignatures","type":"bytes[]","internalType":"bytes[]"},{"name":"permit2Batch","type":"tuple","internalType":"struct IAllowanceTransfer.PermitBatch","components":[{"name":"details","type":"tuple[]","internalType":"struct IAllowanceTransfer.PermitDetails[]","components":[{"name":"token","type":"address","internalType":"address"},{"name":"amount","type":"uint160","internalType":"uint160"},{"name":"expiration","type":"uint48","internalType":"uint48"},{"name":"nonce","type":"uint48","internalType":"uint48"}]},{"name":"spender","type":"address","internalType":"address"},{"name":"sigDeadline","type":"uint256","internalType":"uint256"}]},{"name":"permit2Signature","type":"bytes","internalType":"bytes"},{"name":"multicallData","type":"bytes[]","internalType":"bytes[]"}],"outputs":[{"name":"results","type":"bytes[]","internalType":"bytes[]"}],"stateMutability":"payable"},{"type":"function","name":"sendExtraEth","inputs":[{"name":"recipient","type":"address","internalType":"address"},{"name":"amount","type":"uint256","internalType":"uint256"}],"outputs":[],"stateMutability":"payable"},{"type":"event","name":"CurrentSenderMock","inputs":[{"name":"sender","type":"address","indexed":false,"internalType":"address"}],"anonymous":false},{"type":"error","name":"AddressEmptyCode","inputs":[{"name":"target","type":"address","internalType":"address"}]},{"type":"error","name":"EthTransfer","inputs":[]},{"type":"error","name":"FailedCall","inputs":[]},{"type":"error","name":"InsufficientBalance","inputs":[{"name":"balance","type":"uint256","internalType":"uint256"},{"name":"needed","type":"uint256","internalType":"uint256"}]},{"type":"error","name":"InsufficientEth","inputs":[]},{"type":"error","name":"SafeCastOverflowedUintDowncast","inputs":[{"name":"bits","type":"uint8","internalType":"uint8"},{"name":"value","type":"uint256","internalType":"uint256"}]},{"type":"error","name":"SafeERC20FailedOperation","inputs":[{"name":"token","type":"address","internalType":"address"}]},{"type":"error","name":"SwapDeadline","inputs":[]}],"bytecode":{"object":"0x600c6101209081526b2937baba32b921b7b6b6b7b760a11b610140526101a060405260066101609081526539b2b73232b960d11b61018052620000439190620000ed565b60a052604080518082018252600c81526b2937baba32b921b7b6b6b7b760a11b602080830191909152825180840190935260118352701a5cd4995d1d5c9b915d1a131bd8dad959607a1b908301526200009c91620000ed565b60c052348015620000ab575f80fd5b5060405162001dc738038062001dc7833981016040819052620000ce9162000179565b6001600160a01b0392831660805290821660e05216610100526200026b565b5f60ff5f1b19600184846040516020016200010a929190620001f9565b604051602081830303815290604052805190602001205f1c6200012e91906200024b565b6040516020016200014191815260200190565b604051602081830303815290604052805190602001201690505b92915050565b6001600160a01b038116811462000176575f80fd5b50565b5f805f606084860312156200018c575f80fd5b8351620001998162000161565b6020850151909350620001ac8162000161565b6040850151909250620001bf8162000161565b809150509250925092565b5f81515f5b81811015620001eb5760208185018101518683015201620001cf565b505f93019283525090919050565b7f62616c616e6365722d6c6162732e76332e73746f726167652e0000000000000081525f6200022c6019830185620001ca565b601760f91b8152620002426001820185620001ca565b95945050505050565b818103818111156200015b57634e487b7160e01b5f52601160045260245ffd5b60805160a05160c05160e05161010051611a85620003425f395f81816101ee015281816104f20152610f8101525f818160ec0152818161015701528181610b1801528181610c0101528181610d8901528181610dfe01528181610e780152610eda01525f8181610878015281816109840152610ac201525f818161023c01528181610310015281816109ad015281816109f101528181610a250152610a9901525f81816102a101528181610b7d01528181610ca901528181610e9c01528181610f0901528181610fb101526110800152611a855ff3fe6080604052600436106100dc575f3560e01c80636dd66a631161007c5780639efbffc2116100575780639efbffc2146102c5578063ac9650d8146102cd578063ad16ff59146102e0578063f430f49d146102ff575f80fd5b80636dd66a63146102615780638497145f146102805780638d928af814610293575f80fd5b80631bbf2e23116100b75780631bbf2e23146101e0578063200216aa1461021257806320fcbaf6146102265780635e01eb5a1461022e575f80fd5b8063107c279f1461014957806319c6989f146101945780631b8b921d146101b4575f80fd5b3661014557336001600160a01b037f00000000000000000000000000000000000000000000000000000000000000001614610143576040517f0540ddf600000000000000000000000000000000000000000000000000000000815260040160405180910390fd5b005b5f80fd5b348015610154575f80fd5b507f00000000000000000000000000000000000000000000000000000000000000005b6040516001600160a01b0390911681526020015b60405180910390f35b6101a76101a2366004611475565b610339565b60405161018b91906115a2565b3480156101bf575f80fd5b506101d36101ce366004611628565b61057e565b60405161018b9190611679565b3480156101eb575f80fd5b507f0000000000000000000000000000000000000000000000000000000000000000610177565b34801561021d575f80fd5b50610143610650565b6101436107c1565b348015610239575f80fd5b507f00000000000000000000000000000000000000000000000000000000000000005c610177565b34801561026c575f80fd5b5061014361027b36600461168b565b6107cc565b61014361028e3660046116df565b6107de565b34801561029e575f80fd5b507f0000000000000000000000000000000000000000000000000000000000000000610177565b610143610816565b6101a76102db366004611709565b610864565b3480156102eb575f80fd5b506101436102fa36600461168b565b6109e2565b34801561030a575f80fd5b506040517f0000000000000000000000000000000000000000000000000000000000000000815260200161018b565b60605f6103446109ee565b90505f5b8a8110156104ae575f8a8a8381811061036357610363611748565b9050602002810190610375919061175c565b8080601f0160208091040260200160405190810160405280939291908181526020018383808284375f9201829052509394506103b69250849150610a529050565b90505f8e8e858181106103cb576103cb611748565b905060c002018036038101906103e191906117b3565b8051602080830151606084015160a08501516040808901518951958a015191517fd505accf0000000000000000000000000000000000000000000000000000000081526001600160a01b0395861660048201523060248201526044810194909452606484019290925260ff909116608483015260a482019390935260c481019290925292935091169063d505accf9060e4015f604051808303815f87803b15801561048a575f80fd5b505af115801561049c573d5f803e3d5ffd5b50505050505050806001019050610348565b505f6104ba888061184a565b9050111561055b576040517f2a2d80d10000000000000000000000000000000000000000000000000000000081526001600160a01b037f00000000000000000000000000000000000000000000000000000000000000001690632a2d80d19061052d9033908b908b908b906004016118cd565b5f604051808303815f87803b158015610544575f80fd5b505af1158015610556573d5f803e3d5ffd5b505050505b6105658484610864565b915061057081610a8d565b509998505050505050505050565b60605f6105896109ee565b90505f80866001600160a01b031686866040516105a79291906119f3565b5f604051808303815f865af19150503d805f81146105e0576040519150601f19603f3d011682016040523d82523d5f602084013e6105e5565b606091505b50915091508161063c5760405162461bcd60e51b815260206004820152601b60248201527f506f6f6c436f6d6d6f6e4d6f636b3a2063616c6c206661696c6564000000000060448201526064015b60405180910390fd5b92505061064881610a8d565b509392505050565b60408051600481526024810182526020810180517bffffffffffffffffffffffffffffffffffffffffffffffffffffffff167f5e01eb5a0000000000000000000000000000000000000000000000000000000017905290515f91829130916106b791611a02565b5f604051808303815f865af19150503d805f81146106f0576040519150601f19603f3d011682016040523d82523d5f602084013e6106f5565b606091505b50915091508161076d5760405162461bcd60e51b815260206004820152602760248201527f526f75746572436f6d6d6f6e4d6f636b3a206661696c65642067657453656e6460448201527f65722063616c6c000000000000000000000000000000000000000000000000006064820152608401610633565b7fc6cb5b11c33e4bfca5f9a9a36238832ab4219e59bf915713f6aa8fd7ab118b57818060200190518101906107a29190611a1d565b6040516001600160a01b03909116815260200160405180910390a15050565b6107ca33610ac0565b565b6107d884848484610b08565b50505050565b6040516001600160a01b0383169082156108fc029083905f818181858888f19350505050158015610811573d5f803e3d5ffd5b505050565b33316107ca5760405162461bcd60e51b815260206004820152601b60248201527f42616c616e6365206d757374206265206d6f7265207468656e203000000000006044820152606401610633565b60605f61086f6109ee565b905061089e60017f00000000000000000000000000000000000000000000000000000000000000005b90610d06565b8267ffffffffffffffff8111156108b7576108b761179f565b6040519080825280602002602001820160405280156108ea57816020015b60608152602001906001900390816108d55790505b5091505f5b8381101561097d576109583086868481811061090d5761090d611748565b905060200281019061091f919061175c565b8080601f0160208091040260200160405190810160405280939291908181526020018383808284375f92019190915250610d0d92505050565b83828151811061096a5761096a611748565b60209081029190910101526001016108ef565b506109a85f7f0000000000000000000000000000000000000000000000000000000000000000610898565b6109d27f00000000000000000000000000000000000000000000000000000000000000005c610ac0565b6109db81610a8d565b5092915050565b6107d884848484610d7f565b5f7f00000000000000000000000000000000000000000000000000000000000000005c6001600160a01b038116610a4e57610a49337f0000000000000000000000000000000000000000000000000000000000000000610898565b600191505b5090565b60408051606080820183525f808352602080840182815284860183815291870151958701519690930151948452949091529190911a90915290565b8015610abd57610abd5f7f0000000000000000000000000000000000000000000000000000000000000000610898565b50565b7f00000000000000000000000000000000000000000000000000000000000000005c15610aea5750565b478015610b0457610b046001600160a01b038316826110f3565b5050565b81156107d857808015610b4c57507f00000000000000000000000000000000000000000000000000000000000000006001600160a01b0316836001600160a01b0316145b15610c7b5760405163ae63932960e01b81526001600160a01b038481166004830152306024830152604482018490527f0000000000000000000000000000000000000000000000000000000000000000169063ae639329906064015f604051808303815f87803b158015610bbe575f80fd5b505af1158015610bd0573d5f803e3d5ffd5b50506040517f2e1a7d4d000000000000000000000000000000000000000000000000000000008152600481018590527f00000000000000000000000000000000000000000000000000000000000000006001600160a01b03169250632e1a7d4d91506024015f604051808303815f87803b158015610c4c575f80fd5b505af1158015610c5e573d5f803e3d5ffd5b50610c76925050506001600160a01b038516836110f3565b6107d8565b60405163ae63932960e01b81526001600160a01b0384811660048301528581166024830152604482018490527f0000000000000000000000000000000000000000000000000000000000000000169063ae639329906064015f604051808303815f87803b158015610cea575f80fd5b505af1158015610cfc573d5f803e3d5ffd5b5050505050505050565b80825d5050565b60605f80846001600160a01b031684604051610d299190611a02565b5f60405180830381855af49150503d805f8114610d61576040519150601f19603f3d011682016040523d82523d5f602084013e610d66565b606091505b5091509150610d768583836111a6565b95945050505050565b808015610dbd57507f00000000000000000000000000000000000000000000000000000000000000006001600160a01b0316836001600160a01b0316145b15610f795781471015610dfc576040517fa01a9df600000000000000000000000000000000000000000000000000000000815260040160405180910390fd5b7f00000000000000000000000000000000000000000000000000000000000000006001600160a01b031663d0e30db0836040518263ffffffff1660e01b81526004015f604051808303818588803b158015610e55575f80fd5b505af1158015610e67573d5f803e3d5ffd5b50610ec39350506001600160a01b037f00000000000000000000000000000000000000000000000000000000000000001691507f000000000000000000000000000000000000000000000000000000000000000090508461121e565b6040516315afd40960e01b81526001600160a01b037f000000000000000000000000000000000000000000000000000000000000000081166004830152602482018490527f000000000000000000000000000000000000000000000000000000000000000016906315afd409906044016020604051808303815f875af1158015610f4f573d5f803e3d5ffd5b505050506040513d601f19601f82011682018060405250810190610f739190611a38565b506107d8565b81156107d8577f00000000000000000000000000000000000000000000000000000000000000006001600160a01b03166336c78516857f0000000000000000000000000000000000000000000000000000000000000000610fd98661129e565b6040517fffffffff0000000000000000000000000000000000000000000000000000000060e086901b1681526001600160a01b03938416600482015291831660248301528216604482015290861660648201526084015f604051808303815f87803b158015611046575f80fd5b505af1158015611058573d5f803e3d5ffd5b50506040516315afd40960e01b81526001600160a01b038681166004830152602482018690527f00000000000000000000000000000000000000000000000000000000000000001692506315afd40991506044016020604051808303815f875af11580156110c8573d5f803e3d5ffd5b505050506040513d601f19601f820116820180604052508101906110ec9190611a38565b5050505050565b80471015611136576040517fcf47918100000000000000000000000000000000000000000000000000000000815247600482015260248101829052604401610633565b5f826001600160a01b0316826040515f6040518083038185875af1925050503d805f811461117f576040519150601f19603f3d011682016040523d82523d5f602084013e611184565b606091505b50509050806108115760405163d6bda27560e01b815260040160405180910390fd5b6060826111bb576111b6826112ea565b611217565b81511580156111d257506001600160a01b0384163b155b15611214576040517f9996b3150000000000000000000000000000000000000000000000000000000081526001600160a01b0385166004820152602401610633565b50805b9392505050565b604080516001600160a01b038416602482015260448082018490528251808303909101815260649091019091526020810180517bffffffffffffffffffffffffffffffffffffffffffffffffffffffff167fa9059cbb00000000000000000000000000000000000000000000000000000000179052610811908490611313565b5f6001600160a01b03821115610a4e576040517f6dfcc65000000000000000000000000000000000000000000000000000000000815260a0600482015260248101839052604401610633565b8051156112fa5780518082602001fd5b60405163d6bda27560e01b815260040160405180910390fd5b5f8060205f8451602086015f885af180611332576040513d5f823e3d81fd5b50505f513d91508115611349578060011415611356565b6001600160a01b0384163b155b156107d8576040517f5274afe70000000000000000000000000000000000000000000000000000000081526001600160a01b0385166004820152602401610633565b5f8083601f8401126113a8575f80fd5b50813567ffffffffffffffff8111156113bf575f80fd5b60208301915083602060c0830285010111156113d9575f80fd5b9250929050565b5f8083601f8401126113f0575f80fd5b50813567ffffffffffffffff811115611407575f80fd5b6020830191508360208260051b85010111156113d9575f80fd5b5f60608284031215611431575f80fd5b50919050565b5f8083601f840112611447575f80fd5b50813567ffffffffffffffff81111561145e575f80fd5b6020830191508360208285010111156113d9575f80fd5b5f805f805f805f805f60a08a8c03121561148d575f80fd5b893567ffffffffffffffff808211156114a4575f80fd5b6114b08d838e01611398565b909b50995060208c01359150808211156114c8575f80fd5b6114d48d838e016113e0565b909950975060408c01359150808211156114ec575f80fd5b6114f88d838e01611421565b965060608c013591508082111561150d575f80fd5b6115198d838e01611437565b909650945060808c0135915080821115611531575f80fd5b5061153e8c828d016113e0565b915080935050809150509295985092959850929598565b5f5b8381101561156f578181015183820152602001611557565b50505f910152565b5f815180845261158e816020860160208601611555565b601f01601f19169290920160200192915050565b5f60208083016020845280855180835260408601915060408160051b8701019250602087015f5b828110156115f757603f198886030184526115e5858351611577565b945092850192908501906001016115c9565b5092979650505050505050565b6001600160a01b0381168114610abd575f80fd5b803561162381611604565b919050565b5f805f6040848603121561163a575f80fd5b833561164581611604565b9250602084013567ffffffffffffffff811115611660575f80fd5b61166c86828701611437565b9497909650939450505050565b602081525f6112176020830184611577565b5f805f806080858703121561169e575f80fd5b84356116a981611604565b935060208501356116b981611604565b925060408501359150606085013580151581146116d4575f80fd5b939692955090935050565b5f80604083850312156116f0575f80fd5b82356116fb81611604565b946020939093013593505050565b5f806020838503121561171a575f80fd5b823567ffffffffffffffff811115611730575f80fd5b61173c858286016113e0565b90969095509350505050565b634e487b7160e01b5f52603260045260245ffd5b5f808335601e19843603018112611771575f80fd5b83018035915067ffffffffffffffff82111561178b575f80fd5b6020019150368190038213156113d9575f80fd5b634e487b7160e01b5f52604160045260245ffd5b5f60c082840312156117c3575f80fd5b60405160c0810181811067ffffffffffffffff821117156117f257634e487b7160e01b5f52604160045260245ffd5b6040526117fe83611618565b815261180c60208401611618565b602082015261181d60408401611618565b6040820152606083013560608201526080830135608082015260a083013560a08201528091505092915050565b5f808335601e1984360301811261185f575f80fd5b83018035915067ffffffffffffffff821115611879575f80fd5b6020019150600781901b36038213156113d9575f80fd5b803565ffffffffffff81168114611623575f80fd5b81835281816020850137505f828201602090810191909152601f909101601f19169091010190565b5f60606001600160a01b03808816845260206060602086015260c085018835601e198a36030181126118fd575f80fd5b890160208101903567ffffffffffffffff811115611919575f80fd5b8060071b360382131561192a575f80fd5b60608881015291829052905f9060e088015b818310156119a857833561194f81611604565b861681528385013561196081611604565b8616818601526040611973858201611890565b65ffffffffffff808216838501528061198d8b8901611890565b16848b0152505050608093840193600193909301920161193c565b6119b460208d01611618565b6001600160a01b03811660808b0152965060408c013560a08a015288810360408a01526119e2818b8d6118a5565b9d9c50505050505050505050505050565b818382375f9101908152919050565b5f8251611a13818460208701611555565b9190910192915050565b5f60208284031215611a2d575f80fd5b815161121781611604565b5f60208284031215611a48575f80fd5b505191905056fea2646970667358221220b389b811f14e5745f909c1472d17457c829eb4d67f2adebcc3d07b3622fccd1364736f6c63430008180033","linkReferences":{}},"methodIdentifiers":{"assertETHBalance()":"9efbffc2","call(address,bytes)":"1b8b921d","emitSender()":"200216aa","getPermit2()":"1bbf2e23","getSender()":"5e01eb5a","getVault()":"8d928af8","getWeth()":"107c279f","manualGetSenderSlot()":"f430f49d","manualReturnETH()":"20fcbaf6","mockSendTokenOut(address,address,uint256,bool)":"6dd66a63","mockTakeTokenIn(address,address,uint256,bool)":"ad16ff59","multicall(bytes[])":"ac9650d8","permitBatchAndCall((address,address,address,uint256,uint256,uint256)[],bytes[],((address,uint160,uint48,uint48)[],address,uint256),bytes,bytes[])":"19c6989f","sendExtraEth(address,uint256)":"8497145f"},"id":119}