{"abi":[{"type":"constructor","inputs":[{"name":"vault","type":"address","internalType":"contract IVault"},{"name":"weth","type":"address","internalType":"contract IWETH"},{"name":"permit2","type":"address","internalType":"contract IPermit2"}],"stateMutability":"nonpayable"},{"type":"receive","stateMutability":"payable"},{"type":"function","name":"addLiquidityCustom","inputs":[{"name":"pool","type":"address","internalType":"address"},{"name":"maxAmountsIn","type":"uint256[]","internalType":"uint256[]"},{"name":"minBptAmountOut","type":"uint256","internalType":"uint256"},{"name":"wethIsEth","type":"bool","internalType":"bool"},{"name":"userData","type":"bytes","internalType":"bytes"}],"outputs":[{"name":"amountsIn","type":"uint256[]","internalType":"uint256[]"},{"name":"bptAmountOut","type":"uint256","internalType":"uint256"},{"name":"returnData","type":"bytes","internalType":"bytes"}],"stateMutability":"payable"},{"type":"function","name":"addLiquidityHook","inputs":[{"name":"params","type":"tuple","internalType":"struct IRouterCommon.AddLiquidityHookParams","components":[{"name":"sender","type":"address","internalType":"address"},{"name":"pool","type":"address","internalType":"address"},{"name":"maxAmountsIn","type":"uint256[]","internalType":"uint256[]"},{"name":"minBptAmountOut","type":"uint256","internalType":"uint256"},{"name":"kind","type":"uint8","internalType":"enum AddLiquidityKind"},{"name":"wethIsEth","type":"bool","internalType":"bool"},{"name":"userData","type":"bytes","internalType":"bytes"}]}],"outputs":[{"name":"amountsIn","type":"uint256[]","internalType":"uint256[]"},{"name":"bptAmountOut","type":"uint256","internalType":"uint256"},{"name":"returnData","type":"bytes","internalType":"bytes"}],"stateMutability":"nonpayable"},{"type":"function","name":"addLiquidityProportional","inputs":[{"name":"pool","type":"address","internalType":"address"},{"name":"maxAmountsIn","type":"uint256[]","internalType":"uint256[]"},{"name":"exactBptAmountOut","type":"uint256","internalType":"uint256"},{"name":"wethIsEth","type":"bool","internalType":"bool"},{"name":"userData","type":"bytes","internalType":"bytes"}],"outputs":[{"name":"amountsIn","type":"uint256[]","internalType":"uint256[]"}],"stateMutability":"payable"},{"type":"function","name":"addLiquiditySingleTokenExactOut","inputs":[{"name":"pool","type":"address","internalType":"address"},{"name":"tokenIn","type":"address","internalType":"contract IERC20"},{"name":"maxAmountIn","type":"uint256","internalType":"uint256"},{"name":"exactBptAmountOut","type":"uint256","internalType":"uint256"},{"name":"wethIsEth","type":"bool","internalType":"bool"},{"name":"userData","type":"bytes","internalType":"bytes"}],"outputs":[{"name":"amountIn","type":"uint256","internalType":"uint256"}],"stateMutability":"payable"},{"type":"function","name":"addLiquidityToBuffer","inputs":[{"name":"wrappedToken","type":"address","internalType":"contract IERC4626"},{"name":"exactSharesToIssue","type":"uint256","internalType":"uint256"}],"outputs":[{"name":"amountUnderlyingRaw","type":"uint256","internalType":"uint256"},{"name":"amountWrappedRaw","type":"uint256","internalType":"uint256"}],"stateMutability":"nonpayable"},{"type":"function","name":"addLiquidityToBufferHook","inputs":[{"name":"wrappedToken","type":"address","internalType":"contract IERC4626"},{"name":"exactSharesToIssue","type":"uint256","internalType":"uint256"},{"name":"sharesOwner","type":"address","internalType":"address"}],"outputs":[{"name":"amountUnderlyingRaw","type":"uint256","internalType":"uint256"},{"name":"amountWrappedRaw","type":"uint256","internalType":"uint256"}],"stateMutability":"nonpayable"},{"type":"function","name":"addLiquidityUnbalanced","inputs":[{"name":"pool","type":"address","internalType":"address"},{"name":"exactAmountsIn","type":"uint256[]","internalType":"uint256[]"},{"name":"minBptAmountOut","type":"uint256","internalType":"uint256"},{"name":"wethIsEth","type":"bool","internalType":"bool"},{"name":"userData","type":"bytes","internalType":"bytes"}],"outputs":[{"name":"bptAmountOut","type":"uint256","internalType":"uint256"}],"stateMutability":"payable"},{"type":"function","name":"donate","inputs":[{"name":"pool","type":"address","internalType":"address"},{"name":"amountsIn","type":"uint256[]","internalType":"uint256[]"},{"name":"wethIsEth","type":"bool","internalType":"bool"},{"name":"userData","type":"bytes","internalType":"bytes"}],"outputs":[],"stateMutability":"payable"},{"type":"function","name":"getSender","inputs":[],"outputs":[{"name":"","type":"address","internalType":"address"}],"stateMutability":"view"},{"type":"function","name":"getSingleInputArrayAndTokenIndex","inputs":[{"name":"pool","type":"address","internalType":"address"},{"name":"token","type":"address","internalType":"contract IERC20"},{"name":"amountGiven","type":"uint256","internalType":"uint256"}],"outputs":[{"name":"amountsGiven","type":"uint256[]","internalType":"uint256[]"},{"name":"tokenIndex","type":"uint256","internalType":"uint256"}],"stateMutability":"view"},{"type":"function","name":"initialize","inputs":[{"name":"pool","type":"address","internalType":"address"},{"name":"tokens","type":"address[]","internalType":"contract IERC20[]"},{"name":"exactAmountsIn","type":"uint256[]","internalType":"uint256[]"},{"name":"minBptAmountOut","type":"uint256","internalType":"uint256"},{"name":"wethIsEth","type":"bool","internalType":"bool"},{"name":"userData","type":"bytes","internalType":"bytes"}],"outputs":[{"name":"bptAmountOut","type":"uint256","internalType":"uint256"}],"stateMutability":"payable"},{"type":"function","name":"initializeBuffer","inputs":[{"name":"wrappedToken","type":"address","internalType":"contract IERC4626"},{"name":"amountUnderlyingRaw","type":"uint256","internalType":"uint256"},{"name":"amountWrappedRaw","type":"uint256","internalType":"uint256"}],"outputs":[{"name":"issuedShares","type":"uint256","internalType":"uint256"}],"stateMutability":"nonpayable"},{"type":"function","name":"initializeBufferHook","inputs":[{"name":"wrappedToken","type":"address","internalType":"contract IERC4626"},{"name":"amountUnderlyingRaw","type":"uint256","internalType":"uint256"},{"name":"amountWrappedRaw","type":"uint256","internalType":"uint256"},{"name":"sharesOwner","type":"address","internalType":"address"}],"outputs":[{"name":"issuedShares","type":"uint256","internalType":"uint256"}],"stateMutability":"nonpayable"},{"type":"function","name":"initializeHook","inputs":[{"name":"params","type":"tuple","internalType":"struct IRouter.InitializeHookParams","components":[{"name":"sender","type":"address","internalType":"address"},{"name":"pool","type":"address","internalType":"address"},{"name":"tokens","type":"address[]","internalType":"contract IERC20[]"},{"name":"exactAmountsIn","type":"uint256[]","internalType":"uint256[]"},{"name":"minBptAmountOut","type":"uint256","internalType":"uint256"},{"name":"wethIsEth","type":"bool","internalType":"bool"},{"name":"userData","type":"bytes","internalType":"bytes"}]}],"outputs":[{"name":"bptAmountOut","type":"uint256","internalType":"uint256"}],"stateMutability":"nonpayable"},{"type":"function","name":"manualReentrancyAddLiquidityHook","inputs":[],"outputs":[],"stateMutability":"nonpayable"},{"type":"function","name":"manualReentrancyAddLiquidityToBufferHook","inputs":[],"outputs":[],"stateMutability":"nonpayable"},{"type":"function","name":"manualReentrancyInitializeHook","inputs":[],"outputs":[],"stateMutability":"nonpayable"},{"type":"function","name":"manualReentrancyQuerySwapHook","inputs":[],"outputs":[],"stateMutability":"nonpayable"},{"type":"function","name":"manualReentrancyRemoveLiquidityHook","inputs":[],"outputs":[],"stateMutability":"nonpayable"},{"type":"function","name":"manualReentrancyRemoveLiquidityRecoveryHook","inputs":[],"outputs":[],"stateMutability":"nonpayable"},{"type":"function","name":"manualReentrancySwapSingleTokenHook","inputs":[],"outputs":[],"stateMutability":"nonpayable"},{"type":"function","name":"multicall","inputs":[{"name":"data","type":"bytes[]","internalType":"bytes[]"}],"outputs":[{"name":"results","type":"bytes[]","internalType":"bytes[]"}],"stateMutability":"payable"},{"type":"function","name":"permitBatchAndCall","inputs":[{"name":"permitBatch","type":"tuple[]","internalType":"struct IRouterCommon.PermitApproval[]","components":[{"name":"token","type":"address","internalType":"address"},{"name":"owner","type":"address","internalType":"address"},{"name":"spender","type":"address","internalType":"address"},{"name":"amount","type":"uint256","internalType":"uint256"},{"name":"nonce","type":"uint256","internalType":"uint256"},{"name":"deadline","type":"uint256","internalType":"uint256"}]},{"name":"permitSignatures","type":"bytes[]","internalType":"bytes[]"},{"name":"permit2Batch","type":"tuple","internalType":"struct IAllowanceTransfer.PermitBatch","components":[{"name":"details","type":"tuple[]","internalType":"struct IAllowanceTransfer.PermitDetails[]","components":[{"name":"token","type":"address","internalType":"address"},{"name":"amount","type":"uint160","internalType":"uint160"},{"name":"expiration","type":"uint48","internalType":"uint48"},{"name":"nonce","type":"uint48","internalType":"uint48"}]},{"name":"spender","type":"address","internalType":"address"},{"name":"sigDeadline","type":"uint256","internalType":"uint256"}]},{"name":"permit2Signature","type":"bytes","internalType":"bytes"},{"name":"multicallData","type":"bytes[]","internalType":"bytes[]"}],"outputs":[{"name":"results","type":"bytes[]","internalType":"bytes[]"}],"stateMutability":"payable"},{"type":"function","name":"queryAddLiquidityCustom","inputs":[{"name":"pool","type":"address","internalType":"address"},{"name":"maxAmountsIn","type":"uint256[]","internalType":"uint256[]"},{"name":"minBptAmountOut","type":"uint256","internalType":"uint256"},{"name":"userData","type":"bytes","internalType":"bytes"}],"outputs":[{"name":"amountsIn","type":"uint256[]","internalType":"uint256[]"},{"name":"bptAmountOut","type":"uint256","internalType":"uint256"},{"name":"returnData","type":"bytes","internalType":"bytes"}],"stateMutability":"nonpayable"},{"type":"function","name":"queryAddLiquidityHook","inputs":[{"name":"params","type":"tuple","internalType":"struct IRouterCommon.AddLiquidityHookParams","components":[{"name":"sender","type":"address","internalType":"address"},{"name":"pool","type":"address","internalType":"address"},{"name":"maxAmountsIn","type":"uint256[]","internalType":"uint256[]"},{"name":"minBptAmountOut","type":"uint256","internalType":"uint256"},{"name":"kind","type":"uint8","internalType":"enum AddLiquidityKind"},{"name":"wethIsEth","type":"bool","internalType":"bool"},{"name":"userData","type":"bytes","internalType":"bytes"}]}],"outputs":[{"name":"amountsIn","type":"uint256[]","internalType":"uint256[]"},{"name":"bptAmountOut","type":"uint256","internalType":"uint256"},{"name":"returnData","type":"bytes","internalType":"bytes"}],"stateMutability":"nonpayable"},{"type":"function","name":"queryAddLiquidityProportional","inputs":[{"name":"pool","type":"address","internalType":"address"},{"name":"exactBptAmountOut","type":"uint256","internalType":"uint256"},{"name":"userData","type":"bytes","internalType":"bytes"}],"outputs":[{"name":"amountsIn","type":"uint256[]","internalType":"uint256[]"}],"stateMutability":"nonpayable"},{"type":"function","name":"queryAddLiquiditySingleTokenExactOut","inputs":[{"name":"pool","type":"address","internalType":"address"},{"name":"tokenIn","type":"address","internalType":"contract IERC20"},{"name":"exactBptAmountOut","type":"uint256","internalType":"uint256"},{"name":"userData","type":"bytes","internalType":"bytes"}],"outputs":[{"name":"amountIn","type":"uint256","internalType":"uint256"}],"stateMutability":"nonpayable"},{"type":"function","name":"queryAddLiquidityUnbalanced","inputs":[{"name":"pool","type":"address","internalType":"address"},{"name":"exactAmountsIn","type":"uint256[]","internalType":"uint256[]"},{"name":"userData","type":"bytes","internalType":"bytes"}],"outputs":[{"name":"bptAmountOut","type":"uint256","internalType":"uint256"}],"stateMutability":"nonpayable"},{"type":"function","name":"queryRemoveLiquidityCustom","inputs":[{"name":"pool","type":"address","internalType":"address"},{"name":"maxBptAmountIn","type":"uint256","internalType":"uint256"},{"name":"minAmountsOut","type":"uint256[]","internalType":"uint256[]"},{"name":"userData","type":"bytes","internalType":"bytes"}],"outputs":[{"name":"bptAmountIn","type":"uint256","internalType":"uint256"},{"name":"amountsOut","type":"uint256[]","internalType":"uint256[]"},{"name":"returnData","type":"bytes","internalType":"bytes"}],"stateMutability":"nonpayable"},{"type":"function","name":"queryRemoveLiquidityHook","inputs":[{"name":"params","type":"tuple","internalType":"struct IRouterCommon.RemoveLiquidityHookParams","components":[{"name":"sender","type":"address","internalType":"address"},{"name":"pool","type":"address","internalType":"address"},{"name":"minAmountsOut","type":"uint256[]","internalType":"uint256[]"},{"name":"maxBptAmountIn","type":"uint256","internalType":"uint256"},{"name":"kind","type":"uint8","internalType":"enum RemoveLiquidityKind"},{"name":"wethIsEth","type":"bool","internalType":"bool"},{"name":"userData","type":"bytes","internalType":"bytes"}]}],"outputs":[{"name":"bptAmountIn","type":"uint256","internalType":"uint256"},{"name":"amountsOut","type":"uint256[]","internalType":"uint256[]"},{"name":"returnData","type":"bytes","internalType":"bytes"}],"stateMutability":"nonpayable"},{"type":"function","name":"queryRemoveLiquidityProportional","inputs":[{"name":"pool","type":"address","internalType":"address"},{"name":"exactBptAmountIn","type":"uint256","internalType":"uint256"},{"name":"userData","type":"bytes","internalType":"bytes"}],"outputs":[{"name":"amountsOut","type":"uint256[]","internalType":"uint256[]"}],"stateMutability":"nonpayable"},{"type":"function","name":"queryRemoveLiquidityRecovery","inputs":[{"name":"pool","type":"address","internalType":"address"},{"name":"exactBptAmountIn","type":"uint256","internalType":"uint256"}],"outputs":[{"name":"amountsOut","type":"uint256[]","internalType":"uint256[]"}],"stateMutability":"nonpayable"},{"type":"function","name":"queryRemoveLiquidityRecoveryHook","inputs":[{"name":"pool","type":"address","internalType":"address"},{"name":"sender","type":"address","internalType":"address"},{"name":"exactBptAmountIn","type":"uint256","internalType":"uint256"}],"outputs":[{"name":"amountsOut","type":"uint256[]","internalType":"uint256[]"}],"stateMutability":"nonpayable"},{"type":"function","name":"queryRemoveLiquiditySingleTokenExactIn","inputs":[{"name":"pool","type":"address","internalType":"address"},{"name":"exactBptAmountIn","type":"uint256","internalType":"uint256"},{"name":"tokenOut","type":"address","internalType":"contract IERC20"},{"name":"userData","type":"bytes","internalType":"bytes"}],"outputs":[{"name":"amountOut","type":"uint256","internalType":"uint256"}],"stateMutability":"nonpayable"},{"type":"function","name":"queryRemoveLiquiditySingleTokenExactOut","inputs":[{"name":"pool","type":"address","internalType":"address"},{"name":"tokenOut","type":"address","internalType":"contract IERC20"},{"name":"exactAmountOut","type":"uint256","internalType":"uint256"},{"name":"userData","type":"bytes","internalType":"bytes"}],"outputs":[{"name":"bptAmountIn","type":"uint256","internalType":"uint256"}],"stateMutability":"nonpayable"},{"type":"function","name":"queryRevertErrorCode","inputs":[],"outputs":[{"name":"","type":"uint256","internalType":"uint256"}],"stateMutability":"nonpayable"},{"type":"function","name":"queryRevertErrorCodeHook","inputs":[],"outputs":[],"stateMutability":"pure"},{"type":"function","name":"queryRevertLegacy","inputs":[],"outputs":[{"name":"","type":"uint256","internalType":"uint256"}],"stateMutability":"nonpayable"},{"type":"function","name":"queryRevertLegacyHook","inputs":[],"outputs":[],"stateMutability":"pure"},{"type":"function","name":"queryRevertNoReason","inputs":[],"outputs":[{"name":"","type":"uint256","internalType":"uint256"}],"stateMutability":"nonpayable"},{"type":"function","name":"queryRevertNoReasonHook","inputs":[],"outputs":[{"name":"","type":"uint256","internalType":"uint256"}],"stateMutability":"pure"},{"type":"function","name":"queryRevertPanic","inputs":[],"outputs":[{"name":"","type":"uint256","internalType":"uint256"}],"stateMutability":"nonpayable"},{"type":"function","name":"queryRevertPanicHook","inputs":[],"outputs":[{"name":"","type":"uint256","internalType":"uint256"}],"stateMutability":"pure"},{"type":"function","name":"querySpoof","inputs":[],"outputs":[{"name":"","type":"uint256","internalType":"uint256"}],"stateMutability":"nonpayable"},{"type":"function","name":"querySpoofHook","inputs":[],"outputs":[],"stateMutability":"pure"},{"type":"function","name":"querySwapHook","inputs":[{"name":"params","type":"tuple","internalType":"struct IRouter.SwapSingleTokenHookParams","components":[{"name":"sender","type":"address","internalType":"address"},{"name":"kind","type":"uint8","internalType":"enum SwapKind"},{"name":"pool","type":"address","internalType":"address"},{"name":"tokenIn","type":"address","internalType":"contract IERC20"},{"name":"tokenOut","type":"address","internalType":"contract IERC20"},{"name":"amountGiven","type":"uint256","internalType":"uint256"},{"name":"limit","type":"uint256","internalType":"uint256"},{"name":"deadline","type":"uint256","internalType":"uint256"},{"name":"wethIsEth","type":"bool","internalType":"bool"},{"name":"userData","type":"bytes","internalType":"bytes"}]}],"outputs":[{"name":"","type":"uint256","internalType":"uint256"}],"stateMutability":"nonpayable"},{"type":"function","name":"querySwapSingleTokenExactIn","inputs":[{"name":"pool","type":"address","internalType":"address"},{"name":"tokenIn","type":"address","internalType":"contract IERC20"},{"name":"tokenOut","type":"address","internalType":"contract IERC20"},{"name":"exactAmountIn","type":"uint256","internalType":"uint256"},{"name":"userData","type":"bytes","internalType":"bytes"}],"outputs":[{"name":"amountCalculated","type":"uint256","internalType":"uint256"}],"stateMutability":"nonpayable"},{"type":"function","name":"querySwapSingleTokenExactInAndRevert","inputs":[{"name":"pool","type":"address","internalType":"address"},{"name":"tokenIn","type":"address","internalType":"contract IERC20"},{"name":"tokenOut","type":"address","internalType":"contract IERC20"},{"name":"exactAmountIn","type":"uint256","internalType":"uint256"},{"name":"userData","type":"bytes","internalType":"bytes"}],"outputs":[{"name":"amountCalculated","type":"uint256","internalType":"uint256"}],"stateMutability":"nonpayable"},{"type":"function","name":"querySwapSingleTokenExactOut","inputs":[{"name":"pool","type":"address","internalType":"address"},{"name":"tokenIn","type":"address","internalType":"contract IERC20"},{"name":"tokenOut","type":"address","internalType":"contract IERC20"},{"name":"exactAmountOut","type":"uint256","internalType":"uint256"},{"name":"userData","type":"bytes","internalType":"bytes"}],"outputs":[{"name":"amountCalculated","type":"uint256","internalType":"uint256"}],"stateMutability":"nonpayable"},{"type":"function","name":"removeLiquidityCustom","inputs":[{"name":"pool","type":"address","internalType":"address"},{"name":"maxBptAmountIn","type":"uint256","internalType":"uint256"},{"name":"minAmountsOut","type":"uint256[]","internalType":"uint256[]"},{"name":"wethIsEth","type":"bool","internalType":"bool"},{"name":"userData","type":"bytes","internalType":"bytes"}],"outputs":[{"name":"bptAmountIn","type":"uint256","internalType":"uint256"},{"name":"amountsOut","type":"uint256[]","internalType":"uint256[]"},{"name":"returnData","type":"bytes","internalType":"bytes"}],"stateMutability":"nonpayable"},{"type":"function","name":"removeLiquidityHook","inputs":[{"name":"params","type":"tuple","internalType":"struct IRouterCommon.RemoveLiquidityHookParams","components":[{"name":"sender","type":"address","internalType":"address"},{"name":"pool","type":"address","internalType":"address"},{"name":"minAmountsOut","type":"uint256[]","internalType":"uint256[]"},{"name":"maxBptAmountIn","type":"uint256","internalType":"uint256"},{"name":"kind","type":"uint8","internalType":"enum RemoveLiquidityKind"},{"name":"wethIsEth","type":"bool","internalType":"bool"},{"name":"userData","type":"bytes","internalType":"bytes"}]}],"outputs":[{"name":"bptAmountIn","type":"uint256","internalType":"uint256"},{"name":"amountsOut","type":"uint256[]","internalType":"uint256[]"},{"name":"returnData","type":"bytes","internalType":"bytes"}],"stateMutability":"nonpayable"},{"type":"function","name":"removeLiquidityProportional","inputs":[{"name":"pool","type":"address","internalType":"address"},{"name":"exactBptAmountIn","type":"uint256","internalType":"uint256"},{"name":"minAmountsOut","type":"uint256[]","internalType":"uint256[]"},{"name":"wethIsEth","type":"bool","internalType":"bool"},{"name":"userData","type":"bytes","internalType":"bytes"}],"outputs":[{"name":"amountsOut","type":"uint256[]","internalType":"uint256[]"}],"stateMutability":"payable"},{"type":"function","name":"removeLiquidityRecovery","inputs":[{"name":"pool","type":"address","internalType":"address"},{"name":"exactBptAmountIn","type":"uint256","internalType":"uint256"}],"outputs":[{"name":"amountsOut","type":"uint256[]","internalType":"uint256[]"}],"stateMutability":"nonpayable"},{"type":"function","name":"removeLiquidityRecoveryHook","inputs":[{"name":"pool","type":"address","internalType":"address"},{"name":"sender","type":"address","internalType":"address"},{"name":"exactBptAmountIn","type":"uint256","internalType":"uint256"}],"outputs":[{"name":"amountsOut","type":"uint256[]","internalType":"uint256[]"}],"stateMutability":"nonpayable"},{"type":"function","name":"removeLiquiditySingleTokenExactIn","inputs":[{"name":"pool","type":"address","internalType":"address"},{"name":"exactBptAmountIn","type":"uint256","internalType":"uint256"},{"name":"tokenOut","type":"address","internalType":"contract IERC20"},{"name":"minAmountOut","type":"uint256","internalType":"uint256"},{"name":"wethIsEth","type":"bool","internalType":"bool"},{"name":"userData","type":"bytes","internalType":"bytes"}],"outputs":[{"name":"amountOut","type":"uint256","internalType":"uint256"}],"stateMutability":"payable"},{"type":"function","name":"removeLiquiditySingleTokenExactOut","inputs":[{"name":"pool","type":"address","internalType":"address"},{"name":"maxBptAmountIn","type":"uint256","internalType":"uint256"},{"name":"tokenOut","type":"address","internalType":"contract IERC20"},{"name":"exactAmountOut","type":"uint256","internalType":"uint256"},{"name":"wethIsEth","type":"bool","internalType":"bool"},{"name":"userData","type":"bytes","internalType":"bytes"}],"outputs":[{"name":"bptAmountIn","type":"uint256","internalType":"uint256"}],"stateMutability":"payable"},{"type":"function","name":"swapSingleTokenExactIn","inputs":[{"name":"pool","type":"address","internalType":"address"},{"name":"tokenIn","type":"address","internalType":"contract IERC20"},{"name":"tokenOut","type":"address","internalType":"contract IERC20"},{"name":"exactAmountIn","type":"uint256","internalType":"uint256"},{"name":"minAmountOut","type":"uint256","internalType":"uint256"},{"name":"deadline","type":"uint256","internalType":"uint256"},{"name":"wethIsEth","type":"bool","internalType":"bool"},{"name":"userData","type":"bytes","internalType":"bytes"}],"outputs":[{"name":"","type":"uint256","internalType":"uint256"}],"stateMutability":"payable"},{"type":"function","name":"swapSingleTokenExactOut","inputs":[{"name":"pool","type":"address","internalType":"address"},{"name":"tokenIn","type":"address","internalType":"contract IERC20"},{"name":"tokenOut","type":"address","internalType":"contract IERC20"},{"name":"exactAmountOut","type":"uint256","internalType":"uint256"},{"name":"maxAmountIn","type":"uint256","internalType":"uint256"},{"name":"deadline","type":"uint256","internalType":"uint256"},{"name":"wethIsEth","type":"bool","internalType":"bool"},{"name":"userData","type":"bytes","internalType":"bytes"}],"outputs":[{"name":"","type":"uint256","internalType":"uint256"}],"stateMutability":"payable"},{"type":"function","name":"swapSingleTokenHook","inputs":[{"name":"params","type":"tuple","internalType":"struct IRouter.SwapSingleTokenHookParams","components":[{"name":"sender","type":"address","internalType":"address"},{"name":"kind","type":"uint8","internalType":"enum SwapKind"},{"name":"pool","type":"address","internalType":"address"},{"name":"tokenIn","type":"address","internalType":"contract IERC20"},{"name":"tokenOut","type":"address","internalType":"contract IERC20"},{"name":"amountGiven","type":"uint256","internalType":"uint256"},{"name":"limit","type":"uint256","internalType":"uint256"},{"name":"deadline","type":"uint256","internalType":"uint256"},{"name":"wethIsEth","type":"bool","internalType":"bool"},{"name":"userData","type":"bytes","internalType":"bytes"}]}],"outputs":[{"name":"","type":"uint256","internalType":"uint256"}],"stateMutability":"nonpayable"},{"type":"error","name":"AddressEmptyCode","inputs":[{"name":"target","type":"address","internalType":"address"}]},{"type":"error","name":"ErrorSelectorNotFound","inputs":[]},{"type":"error","name":"EthTransfer","inputs":[]},{"type":"error","name":"FailedCall","inputs":[]},{"type":"error","name":"InsufficientBalance","inputs":[{"name":"balance","type":"uint256","internalType":"uint256"},{"name":"needed","type":"uint256","internalType":"uint256"}]},{"type":"error","name":"InsufficientEth","inputs":[]},{"type":"error","name":"MockErrorCode","inputs":[]},{"type":"error","name":"ReentrancyGuardReentrantCall","inputs":[]},{"type":"error","name":"Result","inputs":[{"name":"result","type":"bytes","internalType":"bytes"}]},{"type":"error","name":"SafeCastOverflowedUintDowncast","inputs":[{"name":"bits","type":"uint8","internalType":"uint8"},{"name":"value","type":"uint256","internalType":"uint256"}]},{"type":"error","name":"SafeERC20FailedOperation","inputs":[{"name":"token","type":"address","internalType":"address"}]},{"type":"error","name":"SenderIsNotVault","inputs":[{"name":"sender","type":"address","internalType":"address"}]},{"type":"error","name":"SwapDeadline","inputs":[]}],"bytecode":{"object":"0x600c6101209081526b2937baba32b921b7b6b6b7b760a11b610140526101a060405260066101609081526539b2b73232b960d11b61018052620000439190620000ed565b60a052604080518082018252600c81526b2937baba32b921b7b6b6b7b760a11b602080830191909152825180840190935260118352701a5cd4995d1d5c9b915d1a131bd8dad959607a1b908301526200009c91620000ed565b60c052348015620000ab575f80fd5b50604051620080af380380620080af833981016040819052620000ce9162000179565b6001600160a01b0392831660805290821660e05216610100526200026b565b5f60ff5f1b19600184846040516020016200010a929190620001f9565b604051602081830303815290604052805190602001205f1c6200012e91906200024b565b6040516020016200014191815260200190565b604051602081830303815290604052805190602001201690505b92915050565b6001600160a01b038116811462000176575f80fd5b50565b5f805f606084860312156200018c575f80fd5b8351620001998162000161565b6020850151909350620001ac8162000161565b6040850151909250620001bf8162000161565b809150509250925092565b5f81515f5b81811015620001eb5760208185018101518683015201620001cf565b505f93019283525090919050565b7f62616c616e6365722d6c6162732e76332e73746f726167652e0000000000000081525f6200022c6019830185620001ca565b601760f91b8152620002426001820185620001ca565b95945050505050565b818103818111156200015b57634e487b7160e01b5f52601160045260245ffd5b60805160a05160c05160e05161010051617b826200052d5f395f8181610f44015281816116b20152818161284e01526157c501525f818161038f01528181610d0801528181610d6401528181610e1501528181610e9b015281816126120152818161266e0152818161271f015281816127a501528181612d350152818161353b0152818161358b0152818161362b015281816155e601528181615642015281816156bc0152818161571e01528181615c920152615d6201525f8181613ff1015281816140fd01526154d601525f818161065401528181614126015281816155490152818161557d01526155b501525f8181610a4f01528181610b9901528181610de601528181610eca01528181610f780152818161102f01528181611160015281816112d4015281816114010152818161179d0152818161194101528181611a8e01528181611bcf01528181611c5f01528181611cfe01528181611e0901528181611f93015281816120cf015281816121d10152818161236701528181612507015281816126f0015281816127d4015281816128820152818161293901528181612a0b01528181612aa701528181612d9901528181612efb0152818161308c015281816132440152818161328b0152818161342e015281816135c0015281816136be0152818161378f0152818161393101528181613a1301528181613b6701528181613d7b01528181613dd201528181613e1301528181613fac01528181614260015281816142f7015281816144b00152818161472d0152818161482501528181614a3401528181614ae601528181614cb701528181614d0801528181614e6b01528181614fc401528181615197015281816152b90152818161542b015281816156e00152818161574d015281816157f5015281816158ac015281816159f101528181615b0f01528181615cf701528181615e0a0152615f430152617b825ff3fe60806040526004361061037f575f3560e01c80637b03c7ba116101d3578063b3b0a7a7116100fd578063df145a4f1161009d578063ecb2182c1161006d578063ecb2182c146109dc578063efd85f14146109ef578063fbe985d514610a0e578063fdea2b5614610a2d575f80fd5b8063df145a4f1461095e578063e178073e1461097d578063e6b51e8f146109aa578063e7326def146109c9575f80fd5b8063bf6ee3fd116100d8578063bf6ee3fd14610910578063c08bc85114610923578063c3ec0efc14610936578063d3a5152a1461094a575f80fd5b8063b3b0a7a7146108ca578063be5ae841146108dd578063beb91feb146108fc575f80fd5b806394e86ef811610173578063ad6d59f311610143578063ad6d59f314610859578063b037ed361461086d578063b24bd5711461088c578063b29a62a7146108ab575f80fd5b806394e86ef814610800578063980ed65214610813578063aaf51ea314610832578063ac9650d814610846575f80fd5b806382bf2b24116101ae57806382bf2b241461079a57806387a6c9ff146107b95780638afe5c38146107d857806390aa9f76146107ec575f80fd5b80637b03c7ba1461073d5780637ccb43251461075c5780637d245e901461077b575f80fd5b80634aeecca9116102b45780635f9815ff11610254578063724dba3311610224578063724dba33146106f057806372657d1714610703578063750283bc146107165780637ae3096014610729575f80fd5b80635f9815ff1461067f5780636193d47d1461069e57806364c90707146106bd57806368a24fe0146106d1575f80fd5b8063516827501161028f57806351682750146105f557806358307e44146106085780635b3437911461061c5780635e01eb5a1461063b575f80fd5b80634aeecca9146105ae5780634b59d17c146105c25780634ba30155146105d6575f80fd5b806322717db21161031f5780633ae97603116102fa5780633ae9760314610521578063431126721461054057806345d132fe1461056c5780634792498014610580575f80fd5b806322717db2146104da5780632d90b0dd146104ee578063339f38381461050d575f80fd5b80630ca078ec1161035a5780630ca078ec146104455780630faa5e37146104675780631053ad251461049b57806319c6989f146104ba575f80fd5b8063026b3d95146103ec578063086fad66146104125780630c3b846f14610431575f80fd5b366103e857336001600160a01b037f000000000000000000000000000000000000000000000000000000000000000016146103e6576040517f0540ddf600000000000000000000000000000000000000000000000000000000815260040160405180910390fd5b005b5f80fd5b6103ff6103fa366004616461565b610a4c565b6040519081526020015b60405180910390f35b34801561041d575f80fd5b506103ff61042c366004616582565b610b7e565b34801561043c575f80fd5b506103e66110cb565b6104586104533660046165b4565b61114e565b604051610409939291906166ca565b348015610472575f80fd5b506104866104813660046166f4565b6112ae565b60408051928352602083019190915201610409565b3480156104a6575f80fd5b506104866104b536600461671e565b6113a8565b6104cd6104c836600461682d565b6114f9565b604051610409919061690d565b3480156104e5575f80fd5b506103e661173e565b3480156104f9575f80fd5b5061045861050836600461696f565b61178b565b348015610518575f80fd5b506103ff6118e7565b34801561052c575f80fd5b506103ff61053b3660046169ea565b611a37565b34801561054b575f80fd5b5061055f61055a366004616a46565b611b8f565b6040516104099190616a84565b348015610577575f80fd5b506103e6611dc6565b34801561058b575f80fd5b5061059f61059a366004616a96565b611df8565b60405161040993929190616af8565b3480156105b9575f80fd5b506103ff611f39565b3480156105cd575f80fd5b506103e6611fc4565b3480156105e1575f80fd5b506103ff6105f0366004616b22565b612070565b61055f610603366004616b69565b6121c2565b348015610613575f80fd5b506103e661231c565b348015610627575f80fd5b50610458610636366004616582565b612350565b348015610646575f80fd5b506040516001600160a01b037f00000000000000000000000000000000000000000000000000000000000000005c168152602001610409565b34801561068a575f80fd5b5061055f610699366004616a46565b6129d3565b3480156106a9575f80fd5b506103ff6106b83660046169ea565b612a77565b3480156106c8575f80fd5b506103e6612c04565b3480156106dc575f80fd5b506103ff6106eb366004616bc9565b612c9b565b61055f6106fe3660046165b4565b612d8a565b6103ff610711366004616c01565b612edb565b6103ff610724366004616c76565b613066565b348015610734575f80fd5b506103ff6131ea565b348015610748575f80fd5b5061059f610757366004616582565b613275565b348015610767575f80fd5b506103ff610776366004616d06565b613769565b348015610786575f80fd5b506103ff610795366004616d06565b61390b565b3480156107a5575f80fd5b5061059f6107b4366004616b69565b613a02565b3480156107c4575f80fd5b506103ff6107d3366004616d86565b613b46565b3480156107e3575f80fd5b506103e6613cae565b3480156107f7575f80fd5b506103ff613d21565b6103ff61080e366004616c76565b613dac565b34801561081e575f80fd5b5061055f61082d366004616dd6565b613e04565b34801561083d575f80fd5b506103ff613f52565b6104cd610854366004616e2b565b613fdd565b348015610864575f80fd5b506103e661415b565b348015610878575f80fd5b5061055f6108873660046166f4565b6141d0565b348015610897575f80fd5b5061059f6108a6366004616582565b6142e9565b3480156108b6575f80fd5b506103ff6108c5366004616d06565b614495565b3480156108d5575f80fd5b506103ff5f80fd5b3480156108e8575f80fd5b506103ff6108f7366004616bc9565b61464e565b348015610907575f80fd5b506103e6614677565b6103e661091e366004616e6a565b6146f6565b6103ff6109313660046165b4565b614817565b348015610941575f80fd5b506103e6614959565b348015610955575f80fd5b506103ff6149f0565b348015610969575f80fd5b5061055f610978366004616dd6565b614a05565b348015610988575f80fd5b5061099c610997366004616a46565b614c26565b604051610409929190616ed7565b3480156109b5575f80fd5b5061055f6109c43660046166f4565b614c40565b6103ff6109d7366004616ef8565b614ceb565b6103ff6109ea366004616ef8565b614e4b565b3480156109fa575f80fd5b50610458610a09366004616582565b614fb5565b348015610a19575f80fd5b506103ff610a28366004616f46565b61515f565b348015610a38575f80fd5b506103ff610a47366004616fad565b61528e565b5f7f00000000000000000000000000000000000000000000000000000000000000006001600160a01b03166348c894916040518060e00160405280336001600160a01b031681526020018a6001600160a01b03168152602001898152602001888152602001878152602001861515815260200185815250604051602401610ad39190617017565b60408051601f198184030181529181526020820180516001600160e01b0316630437d6b360e11b179052516001600160e01b031960e084901b168152610b1c91906004016170af565b5f604051808303815f875af1158015610b37573d5f803e3d5ffd5b505050506040513d5f823e601f3d908101601f19168201604052610b5e9190810190617103565b806020019051810190610b719190617135565b90505b9695505050505050565b5f610b8761539c565b610b8f615420565b6001600160a01b037f00000000000000000000000000000000000000000000000000000000000000001663ba8a2be0610bce604085016020860161714c565b610bdb602086018661714c565b610be86040870187617167565b610bf56060890189617167565b60808a0135610c0760c08c018c6171ad565b6040518a63ffffffff1660e01b8152600401610c2b99989796959493929190617261565b6020604051808303815f875af1158015610c47573d5f803e3d5ffd5b505050506040513d601f19601f82011682018060405250810190610c6b9190617135565b90505f5b610c7c6040840184617167565b90508110156110a8575f610c936040850185617167565b83818110610ca357610ca36172fc565b9050602002016020810190610cb8919061714c565b90505f610cc86060860186617167565b84818110610cd857610cd86172fc565b905060200201359050805f03610cef5750506110a0565b610cff60c0860160a08701617310565b8015610d3c57507f00000000000000000000000000000000000000000000000000000000000000006001600160a01b0316826001600160a01b0316145b15610f3a5780471015610d625760405163500d4efb60e11b815260040160405180910390fd5b7f00000000000000000000000000000000000000000000000000000000000000006001600160a01b031663d0e30db0826040518263ffffffff1660e01b81526004015f604051808303818588803b158015610dbb575f80fd5b505af1158015610dcd573d5f803e3d5ffd5b505060405163a9059cbb60e01b81526001600160a01b037f000000000000000000000000000000000000000000000000000000000000000081166004830152602482018690527f000000000000000000000000000000000000000000000000000000000000000016935063a9059cbb925060440190506020604051808303815f875af1158015610e5f573d5f803e3d5ffd5b505050506040513d601f19601f82011682018060405250810190610e83919061732b565b506040516315afd40960e01b81526001600160a01b037f000000000000000000000000000000000000000000000000000000000000000081166004830152602482018390527f000000000000000000000000000000000000000000000000000000000000000016906315afd409906044016020604051808303815f875af1158015610f10573d5f803e3d5ffd5b505050506040513d601f19601f82011682018060405250810190610f349190617135565b5061109d565b6001600160a01b037f0000000000000000000000000000000000000000000000000000000000000000166336c78516610f76602088018861714c565b7f0000000000000000000000000000000000000000000000000000000000000000610fa085615484565b6040516001600160e01b031960e086901b1681526001600160a01b03938416600482015291831660248301528216604482015290851660648201526084015f604051808303815f87803b158015610ff5575f80fd5b505af1158015611007573d5f803e3d5ffd5b50506040516315afd40960e01b81526001600160a01b038581166004830152602482018590527f00000000000000000000000000000000000000000000000000000000000000001692506315afd40991506044016020604051808303815f875af1158015611077573d5f803e3d5ffd5b505050506040513d601f19601f8201168201806040525081019061109b9190617135565b505b50505b600101610c6f565b506110be6110b9602084018461714c565b6154d4565b6110c661551c565b919050565b6110d361539c565b6110db616282565b604051635b34379160e01b81523090635b343791906110fe90849060040161736e565b5f604051808303815f875af1158015611119573d5f803e3d5ffd5b505050506040513d5f823e601f3d908101601f19168201604052611140919081019061744d565b5050505061114c61551c565b565b60605f60605f61115c615546565b90507f00000000000000000000000000000000000000000000000000000000000000006001600160a01b03166348c894916040518060e00160405280336001600160a01b031681526020018c6001600160a01b031681526020018b81526020018a81526020016004808111156111d4576111d4617346565b81526020018915158152602001888152506040516024016111f5919061736e565b60408051601f198184030181529181526020820180516001600160e01b0316635b34379160e01b179052516001600160e01b031960e084901b16815261123e91906004016170af565b5f604051808303815f875af1158015611259573d5f803e3d5ffd5b505050506040513d5f823e601f3d908101601f191682016040526112809190810190617103565b806020019051810190611293919061744d565b9350935093506112a2816155a9565b50955095509592505050565b6040516001600160a01b038381166024830152604482018390523360648301525f9182917f000000000000000000000000000000000000000000000000000000000000000016906348c894919060840160408051601f198184030181529181526020820180516001600160e01b0316631053ad2560e01b179052516001600160e01b031960e084901b16815261134791906004016170af565b5f604051808303815f875af1158015611362573d5f803e3d5ffd5b505050506040513d5f823e601f3d908101601f191682016040526113899190810190617103565b80602001905181019061139c91906174ab565b915091505b9250929050565b5f806113b261539c565b6113ba615420565b6040517fd446e4a60000000000000000000000000000000000000000000000000000000081526001600160a01b0386811660048301526024820186905284811660448301527f0000000000000000000000000000000000000000000000000000000000000000169063d446e4a69060640160408051808303815f875af1158015611446573d5f803e3d5ffd5b505050506040513d601f19601f8201168201806040525081019061146a91906174ab565b80925081935050506114dd83866001600160a01b03166338d52e0f6040518163ffffffff1660e01b8152600401602060405180830381865afa1580156114b2573d5f803e3d5ffd5b505050506040513d601f19601f820116820180604052508101906114d691906174cd565b845f6155dc565b6114e98386835f6155dc565b6114f161551c565b935093915050565b60605f611504615546565b90505f5b8a81101561166e575f8a8a83818110611523576115236172fc565b905060200281019061153591906171ad565b8080601f0160208091040260200160405190810160405280939291908181526020018383808284375f920182905250939450611576925084915061591e9050565b90505f8e8e8581811061158b5761158b6172fc565b905060c002018036038101906115a191906174e8565b8051602080830151606084015160a08501516040808901518951958a015191517fd505accf0000000000000000000000000000000000000000000000000000000081526001600160a01b0395861660048201523060248201526044810194909452606484019290925260ff909116608483015260a482019390935260c481019290925292935091169063d505accf9060e4015f604051808303815f87803b15801561164a575f80fd5b505af115801561165c573d5f803e3d5ffd5b50505050505050806001019050611508565b505f61167a888061757b565b9050111561171b576040517f2a2d80d10000000000000000000000000000000000000000000000000000000081526001600160a01b037f00000000000000000000000000000000000000000000000000000000000000001690632a2d80d1906116ed9033908b908b908b906004016175d6565b5f604051808303815f87803b158015611704575f80fd5b505af1158015611716573d5f803e3d5ffd5b505050505b6117258484613fdd565b9150611730816155a9565b509998505050505050505050565b60405162461bcd60e51b815260206004820152601460248201527f4c65676163792072657665727420726561736f6e00000000000000000000000060448201526064015b60405180910390fd5b60605f60605f611799615546565b90507f00000000000000000000000000000000000000000000000000000000000000006001600160a01b031663edfa35686040518060e00160405280306001600160a01b031681526020018b6001600160a01b031681526020018a815260200189815260200160048081111561181157611811617346565b81525f602082015260409081018990525161182f919060240161736e565b60408051601f198184030181529181526020820180516001600160e01b0316633bf617c560e21b179052516001600160e01b031960e084901b16815261187891906004016170af565b5f604051808303815f875af1158015611893573d5f803e3d5ffd5b505050506040513d5f823e601f3d908101601f191682016040526118ba9190810190617103565b8060200190518101906118cd919061744d565b9350935093506118dc816155a9565b509450945094915050565b6040805160048082526024820183526020820180516001600160e01b03167f22717db200000000000000000000000000000000000000000000000000000000179052915163757d64b360e01b81525f926001600160a01b037f0000000000000000000000000000000000000000000000000000000000000000169263757d64b39261197292016170af565b5f604051808303815f87803b158015611989575f80fd5b505af192505050801561199a575060015b6119ef573d8080156119c7576040519150601f19603f3d011682016040523d82523d5f602084013e6119cc565b606091505b506119d681615959565b8060200190518101906119e99190617135565b91505090565b60405162461bcd60e51b815260206004820152601260248201527f556e6578706563746564207375636365737300000000000000000000000000006044820152606401611782565b5f80611a41615546565b90505f611a4f8787876159aa565b506040805160e0810182523081526001600160a01b038a811660208301529181018390526fffffffffffffffffffffffffffffffff60608201529192507f0000000000000000000000000000000000000000000000000000000000000000169063edfa35689060808101600281525f6020820152604090810188905251611ad9919060240161770c565b60408051601f198184030181529181526020820180516001600160e01b031663b24bd57160e01b179052516001600160e01b031960e084901b168152611b2291906004016170af565b5f604051808303815f875af1158015611b3d573d5f803e3d5ffd5b505050506040513d5f823e601f3d908101601f19168201604052611b649190810190617103565b806020019051810190611b779190617767565b509093505050611b86816155a9565b50949350505050565b6060611b9961539c565b611ba1615420565b604051633a2d133b60e01b81526001600160a01b0385811660048301528481166024830152604482018490527f00000000000000000000000000000000000000000000000000000000000000001690633a2d133b906064015f604051808303815f875af1158015611c14573d5f803e3d5ffd5b505050506040513d5f823e601f3d908101601f19168201604052611c3b91908101906177b8565b60405163ca4f280360e01b81526001600160a01b0386811660048301529192505f917f0000000000000000000000000000000000000000000000000000000000000000169063ca4f2803906024015f60405180830381865afa158015611ca3573d5f803e3d5ffd5b505050506040513d5f823e601f3d908101601f19168201604052611cca91908101906177ea565b90505f5b8151811015611db5575f838281518110611cea57611cea6172fc565b602002602001015190505f811115611dac577f00000000000000000000000000000000000000000000000000000000000000006001600160a01b031663ae639329848481518110611d3d57611d3d6172fc565b60209081029190910101516040516001600160e01b031960e084901b1681526001600160a01b0391821660048201529089166024820152604481018490526064015f604051808303815f87803b158015611d95575f80fd5b505af1158015611da7573d5f803e3d5ffd5b505050505b50600101611cce565b5050611dbf61551c565b9392505050565b6040517ff5ab33e500000000000000000000000000000000000000000000000000000000815260040160405180910390fd5b5f6060805f611e05615546565b90507f00000000000000000000000000000000000000000000000000000000000000006001600160a01b031663edfa35686040518060e00160405280306001600160a01b031681526020018b6001600160a01b031681526020018981526020018a8152602001600380811115611e7d57611e7d617346565b81525f6020820152604090810189905251611e9b919060240161770c565b60408051601f198184030181529181526020820180516001600160e01b031663b24bd57160e01b179052516001600160e01b031960e084901b168152611ee491906004016170af565b5f604051808303815f875af1158015611eff573d5f803e3d5ffd5b505050506040513d5f823e601f3d908101601f19168201604052611f269190810190617103565b8060200190518101906118cd9190617767565b6040805160048082526024820183526020820180516001600160e01b03167f58307e4400000000000000000000000000000000000000000000000000000000179052915163757d64b360e01b81525f926001600160a01b037f0000000000000000000000000000000000000000000000000000000000000000169263757d64b39261197292016170af565b611fcc61539c565b6040805160e0810182525f8082526020820181905260609282018390528282018390526080820181905260a082015260c0810191909152604051630437d6b360e11b8152309063086fad6690612026908490600401617017565b6020604051808303815f875af1158015612042573d5f803e3d5ffd5b505050506040513d601f19601f820116820180604052508101906120669190617135565b505061114c61551c565b5f61207961539c565b612081615420565b6040517f40058e350000000000000000000000000000000000000000000000000000000081526001600160a01b038681166004830152602482018690526044820185905283811660648301527f000000000000000000000000000000000000000000000000000000000000000016906340058e35906084016020604051808303815f875af1158015612115573d5f803e3d5ffd5b505050506040513d601f19601f820116820180604052508101906121399190617135565b90506121a682866001600160a01b03166338d52e0f6040518163ffffffff1660e01b8152600401602060405180830381865afa15801561217b573d5f803e3d5ffd5b505050506040513d601f19601f8201168201806040525081019061219f91906174cd565b865f6155dc565b6121b28286855f6155dc565b6121ba61551c565b949350505050565b60605f6121cd615546565b90507f00000000000000000000000000000000000000000000000000000000000000006001600160a01b03166348c894916040518060e00160405280336001600160a01b031681526020018a6001600160a01b031681526020018881526020018981526020015f600381111561224557612245617346565b8152602001871515815260200186815250604051602401612266919061770c565b60408051601f198184030181529181526020820180516001600160e01b0316633d81e3dd60e11b179052516001600160e01b031960e084901b1681526122af91906004016170af565b5f604051808303815f875af11580156122ca573d5f803e3d5ffd5b505050506040513d5f823e601f3d908101601f191682016040526122f19190810190617103565b8060200190518101906123049190617767565b5092506123129050816155a9565b5095945050505050565b604080516104d260208201520160408051601f1981840301815290829052630b56c9f760e31b8252611782916004016170af565b60605f606061235d61539c565b612365615420565b7f00000000000000000000000000000000000000000000000000000000000000006001600160a01b0316634af29ec46040518060c001604052808760200160208101906123b2919061714c565b6001600160a01b031681526020908101906123cf9089018961714c565b6001600160a01b031681526020016123ea6040890189617167565b808060200260200160405190810160405280939291908181526020018383602002808284375f920191909152505050908252506060880135602082015260400161243a60a0890160808a0161787f565b600481111561244b5761244b617346565b815260200161245d60c08901896171ad565b8080601f0160208091040260200160405190810160405280939291908181526020018383808284375f9201919091525050509152506040516001600160e01b031960e084901b1681526124b3919060040161789d565b5f604051808303815f875af11580156124ce573d5f803e3d5ffd5b505050506040513d5f823e601f3d908101601f191682016040526124f5919081019061744d565b919450925090505f6001600160a01b037f00000000000000000000000000000000000000000000000000000000000000001663ca4f280361253c604088016020890161714c565b6040516001600160e01b031960e084901b1681526001600160a01b0390911660048201526024015f60405180830381865afa15801561257d573d5f803e3d5ffd5b505050506040513d5f823e601f3d908101601f191682016040526125a491908101906177ea565b90505f5b81518110156129b2575f8282815181106125c4576125c46172fc565b602002602001015190505f8683815181106125e1576125e16172fc565b60200260200101519050805f036125f95750506129aa565b61260960c0890160a08a01617310565b801561264657507f00000000000000000000000000000000000000000000000000000000000000006001600160a01b0316826001600160a01b0316145b15612844578047101561266c5760405163500d4efb60e11b815260040160405180910390fd5b7f00000000000000000000000000000000000000000000000000000000000000006001600160a01b031663d0e30db0826040518263ffffffff1660e01b81526004015f604051808303818588803b1580156126c5575f80fd5b505af11580156126d7573d5f803e3d5ffd5b505060405163a9059cbb60e01b81526001600160a01b037f000000000000000000000000000000000000000000000000000000000000000081166004830152602482018690527f000000000000000000000000000000000000000000000000000000000000000016935063a9059cbb925060440190506020604051808303815f875af1158015612769573d5f803e3d5ffd5b505050506040513d601f19601f8201168201806040525081019061278d919061732b565b506040516315afd40960e01b81526001600160a01b037f000000000000000000000000000000000000000000000000000000000000000081166004830152602482018390527f000000000000000000000000000000000000000000000000000000000000000016906315afd409906044016020604051808303815f875af115801561281a573d5f803e3d5ffd5b505050506040513d601f19601f8201168201806040525081019061283e9190617135565b506129a7565b6001600160a01b037f0000000000000000000000000000000000000000000000000000000000000000166336c7851661288060208b018b61714c565b7f00000000000000000000000000000000000000000000000000000000000000006128aa85615484565b6040516001600160e01b031960e086901b1681526001600160a01b03938416600482015291831660248301528216604482015290851660648201526084015f604051808303815f87803b1580156128ff575f80fd5b505af1158015612911573d5f803e3d5ffd5b50506040516315afd40960e01b81526001600160a01b038581166004830152602482018590527f00000000000000000000000000000000000000000000000000000000000000001692506315afd40991506044016020604051808303815f875af1158015612981573d5f803e3d5ffd5b505050506040513d601f19601f820116820180604052508101906129a59190617135565b505b50505b6001016125a8565b506129c36110b9602087018761714c565b506129cc61551c565b9193909250565b60606129dd615420565b604051633a2d133b60e01b81526001600160a01b0385811660048301528481166024830152604482018490527f00000000000000000000000000000000000000000000000000000000000000001690633a2d133b906064015f604051808303815f875af1158015612a50573d5f803e3d5ffd5b505050506040513d5f823e601f3d908101601f191682016040526121ba91908101906177b8565b5f80612a81615546565b90505f80612aa088886fffffffffffffffffffffffffffffffff6159aa565b915091505f7f00000000000000000000000000000000000000000000000000000000000000006001600160a01b031663edfa35686040518060e00160405280306001600160a01b031681526020018c6001600160a01b031681526020018681526020018a815260200160026004811115612b1c57612b1c617346565b81525f602082015260409081018a905251612b3a919060240161736e565b60408051601f198184030181529181526020820180516001600160e01b0316633bf617c560e21b179052516001600160e01b031960e084901b168152612b8391906004016170af565b5f604051808303815f875af1158015612b9e573d5f803e3d5ffd5b505050506040513d5f823e601f3d908101601f19168201604052612bc59190810190617103565b806020019051810190612bd8919061744d565b50509050808281518110612bee57612bee6172fc565b60200260200101519450505050611b86816155a9565b612c0c61539c565b612c786040805161014081019091525f808252602082019081526020015f6001600160a01b031681526020015f6001600160a01b031681526020015f6001600160a01b031681526020015f81526020015f81526020015f81526020015f15158152602001606081525090565b60405163be5ae84160e01b8152309063be5ae84190612026908490600401617923565b5f612ca461539c565b612cac615420565b5f805f612cb885615acc565b919450925090505f612cd0608087016060880161714c565b9050612cfb612ce2602088018861714c565b8285612cf66101208b016101008c01617310565b6155dc565b612d33612d0b602088018861714c565b612d1b60a0890160808a0161714c565b84612d2e6101208b016101008c01617310565b615c82565b7f00000000000000000000000000000000000000000000000000000000000000006001600160a01b0316816001600160a01b031603612d7c57612d7c6110b9602088018861714c565b5091925050506110c661551c565b60605f612d95615546565b90507f00000000000000000000000000000000000000000000000000000000000000006001600160a01b03166348c894916040518060e00160405280336001600160a01b031681526020018a6001600160a01b031681526020018981526020018881526020015f6004811115612e0d57612e0d617346565b8152602001871515815260200186815250604051602401612e2e919061736e565b60408051601f198184030181529181526020820180516001600160e01b0316635b34379160e01b179052516001600160e01b031960e084901b168152612e7791906004016170af565b5f604051808303815f875af1158015612e92573d5f803e3d5ffd5b505050506040513d5f823e601f3d908101601f19168201604052612eb99190810190617103565b806020019051810190612ecc919061744d565b509092506123129050816155a9565b5f80612ee5615546565b90505f80612ef48a8a8a6159aa565b915091505f7f00000000000000000000000000000000000000000000000000000000000000006001600160a01b03166348c894916040518060e00160405280336001600160a01b031681526020018e6001600160a01b031681526020018681526020018b815260200160026004811115612f7057612f70617346565b81526020018a1515815260200189815250604051602401612f91919061736e565b60408051601f198184030181529181526020820180516001600160e01b0316635b34379160e01b179052516001600160e01b031960e084901b168152612fda91906004016170af565b5f604051808303815f875af1158015612ff5573d5f803e3d5ffd5b505050506040513d5f823e601f3d908101601f1916820160405261301c9190810190617103565b80602001905181019061302f919061744d565b50509050808281518110613045576130456172fc565b6020026020010151945050505061305b816155a9565b509695505050505050565b5f80613070615546565b6040805161014081019091523381529091506001600160a01b037f000000000000000000000000000000000000000000000000000000000000000016906348c8949190602081015f5b81526020018e6001600160a01b031681526020018d6001600160a01b031681526020018c6001600160a01b031681526020018b81526020018a8152602001898152602001881515815260200187878080601f0160208091040260200160405190810160405280939291908181526020018383808284375f92019190915250505091525060405161314c9190602401617923565b60408051601f198184030181529181526020820180516001600160e01b0316630345127f60e51b179052516001600160e01b031960e084901b16815261319591906004016170af565b5f604051808303815f875af11580156131b0573d5f803e3d5ffd5b505050506040513d5f823e601f3d908101601f191682016040526131d79190810190617103565b8060200190518101906117259190617135565b6040805160048082526024820183526020820180516001600160e01b03167f45d132fe00000000000000000000000000000000000000000000000000000000179052915163757d64b360e01b81525f926001600160a01b037f0000000000000000000000000000000000000000000000000000000000000000169263757d64b39261197292016170af565b5f60608061328161539c565b613289615420565b7f00000000000000000000000000000000000000000000000000000000000000006001600160a01b031663214578976040518060c001604052808760200160208101906132d6919061714c565b6001600160a01b031681526020908101906132f39089018961714c565b6001600160a01b031681526020018760600135815260200187806040019061331b9190617167565b808060200260200160405190810160405280939291908181526020018383602002808284375f9201919091525050509082525060200161336160a0890160808a016179e2565b600381111561337257613372617346565b815260200161338460c08901896171ad565b8080601f0160208091040260200160405190810160405280939291908181526020018383808284375f9201919091525050509152506040516001600160e01b031960e084901b1681526133da9190600401617a00565b5f604051808303815f875af11580156133f5573d5f803e3d5ffd5b505050506040513d5f823e601f3d908101601f1916820160405261341c9190810190617767565b919450925090505f6001600160a01b037f00000000000000000000000000000000000000000000000000000000000000001663ca4f2803613463604088016020890161714c565b6040516001600160e01b031960e084901b1681526001600160a01b0390911660048201526024015f60405180830381865afa1580156134a4573d5f803e3d5ffd5b505050506040513d5f823e601f3d908101601f191682016040526134cb91908101906177ea565b90505f5b815181101561375f575f8482815181106134eb576134eb6172fc565b60200260200101519050805f036135025750613757565b5f838381518110613515576135156172fc565b602002602001015190508760a00160208101906135329190617310565b801561356f57507f00000000000000000000000000000000000000000000000000000000000000006001600160a01b0316816001600160a01b0316145b156136b45760405163ae63932960e01b81526001600160a01b037f000000000000000000000000000000000000000000000000000000000000000081166004830152306024830152604482018490527f0000000000000000000000000000000000000000000000000000000000000000169063ae639329906064015f604051808303815f87803b158015613601575f80fd5b505af1158015613613573d5f803e3d5ffd5b5050604051632e1a7d4d60e01b8152600481018590527f00000000000000000000000000000000000000000000000000000000000000006001600160a01b03169250632e1a7d4d91506024015f604051808303815f87803b158015613676575f80fd5b505af1158015613688573d5f803e3d5ffd5b506136af92508491506136a0905060208b018b61714c565b6001600160a01b031690615e67565b613754565b6001600160a01b037f00000000000000000000000000000000000000000000000000000000000000001663ae639329826136f160208c018c61714c565b6040516001600160e01b031960e085901b1681526001600160a01b03928316600482015291166024820152604481018590526064015f604051808303815f87803b15801561373d575f80fd5b505af115801561374f573d5f803e3d5ffd5b505050505b50505b6001016134cf565b50506129cc61551c565b5f80613773615546565b6040805161014081019091523381529091506001600160a01b037f0000000000000000000000000000000000000000000000000000000000000000169063edfa35689060208101600181526020018b6001600160a01b031681526020018a6001600160a01b03168152602001896001600160a01b031681526020018881526020016fffffffffffffffffffffffffffffffff801681526020015f1981526020015f1515815260200187878080601f0160208091040260200160405190810160405280939291908181526020018383808284375f9201919091525050509152506040516138629190602401617923565b60408051601f198184030181529181526020820180516001600160e01b031663be5ae84160e01b179052516001600160e01b031960e084901b1681526138ab91906004016170af565b5f604051808303815f875af11580156138c6573d5f803e3d5ffd5b505050506040513d5f823e601f3d908101601f191682016040526138ed9190810190617103565b8060200190518101906139009190617135565b915061305b816155a9565b5f80613915615546565b6040805161014081019091523381529091506001600160a01b037f0000000000000000000000000000000000000000000000000000000000000000169063edfa356890602081015f81526020018b6001600160a01b031681526020018a6001600160a01b03168152602001896001600160a01b031681526020018881526020015f81526020016fffffffffffffffffffffffffffffffff801681526020015f1515815260200187878080601f0160208091040260200160405190810160405280939291908181526020018383808284375f9201919091525050509152506040516138629190602401617923565b5f6060805f613a0f615546565b90507f00000000000000000000000000000000000000000000000000000000000000006001600160a01b03166348c894916040518060e00160405280336001600160a01b031681526020018c6001600160a01b031681526020018a81526020018b8152602001600380811115613a8757613a87617346565b8152602001891515815260200188815250604051602401613aa8919061770c565b60408051601f198184030181529181526020820180516001600160e01b0316633d81e3dd60e11b179052516001600160e01b031960e084901b168152613af191906004016170af565b5f604051808303815f875af1158015613b0c573d5f803e3d5ffd5b505050506040513d5f823e601f3d908101601f19168201604052613b339190810190617103565b8060200190518101906112939190617767565b5f80613b50615546565b90505f80613b60888760016159aa565b915091505f7f00000000000000000000000000000000000000000000000000000000000000006001600160a01b031663edfa35686040518060e00160405280306001600160a01b031681526020018c6001600160a01b031681526020018681526020018b815260200160016003811115613bdc57613bdc617346565b81525f602082015260409081018a905251613bfa919060240161770c565b60408051601f198184030181529181526020820180516001600160e01b031663b24bd57160e01b179052516001600160e01b031960e084901b168152613c4391906004016170af565b5f604051808303815f875af1158015613c5e573d5f803e3d5ffd5b505050506040513d5f823e601f3d908101601f19168201604052613c859190810190617103565b806020019051810190613c989190617767565b50915050808281518110612bee57612bee6172fc565b613cb661539c565b604051631053ad2560e01b81525f600482018190526024820181905260448201523090631053ad259060640160408051808303815f875af1158015613cfd573d5f803e3d5ffd5b505050506040513d601f19601f8201168201806040525081019061206691906174ab565b6040805160048082526024820183526020820180516001600160e01b03167fb3b0a7a700000000000000000000000000000000000000000000000000000000179052915163757d64b360e01b81525f926001600160a01b037f0000000000000000000000000000000000000000000000000000000000000000169263757d64b39261197292016170af565b5f80613db6615546565b6040805161014081019091523381529091506001600160a01b037f000000000000000000000000000000000000000000000000000000000000000016906348c89491906020810160016130b9565b60605f613e0f615546565b90507f00000000000000000000000000000000000000000000000000000000000000006001600160a01b031663edfa35686040518060e00160405280306001600160a01b03168152602001886001600160a01b03168152602001613e7289615f1f565b8152602081018890526040015f81525f6020820152604090810187905251613e9d919060240161736e565b60408051601f198184030181529181526020820180516001600160e01b0316633bf617c560e21b179052516001600160e01b031960e084901b168152613ee691906004016170af565b5f604051808303815f875af1158015613f01573d5f803e3d5ffd5b505050506040513d5f823e601f3d908101601f19168201604052613f289190810190617103565b806020019051810190613f3b919061744d565b50909250613f4a9050816155a9565b509392505050565b6040805160048082526024820183526020820180516001600160e01b03167fd3a5152a00000000000000000000000000000000000000000000000000000000179052915163757d64b360e01b81525f926001600160a01b037f0000000000000000000000000000000000000000000000000000000000000000169263757d64b39261197292016170af565b60605f613fe8615546565b905061401760017f00000000000000000000000000000000000000000000000000000000000000005b9061603f565b8267ffffffffffffffff8111156140305761403061630c565b60405190808252806020026020018201604052801561406357816020015b606081526020019060019003908161404e5790505b5091505f5b838110156140f6576140d130868684818110614086576140866172fc565b905060200281019061409891906171ad565b8080601f0160208091040260200160405190810160405280939291908181526020018383808284375f9201919091525061604692505050565b8382815181106140e3576140e36172fc565b6020908102919091010152600101614068565b506141215f7f0000000000000000000000000000000000000000000000000000000000000000614011565b61414b7f00000000000000000000000000000000000000000000000000000000000000005c6154d4565b614154816155a9565b5092915050565b61416361539c565b61416b6162bf565b604051633d81e3dd60e11b81523090637b03c7ba9061418e90849060040161770c565b5f604051808303815f875af11580156141a9573d5f803e3d5ffd5b505050506040513d5f823e601f3d908101601f191682016040526111409190810190617767565b604080516001600160a01b038481166024830152306044830152606480830185905283518084039091018152608490920183526020820180516001600160e01b03167f5f9815ff0000000000000000000000000000000000000000000000000000000017905291517fedfa35680000000000000000000000000000000000000000000000000000000081526060927f0000000000000000000000000000000000000000000000000000000000000000169163edfa35689161429491906004016170af565b5f604051808303815f875af11580156142af573d5f803e3d5ffd5b505050506040513d5f823e601f3d908101601f191682016040526142d69190810190617103565b806020019051810190611dbf91906177b8565b5f6060806142f5615420565b7f00000000000000000000000000000000000000000000000000000000000000006001600160a01b031663214578976040518060c00160405280876020016020810190614342919061714c565b6001600160a01b0316815260209081019061435f9089018961714c565b6001600160a01b03168152602001876060013581526020018780604001906143879190617167565b808060200260200160405190810160405280939291908181526020018383602002808284375f920191909152505050908252506020016143cd60a0890160808a016179e2565b60038111156143de576143de617346565b81526020016143f060c08901896171ad565b8080601f0160208091040260200160405190810160405280939291908181526020018383808284375f9201919091525050509152506040516001600160e01b031960e084901b1681526144469190600401617a00565b5f604051808303815f875af1158015614461573d5f803e3d5ffd5b505050506040513d5f823e601f3d908101601f191682016040526144889190810190617767565b9250925092509193909250565b6040805161014081019091523381525f906001600160a01b037f0000000000000000000000000000000000000000000000000000000000000000169063757d64b39063be5ae84160e01b90602081018581526020018b6001600160a01b031681526020018a6001600160a01b03168152602001896001600160a01b031681526020018881526020015f81526020016fffffffffffffffffffffffffffffffff801681526020015f1515815260200187878080601f0160208091040260200160405190810160405280939291908181526020018383808284375f92019190915250505091525060405161458a9190602401617923565b60408051601f198184030181529181526020820180516001600160e01b03166001600160e01b03199485161790525160e084901b90921682526145cf916004016170af565b5f604051808303815f87803b1580156145e6575f80fd5b505af19250505080156145f7575060015b6119ef573d808015614624576040519150601f19603f3d011682016040523d82523d5f602084013e614629565b606091505b5061463381615959565b8060200190518101906146469190617135565b915050610b74565b5f61465761539c565b61465f615420565b5f61466983615acc565b5090925050506110c661551c565b61467f61539c565b604051632188933960e11b81525f6004820181905260248201819052604482015230906343112672906064015f604051808303815f875af11580156146c6573d5f803e3d5ffd5b505050506040513d5f823e601f3d908101601f191682016040526146ed91908101906177b8565b5061114c61551c565b5f6146ff615546565b6040805160e0810182523381526001600160a01b0388811660208301529181018790525f60608201529192507f000000000000000000000000000000000000000000000000000000000000000016906348c8949190608081016003815260200186151581526020018581525060405160240161477b919061736e565b60408051601f198184030181529181526020820180516001600160e01b0316635b34379160e01b179052516001600160e01b031960e084901b1681526147c491906004016170af565b5f604051808303815f875af11580156147df573d5f803e3d5ffd5b505050506040513d5f823e601f3d908101601f191682016040526148069190810190617103565b50614810816155a9565b5050505050565b5f80614821615546565b90507f00000000000000000000000000000000000000000000000000000000000000006001600160a01b03166348c894916040518060e00160405280336001600160a01b031681526020018a6001600160a01b031681526020018981526020018881526020016001600481111561489a5761489a617346565b81526020018715158152602001868152506040516024016148bb919061736e565b60408051601f198184030181529181526020820180516001600160e01b0316635b34379160e01b179052516001600160e01b031960e084901b16815261490491906004016170af565b5f604051808303815f875af115801561491f573d5f803e3d5ffd5b505050506040513d5f823e601f3d908101601f191682016040526149469190810190617103565b806020019051810190612304919061744d565b61496161539c565b6149cd6040805161014081019091525f808252602082019081526020015f6001600160a01b031681526020015f6001600160a01b031681526020015f6001600160a01b031681526020015f81526020015f81526020015f81526020015f15158152602001606081525090565b604051630345127f60e51b815230906368a24fe090612026908490600401617923565b5f600a816149fe8183617a5a565b9250505090565b60605f614a10615546565b60405163ca4f280360e01b81526001600160a01b0387811660048301529192505f917f0000000000000000000000000000000000000000000000000000000000000000169063ca4f2803906024015f60405180830381865afa158015614a78573d5f803e3d5ffd5b505050506040513d5f823e601f3d908101601f19168201604052614a9f91908101906177ea565b5167ffffffffffffffff811115614ab857614ab861630c565b604051908082528060200260200182016040528015614ae1578160200160208202803683370190505b5090507f00000000000000000000000000000000000000000000000000000000000000006001600160a01b031663edfa35686040518060e00160405280306001600160a01b03168152602001896001600160a01b031681526020018481526020018881526020015f6003811115614b5a57614b5a617346565b81525f6020820152604090810188905251614b78919060240161770c565b60408051601f198184030181529181526020820180516001600160e01b031663b24bd57160e01b179052516001600160e01b031960e084901b168152614bc191906004016170af565b5f604051808303815f875af1158015614bdc573d5f803e3d5ffd5b505050506040513d5f823e601f3d908101601f19168201604052614c039190810190617103565b806020019051810190614c169190617767565b509350613f4a91508290506155a9565b60605f614c348585856159aa565b91509150935093915050565b604080516001600160a01b038481166024830152336044830152606480830185905283518084039091018152608490920183526020820180516001600160e01b0316632188933960e11b17905291517f48c894910000000000000000000000000000000000000000000000000000000081526060927f000000000000000000000000000000000000000000000000000000000000000016916348c894919161429491906004016170af565b5f80614cf5615546565b90505f614d038988886159aa565b5090507f00000000000000000000000000000000000000000000000000000000000000006001600160a01b03166348c894916040518060e00160405280336001600160a01b031681526020018c6001600160a01b031681526020018481526020018b815260200160026003811115614d7d57614d7d617346565b8152602001881515815260200187815250604051602401614d9e919061770c565b60408051601f198184030181529181526020820180516001600160e01b0316633d81e3dd60e11b179052516001600160e01b031960e084901b168152614de791906004016170af565b5f604051808303815f875af1158015614e02573d5f803e3d5ffd5b505050506040513d5f823e601f3d908101601f19168201604052614e299190810190617103565b806020019051810190614e3c9190617767565b50909350505061305b816155a9565b5f80614e55615546565b90505f80614e648a89896159aa565b915091505f7f00000000000000000000000000000000000000000000000000000000000000006001600160a01b03166348c894916040518060e00160405280336001600160a01b031681526020018e6001600160a01b031681526020018681526020018d815260200160016003811115614ee057614ee0617346565b81526020018a1515815260200189815250604051602401614f01919061770c565b60408051601f198184030181529181526020820180516001600160e01b0316633d81e3dd60e11b179052516001600160e01b031960e084901b168152614f4a91906004016170af565b5f604051808303815f875af1158015614f65573d5f803e3d5ffd5b505050506040513d5f823e601f3d908101601f19168201604052614f8c9190810190617103565b806020019051810190614f9f9190617767565b50915050808281518110613045576130456172fc565b60605f6060614fc2615420565b7f00000000000000000000000000000000000000000000000000000000000000006001600160a01b0316634af29ec46040518060c0016040528087602001602081019061500f919061714c565b6001600160a01b0316815260209081019061502c9089018961714c565b6001600160a01b031681526020016150476040890189617167565b808060200260200160405190810160405280939291908181526020018383602002808284375f920191909152505050908252506060880135602082015260400161509760a0890160808a0161787f565b60048111156150a8576150a8617346565b81526020016150ba60c08901896171ad565b8080601f0160208091040260200160405190810160405280939291908181526020018383808284375f9201919091525050509152506040516001600160e01b031960e084901b168152615110919060040161789d565b5f604051808303815f875af115801561512b573d5f803e3d5ffd5b505050506040513d5f823e601f3d908101601f19168201604052615152919081019061744d565b9196909550909350915050565b5f80615169615546565b6040805160e0810182523081526001600160a01b0388811660208301529181018790525f60608201529192507f0000000000000000000000000000000000000000000000000000000000000000169063edfa35689060808101600181525f60208201526040908101879052516151e2919060240161736e565b60408051601f198184030181529181526020820180516001600160e01b0316633bf617c560e21b179052516001600160e01b031960e084901b16815261522b91906004016170af565b5f604051808303815f875af1158015615246573d5f803e3d5ffd5b505050506040513d5f823e601f3d908101601f1916820160405261526d9190810190617103565b806020019051810190615280919061744d565b509250613f4a9050816155a9565b6040516001600160a01b03848116602483015260448201849052606482018390523360848301525f917f0000000000000000000000000000000000000000000000000000000000000000909116906348c894919060a40160408051601f198184030181529181526020820180516001600160e01b03167f4ba3015500000000000000000000000000000000000000000000000000000000179052516001600160e01b031960e084901b16815261534791906004016170af565b5f604051808303815f875af1158015615362573d5f803e3d5ffd5b505050506040513d5f823e601f3d908101601f191682016040526153899190810190617103565b8060200190518101906121ba9190617135565b7f9b779b17422d0df92223018b32b4d1fa46e071723d6817e2486d003becc55f005c156153f5576040517f3ee5aeb500000000000000000000000000000000000000000000000000000000815260040160405180910390fd5b61114c60017f9b779b17422d0df92223018b32b4d1fa46e071723d6817e2486d003becc55f00614011565b336001600160a01b037f0000000000000000000000000000000000000000000000000000000000000000161461114c576040517f089676d5000000000000000000000000000000000000000000000000000000008152336004820152602401611782565b5f6001600160a01b038211156154d0576040517f6dfcc65000000000000000000000000000000000000000000000000000000000815260a0600482015260248101839052604401611782565b5090565b7f00000000000000000000000000000000000000000000000000000000000000005c156154fe5750565b478015615518576155186001600160a01b03831682615e67565b5050565b61114c5f7f9b779b17422d0df92223018b32b4d1fa46e071723d6817e2486d003becc55f00614011565b5f7f00000000000000000000000000000000000000000000000000000000000000005c6001600160a01b0381166154d0576155a1337f0000000000000000000000000000000000000000000000000000000000000000614011565b600191505090565b80156155d9576155d95f7f0000000000000000000000000000000000000000000000000000000000000000614011565b50565b80801561561a57507f00000000000000000000000000000000000000000000000000000000000000006001600160a01b0316836001600160a01b0316145b156157bd57814710156156405760405163500d4efb60e11b815260040160405180910390fd5b7f00000000000000000000000000000000000000000000000000000000000000006001600160a01b031663d0e30db0836040518263ffffffff1660e01b81526004015f604051808303818588803b158015615699575f80fd5b505af11580156156ab573d5f803e3d5ffd5b506157079350506001600160a01b037f00000000000000000000000000000000000000000000000000000000000000001691507f00000000000000000000000000000000000000000000000000000000000000009050846160b8565b6040516315afd40960e01b81526001600160a01b037f000000000000000000000000000000000000000000000000000000000000000081166004830152602482018490527f000000000000000000000000000000000000000000000000000000000000000016906315afd409906044016020604051808303815f875af1158015615793573d5f803e3d5ffd5b505050506040513d601f19601f820116820180604052508101906157b79190617135565b50615918565b8115615918577f00000000000000000000000000000000000000000000000000000000000000006001600160a01b03166336c78516857f000000000000000000000000000000000000000000000000000000000000000061581d86615484565b6040516001600160e01b031960e086901b1681526001600160a01b03938416600482015291831660248301528216604482015290861660648201526084015f604051808303815f87803b158015615872575f80fd5b505af1158015615884573d5f803e3d5ffd5b50506040516315afd40960e01b81526001600160a01b038681166004830152602482018690527f00000000000000000000000000000000000000000000000000000000000000001692506315afd40991506044016020604051808303815f875af11580156158f4573d5f803e3d5ffd5b505050506040513d601f19601f820116820180604052508101906148109190617135565b50505050565b60408051606080820183525f808352602080840182815284860183815291870151958701519690930151948452949091529190911a90915290565b60605f6159658361610a565b90506001600160e01b03198116630b56c9f760e31b146159885761598883616136565b8251600319810160048501908152936121ba9082810160200190602401617103565b6040517fc9c1661b0000000000000000000000000000000000000000000000000000000081526001600160a01b03848116600483015283811660248301526060915f9182917f00000000000000000000000000000000000000000000000000000000000000009091169063c9c1661b906044016040805180830381865afa158015615a37573d5f803e3d5ffd5b505050506040513d601f19601f82011682018060405250810190615a5b91906174ab565b925090508067ffffffffffffffff811115615a7857615a7861630c565b604051908082528060200260200182016040528015615aa1578160200160208202803683370190505b50925083838381518110615ab757615ab76172fc565b60200260200101818152505050935093915050565b5f805f8360e00135421115615b0d576040517fe08b8af000000000000000000000000000000000000000000000000000000000815260040160405180910390fd5b7f00000000000000000000000000000000000000000000000000000000000000006001600160a01b0316632bfb780c6040518060e00160405280876020016020810190615b5a9190617a79565b6001811115615b6b57615b6b617346565b8152602001615b806060890160408a0161714c565b6001600160a01b03168152602001615b9e6080890160608a0161714c565b6001600160a01b03168152602001615bbc60a0890160808a0161714c565b6001600160a01b0316815260a0880135602082015260c08801356040820152606001615bec6101208901896171ad565b8080601f0160208091040260200160405190810160405280939291908181526020018383808284375f9201919091525050509152506040516001600160e01b031960e084901b168152615c429190600401617a97565b6060604051808303815f875af1158015615c5e573d5f803e3d5ffd5b505050506040513d601f19601f820116820180604052508101906151529190617b06565b811561591857808015615cc657507f00000000000000000000000000000000000000000000000000000000000000006001600160a01b0316836001600160a01b0316145b15615ddc5760405163ae63932960e01b81526001600160a01b038481166004830152306024830152604482018490527f0000000000000000000000000000000000000000000000000000000000000000169063ae639329906064015f604051808303815f87803b158015615d38575f80fd5b505af1158015615d4a573d5f803e3d5ffd5b5050604051632e1a7d4d60e01b8152600481018590527f00000000000000000000000000000000000000000000000000000000000000006001600160a01b03169250632e1a7d4d91506024015f604051808303815f87803b158015615dad575f80fd5b505af1158015615dbf573d5f803e3d5ffd5b50615dd7925050506001600160a01b03851683615e67565b615918565b60405163ae63932960e01b81526001600160a01b0384811660048301528581166024830152604482018490527f0000000000000000000000000000000000000000000000000000000000000000169063ae639329906064015f604051808303815f87803b158015615e4b575f80fd5b505af1158015615e5d573d5f803e3d5ffd5b5050505050505050565b80471015615eaa576040517fcf47918100000000000000000000000000000000000000000000000000000000815247600482015260248101829052604401611782565b5f826001600160a01b0316826040515f6040518083038185875af1925050503d805f8114615ef3576040519150601f19603f3d011682016040523d82523d5f602084013e615ef8565b606091505b5050905080615f1a5760405163d6bda27560e01b815260040160405180910390fd5b505050565b60405163ca4f280360e01b81526001600160a01b0382811660048301526060915f917f0000000000000000000000000000000000000000000000000000000000000000169063ca4f2803906024015f60405180830381865afa158015615f87573d5f803e3d5ffd5b505050506040513d5f823e601f3d908101601f19168201604052615fae91908101906177ea565b5190508067ffffffffffffffff811115615fca57615fca61630c565b604051908082528060200260200182016040528015615ff3578160200160208202803683370190505b5091505f5b81811015616038576fffffffffffffffffffffffffffffffff8016838281518110616025576160256172fc565b6020908102919091010152600101615ff8565b5050919050565b80825d5050565b60605f80846001600160a01b0316846040516160629190617b31565b5f60405180830381855af49150503d805f811461609a576040519150601f19603f3d011682016040523d82523d5f602084013e61609f565b606091505b50915091506160af85838361615f565b95945050505050565b604080516001600160a01b038416602482015260448082018490528251808303909101815260649091019091526020810180516001600160e01b031663a9059cbb60e01b179052615f1a9084906161d4565b5f60048251101561612e5760405163a728568960e01b815260040160405180910390fd5b506020015190565b8051156161465780518082602001fd5b60405163a728568960e01b815260040160405180910390fd5b6060826161745761616f82616259565b611dbf565b815115801561618b57506001600160a01b0384163b155b156161cd576040517f9996b3150000000000000000000000000000000000000000000000000000000081526001600160a01b0385166004820152602401611782565b5080611dbf565b5f8060205f8451602086015f885af1806161f3576040513d5f823e3d81fd5b50505f513d9150811561620a578060011415616217565b6001600160a01b0384163b155b15615918576040517f5274afe70000000000000000000000000000000000000000000000000000000081526001600160a01b0385166004820152602401611782565b8051156162695780518082602001fd5b60405163d6bda27560e01b815260040160405180910390fd5b6040805160e0810182525f8082526020820181905260609282018390529181018290529060808201905b81525f6020820152606060409091015290565b6040805160e0810182525f8082526020820181905260609282018390529181018290529060808201906162ac565b6001600160a01b03811681146155d9575f80fd5b80356110c6816162ed565b634e487b7160e01b5f52604160045260245ffd5b604051601f8201601f1916810167ffffffffffffffff811182821017156163495761634961630c565b604052919050565b5f67ffffffffffffffff82111561636a5761636a61630c565b5060051b60200190565b5f82601f830112616383575f80fd5b8135602061639861639383616351565b616320565b8083825260208201915060208460051b8701019350868411156163b9575f80fd5b602086015b8481101561305b57803583529183019183016163be565b80151581146155d9575f80fd5b80356110c6816163d5565b5f67ffffffffffffffff8211156164065761640661630c565b50601f01601f191660200190565b5f82601f830112616423575f80fd5b8135616431616393826163ed565b818152846020838601011115616445575f80fd5b816020850160208301375f918101602001919091529392505050565b5f805f805f8060c08789031215616476575f80fd5b8635616481816162ed565b955060208781013567ffffffffffffffff8082111561649e575f80fd5b818a0191508a601f8301126164b1575f80fd5b81356164bf61639382616351565b81815260059190911b8301840190848101908d8311156164dd575f80fd5b938501935b828510156165045784356164f5816162ed565b825293850193908501906164e2565b9950505060408a013592508083111561651b575f80fd5b6165278b848c01616374565b965060608a0135955061653c60808b016163e2565b945060a08a0135925080831115616551575f80fd5b505061655f89828a01616414565b9150509295509295509295565b5f60e0828403121561657c575f80fd5b50919050565b5f60208284031215616592575f80fd5b813567ffffffffffffffff8111156165a8575f80fd5b6121ba8482850161656c565b5f805f805f60a086880312156165c8575f80fd5b85356165d3816162ed565b9450602086013567ffffffffffffffff808211156165ef575f80fd5b6165fb89838a01616374565b95506040880135945060608801359150616614826163d5565b90925060808701359080821115616629575f80fd5b5061663688828901616414565b9150509295509295909350565b5f815180845260208085019450602084015f5b8381101561667257815187529582019590820190600101616656565b509495945050505050565b5f5b8381101561669757818101518382015260200161667f565b50505f910152565b5f81518084526166b681602086016020860161667d565b601f01601f19169290920160200192915050565b606081525f6166dc6060830186616643565b8460208401528281036040840152610b74818561669f565b5f8060408385031215616705575f80fd5b8235616710816162ed565b946020939093013593505050565b5f805f60608486031215616730575f80fd5b833561673b816162ed565b9250602084013591506040840135616752816162ed565b809150509250925092565b5f8083601f84011261676d575f80fd5b50813567ffffffffffffffff811115616784575f80fd5b60208301915083602060c0830285010111156113a1575f80fd5b5f8083601f8401126167ae575f80fd5b50813567ffffffffffffffff8111156167c5575f80fd5b6020830191508360208260051b85010111156113a1575f80fd5b5f6060828403121561657c575f80fd5b5f8083601f8401126167ff575f80fd5b50813567ffffffffffffffff811115616816575f80fd5b6020830191508360208285010111156113a1575f80fd5b5f805f805f805f805f60a08a8c031215616845575f80fd5b893567ffffffffffffffff8082111561685c575f80fd5b6168688d838e0161675d565b909b50995060208c0135915080821115616880575f80fd5b61688c8d838e0161679e565b909950975060408c01359150808211156168a4575f80fd5b6168b08d838e016167df565b965060608c01359150808211156168c5575f80fd5b6168d18d838e016167ef565b909650945060808c01359150808211156168e9575f80fd5b506168f68c828d0161679e565b915080935050809150509295985092959850929598565b5f60208083016020845280855180835260408601915060408160051b8701019250602087015f5b8281101561696257603f1988860301845261695085835161669f565b94509285019290850190600101616934565b5092979650505050505050565b5f805f8060808587031215616982575f80fd5b843561698d816162ed565b9350602085013567ffffffffffffffff808211156169a9575f80fd5b6169b588838901616374565b94506040870135935060608701359150808211156169d1575f80fd5b506169de87828801616414565b91505092959194509250565b5f805f80608085870312156169fd575f80fd5b8435616a08816162ed565b93506020850135616a18816162ed565b925060408501359150606085013567ffffffffffffffff811115616a3a575f80fd5b6169de87828801616414565b5f805f60608486031215616a58575f80fd5b8335616a63816162ed565b92506020840135616a73816162ed565b929592945050506040919091013590565b602081525f611dbf6020830184616643565b5f805f8060808587031215616aa9575f80fd5b8435616ab4816162ed565b935060208501359250604085013567ffffffffffffffff80821115616ad7575f80fd5b616ae388838901616374565b935060608701359150808211156169d1575f80fd5b838152606060208201525f616b106060830185616643565b8281036040840152610b74818561669f565b5f805f8060808587031215616b35575f80fd5b8435616b40816162ed565b935060208501359250604085013591506060850135616b5e816162ed565b939692955090935050565b5f805f805f60a08688031215616b7d575f80fd5b8535616b88816162ed565b945060208601359350604086013567ffffffffffffffff80821115616bab575f80fd5b616bb789838a01616374565b945060608801359150616614826163d5565b5f60208284031215616bd9575f80fd5b813567ffffffffffffffff811115616bef575f80fd5b82016101408185031215611dbf575f80fd5b5f805f805f8060c08789031215616c16575f80fd5b8635616c21816162ed565b95506020870135616c31816162ed565b945060408701359350606087013592506080870135616c4f816163d5565b915060a087013567ffffffffffffffff811115616c6a575f80fd5b61655f89828a01616414565b5f805f805f805f805f6101008a8c031215616c8f575f80fd5b8935616c9a816162ed565b985060208a0135616caa816162ed565b975060408a0135616cba816162ed565b965060608a0135955060808a0135945060a08a0135935060c08a0135616cdf816163d5565b925060e08a013567ffffffffffffffff811115616cfa575f80fd5b6168f68c828d016167ef565b5f805f805f8060a08789031215616d1b575f80fd5b8635616d26816162ed565b95506020870135616d36816162ed565b94506040870135616d46816162ed565b935060608701359250608087013567ffffffffffffffff811115616d68575f80fd5b616d7489828a016167ef565b979a9699509497509295939492505050565b5f805f8060808587031215616d99575f80fd5b8435616da4816162ed565b9350602085013592506040850135616dbb816162ed565b9150606085013567ffffffffffffffff811115616a3a575f80fd5b5f805f60608486031215616de8575f80fd5b8335616df3816162ed565b925060208401359150604084013567ffffffffffffffff811115616e15575f80fd5b616e2186828701616414565b9150509250925092565b5f8060208385031215616e3c575f80fd5b823567ffffffffffffffff811115616e52575f80fd5b616e5e8582860161679e565b90969095509350505050565b5f805f8060808587031215616e7d575f80fd5b8435616e88816162ed565b9350602085013567ffffffffffffffff80821115616ea4575f80fd5b616eb088838901616374565b945060408701359150616ec2826163d5565b909250606086013590808211156169d1575f80fd5b604081525f616ee96040830185616643565b90508260208301529392505050565b5f805f805f8060c08789031215616f0d575f80fd5b8635616f18816162ed565b9550602087013594506040870135616f2f816162ed565b9350606087013592506080870135616c4f816163d5565b5f805f60608486031215616f58575f80fd5b8335616f63816162ed565b9250602084013567ffffffffffffffff80821115616f7f575f80fd5b616f8b87838801616374565b93506040860135915080821115616fa0575f80fd5b50616e2186828701616414565b5f805f60608486031215616fbf575f80fd5b8335616fca816162ed565b95602085013595506040909401359392505050565b5f815180845260208085019450602084015f5b838110156166725781516001600160a01b031687529582019590820190600101616ff2565b602081525f6001600160a01b0380845116602084015280602085015116604084015250604083015160e06060840152617054610100840182616fdf565b90506060840151601f19808584030160808601526170728383616643565b9250608086015160a086015260a0860151915061709360c086018315159052565b60c08601519150808584030160e0860152506160af828261669f565b602081525f611dbf602083018461669f565b5f82601f8301126170d0575f80fd5b81516170de616393826163ed565b8181528460208386010111156170f2575f80fd5b6121ba82602083016020870161667d565b5f60208284031215617113575f80fd5b815167ffffffffffffffff811115617129575f80fd5b6121ba848285016170c1565b5f60208284031215617145575f80fd5b5051919050565b5f6020828403121561715c575f80fd5b8135611dbf816162ed565b5f808335601e1984360301811261717c575f80fd5b83018035915067ffffffffffffffff821115617196575f80fd5b6020019150600581901b36038213156113a1575f80fd5b5f808335601e198436030181126171c2575f80fd5b83018035915067ffffffffffffffff8211156171dc575f80fd5b6020019150368190038213156113a1575f80fd5b8183525f7f07ffffffffffffffffffffffffffffffffffffffffffffffffffffffffffffff831115617220575f80fd5b8260051b80836020870137939093016020019392505050565b81835281816020850137505f828201602090810191909152601f909101601f19169091010190565b5f60c082016001600160a01b03808d1684526020818d16602086015260c06040860152828b845260e0860190508c93505f5b8c8110156172ba5784356172a6816162ed565b841682529382019390820190600101617293565b5085810360608701526172ce818b8d6171f0565b935050505085608084015282810360a08401526172ec818587617239565b9c9b505050505050505050505050565b634e487b7160e01b5f52603260045260245ffd5b5f60208284031215617320575f80fd5b8135611dbf816163d5565b5f6020828403121561733b575f80fd5b8151611dbf816163d5565b634e487b7160e01b5f52602160045260245ffd5b6005811061736a5761736a617346565b9052565b602081525f6001600160a01b0380845116602084015280602085015116604084015250604083015160e060608401526173ab610100840182616643565b90506060840151608084015260808401516173c960a085018261735a565b5060a0840151151560c084015260c0840151601f198483030160e08501526160af828261669f565b5f82601f830112617400575f80fd5b8151602061741061639383616351565b8083825260208201915060208460051b870101935086841115617431575f80fd5b602086015b8481101561305b5780518352918301918301617436565b5f805f6060848603121561745f575f80fd5b835167ffffffffffffffff80821115617476575f80fd5b617482878388016173f1565b945060208601519350604086015191508082111561749e575f80fd5b50616e21868287016170c1565b5f80604083850312156174bc575f80fd5b505080516020909101519092909150565b5f602082840312156174dd575f80fd5b8151611dbf816162ed565b5f60c082840312156174f8575f80fd5b60405160c0810181811067ffffffffffffffff8211171561751b5761751b61630c565b6040528235617529816162ed565b81526020830135617539816162ed565b6020820152604083013561754c816162ed565b80604083015250606083013560608201526080830135608082015260a083013560a08201528091505092915050565b5f808335601e19843603018112617590575f80fd5b83018035915067ffffffffffffffff8211156175aa575f80fd5b6020019150600781901b36038213156113a1575f80fd5b803565ffffffffffff811681146110c6575f80fd5b5f60606001600160a01b03808816845260206060602086015260c085018835601e198a3603018112617606575f80fd5b890160208101903567ffffffffffffffff811115617622575f80fd5b8060071b3603821315617633575f80fd5b60608881015291829052905f9060e088015b818310156176b1578335617658816162ed565b8616815283850135617669816162ed565b861681860152604061767c8582016175c1565b65ffffffffffff80821683850152806176968b89016175c1565b16848b01525050506080938401936001939093019201617645565b6176bd60208d01616301565b6001600160a01b03811660808b0152965060408c013560a08a015288810360408a01526176eb818b8d617239565b9d9c50505050505050505050505050565b6004811061736a5761736a617346565b602081525f6001600160a01b0380845116602084015280602085015116604084015250604083015160e06060840152617749610100840182616643565b90506060840151608084015260808401516173c960a08501826176fc565b5f805f60608486031215617779575f80fd5b83519250602084015167ffffffffffffffff80821115617797575f80fd5b6177a3878388016173f1565b9350604086015191508082111561749e575f80fd5b5f602082840312156177c8575f80fd5b815167ffffffffffffffff8111156177de575f80fd5b6121ba848285016173f1565b5f60208083850312156177fb575f80fd5b825167ffffffffffffffff811115617811575f80fd5b8301601f81018513617821575f80fd5b805161782f61639382616351565b81815260059190911b8201830190838101908783111561784d575f80fd5b928401925b82841015617874578351617865816162ed565b82529284019290840190617852565b979650505050505050565b5f6020828403121561788f575f80fd5b813560058110611dbf575f80fd5b602081525f6001600160a01b0380845116602084015280602085015116604084015250604083015160c060608401526178d960e0840182616643565b90506060840151608084015260808401516178f760a085018261735a565b5060a0840151838203601f190160c08501526160af828261669f565b6002811061736a5761736a617346565b6020815261793d6020820183516001600160a01b03169052565b5f60208301516179506040840182617913565b5060408301516001600160a01b03811660608401525060608301516001600160a01b03811660808401525060808301516001600160a01b03811660a08401525060a083015160c083015260c083015160e083015260e08301516101008181850152808501519150506101206179c88185018315159052565b8401516101408481015290506121ba61016084018261669f565b5f602082840312156179f2575f80fd5b813560048110611dbf575f80fd5b602081525f6001600160a01b038084511660208401528060208501511660408401525060408301516060830152606083015160c06080840152617a4660e0840182616643565b905060808401516178f760a08501826176fc565b5f82617a7457634e487b7160e01b5f52601260045260245ffd5b500490565b5f60208284031215617a89575f80fd5b813560028110611dbf575f80fd5b60208152617aa9602082018351617913565b5f60208301516001600160a01b0380821660408501528060408601511660608501528060608601511660808501525050608083015160a083015260a083015160c083015260c083015160e0808401526121ba61010084018261669f565b5f805f60608486031215617b18575f80fd5b8351925060208401519150604084015190509250925092565b5f8251617b4281846020870161667d565b919091019291505056fea2646970667358221220b114d5289d37e4067c968f086af0a7395880d1e0349ab4c00b3f6625ff7352e164736f6c63430008180033","linkReferences":{}},"methodIdentifiers":{"addLiquidityCustom(address,uint256[],uint256,bool,bytes)":"0ca078ec","addLiquidityHook((address,address,uint256[],uint256,uint8,bool,bytes))":"5b343791","addLiquidityProportional(address,uint256[],uint256,bool,bytes)":"724dba33","addLiquiditySingleTokenExactOut(address,address,uint256,uint256,bool,bytes)":"72657d17","addLiquidityToBuffer(address,uint256)":"0faa5e37","addLiquidityToBufferHook(address,uint256,address)":"1053ad25","addLiquidityUnbalanced(address,uint256[],uint256,bool,bytes)":"c08bc851","donate(address,uint256[],bool,bytes)":"bf6ee3fd","getSender()":"5e01eb5a","getSingleInputArrayAndTokenIndex(address,address,uint256)":"e178073e","initialize(address,address[],uint256[],uint256,bool,bytes)":"026b3d95","initializeBuffer(address,uint256,uint256)":"fdea2b56","initializeBufferHook(address,uint256,uint256,address)":"4ba30155","initializeHook((address,address,address[],uint256[],uint256,bool,bytes))":"086fad66","manualReentrancyAddLiquidityHook()":"0c3b846f","manualReentrancyAddLiquidityToBufferHook()":"8afe5c38","manualReentrancyInitializeHook()":"4b59d17c","manualReentrancyQuerySwapHook()":"64c90707","manualReentrancyRemoveLiquidityHook()":"ad6d59f3","manualReentrancyRemoveLiquidityRecoveryHook()":"beb91feb","manualReentrancySwapSingleTokenHook()":"c3ec0efc","multicall(bytes[])":"ac9650d8","permitBatchAndCall((address,address,address,uint256,uint256,uint256)[],bytes[],((address,uint160,uint48,uint48)[],address,uint256),bytes,bytes[])":"19c6989f","queryAddLiquidityCustom(address,uint256[],uint256,bytes)":"2d90b0dd","queryAddLiquidityHook((address,address,uint256[],uint256,uint8,bool,bytes))":"efd85f14","queryAddLiquidityProportional(address,uint256,bytes)":"980ed652","queryAddLiquiditySingleTokenExactOut(address,address,uint256,bytes)":"6193d47d","queryAddLiquidityUnbalanced(address,uint256[],bytes)":"fbe985d5","queryRemoveLiquidityCustom(address,uint256,uint256[],bytes)":"47924980","queryRemoveLiquidityHook((address,address,uint256[],uint256,uint8,bool,bytes))":"b24bd571","queryRemoveLiquidityProportional(address,uint256,bytes)":"df145a4f","queryRemoveLiquidityRecovery(address,uint256)":"b037ed36","queryRemoveLiquidityRecoveryHook(address,address,uint256)":"5f9815ff","queryRemoveLiquiditySingleTokenExactIn(address,uint256,address,bytes)":"87a6c9ff","queryRemoveLiquiditySingleTokenExactOut(address,address,uint256,bytes)":"3ae97603","queryRevertErrorCode()":"7ae30960","queryRevertErrorCodeHook()":"45d132fe","queryRevertLegacy()":"339f3838","queryRevertLegacyHook()":"22717db2","queryRevertNoReason()":"90aa9f76","queryRevertNoReasonHook()":"b3b0a7a7","queryRevertPanic()":"aaf51ea3","queryRevertPanicHook()":"d3a5152a","querySpoof()":"4aeecca9","querySpoofHook()":"58307e44","querySwapHook((address,uint8,address,address,address,uint256,uint256,uint256,bool,bytes))":"be5ae841","querySwapSingleTokenExactIn(address,address,address,uint256,bytes)":"7d245e90","querySwapSingleTokenExactInAndRevert(address,address,address,uint256,bytes)":"b29a62a7","querySwapSingleTokenExactOut(address,address,address,uint256,bytes)":"7ccb4325","removeLiquidityCustom(address,uint256,uint256[],bool,bytes)":"82bf2b24","removeLiquidityHook((address,address,uint256[],uint256,uint8,bool,bytes))":"7b03c7ba","removeLiquidityProportional(address,uint256,uint256[],bool,bytes)":"51682750","removeLiquidityRecovery(address,uint256)":"e6b51e8f","removeLiquidityRecoveryHook(address,address,uint256)":"43112672","removeLiquiditySingleTokenExactIn(address,uint256,address,uint256,bool,bytes)":"ecb2182c","removeLiquiditySingleTokenExactOut(address,uint256,address,uint256,bool,bytes)":"e7326def","swapSingleTokenExactIn(address,address,address,uint256,uint256,uint256,bool,bytes)":"750283bc","swapSingleTokenExactOut(address,address,address,uint256,uint256,uint256,bool,bytes)":"94e86ef8","swapSingleTokenHook((address,uint8,address,address,address,uint256,uint256,uint256,bool,bytes))":"68a24fe0"},"id":120}