{
  "address": "0xF00DAB4a32A62E83b02B312A8b195d4314350363",
  "abi": [
    {
      "inputs": [
        {
          "internalType": "contract IVault",
          "name": "vault",
          "type": "address"
        },
        {
          "internalType": "string",
          "name": "name",
          "type": "string"
        },
        {
          "internalType": "string",
          "name": "symbol",
          "type": "string"
        }
      ],
      "stateMutability": "nonpayable",
      "type": "constructor"
    },
    {
      "inputs": [],
      "name": "ECDSAInvalidSignature",
      "type": "error"
    },
    {
      "inputs": [
        {
          "internalType": "uint256",
          "name": "length",
          "type": "uint256"
        }
      ],
      "name": "ECDSAInvalidSignatureLength",
      "type": "error"
    },
    {
      "inputs": [
        {
          "internalType": "bytes32",
          "name": "s",
          "type": "bytes32"
        }
      ],
      "name": "ECDSAInvalidSignatureS",
      "type": "error"
    },
    {
      "inputs": [
        {
          "internalType": "uint256",
          "name": "deadline",
          "type": "uint256"
        }
      ],
      "name": "ERC2612ExpiredSignature",
      "type": "error"
    },
    {
      "inputs": [
        {
          "internalType": "address",
          "name": "signer",
          "type": "address"
        },
        {
          "internalType": "address",
          "name": "owner",
          "type": "address"
        }
      ],
      "name": "ERC2612InvalidSigner",
      "type": "error"
    },
    {
      "inputs": [
        {
          "internalType": "address",
          "name": "account",
          "type": "address"
        },
        {
          "internalType": "uint256",
          "name": "currentNonce",
          "type": "uint256"
        }
      ],
      "name": "InvalidAccountNonce",
      "type": "error"
    },
    {
      "inputs": [],
      "name": "InvalidShortString",
      "type": "error"
    },
    {
      "inputs": [
        {
          "internalType": "address",
          "name": "sender",
          "type": "address"
        }
      ],
      "name": "SenderIsNotVault",
      "type": "error"
    },
    {
      "inputs": [
        {
          "internalType": "string",
          "name": "str",
          "type": "string"
        }
      ],
      "name": "StringTooLong",
      "type": "error"
    },
    {
      "anonymous": false,
      "inputs": [
        {
          "indexed": true,
          "internalType": "address",
          "name": "owner",
          "type": "address"
        },
        {
          "indexed": true,
          "internalType": "address",
          "name": "spender",
          "type": "address"
        },
        {
          "indexed": false,
          "internalType": "uint256",
          "name": "value",
          "type": "uint256"
        }
      ],
      "name": "Approval",
      "type": "event"
    },
    {
      "anonymous": false,
      "inputs": [],
      "name": "EIP712DomainChanged",
      "type": "event"
    },
    {
      "anonymous": false,
      "inputs": [
        {
          "indexed": true,
          "internalType": "address",
          "name": "from",
          "type": "address"
        },
        {
          "indexed": true,
          "internalType": "address",
          "name": "to",
          "type": "address"
        },
        {
          "indexed": false,
          "internalType": "uint256",
          "name": "value",
          "type": "uint256"
        }
      ],
      "name": "Transfer",
      "type": "event"
    },
    {
      "inputs": [],
      "name": "DOMAIN_SEPARATOR",
      "outputs": [
        {
          "internalType": "bytes32",
          "name": "",
          "type": "bytes32"
        }
      ],
      "stateMutability": "view",
      "type": "function"
    },
    {
      "inputs": [],
      "name": "PERMIT_TYPEHASH",
      "outputs": [
        {
          "internalType": "bytes32",
          "name": "",
          "type": "bytes32"
        }
      ],
      "stateMutability": "view",
      "type": "function"
    },
    {
      "inputs": [
        {
          "internalType": "address",
          "name": "owner",
          "type": "address"
        },
        {
          "internalType": "address",
          "name": "spender",
          "type": "address"
        }
      ],
      "name": "allowance",
      "outputs": [
        {
          "internalType": "uint256",
          "name": "",
          "type": "uint256"
        }
      ],
      "stateMutability": "view",
      "type": "function"
    },
    {
      "inputs": [
        {
          "internalType": "address",
          "name": "spender",
          "type": "address"
        },
        {
          "internalType": "uint256",
          "name": "amount",
          "type": "uint256"
        }
      ],
      "name": "approve",
      "outputs": [
        {
          "internalType": "bool",
          "name": "",
          "type": "bool"
        }
      ],
      "stateMutability": "nonpayable",
      "type": "function"
    },
    {
      "inputs": [
        {
          "internalType": "address",
          "name": "account",
          "type": "address"
        }
      ],
      "name": "balanceOf",
      "outputs": [
        {
          "internalType": "uint256",
          "name": "",
          "type": "uint256"
        }
      ],
      "stateMutability": "view",
      "type": "function"
    },
    {
      "inputs": [
        {
          "internalType": "uint256[]",
          "name": "balancesLiveScaled18",
          "type": "uint256[]"
        },
        {
          "internalType": "uint256",
          "name": "tokenInIndex",
          "type": "uint256"
        },
        {
          "internalType": "uint256",
          "name": "invariantRatio",
          "type": "uint256"
        }
      ],
      "name": "computeBalance",
      "outputs": [
        {
          "internalType": "uint256",
          "name": "newBalance",
          "type": "uint256"
        }
      ],
      "stateMutability": "pure",
      "type": "function"
    },
    {
      "inputs": [
        {
          "internalType": "uint256[]",
          "name": "balancesLiveScaled18",
          "type": "uint256[]"
        }
      ],
      "name": "computeInvariant",
      "outputs": [
        {
          "internalType": "uint256",
          "name": "invariant",
          "type": "uint256"
        }
      ],
      "stateMutability": "pure",
      "type": "function"
    },
    {
      "inputs": [],
      "name": "decimals",
      "outputs": [
        {
          "internalType": "uint8",
          "name": "",
          "type": "uint8"
        }
      ],
      "stateMutability": "pure",
      "type": "function"
    },
    {
      "inputs": [],
      "name": "eip712Domain",
      "outputs": [
        {
          "internalType": "bytes1",
          "name": "fields",
          "type": "bytes1"
        },
        {
          "internalType": "string",
          "name": "name",
          "type": "string"
        },
        {
          "internalType": "string",
          "name": "version",
          "type": "string"
        },
        {
          "internalType": "uint256",
          "name": "chainId",
          "type": "uint256"
        },
        {
          "internalType": "address",
          "name": "verifyingContract",
          "type": "address"
        },
        {
          "internalType": "bytes32",
          "name": "salt",
          "type": "bytes32"
        },
        {
          "internalType": "uint256[]",
          "name": "extensions",
          "type": "uint256[]"
        }
      ],
      "stateMutability": "view",
      "type": "function"
    },
    {
      "inputs": [
        {
          "internalType": "address",
          "name": "owner",
          "type": "address"
        },
        {
          "internalType": "address",
          "name": "spender",
          "type": "address"
        },
        {
          "internalType": "uint256",
          "name": "amount",
          "type": "uint256"
        }
      ],
      "name": "emitApproval",
      "outputs": [],
      "stateMutability": "nonpayable",
      "type": "function"
    },
    {
      "inputs": [
        {
          "internalType": "address",
          "name": "from",
          "type": "address"
        },
        {
          "internalType": "address",
          "name": "to",
          "type": "address"
        },
        {
          "internalType": "uint256",
          "name": "amount",
          "type": "uint256"
        }
      ],
      "name": "emitTransfer",
      "outputs": [],
      "stateMutability": "nonpayable",
      "type": "function"
    },
    {
      "inputs": [],
      "name": "getPoolTokens",
      "outputs": [
        {
          "internalType": "contract IERC20[]",
          "name": "tokens",
          "type": "address[]"
        }
      ],
      "stateMutability": "view",
      "type": "function"
    },
    {
      "inputs": [],
      "name": "getVault",
      "outputs": [
        {
          "internalType": "contract IVault",
          "name": "",
          "type": "address"
        }
      ],
      "stateMutability": "view",
      "type": "function"
    },
    {
      "inputs": [],
      "name": "name",
      "outputs": [
        {
          "internalType": "string",
          "name": "",
          "type": "string"
        }
      ],
      "stateMutability": "view",
      "type": "function"
    },
    {
      "inputs": [
        {
          "internalType": "address",
          "name": "owner",
          "type": "address"
        }
      ],
      "name": "nonces",
      "outputs": [
        {
          "internalType": "uint256",
          "name": "",
          "type": "uint256"
        }
      ],
      "stateMutability": "view",
      "type": "function"
    },
    {
      "inputs": [
        {
          "components": [
            {
              "internalType": "enum SwapKind",
              "name": "kind",
              "type": "uint8"
            },
            {
              "internalType": "uint256",
              "name": "amountGivenScaled18",
              "type": "uint256"
            },
            {
              "internalType": "uint256[]",
              "name": "balancesScaled18",
              "type": "uint256[]"
            },
            {
              "internalType": "uint256",
              "name": "indexIn",
              "type": "uint256"
            },
            {
              "internalType": "uint256",
              "name": "indexOut",
              "type": "uint256"
            },
            {
              "internalType": "address",
              "name": "sender",
              "type": "address"
            },
            {
              "internalType": "bytes",
              "name": "userData",
              "type": "bytes"
            }
          ],
          "internalType": "struct IBasePool.SwapParams",
          "name": "params",
          "type": "tuple"
        }
      ],
      "name": "onSwap",
      "outputs": [
        {
          "internalType": "uint256",
          "name": "amountCalculatedScaled18",
          "type": "uint256"
        }
      ],
      "stateMutability": "pure",
      "type": "function"
    },
    {
      "inputs": [
        {
          "internalType": "address",
          "name": "owner",
          "type": "address"
        },
        {
          "internalType": "address",
          "name": "spender",
          "type": "address"
        },
        {
          "internalType": "uint256",
          "name": "amount",
          "type": "uint256"
        },
        {
          "internalType": "uint256",
          "name": "deadline",
          "type": "uint256"
        },
        {
          "internalType": "uint8",
          "name": "v",
          "type": "uint8"
        },
        {
          "internalType": "bytes32",
          "name": "r",
          "type": "bytes32"
        },
        {
          "internalType": "bytes32",
          "name": "s",
          "type": "bytes32"
        }
      ],
      "name": "permit",
      "outputs": [],
      "stateMutability": "nonpayable",
      "type": "function"
    },
    {
      "inputs": [],
      "name": "symbol",
      "outputs": [
        {
          "internalType": "string",
          "name": "",
          "type": "string"
        }
      ],
      "stateMutability": "view",
      "type": "function"
    },
    {
      "inputs": [],
      "name": "totalSupply",
      "outputs": [
        {
          "internalType": "uint256",
          "name": "",
          "type": "uint256"
        }
      ],
      "stateMutability": "view",
      "type": "function"
    },
    {
      "inputs": [
        {
          "internalType": "address",
          "name": "to",
          "type": "address"
        },
        {
          "internalType": "uint256",
          "name": "amount",
          "type": "uint256"
        }
      ],
      "name": "transfer",
      "outputs": [
        {
          "internalType": "bool",
          "name": "",
          "type": "bool"
        }
      ],
      "stateMutability": "nonpayable",
      "type": "function"
    },
    {
      "inputs": [
        {
          "internalType": "address",
          "name": "from",
          "type": "address"
        },
        {
          "internalType": "address",
          "name": "to",
          "type": "address"
        },
        {
          "internalType": "uint256",
          "name": "amount",
          "type": "uint256"
        }
      ],
      "name": "transferFrom",
      "outputs": [
        {
          "internalType": "bool",
          "name": "",
          "type": "bool"
        }
      ],
      "stateMutability": "nonpayable",
      "type": "function"
    }
  ],
  "transactionHash": "0x28a6c23ed0bbf83018eeb6290148ee73462e5a83c90d3f0fd913137cf2c03cae",
  "args": [
    "0xDaa273AeEc06e9CCb7428a77E2abb1E4659B16D2",
    "Constant Price Pool",
    "CPP"
  ],
  "numDeployments": 1,
  "solcInputHash": "fbead9d2430dff0450f92e67b5ea9ef5",
  "bytecode": "0x6101806040523480156200001257600080fd5b50604051620019fc380380620019fc833981016040819052620000359162000294565b6040805180820190915260018152603160f81b602082015283908390839082906200006282600062000142565b610120526200007381600162000142565b61014052815160208084019190912060e052815190820120610100524660a0526200010160e05161010051604080517f8b73c3c69bb8fe3d512ecc4cf759cc79239f7b179b0ffacaa9a75d522b39400f60208201529081019290925260608201524660808201523060a082015260009060c00160405160208183030381529060405280519060200120905090565b60805250503060c0526001600160a01b038316610160526003620001268382620003ad565b506004620001358282620003ad565b50505050505050620004d3565b600060208351101562000162576200015a836200017b565b905062000175565b816200016f8482620003ad565b5060ff90505b92915050565b600080829050601f81511115620001b2578260405163305a27a960e01b8152600401620001a9919062000479565b60405180910390fd5b8051620001bf82620004ae565b179392505050565b634e487b7160e01b600052604160045260246000fd5b60005b83811015620001fa578181015183820152602001620001e0565b50506000910152565b600082601f8301126200021557600080fd5b81516001600160401b0380821115620002325762000232620001c7565b604051601f8301601f19908116603f011681019082821181831017156200025d576200025d620001c7565b816040528381528660208588010111156200027757600080fd5b6200028a846020830160208901620001dd565b9695505050505050565b600080600060608486031215620002aa57600080fd5b83516001600160a01b0381168114620002c257600080fd5b60208501519093506001600160401b0380821115620002e057600080fd5b620002ee8783880162000203565b935060408601519150808211156200030557600080fd5b50620003148682870162000203565b9150509250925092565b600181811c908216806200033357607f821691505b6020821081036200035457634e487b7160e01b600052602260045260246000fd5b50919050565b601f821115620003a857600081815260208120601f850160051c81016020861015620003835750805b601f850160051c820191505b81811015620003a4578281556001016200038f565b5050505b505050565b81516001600160401b03811115620003c957620003c9620001c7565b620003e181620003da84546200031e565b846200035a565b602080601f831160018114620004195760008415620004005750858301515b600019600386901b1c1916600185901b178555620003a4565b600085815260208120601f198616915b828110156200044a5788860151825594840194600190910190840162000429565b5085821015620004695787850151600019600388901b60f8161c191681555b5050505050600190811b01905550565b60208152600082518060208401526200049a816040850160208701620001dd565b601f01601f19169190910160400192915050565b80516020808301519190811015620003545760001960209190910360031b1b16919050565b60805160a05160c05160e0516101005161012051610140516101605161148b62000571600039600081816102a4015281816103d0015281816104b401528181610563015281816106b6015281816108070152818161098e01528181610a380152610ab701526000610c5801526000610c2b01526000610bd301526000610bab01526000610b0601526000610b3001526000610b5a015261148b6000f3fe608060405234801561001057600080fd5b50600436106101375760003560e01c806370a08231116100b857806389c065681161007c57806389c06568146102885780638d928af81461029757806395d89b41146102ce578063a9059cbb146102d6578063d505accf146102e9578063dd62ed3e146102fc57600080fd5b806370a082311461021f57806372c98186146102325780637ecebe001461024757806380de451d1461025a57806384b0196e1461026d57600080fd5b806323de6651116100ff57806323de6651146101b957806330adf81f146101ce578063313ce567146101f55780633644e515146102045780635687f2b81461020c57600080fd5b806306fdde031461013c578063095ea7b31461015a57806316a0b3e01461017d57806318160ddd1461019e57806323b872dd146101a6575b600080fd5b61014461030f565b6040516101519190610fbd565b60405180910390f35b61016d610168366004610fec565b6103a1565b6040519015158152602001610151565b61019061018b3660046110c7565b61044c565b604051908152602001610151565b61019061049c565b61016d6101b4366004611115565b61052c565b6101cc6101c7366004611115565b6105dd565b005b6101907f6e71edae12b1b97f4d1f60370fef10105fa2faae0126114a169c64845d6126c981565b60405160128152602001610151565b610190610637565b6101cc61021a366004611115565b610641565b61019061022d366004611151565b61068e565b61019061024036600461116c565b6020013590565b610190610255366004611151565b610723565b6101906102683660046111a7565b610741565b610275610783565b60405161015197969594939291906111e4565b6060604051610151919061127a565b6040516001600160a01b037f0000000000000000000000000000000000000000000000000000000000000000168152602001610151565b6101446107c9565b61016d6102e4366004610fec565b6107d8565b6101cc6102f73660046112bb565b610838565b61019061030a36600461132e565b610a08565b60606003805461031e90611361565b80601f016020809104026020016040519081016040528092919081815260200182805461034a90611361565b80156103975780601f1061036c57610100808354040283529160200191610397565b820191906000526020600020905b81548152906001019060200180831161037a57829003601f168201915b5050505050905090565b60405163e1f21c6760e01b81523360048201526001600160a01b038381166024830152604482018390526000917f00000000000000000000000000000000000000000000000000000000000000009091169063e1f21c67906064015b6020604051808303816000875af115801561041c573d6000803e3d6000fd5b505050506040513d601f19601f82011682018060405250810190610440919061139b565b50600190505b92915050565b60008061045885610741565b90508061046584826113d3565b868681518110610477576104776113ea565b60200260200101516104899190611400565b6104939190611413565b95945050505050565b6040516339370aa960e21b81523060048201526000907f00000000000000000000000000000000000000000000000000000000000000006001600160a01b03169063e4dc2aa490602401602060405180830381865afa158015610503573d6000803e3d6000fd5b505050506040513d601f19601f820116820180604052508101906105279190611426565b905090565b604051630aed65f560e11b81523360048201526001600160a01b0384811660248301528381166044830152606482018390526000917f0000000000000000000000000000000000000000000000000000000000000000909116906315dacbea906084016020604051808303816000875af11580156105ae573d6000803e3d6000fd5b505050506040513d601f19601f820116820180604052508101906105d2919061139b565b506001949350505050565b6105e5610aac565b816001600160a01b0316836001600160a01b03167fddf252ad1be2c89b69c2b068fc378daa952ba7f163c4a11628f55a4df523b3ef8360405161062a91815260200190565b60405180910390a3505050565b6000610527610af9565b610649610aac565b816001600160a01b0316836001600160a01b03167f8c5be1e5ebec7d5bd14f71427d1e84f3dd0314c0f7b2291e5b200ac8c7c3b9258360405161062a91815260200190565b604051633de222bb60e21b81523060048201526001600160a01b0382811660248301526000917f00000000000000000000000000000000000000000000000000000000000000009091169063f7888aec90604401602060405180830381865afa1580156106ff573d6000803e3d6000fd5b505050506040513d601f19601f820116820180604052508101906104469190611426565b6001600160a01b038116600090815260026020526040812054610446565b600081600181518110610756576107566113ea565b602002602001015182600081518110610771576107716113ea565b60200260200101516104469190611400565b600060608060008060006060610797610c24565b61079f610c51565b60408051600080825260208201909252600f60f81b9b939a50919850469750309650945092509050565b60606004805461031e90611361565b6040516317d5759960e31b81523360048201526001600160a01b038381166024830152604482018390526000917f00000000000000000000000000000000000000000000000000000000000000009091169063beabacc8906064016103fd565b834211156108615760405163313c898160e11b8152600481018590526024015b60405180910390fd5b60007f6e71edae12b1b97f4d1f60370fef10105fa2faae0126114a169c64845d6126c98888886108ae8c6001600160a01b0316600090815260026020526040902080546001810190915590565b6040805160208101969096526001600160a01b0394851690860152929091166060840152608083015260a082015260c0810186905260e001604051602081830303815290604052805190602001209050600061090982610c7e565b9050600061091982878787610cab565b9050896001600160a01b0316816001600160a01b031614610960576040516325c0072360e11b81526001600160a01b0380831660048301528b166024820152604401610858565b60405163e1f21c6760e01b81526001600160a01b038b811660048301528a81166024830152604482018a90527f0000000000000000000000000000000000000000000000000000000000000000169063e1f21c67906064016020604051808303816000875af11580156109d7573d6000803e3d6000fd5b505050506040513d601f19601f820116820180604052508101906109fb919061139b565b5050505050505050505050565b60405163927da10560e01b81523060048201526001600160a01b03838116602483015282811660448301526000917f00000000000000000000000000000000000000000000000000000000000000009091169063927da10590606401602060405180830381865afa158015610a81573d6000803e3d6000fd5b505050506040513d601f19601f82011682018060405250810190610aa59190611426565b9392505050565b336001600160a01b037f00000000000000000000000000000000000000000000000000000000000000001614610af75760405163089676d560e01b8152336004820152602401610858565b565b6000306001600160a01b037f000000000000000000000000000000000000000000000000000000000000000016148015610b5257507f000000000000000000000000000000000000000000000000000000000000000046145b15610b7c57507f000000000000000000000000000000000000000000000000000000000000000090565b610527604080517f8b73c3c69bb8fe3d512ecc4cf759cc79239f7b179b0ffacaa9a75d522b39400f60208201527f0000000000000000000000000000000000000000000000000000000000000000918101919091527f000000000000000000000000000000000000000000000000000000000000000060608201524660808201523060a082015260009060c00160405160208183030381529060405280519060200120905090565b60606105277f00000000000000000000000000000000000000000000000000000000000000006000610cd9565b60606105277f00000000000000000000000000000000000000000000000000000000000000006001610cd9565b6000610446610c8b610af9565b8360405161190160f01b8152600281019290925260228201526042902090565b600080600080610cbd88888888610d84565b925092509250610ccd8282610e53565b50909695505050505050565b606060ff8314610cf357610cec83610f10565b9050610446565b818054610cff90611361565b80601f0160208091040260200160405190810160405280929190818152602001828054610d2b90611361565b8015610d785780601f10610d4d57610100808354040283529160200191610d78565b820191906000526020600020905b815481529060010190602001808311610d5b57829003601f168201915b50505050509050610446565b600080807f7fffffffffffffffffffffffffffffff5d576e7357a4501ddfe92f46681b20a0841115610dbf5750600091506003905082610e49565b604080516000808252602082018084528a905260ff891692820192909252606081018790526080810186905260019060a0016020604051602081039080840390855afa158015610e13573d6000803e3d6000fd5b5050604051601f1901519150506001600160a01b038116610e3f57506000925060019150829050610e49565b9250600091508190505b9450945094915050565b6000826003811115610e6757610e6761143f565b03610e70575050565b6001826003811115610e8457610e8461143f565b03610ea25760405163f645eedf60e01b815260040160405180910390fd5b6002826003811115610eb657610eb661143f565b03610ed75760405163fce698f760e01b815260048101829052602401610858565b6003826003811115610eeb57610eeb61143f565b03610f0c576040516335e2f38360e21b815260048101829052602401610858565b5050565b60606000610f1d83610f4f565b604080516020808252818301909252919250600091906020820181803683375050509182525060208101929092525090565b600060ff8216601f81111561044657604051632cd44ac360e21b815260040160405180910390fd5b6000815180845260005b81811015610f9d57602081850181015186830182015201610f81565b506000602082860101526020601f19601f83011685010191505092915050565b602081526000610aa56020830184610f77565b80356001600160a01b0381168114610fe757600080fd5b919050565b60008060408385031215610fff57600080fd5b61100883610fd0565b946020939093013593505050565b634e487b7160e01b600052604160045260246000fd5b600082601f83011261103d57600080fd5b8135602067ffffffffffffffff8083111561105a5761105a611016565b8260051b604051601f19603f8301168101818110848211171561107f5761107f611016565b60405293845285810183019383810192508785111561109d57600080fd5b83870191505b848210156110bc578135835291830191908301906110a3565b979650505050505050565b6000806000606084860312156110dc57600080fd5b833567ffffffffffffffff8111156110f357600080fd5b6110ff8682870161102c565b9660208601359650604090950135949350505050565b60008060006060848603121561112a57600080fd5b61113384610fd0565b925061114160208501610fd0565b9150604084013590509250925092565b60006020828403121561116357600080fd5b610aa582610fd0565b60006020828403121561117e57600080fd5b813567ffffffffffffffff81111561119557600080fd5b820160e08185031215610aa557600080fd5b6000602082840312156111b957600080fd5b813567ffffffffffffffff8111156111d057600080fd5b6111dc8482850161102c565b949350505050565b60ff60f81b881681526000602060e08184015261120460e084018a610f77565b8381036040850152611216818a610f77565b606085018990526001600160a01b038816608086015260a0850187905284810360c0860152855180825283870192509083019060005b818110156112685783518352928401929184019160010161124c565b50909c9b505050505050505050505050565b6020808252825182820181905260009190848201906040850190845b81811015610ccd5783516001600160a01b031683529284019291840191600101611296565b600080600080600080600060e0888a0312156112d657600080fd5b6112df88610fd0565b96506112ed60208901610fd0565b95506040880135945060608801359350608088013560ff8116811461131157600080fd5b9699959850939692959460a0840135945060c09093013592915050565b6000806040838503121561134157600080fd5b61134a83610fd0565b915061135860208401610fd0565b90509250929050565b600181811c9082168061137557607f821691505b60208210810361139557634e487b7160e01b600052602260045260246000fd5b50919050565b6000602082840312156113ad57600080fd5b81518015158114610aa557600080fd5b634e487b7160e01b600052601160045260246000fd5b8082028115828204841417610446576104466113bd565b634e487b7160e01b600052603260045260246000fd5b80820180821115610446576104466113bd565b81810381811115610446576104466113bd565b60006020828403121561143857600080fd5b5051919050565b634e487b7160e01b600052602160045260246000fdfea26469706673582212209b5cc7be91002e1d380837be0dc9a992aeb4e5aad00e75951134299533ba272564736f6c63430008140033",
  "devdoc": {
    "author": "BUIDL GUIDL",
    "errors": {
      "ECDSAInvalidSignature()": [
        {
          "details": "The signature derives the `address(0)`."
        }
      ],
      "ECDSAInvalidSignatureLength(uint256)": [
        {
          "details": "The signature has an invalid length."
        }
      ],
      "ECDSAInvalidSignatureS(bytes32)": [
        {
          "details": "The signature has an S value that is in the upper half order."
        }
      ],
      "InvalidAccountNonce(address,uint256)": [
        {
          "details": "The nonce used for an `account` is not the expected current nonce."
        }
      ],
      "SenderIsNotVault(address)": [
        {
          "details": "Error indicating the sender is not the Vault (e.g., someone is trying to call a permissioned function).",
          "params": {
            "sender": "The account attempting to call a permissioned function"
          }
        }
      ]
    },
    "events": {
      "Approval(address,address,uint256)": {
        "details": "Emitted when the allowance of a `spender` for an `owner` is set by a call to {approve}. `value` is the new allowance."
      },
      "EIP712DomainChanged()": {
        "details": "MAY be emitted to signal that the domain could have changed."
      },
      "Transfer(address,address,uint256)": {
        "details": "Emitted when `value` tokens are moved from one account (`from`) to another (`to`). Note that `value` may be zero."
      }
    },
    "kind": "dev",
    "methods": {
      "DOMAIN_SEPARATOR()": {
        "details": "Returns the domain separator used in the encoding of the signature for {permit}, as defined by {EIP712}."
      },
      "allowance(address,address)": {
        "details": "Returns the remaining number of tokens that `spender` will be allowed to spend on behalf of `owner` through {transferFrom}. This is zero by default. This value changes when {approve} or {transferFrom} are called."
      },
      "approve(address,uint256)": {
        "details": "Sets a `value` amount of tokens as the allowance of `spender` over the caller's tokens. Returns a boolean value indicating whether the operation succeeded. IMPORTANT: Beware that changing an allowance with this method brings the risk that someone may use both the old and the new allowance by unfortunate transaction ordering. One possible solution to mitigate this race condition is to first reduce the spender's allowance to 0 and set the desired value afterwards: https://github.com/ethereum/EIPs/issues/20#issuecomment-263524729 Emits an {Approval} event."
      },
      "balanceOf(address)": {
        "details": "Returns the value of tokens owned by `account`."
      },
      "computeBalance(uint256[],uint256,uint256)": {
        "details": "Computes the new balance of a token after an operation, given the invariant growth ratio and all other balances.",
        "params": {
          "balancesLiveScaled18": "Current live balances (adjusted for decimals, rates, etc.)",
          "invariantRatio": "The ratio of the new invariant (after an operation) to the old",
          "tokenInIndex": "The index of the token we're computing the balance for, in token registration order"
        },
        "returns": {
          "newBalance": "The new balance of the selected token, after the operation"
        }
      },
      "computeInvariant(uint256[])": {
        "details": "This function computes the invariant based on current balances",
        "params": {
          "balancesLiveScaled18": "Array of current pool balances for each token in the pool, scaled to 18 decimals"
        },
        "returns": {
          "invariant": "The calculated invariant of the pool, represented as a uint256"
        }
      },
      "decimals()": {
        "details": "Returns the decimals places of the token."
      },
      "eip712Domain()": {
        "details": "See {IERC-5267}."
      },
      "emitApproval(address,address,uint256)": {
        "details": "Emit the Approval event. This function can only be called by the MultiToken."
      },
      "emitTransfer(address,address,uint256)": {
        "details": "Emit the Transfer event. This function can only be called by the MultiToken."
      },
      "getPoolTokens()": {
        "details": "Delegated to the Vault; added here as a convenience, mainly for off-chain processes.TODO - left blank for now, but for finished example w/ scaffoldBalancer we need to implement this correctly.",
        "returns": {
          "tokens": "List of tokens in the pool"
        }
      },
      "name()": {
        "details": "Returns the name of the token."
      },
      "onSwap((uint8,uint256,uint256[],uint256,uint256,address,bytes))": {
        "params": {
          "params": "Swap parameters"
        },
        "returns": {
          "amountCalculatedScaled18": "Calculated amount for the swap"
        }
      },
      "symbol()": {
        "details": "Returns the symbol of the token."
      },
      "totalSupply()": {
        "details": "Returns the value of tokens in existence."
      },
      "transfer(address,uint256)": {
        "details": "Moves a `value` amount of tokens from the caller's account to `to`. Returns a boolean value indicating whether the operation succeeded. Emits a {Transfer} event."
      },
      "transferFrom(address,address,uint256)": {
        "details": "Moves a `value` amount of tokens from `from` to `to` using the allowance mechanism. `value` is then deducted from the caller's allowance. Returns a boolean value indicating whether the operation succeeded. Emits a {Transfer} event."
      }
    },
    "title": "Example ConstantPricePool",
    "version": 1
  },
  "userdoc": {
    "kind": "user",
    "methods": {
      "computeInvariant(uint256[])": {
        "notice": "Computes and returns the pool's invariant."
      },
      "getPoolTokens()": {
        "notice": "Gets the tokens registered to a pool."
      },
      "onSwap((uint8,uint256,uint256[],uint256,uint256,address,bytes))": {
        "notice": "Execute a swap in the pool."
      }
    },
    "notice": "CURRENTLY A WIP. This is an example custom pool implementation used.",
    "version": 1
  },
  "storageLayout": {
    "storage": [
      {
        "astId": 1369,
        "contract": "contracts/ConstantPricePool.sol:ConstantPricePool",
        "label": "_nameFallback",
        "offset": 0,
        "slot": "0",
        "type": "t_string_storage"
      },
      {
        "astId": 1371,
        "contract": "contracts/ConstantPricePool.sol:ConstantPricePool",
        "label": "_versionFallback",
        "offset": 0,
        "slot": "1",
        "type": "t_string_storage"
      },
      {
        "astId": 348,
        "contract": "contracts/ConstantPricePool.sol:ConstantPricePool",
        "label": "_nonces",
        "offset": 0,
        "slot": "2",
        "type": "t_mapping(t_address,t_uint256)"
      },
      {
        "astId": 4187,
        "contract": "contracts/ConstantPricePool.sol:ConstantPricePool",
        "label": "_name",
        "offset": 0,
        "slot": "3",
        "type": "t_string_storage"
      },
      {
        "astId": 4189,
        "contract": "contracts/ConstantPricePool.sol:ConstantPricePool",
        "label": "_symbol",
        "offset": 0,
        "slot": "4",
        "type": "t_string_storage"
      }
    ],
    "types": {
      "t_address": {
        "encoding": "inplace",
        "label": "address",
        "numberOfBytes": "20"
      },
      "t_mapping(t_address,t_uint256)": {
        "encoding": "mapping",
        "key": "t_address",
        "label": "mapping(address => uint256)",
        "numberOfBytes": "32",
        "value": "t_uint256"
      },
      "t_string_storage": {
        "encoding": "bytes",
        "label": "string",
        "numberOfBytes": "32"
      },
      "t_uint256": {
        "encoding": "inplace",
        "label": "uint256",
        "numberOfBytes": "32"
      }
    }
  }
}