{"abi":[{"type":"constructor","inputs":[{"name":"vault","type":"address","internalType":"contract IVault"},{"name":"pauseWindowDuration","type":"uint32","internalType":"uint32"}],"stateMutability":"nonpayable"},{"type":"function","name":"create","inputs":[{"name":"name","type":"string","internalType":"string"},{"name":"symbol","type":"string","internalType":"string"},{"name":"salt","type":"bytes32","internalType":"bytes32"},{"name":"tokens","type":"tuple[]","internalType":"struct TokenConfig[]","components":[{"name":"token","type":"address","internalType":"contract IERC20"},{"name":"tokenType","type":"uint8","internalType":"enum TokenType"},{"name":"rateProvider","type":"address","internalType":"contract IRateProvider"},{"name":"paysYieldFees","type":"bool","internalType":"bool"}]},{"name":"swapFeePercentage","type":"uint256","internalType":"uint256"},{"name":"protocolFeeExempt","type":"bool","internalType":"bool"},{"name":"roleAccounts","type":"tuple","internalType":"struct PoolRoleAccounts","components":[{"name":"pauseManager","type":"address","internalType":"address"},{"name":"swapFeeManager","type":"address","internalType":"address"},{"name":"poolCreator","type":"address","internalType":"address"}]},{"name":"poolHooksContract","type":"address","internalType":"address"},{"name":"liquidityManagement","type":"tuple","internalType":"struct LiquidityManagement","components":[{"name":"disableUnbalancedLiquidity","type":"bool","internalType":"bool"},{"name":"enableAddLiquidityCustom","type":"bool","internalType":"bool"},{"name":"enableRemoveLiquidityCustom","type":"bool","internalType":"bool"},{"name":"enableDonation","type":"bool","internalType":"bool"}]}],"outputs":[{"name":"pool","type":"address","internalType":"address"}],"stateMutability":"nonpayable"},{"type":"function","name":"disable","inputs":[],"outputs":[],"stateMutability":"nonpayable"},{"type":"function","name":"getActionId","inputs":[{"name":"selector","type":"bytes4","internalType":"bytes4"}],"outputs":[{"name":"","type":"bytes32","internalType":"bytes32"}],"stateMutability":"view"},{"type":"function","name":"getAuthorizer","inputs":[],"outputs":[{"name":"","type":"address","internalType":"contract IAuthorizer"}],"stateMutability":"view"},{"type":"function","name":"getDefaultLiquidityManagement","inputs":[],"outputs":[{"name":"liquidityManagement","type":"tuple","internalType":"struct LiquidityManagement","components":[{"name":"disableUnbalancedLiquidity","type":"bool","internalType":"bool"},{"name":"enableAddLiquidityCustom","type":"bool","internalType":"bool"},{"name":"enableRemoveLiquidityCustom","type":"bool","internalType":"bool"},{"name":"enableDonation","type":"bool","internalType":"bool"}]}],"stateMutability":"pure"},{"type":"function","name":"getDefaultPoolHooksContract","inputs":[],"outputs":[{"name":"","type":"address","internalType":"address"}],"stateMutability":"pure"},{"type":"function","name":"getDeploymentAddress","inputs":[{"name":"salt","type":"bytes32","internalType":"bytes32"}],"outputs":[{"name":"","type":"address","internalType":"address"}],"stateMutability":"view"},{"type":"function","name":"getNewPoolPauseWindowEndTime","inputs":[],"outputs":[{"name":"","type":"uint32","internalType":"uint32"}],"stateMutability":"view"},{"type":"function","name":"getOriginalPauseWindowEndTime","inputs":[],"outputs":[{"name":"","type":"uint32","internalType":"uint32"}],"stateMutability":"view"},{"type":"function","name":"getPauseWindowDuration","inputs":[],"outputs":[{"name":"","type":"uint32","internalType":"uint32"}],"stateMutability":"view"},{"type":"function","name":"getVault","inputs":[],"outputs":[{"name":"","type":"address","internalType":"contract IVault"}],"stateMutability":"view"},{"type":"function","name":"isDisabled","inputs":[],"outputs":[{"name":"","type":"bool","internalType":"bool"}],"stateMutability":"view"},{"type":"function","name":"isPoolFromFactory","inputs":[{"name":"pool","type":"address","internalType":"address"}],"outputs":[{"name":"","type":"bool","internalType":"bool"}],"stateMutability":"view"},{"type":"event","name":"FactoryDisabled","inputs":[],"anonymous":false},{"type":"event","name":"PoolCreated","inputs":[{"name":"pool","type":"address","indexed":true,"internalType":"address"}],"anonymous":false},{"type":"error","name":"Disabled","inputs":[]},{"type":"error","name":"PoolPauseWindowDurationOverflow","inputs":[]},{"type":"error","name":"SenderNotAllowed","inputs":[]},{"type":"error","name":"StandardPoolWithCreator","inputs":[]}],"bytecode":{"object":"0x61010060405234801562000011575f80fd5b50604051620030a4380380620030a48339810160408190526200003491620000df565b8181604051806020016200004890620000d1565b601f1982820381018352601f90910116604052306080526001600160a01b03831660a052815f6200008063ffffffff8316426200012d565b905063ffffffff811115620000a8576040516368755a1160e01b815260040160405180910390fd5b63ffffffff91821660c0521660e0526002620000c58282620001f1565b505050505050620002bd565b611c70806200143483390190565b5f8060408385031215620000f1575f80fd5b82516001600160a01b038116811462000108575f80fd5b602084015190925063ffffffff8116811462000122575f80fd5b809150509250929050565b808201808211156200014d57634e487b7160e01b5f52601160045260245ffd5b92915050565b634e487b7160e01b5f52604160045260245ffd5b600181811c908216806200017c57607f821691505b6020821081036200019b57634e487b7160e01b5f52602260045260245ffd5b50919050565b601f821115620001ec57805f5260205f20601f840160051c81016020851015620001c85750805b601f840160051c820191505b81811015620001e9575f8155600101620001d4565b50505b505050565b81516001600160401b038111156200020d576200020d62000153565b62000225816200021e845462000167565b84620001a1565b602080601f8311600181146200025b575f8415620002435750858301515b5f19600386901b1c1916600185901b178555620002b5565b5f85815260208120601f198616915b828110156200028b578886015182559484019460019091019084016200026a565b5085821015620002a957878501515f19600388901b60f8161c191681555b505060018460011b0185555b505050505050565b60805160a05160c05160e051611120620003145f395f81816102310152818161042a015261045d01525f6101a301525f81816101fb015281816102bf015281816103a401526105a101525f61032801526111205ff3fe608060405234801561000f575f80fd5b50600436106100da575f3560e01c806378da80cb11610088578063aaabadc511610063578063aaabadc51461021f578063db035ebc14610227578063e9d56e191461022f578063ec88806114610255575f80fd5b806378da80cb146101a1578063851c1bb3146101d85780638d928af8146101f9575f80fd5b80636634b753116100b85780636634b7531461014857806369b93224146101835780636c57f5a914610196575f80fd5b8063193ad50f146100de5780632f2770db14610113578063337d40101461011d575b5f80fd5b604080516080810182525f808252602082018190528183018190526060820152905161010a91906109e6565b60405180910390f35b61011b61025b565b005b61013061012b366004610a19565b6102a1565b6040516001600160a01b03909116815260200161010a565b610173610156366004610a54565b6001600160a01b03165f9081526020819052604090205460ff1690565b604051901515815260200161010a565b610130610191366004610d15565b6102b9565b60015460ff16610173565b7f00000000000000000000000000000000000000000000000000000000000000005b60405163ffffffff909116815260200161010a565b6101eb6101e6366004610dee565b610325565b60405190815260200161010a565b7f0000000000000000000000000000000000000000000000000000000000000000610130565b6101306103a1565b6101c3610427565b7f00000000000000000000000000000000000000000000000000000000000000006101c3565b5f610130565b61026361047f565b61026b6104f1565b6001805460ff1916811790556040517f432acbfd662dbb5d8b378384a67159b47ca9d0f1b79f97cf64cf8585fa362d50905f90a1565b5f6102b36102ae83610530565b610553565b92915050565b5f6103077f00000000000000000000000000000000000000000000000000000000000000008b8b6040516020016102f293929190610e7a565b6040516020818303038152906040528961055e565b90506103188188888888888861059f565b9998505050505050505050565b5f7f0000000000000000000000000000000000000000000000000000000000000000826040516020016103849291909182527fffffffff0000000000000000000000000000000000000000000000000000000016602082015260240190565b604051602081830303815290604052805190602001209050919050565b5f7f00000000000000000000000000000000000000000000000000000000000000006001600160a01b031663aaabadc56040518163ffffffff1660e01b8152600401602060405180830381865afa1580156103fe573d5f803e3d5ffd5b505050506040513d601f19601f820116820180604052508101906104229190610eb7565b905090565b5f7f000000000000000000000000000000000000000000000000000000000000000063ffffffff16421061045a57505f90565b507f000000000000000000000000000000000000000000000000000000000000000090565b5f6104ac5f357fffffffff0000000000000000000000000000000000000000000000000000000016610325565b90506104b88133610636565b6104ee576040517f23dada5300000000000000000000000000000000000000000000000000000000815260040160405180910390fd5b50565b60015460ff161561052e576040517f75884cda00000000000000000000000000000000000000000000000000000000815260040160405180910390fd5b565b604080513360208201524691810191909152606081018290525f90608001610384565b5f6102b382306106d6565b5f61059461056b83610530565b60028560405160200161057f929190610eed565b6040516020818303038152906040525f61081e565b90506102b381610993565b7f00000000000000000000000000000000000000000000000000000000000000006001600160a01b031663eeec802f8888886105d9610427565b898989896040518963ffffffff1660e01b8152600401610600989796959493929190610f96565b5f604051808303815f87803b158015610617575f80fd5b505af1158015610629573d5f803e3d5ffd5b5050505050505050505050565b5f61063f6103a1565b6040517f9be2a884000000000000000000000000000000000000000000000000000000008152600481018590526001600160a01b0384811660248301523060448301529190911690639be2a88490606401602060405180830381865afa1580156106ab573d5f803e3d5ffd5b505050506040513d601f19601f820116820180604052508101906106cf91906110b4565b9392505050565b604080518082018252601081527f67363d3d37363d34f03d5260086018f30000000000000000000000000000000060209182015290517fff00000000000000000000000000000000000000000000000000000000000000918101919091526bffffffffffffffffffffffff19606083901b166021820152603581018390527f21c35dbe1b344a2488cf3321d6ce542f8e9f305544ff09e4993a62319a497c1f60558201525f90819061079f906075015b6040516020818303038152906040528051906020012090565b6040517fd69400000000000000000000000000000000000000000000000000000000000060208201526bffffffffffffffffffffffff19606083901b1660228201527f0100000000000000000000000000000000000000000000000000000000000000603682015290915061081690603701610786565b949350505050565b5f806040518060400160405280601081526020017f67363d3d37363d34f03d5260086018f30000000000000000000000000000000081525090505f858251602084015ff590506001600160a01b0381166108bf5760405162461bcd60e51b815260206004820152601160248201527f4445504c4f594d454e545f4641494c454400000000000000000000000000000060448201526064015b60405180910390fd5b6108c886610553565b92505f816001600160a01b031685876040516108e491906110cf565b5f6040518083038185875af1925050503d805f811461091e576040519150601f19603f3d011682016040523d82523d5f602084013e610923565b606091505b5050905080801561093d57506001600160a01b0384163b15155b6109895760405162461bcd60e51b815260206004820152601560248201527f494e495449414c495a4154494f4e5f4641494c4544000000000000000000000060448201526064016108b6565b5050509392505050565b61099b6104f1565b6001600160a01b0381165f81815260208190526040808220805460ff19166001179055517f83a48fbcfc991335314e74d0496aab6a1987e992ddc85dddbcc4d6dd6ef2e9fc9190a250565b815115158152602080830151151590820152604080830151151590820152606080830151151590820152608081016102b3565b5f60208284031215610a29575f80fd5b5035919050565b6001600160a01b03811681146104ee575f80fd5b8035610a4f81610a30565b919050565b5f60208284031215610a64575f80fd5b81356106cf81610a30565b634e487b7160e01b5f52604160045260245ffd5b6040516080810167ffffffffffffffff81118282101715610aa657610aa6610a6f565b60405290565b604051601f8201601f1916810167ffffffffffffffff81118282101715610ad557610ad5610a6f565b604052919050565b5f82601f830112610aec575f80fd5b813567ffffffffffffffff811115610b0657610b06610a6f565b610b19601f8201601f1916602001610aac565b818152846020838601011115610b2d575f80fd5b816020850160208301375f918101602001919091529392505050565b80151581146104ee575f80fd5b8035610a4f81610b49565b5f82601f830112610b70575f80fd5b8135602067ffffffffffffffff821115610b8c57610b8c610a6f565b610b9a818360051b01610aac565b82815260079290921b84018101918181019086841115610bb8575f80fd5b8286015b84811015610c305760808189031215610bd3575f80fd5b610bdb610a83565b8135610be681610a30565b81528185013560028110610bf8575f80fd5b81860152604082810135610c0b81610a30565b90820152606082810135610c1e81610b49565b90820152835291830191608001610bbc565b509695505050505050565b5f60608284031215610c4b575f80fd5b6040516060810181811067ffffffffffffffff82111715610c6e57610c6e610a6f565b6040529050808235610c7f81610a30565b81526020830135610c8f81610a30565b60208201526040830135610ca281610a30565b6040919091015292915050565b5f60808284031215610cbf575f80fd5b610cc7610a83565b90508135610cd481610b49565b81526020820135610ce481610b49565b60208201526040820135610cf781610b49565b60408201526060820135610d0a81610b49565b606082015292915050565b5f805f805f805f805f6101c08a8c031215610d2e575f80fd5b893567ffffffffffffffff80821115610d45575f80fd5b610d518d838e01610add565b9a5060208c0135915080821115610d66575f80fd5b610d728d838e01610add565b995060408c0135985060608c0135915080821115610d8e575f80fd5b50610d9b8c828d01610b61565b96505060808a01359450610db160a08b01610b56565b9350610dc08b60c08c01610c3b565b9250610dcf6101208b01610a44565b9150610ddf8b6101408c01610caf565b90509295985092959850929598565b5f60208284031215610dfe575f80fd5b81357fffffffff00000000000000000000000000000000000000000000000000000000811681146106cf575f80fd5b5f5b83811015610e47578181015183820152602001610e2f565b50505f910152565b5f8151808452610e66816020860160208601610e2d565b601f01601f19169290920160200192915050565b6001600160a01b0384168152606060208201525f610e9b6060830185610e4f565b8281036040840152610ead8185610e4f565b9695505050505050565b5f60208284031215610ec7575f80fd5b81516106cf81610a30565b5f8151610ee3818560208601610e2d565b9290920192915050565b5f8084545f60018260011c91506001831680610f0a57607f831692505b60208084108203610f2957634e487b7160e01b5f52602260045260245ffd5b818015610f3d5760018114610f5257610f7d565b60ff1986168952841515850289019650610f7d565b5f8b8152602090205f5b86811015610f755781548b820152908501908301610f5c565b505084890196505b505050505050610f8d8185610ed2565b95945050505050565b6001600160a01b0389811682526101a060208084018290528a519184018290525f926101c08501928c83019290855b818110156110235784518481511687528381015160028110610ff557634e487b7160e01b5f52602160045260245ffd5b8785015260408181015186169088015260609081015115159087015260809095019493820193600101610fc5565b50505050506040830189905263ffffffff881660608401529050851515608083015284516001600160a01b0390811660a08401526020860151811660c084015260408601511660e08301526001600160a01b03841661010083015282511515610120830152602083015115156101408301526040830151151561016083015260608301511515610180830152610318565b5f602082840312156110c4575f80fd5b81516106cf81610b49565b5f82516110e0818460208701610e2d565b919091019291505056fea264697066735822122061a32bf867264c8dc6c055604aa6e8af3c024a4174b898225b6846d4105b2eb764736f6c6343000818003361018060405234801562000011575f80fd5b5060405162001c7038038062001c7083398101604081905262000034916200028f565b8282828282604051806040016040528060018152602001603160f81b815250620000685f836200014660201b90919060201c565b610120526200007981600162000146565b61014052815160208084019190912060e052815190820120610100524660a0526200010660e05161010051604080517f8b73c3c69bb8fe3d512ecc4cf759cc79239f7b179b0ffacaa9a75d522b39400f60208201529081019290925260608201524660808201523060a08201525f9060c00160405160208183030381529060405280519060200120905090565b60805250503060c0526001600160a01b03166101605260036200012a83826200039d565b5060046200013982826200039d565b50505050505050620004c1565b5f60208351101562000165576200015d836200017e565b905062000178565b816200017284826200039d565b5060ff90505b92915050565b5f80829050601f81511115620001b4578260405163305a27a960e01b8152600401620001ab919062000469565b60405180910390fd5b8051620001c1826200049d565b179392505050565b634e487b7160e01b5f52604160045260245ffd5b5f5b83811015620001f9578181015183820152602001620001df565b50505f910152565b5f82601f83011262000211575f80fd5b81516001600160401b03808211156200022e576200022e620001c9565b604051601f8301601f19908116603f01168101908282118183101715620002595762000259620001c9565b8160405283815286602085880101111562000272575f80fd5b62000285846020830160208901620001dd565b9695505050505050565b5f805f60608486031215620002a2575f80fd5b83516001600160a01b0381168114620002b9575f80fd5b60208501519093506001600160401b0380821115620002d6575f80fd5b620002e48783880162000201565b93506040860151915080821115620002fa575f80fd5b50620003098682870162000201565b9150509250925092565b600181811c908216806200032857607f821691505b6020821081036200034757634e487b7160e01b5f52602260045260245ffd5b50919050565b601f8211156200039857805f5260205f20601f840160051c81016020851015620003745750805b601f840160051c820191505b8181101562000395575f815560010162000380565b50505b505050565b81516001600160401b03811115620003b957620003b9620001c9565b620003d181620003ca845462000313565b846200034d565b602080601f83116001811462000407575f8415620003ef5750858301515b5f19600386901b1c1916600185901b17855562000461565b5f85815260208120601f198616915b82811015620004375788860151825594840194600190910190840162000416565b50858210156200045557878501515f19600388901b60f8161c191681555b505060018460011b0185555b505050505050565b602081525f825180602084015262000489816040850160208701620001dd565b601f01601f19169190910160400192915050565b8051602080830151919081101562000347575f1960209190910360031b1b16919050565b60805160a05160c05160e051610100516101205161014051610160516117146200055c5f395f8181610364015281816104bb015281816105b50152818161067b015281816107da01528181610849015281816109cc01528181610b8101528181610c400152610cb601525f610e6d01525f610e4101525f610dea01525f610dc201525f610d1d01525f610d4701525f610d7101526117145ff3fe608060405234801561000f575f80fd5b50600436106101a5575f3560e01c8063679aefce116100e857806395d89b4111610093578063b677fa561161006e578063b677fa56146103bc578063ce20ece7146103ca578063d505accf146103d7578063dd62ed3e146103ea575f80fd5b806395d89b411461038e578063984de9e814610396578063a9059cbb146103a9575f80fd5b80637ecebe00116100c35780637ecebe001461032957806384b0196e1461033c5780638d928af814610357575f80fd5b8063679aefce146102f957806370a082311461030157806372c9818614610314575f80fd5b806323de665111610153578063313ce5671161012e578063313ce567146102c15780633644e515146102d05780635687f2b8146102d8578063654cf15d146102eb575f80fd5b806323de665114610277578063273c1adf1461028c57806330adf81f1461029a575f80fd5b806316a0b3e01161018357806316a0b3e01461023b57806318160ddd1461025c57806323b872dd14610264575f80fd5b806301ffc9a7146101a957806306fdde0314610213578063095ea7b314610228575b5f80fd5b6101fe6101b73660046111fb565b7fffffffff00000000000000000000000000000000000000000000000000000000167f01ffc9a7000000000000000000000000000000000000000000000000000000001490565b60405190151581526020015b60405180910390f35b61021b6103fd565b60405161020a919061127d565b6101fe6102363660046112aa565b61048d565b61024e610249366004611381565b610534565b60405190815260200161020a565b61024e610585565b6101fe6102723660046113cb565b61062c565b61028a6102853660046113cb565b6106f2565b005b6729a2241af62c000061024e565b61024e7f6e71edae12b1b97f4d1f60370fef10105fa2faae0126114a169c64845d6126c981565b6040516012815260200161020a565b61024e61074c565b61028a6102e63660046113cb565b610755565b67016345785d8a000061024e565b61024e6107a2565b61024e61030f366004611404565b610809565b61024e61032236600461141d565b6020013590565b61024e610337366004611404565b6108b4565b6103446108d1565b60405161020a9796959493929190611454565b6040516001600160a01b037f000000000000000000000000000000000000000000000000000000000000000016815260200161020a565b61021b61092f565b61024e6103a4366004611507565b61093e565b6101fe6103b73660046112aa565b610985565b6709b6e64a8ec6000061024e565b66038d7ea4c6800061024e565b61028a6103e5366004611559565b6109fd565b61024e6103f83660046115c6565b610bf8565b60606003805461040c906115f7565b80601f0160208091040260200160405190810160405280929190818152602001828054610438906115f7565b80156104835780601f1061045a57610100808354040283529160200191610483565b820191905f5260205f20905b81548152906001019060200180831161046657829003601f168201915b5050505050905090565b60405163e1f21c6760e01b81523360048201526001600160a01b038381166024830152604482018390525f917f00000000000000000000000000000000000000000000000000000000000000009091169063e1f21c67906064015b6020604051808303815f875af1158015610504573d5f803e3d5ffd5b505050506040513d601f19601f82011682018060405250810190610528919061162f565b50600190505b92915050565b5f8061054185600161093e565b90508061054e8482611662565b86868151811061056057610560611679565b6020026020010151610572919061168d565b61057c91906116a0565b95945050505050565b6040517fe4dc2aa40000000000000000000000000000000000000000000000000000000081523060048201525f907f00000000000000000000000000000000000000000000000000000000000000006001600160a01b03169063e4dc2aa4906024015b602060405180830381865afa158015610603573d5f803e3d5ffd5b505050506040513d601f19601f8201168201806040525081019061062791906116b3565b905090565b6040517f15dacbea0000000000000000000000000000000000000000000000000000000081523360048201526001600160a01b0384811660248301528381166044830152606482018390525f917f0000000000000000000000000000000000000000000000000000000000000000909116906315dacbea906084016020604051808303815f875af11580156106c3573d5f803e3d5ffd5b505050506040513d601f19601f820116820180604052508101906106e7919061162f565b506001949350505050565b6106fa610cab565b816001600160a01b0316836001600160a01b03167fddf252ad1be2c89b69c2b068fc378daa952ba7f163c4a11628f55a4df523b3ef8360405161073f91815260200190565b60405180910390a3505050565b5f610627610d11565b61075d610cab565b816001600160a01b0316836001600160a01b03167f8c5be1e5ebec7d5bd14f71427d1e84f3dd0314c0f7b2291e5b200ac8c7c3b9258360405161073f91815260200190565b6040517f4f037ee70000000000000000000000000000000000000000000000000000000081523060048201525f906001600160a01b037f00000000000000000000000000000000000000000000000000000000000000001690634f037ee7906024016105e8565b6040517ff7888aec0000000000000000000000000000000000000000000000000000000081523060048201526001600160a01b0382811660248301525f917f00000000000000000000000000000000000000000000000000000000000000009091169063f7888aec90604401602060405180830381865afa158015610890573d5f803e3d5ffd5b505050506040513d601f19601f8201168201806040525081019061052e91906116b3565b6001600160a01b0381165f9081526002602052604081205461052e565b5f6060805f805f60606108e2610e3a565b6108ea610e66565b604080515f808252602082019092527f0f000000000000000000000000000000000000000000000000000000000000009b939a50919850469750309650945092509050565b60606004805461040c906115f7565b5f8260018151811061095257610952611679565b6020026020010151835f8151811061096c5761096c611679565b602002602001015161097e919061168d565b9392505050565b6040517fbeabacc80000000000000000000000000000000000000000000000000000000081523360048201526001600160a01b038381166024830152604482018390525f917f00000000000000000000000000000000000000000000000000000000000000009091169063beabacc8906064016104e8565b83421115610a3f576040517f62791302000000000000000000000000000000000000000000000000000000008152600481018590526024015b60405180910390fd5b5f7f6e71edae12b1b97f4d1f60370fef10105fa2faae0126114a169c64845d6126c9888888610a8a8c6001600160a01b03165f90815260026020526040902080546001810190915590565b6040805160208101969096526001600160a01b0394851690860152929091166060840152608083015260a082015260c0810186905260e0016040516020818303038152906040528051906020012090505f610ae482610e93565b90505f610af382878787610eda565b9050896001600160a01b0316816001600160a01b031614610b53576040517f4b800e460000000000000000000000000000000000000000000000000000000081526001600160a01b0380831660048301528b166024820152604401610a36565b60405163e1f21c6760e01b81526001600160a01b038b811660048301528a81166024830152604482018a90527f0000000000000000000000000000000000000000000000000000000000000000169063e1f21c67906064016020604051808303815f875af1158015610bc7573d5f803e3d5ffd5b505050506040513d601f19601f82011682018060405250810190610beb919061162f565b5050505050505050505050565b6040517f927da1050000000000000000000000000000000000000000000000000000000081523060048201526001600160a01b03838116602483015282811660448301525f917f00000000000000000000000000000000000000000000000000000000000000009091169063927da10590606401602060405180830381865afa158015610c87573d5f803e3d5ffd5b505050506040513d601f19601f8201168201806040525081019061097e91906116b3565b336001600160a01b037f00000000000000000000000000000000000000000000000000000000000000001614610d0f576040517f089676d5000000000000000000000000000000000000000000000000000000008152336004820152602401610a36565b565b5f306001600160a01b037f000000000000000000000000000000000000000000000000000000000000000016148015610d6957507f000000000000000000000000000000000000000000000000000000000000000046145b15610d9357507f000000000000000000000000000000000000000000000000000000000000000090565b610627604080517f8b73c3c69bb8fe3d512ecc4cf759cc79239f7b179b0ffacaa9a75d522b39400f60208201527f0000000000000000000000000000000000000000000000000000000000000000918101919091527f000000000000000000000000000000000000000000000000000000000000000060608201524660808201523060a08201525f9060c00160405160208183030381529060405280519060200120905090565b60606106277f00000000000000000000000000000000000000000000000000000000000000005f610f06565b60606106277f00000000000000000000000000000000000000000000000000000000000000006001610f06565b5f61052e610e9f610d11565b836040517f19010000000000000000000000000000000000000000000000000000000000008152600281019290925260228201526042902090565b5f805f80610eea88888888610faf565b925092509250610efa8282611077565b50909695505050505050565b606060ff8314610f2057610f198361117e565b905061052e565b818054610f2c906115f7565b80601f0160208091040260200160405190810160405280929190818152602001828054610f58906115f7565b8015610fa35780601f10610f7a57610100808354040283529160200191610fa3565b820191905f5260205f20905b815481529060010190602001808311610f8657829003601f168201915b5050505050905061052e565b5f80807f7fffffffffffffffffffffffffffffff5d576e7357a4501ddfe92f46681b20a0841115610fe857505f9150600390508261106d565b604080515f808252602082018084528a905260ff891692820192909252606081018790526080810186905260019060a0016020604051602081039080840390855afa158015611039573d5f803e3d5ffd5b5050604051601f1901519150506001600160a01b03811661106457505f92506001915082905061106d565b92505f91508190505b9450945094915050565b5f82600381111561108a5761108a6116ca565b03611093575050565b60018260038111156110a7576110a76116ca565b036110de576040517ff645eedf00000000000000000000000000000000000000000000000000000000815260040160405180910390fd5b60028260038111156110f2576110f26116ca565b0361112c576040517ffce698f700000000000000000000000000000000000000000000000000000000815260048101829052602401610a36565b6003826003811115611140576111406116ca565b0361117a576040517fd78bce0c00000000000000000000000000000000000000000000000000000000815260048101829052602401610a36565b5050565b60605f61118a836111bb565b6040805160208082528183019092529192505f91906020820181803683375050509182525060208101929092525090565b5f60ff8216601f81111561052e576040517fb3512b0c00000000000000000000000000000000000000000000000000000000815260040160405180910390fd5b5f6020828403121561120b575f80fd5b81357fffffffff000000000000000000000000000000000000000000000000000000008116811461097e575f80fd5b5f81518084525f5b8181101561125e57602081850181015186830182015201611242565b505f602082860101526020601f19601f83011685010191505092915050565b602081525f61097e602083018461123a565b80356001600160a01b03811681146112a5575f80fd5b919050565b5f80604083850312156112bb575f80fd5b6112c48361128f565b946020939093013593505050565b634e487b7160e01b5f52604160045260245ffd5b5f82601f8301126112f5575f80fd5b8135602067ffffffffffffffff80831115611312576113126112d2565b8260051b604051601f19603f83011681018181108482111715611337576113376112d2565b6040529384526020818701810194908101925087851115611356575f80fd5b6020870191505b848210156113765781358352918301919083019061135d565b979650505050505050565b5f805f60608486031215611393575f80fd5b833567ffffffffffffffff8111156113a9575f80fd5b6113b5868287016112e6565b9660208601359650604090950135949350505050565b5f805f606084860312156113dd575f80fd5b6113e68461128f565b92506113f46020850161128f565b9150604084013590509250925092565b5f60208284031215611414575f80fd5b61097e8261128f565b5f6020828403121561142d575f80fd5b813567ffffffffffffffff811115611443575f80fd5b820160e0818503121561097e575f80fd5b7fff00000000000000000000000000000000000000000000000000000000000000881681525f602060e0602084015261149060e084018a61123a565b83810360408501526114a2818a61123a565b606085018990526001600160a01b038816608086015260a0850187905284810360c0860152855180825260208088019350909101905f5b818110156114f5578351835292840192918401916001016114d9565b50909c9b505050505050505050505050565b5f8060408385031215611518575f80fd5b823567ffffffffffffffff81111561152e575f80fd5b61153a858286016112e6565b92505060208301356002811061154e575f80fd5b809150509250929050565b5f805f805f805f60e0888a03121561156f575f80fd5b6115788861128f565b96506115866020890161128f565b95506040880135945060608801359350608088013560ff811681146115a9575f80fd5b9699959850939692959460a0840135945060c09093013592915050565b5f80604083850312156115d7575f80fd5b6115e08361128f565b91506115ee6020840161128f565b90509250929050565b600181811c9082168061160b57607f821691505b60208210810361162957634e487b7160e01b5f52602260045260245ffd5b50919050565b5f6020828403121561163f575f80fd5b8151801515811461097e575f80fd5b634e487b7160e01b5f52601160045260245ffd5b808202811582820484141761052e5761052e61164e565b634e487b7160e01b5f52603260045260245ffd5b8082018082111561052e5761052e61164e565b8181038181111561052e5761052e61164e565b5f602082840312156116c3575f80fd5b5051919050565b634e487b7160e01b5f52602160045260245ffdfea26469706673582212201576cb1171ba4d085da82458c3899040bd2464d2bcfe7d26a5806eb10d4230e364736f6c63430008180033","linkReferences":{}},"methodIdentifiers":{"create(string,string,bytes32,(address,uint8,address,bool)[],uint256,bool,(address,address,address),address,(bool,bool,bool,bool))":"69b93224","disable()":"2f2770db","getActionId(bytes4)":"851c1bb3","getAuthorizer()":"aaabadc5","getDefaultLiquidityManagement()":"193ad50f","getDefaultPoolHooksContract()":"ec888061","getDeploymentAddress(bytes32)":"337d4010","getNewPoolPauseWindowEndTime()":"db035ebc","getOriginalPauseWindowEndTime()":"e9d56e19","getPauseWindowDuration()":"78da80cb","getVault()":"8d928af8","isDisabled()":"6c57f5a9","isPoolFromFactory(address)":"6634b753"},"id":1}