{"abi":[{"type":"constructor","inputs":[{"name":"vault","type":"address","internalType":"contract IVault"},{"name":"name","type":"string","internalType":"string"},{"name":"symbol","type":"string","internalType":"string"}],"stateMutability":"nonpayable"},{"type":"function","name":"DOMAIN_SEPARATOR","inputs":[],"outputs":[{"name":"","type":"bytes32","internalType":"bytes32"}],"stateMutability":"view"},{"type":"function","name":"PERMIT_TYPEHASH","inputs":[],"outputs":[{"name":"","type":"bytes32","internalType":"bytes32"}],"stateMutability":"view"},{"type":"function","name":"allowance","inputs":[{"name":"owner","type":"address","internalType":"address"},{"name":"spender","type":"address","internalType":"address"}],"outputs":[{"name":"","type":"uint256","internalType":"uint256"}],"stateMutability":"view"},{"type":"function","name":"approve","inputs":[{"name":"spender","type":"address","internalType":"address"},{"name":"amount","type":"uint256","internalType":"uint256"}],"outputs":[{"name":"","type":"bool","internalType":"bool"}],"stateMutability":"nonpayable"},{"type":"function","name":"balanceOf","inputs":[{"name":"account","type":"address","internalType":"address"}],"outputs":[{"name":"","type":"uint256","internalType":"uint256"}],"stateMutability":"view"},{"type":"function","name":"computeBalance","inputs":[{"name":"balances","type":"uint256[]","internalType":"uint256[]"},{"name":"tokenInIndex","type":"uint256","internalType":"uint256"},{"name":"invariantRatio","type":"uint256","internalType":"uint256"}],"outputs":[{"name":"newBalance","type":"uint256","internalType":"uint256"}],"stateMutability":"pure"},{"type":"function","name":"computeInvariant","inputs":[{"name":"balances","type":"uint256[]","internalType":"uint256[]"},{"name":"","type":"uint8","internalType":"enum Rounding"}],"outputs":[{"name":"","type":"uint256","internalType":"uint256"}],"stateMutability":"pure"},{"type":"function","name":"decimals","inputs":[],"outputs":[{"name":"","type":"uint8","internalType":"uint8"}],"stateMutability":"pure"},{"type":"function","name":"eip712Domain","inputs":[],"outputs":[{"name":"fields","type":"bytes1","internalType":"bytes1"},{"name":"name","type":"string","internalType":"string"},{"name":"version","type":"string","internalType":"string"},{"name":"chainId","type":"uint256","internalType":"uint256"},{"name":"verifyingContract","type":"address","internalType":"address"},{"name":"salt","type":"bytes32","internalType":"bytes32"},{"name":"extensions","type":"uint256[]","internalType":"uint256[]"}],"stateMutability":"view"},{"type":"function","name":"emitApproval","inputs":[{"name":"owner","type":"address","internalType":"address"},{"name":"spender","type":"address","internalType":"address"},{"name":"amount","type":"uint256","internalType":"uint256"}],"outputs":[],"stateMutability":"nonpayable"},{"type":"function","name":"emitTransfer","inputs":[{"name":"from","type":"address","internalType":"address"},{"name":"to","type":"address","internalType":"address"},{"name":"amount","type":"uint256","internalType":"uint256"}],"outputs":[],"stateMutability":"nonpayable"},{"type":"function","name":"getAggregateFeePercentages","inputs":[],"outputs":[{"name":"aggregateSwapFeePercentage","type":"uint256","internalType":"uint256"},{"name":"aggregateYieldFeePercentage","type":"uint256","internalType":"uint256"}],"stateMutability":"view"},{"type":"function","name":"getCurrentLiveBalances","inputs":[],"outputs":[{"name":"balancesLiveScaled18","type":"uint256[]","internalType":"uint256[]"}],"stateMutability":"view"},{"type":"function","name":"getDecimalScalingFactors","inputs":[],"outputs":[{"name":"scalingFactors","type":"uint256[]","internalType":"uint256[]"}],"stateMutability":"view"},{"type":"function","name":"getMaximumInvariantRatio","inputs":[],"outputs":[{"name":"","type":"uint256","internalType":"uint256"}],"stateMutability":"view"},{"type":"function","name":"getMaximumSwapFeePercentage","inputs":[],"outputs":[{"name":"","type":"uint256","internalType":"uint256"}],"stateMutability":"pure"},{"type":"function","name":"getMinimumInvariantRatio","inputs":[],"outputs":[{"name":"","type":"uint256","internalType":"uint256"}],"stateMutability":"view"},{"type":"function","name":"getMinimumSwapFeePercentage","inputs":[],"outputs":[{"name":"","type":"uint256","internalType":"uint256"}],"stateMutability":"pure"},{"type":"function","name":"getRate","inputs":[],"outputs":[{"name":"","type":"uint256","internalType":"uint256"}],"stateMutability":"view"},{"type":"function","name":"getStaticSwapFeePercentage","inputs":[],"outputs":[{"name":"","type":"uint256","internalType":"uint256"}],"stateMutability":"view"},{"type":"function","name":"getTokenInfo","inputs":[],"outputs":[{"name":"tokens","type":"address[]","internalType":"contract IERC20[]"},{"name":"tokenInfo","type":"tuple[]","internalType":"struct TokenInfo[]","components":[{"name":"tokenType","type":"uint8","internalType":"enum TokenType"},{"name":"rateProvider","type":"address","internalType":"contract IRateProvider"},{"name":"paysYieldFees","type":"bool","internalType":"bool"}]},{"name":"balancesRaw","type":"uint256[]","internalType":"uint256[]"},{"name":"lastBalancesLiveScaled18","type":"uint256[]","internalType":"uint256[]"}],"stateMutability":"view"},{"type":"function","name":"getTokens","inputs":[],"outputs":[{"name":"tokens","type":"address[]","internalType":"contract IERC20[]"}],"stateMutability":"view"},{"type":"function","name":"getVault","inputs":[],"outputs":[{"name":"","type":"address","internalType":"contract IVault"}],"stateMutability":"view"},{"type":"function","name":"name","inputs":[],"outputs":[{"name":"","type":"string","internalType":"string"}],"stateMutability":"view"},{"type":"function","name":"nonces","inputs":[{"name":"owner","type":"address","internalType":"address"}],"outputs":[{"name":"","type":"uint256","internalType":"uint256"}],"stateMutability":"view"},{"type":"function","name":"onAddLiquidityCustom","inputs":[{"name":"","type":"address","internalType":"address"},{"name":"maxAmountsInScaled18","type":"uint256[]","internalType":"uint256[]"},{"name":"minBptAmountOut","type":"uint256","internalType":"uint256"},{"name":"","type":"uint256[]","internalType":"uint256[]"},{"name":"userData","type":"bytes","internalType":"bytes"}],"outputs":[{"name":"","type":"uint256[]","internalType":"uint256[]"},{"name":"","type":"uint256","internalType":"uint256"},{"name":"","type":"uint256[]","internalType":"uint256[]"},{"name":"","type":"bytes","internalType":"bytes"}],"stateMutability":"pure"},{"type":"function","name":"onRemoveLiquidityCustom","inputs":[{"name":"","type":"address","internalType":"address"},{"name":"maxBptAmountIn","type":"uint256","internalType":"uint256"},{"name":"minAmountsOut","type":"uint256[]","internalType":"uint256[]"},{"name":"","type":"uint256[]","internalType":"uint256[]"},{"name":"userData","type":"bytes","internalType":"bytes"}],"outputs":[{"name":"","type":"uint256","internalType":"uint256"},{"name":"","type":"uint256[]","internalType":"uint256[]"},{"name":"","type":"uint256[]","internalType":"uint256[]"},{"name":"","type":"bytes","internalType":"bytes"}],"stateMutability":"pure"},{"type":"function","name":"onSwap","inputs":[{"name":"params","type":"tuple","internalType":"struct PoolSwapParams","components":[{"name":"kind","type":"uint8","internalType":"enum SwapKind"},{"name":"amountGivenScaled18","type":"uint256","internalType":"uint256"},{"name":"balancesScaled18","type":"uint256[]","internalType":"uint256[]"},{"name":"indexIn","type":"uint256","internalType":"uint256"},{"name":"indexOut","type":"uint256","internalType":"uint256"},{"name":"router","type":"address","internalType":"address"},{"name":"userData","type":"bytes","internalType":"bytes"}]}],"outputs":[{"name":"amountCalculated","type":"uint256","internalType":"uint256"}],"stateMutability":"view"},{"type":"function","name":"permit","inputs":[{"name":"owner","type":"address","internalType":"address"},{"name":"spender","type":"address","internalType":"address"},{"name":"amount","type":"uint256","internalType":"uint256"},{"name":"deadline","type":"uint256","internalType":"uint256"},{"name":"v","type":"uint8","internalType":"uint8"},{"name":"r","type":"bytes32","internalType":"bytes32"},{"name":"s","type":"bytes32","internalType":"bytes32"}],"outputs":[],"stateMutability":"nonpayable"},{"type":"function","name":"revokePermit","inputs":[],"outputs":[],"stateMutability":"nonpayable"},{"type":"function","name":"setMockRate","inputs":[{"name":"mockRate","type":"uint256","internalType":"uint256"}],"outputs":[],"stateMutability":"nonpayable"},{"type":"function","name":"setMultiplier","inputs":[{"name":"newMultiplier","type":"uint256","internalType":"uint256"}],"outputs":[],"stateMutability":"nonpayable"},{"type":"function","name":"supportsInterface","inputs":[{"name":"interfaceId","type":"bytes4","internalType":"bytes4"}],"outputs":[{"name":"","type":"bool","internalType":"bool"}],"stateMutability":"view"},{"type":"function","name":"symbol","inputs":[],"outputs":[{"name":"","type":"string","internalType":"string"}],"stateMutability":"view"},{"type":"function","name":"totalSupply","inputs":[],"outputs":[{"name":"","type":"uint256","internalType":"uint256"}],"stateMutability":"view"},{"type":"function","name":"transfer","inputs":[{"name":"to","type":"address","internalType":"address"},{"name":"amount","type":"uint256","internalType":"uint256"}],"outputs":[{"name":"","type":"bool","internalType":"bool"}],"stateMutability":"nonpayable"},{"type":"function","name":"transferFrom","inputs":[{"name":"from","type":"address","internalType":"address"},{"name":"to","type":"address","internalType":"address"},{"name":"amount","type":"uint256","internalType":"uint256"}],"outputs":[{"name":"","type":"bool","internalType":"bool"}],"stateMutability":"nonpayable"},{"type":"event","name":"Approval","inputs":[{"name":"owner","type":"address","indexed":true,"internalType":"address"},{"name":"spender","type":"address","indexed":true,"internalType":"address"},{"name":"value","type":"uint256","indexed":false,"internalType":"uint256"}],"anonymous":false},{"type":"event","name":"EIP712DomainChanged","inputs":[],"anonymous":false},{"type":"event","name":"Transfer","inputs":[{"name":"from","type":"address","indexed":true,"internalType":"address"},{"name":"to","type":"address","indexed":true,"internalType":"address"},{"name":"value","type":"uint256","indexed":false,"internalType":"uint256"}],"anonymous":false},{"type":"error","name":"ECDSAInvalidSignature","inputs":[]},{"type":"error","name":"ECDSAInvalidSignatureLength","inputs":[{"name":"length","type":"uint256","internalType":"uint256"}]},{"type":"error","name":"ECDSAInvalidSignatureS","inputs":[{"name":"s","type":"bytes32","internalType":"bytes32"}]},{"type":"error","name":"ERC2612ExpiredSignature","inputs":[{"name":"deadline","type":"uint256","internalType":"uint256"}]},{"type":"error","name":"ERC2612InvalidSigner","inputs":[{"name":"signer","type":"address","internalType":"address"},{"name":"owner","type":"address","internalType":"address"}]},{"type":"error","name":"InvalidAccountNonce","inputs":[{"name":"account","type":"address","internalType":"address"},{"name":"currentNonce","type":"uint256","internalType":"uint256"}]},{"type":"error","name":"InvalidShortString","inputs":[]},{"type":"error","name":"SenderIsNotVault","inputs":[{"name":"sender","type":"address","internalType":"address"}]},{"type":"error","name":"StringTooLong","inputs":[{"name":"str","type":"string","internalType":"string"}]}],"bytecode":{"object":"0x6101a0604052670de0b6b3a76400006005553480156200001d575f80fd5b5060405162002b5438038062002b548339810160408190526200004091620002aa565b828383838282604051806040016040528060018152602001603160f81b815250620000755f836200016160201b90919060201c565b610120526200008681600162000161565b61014052815160208084019190912060e052815190820120610100524660a0526200011360e05161010051604080517f8b73c3c69bb8fe3d512ecc4cf759cc79239f7b179b0ffacaa9a75d522b39400f60208201529081019290925260608201524660808201523060a08201525f9060c00160405160208183030381529060405280519060200120905090565b60805250503060c0526001600160a01b0316610160526003620001378382620003b8565b506004620001468282620003b8565b505050506001600160a01b03166101805250620004dc915050565b5f6020835110156200018057620001788362000199565b905062000193565b816200018d8482620003b8565b5060ff90505b92915050565b5f80829050601f81511115620001cf578260405163305a27a960e01b8152600401620001c6919062000484565b60405180910390fd5b8051620001dc82620004b8565b179392505050565b634e487b7160e01b5f52604160045260245ffd5b5f5b8381101562000214578181015183820152602001620001fa565b50505f910152565b5f82601f8301126200022c575f80fd5b81516001600160401b0380821115620002495762000249620001e4565b604051601f8301601f19908116603f01168101908282118183101715620002745762000274620001e4565b816040528381528660208588010111156200028d575f80fd5b620002a0846020830160208901620001f8565b9695505050505050565b5f805f60608486031215620002bd575f80fd5b83516001600160a01b0381168114620002d4575f80fd5b60208501519093506001600160401b0380821115620002f1575f80fd5b620002ff878388016200021c565b9350604086015191508082111562000315575f80fd5b5062000324868287016200021c565b9150509250925092565b600181811c908216806200034357607f821691505b6020821081036200036257634e487b7160e01b5f52602260045260245ffd5b50919050565b601f821115620003b357805f5260205f20601f840160051c810160208510156200038f5750805b601f840160051c820191505b81811015620003b0575f81556001016200039b565b50505b505050565b81516001600160401b03811115620003d457620003d4620001e4565b620003ec81620003e584546200032e565b8462000368565b602080601f83116001811462000422575f84156200040a5750858301515b5f19600386901b1c1916600185901b1785556200047c565b5f85815260208120601f198616915b82811015620004525788860151825594840194600190910190840162000431565b50858210156200047057878501515f19600388901b60f8161c191681555b505060018460011b0185555b505050505050565b602081525f8251806020840152620004a4816040850160208701620001f8565b601f01601f19169190910160400192915050565b8051602080830151919081101562000362575f1960209190910360031b1b16919050565b60805160a05160c05160e05161010051610120516101405161016051610180516125b0620005a45f395f8181610b6201528181610d3e01528181610e5001528181610efa0152610f9d01525f81816104870152818161066601528181610760015281816108260152818161092801528181610a5001528181610cdc0152818161115801528181611217015281816112de015261149a01525f61151c01525f6114f001525f61141201525f6113ea01525f61134501525f61136f01525f61139901526125b05ff3fe608060405234801561000f575f80fd5b5060043610610269575f3560e01c806372c9818611610157578063aa6ca808116100d2578063ce20ece711610088578063d505accf1161006e578063d505accf1461055f578063dd62ed3e14610572578063e4c4366314610585575f80fd5b8063ce20ece714610551578063d335b0cf14610557575f80fd5b8063abb1dc44116100b8578063abb1dc4414610531578063b156aa0a14610549578063b677fa5614610551575f80fd5b8063aa6ca808146104f9578063ab68e28c1461050e575f80fd5b80638d928af811610127578063979ac7021161010d578063979ac702146104b9578063984de9e8146104d3578063a9059cbb146104e6575f80fd5b80638d928af81461047a57806395d89b41146104b1575f80fd5b806372c981861461041c5780637ecebe001461042f57806381fa807c1461044257806384b0196e1461045f575f80fd5b8063313ce567116101e75780635687f2b8116101b7578063654cf15d1161019d578063654cf15d146103f3578063679aefce1461040157806370a0823114610409575f80fd5b80635687f2b8146103cd578063641579a6146103e0575f80fd5b8063313ce5671461038e578063360c340f1461039d5780633644e515146103b25780634cfe8d1a146103ba575f80fd5b806318160ddd1161023c57806323de66511161022257806323de66511461033b578063273c1adf1461035057806330adf81f14610367575f80fd5b806318160ddd1461032057806323b872dd14610328575f80fd5b806301ffc9a71461026d57806306fdde03146102d7578063095ea7b3146102ec57806316a0b3e0146102ff575b5f80fd5b6102c261027b3660046118aa565b7fffffffff00000000000000000000000000000000000000000000000000000000167f01ffc9a7000000000000000000000000000000000000000000000000000000001490565b60405190151581526020015b60405180910390f35b6102df6105a8565b6040516102ce919061192c565b6102c26102fa366004611952565b610638565b61031261030d366004611a9d565b6106df565b6040519081526020016102ce565b610312610730565b6102c2610336366004611ae7565b6107d7565b61034e610349366004611ae7565b61089d565b005b701d6329f1c35ca4bfabb9f5610000000000610312565b6103127f6e71edae12b1b97f4d1f60370fef10105fa2faae0126114a169c64845d6126c981565b604051601281526020016102ce565b6103a56108f7565b6040516102ce9190611b5f565b6103126109a1565b61034e6103c8366004611b71565b600655565b61034e6103db366004611ae7565b6109aa565b61034e6103ee366004611b71565b600555565b670de0b6b3a7640000610312565b6103126109f7565b610312610417366004611b88565b610a10565b61031261042a366004611ba3565b610abb565b61031261043d366004611b88565b610b09565b61044a610b26565b604080519283526020830191909152016102ce565b610467610be1565b6040516102ce9796959493929190611bda565b6040516001600160a01b037f00000000000000000000000000000000000000000000000000000000000000001681526020016102ce565b6102df610c3f565b61034e335f90815260026020526040902080546001019055565b6103126104e1366004611c6f565b610c51565b6102c26104f4366004611952565b610c95565b610501610d0d565b6040516102ce9190611cf6565b61052161051c366004611d74565b610db1565b6040516102ce9493929190611e12565b610539610e11565b6040516102ce9493929190611e6f565b6103a5610ec9565b5f610312565b610312610f6d565b61034e61056d366004611f1e565b610fd4565b610312610580366004611f8f565b6111cf565b610598610593366004611fbb565b611289565b6040516102ce949392919061201e565b6060600380546105b790612048565b80601f01602080910402602001604051908101604052809291908181526020018280546105e390612048565b801561062e5780601f106106055761010080835404028352916020019161062e565b820191905f5260205f20905b81548152906001019060200180831161061157829003601f168201915b5050505050905090565b60405163e1f21c6760e01b81523360048201526001600160a01b038381166024830152604482018390525f917f00000000000000000000000000000000000000000000000000000000000000009091169063e1f21c67906064015b6020604051808303815f875af11580156106af573d5f803e3d5ffd5b505050506040513d601f19601f820116820180604052508101906106d3919061208e565b50600190505b92915050565b5f806106ec856001610c51565b9050806106f981856112ab565b86868151811061070b5761070b6120a7565b602002602001015161071d91906120cf565b61072791906120e2565b95945050505050565b6040517fe4dc2aa40000000000000000000000000000000000000000000000000000000081523060048201525f907f00000000000000000000000000000000000000000000000000000000000000006001600160a01b03169063e4dc2aa4906024015b602060405180830381865afa1580156107ae573d5f803e3d5ffd5b505050506040513d601f19601f820116820180604052508101906107d291906120f5565b905090565b6040517f15dacbea0000000000000000000000000000000000000000000000000000000081523360048201526001600160a01b0384811660248301528381166044830152606482018390525f917f0000000000000000000000000000000000000000000000000000000000000000909116906315dacbea906084016020604051808303815f875af115801561086e573d5f803e3d5ffd5b505050506040513d601f19601f82011682018060405250810190610892919061208e565b506001949350505050565b6108a56112d3565b816001600160a01b0316836001600160a01b03167fddf252ad1be2c89b69c2b068fc378daa952ba7f163c4a11628f55a4df523b3ef836040516108ea91815260200190565b60405180910390a3505050565b6040517f7e361bde0000000000000000000000000000000000000000000000000000000081523060048201526060907f00000000000000000000000000000000000000000000000000000000000000006001600160a01b031690637e361bde906024015f60405180830381865afa158015610974573d5f803e3d5ffd5b505050506040513d5f823e601f3d908101601f1916820160405261099b9190810190612168565b50919050565b5f6107d2611339565b6109b26112d3565b816001600160a01b0316836001600160a01b03167f8c5be1e5ebec7d5bd14f71427d1e84f3dd0314c0f7b2291e5b200ac8c7c3b925836040516108ea91815260200190565b5f6006545f14610a08575060065490565b6107d2611462565b6040517ff7888aec0000000000000000000000000000000000000000000000000000000081523060048201526001600160a01b0382811660248301525f917f00000000000000000000000000000000000000000000000000000000000000009091169063f7888aec90604401602060405180830381865afa158015610a97573d5f803e3d5ffd5b505050506040513d601f19601f820116820180604052508101906106d991906120f5565b5f80610aca60208401846121c8565b6001811115610adb57610adb611e5b565b14610af757600554610af2906020840135906114c9565b6106d9565b6005546106d9906020840135906112ab565b6001600160a01b0381165f908152600260205260408120546106d9565b6040517ff29486a10000000000000000000000000000000000000000000000000000000081523060048201525f90819081906001600160a01b037f0000000000000000000000000000000000000000000000000000000000000000169063f29486a1906024016101a060405180830381865afa158015610ba8573d5f803e3d5ffd5b505050506040513d601f19601f82011682018060405250810190610bcc9190612288565b90508060400151925080606001519150509091565b5f6060805f805f6060610bf26114e9565b610bfa611515565b604080515f808252602082019092527f0f000000000000000000000000000000000000000000000000000000000000009b939a50919850469750309650945092509050565b6060600480546105b790612048565b50565b5f805f5b8451811015610c8d57848181518110610c7057610c706120a7565b602002602001015182610c8391906120cf565b9150600101610c55565b509392505050565b6040517fbeabacc80000000000000000000000000000000000000000000000000000000081523360048201526001600160a01b038381166024830152604482018390525f917f00000000000000000000000000000000000000000000000000000000000000009091169063beabacc890606401610693565b6040517fca4f28030000000000000000000000000000000000000000000000000000000081523060048201526060907f00000000000000000000000000000000000000000000000000000000000000006001600160a01b03169063ca4f2803906024015f60405180830381865afa158015610d8a573d5f803e3d5ffd5b505050506040513d5f823e601f3d908101601f191682016040526107d291908101906123a3565b5f60608060608787885167ffffffffffffffff811115610dd357610dd361197c565b604051908082528060200260200182016040528015610dfc578160200160208202803683370190505b50919b909a5090985094965093945050505050565b6040517f67e0e0760000000000000000000000000000000000000000000000000000000081523060048201526060908190819081906001600160a01b037f000000000000000000000000000000000000000000000000000000000000000016906367e0e076906024015f60405180830381865afa158015610e94573d5f803e3d5ffd5b505050506040513d5f823e601f3d908101601f19168201604052610ebb91908101906123d5565b935093509350935090919293565b6040517f535cfd8a0000000000000000000000000000000000000000000000000000000081523060048201526060907f00000000000000000000000000000000000000000000000000000000000000006001600160a01b03169063535cfd8a906024015f60405180830381865afa158015610f46573d5f803e3d5ffd5b505050506040513d5f823e601f3d908101601f191682016040526107d29190810190612512565b6040517fb45090f90000000000000000000000000000000000000000000000000000000081523060048201525f907f00000000000000000000000000000000000000000000000000000000000000006001600160a01b03169063b45090f990602401610793565b83421115611016576040517f62791302000000000000000000000000000000000000000000000000000000008152600481018590526024015b60405180910390fd5b5f7f6e71edae12b1b97f4d1f60370fef10105fa2faae0126114a169c64845d6126c98888886110618c6001600160a01b03165f90815260026020526040902080546001810190915590565b6040805160208101969096526001600160a01b0394851690860152929091166060840152608083015260a082015260c0810186905260e0016040516020818303038152906040528051906020012090505f6110bb82611542565b90505f6110ca82878787611589565b9050896001600160a01b0316816001600160a01b03161461112a576040517f4b800e460000000000000000000000000000000000000000000000000000000081526001600160a01b0380831660048301528b16602482015260440161100d565b60405163e1f21c6760e01b81526001600160a01b038b811660048301528a81166024830152604482018a90527f0000000000000000000000000000000000000000000000000000000000000000169063e1f21c67906064016020604051808303815f875af115801561119e573d5f803e3d5ffd5b505050506040513d601f19601f820116820180604052508101906111c2919061208e565b5050505050505050505050565b6040517f927da1050000000000000000000000000000000000000000000000000000000081523060048201526001600160a01b03838116602483015282811660448301525f917f00000000000000000000000000000000000000000000000000000000000000009091169063927da10590606401602060405180830381865afa15801561125e573d5f803e3d5ffd5b505050506040513d601f19601f8201168201806040525081019061128291906120f5565b9392505050565b60605f6060808787895167ffffffffffffffff811115610dd357610dd361197c565b5f806112b78385612544565b90506112cb670de0b6b3a76400008261255b565b949350505050565b336001600160a01b037f00000000000000000000000000000000000000000000000000000000000000001614611337576040517f089676d500000000000000000000000000000000000000000000000000000000815233600482015260240161100d565b565b5f306001600160a01b037f00000000000000000000000000000000000000000000000000000000000000001614801561139157507f000000000000000000000000000000000000000000000000000000000000000046145b156113bb57507f000000000000000000000000000000000000000000000000000000000000000090565b6107d2604080517f8b73c3c69bb8fe3d512ecc4cf759cc79239f7b179b0ffacaa9a75d522b39400f60208201527f0000000000000000000000000000000000000000000000000000000000000000918101919091527f000000000000000000000000000000000000000000000000000000000000000060608201524660808201523060a08201525f9060c00160405160208183030381529060405280519060200120905090565b6040517f4f037ee70000000000000000000000000000000000000000000000000000000081523060048201525f906001600160a01b037f00000000000000000000000000000000000000000000000000000000000000001690634f037ee790602401610793565b5f806114dd670de0b6b3a764000085612544565b90506112cb838261255b565b60606107d27f00000000000000000000000000000000000000000000000000000000000000005f6115b5565b60606107d27f000000000000000000000000000000000000000000000000000000000000000060016115b5565b5f6106d961154e611339565b836040517f19010000000000000000000000000000000000000000000000000000000000008152600281019290925260228201526042902090565b5f805f806115998888888861165e565b9250925092506115a98282611726565b50909695505050505050565b606060ff83146115cf576115c88361182d565b90506106d9565b8180546115db90612048565b80601f016020809104026020016040519081016040528092919081815260200182805461160790612048565b80156116525780601f1061162957610100808354040283529160200191611652565b820191905f5260205f20905b81548152906001019060200180831161163557829003601f168201915b505050505090506106d9565b5f80807f7fffffffffffffffffffffffffffffff5d576e7357a4501ddfe92f46681b20a084111561169757505f9150600390508261171c565b604080515f808252602082018084528a905260ff891692820192909252606081018790526080810186905260019060a0016020604051602081039080840390855afa1580156116e8573d5f803e3d5ffd5b5050604051601f1901519150506001600160a01b03811661171357505f92506001915082905061171c565b92505f91508190505b9450945094915050565b5f82600381111561173957611739611e5b565b03611742575050565b600182600381111561175657611756611e5b565b0361178d576040517ff645eedf00000000000000000000000000000000000000000000000000000000815260040160405180910390fd5b60028260038111156117a1576117a1611e5b565b036117db576040517ffce698f70000000000000000000000000000000000000000000000000000000081526004810182905260240161100d565b60038260038111156117ef576117ef611e5b565b03611829576040517fd78bce0c0000000000000000000000000000000000000000000000000000000081526004810182905260240161100d565b5050565b60605f6118398361186a565b6040805160208082528183019092529192505f91906020820181803683375050509182525060208101929092525090565b5f60ff8216601f8111156106d9576040517fb3512b0c00000000000000000000000000000000000000000000000000000000815260040160405180910390fd5b5f602082840312156118ba575f80fd5b81357fffffffff0000000000000000000000000000000000000000000000000000000081168114611282575f80fd5b5f81518084525f5b8181101561190d576020818501810151868301820152016118f1565b505f602082860101526020601f19601f83011685010191505092915050565b602081525f61128260208301846118e9565b6001600160a01b0381168114610c4e575f80fd5b5f8060408385031215611963575f80fd5b823561196e8161193e565b946020939093013593505050565b634e487b7160e01b5f52604160045260245ffd5b604051610140810167ffffffffffffffff811182821017156119b4576119b461197c565b60405290565b6040516060810167ffffffffffffffff811182821017156119b4576119b461197c565b604051601f8201601f1916810167ffffffffffffffff81118282101715611a0657611a0661197c565b604052919050565b5f67ffffffffffffffff821115611a2757611a2761197c565b5060051b60200190565b5f82601f830112611a40575f80fd5b81356020611a55611a5083611a0e565b6119dd565b8083825260208201915060208460051b870101935086841115611a76575f80fd5b602086015b84811015611a925780358352918301918301611a7b565b509695505050505050565b5f805f60608486031215611aaf575f80fd5b833567ffffffffffffffff811115611ac5575f80fd5b611ad186828701611a31565b9660208601359650604090950135949350505050565b5f805f60608486031215611af9575f80fd5b8335611b048161193e565b92506020840135611b148161193e565b929592945050506040919091013590565b5f815180845260208085019450602084015f5b83811015611b5457815187529582019590820190600101611b38565b509495945050505050565b602081525f6112826020830184611b25565b5f60208284031215611b81575f80fd5b5035919050565b5f60208284031215611b98575f80fd5b81356112828161193e565b5f60208284031215611bb3575f80fd5b813567ffffffffffffffff811115611bc9575f80fd5b820160e08185031215611282575f80fd5b7fff000000000000000000000000000000000000000000000000000000000000008816815260e060208201525f611c1460e08301896118e9565b8281036040840152611c2681896118e9565b90508660608401526001600160a01b03861660808401528460a084015282810360c0840152611c558185611b25565b9a9950505050505050505050565b60028110610c4e575f80fd5b5f8060408385031215611c80575f80fd5b823567ffffffffffffffff811115611c96575f80fd5b611ca285828601611a31565b9250506020830135611cb381611c63565b809150509250929050565b5f815180845260208085019450602084015f5b83811015611b545781516001600160a01b031687529582019590820190600101611cd1565b602081525f6112826020830184611cbe565b5f82601f830112611d17575f80fd5b813567ffffffffffffffff811115611d3157611d3161197c565b611d44601f8201601f19166020016119dd565b818152846020838601011115611d58575f80fd5b816020850160208301375f918101602001919091529392505050565b5f805f805f60a08688031215611d88575f80fd5b8535611d938161193e565b945060208601359350604086013567ffffffffffffffff80821115611db6575f80fd5b611dc289838a01611a31565b94506060880135915080821115611dd7575f80fd5b611de389838a01611a31565b93506080880135915080821115611df8575f80fd5b50611e0588828901611d08565b9150509295509295909350565b848152608060208201525f611e2a6080830186611b25565b8281036040840152611e3c8186611b25565b90508281036060840152611e5081856118e9565b979650505050505050565b634e487b7160e01b5f52602160045260245ffd5b608081525f611e816080830187611cbe565b8281036020848101919091528651808352878201928201905f5b81811015611ef4578451805160028110611ec357634e487b7160e01b5f52602160045260245ffd5b8452808501516001600160a01b03168585015260409081015115159084015293830193606090920191600101611e9b565b50508481036040860152611f088188611b25565b925050508281036060840152611e508185611b25565b5f805f805f805f60e0888a031215611f34575f80fd5b8735611f3f8161193e565b96506020880135611f4f8161193e565b95506040880135945060608801359350608088013560ff81168114611f72575f80fd5b9699959850939692959460a0840135945060c09093013592915050565b5f8060408385031215611fa0575f80fd5b8235611fab8161193e565b91506020830135611cb38161193e565b5f805f805f60a08688031215611fcf575f80fd5b8535611fda8161193e565b9450602086013567ffffffffffffffff80821115611ff6575f80fd5b61200289838a01611a31565b9550604088013594506060880135915080821115611dd7575f80fd5b608081525f6120306080830187611b25565b8560208401528281036040840152611e3c8186611b25565b600181811c9082168061205c57607f821691505b60208210810361099b57634e487b7160e01b5f52602260045260245ffd5b80518015158114612089575f80fd5b919050565b5f6020828403121561209e575f80fd5b6112828261207a565b634e487b7160e01b5f52603260045260245ffd5b634e487b7160e01b5f52601160045260245ffd5b808201808211156106d9576106d96120bb565b818103818111156106d9576106d96120bb565b5f60208284031215612105575f80fd5b5051919050565b5f82601f83011261211b575f80fd5b8151602061212b611a5083611a0e565b8083825260208201915060208460051b87010193508684111561214c575f80fd5b602086015b84811015611a925780518352918301918301612151565b5f8060408385031215612179575f80fd5b825167ffffffffffffffff80821115612190575f80fd5b61219c8683870161210c565b935060208501519150808211156121b1575f80fd5b506121be8582860161210c565b9150509250929050565b5f602082840312156121d8575f80fd5b813561128281611c63565b5f608082840312156121f3575f80fd5b6040516080810181811067ffffffffffffffff821117156122165761221661197c565b6040529050806122258361207a565b81526122336020840161207a565b60208201526122446040840161207a565b60408201526122556060840161207a565b60608201525092915050565b805164ffffffffff81168114612089575f80fd5b805163ffffffff81168114612089575f80fd5b5f6101a08284031215612299575f80fd5b6122a1611990565b6122ab84846121e3565b81526080830151602082015260a0830151604082015260c083015160608201526122d760e08401612261565b60808201526101006122ea818501612275565b60a08301526101206122fd81860161207a565b60c084015261230f610140860161207a565b60e0840152612321610160860161207a565b82840152612332610180860161207a565b90830152509392505050565b5f82601f83011261234d575f80fd5b8151602061235d611a5083611a0e565b8083825260208201915060208460051b87010193508684111561237e575f80fd5b602086015b84811015611a925780516123968161193e565b8352918301918301612383565b5f602082840312156123b3575f80fd5b815167ffffffffffffffff8111156123c9575f80fd5b6112cb8482850161233e565b5f805f80608085870312156123e8575f80fd5b845167ffffffffffffffff808211156123ff575f80fd5b61240b8883890161233e565b9550602091508187015181811115612421575f80fd5b8701601f81018913612431575f80fd5b805161243f611a5082611a0e565b8181526060918202830185019185820191908c84111561245d575f80fd5b938601935b838510156124be5780858e031215612478575f80fd5b6124806119ba565b855161248b81611c63565b81528588015161249a8161193e565b8189015260406124ab87820161207a565b9082015283529384019391860191612462565b5060408b01519098509450505050808211156124d8575f80fd5b6124e48883890161210c565b935060608701519150808211156124f9575f80fd5b506125068782880161210c565b91505092959194509250565b5f60208284031215612522575f80fd5b815167ffffffffffffffff811115612538575f80fd5b6112cb8482850161210c565b80820281158282048414176106d9576106d96120bb565b5f8261257557634e487b7160e01b5f52601260045260245ffd5b50049056fea2646970667358221220050a6cedba5ac35857eeeca7ec1670fa14e3b530d795490391544db346fd572464736f6c63430008180033","linkReferences":{}},"methodIdentifiers":{"DOMAIN_SEPARATOR()":"3644e515","PERMIT_TYPEHASH()":"30adf81f","allowance(address,address)":"dd62ed3e","approve(address,uint256)":"095ea7b3","balanceOf(address)":"70a08231","computeBalance(uint256[],uint256,uint256)":"16a0b3e0","computeInvariant(uint256[],uint8)":"984de9e8","decimals()":"313ce567","eip712Domain()":"84b0196e","emitApproval(address,address,uint256)":"5687f2b8","emitTransfer(address,address,uint256)":"23de6651","getAggregateFeePercentages()":"81fa807c","getCurrentLiveBalances()":"b156aa0a","getDecimalScalingFactors()":"360c340f","getMaximumInvariantRatio()":"273c1adf","getMaximumSwapFeePercentage()":"654cf15d","getMinimumInvariantRatio()":"b677fa56","getMinimumSwapFeePercentage()":"ce20ece7","getRate()":"679aefce","getStaticSwapFeePercentage()":"d335b0cf","getTokenInfo()":"abb1dc44","getTokens()":"aa6ca808","getVault()":"8d928af8","name()":"06fdde03","nonces(address)":"7ecebe00","onAddLiquidityCustom(address,uint256[],uint256,uint256[],bytes)":"e4c43663","onRemoveLiquidityCustom(address,uint256,uint256[],uint256[],bytes)":"ab68e28c","onSwap((uint8,uint256,uint256[],uint256,uint256,address,bytes))":"72c98186","permit(address,address,uint256,uint256,uint8,bytes32,bytes32)":"d505accf","revokePermit()":"979ac702","setMockRate(uint256)":"4cfe8d1a","setMultiplier(uint256)":"641579a6","supportsInterface(bytes4)":"01ffc9a7","symbol()":"95d89b41","totalSupply()":"18160ddd","transfer(address,uint256)":"a9059cbb","transferFrom(address,address,uint256)":"23b872dd"},"id":115}