{
    "contractName": "LPIncentivizedHook",
    "abi": [
        {
            "inputs": [
                {
                    "internalType": "contract IVault",
                    "name": "vault",
                    "type": "address"
                },
                {
                    "internalType": "address",
                    "name": "allowedFactory",
                    "type": "address"
                },
                {
                    "internalType": "address",
                    "name": "lpRWD",
                    "type": "address"
                },
                {
                    "internalType": "address",
                    "name": "trustedRouter",
                    "type": "address"
                },
                {
                    "components": [
                        {
                            "internalType": "bool",
                            "name": "amountBaseLiquidity",
                            "type": "bool"
                        },
                        {
                            "internalType": "bool",
                            "name": "timeBaseLiquidity",
                            "type": "bool"
                        }
                    ],
                    "internalType": "struct LPIncentivizedHook.LPIncentiveFactor",
                    "name": "_lpIncentiveFactor",
                    "type": "tuple"
                }
            ],
            "stateMutability": "nonpayable",
            "type": "constructor"
        },
        {
            "inputs": [
                {
                    "internalType": "address",
                    "name": "owner",
                    "type": "address"
                }
            ],
            "name": "OwnableInvalidOwner",
            "type": "error"
        },
        {
            "inputs": [
                {
                    "internalType": "address",
                    "name": "account",
                    "type": "address"
                }
            ],
            "name": "OwnableUnauthorizedAccount",
            "type": "error"
        },
        {
            "inputs": [
                {
                    "internalType": "address",
                    "name": "sender",
                    "type": "address"
                }
            ],
            "name": "SenderIsNotVault",
            "type": "error"
        },
        {
            "anonymous": false,
            "inputs": [
                {
                    "indexed": true,
                    "internalType": "address",
                    "name": "hooksContract",
                    "type": "address"
                },
                {
                    "indexed": true,
                    "internalType": "address",
                    "name": "factory",
                    "type": "address"
                },
                {
                    "indexed": true,
                    "internalType": "address",
                    "name": "pool",
                    "type": "address"
                }
            ],
            "name": "LPIncentivizedHookRegistered",
            "type": "event"
        },
        {
            "anonymous": false,
            "inputs": [
                {
                    "indexed": true,
                    "internalType": "address",
                    "name": "previousOwner",
                    "type": "address"
                },
                {
                    "indexed": true,
                    "internalType": "address",
                    "name": "newOwner",
                    "type": "address"
                }
            ],
            "name": "OwnershipTransferred",
            "type": "event"
        },
        {
            "anonymous": false,
            "inputs": [
                {
                    "indexed": true,
                    "internalType": "address",
                    "name": "LPAddress",
                    "type": "address"
                },
                {
                    "indexed": false,
                    "internalType": "uint256",
                    "name": "reward",
                    "type": "uint256"
                }
            ],
            "name": "RewardDistributed",
            "type": "event"
        },
        {
            "inputs": [],
            "name": "activeAmountBaseLiquidityParameters",
            "outputs": [
                {
                    "internalType": "uint256",
                    "name": "mediumLiquidityAmountTrigger",
                    "type": "uint256"
                },
                {
                    "internalType": "uint256",
                    "name": "higherLiquidityAmountTrigger",
                    "type": "uint256"
                },
                {
                    "internalType": "uint256",
                    "name": "mediumLiquidityAmountRewardFee",
                    "type": "uint256"
                },
                {
                    "internalType": "uint256",
                    "name": "higherLiquidityAmountRewardFee",
                    "type": "uint256"
                }
            ],
            "stateMutability": "view",
            "type": "function"
        },
        {
            "inputs": [],
            "name": "activeIncentiveFactor",
            "outputs": [
                {
                    "internalType": "bool",
                    "name": "amountBaseLiquidity",
                    "type": "bool"
                },
                {
                    "internalType": "bool",
                    "name": "timeBaseLiquidity",
                    "type": "bool"
                }
            ],
            "stateMutability": "view",
            "type": "function"
        },
        {
            "inputs": [],
            "name": "activeTimeBaseLiquidityParameters",
            "outputs": [
                {
                    "internalType": "uint256",
                    "name": "mediumLiquidityTimeTrigger",
                    "type": "uint256"
                },
                {
                    "internalType": "uint256",
                    "name": "higherLiquidityTimeTrigger",
                    "type": "uint256"
                },
                {
                    "internalType": "uint256",
                    "name": "mediumLiquidityTimeRewardFee",
                    "type": "uint256"
                },
                {
                    "internalType": "uint256",
                    "name": "higherLiquidityTimeRewardFee",
                    "type": "uint256"
                }
            ],
            "stateMutability": "view",
            "type": "function"
        },
        {
            "inputs": [],
            "name": "getHookFlags",
            "outputs": [
                {
                    "components": [
                        {
                            "internalType": "bool",
                            "name": "enableHookAdjustedAmounts",
                            "type": "bool"
                        },
                        {
                            "internalType": "bool",
                            "name": "shouldCallBeforeInitialize",
                            "type": "bool"
                        },
                        {
                            "internalType": "bool",
                            "name": "shouldCallAfterInitialize",
                            "type": "bool"
                        },
                        {
                            "internalType": "bool",
                            "name": "shouldCallComputeDynamicSwapFee",
                            "type": "bool"
                        },
                        {
                            "internalType": "bool",
                            "name": "shouldCallBeforeSwap",
                            "type": "bool"
                        },
                        {
                            "internalType": "bool",
                            "name": "shouldCallAfterSwap",
                            "type": "bool"
                        },
                        {
                            "internalType": "bool",
                            "name": "shouldCallBeforeAddLiquidity",
                            "type": "bool"
                        },
                        {
                            "internalType": "bool",
                            "name": "shouldCallAfterAddLiquidity",
                            "type": "bool"
                        },
                        {
                            "internalType": "bool",
                            "name": "shouldCallBeforeRemoveLiquidity",
                            "type": "bool"
                        },
                        {
                            "internalType": "bool",
                            "name": "shouldCallAfterRemoveLiquidity",
                            "type": "bool"
                        }
                    ],
                    "internalType": "struct HookFlags",
                    "name": "hookFlags",
                    "type": "tuple"
                }
            ],
            "stateMutability": "pure",
            "type": "function"
        },
        {
            "inputs": [
                {
                    "internalType": "address",
                    "name": "",
                    "type": "address"
                },
                {
                    "internalType": "contract IERC20",
                    "name": "",
                    "type": "address"
                }
            ],
            "name": "lpInfos",
            "outputs": [
                {
                    "internalType": "uint256",
                    "name": "totalLiquidity",
                    "type": "uint256"
                },
                {
                    "internalType": "uint256",
                    "name": "liquidityStartTime",
                    "type": "uint256"
                },
                {
                    "internalType": "uint256",
                    "name": "rewards",
                    "type": "uint256"
                }
            ],
            "stateMutability": "view",
            "type": "function"
        },
        {
            "inputs": [
                {
                    "internalType": "address",
                    "name": "router",
                    "type": "address"
                },
                {
                    "internalType": "address",
                    "name": "pool",
                    "type": "address"
                },
                {
                    "internalType": "enum AddLiquidityKind",
                    "name": "kind",
                    "type": "uint8"
                },
                {
                    "internalType": "uint256[]",
                    "name": "amountsInScaled18",
                    "type": "uint256[]"
                },
                {
                    "internalType": "uint256[]",
                    "name": "amountsInRaw",
                    "type": "uint256[]"
                },
                {
                    "internalType": "uint256",
                    "name": "bptAmountOut",
                    "type": "uint256"
                },
                {
                    "internalType": "uint256[]",
                    "name": "balancesScaled18",
                    "type": "uint256[]"
                },
                {
                    "internalType": "bytes",
                    "name": "userData",
                    "type": "bytes"
                }
            ],
            "name": "onAfterAddLiquidity",
            "outputs": [
                {
                    "internalType": "bool",
                    "name": "success",
                    "type": "bool"
                },
                {
                    "internalType": "uint256[]",
                    "name": "hookAdjustedAmountsInRaw",
                    "type": "uint256[]"
                }
            ],
            "stateMutability": "nonpayable",
            "type": "function"
        },
        {
            "inputs": [
                {
                    "internalType": "uint256[]",
                    "name": "",
                    "type": "uint256[]"
                },
                {
                    "internalType": "uint256",
                    "name": "",
                    "type": "uint256"
                },
                {
                    "internalType": "bytes",
                    "name": "",
                    "type": "bytes"
                }
            ],
            "name": "onAfterInitialize",
            "outputs": [
                {
                    "internalType": "bool",
                    "name": "",
                    "type": "bool"
                }
            ],
            "stateMutability": "nonpayable",
            "type": "function"
        },
        {
            "inputs": [
                {
                    "internalType": "address",
                    "name": "",
                    "type": "address"
                },
                {
                    "internalType": "address",
                    "name": "",
                    "type": "address"
                },
                {
                    "internalType": "enum RemoveLiquidityKind",
                    "name": "",
                    "type": "uint8"
                },
                {
                    "internalType": "uint256",
                    "name": "",
                    "type": "uint256"
                },
                {
                    "internalType": "uint256[]",
                    "name": "",
                    "type": "uint256[]"
                },
                {
                    "internalType": "uint256[]",
                    "name": "amountsOutRaw",
                    "type": "uint256[]"
                },
                {
                    "internalType": "uint256[]",
                    "name": "",
                    "type": "uint256[]"
                },
                {
                    "internalType": "bytes",
                    "name": "",
                    "type": "bytes"
                }
            ],
            "name": "onAfterRemoveLiquidity",
            "outputs": [
                {
                    "internalType": "bool",
                    "name": "",
                    "type": "bool"
                },
                {
                    "internalType": "uint256[]",
                    "name": "",
                    "type": "uint256[]"
                }
            ],
            "stateMutability": "nonpayable",
            "type": "function"
        },
        {
            "inputs": [
                {
                    "components": [
                        {
                            "internalType": "enum SwapKind",
                            "name": "kind",
                            "type": "uint8"
                        },
                        {
                            "internalType": "contract IERC20",
                            "name": "tokenIn",
                            "type": "address"
                        },
                        {
                            "internalType": "contract IERC20",
                            "name": "tokenOut",
                            "type": "address"
                        },
                        {
                            "internalType": "uint256",
                            "name": "amountInScaled18",
                            "type": "uint256"
                        },
                        {
                            "internalType": "uint256",
                            "name": "amountOutScaled18",
                            "type": "uint256"
                        },
                        {
                            "internalType": "uint256",
                            "name": "tokenInBalanceScaled18",
                            "type": "uint256"
                        },
                        {
                            "internalType": "uint256",
                            "name": "tokenOutBalanceScaled18",
                            "type": "uint256"
                        },
                        {
                            "internalType": "uint256",
                            "name": "amountCalculatedScaled18",
                            "type": "uint256"
                        },
                        {
                            "internalType": "uint256",
                            "name": "amountCalculatedRaw",
                            "type": "uint256"
                        },
                        {
                            "internalType": "address",
                            "name": "router",
                            "type": "address"
                        },
                        {
                            "internalType": "address",
                            "name": "pool",
                            "type": "address"
                        },
                        {
                            "internalType": "bytes",
                            "name": "userData",
                            "type": "bytes"
                        }
                    ],
                    "internalType": "struct AfterSwapParams",
                    "name": "",
                    "type": "tuple"
                }
            ],
            "name": "onAfterSwap",
            "outputs": [
                {
                    "internalType": "bool",
                    "name": "",
                    "type": "bool"
                },
                {
                    "internalType": "uint256",
                    "name": "",
                    "type": "uint256"
                }
            ],
            "stateMutability": "nonpayable",
            "type": "function"
        },
        {
            "inputs": [
                {
                    "internalType": "address",
                    "name": "",
                    "type": "address"
                },
                {
                    "internalType": "address",
                    "name": "",
                    "type": "address"
                },
                {
                    "internalType": "enum AddLiquidityKind",
                    "name": "",
                    "type": "uint8"
                },
                {
                    "internalType": "uint256[]",
                    "name": "",
                    "type": "uint256[]"
                },
                {
                    "internalType": "uint256",
                    "name": "",
                    "type": "uint256"
                },
                {
                    "internalType": "uint256[]",
                    "name": "",
                    "type": "uint256[]"
                },
                {
                    "internalType": "bytes",
                    "name": "",
                    "type": "bytes"
                }
            ],
            "name": "onBeforeAddLiquidity",
            "outputs": [
                {
                    "internalType": "bool",
                    "name": "",
                    "type": "bool"
                }
            ],
            "stateMutability": "nonpayable",
            "type": "function"
        },
        {
            "inputs": [
                {
                    "internalType": "uint256[]",
                    "name": "",
                    "type": "uint256[]"
                },
                {
                    "internalType": "bytes",
                    "name": "",
                    "type": "bytes"
                }
            ],
            "name": "onBeforeInitialize",
            "outputs": [
                {
                    "internalType": "bool",
                    "name": "",
                    "type": "bool"
                }
            ],
            "stateMutability": "nonpayable",
            "type": "function"
        },
        {
            "inputs": [
                {
                    "internalType": "address",
                    "name": "",
                    "type": "address"
                },
                {
                    "internalType": "address",
                    "name": "",
                    "type": "address"
                },
                {
                    "internalType": "enum RemoveLiquidityKind",
                    "name": "",
                    "type": "uint8"
                },
                {
                    "internalType": "uint256",
                    "name": "",
                    "type": "uint256"
                },
                {
                    "internalType": "uint256[]",
                    "name": "",
                    "type": "uint256[]"
                },
                {
                    "internalType": "uint256[]",
                    "name": "",
                    "type": "uint256[]"
                },
                {
                    "internalType": "bytes",
                    "name": "",
                    "type": "bytes"
                }
            ],
            "name": "onBeforeRemoveLiquidity",
            "outputs": [
                {
                    "internalType": "bool",
                    "name": "",
                    "type": "bool"
                }
            ],
            "stateMutability": "nonpayable",
            "type": "function"
        },
        {
            "inputs": [
                {
                    "components": [
                        {
                            "internalType": "enum SwapKind",
                            "name": "kind",
                            "type": "uint8"
                        },
                        {
                            "internalType": "uint256",
                            "name": "amountGivenScaled18",
                            "type": "uint256"
                        },
                        {
                            "internalType": "uint256[]",
                            "name": "balancesScaled18",
                            "type": "uint256[]"
                        },
                        {
                            "internalType": "uint256",
                            "name": "indexIn",
                            "type": "uint256"
                        },
                        {
                            "internalType": "uint256",
                            "name": "indexOut",
                            "type": "uint256"
                        },
                        {
                            "internalType": "address",
                            "name": "router",
                            "type": "address"
                        },
                        {
                            "internalType": "bytes",
                            "name": "userData",
                            "type": "bytes"
                        }
                    ],
                    "internalType": "struct PoolSwapParams",
                    "name": "",
                    "type": "tuple"
                },
                {
                    "internalType": "address",
                    "name": "",
                    "type": "address"
                }
            ],
            "name": "onBeforeSwap",
            "outputs": [
                {
                    "internalType": "bool",
                    "name": "",
                    "type": "bool"
                }
            ],
            "stateMutability": "nonpayable",
            "type": "function"
        },
        {
            "inputs": [
                {
                    "components": [
                        {
                            "internalType": "enum SwapKind",
                            "name": "kind",
                            "type": "uint8"
                        },
                        {
                            "internalType": "uint256",
                            "name": "amountGivenScaled18",
                            "type": "uint256"
                        },
                        {
                            "internalType": "uint256[]",
                            "name": "balancesScaled18",
                            "type": "uint256[]"
                        },
                        {
                            "internalType": "uint256",
                            "name": "indexIn",
                            "type": "uint256"
                        },
                        {
                            "internalType": "uint256",
                            "name": "indexOut",
                            "type": "uint256"
                        },
                        {
                            "internalType": "address",
                            "name": "router",
                            "type": "address"
                        },
                        {
                            "internalType": "bytes",
                            "name": "userData",
                            "type": "bytes"
                        }
                    ],
                    "internalType": "struct PoolSwapParams",
                    "name": "",
                    "type": "tuple"
                },
                {
                    "internalType": "address",
                    "name": "",
                    "type": "address"
                },
                {
                    "internalType": "uint256",
                    "name": "",
                    "type": "uint256"
                }
            ],
            "name": "onComputeDynamicSwapFeePercentage",
            "outputs": [
                {
                    "internalType": "bool",
                    "name": "",
                    "type": "bool"
                },
                {
                    "internalType": "uint256",
                    "name": "",
                    "type": "uint256"
                }
            ],
            "stateMutability": "view",
            "type": "function"
        },
        {
            "inputs": [
                {
                    "internalType": "address",
                    "name": "factory",
                    "type": "address"
                },
                {
                    "internalType": "address",
                    "name": "pool",
                    "type": "address"
                },
                {
                    "components": [
                        {
                            "internalType": "contract IERC20",
                            "name": "token",
                            "type": "address"
                        },
                        {
                            "internalType": "enum TokenType",
                            "name": "tokenType",
                            "type": "uint8"
                        },
                        {
                            "internalType": "contract IRateProvider",
                            "name": "rateProvider",
                            "type": "address"
                        },
                        {
                            "internalType": "bool",
                            "name": "paysYieldFees",
                            "type": "bool"
                        }
                    ],
                    "internalType": "struct TokenConfig[]",
                    "name": "",
                    "type": "tuple[]"
                },
                {
                    "components": [
                        {
                            "internalType": "bool",
                            "name": "disableUnbalancedLiquidity",
                            "type": "bool"
                        },
                        {
                            "internalType": "bool",
                            "name": "enableAddLiquidityCustom",
                            "type": "bool"
                        },
                        {
                            "internalType": "bool",
                            "name": "enableRemoveLiquidityCustom",
                            "type": "bool"
                        },
                        {
                            "internalType": "bool",
                            "name": "enableDonation",
                            "type": "bool"
                        }
                    ],
                    "internalType": "struct LiquidityManagement",
                    "name": "",
                    "type": "tuple"
                }
            ],
            "name": "onRegister",
            "outputs": [
                {
                    "internalType": "bool",
                    "name": "",
                    "type": "bool"
                }
            ],
            "stateMutability": "nonpayable",
            "type": "function"
        },
        {
            "inputs": [],
            "name": "owner",
            "outputs": [
                {
                    "internalType": "address",
                    "name": "",
                    "type": "address"
                }
            ],
            "stateMutability": "view",
            "type": "function"
        },
        {
            "inputs": [],
            "name": "renounceOwnership",
            "outputs": [],
            "stateMutability": "nonpayable",
            "type": "function"
        },
        {
            "inputs": [
                {
                    "components": [
                        {
                            "internalType": "uint256",
                            "name": "mediumLiquidityAmountTrigger",
                            "type": "uint256"
                        },
                        {
                            "internalType": "uint256",
                            "name": "higherLiquidityAmountTrigger",
                            "type": "uint256"
                        },
                        {
                            "internalType": "uint256",
                            "name": "mediumLiquidityAmountRewardFee",
                            "type": "uint256"
                        },
                        {
                            "internalType": "uint256",
                            "name": "higherLiquidityAmountRewardFee",
                            "type": "uint256"
                        }
                    ],
                    "internalType": "struct LPIncentivizedHook.AmountBaseLiquidityParameters",
                    "name": "_amountBaseLiquidityParameters",
                    "type": "tuple"
                }
            ],
            "name": "setAmountBaseLiquidityParameters",
            "outputs": [],
            "stateMutability": "nonpayable",
            "type": "function"
        },
        {
            "inputs": [
                {
                    "components": [
                        {
                            "internalType": "uint256",
                            "name": "mediumLiquidityTimeTrigger",
                            "type": "uint256"
                        },
                        {
                            "internalType": "uint256",
                            "name": "higherLiquidityTimeTrigger",
                            "type": "uint256"
                        },
                        {
                            "internalType": "uint256",
                            "name": "mediumLiquidityTimeRewardFee",
                            "type": "uint256"
                        },
                        {
                            "internalType": "uint256",
                            "name": "higherLiquidityTimeRewardFee",
                            "type": "uint256"
                        }
                    ],
                    "internalType": "struct LPIncentivizedHook.TimeBaseLiquidityParameters",
                    "name": "_timeBaseLiquidityParameters",
                    "type": "tuple"
                }
            ],
            "name": "setTimeBaseLiquidityParameters",
            "outputs": [],
            "stateMutability": "nonpayable",
            "type": "function"
        },
        {
            "inputs": [
                {
                    "internalType": "address",
                    "name": "newOwner",
                    "type": "address"
                }
            ],
            "name": "transferOwnership",
            "outputs": [],
            "stateMutability": "nonpayable",
            "type": "function"
        }
    ],
    "bytecode": "610100604052346101a85760405161128c38819003601f8101601f191683016001600160401b03811184821017610194578392829160405283398101039060c082126101a8578051906001600160a01b03821682036101a857610064602082016101ac565b92610071604083016101ac565b906040610080606085016101ac565b91607f1901126101a85760408051939084016001600160401b03811185821017610194576100c29160a0916040526100ba608082016101c0565b8652016101c0565b93602084019485526080523315610181575f8054336001600160a01b0319821681178355604051979290916001600160a01b0316907f8be0079c531659141344cd1fd0a4f28419497f9722a3daafe3b4186f6b6457e09080a360a05260c05260018060a01b031660e0525115159060ff61ff006001549251151560081b1692169061ffff191617176001556110be90816101ce8239608051818181610dcd0152610f8f015260a05181610a28015260c05181610d57015260e051815050f35b631e4fbdf760e01b5f525f60045260245ffd5b634e487b7160e01b5f52604160045260245ffd5b5f80fd5b51906001600160a01b03821682036101a857565b519081151582036101a85756fe6080806040526004361015610012575f80fd5b5f3560e01c90816308a13d6a14610b5e575080630b89f1821461095a57806318b6eb55146109195780631c149e28146108c95780632754888d146107d157806338be241d1461078157806345421ec7146107345780635211fa77146106fb5780636683635f1461064d5780636c55c7471461061f578063715018a6146105c85780638da5cb5b146105a1578063976907cc14610495578063a0e8f5ac1461044c578063b389771d146103e3578063ba5f9f401461034b578063c9e6e6ca14610312578063d77153a71461022e578063ec93c2d2146101815763f2fde38b146100f8575f80fd5b3461017d57602036600319011261017d57610111610b94565b610119610fd2565b6001600160a01b0316801561016a575f80546001600160a01b03198116831782556001600160a01b0316907f8be0079c531659141344cd1fd0a4f28419497f9722a3daafe3b4186f6b6457e09080a3005b631e4fbdf760e01b5f525f60045260245ffd5b5f80fd5b3461017d57608036600319011261017d5761019b36610cc5565b6101a3610fd2565b60ff60015416156101cc5780516002556020810151600355604081015160045560600151600555005b60405162461bcd60e51b815260206004820152603460248201527f416d6f756e7420426173652052657761726473206973206e6f7420636f6e666960448201527333bab932b2103337b9103a3434b9902437b7b59760611b6064820152608490fd5b3461017d575f36600319011261017d576040516101408101908082106001600160401b038311176102fe57610140916040525f815260208101905f825260408101905f8252606081015f8152608082015f815260a083015f815260c08401915f835260e08501936101206101008701965f885201966001865260018852604051985f8a5251151560208a015251151560408901525115156060880152511515608087015251151560a086015251151560c085015251151560e0840152511515610100830152511515610120820152f35b634e487b7160e01b5f52604160045260245ffd5b3461017d575f36600319011261017d57600254600354600454600554604080519485526020850193909352918301526060820152608090f35b3461017d5760e036600319011261017d57610364610b94565b5061036d610baa565b506004604435101561017d576084356001600160401b03811161017d57610398903690600401610c13565b5060a4356001600160401b03811161017d576103b8903690600401610c13565b5060c4356001600160401b03811161017d576103d8903690600401610c70565b5060206040515f8152f35b3461017d57604036600319011261017d576103fc610b94565b610404610baa565b9060018060a01b03165f52600a60205260405f209060018060a01b03165f52602052606060405f20805490600260018201549101549060405192835260208301526040820152f35b3461017d57606036600319011261017d576004356001600160401b03811161017d5760e090600319903603011261017d57610485610baa565b50604080515f8082526020820152f35b3461017d5761010036600319011261017d576104af610b94565b6104b7610baa565b6005604435101561017d576064356001600160401b03811161017d576104e1903690600401610c13565b506084356001600160401b03811161017d57610501903690600401610c13565b9060c4356001600160401b03811161017d57610521903690600401610c13565b5060e435926001600160401b03841161017d57610545610553943690600401610c70565b5061054e610f8d565b610d46565b906040519182916040830190151583526040602084015281518091526020606084019201905f5b818110610588575050500390f35b825184528594506020938401939092019160010161057a565b3461017d575f36600319011261017d575f546040516001600160a01b039091168152602090f35b3461017d575f36600319011261017d576105e0610fd2565b5f80546001600160a01b0319811682556001600160a01b03167f8be0079c531659141344cd1fd0a4f28419497f9722a3daafe3b4186f6b6457e08280a3005b3461017d575f36600319011261017d57604060015460ff8251918181161515835260081c1615156020820152f35b3461017d57608036600319011261017d5761066736610cc5565b61066f610fd2565b60ff60015460081c161561069b5780516006556020810151600755604081015160085560600151600955005b60405162461bcd60e51b815260206004820152603260248201527f54696d6520426173652052657761726473206973206e6f7420636f6e666967756044820152713932b2103337b9103a3434b9902437b7b59760711b6064820152608490fd5b3461017d57604036600319011261017d576004356001600160401b03811161017d5760e090600319903603011261017d576103d8610baa565b3461017d5760e036600319011261017d5761074d610b94565b50610756610baa565b506005604435101561017d576064356001600160401b03811161017d57610398903690600401610c13565b3461017d57606036600319011261017d576004356001600160401b03811161017d576107b1903690600401610c13565b506044356001600160401b03811161017d576103d8903690600401610c70565b3461017d5761010036600319011261017d576107eb610b94565b506107f4610baa565b506004604435101561017d576084356001600160401b03811161017d5761081f903690600401610c13565b5060a4356001600160401b03811161017d5761083f903690600401610c13565b60c4356001600160401b03811161017d5761085e903690600401610c13565b5060e4356001600160401b03811161017d5761087e903690600401610c70565b506040518091604082015f83526040602084015281518091526020606084019201905f5b8181106108b0575050500390f35b82518452859450602093840193909201916001016108a2565b3461017d57604036600319011261017d576004356001600160401b03811161017d576108f9903690600401610c13565b506024356001600160401b03811161017d576103d8903690600401610c70565b3461017d57602036600319011261017d576004356001600160401b03811161017d5761018090600319903603011261017d57604080515f8082526020820152f35b3461017d5760e036600319011261017d57610973610b94565b61097b610baa565b906044356001600160401b03811161017d573660238201121561017d57806004013590602460206109ab84610bfc565b6109b86040519182610bdb565b848152019260071b8201019036821161017d57602401915b818310610ae157505050608060631936011261017d576109ee610f8d565b604051916001600160a01b0390811691168181307fcbd5d637d0dd0263537ef5c2432253bd1a309fc20240914e09aabaf6325231b45f80a47f00000000000000000000000000000000000000000000000000000000000000006001600160a01b031681149182610a66575b6020836040519015158152f35b636634b75360e01b8452600484015260209150829060249082905afa8015610ad6575f90610a9a575b602091508280610a59565b506020813d602011610ace575b81610ab460209383610bdb565b8101031261017d5751801515810361017d57602090610a8f565b3d9150610aa7565b6040513d5f823e3d90fd5b60808336031261017d5760405190610af882610bc0565b83356001600160a01b038116810361017d5782526020840135600281101561017d57602083015260408401356001600160a01b038116810361017d576040830152606084013590811515820361017d5782602092606060809501528152019201916109d0565b3461017d575f36600319011261017d57600654600754600854600954928452602084019190915260408301526060820152608090f35b600435906001600160a01b038216820361017d57565b602435906001600160a01b038216820361017d57565b608081019081106001600160401b038211176102fe57604052565b90601f801991011681019081106001600160401b038211176102fe57604052565b6001600160401b0381116102fe5760051b60200190565b9080601f8301121561017d578135610c2a81610bfc565b92610c386040519485610bdb565b81845260208085019260051b82010192831161017d57602001905b828210610c605750505090565b8135815260209182019101610c53565b81601f8201121561017d578035906001600160401b0382116102fe5760405192610ca4601f8401601f191660200185610bdb565b8284526020838301011161017d57815f926020809301838601378301015290565b608090600319011261017d5760405190610cde82610bc0565b6004358252602435602083015260443560408301526064356060830152565b8051821015610d115760209160051b010190565b634e487b7160e01b5f52603260045260245ffd5b91908201809211610d3257565b634e487b7160e01b5f52601160045260245ffd5b9192916001600160a01b03908116907f0000000000000000000000000000000000000000000000000000000000000000168103610f8657602060049160405192838092632f00f5ad60e11b82525afa908115610ad6575f91610f44575b5060405163ca4f280360e01b81526001600160a01b039283166004820152915f90839060249082907f0000000000000000000000000000000000000000000000000000000000000000165afa918215610ad6575f92610ea1575b505f91825b8551841015610e9757610e85600191610e1b8689610cfd565b51838060a01b0386165f52600a60205260405f20848060a01b03610e3f8988610cfd565b5116858060a01b03165f52602052610e6260405f209182548015610e8d57610d25565b9055610e7f838060a01b03610e778887610cfd565b511686610ff8565b90610d25565b930192610e02565b4287850155610d25565b5050505060019190565b9091503d805f833e610eb38183610bdb565b81019060208183031261017d578051906001600160401b03821161017d57019080601f8301121561017d57815190610eea82610bfc565b92610ef86040519485610bdb565b82845260208085019360051b82010191821161017d57602001915b818310610f2457505050905f610dfd565b82516001600160a01b038116810361017d57815260209283019201610f13565b90506020813d602011610f7e575b81610f5f60209383610bdb565b8101031261017d57516001600160a01b038116810361017d575f610da3565b3d9150610f52565b50505f9190565b7f00000000000000000000000000000000000000000000000000000000000000006001600160a01b03163303610fbf57565b63089676d560e01b5f523360045260245ffd5b5f546001600160a01b03163303610fe557565b63118cdaa760e01b5f523360045260245ffd5b60ff60015416156110825760018060a01b03165f52600a60205260405f209060018060a01b03165f5260205260405f20604051606081018181106001600160401b038211176102fe576040526040600283549384845260018101546020850152015491015260035481115f1461106f575060055490565b600254101561107e5760045490565b5f90565b50505f9056fea2646970667358221220d1a194580747f948aa68dfadb2d073ae9d6c58ba71129ac634f6fba9daee73ba64736f6c634300081b0033",
    "sourcePath": "e:/Blockchain/scaffold-balancer-v3/packages/foundry/contracts/hooks/LPIncentivizedHook.sol",
    "compiler": {
        "name": "solc",
        "version": "0.8.27+commit.40a35a09"
    },
    "functionHashes": {
        "activeAmountBaseLiquidityParameters()": "c9e6e6ca",
        "activeIncentiveFactor()": "6c55c747",
        "activeTimeBaseLiquidityParameters()": "08a13d6a",
        "getHookFlags()": "d77153a7",
        "lpInfos(address,address)": "b389771d",
        "onAfterAddLiquidity(address,address,uint8,uint256[],uint256[],uint256,uint256[],bytes)": "976907cc",
        "onAfterInitialize(uint256[],uint256,bytes)": "38be241d",
        "onAfterRemoveLiquidity(address,address,uint8,uint256,uint256[],uint256[],uint256[],bytes)": "2754888d",
        "onAfterSwap((uint8,address,address,uint256,uint256,uint256,uint256,uint256,uint256,address,address,bytes))": "18b6eb55",
        "onBeforeAddLiquidity(address,address,uint8,uint256[],uint256,uint256[],bytes)": "45421ec7",
        "onBeforeInitialize(uint256[],bytes)": "1c149e28",
        "onBeforeRemoveLiquidity(address,address,uint8,uint256,uint256[],uint256[],bytes)": "ba5f9f40",
        "onBeforeSwap((uint8,uint256,uint256[],uint256,uint256,address,bytes),address)": "5211fa77",
        "onComputeDynamicSwapFeePercentage((uint8,uint256,uint256[],uint256,uint256,address,bytes),address,uint256)": "a0e8f5ac",
        "onRegister(address,address,(address,uint8,address,bool)[],(bool,bool,bool,bool))": "0b89f182",
        "owner()": "8da5cb5b",
        "renounceOwnership()": "715018a6",
        "setAmountBaseLiquidityParameters((uint256,uint256,uint256,uint256))": "ec93c2d2",
        "setTimeBaseLiquidityParameters((uint256,uint256,uint256,uint256))": "6683635f",
        "transferOwnership(address)": "f2fde38b"
    },
    "gasEstimates": {
        "creation": {
            "codeDepositCost": "857200",
            "executionCost": "infinite",
            "totalCost": "infinite"
        },
        "external": {
            "activeAmountBaseLiquidityParameters()": "8977",
            "activeIncentiveFactor()": "2502",
            "activeTimeBaseLiquidityParameters()": "8614",
            "getHookFlags()": "1027",
            "lpInfos(address,address)": "7126",
            "onAfterAddLiquidity(address,address,uint8,uint256[],uint256[],uint256,uint256[],bytes)": "infinite",
            "onAfterInitialize(uint256[],uint256,bytes)": "infinite",
            "onAfterRemoveLiquidity(address,address,uint8,uint256,uint256[],uint256[],uint256[],bytes)": "infinite",
            "onAfterSwap((uint8,address,address,uint256,uint256,uint256,uint256,uint256,uint256,address,address,bytes))": "294",
            "onBeforeAddLiquidity(address,address,uint8,uint256[],uint256,uint256[],bytes)": "infinite",
            "onBeforeInitialize(uint256[],bytes)": "infinite",
            "onBeforeRemoveLiquidity(address,address,uint8,uint256,uint256[],uint256[],bytes)": "infinite",
            "onBeforeSwap((uint8,uint256,uint256[],uint256,uint256,address,bytes),address)": "461",
            "onComputeDynamicSwapFeePercentage((uint8,uint256,uint256[],uint256,uint256,address,bytes),address,uint256)": "611",
            "onRegister(address,address,(address,uint8,address,bool)[],(bool,bool,bool,bool))": "infinite",
            "owner()": "2521",
            "renounceOwnership()": "28270",
            "setAmountBaseLiquidityParameters((uint256,uint256,uint256,uint256))": "93499",
            "setTimeBaseLiquidityParameters((uint256,uint256,uint256,uint256))": "93285",
            "transferOwnership(address)": "28585"
        },
        "internal": {
            "_calculateAmountBaseRewards(address,contract IERC20)": "infinite",
            "_calculateTimeBaseRewards(address,contract IERC20)": "infinite"
        }
    }
}