{"abi":[{"type":"constructor","inputs":[{"name":"underlyingToken","type":"address","internalType":"contract IERC20"},{"name":"tokenName","type":"string","internalType":"string"},{"name":"tokenSymbol","type":"string","internalType":"string"},{"name":"tokenDecimals","type":"uint8","internalType":"uint8"}],"stateMutability":"nonpayable"},{"type":"function","name":"allowance","inputs":[{"name":"owner","type":"address","internalType":"address"},{"name":"spender","type":"address","internalType":"address"}],"outputs":[{"name":"","type":"uint256","internalType":"uint256"}],"stateMutability":"view"},{"type":"function","name":"approve","inputs":[{"name":"spender","type":"address","internalType":"address"},{"name":"value","type":"uint256","internalType":"uint256"}],"outputs":[{"name":"","type":"bool","internalType":"bool"}],"stateMutability":"nonpayable"},{"type":"function","name":"asset","inputs":[],"outputs":[{"name":"","type":"address","internalType":"address"}],"stateMutability":"view"},{"type":"function","name":"balanceOf","inputs":[{"name":"account","type":"address","internalType":"address"}],"outputs":[{"name":"","type":"uint256","internalType":"uint256"}],"stateMutability":"view"},{"type":"function","name":"convertToAssets","inputs":[{"name":"shares","type":"uint256","internalType":"uint256"}],"outputs":[{"name":"","type":"uint256","internalType":"uint256"}],"stateMutability":"view"},{"type":"function","name":"convertToShares","inputs":[{"name":"assets","type":"uint256","internalType":"uint256"}],"outputs":[{"name":"","type":"uint256","internalType":"uint256"}],"stateMutability":"view"},{"type":"function","name":"decimals","inputs":[],"outputs":[{"name":"","type":"uint8","internalType":"uint8"}],"stateMutability":"view"},{"type":"function","name":"deposit","inputs":[{"name":"assets","type":"uint256","internalType":"uint256"},{"name":"receiver","type":"address","internalType":"address"}],"outputs":[{"name":"","type":"uint256","internalType":"uint256"}],"stateMutability":"nonpayable"},{"type":"function","name":"getRate","inputs":[],"outputs":[{"name":"","type":"uint256","internalType":"uint256"}],"stateMutability":"view"},{"type":"function","name":"inflateUnderlyingOrWrapped","inputs":[{"name":"underlyingDelta","type":"uint256","internalType":"uint256"},{"name":"wrappedDelta","type":"uint256","internalType":"uint256"}],"outputs":[],"stateMutability":"nonpayable"},{"type":"function","name":"maxDeposit","inputs":[{"name":"","type":"address","internalType":"address"}],"outputs":[{"name":"","type":"uint256","internalType":"uint256"}],"stateMutability":"view"},{"type":"function","name":"maxMint","inputs":[{"name":"","type":"address","internalType":"address"}],"outputs":[{"name":"","type":"uint256","internalType":"uint256"}],"stateMutability":"view"},{"type":"function","name":"maxRedeem","inputs":[{"name":"owner","type":"address","internalType":"address"}],"outputs":[{"name":"","type":"uint256","internalType":"uint256"}],"stateMutability":"view"},{"type":"function","name":"maxWithdraw","inputs":[{"name":"owner","type":"address","internalType":"address"}],"outputs":[{"name":"","type":"uint256","internalType":"uint256"}],"stateMutability":"view"},{"type":"function","name":"mint","inputs":[{"name":"shares","type":"uint256","internalType":"uint256"},{"name":"receiver","type":"address","internalType":"address"}],"outputs":[{"name":"","type":"uint256","internalType":"uint256"}],"stateMutability":"nonpayable"},{"type":"function","name":"mockRate","inputs":[{"name":"newRate","type":"uint256","internalType":"uint256"}],"outputs":[],"stateMutability":"nonpayable"},{"type":"function","name":"name","inputs":[],"outputs":[{"name":"","type":"string","internalType":"string"}],"stateMutability":"view"},{"type":"function","name":"previewDeposit","inputs":[{"name":"assets","type":"uint256","internalType":"uint256"}],"outputs":[{"name":"","type":"uint256","internalType":"uint256"}],"stateMutability":"view"},{"type":"function","name":"previewMint","inputs":[{"name":"shares","type":"uint256","internalType":"uint256"}],"outputs":[{"name":"","type":"uint256","internalType":"uint256"}],"stateMutability":"view"},{"type":"function","name":"previewRedeem","inputs":[{"name":"shares","type":"uint256","internalType":"uint256"}],"outputs":[{"name":"","type":"uint256","internalType":"uint256"}],"stateMutability":"view"},{"type":"function","name":"previewWithdraw","inputs":[{"name":"assets","type":"uint256","internalType":"uint256"}],"outputs":[{"name":"","type":"uint256","internalType":"uint256"}],"stateMutability":"view"},{"type":"function","name":"redeem","inputs":[{"name":"shares","type":"uint256","internalType":"uint256"},{"name":"receiver","type":"address","internalType":"address"},{"name":"owner","type":"address","internalType":"address"}],"outputs":[{"name":"","type":"uint256","internalType":"uint256"}],"stateMutability":"nonpayable"},{"type":"function","name":"setAsset","inputs":[{"name":"newBaseToken","type":"address","internalType":"contract IERC20"}],"outputs":[],"stateMutability":"nonpayable"},{"type":"function","name":"setMaliciousWrapper","inputs":[{"name":"value","type":"bool","internalType":"bool"}],"outputs":[],"stateMutability":"nonpayable"},{"type":"function","name":"symbol","inputs":[],"outputs":[{"name":"","type":"string","internalType":"string"}],"stateMutability":"view"},{"type":"function","name":"totalAssets","inputs":[],"outputs":[{"name":"","type":"uint256","internalType":"uint256"}],"stateMutability":"view"},{"type":"function","name":"totalSupply","inputs":[],"outputs":[{"name":"","type":"uint256","internalType":"uint256"}],"stateMutability":"view"},{"type":"function","name":"transfer","inputs":[{"name":"to","type":"address","internalType":"address"},{"name":"value","type":"uint256","internalType":"uint256"}],"outputs":[{"name":"","type":"bool","internalType":"bool"}],"stateMutability":"nonpayable"},{"type":"function","name":"transferFrom","inputs":[{"name":"from","type":"address","internalType":"address"},{"name":"to","type":"address","internalType":"address"},{"name":"value","type":"uint256","internalType":"uint256"}],"outputs":[{"name":"","type":"bool","internalType":"bool"}],"stateMutability":"nonpayable"},{"type":"function","name":"withdraw","inputs":[{"name":"assets","type":"uint256","internalType":"uint256"},{"name":"receiver","type":"address","internalType":"address"},{"name":"owner","type":"address","internalType":"address"}],"outputs":[{"name":"","type":"uint256","internalType":"uint256"}],"stateMutability":"nonpayable"},{"type":"event","name":"Approval","inputs":[{"name":"owner","type":"address","indexed":true,"internalType":"address"},{"name":"spender","type":"address","indexed":true,"internalType":"address"},{"name":"value","type":"uint256","indexed":false,"internalType":"uint256"}],"anonymous":false},{"type":"event","name":"Deposit","inputs":[{"name":"sender","type":"address","indexed":true,"internalType":"address"},{"name":"owner","type":"address","indexed":true,"internalType":"address"},{"name":"assets","type":"uint256","indexed":false,"internalType":"uint256"},{"name":"shares","type":"uint256","indexed":false,"internalType":"uint256"}],"anonymous":false},{"type":"event","name":"Transfer","inputs":[{"name":"from","type":"address","indexed":true,"internalType":"address"},{"name":"to","type":"address","indexed":true,"internalType":"address"},{"name":"value","type":"uint256","indexed":false,"internalType":"uint256"}],"anonymous":false},{"type":"event","name":"Withdraw","inputs":[{"name":"sender","type":"address","indexed":true,"internalType":"address"},{"name":"receiver","type":"address","indexed":true,"internalType":"address"},{"name":"owner","type":"address","indexed":true,"internalType":"address"},{"name":"assets","type":"uint256","indexed":false,"internalType":"uint256"},{"name":"shares","type":"uint256","indexed":false,"internalType":"uint256"}],"anonymous":false},{"type":"error","name":"ERC20InsufficientAllowance","inputs":[{"name":"spender","type":"address","internalType":"address"},{"name":"allowance","type":"uint256","internalType":"uint256"},{"name":"needed","type":"uint256","internalType":"uint256"}]},{"type":"error","name":"ERC20InsufficientBalance","inputs":[{"name":"sender","type":"address","internalType":"address"},{"name":"balance","type":"uint256","internalType":"uint256"},{"name":"needed","type":"uint256","internalType":"uint256"}]},{"type":"error","name":"ERC20InvalidApprover","inputs":[{"name":"approver","type":"address","internalType":"address"}]},{"type":"error","name":"ERC20InvalidReceiver","inputs":[{"name":"receiver","type":"address","internalType":"address"}]},{"type":"error","name":"ERC20InvalidSender","inputs":[{"name":"sender","type":"address","internalType":"address"}]},{"type":"error","name":"ERC20InvalidSpender","inputs":[{"name":"spender","type":"address","internalType":"address"}]},{"type":"error","name":"ERC4626ExceededMaxDeposit","inputs":[{"name":"receiver","type":"address","internalType":"address"},{"name":"assets","type":"uint256","internalType":"uint256"},{"name":"max","type":"uint256","internalType":"uint256"}]},{"type":"error","name":"ERC4626ExceededMaxMint","inputs":[{"name":"receiver","type":"address","internalType":"address"},{"name":"shares","type":"uint256","internalType":"uint256"},{"name":"max","type":"uint256","internalType":"uint256"}]},{"type":"error","name":"ERC4626ExceededMaxRedeem","inputs":[{"name":"owner","type":"address","internalType":"address"},{"name":"shares","type":"uint256","internalType":"uint256"},{"name":"max","type":"uint256","internalType":"uint256"}]},{"type":"error","name":"ERC4626ExceededMaxWithdraw","inputs":[{"name":"owner","type":"address","internalType":"address"},{"name":"assets","type":"uint256","internalType":"uint256"},{"name":"max","type":"uint256","internalType":"uint256"}]},{"type":"error","name":"SafeERC20FailedOperation","inputs":[{"name":"token","type":"address","internalType":"address"}]}],"bytecode":{"object":"0x60e060405234801562000010575f80fd5b5060405162001ace38038062001ace833981016040819052620000339162000263565b83838360036200004483826200038a565b5060046200005382826200038a565b5050505f806200006983620000be60201b60201c565b91509150816200007b5760126200007d565b805b60ff90811660a0526001600160a01b039384166080529390931660c05250600580546001600160a01b0319169590911694909417909355506200048b915050565b60408051600481526024810182526020810180516001600160e01b031663313ce56760e01b17905290515f918291829182916001600160a01b03871691620001069162000456565b5f60405180830381855afa9150503d805f811462000140576040519150601f19603f3d011682016040523d82523d5f602084013e62000145565b606091505b50915091508180156200015a57506020815110155b1562000191575f8180602001905181019062000177919062000473565b905060ff81116200018f576001969095509350505050565b505b505f9485945092505050565b634e487b7160e01b5f52604160045260245ffd5b5f5b83811015620001cd578181015183820152602001620001b3565b50505f910152565b5f82601f830112620001e5575f80fd5b81516001600160401b03808211156200020257620002026200019d565b604051601f8301601f19908116603f011681019082821181831017156200022d576200022d6200019d565b8160405283815286602085880101111562000246575f80fd5b62000259846020830160208901620001b1565b9695505050505050565b5f805f806080858703121562000277575f80fd5b84516001600160a01b03811681146200028e575f80fd5b60208601519094506001600160401b0380821115620002ab575f80fd5b620002b988838901620001d5565b94506040870151915080821115620002cf575f80fd5b50620002de87828801620001d5565b925050606085015160ff81168114620002f5575f80fd5b939692955090935050565b600181811c908216806200031557607f821691505b6020821081036200033457634e487b7160e01b5f52602260045260245ffd5b50919050565b601f8211156200038557805f5260205f20601f840160051c81016020851015620003615750805b601f840160051c820191505b8181101562000382575f81556001016200036d565b50505b505050565b81516001600160401b03811115620003a657620003a66200019d565b620003be81620003b7845462000300565b846200033a565b602080601f831160018114620003f4575f8415620003dc5750858301515b5f19600386901b1c1916600185901b1785556200044e565b5f85815260208120601f198616915b82811015620004245788860151825594840194600190910190840162000403565b50858210156200044257878501515f19600388901b60f8161c191681555b505060018460011b0185555b505050505050565b5f825162000469818460208701620001b1565b9190910192915050565b5f6020828403121562000484575f80fd5b5051919050565b60805160a05160c05161161e620004b05f395f61027001525f50505f505061161e5ff3fe608060405234801561000f575f80fd5b50600436106101d1575f3560e01c806370a08231116100fe578063ba0876521161009e578063d0d552dd1161006e578063d0d552dd1461041b578063d905777e14610463578063dd62ed3e14610476578063ef8b30f7146103f5575f80fd5b8063ba087652146103e2578063c63d75b6146102b5578063c6e6f592146103f5578063ce96cb7714610408575f80fd5b8063a1cfa041116100d9578063a1cfa04114610396578063a9059cbb146103a9578063b3d7f6b9146103bc578063b460af94146103cf575f80fd5b806370a082311461035357806394bf804d1461037b57806395d89b411461038e575f80fd5b8063313ce567116101745780635c351359116101445780635c351359146102dc57806365c8697c146102f1578063679aefce146103385780636e553f6514610340575f80fd5b8063313ce5671461026957806338d52e0f1461029a578063402d267d146102b55780634cdad506146102c9575f80fd5b8063095ea7b3116101af578063095ea7b3146102185780630a28a4771461023b57806318160ddd1461024e57806323b872dd14610256575f80fd5b806301e1d114146101d557806306fdde03146101f057806307a2d13a14610205575b5f80fd5b6101dd6104ae565b6040519081526020015b60405180910390f35b6101f861051d565b6040516101e79190611229565b6101dd610213366004611275565b6105ad565b61022b6102263660046112a3565b61063a565b60405190151581526020016101e7565b6101dd610249366004611275565b610651565b6002546101dd565b61022b6102643660046112cd565b61065d565b60405160ff7f00000000000000000000000000000000000000000000000000000000000000001681526020016101e7565b6005546040516001600160a01b0390911681526020016101e7565b6101dd6102c336600461130b565b505f1990565b6101dd6102d7366004611275565b610682565b6102ef6102ea366004611326565b61068d565b005b6102ef6102ff366004611346565b60058054911515600160a01b027fffffffffffffffffffffff00ffffffffffffffffffffffffffffffffffffffff909216919091179055565b6101dd610720565b6101dd61034e366004611365565b610733565b6101dd61036136600461130b565b6001600160a01b03165f9081526020819052604090205490565b6101dd610389366004611365565b61076e565b6101f861079f565b6102ef6103a4366004611275565b6107ae565b61022b6103b73660046112a3565b61098a565b6101dd6103ca366004611275565b610997565b6101dd6103dd366004611393565b6109a3565b6101dd6103f0366004611393565b610a25565b6101dd610403366004611275565b610a9e565b6101dd61041636600461130b565b610aa9565b6102ef61042936600461130b565b600580547fffffffffffffffffffffffff0000000000000000000000000000000000000000166001600160a01b0392909216919091179055565b6101dd61047136600461130b565b610acb565b6101dd6104843660046113d2565b6001600160a01b039182165f90815260016020908152604080832093909416825291909152205490565b6005546040516370a0823160e01b81523060048201525f916001600160a01b0316906370a0823190602401602060405180830381865afa1580156104f4573d5f803e3d5ffd5b505050506040513d601f19601f8201168201806040525081019061051891906113fe565b905090565b60606003805461052c90611415565b80601f016020809104026020016040519081016040528092919081815260200182805461055890611415565b80156105a35780601f1061057a576101008083540402835291602001916105a3565b820191905f5260205f20905b81548152906001019060200180831161058657829003601f168201915b5050505050905090565b6005545f90600160a01b900460ff1615610631576005546040516370a0823160e01b81523360048201526001600160a01b03909116906370a0823190602401602060405180830381865afa158015610607573d5f803e3d5ffd5b505050506040513d601f19601f8201168201806040525081019061062b91906113fe565b92915050565b61062b82610682565b5f33610647818585610ae8565b5060019392505050565b5f61062b826001610afa565b5f3361066a858285610b32565b610675858585610bc6565b60019150505b9392505050565b5f61062b825f610c23565b811561070c576005546040517f40c10f19000000000000000000000000000000000000000000000000000000008152306004820152602481018490526001600160a01b03909116906340c10f19906044015f604051808303815f87803b1580156106f5575f80fd5b505af1158015610707573d5f803e3d5ffd5b505050505b801561071c5761071c3082610c52565b5050565b5f610518670de0b6b3a76400005f610c23565b6005545f90600160a01b900460ff1615610764575f61075184610a9e565b905061075d8382610c52565b905061062b565b61067b8383610c86565b5f5f1961077f565b60405180910390fd5b5f61078985610997565b905061079733858388610c9d565b949350505050565b60606004805461052c90611415565b5f306001600160a01b03166318160ddd6040518163ffffffff1660e01b8152600401602060405180830381865afa1580156107eb573d5f803e3d5ffd5b505050506040513d601f19601f8201168201806040525081019061080f91906113fe565b90505f306001600160a01b03166301e1d1146040518163ffffffff1660e01b8152600401602060405180830381865afa15801561084e573d5f803e3d5ffd5b505050506040513d601f19601f8201168201806040525081019061087291906113fe565b90505f80306001600160a01b031663679aefce6040518163ffffffff1660e01b8152600401602060405180830381865afa1580156108b2573d5f803e3d5ffd5b505050506040513d601f19601f820116820180604052508101906108d691906113fe565b8510156108fc575f6108e88487610cbf565b90506108f48582611461565b915050610917565b5f6109078587610cdf565b90506109138482611461565b9250505b6040517f5c35135900000000000000000000000000000000000000000000000000000000815260048101839052602481018290523090635c351359906044015f604051808303815f87803b15801561096d575f80fd5b505af115801561097f573d5f803e3d5ffd5b505050505050505050565b5f33610647818585610bc6565b5f61062b826001610c23565b5f806109ae83610aa9565b905080851115610a03576040517ffe9cceec0000000000000000000000000000000000000000000000000000000081526001600160a01b03841660048201526024810186905260448101829052606401610776565b5f610a0d86610651565b9050610a1c3386868985610cff565b95945050505050565b5f80610a3083610acb565b905080851115610a85576040517fb94abeec0000000000000000000000000000000000000000000000000000000081526001600160a01b03841660048201526024810186905260448101829052606401610776565b5f610a8f86610682565b9050610a1c338686848a610cff565b5f61062b825f610afa565b6001600160a01b0381165f9081526020819052604081205461062b905f610c23565b6001600160a01b0381165f9081526020819052604081205461062b565b610af58383836001610d4b565b505050565b5f61067b610b0982600a611554565b600254610b169190611562565b610b1e6104ae565b610b29906001611562565b85919085610e4f565b6001600160a01b038381165f908152600160209081526040808320938616835292905220545f198114610bc05781811015610bb2576040517ffb8f41b20000000000000000000000000000000000000000000000000000000081526001600160a01b03841660048201526024810182905260448101839052606401610776565b610bc084848484035f610d4b565b50505050565b6001600160a01b038316610bef57604051634b637e8f60e11b81525f6004820152602401610776565b6001600160a01b038216610c185760405163ec442f0560e01b81525f6004820152602401610776565b610af5838383610e91565b5f61067b610c2f6104ae565b610c3a906001611562565b610c455f600a611554565b600254610b299190611562565b6001600160a01b038216610c7b5760405163ec442f0560e01b81525f6004820152602401610776565b61071c5f8383610e91565b5f5f195f610c9385610a9e565b9050610797338587845b600554610cb5906001600160a01b0316853085610fd0565b610bc08382610c52565b5f80610cd3670de0b6b3a764000085611575565b905061079783826115a0565b5f80610ceb8385611575565b9050610797670de0b6b3a7640000826115a0565b826001600160a01b0316856001600160a01b031614610d2357610d23838683610b32565b610d2d838261104c565b600554610d44906001600160a01b03168584611080565b5050505050565b6001600160a01b038416610d8d576040517fe602df050000000000000000000000000000000000000000000000000000000081525f6004820152602401610776565b6001600160a01b038316610dcf576040517f94280d620000000000000000000000000000000000000000000000000000000081525f6004820152602401610776565b6001600160a01b038085165f9081526001602090815260408083209387168352929052208290558015610bc057826001600160a01b0316846001600160a01b03167f8c5be1e5ebec7d5bd14f71427d1e84f3dd0314c0f7b2291e5b200ac8c7c3b92584604051610e4191815260200190565b60405180910390a350505050565b5f610e7c610e5c836110b1565b8015610e7757505f8480610e7257610e7261158c565b868809115b151590565b610e878686866110dd565b610a1c9190611562565b6001600160a01b038316610ebb578060025f828254610eb09190611562565b90915550610f449050565b6001600160a01b0383165f9081526020819052604090205481811015610f26576040517fe450d38c0000000000000000000000000000000000000000000000000000000081526001600160a01b03851660048201526024810182905260448101839052606401610776565b6001600160a01b0384165f9081526020819052604090209082900390555b6001600160a01b038216610f6057600280548290039055610f7e565b6001600160a01b0382165f9081526020819052604090208054820190555b816001600160a01b0316836001600160a01b03167fddf252ad1be2c89b69c2b068fc378daa952ba7f163c4a11628f55a4df523b3ef83604051610fc391815260200190565b60405180910390a3505050565b6040516001600160a01b038481166024830152838116604483015260648201839052610bc09186918216906323b872dd906084015b604051602081830303815290604052915060e01b6020820180517bffffffffffffffffffffffffffffffffffffffffffffffffffffffff8381831617835250505050611193565b6001600160a01b03821661107557604051634b637e8f60e11b81525f6004820152602401610776565b61071c825f83610e91565b6040516001600160a01b03838116602483015260448201839052610af591859182169063a9059cbb90606401611005565b5f60028260038111156110c6576110c66115b3565b6110d091906115c7565b60ff166001149050919050565b5f838302815f1985870982811083820303915050805f03611111578382816111075761110761158c565b049250505061067b565b808411611128576111286003851502601118611218565b5f848688095f868103871696879004966002600389028118808a02820302808a02820302808a02820302808a02820302808a02820302808a02909103029181900381900460010186841190950394909402919094039290920491909117919091029150509392505050565b5f8060205f8451602086015f885af1806111b2576040513d5f823e3d81fd5b50505f513d915081156111c95780600114156111d6565b6001600160a01b0384163b155b15610bc0576040517f5274afe70000000000000000000000000000000000000000000000000000000081526001600160a01b0385166004820152602401610776565b634e487b715f52806020526024601cfd5b5f602080835283518060208501525f5b8181101561125557858101830151858201604001528201611239565b505f604082860101526040601f19601f8301168501019250505092915050565b5f60208284031215611285575f80fd5b5035919050565b6001600160a01b03811681146112a0575f80fd5b50565b5f80604083850312156112b4575f80fd5b82356112bf8161128c565b946020939093013593505050565b5f805f606084860312156112df575f80fd5b83356112ea8161128c565b925060208401356112fa8161128c565b929592945050506040919091013590565b5f6020828403121561131b575f80fd5b813561067b8161128c565b5f8060408385031215611337575f80fd5b50508035926020909101359150565b5f60208284031215611356575f80fd5b8135801515811461067b575f80fd5b5f8060408385031215611376575f80fd5b8235915060208301356113888161128c565b809150509250929050565b5f805f606084860312156113a5575f80fd5b8335925060208401356113b78161128c565b915060408401356113c78161128c565b809150509250925092565b5f80604083850312156113e3575f80fd5b82356113ee8161128c565b915060208301356113888161128c565b5f6020828403121561140e575f80fd5b5051919050565b600181811c9082168061142957607f821691505b60208210810361144757634e487b7160e01b5f52602260045260245ffd5b50919050565b634e487b7160e01b5f52601160045260245ffd5b8181038181111561062b5761062b61144d565b600181815b808511156114ae57815f19048211156114945761149461144d565b808516156114a157918102915b93841c9390800290611479565b509250929050565b5f826114c45750600161062b565b816114d057505f61062b565b81600181146114e657600281146114f05761150c565b600191505061062b565b60ff8411156115015761150161144d565b50506001821b61062b565b5060208310610133831016604e8410600b841016171561152f575081810a61062b565b6115398383611474565b805f190482111561154c5761154c61144d565b029392505050565b5f61067b60ff8416836114b6565b8082018082111561062b5761062b61144d565b808202811582820484141761062b5761062b61144d565b634e487b7160e01b5f52601260045260245ffd5b5f826115ae576115ae61158c565b500490565b634e487b7160e01b5f52602160045260245ffd5b5f60ff8316806115d9576115d961158c565b8060ff8416069150509291505056fea2646970667358221220dfdc16815fe29326f3cd92a0b19589559c1dd6c8139873ea2709f449eeca9ca764736f6c63430008180033","linkReferences":{}},"methodIdentifiers":{"allowance(address,address)":"dd62ed3e","approve(address,uint256)":"095ea7b3","asset()":"38d52e0f","balanceOf(address)":"70a08231","convertToAssets(uint256)":"07a2d13a","convertToShares(uint256)":"c6e6f592","decimals()":"313ce567","deposit(uint256,address)":"6e553f65","getRate()":"679aefce","inflateUnderlyingOrWrapped(uint256,uint256)":"5c351359","maxDeposit(address)":"402d267d","maxMint(address)":"c63d75b6","maxRedeem(address)":"d905777e","maxWithdraw(address)":"ce96cb77","mint(uint256,address)":"94bf804d","mockRate(uint256)":"a1cfa041","name()":"06fdde03","previewDeposit(uint256)":"ef8b30f7","previewMint(uint256)":"b3d7f6b9","previewRedeem(uint256)":"4cdad506","previewWithdraw(uint256)":"0a28a477","redeem(uint256,address,address)":"ba087652","setAsset(address)":"d0d552dd","setMaliciousWrapper(bool)":"65c8697c","symbol()":"95d89b41","totalAssets()":"01e1d114","totalSupply()":"18160ddd","transfer(address,uint256)":"a9059cbb","transferFrom(address,address,uint256)":"23b872dd","withdraw(uint256,address,address)":"b460af94"},"id":76}