{"abi":[{"type":"constructor","inputs":[{"name":"vault","type":"address","internalType":"contract IVault"}],"stateMutability":"nonpayable"},{"type":"function","name":"allowance","inputs":[{"name":"token","type":"address","internalType":"address"},{"name":"owner","type":"address","internalType":"address"},{"name":"spender","type":"address","internalType":"address"}],"outputs":[{"name":"","type":"uint256","internalType":"uint256"}],"stateMutability":"view"},{"type":"function","name":"areBuffersPaused","inputs":[],"outputs":[{"name":"","type":"bool","internalType":"bool"}],"stateMutability":"view"},{"type":"function","name":"balanceOf","inputs":[{"name":"token","type":"address","internalType":"address"},{"name":"account","type":"address","internalType":"address"}],"outputs":[{"name":"","type":"uint256","internalType":"uint256"}],"stateMutability":"view"},{"type":"function","name":"collectAggregateFees","inputs":[{"name":"pool","type":"address","internalType":"address"}],"outputs":[],"stateMutability":"nonpayable"},{"type":"function","name":"computeDynamicSwapFeePercentage","inputs":[{"name":"pool","type":"address","internalType":"address"},{"name":"swapParams","type":"tuple","internalType":"struct PoolSwapParams","components":[{"name":"kind","type":"uint8","internalType":"enum SwapKind"},{"name":"amountGivenScaled18","type":"uint256","internalType":"uint256"},{"name":"balancesScaled18","type":"uint256[]","internalType":"uint256[]"},{"name":"indexIn","type":"uint256","internalType":"uint256"},{"name":"indexOut","type":"uint256","internalType":"uint256"},{"name":"router","type":"address","internalType":"address"},{"name":"userData","type":"bytes","internalType":"bytes"}]}],"outputs":[{"name":"dynamicSwapFee","type":"uint256","internalType":"uint256"}],"stateMutability":"view"},{"type":"function","name":"getAggregateFeePercentages","inputs":[{"name":"pool","type":"address","internalType":"address"}],"outputs":[{"name":"","type":"uint256","internalType":"uint256"},{"name":"","type":"uint256","internalType":"uint256"}],"stateMutability":"view"},{"type":"function","name":"getAggregateSwapFeeAmount","inputs":[{"name":"pool","type":"address","internalType":"address"},{"name":"token","type":"address","internalType":"contract IERC20"}],"outputs":[{"name":"","type":"uint256","internalType":"uint256"}],"stateMutability":"view"},{"type":"function","name":"getAggregateYieldFeeAmount","inputs":[{"name":"pool","type":"address","internalType":"address"},{"name":"token","type":"address","internalType":"contract IERC20"}],"outputs":[{"name":"","type":"uint256","internalType":"uint256"}],"stateMutability":"view"},{"type":"function","name":"getAuthorizer","inputs":[],"outputs":[{"name":"","type":"address","internalType":"address"}],"stateMutability":"view"},{"type":"function","name":"getBptRate","inputs":[{"name":"pool","type":"address","internalType":"address"}],"outputs":[{"name":"","type":"uint256","internalType":"uint256"}],"stateMutability":"view"},{"type":"function","name":"getBufferAsset","inputs":[{"name":"wrappedToken","type":"address","internalType":"contract IERC4626"}],"outputs":[{"name":"","type":"address","internalType":"address"}],"stateMutability":"view"},{"type":"function","name":"getBufferBalance","inputs":[{"name":"token","type":"address","internalType":"contract IERC4626"}],"outputs":[{"name":"","type":"uint256","internalType":"uint256"},{"name":"","type":"uint256","internalType":"uint256"}],"stateMutability":"view"},{"type":"function","name":"getBufferMinimumTotalSupply","inputs":[],"outputs":[{"name":"","type":"uint256","internalType":"uint256"}],"stateMutability":"view"},{"type":"function","name":"getBufferOwnerShares","inputs":[{"name":"token","type":"address","internalType":"contract IERC4626"},{"name":"user","type":"address","internalType":"address"}],"outputs":[{"name":"","type":"uint256","internalType":"uint256"}],"stateMutability":"view"},{"type":"function","name":"getBufferPeriodDuration","inputs":[],"outputs":[{"name":"","type":"uint32","internalType":"uint32"}],"stateMutability":"view"},{"type":"function","name":"getBufferPeriodEndTime","inputs":[],"outputs":[{"name":"","type":"uint32","internalType":"uint32"}],"stateMutability":"view"},{"type":"function","name":"getBufferTotalShares","inputs":[{"name":"token","type":"address","internalType":"contract IERC4626"}],"outputs":[{"name":"","type":"uint256","internalType":"uint256"}],"stateMutability":"view"},{"type":"function","name":"getCurrentLiveBalances","inputs":[{"name":"pool","type":"address","internalType":"address"}],"outputs":[{"name":"","type":"uint256[]","internalType":"uint256[]"}],"stateMutability":"view"},{"type":"function","name":"getHooksConfig","inputs":[{"name":"pool","type":"address","internalType":"address"}],"outputs":[{"name":"","type":"tuple","internalType":"struct HooksConfig","components":[{"name":"enableHookAdjustedAmounts","type":"bool","internalType":"bool"},{"name":"shouldCallBeforeInitialize","type":"bool","internalType":"bool"},{"name":"shouldCallAfterInitialize","type":"bool","internalType":"bool"},{"name":"shouldCallComputeDynamicSwapFee","type":"bool","internalType":"bool"},{"name":"shouldCallBeforeSwap","type":"bool","internalType":"bool"},{"name":"shouldCallAfterSwap","type":"bool","internalType":"bool"},{"name":"shouldCallBeforeAddLiquidity","type":"bool","internalType":"bool"},{"name":"shouldCallAfterAddLiquidity","type":"bool","internalType":"bool"},{"name":"shouldCallBeforeRemoveLiquidity","type":"bool","internalType":"bool"},{"name":"shouldCallAfterRemoveLiquidity","type":"bool","internalType":"bool"},{"name":"hooksContract","type":"address","internalType":"address"}]}],"stateMutability":"view"},{"type":"function","name":"getMaximumPoolTokens","inputs":[],"outputs":[{"name":"","type":"uint256","internalType":"uint256"}],"stateMutability":"view"},{"type":"function","name":"getMinimumPoolTokens","inputs":[],"outputs":[{"name":"","type":"uint256","internalType":"uint256"}],"stateMutability":"view"},{"type":"function","name":"getMinimumTradeAmount","inputs":[],"outputs":[{"name":"","type":"uint256","internalType":"uint256"}],"stateMutability":"view"},{"type":"function","name":"getMinimumWrapAmount","inputs":[],"outputs":[{"name":"","type":"uint256","internalType":"uint256"}],"stateMutability":"view"},{"type":"function","name":"getNonzeroDeltaCount","inputs":[],"outputs":[{"name":"","type":"uint256","internalType":"uint256"}],"stateMutability":"view"},{"type":"function","name":"getPauseWindowEndTime","inputs":[],"outputs":[{"name":"","type":"uint32","internalType":"uint32"}],"stateMutability":"view"},{"type":"function","name":"getPoolConfig","inputs":[{"name":"pool","type":"address","internalType":"address"}],"outputs":[{"name":"","type":"tuple","internalType":"struct PoolConfig","components":[{"name":"liquidityManagement","type":"tuple","internalType":"struct LiquidityManagement","components":[{"name":"disableUnbalancedLiquidity","type":"bool","internalType":"bool"},{"name":"enableAddLiquidityCustom","type":"bool","internalType":"bool"},{"name":"enableRemoveLiquidityCustom","type":"bool","internalType":"bool"},{"name":"enableDonation","type":"bool","internalType":"bool"}]},{"name":"staticSwapFeePercentage","type":"uint256","internalType":"uint256"},{"name":"aggregateSwapFeePercentage","type":"uint256","internalType":"uint256"},{"name":"aggregateYieldFeePercentage","type":"uint256","internalType":"uint256"},{"name":"tokenDecimalDiffs","type":"uint40","internalType":"uint40"},{"name":"pauseWindowEndTime","type":"uint32","internalType":"uint32"},{"name":"isPoolRegistered","type":"bool","internalType":"bool"},{"name":"isPoolInitialized","type":"bool","internalType":"bool"},{"name":"isPoolPaused","type":"bool","internalType":"bool"},{"name":"isPoolInRecoveryMode","type":"bool","internalType":"bool"}]}],"stateMutability":"view"},{"type":"function","name":"getPoolData","inputs":[{"name":"pool","type":"address","internalType":"address"}],"outputs":[{"name":"","type":"tuple","internalType":"struct PoolData","components":[{"name":"poolConfigBits","type":"bytes32","internalType":"PoolConfigBits"},{"name":"tokens","type":"address[]","internalType":"contract IERC20[]"},{"name":"tokenInfo","type":"tuple[]","internalType":"struct TokenInfo[]","components":[{"name":"tokenType","type":"uint8","internalType":"enum TokenType"},{"name":"rateProvider","type":"address","internalType":"contract IRateProvider"},{"name":"paysYieldFees","type":"bool","internalType":"bool"}]},{"name":"balancesRaw","type":"uint256[]","internalType":"uint256[]"},{"name":"balancesLiveScaled18","type":"uint256[]","internalType":"uint256[]"},{"name":"tokenRates","type":"uint256[]","internalType":"uint256[]"},{"name":"decimalScalingFactors","type":"uint256[]","internalType":"uint256[]"}]}],"stateMutability":"view"},{"type":"function","name":"getPoolMinimumTotalSupply","inputs":[],"outputs":[{"name":"","type":"uint256","internalType":"uint256"}],"stateMutability":"view"},{"type":"function","name":"getPoolPausedState","inputs":[{"name":"pool","type":"address","internalType":"address"}],"outputs":[{"name":"","type":"bool","internalType":"bool"},{"name":"","type":"uint32","internalType":"uint32"},{"name":"","type":"uint32","internalType":"uint32"},{"name":"","type":"address","internalType":"address"}],"stateMutability":"view"},{"type":"function","name":"getPoolRoleAccounts","inputs":[{"name":"pool","type":"address","internalType":"address"}],"outputs":[{"name":"","type":"tuple","internalType":"struct PoolRoleAccounts","components":[{"name":"pauseManager","type":"address","internalType":"address"},{"name":"swapFeeManager","type":"address","internalType":"address"},{"name":"poolCreator","type":"address","internalType":"address"}]}],"stateMutability":"view"},{"type":"function","name":"getPoolTokenCountAndIndexOfToken","inputs":[{"name":"pool","type":"address","internalType":"address"},{"name":"token","type":"address","internalType":"contract IERC20"}],"outputs":[{"name":"","type":"uint256","internalType":"uint256"},{"name":"","type":"uint256","internalType":"uint256"}],"stateMutability":"view"},{"type":"function","name":"getPoolTokenInfo","inputs":[{"name":"pool","type":"address","internalType":"address"}],"outputs":[{"name":"tokens","type":"address[]","internalType":"contract IERC20[]"},{"name":"tokenInfo","type":"tuple[]","internalType":"struct TokenInfo[]","components":[{"name":"tokenType","type":"uint8","internalType":"enum TokenType"},{"name":"rateProvider","type":"address","internalType":"contract IRateProvider"},{"name":"paysYieldFees","type":"bool","internalType":"bool"}]},{"name":"balancesRaw","type":"uint256[]","internalType":"uint256[]"},{"name":"scalingFactors","type":"uint256[]","internalType":"uint256[]"}],"stateMutability":"view"},{"type":"function","name":"getPoolTokenRates","inputs":[{"name":"pool","type":"address","internalType":"address"}],"outputs":[{"name":"","type":"uint256[]","internalType":"uint256[]"},{"name":"","type":"uint256[]","internalType":"uint256[]"}],"stateMutability":"view"},{"type":"function","name":"getPoolTokens","inputs":[{"name":"pool","type":"address","internalType":"address"}],"outputs":[{"name":"","type":"address[]","internalType":"contract IERC20[]"}],"stateMutability":"view"},{"type":"function","name":"getProtocolFeeController","inputs":[],"outputs":[{"name":"","type":"address","internalType":"address"}],"stateMutability":"view"},{"type":"function","name":"getReservesOf","inputs":[{"name":"token","type":"address","internalType":"contract IERC20"}],"outputs":[{"name":"","type":"uint256","internalType":"uint256"}],"stateMutability":"view"},{"type":"function","name":"getStaticSwapFeePercentage","inputs":[{"name":"pool","type":"address","internalType":"address"}],"outputs":[{"name":"","type":"uint256","internalType":"uint256"}],"stateMutability":"view"},{"type":"function","name":"getTokenDelta","inputs":[{"name":"token","type":"address","internalType":"contract IERC20"}],"outputs":[{"name":"","type":"int256","internalType":"int256"}],"stateMutability":"view"},{"type":"function","name":"getVault","inputs":[],"outputs":[{"name":"","type":"address","internalType":"address"}],"stateMutability":"view"},{"type":"function","name":"getVaultAdmin","inputs":[],"outputs":[{"name":"","type":"address","internalType":"address"}],"stateMutability":"view"},{"type":"function","name":"getVaultExtension","inputs":[],"outputs":[{"name":"","type":"address","internalType":"address"}],"stateMutability":"view"},{"type":"function","name":"getVaultPausedState","inputs":[],"outputs":[{"name":"","type":"bool","internalType":"bool"},{"name":"","type":"uint32","internalType":"uint32"},{"name":"","type":"uint32","internalType":"uint32"}],"stateMutability":"view"},{"type":"function","name":"isPoolInRecoveryMode","inputs":[{"name":"pool","type":"address","internalType":"address"}],"outputs":[{"name":"","type":"bool","internalType":"bool"}],"stateMutability":"view"},{"type":"function","name":"isPoolInitialized","inputs":[{"name":"pool","type":"address","internalType":"address"}],"outputs":[{"name":"","type":"bool","internalType":"bool"}],"stateMutability":"view"},{"type":"function","name":"isPoolPaused","inputs":[{"name":"pool","type":"address","internalType":"address"}],"outputs":[{"name":"","type":"bool","internalType":"bool"}],"stateMutability":"view"},{"type":"function","name":"isPoolRegistered","inputs":[{"name":"pool","type":"address","internalType":"address"}],"outputs":[{"name":"","type":"bool","internalType":"bool"}],"stateMutability":"view"},{"type":"function","name":"isQueryDisabled","inputs":[],"outputs":[{"name":"","type":"bool","internalType":"bool"}],"stateMutability":"view"},{"type":"function","name":"isUnlocked","inputs":[],"outputs":[{"name":"","type":"bool","internalType":"bool"}],"stateMutability":"view"},{"type":"function","name":"isVaultPaused","inputs":[],"outputs":[{"name":"","type":"bool","internalType":"bool"}],"stateMutability":"view"},{"type":"function","name":"totalSupply","inputs":[{"name":"token","type":"address","internalType":"address"}],"outputs":[{"name":"","type":"uint256","internalType":"uint256"}],"stateMutability":"view"}],"bytecode":{"object":"0x60a060405234801562000010575f80fd5b506040516200340b3803806200340b833981016040819052620000339162000045565b6001600160a01b031660805262000074565b5f6020828403121562000056575f80fd5b81516001600160a01b03811681146200006d575f80fd5b9392505050565b608051613227620001e45f395f8181610585015281816107b501528181610861015281816108d5015281816109d201528181610a7d01528181610af801528181610bd801528181610c5901528181610cfc01528181610d8101528181610e1701528181610eba01528181610f2b01528181610fd101528181611078015281816110e801528181611145015281816111e001528181611285015281816112f301528181611361015281816113c00152818161148b015281816114bf0152818161151c01528181611578015281816116b401528181611769015281816117d40152818161183f01528181611873015281816118d00152818161196401528181611998015281816119f501528181611a8901528181611af401528181611b6901528181611c1701528181611c8701528181611d6d01528181611dda01528181611e3701528181611e9401528181611f2801528181611fa90152818161204c0152818161210b01526121b701526132275ff3fe608060405234801561000f575f80fd5b5060043610610324575f3560e01c80638d928af8116101a8578063c673bdaf116100f3578063db8171871161009e578063e9ddeb2611610079578063e9ddeb26146106e9578063f2784e071461072e578063f29486a114610741578063f7888aec14610761575f80fd5b8063db817187146106c6578063e2cb0ba0146106ce578063e4dc2aa4146106d6575f80fd5b8063cd51c12f116100ce578063cd51c12f14610696578063ce8630d41461069e578063d0965a6b146106be575f80fd5b8063c673bdaf14610650578063c9c1661b14610663578063ca4f280314610676575f80fd5b8063a8175b2711610153578063b4aef0ab1161012e578063b4aef0ab1461062d578063b9a8effa14610635578063be7d628a1461063d575f80fd5b8063a8175b271461060a578063aaabadc514610612578063b45090f91461061a575f80fd5b80639385e39a116101835780639385e39a146105d157806396787092146105e45780639e825ff5146105f7575f80fd5b80638d928af8146105835780638f4ab9ca146105a9578063927da105146105be575f80fd5b80634f037ee7116102735780636c9bc7321161021e57806385c8c015116101f957806385c8c0151461053457806385e0b9991461056057806385f2dbd4146105735780638a8d123a1461057b575f80fd5b80636c9bc732146104f85780637e361bde1461050b5780638380edb71461052c575f80fd5b806353956aa21161024e57806353956aa2146104c557806355cba7fe146104cd57806367e0e076146104d5575f80fd5b80634f037ee71461047f578063532cec7c14610492578063535cfd8a146104a5575f80fd5b806320c1fb7a116102d35780632e42f4d5116102ae5780632e42f4d5146104515780634021fe0f146104595780634d472bdd1461046c575f80fd5b806320c1fb7a1461040457806326a8a99114610421578063295f054014610429575f80fd5b806313d21cdf1161030357806313d21cdf1461039157806315e32046146103b15780631ba0ae45146103fc575f80fd5b8062fdfa13146103285780630387587d1461034e578063098401f514610379575b5f80fd5b61033b61033636600461220f565b610774565b6040519081526020015b60405180910390f35b61036161035c366004612246565b610827565b6040516001600160a01b039091168152602001610345565b6103816108d2565b6040519015158152602001610345565b6103a461039f366004612246565b610958565b6040516103459190612357565b6103c46103bf366004612246565b610a3d565b6040516103459493929190931515845263ffffffff9283166020850152911660408301526001600160a01b0316606082015260800190565b610361610af5565b61040c610bd5565b60405163ffffffff9091168152602001610345565b61033b610c56565b61043c610437366004612246565b610cd7565b60408051928352602083019190915201610345565b61033b610d7e565b61043c610467366004612246565b610ddb565b61033b61047a366004612604565b610e88565b61033b61048d366004612246565b610ef1565b6103816104a0366004612246565b610f97565b6104b86104b3366004612246565b61103d565b60405161034591906126e4565b61033b6110e5565b610381611142565b6104e86104e3366004612246565b61119f565b60405161034594939291906126f6565b610381610506366004612246565b61124b565b61051e610519366004612246565b6112b6565b604051610345929190612778565b61038161135e565b61053c6113bb565b60408051931515845263ffffffff9283166020850152911690820152606001610345565b61033b61056e36600461220f565b611449565b6103616114bc565b61040c611519565b7f0000000000000000000000000000000000000000000000000000000000000000610361565b6105bc6105b7366004612246565b611576565b005b61033b6105cc36600461279c565b61166a565b61033b6105df36600461220f565b611727565b61033b6105f2366004612246565b61179a565b61033b610605366004612246565b611805565b61033b611870565b6103616118cd565b61033b610628366004612246565b61192a565b610381611995565b6103616119f2565b61038161064b366004612246565b611a4f565b61038161065e366004612246565b611aba565b61043c61067136600461220f565b611b25565b610689610684366004612246565b611bdc565b60405161034591906127e4565b61040c611c84565b6106b16106ac366004612246565b611ce1565b60405161034591906127f6565b61033b611dd7565b61033b611e34565b61033b611e91565b61033b6106e4366004612246565b611eee565b6106fc6106f7366004612246565b611f59565b6040805182516001600160a01b0390811682526020808501518216908301529282015190921690820152606001610345565b61033b61073c366004612246565b612012565b61075461074f366004612246565b61207d565b60405161034591906128c2565b61033b61076f36600461220f565b612175565b6040517efdfa130000000000000000000000000000000000000000000000000000000081526001600160a01b03838116600483015282811660248301525f917f00000000000000000000000000000000000000000000000000000000000000009091169062fdfa13906044015b602060405180830381865afa1580156107fc573d5f803e3d5ffd5b505050506040513d601f19601f820116820180604052508101906108209190612988565b9392505050565b6040517f0387587d0000000000000000000000000000000000000000000000000000000081526001600160a01b0382811660048301525f917f000000000000000000000000000000000000000000000000000000000000000090911690630387587d90602401602060405180830381865afa1580156108a8573d5f803e3d5ffd5b505050506040513d601f19601f820116820180604052508101906108cc91906129aa565b92915050565b5f7f00000000000000000000000000000000000000000000000000000000000000006001600160a01b031663098401f56040518163ffffffff1660e01b8152600401602060405180830381865afa15801561092f573d5f803e3d5ffd5b505050506040513d601f19601f8201168201806040525081019061095391906129d4565b905090565b61099a6040518060e001604052805f80191681526020016060815260200160608152602001606081526020016060815260200160608152602001606081525090565b6040517f13d21cdf0000000000000000000000000000000000000000000000000000000081526001600160a01b0383811660048301527f000000000000000000000000000000000000000000000000000000000000000016906313d21cdf906024015f60405180830381865afa158015610a16573d5f803e3d5ffd5b505050506040513d5f823e601f3d908101601f191682016040526108cc9190810190612b56565b6040517f15e320460000000000000000000000000000000000000000000000000000000081526001600160a01b0382811660048301525f918291829182917f000000000000000000000000000000000000000000000000000000000000000016906315e3204690602401608060405180830381865afa158015610ac2573d5f803e3d5ffd5b505050506040513d601f19601f82011682018060405250810190610ae69190612c8a565b93509350935093509193509193565b5f7f00000000000000000000000000000000000000000000000000000000000000006001600160a01b031663b9a8effa6040518163ffffffff1660e01b8152600401602060405180830381865afa158015610b52573d5f803e3d5ffd5b505050506040513d601f19601f82011682018060405250810190610b7691906129aa565b6001600160a01b0316631ba0ae456040518163ffffffff1660e01b8152600401602060405180830381865afa158015610bb1573d5f803e3d5ffd5b505050506040513d601f19601f8201168201806040525081019061095391906129aa565b5f7f00000000000000000000000000000000000000000000000000000000000000006001600160a01b03166320c1fb7a6040518163ffffffff1660e01b8152600401602060405180830381865afa158015610c32573d5f803e3d5ffd5b505050506040513d601f19601f820116820180604052508101906109539190612cdd565b5f7f00000000000000000000000000000000000000000000000000000000000000006001600160a01b03166326a8a9916040518163ffffffff1660e01b8152600401602060405180830381865afa158015610cb3573d5f803e3d5ffd5b505050506040513d601f19601f820116820180604052508101906109539190612988565b60405163f29486a160e01b81526001600160a01b0382811660048301525f91829182917f00000000000000000000000000000000000000000000000000000000000000009091169063f29486a1906024016101a060405180830381865afa158015610d44573d5f803e3d5ffd5b505050506040513d601f19601f82011682018060405250810190610d689190612d88565b9050806040015181606001519250925050915091565b5f7f00000000000000000000000000000000000000000000000000000000000000006001600160a01b0316632e42f4d56040518163ffffffff1660e01b8152600401602060405180830381865afa158015610cb3573d5f803e3d5ffd5b6040517f4021fe0f0000000000000000000000000000000000000000000000000000000081526001600160a01b0382811660048301525f9182917f00000000000000000000000000000000000000000000000000000000000000001690634021fe0f906024016040805180830381865afa158015610e5b573d5f803e3d5ffd5b505050506040513d601f19601f82011682018060405250810190610e7f9190612e3e565b91509150915091565b6040517f4d472bdd0000000000000000000000000000000000000000000000000000000081525f906001600160a01b037f00000000000000000000000000000000000000000000000000000000000000001690634d472bdd906107e19086908690600401612e60565b6040517f4f037ee70000000000000000000000000000000000000000000000000000000081526001600160a01b0382811660048301525f917f000000000000000000000000000000000000000000000000000000000000000090911690634f037ee7906024015b602060405180830381865afa158015610f73573d5f803e3d5ffd5b505050506040513d601f19601f820116820180604052508101906108cc9190612988565b6040517f532cec7c0000000000000000000000000000000000000000000000000000000081526001600160a01b0382811660048301525f917f00000000000000000000000000000000000000000000000000000000000000009091169063532cec7c906024015b602060405180830381865afa158015611019573d5f803e3d5ffd5b505050506040513d601f19601f820116820180604052508101906108cc91906129d4565b6040517f535cfd8a0000000000000000000000000000000000000000000000000000000081526001600160a01b0382811660048301526060917f00000000000000000000000000000000000000000000000000000000000000009091169063535cfd8a906024015f60405180830381865afa1580156110be573d5f803e3d5ffd5b505050506040513d5f823e601f3d908101601f191682016040526108cc9190810190612f1d565b5f7f00000000000000000000000000000000000000000000000000000000000000006001600160a01b03166353956aa26040518163ffffffff1660e01b8152600401602060405180830381865afa158015610cb3573d5f803e3d5ffd5b5f7f00000000000000000000000000000000000000000000000000000000000000006001600160a01b03166355cba7fe6040518163ffffffff1660e01b8152600401602060405180830381865afa15801561092f573d5f803e3d5ffd5b6040517f67e0e0760000000000000000000000000000000000000000000000000000000081526001600160a01b0382811660048301526060918291829182917f000000000000000000000000000000000000000000000000000000000000000016906367e0e076906024015f60405180830381865afa158015611224573d5f803e3d5ffd5b505050506040513d5f823e601f3d908101601f19168201604052610ae69190810190612f4f565b6040517f6c9bc7320000000000000000000000000000000000000000000000000000000081526001600160a01b0382811660048301525f917f000000000000000000000000000000000000000000000000000000000000000090911690636c9bc73290602401610ffe565b6040517f7e361bde0000000000000000000000000000000000000000000000000000000081526001600160a01b03828116600483015260609182917f00000000000000000000000000000000000000000000000000000000000000001690637e361bde906024015f60405180830381865afa158015611337573d5f803e3d5ffd5b505050506040513d5f823e601f3d908101601f19168201604052610e7f9190810190612ff5565b5f7f00000000000000000000000000000000000000000000000000000000000000006001600160a01b0316638380edb76040518163ffffffff1660e01b8152600401602060405180830381865afa15801561092f573d5f803e3d5ffd5b5f805f7f00000000000000000000000000000000000000000000000000000000000000006001600160a01b03166385c8c0156040518163ffffffff1660e01b8152600401606060405180830381865afa15801561141a573d5f803e3d5ffd5b505050506040513d601f19601f8201168201806040525081019061143e9190613055565b925092509250909192565b6040517f85e0b9990000000000000000000000000000000000000000000000000000000081526001600160a01b03838116600483015282811660248301525f917f0000000000000000000000000000000000000000000000000000000000000000909116906385e0b999906044016107e1565b5f7f00000000000000000000000000000000000000000000000000000000000000006001600160a01b03166385f2dbd46040518163ffffffff1660e01b8152600401602060405180830381865afa158015610bb1573d5f803e3d5ffd5b5f7f00000000000000000000000000000000000000000000000000000000000000006001600160a01b0316638a8d123a6040518163ffffffff1660e01b8152600401602060405180830381865afa158015610c32573d5f803e3d5ffd5b7f00000000000000000000000000000000000000000000000000000000000000006001600160a01b03166385f2dbd46040518163ffffffff1660e01b8152600401602060405180830381865afa1580156115d2573d5f803e3d5ffd5b505050506040513d601f19601f820116820180604052508101906115f691906129aa565b6040517f8f4ab9ca0000000000000000000000000000000000000000000000000000000081526001600160a01b0383811660048301529190911690638f4ab9ca906024015f604051808303815f87803b158015611651575f80fd5b505af1158015611663573d5f803e3d5ffd5b5050505050565b6040517f927da1050000000000000000000000000000000000000000000000000000000081526001600160a01b038481166004830152838116602483015282811660448301525f917f00000000000000000000000000000000000000000000000000000000000000009091169063927da10590606401602060405180830381865afa1580156116fb573d5f803e3d5ffd5b505050506040513d601f19601f8201168201806040525081019061171f9190612988565b949350505050565b6040517f9385e39a0000000000000000000000000000000000000000000000000000000081526001600160a01b03838116600483015282811660248301525f917f000000000000000000000000000000000000000000000000000000000000000090911690639385e39a906044016107e1565b6040517f967870920000000000000000000000000000000000000000000000000000000081526001600160a01b0382811660048301525f917f000000000000000000000000000000000000000000000000000000000000000090911690639678709290602401610f58565b6040517f9e825ff50000000000000000000000000000000000000000000000000000000081526001600160a01b0382811660048301525f917f000000000000000000000000000000000000000000000000000000000000000090911690639e825ff590602401610f58565b5f7f00000000000000000000000000000000000000000000000000000000000000006001600160a01b031663a8175b276040518163ffffffff1660e01b8152600401602060405180830381865afa158015610cb3573d5f803e3d5ffd5b5f7f00000000000000000000000000000000000000000000000000000000000000006001600160a01b031663aaabadc56040518163ffffffff1660e01b8152600401602060405180830381865afa158015610bb1573d5f803e3d5ffd5b6040517fb45090f90000000000000000000000000000000000000000000000000000000081526001600160a01b0382811660048301525f917f00000000000000000000000000000000000000000000000000000000000000009091169063b45090f990602401610f58565b5f7f00000000000000000000000000000000000000000000000000000000000000006001600160a01b031663b4aef0ab6040518163ffffffff1660e01b8152600401602060405180830381865afa15801561092f573d5f803e3d5ffd5b5f7f00000000000000000000000000000000000000000000000000000000000000006001600160a01b031663b9a8effa6040518163ffffffff1660e01b8152600401602060405180830381865afa158015610bb1573d5f803e3d5ffd5b6040517fbe7d628a0000000000000000000000000000000000000000000000000000000081526001600160a01b0382811660048301525f917f00000000000000000000000000000000000000000000000000000000000000009091169063be7d628a90602401610ffe565b6040517fc673bdaf0000000000000000000000000000000000000000000000000000000081526001600160a01b0382811660048301525f917f00000000000000000000000000000000000000000000000000000000000000009091169063c673bdaf90602401610ffe565b6040517fc9c1661b0000000000000000000000000000000000000000000000000000000081526001600160a01b03838116600483015282811660248301525f9182917f0000000000000000000000000000000000000000000000000000000000000000169063c9c1661b906044016040805180830381865afa158015611bad573d5f803e3d5ffd5b505050506040513d601f19601f82011682018060405250810190611bd19190612e3e565b915091509250929050565b6040517fca4f28030000000000000000000000000000000000000000000000000000000081526001600160a01b0382811660048301526060917f00000000000000000000000000000000000000000000000000000000000000009091169063ca4f2803906024015f60405180830381865afa158015611c5d573d5f803e3d5ffd5b505050506040513d5f823e601f3d908101601f191682016040526108cc9190810190613095565b5f7f00000000000000000000000000000000000000000000000000000000000000006001600160a01b031663cd51c12f6040518163ffffffff1660e01b8152600401602060405180830381865afa158015610c32573d5f803e3d5ffd5b60408051610160810182525f80825260208201819052818301819052606082018190526080820181905260a0820181905260c0820181905260e082018190526101008201819052610120820181905261014082015290517fce8630d40000000000000000000000000000000000000000000000000000000081526001600160a01b0383811660048301527f0000000000000000000000000000000000000000000000000000000000000000169063ce8630d49060240161016060405180830381865afa158015611db3573d5f803e3d5ffd5b505050506040513d601f19601f820116820180604052508101906108cc91906130c7565b5f7f00000000000000000000000000000000000000000000000000000000000000006001600160a01b031663d0965a6b6040518163ffffffff1660e01b8152600401602060405180830381865afa158015610cb3573d5f803e3d5ffd5b5f7f00000000000000000000000000000000000000000000000000000000000000006001600160a01b031663db8171876040518163ffffffff1660e01b8152600401602060405180830381865afa158015610cb3573d5f803e3d5ffd5b5f7f00000000000000000000000000000000000000000000000000000000000000006001600160a01b031663e2cb0ba06040518163ffffffff1660e01b8152600401602060405180830381865afa158015610cb3573d5f803e3d5ffd5b6040517fe4dc2aa40000000000000000000000000000000000000000000000000000000081526001600160a01b0382811660048301525f917f00000000000000000000000000000000000000000000000000000000000000009091169063e4dc2aa490602401610f58565b604080516060810182525f808252602082018190528183015290517fe9ddeb260000000000000000000000000000000000000000000000000000000081526001600160a01b0383811660048301527f0000000000000000000000000000000000000000000000000000000000000000169063e9ddeb2690602401606060405180830381865afa158015611fee573d5f803e3d5ffd5b505050506040513d601f19601f820116820180604052508101906108cc919061319f565b6040517ff2784e070000000000000000000000000000000000000000000000000000000081526001600160a01b0382811660048301525f917f00000000000000000000000000000000000000000000000000000000000000009091169063f2784e0790602401610f58565b604080516101c0810182525f6101408201818152610160830182905261018083018290526101a08301829052825260208201819052918101829052606081018290526080810182905260a0810182905260c0810182905260e08101829052610100810182905261012081019190915260405163f29486a160e01b81526001600160a01b0383811660048301527f0000000000000000000000000000000000000000000000000000000000000000169063f29486a1906024016101a060405180830381865afa158015612151573d5f803e3d5ffd5b505050506040513d601f19601f820116820180604052508101906108cc9190612d88565b6040517ff7888aec0000000000000000000000000000000000000000000000000000000081526001600160a01b03838116600483015282811660248301525f917f00000000000000000000000000000000000000000000000000000000000000009091169063f7888aec906044016107e1565b6001600160a01b03811681146121fc575f80fd5b50565b803561220a816121e8565b919050565b5f8060408385031215612220575f80fd5b823561222b816121e8565b9150602083013561223b816121e8565b809150509250929050565b5f60208284031215612256575f80fd5b8135610820816121e8565b5f815180845260208085019450602084015f5b838110156122995781516001600160a01b031687529582019590820190600101612274565b509495945050505050565b600281106121fc57634e487b7160e01b5f52602160045260245ffd5b5f81516122cc816122a4565b8352506020818101516001600160a01b03169083015260409081015115159082015260600190565b5f815180845260208085019450602084015f5b838110156122995761231a8783516122c0565b965090820190600101612307565b5f815180845260208085019450602084015f5b838110156122995781518752958201959082019060010161233b565b60208152815160208201525f602083015160e0604084015261237d610100840182612261565b90506040840151601f198085840301606086015261239b83836122f4565b925060608601519150808584030160808601526123b88383612328565b925060808601519150808584030160a08601526123d58383612328565b925060a08601519150808584030160c08601526123f28383612328565b925060c08601519150808584030160e0860152506124108282612328565b95945050505050565b634e487b7160e01b5f52604160045260245ffd5b60405160e0810167ffffffffffffffff8111828210171561245057612450612419565b60405290565b6040516060810167ffffffffffffffff8111828210171561245057612450612419565b604051610140810167ffffffffffffffff8111828210171561245057612450612419565b604051610160810167ffffffffffffffff8111828210171561245057612450612419565b604051601f8201601f1916810167ffffffffffffffff811182821017156124ea576124ea612419565b604052919050565b600281106121fc575f80fd5b803561220a816124f2565b5f67ffffffffffffffff82111561252257612522612419565b5060051b60200190565b5f82601f83011261253b575f80fd5b8135602061255061254b83612509565b6124c1565b8083825260208201915060208460051b870101935086841115612571575f80fd5b602086015b8481101561258d5780358352918301918301612576565b509695505050505050565b5f82601f8301126125a7575f80fd5b813567ffffffffffffffff8111156125c1576125c1612419565b6125d4601f8201601f19166020016124c1565b8181528460208386010111156125e8575f80fd5b816020850160208301375f918101602001919091529392505050565b5f8060408385031215612615575f80fd5b8235612620816121e8565b9150602083013567ffffffffffffffff8082111561263c575f80fd5b9084019060e0828703121561264f575f80fd5b61265761242d565b612660836124fe565b81526020830135602082015260408301358281111561267d575f80fd5b6126898882860161252c565b60408301525060608301356060820152608083013560808201526126af60a084016121ff565b60a082015260c0830135828111156126c5575f80fd5b6126d188828601612598565b60c0830152508093505050509250929050565b602081525f6108206020830184612328565b608081525f6127086080830187612261565b8281036020848101919091528651808352878201928201905f5b81811015612743576127358386516122c0565b948401949250600101612722565b505084810360408601526127578188612328565b92505050828103606084015261276d8185612328565b979650505050505050565b604081525f61278a6040830185612328565b82810360208401526124108185612328565b5f805f606084860312156127ae575f80fd5b83356127b9816121e8565b925060208401356127c9816121e8565b915060408401356127d9816121e8565b809150509250925092565b602081525f6108206020830184612261565b81511515815261016081016020830151612814602084018215159052565b506040830151612828604084018215159052565b50606083015161283c606084018215159052565b506080830151612850608084018215159052565b5060a083015161286460a084018215159052565b5060c083015161287860c084018215159052565b5060e083015161288c60e084018215159052565b506101008381015115159083015261012080840151151590830152610140928301516001600160a01b0316929091019190915290565b81518051151582526020808201511515908301526040808201511515908301526060908101511515908201526101a0810160208301516080830152604083015160a0830152606083015160c0830152608083015161292960e084018264ffffffffff169052565b5060a08301516101006129438185018363ffffffff169052565b60c0850151915061012061295a8186018415159052565b60e0860151151561014086015290850151151561016085015284015180151561018085015290505092915050565b5f60208284031215612998575f80fd5b5051919050565b805161220a816121e8565b5f602082840312156129ba575f80fd5b8151610820816121e8565b8051801515811461220a575f80fd5b5f602082840312156129e4575f80fd5b610820826129c5565b5f82601f8301126129fc575f80fd5b81516020612a0c61254b83612509565b8083825260208201915060208460051b870101935086841115612a2d575f80fd5b602086015b8481101561258d578051612a45816121e8565b8352918301918301612a32565b5f82601f830112612a61575f80fd5b81516020612a7161254b83612509565b82815260609283028501820192828201919087851115612a8f575f80fd5b8387015b85811015612aed5781818a031215612aa9575f80fd5b612ab1612456565b8151612abc816124f2565b815281860151612acb816121e8565b818701526040612adc8382016129c5565b908201528452928401928101612a93565b5090979650505050505050565b5f82601f830112612b09575f80fd5b81516020612b1961254b83612509565b8083825260208201915060208460051b870101935086841115612b3a575f80fd5b602086015b8481101561258d5780518352918301918301612b3f565b5f60208284031215612b66575f80fd5b815167ffffffffffffffff80821115612b7d575f80fd5b9083019060e08286031215612b90575f80fd5b612b9861242d565b82518152602083015182811115612bad575f80fd5b612bb9878286016129ed565b602083015250604083015182811115612bd0575f80fd5b612bdc87828601612a52565b604083015250606083015182811115612bf3575f80fd5b612bff87828601612afa565b606083015250608083015182811115612c16575f80fd5b612c2287828601612afa565b60808301525060a083015182811115612c39575f80fd5b612c4587828601612afa565b60a08301525060c083015182811115612c5c575f80fd5b612c6887828601612afa565b60c08301525095945050505050565b805163ffffffff8116811461220a575f80fd5b5f805f8060808587031215612c9d575f80fd5b612ca6856129c5565b9350612cb460208601612c77565b9250612cc260408601612c77565b91506060850151612cd2816121e8565b939692955090935050565b5f60208284031215612ced575f80fd5b61082082612c77565b5f60808284031215612d06575f80fd5b6040516080810181811067ffffffffffffffff82111715612d2957612d29612419565b604052905080612d38836129c5565b8152612d46602084016129c5565b6020820152612d57604084016129c5565b6040820152612d68606084016129c5565b60608201525092915050565b805164ffffffffff8116811461220a575f80fd5b5f6101a08284031215612d99575f80fd5b612da1612479565b612dab8484612cf6565b81526080830151602082015260a0830151604082015260c08301516060820152612dd760e08401612d74565b6080820152610100612dea818501612c77565b60a0830152610120612dfd8186016129c5565b60c0840152612e0f61014086016129c5565b60e0840152612e2161016086016129c5565b82840152612e3261018086016129c5565b90830152509392505050565b5f8060408385031215612e4f575f80fd5b505080516020909101519092909150565b5f6001600160a01b03808516835260206040818501528451612e81816122a4565b80604086015250808501516060850152604085015160e06080860152612eab610120860182612328565b9050606086015160a0860152608086015160c08601528260a08701511660e086015260c08601519250603f198582030161010086015282518082525f5b81811015612f03578481018401518382018501528301612ee8565b505f828201840152601f01601f1916010195945050505050565b5f60208284031215612f2d575f80fd5b815167ffffffffffffffff811115612f43575f80fd5b61171f84828501612afa565b5f805f8060808587031215612f62575f80fd5b845167ffffffffffffffff80821115612f79575f80fd5b612f85888389016129ed565b95506020870151915080821115612f9a575f80fd5b612fa688838901612a52565b94506040870151915080821115612fbb575f80fd5b612fc788838901612afa565b93506060870151915080821115612fdc575f80fd5b50612fe987828801612afa565b91505092959194509250565b5f8060408385031215613006575f80fd5b825167ffffffffffffffff8082111561301d575f80fd5b61302986838701612afa565b9350602085015191508082111561303e575f80fd5b5061304b85828601612afa565b9150509250929050565b5f805f60608486031215613067575f80fd5b613070846129c5565b925061307e60208501612c77565b915061308c60408501612c77565b90509250925092565b5f602082840312156130a5575f80fd5b815167ffffffffffffffff8111156130bb575f80fd5b61171f848285016129ed565b5f61016082840312156130d8575f80fd5b6130e061249d565b6130e9836129c5565b81526130f7602084016129c5565b6020820152613108604084016129c5565b6040820152613119606084016129c5565b606082015261312a608084016129c5565b608082015261313b60a084016129c5565b60a082015261314c60c084016129c5565b60c082015261315d60e084016129c5565b60e08201526101006131708185016129c5565b908201526101206131828482016129c5565b9082015261014061319484820161299f565b908201529392505050565b5f606082840312156131af575f80fd5b6131b7612456565b82516131c2816121e8565b815260208301516131d2816121e8565b602082015260408301516131e5816121e8565b6040820152939250505056fea264697066735822122047489ff7d40420eaa33c60865c42941bfbea70ff11ce7579684c44f16735f38c64736f6c63430008180033","linkReferences":{}},"methodIdentifiers":{"allowance(address,address,address)":"927da105","areBuffersPaused()":"55cba7fe","balanceOf(address,address)":"f7888aec","collectAggregateFees(address)":"8f4ab9ca","computeDynamicSwapFeePercentage(address,(uint8,uint256,uint256[],uint256,uint256,address,bytes))":"4d472bdd","getAggregateFeePercentages(address)":"295f0540","getAggregateSwapFeeAmount(address,address)":"85e0b999","getAggregateYieldFeeAmount(address,address)":"00fdfa13","getAuthorizer()":"aaabadc5","getBptRate(address)":"4f037ee7","getBufferAsset(address)":"0387587d","getBufferBalance(address)":"4021fe0f","getBufferMinimumTotalSupply()":"26a8a991","getBufferOwnerShares(address,address)":"9385e39a","getBufferPeriodDuration()":"20c1fb7a","getBufferPeriodEndTime()":"cd51c12f","getBufferTotalShares(address)":"f2784e07","getCurrentLiveBalances(address)":"535cfd8a","getHooksConfig(address)":"ce8630d4","getMaximumPoolTokens()":"2e42f4d5","getMinimumPoolTokens()":"a8175b27","getMinimumTradeAmount()":"e2cb0ba0","getMinimumWrapAmount()":"53956aa2","getNonzeroDeltaCount()":"db817187","getPauseWindowEndTime()":"8a8d123a","getPoolConfig(address)":"f29486a1","getPoolData(address)":"13d21cdf","getPoolMinimumTotalSupply()":"d0965a6b","getPoolPausedState(address)":"15e32046","getPoolRoleAccounts(address)":"e9ddeb26","getPoolTokenCountAndIndexOfToken(address,address)":"c9c1661b","getPoolTokenInfo(address)":"67e0e076","getPoolTokenRates(address)":"7e361bde","getPoolTokens(address)":"ca4f2803","getProtocolFeeController()":"85f2dbd4","getReservesOf(address)":"96787092","getStaticSwapFeePercentage(address)":"b45090f9","getTokenDelta(address)":"9e825ff5","getVault()":"8d928af8","getVaultAdmin()":"1ba0ae45","getVaultExtension()":"b9a8effa","getVaultPausedState()":"85c8c015","isPoolInRecoveryMode(address)":"be7d628a","isPoolInitialized(address)":"532cec7c","isPoolPaused(address)":"6c9bc732","isPoolRegistered(address)":"c673bdaf","isQueryDisabled()":"b4aef0ab","isUnlocked()":"8380edb7","isVaultPaused()":"098401f5","totalSupply(address)":"e4dc2aa4"},"id":93}