{"abi":[{"type":"constructor","inputs":[],"stateMutability":"nonpayable"},{"type":"function","name":"owner","inputs":[],"outputs":[{"name":"","type":"address","internalType":"address"}],"stateMutability":"view"},{"type":"function","name":"renounceOwnership","inputs":[],"outputs":[],"stateMutability":"nonpayable"},{"type":"function","name":"setTierColor","inputs":[{"name":"tier","type":"uint256","internalType":"uint256"},{"name":"color","type":"string","internalType":"string"}],"outputs":[],"stateMutability":"nonpayable"},{"type":"function","name":"setTierName","inputs":[{"name":"tier","type":"uint256","internalType":"uint256"},{"name":"name","type":"string","internalType":"string"}],"outputs":[],"stateMutability":"nonpayable"},{"type":"function","name":"tokenURI","inputs":[{"name":"tokenId","type":"uint256","internalType":"uint256"},{"name":"tier","type":"uint256","internalType":"uint256"}],"outputs":[{"name":"","type":"string","internalType":"string"}],"stateMutability":"view"},{"type":"function","name":"transferOwnership","inputs":[{"name":"newOwner","type":"address","internalType":"address"}],"outputs":[],"stateMutability":"nonpayable"},{"type":"event","name":"OwnershipTransferred","inputs":[{"name":"previousOwner","type":"address","indexed":true,"internalType":"address"},{"name":"newOwner","type":"address","indexed":true,"internalType":"address"}],"anonymous":false},{"type":"error","name":"OwnableInvalidOwner","inputs":[{"name":"owner","type":"address","internalType":"address"}]},{"type":"error","name":"OwnableUnauthorizedAccount","inputs":[{"name":"account","type":"address","internalType":"address"}]}],"bytecode":{"object":"0x608060405234801562000010575f80fd5b5033806200003757604051631e4fbdf760e01b81525f600482015260240160405180910390fd5b62000042816200025a565b5060408051808201909152600681526542726f6e7a6560d01b60208083019190915260015f81905290527fcc69885fda6bcc1a4ace058b4a62bf5e179ea78fd58a1ccd71c22cc9b688792f906200009a908262000347565b5060408051808201909152600681526529b4b63b32b960d11b60208083019190915260025f52600190527fd9d16d34ffb15ba3a3d852f0d403e2ce1d691fb54de27ac87cd2f993f3ec330f90620000f2908262000347565b5060408051808201909152600481526311dbdb1960e21b60208083019190915260035f52600190527f7dfe757ecd65cbd7922a9c0161e935dd7fdbcc0e999689c7d31633896b1fc60b9062000148908262000347565b5060408051808201909152600781526611a1a21ba3199960c91b60208083019190915260015f52600290527fe90b7bceb6e7df5418fb78d8ee546e97c83a08bbccc01a0644d599ccd2a7c2e090620001a1908262000347565b506040805180820190915260078152660234330433043360cc1b60208083019190915260025f81905290527f679795a0195a1b76cdebb7c51d74e058aee92919b8c3389af86ef24535e8a28c90620001fa908262000347565b506040805180820190915260078152660234646443730360cc1b60208083019190915260035f52600290527f88601476d11616a71c5be67555bd1dff4b1cbf21533d2669b768b61518cfe1c39062000253908262000347565b5062000413565b5f80546001600160a01b038381166001600160a01b0319831681178455604051919092169283917f8be0079c531659141344cd1fd0a4f28419497f9722a3daafe3b4186f6b6457e09190a35050565b634e487b7160e01b5f52604160045260245ffd5b600181811c90821680620002d257607f821691505b602082108103620002f157634e487b7160e01b5f52602260045260245ffd5b50919050565b601f8211156200034257805f5260205f20601f840160051c810160208510156200031e5750805b601f840160051c820191505b818110156200033f575f81556001016200032a565b50505b505050565b81516001600160401b03811115620003635762000363620002a9565b6200037b81620003748454620002bd565b84620002f7565b602080601f831160018114620003b1575f8415620003995750858301515b5f19600386901b1c1916600185901b1785556200040b565b5f85815260208120601f198616915b82811015620003e157888601518255948401946001909101908401620003c0565b5085821015620003ff57878501515f19600388901b60f8161c191681555b505060018460011b0185555b505050505050565b610e3680620004215f395ff3fe608060405234801561000f575f80fd5b506004361061006f575f3560e01c80638da5cb5b1161004d5780638da5cb5b146100a357806392cb829d146100c2578063f2fde38b146100e2575f80fd5b806366c6e39014610073578063715018a61461008857806377356e7d14610090575b5f80fd5b6100866100813660046105d5565b6100f5565b005b610086610119565b61008661009e3660046105d5565b61012c565b5f546040516001600160a01b0390911681526020015b60405180910390f35b6100d56100d036600461068a565b61014b565b6040516100b991906106cc565b6100866100f03660046106fe565b61021e565b6100fd610279565b5f82815260016020526040902061011482826107a7565b505050565b610121610279565b61012a5f6102be565b565b610134610279565b5f82815260026020526040902061011482826107a7565b5f81815260016020908152604080832090516060939261016c9291016108d6565b60408051601f198184030181528282525f86815260016020908152928120919450926101989201610907565b60405160208183030381529060405290505f6101b385610325565b90506101f383838360015f8a81526020019081526020015f206040516020016101df9493929190610965565b604051602081830303815290604052610423565b6040516020016102039190610adc565b60405160208183030381529060405293505050505b92915050565b610226610279565b6001600160a01b03811661026d576040517f1e4fbdf70000000000000000000000000000000000000000000000000000000081525f60048201526024015b60405180910390fd5b610276816102be565b50565b5f546001600160a01b0316331461012a576040517f118cdaa7000000000000000000000000000000000000000000000000000000008152336004820152602401610264565b5f80546001600160a01b038381167fffffffffffffffffffffffff0000000000000000000000000000000000000000831681178455604051919092169283917f8be0079c531659141344cd1fd0a4f28419497f9722a3daafe3b4186f6b6457e09190a35050565b5f8181526002602052604081208054606092919061034290610724565b80601f016020809104026020016040519081016040528092919081815260200182805461036e90610724565b80156103b95780601f10610390576101008083540402835291602001916103b9565b820191905f5260205f20905b81548152906001019060200180831161039c57829003601f168201915b5050505f868152600160209081526040808320905195965091946103e1945086935001610b20565b60405160208183030381529060405290506103fb81610423565b60405160200161040b9190610d1f565b60405160208183030381529060405292505050919050565b606061021882604051806060016040528060408152602001610dc1604091396001606083515f03610462575060408051602081019091525f81526105ba565b5f82610492576003855160046104789190610d77565b610483906002610d8e565b61048d9190610da1565b6104b7565b6003855160026104a29190610d8e565b6104ac9190610da1565b6104b7906004610d77565b90505f8167ffffffffffffffff8111156104d3576104d36105c1565b6040519080825280601f01601f1916602001820160405280156104fd576020820181803683370190505b509050600185016020820187885189016020810180515f82525b82841015610572576003840193508351603f8160121c168701518653600186019550603f81600c1c168701518653600186019550603f8160061c168701518653600186019550603f8116870151865350600185019450610517565b9052505085156105b35760038851066001811461059657600281146105a9576105b1565b603d6001830353603d60028303536105b1565b603d60018303535b505b5090925050505b9392505050565b634e487b7160e01b5f52604160045260245ffd5b5f80604083850312156105e6575f80fd5b82359150602083013567ffffffffffffffff80821115610604575f80fd5b818501915085601f830112610617575f80fd5b813581811115610629576106296105c1565b604051601f8201601f19908116603f01168101908382118183101715610651576106516105c1565b81604052828152886020848701011115610669575f80fd5b826020860160208301375f6020848301015280955050505050509250929050565b5f806040838503121561069b575f80fd5b50508035926020909101359150565b5f5b838110156106c45781810151838201526020016106ac565b50505f910152565b602081525f82518060208401526106ea8160408501602087016106aa565b601f01601f19169190910160400192915050565b5f6020828403121561070e575f80fd5b81356001600160a01b03811681146105ba575f80fd5b600181811c9082168061073857607f821691505b60208210810361075657634e487b7160e01b5f52602260045260245ffd5b50919050565b601f82111561011457805f5260205f20601f840160051c810160208510156107815750805b601f840160051c820191505b818110156107a0575f815560010161078d565b5050505050565b815167ffffffffffffffff8111156107c1576107c16105c1565b6107d5816107cf8454610724565b8461075c565b602080601f831160018114610808575f84156107f15750858301515b5f19600386901b1c1916600185901b17855561085f565b5f85815260208120601f198616915b8281101561083657888601518255948401946001909101908401610817565b508582101561085357878501515f19600388901b60f8161c191681555b505060018460011b0185555b505050505050565b5f815461087381610724565b6001828116801561088b57600181146108a0576108cc565b60ff19841687528215158302870194506108cc565b855f526020805f205f5b858110156108c35781548a8201529084019082016108aa565b50505082870194505b5050505092915050565b7f4c6971756964697479205374616b696e67204e4654202d20000000000000000081525f6105ba6018830184610867565b7f54686973204e465420726570726573656e74732061200000000000000000000081525f6109386016830184610867565b7f2074696572206c6971756964697479207374616b696e6720706f736974696f6e81526020019392505050565b7f7b226e616d65223a22000000000000000000000000000000000000000000000081525f855161099c816009850160208a016106aa565b80830190507f222c0000000000000000000000000000000000000000000000000000000000008060098301527f226465736372697074696f6e223a220000000000000000000000000000000000600b8301528651610a0181601a850160208b016106aa565b601a92019182018190527f22696d616765223a220000000000000000000000000000000000000000000000601c8301528551610a44816025850160208a016106aa565b60259201918201527f2261747472696275746573223a5b7b2274726169745f74797065223a2254696560278201527f72222c2276616c7565223a2200000000000000000000000000000000000000006047820152610ad1610aa86053830186610867565b7f227d5d7d00000000000000000000000000000000000000000000000000000000815260040190565b979650505050505050565b7f646174613a6170706c69636174696f6e2f6a736f6e3b6261736536342c00000081525f8251610b1381601d8501602087016106aa565b91909101601d0192915050565b7f3c73766720786d6c6e733d22687474703a2f2f7777772e77332e6f72672f323081527f30302f737667222077696474683d2233353022206865696768743d223335302260208201527f3e0000000000000000000000000000000000000000000000000000000000000060408201527f3c726563742077696474683d223130302522206865696768743d22313030252260418201527f2066696c6c3d220000000000000000000000000000000000000000000000000060618201525f8351610bef8160688501602088016106aa565b7f22202f3e000000000000000000000000000000000000000000000000000000006068918401918201527f3c7465787420783d223530252220793d223530252220646f6d696e616e742d62606c8201527f6173656c696e653d226d6964646c652220746578742d616e63686f723d226d69608c8201527f64646c65222066696c6c3d2277686974652220666f6e742d73697a653d22323460ac8201527f223e00000000000000000000000000000000000000000000000000000000000060cc820152610d16610ced610cc460ce840187610867565b7f20546965723c2f746578743e00000000000000000000000000000000000000008152600c0190565b7f3c2f7376673e0000000000000000000000000000000000000000000000000000815260060190565b95945050505050565b7f646174613a696d6167652f7376672b786d6c3b6261736536342c00000000000081525f8251610d5681601a8501602087016106aa565b91909101601a0192915050565b634e487b7160e01b5f52601160045260245ffd5b808202811582820484141761021857610218610d63565b8082018082111561021857610218610d63565b5f82610dbb57634e487b7160e01b5f52601260045260245ffd5b50049056fe4142434445464748494a4b4c4d4e4f505152535455565758595a6162636465666768696a6b6c6d6e6f707172737475767778797a303132333435363738392b2fa2646970667358221220496d110e2cf8346b3c576117dac37015e360196cf67893647888af4cfb9bb6b364736f6c63430008180033","linkReferences":{}},"methodIdentifiers":{"owner()":"8da5cb5b","renounceOwnership()":"715018a6","setTierColor(uint256,string)":"77356e7d","setTierName(uint256,string)":"66c6e390","tokenURI(uint256,uint256)":"92cb829d","transferOwnership(address)":"f2fde38b"},"id":7}