{"abi":[{"type":"constructor","inputs":[{"name":"params","type":"tuple","internalType":"struct WeightedPool.NewPoolParams","components":[{"name":"name","type":"string","internalType":"string"},{"name":"symbol","type":"string","internalType":"string"},{"name":"numTokens","type":"uint256","internalType":"uint256"},{"name":"normalizedWeights","type":"uint256[]","internalType":"uint256[]"},{"name":"version","type":"string","internalType":"string"}]},{"name":"vault","type":"address","internalType":"contract IVault"}],"stateMutability":"nonpayable"},{"type":"function","name":"DOMAIN_SEPARATOR","inputs":[],"outputs":[{"name":"","type":"bytes32","internalType":"bytes32"}],"stateMutability":"view"},{"type":"function","name":"PERMIT_TYPEHASH","inputs":[],"outputs":[{"name":"","type":"bytes32","internalType":"bytes32"}],"stateMutability":"view"},{"type":"function","name":"allowance","inputs":[{"name":"owner","type":"address","internalType":"address"},{"name":"spender","type":"address","internalType":"address"}],"outputs":[{"name":"","type":"uint256","internalType":"uint256"}],"stateMutability":"view"},{"type":"function","name":"approve","inputs":[{"name":"spender","type":"address","internalType":"address"},{"name":"amount","type":"uint256","internalType":"uint256"}],"outputs":[{"name":"","type":"bool","internalType":"bool"}],"stateMutability":"nonpayable"},{"type":"function","name":"balanceOf","inputs":[{"name":"account","type":"address","internalType":"address"}],"outputs":[{"name":"","type":"uint256","internalType":"uint256"}],"stateMutability":"view"},{"type":"function","name":"computeBalance","inputs":[{"name":"balancesLiveScaled18","type":"uint256[]","internalType":"uint256[]"},{"name":"tokenInIndex","type":"uint256","internalType":"uint256"},{"name":"invariantRatio","type":"uint256","internalType":"uint256"}],"outputs":[{"name":"newBalance","type":"uint256","internalType":"uint256"}],"stateMutability":"view"},{"type":"function","name":"computeInvariant","inputs":[{"name":"balancesLiveScaled18","type":"uint256[]","internalType":"uint256[]"},{"name":"rounding","type":"uint8","internalType":"enum Rounding"}],"outputs":[{"name":"","type":"uint256","internalType":"uint256"}],"stateMutability":"view"},{"type":"function","name":"decimals","inputs":[],"outputs":[{"name":"","type":"uint8","internalType":"uint8"}],"stateMutability":"pure"},{"type":"function","name":"eip712Domain","inputs":[],"outputs":[{"name":"fields","type":"bytes1","internalType":"bytes1"},{"name":"name","type":"string","internalType":"string"},{"name":"version","type":"string","internalType":"string"},{"name":"chainId","type":"uint256","internalType":"uint256"},{"name":"verifyingContract","type":"address","internalType":"address"},{"name":"salt","type":"bytes32","internalType":"bytes32"},{"name":"extensions","type":"uint256[]","internalType":"uint256[]"}],"stateMutability":"view"},{"type":"function","name":"emitApproval","inputs":[{"name":"owner","type":"address","internalType":"address"},{"name":"spender","type":"address","internalType":"address"},{"name":"amount","type":"uint256","internalType":"uint256"}],"outputs":[],"stateMutability":"nonpayable"},{"type":"function","name":"emitTransfer","inputs":[{"name":"from","type":"address","internalType":"address"},{"name":"to","type":"address","internalType":"address"},{"name":"amount","type":"uint256","internalType":"uint256"}],"outputs":[],"stateMutability":"nonpayable"},{"type":"function","name":"getAggregateFeePercentages","inputs":[],"outputs":[{"name":"aggregateSwapFeePercentage","type":"uint256","internalType":"uint256"},{"name":"aggregateYieldFeePercentage","type":"uint256","internalType":"uint256"}],"stateMutability":"view"},{"type":"function","name":"getCurrentLiveBalances","inputs":[],"outputs":[{"name":"balancesLiveScaled18","type":"uint256[]","internalType":"uint256[]"}],"stateMutability":"view"},{"type":"function","name":"getMaximumInvariantRatio","inputs":[],"outputs":[{"name":"","type":"uint256","internalType":"uint256"}],"stateMutability":"pure"},{"type":"function","name":"getMaximumSwapFeePercentage","inputs":[],"outputs":[{"name":"","type":"uint256","internalType":"uint256"}],"stateMutability":"pure"},{"type":"function","name":"getMinimumInvariantRatio","inputs":[],"outputs":[{"name":"","type":"uint256","internalType":"uint256"}],"stateMutability":"pure"},{"type":"function","name":"getMinimumSwapFeePercentage","inputs":[],"outputs":[{"name":"","type":"uint256","internalType":"uint256"}],"stateMutability":"pure"},{"type":"function","name":"getNormalizedWeights","inputs":[],"outputs":[{"name":"","type":"uint256[]","internalType":"uint256[]"}],"stateMutability":"view"},{"type":"function","name":"getRate","inputs":[],"outputs":[{"name":"","type":"uint256","internalType":"uint256"}],"stateMutability":"pure"},{"type":"function","name":"getStaticSwapFeePercentage","inputs":[],"outputs":[{"name":"","type":"uint256","internalType":"uint256"}],"stateMutability":"view"},{"type":"function","name":"getTokenInfo","inputs":[],"outputs":[{"name":"tokens","type":"address[]","internalType":"contract IERC20[]"},{"name":"tokenInfo","type":"tuple[]","internalType":"struct TokenInfo[]","components":[{"name":"tokenType","type":"uint8","internalType":"enum TokenType"},{"name":"rateProvider","type":"address","internalType":"contract IRateProvider"},{"name":"paysYieldFees","type":"bool","internalType":"bool"}]},{"name":"balancesRaw","type":"uint256[]","internalType":"uint256[]"},{"name":"lastBalancesLiveScaled18","type":"uint256[]","internalType":"uint256[]"}],"stateMutability":"view"},{"type":"function","name":"getTokens","inputs":[],"outputs":[{"name":"tokens","type":"address[]","internalType":"contract IERC20[]"}],"stateMutability":"view"},{"type":"function","name":"getVault","inputs":[],"outputs":[{"name":"","type":"address","internalType":"contract IVault"}],"stateMutability":"view"},{"type":"function","name":"getWeightedPoolDynamicData","inputs":[],"outputs":[{"name":"data","type":"tuple","internalType":"struct WeightedPoolDynamicData","components":[{"name":"balancesLiveScaled18","type":"uint256[]","internalType":"uint256[]"},{"name":"tokenRates","type":"uint256[]","internalType":"uint256[]"},{"name":"staticSwapFeePercentage","type":"uint256","internalType":"uint256"},{"name":"totalSupply","type":"uint256","internalType":"uint256"},{"name":"isPoolInitialized","type":"bool","internalType":"bool"},{"name":"isPoolPaused","type":"bool","internalType":"bool"},{"name":"isPoolInRecoveryMode","type":"bool","internalType":"bool"}]}],"stateMutability":"view"},{"type":"function","name":"getWeightedPoolImmutableData","inputs":[],"outputs":[{"name":"data","type":"tuple","internalType":"struct WeightedPoolImmutableData","components":[{"name":"tokens","type":"address[]","internalType":"contract IERC20[]"},{"name":"decimalScalingFactors","type":"uint256[]","internalType":"uint256[]"},{"name":"normalizedWeights","type":"uint256[]","internalType":"uint256[]"}]}],"stateMutability":"view"},{"type":"function","name":"name","inputs":[],"outputs":[{"name":"","type":"string","internalType":"string"}],"stateMutability":"view"},{"type":"function","name":"nonces","inputs":[{"name":"owner","type":"address","internalType":"address"}],"outputs":[{"name":"","type":"uint256","internalType":"uint256"}],"stateMutability":"view"},{"type":"function","name":"onSwap","inputs":[{"name":"request","type":"tuple","internalType":"struct PoolSwapParams","components":[{"name":"kind","type":"uint8","internalType":"enum SwapKind"},{"name":"amountGivenScaled18","type":"uint256","internalType":"uint256"},{"name":"balancesScaled18","type":"uint256[]","internalType":"uint256[]"},{"name":"indexIn","type":"uint256","internalType":"uint256"},{"name":"indexOut","type":"uint256","internalType":"uint256"},{"name":"router","type":"address","internalType":"address"},{"name":"userData","type":"bytes","internalType":"bytes"}]}],"outputs":[{"name":"","type":"uint256","internalType":"uint256"}],"stateMutability":"view"},{"type":"function","name":"permit","inputs":[{"name":"owner","type":"address","internalType":"address"},{"name":"spender","type":"address","internalType":"address"},{"name":"amount","type":"uint256","internalType":"uint256"},{"name":"deadline","type":"uint256","internalType":"uint256"},{"name":"v","type":"uint8","internalType":"uint8"},{"name":"r","type":"bytes32","internalType":"bytes32"},{"name":"s","type":"bytes32","internalType":"bytes32"}],"outputs":[],"stateMutability":"nonpayable"},{"type":"function","name":"revokePermit","inputs":[],"outputs":[],"stateMutability":"nonpayable"},{"type":"function","name":"supportsInterface","inputs":[{"name":"interfaceId","type":"bytes4","internalType":"bytes4"}],"outputs":[{"name":"","type":"bool","internalType":"bool"}],"stateMutability":"view"},{"type":"function","name":"symbol","inputs":[],"outputs":[{"name":"","type":"string","internalType":"string"}],"stateMutability":"view"},{"type":"function","name":"totalSupply","inputs":[],"outputs":[{"name":"","type":"uint256","internalType":"uint256"}],"stateMutability":"view"},{"type":"function","name":"transfer","inputs":[{"name":"to","type":"address","internalType":"address"},{"name":"amount","type":"uint256","internalType":"uint256"}],"outputs":[{"name":"","type":"bool","internalType":"bool"}],"stateMutability":"nonpayable"},{"type":"function","name":"transferFrom","inputs":[{"name":"from","type":"address","internalType":"address"},{"name":"to","type":"address","internalType":"address"},{"name":"amount","type":"uint256","internalType":"uint256"}],"outputs":[{"name":"","type":"bool","internalType":"bool"}],"stateMutability":"nonpayable"},{"type":"function","name":"version","inputs":[],"outputs":[{"name":"","type":"string","internalType":"string"}],"stateMutability":"view"},{"type":"event","name":"Approval","inputs":[{"name":"owner","type":"address","indexed":true,"internalType":"address"},{"name":"spender","type":"address","indexed":true,"internalType":"address"},{"name":"value","type":"uint256","indexed":false,"internalType":"uint256"}],"anonymous":false},{"type":"event","name":"EIP712DomainChanged","inputs":[],"anonymous":false},{"type":"event","name":"Transfer","inputs":[{"name":"from","type":"address","indexed":true,"internalType":"address"},{"name":"to","type":"address","indexed":true,"internalType":"address"},{"name":"value","type":"uint256","indexed":false,"internalType":"uint256"}],"anonymous":false},{"type":"error","name":"BaseOutOfBounds","inputs":[]},{"type":"error","name":"ECDSAInvalidSignature","inputs":[]},{"type":"error","name":"ECDSAInvalidSignatureLength","inputs":[{"name":"length","type":"uint256","internalType":"uint256"}]},{"type":"error","name":"ECDSAInvalidSignatureS","inputs":[{"name":"s","type":"bytes32","internalType":"bytes32"}]},{"type":"error","name":"ERC2612ExpiredSignature","inputs":[{"name":"deadline","type":"uint256","internalType":"uint256"}]},{"type":"error","name":"ERC2612InvalidSigner","inputs":[{"name":"signer","type":"address","internalType":"address"},{"name":"owner","type":"address","internalType":"address"}]},{"type":"error","name":"ExponentOutOfBounds","inputs":[]},{"type":"error","name":"InputLengthMismatch","inputs":[]},{"type":"error","name":"InvalidAccountNonce","inputs":[{"name":"account","type":"address","internalType":"address"},{"name":"currentNonce","type":"uint256","internalType":"uint256"}]},{"type":"error","name":"InvalidExponent","inputs":[]},{"type":"error","name":"InvalidShortString","inputs":[]},{"type":"error","name":"InvalidToken","inputs":[]},{"type":"error","name":"MaxInRatio","inputs":[]},{"type":"error","name":"MaxOutRatio","inputs":[]},{"type":"error","name":"MinWeight","inputs":[]},{"type":"error","name":"NormalizedWeightInvariant","inputs":[]},{"type":"error","name":"ProductOutOfBounds","inputs":[]},{"type":"error","name":"SenderIsNotVault","inputs":[{"name":"sender","type":"address","internalType":"address"}]},{"type":"error","name":"StringTooLong","inputs":[{"name":"str","type":"string","internalType":"string"}]},{"type":"error","name":"WeightedPoolBptRateUnsupported","inputs":[]},{"type":"error","name":"ZeroDivision","inputs":[]},{"type":"error","name":"ZeroInvariant","inputs":[]}],"bytecode":{"object":"0x6102c060405234801562000011575f80fd5b506040516200457a3803806200457a83398101604081905262000034916200054f565b81608001518182845f015185602001518282604051806040016040528060018152602001603160f81b815250620000755f83620002f160201b90919060201c565b6101205262000086816001620002f1565b61014052815160208084019190912060e052815190820120610100524660a0526200011360e05161010051604080517f8b73c3c69bb8fe3d512ecc4cf759cc79239f7b179b0ffacaa9a75d522b39400f60208201529081019290925260608201524660808201523060a08201525f9060c00160405160208183030381529060405280519060200120905090565b60805250503060c0526001600160a01b0316610160526003620001378382620006d8565b506004620001468282620006d8565b505050506001600160a01b031661018052620001628162000329565b5060408201516101a08190526060830151516200018091906200033b565b5f805b6101a0518160ff161015620002be575f84606001518260ff1681518110620001af57620001af620007a4565b60200260200101519050662386f26fc10000811015620001e25760405163bd39358360e01b815260040160405180910390fd5b620001ee8184620007cc565b92508160ff165f0362000207576101c0819052620002aa565b8160ff166001036200021f576101e0819052620002aa565b8160ff166002036200023757610200819052620002aa565b8160ff166003036200024f57610220819052620002aa565b8160ff166004036200026757610240819052620002aa565b8160ff166005036200027f57610260819052620002aa565b8160ff166006036200029757610280819052620002aa565b8160ff16600703620002aa576102a08190525b50620002b681620007e2565b905062000183565b50670de0b6b3a76400008114620002e857604051631ce788a760e11b815260040160405180910390fd5b5050506200085b565b5f602083511015620003105762000308836200035c565b905062000323565b816200031d8482620006d8565b5060ff90505b92915050565b6005620003378282620006d8565b5050565b808214620003375760405163aaad13f760e01b815260040160405180910390fd5b5f80829050601f8151111562000392578260405163305a27a960e01b815260040162000389919062000803565b60405180910390fd5b80516200039f8262000837565b179392505050565b634e487b7160e01b5f52604160045260245ffd5b60405160a081016001600160401b0381118282101715620003e057620003e0620003a7565b60405290565b604051601f8201601f191681016001600160401b0381118282101715620004115762000411620003a7565b604052919050565b5f5b83811015620004355781810151838201526020016200041b565b50505f910152565b5f82601f8301126200044d575f80fd5b81516001600160401b03811115620004695762000469620003a7565b6200047e601f8201601f1916602001620003e6565b81815284602083860101111562000493575f80fd5b620004a682602083016020870162000419565b949350505050565b5f82601f830112620004be575f80fd5b815160206001600160401b03821115620004dc57620004dc620003a7565b8160051b620004ed828201620003e6565b928352848101820192828101908785111562000507575f80fd5b83870192505b8483101562000528578251825291830191908301906200050d565b979650505050505050565b80516001600160a01b03811681146200054a575f80fd5b919050565b5f806040838503121562000561575f80fd5b82516001600160401b038082111562000578575f80fd5b9084019060a082870312156200058c575f80fd5b62000596620003bb565b825182811115620005a5575f80fd5b620005b3888286016200043d565b825250602083015182811115620005c8575f80fd5b620005d6888286016200043d565b60208301525060408301516040820152606083015182811115620005f8575f80fd5b6200060688828601620004ae565b6060830152506080830151828111156200061e575f80fd5b6200062c888286016200043d565b6080830152509350620006459150506020840162000533565b90509250929050565b600181811c908216806200066357607f821691505b6020821081036200068257634e487b7160e01b5f52602260045260245ffd5b50919050565b601f821115620006d357805f5260205f20601f840160051c81016020851015620006af5750805b601f840160051c820191505b81811015620006d0575f8155600101620006bb565b50505b505050565b81516001600160401b03811115620006f457620006f4620003a7565b6200070c816200070584546200064e565b8462000688565b602080601f83116001811462000742575f84156200072a5750858301515b5f19600386901b1c1916600185901b1785556200079c565b5f85815260208120601f198616915b82811015620007725788860151825594840194600190910190840162000751565b50858210156200079057878501515f19600388901b60f8161c191681555b505060018460011b0185555b505050505050565b634e487b7160e01b5f52603260045260245ffd5b634e487b7160e01b5f52601160045260245ffd5b80820180821115620003235762000323620007b8565b5f60ff821660ff8103620007fa57620007fa620007b8565b60010192915050565b602081525f82518060208401526200082381604085016020870162000419565b601f01601f19169190910160400192915050565b8051602080830151919081101562000682575f1960209190910360031b1b16919050565b60805160a05160c05160e05161010051610120516101405161016051610180516101a0516101c0516101e05161020051610220516102405161026051610280516102a051613ba9620009d15f395f81816116ba0152611b5001525f818161168b0152611b0701525f818161165c0152611abe01525f818161162d0152611a7501525f81816115fe0152611a2c01525f81816115cf01526119e301525f81816115a0015261199a01525f8181611571015261195b01525f6118f401525f8181610c4201528181610e0001528181610eb201528181610f43015261127001525f81816104460152818161061d015281816106fb015281816107c1015281816108d40152818161095e01528181610ab601528181610db70152818161100c0152818161109601528181611124015281816111be0152818161142b015281816114ea015261176c01525f611d0b01525f611cdf01525f6118a001525f61187801525f6117d301525f6117fd01525f6118270152613ba95ff3fe608060405234801561000f575f80fd5b506004361061024f575f3560e01c80637ecebe001161013d578063abb1dc44116100b8578063ce20ece711610088578063d505accf1161006e578063d505accf14610531578063dd62ed3e14610544578063f89f27ed14610557575f80fd5b8063ce20ece71461051d578063d335b0cf14610529575f80fd5b8063abb1dc44146104cd578063b156aa0a146104e5578063b677fa56146104fa578063c0bc6f3314610508575f80fd5b806395d89b411161010d578063984de9e8116100f3578063984de9e814610492578063a9059cbb146104a5578063aa6ca808146104b8575f80fd5b806395d89b4114610470578063979ac70214610478575f80fd5b80637ecebe00146103ee57806381fa807c1461040157806384b0196e1461041e5780638d928af814610439575f80fd5b8063313ce567116101cd5780635687f2b81161019d578063679aefce11610183578063679aefce146103c057806370a08231146103c857806372c98186146103db575f80fd5b80635687f2b81461039f578063654cf15d146103b2575f80fd5b8063313ce5671461036b5780633644e5151461037a57806353b79bd71461038257806354fd4d5014610397575f80fd5b806318160ddd1161022257806323de66511161020857806323de665114610321578063273c1adf1461033657806330adf81f14610344575f80fd5b806318160ddd1461030657806323b872dd1461030e575f80fd5b806301ffc9a71461025357806306fdde03146102bd578063095ea7b3146102d257806316a0b3e0146102e5575b5f80fd5b6102a8610261366004612e78565b7fffffffff00000000000000000000000000000000000000000000000000000000167f01ffc9a7000000000000000000000000000000000000000000000000000000001490565b60405190151581526020015b60405180910390f35b6102c561055f565b6040516102b49190612efa565b6102a86102e0366004612f2b565b6105ef565b6102f86102f3366004613099565b610696565b6040519081526020016102b4565b6102f86106cb565b6102a861031c3660046130e3565b610772565b61033461032f3660046130e3565b610838565b005b6729a2241af62c00006102f8565b6102f87f6e71edae12b1b97f4d1f60370fef10105fa2faae0126114a169c64845d6126c981565b604051601281526020016102b4565b6102f8610892565b61038a61089b565b6040516102b49190613193565b6102c56109e7565b6103346103ad3660046130e3565b6109f6565b67016345785d8a00006102f8565b6102f8610a43565b6102f86103d63660046131f3565b610a76565b6102f86103e9366004613291565b610b21565b6102f86103fc3660046131f3565b610c02565b610409610c1f565b604080519283526020830191909152016102b4565b610426610cc1565b6040516102b4979695949392919061335c565b6040516001600160a01b037f00000000000000000000000000000000000000000000000000000000000000001681526020016102b4565b6102c5610d1f565b610334335f90815260026020526040902080546001019055565b6102f86104a03660046133d7565b610d31565b6102a86104b3366004612f2b565b610d70565b6104c0610de8565b6040516102b49190613426565b6104d5610e73565b6040516102b4949392919061344c565b6104ed610f2b565b6040516102b49190613506565b6709b6e64a8ec600006102f8565b610510610fb6565b6040516102b49190613518565b6509184e72a0006102f8565b6102f8611259565b61033461053f366004613596565b6112a7565b6102f8610552366004613607565b6114a2565b6104ed61155c565b60606003805461056e90613633565b80601f016020809104026020016040519081016040528092919081815260200182805461059a90613633565b80156105e55780601f106105bc576101008083540402835291602001916105e5565b820191905f5260205f20905b8154815290600101906020018083116105c857829003601f168201915b5050505050905090565b60405163e1f21c6760e01b81523360048201526001600160a01b038381166024830152604482018390525f917f00000000000000000000000000000000000000000000000000000000000000009091169063e1f21c67906064015b6020604051808303815f875af1158015610666573d5f803e3d5ffd5b505050506040513d601f19601f8201168201806040525081019061068a919061367a565b50600190505b92915050565b5f6106c38484815181106106ac576106ac613693565b60200260200101516106bd85611566565b84611710565b949350505050565b6040517fe4dc2aa40000000000000000000000000000000000000000000000000000000081523060048201525f907f00000000000000000000000000000000000000000000000000000000000000006001600160a01b03169063e4dc2aa4906024015b602060405180830381865afa158015610749573d5f803e3d5ffd5b505050506040513d601f19601f8201168201806040525081019061076d91906136a7565b905090565b6040517f15dacbea0000000000000000000000000000000000000000000000000000000081523360048201526001600160a01b0384811660248301528381166044830152606482018390525f917f0000000000000000000000000000000000000000000000000000000000000000909116906315dacbea906084016020604051808303815f875af1158015610809573d5f803e3d5ffd5b505050506040513d601f19601f8201168201806040525081019061082d919061367a565b506001949350505050565b610840611761565b816001600160a01b0316836001600160a01b03167fddf252ad1be2c89b69c2b068fc378daa952ba7f163c4a11628f55a4df523b3ef8360405161088591815260200190565b60405180910390a3505050565b5f61076d6117c7565b6108bf60405180606001604052806060815260200160608152602001606081525090565b60405163ca4f280360e01b81523060048201527f00000000000000000000000000000000000000000000000000000000000000006001600160a01b03169063ca4f2803906024015f60405180830381865afa158015610920573d5f803e3d5ffd5b505050506040513d5f823e601f3d908101601f191682016040526109479190810190613723565b8152604051633f1b0def60e11b81523060048201527f00000000000000000000000000000000000000000000000000000000000000006001600160a01b031690637e361bde906024015f60405180830381865afa1580156109aa573d5f803e3d5ffd5b505050506040513d5f823e601f3d908101601f191682016040526109d191908101906137b1565b5060208201526109df6118f0565b604082015290565b60606005805461056e90613633565b6109fe611761565b816001600160a01b0316836001600160a01b03167f8c5be1e5ebec7d5bd14f71427d1e84f3dd0314c0f7b2291e5b200ac8c7c3b9258360405161088591815260200190565b5f6040517f18e79a2000000000000000000000000000000000000000000000000000000000815260040160405180910390fd5b6040517ff7888aec0000000000000000000000000000000000000000000000000000000081523060048201526001600160a01b0382811660248301525f917f00000000000000000000000000000000000000000000000000000000000000009091169063f7888aec90604401602060405180830381865afa158015610afd573d5f803e3d5ffd5b505050506040513d601f19601f8201168201806040525081019061069091906136a7565b5f610b2a611761565b5f8260400151836060015181518110610b4557610b45613693565b602002602001015190505f8360400151846080015181518110610b6a57610b6a613693565b602002602001015190505f6001811115610b8657610b86613438565b84516001811115610b9957610b99613438565b03610bd3575f610bc883610bb08760600151611566565b84610bbe8960800151611566565b8960200151611b94565b9350610bfd92505050565b5f610bc883610be58760600151611566565b84610bf38960800151611566565b8960200151611c3c565b919050565b6001600160a01b0381165f90815260026020526040812054610690565b60405163f29486a160e01b81523060048201525f90819081906001600160a01b037f0000000000000000000000000000000000000000000000000000000000000000169063f29486a1906024016101a060405180830381865afa158015610c88573d5f803e3d5ffd5b505050506040513d601f19601f82011682018060405250810190610cac91906138b6565b90508060400151925080606001519150509091565b5f6060805f805f6060610cd2611cd8565b610cda611d04565b604080515f808252602082019092527f0f000000000000000000000000000000000000000000000000000000000000009b939a50919850469750309650945092509050565b60606004805461056e90613633565b50565b5f612e7081836001811115610d4857610d48613438565b14610d5557611d31610d59565b611dd85b90506106c3610d666118f0565b858363ffffffff16565b6040517fbeabacc80000000000000000000000000000000000000000000000000000000081523360048201526001600160a01b038381166024830152604482018390525f917f00000000000000000000000000000000000000000000000000000000000000009091169063beabacc89060640161064a565b60405163ca4f280360e01b81523060048201526060907f00000000000000000000000000000000000000000000000000000000000000006001600160a01b03169063ca4f2803906024015f60405180830381865afa158015610e4c573d5f803e3d5ffd5b505050506040513d5f823e601f3d908101601f1916820160405261076d9190810190613723565b6040517f67e0e0760000000000000000000000000000000000000000000000000000000081523060048201526060908190819081906001600160a01b037f000000000000000000000000000000000000000000000000000000000000000016906367e0e076906024015f60405180830381865afa158015610ef6573d5f803e3d5ffd5b505050506040513d5f823e601f3d908101601f19168201604052610f1d919081019061396c565b935093509350935090919293565b6040516329ae7ec560e11b81523060048201526060907f00000000000000000000000000000000000000000000000000000000000000006001600160a01b03169063535cfd8a906024015f60405180830381865afa158015610f8f573d5f803e3d5ffd5b505050506040513d5f823e601f3d908101601f1916820160405261076d9190810190613aa9565b610ff76040518060e0016040528060608152602001606081526020015f81526020015f81526020015f151581526020015f151581526020015f151581525090565b6040516329ae7ec560e11b81523060048201527f00000000000000000000000000000000000000000000000000000000000000006001600160a01b03169063535cfd8a906024015f60405180830381865afa158015611058573d5f803e3d5ffd5b505050506040513d5f823e601f3d908101601f1916820160405261107f9190810190613aa9565b8152604051633f1b0def60e11b81523060048201527f00000000000000000000000000000000000000000000000000000000000000006001600160a01b031690637e361bde906024015f60405180830381865afa1580156110e2573d5f803e3d5ffd5b505050506040513d5f823e601f3d908101601f1916820160405261110991908101906137b1565b60208301525060405163b45090f960e01b81523060048201527f00000000000000000000000000000000000000000000000000000000000000006001600160a01b03169063b45090f990602401602060405180830381865afa158015611171573d5f803e3d5ffd5b505050506040513d601f19601f8201168201806040525081019061119591906136a7565b60408201526111a26106cb565b606082015260405163f29486a160e01b81523060048201525f907f00000000000000000000000000000000000000000000000000000000000000006001600160a01b03169063f29486a1906024016101a060405180830381865afa15801561120c573d5f803e3d5ffd5b505050506040513d601f19601f8201168201806040525081019061123091906138b6565b60e081015115156080840152610100810151151560a08401526101200151151560c08301525090565b60405163b45090f960e01b81523060048201525f907f00000000000000000000000000000000000000000000000000000000000000006001600160a01b03169063b45090f99060240161072e565b834211156112e9576040517f62791302000000000000000000000000000000000000000000000000000000008152600481018590526024015b60405180910390fd5b5f7f6e71edae12b1b97f4d1f60370fef10105fa2faae0126114a169c64845d6126c98888886113348c6001600160a01b03165f90815260026020526040902080546001810190915590565b6040805160208101969096526001600160a01b0394851690860152929091166060840152608083015260a082015260c0810186905260e0016040516020818303038152906040528051906020012090505f61138e82611e45565b90505f61139d82878787611e8c565b9050896001600160a01b0316816001600160a01b0316146113fd576040517f4b800e460000000000000000000000000000000000000000000000000000000081526001600160a01b0380831660048301528b1660248201526044016112e0565b60405163e1f21c6760e01b81526001600160a01b038b811660048301528a81166024830152604482018a90527f0000000000000000000000000000000000000000000000000000000000000000169063e1f21c67906064016020604051808303815f875af1158015611471573d5f803e3d5ffd5b505050506040513d601f19601f82011682018060405250810190611495919061367a565b5050505050505050505050565b6040517f927da1050000000000000000000000000000000000000000000000000000000081523060048201526001600160a01b03838116602483015282811660448301525f917f00000000000000000000000000000000000000000000000000000000000000009091169063927da10590606401602060405180830381865afa158015611531573d5f803e3d5ffd5b505050506040513d601f19601f8201168201806040525081019061155591906136a7565b9392505050565b606061076d6118f0565b5f815f0361159557507f0000000000000000000000000000000000000000000000000000000000000000919050565b816001036115c457507f0000000000000000000000000000000000000000000000000000000000000000919050565b816002036115f357507f0000000000000000000000000000000000000000000000000000000000000000919050565b8160030361162257507f0000000000000000000000000000000000000000000000000000000000000000919050565b8160040361165157507f0000000000000000000000000000000000000000000000000000000000000000919050565b8160050361168057507f0000000000000000000000000000000000000000000000000000000000000000919050565b816006036116af57507f0000000000000000000000000000000000000000000000000000000000000000919050565b816007036116de57507f0000000000000000000000000000000000000000000000000000000000000000919050565b6040517fc1ab6dc100000000000000000000000000000000000000000000000000000000815260040160405180910390fd5b5f612e706001831161172457611eb8611728565b611ed85b90505f61174b611744670de0b6b3a7640000878563ffffffff16565b8590611eec565b90506117578682611f9f565b9695505050505050565b336001600160a01b037f000000000000000000000000000000000000000000000000000000000000000016146117c5576040517f089676d50000000000000000000000000000000000000000000000000000000081523360048201526024016112e0565b565b5f306001600160a01b037f00000000000000000000000000000000000000000000000000000000000000001614801561181f57507f000000000000000000000000000000000000000000000000000000000000000046145b1561184957507f000000000000000000000000000000000000000000000000000000000000000090565b61076d604080517f8b73c3c69bb8fe3d512ecc4cf759cc79239f7b179b0ffacaa9a75d522b39400f60208201527f0000000000000000000000000000000000000000000000000000000000000000918101919091527f000000000000000000000000000000000000000000000000000000000000000060608201524660808201523060a08201525f9060c00160405160208183030381529060405280519060200120905090565b60607f00000000000000000000000000000000000000000000000000000000000000005f8167ffffffffffffffff81111561192d5761192d612f55565b604051908082528060200260200182016040528015611956578160200160208202803683370190505b5090507f0000000000000000000000000000000000000000000000000000000000000000815f8151811061198c5761198c613693565b6020026020010181815250507f0000000000000000000000000000000000000000000000000000000000000000816001815181106119cc576119cc613693565b6020026020010181815250506002821115610690577f000000000000000000000000000000000000000000000000000000000000000081600281518110611a1557611a15613693565b6020026020010181815250506003821115610690577f000000000000000000000000000000000000000000000000000000000000000081600381518110611a5e57611a5e613693565b6020026020010181815250506004821115610690577f000000000000000000000000000000000000000000000000000000000000000081600481518110611aa757611aa7613693565b6020026020010181815250506005821115610690577f000000000000000000000000000000000000000000000000000000000000000081600581518110611af057611af0613693565b6020026020010181815250506006821115610690577f000000000000000000000000000000000000000000000000000000000000000081600681518110611b3957611b39613693565b6020026020010181815250506007821115610690577f000000000000000000000000000000000000000000000000000000000000000081600781518110611b8257611b82613693565b60200260200101818152505092915050565b5f611ba786670429d069189e0000611fcb565b821115611be0576040517f340a453300000000000000000000000000000000000000000000000000000000815260040160405180910390fd5b5f611beb8388613aef565b90505f611bf88883611ed8565b90505f611c058887611eb8565b90505f611c128383611eec565b9050611c2e670de0b6b3a7640000828103908310028990611fcb565b9a9950505050505050505050565b5f611c4f84670429d069189e0000611fcb565b821115611c88576040517f64590b9f00000000000000000000000000000000000000000000000000000000815260040160405180910390fd5b5f611c9d611c968487613b02565b8690611ed8565b90505f611caa8588611ed8565b90505f611cb78383611eec565b90505f611ccc670de0b6b3a764000083613b02565b9050611c2e8a82611f9f565b606061076d7f00000000000000000000000000000000000000000000000000000000000000005f611feb565b606061076d7f00000000000000000000000000000000000000000000000000000000000000006001611feb565b670de0b6b3a76400005f5b8351811015611d9e57611d94611d8d858381518110611d5d57611d5d613693565b6020026020010151858481518110611d7757611d77613693565b602002602001015161208d90919063ffffffff16565b8390611fcb565b9150600101611d3c565b50805f03610690576040517f2654368900000000000000000000000000000000000000000000000000000000815260040160405180910390fd5b670de0b6b3a76400005f5b8351811015611d9e57611e3b611e34858381518110611e0457611e04613693565b6020026020010151858481518110611e1e57611e1e613693565b6020026020010151611eec90919063ffffffff16565b8390611f9f565b9150600101611de3565b5f610690611e516117c7565b836040517f19010000000000000000000000000000000000000000000000000000000000008152600281019290925260228201526042902090565b5f805f80611e9c88888888612139565b925092509250611eac8282612201565b50909695505050505050565b5f80611ecc670de0b6b3a764000085613b15565b90506106c38382613b40565b5f61155583670de0b6b3a764000084612308565b5f670de0b6b3a76400008203611f03575081610690565b611f16670de0b6b3a76400006002613b15565b8203611f2d57611f268384611f9f565b9050610690565b611f40670de0b6b3a76400006004613b15565b8203611f65575f611f518485611f9f565b9050611f5d8182611f9f565b915050610690565b5f611f708484612366565b90505f611f7f82612710611f9f565b611f8a906001613aef565b9050611f968183613aef565b92505050610690565b5f80611fab8385613b15565b90506001670de0b6b3a76400006001830304018115150291505092915050565b5f80611fd78385613b15565b90506106c3670de0b6b3a764000082613b40565b606060ff8314611ffe57611f2683612504565b81805461200a90613633565b80601f016020809104026020016040519081016040528092919081815260200182805461203690613633565b80156120815780601f1061205857610100808354040283529160200191612081565b820191905f5260205f20905b81548152906001019060200180831161206457829003601f168201915b50505050509050610690565b5f670de0b6b3a764000082036120a4575081610690565b6120b7670de0b6b3a76400006002613b15565b82036120c757611f268384611fcb565b6120da670de0b6b3a76400006004613b15565b82036120f7575f6120eb8485611fcb565b9050611f5d8182611fcb565b5f6121028484612366565b90505f61211182612710611f9f565b61211c906001613aef565b905080821015612130575f92505050610690565b90039050610690565b5f80807f7fffffffffffffffffffffffffffffff5d576e7357a4501ddfe92f46681b20a084111561217257505f915060039050826121f7565b604080515f808252602082018084528a905260ff891692820192909252606081018790526080810186905260019060a0016020604051602081039080840390855afa1580156121c3573d5f803e3d5ffd5b5050604051601f1901519150506001600160a01b0381166121ee57505f9250600191508290506121f7565b92505f91508190505b9450945094915050565b5f82600381111561221457612214613438565b0361221d575050565b600182600381111561223157612231613438565b03612268576040517ff645eedf00000000000000000000000000000000000000000000000000000000815260040160405180910390fd5b600282600381111561227c5761227c613438565b036122b6576040517ffce698f7000000000000000000000000000000000000000000000000000000008152600481018290526024016112e0565b60038260038111156122ca576122ca613438565b03612304576040517fd78bce0c000000000000000000000000000000000000000000000000000000008152600481018290526024016112e0565b5050565b5f815f03612342576040517f0a0c22c700000000000000000000000000000000000000000000000000000000815260040160405180910390fd5b5f61234d8486613b15565b9050600183600183030401811515029150509392505050565b5f815f0361237d5750670de0b6b3a7640000610690565b825f0361238b57505f610690565b60ff83901c156123c7576040517f022701e000000000000000000000000000000000000000000000000000000000815260040160405180910390fd5b826123fb68056bc75e2d631000007f4000000000000000000000000000000000000000000000000000000000000000613b40565b8310612433576040517fd831731100000000000000000000000000000000000000000000000000000000815260040160405180910390fd5b825f670c7d713b49da0000831380156124535750670f43fc2c04ee000083125b15612489575f61246284612541565b9050670de0b6b3a764000080820784020583670de0b6b3a764000083050201915050612497565b8161249384612667565b0290505b670de0b6b3a76400009005680238fd42c5cf03ffff1981128015906124c5575068070c1cc73b00c800008113155b6124fb576040517fa2f9f7e300000000000000000000000000000000000000000000000000000000815260040160405180910390fd5b61175781612a19565b60605f61251083612e30565b6040805160208082528183019092529192505f91906020820181803683375050509182525060208101929092525090565b670de0b6b3a7640000025f806ec097ce7bc90715b34b9f1000000000808401906ec097ce7bc90715b34b9f0fffffffff198501028161258257612582613b2c565b0590505f6ec097ce7bc90715b34b9f100000000082800205905081806ec097ce7bc90715b34b9f100000000081840205915060038205016ec097ce7bc90715b34b9f100000000082840205915060058205016ec097ce7bc90715b34b9f100000000082840205915060078205016ec097ce7bc90715b34b9f100000000082840205915060098205016ec097ce7bc90715b34b9f1000000000828402059150600b8205016ec097ce7bc90715b34b9f1000000000828402059150600d8205016ec097ce7bc90715b34b9f1000000000828402059150600f82050160020295945050505050565b5f80670de0b6b3a764000083121561269f57826ec097ce7bc90715b34b9f10000000008161269757612697613b2c565b059250600190505b5f7e1600ef3172e58d2e933ec884fde10064c63b5372d805e203c000000000000084126126ef57770195e54c5dd42177f53a27172fa9ec630262827000000000840593506806f05b59d3b2000000015b73011798004d755d3c8bc8e03204cf44619e0000008412612727576b1425982cf597cd205cef7380840593506803782dace9d9000000015b606493840293026e01855144814a7ff805980ff0084000841261276f576e01855144814a7ff805980ff008400068056bc75e2d63100000850205935068ad78ebc5ac62000000015b6b02df0ab5a80a22c61ab5a70084126127aa576b02df0ab5a80a22c61ab5a70068056bc75e2d6310000085020593506856bc75e2d631000000015b693f1fce3da636ea5cf85084126127e157693f1fce3da636ea5cf85068056bc75e2d631000008502059350682b5e3af16b18800000015b690127fa27722cc06cc5e2841261281857690127fa27722cc06cc5e268056bc75e2d6310000085020593506815af1d78b58c400000015b68280e60114edb805d03841261284d5768280e60114edb805d0368056bc75e2d631000008502059350680ad78ebc5ac6200000015b680ebc5fb41746121110841261287857680ebc5fb4174612111068056bc75e2d631000009485020593015b6808f00f760a4b2db55d84126128ad576808f00f760a4b2db55d68056bc75e2d6310000085020593506802b5e3af16b1880000015b6806f5f177578893793784126128e2576806f5f177578893793768056bc75e2d63100000850205935068015af1d78b58c40000015b6806248f33704b2866038412612916576806248f33704b28660368056bc75e2d63100000850205935067ad78ebc5ac620000015b6805c548670b9510e7ac841261294a576805c548670b9510e7ac68056bc75e2d6310000085020593506756bc75e2d6310000015b5f68056bc75e2d63100000850168056bc75e2d63100000808703028161297257612972613b2c565b0590505f68056bc75e2d63100000828002059050818068056bc75e2d63100000818402059150600382050168056bc75e2d63100000828402059150600582050168056bc75e2d63100000828402059150600782050168056bc75e2d63100000828402059150600982050168056bc75e2d63100000828402059150600b8205016002025f606486830105905086612a085780612a0c565b805f035b9998505050505050505050565b5f680238fd42c5cf03ffff198212158015612a3d575068070c1cc73b00c800008213155b612a73576040517fd4794efd00000000000000000000000000000000000000000000000000000000815260040160405180910390fd5b5f80831215612a8657825f039250600190505b5f6806f05b59d3b20000008412612ac557506806f05b59d3b1ffffff1990920191770195e54c5dd42177f53a27172fa9ec630262827000000000612afb565b6803782dace9d90000008412612af757506803782dace9d8ffffff19909201916b1425982cf597cd205cef7380612afb565b5060015b6064939093029268056bc75e2d6310000068ad78ebc5ac620000008512612b4b5768ad78ebc5ac61ffffff199094019368056bc75e2d631000006e01855144814a7ff805980ff008400082020590505b6856bc75e2d6310000008512612b87576856bc75e2d630ffffff199094019368056bc75e2d631000006b02df0ab5a80a22c61ab5a70082020590505b682b5e3af16b188000008512612bc157682b5e3af16b187fffff199094019368056bc75e2d63100000693f1fce3da636ea5cf85082020590505b6815af1d78b58c4000008512612bfb576815af1d78b58c3fffff199094019368056bc75e2d63100000690127fa27722cc06cc5e282020590505b680ad78ebc5ac62000008512612c3457680ad78ebc5ac61fffff199094019368056bc75e2d6310000068280e60114edb805d0382020590505b68056bc75e2d631000008512612c6d5768056bc75e2d630fffff199094019368056bc75e2d63100000680ebc5fb4174612111082020590505b6802b5e3af16b18800008512612ca6576802b5e3af16b187ffff199094019368056bc75e2d631000006808f00f760a4b2db55d82020590505b68015af1d78b58c400008512612cdf5768015af1d78b58c3ffff199094019368056bc75e2d631000006806f5f177578893793782020590505b68056bc75e2d631000008581019086906002908280020505918201919050600368056bc75e2d631000008883020505918201919050600468056bc75e2d631000008883020505918201919050600568056bc75e2d631000008883020505918201919050600668056bc75e2d631000008883020505918201919050600768056bc75e2d631000008883020505918201919050600868056bc75e2d631000008883020505918201919050600968056bc75e2d631000008883020505918201919050600a68056bc75e2d631000008883020505918201919050600b68056bc75e2d631000008883020505918201919050600c68056bc75e2d6310000088830205059182019190505f606468056bc75e2d6310000085850205860205905085612e045780612e24565b806ec097ce7bc90715b34b9f100000000081612e2257612e22613b2c565b055b98975050505050505050565b5f60ff8216601f811115610690576040517fb3512b0c00000000000000000000000000000000000000000000000000000000815260040160405180910390fd5b6117c5613b5f565b5f60208284031215612e88575f80fd5b81357fffffffff0000000000000000000000000000000000000000000000000000000081168114611555575f80fd5b5f81518084525f5b81811015612edb57602081850181015186830182015201612ebf565b505f602082860101526020601f19601f83011685010191505092915050565b602081525f6115556020830184612eb7565b6001600160a01b0381168114610d2e575f80fd5b8035610bfd81612f0c565b5f8060408385031215612f3c575f80fd5b8235612f4781612f0c565b946020939093013593505050565b634e487b7160e01b5f52604160045260245ffd5b60405160e0810167ffffffffffffffff81118282101715612f8c57612f8c612f55565b60405290565b604051610140810167ffffffffffffffff81118282101715612f8c57612f8c612f55565b6040516060810167ffffffffffffffff81118282101715612f8c57612f8c612f55565b604051601f8201601f1916810167ffffffffffffffff8111828210171561300257613002612f55565b604052919050565b5f67ffffffffffffffff82111561302357613023612f55565b5060051b60200190565b5f82601f83011261303c575f80fd5b8135602061305161304c8361300a565b612fd9565b8083825260208201915060208460051b870101935086841115613072575f80fd5b602086015b8481101561308e5780358352918301918301613077565b509695505050505050565b5f805f606084860312156130ab575f80fd5b833567ffffffffffffffff8111156130c1575f80fd5b6130cd8682870161302d565b9660208601359650604090950135949350505050565b5f805f606084860312156130f5575f80fd5b833561310081612f0c565b9250602084013561311081612f0c565b929592945050506040919091013590565b5f815180845260208085019450602084015f5b838110156131595781516001600160a01b031687529582019590820190600101613134565b509495945050505050565b5f815180845260208085019450602084015f5b8381101561315957815187529582019590820190600101613177565b602081525f8251606060208401526131ae6080840182613121565b90506020840151601f19808584030160408601526131cc8383613164565b92506040860151915080858403016060860152506131ea8282613164565b95945050505050565b5f60208284031215613203575f80fd5b813561155581612f0c565b60028110610d2e575f80fd5b8035610bfd8161320e565b5f82601f830112613234575f80fd5b813567ffffffffffffffff81111561324e5761324e612f55565b613261601f8201601f1916602001612fd9565b818152846020838601011115613275575f80fd5b816020850160208301375f918101602001919091529392505050565b5f602082840312156132a1575f80fd5b813567ffffffffffffffff808211156132b8575f80fd5b9083019060e082860312156132cb575f80fd5b6132d3612f69565b6132dc8361321a565b8152602083013560208201526040830135828111156132f9575f80fd5b6133058782860161302d565b604083015250606083013560608201526080830135608082015261332b60a08401612f20565b60a082015260c083013582811115613341575f80fd5b61334d87828601613225565b60c08301525095945050505050565b7fff000000000000000000000000000000000000000000000000000000000000008816815260e060208201525f61339660e0830189612eb7565b82810360408401526133a88189612eb7565b90508660608401526001600160a01b03861660808401528460a084015282810360c0840152611c2e8185613164565b5f80604083850312156133e8575f80fd5b823567ffffffffffffffff8111156133fe575f80fd5b61340a8582860161302d565b925050602083013561341b8161320e565b809150509250929050565b602081525f6115556020830184613121565b634e487b7160e01b5f52602160045260245ffd5b608081525f61345e6080830187613121565b8281036020848101919091528651808352878201928201905f5b818110156134d15784518051600281106134a057634e487b7160e01b5f52602160045260245ffd5b8452808501516001600160a01b03168585015260409081015115159084015293830193606090920191600101613478565b505084810360408601526134e58188613164565b9250505082810360608401526134fb8185613164565b979650505050505050565b602081525f6115556020830184613164565b602081525f825160e06020840152613534610100840182613164565b90506020840151601f198483030160408501526135518282613164565b91505060408401516060840152606084015160808401526080840151151560a084015260a0840151151560c084015260c0840151151560e08401528091505092915050565b5f805f805f805f60e0888a0312156135ac575f80fd5b87356135b781612f0c565b965060208801356135c781612f0c565b95506040880135945060608801359350608088013560ff811681146135ea575f80fd5b9699959850939692959460a0840135945060c09093013592915050565b5f8060408385031215613618575f80fd5b823561362381612f0c565b9150602083013561341b81612f0c565b600181811c9082168061364757607f821691505b60208210810361366557634e487b7160e01b5f52602260045260245ffd5b50919050565b80518015158114610bfd575f80fd5b5f6020828403121561368a575f80fd5b6115558261366b565b634e487b7160e01b5f52603260045260245ffd5b5f602082840312156136b7575f80fd5b5051919050565b5f82601f8301126136cd575f80fd5b815160206136dd61304c8361300a565b8083825260208201915060208460051b8701019350868411156136fe575f80fd5b602086015b8481101561308e57805161371681612f0c565b8352918301918301613703565b5f60208284031215613733575f80fd5b815167ffffffffffffffff811115613749575f80fd5b6106c3848285016136be565b5f82601f830112613764575f80fd5b8151602061377461304c8361300a565b8083825260208201915060208460051b870101935086841115613795575f80fd5b602086015b8481101561308e578051835291830191830161379a565b5f80604083850312156137c2575f80fd5b825167ffffffffffffffff808211156137d9575f80fd5b6137e586838701613755565b935060208501519150808211156137fa575f80fd5b5061380785828601613755565b9150509250929050565b5f60808284031215613821575f80fd5b6040516080810181811067ffffffffffffffff8211171561384457613844612f55565b6040529050806138538361366b565b81526138616020840161366b565b60208201526138726040840161366b565b60408201526138836060840161366b565b60608201525092915050565b805164ffffffffff81168114610bfd575f80fd5b805163ffffffff81168114610bfd575f80fd5b5f6101a082840312156138c7575f80fd5b6138cf612f92565b6138d98484613811565b81526080830151602082015260a0830151604082015260c0830151606082015261390560e0840161388f565b60808201526101006139188185016138a3565b60a083015261012061392b81860161366b565b60c084015261393d610140860161366b565b60e084015261394f610160860161366b565b82840152613960610180860161366b565b90830152509392505050565b5f805f806080858703121561397f575f80fd5b845167ffffffffffffffff80821115613996575f80fd5b6139a2888389016136be565b95506020915081870151818111156139b8575f80fd5b8701601f810189136139c8575f80fd5b80516139d661304c8261300a565b8181526060918202830185019185820191908c8411156139f4575f80fd5b938601935b83851015613a555780858e031215613a0f575f80fd5b613a17612fb6565b8551613a228161320e565b815285880151613a3181612f0c565b818901526040613a4287820161366b565b90820152835293840193918601916139f9565b5060408b0151909850945050505080821115613a6f575f80fd5b613a7b88838901613755565b93506060870151915080821115613a90575f80fd5b50613a9d87828801613755565b91505092959194509250565b5f60208284031215613ab9575f80fd5b815167ffffffffffffffff811115613acf575f80fd5b6106c384828501613755565b634e487b7160e01b5f52601160045260245ffd5b8082018082111561069057610690613adb565b8181038181111561069057610690613adb565b808202811582820484141761069057610690613adb565b634e487b7160e01b5f52601260045260245ffd5b5f82613b5a57634e487b7160e01b5f52601260045260245ffd5b500490565b634e487b7160e01b5f52605160045260245ffdfea26469706673582212206bb415e34df715fbad342a1b37d9210e884ff6402e5f7be32d09a7bfbb1dcc4164736f6c63430008180033","linkReferences":{}},"methodIdentifiers":{"DOMAIN_SEPARATOR()":"3644e515","PERMIT_TYPEHASH()":"30adf81f","allowance(address,address)":"dd62ed3e","approve(address,uint256)":"095ea7b3","balanceOf(address)":"70a08231","computeBalance(uint256[],uint256,uint256)":"16a0b3e0","computeInvariant(uint256[],uint8)":"984de9e8","decimals()":"313ce567","eip712Domain()":"84b0196e","emitApproval(address,address,uint256)":"5687f2b8","emitTransfer(address,address,uint256)":"23de6651","getAggregateFeePercentages()":"81fa807c","getCurrentLiveBalances()":"b156aa0a","getMaximumInvariantRatio()":"273c1adf","getMaximumSwapFeePercentage()":"654cf15d","getMinimumInvariantRatio()":"b677fa56","getMinimumSwapFeePercentage()":"ce20ece7","getNormalizedWeights()":"f89f27ed","getRate()":"679aefce","getStaticSwapFeePercentage()":"d335b0cf","getTokenInfo()":"abb1dc44","getTokens()":"aa6ca808","getVault()":"8d928af8","getWeightedPoolDynamicData()":"c0bc6f33","getWeightedPoolImmutableData()":"53b79bd7","name()":"06fdde03","nonces(address)":"7ecebe00","onSwap((uint8,uint256,uint256[],uint256,uint256,address,bytes))":"72c98186","permit(address,address,uint256,uint256,uint8,bytes32,bytes32)":"d505accf","revokePermit()":"979ac702","supportsInterface(bytes4)":"01ffc9a7","symbol()":"95d89b41","totalSupply()":"18160ddd","transfer(address,uint256)":"a9059cbb","transferFrom(address,address,uint256)":"23b872dd","version()":"54fd4d50"},"id":42}