{"abi":[{"type":"function","name":"allowance","inputs":[{"name":"pool","type":"address","internalType":"address"},{"name":"owner","type":"address","internalType":"address"},{"name":"spender","type":"address","internalType":"address"}],"outputs":[{"name":"","type":"uint256","internalType":"uint256"}],"stateMutability":"view"},{"type":"function","name":"balanceOf","inputs":[{"name":"pool","type":"address","internalType":"address"},{"name":"account","type":"address","internalType":"address"}],"outputs":[{"name":"","type":"uint256","internalType":"uint256"}],"stateMutability":"view"},{"type":"function","name":"getPoolMinimumTotalSupply","inputs":[],"outputs":[{"name":"","type":"uint256","internalType":"uint256"}],"stateMutability":"pure"},{"type":"function","name":"manualApprove","inputs":[{"name":"pool","type":"address","internalType":"address"},{"name":"owner","type":"address","internalType":"address"},{"name":"spender","type":"address","internalType":"address"},{"name":"amount","type":"uint256","internalType":"uint256"}],"outputs":[],"stateMutability":"nonpayable"},{"type":"function","name":"manualBurn","inputs":[{"name":"pool","type":"address","internalType":"address"},{"name":"from","type":"address","internalType":"address"},{"name":"amount","type":"uint256","internalType":"uint256"}],"outputs":[],"stateMutability":"nonpayable"},{"type":"function","name":"manualEnsureMinimumTotalSupply","inputs":[{"name":"newTotalSupply","type":"uint256","internalType":"uint256"}],"outputs":[],"stateMutability":"pure"},{"type":"function","name":"manualMint","inputs":[{"name":"pool","type":"address","internalType":"address"},{"name":"to","type":"address","internalType":"address"},{"name":"amount","type":"uint256","internalType":"uint256"}],"outputs":[],"stateMutability":"nonpayable"},{"type":"function","name":"manualMintMinimumSupplyReserve","inputs":[{"name":"pool","type":"address","internalType":"address"}],"outputs":[],"stateMutability":"nonpayable"},{"type":"function","name":"manualQueryModeBalanceIncrease","inputs":[{"name":"pool","type":"address","internalType":"address"},{"name":"to","type":"address","internalType":"address"},{"name":"amount","type":"uint256","internalType":"uint256"}],"outputs":[],"stateMutability":"nonpayable"},{"type":"function","name":"manualSpendAllowance","inputs":[{"name":"pool","type":"address","internalType":"address"},{"name":"owner","type":"address","internalType":"address"},{"name":"spender","type":"address","internalType":"address"},{"name":"amount","type":"uint256","internalType":"uint256"}],"outputs":[],"stateMutability":"nonpayable"},{"type":"function","name":"manualTransfer","inputs":[{"name":"pool","type":"address","internalType":"address"},{"name":"from","type":"address","internalType":"address"},{"name":"to","type":"address","internalType":"address"},{"name":"amount","type":"uint256","internalType":"uint256"}],"outputs":[],"stateMutability":"nonpayable"},{"type":"function","name":"totalSupply","inputs":[{"name":"pool","type":"address","internalType":"address"}],"outputs":[{"name":"","type":"uint256","internalType":"uint256"}],"stateMutability":"view"},{"type":"event","name":"Approval","inputs":[{"name":"pool","type":"address","indexed":true,"internalType":"address"},{"name":"owner","type":"address","indexed":true,"internalType":"address"},{"name":"spender","type":"address","indexed":true,"internalType":"address"},{"name":"value","type":"uint256","indexed":false,"internalType":"uint256"}],"anonymous":false},{"type":"event","name":"Transfer","inputs":[{"name":"pool","type":"address","indexed":true,"internalType":"address"},{"name":"from","type":"address","indexed":true,"internalType":"address"},{"name":"to","type":"address","indexed":true,"internalType":"address"},{"name":"value","type":"uint256","indexed":false,"internalType":"uint256"}],"anonymous":false},{"type":"error","name":"ERC20InsufficientAllowance","inputs":[{"name":"spender","type":"address","internalType":"address"},{"name":"allowance","type":"uint256","internalType":"uint256"},{"name":"needed","type":"uint256","internalType":"uint256"}]},{"type":"error","name":"ERC20InsufficientBalance","inputs":[{"name":"sender","type":"address","internalType":"address"},{"name":"balance","type":"uint256","internalType":"uint256"},{"name":"needed","type":"uint256","internalType":"uint256"}]},{"type":"error","name":"ERC20InvalidApprover","inputs":[{"name":"approver","type":"address","internalType":"address"}]},{"type":"error","name":"ERC20InvalidReceiver","inputs":[{"name":"receiver","type":"address","internalType":"address"}]},{"type":"error","name":"ERC20InvalidSender","inputs":[{"name":"sender","type":"address","internalType":"address"}]},{"type":"error","name":"ERC20InvalidSpender","inputs":[{"name":"spender","type":"address","internalType":"address"}]},{"type":"error","name":"NotStaticCall","inputs":[]},{"type":"error","name":"PoolTotalSupplyTooLow","inputs":[{"name":"totalSupply","type":"uint256","internalType":"uint256"}]}],"bytecode":{"object":"0x608060405234801561000f575f80fd5b50610c658061001d5f395ff3fe608060405234801561000f575f80fd5b50600436106100cf575f3560e01c8063ad4fb0af1161007d578063e4dc2aa411610058578063e4dc2aa414610188578063f7888aec1461019b578063fad565fa146101d1575f80fd5b8063ad4fb0af14610159578063ba8f83911461016c578063d0965a6b1461017f575f80fd5b8063517cbc13116100ad578063517cbc131461010e578063927da10514610121578063a554d0c714610146575f80fd5b80631744ee24146100d357806324822fc0146100e85780633f5b0578146100fb575b5f80fd5b6100e66100e1366004610aba565b6101e4565b005b6100e66100f6366004610aba565b6101f4565b6100e6610109366004610af3565b6101ff565b6100e661011c366004610b0a565b61020b565b61013461012f366004610b23565b610214565b60405190815260200160405180910390f35b6100e6610154366004610b63565b61022a565b6100e6610167366004610b63565b61023c565b6100e661017a366004610aba565b610248565b620f4240610134565b610134610196366004610b0a565b610253565b6101346101a9366004610bab565b6001600160a01b039182165f9081526020818152604080832093909416825291909152205490565b6100e66101df366004610b63565b610272565b6101ef83838361027e565b505050565b6101ef83838361041b565b61020881610561565b50565b610208816105a1565b5f610220848484610699565b90505b9392505050565b610236848484846106f0565b50505050565b6102368484848461085b565b6101ef8383836108d2565b6001600160a01b0381165f908152600260205260408120545b92915050565b6102368484848461094a565b6001600160a01b0382166102b557604051634b637e8f60e11b81526001600160a01b03831660048201526024015b60405180910390fd5b6001600160a01b038084165f9081526020818152604080832093861683529290522054808211156103125760405163391434e360e21b81526001600160a01b038416600482015260248101829052604481018390526064016102ac565b6001600160a01b038085165f8181526020818152604080832094881683529381528382208686039055918152600290915290812054610352908490610c09565b905061035d81610561565b6001600160a01b038581165f818152600260209081526040808320869055518781529193881692917fd1398bee19313d6bf672ccb116e51f4a1a947e91c757907f51fbb5b5e56c698f910160405180910390a46040516323de665160e01b81526001600160a01b0385811660048301525f6024830152604482018590528616906323de6651906064015b5f604051808303815f87803b1580156103fe575f80fd5b505af1158015610410573d5f803e3d5ffd5b505050505050505050565b6001600160a01b03821661044d5760405163ec442f0560e01b81526001600160a01b03831660048201526024016102ac565b6001600160a01b0383165f90815260026020526040812054610470908390610c1c565b6001600160a01b038086165f9081526020818152604080832093881683529290522080548401905590506104a381610561565b6001600160a01b038481165f81815260026020908152604080832086905551868152938716939192917fd1398bee19313d6bf672ccb116e51f4a1a947e91c757907f51fbb5b5e56c698f910160405180910390a46040516323de665160e01b81525f60048201526001600160a01b038481166024830152604482018490528516906323de6651906064015b5f604051808303815f87803b158015610545575f80fd5b505af1158015610557573d5f803e3d5ffd5b5050505050505050565b620f4240811015610208576040517fd38d20fc000000000000000000000000000000000000000000000000000000008152600481018290526024016102ac565b6001600160a01b0381165f9081526002602052604081208054620f424092906105cb908490610c1c565b90915550506001600160a01b0381165f8181526020818152604080832083805282528083208054620f424090810190915590519081529192839290917fd1398bee19313d6bf672ccb116e51f4a1a947e91c757907f51fbb5b5e56c698f910160405180910390a46040516323de665160e01b81525f600482018190526024820152620f424060448201526001600160a01b038216906323de6651906064015f604051808303815f87803b158015610680575f80fd5b505af1158015610692573d5f803e3d5ffd5b5050505050565b5f816001600160a01b0316836001600160a01b0316036106bb57505f19610223565b506001600160a01b038084165f9081526001602090815260408083208685168452825280832093851683529290522054610223565b6001600160a01b03831661072257604051634b637e8f60e11b81526001600160a01b03841660048201526024016102ac565b6001600160a01b0382166107545760405163ec442f0560e01b81526001600160a01b03831660048201526024016102ac565b6001600160a01b038085165f9081526020818152604080832093871683529290522054808211156107b15760405163391434e360e21b81526001600160a01b038516600482015260248101829052604481018390526064016102ac565b6001600160a01b038581165f8181526020818152604080832089861680855290835281842088880390559488168084529281902080548801905551868152919392917fd1398bee19313d6bf672ccb116e51f4a1a947e91c757907f51fbb5b5e56c698f910160405180910390a46040516323de665160e01b81526001600160a01b0385811660048301528481166024830152604482018490528616906323de6651906064016103e7565b5f610867858585610699565b90505f19811461069257808211156108c4576040517ffb8f41b20000000000000000000000000000000000000000000000000000000081526001600160a01b038416600482015260248101829052604481018390526064016102ac565b61069285858585850361094a565b32155f0361090c576040517f67f84ab200000000000000000000000000000000000000000000000000000000815260040160405180910390fd5b6001600160a01b038084165f9081526020818152604080832093861683529290529081208054839290610940908490610c1c565b9091555050505050565b6001600160a01b038316610995576040517fe602df050000000000000000000000000000000000000000000000000000000081526001600160a01b03841660048201526024016102ac565b6001600160a01b0382166109e0576040517f94280d620000000000000000000000000000000000000000000000000000000081526001600160a01b03831660048201526024016102ac565b6001600160a01b038481165f81815260016020908152604080832088861680855290835281842095881680855295835292819020869055518581529192917fa0175360a15bca328baf7ea85c7b784d58b222a50d0ce760b10dba336d226a61910160405180910390a46040517f5687f2b80000000000000000000000000000000000000000000000000000000081526001600160a01b038481166004830152838116602483015260448201839052851690635687f2b89060640161052e565b80356001600160a01b0381168114610ab5575f80fd5b919050565b5f805f60608486031215610acc575f80fd5b610ad584610a9f565b9250610ae360208501610a9f565b9150604084013590509250925092565b5f60208284031215610b03575f80fd5b5035919050565b5f60208284031215610b1a575f80fd5b61022382610a9f565b5f805f60608486031215610b35575f80fd5b610b3e84610a9f565b9250610b4c60208501610a9f565b9150610b5a60408501610a9f565b90509250925092565b5f805f8060808587031215610b76575f80fd5b610b7f85610a9f565b9350610b8d60208601610a9f565b9250610b9b60408601610a9f565b9396929550929360600135925050565b5f8060408385031215610bbc575f80fd5b610bc583610a9f565b9150610bd360208401610a9f565b90509250929050565b7f4e487b71000000000000000000000000000000000000000000000000000000005f52601160045260245ffd5b8181038181111561026c5761026c610bdc565b8082018082111561026c5761026c610bdc56fea2646970667358221220d70b2dbfe0f9cab078ec90e0e0025b5c91b1574f02ed1052d4d6b0e9c378040c64736f6c63430008180033","linkReferences":{}},"methodIdentifiers":{"allowance(address,address,address)":"927da105","balanceOf(address,address)":"f7888aec","getPoolMinimumTotalSupply()":"d0965a6b","manualApprove(address,address,address,uint256)":"fad565fa","manualBurn(address,address,uint256)":"1744ee24","manualEnsureMinimumTotalSupply(uint256)":"3f5b0578","manualMint(address,address,uint256)":"24822fc0","manualMintMinimumSupplyReserve(address)":"517cbc13","manualQueryModeBalanceIncrease(address,address,uint256)":"ba8f8391","manualSpendAllowance(address,address,address,uint256)":"ad4fb0af","manualTransfer(address,address,address,uint256)":"a554d0c7","totalSupply(address)":"e4dc2aa4"},"id":109}