{"abi":[{"type":"constructor","inputs":[{"name":"vault","type":"address","internalType":"contract IVault"},{"name":"weth","type":"address","internalType":"contract IWETH"},{"name":"permit2","type":"address","internalType":"contract IPermit2"}],"stateMutability":"nonpayable"},{"type":"receive","stateMutability":"payable"},{"type":"function","name":"getSender","inputs":[],"outputs":[{"name":"","type":"address","internalType":"address"}],"stateMutability":"view"},{"type":"function","name":"multicall","inputs":[{"name":"data","type":"bytes[]","internalType":"bytes[]"}],"outputs":[{"name":"results","type":"bytes[]","internalType":"bytes[]"}],"stateMutability":"payable"},{"type":"function","name":"permitBatchAndCall","inputs":[{"name":"permitBatch","type":"tuple[]","internalType":"struct IRouterCommon.PermitApproval[]","components":[{"name":"token","type":"address","internalType":"address"},{"name":"owner","type":"address","internalType":"address"},{"name":"spender","type":"address","internalType":"address"},{"name":"amount","type":"uint256","internalType":"uint256"},{"name":"nonce","type":"uint256","internalType":"uint256"},{"name":"deadline","type":"uint256","internalType":"uint256"}]},{"name":"permitSignatures","type":"bytes[]","internalType":"bytes[]"},{"name":"permit2Batch","type":"tuple","internalType":"struct IAllowanceTransfer.PermitBatch","components":[{"name":"details","type":"tuple[]","internalType":"struct IAllowanceTransfer.PermitDetails[]","components":[{"name":"token","type":"address","internalType":"address"},{"name":"amount","type":"uint160","internalType":"uint160"},{"name":"expiration","type":"uint48","internalType":"uint48"},{"name":"nonce","type":"uint48","internalType":"uint48"}]},{"name":"spender","type":"address","internalType":"address"},{"name":"sigDeadline","type":"uint256","internalType":"uint256"}]},{"name":"permit2Signature","type":"bytes","internalType":"bytes"},{"name":"multicallData","type":"bytes[]","internalType":"bytes[]"}],"outputs":[{"name":"results","type":"bytes[]","internalType":"bytes[]"}],"stateMutability":"payable"},{"type":"error","name":"AddressEmptyCode","inputs":[{"name":"target","type":"address","internalType":"address"}]},{"type":"error","name":"EthTransfer","inputs":[]},{"type":"error","name":"FailedCall","inputs":[]},{"type":"error","name":"InsufficientBalance","inputs":[{"name":"balance","type":"uint256","internalType":"uint256"},{"name":"needed","type":"uint256","internalType":"uint256"}]},{"type":"error","name":"InsufficientEth","inputs":[]},{"type":"error","name":"SwapDeadline","inputs":[]}],"bytecode":{"object":"0x600c6101c09081526b2937baba32b921b7b6b6b7b760a11b6101e05261024060405260066102009081526539b2b73232b960d11b610220526200004391906200023c565b60a052604080518082018252600c81526b2937baba32b921b7b6b6b7b760a11b602080830191909152825180840190935260118352701a5cd4995d1d5c9b915d1a131bd8dad959607a1b908301526200009c916200023c565b60c05260408051808201909152601381527f63757272656e7453776170546f6b656e73496e000000000000000000000000006020820152620000de90620002b0565b6101205260408051808201909152601481527f63757272656e7453776170546f6b656e734f757400000000000000000000000060208201526200012190620002b0565b6101405260408051808201909152601981527f63757272656e7453776170546f6b656e496e416d6f756e74730000000000000060208201526200016490620002b0565b6101605260408051808201909152601a81527f63757272656e7453776170546f6b656e4f7574416d6f756e74730000000000006020820152620001a790620002b0565b6101805260408051808201909152601381527f736574746c6564546f6b656e416d6f756e7473000000000000000000000000006020820152620001ea90620002b0565b6101a052348015620001fa575f80fd5b5060405162001209380380620012098339810160408190526200021d9162000304565b6001600160a01b0392831660805290821660e0521661010052620003f6565b5f60ff5f1b19600184846040516020016200025992919062000384565b604051602081830303815290604052805190602001205f1c6200027d9190620003d6565b6040516020016200029091815260200190565b604051602081830303815290604052805190602001201690505b92915050565b5f620002aa604051806040016040526011815280602001702130ba31b42937baba32b921b7b6b6b7b760791b815250836200023c60201b60201c565b6001600160a01b038116811462000301575f80fd5b50565b5f805f6060848603121562000317575f80fd5b83516200032481620002ec565b60208501519093506200033781620002ec565b60408501519092506200034a81620002ec565b809150509250925092565b5f81515f5b818110156200037657602081850181015186830152016200035a565b505f93019283525090919050565b7f62616c616e6365722d6c6162732e76332e73746f726167652e0000000000000081525f620003b7601983018562000355565b601760f91b8152620003cd600182018562000355565b95945050505050565b81810381811115620002aa57634e487b7160e01b5f52601160045260245ffd5b60805160a05160c05160e05161010051610120516101405161016051610180516101a051610d8d6200047c5f395f50505f50505f50505f50505f50505f6102dc01525f604601525f818161037c01528181610488015261063301525f818160e5015281816104b1015281816104e90152818161051d015261059101525f5050610d8d5ff3fe608060405260043610610036575f3560e01c806319c6989f146100a35780635e01eb5a146100cc578063ac9650d814610110575f80fd5b3661009f57336001600160a01b037f0000000000000000000000000000000000000000000000000000000000000000161461009d576040517f0540ddf600000000000000000000000000000000000000000000000000000000815260040160405180910390fd5b005b5f80fd5b6100b66100b13660046108b4565b610123565b6040516100c391906109b6565b60405180910390f35b3480156100d7575f80fd5b506040516001600160a01b037f00000000000000000000000000000000000000000000000000000000000000005c1681526020016100c3565b6100b661011e366004610a2e565b610368565b60605f61012e6104e6565b90505f5b8a811015610298575f8a8a8381811061014d5761014d610a6d565b905060200281019061015f9190610a81565b8080601f0160208091040260200160405190810160405280939291908181526020018383808284375f9201829052509394506101a0925084915061054a9050565b90505f8e8e858181106101b5576101b5610a6d565b905060c002018036038101906101cb9190610afc565b8051602080830151606084015160a08501516040808901518951958a015191517fd505accf0000000000000000000000000000000000000000000000000000000081526001600160a01b0395861660048201523060248201526044810194909452606484019290925260ff909116608483015260a482019390935260c481019290925292935091169063d505accf9060e4015f604051808303815f87803b158015610274575f80fd5b505af1158015610286573d5f803e3d5ffd5b50505050505050806001019050610132565b505f6102a48880610b93565b90501115610345576040517f2a2d80d10000000000000000000000000000000000000000000000000000000081526001600160a01b037f00000000000000000000000000000000000000000000000000000000000000001690632a2d80d1906103179033908b908b908b90600401610c16565b5f604051808303815f87803b15801561032e575f80fd5b505af1158015610340573d5f803e3d5ffd5b505050505b61034f8484610368565b915061035a81610585565b509998505050505050505050565b60605f6103736104e6565b90506103a260017f00000000000000000000000000000000000000000000000000000000000000005b906105b8565b8267ffffffffffffffff8111156103bb576103bb610ac4565b6040519080825280602002602001820160405280156103ee57816020015b60608152602001906001900390816103d95790505b5091505f5b838110156104815761045c3086868481811061041157610411610a6d565b90506020028101906104239190610a81565b8080601f0160208091040260200160405190810160405280939291908181526020018383808284375f920191909152506105bf92505050565b83828151811061046e5761046e610a6d565b60209081029190910101526001016103f3565b506104ac5f7f000000000000000000000000000000000000000000000000000000000000000061039c565b6104d67f00000000000000000000000000000000000000000000000000000000000000005c610631565b6104df81610585565b5092915050565b5f7f00000000000000000000000000000000000000000000000000000000000000005c6001600160a01b03811661054657610541337f000000000000000000000000000000000000000000000000000000000000000061039c565b600191505b5090565b60408051606080820183525f808352602080840182815284860183815291870151958701519690930151948452949091529190911a90915290565b80156105b5576105b55f7f000000000000000000000000000000000000000000000000000000000000000061039c565b50565b80825d5050565b60605f80846001600160a01b0316846040516105db9190610d3c565b5f60405180830381855af49150503d805f8114610613576040519150601f19603f3d011682016040523d82523d5f602084013e610618565b606091505b5091509150610628858383610679565b95945050505050565b7f00000000000000000000000000000000000000000000000000000000000000005c1561065b5750565b478015610675576106756001600160a01b038316826106f6565b5050565b60608261068e57610689826107ae565b6106ef565b81511580156106a557506001600160a01b0384163b155b156106ec576040517f9996b3150000000000000000000000000000000000000000000000000000000081526001600160a01b03851660048201526024015b60405180910390fd5b50805b9392505050565b80471015610739576040517fcf479181000000000000000000000000000000000000000000000000000000008152476004820152602481018290526044016106e3565b5f826001600160a01b0316826040515f6040518083038185875af1925050503d805f8114610782576040519150601f19603f3d011682016040523d82523d5f602084013e610787565b606091505b50509050806107a95760405163d6bda27560e01b815260040160405180910390fd5b505050565b8051156107be5780518082602001fd5b60405163d6bda27560e01b815260040160405180910390fd5b5f8083601f8401126107e7575f80fd5b50813567ffffffffffffffff8111156107fe575f80fd5b60208301915083602060c083028501011115610818575f80fd5b9250929050565b5f8083601f84011261082f575f80fd5b50813567ffffffffffffffff811115610846575f80fd5b6020830191508360208260051b8501011115610818575f80fd5b5f60608284031215610870575f80fd5b50919050565b5f8083601f840112610886575f80fd5b50813567ffffffffffffffff81111561089d575f80fd5b602083019150836020828501011115610818575f80fd5b5f805f805f805f805f60a08a8c0312156108cc575f80fd5b893567ffffffffffffffff808211156108e3575f80fd5b6108ef8d838e016107d7565b909b50995060208c0135915080821115610907575f80fd5b6109138d838e0161081f565b909950975060408c013591508082111561092b575f80fd5b6109378d838e01610860565b965060608c013591508082111561094c575f80fd5b6109588d838e01610876565b909650945060808c0135915080821115610970575f80fd5b5061097d8c828d0161081f565b915080935050809150509295985092959850929598565b5f5b838110156109ae578181015183820152602001610996565b50505f910152565b5f602080830181845280855180835260408601915060408160051b87010192508387015f5b82811015610a2157878503603f1901845281518051808752610a02818989018a8501610994565b601f01601f1916959095018601945092850192908501906001016109db565b5092979650505050505050565b5f8060208385031215610a3f575f80fd5b823567ffffffffffffffff811115610a55575f80fd5b610a618582860161081f565b90969095509350505050565b634e487b7160e01b5f52603260045260245ffd5b5f808335601e19843603018112610a96575f80fd5b83018035915067ffffffffffffffff821115610ab0575f80fd5b602001915036819003821315610818575f80fd5b634e487b7160e01b5f52604160045260245ffd5b6001600160a01b03811681146105b5575f80fd5b8035610af781610ad8565b919050565b5f60c08284031215610b0c575f80fd5b60405160c0810181811067ffffffffffffffff82111715610b3b57634e487b7160e01b5f52604160045260245ffd5b604052610b4783610aec565b8152610b5560208401610aec565b6020820152610b6660408401610aec565b6040820152606083013560608201526080830135608082015260a083013560a08201528091505092915050565b5f808335601e19843603018112610ba8575f80fd5b83018035915067ffffffffffffffff821115610bc2575f80fd5b6020019150600781901b3603821315610818575f80fd5b803565ffffffffffff81168114610af7575f80fd5b81835281816020850137505f828201602090810191909152601f909101601f19169091010190565b5f60606001600160a01b03808816845260206060602086015260c085018835601e198a3603018112610c46575f80fd5b890160208101903567ffffffffffffffff811115610c62575f80fd5b8060071b3603821315610c73575f80fd5b60608881015291829052905f9060e088015b81831015610cf1578335610c9881610ad8565b8616815283850135610ca981610ad8565b8616818601526040610cbc858201610bd9565b65ffffffffffff8082168385015280610cd68b8901610bd9565b16848b01525050506080938401936001939093019201610c85565b610cfd60208d01610aec565b6001600160a01b03811660808b0152965060408c013560a08a015288810360408a0152610d2b818b8d610bee565b9d9c50505050505050505050505050565b5f8251610d4d818460208701610994565b919091019291505056fea26469706673582212205bbdc939404157ab59367d27f9ef4a3a0fb4760b5110710b0b77bbc8e50b1e6064736f6c63430008180033","linkReferences":{}},"methodIdentifiers":{"getSender()":"5e01eb5a","multicall(bytes[])":"ac9650d8","permitBatchAndCall((address,address,address,uint256,uint256,uint256)[],bytes[],((address,uint160,uint48,uint48)[],address,uint256),bytes,bytes[])":"19c6989f"},"id":84}