{"abi":[{"type":"function","name":"ADD_LIQUIDITY_CUSTOM_OFFSET","inputs":[],"outputs":[{"name":"","type":"uint8","internalType":"uint8"}],"stateMutability":"view"},{"type":"function","name":"AFTER_ADD_LIQUIDITY_OFFSET","inputs":[],"outputs":[{"name":"","type":"uint8","internalType":"uint8"}],"stateMutability":"view"},{"type":"function","name":"AFTER_INITIALIZE_OFFSET","inputs":[],"outputs":[{"name":"","type":"uint8","internalType":"uint8"}],"stateMutability":"view"},{"type":"function","name":"AFTER_REMOVE_LIQUIDITY_OFFSET","inputs":[],"outputs":[{"name":"","type":"uint8","internalType":"uint8"}],"stateMutability":"view"},{"type":"function","name":"AFTER_SWAP_OFFSET","inputs":[],"outputs":[{"name":"","type":"uint8","internalType":"uint8"}],"stateMutability":"view"},{"type":"function","name":"AGGREGATE_SWAP_FEE_OFFSET","inputs":[],"outputs":[{"name":"","type":"uint256","internalType":"uint256"}],"stateMutability":"view"},{"type":"function","name":"AGGREGATE_YIELD_FEE_OFFSET","inputs":[],"outputs":[{"name":"","type":"uint256","internalType":"uint256"}],"stateMutability":"view"},{"type":"function","name":"BEFORE_ADD_LIQUIDITY_OFFSET","inputs":[],"outputs":[{"name":"","type":"uint8","internalType":"uint8"}],"stateMutability":"view"},{"type":"function","name":"BEFORE_INITIALIZE_OFFSET","inputs":[],"outputs":[{"name":"","type":"uint8","internalType":"uint8"}],"stateMutability":"view"},{"type":"function","name":"BEFORE_REMOVE_LIQUIDITY_OFFSET","inputs":[],"outputs":[{"name":"","type":"uint8","internalType":"uint8"}],"stateMutability":"view"},{"type":"function","name":"BEFORE_SWAP_OFFSET","inputs":[],"outputs":[{"name":"","type":"uint8","internalType":"uint8"}],"stateMutability":"view"},{"type":"function","name":"DECIMAL_DIFF_BITLENGTH","inputs":[],"outputs":[{"name":"","type":"uint8","internalType":"uint8"}],"stateMutability":"view"},{"type":"function","name":"DECIMAL_SCALING_FACTORS_OFFSET","inputs":[],"outputs":[{"name":"","type":"uint256","internalType":"uint256"}],"stateMutability":"view"},{"type":"function","name":"DONATION_OFFSET","inputs":[],"outputs":[{"name":"","type":"uint8","internalType":"uint8"}],"stateMutability":"view"},{"type":"function","name":"DYNAMIC_SWAP_FEE_OFFSET","inputs":[],"outputs":[{"name":"","type":"uint8","internalType":"uint8"}],"stateMutability":"view"},{"type":"function","name":"ENABLE_HOOK_ADJUSTED_AMOUNTS_OFFSET","inputs":[],"outputs":[{"name":"","type":"uint8","internalType":"uint8"}],"stateMutability":"view"},{"type":"function","name":"PAUSE_WINDOW_END_TIME_OFFSET","inputs":[],"outputs":[{"name":"","type":"uint256","internalType":"uint256"}],"stateMutability":"view"},{"type":"function","name":"POOL_INITIALIZED_OFFSET","inputs":[],"outputs":[{"name":"","type":"uint8","internalType":"uint8"}],"stateMutability":"view"},{"type":"function","name":"POOL_PAUSED_OFFSET","inputs":[],"outputs":[{"name":"","type":"uint8","internalType":"uint8"}],"stateMutability":"view"},{"type":"function","name":"POOL_RECOVERY_MODE_OFFSET","inputs":[],"outputs":[{"name":"","type":"uint8","internalType":"uint8"}],"stateMutability":"view"},{"type":"function","name":"POOL_REGISTERED_OFFSET","inputs":[],"outputs":[{"name":"","type":"uint8","internalType":"uint8"}],"stateMutability":"view"},{"type":"function","name":"REMOVE_LIQUIDITY_CUSTOM_OFFSET","inputs":[],"outputs":[{"name":"","type":"uint8","internalType":"uint8"}],"stateMutability":"view"},{"type":"function","name":"STATIC_SWAP_FEE_OFFSET","inputs":[],"outputs":[{"name":"","type":"uint8","internalType":"uint8"}],"stateMutability":"view"},{"type":"function","name":"TIMESTAMP_BITLENGTH","inputs":[],"outputs":[{"name":"","type":"uint8","internalType":"uint8"}],"stateMutability":"view"},{"type":"function","name":"TOKEN_DECIMAL_DIFFS_BITLENGTH","inputs":[],"outputs":[{"name":"","type":"uint8","internalType":"uint8"}],"stateMutability":"view"},{"type":"function","name":"UNBALANCED_LIQUIDITY_OFFSET","inputs":[],"outputs":[{"name":"","type":"uint8","internalType":"uint8"}],"stateMutability":"view"}],"bytecode":{"object":"0x61083a610035600b8282823980515f1a60731461002957634e487b7160e01b5f525f60045260245ffd5b305f52607381538281f3fe73000000000000000000000000000000000000000030146080604052600436106101b0575f3560e01c8063a22425b6116100f3578063d98272171161009e578063df9d385b11610079578063df9d385b14610288578063e2ce6c6c14610290578063fab8687014610298578063fd5da010146102a0575f80fd5b8063d982721714610270578063d9cebbd914610278578063dde7b13f14610280575f80fd5b8063b2cb247c116100ce578063b2cb247c14610258578063bc84876914610260578063bdefaf7114610268575f80fd5b8063a22425b614610240578063aa6cda9114610248578063af815f0414610250575f80fd5b8063547acb161161015e5780637e3edbf1116101395780637e3edbf1146102205780637ea0cde91461022857806380b1c55b1461023057806384efbfd514610238575f80fd5b8063547acb16146102095780636801b4421461021157806368aa252414610218575f80fd5b80632d6724e11161018e5780632d6724e1146101f15780633dc52c43146101f95780633f60345a14610201575f80fd5b80631294794b146101b457806318518628146101cf57806328b161ce146101e9575b5f80fd5b6101bc6102a8565b6040519081526020015b60405180910390f35b6101d7610380565b60405160ff90911681526020016101c6565b6101d7600581565b6101d761038b565b6101bc6103ac565b6101d7610497565b6101d76104ef565b6101d75f81565b6101bc6104fa565b6101d76105dd565b6101d7602881565b6101d76105e8565b6101d7610640565b6101d761064b565b6101d7610656565b6101d7610661565b6101d761066c565b6101d7610677565b6101d7610682565b6101d761068d565b6101bc610698565b6101d761076e565b6101d7602081565b6101d7610779565b6101d7610784565b6101d761078f565b60186102b55f60016107d2565b6102c09060016107d2565b6102cb9060016107d2565b6102d69060016107d2565b6102e19060016107d2565b6102ec9060016107d2565b6102f79060016107d2565b6103029060016107d2565b61030d9060016107d2565b6103189060016107d2565b6103239060016107d2565b61032e9060016107d2565b6103399060016107d2565b6103449060016107d2565b61034f9060016107d2565b61035a9060016107d2565b6103659060016107d2565b6103709060016107d2565b60ff1661037d91906107f1565b81565b61037d5f60016107d2565b6103965f60016107d2565b6103a19060016107d2565b61037d9060016107d2565b601880806103bb5f60016107d2565b6103c69060016107d2565b6103d19060016107d2565b6103dc9060016107d2565b6103e79060016107d2565b6103f29060016107d2565b6103fd9060016107d2565b6104089060016107d2565b6104139060016107d2565b61041e9060016107d2565b6104299060016107d2565b6104349060016107d2565b61043f9060016107d2565b61044a9060016107d2565b6104559060016107d2565b6104609060016107d2565b61046b9060016107d2565b6104769060016107d2565b60ff1661048391906107f1565b61048d91906107f1565b61037d91906107f1565b6104a25f60016107d2565b6104ad9060016107d2565b6104b89060016107d2565b6104c39060016107d2565b6104ce9060016107d2565b6104d99060016107d2565b6104e49060016107d2565b6103969060016107d2565b6104b85f60016107d2565b60286018808061050b5f60016107d2565b6105169060016107d2565b6105219060016107d2565b61052c9060016107d2565b6105379060016107d2565b6105429060016107d2565b61054d9060016107d2565b6105589060016107d2565b6105639060016107d2565b61056e9060016107d2565b6105799060016107d2565b6105849060016107d2565b61058f9060016107d2565b61059a9060016107d2565b6105a59060016107d2565b6105b09060016107d2565b6105bb9060016107d2565b6105c69060016107d2565b60ff166105d391906107f1565b61048391906107f1565b6104ce5f60016107d2565b6105f35f60016107d2565b6105fe9060016107d2565b6106099060016107d2565b6106149060016107d2565b61061f9060016107d2565b61062a9060016107d2565b6106359060016107d2565b6104a29060016107d2565b6106355f60016107d2565b61062a5f60016107d2565b6106095f60016107d2565b6103a15f60016107d2565b6104d95f60016107d2565b6105fe5f60016107d2565b61061f5f60016107d2565b6104e45f60016107d2565b6018806106a65f60016107d2565b6106b19060016107d2565b6106bc9060016107d2565b6106c79060016107d2565b6106d29060016107d2565b6106dd9060016107d2565b6106e89060016107d2565b6106f39060016107d2565b6106fe9060016107d2565b6107099060016107d2565b6107149060016107d2565b61071f9060016107d2565b61072a9060016107d2565b6107359060016107d2565b6107409060016107d2565b61074b9060016107d2565b6107569060016107d2565b6107619060016107d2565b60ff1661048d91906107f1565b6106145f60016107d2565b6104c35f60016107d2565b6104ad5f60016107d2565b61079a5f60016107d2565b6105f39060016107d2565b7f4e487b71000000000000000000000000000000000000000000000000000000005f52601160045260245ffd5b60ff81811683821601908111156107eb576107eb6107a5565b92915050565b808201808211156107eb576107eb6107a556fea2646970667358221220386a20d0c84c134cd95c91f40db15180a1dc42eb11d8aecb3a5277391121a29f64736f6c63430008180033","linkReferences":{}},"methodIdentifiers":{"ADD_LIQUIDITY_CUSTOM_OFFSET()":"b2cb247c","AFTER_ADD_LIQUIDITY_OFFSET()":"aa6cda91","AFTER_INITIALIZE_OFFSET()":"3f60345a","AFTER_REMOVE_LIQUIDITY_OFFSET()":"80b1c55b","AFTER_SWAP_OFFSET()":"bdefaf71","AGGREGATE_SWAP_FEE_OFFSET()":"1294794b","AGGREGATE_YIELD_FEE_OFFSET()":"d9cebbd9","BEFORE_ADD_LIQUIDITY_OFFSET()":"dde7b13f","BEFORE_INITIALIZE_OFFSET()":"547acb16","BEFORE_REMOVE_LIQUIDITY_OFFSET()":"bc848769","BEFORE_SWAP_OFFSET()":"a22425b6","DECIMAL_DIFF_BITLENGTH()":"28b161ce","DECIMAL_SCALING_FACTORS_OFFSET()":"3dc52c43","DONATION_OFFSET()":"e2ce6c6c","DYNAMIC_SWAP_FEE_OFFSET()":"84efbfd5","ENABLE_HOOK_ADJUSTED_AMOUNTS_OFFSET()":"fab86870","PAUSE_WINDOW_END_TIME_OFFSET()":"68aa2524","POOL_INITIALIZED_OFFSET()":"18518628","POOL_PAUSED_OFFSET()":"af815f04","POOL_RECOVERY_MODE_OFFSET()":"2d6724e1","POOL_REGISTERED_OFFSET()":"6801b442","REMOVE_LIQUIDITY_CUSTOM_OFFSET()":"7e3edbf1","STATIC_SWAP_FEE_OFFSET()":"fd5da010","TIMESTAMP_BITLENGTH()":"df9d385b","TOKEN_DECIMAL_DIFFS_BITLENGTH()":"7ea0cde9","UNBALANCED_LIQUIDITY_OFFSET()":"d9827217"},"id":73}