{"abi":[{"type":"constructor","inputs":[{"name":"vault","type":"address","internalType":"contract IVault"},{"name":"weth","type":"address","internalType":"contract IWETH"},{"name":"permit2","type":"address","internalType":"contract IPermit2"}],"stateMutability":"nonpayable"},{"type":"receive","stateMutability":"payable"},{"type":"function","name":"getSender","inputs":[],"outputs":[{"name":"","type":"address","internalType":"address"}],"stateMutability":"view"},{"type":"function","name":"multicall","inputs":[{"name":"data","type":"bytes[]","internalType":"bytes[]"}],"outputs":[{"name":"results","type":"bytes[]","internalType":"bytes[]"}],"stateMutability":"payable"},{"type":"function","name":"permitBatchAndCall","inputs":[{"name":"permitBatch","type":"tuple[]","internalType":"struct IRouterCommon.PermitApproval[]","components":[{"name":"token","type":"address","internalType":"address"},{"name":"owner","type":"address","internalType":"address"},{"name":"spender","type":"address","internalType":"address"},{"name":"amount","type":"uint256","internalType":"uint256"},{"name":"nonce","type":"uint256","internalType":"uint256"},{"name":"deadline","type":"uint256","internalType":"uint256"}]},{"name":"permitSignatures","type":"bytes[]","internalType":"bytes[]"},{"name":"permit2Batch","type":"tuple","internalType":"struct IAllowanceTransfer.PermitBatch","components":[{"name":"details","type":"tuple[]","internalType":"struct IAllowanceTransfer.PermitDetails[]","components":[{"name":"token","type":"address","internalType":"address"},{"name":"amount","type":"uint160","internalType":"uint160"},{"name":"expiration","type":"uint48","internalType":"uint48"},{"name":"nonce","type":"uint48","internalType":"uint48"}]},{"name":"spender","type":"address","internalType":"address"},{"name":"sigDeadline","type":"uint256","internalType":"uint256"}]},{"name":"permit2Signature","type":"bytes","internalType":"bytes"},{"name":"multicallData","type":"bytes[]","internalType":"bytes[]"}],"outputs":[{"name":"results","type":"bytes[]","internalType":"bytes[]"}],"stateMutability":"payable"},{"type":"function","name":"querySwapExactIn","inputs":[{"name":"paths","type":"tuple[]","internalType":"struct IBatchRouter.SwapPathExactAmountIn[]","components":[{"name":"tokenIn","type":"address","internalType":"contract IERC20"},{"name":"steps","type":"tuple[]","internalType":"struct IBatchRouter.SwapPathStep[]","components":[{"name":"pool","type":"address","internalType":"address"},{"name":"tokenOut","type":"address","internalType":"contract IERC20"},{"name":"isBuffer","type":"bool","internalType":"bool"}]},{"name":"exactAmountIn","type":"uint256","internalType":"uint256"},{"name":"minAmountOut","type":"uint256","internalType":"uint256"}]},{"name":"userData","type":"bytes","internalType":"bytes"}],"outputs":[{"name":"pathAmountsOut","type":"uint256[]","internalType":"uint256[]"},{"name":"tokensOut","type":"address[]","internalType":"address[]"},{"name":"amountsOut","type":"uint256[]","internalType":"uint256[]"}],"stateMutability":"nonpayable"},{"type":"function","name":"querySwapExactInHook","inputs":[{"name":"params","type":"tuple","internalType":"struct IBatchRouter.SwapExactInHookParams","components":[{"name":"sender","type":"address","internalType":"address"},{"name":"paths","type":"tuple[]","internalType":"struct IBatchRouter.SwapPathExactAmountIn[]","components":[{"name":"tokenIn","type":"address","internalType":"contract IERC20"},{"name":"steps","type":"tuple[]","internalType":"struct IBatchRouter.SwapPathStep[]","components":[{"name":"pool","type":"address","internalType":"address"},{"name":"tokenOut","type":"address","internalType":"contract IERC20"},{"name":"isBuffer","type":"bool","internalType":"bool"}]},{"name":"exactAmountIn","type":"uint256","internalType":"uint256"},{"name":"minAmountOut","type":"uint256","internalType":"uint256"}]},{"name":"deadline","type":"uint256","internalType":"uint256"},{"name":"wethIsEth","type":"bool","internalType":"bool"},{"name":"userData","type":"bytes","internalType":"bytes"}]}],"outputs":[{"name":"pathAmountsOut","type":"uint256[]","internalType":"uint256[]"},{"name":"tokensOut","type":"address[]","internalType":"address[]"},{"name":"amountsOut","type":"uint256[]","internalType":"uint256[]"}],"stateMutability":"nonpayable"},{"type":"function","name":"querySwapExactOut","inputs":[{"name":"paths","type":"tuple[]","internalType":"struct IBatchRouter.SwapPathExactAmountOut[]","components":[{"name":"tokenIn","type":"address","internalType":"contract IERC20"},{"name":"steps","type":"tuple[]","internalType":"struct IBatchRouter.SwapPathStep[]","components":[{"name":"pool","type":"address","internalType":"address"},{"name":"tokenOut","type":"address","internalType":"contract IERC20"},{"name":"isBuffer","type":"bool","internalType":"bool"}]},{"name":"maxAmountIn","type":"uint256","internalType":"uint256"},{"name":"exactAmountOut","type":"uint256","internalType":"uint256"}]},{"name":"userData","type":"bytes","internalType":"bytes"}],"outputs":[{"name":"pathAmountsIn","type":"uint256[]","internalType":"uint256[]"},{"name":"tokensIn","type":"address[]","internalType":"address[]"},{"name":"amountsIn","type":"uint256[]","internalType":"uint256[]"}],"stateMutability":"nonpayable"},{"type":"function","name":"querySwapExactOutHook","inputs":[{"name":"params","type":"tuple","internalType":"struct IBatchRouter.SwapExactOutHookParams","components":[{"name":"sender","type":"address","internalType":"address"},{"name":"paths","type":"tuple[]","internalType":"struct IBatchRouter.SwapPathExactAmountOut[]","components":[{"name":"tokenIn","type":"address","internalType":"contract IERC20"},{"name":"steps","type":"tuple[]","internalType":"struct IBatchRouter.SwapPathStep[]","components":[{"name":"pool","type":"address","internalType":"address"},{"name":"tokenOut","type":"address","internalType":"contract IERC20"},{"name":"isBuffer","type":"bool","internalType":"bool"}]},{"name":"maxAmountIn","type":"uint256","internalType":"uint256"},{"name":"exactAmountOut","type":"uint256","internalType":"uint256"}]},{"name":"deadline","type":"uint256","internalType":"uint256"},{"name":"wethIsEth","type":"bool","internalType":"bool"},{"name":"userData","type":"bytes","internalType":"bytes"}]}],"outputs":[{"name":"pathAmountsIn","type":"uint256[]","internalType":"uint256[]"},{"name":"tokensIn","type":"address[]","internalType":"address[]"},{"name":"amountsIn","type":"uint256[]","internalType":"uint256[]"}],"stateMutability":"nonpayable"},{"type":"function","name":"swapExactIn","inputs":[{"name":"paths","type":"tuple[]","internalType":"struct IBatchRouter.SwapPathExactAmountIn[]","components":[{"name":"tokenIn","type":"address","internalType":"contract IERC20"},{"name":"steps","type":"tuple[]","internalType":"struct IBatchRouter.SwapPathStep[]","components":[{"name":"pool","type":"address","internalType":"address"},{"name":"tokenOut","type":"address","internalType":"contract IERC20"},{"name":"isBuffer","type":"bool","internalType":"bool"}]},{"name":"exactAmountIn","type":"uint256","internalType":"uint256"},{"name":"minAmountOut","type":"uint256","internalType":"uint256"}]},{"name":"deadline","type":"uint256","internalType":"uint256"},{"name":"wethIsEth","type":"bool","internalType":"bool"},{"name":"userData","type":"bytes","internalType":"bytes"}],"outputs":[{"name":"pathAmountsOut","type":"uint256[]","internalType":"uint256[]"},{"name":"tokensOut","type":"address[]","internalType":"address[]"},{"name":"amountsOut","type":"uint256[]","internalType":"uint256[]"}],"stateMutability":"payable"},{"type":"function","name":"swapExactInHook","inputs":[{"name":"params","type":"tuple","internalType":"struct IBatchRouter.SwapExactInHookParams","components":[{"name":"sender","type":"address","internalType":"address"},{"name":"paths","type":"tuple[]","internalType":"struct IBatchRouter.SwapPathExactAmountIn[]","components":[{"name":"tokenIn","type":"address","internalType":"contract IERC20"},{"name":"steps","type":"tuple[]","internalType":"struct IBatchRouter.SwapPathStep[]","components":[{"name":"pool","type":"address","internalType":"address"},{"name":"tokenOut","type":"address","internalType":"contract IERC20"},{"name":"isBuffer","type":"bool","internalType":"bool"}]},{"name":"exactAmountIn","type":"uint256","internalType":"uint256"},{"name":"minAmountOut","type":"uint256","internalType":"uint256"}]},{"name":"deadline","type":"uint256","internalType":"uint256"},{"name":"wethIsEth","type":"bool","internalType":"bool"},{"name":"userData","type":"bytes","internalType":"bytes"}]}],"outputs":[{"name":"pathAmountsOut","type":"uint256[]","internalType":"uint256[]"},{"name":"tokensOut","type":"address[]","internalType":"address[]"},{"name":"amountsOut","type":"uint256[]","internalType":"uint256[]"}],"stateMutability":"nonpayable"},{"type":"function","name":"swapExactOut","inputs":[{"name":"paths","type":"tuple[]","internalType":"struct IBatchRouter.SwapPathExactAmountOut[]","components":[{"name":"tokenIn","type":"address","internalType":"contract IERC20"},{"name":"steps","type":"tuple[]","internalType":"struct IBatchRouter.SwapPathStep[]","components":[{"name":"pool","type":"address","internalType":"address"},{"name":"tokenOut","type":"address","internalType":"contract IERC20"},{"name":"isBuffer","type":"bool","internalType":"bool"}]},{"name":"maxAmountIn","type":"uint256","internalType":"uint256"},{"name":"exactAmountOut","type":"uint256","internalType":"uint256"}]},{"name":"deadline","type":"uint256","internalType":"uint256"},{"name":"wethIsEth","type":"bool","internalType":"bool"},{"name":"userData","type":"bytes","internalType":"bytes"}],"outputs":[{"name":"pathAmountsIn","type":"uint256[]","internalType":"uint256[]"},{"name":"tokensIn","type":"address[]","internalType":"address[]"},{"name":"amountsIn","type":"uint256[]","internalType":"uint256[]"}],"stateMutability":"payable"},{"type":"function","name":"swapExactOutHook","inputs":[{"name":"params","type":"tuple","internalType":"struct IBatchRouter.SwapExactOutHookParams","components":[{"name":"sender","type":"address","internalType":"address"},{"name":"paths","type":"tuple[]","internalType":"struct IBatchRouter.SwapPathExactAmountOut[]","components":[{"name":"tokenIn","type":"address","internalType":"contract IERC20"},{"name":"steps","type":"tuple[]","internalType":"struct IBatchRouter.SwapPathStep[]","components":[{"name":"pool","type":"address","internalType":"address"},{"name":"tokenOut","type":"address","internalType":"contract IERC20"},{"name":"isBuffer","type":"bool","internalType":"bool"}]},{"name":"maxAmountIn","type":"uint256","internalType":"uint256"},{"name":"exactAmountOut","type":"uint256","internalType":"uint256"}]},{"name":"deadline","type":"uint256","internalType":"uint256"},{"name":"wethIsEth","type":"bool","internalType":"bool"},{"name":"userData","type":"bytes","internalType":"bytes"}]}],"outputs":[{"name":"pathAmountsIn","type":"uint256[]","internalType":"uint256[]"},{"name":"tokensIn","type":"address[]","internalType":"address[]"},{"name":"amountsIn","type":"uint256[]","internalType":"uint256[]"}],"stateMutability":"nonpayable"},{"type":"error","name":"AddressEmptyCode","inputs":[{"name":"target","type":"address","internalType":"address"}]},{"type":"error","name":"EthTransfer","inputs":[]},{"type":"error","name":"FailedCall","inputs":[]},{"type":"error","name":"InsufficientBalance","inputs":[{"name":"balance","type":"uint256","internalType":"uint256"},{"name":"needed","type":"uint256","internalType":"uint256"}]},{"type":"error","name":"InsufficientEth","inputs":[]},{"type":"error","name":"ReentrancyGuardReentrantCall","inputs":[]},{"type":"error","name":"SafeCastOverflowedUintDowncast","inputs":[{"name":"bits","type":"uint8","internalType":"uint8"},{"name":"value","type":"uint256","internalType":"uint256"}]},{"type":"error","name":"SafeERC20FailedOperation","inputs":[{"name":"token","type":"address","internalType":"address"}]},{"type":"error","name":"SenderIsNotVault","inputs":[{"name":"sender","type":"address","internalType":"address"}]},{"type":"error","name":"SwapDeadline","inputs":[]},{"type":"error","name":"TransientIndexOutOfBounds","inputs":[]}],"bytecode":{"object":"0x600c6101c09081526b2937baba32b921b7b6b6b7b760a11b6101e05261024060405260066102009081526539b2b73232b960d11b610220526200004391906200023c565b60a052604080518082018252600c81526b2937baba32b921b7b6b6b7b760a11b602080830191909152825180840190935260118352701a5cd4995d1d5c9b915d1a131bd8dad959607a1b908301526200009c916200023c565b60c05260408051808201909152601381527f63757272656e7453776170546f6b656e73496e000000000000000000000000006020820152620000de90620002b0565b6101205260408051808201909152601481527f63757272656e7453776170546f6b656e734f757400000000000000000000000060208201526200012190620002b0565b6101405260408051808201909152601981527f63757272656e7453776170546f6b656e496e416d6f756e74730000000000000060208201526200016490620002b0565b6101605260408051808201909152601a81527f63757272656e7453776170546f6b656e4f7574416d6f756e74730000000000006020820152620001a790620002b0565b6101805260408051808201909152601381527f736574746c6564546f6b656e416d6f756e7473000000000000000000000000006020820152620001ea90620002b0565b6101a052348015620001fa575f80fd5b5060405162005328380380620053288339810160408190526200021d9162000304565b6001600160a01b0392831660805290821660e0521661010052620003f6565b5f60ff5f1b19600184846040516020016200025992919062000384565b604051602081830303815290604052805190602001205f1c6200027d9190620003d6565b6040516020016200029091815260200190565b604051602081830303815290604052805190602001201690505b92915050565b5f620002aa604051806040016040526011815280602001702130ba31b42937baba32b921b7b6b6b7b760791b815250836200023c60201b60201c565b6001600160a01b038116811462000301575f80fd5b50565b5f805f6060848603121562000317575f80fd5b83516200032481620002ec565b60208501519093506200033781620002ec565b60408501519092506200034a81620002ec565b809150509250925092565b5f81515f5b818110156200037657602081850181015186830152016200035a565b505f93019283525090919050565b7f62616c616e6365722d6c6162732e76332e73746f726167652e0000000000000081525f620003b7601983018562000355565b601760f91b8152620003cd600182018562000355565b95945050505050565b81810381811115620002aa57634e487b7160e01b5f52601160045260245ffd5b60805160a05160c05160e05161010051610120516101405161016051610180516101a051614caf620006795f395f8181610e9801528181610f4f01528181611e6601528181612bf30152612fbc01525f8181610ee201528181611113015281816111440152818161181201528181611c1e015281816120d40152818161299c01528181612bc6015261336d01525f81816110300152818161106101528181611399015281816115fa015281816119da01528181611a0b01528181613314015261359601525f8181610dff01528181610fba015281816110e20152818161116e015281816117e101528181611bd401528181611e35015281816120a30152818161296b0152612b8b01525f8181610f8e01528181610ffd0152818161108b015281816112eb015281816115cc01526128b301525f81816104a90152818161189e0152818161241e0152612da301525f818160cb015281816122260152818161229b01528181612315015281816123770152818161260e01526126f701525f8181610a1f01528181610b2b015261147d01525f81816101e901528181610b54015281816111e201528181611216015261128a01525f818161054701528181610715015281816108e901528181610bd101528181610d67015281816116a50152818161197901528181611a5a01528181611ca501528181611cfa01528181611ebd01528181611f3401528181612339015281816123a60152818161244e01528181612505015281816126730152818161279f01528181612a5701528181612c8701528181612d2101528181612e6401528181613060015281816130ab01528181613155015281816131a9015281816133b70152818161342e015261381c0152614caf5ff3fe6080604052600436106100bb575f3560e01c80635e01eb5a11610071578063945ed33f1161004c578063945ed33f14610246578063ac9650d814610265578063fe893e8b14610278575f80fd5b80635e01eb5a146101d05780638a12a08c146102145780638eb1b65e14610233575f80fd5b8063286f580d116100a1578063286f580d1461017f5780633910ab2a146101925780635a3c3987146101b1575f80fd5b806308a465f61461012857806319c6989f1461015f575f80fd5b3661012457336001600160a01b037f00000000000000000000000000000000000000000000000000000000000000001614610122576040517f0540ddf600000000000000000000000000000000000000000000000000000000815260040160405180910390fd5b005b5f80fd5b348015610133575f80fd5b50610147610142366004613b54565b610297565b60405161015693929190613bc8565b60405180910390f35b61017261016d366004613d10565b6102f0565b6040516101569190613e3d565b61014761018d366004614114565b610535565b34801561019d575f80fd5b506101476101ac366004614193565b6106bb565b3480156101bc575f80fd5b506101476101cb366004613b54565b610888565b3480156101db575f80fd5b506040516001600160a01b037f00000000000000000000000000000000000000000000000000000000000000005c168152602001610156565b34801561021f575f80fd5b5061014761022e366004613b54565b6108b9565b610147610241366004614114565b6108d7565b348015610251575f80fd5b50610147610260366004613b54565b6109ed565b6101726102733660046141f7565b610a0b565b348015610283575f80fd5b50610147610292366004614193565b610b89565b60608060606102a4610cd6565b6102ac610d5c565b6102b584610dc5565b919450925090506102e16102cc6020860186614236565b6102dc6080870160608801614251565b610f88565b6102e96111b5565b9193909250565b60605f6102fb6111df565b90505f5b8a811015610465575f8a8a8381811061031a5761031a61426a565b905060200281019061032c919061427e565b8080601f0160208091040260200160405190810160405280939291908181526020018383808284375f92018290525093945061036d92508491506112439050565b90505f8e8e858181106103825761038261426a565b905060c0020180360381019061039891906142c1565b8051602080830151606084015160a08501516040808901518951958a015191517fd505accf0000000000000000000000000000000000000000000000000000000081526001600160a01b0395861660048201523060248201526044810194909452606484019290925260ff909116608483015260a482019390935260c481019290925292935091169063d505accf9060e4015f604051808303815f87803b158015610441575f80fd5b505af1158015610453573d5f803e3d5ffd5b505050505050508060010190506102ff565b505f6104718880614354565b90501115610512576040517f2a2d80d10000000000000000000000000000000000000000000000000000000081526001600160a01b037f00000000000000000000000000000000000000000000000000000000000000001690632a2d80d1906104e49033908b908b908b906004016143d7565b5f604051808303815f87803b1580156104fb575f80fd5b505af115801561050d573d5f803e3d5ffd5b505050505b61051c8484610a0b565b91506105278161127e565b509998505050505050505050565b60608060605f6105436111df565b90507f00000000000000000000000000000000000000000000000000000000000000006001600160a01b03166348c894916040518060a00160405280336001600160a01b031681526020018c81526020018b81526020018a1515815260200189898080601f0160208091040260200160405190810160405280939291908181526020018383808284375f9201919091525050509152506040516105e99190602401614590565b60408051601f198184030181529181526020820180516001600160e01b03167f08a465f600000000000000000000000000000000000000000000000000000000179052516001600160e01b031960e084901b16815261064b9190600401614640565b5f604051808303815f875af1158015610666573d5f803e3d5ffd5b505050506040513d5f823e601f3d908101601f1916820160405261068d91908101906146b3565b8060200190518101906106a09190614741565b9350935093506106af8161127e565b50955095509592505050565b60608060605f6106c96111df565b90505f5b8751811015610712576fffffffffffffffffffffffffffffffff80168882815181106106fb576106fb61426a565b6020908102919091010151604001526001016106cd565b507f00000000000000000000000000000000000000000000000000000000000000006001600160a01b031663edfa35686040518060a00160405280306001600160a01b031681526020018a81526020015f1981526020015f1515815260200189898080601f0160208091040260200160405190810160405280939291908181526020018383808284375f9201919091525050509152506040516107b8919060240161481f565b60408051601f198184030181529181526020820180516001600160e01b03167f5a3c398700000000000000000000000000000000000000000000000000000000179052516001600160e01b031960e084901b16815261081a9190600401614640565b5f604051808303815f875af1158015610835573d5f803e3d5ffd5b505050506040513d5f823e601f3d908101601f1916820160405261085c91908101906146b3565b80602001905181019061086f9190614741565b93509350935061087e8161127e565b5093509350939050565b6060806060610895610cd6565b61089d610d5c565b6108a6846112b1565b919450925090506102e96111b5565b5c90565b60608060606108c6610cd6565b6108ce610d5c565b6108a684610dc5565b60608060605f6108e56111df565b90507f00000000000000000000000000000000000000000000000000000000000000006001600160a01b03166348c894916040518060a00160405280336001600160a01b031681526020018c81526020018b81526020018a1515815260200189898080601f0160208091040260200160405190810160405280939291908181526020018383808284375f92019190915250505091525060405161098b919060240161481f565b60408051601f198184030181529181526020820180516001600160e01b03167f945ed33f00000000000000000000000000000000000000000000000000000000179052516001600160e01b031960e084901b16815261064b9190600401614640565b60608060606109fa610cd6565b610a02610d5c565b6102b5846112b1565b60605f610a166111df565b9050610a4560017f00000000000000000000000000000000000000000000000000000000000000005b90611400565b8267ffffffffffffffff811115610a5e57610a5e613e9f565b604051908082528060200260200182016040528015610a9157816020015b6060815260200190600190039081610a7c5790505b5091505f5b83811015610b2457610aff30868684818110610ab457610ab461426a565b9050602002810190610ac6919061427e565b8080601f0160208091040260200160405190810160405280939291908181526020018383808284375f9201919091525061140792505050565b838281518110610b1157610b1161426a565b6020908102919091010152600101610a96565b50610b4f5f7f0000000000000000000000000000000000000000000000000000000000000000610a3f565b610b797f00000000000000000000000000000000000000000000000000000000000000005c61147b565b610b828161127e565b5092915050565b60608060605f610b976111df565b90505f5b8751811015610bce575f888281518110610bb757610bb761426a565b602090810291909101015160600152600101610b9b565b507f00000000000000000000000000000000000000000000000000000000000000006001600160a01b031663edfa35686040518060a00160405280306001600160a01b031681526020018a81526020015f1981526020015f1515815260200189898080601f0160208091040260200160405190810160405280939291908181526020018383808284375f920191909152505050915250604051610c749190602401614590565b60408051601f198184030181529181526020820180516001600160e01b03167f8a12a08c00000000000000000000000000000000000000000000000000000000179052516001600160e01b031960e084901b16815261081a9190600401614640565b7f9b779b17422d0df92223018b32b4d1fa46e071723d6817e2486d003becc55f005c15610d2f576040517f3ee5aeb500000000000000000000000000000000000000000000000000000000815260040160405180910390fd5b610d5a60017f9b779b17422d0df92223018b32b4d1fa46e071723d6817e2486d003becc55f00610a3f565b565b336001600160a01b037f00000000000000000000000000000000000000000000000000000000000000001614610d5a576040517f089676d50000000000000000000000000000000000000000000000000000000081523360048201526024015b60405180910390fd5b60608060608360400135421115610def57604051630e08b8af60e41b815260040160405180910390fd5b610df8846114c3565b9250610e237f000000000000000000000000000000000000000000000000000000000000000061212b565b9150815167ffffffffffffffff811115610e3f57610e3f613e9f565b604051908082528060200260200182016040528015610e68578160200160208202803683370190505b5090505f5b8251811015610f8057610ec0838281518110610e8b57610e8b61426a565b6020026020010151610eba7f000000000000000000000000000000000000000000000000000000000000000090565b906121cd565b610f04848381518110610ed557610ed561426a565b6020026020010151610eba7f000000000000000000000000000000000000000000000000000000000000000090565b610f0e91906148a3565b828281518110610f2057610f2061426a565b602002602001018181525050610f78838281518110610f4157610f4161426a565b60200260200101515f610f717f000000000000000000000000000000000000000000000000000000000000000090565b91906121ea565b600101610e6d565b509193909250565b5f610fb27f0000000000000000000000000000000000000000000000000000000000000000612207565b90505f610fde7f0000000000000000000000000000000000000000000000000000000000000000612207565b90505f610fec6001846148b6565b90505b5f81126110c4575f611023827f00000000000000000000000000000000000000000000000000000000000000005b90612211565b905061105a8682611054817f0000000000000000000000000000000000000000000000000000000000000000610eba565b8861221c565b611085815f7f0000000000000000000000000000000000000000000000000000000000000000610f71565b6110b1817f00000000000000000000000000000000000000000000000000000000000000005b90612578565b5050806110bd906148d5565b9050610fef565b505f6110d16001836148b6565b90505b5f81126111a5575f611106827f000000000000000000000000000000000000000000000000000000000000000061101d565b905061113d8682611137817f0000000000000000000000000000000000000000000000000000000000000000610eba565b886125fe565b611168815f7f0000000000000000000000000000000000000000000000000000000000000000610f71565b611192817f00000000000000000000000000000000000000000000000000000000000000006110ab565b50508061119e906148d5565b90506110d4565b506111af8461147b565b50505050565b610d5a5f7f9b779b17422d0df92223018b32b4d1fa46e071723d6817e2486d003becc55f00610a3f565b5f7f00000000000000000000000000000000000000000000000000000000000000005c6001600160a01b03811661123f5761123a337f0000000000000000000000000000000000000000000000000000000000000000610a3f565b600191505b5090565b60408051606080820183525f808352602080840182815284860183815291870151958701519690930151948452949091529190911a90915290565b80156112ae576112ae5f7f0000000000000000000000000000000000000000000000000000000000000000610a3f565b50565b606080606083604001354211156112db57604051630e08b8af60e41b815260040160405180910390fd5b6112e4846127fc565b925061130f7f000000000000000000000000000000000000000000000000000000000000000061212b565b9150815167ffffffffffffffff81111561132b5761132b613e9f565b604051908082528060200260200182016040528015611354578160200160208202803683370190505b5090505f5b8251811015610f8057611377838281518110610e8b57610e8b61426a565b6113bb84838151811061138c5761138c61426a565b6020026020010151610eba7f000000000000000000000000000000000000000000000000000000000000000090565b6113c591906148a3565b8282815181106113d7576113d761426a565b6020026020010181815250506113f8838281518110610f4157610f4161426a565b600101611359565b80825d5050565b60605f80846001600160a01b031684604051611423919061490c565b5f60405180830381855af49150503d805f811461145b576040519150601f19603f3d011682016040523d82523d5f602084013e611460565b606091505b50915091506114708583836135e8565b925050505b92915050565b7f00000000000000000000000000000000000000000000000000000000000000005c156114a55750565b4780156114bf576114bf6001600160a01b03831682613656565b5050565b60606114d26020830183614927565b905067ffffffffffffffff8111156114ec576114ec613e9f565b604051908082528060200260200182016040528015611515578160200160208202803683370190505b5090505f5b6115276020840184614927565b9050811015612125575f61153e6020850185614927565b8381811061154e5761154e61426a565b9050602002810190611560919061496d565b61156990614981565b604081015181516020830151805193945091929091905f9061158d5761158d61426a565b60200260200101516040015180156115a457503215155b156115c6576115c16115b96020880188614236565b82845f61221c565b611621565b6115f2817f00000000000000000000000000000000000000000000000000000000000000005b90613709565b5061162181837f00000000000000000000000000000000000000000000000000000000000000005b9190613747565b5f5b83602001515181101561211657604080518082019091525f80825260208201526001856020015151611655919061498c565b821460208201819052821582525f901561167457506060850151611677565b505f5b5f8660200151848151811061168e5761168e61426a565b6020026020010151905080604001511561184a575f7f00000000000000000000000000000000000000000000000000000000000000006001600160a01b03166343583be56040518060a001604052805f60018111156116ef576116ef61499f565b8152602001896001600160a01b0316865f01516001600160a01b031614611716575f611719565b60015b600181111561172a5761172a61499f565b8152602001855f01516001600160a01b031681526020018a8152602001868152506040518263ffffffff1660e01b815260040161176791906149c3565b6060604051808303815f875af1158015611783573d5f803e3d5ffd5b505050506040513d601f19601f820116820180604052508101906117a79190614a17565b9250505083602001511561183957808a8a815181106117c8576117c861426a565b60200260200101818152505061180382602001516115ec7f000000000000000000000000000000000000000000000000000000000000000090565b5061183482602001518261161a7f000000000000000000000000000000000000000000000000000000000000000090565b611844565b809650816020015195505b50612108565b805f01516001600160a01b0316856001600160a01b031603611c70578251801561188957503061187d60208c018c614236565b6001600160a01b031614155b1561194b578515611946576001600160a01b037f0000000000000000000000000000000000000000000000000000000000000000166336c785166118d060208d018d614236565b306118da8a613771565b6040516001600160e01b031960e086901b1681526001600160a01b03938416600482015291831660248301528216604482015290881660648201526084015f604051808303815f87803b15801561192f575f80fd5b505af1158015611941573d5f803e3d5ffd5b505050505b6119d3565b805160405163ae63932960e01b81526001600160a01b039182166004820152306024820152604481018890527f00000000000000000000000000000000000000000000000000000000000000009091169063ae639329906064015f604051808303815f87803b1580156119bc575f80fd5b505af11580156119ce573d5f803e3d5ffd5b505050505b5f6119fe867f0000000000000000000000000000000000000000000000000000000000000000610eba565b1115611a3257611a3285877f00000000000000000000000000000000000000000000000000000000000000005b91906137bd565b5f80611a54835f01518460200151865f14611a4d57866137d5565b60016137d5565b915091507f00000000000000000000000000000000000000000000000000000000000000006001600160a01b031663214578976040518060c00160405280865f01516001600160a01b03168152602001306001600160a01b031681526020018b815260200185815260200160016003811115611ad257611ad261499f565b81526020018f8060800190611ae7919061427e565b8080601f0160208091040260200160405190810160405280939291908181526020018383808284375f9201919091525050509152506040516001600160e01b031960e084901b168152611b3d9190600401614a42565b5f604051808303815f875af1158015611b58573d5f803e3d5ffd5b505050506040513d5f823e601f3d908101601f19168201604052611b7f9190810190614ac1565b506020870151909350159050611c4557818181518110611ba157611ba161426a565b60200260200101518b8b81518110611bbb57611bbb61426a565b602002602001018181525050611bf683602001516115ec7f000000000000000000000000000000000000000000000000000000000000000090565b50611c408360200151838381518110611c1157611c1161426a565b602002602001015161161a7f000000000000000000000000000000000000000000000000000000000000000090565b611c69565b818181518110611c5757611c5761426a565b60200260200101519750826020015196505b5050612108565b805f01516001600160a01b031681602001516001600160a01b031603611f31575f611c9f825f015187896137d5565b5090505f7f00000000000000000000000000000000000000000000000000000000000000006001600160a01b0316634af29ec46040518060c00160405280865f01516001600160a01b031681526020018860200151611d1e577f0000000000000000000000000000000000000000000000000000000000000000611d30565b8f5f016020810190611d309190614236565b6001600160a01b031681526020810186905260408101889052606001600181526020018f8060800190611d63919061427e565b8080601f0160208091040260200160405190810160405280939291908181526020018383808284375f9201919091525050509152506040516001600160e01b031960e084901b168152611db99190600401614b1f565b5f604051808303815f875af1158015611dd4573d5f803e3d5ffd5b505050506040513d5f823e601f3d908101601f19168201604052611dfb9190810190614b7c565b50915050846020015115611e8857808b8b81518110611e1c57611e1c61426a565b602002602001018181525050611e5783602001516115ec7f000000000000000000000000000000000000000000000000000000000000000090565b50611c4083602001518261161a7f000000000000000000000000000000000000000000000000000000000000000090565b602083015183516040516315afd40960e01b81526001600160a01b0391821660048201526024810184905292995090975088917f0000000000000000000000000000000000000000000000000000000000000000909116906315afd409906044016020604051808303815f875af1158015611f05573d5f803e3d5ffd5b505050506040513d601f19601f82011682018060405250810190611f299190614bcd565b505050612108565b5f7f00000000000000000000000000000000000000000000000000000000000000006001600160a01b0316632bfb780c6040518060e001604052805f6001811115611f7e57611f7e61499f565b8152602001855f01516001600160a01b03168152602001896001600160a01b0316815260200185602001516001600160a01b031681526020018a81526020018681526020018e8060800190611fd3919061427e565b8080601f0160208091040260200160405190810160405280939291908181526020018383808284375f9201919091525050509152506040516001600160e01b031960e084901b1681526120299190600401614be4565b6060604051808303815f875af1158015612045573d5f803e3d5ffd5b505050506040513d601f19601f820116820180604052508101906120699190614a17565b925050508360200151156120fb57808a8a8151811061208a5761208a61426a565b6020026020010181815250506120c582602001516115ec7f000000000000000000000000000000000000000000000000000000000000000090565b506120f682602001518261161a7f000000000000000000000000000000000000000000000000000000000000000090565b612106565b809650816020015195505b505b505050806001019050611623565b5050505080600101905061151a565b50919050565b60605f612137836138f7565b90508067ffffffffffffffff81111561215257612152613e9f565b60405190808252806020026020018201604052801561217b578160200160208202803683370190505b5091505f5b818110156121c65761219481855b906138ff565b8382815181106121a6576121a661426a565b6001600160a01b0390921660209283029190910190910152600101612180565b5050919050565b5f8181526020839052604081205c6121e3565b90565b9392505050565b5f828152602084905260409020612202908290610a3f565b505050565b5f611475826138f7565b5f6121e3828461218e565b80801561225a57507f00000000000000000000000000000000000000000000000000000000000000006001600160a01b0316836001600160a01b0316145b156124165781471015612299576040517fa01a9df600000000000000000000000000000000000000000000000000000000815260040160405180910390fd5b7f00000000000000000000000000000000000000000000000000000000000000006001600160a01b031663d0e30db0836040518263ffffffff1660e01b81526004015f604051808303818588803b1580156122f2575f80fd5b505af1158015612304573d5f803e3d5ffd5b506123609350506001600160a01b037f00000000000000000000000000000000000000000000000000000000000000001691507f000000000000000000000000000000000000000000000000000000000000000090508461391d565b6040516315afd40960e01b81526001600160a01b037f000000000000000000000000000000000000000000000000000000000000000081166004830152602482018490527f000000000000000000000000000000000000000000000000000000000000000016906315afd409906044016020604051808303815f875af11580156123ec573d5f803e3d5ffd5b505050506040513d601f19601f820116820180604052508101906124109190614bcd565b506111af565b81156111af577f00000000000000000000000000000000000000000000000000000000000000006001600160a01b03166336c78516857f000000000000000000000000000000000000000000000000000000000000000061247686613771565b6040516001600160e01b031960e086901b1681526001600160a01b03938416600482015291831660248301528216604482015290861660648201526084015f604051808303815f87803b1580156124cb575f80fd5b505af11580156124dd573d5f803e3d5ffd5b50506040516315afd40960e01b81526001600160a01b038681166004830152602482018690527f00000000000000000000000000000000000000000000000000000000000000001692506315afd40991506044016020604051808303815f875af115801561254d573d5f803e3d5ffd5b505050506040513d601f19601f820116820180604052508101906125719190614bcd565b5050505050565b5f806125878360018601610eba565b905080156125f5575f1981015f600161259f876138f7565b0390508082146125d1575f6125b48783613988565b90506125c18784836139ac565b6125cf818560018a01610f71565b505b6125da866139d0565b506125e9855f60018901610f71565b60019350505050611475565b5f915050611475565b81156111af5780801561264257507f00000000000000000000000000000000000000000000000000000000000000006001600160a01b0316836001600160a01b0316145b156127715760405163ae63932960e01b81526001600160a01b038481166004830152306024830152604482018490527f0000000000000000000000000000000000000000000000000000000000000000169063ae639329906064015f604051808303815f87803b1580156126b4575f80fd5b505af11580156126c6573d5f803e3d5ffd5b50506040517f2e1a7d4d000000000000000000000000000000000000000000000000000000008152600481018590527f00000000000000000000000000000000000000000000000000000000000000006001600160a01b03169250632e1a7d4d91506024015f604051808303815f87803b158015612742575f80fd5b505af1158015612754573d5f803e3d5ffd5b5061276c925050506001600160a01b03851683613656565b6111af565b60405163ae63932960e01b81526001600160a01b0384811660048301528581166024830152604482018490527f0000000000000000000000000000000000000000000000000000000000000000169063ae639329906064015f604051808303815f87803b1580156127e0575f80fd5b505af11580156127f2573d5f803e3d5ffd5b5050505050505050565b606061280b6020830183614927565b905067ffffffffffffffff81111561282557612825613e9f565b60405190808252806020026020018201604052801561284e578160200160208202803683370190505b5090505f5b6128606020840184614927565b9050811015612125575f6128776020850185614927565b838181106128875761288761426a565b9050602002810190612899919061496d565b6128a290614981565b60608101518151919250906128d7907f00000000000000000000000000000000000000000000000000000000000000006115ec565b505f60018360200151516128eb919061498c565b90505b5f81126135da575f8360200151828151811061290c5761290c61426a565b6020026020010151905061293560405180604001604052805f151581526020015f151581525090565b8215602080830191909152850151516129509060019061498c565b83148082525f908190156129be5761298d84602001516115ec7f000000000000000000000000000000000000000000000000000000000000000090565b506129be84602001518761161a7f000000000000000000000000000000000000000000000000000000000000000090565b8260200151156129d657505060408501518551612a18565b60208701516fffffffffffffffffffffffffffffffff92506129f96001876148b6565b81518110612a0957612a0961426a565b60200260200101516020015190505b836040015115612c265782602001518015612a3257503215155b15612a5457612a54612a4760208c018c614236565b885160408a01515f61221c565b5f7f00000000000000000000000000000000000000000000000000000000000000006001600160a01b03166343583be56040518060a00160405280600180811115612aa157612aa161499f565b8152602001856001600160a01b0316895f01516001600160a01b031614612ac8575f612acb565b60015b6001811115612adc57612adc61499f565b8152602001885f01516001600160a01b031681526020018a8152602001868152506040518263ffffffff1660e01b8152600401612b1991906149c3565b6060604051808303815f875af1158015612b35573d5f803e3d5ffd5b505050506040513d601f19601f82011682018060405250810190612b599190614a17565b50915050836020015115612c1c57808a8a81518110612b7a57612b7a61426a565b6020908102919091010152612baf827f00000000000000000000000000000000000000000000000000000000000000006115ec565b50612bea82828a60400151612bc4919061498c565b7f000000000000000000000000000000000000000000000000000000000000000061161a565b8751612c1790827f000000000000000000000000000000000000000000000000000000000000000061161a565b612c20565b8096505b506135c5565b835f01516001600160a01b0316816001600160a01b03160361311f57602083015115155f03612d7d576040517f967870920000000000000000000000000000000000000000000000000000000081526001600160a01b0382811660048301527f00000000000000000000000000000000000000000000000000000000000000001690639678709290602401602060405180830381865afa158015612ccc573d5f803e3d5ffd5b505050506040513d601f19601f82011682018060405250810190612cf09190614bcd565b845160405163ae63932960e01b81526001600160a01b039182166004820152306024820152604481018390529193507f0000000000000000000000000000000000000000000000000000000000000000169063ae639329906064015f604051808303815f87803b158015612d62575f80fd5b505af1158015612d74573d5f803e3d5ffd5b50505050612e4b565b30612d8b60208c018c614236565b6001600160a01b031614612e4b576001600160a01b037f0000000000000000000000000000000000000000000000000000000000000000166336c78516612dd560208d018d614236565b30612ddf86613771565b6040516001600160e01b031960e086901b1681526001600160a01b03938416600482015291831660248301528216604482015290841660648201526084015f604051808303815f87803b158015612e34575f80fd5b505af1158015612e46573d5f803e3d5ffd5b505050505b5f612e5e855f01518660200151896137d5565b5090505f7f00000000000000000000000000000000000000000000000000000000000000006001600160a01b031663214578976040518060c00160405280895f01516001600160a01b03168152602001306001600160a01b0316815260200187815260200185815260200160026003811115612edc57612edc61499f565b81526020018f8060800190612ef1919061427e565b8080601f0160208091040260200160405190810160405280939291908181526020018383808284375f9201919091525050509152506040516001600160e01b031960e084901b168152612f479190600401614a42565b5f604051808303815f875af1158015612f62573d5f803e3d5ffd5b505050506040513d5f823e601f3d908101601f19168201604052612f899190810190614ac1565b5050905084602001511561303957808b8b81518110612faa57612faa61426a565b6020908102919091010152612fe083827f000000000000000000000000000000000000000000000000000000000000000061161a565b8381108015613004575030612ff860208e018e614236565b6001600160a01b031614155b156130345761303461301960208e018e614236565b613023838761498c565b6001600160a01b038616919061391d565b613118565b80975083811015613118575f61304f828661498c565b90506130856001600160a01b0385167f00000000000000000000000000000000000000000000000000000000000000008361391d565b6040516315afd40960e01b81526001600160a01b038581166004830152602482018390527f000000000000000000000000000000000000000000000000000000000000000016906315afd409906044016020604051808303815f875af11580156130f1573d5f803e3d5ffd5b505050506040513d601f19601f820116820180604052508101906131159190614bcd565b50505b50506135c5565b835f01516001600160a01b031684602001516001600160a01b03160361342b575f8061314f865f015184866137d5565b915091507f00000000000000000000000000000000000000000000000000000000000000006001600160a01b0316634af29ec46040518060c00160405280895f01516001600160a01b03168152602001885f01516131cd577f00000000000000000000000000000000000000000000000000000000000000006131df565b8f5f0160208101906131df9190614236565b6001600160a01b0316815260208101869052604081018c9052606001600281526020018f8060800190613212919061427e565b8080601f0160208091040260200160405190810160405280939291908181526020018383808284375f9201919091525050509152506040516001600160e01b031960e084901b1681526132689190600401614b1f565b5f604051808303815f875af1158015613283573d5f803e3d5ffd5b505050506040513d5f823e601f3d908101601f191682016040526132aa9190810190614b7c565b505060208601519092501561333b578181815181106132cb576132cb61426a565b60200260200101518b8b815181106132e5576132e561426a565b602002602001018181525050613336838383815181106133075761330761426a565b602002602001015161161a7f000000000000000000000000000000000000000000000000000000000000000090565b613358565b81818151811061334d5761334d61426a565b602002602001015197505b84511561338f57613034866020015189611a2b7f000000000000000000000000000000000000000000000000000000000000000090565b85516040516315afd40960e01b81526001600160a01b039182166004820152602481018a90527f0000000000000000000000000000000000000000000000000000000000000000909116906315afd409906044016020604051808303815f875af11580156133ff573d5f803e3d5ffd5b505050506040513d601f19601f820116820180604052508101906134239190614bcd565b5050506135c5565b5f7f00000000000000000000000000000000000000000000000000000000000000006001600160a01b0316632bfb780c6040518060e001604052806001808111156134785761347861499f565b8152602001885f01516001600160a01b03168152602001856001600160a01b0316815260200188602001516001600160a01b031681526020018a81526020018681526020018e80608001906134cd919061427e565b8080601f0160208091040260200160405190810160405280939291908181526020018383808284375f9201919091525050509152506040516001600160e01b031960e084901b1681526135239190600401614be4565b6060604051808303815f875af115801561353f573d5f803e3d5ffd5b505050506040513d601f19601f820116820180604052508101906135639190614a17565b509150508360200151156135bf57808a8a815181106135845761358461426a565b60209081029190910101526135ba82827f000000000000000000000000000000000000000000000000000000000000000061161a565b6135c3565b8096505b505b50505050806135d3906148d5565b90506128ee565b505050806001019050612853565b6060826135fd576135f882613a11565b6121e3565b815115801561361457506001600160a01b0384163b155b15610b82576040517f9996b3150000000000000000000000000000000000000000000000000000000081526001600160a01b0385166004820152602401610dbc565b80471015613699576040517fcf47918100000000000000000000000000000000000000000000000000000000815247600482015260248101829052604401610dbc565b5f826001600160a01b0316826040515f6040518083038185875af1925050503d805f81146136e2576040519150601f19603f3d011682016040523d82523d5f602084013e6136e7565b606091505b50509050806122025760405163d6bda27560e01b815260040160405180910390fd5b5f6137148383613a3a565b613740576137228383613a51565b6137388261372f856138f7565b60018601610f71565b506001611475565b505f611475565b6122028161375585856121cd565b61375f91906148a3565b5f848152602086905260409020610a3f565b5f6001600160a01b0382111561123f576040517f6dfcc65000000000000000000000000000000000000000000000000000000000815260a0600482015260248101839052604401610dbc565b612202816137cb85856121cd565b61375f919061498c565b6040517fc9c1661b0000000000000000000000000000000000000000000000000000000081526001600160a01b03848116600483015283811660248301526060915f9182917f00000000000000000000000000000000000000000000000000000000000000009091169063c9c1661b906044016040805180830381865afa158015613862573d5f803e3d5ffd5b505050506040513d601f19601f820116820180604052508101906138869190614c57565b925090508067ffffffffffffffff8111156138a3576138a3613e9f565b6040519080825280602002602001820160405280156138cc578160200160208202803683370190505b509250838383815181106138e2576138e261426a565b60200260200101818152505050935093915050565b5f815c611475565b5f6121e36108b56121e084613919875f9081526020902090565b0190565b604080516001600160a01b038416602482015260448082018490528251808303909101815260649091019091526020810180516001600160e01b03167fa9059cbb00000000000000000000000000000000000000000000000000000000179052612202908490613a84565b5f6139938383613b09565b6121e36108b56121e084613919875f9081526020902090565b6139b68383613b09565b61220281610a3f6121e085613919885f9081526020902090565b5f806139de6001845c61498c565b90506139ea8184610a3f565b5f613a016121e083613919875f9081526020902090565b9050805c92506121c6815f611400565b805115613a215780518082602001fd5b60405163d6bda27560e01b815260040160405180910390fd5b5f613a488260018501610eba565b15159392505050565b5f825c9050613a7082610a3f6121e084613919885f9081526020902090565b612202613a7e8260016148a3565b84610a3f565b5f8060205f8451602086015f885af180613aa3576040513d5f823e3d81fd5b50505f513d91508115613aba578060011415613ac7565b6001600160a01b0384163b155b156111af576040517f5274afe70000000000000000000000000000000000000000000000000000000081526001600160a01b0385166004820152602401610dbc565b815c808210612202576040517f0f4ae0e400000000000000000000000000000000000000000000000000000000815260040160405180910390fd5b5f60a08284031215612125575f80fd5b5f60208284031215613b64575f80fd5b813567ffffffffffffffff811115613b7a575f80fd5b613b8684828501613b44565b949350505050565b5f815180845260208085019450602084015f5b83811015613bbd57815187529582019590820190600101613ba1565b509495945050505050565b606081525f613bda6060830186613b8e565b8281036020848101919091528551808352868201928201905f5b81811015613c195784516001600160a01b031683529383019391830191600101613bf4565b50508481036040860152613c2d8187613b8e565b98975050505050505050565b5f8083601f840112613c49575f80fd5b50813567ffffffffffffffff811115613c60575f80fd5b60208301915083602060c083028501011115613c7a575f80fd5b9250929050565b5f8083601f840112613c91575f80fd5b50813567ffffffffffffffff811115613ca8575f80fd5b6020830191508360208260051b8501011115613c7a575f80fd5b5f60608284031215612125575f80fd5b5f8083601f840112613ce2575f80fd5b50813567ffffffffffffffff811115613cf9575f80fd5b602083019150836020828501011115613c7a575f80fd5b5f805f805f805f805f60a08a8c031215613d28575f80fd5b893567ffffffffffffffff80821115613d3f575f80fd5b613d4b8d838e01613c39565b909b50995060208c0135915080821115613d63575f80fd5b613d6f8d838e01613c81565b909950975060408c0135915080821115613d87575f80fd5b613d938d838e01613cc2565b965060608c0135915080821115613da8575f80fd5b613db48d838e01613cd2565b909650945060808c0135915080821115613dcc575f80fd5b50613dd98c828d01613c81565b915080935050809150509295985092959850929598565b5f5b83811015613e0a578181015183820152602001613df2565b50505f910152565b5f8151808452613e29816020860160208601613df0565b601f01601f19169290920160200192915050565b5f60208083016020845280855180835260408601915060408160051b8701019250602087015f5b82811015613e9257603f19888603018452613e80858351613e12565b94509285019290850190600101613e64565b5092979650505050505050565b634e487b7160e01b5f52604160045260245ffd5b6040516080810167ffffffffffffffff81118282101715613ed657613ed6613e9f565b60405290565b6040516060810167ffffffffffffffff81118282101715613ed657613ed6613e9f565b604051601f8201601f1916810167ffffffffffffffff81118282101715613f2857613f28613e9f565b604052919050565b5f67ffffffffffffffff821115613f4957613f49613e9f565b5060051b60200190565b6001600160a01b03811681146112ae575f80fd5b8035613f7281613f53565b919050565b80358015158114613f72575f80fd5b5f60808284031215613f96575f80fd5b613f9e613eb3565b90508135613fab81613f53565b815260208281013567ffffffffffffffff811115613fc7575f80fd5b8301601f81018513613fd7575f80fd5b8035613fea613fe582613f30565b613eff565b81815260609182028301840191848201919088841115614008575f80fd5b938501935b838510156140695780858a031215614023575f80fd5b61402b613edc565b853561403681613f53565b81528587013561404581613f53565b818801526040614056878201613f77565b908201528352938401939185019161400d565b5080858701525050505050604082013560408201526060820135606082015292915050565b5f82601f83011261409d575f80fd5b813560206140ad613fe583613f30565b82815260059290921b840181019181810190868411156140cb575f80fd5b8286015b8481101561410957803567ffffffffffffffff8111156140ed575f80fd5b6140fb8986838b0101613f86565b8452509183019183016140cf565b509695505050505050565b5f805f805f60808688031215614128575f80fd5b853567ffffffffffffffff8082111561413f575f80fd5b61414b89838a0161408e565b96506020880135955061416060408901613f77565b94506060880135915080821115614175575f80fd5b5061418288828901613cd2565b969995985093965092949392505050565b5f805f604084860312156141a5575f80fd5b833567ffffffffffffffff808211156141bc575f80fd5b6141c88783880161408e565b945060208601359150808211156141dd575f80fd5b506141ea86828701613cd2565b9497909650939450505050565b5f8060208385031215614208575f80fd5b823567ffffffffffffffff81111561421e575f80fd5b61422a85828601613c81565b90969095509350505050565b5f60208284031215614246575f80fd5b81356121e381613f53565b5f60208284031215614261575f80fd5b6121e382613f77565b634e487b7160e01b5f52603260045260245ffd5b5f808335601e19843603018112614293575f80fd5b83018035915067ffffffffffffffff8211156142ad575f80fd5b602001915036819003821315613c7a575f80fd5b5f60c082840312156142d1575f80fd5b60405160c0810181811067ffffffffffffffff821117156142f4576142f4613e9f565b604052823561430281613f53565b8152602083013561431281613f53565b6020820152604083013561432581613f53565b80604083015250606083013560608201526080830135608082015260a083013560a08201528091505092915050565b5f808335601e19843603018112614369575f80fd5b83018035915067ffffffffffffffff821115614383575f80fd5b6020019150600781901b3603821315613c7a575f80fd5b803565ffffffffffff81168114613f72575f80fd5b81835281816020850137505f828201602090810191909152601f909101601f19169091010190565b5f60606001600160a01b03808816845260206060602086015260c085018835601e198a3603018112614407575f80fd5b890160208101903567ffffffffffffffff811115614423575f80fd5b8060071b3603821315614434575f80fd5b60608881015291829052905f9060e088015b818310156144b257833561445981613f53565b861681528385013561446a81613f53565b861681860152604061447d85820161439a565b65ffffffffffff80821683850152806144978b890161439a565b16848b01525050506080938401936001939093019201614446565b6144be60208d01613f67565b6001600160a01b03811660808b0152965060408c013560a08a015288810360408a01526144ec818b8d6143af565b9d9c50505050505050505050505050565b5f608083016001600160a01b0380845116855260208085015160808288015283815180865260a08901915083830195505f92505b8083101561456d578551805186168352848101518616858401526040908101511515908301529483019460019290920191606090910190614531565b506040870151604089015260608701516060890152809550505050505092915050565b5f602080835260c083016001600160a01b03855116828501528185015160a0604086015281815180845260e08701915060e08160051b880101935084830192505f5b818110156146005760df198886030183526145ee8585516144fd565b945092850192918501916001016145d2565b505050506040850151606085015260608501519150614623608085018315159052565b6080850151848203601f190160a086015291506114708183613e12565b602081525f6121e36020830184613e12565b5f82601f830112614661575f80fd5b815167ffffffffffffffff81111561467b5761467b613e9f565b61468e601f8201601f1916602001613eff565b8181528460208386010111156146a2575f80fd5b613b86826020830160208701613df0565b5f602082840312156146c3575f80fd5b815167ffffffffffffffff8111156146d9575f80fd5b613b8684828501614652565b5f82601f8301126146f4575f80fd5b81516020614704613fe583613f30565b8083825260208201915060208460051b870101935086841115614725575f80fd5b602086015b84811015614109578051835291830191830161472a565b5f805f60608486031215614753575f80fd5b835167ffffffffffffffff8082111561476a575f80fd5b614776878388016146e5565b945060209150818601518181111561478c575f80fd5b8601601f8101881361479c575f80fd5b80516147aa613fe582613f30565b81815260059190911b8201840190848101908a8311156147c8575f80fd5b928501925b828410156147ef5783516147e081613f53565b825292850192908501906147cd565b60408a0151909750945050505080821115614808575f80fd5b50614815868287016146e5565b9150509250925092565b5f602080835260c083016001600160a01b03855116828501528185015160a0604086015281815180845260e08701915060e08160051b880101935084830192505f5b818110156146005760df1988860301835261487d8585516144fd565b94509285019291850191600101614861565b634e487b7160e01b5f52601160045260245ffd5b808201808211156114755761147561488f565b8181035f831280158383131683831282161715610b8257610b8261488f565b5f7f800000000000000000000000000000000000000000000000000000000000000082036149055761490561488f565b505f190190565b5f825161491d818460208701613df0565b9190910192915050565b5f808335601e1984360301811261493c575f80fd5b83018035915067ffffffffffffffff821115614956575f80fd5b6020019150600581901b3603821315613c7a575f80fd5b5f8235607e1983360301811261491d575f80fd5b5f6114753683613f86565b818103818111156114755761147561488f565b634e487b7160e01b5f52602160045260245ffd5b600281106112ae576112ae61499f565b815160a08201906149d3816149b3565b825260208301516149e3816149b3565b806020840152506001600160a01b036040840151166040830152606083015160608301526080830151608083015292915050565b5f805f60608486031215614a29575f80fd5b8351925060208401519150604084015190509250925092565b602081525f6001600160a01b038084511660208401528060208501511660408401525060408301516060830152606083015160c06080840152614a8860e0840182613b8e565b9050608084015160048110614a9f57614a9f61499f565b8060a08501525060a0840151601f198483030160c08501526114708282613e12565b5f805f60608486031215614ad3575f80fd5b83519250602084015167ffffffffffffffff80821115614af1575f80fd5b614afd878388016146e5565b93506040860151915080821115614b12575f80fd5b5061481586828701614652565b602081525f6001600160a01b0380845116602084015280602085015116604084015250604083015160c06060840152614b5b60e0840182613b8e565b905060608401516080840152608084015160058110614a9f57614a9f61499f565b5f805f60608486031215614b8e575f80fd5b835167ffffffffffffffff80821115614ba5575f80fd5b614bb1878388016146e5565b9450602086015193506040860151915080821115614b12575f80fd5b5f60208284031215614bdd575f80fd5b5051919050565b602081525f8251614bf4816149b3565b8060208401525060208301516001600160a01b0380821660408501528060408601511660608501528060608601511660808501525050608083015160a083015260a083015160c083015260c083015160e080840152613b86610100840182613e12565b5f8060408385031215614c68575f80fd5b50508051602090910151909290915056fea2646970667358221220be1079edcaa6544cdff65111eda456253eb54d2607a9637dddc899b817dc181664736f6c63430008180033","linkReferences":{}},"methodIdentifiers":{"getSender()":"5e01eb5a","multicall(bytes[])":"ac9650d8","permitBatchAndCall((address,address,address,uint256,uint256,uint256)[],bytes[],((address,uint160,uint48,uint48)[],address,uint256),bytes,bytes[])":"19c6989f","querySwapExactIn((address,(address,address,bool)[],uint256,uint256)[],bytes)":"fe893e8b","querySwapExactInHook((address,(address,(address,address,bool)[],uint256,uint256)[],uint256,bool,bytes))":"8a12a08c","querySwapExactOut((address,(address,address,bool)[],uint256,uint256)[],bytes)":"3910ab2a","querySwapExactOutHook((address,(address,(address,address,bool)[],uint256,uint256)[],uint256,bool,bytes))":"5a3c3987","swapExactIn((address,(address,address,bool)[],uint256,uint256)[],uint256,bool,bytes)":"286f580d","swapExactInHook((address,(address,(address,address,bool)[],uint256,uint256)[],uint256,bool,bytes))":"08a465f6","swapExactOut((address,(address,address,bool)[],uint256,uint256)[],uint256,bool,bytes)":"8eb1b65e","swapExactOutHook((address,(address,(address,address,bool)[],uint256,uint256)[],uint256,bool,bytes))":"945ed33f"},"id":83}