{"abi":[{"type":"constructor","inputs":[{"name":"vault","type":"address","internalType":"contract IVault"}],"stateMutability":"nonpayable"},{"type":"function","name":"addLiquidityHookDiscountPercentage","inputs":[],"outputs":[{"name":"","type":"uint256","internalType":"uint256"}],"stateMutability":"view"},{"type":"function","name":"addLiquidityHookFeePercentage","inputs":[],"outputs":[{"name":"","type":"uint256","internalType":"uint256"}],"stateMutability":"view"},{"type":"function","name":"allowFactory","inputs":[{"name":"factory","type":"address","internalType":"address"}],"outputs":[],"stateMutability":"nonpayable"},{"type":"function","name":"changePoolBalancesOnBeforeAddLiquidityHook","inputs":[],"outputs":[{"name":"","type":"bool","internalType":"bool"}],"stateMutability":"view"},{"type":"function","name":"changePoolBalancesOnBeforeRemoveLiquidityHook","inputs":[],"outputs":[{"name":"","type":"bool","internalType":"bool"}],"stateMutability":"view"},{"type":"function","name":"changePoolBalancesOnBeforeSwapHook","inputs":[],"outputs":[{"name":"","type":"bool","internalType":"bool"}],"stateMutability":"view"},{"type":"function","name":"changeTokenRateOnBeforeAddLiquidity","inputs":[],"outputs":[{"name":"","type":"bool","internalType":"bool"}],"stateMutability":"view"},{"type":"function","name":"changeTokenRateOnBeforeInitialize","inputs":[],"outputs":[{"name":"","type":"bool","internalType":"bool"}],"stateMutability":"view"},{"type":"function","name":"changeTokenRateOnBeforeRemoveLiquidity","inputs":[],"outputs":[{"name":"","type":"bool","internalType":"bool"}],"stateMutability":"view"},{"type":"function","name":"changeTokenRateOnBeforeSwapHook","inputs":[],"outputs":[{"name":"","type":"bool","internalType":"bool"}],"stateMutability":"view"},{"type":"function","name":"denyFactory","inputs":[{"name":"factory","type":"address","internalType":"address"}],"outputs":[],"stateMutability":"nonpayable"},{"type":"function","name":"disableForcedHookAdjustedAmounts","inputs":[],"outputs":[],"stateMutability":"nonpayable"},{"type":"function","name":"enableForcedHookAdjustedAmountsLiquidity","inputs":[{"name":"hookAdjustedAmountsLiquidity","type":"uint256[]","internalType":"uint256[]"}],"outputs":[],"stateMutability":"nonpayable"},{"type":"function","name":"failOnAfterAddLiquidity","inputs":[],"outputs":[{"name":"","type":"bool","internalType":"bool"}],"stateMutability":"view"},{"type":"function","name":"failOnAfterInitialize","inputs":[],"outputs":[{"name":"","type":"bool","internalType":"bool"}],"stateMutability":"view"},{"type":"function","name":"failOnAfterRemoveLiquidity","inputs":[],"outputs":[{"name":"","type":"bool","internalType":"bool"}],"stateMutability":"view"},{"type":"function","name":"failOnAfterSwapHook","inputs":[],"outputs":[{"name":"","type":"bool","internalType":"bool"}],"stateMutability":"view"},{"type":"function","name":"failOnBeforeAddLiquidity","inputs":[],"outputs":[{"name":"","type":"bool","internalType":"bool"}],"stateMutability":"view"},{"type":"function","name":"failOnBeforeInitialize","inputs":[],"outputs":[{"name":"","type":"bool","internalType":"bool"}],"stateMutability":"view"},{"type":"function","name":"failOnBeforeRemoveLiquidity","inputs":[],"outputs":[{"name":"","type":"bool","internalType":"bool"}],"stateMutability":"view"},{"type":"function","name":"failOnBeforeSwapHook","inputs":[],"outputs":[{"name":"","type":"bool","internalType":"bool"}],"stateMutability":"view"},{"type":"function","name":"failOnComputeDynamicSwapFeeHook","inputs":[],"outputs":[{"name":"","type":"bool","internalType":"bool"}],"stateMutability":"view"},{"type":"function","name":"forcedHookAdjustedAmountsLiquidity","inputs":[{"name":"","type":"uint256","internalType":"uint256"}],"outputs":[{"name":"","type":"uint256","internalType":"uint256"}],"stateMutability":"view"},{"type":"function","name":"getHookFlags","inputs":[],"outputs":[{"name":"","type":"tuple","internalType":"struct HookFlags","components":[{"name":"enableHookAdjustedAmounts","type":"bool","internalType":"bool"},{"name":"shouldCallBeforeInitialize","type":"bool","internalType":"bool"},{"name":"shouldCallAfterInitialize","type":"bool","internalType":"bool"},{"name":"shouldCallComputeDynamicSwapFee","type":"bool","internalType":"bool"},{"name":"shouldCallBeforeSwap","type":"bool","internalType":"bool"},{"name":"shouldCallAfterSwap","type":"bool","internalType":"bool"},{"name":"shouldCallBeforeAddLiquidity","type":"bool","internalType":"bool"},{"name":"shouldCallAfterAddLiquidity","type":"bool","internalType":"bool"},{"name":"shouldCallBeforeRemoveLiquidity","type":"bool","internalType":"bool"},{"name":"shouldCallAfterRemoveLiquidity","type":"bool","internalType":"bool"}]}],"stateMutability":"view"},{"type":"function","name":"getSavedSender","inputs":[],"outputs":[{"name":"","type":"address","internalType":"address"}],"stateMutability":"view"},{"type":"function","name":"hookSwapDiscountPercentage","inputs":[],"outputs":[{"name":"","type":"uint256","internalType":"uint256"}],"stateMutability":"view"},{"type":"function","name":"hookSwapFeePercentage","inputs":[],"outputs":[{"name":"","type":"uint256","internalType":"uint256"}],"stateMutability":"view"},{"type":"function","name":"onAfterAddLiquidity","inputs":[{"name":"","type":"address","internalType":"address"},{"name":"pool","type":"address","internalType":"address"},{"name":"","type":"uint8","internalType":"enum AddLiquidityKind"},{"name":"","type":"uint256[]","internalType":"uint256[]"},{"name":"amountsInRaw","type":"uint256[]","internalType":"uint256[]"},{"name":"","type":"uint256","internalType":"uint256"},{"name":"","type":"uint256[]","internalType":"uint256[]"},{"name":"","type":"bytes","internalType":"bytes"}],"outputs":[{"name":"","type":"bool","internalType":"bool"},{"name":"hookAdjustedAmountsInRaw","type":"uint256[]","internalType":"uint256[]"}],"stateMutability":"nonpayable"},{"type":"function","name":"onAfterInitialize","inputs":[{"name":"","type":"uint256[]","internalType":"uint256[]"},{"name":"","type":"uint256","internalType":"uint256"},{"name":"","type":"bytes","internalType":"bytes"}],"outputs":[{"name":"","type":"bool","internalType":"bool"}],"stateMutability":"view"},{"type":"function","name":"onAfterRemoveLiquidity","inputs":[{"name":"","type":"address","internalType":"address"},{"name":"pool","type":"address","internalType":"address"},{"name":"","type":"uint8","internalType":"enum RemoveLiquidityKind"},{"name":"","type":"uint256","internalType":"uint256"},{"name":"","type":"uint256[]","internalType":"uint256[]"},{"name":"amountsOutRaw","type":"uint256[]","internalType":"uint256[]"},{"name":"","type":"uint256[]","internalType":"uint256[]"},{"name":"","type":"bytes","internalType":"bytes"}],"outputs":[{"name":"","type":"bool","internalType":"bool"},{"name":"hookAdjustedAmountsOutRaw","type":"uint256[]","internalType":"uint256[]"}],"stateMutability":"nonpayable"},{"type":"function","name":"onAfterSwap","inputs":[{"name":"params","type":"tuple","internalType":"struct AfterSwapParams","components":[{"name":"kind","type":"uint8","internalType":"enum SwapKind"},{"name":"tokenIn","type":"address","internalType":"contract IERC20"},{"name":"tokenOut","type":"address","internalType":"contract IERC20"},{"name":"amountInScaled18","type":"uint256","internalType":"uint256"},{"name":"amountOutScaled18","type":"uint256","internalType":"uint256"},{"name":"tokenInBalanceScaled18","type":"uint256","internalType":"uint256"},{"name":"tokenOutBalanceScaled18","type":"uint256","internalType":"uint256"},{"name":"amountCalculatedScaled18","type":"uint256","internalType":"uint256"},{"name":"amountCalculatedRaw","type":"uint256","internalType":"uint256"},{"name":"router","type":"address","internalType":"address"},{"name":"pool","type":"address","internalType":"address"},{"name":"userData","type":"bytes","internalType":"bytes"}]}],"outputs":[{"name":"","type":"bool","internalType":"bool"},{"name":"","type":"uint256","internalType":"uint256"}],"stateMutability":"nonpayable"},{"type":"function","name":"onBeforeAddLiquidity","inputs":[{"name":"router","type":"address","internalType":"address"},{"name":"","type":"address","internalType":"address"},{"name":"","type":"uint8","internalType":"enum AddLiquidityKind"},{"name":"","type":"uint256[]","internalType":"uint256[]"},{"name":"","type":"uint256","internalType":"uint256"},{"name":"","type":"uint256[]","internalType":"uint256[]"},{"name":"","type":"bytes","internalType":"bytes"}],"outputs":[{"name":"","type":"bool","internalType":"bool"}],"stateMutability":"nonpayable"},{"type":"function","name":"onBeforeInitialize","inputs":[{"name":"","type":"uint256[]","internalType":"uint256[]"},{"name":"","type":"bytes","internalType":"bytes"}],"outputs":[{"name":"","type":"bool","internalType":"bool"}],"stateMutability":"nonpayable"},{"type":"function","name":"onBeforeRemoveLiquidity","inputs":[{"name":"router","type":"address","internalType":"address"},{"name":"","type":"address","internalType":"address"},{"name":"","type":"uint8","internalType":"enum RemoveLiquidityKind"},{"name":"","type":"uint256","internalType":"uint256"},{"name":"","type":"uint256[]","internalType":"uint256[]"},{"name":"","type":"uint256[]","internalType":"uint256[]"},{"name":"","type":"bytes","internalType":"bytes"}],"outputs":[{"name":"","type":"bool","internalType":"bool"}],"stateMutability":"nonpayable"},{"type":"function","name":"onBeforeSwap","inputs":[{"name":"params","type":"tuple","internalType":"struct PoolSwapParams","components":[{"name":"kind","type":"uint8","internalType":"enum SwapKind"},{"name":"amountGivenScaled18","type":"uint256","internalType":"uint256"},{"name":"balancesScaled18","type":"uint256[]","internalType":"uint256[]"},{"name":"indexIn","type":"uint256","internalType":"uint256"},{"name":"indexOut","type":"uint256","internalType":"uint256"},{"name":"router","type":"address","internalType":"address"},{"name":"userData","type":"bytes","internalType":"bytes"}]},{"name":"","type":"address","internalType":"address"}],"outputs":[{"name":"","type":"bool","internalType":"bool"}],"stateMutability":"nonpayable"},{"type":"function","name":"onComputeDynamicSwapFeePercentage","inputs":[{"name":"params","type":"tuple","internalType":"struct PoolSwapParams","components":[{"name":"kind","type":"uint8","internalType":"enum SwapKind"},{"name":"amountGivenScaled18","type":"uint256","internalType":"uint256"},{"name":"balancesScaled18","type":"uint256[]","internalType":"uint256[]"},{"name":"indexIn","type":"uint256","internalType":"uint256"},{"name":"indexOut","type":"uint256","internalType":"uint256"},{"name":"router","type":"address","internalType":"address"},{"name":"userData","type":"bytes","internalType":"bytes"}]},{"name":"","type":"address","internalType":"address"},{"name":"","type":"uint256","internalType":"uint256"}],"outputs":[{"name":"","type":"bool","internalType":"bool"},{"name":"","type":"uint256","internalType":"uint256"}],"stateMutability":"view"},{"type":"function","name":"onRegister","inputs":[{"name":"factory","type":"address","internalType":"address"},{"name":"","type":"address","internalType":"address"},{"name":"","type":"tuple[]","internalType":"struct TokenConfig[]","components":[{"name":"token","type":"address","internalType":"contract IERC20"},{"name":"tokenType","type":"uint8","internalType":"enum TokenType"},{"name":"rateProvider","type":"address","internalType":"contract IRateProvider"},{"name":"paysYieldFees","type":"bool","internalType":"bool"}]},{"name":"","type":"tuple","internalType":"struct LiquidityManagement","components":[{"name":"disableUnbalancedLiquidity","type":"bool","internalType":"bool"},{"name":"enableAddLiquidityCustom","type":"bool","internalType":"bool"},{"name":"enableRemoveLiquidityCustom","type":"bool","internalType":"bool"},{"name":"enableDonation","type":"bool","internalType":"bool"}]}],"outputs":[{"name":"","type":"bool","internalType":"bool"}],"stateMutability":"view"},{"type":"function","name":"removeLiquidityHookDiscountPercentage","inputs":[],"outputs":[{"name":"","type":"uint256","internalType":"uint256"}],"stateMutability":"view"},{"type":"function","name":"removeLiquidityHookFeePercentage","inputs":[],"outputs":[{"name":"","type":"uint256","internalType":"uint256"}],"stateMutability":"view"},{"type":"function","name":"setAddLiquidityHookDiscountPercentage","inputs":[{"name":"hookDiscountPercentage","type":"uint256","internalType":"uint256"}],"outputs":[],"stateMutability":"nonpayable"},{"type":"function","name":"setAddLiquidityHookFeePercentage","inputs":[{"name":"hookFeePercentage","type":"uint256","internalType":"uint256"}],"outputs":[],"stateMutability":"nonpayable"},{"type":"function","name":"setChangePoolBalancesOnBeforeAddLiquidityHook","inputs":[{"name":"changeBalances","type":"bool","internalType":"bool"},{"name":"newBalancesRaw","type":"uint256[]","internalType":"uint256[]"}],"outputs":[],"stateMutability":"nonpayable"},{"type":"function","name":"setChangePoolBalancesOnBeforeRemoveLiquidityHook","inputs":[{"name":"changeBalances","type":"bool","internalType":"bool"},{"name":"newBalancesRaw","type":"uint256[]","internalType":"uint256[]"}],"outputs":[],"stateMutability":"nonpayable"},{"type":"function","name":"setChangePoolBalancesOnBeforeSwapHook","inputs":[{"name":"changeBalances","type":"bool","internalType":"bool"},{"name":"newBalancesRaw","type":"uint256[]","internalType":"uint256[]"}],"outputs":[],"stateMutability":"nonpayable"},{"type":"function","name":"setChangeTokenRateOnBeforeAddLiquidityHook","inputs":[{"name":"changeRate","type":"bool","internalType":"bool"},{"name":"rateProvider","type":"address","internalType":"contract RateProviderMock"},{"name":"newTokenRate","type":"uint256","internalType":"uint256"}],"outputs":[],"stateMutability":"nonpayable"},{"type":"function","name":"setChangeTokenRateOnBeforeInitializeHook","inputs":[{"name":"changeRate","type":"bool","internalType":"bool"},{"name":"rateProvider","type":"address","internalType":"contract RateProviderMock"},{"name":"newTokenRate","type":"uint256","internalType":"uint256"}],"outputs":[],"stateMutability":"nonpayable"},{"type":"function","name":"setChangeTokenRateOnBeforeRemoveLiquidityHook","inputs":[{"name":"changeRate","type":"bool","internalType":"bool"},{"name":"rateProvider","type":"address","internalType":"contract RateProviderMock"},{"name":"newTokenRate","type":"uint256","internalType":"uint256"}],"outputs":[],"stateMutability":"nonpayable"},{"type":"function","name":"setChangeTokenRateOnBeforeSwapHook","inputs":[{"name":"changeRate","type":"bool","internalType":"bool"},{"name":"rateProvider","type":"address","internalType":"contract RateProviderMock"},{"name":"newTokenRate","type":"uint256","internalType":"uint256"}],"outputs":[],"stateMutability":"nonpayable"},{"type":"function","name":"setDynamicSwapFeePercentage","inputs":[{"name":"dynamicSwapFee","type":"uint256","internalType":"uint256"}],"outputs":[],"stateMutability":"nonpayable"},{"type":"function","name":"setFailOnAfterAddLiquidityHook","inputs":[{"name":"fail","type":"bool","internalType":"bool"}],"outputs":[],"stateMutability":"nonpayable"},{"type":"function","name":"setFailOnAfterInitializeHook","inputs":[{"name":"fail","type":"bool","internalType":"bool"}],"outputs":[],"stateMutability":"nonpayable"},{"type":"function","name":"setFailOnAfterRemoveLiquidityHook","inputs":[{"name":"fail","type":"bool","internalType":"bool"}],"outputs":[],"stateMutability":"nonpayable"},{"type":"function","name":"setFailOnAfterSwapHook","inputs":[{"name":"fail","type":"bool","internalType":"bool"}],"outputs":[],"stateMutability":"nonpayable"},{"type":"function","name":"setFailOnBeforeAddLiquidityHook","inputs":[{"name":"fail","type":"bool","internalType":"bool"}],"outputs":[],"stateMutability":"nonpayable"},{"type":"function","name":"setFailOnBeforeInitializeHook","inputs":[{"name":"fail","type":"bool","internalType":"bool"}],"outputs":[],"stateMutability":"nonpayable"},{"type":"function","name":"setFailOnBeforeRemoveLiquidityHook","inputs":[{"name":"fail","type":"bool","internalType":"bool"}],"outputs":[],"stateMutability":"nonpayable"},{"type":"function","name":"setFailOnBeforeSwapHook","inputs":[{"name":"fail","type":"bool","internalType":"bool"}],"outputs":[],"stateMutability":"nonpayable"},{"type":"function","name":"setFailOnComputeDynamicSwapFeeHook","inputs":[{"name":"fail","type":"bool","internalType":"bool"}],"outputs":[],"stateMutability":"nonpayable"},{"type":"function","name":"setHookFlags","inputs":[{"name":"hookFlags","type":"tuple","internalType":"struct HookFlags","components":[{"name":"enableHookAdjustedAmounts","type":"bool","internalType":"bool"},{"name":"shouldCallBeforeInitialize","type":"bool","internalType":"bool"},{"name":"shouldCallAfterInitialize","type":"bool","internalType":"bool"},{"name":"shouldCallComputeDynamicSwapFee","type":"bool","internalType":"bool"},{"name":"shouldCallBeforeSwap","type":"bool","internalType":"bool"},{"name":"shouldCallAfterSwap","type":"bool","internalType":"bool"},{"name":"shouldCallBeforeAddLiquidity","type":"bool","internalType":"bool"},{"name":"shouldCallAfterAddLiquidity","type":"bool","internalType":"bool"},{"name":"shouldCallBeforeRemoveLiquidity","type":"bool","internalType":"bool"},{"name":"shouldCallAfterRemoveLiquidity","type":"bool","internalType":"bool"}]}],"outputs":[],"stateMutability":"nonpayable"},{"type":"function","name":"setHookSwapDiscountPercentage","inputs":[{"name":"discountPercentage","type":"uint256","internalType":"uint256"}],"outputs":[],"stateMutability":"nonpayable"},{"type":"function","name":"setHookSwapFeePercentage","inputs":[{"name":"feePercentage","type":"uint256","internalType":"uint256"}],"outputs":[],"stateMutability":"nonpayable"},{"type":"function","name":"setPool","inputs":[{"name":"pool","type":"address","internalType":"address"}],"outputs":[],"stateMutability":"nonpayable"},{"type":"function","name":"setRemoveLiquidityHookDiscountPercentage","inputs":[{"name":"hookDiscountPercentage","type":"uint256","internalType":"uint256"}],"outputs":[],"stateMutability":"nonpayable"},{"type":"function","name":"setRemoveLiquidityHookFeePercentage","inputs":[{"name":"hookFeePercentage","type":"uint256","internalType":"uint256"}],"outputs":[],"stateMutability":"nonpayable"},{"type":"function","name":"setShouldIgnoreSavedSender","inputs":[{"name":"value","type":"bool","internalType":"bool"}],"outputs":[],"stateMutability":"nonpayable"},{"type":"function","name":"setShouldSettleDiscount","inputs":[{"name":"shouldSettleDiscountFlag","type":"bool","internalType":"bool"}],"outputs":[],"stateMutability":"nonpayable"},{"type":"function","name":"setSpecialSender","inputs":[{"name":"sender","type":"address","internalType":"address"}],"outputs":[],"stateMutability":"nonpayable"},{"type":"function","name":"setSwapReentrancyHook","inputs":[{"name":"hookContract","type":"address","internalType":"address"},{"name":"data","type":"bytes","internalType":"bytes"}],"outputs":[],"stateMutability":"nonpayable"},{"type":"function","name":"setSwapReentrancyHookActive","inputs":[{"name":"_swapReentrancyHookActive","type":"bool","internalType":"bool"}],"outputs":[],"stateMutability":"nonpayable"},{"type":"function","name":"shouldForceHookAdjustedAmounts","inputs":[],"outputs":[{"name":"","type":"bool","internalType":"bool"}],"stateMutability":"view"},{"type":"function","name":"shouldIgnoreSavedSender","inputs":[],"outputs":[{"name":"","type":"bool","internalType":"bool"}],"stateMutability":"view"},{"type":"function","name":"shouldSettleDiscount","inputs":[],"outputs":[{"name":"","type":"bool","internalType":"bool"}],"stateMutability":"view"},{"type":"function","name":"swapReentrancyHookActive","inputs":[],"outputs":[{"name":"","type":"bool","internalType":"bool"}],"stateMutability":"view"},{"type":"error","name":"AddressEmptyCode","inputs":[{"name":"target","type":"address","internalType":"address"}]},{"type":"error","name":"FailedCall","inputs":[]},{"type":"error","name":"InsufficientBalance","inputs":[{"name":"balance","type":"uint256","internalType":"uint256"},{"name":"needed","type":"uint256","internalType":"uint256"}]}],"bytecode":{"object":"0x60a060405234801562000010575f80fd5b5060405162003cc738038062003cc783398101604081905262000033916200005c565b6001600160a01b03166080526002805460ff60381b19166701000000000000001790556200008b565b5f602082840312156200006d575f80fd5b81516001600160a01b038116811462000084575f80fd5b9392505050565b608051613ba5620001225f395f8181610f2a01528181610fd201528181611089015281816113ab0152818161145c015281816115890152818161160f015281816116ff015281816117850152818161191601528181611a0601528181611b2b01528181611bf5015281816121500152818161222a0152818161234d015281816124170152818161276301526128040152613ba55ff3fe608060405234801561000f575f80fd5b50600436106104a7575f3560e01c806371eff9d211610277578063ba5f9f4011610162578063e326f03a116100dd578063e9f7c59111610093578063f5279d9c11610079578063f5279d9c14610eb6578063f8b5ef8514610ec7578063fc6e0f5914610eda575f80fd5b8063e9f7c59114610d79578063eb49927014610ead575f80fd5b8063e5e3b67e116100c3578063e5e3b67e14610cfe578063e62eecdd14610d1f578063e908e85d14610d70575f80fd5b8063e326f03a14610cd7578063e4c593d714610ce9575f80fd5b8063d4f8318211610132578063da09aacf11610118578063da09aacf14610c83578063dc7776ca14610c96578063dda1c15b14610cc4575f80fd5b8063d4f8318214610b3a578063d77153a714610b69575f80fd5b8063ba5f9f4014610ab2578063bd825f6b14610ac5578063c25dade814610ace578063d3fca63714610b13575f80fd5b8063a0e8f5ac116101f2578063af72105d116101c2578063b298157b116101a8578063b298157b14610a67578063b3a763b914610a74578063b445fbe714610a9f575f80fd5b8063af72105d14610a34578063b127e38514610a47575f80fd5b8063a0e8f5ac146109e2578063a5098f10146109f5578063a55e47be14610a09578063a975dda014610a1c575f80fd5b806387ac56911161024757806393c4b2861161022d57806393c4b286146109a8578063976907cc146109bb5780639f94c522146109ce575f80fd5b806387ac56911461094e5780638f5fae6214610977575f80fd5b806371eff9d2146108cb5780637b695d10146108de57806380c554c11461090b57806382fb5d211461091f575f80fd5b806334e3a8c3116103975780634f036756116103125780635cd00746116102e257806368c6db6a116102c857806368c6db6a146108505780636a9a0611146108715780636e7d75e51461089a575f80fd5b80635cd0074614610831578063677db20e1461083d575f80fd5b80634f036756146107b15780635211fa77146107be5780635351b230146107d15780635991de93146107e4575f80fd5b806340dc21d4116103675780634392312a1161034d5780634392312a146107655780634437152a1461076e57806345421ec71461079e575f80fd5b806340dc21d41461073c578063423ef81614610752575f80fd5b806334e3a8c3146106ef57806335f7290e1461070257806338be241d146107175780633d05719a1461072a575f80fd5b8063214ff4c5116104275780632e55a841116103f7578063335d4126116103dd578063335d41261461065d5780633478db73146106ac57806334a168ec146106dc575f80fd5b80632e55a8411461063d57806331378f4f14610650575f80fd5b8063214ff4c5146105e9578063232b59f7146105fc5780632352c2ed146106135780632754888d1461061c575f80fd5b80630b89f1821161047c5780631064dfdd116104625780631064dfdd1461057c57806318b6eb55146105ac5780631c149e28146105d6575f80fd5b80630b89f1821461053b5780630c54b1de14610569575f80fd5b80625b449c146104ab578062d332fd146104d657806302273467146104ed578063039388ba14610504575b5f80fd5b6002546104c19065010000000000900460ff1681565b60405190151581526020015b60405180910390f35b6002546104c1906601000000000000900460ff1681565b6104f660055481565b6040519081526020016104cd565b610539610512366004612ab7565b5f8054911515680100000000000000000268ff000000000000000019909216919091179055565b005b6104c1610549366004612beb565b5050506001600160a01b03165f9081526012602052604090205460ff1690565b610539610577366004612d77565b610eed565b61053961058a366004612da9565b600f80546001600160a01b0319166001600160a01b0392909216919091179055565b6105bf6105ba366004612dc4565b610f1c565b6040805192151583526020830191909152016104cd565b6104c16105e4366004612e68565b611857565b6105396105f7366004612ec8565b600d55565b6105395f805469ff00000000000000000019169055565b6104f660045481565b61062f61062a366004612eed565b611884565b6040516104cd929190612fcd565b61053961064b366004612ec8565b600555565b6009546104c19060ff1681565b61053961066b36600461301d565b60028054931515620100000262ff00001990941693909317909255600b80546001600160a01b039092166001600160a01b0319909216919091179055600c55565b6105396106ba366004612ab7565b60028054911515600160381b0267ff0000000000000019909216919091179055565b6105396106ea366004612ec8565b600855565b6105396106fd36600461305b565b611c90565b5f546104c19065010000000000900460ff1681565b6104c161072536600461309e565b611cc1565b6002546104c190610100900460ff1681565b5f546104c1906601000000000000900460ff1681565b610539610760366004613106565b611ccf565b6104f660035481565b61053961077c366004612da9565b600e80546001600160a01b0319166001600160a01b0392909216919091179055565b6104c16107ac366004613192565b611d19565b6011546104c19060ff1681565b6104c16107cc366004613262565b611e00565b5f546104c1906301000000900460ff1681565b6105396107f236600461301d565b600280549315156101000261ff001990941693909317909255600b80546001600160a01b039092166001600160a01b0319909216919091179055600c55565b5f546104c19060ff1681565b5f546104c190600160381b900460ff1681565b61053961085e366004612ab7565b6011805460ff1916911515919091179055565b60115461010090046001600160a01b03166040516001600160a01b0390911681526020016104cd565b6105396108a8366004612ab7565b5f805491151566010000000000000266ff00000000000019909216919091179055565b6105396108d936600461305b565b612062565b6105396108ec366004612ab7565b5f80549115156401000000000264ff0000000019909216919091179055565b6002546104c190600160381b900460ff1681565b61053961092d366004612ab7565b5f8054911515650100000000000265ff000000000019909216919091179055565b61053961095c366004612ab7565b5f8054911515620100000262ff000019909216919091179055565b610539610985366004612da9565b6001600160a01b03165f908152601260205260409020805460ff19166001179055565b6105396109b636600461305b565b612092565b61062f6109c93660046132b1565b6120c0565b6002546104c1906301000000900460ff1681565b6105bf6109f0366004613353565b6124af565b5f546104c190640100000000900460ff1681565b6104f6610a17366004612ec8565b61256d565b5f546104c19068010000000000000000900460ff1681565b6002546104c19062010000900460ff1681565b610539610a55366004612ab7565b5f805460ff1916911515919091179055565b6002546104c19060ff1681565b610539610a82366004612ab7565b5f805491151563010000000263ff00000019909216919091179055565b610539610aad366004612ec8565b600755565b6104c1610ac0366004613398565b61258c565b6104f660085481565b610539610adc36600461301d565b6002805460ff191693151593909317909255600b80546001600160a01b0319166001600160a01b0392909216919091179055600c55565b610539610b21366004612ab7565b5f80549115156101000261ff0019909216919091179055565b610539610b48366004612ab7565b5f8054911515600160381b0267ff0000000000000019909216919091179055565b610c7660408051610140810182525f80825260208201819052918101829052606081018290526080810182905260a0810182905260c0810182905260e08101829052610100810182905261012081019190915250604080516101408101825260135460ff8082161515835261010080830482161515602085015262010000830482161515948401949094526301000000820481161515606084015264010000000082048116151560808401526501000000000082048116151560a0840152660100000000000082048116151560c0840152600160381b82048116151560e08401526801000000000000000082048116151593830193909352600160481b9004909116151561012082015290565b6040516104cd919061341b565b610539610c91366004612ec8565b600355565b610539610ca4366004612da9565b6001600160a01b03165f908152601260205260409020805460ff19169055565b610539610cd2366004612ec8565b600655565b5f546104c19062010000900460ff1681565b6002546104c190640100000000900460ff1681565b610539610d0c366004612ab7565b6009805460ff1916911515919091179055565b610539610d2d36600461301d565b6002805493151563010000000263ff0000001990941693909317909255600b80546001600160a01b039092166001600160a01b0319909216919091179055600c55565b6104f660065481565b610539610d873660046134d3565b805160138054602084015160408501516060860151608087015160a088015160c089015160e08a0151610100808c0151610120909c015161ffff199099169a151561ff0019169a909a179615159099029590951763ffff00001916620100009415159490940263ff0000001916939093176301000000921515929092029190911765ffff0000000019166401000000009115159190910265ff000000000019161765010000000000911515919091021767ffff000000000000191666010000000000009115159190910267ff00000000000000191617600160381b931515939093029290921769ffff00000000000000001916680100000000000000009315159390930269ff000000000000000000191692909217600160481b91151591909102179055565b6104f660075481565b5f546104c190610100900460ff1681565b5f546104c190600160481b900460ff1681565b610539610ee8366004612ec8565b600455565b5f805469ff0000000000000000001916600160481b1790558051610f18906001906020840190612a3d565b5050565b5f8080806001600160a01b037f0000000000000000000000000000000000000000000000000000000000000000166367e0e076610f6161016088016101408901612da9565b6040516001600160e01b031960e084901b1681526001600160a01b0390911660048201526024015f60405180830381865afa158015610fa2573d5f803e3d5ffd5b505050506040513d5f823e601f3d908101601f19168201604052610fc9919081019061365a565b5092505091505f7f00000000000000000000000000000000000000000000000000000000000000006001600160a01b031663535cfd8a876101400160208101906110139190612da9565b6040516001600160e01b031960e084901b1681526001600160a01b0390911660048201526024015f60405180830381865afa158015611054573d5f803e3d5ffd5b505050506040513d5f823e601f3d908101601f1916820160405261107b9190810190613799565b90505f806001600160a01b037f000000000000000000000000000000000000000000000000000000000000000016637e361bde6110c06101608b016101408c01612da9565b6040516001600160e01b031960e084901b1681526001600160a01b0390911660048201526024015f60405180830381865afa158015611101573d5f803e3d5ffd5b505050506040513d5f823e601f3d908101601f1916820160405261112891908101906137cb565b915091505f5b85518110156113435761114760408a0160208b01612da9565b6001600160a01b031686828151811061116257611162613821565b60200260200101516001600160a01b03160361123b5783818151811061118a5761118a613821565b60200260200101518960a00135146111b157505f9861010090980135979650505050505050565b5f6111fd8483815181106111c7576111c7613821565b60200260200101518484815181106111e1576111e1613821565b60200260200101518c60a001356126739092919063ffffffff16565b905085828151811061121157611211613821565b6020026020010151811461123557505f996101009099013598975050505050505050565b5061133b565b61124b60608a0160408b01612da9565b6001600160a01b031686828151811061126657611266613821565b60200260200101516001600160a01b03160361133b5783818151811061128e5761128e613821565b60200260200101518960c00135146112b557505f9861010090980135979650505050505050565b5f6113018483815181106112cb576112cb613821565b60200260200101518484815181106112e5576112e5613821565b60200260200101518c60c001356126739092919063ffffffff16565b905085828151811061131557611315613821565b6020026020010151811461133957505f996101009099013598975050505050505050565b505b60010161112e565b5060035461010089013590156114f9575f6113696003548361268f90919063ffffffff16565b905080156114f3575f61137f60208c018c613849565b600181111561139057611390613835565b036114465761139f8183613878565b91506001600160a01b037f00000000000000000000000000000000000000000000000000000000000000001663ae6393296113e060608d0160408e01612da9565b6040516001600160e01b031960e084901b1681526001600160a01b039091166004820152306024820152604481018490526064015f604051808303815f87803b15801561142b575f80fd5b505af115801561143d573d5f803e3d5ffd5b505050506114f3565b611450818361388b565b91506001600160a01b037f00000000000000000000000000000000000000000000000000000000000000001663ae63932961149160408d0160208e01612da9565b6040516001600160e01b031960e084901b1681526001600160a01b039091166004820152306024820152604481018490526064015f604051808303815f87803b1580156114dc575f80fd5b505af11580156114ee573d5f803e3d5ffd5b505050505b5061182c565b6004541561182c575f6115176004548361268f90919063ffffffff16565b9050801561182a575f61152d60208c018c613849565b600181111561153e5761153e613835565b036116b95761154d818361388b565b600254909250600160381b900460ff16156116b45761157260608b0160408c01612da9565b60405163a9059cbb60e01b81526001600160a01b037f00000000000000000000000000000000000000000000000000000000000000008116600483015260248201849052919091169063a9059cbb906044016020604051808303815f875af11580156115e0573d5f803e3d5ffd5b505050506040513d601f19601f82011682018060405250810190611604919061389e565b506001600160a01b037f0000000000000000000000000000000000000000000000000000000000000000166315afd40961164460608d0160408e01612da9565b6040516001600160e01b031960e084901b1681526001600160a01b039091166004820152602481018490526044016020604051808303815f875af115801561168e573d5f803e3d5ffd5b505050506040513d601f19601f820116820180604052508101906116b291906138b9565b505b61182a565b6116c38183613878565b600254909250600160381b900460ff161561182a576116e860408b0160208c01612da9565b60405163a9059cbb60e01b81526001600160a01b037f00000000000000000000000000000000000000000000000000000000000000008116600483015260248201849052919091169063a9059cbb906044016020604051808303815f875af1158015611756573d5f803e3d5ffd5b505050506040513d601f19601f8201168201806040525081019061177a919061389e565b506001600160a01b037f0000000000000000000000000000000000000000000000000000000000000000166315afd4096117ba60408d0160208e01612da9565b6040516001600160e01b031960e084901b1681526001600160a01b039091166004820152602481018490526044016020604051808303815f875af1158015611804573d5f803e3d5ffd5b505050506040513d601f19601f8201168201806040525081019061182891906138b9565b505b505b5f8960e0013511801561184957505f54640100000000900460ff16155b999098509650505050505050565b6002545f90610100900460ff1615611871576118716126af565b505f54610100900460ff16155b92915050565b5f8054606090600160481b900460ff16156118f557600180808054806020026020016040519081016040528092919081815260200182805480156118e557602002820191905f5260205f20905b8154815260200190600101908083116118d1575b5050505050905091509150611c83565b6040516333f0703b60e11b81526001600160a01b038a811660048301525f917f0000000000000000000000000000000000000000000000000000000000000000909116906367e0e076906024015f60405180830381865afa15801561195c573d5f803e3d5ffd5b505050506040513d5f823e601f3d908101601f19168201604052611983919081019061365a565b50506007548894509192505015611ac1575f5b8651811015611abb575f6119ce6007548984815181106119b8576119b8613821565b602002602001015161268f90919063ffffffff16565b90508015611ab257808483815181106119e9576119e9613821565b602002602001018181516119fd9190613878565b915081815250507f00000000000000000000000000000000000000000000000000000000000000006001600160a01b031663ae639329848481518110611a4557611a45613821565b60209081029190910101516040516001600160e01b031960e084901b1681526001600160a01b039091166004820152306024820152604481018490526064015f604051808303815f87803b158015611a9b575f80fd5b505af1158015611aad573d5f803e3d5ffd5b505050505b50600101611996565b50611c6d565b60085415611c6d575f5b8651811015611c6b575f611aed6008548984815181106119b8576119b8613821565b90505f838381518110611b0257611b02613821565b602002602001015190505f821115611c615760405163a9059cbb60e01b81526001600160a01b037f0000000000000000000000000000000000000000000000000000000000000000811660048301526024820184905282169063a9059cbb906044016020604051808303815f875af1158015611b80573d5f803e3d5ffd5b505050506040513d601f19601f82011682018060405250810190611ba4919061389e565b5081858481518110611bb857611bb8613821565b60200260200101818151611bcc919061388b565b9052506040516315afd40960e01b81526001600160a01b038281166004830152602482018490527f000000000000000000000000000000000000000000000000000000000000000016906315afd409906044016020604051808303815f875af1158015611c3b573d5f803e3d5ffd5b505050506040513d601f19601f82011682018060405250810190611c5f91906138b9565b505b5050600101611acb565b505b505f5468010000000000000000900460ff161591505b9850989650505050505050565b6002805464ff000000001916640100000000841515021790558051611cbc906010906020840190612a3d565b505050565b5f5460ff16155b9392505050565b600980547fffffffffffffffffffffff0000000000000000000000000000000000000000ff166101006001600160a01b03861602179055600a611d13828483613946565b50505050565b6011545f9060ff1615158103611db057876001600160a01b0316635e01eb5a6040518163ffffffff1660e01b8152600401602060405180830381865afa158015611d65573d5f803e3d5ffd5b505050506040513d601f19601f82011682018060405250810190611d899190613a00565b601160016101000a8154816001600160a01b0302191690836001600160a01b031602179055505b60025462010000900460ff1615611dc957611dc96126af565b60025465010000000000900460ff1615611de557611de5612726565b50505f5465010000000000900460ff16159695505050505050565b6011545f9060ff1615158103611ea657611e2060c0840160a08501612da9565b6001600160a01b0316635e01eb5a6040518163ffffffff1660e01b8152600401602060405180830381865afa158015611e5b573d5f803e3d5ffd5b505050506040513d601f19601f82011682018060405250810190611e7f9190613a00565b601160016101000a8154816001600160a01b0302191690836001600160a01b031602179055505b60025460ff1615611eb957611eb96126af565b600254640100000000900460ff1615611ed457611ed4612726565b60095460ff161561204e5760095461010090046001600160a01b0316611f415760405162461bcd60e51b815260206004820152601560248201527f486f6f6b20636f6e7472616374206e6f7420736574000000000000000000000060448201526064015b60405180910390fd5b600a8054611f4e906138d0565b90505f03611f9e5760405162461bcd60e51b815260206004820152601660248201527f486f6f6b2063616c6c6461746120697320656d707479000000000000000000006044820152606401611f38565b6009805460ff191690819055600a805461204c9261010090046001600160a01b03169190611fcb906138d0565b80601f0160208091040260200160405190810160405280929190818152602001828054611ff7906138d0565b80156120425780601f1061201957610100808354040283529160200191612042565b820191905f5260205f20905b81548152906001019060200180831161202557829003601f168201915b5050505050612871565b505b50505f546301000000900460ff1615919050565b6002805466ff00000000000019166601000000000000841515021790558051611cbc906010906020840190612a3d565b6002805465ff0000000000191665010000000000841515021790558051611cbc906010906020840190612a3d565b5f8054606090600160481b900460ff161561212f57600180808054806020026020016040519081016040528092919081815260200182805480156118e557602002820191905f5260205f20908154815260200190600101908083116118d1575050505050905091509150611c83565b6040516333f0703b60e11b81526001600160a01b038a811660048301525f917f0000000000000000000000000000000000000000000000000000000000000000909116906367e0e076906024015f60405180830381865afa158015612196573d5f803e3d5ffd5b505050506040513d5f823e601f3d908101601f191682016040526121bd919081019061365a565b505060055489945091925050156122e5575f5b87518110156122df575f6121f26005548a84815181106119b8576119b8613821565b905080156122d6578084838151811061220d5761220d613821565b60200260200101818151612221919061388b565b915081815250507f00000000000000000000000000000000000000000000000000000000000000006001600160a01b031663ae63932984848151811061226957612269613821565b60209081029190910101516040516001600160e01b031960e084901b1681526001600160a01b039091166004820152306024820152604481018490526064015f604051808303815f87803b1580156122bf575f80fd5b505af11580156122d1573d5f803e3d5ffd5b505050505b506001016121d0565b5061248f565b6006541561248f575f5b875181101561248d575f82828151811061230b5761230b613821565b602002602001015190505f61232e6006548b85815181106119b8576119b8613821565b905080156124835760405163a9059cbb60e01b81526001600160a01b037f0000000000000000000000000000000000000000000000000000000000000000811660048301526024820183905283169063a9059cbb906044016020604051808303815f875af11580156123a2573d5f803e3d5ffd5b505050506040513d601f19601f820116820180604052508101906123c6919061389e565b50808584815181106123da576123da613821565b602002602001018181516123ee9190613878565b9052506040516315afd40960e01b81526001600160a01b038381166004830152602482018390527f000000000000000000000000000000000000000000000000000000000000000016906315afd409906044016020604051808303815f875af115801561245d573d5f803e3d5ffd5b505050506040513d601f19601f8201168201806040525081019061248191906138b9565b505b50506001016122ef565b505b505f546601000000000000900460ff16159a909950975050505050505050565b600d54600f545f9182916001600160a01b031615612556575f6124d860c0880160a08901612da9565b6001600160a01b0316635e01eb5a6040518163ffffffff1660e01b8152600401602060405180830381865afa158015612513573d5f803e3d5ffd5b505050506040513d601f19601f820116820180604052508101906125379190613a00565b600f549091506001600160a01b0390811690821603612554575f91505b505b5f5462010000900460ff1615969095509350505050565b6001818154811061257c575f80fd5b5f91825260209091200154905081565b6011545f9060ff161515810361262357876001600160a01b0316635e01eb5a6040518163ffffffff1660e01b8152600401602060405180830381865afa1580156125d8573d5f803e3d5ffd5b505050506040513d601f19601f820116820180604052508101906125fc9190613a00565b601160016101000a8154816001600160a01b0302191690836001600160a01b031602179055505b6002546301000000900460ff161561263d5761263d6126af565b6002546601000000000000900460ff161561265a5761265a612726565b50505f54600160381b900460ff16159695505050505050565b5f61268784612682858561287e565b6128aa565b949350505050565b5f8061269b8385613a1b565b9050612687670de0b6b3a764000082613a32565b600b54600c546040517fa1cfa0410000000000000000000000000000000000000000000000000000000081526001600160a01b039092169163a1cfa041916126fd9160040190815260200190565b5f604051808303815f87803b158015612714575f80fd5b505af1158015611d13573d5f803e3d5ffd5b600e546040517fca4f28030000000000000000000000000000000000000000000000000000000081526001600160a01b0391821660048201525f917f0000000000000000000000000000000000000000000000000000000000000000169063ca4f2803906024015f60405180830381865afa1580156127a7573d5f803e3d5ffd5b505050506040513d5f823e601f3d908101601f191682016040526127ce9190810190613a51565b600e546040517fd8f4cf3c0000000000000000000000000000000000000000000000000000000081529192506001600160a01b037f000000000000000000000000000000000000000000000000000000000000000081169263d8f4cf3c9261284192169085906010908190600401613ac0565b5f604051808303815f87803b158015612858575f80fd5b505af115801561286a573d5f803e3d5ffd5b5050505050565b6060611cc883835f6128ca565b5f8061288a8385613a1b565b90506001670de0b6b3a76400006001830304018115150291505092915050565b5f806128be670de0b6b3a764000085613a1b565b90506126878382613a32565b60608147101561290f576040517fcf47918100000000000000000000000000000000000000000000000000000000815247600482015260248101839052604401611f38565b5f80856001600160a01b0316848660405161292a9190613b43565b5f6040518083038185875af1925050503d805f8114612964576040519150601f19603f3d011682016040523d82523d5f602084013e612969565b606091505b5091509150612979868383612983565b9695505050505050565b60608261299857612993826129f8565b611cc8565b81511580156129af57506001600160a01b0384163b155b156129f1576040517f9996b3150000000000000000000000000000000000000000000000000000000081526001600160a01b0385166004820152602401611f38565b5080611cc8565b805115612a085780518082602001fd5b6040517fd6bda27500000000000000000000000000000000000000000000000000000000815260040160405180910390fd5b50565b828054828255905f5260205f20908101928215612a76579160200282015b82811115612a76578251825591602001919060010190612a5b565b50612a82929150612a86565b5090565b5b80821115612a82575f8155600101612a87565b8015158114612a3a575f80fd5b8035612ab281612a9a565b919050565b5f60208284031215612ac7575f80fd5b8135611cc881612a9a565b6001600160a01b0381168114612a3a575f80fd5b8035612ab281612ad2565b634e487b7160e01b5f52604160045260245ffd5b6040516080810167ffffffffffffffff81118282101715612b2857612b28612af1565b60405290565b604051610140810167ffffffffffffffff81118282101715612b2857612b28612af1565b6040516060810167ffffffffffffffff81118282101715612b2857612b28612af1565b604051601f8201601f1916810167ffffffffffffffff81118282101715612b9e57612b9e612af1565b604052919050565b5f67ffffffffffffffff821115612bbf57612bbf612af1565b5060051b60200190565b60028110612a3a575f80fd5b5f60808284031215612be5575f80fd5b50919050565b5f805f8060e08587031215612bfe575f80fd5b8435612c0981612ad2565b9350602085810135612c1a81612ad2565b935060408681013567ffffffffffffffff811115612c36575f80fd5b8701601f81018913612c46575f80fd5b8035612c59612c5482612ba6565b612b75565b81815260079190911b8201840190848101908b831115612c77575f80fd5b928501925b82841015612cef576080848d031215612c93575f80fd5b612c9b612b05565b8435612ca681612ad2565b815284870135612cb581612bc9565b8188015284860135612cc681612ad2565b81870152606085810135612cd981612a9a565b9082015282526080939093019290850190612c7c565b809750505050505050612d058660608701612bd5565b905092959194509250565b5f82601f830112612d1f575f80fd5b81356020612d2f612c5483612ba6565b8083825260208201915060208460051b870101935086841115612d50575f80fd5b602086015b84811015612d6c5780358352918301918301612d55565b509695505050505050565b5f60208284031215612d87575f80fd5b813567ffffffffffffffff811115612d9d575f80fd5b61268784828501612d10565b5f60208284031215612db9575f80fd5b8135611cc881612ad2565b5f60208284031215612dd4575f80fd5b813567ffffffffffffffff811115612dea575f80fd5b82016101808185031215611cc8575f80fd5b5f82601f830112612e0b575f80fd5b813567ffffffffffffffff811115612e2557612e25612af1565b612e38601f8201601f1916602001612b75565b818152846020838601011115612e4c575f80fd5b816020850160208301375f918101602001919091529392505050565b5f8060408385031215612e79575f80fd5b823567ffffffffffffffff80821115612e90575f80fd5b612e9c86838701612d10565b93506020850135915080821115612eb1575f80fd5b50612ebe85828601612dfc565b9150509250929050565b5f60208284031215612ed8575f80fd5b5035919050565b803560048110612ab2575f80fd5b5f805f805f805f80610100898b031215612f05575f80fd5b612f0e89612ae6565b9750612f1c60208a01612ae6565b9650612f2a60408a01612edf565b955060608901359450608089013567ffffffffffffffff80821115612f4d575f80fd5b612f598c838d01612d10565b955060a08b0135915080821115612f6e575f80fd5b612f7a8c838d01612d10565b945060c08b0135915080821115612f8f575f80fd5b612f9b8c838d01612d10565b935060e08b0135915080821115612fb0575f80fd5b50612fbd8b828c01612dfc565b9150509295985092959890939650565b5f6040820184151583526020604060208501528185518084526060860191506020870193505f5b8181101561301057845183529383019391830191600101612ff4565b5090979650505050505050565b5f805f6060848603121561302f575f80fd5b833561303a81612a9a565b9250602084013561304a81612ad2565b929592945050506040919091013590565b5f806040838503121561306c575f80fd5b823561307781612a9a565b9150602083013567ffffffffffffffff811115613092575f80fd5b612ebe85828601612d10565b5f805f606084860312156130b0575f80fd5b833567ffffffffffffffff808211156130c7575f80fd5b6130d387838801612d10565b94506020860135935060408601359150808211156130ef575f80fd5b506130fc86828701612dfc565b9150509250925092565b5f805f60408486031215613118575f80fd5b833561312381612ad2565b9250602084013567ffffffffffffffff8082111561313f575f80fd5b818601915086601f830112613152575f80fd5b813581811115613160575f80fd5b876020828501011115613171575f80fd5b6020830194508093505050509250925092565b803560058110612ab2575f80fd5b5f805f805f805f60e0888a0312156131a8575f80fd5b87356131b381612ad2565b965060208801356131c381612ad2565b95506131d160408901613184565b9450606088013567ffffffffffffffff808211156131ed575f80fd5b6131f98b838c01612d10565b955060808a0135945060a08a0135915080821115613215575f80fd5b6132218b838c01612d10565b935060c08a0135915080821115613236575f80fd5b506132438a828b01612dfc565b91505092959891949750929550565b5f60e08284031215612be5575f80fd5b5f8060408385031215613273575f80fd5b823567ffffffffffffffff811115613289575f80fd5b61329585828601613252565b92505060208301356132a681612ad2565b809150509250929050565b5f805f805f805f80610100898b0312156132c9575f80fd5b6132d289612ae6565b97506132e060208a01612ae6565b96506132ee60408a01613184565b9550606089013567ffffffffffffffff8082111561330a575f80fd5b6133168c838d01612d10565b965060808b013591508082111561332b575f80fd5b6133378c838d01612d10565b955060a08b0135945060c08b0135915080821115612f8f575f80fd5b5f805f60608486031215613365575f80fd5b833567ffffffffffffffff81111561337b575f80fd5b61338786828701613252565b935050602084013561304a81612ad2565b5f805f805f805f60e0888a0312156133ae575f80fd5b87356133b981612ad2565b965060208801356133c981612ad2565b95506133d760408901612edf565b945060608801359350608088013567ffffffffffffffff808211156133fa575f80fd5b6134068b838c01612d10565b945060a08a0135915080821115613215575f80fd5b81511515815261014081016020830151613439602084018215159052565b50604083015161344d604084018215159052565b506060830151613461606084018215159052565b506080830151613475608084018215159052565b5060a083015161348960a084018215159052565b5060c083015161349d60c084018215159052565b5060e08301516134b160e084018215159052565b5061010083810151151590830152610120928301511515929091019190915290565b5f61014082840312156134e4575f80fd5b6134ec612b2e565b6134f583612aa7565b815261350360208401612aa7565b602082015261351460408401612aa7565b604082015261352560608401612aa7565b606082015261353660808401612aa7565b608082015261354760a08401612aa7565b60a082015261355860c08401612aa7565b60c082015261356960e08401612aa7565b60e082015261010061357c818501612aa7565b9082015261012061358e848201612aa7565b908201529392505050565b5f82601f8301126135a8575f80fd5b815160206135b8612c5483612ba6565b8083825260208201915060208460051b8701019350868411156135d9575f80fd5b602086015b84811015612d6c5780516135f181612ad2565b83529183019183016135de565b5f82601f83011261360d575f80fd5b8151602061361d612c5483612ba6565b8083825260208201915060208460051b87010193508684111561363e575f80fd5b602086015b84811015612d6c5780518352918301918301613643565b5f805f806080858703121561366d575f80fd5b845167ffffffffffffffff80821115613684575f80fd5b61369088838901613599565b95506020915081870151818111156136a6575f80fd5b8701601f810189136136b6575f80fd5b80516136c4612c5482612ba6565b8181526060918202830185019185820191908c8411156136e2575f80fd5b938601935b838510156137455780858e0312156136fd575f80fd5b613705612b52565b855161371081612bc9565b81528588015161371f81612ad2565b8189015260408681015161373281612a9a565b90820152835293840193918601916136e7565b5060408b015190985094505050508082111561375f575f80fd5b61376b888389016135fe565b93506060870151915080821115613780575f80fd5b5061378d878288016135fe565b91505092959194509250565b5f602082840312156137a9575f80fd5b815167ffffffffffffffff8111156137bf575f80fd5b612687848285016135fe565b5f80604083850312156137dc575f80fd5b825167ffffffffffffffff808211156137f3575f80fd5b6137ff868387016135fe565b93506020850151915080821115613814575f80fd5b50612ebe858286016135fe565b634e487b7160e01b5f52603260045260245ffd5b634e487b7160e01b5f52602160045260245ffd5b5f60208284031215613859575f80fd5b8135611cc881612bc9565b634e487b7160e01b5f52601160045260245ffd5b8181038181111561187e5761187e613864565b8082018082111561187e5761187e613864565b5f602082840312156138ae575f80fd5b8151611cc881612a9a565b5f602082840312156138c9575f80fd5b5051919050565b600181811c908216806138e457607f821691505b602082108103612be557634e487b7160e01b5f52602260045260245ffd5b601f821115611cbc57805f5260205f20601f840160051c810160208510156139275750805b601f840160051c820191505b8181101561286a575f8155600101613933565b67ffffffffffffffff83111561395e5761395e612af1565b6139728361396c83546138d0565b83613902565b5f601f8411600181146139a3575f851561398c5750838201355b5f19600387901b1c1916600186901b17835561286a565b5f83815260208120601f198716915b828110156139d257868501358255602094850194600190920191016139b2565b50868210156139ee575f1960f88860031b161c19848701351681555b505060018560011b0183555050505050565b5f60208284031215613a10575f80fd5b8151611cc881612ad2565b808202811582820484141761187e5761187e613864565b5f82613a4c57634e487b7160e01b5f52601260045260245ffd5b500490565b5f60208284031215613a61575f80fd5b815167ffffffffffffffff811115613a77575f80fd5b61268784828501613599565b5f815480845260208085019450835f5260205f205f5b83811015613ab557815487529582019560019182019101613a99565b509495945050505050565b5f608082016001600160a01b03808816845260206080602086015282885180855260a08701915060208a0194505f5b81811015613b0d578551851683529483019491830191600101613aef565b50508581036040870152613b218189613a83565b93505050508281036060840152613b388185613a83565b979650505050505050565b5f82515f5b81811015613b625760208186018101518583015201613b48565b505f92019182525091905056fea2646970667358221220c54f319f3b4679c4f307609afeb736e42e35d3cbc4904bfbfae8546f36d086e864736f6c63430008180033","linkReferences":{}},"methodIdentifiers":{"addLiquidityHookDiscountPercentage()":"e908e85d","addLiquidityHookFeePercentage()":"02273467","allowFactory(address)":"8f5fae62","changePoolBalancesOnBeforeAddLiquidityHook()":"005b449c","changePoolBalancesOnBeforeRemoveLiquidityHook()":"00d332fd","changePoolBalancesOnBeforeSwapHook()":"e4c593d7","changeTokenRateOnBeforeAddLiquidity()":"af72105d","changeTokenRateOnBeforeInitialize()":"3d05719a","changeTokenRateOnBeforeRemoveLiquidity()":"9f94c522","changeTokenRateOnBeforeSwapHook()":"b298157b","denyFactory(address)":"dc7776ca","disableForcedHookAdjustedAmounts()":"232b59f7","enableForcedHookAdjustedAmountsLiquidity(uint256[])":"0c54b1de","failOnAfterAddLiquidity()":"40dc21d4","failOnAfterInitialize()":"5cd00746","failOnAfterRemoveLiquidity()":"a975dda0","failOnAfterSwapHook()":"a5098f10","failOnBeforeAddLiquidity()":"35f7290e","failOnBeforeInitialize()":"f5279d9c","failOnBeforeRemoveLiquidity()":"677db20e","failOnBeforeSwapHook()":"5351b230","failOnComputeDynamicSwapFeeHook()":"e326f03a","forcedHookAdjustedAmountsLiquidity(uint256)":"a55e47be","getHookFlags()":"d77153a7","getSavedSender()":"6a9a0611","hookSwapDiscountPercentage()":"2352c2ed","hookSwapFeePercentage()":"4392312a","onAfterAddLiquidity(address,address,uint8,uint256[],uint256[],uint256,uint256[],bytes)":"976907cc","onAfterInitialize(uint256[],uint256,bytes)":"38be241d","onAfterRemoveLiquidity(address,address,uint8,uint256,uint256[],uint256[],uint256[],bytes)":"2754888d","onAfterSwap((uint8,address,address,uint256,uint256,uint256,uint256,uint256,uint256,address,address,bytes))":"18b6eb55","onBeforeAddLiquidity(address,address,uint8,uint256[],uint256,uint256[],bytes)":"45421ec7","onBeforeInitialize(uint256[],bytes)":"1c149e28","onBeforeRemoveLiquidity(address,address,uint8,uint256,uint256[],uint256[],bytes)":"ba5f9f40","onBeforeSwap((uint8,uint256,uint256[],uint256,uint256,address,bytes),address)":"5211fa77","onComputeDynamicSwapFeePercentage((uint8,uint256,uint256[],uint256,uint256,address,bytes),address,uint256)":"a0e8f5ac","onRegister(address,address,(address,uint8,address,bool)[],(bool,bool,bool,bool))":"0b89f182","removeLiquidityHookDiscountPercentage()":"bd825f6b","removeLiquidityHookFeePercentage()":"eb499270","setAddLiquidityHookDiscountPercentage(uint256)":"dda1c15b","setAddLiquidityHookFeePercentage(uint256)":"2e55a841","setChangePoolBalancesOnBeforeAddLiquidityHook(bool,uint256[])":"93c4b286","setChangePoolBalancesOnBeforeRemoveLiquidityHook(bool,uint256[])":"71eff9d2","setChangePoolBalancesOnBeforeSwapHook(bool,uint256[])":"34e3a8c3","setChangeTokenRateOnBeforeAddLiquidityHook(bool,address,uint256)":"335d4126","setChangeTokenRateOnBeforeInitializeHook(bool,address,uint256)":"5991de93","setChangeTokenRateOnBeforeRemoveLiquidityHook(bool,address,uint256)":"e62eecdd","setChangeTokenRateOnBeforeSwapHook(bool,address,uint256)":"c25dade8","setDynamicSwapFeePercentage(uint256)":"214ff4c5","setFailOnAfterAddLiquidityHook(bool)":"6e7d75e5","setFailOnAfterInitializeHook(bool)":"b127e385","setFailOnAfterRemoveLiquidityHook(bool)":"039388ba","setFailOnAfterSwapHook(bool)":"7b695d10","setFailOnBeforeAddLiquidityHook(bool)":"82fb5d21","setFailOnBeforeInitializeHook(bool)":"d3fca637","setFailOnBeforeRemoveLiquidityHook(bool)":"d4f83182","setFailOnBeforeSwapHook(bool)":"b3a763b9","setFailOnComputeDynamicSwapFeeHook(bool)":"87ac5691","setHookFlags((bool,bool,bool,bool,bool,bool,bool,bool,bool,bool))":"e9f7c591","setHookSwapDiscountPercentage(uint256)":"fc6e0f59","setHookSwapFeePercentage(uint256)":"da09aacf","setPool(address)":"4437152a","setRemoveLiquidityHookDiscountPercentage(uint256)":"34a168ec","setRemoveLiquidityHookFeePercentage(uint256)":"b445fbe7","setShouldIgnoreSavedSender(bool)":"68c6db6a","setShouldSettleDiscount(bool)":"3478db73","setSpecialSender(address)":"1064dfdd","setSwapReentrancyHook(address,bytes)":"423ef816","setSwapReentrancyHookActive(bool)":"e5e3b67e","shouldForceHookAdjustedAmounts()":"f8b5ef85","shouldIgnoreSavedSender()":"4f036756","shouldSettleDiscount()":"80c554c1","swapReentrancyHookActive()":"31378f4f"},"id":114}