{"abi":[{"type":"constructor","inputs":[{"name":"vault","type":"address","internalType":"contract IVault"},{"name":"weth","type":"address","internalType":"contract IWETH"},{"name":"permit2","type":"address","internalType":"contract IPermit2"}],"stateMutability":"nonpayable"},{"type":"receive","stateMutability":"payable"},{"type":"function","name":"getSender","inputs":[],"outputs":[{"name":"","type":"address","internalType":"address"}],"stateMutability":"view"},{"type":"function","name":"manualGetCurrentSwapTokenInAmounts","inputs":[],"outputs":[{"name":"","type":"bytes32","internalType":"AddressToUintMappingSlot"}],"stateMutability":"view"},{"type":"function","name":"manualGetCurrentSwapTokenOutAmounts","inputs":[],"outputs":[{"name":"","type":"bytes32","internalType":"AddressToUintMappingSlot"}],"stateMutability":"view"},{"type":"function","name":"manualGetCurrentSwapTokensInSlot","inputs":[],"outputs":[{"name":"","type":"bytes32","internalType":"bytes32"}],"stateMutability":"view"},{"type":"function","name":"manualGetCurrentSwapTokensOutSlot","inputs":[],"outputs":[{"name":"","type":"bytes32","internalType":"bytes32"}],"stateMutability":"view"},{"type":"function","name":"manualGetSettledTokenAmounts","inputs":[],"outputs":[{"name":"","type":"bytes32","internalType":"AddressToUintMappingSlot"}],"stateMutability":"view"},{"type":"function","name":"multicall","inputs":[{"name":"data","type":"bytes[]","internalType":"bytes[]"}],"outputs":[{"name":"results","type":"bytes[]","internalType":"bytes[]"}],"stateMutability":"payable"},{"type":"function","name":"permitBatchAndCall","inputs":[{"name":"permitBatch","type":"tuple[]","internalType":"struct IRouterCommon.PermitApproval[]","components":[{"name":"token","type":"address","internalType":"address"},{"name":"owner","type":"address","internalType":"address"},{"name":"spender","type":"address","internalType":"address"},{"name":"amount","type":"uint256","internalType":"uint256"},{"name":"nonce","type":"uint256","internalType":"uint256"},{"name":"deadline","type":"uint256","internalType":"uint256"}]},{"name":"permitSignatures","type":"bytes[]","internalType":"bytes[]"},{"name":"permit2Batch","type":"tuple","internalType":"struct IAllowanceTransfer.PermitBatch","components":[{"name":"details","type":"tuple[]","internalType":"struct IAllowanceTransfer.PermitDetails[]","components":[{"name":"token","type":"address","internalType":"address"},{"name":"amount","type":"uint160","internalType":"uint160"},{"name":"expiration","type":"uint48","internalType":"uint48"},{"name":"nonce","type":"uint48","internalType":"uint48"}]},{"name":"spender","type":"address","internalType":"address"},{"name":"sigDeadline","type":"uint256","internalType":"uint256"}]},{"name":"permit2Signature","type":"bytes","internalType":"bytes"},{"name":"multicallData","type":"bytes[]","internalType":"bytes[]"}],"outputs":[{"name":"results","type":"bytes[]","internalType":"bytes[]"}],"stateMutability":"payable"},{"type":"function","name":"querySwapExactIn","inputs":[{"name":"paths","type":"tuple[]","internalType":"struct IBatchRouter.SwapPathExactAmountIn[]","components":[{"name":"tokenIn","type":"address","internalType":"contract IERC20"},{"name":"steps","type":"tuple[]","internalType":"struct IBatchRouter.SwapPathStep[]","components":[{"name":"pool","type":"address","internalType":"address"},{"name":"tokenOut","type":"address","internalType":"contract IERC20"},{"name":"isBuffer","type":"bool","internalType":"bool"}]},{"name":"exactAmountIn","type":"uint256","internalType":"uint256"},{"name":"minAmountOut","type":"uint256","internalType":"uint256"}]},{"name":"userData","type":"bytes","internalType":"bytes"}],"outputs":[{"name":"pathAmountsOut","type":"uint256[]","internalType":"uint256[]"},{"name":"tokensOut","type":"address[]","internalType":"address[]"},{"name":"amountsOut","type":"uint256[]","internalType":"uint256[]"}],"stateMutability":"nonpayable"},{"type":"function","name":"querySwapExactInHook","inputs":[{"name":"params","type":"tuple","internalType":"struct IBatchRouter.SwapExactInHookParams","components":[{"name":"sender","type":"address","internalType":"address"},{"name":"paths","type":"tuple[]","internalType":"struct IBatchRouter.SwapPathExactAmountIn[]","components":[{"name":"tokenIn","type":"address","internalType":"contract IERC20"},{"name":"steps","type":"tuple[]","internalType":"struct IBatchRouter.SwapPathStep[]","components":[{"name":"pool","type":"address","internalType":"address"},{"name":"tokenOut","type":"address","internalType":"contract IERC20"},{"name":"isBuffer","type":"bool","internalType":"bool"}]},{"name":"exactAmountIn","type":"uint256","internalType":"uint256"},{"name":"minAmountOut","type":"uint256","internalType":"uint256"}]},{"name":"deadline","type":"uint256","internalType":"uint256"},{"name":"wethIsEth","type":"bool","internalType":"bool"},{"name":"userData","type":"bytes","internalType":"bytes"}]}],"outputs":[{"name":"pathAmountsOut","type":"uint256[]","internalType":"uint256[]"},{"name":"tokensOut","type":"address[]","internalType":"address[]"},{"name":"amountsOut","type":"uint256[]","internalType":"uint256[]"}],"stateMutability":"nonpayable"},{"type":"function","name":"querySwapExactOut","inputs":[{"name":"paths","type":"tuple[]","internalType":"struct IBatchRouter.SwapPathExactAmountOut[]","components":[{"name":"tokenIn","type":"address","internalType":"contract IERC20"},{"name":"steps","type":"tuple[]","internalType":"struct IBatchRouter.SwapPathStep[]","components":[{"name":"pool","type":"address","internalType":"address"},{"name":"tokenOut","type":"address","internalType":"contract IERC20"},{"name":"isBuffer","type":"bool","internalType":"bool"}]},{"name":"maxAmountIn","type":"uint256","internalType":"uint256"},{"name":"exactAmountOut","type":"uint256","internalType":"uint256"}]},{"name":"userData","type":"bytes","internalType":"bytes"}],"outputs":[{"name":"pathAmountsIn","type":"uint256[]","internalType":"uint256[]"},{"name":"tokensIn","type":"address[]","internalType":"address[]"},{"name":"amountsIn","type":"uint256[]","internalType":"uint256[]"}],"stateMutability":"nonpayable"},{"type":"function","name":"querySwapExactOutHook","inputs":[{"name":"params","type":"tuple","internalType":"struct IBatchRouter.SwapExactOutHookParams","components":[{"name":"sender","type":"address","internalType":"address"},{"name":"paths","type":"tuple[]","internalType":"struct IBatchRouter.SwapPathExactAmountOut[]","components":[{"name":"tokenIn","type":"address","internalType":"contract IERC20"},{"name":"steps","type":"tuple[]","internalType":"struct IBatchRouter.SwapPathStep[]","components":[{"name":"pool","type":"address","internalType":"address"},{"name":"tokenOut","type":"address","internalType":"contract IERC20"},{"name":"isBuffer","type":"bool","internalType":"bool"}]},{"name":"maxAmountIn","type":"uint256","internalType":"uint256"},{"name":"exactAmountOut","type":"uint256","internalType":"uint256"}]},{"name":"deadline","type":"uint256","internalType":"uint256"},{"name":"wethIsEth","type":"bool","internalType":"bool"},{"name":"userData","type":"bytes","internalType":"bytes"}]}],"outputs":[{"name":"pathAmountsIn","type":"uint256[]","internalType":"uint256[]"},{"name":"tokensIn","type":"address[]","internalType":"address[]"},{"name":"amountsIn","type":"uint256[]","internalType":"uint256[]"}],"stateMutability":"nonpayable"},{"type":"function","name":"swapExactIn","inputs":[{"name":"paths","type":"tuple[]","internalType":"struct IBatchRouter.SwapPathExactAmountIn[]","components":[{"name":"tokenIn","type":"address","internalType":"contract IERC20"},{"name":"steps","type":"tuple[]","internalType":"struct IBatchRouter.SwapPathStep[]","components":[{"name":"pool","type":"address","internalType":"address"},{"name":"tokenOut","type":"address","internalType":"contract IERC20"},{"name":"isBuffer","type":"bool","internalType":"bool"}]},{"name":"exactAmountIn","type":"uint256","internalType":"uint256"},{"name":"minAmountOut","type":"uint256","internalType":"uint256"}]},{"name":"deadline","type":"uint256","internalType":"uint256"},{"name":"wethIsEth","type":"bool","internalType":"bool"},{"name":"userData","type":"bytes","internalType":"bytes"}],"outputs":[{"name":"pathAmountsOut","type":"uint256[]","internalType":"uint256[]"},{"name":"tokensOut","type":"address[]","internalType":"address[]"},{"name":"amountsOut","type":"uint256[]","internalType":"uint256[]"}],"stateMutability":"payable"},{"type":"function","name":"swapExactInHook","inputs":[{"name":"params","type":"tuple","internalType":"struct IBatchRouter.SwapExactInHookParams","components":[{"name":"sender","type":"address","internalType":"address"},{"name":"paths","type":"tuple[]","internalType":"struct IBatchRouter.SwapPathExactAmountIn[]","components":[{"name":"tokenIn","type":"address","internalType":"contract IERC20"},{"name":"steps","type":"tuple[]","internalType":"struct IBatchRouter.SwapPathStep[]","components":[{"name":"pool","type":"address","internalType":"address"},{"name":"tokenOut","type":"address","internalType":"contract IERC20"},{"name":"isBuffer","type":"bool","internalType":"bool"}]},{"name":"exactAmountIn","type":"uint256","internalType":"uint256"},{"name":"minAmountOut","type":"uint256","internalType":"uint256"}]},{"name":"deadline","type":"uint256","internalType":"uint256"},{"name":"wethIsEth","type":"bool","internalType":"bool"},{"name":"userData","type":"bytes","internalType":"bytes"}]}],"outputs":[{"name":"pathAmountsOut","type":"uint256[]","internalType":"uint256[]"},{"name":"tokensOut","type":"address[]","internalType":"address[]"},{"name":"amountsOut","type":"uint256[]","internalType":"uint256[]"}],"stateMutability":"nonpayable"},{"type":"function","name":"swapExactOut","inputs":[{"name":"paths","type":"tuple[]","internalType":"struct IBatchRouter.SwapPathExactAmountOut[]","components":[{"name":"tokenIn","type":"address","internalType":"contract IERC20"},{"name":"steps","type":"tuple[]","internalType":"struct IBatchRouter.SwapPathStep[]","components":[{"name":"pool","type":"address","internalType":"address"},{"name":"tokenOut","type":"address","internalType":"contract IERC20"},{"name":"isBuffer","type":"bool","internalType":"bool"}]},{"name":"maxAmountIn","type":"uint256","internalType":"uint256"},{"name":"exactAmountOut","type":"uint256","internalType":"uint256"}]},{"name":"deadline","type":"uint256","internalType":"uint256"},{"name":"wethIsEth","type":"bool","internalType":"bool"},{"name":"userData","type":"bytes","internalType":"bytes"}],"outputs":[{"name":"pathAmountsIn","type":"uint256[]","internalType":"uint256[]"},{"name":"tokensIn","type":"address[]","internalType":"address[]"},{"name":"amountsIn","type":"uint256[]","internalType":"uint256[]"}],"stateMutability":"payable"},{"type":"function","name":"swapExactOutHook","inputs":[{"name":"params","type":"tuple","internalType":"struct IBatchRouter.SwapExactOutHookParams","components":[{"name":"sender","type":"address","internalType":"address"},{"name":"paths","type":"tuple[]","internalType":"struct IBatchRouter.SwapPathExactAmountOut[]","components":[{"name":"tokenIn","type":"address","internalType":"contract IERC20"},{"name":"steps","type":"tuple[]","internalType":"struct IBatchRouter.SwapPathStep[]","components":[{"name":"pool","type":"address","internalType":"address"},{"name":"tokenOut","type":"address","internalType":"contract IERC20"},{"name":"isBuffer","type":"bool","internalType":"bool"}]},{"name":"maxAmountIn","type":"uint256","internalType":"uint256"},{"name":"exactAmountOut","type":"uint256","internalType":"uint256"}]},{"name":"deadline","type":"uint256","internalType":"uint256"},{"name":"wethIsEth","type":"bool","internalType":"bool"},{"name":"userData","type":"bytes","internalType":"bytes"}]}],"outputs":[{"name":"pathAmountsIn","type":"uint256[]","internalType":"uint256[]"},{"name":"tokensIn","type":"address[]","internalType":"address[]"},{"name":"amountsIn","type":"uint256[]","internalType":"uint256[]"}],"stateMutability":"nonpayable"},{"type":"error","name":"AddressEmptyCode","inputs":[{"name":"target","type":"address","internalType":"address"}]},{"type":"error","name":"EthTransfer","inputs":[]},{"type":"error","name":"FailedCall","inputs":[]},{"type":"error","name":"InsufficientBalance","inputs":[{"name":"balance","type":"uint256","internalType":"uint256"},{"name":"needed","type":"uint256","internalType":"uint256"}]},{"type":"error","name":"InsufficientEth","inputs":[]},{"type":"error","name":"ReentrancyGuardReentrantCall","inputs":[]},{"type":"error","name":"SafeCastOverflowedUintDowncast","inputs":[{"name":"bits","type":"uint8","internalType":"uint8"},{"name":"value","type":"uint256","internalType":"uint256"}]},{"type":"error","name":"SafeERC20FailedOperation","inputs":[{"name":"token","type":"address","internalType":"address"}]},{"type":"error","name":"SenderIsNotVault","inputs":[{"name":"sender","type":"address","internalType":"address"}]},{"type":"error","name":"SwapDeadline","inputs":[]},{"type":"error","name":"TransientIndexOutOfBounds","inputs":[]}],"bytecode":{"object":"0x600c6101c09081526b2937baba32b921b7b6b6b7b760a11b6101e05261024060405260066102009081526539b2b73232b960d11b610220526200004391906200023c565b60a052604080518082018252600c81526b2937baba32b921b7b6b6b7b760a11b602080830191909152825180840190935260118352701a5cd4995d1d5c9b915d1a131bd8dad959607a1b908301526200009c916200023c565b60c05260408051808201909152601381527f63757272656e7453776170546f6b656e73496e000000000000000000000000006020820152620000de90620002b0565b6101205260408051808201909152601481527f63757272656e7453776170546f6b656e734f757400000000000000000000000060208201526200012190620002b0565b6101405260408051808201909152601981527f63757272656e7453776170546f6b656e496e416d6f756e74730000000000000060208201526200016490620002b0565b6101605260408051808201909152601a81527f63757272656e7453776170546f6b656e4f7574416d6f756e74730000000000006020820152620001a790620002b0565b6101805260408051808201909152601381527f736574746c6564546f6b656e416d6f756e7473000000000000000000000000006020820152620001ea90620002b0565b6101a052348015620001fa575f80fd5b506040516200549b3803806200549b8339810160408190526200021d9162000304565b6001600160a01b0392831660805290821660e0521661010052620003f6565b5f60ff5f1b19600184846040516020016200025992919062000384565b604051602081830303815290604052805190602001205f1c6200027d9190620003d6565b6040516020016200029091815260200190565b604051602081830303815290604052805190602001201690505b92915050565b5f620002aa604051806040016040526011815280602001702130ba31b42937baba32b921b7b6b6b7b760791b815250836200023c60201b60201c565b6001600160a01b038116811462000301575f80fd5b50565b5f805f6060848603121562000317575f80fd5b83516200032481620002ec565b60208501519093506200033781620002ec565b60408501519092506200034a81620002ec565b809150509250925092565b5f81515f5b818110156200037657602081850181015186830152016200035a565b505f93019283525090919050565b7f62616c616e6365722d6c6162732e76332e73746f726167652e0000000000000081525f620003b7601983018562000355565b601760f91b8152620003cd600182018562000355565b95945050505050565b81810381811115620002aa57634e487b7160e01b5f52601160045260245ffd5b60805160a05160c05160e05161010051610120516101405161016051610180516101a051614dfe6200069d5f395f818161035301528181610fe9015281816110a001528181611fb501528181612d42015261310b01525f81816101a40152818161103301528181611264015281816112950152818161196101528181611d6d0152818161222301528181612aeb01528181612d1501526134bc01525f818161023201528181611181015281816111b2015281816114ea0152818161174901528181611b2901528181611b5a0152818161346301526136e501525f8181610b3801528181610f500152818161110b01528181611233015281816112bf0152818161193001528181611d2301528181611f84015281816121f201528181612aba0152612cda01525f81816109da015281816110df0152818161114e015281816111dc0152818161143c0152818161171b0152612a0201525f81816105a8015281816119ed0152818161256d0152612ef201525f818161010201528181612375015281816123ea01528181612464015281816124c60152818161275d015261284601525f8181610b7001528181610c7c01526115cc01525f818161028e01528181610ca5015281816113330152818161136701526113db01525f81816106460152818161081401528181610a1201528181610d2201528181610eb8015281816117f401528181611ac801528181611ba901528181611df401528181611e490152818161200c0152818161208301528181612488015281816124f50152818161259d01528181612654015281816127c2015281816128ee01528181612ba601528181612dd601528181612e7001528181612fb3015281816131af015281816131fa015281816132a4015281816132f8015281816135060152818161357d015261396b0152614dfe5ff3fe6080604052600436106100f2575f3560e01c80638a12a08c116100875780639612340611610057578063961234061461031e578063ac9650d814610332578063cd791ccc14610345578063fe893e8b14610377575f80fd5b80638a12a08c146102b95780638c824cd9146102d85780638eb1b65e146102ec578063945ed33f146102ff575f80fd5b80633910ab2a116100c25780633910ab2a1461020557806348bbd869146102245780635a3c3987146102565780635e01eb5a14610275575f80fd5b806308a465f61461015f5780630f8fb1cc1461019657806319c6989f146101d2578063286f580d146101f2575f80fd5b3661015b57336001600160a01b037f00000000000000000000000000000000000000000000000000000000000000001614610159576040517f0540ddf600000000000000000000000000000000000000000000000000000000815260040160405180910390fd5b005b5f80fd5b34801561016a575f80fd5b5061017e610179366004613ca3565b610396565b60405161018d93929190613d17565b60405180910390f35b3480156101a1575f80fd5b507f00000000000000000000000000000000000000000000000000000000000000005b60405190815260200161018d565b6101e56101e0366004613e5f565b6103ef565b60405161018d9190613f8c565b61017e610200366004614263565b610634565b348015610210575f80fd5b5061017e61021f3660046142e2565b6107ba565b34801561022f575f80fd5b507f00000000000000000000000000000000000000000000000000000000000000006101c4565b348015610261575f80fd5b5061017e610270366004613ca3565b610987565b348015610280575f80fd5b506040516001600160a01b037f00000000000000000000000000000000000000000000000000000000000000005c16815260200161018d565b3480156102c4575f80fd5b5061017e6102d3366004613ca3565b6109b8565b3480156102e3575f80fd5b506101c46109d6565b61017e6102fa366004614263565b610a00565b34801561030a575f80fd5b5061017e610319366004613ca3565b610b16565b348015610329575f80fd5b506101c4610b34565b6101e5610340366004614346565b610b5c565b348015610350575f80fd5b507f00000000000000000000000000000000000000000000000000000000000000006101c4565b348015610382575f80fd5b5061017e6103913660046142e2565b610cda565b60608060606103a3610e27565b6103ab610ead565b6103b484610f16565b919450925090506103e06103cb6020860186614385565b6103db60808701606088016143a0565b6110d9565b6103e8611306565b9193909250565b60605f6103fa611330565b90505f5b8a811015610564575f8a8a83818110610419576104196143b9565b905060200281019061042b91906143cd565b8080601f0160208091040260200160405190810160405280939291908181526020018383808284375f92018290525093945061046c92508491506113949050565b90505f8e8e85818110610481576104816143b9565b905060c002018036038101906104979190614410565b8051602080830151606084015160a08501516040808901518951958a015191517fd505accf0000000000000000000000000000000000000000000000000000000081526001600160a01b0395861660048201523060248201526044810194909452606484019290925260ff909116608483015260a482019390935260c481019290925292935091169063d505accf9060e4015f604051808303815f87803b158015610540575f80fd5b505af1158015610552573d5f803e3d5ffd5b505050505050508060010190506103fe565b505f61057088806144a3565b90501115610611576040517f2a2d80d10000000000000000000000000000000000000000000000000000000081526001600160a01b037f00000000000000000000000000000000000000000000000000000000000000001690632a2d80d1906105e39033908b908b908b90600401614526565b5f604051808303815f87803b1580156105fa575f80fd5b505af115801561060c573d5f803e3d5ffd5b505050505b61061b8484610b5c565b9150610626816113cf565b509998505050505050505050565b60608060605f610642611330565b90507f00000000000000000000000000000000000000000000000000000000000000006001600160a01b03166348c894916040518060a00160405280336001600160a01b031681526020018c81526020018b81526020018a1515815260200189898080601f0160208091040260200160405190810160405280939291908181526020018383808284375f9201919091525050509152506040516106e891906024016146df565b60408051601f198184030181529181526020820180516001600160e01b03167f08a465f600000000000000000000000000000000000000000000000000000000179052516001600160e01b031960e084901b16815261074a919060040161478f565b5f604051808303815f875af1158015610765573d5f803e3d5ffd5b505050506040513d5f823e601f3d908101601f1916820160405261078c9190810190614802565b80602001905181019061079f9190614890565b9350935093506107ae816113cf565b50955095509592505050565b60608060605f6107c8611330565b90505f5b8751811015610811576fffffffffffffffffffffffffffffffff80168882815181106107fa576107fa6143b9565b6020908102919091010151604001526001016107cc565b507f00000000000000000000000000000000000000000000000000000000000000006001600160a01b031663edfa35686040518060a00160405280306001600160a01b031681526020018a81526020015f1981526020015f1515815260200189898080601f0160208091040260200160405190810160405280939291908181526020018383808284375f9201919091525050509152506040516108b7919060240161496e565b60408051601f198184030181529181526020820180516001600160e01b03167f5a3c398700000000000000000000000000000000000000000000000000000000179052516001600160e01b031960e084901b168152610919919060040161478f565b5f604051808303815f875af1158015610934573d5f803e3d5ffd5b505050506040513d5f823e601f3d908101601f1916820160405261095b9190810190614802565b80602001905181019061096e9190614890565b93509350935061097d816113cf565b5093509350939050565b6060806060610994610e27565b61099c610ead565b6109a584611402565b919450925090506103e8611306565b5c90565b60608060606109c5610e27565b6109cd610ead565b6109a584610f16565b5f807f00000000000000000000000000000000000000000000000000000000000000005b92915050565b60608060605f610a0e611330565b90507f00000000000000000000000000000000000000000000000000000000000000006001600160a01b03166348c894916040518060a00160405280336001600160a01b031681526020018c81526020018b81526020018a1515815260200189898080601f0160208091040260200160405190810160405280939291908181526020018383808284375f920191909152505050915250604051610ab4919060240161496e565b60408051601f198184030181529181526020820180516001600160e01b03167f945ed33f00000000000000000000000000000000000000000000000000000000179052516001600160e01b031960e084901b16815261074a919060040161478f565b6060806060610b23610e27565b610b2b610ead565b6103b484611402565b5f807f00000000000000000000000000000000000000000000000000000000000000006109fa565b60605f610b67611330565b9050610b9660017f00000000000000000000000000000000000000000000000000000000000000005b90611551565b8267ffffffffffffffff811115610baf57610baf613fee565b604051908082528060200260200182016040528015610be257816020015b6060815260200190600190039081610bcd5790505b5091505f5b83811015610c7557610c5030868684818110610c0557610c056143b9565b9050602002810190610c1791906143cd565b8080601f0160208091040260200160405190810160405280939291908181526020018383808284375f9201919091525061155892505050565b838281518110610c6257610c626143b9565b6020908102919091010152600101610be7565b50610ca05f7f0000000000000000000000000000000000000000000000000000000000000000610b90565b610cca7f00000000000000000000000000000000000000000000000000000000000000005c6115ca565b610cd3816113cf565b5092915050565b60608060605f610ce8611330565b90505f5b8751811015610d1f575f888281518110610d0857610d086143b9565b602090810291909101015160600152600101610cec565b507f00000000000000000000000000000000000000000000000000000000000000006001600160a01b031663edfa35686040518060a00160405280306001600160a01b031681526020018a81526020015f1981526020015f1515815260200189898080601f0160208091040260200160405190810160405280939291908181526020018383808284375f920191909152505050915250604051610dc591906024016146df565b60408051601f198184030181529181526020820180516001600160e01b03167f8a12a08c00000000000000000000000000000000000000000000000000000000179052516001600160e01b031960e084901b168152610919919060040161478f565b7f9b779b17422d0df92223018b32b4d1fa46e071723d6817e2486d003becc55f005c15610e80576040517f3ee5aeb500000000000000000000000000000000000000000000000000000000815260040160405180910390fd5b610eab60017f9b779b17422d0df92223018b32b4d1fa46e071723d6817e2486d003becc55f00610b90565b565b336001600160a01b037f00000000000000000000000000000000000000000000000000000000000000001614610eab576040517f089676d50000000000000000000000000000000000000000000000000000000081523360048201526024015b60405180910390fd5b60608060608360400135421115610f4057604051630e08b8af60e41b815260040160405180910390fd5b610f4984611612565b9250610f747f000000000000000000000000000000000000000000000000000000000000000061227a565b9150815167ffffffffffffffff811115610f9057610f90613fee565b604051908082528060200260200182016040528015610fb9578160200160208202803683370190505b5090505f5b82518110156110d157611011838281518110610fdc57610fdc6143b9565b602002602001015161100b7f000000000000000000000000000000000000000000000000000000000000000090565b9061231c565b611055848381518110611026576110266143b9565b602002602001015161100b7f000000000000000000000000000000000000000000000000000000000000000090565b61105f91906149f2565b828281518110611071576110716143b9565b6020026020010181815250506110c9838281518110611092576110926143b9565b60200260200101515f6110c27f000000000000000000000000000000000000000000000000000000000000000090565b9190612339565b600101610fbe565b509193909250565b5f6111037f0000000000000000000000000000000000000000000000000000000000000000612356565b90505f61112f7f0000000000000000000000000000000000000000000000000000000000000000612356565b90505f61113d600184614a05565b90505b5f8112611215575f611174827f00000000000000000000000000000000000000000000000000000000000000005b90612360565b90506111ab86826111a5817f000000000000000000000000000000000000000000000000000000000000000061100b565b8861236b565b6111d6815f7f00000000000000000000000000000000000000000000000000000000000000006110c2565b611202817f00000000000000000000000000000000000000000000000000000000000000005b906126c7565b50508061120e90614a24565b9050611140565b505f611222600183614a05565b90505b5f81126112f6575f611257827f000000000000000000000000000000000000000000000000000000000000000061116e565b905061128e8682611288817f000000000000000000000000000000000000000000000000000000000000000061100b565b8861274d565b6112b9815f7f00000000000000000000000000000000000000000000000000000000000000006110c2565b6112e3817f00000000000000000000000000000000000000000000000000000000000000006111fc565b5050806112ef90614a24565b9050611225565b50611300846115ca565b50505050565b610eab5f7f9b779b17422d0df92223018b32b4d1fa46e071723d6817e2486d003becc55f00610b90565b5f7f00000000000000000000000000000000000000000000000000000000000000005c6001600160a01b0381166113905761138b337f0000000000000000000000000000000000000000000000000000000000000000610b90565b600191505b5090565b60408051606080820183525f808352602080840182815284860183815291870151958701519690930151948452949091529190911a90915290565b80156113ff576113ff5f7f0000000000000000000000000000000000000000000000000000000000000000610b90565b50565b6060806060836040013542111561142c57604051630e08b8af60e41b815260040160405180910390fd5b6114358461294b565b92506114607f000000000000000000000000000000000000000000000000000000000000000061227a565b9150815167ffffffffffffffff81111561147c5761147c613fee565b6040519080825280602002602001820160405280156114a5578160200160208202803683370190505b5090505f5b82518110156110d1576114c8838281518110610fdc57610fdc6143b9565b61150c8483815181106114dd576114dd6143b9565b602002602001015161100b7f000000000000000000000000000000000000000000000000000000000000000090565b61151691906149f2565b828281518110611528576115286143b9565b602002602001018181525050611549838281518110611092576110926143b9565b6001016114aa565b80825d5050565b60605f80846001600160a01b0316846040516115749190614a5b565b5f60405180830381855af49150503d805f81146115ac576040519150601f19603f3d011682016040523d82523d5f602084013e6115b1565b606091505b50915091506115c1858383613737565b95945050505050565b7f00000000000000000000000000000000000000000000000000000000000000005c156115f45750565b47801561160e5761160e6001600160a01b038316826137a5565b5050565b60606116216020830183614a76565b905067ffffffffffffffff81111561163b5761163b613fee565b604051908082528060200260200182016040528015611664578160200160208202803683370190505b5090505f5b6116766020840184614a76565b9050811015612274575f61168d6020850185614a76565b8381811061169d5761169d6143b9565b90506020028101906116af9190614abc565b6116b890614ad0565b604081015181516020830151805193945091929091905f906116dc576116dc6143b9565b60200260200101516040015180156116f357503215155b15611715576117106117086020880188614385565b82845f61236b565b611770565b611741817f00000000000000000000000000000000000000000000000000000000000000005b90613858565b5061177081837f00000000000000000000000000000000000000000000000000000000000000005b9190613896565b5f5b83602001515181101561226557604080518082019091525f808252602082015260018560200151516117a49190614adb565b821460208201819052821582525f90156117c3575060608501516117c6565b505f5b5f866020015184815181106117dd576117dd6143b9565b60200260200101519050806040015115611999575f7f00000000000000000000000000000000000000000000000000000000000000006001600160a01b03166343583be56040518060a001604052805f600181111561183e5761183e614aee565b8152602001896001600160a01b0316865f01516001600160a01b031614611865575f611868565b60015b600181111561187957611879614aee565b8152602001855f01516001600160a01b031681526020018a8152602001868152506040518263ffffffff1660e01b81526004016118b69190614b12565b6060604051808303815f875af11580156118d2573d5f803e3d5ffd5b505050506040513d601f19601f820116820180604052508101906118f69190614b66565b9250505083602001511561198857808a8a81518110611917576119176143b9565b602002602001018181525050611952826020015161173b7f000000000000000000000000000000000000000000000000000000000000000090565b506119838260200151826117697f000000000000000000000000000000000000000000000000000000000000000090565b611993565b809650816020015195505b50612257565b805f01516001600160a01b0316856001600160a01b031603611dbf57825180156119d85750306119cc60208c018c614385565b6001600160a01b031614155b15611a9a578515611a95576001600160a01b037f0000000000000000000000000000000000000000000000000000000000000000166336c78516611a1f60208d018d614385565b30611a298a6138c0565b6040516001600160e01b031960e086901b1681526001600160a01b03938416600482015291831660248301528216604482015290881660648201526084015f604051808303815f87803b158015611a7e575f80fd5b505af1158015611a90573d5f803e3d5ffd5b505050505b611b22565b805160405163ae63932960e01b81526001600160a01b039182166004820152306024820152604481018890527f00000000000000000000000000000000000000000000000000000000000000009091169063ae639329906064015f604051808303815f87803b158015611b0b575f80fd5b505af1158015611b1d573d5f803e3d5ffd5b505050505b5f611b4d867f000000000000000000000000000000000000000000000000000000000000000061100b565b1115611b8157611b8185877f00000000000000000000000000000000000000000000000000000000000000005b919061390c565b5f80611ba3835f01518460200151865f14611b9c5786613924565b6001613924565b915091507f00000000000000000000000000000000000000000000000000000000000000006001600160a01b031663214578976040518060c00160405280865f01516001600160a01b03168152602001306001600160a01b031681526020018b815260200185815260200160016003811115611c2157611c21614aee565b81526020018f8060800190611c3691906143cd565b8080601f0160208091040260200160405190810160405280939291908181526020018383808284375f9201919091525050509152506040516001600160e01b031960e084901b168152611c8c9190600401614b91565b5f604051808303815f875af1158015611ca7573d5f803e3d5ffd5b505050506040513d5f823e601f3d908101601f19168201604052611cce9190810190614c10565b506020870151909350159050611d9457818181518110611cf057611cf06143b9565b60200260200101518b8b81518110611d0a57611d0a6143b9565b602002602001018181525050611d45836020015161173b7f000000000000000000000000000000000000000000000000000000000000000090565b50611d8f8360200151838381518110611d6057611d606143b9565b60200260200101516117697f000000000000000000000000000000000000000000000000000000000000000090565b611db8565b818181518110611da657611da66143b9565b60200260200101519750826020015196505b5050612257565b805f01516001600160a01b031681602001516001600160a01b031603612080575f611dee825f01518789613924565b5090505f7f00000000000000000000000000000000000000000000000000000000000000006001600160a01b0316634af29ec46040518060c00160405280865f01516001600160a01b031681526020018860200151611e6d577f0000000000000000000000000000000000000000000000000000000000000000611e7f565b8f5f016020810190611e7f9190614385565b6001600160a01b031681526020810186905260408101889052606001600181526020018f8060800190611eb291906143cd565b8080601f0160208091040260200160405190810160405280939291908181526020018383808284375f9201919091525050509152506040516001600160e01b031960e084901b168152611f089190600401614c6e565b5f604051808303815f875af1158015611f23573d5f803e3d5ffd5b505050506040513d5f823e601f3d908101601f19168201604052611f4a9190810190614ccb565b50915050846020015115611fd757808b8b81518110611f6b57611f6b6143b9565b602002602001018181525050611fa6836020015161173b7f000000000000000000000000000000000000000000000000000000000000000090565b50611d8f8360200151826117697f000000000000000000000000000000000000000000000000000000000000000090565b602083015183516040516315afd40960e01b81526001600160a01b0391821660048201526024810184905292995090975088917f0000000000000000000000000000000000000000000000000000000000000000909116906315afd409906044016020604051808303815f875af1158015612054573d5f803e3d5ffd5b505050506040513d601f19601f820116820180604052508101906120789190614d1c565b505050612257565b5f7f00000000000000000000000000000000000000000000000000000000000000006001600160a01b0316632bfb780c6040518060e001604052805f60018111156120cd576120cd614aee565b8152602001855f01516001600160a01b03168152602001896001600160a01b0316815260200185602001516001600160a01b031681526020018a81526020018681526020018e806080019061212291906143cd565b8080601f0160208091040260200160405190810160405280939291908181526020018383808284375f9201919091525050509152506040516001600160e01b031960e084901b1681526121789190600401614d33565b6060604051808303815f875af1158015612194573d5f803e3d5ffd5b505050506040513d601f19601f820116820180604052508101906121b89190614b66565b9250505083602001511561224a57808a8a815181106121d9576121d96143b9565b602002602001018181525050612214826020015161173b7f000000000000000000000000000000000000000000000000000000000000000090565b506122458260200151826117697f000000000000000000000000000000000000000000000000000000000000000090565b612255565b809650816020015195505b505b505050806001019050611772565b50505050806001019050611669565b50919050565b60605f61228683613a46565b90508067ffffffffffffffff8111156122a1576122a1613fee565b6040519080825280602002602001820160405280156122ca578160200160208202803683370190505b5091505f5b81811015612315576122e381855b90613a4e565b8382815181106122f5576122f56143b9565b6001600160a01b03909216602092830291909101909101526001016122cf565b5050919050565b5f8181526020839052604081205c612332565b90565b9392505050565b5f828152602084905260409020612351908290610b90565b505050565b5f6109fa82613a46565b5f61233282846122dd565b8080156123a957507f00000000000000000000000000000000000000000000000000000000000000006001600160a01b0316836001600160a01b0316145b1561256557814710156123e8576040517fa01a9df600000000000000000000000000000000000000000000000000000000815260040160405180910390fd5b7f00000000000000000000000000000000000000000000000000000000000000006001600160a01b031663d0e30db0836040518263ffffffff1660e01b81526004015f604051808303818588803b158015612441575f80fd5b505af1158015612453573d5f803e3d5ffd5b506124af9350506001600160a01b037f00000000000000000000000000000000000000000000000000000000000000001691507f0000000000000000000000000000000000000000000000000000000000000000905084613a6c565b6040516315afd40960e01b81526001600160a01b037f000000000000000000000000000000000000000000000000000000000000000081166004830152602482018490527f000000000000000000000000000000000000000000000000000000000000000016906315afd409906044016020604051808303815f875af115801561253b573d5f803e3d5ffd5b505050506040513d601f19601f8201168201806040525081019061255f9190614d1c565b50611300565b8115611300577f00000000000000000000000000000000000000000000000000000000000000006001600160a01b03166336c78516857f00000000000000000000000000000000000000000000000000000000000000006125c5866138c0565b6040516001600160e01b031960e086901b1681526001600160a01b03938416600482015291831660248301528216604482015290861660648201526084015f604051808303815f87803b15801561261a575f80fd5b505af115801561262c573d5f803e3d5ffd5b50506040516315afd40960e01b81526001600160a01b038681166004830152602482018690527f00000000000000000000000000000000000000000000000000000000000000001692506315afd40991506044016020604051808303815f875af115801561269c573d5f803e3d5ffd5b505050506040513d601f19601f820116820180604052508101906126c09190614d1c565b5050505050565b5f806126d6836001860161100b565b90508015612744575f1981015f60016126ee87613a46565b039050808214612720575f6127038783613ad7565b9050612710878483613afb565b61271e818560018a016110c2565b505b61272986613b1f565b50612738855f600189016110c2565b600193505050506109fa565b5f9150506109fa565b81156113005780801561279157507f00000000000000000000000000000000000000000000000000000000000000006001600160a01b0316836001600160a01b0316145b156128c05760405163ae63932960e01b81526001600160a01b038481166004830152306024830152604482018490527f0000000000000000000000000000000000000000000000000000000000000000169063ae639329906064015f604051808303815f87803b158015612803575f80fd5b505af1158015612815573d5f803e3d5ffd5b50506040517f2e1a7d4d000000000000000000000000000000000000000000000000000000008152600481018590527f00000000000000000000000000000000000000000000000000000000000000006001600160a01b03169250632e1a7d4d91506024015f604051808303815f87803b158015612891575f80fd5b505af11580156128a3573d5f803e3d5ffd5b506128bb925050506001600160a01b038516836137a5565b611300565b60405163ae63932960e01b81526001600160a01b0384811660048301528581166024830152604482018490527f0000000000000000000000000000000000000000000000000000000000000000169063ae639329906064015f604051808303815f87803b15801561292f575f80fd5b505af1158015612941573d5f803e3d5ffd5b5050505050505050565b606061295a6020830183614a76565b905067ffffffffffffffff81111561297457612974613fee565b60405190808252806020026020018201604052801561299d578160200160208202803683370190505b5090505f5b6129af6020840184614a76565b9050811015612274575f6129c66020850185614a76565b838181106129d6576129d66143b9565b90506020028101906129e89190614abc565b6129f190614ad0565b6060810151815191925090612a26907f000000000000000000000000000000000000000000000000000000000000000061173b565b505f6001836020015151612a3a9190614adb565b90505b5f8112613729575f83602001518281518110612a5b57612a5b6143b9565b60200260200101519050612a8460405180604001604052805f151581526020015f151581525090565b821560208083019190915285015151612a9f90600190614adb565b83148082525f90819015612b0d57612adc846020015161173b7f000000000000000000000000000000000000000000000000000000000000000090565b50612b0d8460200151876117697f000000000000000000000000000000000000000000000000000000000000000090565b826020015115612b2557505060408501518551612b67565b60208701516fffffffffffffffffffffffffffffffff9250612b48600187614a05565b81518110612b5857612b586143b9565b60200260200101516020015190505b836040015115612d755782602001518015612b8157503215155b15612ba357612ba3612b9660208c018c614385565b885160408a01515f61236b565b5f7f00000000000000000000000000000000000000000000000000000000000000006001600160a01b03166343583be56040518060a00160405280600180811115612bf057612bf0614aee565b8152602001856001600160a01b0316895f01516001600160a01b031614612c17575f612c1a565b60015b6001811115612c2b57612c2b614aee565b8152602001885f01516001600160a01b031681526020018a8152602001868152506040518263ffffffff1660e01b8152600401612c689190614b12565b6060604051808303815f875af1158015612c84573d5f803e3d5ffd5b505050506040513d601f19601f82011682018060405250810190612ca89190614b66565b50915050836020015115612d6b57808a8a81518110612cc957612cc96143b9565b6020908102919091010152612cfe827f000000000000000000000000000000000000000000000000000000000000000061173b565b50612d3982828a60400151612d139190614adb565b7f0000000000000000000000000000000000000000000000000000000000000000611769565b8751612d6690827f0000000000000000000000000000000000000000000000000000000000000000611769565b612d6f565b8096505b50613714565b835f01516001600160a01b0316816001600160a01b03160361326e57602083015115155f03612ecc576040517f967870920000000000000000000000000000000000000000000000000000000081526001600160a01b0382811660048301527f00000000000000000000000000000000000000000000000000000000000000001690639678709290602401602060405180830381865afa158015612e1b573d5f803e3d5ffd5b505050506040513d601f19601f82011682018060405250810190612e3f9190614d1c565b845160405163ae63932960e01b81526001600160a01b039182166004820152306024820152604481018390529193507f0000000000000000000000000000000000000000000000000000000000000000169063ae639329906064015f604051808303815f87803b158015612eb1575f80fd5b505af1158015612ec3573d5f803e3d5ffd5b50505050612f9a565b30612eda60208c018c614385565b6001600160a01b031614612f9a576001600160a01b037f0000000000000000000000000000000000000000000000000000000000000000166336c78516612f2460208d018d614385565b30612f2e866138c0565b6040516001600160e01b031960e086901b1681526001600160a01b03938416600482015291831660248301528216604482015290841660648201526084015f604051808303815f87803b158015612f83575f80fd5b505af1158015612f95573d5f803e3d5ffd5b505050505b5f612fad855f0151866020015189613924565b5090505f7f00000000000000000000000000000000000000000000000000000000000000006001600160a01b031663214578976040518060c00160405280895f01516001600160a01b03168152602001306001600160a01b031681526020018781526020018581526020016002600381111561302b5761302b614aee565b81526020018f806080019061304091906143cd565b8080601f0160208091040260200160405190810160405280939291908181526020018383808284375f9201919091525050509152506040516001600160e01b031960e084901b1681526130969190600401614b91565b5f604051808303815f875af11580156130b1573d5f803e3d5ffd5b505050506040513d5f823e601f3d908101601f191682016040526130d89190810190614c10565b5050905084602001511561318857808b8b815181106130f9576130f96143b9565b602090810291909101015261312f83827f0000000000000000000000000000000000000000000000000000000000000000611769565b838110801561315357503061314760208e018e614385565b6001600160a01b031614155b156131835761318361316860208e018e614385565b6131728387614adb565b6001600160a01b0386169190613a6c565b613267565b80975083811015613267575f61319e8286614adb565b90506131d46001600160a01b0385167f000000000000000000000000000000000000000000000000000000000000000083613a6c565b6040516315afd40960e01b81526001600160a01b038581166004830152602482018390527f000000000000000000000000000000000000000000000000000000000000000016906315afd409906044016020604051808303815f875af1158015613240573d5f803e3d5ffd5b505050506040513d601f19601f820116820180604052508101906132649190614d1c565b50505b5050613714565b835f01516001600160a01b031684602001516001600160a01b03160361357a575f8061329e865f01518486613924565b915091507f00000000000000000000000000000000000000000000000000000000000000006001600160a01b0316634af29ec46040518060c00160405280895f01516001600160a01b03168152602001885f015161331c577f000000000000000000000000000000000000000000000000000000000000000061332e565b8f5f01602081019061332e9190614385565b6001600160a01b0316815260208101869052604081018c9052606001600281526020018f806080019061336191906143cd565b8080601f0160208091040260200160405190810160405280939291908181526020018383808284375f9201919091525050509152506040516001600160e01b031960e084901b1681526133b79190600401614c6e565b5f604051808303815f875af11580156133d2573d5f803e3d5ffd5b505050506040513d5f823e601f3d908101601f191682016040526133f99190810190614ccb565b505060208601519092501561348a5781818151811061341a5761341a6143b9565b60200260200101518b8b81518110613434576134346143b9565b60200260200101818152505061348583838381518110613456576134566143b9565b60200260200101516117697f000000000000000000000000000000000000000000000000000000000000000090565b6134a7565b81818151811061349c5761349c6143b9565b602002602001015197505b8451156134de57613183866020015189611b7a7f000000000000000000000000000000000000000000000000000000000000000090565b85516040516315afd40960e01b81526001600160a01b039182166004820152602481018a90527f0000000000000000000000000000000000000000000000000000000000000000909116906315afd409906044016020604051808303815f875af115801561354e573d5f803e3d5ffd5b505050506040513d601f19601f820116820180604052508101906135729190614d1c565b505050613714565b5f7f00000000000000000000000000000000000000000000000000000000000000006001600160a01b0316632bfb780c6040518060e001604052806001808111156135c7576135c7614aee565b8152602001885f01516001600160a01b03168152602001856001600160a01b0316815260200188602001516001600160a01b031681526020018a81526020018681526020018e806080019061361c91906143cd565b8080601f0160208091040260200160405190810160405280939291908181526020018383808284375f9201919091525050509152506040516001600160e01b031960e084901b1681526136729190600401614d33565b6060604051808303815f875af115801561368e573d5f803e3d5ffd5b505050506040513d601f19601f820116820180604052508101906136b29190614b66565b5091505083602001511561370e57808a8a815181106136d3576136d36143b9565b602090810291909101015261370982827f0000000000000000000000000000000000000000000000000000000000000000611769565b613712565b8096505b505b505050508061372290614a24565b9050612a3d565b5050508060010190506129a2565b60608261374c5761374782613b60565b612332565b815115801561376357506001600160a01b0384163b155b15610cd3576040517f9996b3150000000000000000000000000000000000000000000000000000000081526001600160a01b0385166004820152602401610f0d565b804710156137e8576040517fcf47918100000000000000000000000000000000000000000000000000000000815247600482015260248101829052604401610f0d565b5f826001600160a01b0316826040515f6040518083038185875af1925050503d805f8114613831576040519150601f19603f3d011682016040523d82523d5f602084013e613836565b606091505b50509050806123515760405163d6bda27560e01b815260040160405180910390fd5b5f6138638383613b89565b61388f576138718383613ba0565b6138878261387e85613a46565b600186016110c2565b5060016109fa565b505f6109fa565b612351816138a4858561231c565b6138ae91906149f2565b5f848152602086905260409020610b90565b5f6001600160a01b03821115611390576040517f6dfcc65000000000000000000000000000000000000000000000000000000000815260a0600482015260248101839052604401610f0d565b6123518161391a858561231c565b6138ae9190614adb565b6040517fc9c1661b0000000000000000000000000000000000000000000000000000000081526001600160a01b03848116600483015283811660248301526060915f9182917f00000000000000000000000000000000000000000000000000000000000000009091169063c9c1661b906044016040805180830381865afa1580156139b1573d5f803e3d5ffd5b505050506040513d601f19601f820116820180604052508101906139d59190614da6565b925090508067ffffffffffffffff8111156139f2576139f2613fee565b604051908082528060200260200182016040528015613a1b578160200160208202803683370190505b50925083838381518110613a3157613a316143b9565b60200260200101818152505050935093915050565b5f815c6109fa565b5f6123326109b461232f84613a68875f9081526020902090565b0190565b604080516001600160a01b038416602482015260448082018490528251808303909101815260649091019091526020810180516001600160e01b03167fa9059cbb00000000000000000000000000000000000000000000000000000000179052612351908490613bd3565b5f613ae28383613c58565b6123326109b461232f84613a68875f9081526020902090565b613b058383613c58565b61235181610b9061232f85613a68885f9081526020902090565b5f80613b2d6001845c614adb565b9050613b398184610b90565b5f613b5061232f83613a68875f9081526020902090565b9050805c9250612315815f611551565b805115613b705780518082602001fd5b60405163d6bda27560e01b815260040160405180910390fd5b5f613b97826001850161100b565b15159392505050565b5f825c9050613bbf82610b9061232f84613a68885f9081526020902090565b612351613bcd8260016149f2565b84610b90565b5f8060205f8451602086015f885af180613bf2576040513d5f823e3d81fd5b50505f513d91508115613c09578060011415613c16565b6001600160a01b0384163b155b15611300576040517f5274afe70000000000000000000000000000000000000000000000000000000081526001600160a01b0385166004820152602401610f0d565b815c808210612351576040517f0f4ae0e400000000000000000000000000000000000000000000000000000000815260040160405180910390fd5b5f60a08284031215612274575f80fd5b5f60208284031215613cb3575f80fd5b813567ffffffffffffffff811115613cc9575f80fd5b613cd584828501613c93565b949350505050565b5f815180845260208085019450602084015f5b83811015613d0c57815187529582019590820190600101613cf0565b509495945050505050565b606081525f613d296060830186613cdd565b8281036020848101919091528551808352868201928201905f5b81811015613d685784516001600160a01b031683529383019391830191600101613d43565b50508481036040860152613d7c8187613cdd565b98975050505050505050565b5f8083601f840112613d98575f80fd5b50813567ffffffffffffffff811115613daf575f80fd5b60208301915083602060c083028501011115613dc9575f80fd5b9250929050565b5f8083601f840112613de0575f80fd5b50813567ffffffffffffffff811115613df7575f80fd5b6020830191508360208260051b8501011115613dc9575f80fd5b5f60608284031215612274575f80fd5b5f8083601f840112613e31575f80fd5b50813567ffffffffffffffff811115613e48575f80fd5b602083019150836020828501011115613dc9575f80fd5b5f805f805f805f805f60a08a8c031215613e77575f80fd5b893567ffffffffffffffff80821115613e8e575f80fd5b613e9a8d838e01613d88565b909b50995060208c0135915080821115613eb2575f80fd5b613ebe8d838e01613dd0565b909950975060408c0135915080821115613ed6575f80fd5b613ee28d838e01613e11565b965060608c0135915080821115613ef7575f80fd5b613f038d838e01613e21565b909650945060808c0135915080821115613f1b575f80fd5b50613f288c828d01613dd0565b915080935050809150509295985092959850929598565b5f5b83811015613f59578181015183820152602001613f41565b50505f910152565b5f8151808452613f78816020860160208601613f3f565b601f01601f19169290920160200192915050565b5f60208083016020845280855180835260408601915060408160051b8701019250602087015f5b82811015613fe157603f19888603018452613fcf858351613f61565b94509285019290850190600101613fb3565b5092979650505050505050565b634e487b7160e01b5f52604160045260245ffd5b6040516080810167ffffffffffffffff8111828210171561402557614025613fee565b60405290565b6040516060810167ffffffffffffffff8111828210171561402557614025613fee565b604051601f8201601f1916810167ffffffffffffffff8111828210171561407757614077613fee565b604052919050565b5f67ffffffffffffffff82111561409857614098613fee565b5060051b60200190565b6001600160a01b03811681146113ff575f80fd5b80356140c1816140a2565b919050565b803580151581146140c1575f80fd5b5f608082840312156140e5575f80fd5b6140ed614002565b905081356140fa816140a2565b815260208281013567ffffffffffffffff811115614116575f80fd5b8301601f81018513614126575f80fd5b80356141396141348261407f565b61404e565b81815260609182028301840191848201919088841115614157575f80fd5b938501935b838510156141b85780858a031215614172575f80fd5b61417a61402b565b8535614185816140a2565b815285870135614194816140a2565b8188015260406141a58782016140c6565b908201528352938401939185019161415c565b5080858701525050505050604082013560408201526060820135606082015292915050565b5f82601f8301126141ec575f80fd5b813560206141fc6141348361407f565b82815260059290921b8401810191818101908684111561421a575f80fd5b8286015b8481101561425857803567ffffffffffffffff81111561423c575f80fd5b61424a8986838b01016140d5565b84525091830191830161421e565b509695505050505050565b5f805f805f60808688031215614277575f80fd5b853567ffffffffffffffff8082111561428e575f80fd5b61429a89838a016141dd565b9650602088013595506142af604089016140c6565b945060608801359150808211156142c4575f80fd5b506142d188828901613e21565b969995985093965092949392505050565b5f805f604084860312156142f4575f80fd5b833567ffffffffffffffff8082111561430b575f80fd5b614317878388016141dd565b9450602086013591508082111561432c575f80fd5b5061433986828701613e21565b9497909650939450505050565b5f8060208385031215614357575f80fd5b823567ffffffffffffffff81111561436d575f80fd5b61437985828601613dd0565b90969095509350505050565b5f60208284031215614395575f80fd5b8135612332816140a2565b5f602082840312156143b0575f80fd5b612332826140c6565b634e487b7160e01b5f52603260045260245ffd5b5f808335601e198436030181126143e2575f80fd5b83018035915067ffffffffffffffff8211156143fc575f80fd5b602001915036819003821315613dc9575f80fd5b5f60c08284031215614420575f80fd5b60405160c0810181811067ffffffffffffffff8211171561444357614443613fee565b6040528235614451816140a2565b81526020830135614461816140a2565b60208201526040830135614474816140a2565b80604083015250606083013560608201526080830135608082015260a083013560a08201528091505092915050565b5f808335601e198436030181126144b8575f80fd5b83018035915067ffffffffffffffff8211156144d2575f80fd5b6020019150600781901b3603821315613dc9575f80fd5b803565ffffffffffff811681146140c1575f80fd5b81835281816020850137505f828201602090810191909152601f909101601f19169091010190565b5f60606001600160a01b03808816845260206060602086015260c085018835601e198a3603018112614556575f80fd5b890160208101903567ffffffffffffffff811115614572575f80fd5b8060071b3603821315614583575f80fd5b60608881015291829052905f9060e088015b818310156146015783356145a8816140a2565b86168152838501356145b9816140a2565b86168186015260406145cc8582016144e9565b65ffffffffffff80821683850152806145e68b89016144e9565b16848b01525050506080938401936001939093019201614595565b61460d60208d016140b6565b6001600160a01b03811660808b0152965060408c013560a08a015288810360408a015261463b818b8d6144fe565b9d9c50505050505050505050505050565b5f608083016001600160a01b0380845116855260208085015160808288015283815180865260a08901915083830195505f92505b808310156146bc578551805186168352848101518616858401526040908101511515908301529483019460019290920191606090910190614680565b506040870151604089015260608701516060890152809550505050505092915050565b5f602080835260c083016001600160a01b03855116828501528185015160a0604086015281815180845260e08701915060e08160051b880101935084830192505f5b8181101561474f5760df1988860301835261473d85855161464c565b94509285019291850191600101614721565b505050506040850151606085015260608501519150614772608085018315159052565b6080850151848203601f190160a086015291506115c18183613f61565b602081525f6123326020830184613f61565b5f82601f8301126147b0575f80fd5b815167ffffffffffffffff8111156147ca576147ca613fee565b6147dd601f8201601f191660200161404e565b8181528460208386010111156147f1575f80fd5b613cd5826020830160208701613f3f565b5f60208284031215614812575f80fd5b815167ffffffffffffffff811115614828575f80fd5b613cd5848285016147a1565b5f82601f830112614843575f80fd5b815160206148536141348361407f565b8083825260208201915060208460051b870101935086841115614874575f80fd5b602086015b848110156142585780518352918301918301614879565b5f805f606084860312156148a2575f80fd5b835167ffffffffffffffff808211156148b9575f80fd5b6148c587838801614834565b94506020915081860151818111156148db575f80fd5b8601601f810188136148eb575f80fd5b80516148f96141348261407f565b81815260059190911b8201840190848101908a831115614917575f80fd5b928501925b8284101561493e57835161492f816140a2565b8252928501929085019061491c565b60408a0151909750945050505080821115614957575f80fd5b5061496486828701614834565b9150509250925092565b5f602080835260c083016001600160a01b03855116828501528185015160a0604086015281815180845260e08701915060e08160051b880101935084830192505f5b8181101561474f5760df198886030183526149cc85855161464c565b945092850192918501916001016149b0565b634e487b7160e01b5f52601160045260245ffd5b808201808211156109fa576109fa6149de565b8181035f831280158383131683831282161715610cd357610cd36149de565b5f7f80000000000000000000000000000000000000000000000000000000000000008203614a5457614a546149de565b505f190190565b5f8251614a6c818460208701613f3f565b9190910192915050565b5f808335601e19843603018112614a8b575f80fd5b83018035915067ffffffffffffffff821115614aa5575f80fd5b6020019150600581901b3603821315613dc9575f80fd5b5f8235607e19833603018112614a6c575f80fd5b5f6109fa36836140d5565b818103818111156109fa576109fa6149de565b634e487b7160e01b5f52602160045260245ffd5b600281106113ff576113ff614aee565b815160a0820190614b2281614b02565b82526020830151614b3281614b02565b806020840152506001600160a01b036040840151166040830152606083015160608301526080830151608083015292915050565b5f805f60608486031215614b78575f80fd5b8351925060208401519150604084015190509250925092565b602081525f6001600160a01b038084511660208401528060208501511660408401525060408301516060830152606083015160c06080840152614bd760e0840182613cdd565b9050608084015160048110614bee57614bee614aee565b8060a08501525060a0840151601f198483030160c08501526115c18282613f61565b5f805f60608486031215614c22575f80fd5b83519250602084015167ffffffffffffffff80821115614c40575f80fd5b614c4c87838801614834565b93506040860151915080821115614c61575f80fd5b50614964868287016147a1565b602081525f6001600160a01b0380845116602084015280602085015116604084015250604083015160c06060840152614caa60e0840182613cdd565b905060608401516080840152608084015160058110614bee57614bee614aee565b5f805f60608486031215614cdd575f80fd5b835167ffffffffffffffff80821115614cf4575f80fd5b614d0087838801614834565b9450602086015193506040860151915080821115614c61575f80fd5b5f60208284031215614d2c575f80fd5b5051919050565b602081525f8251614d4381614b02565b8060208401525060208301516001600160a01b0380821660408501528060408601511660608501528060608601511660808501525050608083015160a083015260a083015160c083015260c083015160e080840152613cd5610100840182613f61565b5f8060408385031215614db7575f80fd5b50508051602090910151909290915056fea26469706673582212203e34b5a4f8eea2b71270fa506efd1b15d55518464a6b7864e1dbb630075773e364736f6c63430008180033","linkReferences":{}},"methodIdentifiers":{"getSender()":"5e01eb5a","manualGetCurrentSwapTokenInAmounts()":"48bbd869","manualGetCurrentSwapTokenOutAmounts()":"0f8fb1cc","manualGetCurrentSwapTokensInSlot()":"8c824cd9","manualGetCurrentSwapTokensOutSlot()":"96123406","manualGetSettledTokenAmounts()":"cd791ccc","multicall(bytes[])":"ac9650d8","permitBatchAndCall((address,address,address,uint256,uint256,uint256)[],bytes[],((address,uint160,uint48,uint48)[],address,uint256),bytes,bytes[])":"19c6989f","querySwapExactIn((address,(address,address,bool)[],uint256,uint256)[],bytes)":"fe893e8b","querySwapExactInHook((address,(address,(address,address,bool)[],uint256,uint256)[],uint256,bool,bytes))":"8a12a08c","querySwapExactOut((address,(address,address,bool)[],uint256,uint256)[],bytes)":"3910ab2a","querySwapExactOutHook((address,(address,(address,address,bool)[],uint256,uint256)[],uint256,bool,bytes))":"5a3c3987","swapExactIn((address,(address,address,bool)[],uint256,uint256)[],uint256,bool,bytes)":"286f580d","swapExactInHook((address,(address,(address,address,bool)[],uint256,uint256)[],uint256,bool,bytes))":"08a465f6","swapExactOut((address,(address,address,bool)[],uint256,uint256)[],uint256,bool,bytes)":"8eb1b65e","swapExactOutHook((address,(address,(address,address,bool)[],uint256,uint256)[],uint256,bool,bytes))":"945ed33f"},"id":107}