{"abi":[{"type":"function","name":"ensureSortedTokens","inputs":[{"name":"tokens","type":"address[]","internalType":"contract IERC20[]"}],"outputs":[],"stateMutability":"pure"},{"type":"function","name":"sortTokenConfig","inputs":[{"name":"tokenConfig","type":"tuple[]","internalType":"struct TokenConfig[]","components":[{"name":"token","type":"address","internalType":"contract IERC20"},{"name":"tokenType","type":"uint8","internalType":"enum TokenType"},{"name":"rateProvider","type":"address","internalType":"contract IRateProvider"},{"name":"paysYieldFees","type":"bool","internalType":"bool"}]}],"outputs":[{"name":"","type":"tuple[]","internalType":"struct TokenConfig[]","components":[{"name":"token","type":"address","internalType":"contract IERC20"},{"name":"tokenType","type":"uint8","internalType":"enum TokenType"},{"name":"rateProvider","type":"address","internalType":"contract IRateProvider"},{"name":"paysYieldFees","type":"bool","internalType":"bool"}]}],"stateMutability":"pure"},{"type":"function","name":"sortTokens","inputs":[{"name":"tokens","type":"address[]","internalType":"contract IERC20[]"}],"outputs":[{"name":"","type":"address[]","internalType":"contract IERC20[]"}],"stateMutability":"pure"},{"type":"error","name":"TokensNotSorted","inputs":[]}],"bytecode":{"object":"0x608060405234801561000f575f80fd5b506107478061001d5f395ff3fe608060405234801561000f575f80fd5b506004361061003f575f3560e01c8063136deb1c14610043578063a3aef0b81461006c578063bb4ad7d514610081575b5f80fd5b61005661005136600461046d565b6100a1565b6040516100639190610507565b60405180910390f35b61007f61007a36600461046d565b6100b2565b005b61009461008f366004610553565b6100be565b6040516100639190610637565b60606100ac826101f2565b92915050565b6100bb81610324565b50565b60605f5b600183516100d091906106d7565b8110156101eb575f5b60018285516100e891906106d7565b6100f291906106d7565b8110156101e257836101058260016106ea565b81518110610115576101156106fd565b60200260200101515f01516001600160a01b031684828151811061013b5761013b6106fd565b60200260200101515f01516001600160a01b031611156101da57836101618260016106ea565b81518110610171576101716106fd565b602002602001015184828151811061018b5761018b6106fd565b60200260200101518583815181106101a5576101a56106fd565b60200260200101868460016101ba91906106ea565b815181106101ca576101ca6106fd565b6020026020010182905282905250505b6001016100d9565b506001016100c2565b5090919050565b60605f5b6001835161020491906106d7565b8110156101eb575f5b600182855161021c91906106d7565b61022691906106d7565b81101561031b57836102398260016106ea565b81518110610249576102496106fd565b60200260200101516001600160a01b031684828151811061026c5761026c6106fd565b60200260200101516001600160a01b03161115610313578361028f8260016106ea565b8151811061029f5761029f6106fd565b60200260200101518482815181106102b9576102b96106fd565b60200260200101518583815181106102d3576102d36106fd565b60200260200101868460016102e891906106ea565b815181106102f8576102f86106fd565b6001600160a01b039384166020918202929092010152911690525b60010161020d565b506001016101f6565b5f815f81518110610337576103376106fd565b602002602001015190505f600190505b82518110156103c3575f838281518110610363576103636106fd565b60200260200101519050806001600160a01b0316836001600160a01b031611156103b9576040517f6e8f194700000000000000000000000000000000000000000000000000000000815260040160405180910390fd5b9150600101610347565b505050565b634e487b7160e01b5f52604160045260245ffd5b6040516080810167ffffffffffffffff811182821017156103ff576103ff6103c8565b60405290565b604051601f8201601f1916810167ffffffffffffffff8111828210171561042e5761042e6103c8565b604052919050565b5f67ffffffffffffffff82111561044f5761044f6103c8565b5060051b60200190565b6001600160a01b03811681146100bb575f80fd5b5f602080838503121561047e575f80fd5b823567ffffffffffffffff811115610494575f80fd5b8301601f810185136104a4575f80fd5b80356104b76104b282610436565b610405565b81815260059190911b820183019083810190878311156104d5575f80fd5b928401925b828410156104fc5783356104ed81610459565b825292840192908401906104da565b979650505050505050565b602080825282518282018190525f9190848201906040850190845b818110156105475783516001600160a01b031683529284019291840191600101610522565b50909695505050505050565b5f6020808385031215610564575f80fd5b823567ffffffffffffffff81111561057a575f80fd5b8301601f8101851361058a575f80fd5b80356105986104b282610436565b81815260079190911b820183019083810190878311156105b6575f80fd5b928401925b828410156104fc57608084890312156105d2575f80fd5b6105da6103dc565b84356105e581610459565b815284860135600281106105f7575f80fd5b8187015260408581013561060a81610459565b908201526060858101358015158114610621575f80fd5b90820152825260809390930192908401906105bb565b602080825282518282018190525f919060409081850190868401855b828110156106b65781516001600160a01b03808251168652878201516002811061068b57634e487b7160e01b5f52602160045260245ffd5b8689015281870151168686015260609081015115159085015260809093019290850190600101610653565b5091979650505050505050565b634e487b7160e01b5f52601160045260245ffd5b818103818111156100ac576100ac6106c3565b808201808211156100ac576100ac6106c3565b634e487b7160e01b5f52603260045260245ffdfea2646970667358221220719175937dc9789bda491e3fc021e434161177842f74d0c4dbb623ce7ca7cf9164736f6c63430008180033","linkReferences":{}},"methodIdentifiers":{"ensureSortedTokens(address[])":"a3aef0b8","sortTokenConfig((address,uint8,address,bool)[])":"bb4ad7d5","sortTokens(address[])":"136deb1c"},"id":111}