{"abi":[{"type":"constructor","inputs":[{"name":"vault","type":"address","internalType":"contract IVault"},{"name":"name","type":"string","internalType":"string"},{"name":"symbol","type":"string","internalType":"string"}],"stateMutability":"nonpayable"},{"type":"function","name":"DOMAIN_SEPARATOR","inputs":[],"outputs":[{"name":"","type":"bytes32","internalType":"bytes32"}],"stateMutability":"view"},{"type":"function","name":"PERMIT_TYPEHASH","inputs":[],"outputs":[{"name":"","type":"bytes32","internalType":"bytes32"}],"stateMutability":"view"},{"type":"function","name":"allowance","inputs":[{"name":"owner","type":"address","internalType":"address"},{"name":"spender","type":"address","internalType":"address"}],"outputs":[{"name":"","type":"uint256","internalType":"uint256"}],"stateMutability":"view"},{"type":"function","name":"approve","inputs":[{"name":"spender","type":"address","internalType":"address"},{"name":"amount","type":"uint256","internalType":"uint256"}],"outputs":[{"name":"","type":"bool","internalType":"bool"}],"stateMutability":"nonpayable"},{"type":"function","name":"balanceOf","inputs":[{"name":"account","type":"address","internalType":"address"}],"outputs":[{"name":"","type":"uint256","internalType":"uint256"}],"stateMutability":"view"},{"type":"function","name":"computeBalance","inputs":[{"name":"balances","type":"uint256[]","internalType":"uint256[]"},{"name":"tokenInIndex","type":"uint256","internalType":"uint256"},{"name":"invariantRatio","type":"uint256","internalType":"uint256"}],"outputs":[{"name":"newBalance","type":"uint256","internalType":"uint256"}],"stateMutability":"pure"},{"type":"function","name":"computeInvariant","inputs":[{"name":"balances","type":"uint256[]","internalType":"uint256[]"},{"name":"","type":"uint8","internalType":"enum Rounding"}],"outputs":[{"name":"","type":"uint256","internalType":"uint256"}],"stateMutability":"pure"},{"type":"function","name":"decimals","inputs":[],"outputs":[{"name":"","type":"uint8","internalType":"uint8"}],"stateMutability":"pure"},{"type":"function","name":"eip712Domain","inputs":[],"outputs":[{"name":"fields","type":"bytes1","internalType":"bytes1"},{"name":"name","type":"string","internalType":"string"},{"name":"version","type":"string","internalType":"string"},{"name":"chainId","type":"uint256","internalType":"uint256"},{"name":"verifyingContract","type":"address","internalType":"address"},{"name":"salt","type":"bytes32","internalType":"bytes32"},{"name":"extensions","type":"uint256[]","internalType":"uint256[]"}],"stateMutability":"view"},{"type":"function","name":"emitApproval","inputs":[{"name":"owner","type":"address","internalType":"address"},{"name":"spender","type":"address","internalType":"address"},{"name":"amount","type":"uint256","internalType":"uint256"}],"outputs":[],"stateMutability":"nonpayable"},{"type":"function","name":"emitTransfer","inputs":[{"name":"from","type":"address","internalType":"address"},{"name":"to","type":"address","internalType":"address"},{"name":"amount","type":"uint256","internalType":"uint256"}],"outputs":[],"stateMutability":"nonpayable"},{"type":"function","name":"getAggregateFeePercentages","inputs":[],"outputs":[{"name":"aggregateSwapFeePercentage","type":"uint256","internalType":"uint256"},{"name":"aggregateYieldFeePercentage","type":"uint256","internalType":"uint256"}],"stateMutability":"view"},{"type":"function","name":"getCurrentLiveBalances","inputs":[],"outputs":[{"name":"balancesLiveScaled18","type":"uint256[]","internalType":"uint256[]"}],"stateMutability":"view"},{"type":"function","name":"getDecimalScalingFactors","inputs":[],"outputs":[{"name":"scalingFactors","type":"uint256[]","internalType":"uint256[]"}],"stateMutability":"view"},{"type":"function","name":"getMaximumInvariantRatio","inputs":[],"outputs":[{"name":"","type":"uint256","internalType":"uint256"}],"stateMutability":"view"},{"type":"function","name":"getMaximumSwapFeePercentage","inputs":[],"outputs":[{"name":"","type":"uint256","internalType":"uint256"}],"stateMutability":"pure"},{"type":"function","name":"getMinimumInvariantRatio","inputs":[],"outputs":[{"name":"","type":"uint256","internalType":"uint256"}],"stateMutability":"view"},{"type":"function","name":"getMinimumSwapFeePercentage","inputs":[],"outputs":[{"name":"","type":"uint256","internalType":"uint256"}],"stateMutability":"pure"},{"type":"function","name":"getRate","inputs":[],"outputs":[{"name":"","type":"uint256","internalType":"uint256"}],"stateMutability":"view"},{"type":"function","name":"getStaticSwapFeePercentage","inputs":[],"outputs":[{"name":"","type":"uint256","internalType":"uint256"}],"stateMutability":"view"},{"type":"function","name":"getTokenInfo","inputs":[],"outputs":[{"name":"tokens","type":"address[]","internalType":"contract IERC20[]"},{"name":"tokenInfo","type":"tuple[]","internalType":"struct TokenInfo[]","components":[{"name":"tokenType","type":"uint8","internalType":"enum TokenType"},{"name":"rateProvider","type":"address","internalType":"contract IRateProvider"},{"name":"paysYieldFees","type":"bool","internalType":"bool"}]},{"name":"balancesRaw","type":"uint256[]","internalType":"uint256[]"},{"name":"lastBalancesLiveScaled18","type":"uint256[]","internalType":"uint256[]"}],"stateMutability":"view"},{"type":"function","name":"getTokens","inputs":[],"outputs":[{"name":"tokens","type":"address[]","internalType":"contract IERC20[]"}],"stateMutability":"view"},{"type":"function","name":"getVault","inputs":[],"outputs":[{"name":"","type":"address","internalType":"contract IVault"}],"stateMutability":"view"},{"type":"function","name":"name","inputs":[],"outputs":[{"name":"","type":"string","internalType":"string"}],"stateMutability":"view"},{"type":"function","name":"nonces","inputs":[{"name":"owner","type":"address","internalType":"address"}],"outputs":[{"name":"","type":"uint256","internalType":"uint256"}],"stateMutability":"view"},{"type":"function","name":"onAddLiquidityCustom","inputs":[{"name":"","type":"address","internalType":"address"},{"name":"maxAmountsInScaled18","type":"uint256[]","internalType":"uint256[]"},{"name":"minBptAmountOut","type":"uint256","internalType":"uint256"},{"name":"","type":"uint256[]","internalType":"uint256[]"},{"name":"userData","type":"bytes","internalType":"bytes"}],"outputs":[{"name":"","type":"uint256[]","internalType":"uint256[]"},{"name":"","type":"uint256","internalType":"uint256"},{"name":"","type":"uint256[]","internalType":"uint256[]"},{"name":"","type":"bytes","internalType":"bytes"}],"stateMutability":"pure"},{"type":"function","name":"onRemoveLiquidityCustom","inputs":[{"name":"","type":"address","internalType":"address"},{"name":"maxBptAmountIn","type":"uint256","internalType":"uint256"},{"name":"minAmountsOut","type":"uint256[]","internalType":"uint256[]"},{"name":"","type":"uint256[]","internalType":"uint256[]"},{"name":"userData","type":"bytes","internalType":"bytes"}],"outputs":[{"name":"","type":"uint256","internalType":"uint256"},{"name":"","type":"uint256[]","internalType":"uint256[]"},{"name":"","type":"uint256[]","internalType":"uint256[]"},{"name":"","type":"bytes","internalType":"bytes"}],"stateMutability":"pure"},{"type":"function","name":"onSwap","inputs":[{"name":"params","type":"tuple","internalType":"struct PoolSwapParams","components":[{"name":"kind","type":"uint8","internalType":"enum SwapKind"},{"name":"amountGivenScaled18","type":"uint256","internalType":"uint256"},{"name":"balancesScaled18","type":"uint256[]","internalType":"uint256[]"},{"name":"indexIn","type":"uint256","internalType":"uint256"},{"name":"indexOut","type":"uint256","internalType":"uint256"},{"name":"router","type":"address","internalType":"address"},{"name":"userData","type":"bytes","internalType":"bytes"}]}],"outputs":[{"name":"amountCalculated","type":"uint256","internalType":"uint256"}],"stateMutability":"view"},{"type":"function","name":"permit","inputs":[{"name":"owner","type":"address","internalType":"address"},{"name":"spender","type":"address","internalType":"address"},{"name":"amount","type":"uint256","internalType":"uint256"},{"name":"deadline","type":"uint256","internalType":"uint256"},{"name":"v","type":"uint8","internalType":"uint8"},{"name":"r","type":"bytes32","internalType":"bytes32"},{"name":"s","type":"bytes32","internalType":"bytes32"}],"outputs":[],"stateMutability":"nonpayable"},{"type":"function","name":"revokePermit","inputs":[],"outputs":[],"stateMutability":"nonpayable"},{"type":"function","name":"setMaximumInvariantRatio","inputs":[{"name":"maximumInvariantRatio","type":"uint256","internalType":"uint256"}],"outputs":[],"stateMutability":"nonpayable"},{"type":"function","name":"setMinimumInvariantRatio","inputs":[{"name":"minimumInvariantRatio","type":"uint256","internalType":"uint256"}],"outputs":[],"stateMutability":"nonpayable"},{"type":"function","name":"setMockRate","inputs":[{"name":"mockRate","type":"uint256","internalType":"uint256"}],"outputs":[],"stateMutability":"nonpayable"},{"type":"function","name":"setMultiplier","inputs":[{"name":"newMultiplier","type":"uint256","internalType":"uint256"}],"outputs":[],"stateMutability":"nonpayable"},{"type":"function","name":"supportsInterface","inputs":[{"name":"interfaceId","type":"bytes4","internalType":"bytes4"}],"outputs":[{"name":"","type":"bool","internalType":"bool"}],"stateMutability":"view"},{"type":"function","name":"symbol","inputs":[],"outputs":[{"name":"","type":"string","internalType":"string"}],"stateMutability":"view"},{"type":"function","name":"totalSupply","inputs":[],"outputs":[{"name":"","type":"uint256","internalType":"uint256"}],"stateMutability":"view"},{"type":"function","name":"transfer","inputs":[{"name":"to","type":"address","internalType":"address"},{"name":"amount","type":"uint256","internalType":"uint256"}],"outputs":[{"name":"","type":"bool","internalType":"bool"}],"stateMutability":"nonpayable"},{"type":"function","name":"transferFrom","inputs":[{"name":"from","type":"address","internalType":"address"},{"name":"to","type":"address","internalType":"address"},{"name":"amount","type":"uint256","internalType":"uint256"}],"outputs":[{"name":"","type":"bool","internalType":"bool"}],"stateMutability":"nonpayable"},{"type":"event","name":"Approval","inputs":[{"name":"owner","type":"address","indexed":true,"internalType":"address"},{"name":"spender","type":"address","indexed":true,"internalType":"address"},{"name":"value","type":"uint256","indexed":false,"internalType":"uint256"}],"anonymous":false},{"type":"event","name":"EIP712DomainChanged","inputs":[],"anonymous":false},{"type":"event","name":"Transfer","inputs":[{"name":"from","type":"address","indexed":true,"internalType":"address"},{"name":"to","type":"address","indexed":true,"internalType":"address"},{"name":"value","type":"uint256","indexed":false,"internalType":"uint256"}],"anonymous":false},{"type":"error","name":"ECDSAInvalidSignature","inputs":[]},{"type":"error","name":"ECDSAInvalidSignatureLength","inputs":[{"name":"length","type":"uint256","internalType":"uint256"}]},{"type":"error","name":"ECDSAInvalidSignatureS","inputs":[{"name":"s","type":"bytes32","internalType":"bytes32"}]},{"type":"error","name":"ERC2612ExpiredSignature","inputs":[{"name":"deadline","type":"uint256","internalType":"uint256"}]},{"type":"error","name":"ERC2612InvalidSigner","inputs":[{"name":"signer","type":"address","internalType":"address"},{"name":"owner","type":"address","internalType":"address"}]},{"type":"error","name":"InvalidAccountNonce","inputs":[{"name":"account","type":"address","internalType":"address"},{"name":"currentNonce","type":"uint256","internalType":"uint256"}]},{"type":"error","name":"InvalidShortString","inputs":[]},{"type":"error","name":"SenderIsNotVault","inputs":[{"name":"sender","type":"address","internalType":"address"}]},{"type":"error","name":"StringTooLong","inputs":[{"name":"str","type":"string","internalType":"string"}]}],"bytecode":{"object":"0x6101a0604052670de0b6b3a76400006005555f600755670de0b6b3a7640000620f42406200002e91906200020a565b6008553480156200003d575f80fd5b5060405162002bf138038062002bf18339810160408190526200006091620002f4565b828282828383838282604051806040016040528060018152602001603160f81b815250620000985f836200018760201b90919060201c565b61012052620000a981600162000187565b61014052815160208084019190912060e052815190820120610100524660a0526200013660e05161010051604080517f8b73c3c69bb8fe3d512ecc4cf759cc79239f7b179b0ffacaa9a75d522b39400f60208201529081019290925260608201524660808201523060a08201525f9060c00160405160208183030381529060405280519060200120905090565b60805250503060c0526001600160a01b03166101605260036200015a838262000402565b50600462000169828262000402565b505050506001600160a01b0316610180525062000526945050505050565b5f602083511015620001a6576200019e83620001bf565b9050620001b9565b81620001b3848262000402565b5060ff90505b92915050565b5f80829050601f81511115620001f5578260405163305a27a960e01b8152600401620001ec9190620004ce565b60405180910390fd5b8051620002028262000502565b179392505050565b8082028115828204841417620001b957634e487b7160e01b5f52601160045260245ffd5b634e487b7160e01b5f52604160045260245ffd5b5f5b838110156200025e57818101518382015260200162000244565b50505f910152565b5f82601f83011262000276575f80fd5b81516001600160401b03808211156200029357620002936200022e565b604051601f8301601f19908116603f01168101908282118183101715620002be57620002be6200022e565b81604052838152866020858801011115620002d7575f80fd5b620002ea84602083016020890162000242565b9695505050505050565b5f805f6060848603121562000307575f80fd5b83516001600160a01b03811681146200031e575f80fd5b60208501519093506001600160401b03808211156200033b575f80fd5b620003498783880162000266565b935060408601519150808211156200035f575f80fd5b506200036e8682870162000266565b9150509250925092565b600181811c908216806200038d57607f821691505b602082108103620003ac57634e487b7160e01b5f52602260045260245ffd5b50919050565b601f821115620003fd57805f5260205f20601f840160051c81016020851015620003d95750805b601f840160051c820191505b81811015620003fa575f8155600101620003e5565b50505b505050565b81516001600160401b038111156200041e576200041e6200022e565b62000436816200042f845462000378565b84620003b2565b602080601f8311600181146200046c575f8415620004545750858301515b5f19600386901b1c1916600185901b178555620004c6565b5f85815260208120601f198616915b828110156200049c578886015182559484019460019091019084016200047b565b5085821015620004ba57878501515f19600388901b60f8161c191681555b505060018460011b0185555b505050505050565b602081525f8251806020840152620004ee81604085016020870162000242565b601f01601f19169190910160400192915050565b80516020808301519190811015620003ac575f1960209190910360031b1b16919050565b60805160a05160c05160e0516101005161012051610140516101605161018051612603620005ee5f395f8181610bb501528181610d9101528181610ea301528181610f4d0152610ff001525f81816104d2015281816106b9015281816107b3015281816108790152818161097b01528181610aa301528181610d2f015281816111ab0152818161126a0152818161133101526114ed01525f61156f01525f61154301525f61146501525f61143d01525f61139801525f6113c201525f6113ec01526126035ff3fe608060405234801561000f575f80fd5b506004361061029d575f3560e01c806370a0823111610171578063aa6ca808116100d2578063ce20ece711610088578063d505accf1161006e578063d505accf146105b2578063dd62ed3e146105c5578063e4c43663146105d8575f80fd5b8063ce20ece7146105a4578063d335b0cf146105aa575f80fd5b8063abb1dc44116100b8578063abb1dc441461057c578063b156aa0a14610594578063b677fa561461059c575f80fd5b8063aa6ca80814610544578063ab68e28c14610559575f80fd5b80638d928af811610127578063979ac7021161010d578063979ac70214610504578063984de9e81461051e578063a9059cbb14610531575f80fd5b80638d928af8146104c557806395d89b41146104fc575f80fd5b80637ecebe00116101575780637ecebe001461047a57806381fa807c1461048d57806384b0196e146104aa575f80fd5b806370a082311461045457806372c9818614610467575f80fd5b806330adf81f1161021b578063547c8fdd116101d1578063641579a6116101b7578063641579a61461042b578063654cf15d1461043e578063679aefce1461044c575f80fd5b8063547c8fdd146104055780635687f2b814610418575f80fd5b8063360c340f11610201578063360c340f146103d55780633644e515146103ea5780634cfe8d1a146103f2575f80fd5b806330adf81f1461039f578063313ce567146103c6575f80fd5b806318160ddd1161027057806323de66511161025657806323de66511461036f578063273c1adf146103845780632efd5d811461038c575f80fd5b806318160ddd1461035457806323b872dd1461035c575f80fd5b806301ffc9a7146102a157806306fdde031461030b578063095ea7b31461032057806316a0b3e014610333575b5f80fd5b6102f66102af3660046118fd565b7fffffffff00000000000000000000000000000000000000000000000000000000167f01ffc9a7000000000000000000000000000000000000000000000000000000001490565b60405190151581526020015b60405180910390f35b6103136105fb565b604051610302919061197f565b6102f661032e3660046119a5565b61068b565b610346610341366004611af0565b610732565b604051908152602001610302565b610346610783565b6102f661036a366004611b3a565b61082a565b61038261037d366004611b3a565b6108f0565b005b600854610346565b61038261039a366004611b78565b600755565b6103467f6e71edae12b1b97f4d1f60370fef10105fa2faae0126114a169c64845d6126c981565b60405160128152602001610302565b6103dd61094a565b6040516103029190611bc9565b6103466109f4565b610382610400366004611b78565b600655565b610382610413366004611b78565b600855565b610382610426366004611b3a565b6109fd565b610382610439366004611b78565b600555565b670de0b6b3a7640000610346565b610346610a4a565b610346610462366004611bdb565b610a63565b610346610475366004611bf6565b610b0e565b610346610488366004611bdb565b610b5c565b610495610b79565b60408051928352602083019190915201610302565b6104b2610c34565b6040516103029796959493929190611c2d565b6040516001600160a01b037f0000000000000000000000000000000000000000000000000000000000000000168152602001610302565b610313610c92565b610382335f90815260026020526040902080546001019055565b61034661052c366004611cc2565b610ca4565b6102f661053f3660046119a5565b610ce8565b61054c610d60565b6040516103029190611d49565b61056c610567366004611dc7565b610e04565b6040516103029493929190611e65565b610584610e64565b6040516103029493929190611ec2565b6103dd610f1c565b600754610346565b5f610346565b610346610fc0565b6103826105c0366004611f71565b611027565b6103466105d3366004611fe2565b611222565b6105eb6105e636600461200e565b6112dc565b6040516103029493929190612071565b60606003805461060a9061209b565b80601f01602080910402602001604051908101604052809291908181526020018280546106369061209b565b80156106815780601f1061065857610100808354040283529160200191610681565b820191905f5260205f20905b81548152906001019060200180831161066457829003601f168201915b5050505050905090565b60405163e1f21c6760e01b81523360048201526001600160a01b038381166024830152604482018390525f917f00000000000000000000000000000000000000000000000000000000000000009091169063e1f21c67906064015b6020604051808303815f875af1158015610702573d5f803e3d5ffd5b505050506040513d601f19601f8201168201806040525081019061072691906120e1565b50600190505b92915050565b5f8061073f856001610ca4565b90508061074c81856112fe565b86868151811061075e5761075e6120fa565b60200260200101516107709190612122565b61077a9190612135565b95945050505050565b6040517fe4dc2aa40000000000000000000000000000000000000000000000000000000081523060048201525f907f00000000000000000000000000000000000000000000000000000000000000006001600160a01b03169063e4dc2aa4906024015b602060405180830381865afa158015610801573d5f803e3d5ffd5b505050506040513d601f19601f820116820180604052508101906108259190612148565b905090565b6040517f15dacbea0000000000000000000000000000000000000000000000000000000081523360048201526001600160a01b0384811660248301528381166044830152606482018390525f917f0000000000000000000000000000000000000000000000000000000000000000909116906315dacbea906084016020604051808303815f875af11580156108c1573d5f803e3d5ffd5b505050506040513d601f19601f820116820180604052508101906108e591906120e1565b506001949350505050565b6108f8611326565b816001600160a01b0316836001600160a01b03167fddf252ad1be2c89b69c2b068fc378daa952ba7f163c4a11628f55a4df523b3ef8360405161093d91815260200190565b60405180910390a3505050565b6040517f7e361bde0000000000000000000000000000000000000000000000000000000081523060048201526060907f00000000000000000000000000000000000000000000000000000000000000006001600160a01b031690637e361bde906024015f60405180830381865afa1580156109c7573d5f803e3d5ffd5b505050506040513d5f823e601f3d908101601f191682016040526109ee91908101906121bb565b50919050565b5f61082561138c565b610a05611326565b816001600160a01b0316836001600160a01b03167f8c5be1e5ebec7d5bd14f71427d1e84f3dd0314c0f7b2291e5b200ac8c7c3b9258360405161093d91815260200190565b5f6006545f14610a5b575060065490565b6108256114b5565b6040517ff7888aec0000000000000000000000000000000000000000000000000000000081523060048201526001600160a01b0382811660248301525f917f00000000000000000000000000000000000000000000000000000000000000009091169063f7888aec90604401602060405180830381865afa158015610aea573d5f803e3d5ffd5b505050506040513d601f19601f8201168201806040525081019061072c9190612148565b5f80610b1d602084018461221b565b6001811115610b2e57610b2e611eae565b14610b4a57600554610b459060208401359061151c565b61072c565b60055461072c906020840135906112fe565b6001600160a01b0381165f9081526002602052604081205461072c565b6040517ff29486a10000000000000000000000000000000000000000000000000000000081523060048201525f90819081906001600160a01b037f0000000000000000000000000000000000000000000000000000000000000000169063f29486a1906024016101a060405180830381865afa158015610bfb573d5f803e3d5ffd5b505050506040513d601f19601f82011682018060405250810190610c1f91906122db565b90508060400151925080606001519150509091565b5f6060805f805f6060610c4561153c565b610c4d611568565b604080515f808252602082019092527f0f000000000000000000000000000000000000000000000000000000000000009b939a50919850469750309650945092509050565b60606004805461060a9061209b565b50565b5f805f5b8451811015610ce057848181518110610cc357610cc36120fa565b602002602001015182610cd69190612122565b9150600101610ca8565b509392505050565b6040517fbeabacc80000000000000000000000000000000000000000000000000000000081523360048201526001600160a01b038381166024830152604482018390525f917f00000000000000000000000000000000000000000000000000000000000000009091169063beabacc8906064016106e6565b6040517fca4f28030000000000000000000000000000000000000000000000000000000081523060048201526060907f00000000000000000000000000000000000000000000000000000000000000006001600160a01b03169063ca4f2803906024015f60405180830381865afa158015610ddd573d5f803e3d5ffd5b505050506040513d5f823e601f3d908101601f1916820160405261082591908101906123f6565b5f60608060608787885167ffffffffffffffff811115610e2657610e266119cf565b604051908082528060200260200182016040528015610e4f578160200160208202803683370190505b50919b909a5090985094965093945050505050565b6040517f67e0e0760000000000000000000000000000000000000000000000000000000081523060048201526060908190819081906001600160a01b037f000000000000000000000000000000000000000000000000000000000000000016906367e0e076906024015f60405180830381865afa158015610ee7573d5f803e3d5ffd5b505050506040513d5f823e601f3d908101601f19168201604052610f0e9190810190612428565b935093509350935090919293565b6040517f535cfd8a0000000000000000000000000000000000000000000000000000000081523060048201526060907f00000000000000000000000000000000000000000000000000000000000000006001600160a01b03169063535cfd8a906024015f60405180830381865afa158015610f99573d5f803e3d5ffd5b505050506040513d5f823e601f3d908101601f191682016040526108259190810190612565565b6040517fb45090f90000000000000000000000000000000000000000000000000000000081523060048201525f907f00000000000000000000000000000000000000000000000000000000000000006001600160a01b03169063b45090f9906024016107e6565b83421115611069576040517f62791302000000000000000000000000000000000000000000000000000000008152600481018590526024015b60405180910390fd5b5f7f6e71edae12b1b97f4d1f60370fef10105fa2faae0126114a169c64845d6126c98888886110b48c6001600160a01b03165f90815260026020526040902080546001810190915590565b6040805160208101969096526001600160a01b0394851690860152929091166060840152608083015260a082015260c0810186905260e0016040516020818303038152906040528051906020012090505f61110e82611595565b90505f61111d828787876115dc565b9050896001600160a01b0316816001600160a01b03161461117d576040517f4b800e460000000000000000000000000000000000000000000000000000000081526001600160a01b0380831660048301528b166024820152604401611060565b60405163e1f21c6760e01b81526001600160a01b038b811660048301528a81166024830152604482018a90527f0000000000000000000000000000000000000000000000000000000000000000169063e1f21c67906064016020604051808303815f875af11580156111f1573d5f803e3d5ffd5b505050506040513d601f19601f8201168201806040525081019061121591906120e1565b5050505050505050505050565b6040517f927da1050000000000000000000000000000000000000000000000000000000081523060048201526001600160a01b03838116602483015282811660448301525f917f00000000000000000000000000000000000000000000000000000000000000009091169063927da10590606401602060405180830381865afa1580156112b1573d5f803e3d5ffd5b505050506040513d601f19601f820116820180604052508101906112d59190612148565b9392505050565b60605f6060808787895167ffffffffffffffff811115610e2657610e266119cf565b5f8061130a8385612597565b905061131e670de0b6b3a7640000826125ae565b949350505050565b336001600160a01b037f0000000000000000000000000000000000000000000000000000000000000000161461138a576040517f089676d5000000000000000000000000000000000000000000000000000000008152336004820152602401611060565b565b5f306001600160a01b037f0000000000000000000000000000000000000000000000000000000000000000161480156113e457507f000000000000000000000000000000000000000000000000000000000000000046145b1561140e57507f000000000000000000000000000000000000000000000000000000000000000090565b610825604080517f8b73c3c69bb8fe3d512ecc4cf759cc79239f7b179b0ffacaa9a75d522b39400f60208201527f0000000000000000000000000000000000000000000000000000000000000000918101919091527f000000000000000000000000000000000000000000000000000000000000000060608201524660808201523060a08201525f9060c00160405160208183030381529060405280519060200120905090565b6040517f4f037ee70000000000000000000000000000000000000000000000000000000081523060048201525f906001600160a01b037f00000000000000000000000000000000000000000000000000000000000000001690634f037ee7906024016107e6565b5f80611530670de0b6b3a764000085612597565b905061131e83826125ae565b60606108257f00000000000000000000000000000000000000000000000000000000000000005f611608565b60606108257f00000000000000000000000000000000000000000000000000000000000000006001611608565b5f61072c6115a161138c565b836040517f19010000000000000000000000000000000000000000000000000000000000008152600281019290925260228201526042902090565b5f805f806115ec888888886116b1565b9250925092506115fc8282611779565b50909695505050505050565b606060ff83146116225761161b83611880565b905061072c565b81805461162e9061209b565b80601f016020809104026020016040519081016040528092919081815260200182805461165a9061209b565b80156116a55780601f1061167c576101008083540402835291602001916116a5565b820191905f5260205f20905b81548152906001019060200180831161168857829003601f168201915b5050505050905061072c565b5f80807f7fffffffffffffffffffffffffffffff5d576e7357a4501ddfe92f46681b20a08411156116ea57505f9150600390508261176f565b604080515f808252602082018084528a905260ff891692820192909252606081018790526080810186905260019060a0016020604051602081039080840390855afa15801561173b573d5f803e3d5ffd5b5050604051601f1901519150506001600160a01b03811661176657505f92506001915082905061176f565b92505f91508190505b9450945094915050565b5f82600381111561178c5761178c611eae565b03611795575050565b60018260038111156117a9576117a9611eae565b036117e0576040517ff645eedf00000000000000000000000000000000000000000000000000000000815260040160405180910390fd5b60028260038111156117f4576117f4611eae565b0361182e576040517ffce698f700000000000000000000000000000000000000000000000000000000815260048101829052602401611060565b600382600381111561184257611842611eae565b0361187c576040517fd78bce0c00000000000000000000000000000000000000000000000000000000815260048101829052602401611060565b5050565b60605f61188c836118bd565b6040805160208082528183019092529192505f91906020820181803683375050509182525060208101929092525090565b5f60ff8216601f81111561072c576040517fb3512b0c00000000000000000000000000000000000000000000000000000000815260040160405180910390fd5b5f6020828403121561190d575f80fd5b81357fffffffff00000000000000000000000000000000000000000000000000000000811681146112d5575f80fd5b5f81518084525f5b8181101561196057602081850181015186830182015201611944565b505f602082860101526020601f19601f83011685010191505092915050565b602081525f6112d5602083018461193c565b6001600160a01b0381168114610ca1575f80fd5b5f80604083850312156119b6575f80fd5b82356119c181611991565b946020939093013593505050565b634e487b7160e01b5f52604160045260245ffd5b604051610140810167ffffffffffffffff81118282101715611a0757611a076119cf565b60405290565b6040516060810167ffffffffffffffff81118282101715611a0757611a076119cf565b604051601f8201601f1916810167ffffffffffffffff81118282101715611a5957611a596119cf565b604052919050565b5f67ffffffffffffffff821115611a7a57611a7a6119cf565b5060051b60200190565b5f82601f830112611a93575f80fd5b81356020611aa8611aa383611a61565b611a30565b8083825260208201915060208460051b870101935086841115611ac9575f80fd5b602086015b84811015611ae55780358352918301918301611ace565b509695505050505050565b5f805f60608486031215611b02575f80fd5b833567ffffffffffffffff811115611b18575f80fd5b611b2486828701611a84565b9660208601359650604090950135949350505050565b5f805f60608486031215611b4c575f80fd5b8335611b5781611991565b92506020840135611b6781611991565b929592945050506040919091013590565b5f60208284031215611b88575f80fd5b5035919050565b5f815180845260208085019450602084015f5b83811015611bbe57815187529582019590820190600101611ba2565b509495945050505050565b602081525f6112d56020830184611b8f565b5f60208284031215611beb575f80fd5b81356112d581611991565b5f60208284031215611c06575f80fd5b813567ffffffffffffffff811115611c1c575f80fd5b820160e081850312156112d5575f80fd5b7fff000000000000000000000000000000000000000000000000000000000000008816815260e060208201525f611c6760e083018961193c565b8281036040840152611c79818961193c565b90508660608401526001600160a01b03861660808401528460a084015282810360c0840152611ca88185611b8f565b9a9950505050505050505050565b60028110610ca1575f80fd5b5f8060408385031215611cd3575f80fd5b823567ffffffffffffffff811115611ce9575f80fd5b611cf585828601611a84565b9250506020830135611d0681611cb6565b809150509250929050565b5f815180845260208085019450602084015f5b83811015611bbe5781516001600160a01b031687529582019590820190600101611d24565b602081525f6112d56020830184611d11565b5f82601f830112611d6a575f80fd5b813567ffffffffffffffff811115611d8457611d846119cf565b611d97601f8201601f1916602001611a30565b818152846020838601011115611dab575f80fd5b816020850160208301375f918101602001919091529392505050565b5f805f805f60a08688031215611ddb575f80fd5b8535611de681611991565b945060208601359350604086013567ffffffffffffffff80821115611e09575f80fd5b611e1589838a01611a84565b94506060880135915080821115611e2a575f80fd5b611e3689838a01611a84565b93506080880135915080821115611e4b575f80fd5b50611e5888828901611d5b565b9150509295509295909350565b848152608060208201525f611e7d6080830186611b8f565b8281036040840152611e8f8186611b8f565b90508281036060840152611ea3818561193c565b979650505050505050565b634e487b7160e01b5f52602160045260245ffd5b608081525f611ed46080830187611d11565b8281036020848101919091528651808352878201928201905f5b81811015611f47578451805160028110611f1657634e487b7160e01b5f52602160045260245ffd5b8452808501516001600160a01b03168585015260409081015115159084015293830193606090920191600101611eee565b50508481036040860152611f5b8188611b8f565b925050508281036060840152611ea38185611b8f565b5f805f805f805f60e0888a031215611f87575f80fd5b8735611f9281611991565b96506020880135611fa281611991565b95506040880135945060608801359350608088013560ff81168114611fc5575f80fd5b9699959850939692959460a0840135945060c09093013592915050565b5f8060408385031215611ff3575f80fd5b8235611ffe81611991565b91506020830135611d0681611991565b5f805f805f60a08688031215612022575f80fd5b853561202d81611991565b9450602086013567ffffffffffffffff80821115612049575f80fd5b61205589838a01611a84565b9550604088013594506060880135915080821115611e2a575f80fd5b608081525f6120836080830187611b8f565b8560208401528281036040840152611e8f8186611b8f565b600181811c908216806120af57607f821691505b6020821081036109ee57634e487b7160e01b5f52602260045260245ffd5b805180151581146120dc575f80fd5b919050565b5f602082840312156120f1575f80fd5b6112d5826120cd565b634e487b7160e01b5f52603260045260245ffd5b634e487b7160e01b5f52601160045260245ffd5b8082018082111561072c5761072c61210e565b8181038181111561072c5761072c61210e565b5f60208284031215612158575f80fd5b5051919050565b5f82601f83011261216e575f80fd5b8151602061217e611aa383611a61565b8083825260208201915060208460051b87010193508684111561219f575f80fd5b602086015b84811015611ae557805183529183019183016121a4565b5f80604083850312156121cc575f80fd5b825167ffffffffffffffff808211156121e3575f80fd5b6121ef8683870161215f565b93506020850151915080821115612204575f80fd5b506122118582860161215f565b9150509250929050565b5f6020828403121561222b575f80fd5b81356112d581611cb6565b5f60808284031215612246575f80fd5b6040516080810181811067ffffffffffffffff82111715612269576122696119cf565b604052905080612278836120cd565b8152612286602084016120cd565b6020820152612297604084016120cd565b60408201526122a8606084016120cd565b60608201525092915050565b805164ffffffffff811681146120dc575f80fd5b805163ffffffff811681146120dc575f80fd5b5f6101a082840312156122ec575f80fd5b6122f46119e3565b6122fe8484612236565b81526080830151602082015260a0830151604082015260c0830151606082015261232a60e084016122b4565b608082015261010061233d8185016122c8565b60a08301526101206123508186016120cd565b60c084015261236261014086016120cd565b60e084015261237461016086016120cd565b8284015261238561018086016120cd565b90830152509392505050565b5f82601f8301126123a0575f80fd5b815160206123b0611aa383611a61565b8083825260208201915060208460051b8701019350868411156123d1575f80fd5b602086015b84811015611ae55780516123e981611991565b83529183019183016123d6565b5f60208284031215612406575f80fd5b815167ffffffffffffffff81111561241c575f80fd5b61131e84828501612391565b5f805f806080858703121561243b575f80fd5b845167ffffffffffffffff80821115612452575f80fd5b61245e88838901612391565b9550602091508187015181811115612474575f80fd5b8701601f81018913612484575f80fd5b8051612492611aa382611a61565b8181526060918202830185019185820191908c8411156124b0575f80fd5b938601935b838510156125115780858e0312156124cb575f80fd5b6124d3611a0d565b85516124de81611cb6565b8152858801516124ed81611991565b8189015260406124fe8782016120cd565b90820152835293840193918601916124b5565b5060408b015190985094505050508082111561252b575f80fd5b6125378883890161215f565b9350606087015191508082111561254c575f80fd5b506125598782880161215f565b91505092959194509250565b5f60208284031215612575575f80fd5b815167ffffffffffffffff81111561258b575f80fd5b61131e8482850161215f565b808202811582820484141761072c5761072c61210e565b5f826125c857634e487b7160e01b5f52601260045260245ffd5b50049056fea2646970667358221220662d212b563a16e94058df6ec10246bdf28984186ecb0a59937620cd94672b7b64736f6c63430008180033","linkReferences":{}},"methodIdentifiers":{"DOMAIN_SEPARATOR()":"3644e515","PERMIT_TYPEHASH()":"30adf81f","allowance(address,address)":"dd62ed3e","approve(address,uint256)":"095ea7b3","balanceOf(address)":"70a08231","computeBalance(uint256[],uint256,uint256)":"16a0b3e0","computeInvariant(uint256[],uint8)":"984de9e8","decimals()":"313ce567","eip712Domain()":"84b0196e","emitApproval(address,address,uint256)":"5687f2b8","emitTransfer(address,address,uint256)":"23de6651","getAggregateFeePercentages()":"81fa807c","getCurrentLiveBalances()":"b156aa0a","getDecimalScalingFactors()":"360c340f","getMaximumInvariantRatio()":"273c1adf","getMaximumSwapFeePercentage()":"654cf15d","getMinimumInvariantRatio()":"b677fa56","getMinimumSwapFeePercentage()":"ce20ece7","getRate()":"679aefce","getStaticSwapFeePercentage()":"d335b0cf","getTokenInfo()":"abb1dc44","getTokens()":"aa6ca808","getVault()":"8d928af8","name()":"06fdde03","nonces(address)":"7ecebe00","onAddLiquidityCustom(address,uint256[],uint256,uint256[],bytes)":"e4c43663","onRemoveLiquidityCustom(address,uint256,uint256[],uint256[],bytes)":"ab68e28c","onSwap((uint8,uint256,uint256[],uint256,uint256,address,bytes))":"72c98186","permit(address,address,uint256,uint256,uint8,bytes32,bytes32)":"d505accf","revokePermit()":"979ac702","setMaximumInvariantRatio(uint256)":"547c8fdd","setMinimumInvariantRatio(uint256)":"2efd5d81","setMockRate(uint256)":"4cfe8d1a","setMultiplier(uint256)":"641579a6","supportsInterface(bytes4)":"01ffc9a7","symbol()":"95d89b41","totalSupply()":"18160ddd","transfer(address,uint256)":"a9059cbb","transferFrom(address,address,uint256)":"23b872dd"},"id":116}