{"abi":[{"type":"function","name":"canPerform","inputs":[{"name":"role","type":"bytes32","internalType":"bytes32"},{"name":"account","type":"address","internalType":"address"},{"name":"where","type":"address","internalType":"address"}],"outputs":[{"name":"","type":"bool","internalType":"bool"}],"stateMutability":"view"},{"type":"function","name":"grantRole","inputs":[{"name":"role","type":"bytes32","internalType":"bytes32"},{"name":"account","type":"address","internalType":"address"}],"outputs":[],"stateMutability":"nonpayable"},{"type":"function","name":"grantSpecificRole","inputs":[{"name":"role","type":"bytes32","internalType":"bytes32"},{"name":"account","type":"address","internalType":"address"},{"name":"where","type":"address","internalType":"address"}],"outputs":[],"stateMutability":"nonpayable"},{"type":"function","name":"hasRole","inputs":[{"name":"role","type":"bytes32","internalType":"bytes32"},{"name":"account","type":"address","internalType":"address"}],"outputs":[{"name":"","type":"bool","internalType":"bool"}],"stateMutability":"view"},{"type":"function","name":"hasSpecificRole","inputs":[{"name":"role","type":"bytes32","internalType":"bytes32"},{"name":"account","type":"address","internalType":"address"},{"name":"where","type":"address","internalType":"address"}],"outputs":[{"name":"","type":"bool","internalType":"bool"}],"stateMutability":"view"},{"type":"function","name":"revokeRole","inputs":[{"name":"role","type":"bytes32","internalType":"bytes32"},{"name":"account","type":"address","internalType":"address"}],"outputs":[],"stateMutability":"nonpayable"},{"type":"function","name":"revokeSpecificRole","inputs":[{"name":"role","type":"bytes32","internalType":"bytes32"},{"name":"account","type":"address","internalType":"address"},{"name":"where","type":"address","internalType":"address"}],"outputs":[],"stateMutability":"nonpayable"}],"bytecode":{"object":"0x608060405234801561000f575f80fd5b506103338061001d5f395ff3fe608060405234801561000f575f80fd5b506004361061007a575f3560e01c80639be2a884116100585780639be2a88414610148578063b7cfddf61461015b578063d547741f1461019b578063f5407f77146101d3575f80fd5b80632f2ff15d1461007e578063686c7a1d146100bb57806391d14854146100fe575b5f80fd5b6100b961008c36600461029a565b5f918252602082815260408084206001600160a01b0390931684529190529020805460ff19166001179055565b005b6100b96100c93660046102c4565b5f9283526001602090815260408085206001600160a01b0394851686528252808520929093168452529020805460ff19169055565b61013461010c36600461029a565b5f918252602082815260408084206001600160a01b0393909316845291905290205460ff1690565b604051901515815260200160405180910390f35b6101346101563660046102c4565b61021c565b6101346101693660046102c4565b5f9283526001602090815260408085206001600160a01b03948516865282528085209290931684525290205460ff1690565b6100b96101a936600461029a565b5f918252602082815260408084206001600160a01b0390931684529190529020805460ff19169055565b6100b96101e13660046102c4565b5f9283526001602081815260408086206001600160a01b0395861687528252808620939094168552919091529120805460ff19169091179055565b5f8381526001602090815260408083206001600160a01b038087168552908352818420908516845290915281205460ff168061027757505f848152602081815260408083206001600160a01b038716845290915290205460ff165b949350505050565b80356001600160a01b0381168114610295575f80fd5b919050565b5f80604083850312156102ab575f80fd5b823591506102bb6020840161027f565b90509250929050565b5f805f606084860312156102d6575f80fd5b833592506102e66020850161027f565b91506102f46040850161027f565b9050925092509256fea2646970667358221220dd6098260331facd4babc803009a1c40ca0c65592a39e9b56284f62b4744205464736f6c63430008180033","linkReferences":{}},"methodIdentifiers":{"canPerform(bytes32,address,address)":"9be2a884","grantRole(bytes32,address)":"2f2ff15d","grantSpecificRole(bytes32,address,address)":"f5407f77","hasRole(bytes32,address)":"91d14854","hasSpecificRole(bytes32,address,address)":"b7cfddf6","revokeRole(bytes32,address)":"d547741f","revokeSpecificRole(bytes32,address,address)":"686c7a1d"},"id":106}