{"abi":[{"type":"constructor","inputs":[{"name":"vault","type":"address","internalType":"contract IVault"}],"stateMutability":"nonpayable"},{"type":"function","name":"getAggregateFeePercentages","inputs":[],"outputs":[{"name":"aggregateSwapFeePercentage","type":"uint256","internalType":"uint256"},{"name":"aggregateYieldFeePercentage","type":"uint256","internalType":"uint256"}],"stateMutability":"view"},{"type":"function","name":"getCurrentLiveBalances","inputs":[],"outputs":[{"name":"balancesLiveScaled18","type":"uint256[]","internalType":"uint256[]"}],"stateMutability":"view"},{"type":"function","name":"getStaticSwapFeePercentage","inputs":[],"outputs":[{"name":"","type":"uint256","internalType":"uint256"}],"stateMutability":"view"},{"type":"function","name":"getTokenInfo","inputs":[],"outputs":[{"name":"tokens","type":"address[]","internalType":"contract IERC20[]"},{"name":"tokenInfo","type":"tuple[]","internalType":"struct TokenInfo[]","components":[{"name":"tokenType","type":"uint8","internalType":"enum TokenType"},{"name":"rateProvider","type":"address","internalType":"contract IRateProvider"},{"name":"paysYieldFees","type":"bool","internalType":"bool"}]},{"name":"balancesRaw","type":"uint256[]","internalType":"uint256[]"},{"name":"lastBalancesLiveScaled18","type":"uint256[]","internalType":"uint256[]"}],"stateMutability":"view"},{"type":"function","name":"getTokens","inputs":[],"outputs":[{"name":"tokens","type":"address[]","internalType":"contract IERC20[]"}],"stateMutability":"view"}],"bytecode":{"object":"0x60a060405234801561000f575f80fd5b50604051610b3f380380610b3f83398101604081905261002e9161003f565b6001600160a01b031660805261006c565b5f6020828403121561004f575f80fd5b81516001600160a01b0381168114610065575f80fd5b9392505050565b608051610a9f6100a05f395f818161011e015281816101ce015281816102850152818161032f01526103d20152610a9f5ff3fe608060405234801561000f575f80fd5b5060043610610064575f3560e01c8063abb1dc441161004d578063abb1dc441461009f578063b156aa0a146100b7578063d335b0cf146100cc575f80fd5b806381fa807c14610068578063aa6ca8081461008a575b5f80fd5b6100706100e2565b604080519283526020830191909152015b60405180910390f35b61009261019d565b6040516100819190610486565b6100a7610246565b60405161008194939291906104ce565b6100bf6102fe565b6040516100819190610588565b6100d46103a2565b604051908152602001610081565b6040517ff29486a10000000000000000000000000000000000000000000000000000000081523060048201525f90819081906001600160a01b037f0000000000000000000000000000000000000000000000000000000000000000169063f29486a1906024016101a060405180830381865afa158015610164573d5f803e3d5ffd5b505050506040513d601f19601f8201168201806040525081019061018891906106e5565b90508060400151925080606001519150509091565b6040517fca4f28030000000000000000000000000000000000000000000000000000000081523060048201526060907f00000000000000000000000000000000000000000000000000000000000000006001600160a01b03169063ca4f2803906024015f60405180830381865afa15801561021a573d5f803e3d5ffd5b505050506040513d5f823e601f3d908101601f19168201604052610241919081019061084a565b905090565b6040517f67e0e0760000000000000000000000000000000000000000000000000000000081523060048201526060908190819081906001600160a01b037f000000000000000000000000000000000000000000000000000000000000000016906367e0e076906024015f60405180830381865afa1580156102c9573d5f803e3d5ffd5b505050506040513d5f823e601f3d908101601f191682016040526102f091908101906108e0565b935093509350935090919293565b6040517f535cfd8a0000000000000000000000000000000000000000000000000000000081523060048201526060907f00000000000000000000000000000000000000000000000000000000000000006001600160a01b03169063535cfd8a906024015f60405180830381865afa15801561037b573d5f803e3d5ffd5b505050506040513d5f823e601f3d908101601f191682016040526102419190810190610a20565b6040517fb45090f90000000000000000000000000000000000000000000000000000000081523060048201525f907f00000000000000000000000000000000000000000000000000000000000000006001600160a01b03169063b45090f990602401602060405180830381865afa15801561041f573d5f803e3d5ffd5b505050506040513d601f19601f820116820180604052508101906102419190610a52565b5f815180845260208085019450602084015f5b8381101561047b5781516001600160a01b031687529582019590820190600101610456565b509495945050505050565b602081525f6104986020830184610443565b9392505050565b5f815180845260208085019450602084015f5b8381101561047b578151875295820195908201906001016104b2565b608081525f6104e06080830187610443565b8281036020848101919091528651808352878201928201905f5b8181101561055357845180516002811061052257634e487b7160e01b5f52602160045260245ffd5b8452808501516001600160a01b031685850152604090810151151590840152938301936060909201916001016104fa565b50508481036040860152610567818861049f565b92505050828103606084015261057d818561049f565b979650505050505050565b602081525f610498602083018461049f565b634e487b7160e01b5f52604160045260245ffd5b604051610140810167ffffffffffffffff811182821017156105d2576105d261059a565b60405290565b6040516060810167ffffffffffffffff811182821017156105d2576105d261059a565b604051601f8201601f1916810167ffffffffffffffff811182821017156106245761062461059a565b604052919050565b8051801515811461063b575f80fd5b919050565b5f60808284031215610650575f80fd5b6040516080810181811067ffffffffffffffff821117156106735761067361059a565b6040529050806106828361062c565b81526106906020840161062c565b60208201526106a16040840161062c565b60408201526106b26060840161062c565b60608201525092915050565b805164ffffffffff8116811461063b575f80fd5b805163ffffffff8116811461063b575f80fd5b5f6101a082840312156106f6575f80fd5b6106fe6105ae565b6107088484610640565b81526080830151602082015260a0830151604082015260c0830151606082015261073460e084016106be565b60808201526101006107478185016106d2565b60a083015261012061075a81860161062c565b60c084015261076c610140860161062c565b60e084015261077e610160860161062c565b8284015261078f610180860161062c565b90830152509392505050565b5f67ffffffffffffffff8211156107b4576107b461059a565b5060051b60200190565b6001600160a01b03811681146107d2575f80fd5b50565b5f82601f8301126107e4575f80fd5b815160206107f96107f48361079b565b6105fb565b8083825260208201915060208460051b87010193508684111561081a575f80fd5b602086015b8481101561083f578051610832816107be565b835291830191830161081f565b509695505050505050565b5f6020828403121561085a575f80fd5b815167ffffffffffffffff811115610870575f80fd5b61087c848285016107d5565b949350505050565b5f82601f830112610893575f80fd5b815160206108a36107f48361079b565b8083825260208201915060208460051b8701019350868411156108c4575f80fd5b602086015b8481101561083f57805183529183019183016108c9565b5f805f80608085870312156108f3575f80fd5b845167ffffffffffffffff8082111561090a575f80fd5b610916888389016107d5565b955060209150818701518181111561092c575f80fd5b8701601f8101891361093c575f80fd5b805161094a6107f48261079b565b8181526060918202830185019185820191908c841115610968575f80fd5b938601935b838510156109cc5780858e031215610983575f80fd5b61098b6105d8565b855160028110610999575f80fd5b8152858801516109a8816107be565b8189015260406109b987820161062c565b908201528352938401939186019161096d565b5060408b01519098509450505050808211156109e6575f80fd5b6109f288838901610884565b93506060870151915080821115610a07575f80fd5b50610a1487828801610884565b91505092959194509250565b5f60208284031215610a30575f80fd5b815167ffffffffffffffff811115610a46575f80fd5b61087c84828501610884565b5f60208284031215610a62575f80fd5b505191905056fea26469706673582212207b6d528747ead789f865128de2968a8a4681e1991ba1dcbf17ec774de575eed764736f6c63430008180033","linkReferences":{}},"methodIdentifiers":{"getAggregateFeePercentages()":"81fa807c","getCurrentLiveBalances()":"b156aa0a","getStaticSwapFeePercentage()":"d335b0cf","getTokenInfo()":"abb1dc44","getTokens()":"aa6ca808"},"id":41}