{"abi":[{"type":"constructor","inputs":[{"name":"vault","type":"address","internalType":"contract IVault"},{"name":"weth","type":"address","internalType":"contract IWETH"},{"name":"permit2","type":"address","internalType":"contract IPermit2"}],"stateMutability":"nonpayable"},{"type":"receive","stateMutability":"payable"},{"type":"function","name":"addLiquidityCustom","inputs":[{"name":"pool","type":"address","internalType":"address"},{"name":"maxAmountsIn","type":"uint256[]","internalType":"uint256[]"},{"name":"minBptAmountOut","type":"uint256","internalType":"uint256"},{"name":"wethIsEth","type":"bool","internalType":"bool"},{"name":"userData","type":"bytes","internalType":"bytes"}],"outputs":[{"name":"amountsIn","type":"uint256[]","internalType":"uint256[]"},{"name":"bptAmountOut","type":"uint256","internalType":"uint256"},{"name":"returnData","type":"bytes","internalType":"bytes"}],"stateMutability":"payable"},{"type":"function","name":"addLiquidityHook","inputs":[{"name":"params","type":"tuple","internalType":"struct IRouterCommon.AddLiquidityHookParams","components":[{"name":"sender","type":"address","internalType":"address"},{"name":"pool","type":"address","internalType":"address"},{"name":"maxAmountsIn","type":"uint256[]","internalType":"uint256[]"},{"name":"minBptAmountOut","type":"uint256","internalType":"uint256"},{"name":"kind","type":"uint8","internalType":"enum AddLiquidityKind"},{"name":"wethIsEth","type":"bool","internalType":"bool"},{"name":"userData","type":"bytes","internalType":"bytes"}]}],"outputs":[{"name":"amountsIn","type":"uint256[]","internalType":"uint256[]"},{"name":"bptAmountOut","type":"uint256","internalType":"uint256"},{"name":"returnData","type":"bytes","internalType":"bytes"}],"stateMutability":"nonpayable"},{"type":"function","name":"addLiquidityProportional","inputs":[{"name":"pool","type":"address","internalType":"address"},{"name":"maxAmountsIn","type":"uint256[]","internalType":"uint256[]"},{"name":"exactBptAmountOut","type":"uint256","internalType":"uint256"},{"name":"wethIsEth","type":"bool","internalType":"bool"},{"name":"userData","type":"bytes","internalType":"bytes"}],"outputs":[{"name":"amountsIn","type":"uint256[]","internalType":"uint256[]"}],"stateMutability":"payable"},{"type":"function","name":"addLiquiditySingleTokenExactOut","inputs":[{"name":"pool","type":"address","internalType":"address"},{"name":"tokenIn","type":"address","internalType":"contract IERC20"},{"name":"maxAmountIn","type":"uint256","internalType":"uint256"},{"name":"exactBptAmountOut","type":"uint256","internalType":"uint256"},{"name":"wethIsEth","type":"bool","internalType":"bool"},{"name":"userData","type":"bytes","internalType":"bytes"}],"outputs":[{"name":"amountIn","type":"uint256","internalType":"uint256"}],"stateMutability":"payable"},{"type":"function","name":"addLiquidityToBuffer","inputs":[{"name":"wrappedToken","type":"address","internalType":"contract IERC4626"},{"name":"exactSharesToIssue","type":"uint256","internalType":"uint256"}],"outputs":[{"name":"amountUnderlyingRaw","type":"uint256","internalType":"uint256"},{"name":"amountWrappedRaw","type":"uint256","internalType":"uint256"}],"stateMutability":"nonpayable"},{"type":"function","name":"addLiquidityToBufferHook","inputs":[{"name":"wrappedToken","type":"address","internalType":"contract IERC4626"},{"name":"exactSharesToIssue","type":"uint256","internalType":"uint256"},{"name":"sharesOwner","type":"address","internalType":"address"}],"outputs":[{"name":"amountUnderlyingRaw","type":"uint256","internalType":"uint256"},{"name":"amountWrappedRaw","type":"uint256","internalType":"uint256"}],"stateMutability":"nonpayable"},{"type":"function","name":"addLiquidityUnbalanced","inputs":[{"name":"pool","type":"address","internalType":"address"},{"name":"exactAmountsIn","type":"uint256[]","internalType":"uint256[]"},{"name":"minBptAmountOut","type":"uint256","internalType":"uint256"},{"name":"wethIsEth","type":"bool","internalType":"bool"},{"name":"userData","type":"bytes","internalType":"bytes"}],"outputs":[{"name":"bptAmountOut","type":"uint256","internalType":"uint256"}],"stateMutability":"payable"},{"type":"function","name":"donate","inputs":[{"name":"pool","type":"address","internalType":"address"},{"name":"amountsIn","type":"uint256[]","internalType":"uint256[]"},{"name":"wethIsEth","type":"bool","internalType":"bool"},{"name":"userData","type":"bytes","internalType":"bytes"}],"outputs":[],"stateMutability":"payable"},{"type":"function","name":"getSender","inputs":[],"outputs":[{"name":"","type":"address","internalType":"address"}],"stateMutability":"view"},{"type":"function","name":"initialize","inputs":[{"name":"pool","type":"address","internalType":"address"},{"name":"tokens","type":"address[]","internalType":"contract IERC20[]"},{"name":"exactAmountsIn","type":"uint256[]","internalType":"uint256[]"},{"name":"minBptAmountOut","type":"uint256","internalType":"uint256"},{"name":"wethIsEth","type":"bool","internalType":"bool"},{"name":"userData","type":"bytes","internalType":"bytes"}],"outputs":[{"name":"bptAmountOut","type":"uint256","internalType":"uint256"}],"stateMutability":"payable"},{"type":"function","name":"initializeBuffer","inputs":[{"name":"wrappedToken","type":"address","internalType":"contract IERC4626"},{"name":"amountUnderlyingRaw","type":"uint256","internalType":"uint256"},{"name":"amountWrappedRaw","type":"uint256","internalType":"uint256"}],"outputs":[{"name":"issuedShares","type":"uint256","internalType":"uint256"}],"stateMutability":"nonpayable"},{"type":"function","name":"initializeBufferHook","inputs":[{"name":"wrappedToken","type":"address","internalType":"contract IERC4626"},{"name":"amountUnderlyingRaw","type":"uint256","internalType":"uint256"},{"name":"amountWrappedRaw","type":"uint256","internalType":"uint256"},{"name":"sharesOwner","type":"address","internalType":"address"}],"outputs":[{"name":"issuedShares","type":"uint256","internalType":"uint256"}],"stateMutability":"nonpayable"},{"type":"function","name":"initializeHook","inputs":[{"name":"params","type":"tuple","internalType":"struct IRouter.InitializeHookParams","components":[{"name":"sender","type":"address","internalType":"address"},{"name":"pool","type":"address","internalType":"address"},{"name":"tokens","type":"address[]","internalType":"contract IERC20[]"},{"name":"exactAmountsIn","type":"uint256[]","internalType":"uint256[]"},{"name":"minBptAmountOut","type":"uint256","internalType":"uint256"},{"name":"wethIsEth","type":"bool","internalType":"bool"},{"name":"userData","type":"bytes","internalType":"bytes"}]}],"outputs":[{"name":"bptAmountOut","type":"uint256","internalType":"uint256"}],"stateMutability":"nonpayable"},{"type":"function","name":"multicall","inputs":[{"name":"data","type":"bytes[]","internalType":"bytes[]"}],"outputs":[{"name":"results","type":"bytes[]","internalType":"bytes[]"}],"stateMutability":"payable"},{"type":"function","name":"permitBatchAndCall","inputs":[{"name":"permitBatch","type":"tuple[]","internalType":"struct IRouterCommon.PermitApproval[]","components":[{"name":"token","type":"address","internalType":"address"},{"name":"owner","type":"address","internalType":"address"},{"name":"spender","type":"address","internalType":"address"},{"name":"amount","type":"uint256","internalType":"uint256"},{"name":"nonce","type":"uint256","internalType":"uint256"},{"name":"deadline","type":"uint256","internalType":"uint256"}]},{"name":"permitSignatures","type":"bytes[]","internalType":"bytes[]"},{"name":"permit2Batch","type":"tuple","internalType":"struct IAllowanceTransfer.PermitBatch","components":[{"name":"details","type":"tuple[]","internalType":"struct IAllowanceTransfer.PermitDetails[]","components":[{"name":"token","type":"address","internalType":"address"},{"name":"amount","type":"uint160","internalType":"uint160"},{"name":"expiration","type":"uint48","internalType":"uint48"},{"name":"nonce","type":"uint48","internalType":"uint48"}]},{"name":"spender","type":"address","internalType":"address"},{"name":"sigDeadline","type":"uint256","internalType":"uint256"}]},{"name":"permit2Signature","type":"bytes","internalType":"bytes"},{"name":"multicallData","type":"bytes[]","internalType":"bytes[]"}],"outputs":[{"name":"results","type":"bytes[]","internalType":"bytes[]"}],"stateMutability":"payable"},{"type":"function","name":"queryAddLiquidityCustom","inputs":[{"name":"pool","type":"address","internalType":"address"},{"name":"maxAmountsIn","type":"uint256[]","internalType":"uint256[]"},{"name":"minBptAmountOut","type":"uint256","internalType":"uint256"},{"name":"userData","type":"bytes","internalType":"bytes"}],"outputs":[{"name":"amountsIn","type":"uint256[]","internalType":"uint256[]"},{"name":"bptAmountOut","type":"uint256","internalType":"uint256"},{"name":"returnData","type":"bytes","internalType":"bytes"}],"stateMutability":"nonpayable"},{"type":"function","name":"queryAddLiquidityHook","inputs":[{"name":"params","type":"tuple","internalType":"struct IRouterCommon.AddLiquidityHookParams","components":[{"name":"sender","type":"address","internalType":"address"},{"name":"pool","type":"address","internalType":"address"},{"name":"maxAmountsIn","type":"uint256[]","internalType":"uint256[]"},{"name":"minBptAmountOut","type":"uint256","internalType":"uint256"},{"name":"kind","type":"uint8","internalType":"enum AddLiquidityKind"},{"name":"wethIsEth","type":"bool","internalType":"bool"},{"name":"userData","type":"bytes","internalType":"bytes"}]}],"outputs":[{"name":"amountsIn","type":"uint256[]","internalType":"uint256[]"},{"name":"bptAmountOut","type":"uint256","internalType":"uint256"},{"name":"returnData","type":"bytes","internalType":"bytes"}],"stateMutability":"nonpayable"},{"type":"function","name":"queryAddLiquidityProportional","inputs":[{"name":"pool","type":"address","internalType":"address"},{"name":"exactBptAmountOut","type":"uint256","internalType":"uint256"},{"name":"userData","type":"bytes","internalType":"bytes"}],"outputs":[{"name":"amountsIn","type":"uint256[]","internalType":"uint256[]"}],"stateMutability":"nonpayable"},{"type":"function","name":"queryAddLiquiditySingleTokenExactOut","inputs":[{"name":"pool","type":"address","internalType":"address"},{"name":"tokenIn","type":"address","internalType":"contract IERC20"},{"name":"exactBptAmountOut","type":"uint256","internalType":"uint256"},{"name":"userData","type":"bytes","internalType":"bytes"}],"outputs":[{"name":"amountIn","type":"uint256","internalType":"uint256"}],"stateMutability":"nonpayable"},{"type":"function","name":"queryAddLiquidityUnbalanced","inputs":[{"name":"pool","type":"address","internalType":"address"},{"name":"exactAmountsIn","type":"uint256[]","internalType":"uint256[]"},{"name":"userData","type":"bytes","internalType":"bytes"}],"outputs":[{"name":"bptAmountOut","type":"uint256","internalType":"uint256"}],"stateMutability":"nonpayable"},{"type":"function","name":"queryRemoveLiquidityCustom","inputs":[{"name":"pool","type":"address","internalType":"address"},{"name":"maxBptAmountIn","type":"uint256","internalType":"uint256"},{"name":"minAmountsOut","type":"uint256[]","internalType":"uint256[]"},{"name":"userData","type":"bytes","internalType":"bytes"}],"outputs":[{"name":"bptAmountIn","type":"uint256","internalType":"uint256"},{"name":"amountsOut","type":"uint256[]","internalType":"uint256[]"},{"name":"returnData","type":"bytes","internalType":"bytes"}],"stateMutability":"nonpayable"},{"type":"function","name":"queryRemoveLiquidityHook","inputs":[{"name":"params","type":"tuple","internalType":"struct IRouterCommon.RemoveLiquidityHookParams","components":[{"name":"sender","type":"address","internalType":"address"},{"name":"pool","type":"address","internalType":"address"},{"name":"minAmountsOut","type":"uint256[]","internalType":"uint256[]"},{"name":"maxBptAmountIn","type":"uint256","internalType":"uint256"},{"name":"kind","type":"uint8","internalType":"enum RemoveLiquidityKind"},{"name":"wethIsEth","type":"bool","internalType":"bool"},{"name":"userData","type":"bytes","internalType":"bytes"}]}],"outputs":[{"name":"bptAmountIn","type":"uint256","internalType":"uint256"},{"name":"amountsOut","type":"uint256[]","internalType":"uint256[]"},{"name":"returnData","type":"bytes","internalType":"bytes"}],"stateMutability":"nonpayable"},{"type":"function","name":"queryRemoveLiquidityProportional","inputs":[{"name":"pool","type":"address","internalType":"address"},{"name":"exactBptAmountIn","type":"uint256","internalType":"uint256"},{"name":"userData","type":"bytes","internalType":"bytes"}],"outputs":[{"name":"amountsOut","type":"uint256[]","internalType":"uint256[]"}],"stateMutability":"nonpayable"},{"type":"function","name":"queryRemoveLiquidityRecovery","inputs":[{"name":"pool","type":"address","internalType":"address"},{"name":"exactBptAmountIn","type":"uint256","internalType":"uint256"}],"outputs":[{"name":"amountsOut","type":"uint256[]","internalType":"uint256[]"}],"stateMutability":"nonpayable"},{"type":"function","name":"queryRemoveLiquidityRecoveryHook","inputs":[{"name":"pool","type":"address","internalType":"address"},{"name":"sender","type":"address","internalType":"address"},{"name":"exactBptAmountIn","type":"uint256","internalType":"uint256"}],"outputs":[{"name":"amountsOut","type":"uint256[]","internalType":"uint256[]"}],"stateMutability":"nonpayable"},{"type":"function","name":"queryRemoveLiquiditySingleTokenExactIn","inputs":[{"name":"pool","type":"address","internalType":"address"},{"name":"exactBptAmountIn","type":"uint256","internalType":"uint256"},{"name":"tokenOut","type":"address","internalType":"contract IERC20"},{"name":"userData","type":"bytes","internalType":"bytes"}],"outputs":[{"name":"amountOut","type":"uint256","internalType":"uint256"}],"stateMutability":"nonpayable"},{"type":"function","name":"queryRemoveLiquiditySingleTokenExactOut","inputs":[{"name":"pool","type":"address","internalType":"address"},{"name":"tokenOut","type":"address","internalType":"contract IERC20"},{"name":"exactAmountOut","type":"uint256","internalType":"uint256"},{"name":"userData","type":"bytes","internalType":"bytes"}],"outputs":[{"name":"bptAmountIn","type":"uint256","internalType":"uint256"}],"stateMutability":"nonpayable"},{"type":"function","name":"querySwapHook","inputs":[{"name":"params","type":"tuple","internalType":"struct IRouter.SwapSingleTokenHookParams","components":[{"name":"sender","type":"address","internalType":"address"},{"name":"kind","type":"uint8","internalType":"enum SwapKind"},{"name":"pool","type":"address","internalType":"address"},{"name":"tokenIn","type":"address","internalType":"contract IERC20"},{"name":"tokenOut","type":"address","internalType":"contract IERC20"},{"name":"amountGiven","type":"uint256","internalType":"uint256"},{"name":"limit","type":"uint256","internalType":"uint256"},{"name":"deadline","type":"uint256","internalType":"uint256"},{"name":"wethIsEth","type":"bool","internalType":"bool"},{"name":"userData","type":"bytes","internalType":"bytes"}]}],"outputs":[{"name":"","type":"uint256","internalType":"uint256"}],"stateMutability":"nonpayable"},{"type":"function","name":"querySwapSingleTokenExactIn","inputs":[{"name":"pool","type":"address","internalType":"address"},{"name":"tokenIn","type":"address","internalType":"contract IERC20"},{"name":"tokenOut","type":"address","internalType":"contract IERC20"},{"name":"exactAmountIn","type":"uint256","internalType":"uint256"},{"name":"userData","type":"bytes","internalType":"bytes"}],"outputs":[{"name":"amountCalculated","type":"uint256","internalType":"uint256"}],"stateMutability":"nonpayable"},{"type":"function","name":"querySwapSingleTokenExactOut","inputs":[{"name":"pool","type":"address","internalType":"address"},{"name":"tokenIn","type":"address","internalType":"contract IERC20"},{"name":"tokenOut","type":"address","internalType":"contract IERC20"},{"name":"exactAmountOut","type":"uint256","internalType":"uint256"},{"name":"userData","type":"bytes","internalType":"bytes"}],"outputs":[{"name":"amountCalculated","type":"uint256","internalType":"uint256"}],"stateMutability":"nonpayable"},{"type":"function","name":"removeLiquidityCustom","inputs":[{"name":"pool","type":"address","internalType":"address"},{"name":"maxBptAmountIn","type":"uint256","internalType":"uint256"},{"name":"minAmountsOut","type":"uint256[]","internalType":"uint256[]"},{"name":"wethIsEth","type":"bool","internalType":"bool"},{"name":"userData","type":"bytes","internalType":"bytes"}],"outputs":[{"name":"bptAmountIn","type":"uint256","internalType":"uint256"},{"name":"amountsOut","type":"uint256[]","internalType":"uint256[]"},{"name":"returnData","type":"bytes","internalType":"bytes"}],"stateMutability":"nonpayable"},{"type":"function","name":"removeLiquidityHook","inputs":[{"name":"params","type":"tuple","internalType":"struct IRouterCommon.RemoveLiquidityHookParams","components":[{"name":"sender","type":"address","internalType":"address"},{"name":"pool","type":"address","internalType":"address"},{"name":"minAmountsOut","type":"uint256[]","internalType":"uint256[]"},{"name":"maxBptAmountIn","type":"uint256","internalType":"uint256"},{"name":"kind","type":"uint8","internalType":"enum RemoveLiquidityKind"},{"name":"wethIsEth","type":"bool","internalType":"bool"},{"name":"userData","type":"bytes","internalType":"bytes"}]}],"outputs":[{"name":"bptAmountIn","type":"uint256","internalType":"uint256"},{"name":"amountsOut","type":"uint256[]","internalType":"uint256[]"},{"name":"returnData","type":"bytes","internalType":"bytes"}],"stateMutability":"nonpayable"},{"type":"function","name":"removeLiquidityProportional","inputs":[{"name":"pool","type":"address","internalType":"address"},{"name":"exactBptAmountIn","type":"uint256","internalType":"uint256"},{"name":"minAmountsOut","type":"uint256[]","internalType":"uint256[]"},{"name":"wethIsEth","type":"bool","internalType":"bool"},{"name":"userData","type":"bytes","internalType":"bytes"}],"outputs":[{"name":"amountsOut","type":"uint256[]","internalType":"uint256[]"}],"stateMutability":"payable"},{"type":"function","name":"removeLiquidityRecovery","inputs":[{"name":"pool","type":"address","internalType":"address"},{"name":"exactBptAmountIn","type":"uint256","internalType":"uint256"}],"outputs":[{"name":"amountsOut","type":"uint256[]","internalType":"uint256[]"}],"stateMutability":"nonpayable"},{"type":"function","name":"removeLiquidityRecoveryHook","inputs":[{"name":"pool","type":"address","internalType":"address"},{"name":"sender","type":"address","internalType":"address"},{"name":"exactBptAmountIn","type":"uint256","internalType":"uint256"}],"outputs":[{"name":"amountsOut","type":"uint256[]","internalType":"uint256[]"}],"stateMutability":"nonpayable"},{"type":"function","name":"removeLiquiditySingleTokenExactIn","inputs":[{"name":"pool","type":"address","internalType":"address"},{"name":"exactBptAmountIn","type":"uint256","internalType":"uint256"},{"name":"tokenOut","type":"address","internalType":"contract IERC20"},{"name":"minAmountOut","type":"uint256","internalType":"uint256"},{"name":"wethIsEth","type":"bool","internalType":"bool"},{"name":"userData","type":"bytes","internalType":"bytes"}],"outputs":[{"name":"amountOut","type":"uint256","internalType":"uint256"}],"stateMutability":"payable"},{"type":"function","name":"removeLiquiditySingleTokenExactOut","inputs":[{"name":"pool","type":"address","internalType":"address"},{"name":"maxBptAmountIn","type":"uint256","internalType":"uint256"},{"name":"tokenOut","type":"address","internalType":"contract IERC20"},{"name":"exactAmountOut","type":"uint256","internalType":"uint256"},{"name":"wethIsEth","type":"bool","internalType":"bool"},{"name":"userData","type":"bytes","internalType":"bytes"}],"outputs":[{"name":"bptAmountIn","type":"uint256","internalType":"uint256"}],"stateMutability":"payable"},{"type":"function","name":"swapSingleTokenExactIn","inputs":[{"name":"pool","type":"address","internalType":"address"},{"name":"tokenIn","type":"address","internalType":"contract IERC20"},{"name":"tokenOut","type":"address","internalType":"contract IERC20"},{"name":"exactAmountIn","type":"uint256","internalType":"uint256"},{"name":"minAmountOut","type":"uint256","internalType":"uint256"},{"name":"deadline","type":"uint256","internalType":"uint256"},{"name":"wethIsEth","type":"bool","internalType":"bool"},{"name":"userData","type":"bytes","internalType":"bytes"}],"outputs":[{"name":"","type":"uint256","internalType":"uint256"}],"stateMutability":"payable"},{"type":"function","name":"swapSingleTokenExactOut","inputs":[{"name":"pool","type":"address","internalType":"address"},{"name":"tokenIn","type":"address","internalType":"contract IERC20"},{"name":"tokenOut","type":"address","internalType":"contract IERC20"},{"name":"exactAmountOut","type":"uint256","internalType":"uint256"},{"name":"maxAmountIn","type":"uint256","internalType":"uint256"},{"name":"deadline","type":"uint256","internalType":"uint256"},{"name":"wethIsEth","type":"bool","internalType":"bool"},{"name":"userData","type":"bytes","internalType":"bytes"}],"outputs":[{"name":"","type":"uint256","internalType":"uint256"}],"stateMutability":"payable"},{"type":"function","name":"swapSingleTokenHook","inputs":[{"name":"params","type":"tuple","internalType":"struct IRouter.SwapSingleTokenHookParams","components":[{"name":"sender","type":"address","internalType":"address"},{"name":"kind","type":"uint8","internalType":"enum SwapKind"},{"name":"pool","type":"address","internalType":"address"},{"name":"tokenIn","type":"address","internalType":"contract IERC20"},{"name":"tokenOut","type":"address","internalType":"contract IERC20"},{"name":"amountGiven","type":"uint256","internalType":"uint256"},{"name":"limit","type":"uint256","internalType":"uint256"},{"name":"deadline","type":"uint256","internalType":"uint256"},{"name":"wethIsEth","type":"bool","internalType":"bool"},{"name":"userData","type":"bytes","internalType":"bytes"}]}],"outputs":[{"name":"","type":"uint256","internalType":"uint256"}],"stateMutability":"nonpayable"},{"type":"error","name":"AddressEmptyCode","inputs":[{"name":"target","type":"address","internalType":"address"}]},{"type":"error","name":"EthTransfer","inputs":[]},{"type":"error","name":"FailedCall","inputs":[]},{"type":"error","name":"InsufficientBalance","inputs":[{"name":"balance","type":"uint256","internalType":"uint256"},{"name":"needed","type":"uint256","internalType":"uint256"}]},{"type":"error","name":"InsufficientEth","inputs":[]},{"type":"error","name":"ReentrancyGuardReentrantCall","inputs":[]},{"type":"error","name":"SafeCastOverflowedUintDowncast","inputs":[{"name":"bits","type":"uint8","internalType":"uint8"},{"name":"value","type":"uint256","internalType":"uint256"}]},{"type":"error","name":"SafeERC20FailedOperation","inputs":[{"name":"token","type":"address","internalType":"address"}]},{"type":"error","name":"SenderIsNotVault","inputs":[{"name":"sender","type":"address","internalType":"address"}]},{"type":"error","name":"SwapDeadline","inputs":[]}],"bytecode":{"object":"0x600c6101209081526b2937baba32b921b7b6b6b7b760a11b610140526101a060405260066101609081526539b2b73232b960d11b61018052620000439190620000ed565b60a052604080518082018252600c81526b2937baba32b921b7b6b6b7b760a11b602080830191909152825180840190935260118352701a5cd4995d1d5c9b915d1a131bd8dad959607a1b908301526200009c91620000ed565b60c052348015620000ab575f80fd5b506040516200736a3803806200736a833981016040819052620000ce9162000179565b6001600160a01b0392831660805290821660e05216610100526200026b565b5f60ff5f1b19600184846040516020016200010a929190620001f9565b604051602081830303815290604052805190602001205f1c6200012e91906200024b565b6040516020016200014191815260200190565b604051602081830303815290604052805190602001201690505b92915050565b6001600160a01b038116811462000176575f80fd5b50565b5f805f606084860312156200018c575f80fd5b8351620001998162000161565b6020850151909350620001ac8162000161565b6040850151909250620001bf8162000161565b809150509250925092565b5f81515f5b81811015620001eb5760208185018101518683015201620001cf565b505f93019283525090919050565b7f62616c616e6365722d6c6162732e76332e73746f726167652e0000000000000081525f6200022c6019830185620001ca565b601760f91b8152620002426001820185620001ca565b95945050505050565b818103818111156200015b57634e487b7160e01b5f52601160045260245ffd5b60805160a05160c05160e05161010051616e67620005035f395f8181610ceb015281816113ef015281816122510152614bfc01525f81816102be01528181610aaf01528181610b0b01528181610bbc01528181610c42015281816120150152818161207101528181612122015281816121a8015281816126a101528181612e3501528181612e8501528181612f2501528181614a1d01528181614a7901528181614af301528181614b5501528181615078015261514801525f818161377b01528181613887015261490d01525f81816104f7015281816138b001528181614980015281816149b401526149ec01525f81816107df0152818161094001528181610b8d01528181610c7101528181610d1f01528181610dd601528181610e8401528181610ff80152818161113e0152818161148d0152818161162e0152818161176f015281816117ff0152818161189e0152818161197701528181611b0601528181611c0801528181611d6a01528181611f0a015281816120f3015281816121d7015281816122850152818161233c0152818161240e015281816124aa0152818161270501528181612867015281816129f801528181612b8501528181612d2801528181612eba01528181612fb80152818161308901528181613244015281816133260152818161347a015281816135e7015281816136280152818161397501528181613a0c01528181613c0a01528181613d0201528181613e6501528181613f17015281816140e7015281816141380152818161429b015281816143f4015281816145c7015281816146e90152818161485d01528181614b1701528181614b8401528181614c2c01528181614ce301528181614dd701528181614ef5015281816150dd015281816151f001526153290152616e675ff3fe6080604052600436106102ae575f3560e01c80637b03c7ba11610165578063be5ae841116100c6578063e7326def1161007c578063efd85f1411610062578063efd85f141461077f578063fbe985d51461079e578063fdea2b56146107bd575f80fd5b8063e7326def14610759578063ecb2182c1461076c575f80fd5b8063c08bc851116100ac578063c08bc85114610708578063df145a4f1461071b578063e6b51e8f1461073a575f80fd5b8063be5ae841146106d6578063bf6ee3fd146106f5575f80fd5b806394e86ef81161011b578063ac9650d811610101578063ac9650d814610685578063b037ed3614610698578063b24bd571146106b7575f80fd5b806394e86ef814610653578063980ed65214610666575f80fd5b80637d245e901161014b5780637d245e90146105f657806382bf2b241461061557806387a6c9ff14610634575f80fd5b80637b03c7ba146105b85780637ccb4325146105d7575f80fd5b80634ba301551161020f5780636193d47d116101c5578063724dba33116101ab578063724dba331461057f57806372657d1714610592578063750283bc146105a5575f80fd5b80636193d47d1461054157806368a24fe014610560575f80fd5b80635b343791116101f55780635b343791146104bf5780635e01eb5a146104de5780635f9815ff14610522575f80fd5b80634ba301551461048d57806351682750146104ac575f80fd5b806319c6989f116102645780633ae976031161024a5780633ae97603146104145780634311267214610433578063479249801461045f575f80fd5b806319c6989f146103d55780632d90b0dd146103f5575f80fd5b80630ca078ec116102945780630ca078ec146103605780630faa5e37146103825780631053ad25146103b6575f80fd5b8063026b3d951461031b578063086fad6614610341575f80fd5b3661031757336001600160a01b037f00000000000000000000000000000000000000000000000000000000000000001614610315576040517f0540ddf600000000000000000000000000000000000000000000000000000000815260040160405180910390fd5b005b5f80fd5b61032e610329366004615787565b6107dc565b6040519081526020015b60405180910390f35b34801561034c575f80fd5b5061032e61035b3660046158a8565b610925565b61037361036e3660046158da565b610e72565b604051610338939291906159f0565b34801561038d575f80fd5b506103a161039c366004615a24565b610fd2565b60408051928352602083019190915201610338565b3480156103c1575f80fd5b506103a16103d0366004615a4e565b6110e5565b6103e86103e3366004615b5d565b611236565b6040516103389190615c3d565b348015610400575f80fd5b5061037361040f366004615c9f565b61147b565b34801561041f575f80fd5b5061032e61042e366004615d1a565b6115d7565b34801561043e575f80fd5b5061045261044d366004615d76565b61172f565b6040516103389190615db4565b34801561046a575f80fd5b5061047e610479366004615dc6565b611966565b60405161033893929190615e28565b348015610498575f80fd5b5061032e6104a7366004615e52565b611aa7565b6104526104ba366004615e99565b611bf9565b3480156104ca575f80fd5b506103736104d93660046158a8565b611d53565b3480156104e9575f80fd5b506040516001600160a01b037f00000000000000000000000000000000000000000000000000000000000000005c168152602001610338565b34801561052d575f80fd5b5061045261053c366004615d76565b6123d6565b34801561054c575f80fd5b5061032e61055b366004615d1a565b61247a565b34801561056b575f80fd5b5061032e61057a366004615ef9565b612607565b61045261058d3660046158da565b6126f6565b61032e6105a0366004615f31565b612847565b61032e6105b3366004615fa6565b6129d2565b3480156105c3575f80fd5b5061047e6105d23660046158a8565b612b6f565b3480156105e2575f80fd5b5061032e6105f1366004616036565b613063565b348015610601575f80fd5b5061032e610610366004616036565b61321e565b348015610620575f80fd5b5061047e61062f366004615e99565b613315565b34801561063f575f80fd5b5061032e61064e3660046160b6565b613459565b61032e610661366004615fa6565b6135c1565b348015610671575f80fd5b50610452610680366004616106565b613619565b6103e861069336600461615b565b613767565b3480156106a3575f80fd5b506104526106b2366004615a24565b6138e5565b3480156106c2575f80fd5b5061047e6106d13660046158a8565b6139fe565b3480156106e1575f80fd5b5061032e6106f0366004615ef9565b613baa565b61031561070336600461619a565b613bd3565b61032e6107163660046158da565b613cf4565b348015610726575f80fd5b50610452610735366004616106565b613e36565b348015610745575f80fd5b50610452610754366004615a24565b614057565b61032e610767366004616207565b61411b565b61032e61077a366004616207565b61427b565b34801561078a575f80fd5b506103736107993660046158a8565b6143e5565b3480156107a9575f80fd5b5061032e6107b8366004616255565b61458f565b3480156107c8575f80fd5b5061032e6107d73660046162bc565b6146be565b5f7f00000000000000000000000000000000000000000000000000000000000000006001600160a01b03166348c894916040518060e00160405280336001600160a01b031681526020018a6001600160a01b031681526020018981526020018881526020018781526020018615158152602001858152506040516024016108639190616326565b60408051601f198184030181529181526020820180516001600160e01b03167f086fad6600000000000000000000000000000000000000000000000000000000179052516001600160e01b031960e084901b1681526108c591906004016163be565b5f604051808303815f875af11580156108e0573d5f803e3d5ffd5b505050506040513d5f823e601f3d908101601f191682016040526109079190810190616412565b80602001905181019061091a9190616444565b979650505050505050565b5f61092e6147cc565b610936614852565b6001600160a01b037f00000000000000000000000000000000000000000000000000000000000000001663ba8a2be0610975604085016020860161645b565b610982602086018661645b565b61098f6040870187616476565b61099c6060890189616476565b60808a01356109ae60c08c018c6164bc565b6040518a63ffffffff1660e01b81526004016109d299989796959493929190616570565b6020604051808303815f875af11580156109ee573d5f803e3d5ffd5b505050506040513d601f19601f82011682018060405250810190610a129190616444565b90505f5b610a236040840184616476565b9050811015610e4f575f610a3a6040850185616476565b83818110610a4a57610a4a61660b565b9050602002016020810190610a5f919061645b565b90505f610a6f6060860186616476565b84818110610a7f57610a7f61660b565b905060200201359050805f03610a96575050610e47565b610aa660c0860160a0870161661f565b8015610ae357507f00000000000000000000000000000000000000000000000000000000000000006001600160a01b0316826001600160a01b0316145b15610ce15780471015610b095760405163500d4efb60e11b815260040160405180910390fd5b7f00000000000000000000000000000000000000000000000000000000000000006001600160a01b031663d0e30db0826040518263ffffffff1660e01b81526004015f604051808303818588803b158015610b62575f80fd5b505af1158015610b74573d5f803e3d5ffd5b505060405163a9059cbb60e01b81526001600160a01b037f000000000000000000000000000000000000000000000000000000000000000081166004830152602482018690527f000000000000000000000000000000000000000000000000000000000000000016935063a9059cbb925060440190506020604051808303815f875af1158015610c06573d5f803e3d5ffd5b505050506040513d601f19601f82011682018060405250810190610c2a919061663a565b506040516315afd40960e01b81526001600160a01b037f000000000000000000000000000000000000000000000000000000000000000081166004830152602482018390527f000000000000000000000000000000000000000000000000000000000000000016906315afd409906044016020604051808303815f875af1158015610cb7573d5f803e3d5ffd5b505050506040513d601f19601f82011682018060405250810190610cdb9190616444565b50610e44565b6001600160a01b037f0000000000000000000000000000000000000000000000000000000000000000166336c78516610d1d602088018861645b565b7f0000000000000000000000000000000000000000000000000000000000000000610d47856148bb565b6040516001600160e01b031960e086901b1681526001600160a01b03938416600482015291831660248301528216604482015290851660648201526084015f604051808303815f87803b158015610d9c575f80fd5b505af1158015610dae573d5f803e3d5ffd5b50506040516315afd40960e01b81526001600160a01b038581166004830152602482018590527f00000000000000000000000000000000000000000000000000000000000000001692506315afd40991506044016020604051808303815f875af1158015610e1e573d5f803e3d5ffd5b505050506040513d601f19601f82011682018060405250810190610e429190616444565b505b50505b600101610a16565b50610e65610e60602084018461645b565b61490b565b610e6d614953565b919050565b60605f60605f610e8061497d565b90507f00000000000000000000000000000000000000000000000000000000000000006001600160a01b03166348c894916040518060e00160405280336001600160a01b031681526020018c6001600160a01b031681526020018b81526020018a8152602001600480811115610ef857610ef8616655565b8152602001891515815260200188815250604051602401610f19919061667d565b60408051601f198184030181529181526020820180516001600160e01b0316635b34379160e01b179052516001600160e01b031960e084901b168152610f6291906004016163be565b5f604051808303815f875af1158015610f7d573d5f803e3d5ffd5b505050506040513d5f823e601f3d908101601f19168201604052610fa49190810190616412565b806020019051810190610fb7919061675c565b935093509350610fc6816149e0565b50955095509592505050565b6040516001600160a01b038381166024830152604482018390523360648301525f9182917f000000000000000000000000000000000000000000000000000000000000000016906348c894919060840160408051601f198184030181529181526020820180516001600160e01b03167f1053ad2500000000000000000000000000000000000000000000000000000000179052516001600160e01b031960e084901b16815261108491906004016163be565b5f604051808303815f875af115801561109f573d5f803e3d5ffd5b505050506040513d5f823e601f3d908101601f191682016040526110c69190810190616412565b8060200190518101906110d991906167ba565b915091505b9250929050565b5f806110ef6147cc565b6110f7614852565b6040517fd446e4a60000000000000000000000000000000000000000000000000000000081526001600160a01b0386811660048301526024820186905284811660448301527f0000000000000000000000000000000000000000000000000000000000000000169063d446e4a69060640160408051808303815f875af1158015611183573d5f803e3d5ffd5b505050506040513d601f19601f820116820180604052508101906111a791906167ba565b809250819350505061121a83866001600160a01b03166338d52e0f6040518163ffffffff1660e01b8152600401602060405180830381865afa1580156111ef573d5f803e3d5ffd5b505050506040513d601f19601f8201168201806040525081019061121391906167dc565b845f614a13565b6112268386835f614a13565b61122e614953565b935093915050565b60605f61124161497d565b90505f5b8a8110156113ab575f8a8a838181106112605761126061660b565b905060200281019061127291906164bc565b8080601f0160208091040260200160405190810160405280939291908181526020018383808284375f9201829052509394506112b39250849150614d559050565b90505f8e8e858181106112c8576112c861660b565b905060c002018036038101906112de91906167f7565b8051602080830151606084015160a08501516040808901518951958a015191517fd505accf0000000000000000000000000000000000000000000000000000000081526001600160a01b0395861660048201523060248201526044810194909452606484019290925260ff909116608483015260a482019390935260c481019290925292935091169063d505accf9060e4015f604051808303815f87803b158015611387575f80fd5b505af1158015611399573d5f803e3d5ffd5b50505050505050806001019050611245565b505f6113b7888061688a565b90501115611458576040517f2a2d80d10000000000000000000000000000000000000000000000000000000081526001600160a01b037f00000000000000000000000000000000000000000000000000000000000000001690632a2d80d19061142a9033908b908b908b906004016168e5565b5f604051808303815f87803b158015611441575f80fd5b505af1158015611453573d5f803e3d5ffd5b505050505b6114628484613767565b915061146d816149e0565b509998505050505050505050565b60605f60605f61148961497d565b90507f00000000000000000000000000000000000000000000000000000000000000006001600160a01b031663edfa35686040518060e00160405280306001600160a01b031681526020018b6001600160a01b031681526020018a815260200189815260200160048081111561150157611501616655565b81525f602082015260409081018990525161151f919060240161667d565b60408051601f198184030181529181526020820180516001600160e01b0316633bf617c560e21b179052516001600160e01b031960e084901b16815261156891906004016163be565b5f604051808303815f875af1158015611583573d5f803e3d5ffd5b505050506040513d5f823e601f3d908101601f191682016040526115aa9190810190616412565b8060200190518101906115bd919061675c565b9350935093506115cc816149e0565b509450945094915050565b5f806115e161497d565b90505f6115ef878787614d90565b506040805160e0810182523081526001600160a01b038a811660208301529181018390526fffffffffffffffffffffffffffffffff60608201529192507f0000000000000000000000000000000000000000000000000000000000000000169063edfa35689060808101600281525f60208201526040908101889052516116799190602401616a1b565b60408051601f198184030181529181526020820180516001600160e01b031663b24bd57160e01b179052516001600160e01b031960e084901b1681526116c291906004016163be565b5f604051808303815f875af11580156116dd573d5f803e3d5ffd5b505050506040513d5f823e601f3d908101601f191682016040526117049190810190616412565b8060200190518101906117179190616a76565b509093505050611726816149e0565b50949350505050565b60606117396147cc565b611741614852565b604051633a2d133b60e01b81526001600160a01b0385811660048301528481166024830152604482018490527f00000000000000000000000000000000000000000000000000000000000000001690633a2d133b906064015f604051808303815f875af11580156117b4573d5f803e3d5ffd5b505050506040513d5f823e601f3d908101601f191682016040526117db9190810190616ac7565b60405163ca4f280360e01b81526001600160a01b0386811660048301529192505f917f0000000000000000000000000000000000000000000000000000000000000000169063ca4f2803906024015f60405180830381865afa158015611843573d5f803e3d5ffd5b505050506040513d5f823e601f3d908101601f1916820160405261186a9190810190616af9565b90505f5b8151811015611955575f83828151811061188a5761188a61660b565b602002602001015190505f81111561194c577f00000000000000000000000000000000000000000000000000000000000000006001600160a01b031663ae6393298484815181106118dd576118dd61660b565b60209081029190910101516040516001600160e01b031960e084901b1681526001600160a01b0391821660048201529089166024820152604481018490526064015f604051808303815f87803b158015611935575f80fd5b505af1158015611947573d5f803e3d5ffd5b505050505b5060010161186e565b505061195f614953565b9392505050565b5f6060805f61197361497d565b90507f00000000000000000000000000000000000000000000000000000000000000006001600160a01b031663edfa35686040518060e00160405280306001600160a01b031681526020018b6001600160a01b031681526020018981526020018a81526020016003808111156119eb576119eb616655565b81525f6020820152604090810189905251611a099190602401616a1b565b60408051601f198184030181529181526020820180516001600160e01b031663b24bd57160e01b179052516001600160e01b031960e084901b168152611a5291906004016163be565b5f604051808303815f875af1158015611a6d573d5f803e3d5ffd5b505050506040513d5f823e601f3d908101601f19168201604052611a949190810190616412565b8060200190518101906115bd9190616a76565b5f611ab06147cc565b611ab8614852565b6040517f40058e350000000000000000000000000000000000000000000000000000000081526001600160a01b038681166004830152602482018690526044820185905283811660648301527f000000000000000000000000000000000000000000000000000000000000000016906340058e35906084016020604051808303815f875af1158015611b4c573d5f803e3d5ffd5b505050506040513d601f19601f82011682018060405250810190611b709190616444565b9050611bdd82866001600160a01b03166338d52e0f6040518163ffffffff1660e01b8152600401602060405180830381865afa158015611bb2573d5f803e3d5ffd5b505050506040513d601f19601f82011682018060405250810190611bd691906167dc565b865f614a13565b611be98286855f614a13565b611bf1614953565b949350505050565b60605f611c0461497d565b90507f00000000000000000000000000000000000000000000000000000000000000006001600160a01b03166348c894916040518060e00160405280336001600160a01b031681526020018a6001600160a01b031681526020018881526020018981526020015f6003811115611c7c57611c7c616655565b8152602001871515815260200186815250604051602401611c9d9190616a1b565b60408051601f198184030181529181526020820180516001600160e01b0316633d81e3dd60e11b179052516001600160e01b031960e084901b168152611ce691906004016163be565b5f604051808303815f875af1158015611d01573d5f803e3d5ffd5b505050506040513d5f823e601f3d908101601f19168201604052611d289190810190616412565b806020019051810190611d3b9190616a76565b509250611d499050816149e0565b5095945050505050565b60605f6060611d606147cc565b611d68614852565b7f00000000000000000000000000000000000000000000000000000000000000006001600160a01b0316634af29ec46040518060c00160405280876020016020810190611db5919061645b565b6001600160a01b03168152602090810190611dd29089018961645b565b6001600160a01b03168152602001611ded6040890189616476565b808060200260200160405190810160405280939291908181526020018383602002808284375f9201919091525050509082525060608801356020820152604001611e3d60a0890160808a01616b83565b6004811115611e4e57611e4e616655565b8152602001611e6060c08901896164bc565b8080601f0160208091040260200160405190810160405280939291908181526020018383808284375f9201919091525050509152506040516001600160e01b031960e084901b168152611eb69190600401616ba1565b5f604051808303815f875af1158015611ed1573d5f803e3d5ffd5b505050506040513d5f823e601f3d908101601f19168201604052611ef8919081019061675c565b919450925090505f6001600160a01b037f00000000000000000000000000000000000000000000000000000000000000001663ca4f2803611f3f604088016020890161645b565b6040516001600160e01b031960e084901b1681526001600160a01b0390911660048201526024015f60405180830381865afa158015611f80573d5f803e3d5ffd5b505050506040513d5f823e601f3d908101601f19168201604052611fa79190810190616af9565b90505f5b81518110156123b5575f828281518110611fc757611fc761660b565b602002602001015190505f868381518110611fe457611fe461660b565b60200260200101519050805f03611ffc5750506123ad565b61200c60c0890160a08a0161661f565b801561204957507f00000000000000000000000000000000000000000000000000000000000000006001600160a01b0316826001600160a01b0316145b15612247578047101561206f5760405163500d4efb60e11b815260040160405180910390fd5b7f00000000000000000000000000000000000000000000000000000000000000006001600160a01b031663d0e30db0826040518263ffffffff1660e01b81526004015f604051808303818588803b1580156120c8575f80fd5b505af11580156120da573d5f803e3d5ffd5b505060405163a9059cbb60e01b81526001600160a01b037f000000000000000000000000000000000000000000000000000000000000000081166004830152602482018690527f000000000000000000000000000000000000000000000000000000000000000016935063a9059cbb925060440190506020604051808303815f875af115801561216c573d5f803e3d5ffd5b505050506040513d601f19601f82011682018060405250810190612190919061663a565b506040516315afd40960e01b81526001600160a01b037f000000000000000000000000000000000000000000000000000000000000000081166004830152602482018390527f000000000000000000000000000000000000000000000000000000000000000016906315afd409906044016020604051808303815f875af115801561221d573d5f803e3d5ffd5b505050506040513d601f19601f820116820180604052508101906122419190616444565b506123aa565b6001600160a01b037f0000000000000000000000000000000000000000000000000000000000000000166336c7851661228360208b018b61645b565b7f00000000000000000000000000000000000000000000000000000000000000006122ad856148bb565b6040516001600160e01b031960e086901b1681526001600160a01b03938416600482015291831660248301528216604482015290851660648201526084015f604051808303815f87803b158015612302575f80fd5b505af1158015612314573d5f803e3d5ffd5b50506040516315afd40960e01b81526001600160a01b038581166004830152602482018590527f00000000000000000000000000000000000000000000000000000000000000001692506315afd40991506044016020604051808303815f875af1158015612384573d5f803e3d5ffd5b505050506040513d601f19601f820116820180604052508101906123a89190616444565b505b50505b600101611fab565b506123c6610e60602087018761645b565b506123cf614953565b9193909250565b60606123e0614852565b604051633a2d133b60e01b81526001600160a01b0385811660048301528481166024830152604482018490527f00000000000000000000000000000000000000000000000000000000000000001690633a2d133b906064015f604051808303815f875af1158015612453573d5f803e3d5ffd5b505050506040513d5f823e601f3d908101601f19168201604052611bf19190810190616ac7565b5f8061248461497d565b90505f806124a388886fffffffffffffffffffffffffffffffff614d90565b915091505f7f00000000000000000000000000000000000000000000000000000000000000006001600160a01b031663edfa35686040518060e00160405280306001600160a01b031681526020018c6001600160a01b031681526020018681526020018a81526020016002600481111561251f5761251f616655565b81525f602082015260409081018a90525161253d919060240161667d565b60408051601f198184030181529181526020820180516001600160e01b0316633bf617c560e21b179052516001600160e01b031960e084901b16815261258691906004016163be565b5f604051808303815f875af11580156125a1573d5f803e3d5ffd5b505050506040513d5f823e601f3d908101601f191682016040526125c89190810190616412565b8060200190518101906125db919061675c565b505090508082815181106125f1576125f161660b565b60200260200101519450505050611726816149e0565b5f6126106147cc565b612618614852565b5f805f61262485614eb2565b919450925090505f61263c608087016060880161645b565b905061266761264e602088018861645b565b82856126626101208b016101008c0161661f565b614a13565b61269f612677602088018861645b565b61268760a0890160808a0161645b565b8461269a6101208b016101008c0161661f565b615068565b7f00000000000000000000000000000000000000000000000000000000000000006001600160a01b0316816001600160a01b0316036126e8576126e8610e60602088018861645b565b509192505050610e6d614953565b60605f61270161497d565b90507f00000000000000000000000000000000000000000000000000000000000000006001600160a01b03166348c894916040518060e00160405280336001600160a01b031681526020018a6001600160a01b031681526020018981526020018881526020015f600481111561277957612779616655565b815260200187151581526020018681525060405160240161279a919061667d565b60408051601f198184030181529181526020820180516001600160e01b0316635b34379160e01b179052516001600160e01b031960e084901b1681526127e391906004016163be565b5f604051808303815f875af11580156127fe573d5f803e3d5ffd5b505050506040513d5f823e601f3d908101601f191682016040526128259190810190616412565b806020019051810190612838919061675c565b50909250611d499050816149e0565b5f8061285161497d565b90505f806128608a8a8a614d90565b915091505f7f00000000000000000000000000000000000000000000000000000000000000006001600160a01b03166348c894916040518060e00160405280336001600160a01b031681526020018e6001600160a01b031681526020018681526020018b8152602001600260048111156128dc576128dc616655565b81526020018a15158152602001898152506040516024016128fd919061667d565b60408051601f198184030181529181526020820180516001600160e01b0316635b34379160e01b179052516001600160e01b031960e084901b16815261294691906004016163be565b5f604051808303815f875af1158015612961573d5f803e3d5ffd5b505050506040513d5f823e601f3d908101601f191682016040526129889190810190616412565b80602001905181019061299b919061675c565b505090508082815181106129b1576129b161660b565b602002602001015194505050506129c7816149e0565b509695505050505050565b5f806129dc61497d565b6040805161014081019091523381529091506001600160a01b037f000000000000000000000000000000000000000000000000000000000000000016906348c8949190602081015f5b81526020018e6001600160a01b031681526020018d6001600160a01b031681526020018c6001600160a01b031681526020018b81526020018a8152602001898152602001881515815260200187878080601f0160208091040260200160405190810160405280939291908181526020018383808284375f920191909152505050915250604051612ab89190602401616c27565b60408051601f198184030181529181526020820180516001600160e01b03167f68a24fe000000000000000000000000000000000000000000000000000000000179052516001600160e01b031960e084901b168152612b1a91906004016163be565b5f604051808303815f875af1158015612b35573d5f803e3d5ffd5b505050506040513d5f823e601f3d908101601f19168201604052612b5c9190810190616412565b8060200190518101906114629190616444565b5f606080612b7b6147cc565b612b83614852565b7f00000000000000000000000000000000000000000000000000000000000000006001600160a01b031663214578976040518060c00160405280876020016020810190612bd0919061645b565b6001600160a01b03168152602090810190612bed9089018961645b565b6001600160a01b0316815260200187606001358152602001878060400190612c159190616476565b808060200260200160405190810160405280939291908181526020018383602002808284375f92019190915250505090825250602001612c5b60a0890160808a01616ce6565b6003811115612c6c57612c6c616655565b8152602001612c7e60c08901896164bc565b8080601f0160208091040260200160405190810160405280939291908181526020018383808284375f9201919091525050509152506040516001600160e01b031960e084901b168152612cd49190600401616d04565b5f604051808303815f875af1158015612cef573d5f803e3d5ffd5b505050506040513d5f823e601f3d908101601f19168201604052612d169190810190616a76565b919450925090505f6001600160a01b037f00000000000000000000000000000000000000000000000000000000000000001663ca4f2803612d5d604088016020890161645b565b6040516001600160e01b031960e084901b1681526001600160a01b0390911660048201526024015f60405180830381865afa158015612d9e573d5f803e3d5ffd5b505050506040513d5f823e601f3d908101601f19168201604052612dc59190810190616af9565b90505f5b8151811015613059575f848281518110612de557612de561660b565b60200260200101519050805f03612dfc5750613051565b5f838381518110612e0f57612e0f61660b565b602002602001015190508760a0016020810190612e2c919061661f565b8015612e6957507f00000000000000000000000000000000000000000000000000000000000000006001600160a01b0316816001600160a01b0316145b15612fae5760405163ae63932960e01b81526001600160a01b037f000000000000000000000000000000000000000000000000000000000000000081166004830152306024830152604482018490527f0000000000000000000000000000000000000000000000000000000000000000169063ae639329906064015f604051808303815f87803b158015612efb575f80fd5b505af1158015612f0d573d5f803e3d5ffd5b5050604051632e1a7d4d60e01b8152600481018590527f00000000000000000000000000000000000000000000000000000000000000006001600160a01b03169250632e1a7d4d91506024015f604051808303815f87803b158015612f70575f80fd5b505af1158015612f82573d5f803e3d5ffd5b50612fa99250849150612f9a905060208b018b61645b565b6001600160a01b03169061524d565b61304e565b6001600160a01b037f00000000000000000000000000000000000000000000000000000000000000001663ae63932982612feb60208c018c61645b565b6040516001600160e01b031960e085901b1681526001600160a01b03928316600482015291166024820152604481018590526064015f604051808303815f87803b158015613037575f80fd5b505af1158015613049573d5f803e3d5ffd5b505050505b50505b600101612dc9565b50506123cf614953565b5f8061306d61497d565b6040805161014081019091523381529091506001600160a01b037f0000000000000000000000000000000000000000000000000000000000000000169063edfa35689060208101600181526020018b6001600160a01b031681526020018a6001600160a01b03168152602001896001600160a01b031681526020018881526020016fffffffffffffffffffffffffffffffff801681526020015f1981526020015f1515815260200187878080601f0160208091040260200160405190810160405280939291908181526020018383808284375f92019190915250505091525060405161315c9190602401616c27565b60408051601f198184030181529181526020820180516001600160e01b03167fbe5ae84100000000000000000000000000000000000000000000000000000000179052516001600160e01b031960e084901b1681526131be91906004016163be565b5f604051808303815f875af11580156131d9573d5f803e3d5ffd5b505050506040513d5f823e601f3d908101601f191682016040526132009190810190616412565b8060200190518101906132139190616444565b91506129c7816149e0565b5f8061322861497d565b6040805161014081019091523381529091506001600160a01b037f0000000000000000000000000000000000000000000000000000000000000000169063edfa356890602081015f81526020018b6001600160a01b031681526020018a6001600160a01b03168152602001896001600160a01b031681526020018881526020015f81526020016fffffffffffffffffffffffffffffffff801681526020015f1515815260200187878080601f0160208091040260200160405190810160405280939291908181526020018383808284375f92019190915250505091525060405161315c9190602401616c27565b5f6060805f61332261497d565b90507f00000000000000000000000000000000000000000000000000000000000000006001600160a01b03166348c894916040518060e00160405280336001600160a01b031681526020018c6001600160a01b031681526020018a81526020018b815260200160038081111561339a5761339a616655565b81526020018915158152602001888152506040516024016133bb9190616a1b565b60408051601f198184030181529181526020820180516001600160e01b0316633d81e3dd60e11b179052516001600160e01b031960e084901b16815261340491906004016163be565b5f604051808303815f875af115801561341f573d5f803e3d5ffd5b505050506040513d5f823e601f3d908101601f191682016040526134469190810190616412565b806020019051810190610fb79190616a76565b5f8061346361497d565b90505f8061347388876001614d90565b915091505f7f00000000000000000000000000000000000000000000000000000000000000006001600160a01b031663edfa35686040518060e00160405280306001600160a01b031681526020018c6001600160a01b031681526020018681526020018b8152602001600160038111156134ef576134ef616655565b81525f602082015260409081018a90525161350d9190602401616a1b565b60408051601f198184030181529181526020820180516001600160e01b031663b24bd57160e01b179052516001600160e01b031960e084901b16815261355691906004016163be565b5f604051808303815f875af1158015613571573d5f803e3d5ffd5b505050506040513d5f823e601f3d908101601f191682016040526135989190810190616412565b8060200190518101906135ab9190616a76565b509150508082815181106125f1576125f161660b565b5f806135cb61497d565b6040805161014081019091523381529091506001600160a01b037f000000000000000000000000000000000000000000000000000000000000000016906348c8949190602081016001612a25565b60605f61362461497d565b90507f00000000000000000000000000000000000000000000000000000000000000006001600160a01b031663edfa35686040518060e00160405280306001600160a01b03168152602001886001600160a01b0316815260200161368789615305565b8152602081018890526040015f81525f60208201526040908101879052516136b2919060240161667d565b60408051601f198184030181529181526020820180516001600160e01b0316633bf617c560e21b179052516001600160e01b031960e084901b1681526136fb91906004016163be565b5f604051808303815f875af1158015613716573d5f803e3d5ffd5b505050506040513d5f823e601f3d908101601f1916820160405261373d9190810190616412565b806020019051810190613750919061675c565b5090925061375f9050816149e0565b509392505050565b60605f61377261497d565b90506137a160017f00000000000000000000000000000000000000000000000000000000000000005b90615425565b8267ffffffffffffffff8111156137ba576137ba615632565b6040519080825280602002602001820160405280156137ed57816020015b60608152602001906001900390816137d85790505b5091505f5b838110156138805761385b308686848181106138105761381061660b565b905060200281019061382291906164bc565b8080601f0160208091040260200160405190810160405280939291908181526020018383808284375f9201919091525061542c92505050565b83828151811061386d5761386d61660b565b60209081029190910101526001016137f2565b506138ab5f7f000000000000000000000000000000000000000000000000000000000000000061379b565b6138d57f00000000000000000000000000000000000000000000000000000000000000005c61490b565b6138de816149e0565b5092915050565b604080516001600160a01b038481166024830152306044830152606480830185905283518084039091018152608490920183526020820180516001600160e01b03167f5f9815ff0000000000000000000000000000000000000000000000000000000017905291517fedfa35680000000000000000000000000000000000000000000000000000000081526060927f0000000000000000000000000000000000000000000000000000000000000000169163edfa3568916139a991906004016163be565b5f604051808303815f875af11580156139c4573d5f803e3d5ffd5b505050506040513d5f823e601f3d908101601f191682016040526139eb9190810190616412565b80602001905181019061195f9190616ac7565b5f606080613a0a614852565b7f00000000000000000000000000000000000000000000000000000000000000006001600160a01b031663214578976040518060c00160405280876020016020810190613a57919061645b565b6001600160a01b03168152602090810190613a749089018961645b565b6001600160a01b0316815260200187606001358152602001878060400190613a9c9190616476565b808060200260200160405190810160405280939291908181526020018383602002808284375f92019190915250505090825250602001613ae260a0890160808a01616ce6565b6003811115613af357613af3616655565b8152602001613b0560c08901896164bc565b8080601f0160208091040260200160405190810160405280939291908181526020018383808284375f9201919091525050509152506040516001600160e01b031960e084901b168152613b5b9190600401616d04565b5f604051808303815f875af1158015613b76573d5f803e3d5ffd5b505050506040513d5f823e601f3d908101601f19168201604052613b9d9190810190616a76565b9250925092509193909250565b5f613bb36147cc565b613bbb614852565b5f613bc583614eb2565b509092505050610e6d614953565b5f613bdc61497d565b6040805160e0810182523381526001600160a01b0388811660208301529181018790525f60608201529192507f000000000000000000000000000000000000000000000000000000000000000016906348c89491906080810160038152602001861515815260200185815250604051602401613c58919061667d565b60408051601f198184030181529181526020820180516001600160e01b0316635b34379160e01b179052516001600160e01b031960e084901b168152613ca191906004016163be565b5f604051808303815f875af1158015613cbc573d5f803e3d5ffd5b505050506040513d5f823e601f3d908101601f19168201604052613ce39190810190616412565b50613ced816149e0565b5050505050565b5f80613cfe61497d565b90507f00000000000000000000000000000000000000000000000000000000000000006001600160a01b03166348c894916040518060e00160405280336001600160a01b031681526020018a6001600160a01b0316815260200189815260200188815260200160016004811115613d7757613d77616655565b8152602001871515815260200186815250604051602401613d98919061667d565b60408051601f198184030181529181526020820180516001600160e01b0316635b34379160e01b179052516001600160e01b031960e084901b168152613de191906004016163be565b5f604051808303815f875af1158015613dfc573d5f803e3d5ffd5b505050506040513d5f823e601f3d908101601f19168201604052613e239190810190616412565b806020019051810190611d3b919061675c565b60605f613e4161497d565b60405163ca4f280360e01b81526001600160a01b0387811660048301529192505f917f0000000000000000000000000000000000000000000000000000000000000000169063ca4f2803906024015f60405180830381865afa158015613ea9573d5f803e3d5ffd5b505050506040513d5f823e601f3d908101601f19168201604052613ed09190810190616af9565b5167ffffffffffffffff811115613ee957613ee9615632565b604051908082528060200260200182016040528015613f12578160200160208202803683370190505b5090507f00000000000000000000000000000000000000000000000000000000000000006001600160a01b031663edfa35686040518060e00160405280306001600160a01b03168152602001896001600160a01b031681526020018481526020018881526020015f6003811115613f8b57613f8b616655565b81525f6020820152604090810188905251613fa99190602401616a1b565b60408051601f198184030181529181526020820180516001600160e01b031663b24bd57160e01b179052516001600160e01b031960e084901b168152613ff291906004016163be565b5f604051808303815f875af115801561400d573d5f803e3d5ffd5b505050506040513d5f823e601f3d908101601f191682016040526140349190810190616412565b8060200190518101906140479190616a76565b50935061375f91508290506149e0565b604080516001600160a01b038481166024830152336044830152606480830185905283518084039091018152608490920183526020820180516001600160e01b03167f431126720000000000000000000000000000000000000000000000000000000017905291517f48c894910000000000000000000000000000000000000000000000000000000081526060927f000000000000000000000000000000000000000000000000000000000000000016916348c89491916139a991906004016163be565b5f8061412561497d565b90505f614133898888614d90565b5090507f00000000000000000000000000000000000000000000000000000000000000006001600160a01b03166348c894916040518060e00160405280336001600160a01b031681526020018c6001600160a01b031681526020018481526020018b8152602001600260038111156141ad576141ad616655565b81526020018815158152602001878152506040516024016141ce9190616a1b565b60408051601f198184030181529181526020820180516001600160e01b0316633d81e3dd60e11b179052516001600160e01b031960e084901b16815261421791906004016163be565b5f604051808303815f875af1158015614232573d5f803e3d5ffd5b505050506040513d5f823e601f3d908101601f191682016040526142599190810190616412565b80602001905181019061426c9190616a76565b5090935050506129c7816149e0565b5f8061428561497d565b90505f806142948a8989614d90565b915091505f7f00000000000000000000000000000000000000000000000000000000000000006001600160a01b03166348c894916040518060e00160405280336001600160a01b031681526020018e6001600160a01b031681526020018681526020018d81526020016001600381111561431057614310616655565b81526020018a15158152602001898152506040516024016143319190616a1b565b60408051601f198184030181529181526020820180516001600160e01b0316633d81e3dd60e11b179052516001600160e01b031960e084901b16815261437a91906004016163be565b5f604051808303815f875af1158015614395573d5f803e3d5ffd5b505050506040513d5f823e601f3d908101601f191682016040526143bc9190810190616412565b8060200190518101906143cf9190616a76565b509150508082815181106129b1576129b161660b565b60605f60606143f2614852565b7f00000000000000000000000000000000000000000000000000000000000000006001600160a01b0316634af29ec46040518060c0016040528087602001602081019061443f919061645b565b6001600160a01b0316815260209081019061445c9089018961645b565b6001600160a01b031681526020016144776040890189616476565b808060200260200160405190810160405280939291908181526020018383602002808284375f92019190915250505090825250606088013560208201526040016144c760a0890160808a01616b83565b60048111156144d8576144d8616655565b81526020016144ea60c08901896164bc565b8080601f0160208091040260200160405190810160405280939291908181526020018383808284375f9201919091525050509152506040516001600160e01b031960e084901b1681526145409190600401616ba1565b5f604051808303815f875af115801561455b573d5f803e3d5ffd5b505050506040513d5f823e601f3d908101601f19168201604052614582919081019061675c565b9196909550909350915050565b5f8061459961497d565b6040805160e0810182523081526001600160a01b0388811660208301529181018790525f60608201529192507f0000000000000000000000000000000000000000000000000000000000000000169063edfa35689060808101600181525f6020820152604090810187905251614612919060240161667d565b60408051601f198184030181529181526020820180516001600160e01b0316633bf617c560e21b179052516001600160e01b031960e084901b16815261465b91906004016163be565b5f604051808303815f875af1158015614676573d5f803e3d5ffd5b505050506040513d5f823e601f3d908101601f1916820160405261469d9190810190616412565b8060200190518101906146b0919061675c565b50925061375f9050816149e0565b6040516001600160a01b03848116602483015260448201849052606482018390523360848301525f917f0000000000000000000000000000000000000000000000000000000000000000909116906348c894919060a40160408051601f198184030181529181526020820180516001600160e01b03167f4ba3015500000000000000000000000000000000000000000000000000000000179052516001600160e01b031960e084901b16815261477791906004016163be565b5f604051808303815f875af1158015614792573d5f803e3d5ffd5b505050506040513d5f823e601f3d908101601f191682016040526147b99190810190616412565b806020019051810190611bf19190616444565b7f9b779b17422d0df92223018b32b4d1fa46e071723d6817e2486d003becc55f005c15614825576040517f3ee5aeb500000000000000000000000000000000000000000000000000000000815260040160405180910390fd5b61485060017f9b779b17422d0df92223018b32b4d1fa46e071723d6817e2486d003becc55f0061379b565b565b336001600160a01b037f00000000000000000000000000000000000000000000000000000000000000001614614850576040517f089676d50000000000000000000000000000000000000000000000000000000081523360048201526024015b60405180910390fd5b5f6001600160a01b03821115614907576040517f6dfcc65000000000000000000000000000000000000000000000000000000000815260a06004820152602481018390526044016148b2565b5090565b7f00000000000000000000000000000000000000000000000000000000000000005c156149355750565b47801561494f5761494f6001600160a01b0383168261524d565b5050565b6148505f7f9b779b17422d0df92223018b32b4d1fa46e071723d6817e2486d003becc55f0061379b565b5f7f00000000000000000000000000000000000000000000000000000000000000005c6001600160a01b038116614907576149d8337f000000000000000000000000000000000000000000000000000000000000000061379b565b600191505090565b8015614a1057614a105f7f000000000000000000000000000000000000000000000000000000000000000061379b565b50565b808015614a5157507f00000000000000000000000000000000000000000000000000000000000000006001600160a01b0316836001600160a01b0316145b15614bf45781471015614a775760405163500d4efb60e11b815260040160405180910390fd5b7f00000000000000000000000000000000000000000000000000000000000000006001600160a01b031663d0e30db0836040518263ffffffff1660e01b81526004015f604051808303818588803b158015614ad0575f80fd5b505af1158015614ae2573d5f803e3d5ffd5b50614b3e9350506001600160a01b037f00000000000000000000000000000000000000000000000000000000000000001691507f000000000000000000000000000000000000000000000000000000000000000090508461549e565b6040516315afd40960e01b81526001600160a01b037f000000000000000000000000000000000000000000000000000000000000000081166004830152602482018490527f000000000000000000000000000000000000000000000000000000000000000016906315afd409906044016020604051808303815f875af1158015614bca573d5f803e3d5ffd5b505050506040513d601f19601f82011682018060405250810190614bee9190616444565b50614d4f565b8115614d4f577f00000000000000000000000000000000000000000000000000000000000000006001600160a01b03166336c78516857f0000000000000000000000000000000000000000000000000000000000000000614c54866148bb565b6040516001600160e01b031960e086901b1681526001600160a01b03938416600482015291831660248301528216604482015290861660648201526084015f604051808303815f87803b158015614ca9575f80fd5b505af1158015614cbb573d5f803e3d5ffd5b50506040516315afd40960e01b81526001600160a01b038681166004830152602482018690527f00000000000000000000000000000000000000000000000000000000000000001692506315afd40991506044016020604051808303815f875af1158015614d2b573d5f803e3d5ffd5b505050506040513d601f19601f82011682018060405250810190613ced9190616444565b50505050565b60408051606080820183525f808352602080840182815284860183815291870151958701519690930151948452949091529190911a90915290565b6040517fc9c1661b0000000000000000000000000000000000000000000000000000000081526001600160a01b03848116600483015283811660248301526060915f9182917f00000000000000000000000000000000000000000000000000000000000000009091169063c9c1661b906044016040805180830381865afa158015614e1d573d5f803e3d5ffd5b505050506040513d601f19601f82011682018060405250810190614e4191906167ba565b925090508067ffffffffffffffff811115614e5e57614e5e615632565b604051908082528060200260200182016040528015614e87578160200160208202803683370190505b50925083838381518110614e9d57614e9d61660b565b60200260200101818152505050935093915050565b5f805f8360e00135421115614ef3576040517fe08b8af000000000000000000000000000000000000000000000000000000000815260040160405180910390fd5b7f00000000000000000000000000000000000000000000000000000000000000006001600160a01b0316632bfb780c6040518060e00160405280876020016020810190614f409190616d5e565b6001811115614f5157614f51616655565b8152602001614f666060890160408a0161645b565b6001600160a01b03168152602001614f846080890160608a0161645b565b6001600160a01b03168152602001614fa260a0890160808a0161645b565b6001600160a01b0316815260a0880135602082015260c08801356040820152606001614fd26101208901896164bc565b8080601f0160208091040260200160405190810160405280939291908181526020018383808284375f9201919091525050509152506040516001600160e01b031960e084901b1681526150289190600401616d7c565b6060604051808303815f875af1158015615044573d5f803e3d5ffd5b505050506040513d601f19601f820116820180604052508101906145829190616deb565b8115614d4f578080156150ac57507f00000000000000000000000000000000000000000000000000000000000000006001600160a01b0316836001600160a01b0316145b156151c25760405163ae63932960e01b81526001600160a01b038481166004830152306024830152604482018490527f0000000000000000000000000000000000000000000000000000000000000000169063ae639329906064015f604051808303815f87803b15801561511e575f80fd5b505af1158015615130573d5f803e3d5ffd5b5050604051632e1a7d4d60e01b8152600481018590527f00000000000000000000000000000000000000000000000000000000000000006001600160a01b03169250632e1a7d4d91506024015f604051808303815f87803b158015615193575f80fd5b505af11580156151a5573d5f803e3d5ffd5b506151bd925050506001600160a01b0385168361524d565b614d4f565b60405163ae63932960e01b81526001600160a01b0384811660048301528581166024830152604482018490527f0000000000000000000000000000000000000000000000000000000000000000169063ae639329906064015f604051808303815f87803b158015615231575f80fd5b505af1158015615243573d5f803e3d5ffd5b5050505050505050565b80471015615290576040517fcf479181000000000000000000000000000000000000000000000000000000008152476004820152602481018290526044016148b2565b5f826001600160a01b0316826040515f6040518083038185875af1925050503d805f81146152d9576040519150601f19603f3d011682016040523d82523d5f602084013e6152de565b606091505b50509050806153005760405163d6bda27560e01b815260040160405180910390fd5b505050565b60405163ca4f280360e01b81526001600160a01b0382811660048301526060915f917f0000000000000000000000000000000000000000000000000000000000000000169063ca4f2803906024015f60405180830381865afa15801561536d573d5f803e3d5ffd5b505050506040513d5f823e601f3d908101601f191682016040526153949190810190616af9565b5190508067ffffffffffffffff8111156153b0576153b0615632565b6040519080825280602002602001820160405280156153d9578160200160208202803683370190505b5091505f5b8181101561541e576fffffffffffffffffffffffffffffffff801683828151811061540b5761540b61660b565b60209081029190910101526001016153de565b5050919050565b80825d5050565b60605f80846001600160a01b0316846040516154489190616e16565b5f60405180830381855af49150503d805f8114615480576040519150601f19603f3d011682016040523d82523d5f602084013e615485565b606091505b50915091506154958583836154f0565b95945050505050565b604080516001600160a01b038416602482015260448082018490528251808303909101815260649091019091526020810180516001600160e01b031663a9059cbb60e01b179052615300908490615565565b60608261550557615500826155ea565b61195f565b815115801561551c57506001600160a01b0384163b155b1561555e576040517f9996b3150000000000000000000000000000000000000000000000000000000081526001600160a01b03851660048201526024016148b2565b508061195f565b5f8060205f8451602086015f885af180615584576040513d5f823e3d81fd5b50505f513d9150811561559b5780600114156155a8565b6001600160a01b0384163b155b15614d4f576040517f5274afe70000000000000000000000000000000000000000000000000000000081526001600160a01b03851660048201526024016148b2565b8051156155fa5780518082602001fd5b60405163d6bda27560e01b815260040160405180910390fd5b6001600160a01b0381168114614a10575f80fd5b8035610e6d81615613565b634e487b7160e01b5f52604160045260245ffd5b604051601f8201601f1916810167ffffffffffffffff8111828210171561566f5761566f615632565b604052919050565b5f67ffffffffffffffff82111561569057615690615632565b5060051b60200190565b5f82601f8301126156a9575f80fd5b813560206156be6156b983615677565b615646565b8083825260208201915060208460051b8701019350868411156156df575f80fd5b602086015b848110156129c757803583529183019183016156e4565b8015158114614a10575f80fd5b8035610e6d816156fb565b5f67ffffffffffffffff82111561572c5761572c615632565b50601f01601f191660200190565b5f82601f830112615749575f80fd5b81356157576156b982615713565b81815284602083860101111561576b575f80fd5b816020850160208301375f918101602001919091529392505050565b5f805f805f8060c0878903121561579c575f80fd5b86356157a781615613565b955060208781013567ffffffffffffffff808211156157c4575f80fd5b818a0191508a601f8301126157d7575f80fd5b81356157e56156b982615677565b81815260059190911b8301840190848101908d831115615803575f80fd5b938501935b8285101561582a57843561581b81615613565b82529385019390850190615808565b9950505060408a0135925080831115615841575f80fd5b61584d8b848c0161569a565b965060608a0135955061586260808b01615708565b945060a08a0135925080831115615877575f80fd5b505061588589828a0161573a565b9150509295509295509295565b5f60e082840312156158a2575f80fd5b50919050565b5f602082840312156158b8575f80fd5b813567ffffffffffffffff8111156158ce575f80fd5b611bf184828501615892565b5f805f805f60a086880312156158ee575f80fd5b85356158f981615613565b9450602086013567ffffffffffffffff80821115615915575f80fd5b61592189838a0161569a565b9550604088013594506060880135915061593a826156fb565b9092506080870135908082111561594f575f80fd5b5061595c8882890161573a565b9150509295509295909350565b5f815180845260208085019450602084015f5b838110156159985781518752958201959082019060010161597c565b509495945050505050565b5f5b838110156159bd5781810151838201526020016159a5565b50505f910152565b5f81518084526159dc8160208601602086016159a3565b601f01601f19169290920160200192915050565b606081525f615a026060830186615969565b8460208401528281036040840152615a1a81856159c5565b9695505050505050565b5f8060408385031215615a35575f80fd5b8235615a4081615613565b946020939093013593505050565b5f805f60608486031215615a60575f80fd5b8335615a6b81615613565b9250602084013591506040840135615a8281615613565b809150509250925092565b5f8083601f840112615a9d575f80fd5b50813567ffffffffffffffff811115615ab4575f80fd5b60208301915083602060c0830285010111156110de575f80fd5b5f8083601f840112615ade575f80fd5b50813567ffffffffffffffff811115615af5575f80fd5b6020830191508360208260051b85010111156110de575f80fd5b5f606082840312156158a2575f80fd5b5f8083601f840112615b2f575f80fd5b50813567ffffffffffffffff811115615b46575f80fd5b6020830191508360208285010111156110de575f80fd5b5f805f805f805f805f60a08a8c031215615b75575f80fd5b893567ffffffffffffffff80821115615b8c575f80fd5b615b988d838e01615a8d565b909b50995060208c0135915080821115615bb0575f80fd5b615bbc8d838e01615ace565b909950975060408c0135915080821115615bd4575f80fd5b615be08d838e01615b0f565b965060608c0135915080821115615bf5575f80fd5b615c018d838e01615b1f565b909650945060808c0135915080821115615c19575f80fd5b50615c268c828d01615ace565b915080935050809150509295985092959850929598565b5f60208083016020845280855180835260408601915060408160051b8701019250602087015f5b82811015615c9257603f19888603018452615c808583516159c5565b94509285019290850190600101615c64565b5092979650505050505050565b5f805f8060808587031215615cb2575f80fd5b8435615cbd81615613565b9350602085013567ffffffffffffffff80821115615cd9575f80fd5b615ce58883890161569a565b9450604087013593506060870135915080821115615d01575f80fd5b50615d0e8782880161573a565b91505092959194509250565b5f805f8060808587031215615d2d575f80fd5b8435615d3881615613565b93506020850135615d4881615613565b925060408501359150606085013567ffffffffffffffff811115615d6a575f80fd5b615d0e8782880161573a565b5f805f60608486031215615d88575f80fd5b8335615d9381615613565b92506020840135615da381615613565b929592945050506040919091013590565b602081525f61195f6020830184615969565b5f805f8060808587031215615dd9575f80fd5b8435615de481615613565b935060208501359250604085013567ffffffffffffffff80821115615e07575f80fd5b615e138883890161569a565b93506060870135915080821115615d01575f80fd5b838152606060208201525f615e406060830185615969565b8281036040840152615a1a81856159c5565b5f805f8060808587031215615e65575f80fd5b8435615e7081615613565b935060208501359250604085013591506060850135615e8e81615613565b939692955090935050565b5f805f805f60a08688031215615ead575f80fd5b8535615eb881615613565b945060208601359350604086013567ffffffffffffffff80821115615edb575f80fd5b615ee789838a0161569a565b94506060880135915061593a826156fb565b5f60208284031215615f09575f80fd5b813567ffffffffffffffff811115615f1f575f80fd5b8201610140818503121561195f575f80fd5b5f805f805f8060c08789031215615f46575f80fd5b8635615f5181615613565b95506020870135615f6181615613565b945060408701359350606087013592506080870135615f7f816156fb565b915060a087013567ffffffffffffffff811115615f9a575f80fd5b61588589828a0161573a565b5f805f805f805f805f6101008a8c031215615fbf575f80fd5b8935615fca81615613565b985060208a0135615fda81615613565b975060408a0135615fea81615613565b965060608a0135955060808a0135945060a08a0135935060c08a013561600f816156fb565b925060e08a013567ffffffffffffffff81111561602a575f80fd5b615c268c828d01615b1f565b5f805f805f8060a0878903121561604b575f80fd5b863561605681615613565b9550602087013561606681615613565b9450604087013561607681615613565b935060608701359250608087013567ffffffffffffffff811115616098575f80fd5b6160a489828a01615b1f565b979a9699509497509295939492505050565b5f805f80608085870312156160c9575f80fd5b84356160d481615613565b93506020850135925060408501356160eb81615613565b9150606085013567ffffffffffffffff811115615d6a575f80fd5b5f805f60608486031215616118575f80fd5b833561612381615613565b925060208401359150604084013567ffffffffffffffff811115616145575f80fd5b6161518682870161573a565b9150509250925092565b5f806020838503121561616c575f80fd5b823567ffffffffffffffff811115616182575f80fd5b61618e85828601615ace565b90969095509350505050565b5f805f80608085870312156161ad575f80fd5b84356161b881615613565b9350602085013567ffffffffffffffff808211156161d4575f80fd5b6161e08883890161569a565b9450604087013591506161f2826156fb565b90925060608601359080821115615d01575f80fd5b5f805f805f8060c0878903121561621c575f80fd5b863561622781615613565b955060208701359450604087013561623e81615613565b9350606087013592506080870135615f7f816156fb565b5f805f60608486031215616267575f80fd5b833561627281615613565b9250602084013567ffffffffffffffff8082111561628e575f80fd5b61629a8783880161569a565b935060408601359150808211156162af575f80fd5b506161518682870161573a565b5f805f606084860312156162ce575f80fd5b83356162d981615613565b95602085013595506040909401359392505050565b5f815180845260208085019450602084015f5b838110156159985781516001600160a01b031687529582019590820190600101616301565b602081525f6001600160a01b0380845116602084015280602085015116604084015250604083015160e060608401526163636101008401826162ee565b90506060840151601f19808584030160808601526163818383615969565b9250608086015160a086015260a086015191506163a260c086018315159052565b60c08601519150808584030160e08601525061549582826159c5565b602081525f61195f60208301846159c5565b5f82601f8301126163df575f80fd5b81516163ed6156b982615713565b818152846020838601011115616401575f80fd5b611bf18260208301602087016159a3565b5f60208284031215616422575f80fd5b815167ffffffffffffffff811115616438575f80fd5b611bf1848285016163d0565b5f60208284031215616454575f80fd5b5051919050565b5f6020828403121561646b575f80fd5b813561195f81615613565b5f808335601e1984360301811261648b575f80fd5b83018035915067ffffffffffffffff8211156164a5575f80fd5b6020019150600581901b36038213156110de575f80fd5b5f808335601e198436030181126164d1575f80fd5b83018035915067ffffffffffffffff8211156164eb575f80fd5b6020019150368190038213156110de575f80fd5b8183525f7f07ffffffffffffffffffffffffffffffffffffffffffffffffffffffffffffff83111561652f575f80fd5b8260051b80836020870137939093016020019392505050565b81835281816020850137505f828201602090810191909152601f909101601f19169091010190565b5f60c082016001600160a01b03808d1684526020818d16602086015260c06040860152828b845260e0860190508c93505f5b8c8110156165c95784356165b581615613565b8416825293820193908201906001016165a2565b5085810360608701526165dd818b8d6164ff565b935050505085608084015282810360a08401526165fb818587616548565b9c9b505050505050505050505050565b634e487b7160e01b5f52603260045260245ffd5b5f6020828403121561662f575f80fd5b813561195f816156fb565b5f6020828403121561664a575f80fd5b815161195f816156fb565b634e487b7160e01b5f52602160045260245ffd5b6005811061667957616679616655565b9052565b602081525f6001600160a01b0380845116602084015280602085015116604084015250604083015160e060608401526166ba610100840182615969565b90506060840151608084015260808401516166d860a0850182616669565b5060a0840151151560c084015260c0840151601f198483030160e085015261549582826159c5565b5f82601f83011261670f575f80fd5b8151602061671f6156b983615677565b8083825260208201915060208460051b870101935086841115616740575f80fd5b602086015b848110156129c75780518352918301918301616745565b5f805f6060848603121561676e575f80fd5b835167ffffffffffffffff80821115616785575f80fd5b61679187838801616700565b94506020860151935060408601519150808211156167ad575f80fd5b50616151868287016163d0565b5f80604083850312156167cb575f80fd5b505080516020909101519092909150565b5f602082840312156167ec575f80fd5b815161195f81615613565b5f60c08284031215616807575f80fd5b60405160c0810181811067ffffffffffffffff8211171561682a5761682a615632565b604052823561683881615613565b8152602083013561684881615613565b6020820152604083013561685b81615613565b80604083015250606083013560608201526080830135608082015260a083013560a08201528091505092915050565b5f808335601e1984360301811261689f575f80fd5b83018035915067ffffffffffffffff8211156168b9575f80fd5b6020019150600781901b36038213156110de575f80fd5b803565ffffffffffff81168114610e6d575f80fd5b5f60606001600160a01b03808816845260206060602086015260c085018835601e198a3603018112616915575f80fd5b890160208101903567ffffffffffffffff811115616931575f80fd5b8060071b3603821315616942575f80fd5b60608881015291829052905f9060e088015b818310156169c057833561696781615613565b861681528385013561697881615613565b861681860152604061698b8582016168d0565b65ffffffffffff80821683850152806169a58b89016168d0565b16848b01525050506080938401936001939093019201616954565b6169cc60208d01615627565b6001600160a01b03811660808b0152965060408c013560a08a015288810360408a01526169fa818b8d616548565b9d9c50505050505050505050505050565b6004811061667957616679616655565b602081525f6001600160a01b0380845116602084015280602085015116604084015250604083015160e06060840152616a58610100840182615969565b90506060840151608084015260808401516166d860a0850182616a0b565b5f805f60608486031215616a88575f80fd5b83519250602084015167ffffffffffffffff80821115616aa6575f80fd5b616ab287838801616700565b935060408601519150808211156167ad575f80fd5b5f60208284031215616ad7575f80fd5b815167ffffffffffffffff811115616aed575f80fd5b611bf184828501616700565b5f6020808385031215616b0a575f80fd5b825167ffffffffffffffff811115616b20575f80fd5b8301601f81018513616b30575f80fd5b8051616b3e6156b982615677565b81815260059190911b82018301908381019087831115616b5c575f80fd5b928401925b8284101561091a578351616b7481615613565b82529284019290840190616b61565b5f60208284031215616b93575f80fd5b81356005811061195f575f80fd5b602081525f6001600160a01b0380845116602084015280602085015116604084015250604083015160c06060840152616bdd60e0840182615969565b9050606084015160808401526080840151616bfb60a0850182616669565b5060a0840151838203601f190160c085015261549582826159c5565b6002811061667957616679616655565b60208152616c416020820183516001600160a01b03169052565b5f6020830151616c546040840182616c17565b5060408301516001600160a01b03811660608401525060608301516001600160a01b03811660808401525060808301516001600160a01b03811660a08401525060a083015160c083015260c083015160e083015260e0830151610100818185015280850151915050610120616ccc8185018315159052565b840151610140848101529050611bf16101608401826159c5565b5f60208284031215616cf6575f80fd5b81356004811061195f575f80fd5b602081525f6001600160a01b038084511660208401528060208501511660408401525060408301516060830152606083015160c06080840152616d4a60e0840182615969565b90506080840151616bfb60a0850182616a0b565b5f60208284031215616d6e575f80fd5b81356002811061195f575f80fd5b60208152616d8e602082018351616c17565b5f60208301516001600160a01b0380821660408501528060408601511660608501528060608601511660808501525050608083015160a083015260a083015160c083015260c083015160e080840152611bf16101008401826159c5565b5f805f60608486031215616dfd575f80fd5b8351925060208401519150604084015190509250925092565b5f8251616e278184602087016159a3565b919091019291505056fea26469706673582212201b0d0febd66fbb56e4d6b791327c15c779b0854034176151e505223dc066548564736f6c63430008180033","linkReferences":{}},"methodIdentifiers":{"addLiquidityCustom(address,uint256[],uint256,bool,bytes)":"0ca078ec","addLiquidityHook((address,address,uint256[],uint256,uint8,bool,bytes))":"5b343791","addLiquidityProportional(address,uint256[],uint256,bool,bytes)":"724dba33","addLiquiditySingleTokenExactOut(address,address,uint256,uint256,bool,bytes)":"72657d17","addLiquidityToBuffer(address,uint256)":"0faa5e37","addLiquidityToBufferHook(address,uint256,address)":"1053ad25","addLiquidityUnbalanced(address,uint256[],uint256,bool,bytes)":"c08bc851","donate(address,uint256[],bool,bytes)":"bf6ee3fd","getSender()":"5e01eb5a","initialize(address,address[],uint256[],uint256,bool,bytes)":"026b3d95","initializeBuffer(address,uint256,uint256)":"fdea2b56","initializeBufferHook(address,uint256,uint256,address)":"4ba30155","initializeHook((address,address,address[],uint256[],uint256,bool,bytes))":"086fad66","multicall(bytes[])":"ac9650d8","permitBatchAndCall((address,address,address,uint256,uint256,uint256)[],bytes[],((address,uint160,uint48,uint48)[],address,uint256),bytes,bytes[])":"19c6989f","queryAddLiquidityCustom(address,uint256[],uint256,bytes)":"2d90b0dd","queryAddLiquidityHook((address,address,uint256[],uint256,uint8,bool,bytes))":"efd85f14","queryAddLiquidityProportional(address,uint256,bytes)":"980ed652","queryAddLiquiditySingleTokenExactOut(address,address,uint256,bytes)":"6193d47d","queryAddLiquidityUnbalanced(address,uint256[],bytes)":"fbe985d5","queryRemoveLiquidityCustom(address,uint256,uint256[],bytes)":"47924980","queryRemoveLiquidityHook((address,address,uint256[],uint256,uint8,bool,bytes))":"b24bd571","queryRemoveLiquidityProportional(address,uint256,bytes)":"df145a4f","queryRemoveLiquidityRecovery(address,uint256)":"b037ed36","queryRemoveLiquidityRecoveryHook(address,address,uint256)":"5f9815ff","queryRemoveLiquiditySingleTokenExactIn(address,uint256,address,bytes)":"87a6c9ff","queryRemoveLiquiditySingleTokenExactOut(address,address,uint256,bytes)":"3ae97603","querySwapHook((address,uint8,address,address,address,uint256,uint256,uint256,bool,bytes))":"be5ae841","querySwapSingleTokenExactIn(address,address,address,uint256,bytes)":"7d245e90","querySwapSingleTokenExactOut(address,address,address,uint256,bytes)":"7ccb4325","removeLiquidityCustom(address,uint256,uint256[],bool,bytes)":"82bf2b24","removeLiquidityHook((address,address,uint256[],uint256,uint8,bool,bytes))":"7b03c7ba","removeLiquidityProportional(address,uint256,uint256[],bool,bytes)":"51682750","removeLiquidityRecovery(address,uint256)":"e6b51e8f","removeLiquidityRecoveryHook(address,address,uint256)":"43112672","removeLiquiditySingleTokenExactIn(address,uint256,address,uint256,bool,bytes)":"ecb2182c","removeLiquiditySingleTokenExactOut(address,uint256,address,uint256,bool,bytes)":"e7326def","swapSingleTokenExactIn(address,address,address,uint256,uint256,uint256,bool,bytes)":"750283bc","swapSingleTokenExactOut(address,address,address,uint256,uint256,uint256,bool,bytes)":"94e86ef8","swapSingleTokenHook((address,uint8,address,address,address,uint256,uint256,uint256,bool,bytes))":"68a24fe0"},"id":87}