{"abi":[{"type":"constructor","inputs":[{"name":"version_","type":"string","internalType":"string"}],"stateMutability":"nonpayable"},{"type":"function","name":"version","inputs":[],"outputs":[{"name":"","type":"string","internalType":"string"}],"stateMutability":"view"}],"bytecode":{"object":"0x608060405234801561000f575f80fd5b5060405161041f38038061041f83398101604081905261002e91610060565b6100378161003d565b50610265565b5f61004882826101a6565b5050565b634e487b7160e01b5f52604160045260245ffd5b5f6020808385031215610071575f80fd5b82516001600160401b0380821115610087575f80fd5b818501915085601f83011261009a575f80fd5b8151818111156100ac576100ac61004c565b604051601f8201601f19908116603f011681019083821181831017156100d4576100d461004c565b8160405282815288868487010111156100eb575f80fd5b5f93505b8284101561010c57848401860151818501870152928501926100ef565b5f86848301015280965050505050505092915050565b600181811c9082168061013657607f821691505b60208210810361015457634e487b7160e01b5f52602260045260245ffd5b50919050565b601f8211156101a157805f5260205f20601f840160051c8101602085101561017f5750805b601f840160051c820191505b8181101561019e575f815560010161018b565b50505b505050565b81516001600160401b038111156101bf576101bf61004c565b6101d3816101cd8454610122565b8461015a565b602080601f831160018114610206575f84156101ef5750858301515b5f19600386901b1c1916600185901b17855561025d565b5f85815260208120601f198616915b8281101561023457888601518255948401946001909101908401610215565b508582101561025157878501515f19600388901b60f8161c191681555b505060018460011b0185555b505050505050565b6101ad806102725f395ff3fe608060405234801561000f575f80fd5b5060043610610029575f3560e01c806354fd4d501461002d575b5f80fd5b61003561004b565b60405161004291906100da565b60405180910390f35b60605f805461005990610126565b80601f016020809104026020016040519081016040528092919081815260200182805461008590610126565b80156100d05780601f106100a7576101008083540402835291602001916100d0565b820191905f5260205f20905b8154815290600101906020018083116100b357829003601f168201915b5050505050905090565b5f602080835283518060208501525f5b81811015610106578581018301518582016040015282016100ea565b505f604082860101526040601f19601f8301168501019250505092915050565b600181811c9082168061013a57607f821691505b602082108103610171577f4e487b71000000000000000000000000000000000000000000000000000000005f52602260045260245ffd5b5091905056fea2646970667358221220fd2cc1fabc41952f31b389d0ba4be89f60d55f4877a3eb083b007efaa4087ba864736f6c63430008180033","linkReferences":{}},"methodIdentifiers":{"version()":"54fd4d50"},"id":53}