{"abi":[{"type":"constructor","inputs":[{"name":"vault_","type":"address","internalType":"contract IVault"}],"stateMutability":"nonpayable"},{"type":"function","name":"collectAggregateFees","inputs":[{"name":"pool","type":"address","internalType":"address"}],"outputs":[],"stateMutability":"nonpayable"},{"type":"function","name":"collectAggregateFeesHook","inputs":[{"name":"pool","type":"address","internalType":"address"}],"outputs":[],"stateMutability":"nonpayable"},{"type":"function","name":"computeAggregateFeePercentage","inputs":[{"name":"protocolFeePercentage","type":"uint256","internalType":"uint256"},{"name":"poolCreatorFeePercentage","type":"uint256","internalType":"uint256"}],"outputs":[{"name":"","type":"uint256","internalType":"uint256"}],"stateMutability":"pure"},{"type":"function","name":"getActionId","inputs":[{"name":"selector","type":"bytes4","internalType":"bytes4"}],"outputs":[{"name":"","type":"bytes32","internalType":"bytes32"}],"stateMutability":"view"},{"type":"function","name":"getAuthorizer","inputs":[],"outputs":[{"name":"","type":"address","internalType":"contract IAuthorizer"}],"stateMutability":"view"},{"type":"function","name":"getGlobalProtocolSwapFeePercentage","inputs":[],"outputs":[{"name":"","type":"uint256","internalType":"uint256"}],"stateMutability":"view"},{"type":"function","name":"getGlobalProtocolYieldFeePercentage","inputs":[],"outputs":[{"name":"","type":"uint256","internalType":"uint256"}],"stateMutability":"view"},{"type":"function","name":"getPoolCreatorFeeAmounts","inputs":[{"name":"pool","type":"address","internalType":"address"}],"outputs":[{"name":"feeAmounts","type":"uint256[]","internalType":"uint256[]"}],"stateMutability":"view"},{"type":"function","name":"getPoolCreatorInfo","inputs":[{"name":"pool","type":"address","internalType":"address"}],"outputs":[{"name":"poolCreator","type":"address","internalType":"address"},{"name":"creatorSwapFeePercentage","type":"uint256","internalType":"uint256"},{"name":"creatorYieldFeePercentage","type":"uint256","internalType":"uint256"}],"stateMutability":"view"},{"type":"function","name":"getPoolProtocolSwapFeeInfo","inputs":[{"name":"pool","type":"address","internalType":"address"}],"outputs":[{"name":"","type":"uint256","internalType":"uint256"},{"name":"","type":"bool","internalType":"bool"}],"stateMutability":"view"},{"type":"function","name":"getPoolProtocolYieldFeeInfo","inputs":[{"name":"pool","type":"address","internalType":"address"}],"outputs":[{"name":"","type":"uint256","internalType":"uint256"},{"name":"","type":"bool","internalType":"bool"}],"stateMutability":"view"},{"type":"function","name":"getPoolTokensAndCount","inputs":[{"name":"pool","type":"address","internalType":"address"}],"outputs":[{"name":"tokens","type":"address[]","internalType":"contract IERC20[]"},{"name":"numTokens","type":"uint256","internalType":"uint256"}],"stateMutability":"view"},{"type":"function","name":"getProtocolFeeAmounts","inputs":[{"name":"pool","type":"address","internalType":"address"}],"outputs":[{"name":"feeAmounts","type":"uint256[]","internalType":"uint256[]"}],"stateMutability":"view"},{"type":"function","name":"getVault","inputs":[],"outputs":[{"name":"","type":"address","internalType":"contract IVault"}],"stateMutability":"view"},{"type":"function","name":"manualSetPoolCreator","inputs":[{"name":"pool","type":"address","internalType":"address"},{"name":"poolCreator","type":"address","internalType":"address"}],"outputs":[],"stateMutability":"nonpayable"},{"type":"function","name":"registerPool","inputs":[{"name":"pool","type":"address","internalType":"address"},{"name":"poolCreator","type":"address","internalType":"address"},{"name":"protocolFeeExempt","type":"bool","internalType":"bool"}],"outputs":[{"name":"aggregateSwapFeePercentage","type":"uint256","internalType":"uint256"},{"name":"aggregateYieldFeePercentage","type":"uint256","internalType":"uint256"}],"stateMutability":"nonpayable"},{"type":"function","name":"setGlobalProtocolSwapFeePercentage","inputs":[{"name":"newProtocolSwapFeePercentage","type":"uint256","internalType":"uint256"}],"outputs":[],"stateMutability":"nonpayable"},{"type":"function","name":"setGlobalProtocolYieldFeePercentage","inputs":[{"name":"newProtocolYieldFeePercentage","type":"uint256","internalType":"uint256"}],"outputs":[],"stateMutability":"nonpayable"},{"type":"function","name":"setPoolCreatorSwapFeePercentage","inputs":[{"name":"pool","type":"address","internalType":"address"},{"name":"poolCreatorSwapFeePercentage","type":"uint256","internalType":"uint256"}],"outputs":[],"stateMutability":"nonpayable"},{"type":"function","name":"setPoolCreatorYieldFeePercentage","inputs":[{"name":"pool","type":"address","internalType":"address"},{"name":"poolCreatorYieldFeePercentage","type":"uint256","internalType":"uint256"}],"outputs":[],"stateMutability":"nonpayable"},{"type":"function","name":"setProtocolSwapFeePercentage","inputs":[{"name":"pool","type":"address","internalType":"address"},{"name":"newProtocolSwapFeePercentage","type":"uint256","internalType":"uint256"}],"outputs":[],"stateMutability":"nonpayable"},{"type":"function","name":"setProtocolYieldFeePercentage","inputs":[{"name":"pool","type":"address","internalType":"address"},{"name":"newProtocolYieldFeePercentage","type":"uint256","internalType":"uint256"}],"outputs":[],"stateMutability":"nonpayable"},{"type":"function","name":"updateProtocolSwapFeePercentage","inputs":[{"name":"pool","type":"address","internalType":"address"}],"outputs":[],"stateMutability":"nonpayable"},{"type":"function","name":"updateProtocolYieldFeePercentage","inputs":[{"name":"pool","type":"address","internalType":"address"}],"outputs":[],"stateMutability":"nonpayable"},{"type":"function","name":"vault","inputs":[],"outputs":[{"name":"","type":"address","internalType":"contract IVault"}],"stateMutability":"view"},{"type":"function","name":"withdrawPoolCreatorFees","inputs":[{"name":"pool","type":"address","internalType":"address"}],"outputs":[],"stateMutability":"nonpayable"},{"type":"function","name":"withdrawPoolCreatorFees","inputs":[{"name":"pool","type":"address","internalType":"address"},{"name":"recipient","type":"address","internalType":"address"}],"outputs":[],"stateMutability":"nonpayable"},{"type":"function","name":"withdrawProtocolFees","inputs":[{"name":"pool","type":"address","internalType":"address"},{"name":"recipient","type":"address","internalType":"address"}],"outputs":[],"stateMutability":"nonpayable"},{"type":"event","name":"GlobalProtocolSwapFeePercentageChanged","inputs":[{"name":"swapFeePercentage","type":"uint256","indexed":false,"internalType":"uint256"}],"anonymous":false},{"type":"event","name":"GlobalProtocolYieldFeePercentageChanged","inputs":[{"name":"yieldFeePercentage","type":"uint256","indexed":false,"internalType":"uint256"}],"anonymous":false},{"type":"event","name":"PoolCreatorFeesWithdrawn","inputs":[{"name":"pool","type":"address","indexed":true,"internalType":"address"},{"name":"token","type":"address","indexed":true,"internalType":"contract IERC20"},{"name":"recipient","type":"address","indexed":true,"internalType":"address"},{"name":"amount","type":"uint256","indexed":false,"internalType":"uint256"}],"anonymous":false},{"type":"event","name":"PoolCreatorSwapFeePercentageChanged","inputs":[{"name":"pool","type":"address","indexed":true,"internalType":"address"},{"name":"poolCreatorSwapFeePercentage","type":"uint256","indexed":false,"internalType":"uint256"}],"anonymous":false},{"type":"event","name":"PoolCreatorYieldFeePercentageChanged","inputs":[{"name":"pool","type":"address","indexed":true,"internalType":"address"},{"name":"poolCreatorYieldFeePercentage","type":"uint256","indexed":false,"internalType":"uint256"}],"anonymous":false},{"type":"event","name":"ProtocolFeesWithdrawn","inputs":[{"name":"pool","type":"address","indexed":true,"internalType":"address"},{"name":"token","type":"address","indexed":true,"internalType":"contract IERC20"},{"name":"recipient","type":"address","indexed":true,"internalType":"address"},{"name":"amount","type":"uint256","indexed":false,"internalType":"uint256"}],"anonymous":false},{"type":"event","name":"ProtocolSwapFeeCollected","inputs":[{"name":"pool","type":"address","indexed":true,"internalType":"address"},{"name":"token","type":"address","indexed":true,"internalType":"contract IERC20"},{"name":"amount","type":"uint256","indexed":false,"internalType":"uint256"}],"anonymous":false},{"type":"event","name":"ProtocolSwapFeePercentageChanged","inputs":[{"name":"pool","type":"address","indexed":true,"internalType":"address"},{"name":"swapFeePercentage","type":"uint256","indexed":false,"internalType":"uint256"}],"anonymous":false},{"type":"event","name":"ProtocolYieldFeeCollected","inputs":[{"name":"pool","type":"address","indexed":true,"internalType":"address"},{"name":"token","type":"address","indexed":true,"internalType":"contract IERC20"},{"name":"amount","type":"uint256","indexed":false,"internalType":"uint256"}],"anonymous":false},{"type":"event","name":"ProtocolYieldFeePercentageChanged","inputs":[{"name":"pool","type":"address","indexed":true,"internalType":"address"},{"name":"yieldFeePercentage","type":"uint256","indexed":false,"internalType":"uint256"}],"anonymous":false},{"type":"error","name":"CallerIsNotPoolCreator","inputs":[{"name":"caller","type":"address","internalType":"address"},{"name":"pool","type":"address","internalType":"address"}]},{"type":"error","name":"FeePrecisionTooHigh","inputs":[]},{"type":"error","name":"PoolCreatorFeePercentageTooHigh","inputs":[]},{"type":"error","name":"PoolCreatorNotRegistered","inputs":[{"name":"pool","type":"address","internalType":"address"}]},{"type":"error","name":"ProtocolSwapFeePercentageTooHigh","inputs":[]},{"type":"error","name":"ProtocolYieldFeePercentageTooHigh","inputs":[]},{"type":"error","name":"ReentrancyGuardReentrantCall","inputs":[]},{"type":"error","name":"SafeCastOverflowedUintDowncast","inputs":[{"name":"bits","type":"uint8","internalType":"uint8"},{"name":"value","type":"uint256","internalType":"uint256"}]},{"type":"error","name":"SafeERC20FailedOperation","inputs":[{"name":"token","type":"address","internalType":"address"}]},{"type":"error","name":"SenderIsNotVault","inputs":[{"name":"sender","type":"address","internalType":"address"}]},{"type":"error","name":"SenderNotAllowed","inputs":[]},{"type":"error","name":"ZeroDivision","inputs":[]}],"bytecode":{"object":"0x60e060405234801562000010575f80fd5b50604051620026043803806200260483398101604081905262000033916200004e565b306080526001600160a01b031660a081905260c0526200007d565b5f602082840312156200005f575f80fd5b81516001600160a01b038116811462000076575f80fd5b9392505050565b60805160a05160c051612516620000ee5f395f818161051c01528181610a3801528181610eb60152818161109b0152818161118f015281816113c1015281816114f7015281816115cc015281816117600152611b8b01525f81816103ae0152610c6d01525f61086801526125165ff3fe608060405234801561000f575f80fd5b50600436106101bb575f3560e01c80638d928af8116100f3578063abaa335611610093578063f70614451161006e578063f7061445146104f4578063fa399f2a14610507578063fbfa77cf1461051a578063fd267f3914610540575f80fd5b8063abaa3356146104ad578063cf7b287f146104c0578063f29aaa58146104d3575f80fd5b80639e95f3fd116100ce5780639e95f3fd14610419578063a93df2a41461042c578063aa9fea871461043f578063aaabadc5146104a5575f80fd5b80638d928af8146103ac5780638df44c54146103e65780638f4ab9ca14610406575f80fd5b806371ecc8fb1161015e57806379a2c0ac1161013957806379a2c0ac146102e85780637a2b97dc14610330578063851c1bb3146103865780638a3c5c6914610399575f80fd5b806371ecc8fb146102a657806377ff76e7146102b95780637869ee18146102e1575f80fd5b806352f125f01161019957806352f125f01461020d57806355fb76af146102205780635c15a0b41461022857806371447ea814610293575f80fd5b80630ddd60c6146101bf5780631377c16c146101e55780633af52712146101fa575b5f80fd5b6101d26101cd366004611f84565b610553565b6040519081526020015b60405180910390f35b6101f86101f3366004611fb8565b610567565b005b6101f8610208366004611fb8565b6105b6565b6101f861021b366004611fe2565b6105ff565b6001546101d2565b61027e610236366004611fe2565b6001600160a01b03165f9081526002602090815260409182902082518084019093525467ffffffffffffffff8116808452600160401b90910460ff1615159290910182905291565b604080519283529015156020830152016101dc565b6101f86102a1366004611fe2565b610627565b6101f86102b4366004611fe2565b6106a4565b6102cc6102c7366004612011565b61071c565b604080519283526020830191909152016101dc565b5f546101d2565b6101f86102f6366004612059565b6001600160a01b039182165f908152600460205260409020805473ffffffffffffffffffffffffffffffffffffffff191691909216179055565b61027e61033e366004611fe2565b6001600160a01b03165f9081526003602090815260409182902082518084019093525467ffffffffffffffff8116808452600160401b90910460ff1615159290910182905291565b6101d2610394366004612090565b610865565b6101f86103a73660046120b7565b6108c9565b7f00000000000000000000000000000000000000000000000000000000000000005b6040516001600160a01b0390911681526020016101dc565b6103f96103f4366004611fe2565b610940565b6040516101dc91906120ce565b6101f8610414366004611fe2565b610a23565b6103f9610427366004611fe2565b610b1f565b6101f861043a3660046120b7565b610bfa565b61048061044d366004611fe2565b6001600160a01b039081165f90815260046020908152604080832054600583528184205460069093529220549190921692565b604080516001600160a01b0390941684526020840192909252908201526060016101dc565b6103ce610c6a565b6101f86104bb366004611fb8565b610cf0565b6101f86104ce366004612059565b610d41565b6104e66104e1366004611fe2565b610e44565b6040516101dc929190612111565b6101f8610502366004612059565b610e59565b6101f8610515366004611fe2565b610e72565b7f00000000000000000000000000000000000000000000000000000000000000006103ce565b6101f861054e366004611fb8565b610f31565b5f61055e8383610f82565b90505b92915050565b8161057181610fb2565b81670de0b6b3a764000081111561059a5760405162dc369d60e21b815260040160405180910390fd5b836105a481610a23565b6105af85855f611066565b5050505050565b816105c081610fb2565b81670de0b6b3a76400008111156105e95760405162dc369d60e21b815260040160405180910390fd5b836105f381610a23565b6105af85856001611066565b6001600160a01b038082165f9081526004602052604090205461062491839116611254565b50565b8061063181610a23565b6001600160a01b0382165f9081526003602090815260409182902082518084019093525467ffffffffffffffff81168352600160401b900460ff161580159183018290526001549161068e5750815167ffffffffffffffff168114155b1561069e5761069e84825f61134f565b50505050565b806106ae81610a23565b6001600160a01b0382165f90815260026020908152604080832081518083019092525467ffffffffffffffff81168252600160401b900460ff1615801592820183905292549092909161070c5750815167ffffffffffffffff168114155b1561069e5761069e84825f611486565b5f806107266115c1565b6001600160a01b038581165f908152600460205260409020805473ffffffffffffffffffffffffffffffffffffffff19169186169190911790558261076c575f5461076e565b5f5b91508261077d5760015461077f565b5f5b9050604051806040016040528061079584611627565b67ffffffffffffffff90811682528515156020928301526001600160a01b0388165f908152600283526040908190208451815495909401511515600160401b0268ffffffffffffffffff1990951693909216929092179290921790915580518082019091528061080483611627565b67ffffffffffffffff90811682529415156020918201526001600160a01b039096165f90815260038752604090208151815492909701511515600160401b0268ffffffffffffffffff19909216969094169590951794909417909155929050565b5f7f0000000000000000000000000000000000000000000000000000000000000000826040516020016108ac9291909182526001600160e01b031916602082015260240190565b604051602081830303815290604052805190602001209050919050565b806706f05b59d3b200008111156108f357604051637e6eb7fb60e01b815260040160405180910390fd5b6108fc8161167a565b6109046116cc565b5f8290556040518281527fbf5ac0fc89bbf8819be79f280146b65ea2af2a9705cd9cfe0c9d93f6e87f307d906020015b60405180910390a15050565b60605f8061094d84611723565b915091508067ffffffffffffffff81111561096a5761096a612166565b604051908082528060200260200182016040528015610993578160200160208202803683370190505b5092505f5b81811015610a1b576001600160a01b0385165f90815260076020526040812084519091908590849081106109ce576109ce61217a565b60200260200101516001600160a01b03166001600160a01b031681526020019081526020015f2054848281518110610a0857610a0861217a565b6020908102919091010152600101610998565b505050919050565b6040516001600160a01b0382811660248301527f000000000000000000000000000000000000000000000000000000000000000016906348c894919060440160408051601f198184030181529181526020820180517bffffffffffffffffffffffffffffffffffffffffffffffffffffffff167ffa399f2a00000000000000000000000000000000000000000000000000000000179052516001600160e01b031960e084901b168152610ad991906004016121b0565b5f604051808303815f875af1158015610af4573d5f803e3d5ffd5b505050506040513d5f823e601f3d908101601f19168201604052610b1b9190810190612213565b5050565b60605f80610b2c84611723565b915091508067ffffffffffffffff811115610b4957610b49612166565b604051908082528060200260200182016040528015610b72578160200160208202803683370190505b5092505f5b81811015610a1b576001600160a01b0385165f9081526008602052604081208451909190859084908110610bad57610bad61217a565b60200260200101516001600160a01b03166001600160a01b031681526020019081526020015f2054848281518110610be757610be761217a565b6020908102919091010152600101610b77565b806706f05b59d3b20000811115610c24576040516353c24f4760e11b815260040160405180910390fd5b610c2d8161167a565b610c356116cc565b60018290556040518281527f48c5c3ccec54c4e0ea08d83d838fa9bb725eb0b52c591cb00bd6e63bca8c44f690602001610934565b5f7f00000000000000000000000000000000000000000000000000000000000000006001600160a01b031663aaabadc56040518163ffffffff1660e01b8152600401602060405180830381865afa158015610cc7573d5f803e3d5ffd5b505050506040513d601f19601f82011682018060405250810190610ceb91906122a2565b905090565b610cf86116cc565b806706f05b59d3b20000811115610d22576040516353c24f4760e11b815260040160405180910390fd5b610d2b8161167a565b82610d3581610a23565b61069e8484600161134f565b610d496116cc565b5f80610d5484611723565b915091505f5b818110156105af575f838281518110610d7557610d7561217a565b6020908102919091018101516001600160a01b038089165f908152600784526040808220928416825291909352909120549091508015610e3a576001600160a01b038088165f90815260076020908152604080832093861680845293909152812055610de29087836117d6565b856001600160a01b0316826001600160a01b0316886001600160a01b03167f1c2887fcb98f75e66bb9a36311f2d3d22fb204e6362106f30e9df7eaf63131b584604051610e3191815260200190565b60405180910390a45b5050600101610d5a565b60605f610e5083611723565b91509150915091565b81610e6381610fb2565b610e6d8383611254565b505050565b610e7a6115c1565b6040517f8f4ab9ca0000000000000000000000000000000000000000000000000000000081526001600160a01b0382811660048301525f9182917f00000000000000000000000000000000000000000000000000000000000000001690638f4ab9ca906024015f604051808303815f875af1158015610efb573d5f803e3d5ffd5b505050506040513d5f823e601f3d908101601f19168201604052610f22919081019061234c565b91509150610e6d838383611856565b610f396116cc565b806706f05b59d3b20000811115610f6357604051637e6eb7fb60e01b815260040160405180910390fd5b610f6c8161167a565b82610f7681610a23565b61069e84846001611486565b5f610f9d82670de0b6b3a7640000858103908610029061186d565b610fa790846123c0565b90506105618161167a565b6001600160a01b038082165f908152600460205260409020541680611013576040517f8bcbf3530000000000000000000000000000000000000000000000000000000081526001600160a01b03831660048201526024015b60405180910390fd5b6001600160a01b0381163314610b1b576040517ffbecdbf40000000000000000000000000000000000000000000000000000000081523360048201526001600160a01b038316602482015260440161100a565b5f816001811115611079576110796123d3565b03611172576001600160a01b038084165f9081526005602052604081208490557f000000000000000000000000000000000000000000000000000000000000000090911690635e0b06f49085906110d1908290611895565b6040516001600160e01b031960e085901b1681526001600160a01b03909216600483015260248201526044015f604051808303815f87803b158015611114575f80fd5b505af1158015611126573d5f803e3d5ffd5b50505050826001600160a01b03167fb7cf36369623c01ed7b2eafc4025224e924a2836d5fb49428a0f65417586bf5c8360405161116591815260200190565b60405180910390a2505050565b6001600160a01b038084165f9081526006602052604090208390557f00000000000000000000000000000000000000000000000000000000000000001663e253670a846111c0816001611895565b6040516001600160e01b031960e085901b1681526001600160a01b03909216600483015260248201526044015f604051808303815f87803b158015611203575f80fd5b505af1158015611215573d5f803e3d5ffd5b50505050826001600160a01b03167f47f70ddbc624c299cef7841aaea0a86b677c800203e953104e958c9ec9bdab348360405161116591815260200190565b5f8061125f84611723565b915091505f5b818110156105af575f8382815181106112805761128061217a565b6020908102919091018101516001600160a01b038089165f908152600884526040808220928416825291909352909120549091508015611345576001600160a01b038088165f908152600860209081526040808320938616808452939091528120556112ed9087836117d6565b856001600160a01b0316826001600160a01b0316886001600160a01b03167f938f3a3a03ee425ccc0f8010b0468938cbafd3750fa43bbdf09c6f75e97e51f98460405161133c91815260200190565b60405180910390a45b5050600101611265565b604051806040016040528061136384611627565b67ffffffffffffffff90811682528315156020928301526001600160a01b038087165f90815260038452604090208451815495909401511515600160401b0268ffffffffffffffffff199095169390921692909217929092179091557f00000000000000000000000000000000000000000000000000000000000000001663e253670a846113f2816001611895565b6040516001600160e01b031960e085901b1681526001600160a01b03909216600483015260248201526044015f604051808303815f87803b158015611435575f80fd5b505af1158015611447573d5f803e3d5ffd5b50505050826001600160a01b03167faf47449d1c3597ccc9f5ec3acad03cef57aa90a719000441b320687087948efd8360405161116591815260200190565b604051806040016040528061149a84611627565b67ffffffffffffffff90811682528315156020928301526001600160a01b038087165f90815260028452604081208551815496909501511515600160401b0268ffffffffffffffffff1990961694909316939093179390931790557f000000000000000000000000000000000000000000000000000000000000000090911690635e0b06f490859061152d908290611895565b6040516001600160e01b031960e085901b1681526001600160a01b03909216600483015260248201526044015f604051808303815f87803b158015611570575f80fd5b505af1158015611582573d5f803e3d5ffd5b50505050826001600160a01b03167f97cff4b6e6d80e307faab8b730d9f69264e860f2e0e10cfb8cdaf8a2f44e839e8360405161116591815260200190565b336001600160a01b037f00000000000000000000000000000000000000000000000000000000000000001614611625576040517f089676d500000000000000000000000000000000000000000000000000000000815233600482015260240161100a565b565b5f67ffffffffffffffff82111561167657604080517f6dfcc65000000000000000000000000000000000000000000000000000000000815260048101919091526024810183905260440161100a565b5090565b8064174876e80061168b81836123e7565b6116959190612406565b14610624576040517f833fb3ce00000000000000000000000000000000000000000000000000000000815260040160405180910390fd5b5f6116e15f356001600160e01b031916610865565b90506116ed813361192f565b610624576040517f23dada5300000000000000000000000000000000000000000000000000000000815260040160405180910390fd5b6040517fca4f28030000000000000000000000000000000000000000000000000000000081526001600160a01b0382811660048301526060915f917f0000000000000000000000000000000000000000000000000000000000000000169063ca4f2803906024015f60405180830381865afa1580156117a4573d5f803e3d5ffd5b505050506040513d5f823e601f3d908101601f191682016040526117cb919081019061241d565b915081519050915091565b604080516001600160a01b038416602482015260448082018490528251808303909101815260649091019091526020810180517bffffffffffffffffffffffffffffffffffffffffffffffffffffffff167fa9059cbb00000000000000000000000000000000000000000000000000000000179052610e6d9084906119c8565b611861835f84611a4d565b610e6d83600183611a4d565b5f806118798385612406565b905061188d670de0b6b3a7640000826123e7565b949350505050565b5f8080808460018111156118ab576118ab6123d3565b036118e85750506001600160a01b0383165f9081526002602090815260408083205460059092529091205467ffffffffffffffff9091169061191c565b50506001600160a01b0383165f9081526003602090815260408083205460069092529091205467ffffffffffffffff909116905b6119268282610f82565b95945050505050565b5f611938610c6a565b6040517f9be2a884000000000000000000000000000000000000000000000000000000008152600481018590526001600160a01b0384811660248301523060448301529190911690639be2a88490606401602060405180830381865afa1580156119a4573d5f803e3d5ffd5b505050506040513d601f19601f8201168201806040525081019061055e91906124b2565b5f8060205f8451602086015f885af1806119e7576040513d5f823e3d81fd5b50505f513d915081156119fe578060011415611a0b565b6001600160a01b0384163b155b1561069e576040517f5274afe70000000000000000000000000000000000000000000000000000000081526001600160a01b038516600482015260240161100a565b5f80836001811115611a6157611a616123d3565b14611a8d576001600160a01b0384165f9081526003602052604090205467ffffffffffffffff16611ab0565b6001600160a01b0384165f9081526002602052604090205467ffffffffffffffff165b67ffffffffffffffff1690505f80846001811115611ad057611ad06123d3565b14611af2576001600160a01b0385165f90815260066020526040902054611b0b565b6001600160a01b0385165f908152600560205260409020545b90505f805f83118015611b1d57505f84115b90508015611b3257611b2f8484610f82565b91505b5f80611b3d89611723565b915091505f5b81811015611eda575f888281518110611b5e57611b5e61217a565b60200260200101511115611ed2575f838281518110611b7f57611b7f61217a565b602002602001015190507f00000000000000000000000000000000000000000000000000000000000000006001600160a01b031663ae63932982308c8681518110611bcc57611bcc61217a565b60209081029190910101516040516001600160e01b031960e086901b1681526001600160a01b03938416600482015292909116602483015260448201526064015f604051808303815f87803b158015611c23575f80fd5b505af1158015611c35573d5f803e3d5ffd5b505f9250611c41915050565b8a6001811115611c5357611c536123d3565b03611cc357806001600160a01b03168b6001600160a01b03167fae7ebad9fc3d1d17965f063fa520d393595e2ef6c8e22ae8413b60900444e19f8b8581518110611c9f57611c9f61217a565b6020026020010151604051611cb691815260200190565b60405180910390a3611d2a565b806001600160a01b03168b6001600160a01b03167fe505e41b0d437b47350a9990142ccf38acb11ffa0e5af8f973b9e172f3d5d5e28b8581518110611d0a57611d0a61217a565b6020026020010151604051611d2191815260200190565b60405180910390a35b8415611e14575f611d5d878b8581518110611d4757611d4761217a565b6020026020010151611ee690919063ffffffff16565b90505f611d6a828b611efa565b6001600160a01b03808f165f908152600760209081526040808320938816835292905290812080549293508392909190611da59084906123c0565b92505081905550808b8581518110611dbf57611dbf61217a565b6020026020010151611dd191906124cd565b6001600160a01b03808f165f90815260086020908152604080832093881683529290529081208054909190611e079084906123c0565b90915550611ed092505050565b865f03611e7857888281518110611e2d57611e2d61217a565b6020908102919091018101516001600160a01b03808e165f9081526007845260408082209286168252919093528220805491929091611e6d9084906123c0565b90915550611ed09050565b888281518110611e8a57611e8a61217a565b6020908102919091018101516001600160a01b03808e165f9081526008845260408082209286168252919093528220805491929091611eca9084906123c0565b90915550505b505b600101611b43565b50505050505050505050565b5f61055e83670de0b6b3a764000084611f26565b5f80611f068385612406565b90506001670de0b6b3a76400006001830304018115150291505092915050565b5f815f03611f60576040517f0a0c22c700000000000000000000000000000000000000000000000000000000815260040160405180910390fd5b5f611f6b8486612406565b9050600183600183030401811515029150509392505050565b5f8060408385031215611f95575f80fd5b50508035926020909101359150565b6001600160a01b0381168114610624575f80fd5b5f8060408385031215611fc9575f80fd5b8235611fd481611fa4565b946020939093013593505050565b5f60208284031215611ff2575f80fd5b8135611ffd81611fa4565b9392505050565b8015158114610624575f80fd5b5f805f60608486031215612023575f80fd5b833561202e81611fa4565b9250602084013561203e81611fa4565b9150604084013561204e81612004565b809150509250925092565b5f806040838503121561206a575f80fd5b823561207581611fa4565b9150602083013561208581611fa4565b809150509250929050565b5f602082840312156120a0575f80fd5b81356001600160e01b031981168114611ffd575f80fd5b5f602082840312156120c7575f80fd5b5035919050565b602080825282518282018190525f9190848201906040850190845b81811015612105578351835292840192918401916001016120e9565b50909695505050505050565b604080825283519082018190525f906020906060840190828701845b828110156121525781516001600160a01b03168452928401929084019060010161212d565b505050602093909301939093525092915050565b634e487b7160e01b5f52604160045260245ffd5b634e487b7160e01b5f52603260045260245ffd5b5f5b838110156121a8578181015183820152602001612190565b50505f910152565b602081525f82518060208401526121ce81604085016020870161218e565b601f01601f19169190910160400192915050565b604051601f8201601f1916810167ffffffffffffffff8111828210171561220b5761220b612166565b604052919050565b5f60208284031215612223575f80fd5b815167ffffffffffffffff8082111561223a575f80fd5b818401915084601f83011261224d575f80fd5b81518181111561225f5761225f612166565b612272601f8201601f19166020016121e2565b9150808252856020828501011115612288575f80fd5b61229981602084016020860161218e565b50949350505050565b5f602082840312156122b2575f80fd5b8151611ffd81611fa4565b5f67ffffffffffffffff8211156122d6576122d6612166565b5060051b60200190565b5f82601f8301126122ef575f80fd5b815160206123046122ff836122bd565b6121e2565b8083825260208201915060208460051b870101935086841115612325575f80fd5b602086015b84811015612341578051835291830191830161232a565b509695505050505050565b5f806040838503121561235d575f80fd5b825167ffffffffffffffff80821115612374575f80fd5b612380868387016122e0565b93506020850151915080821115612395575f80fd5b506123a2858286016122e0565b9150509250929050565b634e487b7160e01b5f52601160045260245ffd5b80820180821115610561576105616123ac565b634e487b7160e01b5f52602160045260245ffd5b5f8261240157634e487b7160e01b5f52601260045260245ffd5b500490565b8082028115828204841417610561576105616123ac565b5f602080838503121561242e575f80fd5b825167ffffffffffffffff811115612444575f80fd5b8301601f81018513612454575f80fd5b80516124626122ff826122bd565b81815260059190911b82018301908381019087831115612480575f80fd5b928401925b828410156124a757835161249881611fa4565b82529284019290840190612485565b979650505050505050565b5f602082840312156124c2575f80fd5b8151611ffd81612004565b81810381811115610561576105616123ac56fea2646970667358221220a6b25080cf68a7b6bb14a58edce0ef610ffa3e6ff2aa668bf153af665afd3c6764736f6c63430008180033","linkReferences":{}},"methodIdentifiers":{"collectAggregateFees(address)":"8f4ab9ca","collectAggregateFeesHook(address)":"fa399f2a","computeAggregateFeePercentage(uint256,uint256)":"0ddd60c6","getActionId(bytes4)":"851c1bb3","getAuthorizer()":"aaabadc5","getGlobalProtocolSwapFeePercentage()":"7869ee18","getGlobalProtocolYieldFeePercentage()":"55fb76af","getPoolCreatorFeeAmounts(address)":"9e95f3fd","getPoolCreatorInfo(address)":"aa9fea87","getPoolProtocolSwapFeeInfo(address)":"5c15a0b4","getPoolProtocolYieldFeeInfo(address)":"7a2b97dc","getPoolTokensAndCount(address)":"f29aaa58","getProtocolFeeAmounts(address)":"8df44c54","getVault()":"8d928af8","manualSetPoolCreator(address,address)":"79a2c0ac","registerPool(address,address,bool)":"77ff76e7","setGlobalProtocolSwapFeePercentage(uint256)":"8a3c5c69","setGlobalProtocolYieldFeePercentage(uint256)":"a93df2a4","setPoolCreatorSwapFeePercentage(address,uint256)":"1377c16c","setPoolCreatorYieldFeePercentage(address,uint256)":"3af52712","setProtocolSwapFeePercentage(address,uint256)":"fd267f39","setProtocolYieldFeePercentage(address,uint256)":"abaa3356","updateProtocolSwapFeePercentage(address)":"71ecc8fb","updateProtocolYieldFeePercentage(address)":"71447ea8","vault()":"fbfa77cf","withdrawPoolCreatorFees(address)":"52f125f0","withdrawPoolCreatorFees(address,address)":"f7061445","withdrawProtocolFees(address,address)":"cf7b287f"},"id":117}