{"abi":[{"type":"constructor","inputs":[{"name":"vault","type":"address","internalType":"contract IVault"},{"name":"weth","type":"address","internalType":"contract IWETH"},{"name":"permit2","type":"address","internalType":"contract IPermit2"}],"stateMutability":"nonpayable"},{"type":"receive","stateMutability":"payable"},{"type":"function","name":"addLiquidityERC4626PoolProportionalHook","inputs":[{"name":"params","type":"tuple","internalType":"struct IRouterCommon.AddLiquidityHookParams","components":[{"name":"sender","type":"address","internalType":"address"},{"name":"pool","type":"address","internalType":"address"},{"name":"maxAmountsIn","type":"uint256[]","internalType":"uint256[]"},{"name":"minBptAmountOut","type":"uint256","internalType":"uint256"},{"name":"kind","type":"uint8","internalType":"enum AddLiquidityKind"},{"name":"wethIsEth","type":"bool","internalType":"bool"},{"name":"userData","type":"bytes","internalType":"bytes"}]}],"outputs":[{"name":"underlyingAmountsIn","type":"uint256[]","internalType":"uint256[]"}],"stateMutability":"nonpayable"},{"type":"function","name":"addLiquidityERC4626PoolUnbalancedHook","inputs":[{"name":"params","type":"tuple","internalType":"struct IRouterCommon.AddLiquidityHookParams","components":[{"name":"sender","type":"address","internalType":"address"},{"name":"pool","type":"address","internalType":"address"},{"name":"maxAmountsIn","type":"uint256[]","internalType":"uint256[]"},{"name":"minBptAmountOut","type":"uint256","internalType":"uint256"},{"name":"kind","type":"uint8","internalType":"enum AddLiquidityKind"},{"name":"wethIsEth","type":"bool","internalType":"bool"},{"name":"userData","type":"bytes","internalType":"bytes"}]}],"outputs":[{"name":"bptAmountOut","type":"uint256","internalType":"uint256"}],"stateMutability":"nonpayable"},{"type":"function","name":"addLiquidityProportionalToERC4626Pool","inputs":[{"name":"pool","type":"address","internalType":"address"},{"name":"maxUnderlyingAmountsIn","type":"uint256[]","internalType":"uint256[]"},{"name":"exactBptAmountOut","type":"uint256","internalType":"uint256"},{"name":"wethIsEth","type":"bool","internalType":"bool"},{"name":"userData","type":"bytes","internalType":"bytes"}],"outputs":[{"name":"underlyingAmountsIn","type":"uint256[]","internalType":"uint256[]"}],"stateMutability":"payable"},{"type":"function","name":"addLiquidityUnbalancedNestedPool","inputs":[{"name":"parentPool","type":"address","internalType":"address"},{"name":"tokensIn","type":"address[]","internalType":"address[]"},{"name":"exactAmountsIn","type":"uint256[]","internalType":"uint256[]"},{"name":"minBptAmountOut","type":"uint256","internalType":"uint256"},{"name":"userData","type":"bytes","internalType":"bytes"}],"outputs":[{"name":"","type":"uint256","internalType":"uint256"}],"stateMutability":"nonpayable"},{"type":"function","name":"addLiquidityUnbalancedNestedPoolHook","inputs":[{"name":"params","type":"tuple","internalType":"struct IRouterCommon.AddLiquidityHookParams","components":[{"name":"sender","type":"address","internalType":"address"},{"name":"pool","type":"address","internalType":"address"},{"name":"maxAmountsIn","type":"uint256[]","internalType":"uint256[]"},{"name":"minBptAmountOut","type":"uint256","internalType":"uint256"},{"name":"kind","type":"uint8","internalType":"enum AddLiquidityKind"},{"name":"wethIsEth","type":"bool","internalType":"bool"},{"name":"userData","type":"bytes","internalType":"bytes"}]},{"name":"tokensIn","type":"address[]","internalType":"address[]"}],"outputs":[{"name":"exactBptAmountOut","type":"uint256","internalType":"uint256"}],"stateMutability":"nonpayable"},{"type":"function","name":"addLiquidityUnbalancedToERC4626Pool","inputs":[{"name":"pool","type":"address","internalType":"address"},{"name":"exactUnderlyingAmountsIn","type":"uint256[]","internalType":"uint256[]"},{"name":"minBptAmountOut","type":"uint256","internalType":"uint256"},{"name":"wethIsEth","type":"bool","internalType":"bool"},{"name":"userData","type":"bytes","internalType":"bytes"}],"outputs":[{"name":"bptAmountOut","type":"uint256","internalType":"uint256"}],"stateMutability":"payable"},{"type":"function","name":"getSender","inputs":[],"outputs":[{"name":"","type":"address","internalType":"address"}],"stateMutability":"view"},{"type":"function","name":"multicall","inputs":[{"name":"data","type":"bytes[]","internalType":"bytes[]"}],"outputs":[{"name":"results","type":"bytes[]","internalType":"bytes[]"}],"stateMutability":"payable"},{"type":"function","name":"permitBatchAndCall","inputs":[{"name":"permitBatch","type":"tuple[]","internalType":"struct IRouterCommon.PermitApproval[]","components":[{"name":"token","type":"address","internalType":"address"},{"name":"owner","type":"address","internalType":"address"},{"name":"spender","type":"address","internalType":"address"},{"name":"amount","type":"uint256","internalType":"uint256"},{"name":"nonce","type":"uint256","internalType":"uint256"},{"name":"deadline","type":"uint256","internalType":"uint256"}]},{"name":"permitSignatures","type":"bytes[]","internalType":"bytes[]"},{"name":"permit2Batch","type":"tuple","internalType":"struct IAllowanceTransfer.PermitBatch","components":[{"name":"details","type":"tuple[]","internalType":"struct IAllowanceTransfer.PermitDetails[]","components":[{"name":"token","type":"address","internalType":"address"},{"name":"amount","type":"uint160","internalType":"uint160"},{"name":"expiration","type":"uint48","internalType":"uint48"},{"name":"nonce","type":"uint48","internalType":"uint48"}]},{"name":"spender","type":"address","internalType":"address"},{"name":"sigDeadline","type":"uint256","internalType":"uint256"}]},{"name":"permit2Signature","type":"bytes","internalType":"bytes"},{"name":"multicallData","type":"bytes[]","internalType":"bytes[]"}],"outputs":[{"name":"results","type":"bytes[]","internalType":"bytes[]"}],"stateMutability":"payable"},{"type":"function","name":"queryAddLiquidityProportionalToERC4626Pool","inputs":[{"name":"pool","type":"address","internalType":"address"},{"name":"exactBptAmountOut","type":"uint256","internalType":"uint256"},{"name":"userData","type":"bytes","internalType":"bytes"}],"outputs":[{"name":"underlyingAmountsIn","type":"uint256[]","internalType":"uint256[]"}],"stateMutability":"nonpayable"},{"type":"function","name":"queryAddLiquidityUnbalancedNestedPool","inputs":[{"name":"parentPool","type":"address","internalType":"address"},{"name":"tokensIn","type":"address[]","internalType":"address[]"},{"name":"exactAmountsIn","type":"uint256[]","internalType":"uint256[]"},{"name":"userData","type":"bytes","internalType":"bytes"}],"outputs":[{"name":"","type":"uint256","internalType":"uint256"}],"stateMutability":"nonpayable"},{"type":"function","name":"queryAddLiquidityUnbalancedToERC4626Pool","inputs":[{"name":"pool","type":"address","internalType":"address"},{"name":"exactUnderlyingAmountsIn","type":"uint256[]","internalType":"uint256[]"},{"name":"userData","type":"bytes","internalType":"bytes"}],"outputs":[{"name":"bptAmountOut","type":"uint256","internalType":"uint256"}],"stateMutability":"nonpayable"},{"type":"function","name":"queryRemoveLiquidityProportionalFromERC4626Pool","inputs":[{"name":"pool","type":"address","internalType":"address"},{"name":"exactBptAmountIn","type":"uint256","internalType":"uint256"},{"name":"userData","type":"bytes","internalType":"bytes"}],"outputs":[{"name":"underlyingAmountsOut","type":"uint256[]","internalType":"uint256[]"}],"stateMutability":"nonpayable"},{"type":"function","name":"queryRemoveLiquidityProportionalNestedPool","inputs":[{"name":"parentPool","type":"address","internalType":"address"},{"name":"exactBptAmountIn","type":"uint256","internalType":"uint256"},{"name":"tokensOut","type":"address[]","internalType":"address[]"},{"name":"userData","type":"bytes","internalType":"bytes"}],"outputs":[{"name":"amountsOut","type":"uint256[]","internalType":"uint256[]"}],"stateMutability":"nonpayable"},{"type":"function","name":"removeLiquidityERC4626PoolProportionalHook","inputs":[{"name":"params","type":"tuple","internalType":"struct IRouterCommon.RemoveLiquidityHookParams","components":[{"name":"sender","type":"address","internalType":"address"},{"name":"pool","type":"address","internalType":"address"},{"name":"minAmountsOut","type":"uint256[]","internalType":"uint256[]"},{"name":"maxBptAmountIn","type":"uint256","internalType":"uint256"},{"name":"kind","type":"uint8","internalType":"enum RemoveLiquidityKind"},{"name":"wethIsEth","type":"bool","internalType":"bool"},{"name":"userData","type":"bytes","internalType":"bytes"}]}],"outputs":[{"name":"underlyingAmountsOut","type":"uint256[]","internalType":"uint256[]"}],"stateMutability":"nonpayable"},{"type":"function","name":"removeLiquidityProportionalFromERC4626Pool","inputs":[{"name":"pool","type":"address","internalType":"address"},{"name":"exactBptAmountIn","type":"uint256","internalType":"uint256"},{"name":"minUnderlyingAmountsOut","type":"uint256[]","internalType":"uint256[]"},{"name":"wethIsEth","type":"bool","internalType":"bool"},{"name":"userData","type":"bytes","internalType":"bytes"}],"outputs":[{"name":"underlyingAmountsOut","type":"uint256[]","internalType":"uint256[]"}],"stateMutability":"payable"},{"type":"function","name":"removeLiquidityProportionalNestedPool","inputs":[{"name":"parentPool","type":"address","internalType":"address"},{"name":"exactBptAmountIn","type":"uint256","internalType":"uint256"},{"name":"tokensOut","type":"address[]","internalType":"address[]"},{"name":"minAmountsOut","type":"uint256[]","internalType":"uint256[]"},{"name":"userData","type":"bytes","internalType":"bytes"}],"outputs":[{"name":"amountsOut","type":"uint256[]","internalType":"uint256[]"}],"stateMutability":"nonpayable"},{"type":"function","name":"removeLiquidityProportionalNestedPoolHook","inputs":[{"name":"params","type":"tuple","internalType":"struct IRouterCommon.RemoveLiquidityHookParams","components":[{"name":"sender","type":"address","internalType":"address"},{"name":"pool","type":"address","internalType":"address"},{"name":"minAmountsOut","type":"uint256[]","internalType":"uint256[]"},{"name":"maxBptAmountIn","type":"uint256","internalType":"uint256"},{"name":"kind","type":"uint8","internalType":"enum RemoveLiquidityKind"},{"name":"wethIsEth","type":"bool","internalType":"bool"},{"name":"userData","type":"bytes","internalType":"bytes"}]},{"name":"tokensOut","type":"address[]","internalType":"address[]"}],"outputs":[{"name":"amountsOut","type":"uint256[]","internalType":"uint256[]"}],"stateMutability":"nonpayable"},{"type":"error","name":"AddressEmptyCode","inputs":[{"name":"target","type":"address","internalType":"address"}]},{"type":"error","name":"AmountOutBelowMin","inputs":[{"name":"tokenOut","type":"address","internalType":"contract IERC20"},{"name":"amountOut","type":"uint256","internalType":"uint256"},{"name":"minAmountOut","type":"uint256","internalType":"uint256"}]},{"type":"error","name":"ElementNotFound","inputs":[]},{"type":"error","name":"EthTransfer","inputs":[]},{"type":"error","name":"FailedCall","inputs":[]},{"type":"error","name":"InputLengthMismatch","inputs":[]},{"type":"error","name":"InsufficientBalance","inputs":[{"name":"balance","type":"uint256","internalType":"uint256"},{"name":"needed","type":"uint256","internalType":"uint256"}]},{"type":"error","name":"InsufficientEth","inputs":[]},{"type":"error","name":"ReentrancyGuardReentrantCall","inputs":[]},{"type":"error","name":"SafeCastOverflowedUintDowncast","inputs":[{"name":"bits","type":"uint8","internalType":"uint8"},{"name":"value","type":"uint256","internalType":"uint256"}]},{"type":"error","name":"SafeERC20FailedOperation","inputs":[{"name":"token","type":"address","internalType":"address"}]},{"type":"error","name":"SenderIsNotVault","inputs":[{"name":"sender","type":"address","internalType":"address"}]},{"type":"error","name":"SwapDeadline","inputs":[]},{"type":"error","name":"TransientIndexOutOfBounds","inputs":[]},{"type":"error","name":"WrongTokensOut","inputs":[{"name":"expectedTokensOut","type":"address[]","internalType":"address[]"},{"name":"tokensOut","type":"address[]","internalType":"address[]"}]}],"bytecode":{"object":"0x600c6101c09081526b2937baba32b921b7b6b6b7b760a11b6101e05261024060405260066102009081526539b2b73232b960d11b610220526200004391906200023c565b60a052604080518082018252600c81526b2937baba32b921b7b6b6b7b760a11b602080830191909152825180840190935260118352701a5cd4995d1d5c9b915d1a131bd8dad959607a1b908301526200009c916200023c565b60c05260408051808201909152601381527f63757272656e7453776170546f6b656e73496e000000000000000000000000006020820152620000de90620002b0565b6101205260408051808201909152601481527f63757272656e7453776170546f6b656e734f757400000000000000000000000060208201526200012190620002b0565b6101405260408051808201909152601981527f63757272656e7453776170546f6b656e496e416d6f756e74730000000000000060208201526200016490620002b0565b6101605260408051808201909152601a81527f63757272656e7453776170546f6b656e4f7574416d6f756e74730000000000006020820152620001a790620002b0565b6101805260408051808201909152601381527f736574746c6564546f6b656e416d6f756e7473000000000000000000000000006020820152620001ea90620002b0565b6101a052348015620001fa575f80fd5b506040516200685b3803806200685b8339810160408190526200021d9162000304565b6001600160a01b0392831660805290821660e0521661010052620003f6565b5f60ff5f1b19600184846040516020016200025992919062000384565b604051602081830303815290604052805190602001205f1c6200027d9190620003d6565b6040516020016200029091815260200190565b604051602081830303815290604052805190602001201690505b92915050565b5f620002aa604051806040016040526011815280602001702130ba31b42937baba32b921b7b6b6b7b760791b815250836200023c60201b60201c565b6001600160a01b038116811462000301575f80fd5b50565b5f805f6060848603121562000317575f80fd5b83516200032481620002ec565b60208501519093506200033781620002ec565b60408501519092506200034a81620002ec565b809150509250925092565b5f81515f5b818110156200037657602081850181015186830152016200035a565b505f93019283525090919050565b7f62616c616e6365722d6c6162732e76332e73746f726167652e0000000000000081525f620003b7601983018562000355565b601760f91b8152620003cd600182018562000355565b95945050505050565b81810381811115620002aa57634e487b7160e01b5f52601160045260245ffd5b60805160a05160c05160e05161010051610120516101405161016051610180516101a051616190620006cb5f395f50505f8181612c9b0152818161302901528181613fd40152818161400501526144a301525f8181610efc0152818161129c015281816113ec01528181613ab701528181613b1901528181613b6101528181613c1501528181613d2401528181613d4f01528181613ef10152613f2201525f8181612c5301528181612d8301528181612dcf01528181612dfd01528181612f0101528181612f4d01528181612fa101528181613e7b01528181613fa30152818161402f015261447701525f81816115c901528181613e4f01528181613ebe0152613f4c01525f8181610594015261492301525f8181610136015281816141430152818161422c0152818161472b015281816147a00152818161481a015261487c01525f8181611b7e01528181611c8a01526140f101525f818161026501528181611cb3015281816132670152818161329b015261330f01525f818161062f01528181610794015281816108c201528181610a8901528181610c0e01528181610cfb01528181610f3901528181611002015281816110c00152818161113e01528181611187015281816112e4015281816113760152818161143c01528181611674015281816117a60152818161193f01528181611a3601528181611d2201528181611e0e01528181611ee101528181611fee015281816120d8015281816122c6015281816123e4015281816125710152818161262e015281816127f00152818161288f0152818161295d015281816129ce01528181612b8801528181612cf401528181613191015281816133c7015281816134ff015281816136c10152818161382001528181613a1201528181613c4d01528181613d99015281816141a8015281816142d40152818161433f0152818161462c0152818161483e015281816148ab015281816149530152614a0a01526161905ff3fe608060405260043610610126575f3560e01c80638c4ec19e116100a1578063dd55a29411610071578063e9c9083811610057578063e9c908381461037e578063f4f1cdee1461039d578063ff0353c8146103bc575f80fd5b8063dd55a29414610340578063e13230131461035f575f80fd5b80638c4ec19e146102dc57806398f3b18c146102fb578063ac9650d81461030e578063cb25ee6514610321575f80fd5b8063560561d0116100f65780635e01eb5a116100dc5780635e01eb5a1461024c5780636dcf1366146102905780637251d34e146102bd575f80fd5b8063560561d01461021a5780635aaeaac51461022d575f80fd5b806319c6989f1461019357806338947f0b146101bc5780634b35fab4146101dc57806350965993146101fb575f80fd5b3661018f57336001600160a01b037f0000000000000000000000000000000000000000000000000000000000000000161461018d576040517f0540ddf600000000000000000000000000000000000000000000000000000000815260040160405180910390fd5b005b5f80fd5b6101a66101a1366004614f88565b6103db565b6040516101b391906150b5565b60405180910390f35b6101cf6101ca36600461528b565b610620565b6040516101b39190615354565b3480156101e7575f80fd5b506101cf6101f6366004615376565b610777565b348015610206575f80fd5b506101cf6102153660046153b0565b610a7a565b6101cf610228366004615405565b610bff565b348015610238575f80fd5b506101cf6102473660046154ca565b610cec565b348015610257575f80fd5b506040516001600160a01b037f00000000000000000000000000000000000000000000000000000000000000005c1681526020016101b3565b34801561029b575f80fd5b506102af6102aa366004615545565b610e7c565b6040519081526020016101b3565b3480156102c8575f80fd5b506102af6102d7366004615376565b611658565b3480156102e7575f80fd5b506102af6102f63660046155a5565b611907565b6102af610309366004615405565b611a28565b6101a661031c36600461560c565b611b6a565b34801561032c575f80fd5b506101cf61033b36600461564b565b611ce8565b34801561034b575f80fd5b506102af61035a3660046156cf565b611dd5565b34801561036a575f80fd5b506102af610379366004615753565b611ea9565b348015610389575f80fd5b506101cf610398366004615376565b611fd1565b3480156103a8575f80fd5b506101cf6103b7366004615545565b612554565b3480156103c7575f80fd5b506101cf6103d63660046153b0565b613182565b60605f6103e6613264565b90505f5b8a811015610550575f8a8a83818110610405576104056157ba565b905060200281019061041791906157ce565b8080601f0160208091040260200160405190810160405280939291908181526020018383808284375f92018290525093945061045892508491506132c89050565b90505f8e8e8581811061046d5761046d6157ba565b905060c002018036038101906104839190615811565b8051602080830151606084015160a08501516040808901518951958a015191517fd505accf0000000000000000000000000000000000000000000000000000000081526001600160a01b0395861660048201523060248201526044810194909452606484019290925260ff909116608483015260a482019390935260c481019290925292935091169063d505accf9060e4015f604051808303815f87803b15801561052c575f80fd5b505af115801561053e573d5f803e3d5ffd5b505050505050508060010190506103ea565b505f61055c88806158a4565b905011156105fd576040517f2a2d80d10000000000000000000000000000000000000000000000000000000081526001600160a01b037f00000000000000000000000000000000000000000000000000000000000000001690632a2d80d1906105cf9033908b908b908b90600401615927565b5f604051808303815f87803b1580156105e6575f80fd5b505af11580156105f8573d5f803e3d5ffd5b505050505b6106078484611b6a565b915061061281613303565b509998505050505050505050565b60605f61062b613264565b90507f00000000000000000000000000000000000000000000000000000000000000006001600160a01b03166348c894916040518060e00160405280336001600160a01b031681526020018a6001600160a01b031681526020018881526020018981526020015f60038111156106a3576106a3615a4d565b81526020018715158152602001868152506040516024016106c49190615aec565b60408051601f198184030181529181526020820180516001600160e01b0316631d39210760e31b179052516001600160e01b031960e084901b16815261070d9190600401615afe565b5f604051808303815f875af1158015610728573d5f803e3d5ffd5b505050506040513d5f823e601f3d908101601f1916820160405261074f9190810190615b52565b8060200190518101906107629190615be0565b915061076d81613303565b5095945050505050565b6060610781613336565b6107896133bc565b5f6001600160a01b037f00000000000000000000000000000000000000000000000000000000000000001663ca4f28036107c96040860160208701615c12565b6040516001600160e01b031960e084901b1681526001600160a01b0390911660048201526024015f60405180830381865afa15801561080a573d5f803e3d5ffd5b505050506040513d5f823e601f3d908101601f191682016040526108319190810190615c2d565b80519091505f8167ffffffffffffffff81111561085057610850615136565b604051908082528060200260200182016040528015610879578160200160208202803683370190505b5090505f5b828110156108be576fffffffffffffffffffffffffffffffff80168282815181106108ab576108ab6157ba565b602090810291909101015260010161087e565b505f7f00000000000000000000000000000000000000000000000000000000000000006001600160a01b0316634af29ec46040518060c0016040528089602001602081019061090d9190615c12565b6001600160a01b0316815260209081019061092a908b018b615c12565b6001600160a01b03168152602081018690526060808b013560408301520161095860a08b0160808c01615cc2565b600481111561096957610969615a4d565b815260200161097b60c08b018b6157ce565b8080601f0160208091040260200160405190810160405280939291908181526020018383808284375f9201919091525050509152506040516001600160e01b031960e084901b1681526109d19190600401615cf0565b5f604051808303815f875af11580156109ec573d5f803e3d5ffd5b505050506040513d5f823e601f3d908101601f19168201604052610a139190810190615d66565b50909150610a6490508685836001610a2e6040850185615dc4565b808060200260200160405190810160405280939291908181526020018383602002808284375f9201919091525061342092505050565b508095505050505050610a75613919565b919050565b60605f610a85613264565b90507f00000000000000000000000000000000000000000000000000000000000000006001600160a01b031663edfa35686040518060e00160405280336001600160a01b03168152602001886001600160a01b03168152602001600267ffffffffffffffff811115610af957610af9615136565b604051908082528060200260200182016040528015610b22578160200160208202803683370190505b508152602081018890526040015f81525f6020820152604090810187905251610b4e9190602401615aec565b60408051601f198184030181529181526020820180516001600160e01b0316631d39210760e31b179052516001600160e01b031960e084901b168152610b979190600401615afe565b5f604051808303815f875af1158015610bb2573d5f803e3d5ffd5b505050506040513d5f823e601f3d908101601f19168201604052610bd99190810190615b52565b806020019051810190610bec9190615be0565b9150610bf781613303565b509392505050565b60605f610c0a613264565b90507f00000000000000000000000000000000000000000000000000000000000000006001600160a01b03166348c894916040518060e00160405280336001600160a01b031681526020018a6001600160a01b031681526020018981526020018881526020015f6004811115610c8257610c82615a4d565b8152602001871515815260200186815250604051602401610ca39190615e5d565b60408051601f198184030181529181526020820180516001600160e01b03166312cd7ead60e21b179052516001600160e01b031960e084901b16815261070d9190600401615afe565b60605f610cf7613264565b90507f00000000000000000000000000000000000000000000000000000000000000006001600160a01b031663edfa356863f4f1cdee60e01b6040518060e00160405280336001600160a01b031681526020018a6001600160a01b03168152602001885167ffffffffffffffff811115610d7357610d73615136565b604051908082528060200260200182016040528015610d9c578160200160208202803683370190505b508152602081018a90526040015f81525f6020820152604090810188905251610dca91908990602401615ea7565b60408051601f198184030181529181526020820180516001600160e01b03166001600160e01b03199485161790525160e084901b9092168252610e0f91600401615afe565b5f604051808303815f875af1158015610e2a573d5f803e3d5ffd5b505050506040513d5f823e601f3d908101601f19168201604052610e519190810190615b52565b806020019051810190610e649190615be0565b9150610e6f81613303565b50949350505050565b5c90565b5f610e85613336565b610e8d6133bc565b610ea6610e9d6040850185615dc4565b90508351613943565b32155f5b8351811015610f2d57610f25848281518110610ec857610ec86157ba565b6020026020010151868060400190610ee09190615dc4565b84818110610ef057610ef06157ba565b90506020020135610f1e7f000000000000000000000000000000000000000000000000000000000000000090565b9190613980565b600101610eaa565b505f6001600160a01b037f00000000000000000000000000000000000000000000000000000000000000001663ca4f2803610f6e6040880160208901615c12565b6040516001600160e01b031960e084901b1681526001600160a01b0390911660048201526024015f60405180830381865afa158015610faf573d5f803e3d5ffd5b505050506040513d5f823e601f3d908101601f19168201604052610fd69190810190615c2d565b90505f5b815181101561142d575f828281518110610ff657610ff66157ba565b602002602001015190507f00000000000000000000000000000000000000000000000000000000000000006001600160a01b031663c673bdaf826040518263ffffffff1660e01b815260040161105b91906001600160a01b0391909116815260200190565b602060405180830381865afa158015611076573d5f803e3d5ffd5b505050506040513d601f19601f8201168201806040525081019061109a9190615ecb565b156113575760405163ca4f280360e01b81526001600160a01b0382811660048301525f917f00000000000000000000000000000000000000000000000000000000000000009091169063ca4f2803906024015f60405180830381865afa158015611106573d5f803e3d5ffd5b505050506040513d5f823e601f3d908101601f1916820160405261112d9190810190615c2d565b90505f611139826139a0565b90505f7f00000000000000000000000000000000000000000000000000000000000000006001600160a01b0316634af29ec46040518060c00160405280876001600160a01b031681526020017f00000000000000000000000000000000000000000000000000000000000000006001600160a01b031681526020018581526020015f81526020018d60800160208101906111d39190615cc2565b60048111156111e4576111e4615a4d565b81526020016111f660c08f018f6157ce565b8080601f0160208091040260200160405190810160405280939291908181526020018383808284375f9201919091525050509152506040516001600160e01b031960e084901b16815261124c9190600401615cf0565b5f604051808303815f875af1158015611267573d5f803e3d5ffd5b505050506040513d5f823e601f3d908101601f1916820160405261128e9190810190615d66565b509150506112be8482610f1e7f000000000000000000000000000000000000000000000000000000000000000090565b6040516315afd40960e01b81526001600160a01b038581166004830152602482018390527f000000000000000000000000000000000000000000000000000000000000000016906315afd409906044016020604051808303815f875af115801561132a573d5f803e3d5ffd5b505050506040513d601f19601f8201168201806040525081019061134e9190615ee6565b50505050611424565b604051636844846b60e01b81526001600160a01b0382811660048301527f00000000000000000000000000000000000000000000000000000000000000001690636844846b90602401602060405180830381865afa1580156113bb573d5f803e3d5ffd5b505050506040513d601f19601f820116820180604052508101906113df9190615ecb565b80156114145750611412817f00000000000000000000000000000000000000000000000000000000000000005b90613b94565b155b156114245761142281613baa565b505b50600101610fda565b505f611438826139a0565b90507f00000000000000000000000000000000000000000000000000000000000000006001600160a01b0316634af29ec46040518060c001604052808960200160208101906114879190615c12565b6001600160a01b03168152602001866114ac576114a760208b018b615c12565b6114ae565b305b6001600160a01b03168152602081018590526060808b01356040830152016114dc60a08b0160808c01615cc2565b60048111156114ed576114ed615a4d565b81526020016114ff60c08b018b6157ce565b8080601f0160208091040260200160405190810160405280939291908181526020018383808284375f9201919091525050509152506040516001600160e01b031960e084901b1681526115559190600401615cf0565b5f604051808303815f875af1158015611570573d5f803e3d5ffd5b505050506040513d5f823e601f3d908101601f191682016040526115979190810190615d66565b5094505f90505b8551811015611627576115f18682815181106115bc576115bc6157ba565b60200260200101516115eb7f000000000000000000000000000000000000000000000000000000000000000090565b90613e0b565b5061161f868281518110611607576116076157ba565b6020026020010151888060400190610ee09190615dc4565b60010161159e565b508215155f03611647576116476116416020880188615c12565b5f613e49565b505050611652613919565b92915050565b5f611661613336565b6116696133bc565b5f6001600160a01b037f00000000000000000000000000000000000000000000000000000000000000001663ca4f28036116a96040860160208701615c12565b6040516001600160e01b031960e084901b1681526001600160a01b0390911660048201526024015f60405180830381865afa1580156116ea573d5f803e3d5ffd5b505050506040513d5f823e601f3d908101601f191682016040526117119190810190615c2d565b90505f6117a184836117266040830183615dc4565b808060200260200160405190810160405280939291908181526020018383602002808284375f920182905250895190935091505067ffffffffffffffff81111561177257611772615136565b60405190808252806020026020018201604052801561179b578160200160208202803683370190505b50613420565b9150507f00000000000000000000000000000000000000000000000000000000000000006001600160a01b0316634af29ec46040518060c001604052808760200160208101906117f19190615c12565b6001600160a01b0316815260209081019061180e90890189615c12565b6001600160a01b031681526020810185905260608089013560408301520161183c60a0890160808a01615cc2565b600481111561184d5761184d615a4d565b815260200161185f60c08901896157ce565b8080601f0160208091040260200160405190810160405280939291908181526020018383808284375f9201919091525050509152506040516001600160e01b031960e084901b1681526118b59190600401615cf0565b5f604051808303815f875af11580156118d0573d5f803e3d5ffd5b505050506040513d5f823e601f3d908101601f191682016040526118f79190810190615d66565b509350610a759250613919915050565b5f80611911613264565b6040805160e0810182523381526001600160a01b0388811660208301529181018790525f60608201529192507f0000000000000000000000000000000000000000000000000000000000000000169063edfa35689060808101600181525f602082015260409081018790525161198a9190602401615e5d565b60408051601f198184030181529181526020820180516001600160e01b0316633928e9a760e11b179052516001600160e01b031960e084901b1681526119d39190600401615afe565b5f604051808303815f875af11580156119ee573d5f803e3d5ffd5b505050506040513d5f823e601f3d908101601f19168201604052611a159190810190615b52565b806020019051810190610bec9190615ee6565b5f80611a32613264565b90507f00000000000000000000000000000000000000000000000000000000000000006001600160a01b03166348c894916040518060e00160405280336001600160a01b031681526020018a6001600160a01b0316815260200189815260200188815260200160016004811115611aab57611aab615a4d565b8152602001871515815260200186815250604051602401611acc9190615e5d565b60408051601f198184030181529181526020820180516001600160e01b0316633928e9a760e11b179052516001600160e01b031960e084901b168152611b159190600401615afe565b5f604051808303815f875af1158015611b30573d5f803e3d5ffd5b505050506040513d5f823e601f3d908101601f19168201604052611b579190810190615b52565b8060200190518101906107629190615ee6565b60605f611b75613264565b9050611ba460017f00000000000000000000000000000000000000000000000000000000000000005b90614076565b8267ffffffffffffffff811115611bbd57611bbd615136565b604051908082528060200260200182016040528015611bf057816020015b6060815260200190600190039081611bdb5790505b5091505f5b83811015611c8357611c5e30868684818110611c1357611c136157ba565b9050602002810190611c2591906157ce565b8080601f0160208091040260200160405190810160405280939291908181526020018383808284375f9201919091525061407d92505050565b838281518110611c7057611c706157ba565b6020908102919091010152600101611bf5565b50611cae5f7f0000000000000000000000000000000000000000000000000000000000000000611b9e565b611cd87f00000000000000000000000000000000000000000000000000000000000000005c6140ef565b611ce181613303565b5092915050565b60605f611cf3613264565b6040805160e0810182523381526001600160a01b038a81166020830152918101879052606081018990529192507f000000000000000000000000000000000000000000000000000000000000000016906348c89491907ff4f1cdee0000000000000000000000000000000000000000000000000000000090608081015f81525f6020820152604090810188905251611d9091908a90602401615ea7565b60408051601f198184030181529181526020820180516001600160e01b03166001600160e01b03199485161790525160e084901b909216825261070d91600401615afe565b5f80611ddf613264565b6040805160e0810182523381526001600160a01b038a81166020830152918101889052606081018790529192507f000000000000000000000000000000000000000000000000000000000000000016906348c89491906336e789b360e11b9060808101600181525f6020820152604090810188905251611e6491908b90602401615efd565b60408051601f198184030181529181526020820180516001600160e01b03166001600160e01b03199485161790525160e084901b9092168252611b1591600401615afe565b5f80611eb3613264565b6040805160e0810182523381526001600160a01b0389811660208301529181018790525f60608201529192507f0000000000000000000000000000000000000000000000000000000000000000169063edfa3568906336e789b360e11b9060808101600181525f6020820152604090810188905251611f3791908a90602401615efd565b60408051601f198184030181529181526020820180516001600160e01b03166001600160e01b03199485161790525160e084901b9092168252611f7c91600401615afe565b5f604051808303815f875af1158015611f97573d5f803e3d5ffd5b505050506040513d5f823e601f3d908101601f19168201604052611fbe9190810190615b52565b806020019051810190610e649190615ee6565b6060611fdb613336565b611fe36133bc565b5f6001600160a01b037f00000000000000000000000000000000000000000000000000000000000000001663ca4f28036120236040860160208701615c12565b6040516001600160e01b031960e084901b1681526001600160a01b0390911660048201526024015f60405180830381865afa158015612064573d5f803e3d5ffd5b505050506040513d5f823e601f3d908101601f1916820160405261208b9190810190615c2d565b80519091508067ffffffffffffffff8111156120a9576120a9615136565b6040519080825280602002602001820160405280156120d2578160200160208202803683370190505b5092505f7f00000000000000000000000000000000000000000000000000000000000000006001600160a01b031663214578976040518060c001604052808860200160208101906121239190615c12565b6001600160a01b03168152602090810190612140908a018a615c12565b6001600160a01b03168152602001886060013581526020018567ffffffffffffffff81111561217157612171615136565b60405190808252806020026020018201604052801561219a578160200160208202803683370190505b5081526020016121b060a08a0160808b01615f0f565b60038111156121c1576121c1615a4d565b81526020016121d360c08a018a6157ce565b8080601f0160208091040260200160405190810160405280939291908181526020018383808284375f9201919091525050509152506040516001600160e01b031960e084901b1681526122299190600401615f2d565b5f604051808303815f875af1158015612244573d5f803e3d5ffd5b505050506040513d5f823e601f3d908101601f1916820160405261226b9190810190615f87565b509150505f612278321590565b90505f5b83811015612547575f858281518110612297576122976157ba565b6020908102919091010151604051630387587d60e01b81526001600160a01b0380831660048301529192505f917f00000000000000000000000000000000000000000000000000000000000000001690630387587d90602401602060405180830381865afa15801561230b573d5f803e3d5ffd5b505050506040513d601f19601f8201168201806040525081019061232f9190615fd8565b90506001600160a01b0381166123e257848381518110612351576123516157ba565b602002602001015188848151811061236b5761236b6157ba565b60209081029190910101528315155f036123db576123db61238f60208b018b615c12565b8885815181106123a1576123a16157ba565b60200260200101518a86815181106123bb576123bb6157ba565b60200260200101518c60a00160208101906123d69190615ff3565b614133565b505061253f565b7f00000000000000000000000000000000000000000000000000000000000000006001600160a01b03166343583be56040518060a001604052805f600181111561242e5761242e615a4d565b815260200160018152602001856001600160a01b0316815260200188878151811061245b5761245b6157ba565b602002602001015181526020018c80604001906124789190615dc4565b88818110612488576124886157ba565b905060200201358152506040518263ffffffff1660e01b81526004016124ae919061601e565b6060604051808303815f875af11580156124ca573d5f803e3d5ffd5b505050506040513d601f19601f820116820180604052508101906124ee9190616072565b9091509050888481518110612505576125056157ba565b60209081029190910101528315155f0361253c5761253c61252960208b018b615c12565b828a86815181106123bb576123bb6157ba565b50505b60010161227c565b5050505050610a75613919565b606061255e613336565b6125666133bc565b5f6001600160a01b037f00000000000000000000000000000000000000000000000000000000000000001663ca4f28036125a66040870160208801615c12565b6040516001600160e01b031960e084901b1681526001600160a01b0390911660048201526024015f60405180830381865afa1580156125e7573d5f803e3d5ffd5b505050506040513d5f823e601f3d908101601f1916820160405261260e9190810190615c2d565b9050321561262b6126226040870187615dc4565b90508551613943565b5f7f00000000000000000000000000000000000000000000000000000000000000006001600160a01b031663214578976040518060c001604052808960200160208101906126799190615c12565b6001600160a01b03168152602090810190612696908b018b615c12565b6001600160a01b0316815260200189606001358152602001865167ffffffffffffffff8111156126c8576126c8615136565b6040519080825280602002602001820160405280156126f1578160200160208202803683370190505b50815260200161270760a08b0160808c01615f0f565b600381111561271857612718615a4d565b815260200161272a60c08b018b6157ce565b8080601f0160208091040260200160405190810160405280939291908181526020018383808284375f9201919091525050509152506040516001600160e01b031960e084901b1681526127809190600401615f2d565b5f604051808303815f875af115801561279b573d5f803e3d5ffd5b505050506040513d5f823e601f3d908101601f191682016040526127c29190810190615f87565b509150505f5b8351811015612dc7575f8482815181106127e4576127e46157ba565b602002602001015190507f00000000000000000000000000000000000000000000000000000000000000006001600160a01b031663c673bdaf826040518263ffffffff1660e01b815260040161284991906001600160a01b0391909116815260200190565b602060405180830381865afa158015612864573d5f803e3d5ffd5b505050506040513d601f19601f820116820180604052508101906128889190615ecb565b15612cd5577f00000000000000000000000000000000000000000000000000000000000000006001600160a01b031663ae63932982308686815181106128d0576128d06157ba565b60209081029190910101516040516001600160e01b031960e086901b1681526001600160a01b03938416600482015292909116602483015260448201526064015f604051808303815f87803b158015612927575f80fd5b505af1158015612939573d5f803e3d5ffd5b505060405163ca4f280360e01b81526001600160a01b0384811660048301525f93507f000000000000000000000000000000000000000000000000000000000000000016915063ca4f2803906024015f60405180830381865afa1580156129a2573d5f803e3d5ffd5b505050506040513d5f823e601f3d908101601f191682016040526129c99190810190615c2d565b90505f7f00000000000000000000000000000000000000000000000000000000000000006001600160a01b031663214578976040518060c00160405280866001600160a01b03168152602001306001600160a01b03168152602001888881518110612a3657612a366157ba565b60200260200101518152602001855167ffffffffffffffff811115612a5d57612a5d615136565b604051908082528060200260200182016040528015612a86578160200160208202803683370190505b5081526020018d6080016020810190612a9f9190615f0f565b6003811115612ab057612ab0615a4d565b8152602001612ac260c08f018f6157ce565b8080601f0160208091040260200160405190810160405280939291908181526020018383808284375f9201919091525050509152506040516001600160e01b031960e084901b168152612b189190600401615f2d565b5f604051808303815f875af1158015612b33573d5f803e3d5ffd5b505050506040513d5f823e601f3d908101601f19168201604052612b5a9190810190615f87565b509150505f5b8251811015612ccd575f838281518110612b7c57612b7c6157ba565b602002602001015190507f00000000000000000000000000000000000000000000000000000000000000006001600160a01b0316636844846b826040518263ffffffff1660e01b8152600401612be191906001600160a01b0391909116815260200190565b602060405180830381865afa158015612bfc573d5f803e3d5ffd5b505050506040513d601f19601f82011682018060405250810190612c209190615ecb565b15612c4d57612c4881848481518110612c3b57612c3b6157ba565b6020026020010151614331565b612cc4565b612c77817f00000000000000000000000000000000000000000000000000000000000000006115eb565b50612cc481848481518110612c8e57612c8e6157ba565b6020026020010151612cbd7f000000000000000000000000000000000000000000000000000000000000000090565b91906144c7565b50600101612b60565b505050612dbe565b604051636844846b60e01b81526001600160a01b0382811660048301527f00000000000000000000000000000000000000000000000000000000000000001690636844846b90602401602060405180830381865afa158015612d39573d5f803e3d5ffd5b505050506040513d601f19601f82011682018060405250810190612d5d9190615ecb565b15612d7d57612d7881848481518110612c3b57612c3b6157ba565b612dbe565b612da7817f00000000000000000000000000000000000000000000000000000000000000006115eb565b50612dbe81848481518110612c8e57612c8e6157ba565b506001016127c8565b508451612df37f00000000000000000000000000000000000000000000000000000000000000006144f1565b14612e4657612e217f00000000000000000000000000000000000000000000000000000000000000006144fb565b8560405163252b8a0360e21b8152600401612e3d92919061609d565b60405180910390fd5b845167ffffffffffffffff811115612e6057612e60615136565b604051908082528060200260200182016040528015612e89578160200160208202803683370190505b5093505f855167ffffffffffffffff811115612ea757612ea7615136565b604051908082528060200260200182016040528015612ed0578160200160208202803683370190505b5090505f5b865181101561315c575f612f29888381518110612ef457612ef46157ba565b6020026020010151612f237f000000000000000000000000000000000000000000000000000000000000000090565b9061459d565b9050612f75888381518110612f4057612f406157ba565b6020026020010151612f6f7f000000000000000000000000000000000000000000000000000000000000000090565b906145f1565b1580612f975750828181518110612f8e57612f8e6157ba565b60200260200101515b15612fe157612fc57f00000000000000000000000000000000000000000000000000000000000000006144fb565b8860405163252b8a0360e21b8152600401612e3d92919061609d565b6001838281518110612ff557612ff56157ba565b60200260200101901515908115158152505061304b88838151811061301c5761301c6157ba565b602002602001015161140c7f000000000000000000000000000000000000000000000000000000000000000090565b87838151811061305d5761305d6157ba565b602090810291909101015261307560408a018a615dc4565b83818110613085576130856157ba565b9050602002013587838151811061309e5761309e6157ba565b60200260200101511015613153578782815181106130be576130be6157ba565b60200260200101518783815181106130d8576130d86157ba565b60200260200101518a80604001906130f09190615dc4565b85818110613100576131006157ba565b6040517f2f785e460000000000000000000000000000000000000000000000000000000081526001600160a01b039095166004860152602485019390935250602090910201356044820152606401612e3d565b50600101612ed5565b508215155f03613176576131766116416020890189615c12565b50505050611652613919565b60605f61318d613264565b90507f00000000000000000000000000000000000000000000000000000000000000006001600160a01b031663edfa35686040518060e00160405280336001600160a01b03168152602001886001600160a01b031681526020016131f089614608565b8152602081018890526040015f81525f602082015260409081018790525161321b9190602401615e5d565b60408051601f198184030181529181526020820180516001600160e01b03166312cd7ead60e21b179052516001600160e01b031960e084901b168152610b979190600401615afe565b5f7f00000000000000000000000000000000000000000000000000000000000000005c6001600160a01b0381166132c4576132bf337f0000000000000000000000000000000000000000000000000000000000000000611b9e565b600191505b5090565b60408051606080820183525f808352602080840182815284860183815291870151958701519690930151948452949091529190911a90915290565b8015613333576133335f7f0000000000000000000000000000000000000000000000000000000000000000611b9e565b50565b7f9b779b17422d0df92223018b32b4d1fa46e071723d6817e2486d003becc55f005c1561338f576040517f3ee5aeb500000000000000000000000000000000000000000000000000000000815260040160405180910390fd5b6133ba60017f9b779b17422d0df92223018b32b4d1fa46e071723d6817e2486d003becc55f00611b9e565b565b336001600160a01b037f000000000000000000000000000000000000000000000000000000000000000016146133ba576040517f089676d5000000000000000000000000000000000000000000000000000000008152336004820152602401612e3d565b835160609081908067ffffffffffffffff81111561344057613440615136565b604051908082528060200260200182016040528015613469578160200160208202803683370190505b5092508067ffffffffffffffff81111561348557613485615136565b6040519080825280602002602001820160405280156134ae578160200160208202803683370190505b50915032155f5b8281101561390c575f8982815181106134d0576134d06157ba565b6020908102919091010151604051630387587d60e01b81526001600160a01b0380831660048301529192505f917f00000000000000000000000000000000000000000000000000000000000000001690630387587d90602401602060405180830381865afa158015613544573d5f803e3d5ffd5b505050506040513d601f19601f820116820180604052508101906135689190615fd8565b90506001600160a01b0381166136535789838151811061358a5761358a6157ba565b60200260200101518784815181106135a4576135a46157ba565b6020026020010181815250508983815181106135c2576135c26157ba565b60200260200101518684815181106135dc576135dc6157ba565b60209081029190910101528315155f0361364c5761364c61360060208e018e615c12565b8c8581518110613612576136126157ba565b60200260200101518c868151811061362c5761362c6157ba565b60200260200101518f60a00160208101906136479190615ff3565b614721565b5050613904565b8315155f036136bf575f89600181111561366f5761366f615a4d565b0361369c5761369761368460208e018e615c12565b828c868151811061362c5761362c6157ba565b6136bf565b6136bf6136ac60208e018e615c12565b828a868151811061362c5761362c6157ba565b7f00000000000000000000000000000000000000000000000000000000000000006001600160a01b03166343583be56040518060a001604052808c600181111561370b5761370b615a4d565b81526020015f8152602001856001600160a01b031681526020018d8781518110613737576137376157ba565b602002602001015181526020018b8781518110613756576137566157ba565b60200260200101518152506040518263ffffffff1660e01b815260040161377d919061601e565b6060604051808303815f875af1158015613799573d5f803e3d5ffd5b505050506040513d601f19601f820116820180604052508101906137bd9190616072565b9091508885815181106137d2576137d26157ba565b602002602001018886815181106137eb576137eb6157ba565b602090810291909101019190915252831580156138195750600189600181111561381757613817615a4d565b145b15613901577f00000000000000000000000000000000000000000000000000000000000000006001600160a01b031663ae639329828e5f0160208101906138609190615c12565b8a8781518110613872576138726157ba565b60200260200101518c888151811061388c5761388c6157ba565b602002602001015161389e91906160c3565b6040516001600160e01b031960e086901b1681526001600160a01b03938416600482015292909116602483015260448201526064015f604051808303815f87803b1580156138ea575f80fd5b505af11580156138fc573d5f803e3d5ffd5b505050505b50505b6001016134b5565b5050509550959350505050565b6133ba5f7f9b779b17422d0df92223018b32b4d1fa46e071723d6817e2486d003becc55f00611b9e565b80821461397c576040517faaad13f700000000000000000000000000000000000000000000000000000000815260040160405180910390fd5b5050565b5f82815260208490526040902061399b908290611b9e565b90565b505050565b6060815167ffffffffffffffff8111156139bc576139bc615136565b6040519080825280602002602001820160405280156139e5578160200160208202803683370190505b5090505f5b8251811015613b8e575f838281518110613a0657613a066157ba565b602002602001015190507f00000000000000000000000000000000000000000000000000000000000000006001600160a01b0316636844846b826040518263ffffffff1660e01b8152600401613a6b91906001600160a01b0391909116815260200190565b602060405180830381865afa158015613a86573d5f803e3d5ffd5b505050506040513d601f19601f82011682018060405250810190613aaa9190615ecb565b8015613add5750613adb817f000000000000000000000000000000000000000000000000000000000000000061140c565b155b15613b13575f613aec82613baa565b905080848481518110613b0157613b016157ba565b60200260200101818152505050613b85565b613b3d817f000000000000000000000000000000000000000000000000000000000000000061140c565b838381518110613b4f57613b4f6157ba565b6020908102919091010152613b85815f7f0000000000000000000000000000000000000000000000000000000000000000610f1e565b506001016139ea565b50919050565b5f8181526020839052604081205c5b9392505050565b5f80826001600160a01b03166338d52e0f6040518163ffffffff1660e01b8152600401602060405180830381865afa158015613be8573d5f803e3d5ffd5b505050506040513d601f19601f82011682018060405250810190613c0c9190615fd8565b90505f613c39827f000000000000000000000000000000000000000000000000000000000000000061140c565b9050805f03613c4b57505f9392505050565b7f00000000000000000000000000000000000000000000000000000000000000006001600160a01b03166343583be56040518060a001604052805f6001811115613c9757613c97615a4d565b81526020015f8152602001876001600160a01b031681526020018481526020015f8152506040518263ffffffff1660e01b8152600401613cd7919061601e565b6060604051808303815f875af1158015613cf3573d5f803e3d5ffd5b505050506040513d601f19601f82011682018060405250810190613d179190616072565b9450613d4891508390505f7f0000000000000000000000000000000000000000000000000000000000000000610f1e565b613d7384847f0000000000000000000000000000000000000000000000000000000000000000610f1e565b6040516315afd40960e01b81526001600160a01b038581166004830152602482018590527f000000000000000000000000000000000000000000000000000000000000000016906315afd409906044016020604051808303815f875af1158015613ddf573d5f803e3d5ffd5b505050506040513d601f19601f82011682018060405250810190613e039190615ee6565b505050919050565b5f613e1683836145f1565b613e4257613e248383614a7d565b613e3a82613e3185614ab4565b60018601610f1e565b506001611652565b505f611652565b5f613e737f00000000000000000000000000000000000000000000000000000000000000006144f1565b90505f613e9f7f00000000000000000000000000000000000000000000000000000000000000006144f1565b90505f613ead6001846160d6565b90505b5f8112613f85575f613ee4827f00000000000000000000000000000000000000000000000000000000000000005b90614abc565b9050613f1b8682613f15817f000000000000000000000000000000000000000000000000000000000000000061140c565b88614721565b613f46815f7f0000000000000000000000000000000000000000000000000000000000000000610f1e565b613f72817f00000000000000000000000000000000000000000000000000000000000000005b90614ac7565b505080613f7e906160f5565b9050613eb0565b505f613f926001836160d6565b90505b5f8112614066575f613fc7827f0000000000000000000000000000000000000000000000000000000000000000613ede565b9050613ffe8682613ff8817f000000000000000000000000000000000000000000000000000000000000000061140c565b88614133565b614029815f7f0000000000000000000000000000000000000000000000000000000000000000610f1e565b614053817f0000000000000000000000000000000000000000000000000000000000000000613f6c565b50508061405f906160f5565b9050613f95565b50614070846140ef565b50505050565b80825d5050565b60605f80846001600160a01b031684604051614099919061612c565b5f60405180830381855af49150503d805f81146140d1576040519150601f19603f3d011682016040523d82523d5f602084013e6140d6565b606091505b50915091506140e6858383614b4d565b95945050505050565b7f00000000000000000000000000000000000000000000000000000000000000005c156141195750565b47801561397c5761397c6001600160a01b03831682614bbb565b81156140705780801561417757507f00000000000000000000000000000000000000000000000000000000000000006001600160a01b0316836001600160a01b0316145b156142a65760405163ae63932960e01b81526001600160a01b038481166004830152306024830152604482018490527f0000000000000000000000000000000000000000000000000000000000000000169063ae639329906064015f604051808303815f87803b1580156141e9575f80fd5b505af11580156141fb573d5f803e3d5ffd5b50506040517f2e1a7d4d000000000000000000000000000000000000000000000000000000008152600481018590527f00000000000000000000000000000000000000000000000000000000000000006001600160a01b03169250632e1a7d4d91506024015f604051808303815f87803b158015614277575f80fd5b505af1158015614289573d5f803e3d5ffd5b506142a1925050506001600160a01b03851683614bbb565b614070565b60405163ae63932960e01b81526001600160a01b0384811660048301528581166024830152604482018490527f0000000000000000000000000000000000000000000000000000000000000000169063ae639329906064015f604051808303815f87803b158015614315575f80fd5b505af1158015614327573d5f803e3d5ffd5b5050505050505050565b805f0361433c575050565b5f7f00000000000000000000000000000000000000000000000000000000000000006001600160a01b03166343583be56040518060a001604052805f600181111561438957614389615a4d565b815260200160018152602001866001600160a01b031681526020018581526020015f8152506040518263ffffffff1660e01b81526004016143ca919061601e565b6060604051808303815f875af11580156143e6573d5f803e3d5ffd5b505050506040513d601f19601f8201168201806040525081019061440a9190616072565b925050505f836001600160a01b03166338d52e0f6040518163ffffffff1660e01b8152600401602060405180830381865afa15801561444b573d5f803e3d5ffd5b505050506040513d601f19601f8201168201806040525081019061446f9190615fd8565b905061449b817f00000000000000000000000000000000000000000000000000000000000000006115eb565b5061407081837f0000000000000000000000000000000000000000000000000000000000000000612cbd565b61399b816144d58585613b94565b6144df9190616147565b5f848152602086905260409020611b9e565b5f61165282614ab4565b60605f61450783614ab4565b90508067ffffffffffffffff81111561452257614522615136565b60405190808252806020026020018201604052801561454b578160200160208202803683370190505b5091505f5b818110156145965761456481855b90614c6e565b838281518110614576576145766157ba565b6001600160a01b0390921660209283029190910190910152600101614550565b5050919050565b5f806145ac836001860161140c565b9050805f036145e7576040517f66af539200000000000000000000000000000000000000000000000000000000815260040160405180910390fd5b5f19019392505050565b5f6145ff826001850161140c565b15159392505050565b60405163ca4f280360e01b81526001600160a01b0382811660048301526060915f917f0000000000000000000000000000000000000000000000000000000000000000169063ca4f2803906024015f60405180830381865afa158015614670573d5f803e3d5ffd5b505050506040513d5f823e601f3d908101601f191682016040526146979190810190615c2d565b5190508067ffffffffffffffff8111156146b3576146b3615136565b6040519080825280602002602001820160405280156146dc578160200160208202803683370190505b5091505f5b81811015614596576fffffffffffffffffffffffffffffffff801683828151811061470e5761470e6157ba565b60209081029190910101526001016146e1565b80801561475f57507f00000000000000000000000000000000000000000000000000000000000000006001600160a01b0316836001600160a01b0316145b1561491b578147101561479e576040517fa01a9df600000000000000000000000000000000000000000000000000000000815260040160405180910390fd5b7f00000000000000000000000000000000000000000000000000000000000000006001600160a01b031663d0e30db0836040518263ffffffff1660e01b81526004015f604051808303818588803b1580156147f7575f80fd5b505af1158015614809573d5f803e3d5ffd5b506148659350506001600160a01b037f00000000000000000000000000000000000000000000000000000000000000001691507f0000000000000000000000000000000000000000000000000000000000000000905084614c88565b6040516315afd40960e01b81526001600160a01b037f000000000000000000000000000000000000000000000000000000000000000081166004830152602482018490527f000000000000000000000000000000000000000000000000000000000000000016906315afd409906044016020604051808303815f875af11580156148f1573d5f803e3d5ffd5b505050506040513d601f19601f820116820180604052508101906149159190615ee6565b50614070565b8115614070577f00000000000000000000000000000000000000000000000000000000000000006001600160a01b03166336c78516857f000000000000000000000000000000000000000000000000000000000000000061497b86614cf3565b6040516001600160e01b031960e086901b1681526001600160a01b03938416600482015291831660248301528216604482015290861660648201526084015f604051808303815f87803b1580156149d0575f80fd5b505af11580156149e2573d5f803e3d5ffd5b50506040516315afd40960e01b81526001600160a01b038681166004830152602482018690527f00000000000000000000000000000000000000000000000000000000000000001692506315afd40991506044016020604051808303815f875af1158015614a52573d5f803e3d5ffd5b505050506040513d601f19601f82011682018060405250810190614a769190615ee6565b5050505050565b5f825c9050614aa082611b9e61399884614a9c885f9081526020902090565b0190565b61399b614aae826001616147565b84611b9e565b5f815c611652565b5f613ba3828461455e565b5f80614ad6836001860161140c565b90508015614b44575f1981015f6001614aee87614ab4565b039050808214614b20575f614b038783614d3f565b9050614b10878483614d63565b614b1e818560018a01610f1e565b505b614b2986614d87565b50614b38855f60018901610f1e565b60019350505050611652565b5f915050611652565b606082614b6257614b5d82614dc8565b613ba3565b8151158015614b7957506001600160a01b0384163b155b15611ce1576040517f9996b3150000000000000000000000000000000000000000000000000000000081526001600160a01b0385166004820152602401612e3d565b80471015614bfe576040517fcf47918100000000000000000000000000000000000000000000000000000000815247600482015260248101829052604401612e3d565b5f826001600160a01b0316826040515f6040518083038185875af1925050503d805f8114614c47576040519150601f19603f3d011682016040523d82523d5f602084013e614c4c565b606091505b505090508061399b5760405163d6bda27560e01b815260040160405180910390fd5b5f613ba3610e7861399884614a9c875f9081526020902090565b604080516001600160a01b038416602482015260448082018490528251808303909101815260649091019091526020810180516001600160e01b03167fa9059cbb0000000000000000000000000000000000000000000000000000000017905261399b908490614df1565b5f6001600160a01b038211156132c4576040517f6dfcc65000000000000000000000000000000000000000000000000000000000815260a0600482015260248101839052604401612e3d565b5f614d4a8383614e76565b613ba3610e7861399884614a9c875f9081526020902090565b614d6d8383614e76565b61399b81611b9e61399885614a9c885f9081526020902090565b5f80614d956001845c6160c3565b9050614da18184611b9e565b5f614db861399883614a9c875f9081526020902090565b9050805c9250614596815f614076565b805115614dd85780518082602001fd5b60405163d6bda27560e01b815260040160405180910390fd5b5f8060205f8451602086015f885af180614e10576040513d5f823e3d81fd5b50505f513d91508115614e27578060011415614e34565b6001600160a01b0384163b155b15614070576040517f5274afe70000000000000000000000000000000000000000000000000000000081526001600160a01b0385166004820152602401612e3d565b815c80821061399b576040517f0f4ae0e400000000000000000000000000000000000000000000000000000000815260040160405180910390fd5b5f8083601f840112614ec1575f80fd5b50813567ffffffffffffffff811115614ed8575f80fd5b60208301915083602060c083028501011115614ef2575f80fd5b9250929050565b5f8083601f840112614f09575f80fd5b50813567ffffffffffffffff811115614f20575f80fd5b6020830191508360208260051b8501011115614ef2575f80fd5b5f60608284031215613b8e575f80fd5b5f8083601f840112614f5a575f80fd5b50813567ffffffffffffffff811115614f71575f80fd5b602083019150836020828501011115614ef2575f80fd5b5f805f805f805f805f60a08a8c031215614fa0575f80fd5b893567ffffffffffffffff80821115614fb7575f80fd5b614fc38d838e01614eb1565b909b50995060208c0135915080821115614fdb575f80fd5b614fe78d838e01614ef9565b909950975060408c0135915080821115614fff575f80fd5b61500b8d838e01614f3a565b965060608c0135915080821115615020575f80fd5b61502c8d838e01614f4a565b909650945060808c0135915080821115615044575f80fd5b506150518c828d01614ef9565b915080935050809150509295985092959850929598565b5f5b8381101561508257818101518382015260200161506a565b50505f910152565b5f81518084526150a1816020860160208601615068565b601f01601f19169290920160200192915050565b5f60208083016020845280855180835260408601915060408160051b8701019250602087015f5b8281101561510a57603f198886030184526150f885835161508a565b945092850192908501906001016150dc565b5092979650505050505050565b6001600160a01b0381168114613333575f80fd5b8035610a7581615117565b634e487b7160e01b5f52604160045260245ffd5b604051601f8201601f1916810167ffffffffffffffff8111828210171561517357615173615136565b604052919050565b5f67ffffffffffffffff82111561519457615194615136565b5060051b60200190565b5f82601f8301126151ad575f80fd5b813560206151c26151bd8361517b565b61514a565b8083825260208201915060208460051b8701019350868411156151e3575f80fd5b602086015b848110156151ff57803583529183019183016151e8565b509695505050505050565b8015158114613333575f80fd5b5f67ffffffffffffffff82111561523057615230615136565b50601f01601f191660200190565b5f82601f83011261524d575f80fd5b813561525b6151bd82615217565b81815284602083860101111561526f575f80fd5b816020850160208301375f918101602001919091529392505050565b5f805f805f60a0868803121561529f575f80fd5b85356152aa81615117565b945060208601359350604086013567ffffffffffffffff808211156152cd575f80fd5b6152d989838a0161519e565b9450606088013591506152eb8261520a565b90925060808701359080821115615300575f80fd5b5061530d8882890161523e565b9150509295509295909350565b5f815180845260208085019450602084015f5b838110156153495781518752958201959082019060010161532d565b509495945050505050565b602081525f613ba3602083018461531a565b5f60e08284031215613b8e575f80fd5b5f60208284031215615386575f80fd5b813567ffffffffffffffff81111561539c575f80fd5b6153a884828501615366565b949350505050565b5f805f606084860312156153c2575f80fd5b83356153cd81615117565b925060208401359150604084013567ffffffffffffffff8111156153ef575f80fd5b6153fb8682870161523e565b9150509250925092565b5f805f805f60a08688031215615419575f80fd5b853561542481615117565b9450602086013567ffffffffffffffff80821115615440575f80fd5b61544c89838a0161519e565b955060408801359450606088013591506152eb8261520a565b5f82601f830112615474575f80fd5b813560206154846151bd8361517b565b8083825260208201915060208460051b8701019350868411156154a5575f80fd5b602086015b848110156151ff5780356154bd81615117565b83529183019183016154aa565b5f805f80608085870312156154dd575f80fd5b84356154e881615117565b935060208501359250604085013567ffffffffffffffff8082111561550b575f80fd5b61551788838901615465565b9350606087013591508082111561552c575f80fd5b506155398782880161523e565b91505092959194509250565b5f8060408385031215615556575f80fd5b823567ffffffffffffffff8082111561556d575f80fd5b61557986838701615366565b9350602085013591508082111561558e575f80fd5b5061559b85828601615465565b9150509250929050565b5f805f606084860312156155b7575f80fd5b83356155c281615117565b9250602084013567ffffffffffffffff808211156155de575f80fd5b6155ea8783880161519e565b935060408601359150808211156155ff575f80fd5b506153fb8682870161523e565b5f806020838503121561561d575f80fd5b823567ffffffffffffffff811115615633575f80fd5b61563f85828601614ef9565b90969095509350505050565b5f805f805f60a0868803121561565f575f80fd5b853561566a81615117565b945060208601359350604086013567ffffffffffffffff8082111561568d575f80fd5b61569989838a01615465565b945060608801359150808211156156ae575f80fd5b6156ba89838a0161519e565b93506080880135915080821115615300575f80fd5b5f805f805f60a086880312156156e3575f80fd5b85356156ee81615117565b9450602086013567ffffffffffffffff8082111561570a575f80fd5b61571689838a01615465565b9550604088013591508082111561572b575f80fd5b61573789838a0161519e565b9450606088013593506080880135915080821115615300575f80fd5b5f805f8060808587031215615766575f80fd5b843561577181615117565b9350602085013567ffffffffffffffff8082111561578d575f80fd5b61579988838901615465565b945060408701359150808211156157ae575f80fd5b6155178883890161519e565b634e487b7160e01b5f52603260045260245ffd5b5f808335601e198436030181126157e3575f80fd5b83018035915067ffffffffffffffff8211156157fd575f80fd5b602001915036819003821315614ef2575f80fd5b5f60c08284031215615821575f80fd5b60405160c0810181811067ffffffffffffffff8211171561584457615844615136565b604052823561585281615117565b8152602083013561586281615117565b6020820152604083013561587581615117565b80604083015250606083013560608201526080830135608082015260a083013560a08201528091505092915050565b5f808335601e198436030181126158b9575f80fd5b83018035915067ffffffffffffffff8211156158d3575f80fd5b6020019150600781901b3603821315614ef2575f80fd5b803565ffffffffffff81168114610a75575f80fd5b81835281816020850137505f828201602090810191909152601f909101601f19169091010190565b5f60606001600160a01b03808816845260206060602086015260c085018835601e198a3603018112615957575f80fd5b890160208101903567ffffffffffffffff811115615973575f80fd5b8060071b3603821315615984575f80fd5b60608881015291829052905f9060e088015b81831015615a025783356159a981615117565b86168152838501356159ba81615117565b86168186015260406159cd8582016158ea565b65ffffffffffff80821683850152806159e78b89016158ea565b16848b01525050506080938401936001939093019201615996565b615a0e60208d0161512b565b6001600160a01b03811660808b0152965060408c013560a08a015288810360408a0152615a3c818b8d6158ff565b9d9c50505050505050505050505050565b634e487b7160e01b5f52602160045260245ffd5b60048110615a7157615a71615a4d565b9052565b5f6001600160a01b0380835116845280602084015116602085015250604082015160e06040850152615aaa60e085018261531a565b9050606083015160608501526080830151615ac86080860182615a61565b5060a0830151151560a085015260c083015184820360c08601526140e6828261508a565b602081525f613ba36020830184615a75565b602081525f613ba3602083018461508a565b5f82601f830112615b1f575f80fd5b8151615b2d6151bd82615217565b818152846020838601011115615b41575f80fd5b6153a8826020830160208701615068565b5f60208284031215615b62575f80fd5b815167ffffffffffffffff811115615b78575f80fd5b6153a884828501615b10565b5f82601f830112615b93575f80fd5b81516020615ba36151bd8361517b565b8083825260208201915060208460051b870101935086841115615bc4575f80fd5b602086015b848110156151ff5780518352918301918301615bc9565b5f60208284031215615bf0575f80fd5b815167ffffffffffffffff811115615c06575f80fd5b6153a884828501615b84565b5f60208284031215615c22575f80fd5b8135613ba381615117565b5f6020808385031215615c3e575f80fd5b825167ffffffffffffffff811115615c54575f80fd5b8301601f81018513615c64575f80fd5b8051615c726151bd8261517b565b81815260059190911b82018301908381019087831115615c90575f80fd5b928401925b82841015615cb7578351615ca881615117565b82529284019290840190615c95565b979650505050505050565b5f60208284031215615cd2575f80fd5b813560058110613ba3575f80fd5b60058110615a7157615a71615a4d565b602081525f6001600160a01b0380845116602084015280602085015116604084015250604083015160c06060840152615d2c60e084018261531a565b9050606084015160808401526080840151615d4a60a0850182615ce0565b5060a0840151838203601f190160c08501526140e6828261508a565b5f805f60608486031215615d78575f80fd5b835167ffffffffffffffff80821115615d8f575f80fd5b615d9b87838801615b84565b9450602086015193506040860151915080821115615db7575f80fd5b506153fb86828701615b10565b5f808335601e19843603018112615dd9575f80fd5b83018035915067ffffffffffffffff821115615df3575f80fd5b6020019150600581901b3603821315614ef2575f80fd5b5f6001600160a01b0380835116845280602084015116602085015250604082015160e06040850152615e3f60e085018261531a565b9050606083015160608501526080830151615ac86080860182615ce0565b602081525f613ba36020830184615e0a565b5f815180845260208085019450602084015f5b838110156153495781516001600160a01b031687529582019590820190600101615e82565b604081525f615eb96040830185615a75565b82810360208401526140e68185615e6f565b5f60208284031215615edb575f80fd5b8151613ba38161520a565b5f60208284031215615ef6575f80fd5b5051919050565b604081525f615eb96040830185615e0a565b5f60208284031215615f1f575f80fd5b813560048110613ba3575f80fd5b602081525f6001600160a01b038084511660208401528060208501511660408401525060408301516060830152606083015160c06080840152615f7360e084018261531a565b90506080840151615d4a60a0850182615a61565b5f805f60608486031215615f99575f80fd5b83519250602084015167ffffffffffffffff80821115615fb7575f80fd5b615fc387838801615b84565b93506040860151915080821115615db7575f80fd5b5f60208284031215615fe8575f80fd5b8151613ba381615117565b5f60208284031215616003575f80fd5b8135613ba38161520a565b6002811061333357613333615a4d565b815160a082019061602e8161600e565b8252602083015161603e8161600e565b806020840152506001600160a01b036040840151166040830152606083015160608301526080830151608083015292915050565b5f805f60608486031215616084575f80fd5b8351925060208401519150604084015190509250925092565b604081525f615eb96040830185615e6f565b634e487b7160e01b5f52601160045260245ffd5b81810381811115611652576116526160af565b8181035f831280158383131683831282161715611ce157611ce16160af565b5f7f80000000000000000000000000000000000000000000000000000000000000008203616125576161256160af565b505f190190565b5f825161613d818460208701615068565b9190910192915050565b80820180821115611652576116526160af56fea264697066735822122077b01a1bd0a1c4c994a5709aaa45fc2fdd32c87ecc7f133968569ed50745b77d64736f6c63430008180033","linkReferences":{}},"methodIdentifiers":{"addLiquidityERC4626PoolProportionalHook((address,address,uint256[],uint256,uint8,bool,bytes))":"4b35fab4","addLiquidityERC4626PoolUnbalancedHook((address,address,uint256[],uint256,uint8,bool,bytes))":"7251d34e","addLiquidityProportionalToERC4626Pool(address,uint256[],uint256,bool,bytes)":"560561d0","addLiquidityUnbalancedNestedPool(address,address[],uint256[],uint256,bytes)":"dd55a294","addLiquidityUnbalancedNestedPoolHook((address,address,uint256[],uint256,uint8,bool,bytes),address[])":"6dcf1366","addLiquidityUnbalancedToERC4626Pool(address,uint256[],uint256,bool,bytes)":"98f3b18c","getSender()":"5e01eb5a","multicall(bytes[])":"ac9650d8","permitBatchAndCall((address,address,address,uint256,uint256,uint256)[],bytes[],((address,uint160,uint48,uint48)[],address,uint256),bytes,bytes[])":"19c6989f","queryAddLiquidityProportionalToERC4626Pool(address,uint256,bytes)":"ff0353c8","queryAddLiquidityUnbalancedNestedPool(address,address[],uint256[],bytes)":"e1323013","queryAddLiquidityUnbalancedToERC4626Pool(address,uint256[],bytes)":"8c4ec19e","queryRemoveLiquidityProportionalFromERC4626Pool(address,uint256,bytes)":"50965993","queryRemoveLiquidityProportionalNestedPool(address,uint256,address[],bytes)":"5aaeaac5","removeLiquidityERC4626PoolProportionalHook((address,address,uint256[],uint256,uint8,bool,bytes))":"e9c90838","removeLiquidityProportionalFromERC4626Pool(address,uint256,uint256[],bool,bytes)":"38947f0b","removeLiquidityProportionalNestedPool(address,uint256,address[],uint256[],bytes)":"cb25ee65","removeLiquidityProportionalNestedPoolHook((address,address,uint256[],uint256,uint8,bool,bytes),address[])":"f4f1cdee"},"id":85}