{"abi":[{"type":"function","name":"computeAddLiquiditySingleTokenExactOut","inputs":[{"name":"currentBalances","type":"uint256[]","internalType":"uint256[]"},{"name":"tokenInIndex","type":"uint256","internalType":"uint256"},{"name":"exactBptAmountOut","type":"uint256","internalType":"uint256"},{"name":"totalSupply","type":"uint256","internalType":"uint256"},{"name":"swapFeePercentage","type":"uint256","internalType":"uint256"}],"outputs":[{"name":"amountInWithFee","type":"uint256","internalType":"uint256"},{"name":"swapFeeAmounts","type":"uint256[]","internalType":"uint256[]"}],"stateMutability":"view"},{"type":"function","name":"computeAddLiquidityUnbalanced","inputs":[{"name":"currentBalances","type":"uint256[]","internalType":"uint256[]"},{"name":"exactAmounts","type":"uint256[]","internalType":"uint256[]"},{"name":"totalSupply","type":"uint256","internalType":"uint256"},{"name":"swapFeePercentage","type":"uint256","internalType":"uint256"}],"outputs":[{"name":"bptAmountOut","type":"uint256","internalType":"uint256"},{"name":"swapFeeAmounts","type":"uint256[]","internalType":"uint256[]"}],"stateMutability":"view"},{"type":"function","name":"computeBalance","inputs":[{"name":"balances","type":"uint256[]","internalType":"uint256[]"},{"name":"tokenInIndex","type":"uint256","internalType":"uint256"},{"name":"invariantRatio","type":"uint256","internalType":"uint256"}],"outputs":[{"name":"newBalance","type":"uint256","internalType":"uint256"}],"stateMutability":"pure"},{"type":"function","name":"computeInvariant","inputs":[{"name":"balances","type":"uint256[]","internalType":"uint256[]"},{"name":"","type":"uint8","internalType":"enum Rounding"}],"outputs":[{"name":"","type":"uint256","internalType":"uint256"}],"stateMutability":"pure"},{"type":"function","name":"computeProportionalAmountsIn","inputs":[{"name":"balances","type":"uint256[]","internalType":"uint256[]"},{"name":"bptTotalSupply","type":"uint256","internalType":"uint256"},{"name":"bptAmountOut","type":"uint256","internalType":"uint256"}],"outputs":[{"name":"","type":"uint256[]","internalType":"uint256[]"}],"stateMutability":"pure"},{"type":"function","name":"computeProportionalAmountsOut","inputs":[{"name":"balances","type":"uint256[]","internalType":"uint256[]"},{"name":"bptTotalSupply","type":"uint256","internalType":"uint256"},{"name":"bptAmountIn","type":"uint256","internalType":"uint256"}],"outputs":[{"name":"","type":"uint256[]","internalType":"uint256[]"}],"stateMutability":"pure"},{"type":"function","name":"computeRemoveLiquiditySingleTokenExactIn","inputs":[{"name":"currentBalances","type":"uint256[]","internalType":"uint256[]"},{"name":"tokenOutIndex","type":"uint256","internalType":"uint256"},{"name":"exactBptAmountIn","type":"uint256","internalType":"uint256"},{"name":"totalSupply","type":"uint256","internalType":"uint256"},{"name":"swapFeePercentage","type":"uint256","internalType":"uint256"}],"outputs":[{"name":"amountOutWithFee","type":"uint256","internalType":"uint256"},{"name":"swapFeeAmounts","type":"uint256[]","internalType":"uint256[]"}],"stateMutability":"view"},{"type":"function","name":"computeRemoveLiquiditySingleTokenExactOut","inputs":[{"name":"currentBalances","type":"uint256[]","internalType":"uint256[]"},{"name":"tokenOutIndex","type":"uint256","internalType":"uint256"},{"name":"exactAmountOut","type":"uint256","internalType":"uint256"},{"name":"totalSupply","type":"uint256","internalType":"uint256"},{"name":"swapFeePercentage","type":"uint256","internalType":"uint256"}],"outputs":[{"name":"bptAmountIn","type":"uint256","internalType":"uint256"},{"name":"swapFeeAmounts","type":"uint256[]","internalType":"uint256[]"}],"stateMutability":"view"},{"type":"function","name":"getMaximumInvariantRatio","inputs":[],"outputs":[{"name":"","type":"uint256","internalType":"uint256"}],"stateMutability":"pure"},{"type":"function","name":"getMaximumSwapFeePercentage","inputs":[],"outputs":[{"name":"","type":"uint256","internalType":"uint256"}],"stateMutability":"pure"},{"type":"function","name":"getMinimumInvariantRatio","inputs":[],"outputs":[{"name":"","type":"uint256","internalType":"uint256"}],"stateMutability":"pure"},{"type":"function","name":"getMinimumSwapFeePercentage","inputs":[],"outputs":[{"name":"","type":"uint256","internalType":"uint256"}],"stateMutability":"pure"},{"type":"function","name":"onSwap","inputs":[{"name":"","type":"tuple","internalType":"struct PoolSwapParams","components":[{"name":"kind","type":"uint8","internalType":"enum SwapKind"},{"name":"amountGivenScaled18","type":"uint256","internalType":"uint256"},{"name":"balancesScaled18","type":"uint256[]","internalType":"uint256[]"},{"name":"indexIn","type":"uint256","internalType":"uint256"},{"name":"indexOut","type":"uint256","internalType":"uint256"},{"name":"router","type":"address","internalType":"address"},{"name":"userData","type":"bytes","internalType":"bytes"}]}],"outputs":[{"name":"","type":"uint256","internalType":"uint256"}],"stateMutability":"pure"},{"type":"error","name":"InvariantRatioAboveMax","inputs":[{"name":"invariantRatio","type":"uint256","internalType":"uint256"},{"name":"maxInvariantRatio","type":"uint256","internalType":"uint256"}]},{"type":"error","name":"InvariantRatioBelowMin","inputs":[{"name":"invariantRatio","type":"uint256","internalType":"uint256"},{"name":"minInvariantRatio","type":"uint256","internalType":"uint256"}]},{"type":"error","name":"ZeroDivision","inputs":[]}],"bytecode":{"object":"0x608060405234801561000f575f80fd5b5061150b8061001d5f395ff3fe608060405234801561000f575f80fd5b50600436106100da575f3560e01c8063984de9e811610088578063c548e4d811610063578063c548e4d814610195578063ce20ece71461018f578063d9c7cc7a146101b5578063da317980146101c8575f80fd5b8063984de9e8146101695780639a87ffbf1461017c578063b677fa561461018f575f80fd5b8063654cf15d116100b8578063654cf15d1461013557806372c981861461014357806385d5261a14610156575f80fd5b806316a0b3e0146100de578063273c1adf146101045780633ab0591514610114575b5f80fd5b6100f16100ec3660046111db565b6101db565b6040519081526020015b60405180910390f35b69d3c21bcecceda10000006100f1565b610127610122366004611225565b61022c565b6040516100fb9291906112b7565b670de0b6b3a76400006100f1565b6100f16101513660046112cf565b61024b565b610127610164366004611225565b6102b4565b6100f1610177366004611306565b6102c5565b61012761018a366004611225565b61030b565b5f6100f1565b6101a86101a33660046111db565b61031c565b6040516100fb9190611358565b6101276101c336600461136a565b610331565b6101a86101d63660046111db565b61034e565b5f806101e88560016102c5565b9050806101f5818561035b565b868681518110610207576102076113d9565b60200260200101516102199190611401565b6102239190611414565b95945050505050565b5f606061023d87878787873061037b565b915091509550959350505050565b6040517f08c379a000000000000000000000000000000000000000000000000000000000815260206004820152600f60248201527f4e6f7420696d706c656d656e746564000000000000000000000000000000000060448201525f906064015b60405180910390fd5b5f606061023d878787878730610509565b5f805f5b8451811015610301578481815181106102e4576102e46113d9565b6020026020010151826102f79190611401565b91506001016102c9565b5090505b92915050565b5f606061023d8787878787306106a1565b6060610329848484610a14565b949350505050565b5f60606103418686868630610ac2565b9150915094509492505050565b6060610329848484610e6c565b5f806103678385611427565b9050610329670de0b6b3a76400008261143e565b5f6060816103898787611414565b90505f6103968288610f14565b90506103a28582610f2f565b60405162b5059f60e51b81525f906001600160a01b038716906316a0b3e0906103d3908e908e90879060040161145d565b602060405180830381865afa1580156103ee573d5f803e3d5ffd5b505050506040513d601f19601f820116820180604052508101906104129190611481565b90505f818c8c81518110610428576104286113d9565b602002602001015161043a9190611414565b90505f61046b8d8d81518110610452576104526113d9565b60200260200101518b87610fdb9092919063ffffffff16565b90505f6104788483611414565b90505f610485828c611039565b90508e5167ffffffffffffffff8111156104a1576104a161112c565b6040519080825280602002602001820160405280156104ca578160200160208202803683370190505b50975080888f815181106104e0576104e06113d9565b60209081029190910101526104f58185611414565b985050505050505050965096945050505050565b5f6060816105178688611401565b90505f6105248288610f14565b90506105308582611065565b60405162b5059f60e51b81525f906001600160a01b038716906316a0b3e090610561908e908e90879060040161145d565b602060405180830381865afa15801561057c573d5f803e3d5ffd5b505050506040513d601f19601f820116820180604052508101906105a09190611481565b90505f8b8b815181106105b5576105b56113d9565b6020026020010151826105c89190611414565b90505f898d8d815181106105de576105de6113d9565b6020026020010151866105f19190611427565b6105fb919061143e565b90505f6106088285611414565b90505f81610627670de0b6b3a76400008d8103908e10025b8490610f14565b6106319190611414565b90508e5167ffffffffffffffff81111561064d5761064d61112c565b604051908082528060200260200182016040528015610676578160200160208202803683370190505b50975080888f8151811061068c5761068c6113d9565b60209081029190910101526104f58185611401565b85515f90606090828167ffffffffffffffff8111156106c2576106c261112c565b6040519080825280602002602001820160405280156106eb578160200160208202803683370190505b5090505f5b82811015610737578a818151811061070a5761070a6113d9565b6020026020010151828281518110610724576107246113d9565b60209081029190910101526001016106f0565b5087818a8151811061074b5761074b6113d9565b602002602001015161075d9190611414565b818a8151811061076f5761076f6113d9565b6020908102919091010152604051631309bd3d60e31b81525f906001600160a01b0387169063984de9e8906107aa908e908590600401611498565b602060405180830381865afa1580156107c5573d5f803e3d5ffd5b505050506040513d601f19601f820116820180604052508101906107e99190611481565b90505f61086382886001600160a01b031663984de9e8865f6040518363ffffffff1660e01b815260040161081e929190611498565b602060405180830381865afa158015610839573d5f803e3d5ffd5b505050506040513d601f19601f8201168201806040525081019061085d9190611481565b90610f14565b905061086f8782610f2f565b5f838c81518110610882576108826113d9565b60200260200101516108b68e8e8151811061089f5761089f6113d9565b60200260200101518461103990919063ffffffff16565b6108c09190611414565b90505f816108dc670de0b6b3a76400008c8103908d1002610620565b6108e69190611414565b905080858e815181106108fb576108fb6113d9565b602002602001015161090d9190611414565b858e8151811061091f5761091f6113d9565b6020908102919091010152604051631309bd3d60e31b81525f906001600160a01b038b169063984de9e89061095b908990600190600401611498565b602060405180830381865afa158015610976573d5f803e3d5ffd5b505050506040513d601f19601f8201168201806040525081019061099a9190611481565b90508667ffffffffffffffff8111156109b5576109b561112c565b6040519080825280602002602001820160405280156109de578160200160208202803683370190505b50975081888f815181106109f4576109f46113d9565b60209081029190910101526104f5610a0c8287611414565b8d9087610fdb565b6060835167ffffffffffffffff811115610a3057610a3061112c565b604051908082528060200260200182016040528015610a59578160200160208202803683370190505b5090505f5b8451811015610aba57610a958385878481518110610a7e57610a7e6113d9565b6020026020010151610fdb9092919063ffffffff16565b828281518110610aa757610aa76113d9565b6020908102919091010152600101610a5e565b509392505050565b84515f90606090828167ffffffffffffffff811115610ae357610ae361112c565b604051908082528060200260200182016040528015610b0c578160200160208202803683370190505b5090508167ffffffffffffffff811115610b2857610b2861112c565b604051908082528060200260200182016040528015610b51578160200160208202803683370190505b5092505f5b82811015610bc157888181518110610b7057610b706113d9565b60200260200101518a8281518110610b8a57610b8a6113d9565b6020026020010151610b9c9190611401565b828281518110610bae57610bae6113d9565b6020908102919091010152600101610b56565b50604051631309bd3d60e31b81525f906001600160a01b0387169063984de9e890610bf2908d908590600401611498565b602060405180830381865afa158015610c0d573d5f803e3d5ffd5b505050506040513d601f19601f82011682018060405250810190610c319190611481565b90505f610cac82886001600160a01b031663984de9e88660016040518363ffffffff1660e01b8152600401610c67929190611498565b602060405180830381865afa158015610c82573d5f803e3d5ffd5b505050506040513d601f19601f82011682018060405250810190610ca69190611481565b9061110c565b9050610cb88782611065565b5f5b84811015610dc9575f610cef8d8381518110610cd857610cd86113d9565b60200260200101518461035b90919063ffffffff16565b905080858381518110610d0457610d046113d9565b60200260200101511115610dc0575f81868481518110610d2657610d266113d9565b6020026020010151039050610d448b8261103990919063ffffffff16565b888481518110610d5657610d566113d9565b602002602001018181525050878381518110610d7457610d746113d9565b6020026020010151868481518110610d8e57610d8e6113d9565b6020026020010151610da09190611414565b868481518110610db257610db26113d9565b602002602001018181525050505b50600101610cba565b50604051631309bd3d60e31b81525f906001600160a01b0389169063984de9e890610dfb908790600190600401611498565b602060405180830381865afa158015610e16573d5f803e3d5ffd5b505050506040513d601f19601f82011682018060405250810190610e3a9190611481565b905082610e478183611414565b610e51908c611427565b610e5b919061143e565b965050505050509550959350505050565b6060835167ffffffffffffffff811115610e8857610e8861112c565b604051908082528060200260200182016040528015610eb1578160200160208202803683370190505b5090505f5b8451811015610aba578383868381518110610ed357610ed36113d9565b6020026020010151610ee59190611427565b610eef919061143e565b828281518110610f0157610f016113d9565b6020908102919091010152600101610eb6565b5f610f2883670de0b6b3a764000084610fdb565b9392505050565b5f826001600160a01b031663b677fa566040518163ffffffff1660e01b8152600401602060405180830381865afa158015610f6c573d5f803e3d5ffd5b505050506040513d601f19601f82011682018060405250810190610f909190611481565b905080821015610fd6576040517fe31c95be00000000000000000000000000000000000000000000000000000000815260048101839052602481018290526044016102ab565b505050565b5f815f03611015576040517f0a0c22c700000000000000000000000000000000000000000000000000000000815260040160405180910390fd5b5f6110208486611427565b9050600183600183030401811515029150509392505050565b5f806110458385611427565b90506001670de0b6b3a76400006001830304018115150291505092915050565b5f826001600160a01b031663273c1adf6040518163ffffffff1660e01b8152600401602060405180830381865afa1580156110a2573d5f803e3d5ffd5b505050506040513d601f19601f820116820180604052508101906110c69190611481565b905080821115610fd6576040517f3e8960dc00000000000000000000000000000000000000000000000000000000815260048101839052602481018290526044016102ab565b5f80611120670de0b6b3a764000085611427565b9050610329838261143e565b634e487b7160e01b5f52604160045260245ffd5b5f82601f83011261114f575f80fd5b8135602067ffffffffffffffff8083111561116c5761116c61112c565b8260051b604051601f19603f830116810181811084821117156111915761119161112c565b60405293845260208187018101949081019250878511156111b0575f80fd5b6020870191505b848210156111d0578135835291830191908301906111b7565b979650505050505050565b5f805f606084860312156111ed575f80fd5b833567ffffffffffffffff811115611203575f80fd5b61120f86828701611140565b9660208601359650604090950135949350505050565b5f805f805f60a08688031215611239575f80fd5b853567ffffffffffffffff81111561124f575f80fd5b61125b88828901611140565b9860208801359850604088013597606081013597506080013595509350505050565b5f815180845260208085019450602084015f5b838110156112ac57815187529582019590820190600101611290565b509495945050505050565b828152604060208201525f610329604083018461127d565b5f602082840312156112df575f80fd5b813567ffffffffffffffff8111156112f5575f80fd5b820160e08185031215610f28575f80fd5b5f8060408385031215611317575f80fd5b823567ffffffffffffffff81111561132d575f80fd5b61133985828601611140565b92505060208301356002811061134d575f80fd5b809150509250929050565b602081525f610f28602083018461127d565b5f805f806080858703121561137d575f80fd5b843567ffffffffffffffff80821115611394575f80fd5b6113a088838901611140565b955060208701359150808211156113b5575f80fd5b506113c287828801611140565b949794965050505060408301359260600135919050565b634e487b7160e01b5f52603260045260245ffd5b634e487b7160e01b5f52601160045260245ffd5b80820180821115610305576103056113ed565b81810381811115610305576103056113ed565b8082028115828204841417610305576103056113ed565b5f8261145857634e487b7160e01b5f52601260045260245ffd5b500490565b606081525f61146f606083018661127d565b60208301949094525060400152919050565b5f60208284031215611491575f80fd5b5051919050565b604081525f6114aa604083018561127d565b9050600283106114c857634e487b7160e01b5f52602160045260245ffd5b826020830152939250505056fea2646970667358221220ddffc5b297f8c6c8211042bf3a9696861e78b16a7f9d79db3ef16989c98e516764736f6c63430008180033","linkReferences":{}},"methodIdentifiers":{"computeAddLiquiditySingleTokenExactOut(uint256[],uint256,uint256,uint256,uint256)":"85d5261a","computeAddLiquidityUnbalanced(uint256[],uint256[],uint256,uint256)":"d9c7cc7a","computeBalance(uint256[],uint256,uint256)":"16a0b3e0","computeInvariant(uint256[],uint8)":"984de9e8","computeProportionalAmountsIn(uint256[],uint256,uint256)":"c548e4d8","computeProportionalAmountsOut(uint256[],uint256,uint256)":"da317980","computeRemoveLiquiditySingleTokenExactIn(uint256[],uint256,uint256,uint256,uint256)":"3ab05915","computeRemoveLiquiditySingleTokenExactOut(uint256[],uint256,uint256,uint256,uint256)":"9a87ffbf","getMaximumInvariantRatio()":"273c1adf","getMaximumSwapFeePercentage()":"654cf15d","getMinimumInvariantRatio()":"b677fa56","getMinimumSwapFeePercentage()":"ce20ece7","onSwap((uint8,uint256,uint256[],uint256,uint256,address,bytes))":"72c98186"},"id":112}