{"abi":[{"type":"constructor","inputs":[],"stateMutability":"nonpayable"},{"type":"function","name":"getRate","inputs":[],"outputs":[{"name":"","type":"uint256","internalType":"uint256"}],"stateMutability":"view"},{"type":"function","name":"mockRate","inputs":[{"name":"newRate","type":"uint256","internalType":"uint256"}],"outputs":[],"stateMutability":"nonpayable"}],"bytecode":{"object":"0x6080604052348015600e575f80fd5b50670de0b6b3a76400005f5560a5806100265f395ff3fe6080604052348015600e575f80fd5b50600436106030575f3560e01c8063679aefce146034578063a1cfa041146048575b5f80fd5b5f5460405190815260200160405180910390f35b605760533660046059565b5f55565b005b5f602082840312156068575f80fd5b503591905056fea2646970667358221220c7d72fd69528fc6f4cdd1aab225fa99b1503d79b504d44cf0adfbc53fba613d064736f6c63430008180033","linkReferences":{}},"methodIdentifiers":{"getRate()":"679aefce","mockRate(uint256)":"a1cfa041"},"id":118}