{"abi":[{"type":"constructor","inputs":[{"name":"vaultExtension","type":"address","internalType":"contract IVaultExtension"},{"name":"authorizer","type":"address","internalType":"contract IAuthorizer"},{"name":"protocolFeeController","type":"address","internalType":"contract IProtocolFeeController"}],"stateMutability":"nonpayable"},{"type":"fallback","stateMutability":"payable"},{"type":"receive","stateMutability":"payable"},{"type":"function","name":"accountDelta","inputs":[{"name":"token","type":"address","internalType":"contract IERC20"},{"name":"delta","type":"int256","internalType":"int256"}],"outputs":[],"stateMutability":"nonpayable"},{"type":"function","name":"addLiquidity","inputs":[{"name":"params","type":"tuple","internalType":"struct AddLiquidityParams","components":[{"name":"pool","type":"address","internalType":"address"},{"name":"to","type":"address","internalType":"address"},{"name":"maxAmountsIn","type":"uint256[]","internalType":"uint256[]"},{"name":"minBptAmountOut","type":"uint256","internalType":"uint256"},{"name":"kind","type":"uint8","internalType":"enum AddLiquidityKind"},{"name":"userData","type":"bytes","internalType":"bytes"}]}],"outputs":[{"name":"amountsIn","type":"uint256[]","internalType":"uint256[]"},{"name":"bptAmountOut","type":"uint256","internalType":"uint256"},{"name":"returnData","type":"bytes","internalType":"bytes"}],"stateMutability":"nonpayable"},{"type":"function","name":"buildTokenConfig","inputs":[{"name":"tokens","type":"address[]","internalType":"contract IERC20[]"}],"outputs":[{"name":"tokenConfig","type":"tuple[]","internalType":"struct TokenConfig[]","components":[{"name":"token","type":"address","internalType":"contract IERC20"},{"name":"tokenType","type":"uint8","internalType":"enum TokenType"},{"name":"rateProvider","type":"address","internalType":"contract IRateProvider"},{"name":"paysYieldFees","type":"bool","internalType":"bool"}]}],"stateMutability":"view"},{"type":"function","name":"buildTokenConfig","inputs":[{"name":"tokens","type":"address[]","internalType":"contract IERC20[]"},{"name":"rateProviders","type":"address[]","internalType":"contract IRateProvider[]"}],"outputs":[{"name":"tokenConfig","type":"tuple[]","internalType":"struct TokenConfig[]","components":[{"name":"token","type":"address","internalType":"contract IERC20"},{"name":"tokenType","type":"uint8","internalType":"enum TokenType"},{"name":"rateProvider","type":"address","internalType":"contract IRateProvider"},{"name":"paysYieldFees","type":"bool","internalType":"bool"}]}],"stateMutability":"view"},{"type":"function","name":"buildTokenConfig","inputs":[{"name":"tokens","type":"address[]","internalType":"contract IERC20[]"},{"name":"tokenTypes","type":"uint8[]","internalType":"enum TokenType[]"},{"name":"rateProviders","type":"address[]","internalType":"contract IRateProvider[]"},{"name":"yieldFeeFlags","type":"bool[]","internalType":"bool[]"}],"outputs":[{"name":"tokenConfig","type":"tuple[]","internalType":"struct TokenConfig[]","components":[{"name":"token","type":"address","internalType":"contract IERC20"},{"name":"tokenType","type":"uint8","internalType":"enum TokenType"},{"name":"rateProvider","type":"address","internalType":"contract IRateProvider"},{"name":"paysYieldFees","type":"bool","internalType":"bool"}]}],"stateMutability":"view"},{"type":"function","name":"buildTokenConfig","inputs":[{"name":"tokens","type":"address[]","internalType":"contract IERC20[]"},{"name":"rateProviders","type":"address[]","internalType":"contract IRateProvider[]"},{"name":"yieldFeeFlags","type":"bool[]","internalType":"bool[]"}],"outputs":[{"name":"tokenConfig","type":"tuple[]","internalType":"struct TokenConfig[]","components":[{"name":"token","type":"address","internalType":"contract IERC20"},{"name":"tokenType","type":"uint8","internalType":"enum TokenType"},{"name":"rateProvider","type":"address","internalType":"contract IRateProvider"},{"name":"paysYieldFees","type":"bool","internalType":"bool"}]}],"stateMutability":"view"},{"type":"function","name":"burnERC20","inputs":[{"name":"token","type":"address","internalType":"address"},{"name":"from","type":"address","internalType":"address"},{"name":"amount","type":"uint256","internalType":"uint256"}],"outputs":[],"stateMutability":"nonpayable"},{"type":"function","name":"computeYieldFeesDue","inputs":[{"name":"poolData","type":"tuple","internalType":"struct PoolData","components":[{"name":"poolConfigBits","type":"bytes32","internalType":"PoolConfigBits"},{"name":"tokens","type":"address[]","internalType":"contract IERC20[]"},{"name":"tokenInfo","type":"tuple[]","internalType":"struct TokenInfo[]","components":[{"name":"tokenType","type":"uint8","internalType":"enum TokenType"},{"name":"rateProvider","type":"address","internalType":"contract IRateProvider"},{"name":"paysYieldFees","type":"bool","internalType":"bool"}]},{"name":"balancesRaw","type":"uint256[]","internalType":"uint256[]"},{"name":"balancesLiveScaled18","type":"uint256[]","internalType":"uint256[]"},{"name":"tokenRates","type":"uint256[]","internalType":"uint256[]"},{"name":"decimalScalingFactors","type":"uint256[]","internalType":"uint256[]"}]},{"name":"lastLiveBalance","type":"uint256","internalType":"uint256"},{"name":"tokenIndex","type":"uint256","internalType":"uint256"},{"name":"aggregateYieldFeePercentage","type":"uint256","internalType":"uint256"}],"outputs":[{"name":"","type":"uint256","internalType":"uint256"}],"stateMutability":"pure"},{"type":"function","name":"ensurePoolNotPaused","inputs":[{"name":"pool","type":"address","internalType":"address"}],"outputs":[],"stateMutability":"view"},{"type":"function","name":"ensureUnpausedAndGetVaultState","inputs":[{"name":"pool","type":"address","internalType":"address"}],"outputs":[{"name":"vaultState","type":"tuple","internalType":"struct VaultState","components":[{"name":"isQueryDisabled","type":"bool","internalType":"bool"},{"name":"isVaultPaused","type":"bool","internalType":"bool"},{"name":"areBuffersPaused","type":"bool","internalType":"bool"}]}],"stateMutability":"view"},{"type":"function","name":"ensureValidSwapAmount","inputs":[{"name":"tradeAmount","type":"uint256","internalType":"uint256"}],"outputs":[],"stateMutability":"view"},{"type":"function","name":"ensureValidTradeAmount","inputs":[{"name":"tradeAmount","type":"uint256","internalType":"uint256"}],"outputs":[],"stateMutability":"view"},{"type":"function","name":"erc4626BufferWrapOrUnwrap","inputs":[{"name":"params","type":"tuple","internalType":"struct BufferWrapOrUnwrapParams","components":[{"name":"kind","type":"uint8","internalType":"enum SwapKind"},{"name":"direction","type":"uint8","internalType":"enum WrappingDirection"},{"name":"wrappedToken","type":"address","internalType":"contract IERC4626"},{"name":"amountGivenRaw","type":"uint256","internalType":"uint256"},{"name":"limitRaw","type":"uint256","internalType":"uint256"}]}],"outputs":[{"name":"amountCalculatedRaw","type":"uint256","internalType":"uint256"},{"name":"amountInRaw","type":"uint256","internalType":"uint256"},{"name":"amountOutRaw","type":"uint256","internalType":"uint256"}],"stateMutability":"nonpayable"},{"type":"function","name":"forceLock","inputs":[],"outputs":[],"stateMutability":"nonpayable"},{"type":"function","name":"forceUnlock","inputs":[],"outputs":[],"stateMutability":"nonpayable"},{"type":"function","name":"getAuthorizer","inputs":[],"outputs":[{"name":"","type":"address","internalType":"contract IAuthorizer"}],"stateMutability":"view"},{"type":"function","name":"getBufferTokenBalancesBytes","inputs":[{"name":"wrappedToken","type":"address","internalType":"contract IERC4626"}],"outputs":[{"name":"","type":"bytes32","internalType":"bytes32"}],"stateMutability":"view"},{"type":"function","name":"getLastLiveBalances","inputs":[{"name":"pool","type":"address","internalType":"address"}],"outputs":[{"name":"lastBalancesLiveScaled18","type":"uint256[]","internalType":"uint256[]"}],"stateMutability":"view"},{"type":"function","name":"getPoolFactoryMock","inputs":[],"outputs":[{"name":"","type":"address","internalType":"address"}],"stateMutability":"view"},{"type":"function","name":"getPoolTokenCountAndIndexOfToken","inputs":[{"name":"pool","type":"address","internalType":"address"},{"name":"token","type":"address","internalType":"contract IERC20"}],"outputs":[{"name":"","type":"uint256","internalType":"uint256"},{"name":"","type":"uint256","internalType":"uint256"}],"stateMutability":"view"},{"type":"function","name":"getRawBalances","inputs":[{"name":"pool","type":"address","internalType":"address"}],"outputs":[{"name":"balancesRaw","type":"uint256[]","internalType":"uint256[]"}],"stateMutability":"view"},{"type":"function","name":"getVaultExtension","inputs":[],"outputs":[{"name":"","type":"address","internalType":"address"}],"stateMutability":"view"},{"type":"function","name":"guardedCheckEntered","inputs":[],"outputs":[],"stateMutability":"nonpayable"},{"type":"function","name":"internalGetBufferUnderlyingImbalance","inputs":[{"name":"wrappedToken","type":"address","internalType":"contract IERC4626"}],"outputs":[{"name":"","type":"int256","internalType":"int256"}],"stateMutability":"view"},{"type":"function","name":"internalGetBufferWrappedImbalance","inputs":[{"name":"wrappedToken","type":"address","internalType":"contract IERC4626"}],"outputs":[{"name":"","type":"int256","internalType":"int256"}],"stateMutability":"view"},{"type":"function","name":"loadPoolDataUpdatingBalancesAndYieldFees","inputs":[{"name":"pool","type":"address","internalType":"address"},{"name":"roundingDirection","type":"uint8","internalType":"enum Rounding"}],"outputs":[{"name":"","type":"tuple","internalType":"struct PoolData","components":[{"name":"poolConfigBits","type":"bytes32","internalType":"PoolConfigBits"},{"name":"tokens","type":"address[]","internalType":"contract IERC20[]"},{"name":"tokenInfo","type":"tuple[]","internalType":"struct TokenInfo[]","components":[{"name":"tokenType","type":"uint8","internalType":"enum TokenType"},{"name":"rateProvider","type":"address","internalType":"contract IRateProvider"},{"name":"paysYieldFees","type":"bool","internalType":"bool"}]},{"name":"balancesRaw","type":"uint256[]","internalType":"uint256[]"},{"name":"balancesLiveScaled18","type":"uint256[]","internalType":"uint256[]"},{"name":"tokenRates","type":"uint256[]","internalType":"uint256[]"},{"name":"decimalScalingFactors","type":"uint256[]","internalType":"uint256[]"}]}],"stateMutability":"nonpayable"},{"type":"function","name":"loadPoolDataUpdatingBalancesAndYieldFeesReentrancy","inputs":[{"name":"pool","type":"address","internalType":"address"},{"name":"roundingDirection","type":"uint8","internalType":"enum Rounding"}],"outputs":[{"name":"","type":"tuple","internalType":"struct PoolData","components":[{"name":"poolConfigBits","type":"bytes32","internalType":"PoolConfigBits"},{"name":"tokens","type":"address[]","internalType":"contract IERC20[]"},{"name":"tokenInfo","type":"tuple[]","internalType":"struct TokenInfo[]","components":[{"name":"tokenType","type":"uint8","internalType":"enum TokenType"},{"name":"rateProvider","type":"address","internalType":"contract IRateProvider"},{"name":"paysYieldFees","type":"bool","internalType":"bool"}]},{"name":"balancesRaw","type":"uint256[]","internalType":"uint256[]"},{"name":"balancesLiveScaled18","type":"uint256[]","internalType":"uint256[]"},{"name":"tokenRates","type":"uint256[]","internalType":"uint256[]"},{"name":"decimalScalingFactors","type":"uint256[]","internalType":"uint256[]"}]}],"stateMutability":"nonpayable"},{"type":"function","name":"manualAddLiquidity","inputs":[{"name":"poolData","type":"tuple","internalType":"struct PoolData","components":[{"name":"poolConfigBits","type":"bytes32","internalType":"PoolConfigBits"},{"name":"tokens","type":"address[]","internalType":"contract IERC20[]"},{"name":"tokenInfo","type":"tuple[]","internalType":"struct TokenInfo[]","components":[{"name":"tokenType","type":"uint8","internalType":"enum TokenType"},{"name":"rateProvider","type":"address","internalType":"contract IRateProvider"},{"name":"paysYieldFees","type":"bool","internalType":"bool"}]},{"name":"balancesRaw","type":"uint256[]","internalType":"uint256[]"},{"name":"balancesLiveScaled18","type":"uint256[]","internalType":"uint256[]"},{"name":"tokenRates","type":"uint256[]","internalType":"uint256[]"},{"name":"decimalScalingFactors","type":"uint256[]","internalType":"uint256[]"}]},{"name":"params","type":"tuple","internalType":"struct AddLiquidityParams","components":[{"name":"pool","type":"address","internalType":"address"},{"name":"to","type":"address","internalType":"address"},{"name":"maxAmountsIn","type":"uint256[]","internalType":"uint256[]"},{"name":"minBptAmountOut","type":"uint256","internalType":"uint256"},{"name":"kind","type":"uint8","internalType":"enum AddLiquidityKind"},{"name":"userData","type":"bytes","internalType":"bytes"}]},{"name":"maxAmountsInScaled18","type":"uint256[]","internalType":"uint256[]"}],"outputs":[{"name":"updatedPoolData","type":"tuple","internalType":"struct PoolData","components":[{"name":"poolConfigBits","type":"bytes32","internalType":"PoolConfigBits"},{"name":"tokens","type":"address[]","internalType":"contract IERC20[]"},{"name":"tokenInfo","type":"tuple[]","internalType":"struct TokenInfo[]","components":[{"name":"tokenType","type":"uint8","internalType":"enum TokenType"},{"name":"rateProvider","type":"address","internalType":"contract IRateProvider"},{"name":"paysYieldFees","type":"bool","internalType":"bool"}]},{"name":"balancesRaw","type":"uint256[]","internalType":"uint256[]"},{"name":"balancesLiveScaled18","type":"uint256[]","internalType":"uint256[]"},{"name":"tokenRates","type":"uint256[]","internalType":"uint256[]"},{"name":"decimalScalingFactors","type":"uint256[]","internalType":"uint256[]"}]},{"name":"amountsInRaw","type":"uint256[]","internalType":"uint256[]"},{"name":"amountsInScaled18","type":"uint256[]","internalType":"uint256[]"},{"name":"bptAmountOut","type":"uint256","internalType":"uint256"},{"name":"returnData","type":"bytes","internalType":"bytes"}],"stateMutability":"nonpayable"},{"type":"function","name":"manualBuildPoolSwapParams","inputs":[{"name":"vaultSwapParams","type":"tuple","internalType":"struct VaultSwapParams","components":[{"name":"kind","type":"uint8","internalType":"enum SwapKind"},{"name":"pool","type":"address","internalType":"address"},{"name":"tokenIn","type":"address","internalType":"contract IERC20"},{"name":"tokenOut","type":"address","internalType":"contract IERC20"},{"name":"amountGivenRaw","type":"uint256","internalType":"uint256"},{"name":"limitRaw","type":"uint256","internalType":"uint256"},{"name":"userData","type":"bytes","internalType":"bytes"}]},{"name":"state","type":"tuple","internalType":"struct SwapState","components":[{"name":"indexIn","type":"uint256","internalType":"uint256"},{"name":"indexOut","type":"uint256","internalType":"uint256"},{"name":"amountGivenScaled18","type":"uint256","internalType":"uint256"},{"name":"swapFeePercentage","type":"uint256","internalType":"uint256"}]},{"name":"poolData","type":"tuple","internalType":"struct PoolData","components":[{"name":"poolConfigBits","type":"bytes32","internalType":"PoolConfigBits"},{"name":"tokens","type":"address[]","internalType":"contract IERC20[]"},{"name":"tokenInfo","type":"tuple[]","internalType":"struct TokenInfo[]","components":[{"name":"tokenType","type":"uint8","internalType":"enum TokenType"},{"name":"rateProvider","type":"address","internalType":"contract IRateProvider"},{"name":"paysYieldFees","type":"bool","internalType":"bool"}]},{"name":"balancesRaw","type":"uint256[]","internalType":"uint256[]"},{"name":"balancesLiveScaled18","type":"uint256[]","internalType":"uint256[]"},{"name":"tokenRates","type":"uint256[]","internalType":"uint256[]"},{"name":"decimalScalingFactors","type":"uint256[]","internalType":"uint256[]"}]}],"outputs":[{"name":"","type":"tuple","internalType":"struct PoolSwapParams","components":[{"name":"kind","type":"uint8","internalType":"enum SwapKind"},{"name":"amountGivenScaled18","type":"uint256","internalType":"uint256"},{"name":"balancesScaled18","type":"uint256[]","internalType":"uint256[]"},{"name":"indexIn","type":"uint256","internalType":"uint256"},{"name":"indexOut","type":"uint256","internalType":"uint256"},{"name":"router","type":"address","internalType":"address"},{"name":"userData","type":"bytes","internalType":"bytes"}]}],"stateMutability":"view"},{"type":"function","name":"manualComputeAndChargeAggregateSwapFees","inputs":[{"name":"poolData","type":"tuple","internalType":"struct PoolData","components":[{"name":"poolConfigBits","type":"bytes32","internalType":"PoolConfigBits"},{"name":"tokens","type":"address[]","internalType":"contract IERC20[]"},{"name":"tokenInfo","type":"tuple[]","internalType":"struct TokenInfo[]","components":[{"name":"tokenType","type":"uint8","internalType":"enum TokenType"},{"name":"rateProvider","type":"address","internalType":"contract IRateProvider"},{"name":"paysYieldFees","type":"bool","internalType":"bool"}]},{"name":"balancesRaw","type":"uint256[]","internalType":"uint256[]"},{"name":"balancesLiveScaled18","type":"uint256[]","internalType":"uint256[]"},{"name":"tokenRates","type":"uint256[]","internalType":"uint256[]"},{"name":"decimalScalingFactors","type":"uint256[]","internalType":"uint256[]"}]},{"name":"totalSwapFeeAmountScaled18","type":"uint256","internalType":"uint256"},{"name":"pool","type":"address","internalType":"address"},{"name":"token","type":"address","internalType":"contract IERC20"},{"name":"index","type":"uint256","internalType":"uint256"}],"outputs":[{"name":"totalSwapFeeAmountRaw","type":"uint256","internalType":"uint256"},{"name":"aggregateSwapFeeAmountRaw","type":"uint256","internalType":"uint256"}],"stateMutability":"nonpayable"},{"type":"function","name":"manualErc4626BufferWrapOrUnwrapReentrancy","inputs":[{"name":"params","type":"tuple","internalType":"struct BufferWrapOrUnwrapParams","components":[{"name":"kind","type":"uint8","internalType":"enum SwapKind"},{"name":"direction","type":"uint8","internalType":"enum WrappingDirection"},{"name":"wrappedToken","type":"address","internalType":"contract IERC4626"},{"name":"amountGivenRaw","type":"uint256","internalType":"uint256"},{"name":"limitRaw","type":"uint256","internalType":"uint256"}]}],"outputs":[{"name":"amountCalculatedRaw","type":"uint256","internalType":"uint256"},{"name":"amountInRaw","type":"uint256","internalType":"uint256"},{"name":"amountOutRaw","type":"uint256","internalType":"uint256"}],"stateMutability":"nonpayable"},{"type":"function","name":"manualFindTokenIndex","inputs":[{"name":"tokens","type":"address[]","internalType":"contract IERC20[]"},{"name":"token","type":"address","internalType":"contract IERC20"}],"outputs":[{"name":"index","type":"uint256","internalType":"uint256"}],"stateMutability":"pure"},{"type":"function","name":"manualGetAggregateSwapFeeAmount","inputs":[{"name":"pool","type":"address","internalType":"address"},{"name":"token","type":"address","internalType":"contract IERC20"}],"outputs":[{"name":"","type":"uint256","internalType":"uint256"}],"stateMutability":"view"},{"type":"function","name":"manualGetAggregateYieldFeeAmount","inputs":[{"name":"pool","type":"address","internalType":"address"},{"name":"token","type":"address","internalType":"contract IERC20"}],"outputs":[{"name":"","type":"uint256","internalType":"uint256"}],"stateMutability":"view"},{"type":"function","name":"manualGetIsUnlocked","inputs":[],"outputs":[{"name":"slot","type":"bytes32","internalType":"StorageSlotExtension.BooleanSlotType"}],"stateMutability":"view"},{"type":"function","name":"manualGetNonzeroDeltaCount","inputs":[],"outputs":[{"name":"slot","type":"bytes32","internalType":"StorageSlotExtension.Uint256SlotType"}],"stateMutability":"view"},{"type":"function","name":"manualGetPoolConfigBits","inputs":[{"name":"pool","type":"address","internalType":"address"}],"outputs":[{"name":"","type":"bytes32","internalType":"PoolConfigBits"}],"stateMutability":"view"},{"type":"function","name":"manualGetTokenDeltas","inputs":[],"outputs":[{"name":"slot","type":"bytes32","internalType":"TokenDeltaMappingSlotType"}],"stateMutability":"view"},{"type":"function","name":"manualInternalSwap","inputs":[{"name":"vaultSwapParams","type":"tuple","internalType":"struct VaultSwapParams","components":[{"name":"kind","type":"uint8","internalType":"enum SwapKind"},{"name":"pool","type":"address","internalType":"address"},{"name":"tokenIn","type":"address","internalType":"contract IERC20"},{"name":"tokenOut","type":"address","internalType":"contract IERC20"},{"name":"amountGivenRaw","type":"uint256","internalType":"uint256"},{"name":"limitRaw","type":"uint256","internalType":"uint256"},{"name":"userData","type":"bytes","internalType":"bytes"}]},{"name":"state","type":"tuple","internalType":"struct SwapState","components":[{"name":"indexIn","type":"uint256","internalType":"uint256"},{"name":"indexOut","type":"uint256","internalType":"uint256"},{"name":"amountGivenScaled18","type":"uint256","internalType":"uint256"},{"name":"swapFeePercentage","type":"uint256","internalType":"uint256"}]},{"name":"poolData","type":"tuple","internalType":"struct PoolData","components":[{"name":"poolConfigBits","type":"bytes32","internalType":"PoolConfigBits"},{"name":"tokens","type":"address[]","internalType":"contract IERC20[]"},{"name":"tokenInfo","type":"tuple[]","internalType":"struct TokenInfo[]","components":[{"name":"tokenType","type":"uint8","internalType":"enum TokenType"},{"name":"rateProvider","type":"address","internalType":"contract IRateProvider"},{"name":"paysYieldFees","type":"bool","internalType":"bool"}]},{"name":"balancesRaw","type":"uint256[]","internalType":"uint256[]"},{"name":"balancesLiveScaled18","type":"uint256[]","internalType":"uint256[]"},{"name":"tokenRates","type":"uint256[]","internalType":"uint256[]"},{"name":"decimalScalingFactors","type":"uint256[]","internalType":"uint256[]"}]}],"outputs":[{"name":"amountCalculatedRaw","type":"uint256","internalType":"uint256"},{"name":"amountCalculatedScaled18","type":"uint256","internalType":"uint256"},{"name":"amountIn","type":"uint256","internalType":"uint256"},{"name":"amountOut","type":"uint256","internalType":"uint256"},{"name":"","type":"tuple","internalType":"struct VaultSwapParams","components":[{"name":"kind","type":"uint8","internalType":"enum SwapKind"},{"name":"pool","type":"address","internalType":"address"},{"name":"tokenIn","type":"address","internalType":"contract IERC20"},{"name":"tokenOut","type":"address","internalType":"contract IERC20"},{"name":"amountGivenRaw","type":"uint256","internalType":"uint256"},{"name":"limitRaw","type":"uint256","internalType":"uint256"},{"name":"userData","type":"bytes","internalType":"bytes"}]},{"name":"","type":"tuple","internalType":"struct SwapState","components":[{"name":"indexIn","type":"uint256","internalType":"uint256"},{"name":"indexOut","type":"uint256","internalType":"uint256"},{"name":"amountGivenScaled18","type":"uint256","internalType":"uint256"},{"name":"swapFeePercentage","type":"uint256","internalType":"uint256"}]},{"name":"","type":"tuple","internalType":"struct PoolData","components":[{"name":"poolConfigBits","type":"bytes32","internalType":"PoolConfigBits"},{"name":"tokens","type":"address[]","internalType":"contract IERC20[]"},{"name":"tokenInfo","type":"tuple[]","internalType":"struct TokenInfo[]","components":[{"name":"tokenType","type":"uint8","internalType":"enum TokenType"},{"name":"rateProvider","type":"address","internalType":"contract IRateProvider"},{"name":"paysYieldFees","type":"bool","internalType":"bool"}]},{"name":"balancesRaw","type":"uint256[]","internalType":"uint256[]"},{"name":"balancesLiveScaled18","type":"uint256[]","internalType":"uint256[]"},{"name":"tokenRates","type":"uint256[]","internalType":"uint256[]"},{"name":"decimalScalingFactors","type":"uint256[]","internalType":"uint256[]"}]}],"stateMutability":"nonpayable"},{"type":"function","name":"manualReentrancyAddLiquidity","inputs":[{"name":"poolData","type":"tuple","internalType":"struct PoolData","components":[{"name":"poolConfigBits","type":"bytes32","internalType":"PoolConfigBits"},{"name":"tokens","type":"address[]","internalType":"contract IERC20[]"},{"name":"tokenInfo","type":"tuple[]","internalType":"struct TokenInfo[]","components":[{"name":"tokenType","type":"uint8","internalType":"enum TokenType"},{"name":"rateProvider","type":"address","internalType":"contract IRateProvider"},{"name":"paysYieldFees","type":"bool","internalType":"bool"}]},{"name":"balancesRaw","type":"uint256[]","internalType":"uint256[]"},{"name":"balancesLiveScaled18","type":"uint256[]","internalType":"uint256[]"},{"name":"tokenRates","type":"uint256[]","internalType":"uint256[]"},{"name":"decimalScalingFactors","type":"uint256[]","internalType":"uint256[]"}]},{"name":"params","type":"tuple","internalType":"struct AddLiquidityParams","components":[{"name":"pool","type":"address","internalType":"address"},{"name":"to","type":"address","internalType":"address"},{"name":"maxAmountsIn","type":"uint256[]","internalType":"uint256[]"},{"name":"minBptAmountOut","type":"uint256","internalType":"uint256"},{"name":"kind","type":"uint8","internalType":"enum AddLiquidityKind"},{"name":"userData","type":"bytes","internalType":"bytes"}]},{"name":"maxAmountsInScaled18","type":"uint256[]","internalType":"uint256[]"}],"outputs":[],"stateMutability":"nonpayable"},{"type":"function","name":"manualReentrancyRemoveLiquidity","inputs":[{"name":"poolData","type":"tuple","internalType":"struct PoolData","components":[{"name":"poolConfigBits","type":"bytes32","internalType":"PoolConfigBits"},{"name":"tokens","type":"address[]","internalType":"contract IERC20[]"},{"name":"tokenInfo","type":"tuple[]","internalType":"struct TokenInfo[]","components":[{"name":"tokenType","type":"uint8","internalType":"enum TokenType"},{"name":"rateProvider","type":"address","internalType":"contract IRateProvider"},{"name":"paysYieldFees","type":"bool","internalType":"bool"}]},{"name":"balancesRaw","type":"uint256[]","internalType":"uint256[]"},{"name":"balancesLiveScaled18","type":"uint256[]","internalType":"uint256[]"},{"name":"tokenRates","type":"uint256[]","internalType":"uint256[]"},{"name":"decimalScalingFactors","type":"uint256[]","internalType":"uint256[]"}]},{"name":"params","type":"tuple","internalType":"struct RemoveLiquidityParams","components":[{"name":"pool","type":"address","internalType":"address"},{"name":"from","type":"address","internalType":"address"},{"name":"maxBptAmountIn","type":"uint256","internalType":"uint256"},{"name":"minAmountsOut","type":"uint256[]","internalType":"uint256[]"},{"name":"kind","type":"uint8","internalType":"enum RemoveLiquidityKind"},{"name":"userData","type":"bytes","internalType":"bytes"}]},{"name":"minAmountsOutScaled18","type":"uint256[]","internalType":"uint256[]"}],"outputs":[],"stateMutability":"nonpayable"},{"type":"function","name":"manualReentrancySwap","inputs":[{"name":"vaultSwapParams","type":"tuple","internalType":"struct VaultSwapParams","components":[{"name":"kind","type":"uint8","internalType":"enum SwapKind"},{"name":"pool","type":"address","internalType":"address"},{"name":"tokenIn","type":"address","internalType":"contract IERC20"},{"name":"tokenOut","type":"address","internalType":"contract IERC20"},{"name":"amountGivenRaw","type":"uint256","internalType":"uint256"},{"name":"limitRaw","type":"uint256","internalType":"uint256"},{"name":"userData","type":"bytes","internalType":"bytes"}]},{"name":"state","type":"tuple","internalType":"struct SwapState","components":[{"name":"indexIn","type":"uint256","internalType":"uint256"},{"name":"indexOut","type":"uint256","internalType":"uint256"},{"name":"amountGivenScaled18","type":"uint256","internalType":"uint256"},{"name":"swapFeePercentage","type":"uint256","internalType":"uint256"}]},{"name":"poolData","type":"tuple","internalType":"struct PoolData","components":[{"name":"poolConfigBits","type":"bytes32","internalType":"PoolConfigBits"},{"name":"tokens","type":"address[]","internalType":"contract IERC20[]"},{"name":"tokenInfo","type":"tuple[]","internalType":"struct TokenInfo[]","components":[{"name":"tokenType","type":"uint8","internalType":"enum TokenType"},{"name":"rateProvider","type":"address","internalType":"contract IRateProvider"},{"name":"paysYieldFees","type":"bool","internalType":"bool"}]},{"name":"balancesRaw","type":"uint256[]","internalType":"uint256[]"},{"name":"balancesLiveScaled18","type":"uint256[]","internalType":"uint256[]"},{"name":"tokenRates","type":"uint256[]","internalType":"uint256[]"},{"name":"decimalScalingFactors","type":"uint256[]","internalType":"uint256[]"}]}],"outputs":[],"stateMutability":"nonpayable"},{"type":"function","name":"manualRegisterPool","inputs":[{"name":"pool","type":"address","internalType":"address"},{"name":"tokens","type":"address[]","internalType":"contract IERC20[]"}],"outputs":[],"stateMutability":"nonpayable"},{"type":"function","name":"manualRegisterPoolAtTimestamp","inputs":[{"name":"pool","type":"address","internalType":"address"},{"name":"tokens","type":"address[]","internalType":"contract IERC20[]"},{"name":"timestamp","type":"uint32","internalType":"uint32"},{"name":"roleAccounts","type":"tuple","internalType":"struct PoolRoleAccounts","components":[{"name":"pauseManager","type":"address","internalType":"address"},{"name":"swapFeeManager","type":"address","internalType":"address"},{"name":"poolCreator","type":"address","internalType":"address"}]}],"outputs":[],"stateMutability":"nonpayable"},{"type":"function","name":"manualRegisterPoolPassThruTokens","inputs":[{"name":"pool","type":"address","internalType":"address"},{"name":"tokens","type":"address[]","internalType":"contract IERC20[]"}],"outputs":[],"stateMutability":"nonpayable"},{"type":"function","name":"manualRegisterPoolWithSwapFee","inputs":[{"name":"pool","type":"address","internalType":"address"},{"name":"tokens","type":"address[]","internalType":"contract IERC20[]"},{"name":"swapFeePercentage","type":"uint256","internalType":"uint256"}],"outputs":[],"stateMutability":"nonpayable"},{"type":"function","name":"manualRemoveLiquidity","inputs":[{"name":"poolData","type":"tuple","internalType":"struct PoolData","components":[{"name":"poolConfigBits","type":"bytes32","internalType":"PoolConfigBits"},{"name":"tokens","type":"address[]","internalType":"contract IERC20[]"},{"name":"tokenInfo","type":"tuple[]","internalType":"struct TokenInfo[]","components":[{"name":"tokenType","type":"uint8","internalType":"enum TokenType"},{"name":"rateProvider","type":"address","internalType":"contract IRateProvider"},{"name":"paysYieldFees","type":"bool","internalType":"bool"}]},{"name":"balancesRaw","type":"uint256[]","internalType":"uint256[]"},{"name":"balancesLiveScaled18","type":"uint256[]","internalType":"uint256[]"},{"name":"tokenRates","type":"uint256[]","internalType":"uint256[]"},{"name":"decimalScalingFactors","type":"uint256[]","internalType":"uint256[]"}]},{"name":"params","type":"tuple","internalType":"struct RemoveLiquidityParams","components":[{"name":"pool","type":"address","internalType":"address"},{"name":"from","type":"address","internalType":"address"},{"name":"maxBptAmountIn","type":"uint256","internalType":"uint256"},{"name":"minAmountsOut","type":"uint256[]","internalType":"uint256[]"},{"name":"kind","type":"uint8","internalType":"enum RemoveLiquidityKind"},{"name":"userData","type":"bytes","internalType":"bytes"}]},{"name":"minAmountsOutScaled18","type":"uint256[]","internalType":"uint256[]"}],"outputs":[{"name":"updatedPoolData","type":"tuple","internalType":"struct PoolData","components":[{"name":"poolConfigBits","type":"bytes32","internalType":"PoolConfigBits"},{"name":"tokens","type":"address[]","internalType":"contract IERC20[]"},{"name":"tokenInfo","type":"tuple[]","internalType":"struct TokenInfo[]","components":[{"name":"tokenType","type":"uint8","internalType":"enum TokenType"},{"name":"rateProvider","type":"address","internalType":"contract IRateProvider"},{"name":"paysYieldFees","type":"bool","internalType":"bool"}]},{"name":"balancesRaw","type":"uint256[]","internalType":"uint256[]"},{"name":"balancesLiveScaled18","type":"uint256[]","internalType":"uint256[]"},{"name":"tokenRates","type":"uint256[]","internalType":"uint256[]"},{"name":"decimalScalingFactors","type":"uint256[]","internalType":"uint256[]"}]},{"name":"bptAmountIn","type":"uint256","internalType":"uint256"},{"name":"amountsOutRaw","type":"uint256[]","internalType":"uint256[]"},{"name":"amountsOutScaled18","type":"uint256[]","internalType":"uint256[]"},{"name":"returnData","type":"bytes","internalType":"bytes"}],"stateMutability":"nonpayable"},{"type":"function","name":"manualSendToReentrancy","inputs":[{"name":"token","type":"address","internalType":"contract IERC20"},{"name":"to","type":"address","internalType":"address"},{"name":"amount","type":"uint256","internalType":"uint256"}],"outputs":[],"stateMutability":"nonpayable"},{"type":"function","name":"manualSetAccountDelta","inputs":[{"name":"token","type":"address","internalType":"contract IERC20"},{"name":"delta","type":"int256","internalType":"int256"}],"outputs":[],"stateMutability":"nonpayable"},{"type":"function","name":"manualSetAddLiquidityCalledFlag","inputs":[{"name":"pool","type":"address","internalType":"address"},{"name":"flag","type":"bool","internalType":"bool"}],"outputs":[],"stateMutability":"nonpayable"},{"type":"function","name":"manualSetAggregateSwapFeeAmount","inputs":[{"name":"pool","type":"address","internalType":"address"},{"name":"token","type":"address","internalType":"contract IERC20"},{"name":"value","type":"uint256","internalType":"uint256"}],"outputs":[],"stateMutability":"nonpayable"},{"type":"function","name":"manualSetAggregateSwapFeePercentage","inputs":[{"name":"pool","type":"address","internalType":"address"},{"name":"value","type":"uint256","internalType":"uint256"}],"outputs":[],"stateMutability":"nonpayable"},{"type":"function","name":"manualSetAggregateYieldFeeAmount","inputs":[{"name":"pool","type":"address","internalType":"address"},{"name":"token","type":"address","internalType":"contract IERC20"},{"name":"value","type":"uint256","internalType":"uint256"}],"outputs":[],"stateMutability":"nonpayable"},{"type":"function","name":"manualSetAggregateYieldFeePercentage","inputs":[{"name":"pool","type":"address","internalType":"address"},{"name":"value","type":"uint256","internalType":"uint256"}],"outputs":[],"stateMutability":"nonpayable"},{"type":"function","name":"manualSetBufferAsset","inputs":[{"name":"wrappedToken","type":"address","internalType":"contract IERC4626"},{"name":"underlyingToken","type":"address","internalType":"address"}],"outputs":[],"stateMutability":"nonpayable"},{"type":"function","name":"manualSetBufferBalances","inputs":[{"name":"wrappedToken","type":"address","internalType":"contract IERC4626"},{"name":"underlyingAmount","type":"uint256","internalType":"uint256"},{"name":"wrappedAmount","type":"uint256","internalType":"uint256"}],"outputs":[],"stateMutability":"nonpayable"},{"type":"function","name":"manualSetBufferOwnerShares","inputs":[{"name":"wrappedToken","type":"address","internalType":"contract IERC4626"},{"name":"owner","type":"address","internalType":"address"},{"name":"shares","type":"uint256","internalType":"uint256"}],"outputs":[],"stateMutability":"nonpayable"},{"type":"function","name":"manualSetBufferTotalShares","inputs":[{"name":"wrappedToken","type":"address","internalType":"contract IERC4626"},{"name":"shares","type":"uint256","internalType":"uint256"}],"outputs":[],"stateMutability":"nonpayable"},{"type":"function","name":"manualSetHooksConfig","inputs":[{"name":"pool","type":"address","internalType":"address"},{"name":"hooksConfig","type":"tuple","internalType":"struct HooksConfig","components":[{"name":"enableHookAdjustedAmounts","type":"bool","internalType":"bool"},{"name":"shouldCallBeforeInitialize","type":"bool","internalType":"bool"},{"name":"shouldCallAfterInitialize","type":"bool","internalType":"bool"},{"name":"shouldCallComputeDynamicSwapFee","type":"bool","internalType":"bool"},{"name":"shouldCallBeforeSwap","type":"bool","internalType":"bool"},{"name":"shouldCallAfterSwap","type":"bool","internalType":"bool"},{"name":"shouldCallBeforeAddLiquidity","type":"bool","internalType":"bool"},{"name":"shouldCallAfterAddLiquidity","type":"bool","internalType":"bool"},{"name":"shouldCallBeforeRemoveLiquidity","type":"bool","internalType":"bool"},{"name":"shouldCallAfterRemoveLiquidity","type":"bool","internalType":"bool"},{"name":"hooksContract","type":"address","internalType":"address"}]}],"outputs":[],"stateMutability":"nonpayable"},{"type":"function","name":"manualSetInitializedPool","inputs":[{"name":"pool","type":"address","internalType":"address"},{"name":"isPoolInitialized","type":"bool","internalType":"bool"}],"outputs":[],"stateMutability":"nonpayable"},{"type":"function","name":"manualSetNonZeroDeltaCount","inputs":[{"name":"deltaCount","type":"uint256","internalType":"uint256"}],"outputs":[],"stateMutability":"nonpayable"},{"type":"function","name":"manualSetPoolBalances","inputs":[{"name":"pool","type":"address","internalType":"address"},{"name":"tokenBalanceRaw","type":"uint256[]","internalType":"uint256[]"},{"name":"tokenBalanceLiveScaled18","type":"uint256[]","internalType":"uint256[]"}],"outputs":[],"stateMutability":"nonpayable"},{"type":"function","name":"manualSetPoolConfig","inputs":[{"name":"pool","type":"address","internalType":"address"},{"name":"config","type":"tuple","internalType":"struct PoolConfig","components":[{"name":"liquidityManagement","type":"tuple","internalType":"struct LiquidityManagement","components":[{"name":"disableUnbalancedLiquidity","type":"bool","internalType":"bool"},{"name":"enableAddLiquidityCustom","type":"bool","internalType":"bool"},{"name":"enableRemoveLiquidityCustom","type":"bool","internalType":"bool"},{"name":"enableDonation","type":"bool","internalType":"bool"}]},{"name":"staticSwapFeePercentage","type":"uint256","internalType":"uint256"},{"name":"aggregateSwapFeePercentage","type":"uint256","internalType":"uint256"},{"name":"aggregateYieldFeePercentage","type":"uint256","internalType":"uint256"},{"name":"tokenDecimalDiffs","type":"uint40","internalType":"uint40"},{"name":"pauseWindowEndTime","type":"uint32","internalType":"uint32"},{"name":"isPoolRegistered","type":"bool","internalType":"bool"},{"name":"isPoolInitialized","type":"bool","internalType":"bool"},{"name":"isPoolPaused","type":"bool","internalType":"bool"},{"name":"isPoolInRecoveryMode","type":"bool","internalType":"bool"}]}],"outputs":[],"stateMutability":"nonpayable"},{"type":"function","name":"manualSetPoolConfigBits","inputs":[{"name":"pool","type":"address","internalType":"address"},{"name":"config","type":"bytes32","internalType":"PoolConfigBits"}],"outputs":[],"stateMutability":"nonpayable"},{"type":"function","name":"manualSetPoolCreator","inputs":[{"name":"pool","type":"address","internalType":"address"},{"name":"newPoolCreator","type":"address","internalType":"address"}],"outputs":[],"stateMutability":"nonpayable"},{"type":"function","name":"manualSetPoolPauseWindowEndTime","inputs":[{"name":"pool","type":"address","internalType":"address"},{"name":"pauseWindowEndTime","type":"uint32","internalType":"uint32"}],"outputs":[],"stateMutability":"nonpayable"},{"type":"function","name":"manualSetPoolPaused","inputs":[{"name":"pool","type":"address","internalType":"address"},{"name":"isPoolPaused","type":"bool","internalType":"bool"}],"outputs":[],"stateMutability":"nonpayable"},{"type":"function","name":"manualSetPoolRegistered","inputs":[{"name":"pool","type":"address","internalType":"address"},{"name":"status","type":"bool","internalType":"bool"}],"outputs":[],"stateMutability":"nonpayable"},{"type":"function","name":"manualSetPoolTokenInfo","inputs":[{"name":"pool","type":"address","internalType":"address"},{"name":"tokens","type":"address[]","internalType":"contract IERC20[]"},{"name":"tokenInfo","type":"tuple[]","internalType":"struct TokenInfo[]","components":[{"name":"tokenType","type":"uint8","internalType":"enum TokenType"},{"name":"rateProvider","type":"address","internalType":"contract IRateProvider"},{"name":"paysYieldFees","type":"bool","internalType":"bool"}]}],"outputs":[],"stateMutability":"nonpayable"},{"type":"function","name":"manualSetPoolTokenInfo","inputs":[{"name":"pool","type":"address","internalType":"address"},{"name":"tokenConfig","type":"tuple[]","internalType":"struct TokenConfig[]","components":[{"name":"token","type":"address","internalType":"contract IERC20"},{"name":"tokenType","type":"uint8","internalType":"enum TokenType"},{"name":"rateProvider","type":"address","internalType":"contract IRateProvider"},{"name":"paysYieldFees","type":"bool","internalType":"bool"}]}],"outputs":[],"stateMutability":"nonpayable"},{"type":"function","name":"manualSetPoolTokensAndBalances","inputs":[{"name":"pool","type":"address","internalType":"address"},{"name":"tokens","type":"address[]","internalType":"contract IERC20[]"},{"name":"tokenBalanceRaw","type":"uint256[]","internalType":"uint256[]"},{"name":"tokenBalanceLiveScaled18","type":"uint256[]","internalType":"uint256[]"}],"outputs":[],"stateMutability":"nonpayable"},{"type":"function","name":"manualSetReservesOf","inputs":[{"name":"token","type":"address","internalType":"contract IERC20"},{"name":"reserves","type":"uint256","internalType":"uint256"}],"outputs":[],"stateMutability":"nonpayable"},{"type":"function","name":"manualSetStaticSwapFeePercentage","inputs":[{"name":"pool","type":"address","internalType":"address"},{"name":"value","type":"uint256","internalType":"uint256"}],"outputs":[],"stateMutability":"nonpayable"},{"type":"function","name":"manualSetVaultPaused","inputs":[{"name":"isVaultPaused","type":"bool","internalType":"bool"}],"outputs":[],"stateMutability":"nonpayable"},{"type":"function","name":"manualSetVaultState","inputs":[{"name":"isVaultPaused","type":"bool","internalType":"bool"},{"name":"isQueryDisabled","type":"bool","internalType":"bool"}],"outputs":[],"stateMutability":"nonpayable"},{"type":"function","name":"manualSettleReentrancy","inputs":[{"name":"token","type":"address","internalType":"contract IERC20"}],"outputs":[{"name":"paid","type":"uint256","internalType":"uint256"}],"stateMutability":"nonpayable"},{"type":"function","name":"manualSettleUnwrap","inputs":[{"name":"underlyingToken","type":"address","internalType":"contract IERC20"},{"name":"wrappedToken","type":"address","internalType":"contract IERC20"},{"name":"underlyingHint","type":"uint256","internalType":"uint256"},{"name":"wrappedHint","type":"uint256","internalType":"uint256"}],"outputs":[],"stateMutability":"nonpayable"},{"type":"function","name":"manualSettleWrap","inputs":[{"name":"underlyingToken","type":"address","internalType":"contract IERC20"},{"name":"wrappedToken","type":"address","internalType":"contract IERC20"},{"name":"underlyingHint","type":"uint256","internalType":"uint256"},{"name":"wrappedHint","type":"uint256","internalType":"uint256"}],"outputs":[],"stateMutability":"nonpayable"},{"type":"function","name":"manualTransfer","inputs":[{"name":"token","type":"address","internalType":"contract IERC20"},{"name":"to","type":"address","internalType":"address"},{"name":"amount","type":"uint256","internalType":"uint256"}],"outputs":[],"stateMutability":"nonpayable"},{"type":"function","name":"manualUnsafeSetStaticSwapFeePercentage","inputs":[{"name":"pool","type":"address","internalType":"address"},{"name":"value","type":"uint256","internalType":"uint256"}],"outputs":[],"stateMutability":"nonpayable"},{"type":"function","name":"manualUpdatePoolDataLiveBalancesAndRates","inputs":[{"name":"pool","type":"address","internalType":"address"},{"name":"poolData","type":"tuple","internalType":"struct PoolData","components":[{"name":"poolConfigBits","type":"bytes32","internalType":"PoolConfigBits"},{"name":"tokens","type":"address[]","internalType":"contract IERC20[]"},{"name":"tokenInfo","type":"tuple[]","internalType":"struct TokenInfo[]","components":[{"name":"tokenType","type":"uint8","internalType":"enum TokenType"},{"name":"rateProvider","type":"address","internalType":"contract IRateProvider"},{"name":"paysYieldFees","type":"bool","internalType":"bool"}]},{"name":"balancesRaw","type":"uint256[]","internalType":"uint256[]"},{"name":"balancesLiveScaled18","type":"uint256[]","internalType":"uint256[]"},{"name":"tokenRates","type":"uint256[]","internalType":"uint256[]"},{"name":"decimalScalingFactors","type":"uint256[]","internalType":"uint256[]"}]},{"name":"roundingDirection","type":"uint8","internalType":"enum Rounding"}],"outputs":[{"name":"","type":"tuple","internalType":"struct PoolData","components":[{"name":"poolConfigBits","type":"bytes32","internalType":"PoolConfigBits"},{"name":"tokens","type":"address[]","internalType":"contract IERC20[]"},{"name":"tokenInfo","type":"tuple[]","internalType":"struct TokenInfo[]","components":[{"name":"tokenType","type":"uint8","internalType":"enum TokenType"},{"name":"rateProvider","type":"address","internalType":"contract IRateProvider"},{"name":"paysYieldFees","type":"bool","internalType":"bool"}]},{"name":"balancesRaw","type":"uint256[]","internalType":"uint256[]"},{"name":"balancesLiveScaled18","type":"uint256[]","internalType":"uint256[]"},{"name":"tokenRates","type":"uint256[]","internalType":"uint256[]"},{"name":"decimalScalingFactors","type":"uint256[]","internalType":"uint256[]"}]}],"stateMutability":"view"},{"type":"function","name":"mintERC20","inputs":[{"name":"token","type":"address","internalType":"address"},{"name":"to","type":"address","internalType":"address"},{"name":"amount","type":"uint256","internalType":"uint256"}],"outputs":[],"stateMutability":"nonpayable"},{"type":"function","name":"mockIsUnlocked","inputs":[],"outputs":[],"stateMutability":"view"},{"type":"function","name":"mockWithInitializedPool","inputs":[{"name":"pool","type":"address","internalType":"address"}],"outputs":[],"stateMutability":"view"},{"type":"function","name":"recoveryModeExit","inputs":[{"name":"pool","type":"address","internalType":"address"}],"outputs":[],"stateMutability":"view"},{"type":"function","name":"reentrancyGuardEntered","inputs":[],"outputs":[{"name":"","type":"bool","internalType":"bool"}],"stateMutability":"view"},{"type":"function","name":"removeLiquidity","inputs":[{"name":"params","type":"tuple","internalType":"struct RemoveLiquidityParams","components":[{"name":"pool","type":"address","internalType":"address"},{"name":"from","type":"address","internalType":"address"},{"name":"maxBptAmountIn","type":"uint256","internalType":"uint256"},{"name":"minAmountsOut","type":"uint256[]","internalType":"uint256[]"},{"name":"kind","type":"uint8","internalType":"enum RemoveLiquidityKind"},{"name":"userData","type":"bytes","internalType":"bytes"}]}],"outputs":[{"name":"bptAmountIn","type":"uint256","internalType":"uint256"},{"name":"amountsOut","type":"uint256[]","internalType":"uint256[]"},{"name":"returnData","type":"bytes","internalType":"bytes"}],"stateMutability":"nonpayable"},{"type":"function","name":"sendTo","inputs":[{"name":"token","type":"address","internalType":"contract IERC20"},{"name":"to","type":"address","internalType":"address"},{"name":"amount","type":"uint256","internalType":"uint256"}],"outputs":[],"stateMutability":"nonpayable"},{"type":"function","name":"settle","inputs":[{"name":"token","type":"address","internalType":"contract IERC20"},{"name":"amountHint","type":"uint256","internalType":"uint256"}],"outputs":[{"name":"credit","type":"uint256","internalType":"uint256"}],"stateMutability":"nonpayable"},{"type":"function","name":"supplyCredit","inputs":[{"name":"token","type":"address","internalType":"contract IERC20"},{"name":"credit","type":"uint256","internalType":"uint256"}],"outputs":[],"stateMutability":"nonpayable"},{"type":"function","name":"swap","inputs":[{"name":"vaultSwapParams","type":"tuple","internalType":"struct VaultSwapParams","components":[{"name":"kind","type":"uint8","internalType":"enum SwapKind"},{"name":"pool","type":"address","internalType":"address"},{"name":"tokenIn","type":"address","internalType":"contract IERC20"},{"name":"tokenOut","type":"address","internalType":"contract IERC20"},{"name":"amountGivenRaw","type":"uint256","internalType":"uint256"},{"name":"limitRaw","type":"uint256","internalType":"uint256"},{"name":"userData","type":"bytes","internalType":"bytes"}]}],"outputs":[{"name":"amountCalculated","type":"uint256","internalType":"uint256"},{"name":"amountIn","type":"uint256","internalType":"uint256"},{"name":"amountOut","type":"uint256","internalType":"uint256"}],"stateMutability":"nonpayable"},{"type":"function","name":"takeDebt","inputs":[{"name":"token","type":"address","internalType":"contract IERC20"},{"name":"debt","type":"uint256","internalType":"uint256"}],"outputs":[],"stateMutability":"nonpayable"},{"type":"function","name":"unguardedCheckNotEntered","inputs":[],"outputs":[],"stateMutability":"view"},{"type":"function","name":"unlock","inputs":[{"name":"data","type":"bytes","internalType":"bytes"}],"outputs":[{"name":"result","type":"bytes","internalType":"bytes"}],"stateMutability":"nonpayable"},{"type":"function","name":"updateLiveTokenBalanceInPoolData","inputs":[{"name":"poolData","type":"tuple","internalType":"struct PoolData","components":[{"name":"poolConfigBits","type":"bytes32","internalType":"PoolConfigBits"},{"name":"tokens","type":"address[]","internalType":"contract IERC20[]"},{"name":"tokenInfo","type":"tuple[]","internalType":"struct TokenInfo[]","components":[{"name":"tokenType","type":"uint8","internalType":"enum TokenType"},{"name":"rateProvider","type":"address","internalType":"contract IRateProvider"},{"name":"paysYieldFees","type":"bool","internalType":"bool"}]},{"name":"balancesRaw","type":"uint256[]","internalType":"uint256[]"},{"name":"balancesLiveScaled18","type":"uint256[]","internalType":"uint256[]"},{"name":"tokenRates","type":"uint256[]","internalType":"uint256[]"},{"name":"decimalScalingFactors","type":"uint256[]","internalType":"uint256[]"}]},{"name":"newRawBalance","type":"uint256","internalType":"uint256"},{"name":"roundingDirection","type":"uint8","internalType":"enum Rounding"},{"name":"tokenIndex","type":"uint256","internalType":"uint256"}],"outputs":[{"name":"","type":"tuple","internalType":"struct PoolData","components":[{"name":"poolConfigBits","type":"bytes32","internalType":"PoolConfigBits"},{"name":"tokens","type":"address[]","internalType":"contract IERC20[]"},{"name":"tokenInfo","type":"tuple[]","internalType":"struct TokenInfo[]","components":[{"name":"tokenType","type":"uint8","internalType":"enum TokenType"},{"name":"rateProvider","type":"address","internalType":"contract IRateProvider"},{"name":"paysYieldFees","type":"bool","internalType":"bool"}]},{"name":"balancesRaw","type":"uint256[]","internalType":"uint256[]"},{"name":"balancesLiveScaled18","type":"uint256[]","internalType":"uint256[]"},{"name":"tokenRates","type":"uint256[]","internalType":"uint256[]"},{"name":"decimalScalingFactors","type":"uint256[]","internalType":"uint256[]"}]}],"stateMutability":"pure"},{"type":"event","name":"AggregateSwapFeePercentageChanged","inputs":[{"name":"pool","type":"address","indexed":true,"internalType":"address"},{"name":"aggregateSwapFeePercentage","type":"uint256","indexed":false,"internalType":"uint256"}],"anonymous":false},{"type":"event","name":"AggregateYieldFeePercentageChanged","inputs":[{"name":"pool","type":"address","indexed":true,"internalType":"address"},{"name":"aggregateYieldFeePercentage","type":"uint256","indexed":false,"internalType":"uint256"}],"anonymous":false},{"type":"event","name":"Approval","inputs":[{"name":"pool","type":"address","indexed":true,"internalType":"address"},{"name":"owner","type":"address","indexed":true,"internalType":"address"},{"name":"spender","type":"address","indexed":true,"internalType":"address"},{"name":"value","type":"uint256","indexed":false,"internalType":"uint256"}],"anonymous":false},{"type":"event","name":"AuthorizerChanged","inputs":[{"name":"newAuthorizer","type":"address","indexed":true,"internalType":"contract IAuthorizer"}],"anonymous":false},{"type":"event","name":"BufferSharesBurned","inputs":[{"name":"wrappedToken","type":"address","indexed":true,"internalType":"contract IERC4626"},{"name":"from","type":"address","indexed":true,"internalType":"address"},{"name":"burnedShares","type":"uint256","indexed":false,"internalType":"uint256"}],"anonymous":false},{"type":"event","name":"BufferSharesMinted","inputs":[{"name":"wrappedToken","type":"address","indexed":true,"internalType":"contract IERC4626"},{"name":"to","type":"address","indexed":true,"internalType":"address"},{"name":"issuedShares","type":"uint256","indexed":false,"internalType":"uint256"}],"anonymous":false},{"type":"event","name":"LiquidityAddedToBuffer","inputs":[{"name":"wrappedToken","type":"address","indexed":true,"internalType":"contract IERC4626"},{"name":"amountUnderlying","type":"uint256","indexed":false,"internalType":"uint256"},{"name":"amountWrapped","type":"uint256","indexed":false,"internalType":"uint256"}],"anonymous":false},{"type":"event","name":"LiquidityRemovedFromBuffer","inputs":[{"name":"wrappedToken","type":"address","indexed":true,"internalType":"contract IERC4626"},{"name":"amountUnderlying","type":"uint256","indexed":false,"internalType":"uint256"},{"name":"amountWrapped","type":"uint256","indexed":false,"internalType":"uint256"}],"anonymous":false},{"type":"event","name":"PoolBalanceChanged","inputs":[{"name":"pool","type":"address","indexed":true,"internalType":"address"},{"name":"liquidityProvider","type":"address","indexed":true,"internalType":"address"},{"name":"totalSupply","type":"uint256","indexed":false,"internalType":"uint256"},{"name":"deltas","type":"int256[]","indexed":false,"internalType":"int256[]"},{"name":"swapFeeAmountsRaw","type":"uint256[]","indexed":false,"internalType":"uint256[]"}],"anonymous":false},{"type":"event","name":"PoolInitialized","inputs":[{"name":"pool","type":"address","indexed":true,"internalType":"address"}],"anonymous":false},{"type":"event","name":"PoolPausedStateChanged","inputs":[{"name":"pool","type":"address","indexed":true,"internalType":"address"},{"name":"paused","type":"bool","indexed":false,"internalType":"bool"}],"anonymous":false},{"type":"event","name":"PoolRecoveryModeStateChanged","inputs":[{"name":"pool","type":"address","indexed":true,"internalType":"address"},{"name":"recoveryMode","type":"bool","indexed":false,"internalType":"bool"}],"anonymous":false},{"type":"event","name":"PoolRegistered","inputs":[{"name":"pool","type":"address","indexed":true,"internalType":"address"},{"name":"factory","type":"address","indexed":true,"internalType":"address"},{"name":"tokenConfig","type":"tuple[]","indexed":false,"internalType":"struct TokenConfig[]","components":[{"name":"token","type":"address","internalType":"contract IERC20"},{"name":"tokenType","type":"uint8","internalType":"enum TokenType"},{"name":"rateProvider","type":"address","internalType":"contract IRateProvider"},{"name":"paysYieldFees","type":"bool","internalType":"bool"}]},{"name":"swapFeePercentage","type":"uint256","indexed":false,"internalType":"uint256"},{"name":"pauseWindowEndTime","type":"uint32","indexed":false,"internalType":"uint32"},{"name":"roleAccounts","type":"tuple","indexed":false,"internalType":"struct PoolRoleAccounts","components":[{"name":"pauseManager","type":"address","internalType":"address"},{"name":"swapFeeManager","type":"address","internalType":"address"},{"name":"poolCreator","type":"address","internalType":"address"}]},{"name":"hooksConfig","type":"tuple","indexed":false,"internalType":"struct HooksConfig","components":[{"name":"enableHookAdjustedAmounts","type":"bool","internalType":"bool"},{"name":"shouldCallBeforeInitialize","type":"bool","internalType":"bool"},{"name":"shouldCallAfterInitialize","type":"bool","internalType":"bool"},{"name":"shouldCallComputeDynamicSwapFee","type":"bool","internalType":"bool"},{"name":"shouldCallBeforeSwap","type":"bool","internalType":"bool"},{"name":"shouldCallAfterSwap","type":"bool","internalType":"bool"},{"name":"shouldCallBeforeAddLiquidity","type":"bool","internalType":"bool"},{"name":"shouldCallAfterAddLiquidity","type":"bool","internalType":"bool"},{"name":"shouldCallBeforeRemoveLiquidity","type":"bool","internalType":"bool"},{"name":"shouldCallAfterRemoveLiquidity","type":"bool","internalType":"bool"},{"name":"hooksContract","type":"address","internalType":"address"}]},{"name":"liquidityManagement","type":"tuple","indexed":false,"internalType":"struct LiquidityManagement","components":[{"name":"disableUnbalancedLiquidity","type":"bool","internalType":"bool"},{"name":"enableAddLiquidityCustom","type":"bool","internalType":"bool"},{"name":"enableRemoveLiquidityCustom","type":"bool","internalType":"bool"},{"name":"enableDonation","type":"bool","internalType":"bool"}]}],"anonymous":false},{"type":"event","name":"ProtocolFeeControllerChanged","inputs":[{"name":"newProtocolFeeController","type":"address","indexed":true,"internalType":"contract IProtocolFeeController"}],"anonymous":false},{"type":"event","name":"Swap","inputs":[{"name":"pool","type":"address","indexed":true,"internalType":"address"},{"name":"tokenIn","type":"address","indexed":true,"internalType":"contract IERC20"},{"name":"tokenOut","type":"address","indexed":true,"internalType":"contract IERC20"},{"name":"amountIn","type":"uint256","indexed":false,"internalType":"uint256"},{"name":"amountOut","type":"uint256","indexed":false,"internalType":"uint256"},{"name":"swapFeePercentage","type":"uint256","indexed":false,"internalType":"uint256"},{"name":"swapFeeAmount","type":"uint256","indexed":false,"internalType":"uint256"}],"anonymous":false},{"type":"event","name":"SwapFeePercentageChanged","inputs":[{"name":"pool","type":"address","indexed":true,"internalType":"address"},{"name":"swapFeePercentage","type":"uint256","indexed":false,"internalType":"uint256"}],"anonymous":false},{"type":"event","name":"Transfer","inputs":[{"name":"pool","type":"address","indexed":true,"internalType":"address"},{"name":"from","type":"address","indexed":true,"internalType":"address"},{"name":"to","type":"address","indexed":true,"internalType":"address"},{"name":"value","type":"uint256","indexed":false,"internalType":"uint256"}],"anonymous":false},{"type":"event","name":"Unwrap","inputs":[{"name":"wrappedToken","type":"address","indexed":true,"internalType":"contract IERC4626"},{"name":"underlyingToken","type":"address","indexed":true,"internalType":"contract IERC20"},{"name":"burnedShares","type":"uint256","indexed":false,"internalType":"uint256"},{"name":"withdrawnUnderlying","type":"uint256","indexed":false,"internalType":"uint256"}],"anonymous":false},{"type":"event","name":"VaultBuffersPausedStateChanged","inputs":[{"name":"paused","type":"bool","indexed":false,"internalType":"bool"}],"anonymous":false},{"type":"event","name":"VaultPausedStateChanged","inputs":[{"name":"paused","type":"bool","indexed":false,"internalType":"bool"}],"anonymous":false},{"type":"event","name":"VaultQueriesDisabled","inputs":[],"anonymous":false},{"type":"event","name":"Wrap","inputs":[{"name":"underlyingToken","type":"address","indexed":true,"internalType":"contract IERC20"},{"name":"wrappedToken","type":"address","indexed":true,"internalType":"contract IERC4626"},{"name":"depositedUnderlying","type":"uint256","indexed":false,"internalType":"uint256"},{"name":"mintedShares","type":"uint256","indexed":false,"internalType":"uint256"}],"anonymous":false},{"type":"error","name":"AddressEmptyCode","inputs":[{"name":"target","type":"address","internalType":"address"}]},{"type":"error","name":"AfterAddLiquidityHookFailed","inputs":[]},{"type":"error","name":"AfterInitializeHookFailed","inputs":[]},{"type":"error","name":"AfterRemoveLiquidityHookFailed","inputs":[]},{"type":"error","name":"AfterSwapHookFailed","inputs":[]},{"type":"error","name":"AllZeroInputs","inputs":[]},{"type":"error","name":"AmountGivenZero","inputs":[]},{"type":"error","name":"AmountInAboveMax","inputs":[{"name":"tokenIn","type":"address","internalType":"contract IERC20"},{"name":"amountIn","type":"uint256","internalType":"uint256"},{"name":"maxAmountIn","type":"uint256","internalType":"uint256"}]},{"type":"error","name":"AmountOutBelowMin","inputs":[{"name":"tokenOut","type":"address","internalType":"contract IERC20"},{"name":"amountOut","type":"uint256","internalType":"uint256"},{"name":"minAmountOut","type":"uint256","internalType":"uint256"}]},{"type":"error","name":"BalanceNotSettled","inputs":[]},{"type":"error","name":"BalanceOverflow","inputs":[]},{"type":"error","name":"BeforeAddLiquidityHookFailed","inputs":[]},{"type":"error","name":"BeforeInitializeHookFailed","inputs":[]},{"type":"error","name":"BeforeRemoveLiquidityHookFailed","inputs":[]},{"type":"error","name":"BeforeSwapHookFailed","inputs":[]},{"type":"error","name":"BptAmountInAboveMax","inputs":[{"name":"amountIn","type":"uint256","internalType":"uint256"},{"name":"maxAmountIn","type":"uint256","internalType":"uint256"}]},{"type":"error","name":"BptAmountOutBelowMin","inputs":[{"name":"amountOut","type":"uint256","internalType":"uint256"},{"name":"minAmountOut","type":"uint256","internalType":"uint256"}]},{"type":"error","name":"BufferAlreadyInitialized","inputs":[{"name":"wrappedToken","type":"address","internalType":"contract IERC4626"}]},{"type":"error","name":"BufferNotInitialized","inputs":[{"name":"wrappedToken","type":"address","internalType":"contract IERC4626"}]},{"type":"error","name":"BufferSharesInvalidOwner","inputs":[]},{"type":"error","name":"BufferSharesInvalidReceiver","inputs":[]},{"type":"error","name":"BufferTotalSupplyTooLow","inputs":[{"name":"totalSupply","type":"uint256","internalType":"uint256"}]},{"type":"error","name":"CannotReceiveEth","inputs":[]},{"type":"error","name":"CannotSwapSameToken","inputs":[]},{"type":"error","name":"CodecOverflow","inputs":[]},{"type":"error","name":"DoesNotSupportAddLiquidityCustom","inputs":[]},{"type":"error","name":"DoesNotSupportDonation","inputs":[]},{"type":"error","name":"DoesNotSupportRemoveLiquidityCustom","inputs":[]},{"type":"error","name":"DoesNotSupportUnbalancedLiquidity","inputs":[]},{"type":"error","name":"DynamicSwapFeeHookFailed","inputs":[]},{"type":"error","name":"ERC20InsufficientAllowance","inputs":[{"name":"spender","type":"address","internalType":"address"},{"name":"allowance","type":"uint256","internalType":"uint256"},{"name":"needed","type":"uint256","internalType":"uint256"}]},{"type":"error","name":"ERC20InsufficientBalance","inputs":[{"name":"sender","type":"address","internalType":"address"},{"name":"balance","type":"uint256","internalType":"uint256"},{"name":"needed","type":"uint256","internalType":"uint256"}]},{"type":"error","name":"ERC20InvalidApprover","inputs":[{"name":"approver","type":"address","internalType":"address"}]},{"type":"error","name":"ERC20InvalidReceiver","inputs":[{"name":"receiver","type":"address","internalType":"address"}]},{"type":"error","name":"ERC20InvalidSender","inputs":[{"name":"sender","type":"address","internalType":"address"}]},{"type":"error","name":"ERC20InvalidSpender","inputs":[{"name":"spender","type":"address","internalType":"address"}]},{"type":"error","name":"FailedCall","inputs":[]},{"type":"error","name":"FeePrecisionTooHigh","inputs":[]},{"type":"error","name":"HookAdjustedAmountInAboveMax","inputs":[{"name":"tokenIn","type":"address","internalType":"contract IERC20"},{"name":"amountIn","type":"uint256","internalType":"uint256"},{"name":"maxAmountIn","type":"uint256","internalType":"uint256"}]},{"type":"error","name":"HookAdjustedAmountOutBelowMin","inputs":[{"name":"tokenOut","type":"address","internalType":"contract IERC20"},{"name":"amountOut","type":"uint256","internalType":"uint256"},{"name":"minAmountOut","type":"uint256","internalType":"uint256"}]},{"type":"error","name":"HookAdjustedSwapLimit","inputs":[{"name":"amount","type":"uint256","internalType":"uint256"},{"name":"limit","type":"uint256","internalType":"uint256"}]},{"type":"error","name":"HookRegistrationFailed","inputs":[{"name":"poolHooksContract","type":"address","internalType":"address"},{"name":"pool","type":"address","internalType":"address"},{"name":"poolFactory","type":"address","internalType":"address"}]},{"type":"error","name":"InputLengthMismatch","inputs":[]},{"type":"error","name":"InsufficientBalance","inputs":[{"name":"balance","type":"uint256","internalType":"uint256"},{"name":"needed","type":"uint256","internalType":"uint256"}]},{"type":"error","name":"InvalidAddLiquidityKind","inputs":[]},{"type":"error","name":"InvalidRemoveLiquidityKind","inputs":[]},{"type":"error","name":"InvalidToken","inputs":[]},{"type":"error","name":"InvalidTokenConfiguration","inputs":[]},{"type":"error","name":"InvalidTokenType","inputs":[]},{"type":"error","name":"InvalidUnderlyingToken","inputs":[{"name":"wrappedToken","type":"address","internalType":"contract IERC4626"}]},{"type":"error","name":"InvariantRatioAboveMax","inputs":[{"name":"invariantRatio","type":"uint256","internalType":"uint256"},{"name":"maxInvariantRatio","type":"uint256","internalType":"uint256"}]},{"type":"error","name":"InvariantRatioBelowMin","inputs":[{"name":"invariantRatio","type":"uint256","internalType":"uint256"},{"name":"minInvariantRatio","type":"uint256","internalType":"uint256"}]},{"type":"error","name":"MaxTokens","inputs":[]},{"type":"error","name":"MinTokens","inputs":[]},{"type":"error","name":"MultipleNonZeroInputs","inputs":[]},{"type":"error","name":"NotEnoughBufferShares","inputs":[]},{"type":"error","name":"NotEnoughUnderlying","inputs":[{"name":"wrappedToken","type":"address","internalType":"contract IERC4626"},{"name":"expectedUnderlyingAmount","type":"uint256","internalType":"uint256"},{"name":"actualUnderlyingAmount","type":"uint256","internalType":"uint256"}]},{"type":"error","name":"NotEnoughWrapped","inputs":[{"name":"wrappedToken","type":"address","internalType":"contract IERC4626"},{"name":"expectedWrappedAmount","type":"uint256","internalType":"uint256"},{"name":"actualWrappedAmount","type":"uint256","internalType":"uint256"}]},{"type":"error","name":"NotStaticCall","inputs":[]},{"type":"error","name":"NotVaultDelegateCall","inputs":[]},{"type":"error","name":"OutOfBounds","inputs":[]},{"type":"error","name":"PauseBufferPeriodDurationTooLarge","inputs":[]},{"type":"error","name":"PercentageAboveMax","inputs":[]},{"type":"error","name":"PoolAlreadyInitialized","inputs":[{"name":"pool","type":"address","internalType":"address"}]},{"type":"error","name":"PoolAlreadyRegistered","inputs":[{"name":"pool","type":"address","internalType":"address"}]},{"type":"error","name":"PoolInRecoveryMode","inputs":[{"name":"pool","type":"address","internalType":"address"}]},{"type":"error","name":"PoolNotInRecoveryMode","inputs":[{"name":"pool","type":"address","internalType":"address"}]},{"type":"error","name":"PoolNotInitialized","inputs":[{"name":"pool","type":"address","internalType":"address"}]},{"type":"error","name":"PoolNotPaused","inputs":[{"name":"pool","type":"address","internalType":"address"}]},{"type":"error","name":"PoolNotRegistered","inputs":[{"name":"pool","type":"address","internalType":"address"}]},{"type":"error","name":"PoolPauseWindowExpired","inputs":[{"name":"pool","type":"address","internalType":"address"}]},{"type":"error","name":"PoolPaused","inputs":[{"name":"pool","type":"address","internalType":"address"}]},{"type":"error","name":"PoolTotalSupplyTooLow","inputs":[{"name":"totalSupply","type":"uint256","internalType":"uint256"}]},{"type":"error","name":"ProtocolFeesExceedTotalCollected","inputs":[]},{"type":"error","name":"QueriesDisabled","inputs":[]},{"type":"error","name":"QuoteResultSpoofed","inputs":[]},{"type":"error","name":"ReentrancyGuardReentrantCall","inputs":[]},{"type":"error","name":"RouterNotTrusted","inputs":[]},{"type":"error","name":"SafeCastOverflowedIntToUint","inputs":[{"name":"value","type":"int256","internalType":"int256"}]},{"type":"error","name":"SafeCastOverflowedUintToInt","inputs":[{"name":"value","type":"uint256","internalType":"uint256"}]},{"type":"error","name":"SafeERC20FailedOperation","inputs":[{"name":"token","type":"address","internalType":"address"}]},{"type":"error","name":"SenderIsNotVault","inputs":[{"name":"sender","type":"address","internalType":"address"}]},{"type":"error","name":"SwapFeePercentageTooHigh","inputs":[]},{"type":"error","name":"SwapFeePercentageTooLow","inputs":[]},{"type":"error","name":"SwapLimit","inputs":[{"name":"amount","type":"uint256","internalType":"uint256"},{"name":"limit","type":"uint256","internalType":"uint256"}]},{"type":"error","name":"TokenAlreadyRegistered","inputs":[{"name":"token","type":"address","internalType":"contract IERC20"}]},{"type":"error","name":"TokenNotRegistered","inputs":[{"name":"token","type":"address","internalType":"contract IERC20"}]},{"type":"error","name":"TokensMismatch","inputs":[{"name":"pool","type":"address","internalType":"address"},{"name":"expectedToken","type":"address","internalType":"address"},{"name":"actualToken","type":"address","internalType":"address"}]},{"type":"error","name":"TradeAmountTooSmall","inputs":[]},{"type":"error","name":"VaultBuffersArePaused","inputs":[]},{"type":"error","name":"VaultIsNotUnlocked","inputs":[]},{"type":"error","name":"VaultNotPaused","inputs":[]},{"type":"error","name":"VaultPauseWindowDurationTooLarge","inputs":[]},{"type":"error","name":"VaultPauseWindowExpired","inputs":[]},{"type":"error","name":"VaultPaused","inputs":[]},{"type":"error","name":"WrapAmountTooSmall","inputs":[{"name":"wrappedToken","type":"address","internalType":"contract IERC4626"}]},{"type":"error","name":"WrongProtocolFeeControllerDeployment","inputs":[]},{"type":"error","name":"WrongUnderlyingToken","inputs":[{"name":"wrappedToken","type":"address","internalType":"contract IERC4626"},{"name":"underlyingToken","type":"address","internalType":"address"}]},{"type":"error","name":"WrongVaultAdminDeployment","inputs":[]},{"type":"error","name":"WrongVaultExtensionDeployment","inputs":[]},{"type":"error","name":"ZeroDivision","inputs":[]}],"bytecode":{"object":"0x610240604052600a610200908152691a5cd55b9b1bd8dad95960b21b610220526200002a906200060f565b60c0526040805180820190915260118152701b9bdb96995c9bd1195b1d1850dbdd5b9d607a1b602082015262000060906200060f565b60e05260408051808201909152600b81526a746f6b656e44656c74617360a81b602082015262000090906200060f565b61010052604080518082019091526012815271185919131a5c5d5a591a5d1e50d85b1b195960721b6020820152620000c8906200060f565b61012052348015620000d8575f80fd5b506040516201291f3803806201291f833981016040819052620000fb91620006f3565b828282306001600160a01b0316836001600160a01b031663fbfa77cf6040518163ffffffff1660e01b8152600401602060405180830381865afa15801562000145573d5f803e3d5ffd5b505050506040513d601f19601f820116820180604052508101906200016b919062000744565b6001600160a01b03161462000193576040516301ab9d9d60e41b815260040160405180910390fd5b306001600160a01b0316816001600160a01b031663fbfa77cf6040518163ffffffff1660e01b8152600401602060405180830381865afa158015620001da573d5f803e3d5ffd5b505050506040513d601f19601f8201168201806040525081019062000200919062000744565b6001600160a01b0316146200022857604051631bbe95c760e01b815260040160405180910390fd5b6001600160a01b038381166101a0819052600a80546001600160a01b0319169284169290921790915560408051634546891d60e11b81529051638a8d123a916004808201926020929091908290030181865afa1580156200028b573d5f803e3d5ffd5b505050506040513d601f19601f82011682018060405250810190620002b1919062000769565b63ffffffff166101408163ffffffff1681525050826001600160a01b03166320c1fb7a6040518163ffffffff1660e01b8152600401602060405180830381865afa15801562000302573d5f803e3d5ffd5b505050506040513d601f19601f8201168201806040525081019062000328919062000769565b63ffffffff166101808163ffffffff1681525050826001600160a01b031663cd51c12f6040518163ffffffff1660e01b8152600401602060405180830381865afa15801562000379573d5f803e3d5ffd5b505050506040513d601f19601f820116820180604052508101906200039f919062000769565b63ffffffff166101608163ffffffff1681525050826001600160a01b031663e2cb0ba06040518163ffffffff1660e01b8152600401602060405180830381865afa158015620003f0573d5f803e3d5ffd5b505050506040513d601f19601f820116820180604052508101906200041691906200078e565b60808181525050826001600160a01b03166353956aa26040518163ffffffff1660e01b8152600401602060405180830381865afa1580156200045a573d5f803e3d5ffd5b505050506040513d601f19601f820116820180604052508101906200048091906200078e565b60a05250600980546001600160a01b0319166001600160a01b0392831617905560408051634546891d60e11b815290515f935091861691638a8d123a916004808201926020929091908290030181865afa158015620004e1573d5f803e3d5ffd5b505050506040513d601f19601f8201168201806040525081019062000507919062000769565b90505f846001600160a01b03166320c1fb7a6040518163ffffffff1660e01b8152600401602060405180830381865afa15801562000547573d5f803e3d5ffd5b505050506040513d601f19601f820116820180604052508101906200056d919062000769565b9050306200057c8284620007ba565b6040516200058a90620006bf565b6001600160a01b03909216825263ffffffff166020820152604001604051809103905ff080158015620005bf573d5f803e3d5ffd5b506001600160a01b03166101c052604051620005db90620006cd565b604051809103905ff080158015620005f5573d5f803e3d5ffd5b506001600160a01b03166101e05250620008789350505050565b5f6200064660405180604001604052600c8152806020016b5661756c7453746f7261676560a01b815250836200064c60201b60201c565b92915050565b5f60ff5f1b19600184846040516020016200066992919062000810565b604051602081830303815290604052805190602001205f1c6200068d919062000862565b604051602001620006a091815260200190565b6040516020818303038152906040528051906020012016905092915050565b61455c806200dc5f83390190565b61076480620121bb83390190565b6001600160a01b0381168114620006f0575f80fd5b50565b5f805f6060848603121562000706575f80fd5b83516200071381620006db565b60208501519093506200072681620006db565b60408501519092506200073981620006db565b809150509250925092565b5f6020828403121562000755575f80fd5b81516200076281620006db565b9392505050565b5f602082840312156200077a575f80fd5b815163ffffffff8116811462000762575f80fd5b5f602082840312156200079f575f80fd5b5051919050565b634e487b7160e01b5f52601160045260245ffd5b63ffffffff828116828216039080821115620007da57620007da620007a6565b5092915050565b5f81515f5b81811015620008025760208185018101518683015201620007e6565b505f93019283525090919050565b7f62616c616e6365722d6c6162732e76332e73746f726167652e0000000000000081525f620008436019830185620007e1565b601760f91b8152620008596001820185620007e1565b95945050505050565b81810381811115620006465762000646620007a6565b60805160a05160c05160e05161010051610120516101405161016051610180516101a0516101c0516101e05161d2c56200099a5f395f8181611e4f01528181612eea015281816131180152613f1201525f8181610e210152818161150c01528181611bed015281816123b4015261325f01525f8181611068015261144101525f61a21001525f6182b001525f50505f8181612a5c01528181613cad01526154b401525f81816108c10152818161390101528181617bb40152617c5301525f81816107bb015281816129a701528181612d2e01528181617bf30152617c2801525f8181610fe4015281816129030152818161293301528181612a04015281816131b10152818161320b0152614b4001525f61269201525f617ea2015261d2c55ff3fe60806040526004361061061a575f3560e01c80636d4908c411610321578063bb14e466116101a4578063d8f4cf3c116100eb578063e594868911610094578063eeda99911161006e578063eeda9991146113a8578063f1320097146113c7578063ff44deab146113f757610638565b8063e594868914611336578063e5b08ffb14611355578063ebfeb0a11461138957610638565b8063df138458116100c5578063df1384581461129b578063e2ddce11146112d0578063e460a8a9146112ef57610638565b8063d8f4cf3c1461123e578063dab505791461125d578063dc4402ed1461127c57610638565b8063cfcc22091161014d578063d2c725e011610127578063d2c725e0146111ad578063d64bc25d146111ea578063d86c3fef1461121f57610638565b8063cfcc220914611150578063d01a32691461116f578063d0643b8c1461118e57610638565b8063c9c1661b1161017e578063c9c1661b146110fe578063cbde2b681461111d578063cecc95a71461113c57610638565b8063bb14e4661461108c578063be6b4d2a146110ab578063c1fdcd62146110df57610638565b8063a40f959211610268578063b1740c2d11610211578063b6f680f4116101eb578063b6f680f414611027578063b8caceee14611046578063b9a8effa1461105a57610638565b8063b1740c2d14610fb7578063b246949914610fd6578063b4eb0bf91461100857610638565b8063ab62c2b611610242578063ab62c2b614610f25578063ac00485514610f79578063ae63932914610f9857610638565b8063a40f959214610eca578063aa01edb314610ee9578063aaabadc514610f0857610638565b806387a530f8116102ca578063920af066116102a4578063920af06614610e7857806396e74a2714610e97578063a408f31214610eb657610638565b806387a530f814610df457806387a76c5914610e135780638f5aeb4b14610e5957610638565b806379a2c0ac116102fb57806379a2c0ac14610d5f57806380047e2614610db6578063851c65a314610dd557610638565b80636d4908c414610d185780637004b0f114610d2c5780637965c96714610d4b57610638565b80632b766278116104a957806344ea8763116103f05780635e3e00fa11610399578063608256f711610373578063608256f714610cbb57806362691e5f14610cda578063692407ae14610cf957610638565b80635e3e00fa14610c5e5780635eeae6eb14610c7d5780635f70f54214610c9c57610638565b80634af29ec4116103ca5780634af29ec414610bdd578063557dba6814610c0b5780635c1c1c8114610c3f57610638565b806344ea876314610b7357806347c07e8814610b9257806348c8949114610bb157610638565b806336918d6e116104525780633cce25851161042c5780633cce258514610b165780633e262ba314610b3557806343583be514610b5457610638565b806336918d6e14610aa3578063370bc8da14610ac25780633cb5b2af14610ae157610638565b80632d1c3beb116104835780632d1c3beb14610a4657806332333ce614610a65578063352339ee14610a8457610638565b80632b766278146109ce5780632bfb780c146109ed5780632cbbf19814610a2757610638565b806316a573c21161056d5780631f495f791161051657806325b6a844116104f057806325b6a8441461095e5780632606a4de1461099057806328121e27146109af57610638565b80631f495f79146108e5578063214578971461090457806324e7176b1461093257610638565b80631c4e1e23116105475780631c4e1e23146108755780631d27af68146108945780631f4475c5146108b357610638565b806316a573c2146107fe578063195aaef91461082a57806319a24bcb1461084957610638565b80630c87409b116105cf57806310c1dc41116105a957806310c1dc411461078e578063155075e6146107ad57806315afd409146107df57610638565b80630c87409b146107245780630ee4cdd8146107435780630f682ba01461076257610638565b80630362a513116106005780630362a5131461069f5780630790de46146106be57806308bade29146106f757610638565b8062d7aadb1461066157806302e1a4aa1461068057610638565b3661063857604051637911c44b60e11b815260040160405180910390fd5b341561065757604051637911c44b60e11b815260040160405180910390fd5b61065f61143c565b005b34801561066c575f80fd5b5061065f61067b36600461ac17565b611467565b34801561068b575f80fd5b5061065f61069a36600461ac55565b6114f6565b3480156106aa575f80fd5b5061065f6106b936600461ae32565b611502565b3480156106c9575f80fd5b506106dd6106d836600461b244565b6115df565b6040516106ee95949392919061b4a3565b60405180910390f35b348015610702575f80fd5b5061071661071136600461b4f5565b6116ee565b6040519081526020016106ee565b34801561072f575f80fd5b5061065f61073e36600461b544565b611704565b34801561074e575f80fd5b5061065f61075d36600461b577565b611745565b34801561076d575f80fd5b5061078161077c36600461b5a9565b61176f565b6040516106ee919061b5e0565b348015610799575f80fd5b5061065f6107a836600461b5f2565b6117c4565b3480156107b8575f80fd5b507f0000000000000000000000000000000000000000000000000000000000000000610716565b3480156107ea575f80fd5b506107166107f936600461b61e565b6117ef565b348015610809575f80fd5b5061081d61081836600461b6d8565b6118be565b6040516106ee919061b7f3565b348015610835575f80fd5b5061065f61084436600461b61e565b611918565b348015610854575f80fd5b5061086861086336600461ac55565b611926565b6040516106ee919061b805565b348015610880575f80fd5b5061065f61088f36600461b817565b6119df565b34801561089f575f80fd5b5061065f6108ae36600461ac17565b611b7f565b3480156108be575f80fd5b507f0000000000000000000000000000000000000000000000000000000000000000610716565b3480156108f0575f80fd5b5061065f6108ff36600461b85b565b611b8f565b34801561090f575f80fd5b5061092361091e36600461b933565b611c3f565b6040516106ee9392919061b964565b34801561093d575f80fd5b5061095161094c36600461b98e565b611d89565b6040516106ee919061ba26565b348015610969575f80fd5b5061097d61097836600461b6d8565b611ec5565b6040516106ee979695949392919061ba38565b34801561099b575f80fd5b506107166109aa36600461ac55565b611f9d565b3480156109ba575f80fd5b5061065f6109c936600461bb1e565b611fbf565b3480156109d9575f80fd5b5061065f6109e836600461b61e565b611fde565b3480156109f8575f80fd5b50610a0c610a0736600461bb73565b612000565b604080519384526020840192909252908201526060016106ee565b348015610a32575f80fd5b5061065f610a4136600461bba4565b612242565b348015610a51575f80fd5b50610716610a6036600461ac55565b61224b565b348015610a70575f80fd5b5061065f610a7f36600461bbbb565b6122e9565b348015610a8f575f80fd5b5061065f610a9e36600461bc07565b61244a565b348015610aae575f80fd5b50610716610abd36600461bc23565b61246c565b348015610acd575f80fd5b50610a0c610adc36600461bc4f565b6124a1565b348015610aec575f80fd5b5061065f610afb36600461b61e565b6001600160a01b039091165f908152600d6020526040902055565b348015610b21575f80fd5b50610868610b3036600461ac55565b61253d565b348015610b40575f80fd5b5061065f610b4f36600461b61e565b6125e8565b348015610b5f575f80fd5b50610a0c610b6e36600461bc4f565b6125f2565b348015610b7e575f80fd5b5061065f610b8d36600461ac17565b612895565b348015610b9d575f80fd5b5061065f610bac36600461ac17565b6128f4565b348015610bbc575f80fd5b50610bd0610bcb36600461bcd4565b6128ff565b6040516106ee919061bd3f565b348015610be8575f80fd5b50610bfc610bf736600461bd51565b612a2f565b6040516106ee9392919061bd82565b348015610c16575f80fd5b50610716610c2536600461ac55565b6001600160a01b03165f9081526020819052604090205490565b348015610c4a575f80fd5b5061065f610c5936600461be1b565b612ba7565b348015610c69575f80fd5b5061065f610c7836600461bc07565b612d06565b348015610c88575f80fd5b5061065f610c9736600461bba4565b612d28565b348015610ca7575f80fd5b50610951610cb636600461befb565b612d52565b348015610cc6575f80fd5b50610951610cd536600461bfb5565b612f60565b348015610ce5575f80fd5b5061065f610cf436600461ac55565b61318e565b348015610d04575f80fd5b5061065f610d1336600461c0b5565b613198565b348015610d23575f80fd5b5061065f6131ab565b348015610d37575f80fd5b5061065f610d4636600461ac17565b6131d5565b348015610d56575f80fd5b5061065f613204565b348015610d6a575f80fd5b5061065f610d7936600461bc23565b6001600160a01b039182165f908152600160205260409020600201805473ffffffffffffffffffffffffffffffffffffffff191691909216179055565b348015610dc1575f80fd5b5061065f610dd036600461b61e565b61322f565b348015610de0575f80fd5b5061065f610def36600461bbbb565b613239565b348015610dff575f80fd5b5061065f610e0e36600461ac55565b61332f565b348015610e1e575f80fd5b507f00000000000000000000000000000000000000000000000000000000000000005b6040516001600160a01b0390911681526020016106ee565b348015610e64575f80fd5b50610716610e7336600461bc23565b613339565b348015610e83575f80fd5b5061065f610e9236600461b61e565b613368565b348015610ea2575f80fd5b5061065f610eb136600461b6d8565b61338a565b348015610ec1575f80fd5b5061065f6133b9565b348015610ed5575f80fd5b50610716610ee436600461ac55565b6133f3565b348015610ef4575f80fd5b50610781610f0336600461c0d0565b613415565b348015610f13575f80fd5b506009546001600160a01b0316610e41565b348015610f30575f80fd5b5061065f610f3f36600461bc23565b6001600160a01b039182165f908152600e60205260409020805473ffffffffffffffffffffffffffffffffffffffff191691909216179055565b348015610f84575f80fd5b5061065f610f9336600461c12c565b61346d565b348015610fa3575f80fd5b5061065f610fb236600461ac17565b613479565b348015610fc2575f80fd5b5061065f610fd136600461b61e565b6134dc565b348015610fe1575f80fd5b507f0000000000000000000000000000000000000000000000000000000000000000610716565b348015611013575f80fd5b5061065f61102236600461bba4565b6134e6565b348015611032575f80fd5b5061065f61104136600461c12c565b6134ef565b348015611051575f80fd5b5061065f6134fb565b348015611065575f80fd5b507f0000000000000000000000000000000000000000000000000000000000000000610e41565b348015611097575f80fd5b5061065f6110a636600461c16f565b613503565b3480156110b6575f80fd5b506110ca6110c536600461c1d5565b6135fd565b604080519283526020830191909152016106ee565b3480156110ea575f80fd5b5061065f6110f936600461c243565b61361b565b348015611109575f80fd5b506110ca61111836600461bc23565b613775565b348015611128575f80fd5b5061065f61113736600461bc07565b61380b565b348015611147575f80fd5b5061065f61382d565b34801561115b575f80fd5b5061065f61116a36600461b61e565b613858565b34801561117a575f80fd5b5061065f61118936600461ac17565b61387a565b348015611199575f80fd5b5061065f6111a836600461b61e565b6138fa565b3480156111b8575f80fd5b506040517f9b779b17422d0df92223018b32b4d1fa46e071723d6817e2486d003becc55f005c151581526020016106ee565b3480156111f5575f80fd5b5061065f61120436600461b61e565b6001600160a01b039091165f90815260086020526040902055565b34801561122a575f80fd5b5061078161123936600461c348565b613925565b348015611249575f80fd5b5061065f61125836600461c3a7565b613992565b348015611268575f80fd5b5061065f61127736600461c42f565b613ad8565b348015611287575f80fd5b5061078161129636600461b5a9565b613c47565b3480156112a6575f80fd5b5061065f6112b536600461b61e565b6001600160a01b039091165f90815260208190526040902055565b3480156112db575f80fd5b5061065f6112ea36600461bc07565b613ca6565b3480156112fa575f80fd5b5061130e61130936600461ac55565b613cd1565b60408051825115158152602080840151151590820152918101511515908201526060016106ee565b348015611341575f80fd5b5061095161135036600461c52b565b613d39565b348015611360575f80fd5b5061071661136f36600461ac55565b6001600160a01b03165f908152600b602052604090205490565b348015611394575f80fd5b506107166113a336600461c5a2565b613f88565b3480156113b3575f80fd5b5061065f6113c236600461b244565b613f93565b3480156113d2575f80fd5b506113e66113e136600461bb1e565b613fa6565b6040516106ee95949392919061c5e5565b348015611402575f80fd5b5061065f61141136600461ac17565b6001600160a01b039283165f908152600c602090815260408083209490951682529290925291902055565b6114657f000000000000000000000000000000000000000000000000000000000000000061403e565b565b6040517fa9059cbb0000000000000000000000000000000000000000000000000000000081526001600160a01b0383811660048301526024820183905284169063a9059cbb906044016020604051808303815f875af11580156114cc573d5f803e3d5ffd5b505050506040513d601f19601f820116820180604052508101906114f0919061c637565b50505050565b6114ff8161405c565b50565b61150a6140a7565b7f00000000000000000000000000000000000000000000000000000000000000006001600160a01b0316630e0677ab8561154386611d89565b85855f61158b60408051608080820183525f80835260208084018290528385018290526060938401829052845192830185528183529282015260019181018290529182015290565b6040518763ffffffff1660e01b81526004016115ac9695949392919061c652565b5f604051808303815f87803b1580156115c3575f80fd5b505af11580156115d5573d5f803e3d5ffd5b5050505050505050565b6116216040518060e001604052805f80191681526020016060815260200160608152602001606081526020016060815260200160608152602001606081525090565b6060805f60605f87604051602001611639919061c706565b60405160208183030381529060405280519060200120905061165c8989896140e6565b6040519398509196509450925061167790899060200161c706565b6040516020818303038152906040528051906020012081146116e05760405162461bcd60e51b815260206004820152601d60248201527f496e70757420706172616d65746572732068617665206368616e67656400000060448201526064015b60405180910390fd5b509697929691955093509150565b5f6116fb858585856147da565b95945050505050565b6001600160a01b0382165f90815260208190526040902054611726908261486f565b6001600160a01b039092165f9081526020819052604090209190915550565b61174f828261497b565b6001600160a01b039093165f908152600b60205260409020929092555050565b6117b16040518060e001604052805f80191681526020016060815260200160608152602001606081526020016060815260200160608152602001606081525090565b6117bb83836149d8565b90505b92915050565b6117e3816117dd84600754614a8f90919063ffffffff16565b90614aad565b6007555050565b905090565b5f6117f8614aba565b611800614b3e565b6001600160a01b0383165f818152600860205260408082205490516370a0823160e01b81523060048201529092906370a0823190602401602060405180830381865afa158015611852573d5f803e3d5ffd5b505050506040513d601f19601f82011682018060405250810190611876919061c77c565b6001600160a01b0386165f908152600860205260409020819055905061189c828261c7a7565b9250838311156118aa578392505b6118b48584614b9a565b50506117be614bb5565b6119036040805160e08101909152805f81526020015f8152602001606081526020015f81526020015f81526020015f6001600160a01b03168152602001606081525090565b61190e848484614bdf565b90505b9392505050565b6119228282614c90565b5050565b6001600160a01b0381165f90815260056020908152604080832060039092529091205460609190806001600160401b038111156119655761196561ac70565b60405190808252806020026020018201604052801561198e578160200160208202803683370190505b5092505f5b818110156119d7575f818152602084905260409020546001600160801b03168482815181106119c4576119c461c7ba565b6020908102919091010152600101611993565b505050919050565b6001600160a01b0383165f90815260036020908152604080832080548251818502810185019093528083529192909190830182828015611a4657602002820191905f5260205f20905b81546001600160a01b03168152600190910190602001808311611a28575b505050505090508251815114611aa85760405162461bcd60e51b815260206004820152602160248201527f5661756c744d6f636b3a20544f4b454e535f4c454e4754485f4d49534d4154436044820152600960fb1b60648201526084016116d7565b8151815114611b035760405162461bcd60e51b815260206004820152602160248201527f5661756c744d6f636b3a20544f4b454e535f4c454e4754485f4d49534d4154436044820152600960fb1b60648201526084016116d7565b6001600160a01b0384165f908152600560205260408120905b8251811015611b7757611b61858281518110611b3a57611b3a61c7ba565b6020026020010151858381518110611b5457611b5461c7ba565b602002602001015161497b565b5f82815260208490526040902055600101611b1c565b505050505050565b611b8a838383614e36565b505050565b611b976140a7565b5f611bdd60408051608080820183525f80835260208084018290528385018290526060938401829052845192830185528183529282015260019181018290529182015290565b6001815290506001600160a01b037f00000000000000000000000000000000000000000000000000000000000000001663ed05beaf85611c1c86611d89565b855f866040518663ffffffff1660e01b81526004016115ac95949392919061c7ce565b5f606080611c4b614b3e565b8351611c5681615003565b8451611c619061504d565b5f611c70865f015160016149d8565b9050611c86816020015151876060015151615055565b60c081015160a082015160608801515f92611ca092615075565b9050611cae825f0151615167565b15611d225786516001600160a01b039081165f90815260026020526040902054611ce091839133918b91879116615227565b86516001600160a01b03165f908152600560205260409020611d05908390600161530b565b60c082015160a08301516060890151611d1f929091615075565b90505b6060611d2f83898461539a565b8651939a509198509096509150611d4590615b3b565b15611d7e5787516001600160a01b039081165f908152600260205260409020548451911690611d7a9033848a8c8e8a88615b55565b9650505b505050509193909250565b606081516001600160401b03811115611da457611da461ac70565b604051908082528060200260200182016040528015611ddd57816020015b611dca61ab36565b815260200190600190039081611dc25790505b5090505f5b8251811015611e3757828181518110611dfd57611dfd61c7ba565b6020026020010151828281518110611e1757611e1761c7ba565b60209081029190910101516001600160a01b039091169052600101611de2565b5060405163bb4ad7d560e01b81526001600160a01b037f0000000000000000000000000000000000000000000000000000000000000000169063bb4ad7d590611e8490849060040161ba26565b5f60405180830381865afa158015611e9e573d5f803e3d5ffd5b505050506040513d5f823e601f3d908101601f191682016040526117be919081019061c839565b6040805160e0810182525f8082526020820181905291810182905260608082018390526080820183905260a0820183905260c0820152819081908190611f2860405180608001604052805f81526020015f81526020015f81526020015f81525090565b611f6a6040518060e001604052805f80191681526020016060815260200160608152602001606081526020016060815260200160608152602001606081525090565b5f611f768b8b8b614bdf565b9050611f848b8b8b84615d50565b929e919d909c929b909a50919850909650945050505050565b6001600160a01b0381165f908152600b602052604081205461191181846161f8565b611fc7614aba565b611fd283838361539a565b50505050611b8a614bb5565b6001600160a01b0382165f9081526020819052604090205461172690826162b7565b5f805f61200b614b3e565b836020015161201981615003565b612026856020015161504d565b84608001515f03612063576040517f57a456b700000000000000000000000000000000000000000000000000000000815260040160405180910390fd5b84606001516001600160a01b031685604001516001600160a01b0316036120b6576040517fa54b181d00000000000000000000000000000000000000000000000000000000815260040160405180910390fd5b5f6120c6866020015160016149d8565b90505f6120d387836163c9565b90505f6120e1888385614bdf565b90506120ef835f0151616443565b15612168576020808901516001600160a01b038082165f90815260029093526040909220546121219284929116616452565b6020808901516001600160a01b03165f90815260059091526040902061214a908490600161530b565b612155888484616513565b6040830152612165888385614bdf565b90505b8251612173906165d9565b156121b15760208089015160608401516001600160a01b038083165f90815260029094526040909320546121ab9385939291166165e8565b60608301525b5f6121be89848685615d50565b8751939b50909950975091506121d3906166cc565b15612211576020808a01516001600160a01b039081165f9081526002909252604090912054855191169061220d90838b338e898b886166db565b9850505b5f895160018111156122255761222561b2c5565b0361223257879550612236565b8796505b50505050509193909250565b6114ff81616957565b5f612254614aba565b6040517f15afd4090000000000000000000000000000000000000000000000000000000081526001600160a01b03831660048201525f602482015230906315afd409906044016020604051808303815f875af11580156122b6573d5f803e3d5ffd5b505050506040513d601f19601f820116820180604052508101906122da919061c77c565b90506122e4614bb5565b919050565b5f81516001600160401b038111156123035761230361ac70565b60405190808252806020026020018201604052801561233c57816020015b61232961ab36565b8152602001906001900390816123215790505b50604080516060810182525f808252602082018190529181018290529192505b83518110156123b1578381815181106123775761237761c7ba565b60200260200101518382815181106123915761239161c7ba565b60209081029190910101516001600160a01b03909116905260010161235c565b507f00000000000000000000000000000000000000000000000000000000000000006001600160a01b031663d396a6668584845f61242a60408051608080820183525f80835260208084018290528385018290526060938401829052845192830185528183529282015260019181018290529182015290565b6040518663ffffffff1660e01b81526004016115ac95949392919061c915565b6001600160a01b0382165f908152602081905260409020546117269082614aad565b6001600160a01b038281165f9081526006602090815260408083209385168352929052908120546001600160801b03166117bb565b5f805f6124ac614aba565b6040517f43583be500000000000000000000000000000000000000000000000000000000815230906343583be5906124e890879060040161c9a5565b6060604051808303815f875af1158015612504573d5f803e3d5ffd5b505050506040513d601f19601f82011682018060405250810190612528919061c9f9565b925092509250612536614bb5565b9193909250565b6001600160a01b0381165f90815260056020908152604080832060039092529091205460609190806001600160401b0381111561257c5761257c61ac70565b6040519080825280602002602001820160405280156125a5578160200160208202803683370190505b5092505f5b818110156119d7575f8181526020849052604090205460801c8482815181106125d5576125d561c7ba565b60209081029190910101526001016125aa565b6119228282616966565b5f805f6125fd614b3e565b612605616973565b8360400151612613816169b5565b61261b614aba565b5f85604001516001600160a01b03166338d52e0f6040518163ffffffff1660e01b8152600401602060405180830381865afa15801561265c573d5f803e3d5ffd5b505050506040513d601f19601f82011682018060405250810190612680919061ca24565b9050612690866040015182616a10565b7f0000000000000000000000000000000000000000000000000000000000000000866060015110156126ff5760408087015190517f18fe73850000000000000000000000000000000000000000000000000000000081526001600160a01b0390911660048201526024016116d7565b6001866020015160018111156127175761271761b2c5565b0361278a57612733865f01518288604001518960600151616a78565b6040808901518151848152602081018490529397509195506001600160a01b03808516939216917f844bdb9a38d1fd821344dfafdefc02959dbbcddd8e8f158cdebb56b561cb6702910160405180910390a36127f5565b6127a1865f01518288604001518960600151616e3f565b6040808901518151848152602081018490529397509195506001600160a01b0391821692918416917f764bd851d2423ff95fbc9b4db718c64299b808c0948fa9eec41c3b30001aea5e910160405180910390a35b5f865160018111156128095761280961b2c5565b0361284b57856080015183101561284357608086015160405163e2ea151b60e01b81526116d7918591600401918252602082015260400190565b829450612884565b856080015184111561288057608086015160405163e2ea151b60e01b81526116d7918691600401918252602082015260400190565b8394505b5061288d614bb5565b509193909250565b6001600160a01b038084165f908152600660209081526040808320938616835292905220546128c49082617252565b6001600160a01b039384165f90815260066020908152604080832095909616825293909352929091209190915550565b611b8a838383617261565b60607f00000000000000000000000000000000000000000000000000000000000000005c8015155f036129595761295960017f00000000000000000000000000000000000000000000000000000000000000005b90617393565b61299a84848080601f0160208091040260200160405190810160405280939291908181526020018383808284375f92019190915250339392505061739a9050565b91508015155f03612a28577f00000000000000000000000000000000000000000000000000000000000000005c156129fe576040517f20f1d86d00000000000000000000000000000000000000000000000000000000815260040160405180910390fd5b612a285f7f0000000000000000000000000000000000000000000000000000000000000000612953565b5092915050565b60605f6060612a3c614b3e565b8351612a4781615003565b8451612a529061504d565b8451612a839060017f00000000000000000000000000000000000000000000000000000000000000005b91906173a7565b5f612a91865f01515f6149d8565b9050612aa7816020015151876040015151615055565b60c081015160a082015160408801515f92612ac1926173bf565b9050612acf825f01516174a7565b15612b425786516001600160a01b039081165f90815260026020526040902054612b0191339184918b918791166174b6565b86516001600160a01b03165f908152600560205260408120612b259184919061530b565b60c082015160a08301516040890151612b3f9290916173bf565b90505b6060612b4f8389846140e6565b8651939a5090985096509150612b6490617593565b15611d7e5787516001600160a01b039081165f908152600260205260409020548451911690612b999033848b8b8e8a886175a2565b975050505050509193909250565b6001600160a01b0382165f9081526020819052604090205460c0820151612bcf908290614aad565b9050612be88260e001518261778c90919063ffffffff16565b9050612c02826101200151826177ae90919063ffffffff16565b9050612c1c826101000151826177d490919063ffffffff16565b9050612c358260200151826162b790919063ffffffff16565b9050612c4e8260400151826177e490919063ffffffff16565b9050612c6782606001518261790290919063ffffffff16565b9050612c80826080015182617a2190919063ffffffff16565b9050612c998260a001518261486f90919063ffffffff16565b825151909150612caa908290617b22565b825160200151909150612cbe908290617b3d565b825160400151909150612cd2908290617b58565b825160600151909150612ce6908290617b73565b6001600160a01b039093165f908152602081905260409020929092555050565b6001600160a01b0382165f90815260208190526040902054611726908261778c565b6114ff817f0000000000000000000000000000000000000000000000000000000000000000612953565b606082516001600160401b03811115612d6d57612d6d61ac70565b604051908082528060200260200182016040528015612da657816020015b612d9361ab36565b815260200190600190039081612d8b5790505b5090505f5b8351811015612ed257838181518110612dc657612dc661c7ba565b6020026020010151828281518110612de057612de061c7ba565b60209081029190910101516001600160a01b0390911690528251839082908110612e0c57612e0c61c7ba565b6020026020010151828281518110612e2657612e2661c7ba565b6020026020010151604001906001600160a01b031690816001600160a01b0316815250505f6001600160a01b0316838281518110612e6657612e6661c7ba565b60200260200101516001600160a01b031614612e83576001612e85565b5f5b828281518110612e9757612e9761c7ba565b6020026020010151602001906001811115612eb457612eb461b2c5565b90816001811115612ec757612ec761b2c5565b905250600101612dab565b5060405163bb4ad7d560e01b81526001600160a01b037f0000000000000000000000000000000000000000000000000000000000000000169063bb4ad7d590612f1f90849060040161ba26565b5f60405180830381865afa158015612f39573d5f803e3d5ffd5b505050506040513d5f823e601f3d908101601f191682016040526117bb919081019061c839565b606084516001600160401b03811115612f7b57612f7b61ac70565b604051908082528060200260200182016040528015612fb457816020015b612fa161ab36565b815260200190600190039081612f995790505b5090505f5b855181101561310057858181518110612fd457612fd461c7ba565b6020026020010151828281518110612fee57612fee61c7ba565b60209081029190910101516001600160a01b039091169052845185908290811061301a5761301a61c7ba565b60200260200101518282815181106130345761303461c7ba565b60200260200101516020019060018111156130515761305161b2c5565b908160018111156130645761306461b2c5565b8152505083818151811061307a5761307a61c7ba565b60200260200101518282815181106130945761309461c7ba565b6020026020010151604001906001600160a01b031690816001600160a01b0316815250508281815181106130ca576130ca61c7ba565b60200260200101518282815181106130e4576130e461c7ba565b6020908102919091010151901515606090910152600101612fb9565b5060405163bb4ad7d560e01b81526001600160a01b037f0000000000000000000000000000000000000000000000000000000000000000169063bb4ad7d59061314d90849060040161ba26565b5f60405180830381865afa158015613167573d5f803e3d5ffd5b505050506040513d5f823e601f3d908101601f191682016040526116fb919081019061c839565b8061192281615003565b6007546131a59082614a8f565b60075550565b6114655f7f0000000000000000000000000000000000000000000000000000000000000000612953565b6001600160a01b038084165f908152600660209081526040808320938616835292905220546128c49082617b8e565b61146560017f0000000000000000000000000000000000000000000000000000000000000000612953565b6119228282617ba2565b6132416140a7565b604080516060810182525f80825260208201819052918101919091527f00000000000000000000000000000000000000000000000000000000000000006001600160a01b031663d396a6668461329685611d89565b845f6132dd60408051608080820183525f80835260208084018290528385018290526060938401829052845192830185528183529282015260019181018290529182015290565b6040518663ffffffff1660e01b81526004016132fd95949392919061c915565b5f604051808303815f87803b158015613314575f80fd5b505af1158015613326573d5f803e3d5ffd5b50505050505050565b8061192281617c77565b6001600160a01b038281165f90815260066020908152604080832093851683529290529081205460801c6117bb565b6001600160a01b0382165f908152602081905260409020546117269082617902565b613392614aba565b5f61339e848484614bdf565b90506133ac84848484615d50565b5050505050611b8a614bb5565b6133c1614aba565b7f9b779b17422d0df92223018b32b4d1fa46e071723d6817e2486d003becc55f005c6133eb575f80fd5b611465614bb5565b6001600160a01b0381165f908152600b60205260408120546119118184617cc1565b6134576040518060e001604052805f80191681526020016060815260200160608152602001606081526020016060815260200160608152602001606081525090565b61346385858585617d03565b5093949350505050565b6114f084848484617dd4565b613481614aba565b613489614b3e565b6134938382616966565b6001600160a01b0383165f90815260086020526040812080548392906134ba90849061c7a7565b909155506134d490506001600160a01b0384168383617e2c565b611b8a614bb5565b6119228282614b9a565b6114ff81617ea0565b6114f084848484617efa565b611465614b3e565b5f5b82518110156114f0578181815181106135205761352061c7ba565b602002602001015160045f866001600160a01b03166001600160a01b031681526020019081526020015f205f85848151811061355e5761355e61c7ba565b6020908102919091018101516001600160a01b031682528101919091526040015f2081518154829060ff19166001838181111561359d5761359d61b2c5565b0217905550602082015181546040909301511515600160a81b0260ff60a81b196001600160a01b03909216610100029190911675ffffffffffffffffffffffffffffffffffffffffff001990931692909217919091179055600101613505565b5f8061360c8787878787617f44565b915091505b9550959350505050565b6001600160a01b0382165f90815260208190526040902054815161364090829061807b565b90506136598260200151826180a190919063ffffffff16565b90506136728260400151826180b190919063ffffffff16565b905061368b8260600151826180cc90919063ffffffff16565b90506136a48260800151826180e790919063ffffffff16565b90506136bd8260a001518261810290919063ffffffff16565b90506136d68260c001518261811d90919063ffffffff16565b90506136ef8260e001518261813890919063ffffffff16565b90506137098261010001518261815390919063ffffffff16565b90506137238261012001518261816e90919063ffffffff16565b6001600160a01b039384165f90815260208181526040808320939093556101409490940151600290945220805473ffffffffffffffffffffffffffffffffffffffff1916929093169190911790915550565b5f808361378181618189565b6001600160a01b0385165f908152600360209081526040808320805482518185028101850190935280835291929091908301828280156137e857602002820191905f5260205f20905b81546001600160a01b031681526001909101906020018083116137ca575b505050505090505f6137fa82876181d3565b91519450909250505b509250929050565b6001600160a01b0382165f9081526020819052604090205461172690826177d4565b7f9b779b17422d0df92223018b32b4d1fa46e071723d6817e2486d003becc55f005c15611465575f80fd5b6001600160a01b0382165f9081526020819052604090205461172690826177e4565b613882614aba565b6040517fae6393290000000000000000000000000000000000000000000000000000000081526001600160a01b0380851660048301528316602482015260448101829052309063ae639329906064015f604051808303815f87803b1580156138e8575f80fd5b505af1158015611fd2573d5f803e3d5ffd5b61192282827f0000000000000000000000000000000000000000000000000000000000000000612a7c565b6139676040518060e001604052805f80191681526020016060815260200160608152602001606081526020016060815260200160608152602001606081525090565b6001600160a01b0384165f90815260056020526040902061398a9084908461530b565b509092915050565b81518351146139ed5760405162461bcd60e51b815260206004820152602160248201527f5661756c744d6f636b3a20544f4b454e535f4c454e4754485f4d49534d4154436044820152600960fb1b60648201526084016116d7565b8051835114613a485760405162461bcd60e51b815260206004820152602160248201527f5661756c744d6f636b3a20544f4b454e535f4c454e4754485f4d49534d4154436044820152600960fb1b60648201526084016116d7565b6001600160a01b0384165f908152600560205260408120905b8451811015613aaf57613a99848281518110613a7f57613a7f61c7ba565b6020026020010151848381518110611b5457611b5461c7ba565b5f82815260208490526040902055600101613a61565b506001600160a01b0385165f9081526003602090815260409091208551611b779287019061ab5e565b5f5b8151811015611b8a576040518060600160405280838381518110613b0057613b0061c7ba565b6020026020010151602001516001811115613b1d57613b1d61b2c5565b8152602001838381518110613b3457613b3461c7ba565b6020026020010151604001516001600160a01b03168152602001838381518110613b6057613b6061c7ba565b602002602001015160600151151581525060045f856001600160a01b03166001600160a01b031681526020019081526020015f205f848481518110613ba757613ba761c7ba565b602090810291909101810151516001600160a01b031682528101919091526040015f2081518154829060ff191660018381811115613be757613be761b2c5565b0217905550602082015181546040909301511515600160a81b0260ff60a81b196001600160a01b03909216610100029190911675ffffffffffffffffffffffffffffffffffffffffff001990931692909217919091179055600101613ada565b613c896040518060e001604052805f80191681526020016060815260200160608152602001606081526020016060815260200160608152602001606081525090565b613c91614aba565b613c9b83836149d8565b90505b6117be614bb5565b61192282827f0000000000000000000000000000000000000000000000000000000000000000612a7c565b604080516060810182525f8082526020820181905291810191909152613cf68261504d565b600754604080516060810190915280613d0e8361825e565b15158152602001613d1e83618268565b15158152602001613d2e83618280565b151590529392505050565b606083516001600160401b03811115613d5457613d5461ac70565b604051908082528060200260200182016040528015613d8d57816020015b613d7a61ab36565b815260200190600190039081613d725790505b5090505f5b8451811015613efa57848181518110613dad57613dad61c7ba565b6020026020010151828281518110613dc757613dc761c7ba565b60209081029190910101516001600160a01b0390911690528351849082908110613df357613df361c7ba565b6020026020010151828281518110613e0d57613e0d61c7ba565b6020026020010151604001906001600160a01b031690816001600160a01b0316815250505f6001600160a01b0316848281518110613e4d57613e4d61c7ba565b60200260200101516001600160a01b031614613e6a576001613e6c565b5f5b828281518110613e7e57613e7e61c7ba565b6020026020010151602001906001811115613e9b57613e9b61b2c5565b90816001811115613eae57613eae61b2c5565b81525050828181518110613ec457613ec461c7ba565b6020026020010151828281518110613ede57613ede61c7ba565b6020908102919091010151901515606090910152600101613d92565b5060405163bb4ad7d560e01b81526001600160a01b037f0000000000000000000000000000000000000000000000000000000000000000169063bb4ad7d590613f4790849060040161ba26565b5f60405180830381865afa158015613f61573d5f803e3d5ffd5b505050506040513d5f823e601f3d908101601f1916820160405261190e919081019061c839565b5f6117bb83836181d3565b613f9b614aba565b611fd28383836140e6565b613fe86040518060e001604052805f80191681526020016060815260200160608152602001606081526020016060815260200160608152602001606081525090565b5f60608060605f87604051602001614000919061ca4f565b60405160208183030381529060405280519060200120905061402389898961539a565b6040519398509196509450925061167790899060200161ca4f565b365f80375f80365f845af43d5f803e808015614058573d5ff35b3d5ffd5b6140658161829a565b156114ff576040517fd971f5970000000000000000000000000000000000000000000000000000000081526001600160a01b03821660048201526024016116d7565b6140af6182ad565b15611465576040517fda9f8b3400000000000000000000000000000000000000000000000000000000815260040160405180910390fd5b6060805f60606140f4614aba565b61411560405180606001604052805f81526020015f81526020015f81525090565b6020880151518082526001600160401b038111156141355761413561ac70565b60405190808252806020026020018201604052801561415e578160200160208202803683370190505b50945060605f8860800151600481111561417a5761417a61b2c5565b036141fc57606088015182519094506001600160401b038111156141a0576141a061ac70565b6040519080825280602002602001820160405280156141c9578160200160208202803683370190505b5060808a015189516001600160a01b03165f908152601160205260409020549192506141f591866182ea565b94506144a3565b6003886080015160048111156142145761421461b2c5565b036142745788516142249061838f565b86516001600160401b0381111561423d5761423d61ac70565b604051908082528060200260200182016040528015614266578160200160208202803683370190505b5090505f93508694506144a3565b60018860800151600481111561428c5761428c61b2c5565b036142f357885161429c906183d2565b8694506142ad886040015187618415565b6142e98960800151886142d78b5f01516001600160a01b03165f9081526011602052604090205490565b8c516142e29061846d565b8c51618555565b90945090506144a3565b60028860800151600481111561430b5761430b61b2c5565b0361439e57885161431b906183d2565b8760600151935061432b876188fd565b6040830181905260808a0151895189975061437392908790614361906001600160a01b03165f9081526011602052604090205490565b8d5161436c9061846d565b8d516189af565b868460400151815181106143895761438961c7ba565b602002602001018193508281525050506144a3565b6004886080015160048111156143b6576143b661b2c5565b036144715788516143c690618b5a565b8751606089015160808b015160a08b01516040517fe4c436630000000000000000000000000000000000000000000000000000000081526001600160a01b039094169363e4c436639361441f9333938e9360040161caa9565b5f604051808303815f875af115801561443a573d5f803e3d5ffd5b505050506040513d5f823e601f3d908101601f19168201604052614461919081019061cb80565b92975090955090935090506144a3565b6040517f6c02b39500000000000000000000000000000000000000000000000000000000815260040160405180910390fd5b87606001518410156144f15760608801516040517f8d261d5d0000000000000000000000000000000000000000000000000000000081526116d7918691600401918252602082015260400190565b6144fa84616957565b5f5b825181101561473d575f808783815181106145195761451961c7ba565b6020026020010151905061452c81616957565b88838151811061453e5761453e61c7ba565b60200260200101515f036145c15761459b8c60c0015184815181106145655761456561c7ba565b60200260200101518d60a0015185815181106145835761458361c7ba565b602002602001015183618b9d9092919063ffffffff16565b9150818984815181106145b0576145b061c7ba565b6020026020010181815250506145de565b8883815181106145d3576145d361c7ba565b602002602001015191505b505f8b6020015183815181106145f6576145f661c7ba565b602002602001015190508a6040015183815181106146165761461661c7ba565b60200260200101518211156146935780828c60400151858151811061463d5761463d61c7ba565b60209081029190910101516040517f8eda85e40000000000000000000000000000000000000000000000000000000081526001600160a01b039093166004840152602483019190915260448201526064016116d7565b61469d8183616966565b6146c68c8585815181106146b3576146b361c7ba565b60200260200101518d5f01518487617f44565b8585815181106146d8576146d861c7ba565b602002602001018760200182815250828152505050614733838660200151848f60600151878151811061470d5761470d61c7ba565b602002602001015161471f919061cbff565b614729919061c7a7565b8e91906001618bb1565b50506001016144fc565b50875161474a908a618c5d565b61475c885f0151896020015186617261565b60208089015189516001600160a01b039081165f8181526011909452604090932054911691907f819ce5239144079a04a704c41f4e9453355703cfee6df6771b6835557967aa20906147af8a6001618cd0565b856040516147bf9392919061cc12565b60405180910390a350506147d1614bb5565b93509350935093565b5f80856080015184815181106147f2576147f261c7ba565b6020026020010151905084811115614866575f61481186830385618d8f565b90506148628760c00151868151811061482c5761482c61c7ba565b60200260200101518860a00151878151811061484a5761484a61c7ba565b602002602001015183618dbb9092919063ffffffff16565b9250505b50949350505050565b5f6117bb63ffffffff831660286018808061488b87600161cc67565b61489690600161cc67565b6148a190600161cc67565b6148ac90600161cc67565b6148b790600161cc67565b6148c290600161cc67565b6148cd90600161cc67565b6148d890600161cc67565b6148e390600161cc67565b6148ee90600161cc67565b6148f990600161cc67565b61490490600161cc67565b61490f90600161cc67565b61491a90600161cc67565b61492590600161cc67565b61493090600161cc67565b61493b90600161cc67565b61494690600161cc67565b60ff16614953919061cbff565b61495d919061cbff565b614967919061cbff565b614971919061cbff565b8591906020618dcf565b5f6001600160801b0383118061499757506001600160801b0382115b156149ce576040517f89560ca100000000000000000000000000000000000000000000000000000000815260040160405180910390fd5b6117bb8383618df0565b614a1a6040518060e001604052805f80191681526020016060815260200160608152602001606081526020016060815260200160608152602001606081525090565b614a22614aba565b6001600160a01b0383165f9081526005602090815260408083208383528184205460048452828520600390945291909320614a6293859390929187618dff565b6001600160a01b0383165f9081526005602090815260408083206006909252909120613c9e9183916191a0565b5f6117bb82614a9f83600161cbff565b6001811b19861691901b1790565b5f600119831682176117bb565b7f9b779b17422d0df92223018b32b4d1fa46e071723d6817e2486d003becc55f005c15614b13576040517f3ee5aeb500000000000000000000000000000000000000000000000000000000815260040160405180910390fd5b61146560017f9b779b17422d0df92223018b32b4d1fa46e071723d6817e2486d003becc55f00612953565b7f00000000000000000000000000000000000000000000000000000000000000005c15155f03611465576040517fc09ba73600000000000000000000000000000000000000000000000000000000815260040160405180910390fd5b61192282614ba7836192e4565b614bb09061cc80565b617ba2565b6114655f7f9b779b17422d0df92223018b32b4d1fa46e071723d6817e2486d003becc55f00612953565b614c246040805160e08101909152805f81526020015f8152602001606081526020015f81526020015f81526020015f6001600160a01b03168152602001606081525090565b6040518060e00160405280855f01516001811115614c4457614c4461b2c5565b81526020018460400151815260200183608001518152602001845f0151815260200184602001518152602001336001600160a01b031681526020018560c0015181525090509392505050565b816001600160a01b031663ce20ece76040518163ffffffff1660e01b8152600401602060405180830381865afa158015614ccc573d5f803e3d5ffd5b505050506040513d601f19601f82011682018060405250810190614cf0919061c77c565b811015614d29576040517fbfb2068800000000000000000000000000000000000000000000000000000000815260040160405180910390fd5b816001600160a01b031663654cf15d6040518163ffffffff1660e01b8152600401602060405180830381865afa158015614d65573d5f803e3d5ffd5b505050506040513d601f19601f82011682018060405250810190614d89919061c77c565b811115614dc2576040517f7f47834b00000000000000000000000000000000000000000000000000000000815260040160405180910390fd5b6001600160a01b0382165f90815260208190526040902054614de490826162b7565b6001600160a01b0383165f8181526020818152604091829020939093555183815290917f89d41522342fabac1471ca6073a5623e5caf367b03ca6e9a001478d0cf8be4a1910160405180910390a25050565b6001600160a01b038216614e81576040517f96c6fd1e0000000000000000000000000000000000000000000000000000000081526001600160a01b03831660048201526024016116d7565b6001600160a01b038084165f908152600f602090815260408083209386168352929052205480821115614ef9576040517fe450d38c0000000000000000000000000000000000000000000000000000000081526001600160a01b038416600482015260248101829052604481018390526064016116d7565b6001600160a01b038085165f818152600f6020908152604080832094881683529381528382208686039055918152601190915290812054614f3b90849061c7a7565b9050614f4681619346565b6001600160a01b038581165f818152601160209081526040808320869055518781529193881692917fd1398bee19313d6bf672ccb116e51f4a1a947e91c757907f51fbb5b5e56c698f910160405180910390a46040516323de665160e01b81526001600160a01b0385811660048301525f6024830152604482018590528616906323de6651906064015f604051808303815f87803b158015614fe6575f80fd5b505af1158015614ff8573d5f803e3d5ffd5b505050505050505050565b61500c81619386565b6114ff576040517f4bdace130000000000000000000000000000000000000000000000000000000081526001600160a01b03821660048201526024016116d7565b6114f66140a7565b8082146119225760405163aaad13f760e01b815260040160405180910390fd5b60605f8451905061508981855185516193a7565b5f816001600160401b038111156150a2576150a261ac70565b6040519080825280602002602001820160405280156150cb578160200160208202803683370190505b5090505f5b8281101561515d576151388682815181106150ed576150ed61c7ba565b60200260200101518683815181106151075761510761c7ba565b60200260200101518984815181106151215761512161c7ba565b60200260200101516193d49092919063ffffffff16565b82828151811061514a5761514a61c7ba565b60209081029190910101526001016150d0565b5095945050505050565b5f6117be61517682600161cc67565b61518190600161cc67565b61518c90600161cc67565b61519790600161cc67565b6151a290600161cc67565b6151ad90600161cc67565b6151b890600161cc67565b6151c390600161cc67565b6151ce90600161cc67565b6151d990600161cc67565b6151e490600161cc67565b6151ef90600161cc67565b6151fa90600161cc67565b61520590600161cc67565b61521090600161cc67565b61521b90600161cc67565b839060ff161c60011690565b82516080808501516040808701519286015160a088015191517fba5f9f400000000000000000000000000000000000000000000000000000000081526001600160a01b0387169563ba5f9f409561528a958c959294909391928e9260040161cc9a565b6020604051808303815f875af11580156152a6573d5f803e3d5ffd5b505050506040513d601f19601f820116820180604052508101906152ca919061c637565b15155f03615304576040517f2aaf886600000000000000000000000000000000000000000000000000000000815260040160405180910390fd5b5050505050565b6020830151515f805b82811015611b7757615342866040015182815181106153355761533561c7ba565b60200260200101516193e9565b8660a0015182815181106153585761535861c7ba565b602002602001018181525050845f8281526020019081526020015f20549150615392868261538c856001600160801b031690565b87618bb1565b600101615314565b5f60608060606153a8614aba565b6153c960405180606001604052805f81526020015f81526020015f81525090565b6020880151518082526001600160401b038111156153e9576153e961ac70565b604051908082528060200260200182016040528015615412578160200160208202803683370190505b50935060605f8860800151600381111561542e5761542e61b2c5565b0361559657604088015182519096506001600160401b038111156154545761545461ac70565b60405190808252806020026020018201604052801561547d578160200160208202803683370190505b5060808a015189516001600160a01b03165f908152601160205260409020549192506154a991886194cb565b88519094506154da907f00000000000000000000000000000000000000000000000000000000000000005b90619572565b15615591575f6154ec8a5f015161846d565b90505f5b835181101561558e576155258287838151811061550f5761550f61c7ba565b6020026020010151618d8f90919063ffffffff16565b8382815181106155375761553761c7ba565b6020026020010181815250508281815181106155555761555561c7ba565b602002602001015186828151811061556f5761556f61c7ba565b60200260200101818151615583919061c7a7565b9052506001016154f0565b50505b615836565b6001886080015160038111156155ae576155ae61b2c5565b036156455788516155be906183d2565b876040015195508693506155d588606001516188fd565b6040830181905260808a0151895161561a92908990615608906001600160a01b03165f9081526011602052604090205490565b8d516156139061846d565b8d51619585565b858460400151815181106156305761563061c7ba565b60200260200101819350828152505050615836565b60028860800151600381111561565d5761565d61b2c5565b0361572e57885161566d906183d2565b86935061567d88606001516188fd565b6040830181905260608901518051909190811061569c5761569c61c7ba565b6020026020010151858360400151815181106156ba576156ba61c7ba565b60200260200101818152505061572489608001518360400151868560400151815181106156e9576156e961c7ba565b60200260200101516157128c5f01516001600160a01b03165f9081526011602052604090205490565b8d5161571d9061846d565b8d516196fe565b9096509050615836565b6003886080015160038111156157465761574661b2c5565b0361580457885161575690619a6f565b87516040808a015160808c015160a08c015192517fab68e28c0000000000000000000000000000000000000000000000000000000081526001600160a01b039094169363ab68e28c936157b293339390928e929060040161ccfc565b5f604051808303815f875af11580156157cd573d5f803e3d5ffd5b505050506040513d5f823e601f3d908101601f191682016040526157f4919081019061cd35565b9298509095509093509050615836565b6040517f137a9a3900000000000000000000000000000000000000000000000000000000815260040160405180910390fd5b8760400151861115615885578588604001516040517f31d38e0b0000000000000000000000000000000000000000000000000000000081526004016116d7929190918252602082015260400190565b61588e86616957565b5f5b8251811015615a98575f808683815181106158ad576158ad61c7ba565b602002602001015190506158c081616957565b8783815181106158d2576158d261c7ba565b60200260200101515f0361593d576159178c60c0015184815181106158f9576158f961c7ba565b60200260200101518d60a00151858151811061484a5761484a61c7ba565b91508188848151811061592c5761592c61c7ba565b60200260200101818152505061595a565b87838151811061594f5761594f61c7ba565b602002602001015191505b505f8b6020015183815181106159725761597261c7ba565b602002602001015190508a6060015183815181106159925761599261c7ba565b6020026020010151821015615a0f5780828c6060015185815181106159b9576159b961c7ba565b60209081029190910101516040517f2f785e460000000000000000000000000000000000000000000000000000000081526001600160a01b039093166004840152602483019190915260448201526064016116d7565b615a198183614b9a565b615a2f8c8585815181106146b3576146b361c7ba565b858581518110615a4157615a4161c7ba565b602089810193845290810291909101019190915251615a8e908490615a66908561cbff565b8e606001518681518110615a7c57615a7c61c7ba565b6020026020010151614729919061c7a7565b5050600101615890565b508751615aa5908a618c5d565b615ab8885f015189602001513389619ab2565b615ac0619b29565b15615ad757615ad7885f0151896020015188619b44565b615ae9885f0151896020015188614e36565b60208089015189516001600160a01b039081165f8181526011909452604090932054911691907f819ce5239144079a04a704c41f4e9453355703cfee6df6771b6835557967aa20906147af895f618cd0565b5f6117be615b4a82600161cc67565b61517690600161cc67565b60605f80836001600160a01b0316632754888d8b885f015189608001518b8e8e8c608001518e60a001516040518963ffffffff1660e01b8152600401615ba298979695949392919061cd86565b5f604051808303815f875af1158015615bbd573d5f803e3d5ffd5b505050506040513d5f823e601f3d908101601f19168201604052615be4919081019061ce0e565b9092509050811580615bf857508751815114155b15615c2f576040517f1d3391d800000000000000000000000000000000000000000000000000000000815260040160405180910390fd5b615c388b619bbe565b15155f03615c4a578792505050615d44565b5f5b8151811015615d3f5786606001518181518110615c6b57615c6b61c7ba565b6020026020010151828281518110615c8557615c8561c7ba565b60200260200101511015615d375785602001518181518110615ca957615ca961c7ba565b6020026020010151828281518110615cc357615cc361c7ba565b602002602001015188606001518381518110615ce157615ce161c7ba565b60209081029190910101516040517ffbd8a7240000000000000000000000000000000000000000000000000000000081526001600160a01b039093166004840152602483019190915260448201526064016116d7565b600101615c4c565b509150505b98975050505050505050565b5f805f80615d5c614aba565b615d7d60405180606001604052805f81526020015f81526020015f81525090565b5f89516001811115615d9157615d9161b2c5565b03615dc15760608801516020870151615da991618d8f565b808252602087018051615dbd90839061c7a7565b9052505b615dce8660200151617ea0565b88602001516001600160a01b03166372c98186876040518263ffffffff1660e01b8152600401615dfe919061b7f3565b6020604051808303815f875af1158015615e1a573d5f803e3d5ffd5b505050506040513d601f19601f82011682018060405250810190615e3e919061c77c565b9350615e4984617ea0565b5f89516001811115615e5d57615e5d61b2c5565b03615f0e578760400151866020018181525050615ec78760c00151896020015181518110615e8d57615e8d61c7ba565b6020026020010151615ebf8960a001518b6020015181518110615eb257615eb261c7ba565b6020026020010151619bcd565b869190618dbb565b60808a015160a08b01519196509350859250821015615f095760a089015160405163e2ea151b60e01b81526116d7918491600401918252602082015260400190565b615fd5565b6060880151615f2f90670de0b6b3a764000081810390821002869190619bf9565b808252615f3c908561cbff565b9350615f938760c00151895f015181518110615f5a57615f5a61c7ba565b60200260200101518860a001518a5f015181518110615f7b57615f7b61c7ba565b602002602001015186618b9d9092919063ffffffff16565b60808a015160a08b01519196508694509250831115615fd55760a089015160405163e2ea151b60e01b81526116d7918591600401918252602082015260400190565b615fe3896040015184616966565b615ff1896060015183614b9a565b61600c87825f01518b602001518c604001518c5f0151617f44565b604083018190526020830191909152885160608901518051616061939187918490811061603b5761603b61c7ba565b602002602001015161604d919061cbff565b616057919061c7a7565b8991906001618bb1565b61609688602001518389606001518b60200151815181106160845761608461c7ba565b6020026020010151616057919061c7a7565b6020808a01516001600160a01b03165f9081526005909152604090206060880151895181516160f092919081106160cf576160cf61c7ba565b602002602001015189608001518b5f015181518110611b5457611b5461c7ba565b815f8b5f015181526020019081526020015f208190555061614688606001518a60200151815181106161245761612461c7ba565b602002602001015189608001518b6020015181518110611b5457611b5461c7ba565b815f8b6020015181526020019081526020015f208190555089606001516001600160a01b03168a604001516001600160a01b03168b602001516001600160a01b03167f0874b2d545cb271cdbda4e093020c452328b24af12382ed62c4d00f5c26709db87878e6060015188602001516040516161db949392919093845260208401929092526040830152606082015260800190565b60405180910390a450506161ed614bb5565b945094509450949050565b5f806162116001600160801b0385166192e4565b6192e4565b90505f8061621f8660801c90565b11156162a15761629e846001600160a01b031663b3d7f6b96162418860801c90565b6040518263ffffffff1660e01b815260040161625f91815260200190565b602060405180830381865afa15801561627a573d5f803e3d5ffd5b505050506040513d601f19601f8201168201806040525081019061620c919061c77c565b90505b60026162ad828461ce51565b6116fb919061ce84565b5f670de0b6b3a76400008211156162e1576040516301d1b96560e61b815260040160405180910390fd5b6162f064174876e8008361ceb0565b91506117bb826163015f600161cc67565b61630c90600161cc67565b61631790600161cc67565b61632290600161cc67565b61632d90600161cc67565b61633890600161cc67565b61634390600161cc67565b61634e90600161cc67565b61635990600161cc67565b61636490600161cc67565b61636f90600161cc67565b61637a90600161cc67565b61638590600161cc67565b61639090600161cc67565b61639b90600161cc67565b6163a690600161cc67565b6163b190600161cc67565b6163bc90600161cc67565b85919060ff166018618dcf565b6163f060405180608001604052805f81526020015f81526020015f81526020015f81525090565b616402826020015184604001516181d3565b81526020820151606084015161641891906181d3565b6020820152616428838383616513565b604082015281516164389061846d565b606082015292915050565b5f6117be6151a282600161cc67565b6040517f5211fa770000000000000000000000000000000000000000000000000000000081526001600160a01b03821690635211fa7790616499908690869060040161cec3565b6020604051808303815f875af11580156164b5573d5f803e3d5ffd5b505050506040513d601f19601f820116820180604052508101906164d9919061c637565b15155f03611b8a576040517fe91e17e700000000000000000000000000000000000000000000000000000000815260040160405180910390fd5b5f80845160018111156165285761652861b2c5565b146165805761657b8360c0015183602001518151811061654a5761654a61c7ba565b602002602001015161656f8560a00151856020015181518110615eb257615eb261c7ba565b608087015191906193d4565b61190e565b61190e8360c00151835f01518151811061659c5761659c61c7ba565b60200260200101518460a00151845f0151815181106165bd576165bd61c7ba565b60200260200101518660800151619c579092919063ffffffff16565b5f6117be6151ad82600161cc67565b5f805f836001600160a01b031663a0e8f5ac8888886040518463ffffffff1660e01b815260040161661b9392919061ceed565b6040805180830381865afa158015616635573d5f803e3d5ffd5b505050506040513d601f19601f82011682018060405250810190616659919061cf1a565b90925090508115155f03616699576040517f53f976d400000000000000000000000000000000000000000000000000000000815260040160405180910390fd5b670de0b6b3a76400008111156166c2576040516301d1b96560e61b815260040160405180910390fd5b9695505050505050565b5f6117be61519782600161cc67565b5f808080875160018111156166f2576166f261b2c5565b1461670257898660400151616709565b85604001518a5b915091505f80856001600160a01b03166318b6eb556040518061018001604052808c5f0151600181111561673f5761673f61b2c5565b81526020018c604001516001600160a01b031681526020018c606001516001600160a01b031681526020018781526020018681526020018a608001518c5f01518151811061678f5761678f61c7ba565b602002602001015181526020018a608001518c60200151815181106167b6576167b661c7ba565b602002602001015181526020018f81526020018e81526020018d6001600160a01b031681526020018c602001516001600160a01b031681526020018c60c001518152506040518263ffffffff1660e01b8152600401616815919061cf46565b60408051808303815f875af1158015616830573d5f803e3d5ffd5b505050506040513d601f19601f82011682018060405250810190616854919061cf1a565b90925090508115155f03616894576040517f15a29dec00000000000000000000000000000000000000000000000000000000815260040160405180910390fd5b61689d8d619bbe565b15155f036168b1578a945050505050615d44565b5f895160018111156168c5576168c561b2c5565b1480156168d557508860a0015181105b8061690057506001895160018111156168f0576168f061b2c5565b14801561690057508860a0015181115b156169475760a08901516040517fcc0e4a990000000000000000000000000000000000000000000000000000000081526116d7918391600401918252602082015260400190565b9c9b505050505050505050505050565b80156114ff576114ff81617ea0565b61192282614bb0836192e4565b61697e600754618280565b15611465576040517f0f27df0900000000000000000000000000000000000000000000000000000000815260040160405180910390fd5b6001600160a01b038181165f908152600e6020526040902054166114ff576040517f85f412990000000000000000000000000000000000000000000000000000000081526001600160a01b03821660048201526024016116d7565b6001600160a01b038281165f908152600e6020526040902054811690821614611922576040517f36b18d090000000000000000000000000000000000000000000000000000000081526001600160a01b038084166004830152821660248201526044016116d7565b5f8080866001811115616a8d57616a8d61b2c5565b03616b1e576040517f4cdad5060000000000000000000000000000000000000000000000000000000081526004810184905283906001600160a01b03861690634cdad50690602401602060405180830381865afa158015616af0573d5f803e3d5ffd5b505050506040513d601f19601f82011682018060405250810190616b14919061c77c565b9092509050616ba4565b6040517f0a28a477000000000000000000000000000000000000000000000000000000008152600481018490526001600160a01b03851690630a28a47790602401602060405180830381865afa158015616b7a573d5f803e3d5ffd5b505050506040513d601f19601f82011682018060405250810190616b9e919061c77c565b91508290505b616bac619b29565b616e36576001600160a01b0384165f908152600b6020526040902054816001600160801b03821610616c1f576001600160801b038116829003616bfc81616bf786608086901c61cbff565b61497b565b6001600160a01b0387165f908152600b602052604090208190559150616e209050565b5f8080896001811115616c3457616c3461b2c5565b03616cfb575f616c448489617cc1565b9050616c6281616c53886192e4565b616c5d919061d021565b619c6c565b6040517fba08765200000000000000000000000000000000000000000000000000000000815260048101829052306024820181905260448201529092506001600160a01b0389169063ba087652906064016020604051808303815f875af1158015616ccf573d5f803e3d5ffd5b505050506040513d601f19601f82011682018060405250810190616cf3919061c77c565b925050616db4565b5f616d0684896161f8565b9050616d1f81616d15876192e4565b616c5d919061ce51565b6040517fb460af9400000000000000000000000000000000000000000000000000000000815260048101829052306024820181905260448201529093506001600160a01b0389169063b460af94906064016020604051808303815f875af1158015616d8c573d5f803e3d5ffd5b505050506040513d601f19601f82011682018060405250810190616db0919061c77c565b9150505b616dc088888484617efa565b616e0184616dd7846001600160801b03871661cbff565b616de1919061c7a7565b8287616ded8760801c90565b616df7919061cbff565b616bf7919061c7a7565b6001600160a01b0388165f908152600b60205260409020819055925050505b616e2a8584616966565b616e348683614b9a565b505b94509492505050565b5f8080866001811115616e5457616e5461b2c5565b03616ee5576040517fef8b30f70000000000000000000000000000000000000000000000000000000081526004810184905283906001600160a01b0386169063ef8b30f790602401602060405180830381865afa158015616eb7573d5f803e3d5ffd5b505050506040513d601f19601f82011682018060405250810190616edb919061c77c565b9092509050616f52565b60405163b3d7f6b960e01b8152600481018490526001600160a01b0385169063b3d7f6b990602401602060405180830381865afa158015616f28573d5f803e3d5ffd5b505050506040513d601f19601f82011682018060405250810190616f4c919061c77c565b91508290505b616f5a619b29565b616e36576001600160a01b0384165f908152600b602052604090205481616f818260801c90565b10616fd4575f82616f928360801c90565b039050616fb1616fab856001600160801b03851661cbff565b8261497b565b6001600160a01b0387165f908152600b60205260409020819055915061723e9050565b5f8080896001811115616fe957616fe961b2c5565b036170ad575f616ff984896161f8565b905061700881616c53886192e4565b925061701e6001600160a01b038a168985619caa565b6040517f6e553f65000000000000000000000000000000000000000000000000000000008152600481018490523060248201526001600160a01b03891690636e553f65906044016020604051808303815f875af1158015617081573d5f803e3d5ffd5b505050506040513d601f19601f820116820180604052508101906170a5919061c77c565b9150506171d2565b5f6170b88489617cc1565b90506170c781616d15876192e4565b60405163b3d7f6b960e01b8152600481018290529092506001600160a01b0389169063b3d7f6b990602401602060405180830381865afa15801561710d573d5f803e3d5ffd5b505050506040513d601f19601f82011682018060405250810190617131919061c77c565b92506171476001600160a01b038a168985619caa565b6040517f94bf804d000000000000000000000000000000000000000000000000000000008152600481018390523060248201526001600160a01b038916906394bf804d906044016020604051808303815f875af11580156171aa573d5f803e3d5ffd5b505050506040513d601f19601f820116820180604052508101906171ce919061c77c565b9250505b6171e66001600160a01b038916885f619caa565b6171f288888484617dd4565b61721f82617209876001600160801b03871661cbff565b617213919061c7a7565b8583616ded8760801c90565b6001600160a01b0388165f908152600b60205260409020819055925050505b6172488684616966565b616e348583614b9a565b5f6117bb82616bf78560801c90565b6001600160a01b0382166172ac576040517fec442f050000000000000000000000000000000000000000000000000000000081526001600160a01b03831660048201526024016116d7565b6001600160a01b0383165f908152601160205260408120546172cf90839061cbff565b6001600160a01b038086165f908152600f60209081526040808320938816835292905220805484019055905061730481619346565b6001600160a01b038481165f81815260116020908152604080832086905551868152938716939192917fd1398bee19313d6bf672ccb116e51f4a1a947e91c757907f51fbb5b5e56c698f910160405180910390a46040516323de665160e01b81525f60048201526001600160a01b038481166024830152604482018490528516906323de6651906064016115ac565b80825d5050565b60606117bb83835f619d67565b5f828152602084905260409020611b8a908290612953565b60605f845190506173d381855185516193a7565b5f816001600160401b038111156173ec576173ec61ac70565b604051908082528060200260200182016040528015617415578160200160208202803683370190505b5090505f5b8281101561515d576174828682815181106174375761743761c7ba565b60200260200101518683815181106174515761745161c7ba565b602002602001015189848151811061746b5761746b61c7ba565b6020026020010151619c579092919063ffffffff16565b8282815181106174945761749461c7ba565b602090810291909101015260010161741a565b5f6117be61518c82600161cc67565b825160808085015160608601519185015160a08701516040517f45421ec70000000000000000000000000000000000000000000000000000000081526001600160a01b038716956345421ec795617519958d95929490938d93919060040161d048565b6020604051808303815f875af1158015617535573d5f803e3d5ffd5b505050506040513d601f19601f82011682018060405250810190617559919061c637565b15155f03615304576040517f0b2eb65200000000000000000000000000000000000000000000000000000000815260040160405180910390fd5b5f6117be61518182600161cc67565b60605f80836001600160a01b031663976907cc8b885f015189608001518d8d8d8c608001518e60a001516040518963ffffffff1660e01b81526004016175ef98979695949392919061d096565b5f604051808303815f875af115801561760a573d5f803e3d5ffd5b505050506040513d5f823e601f3d908101601f19168201604052617631919081019061ce0e565b909250905081158061764557508751815114155b1561767c576040517fe124916500000000000000000000000000000000000000000000000000000000815260040160405180910390fd5b6176858b619bbe565b15155f03617697578792505050615d44565b5f5b8151811015615d3f57866040015181815181106176b8576176b861c7ba565b60200260200101518282815181106176d2576176d261c7ba565b6020026020010151111561778457856020015181815181106176f6576176f661c7ba565b60200260200101518282815181106177105761771061c7ba565b60200260200101518860400151838151811061772e5761772e61c7ba565b60209081029190910101516040517fcefa3afa0000000000000000000000000000000000000000000000000000000081526001600160a01b039093166004840152602483019190915260448201526064016116d7565b600101617699565b5f6117bb8261779c83600161cc67565b60ff1690811b600190911b1985161790565b5f6117bb826177be83600161cc67565b6177c990600161cc67565b61779c90600161cc67565b5f6117bb826177c983600161cc67565b5f670de0b6b3a764000082111561780e576040516301d1b96560e61b815260040160405180910390fd5b61781d64174876e8008361ceb0565b91506117bb8260186178305f600161cc67565b61783b90600161cc67565b61784690600161cc67565b61785190600161cc67565b61785c90600161cc67565b61786790600161cc67565b61787290600161cc67565b61787d90600161cc67565b61788890600161cc67565b61789390600161cc67565b61789e90600161cc67565b6178a990600161cc67565b6178b490600161cc67565b6178bf90600161cc67565b6178ca90600161cc67565b6178d590600161cc67565b6178e090600161cc67565b6178eb90600161cc67565b60ff166178f8919061cbff565b8591906018618dcf565b5f670de0b6b3a764000082111561792c576040516301d1b96560e61b815260040160405180910390fd5b61793b64174876e8008361ceb0565b91506117bb8260188061794f5f600161cc67565b61795a90600161cc67565b61796590600161cc67565b61797090600161cc67565b61797b90600161cc67565b61798690600161cc67565b61799190600161cc67565b61799c90600161cc67565b6179a790600161cc67565b6179b290600161cc67565b6179bd90600161cc67565b6179c890600161cc67565b6179d390600161cc67565b6179de90600161cc67565b6179e990600161cc67565b6179f490600161cc67565b6179ff90600161cc67565b617a0a90600161cc67565b60ff16617a17919061cbff565b6178f8919061cbff565b5f6117bb64ffffffffff831660188080617a3c86600161cc67565b617a4790600161cc67565b617a5290600161cc67565b617a5d90600161cc67565b617a6890600161cc67565b617a7390600161cc67565b617a7e90600161cc67565b617a8990600161cc67565b617a9490600161cc67565b617a9f90600161cc67565b617aaa90600161cc67565b617ab590600161cc67565b617ac090600161cc67565b617acb90600161cc67565b617ad690600161cc67565b617ae190600161cc67565b617aec90600161cc67565b617af790600161cc67565b60ff16617b04919061cbff565b617b0e919061cbff565b617b18919061cbff565b8591906028618dcf565b5f6117bb82617b3283600161cc67565b6177be90600161cc67565b5f6117bb82617b4d83600161cc67565b617b3290600161cc67565b5f6117bb82617b6883600161cc67565b617b4d90600161cc67565b5f6117bb82617b8383600161cc67565b617b6890600161cc67565b5f6117bb6001600160801b0384168361497b565b805f03617bad575050565b5f617bd8837f00000000000000000000000000000000000000000000000000000000000000006154d4565b90505f617be5838361d021565b9050805f03617c1c57617c177f0000000000000000000000000000000000000000000000000000000000000000619e16565b617c4c565b815f03617c4c57617c4c7f0000000000000000000000000000000000000000000000000000000000000000619e2c565b6114f084827f0000000000000000000000000000000000000000000000000000000000000000612a7c565b617c8081619e3b565b6114ff576040517fef029adf0000000000000000000000000000000000000000000000000000000081526001600160a01b03821660048201526024016116d7565b5f80617cd061620c8560801c90565b90505f6001600160801b038516156162a15761629e6001600160a01b038516630a28a4776001600160801b038816616241565b5f8385606001518381518110617d1b57617d1b61c7ba565b602090810291909101015261abca5f846001811115617d3c57617d3c61b2c5565b14617d4957619c57617d4d565b6193d45b9050617d98858760c001518581518110617d6957617d6961c7ba565b60200260200101518860a001518681518110617d8757617d8761c7ba565b60200260200101518463ffffffff16565b86608001518481518110617dae57617dae61c7ba565b6020026020010181815250506166c2858760c001518581518110617d6957617d6961c7ba565b6001600160a01b0384165f90815260086020526040812054617df790849061c7a7565b6001600160a01b0385165f9081526008602052604081205491925090617e1e90849061cbff565b9050611b7786868484619e5c565b6040516001600160a01b03838116602483015260448201839052611b8a91859182169063a9059cbb906064015b604051602081830303815290604052915060e01b6020820180517bffffffffffffffffffffffffffffffffffffffffffffffffffffffff838183161783525050505061a00a565b7f00000000000000000000000000000000000000000000000000000000000000008110156114ff576040517f1ed4d11800000000000000000000000000000000000000000000000000000000815260040160405180910390fd5b6001600160a01b0384165f90815260086020526040812054617f1d90849061cbff565b6001600160a01b0385165f9081526008602052604081205491925090617e1e90849061c7a7565b5f805f86118015617f5d57508651617f5b9061a08f565b155b1561361157617fb18760c001518481518110617f7b57617f7b61c7ba565b60200260200101518860a001518581518110617f9957617f9961c7ba565b602002602001015188618b9d9092919063ffffffff16565b91505f617fc0885f015161a09e565b9050617fcc838261a188565b915082821115618008576040517f4c69ac5d00000000000000000000000000000000000000000000000000000000815260040160405180910390fd5b6001600160a01b038681165f9081526006602090815260408083209389168352929052205461804a618043846001600160801b03841661cbff565b8290617252565b6001600160a01b038089165f908152600660209081526040808320938b168352929052205550509550959350505050565b5f6117bb8261808b83600161cc67565b61809690600161cc67565b617b8390600161cc67565b5f6117bb8261809683600161cc67565b5f6117bb826180c183600161cc67565b61808b90600161cc67565b5f6117bb826180dc83600161cc67565b6180c190600161cc67565b5f6117bb826180f783600161cc67565b6180dc90600161cc67565b5f6117bb8261811283600161cc67565b6180f790600161cc67565b5f6117bb8261812d83600161cc67565b61811290600161cc67565b5f6117bb8261814883600161cc67565b61812d90600161cc67565b5f6117bb8261816383600161cc67565b61814890600161cc67565b5f6117bb8261817e83600161cc67565b61816390600161cc67565b6181928161a1b0565b6114ff576040517f9e51bd5c0000000000000000000000000000000000000000000000000000000081526001600160a01b03821660048201526024016116d7565b5f805b835181101561822057826001600160a01b03168482815181106181fb576181fb61c7ba565b60200260200101516001600160a01b0316036182185790506117be565b6001016181d6565b506040517fddef98d70000000000000000000000000000000000000000000000000000000081526001600160a01b03831660048201526024016116d7565b5f600182166117be565b5f6117be61827782600161cbff565b83901c60011690565b5f6117be61828f82600161cbff565b61827790600161cbff565b5f806182a58361a1d1565b509392505050565b5f7f000000000000000000000000000000000000000000000000000000000000000063ffffffff1642111580156117ea57506117ea600754618268565b606083516001600160401b038111156183055761830561ac70565b60405190808252806020026020018201604052801561832e578160200160208202803683370190505b5090505f5b84518110156182a55761836a83858784815181106183535761835361c7ba565b6020026020010151619bf99092919063ffffffff16565b82828151811061837c5761837c61c7ba565b6020908102919091010152600101618333565b6183988161a24a565b15155f036114ff576040517fefe0265d00000000000000000000000000000000000000000000000000000000815260040160405180910390fd5b6183db8161a259565b15155f036114ff576040517fd4f5779c00000000000000000000000000000000000000000000000000000000815260040160405180910390fd5b81518151618424908290615055565b5f5b818110156114f0578381815181106184405761844061c7ba565b602002602001015183828151811061845a5761845a61c7ba565b6020908102919091010152600101618426565b5f64174876e80061854b61848283600161cc67565b61848d90600161cc67565b61849890600161cc67565b6184a390600161cc67565b6184ae90600161cc67565b6184b990600161cc67565b6184c490600161cc67565b6184cf90600161cc67565b6184da90600161cc67565b6184e590600161cc67565b6184f090600161cc67565b6184fb90600161cc67565b61850690600161cc67565b61851190600161cc67565b61851c90600161cc67565b61852790600161cc67565b61853290600161cc67565b61853d90600161cc67565b60ff1684901c62ffffff1690565b6117be919061d0fb565b84515f9060609082816001600160401b038111156185755761857561ac70565b60405190808252806020026020018201604052801561859e578160200160208202803683370190505b509050816001600160401b038111156185b9576185b961ac70565b6040519080825280602002602001820160405280156185e2578160200160208202803683370190505b5092505f5b82811015618652578881815181106186015761860161c7ba565b60200260200101518a828151811061861b5761861b61c7ba565b602002602001015161862d919061cbff565b82828151811061863f5761863f61c7ba565b60209081029190910101526001016185e7565b50604051631309bd3d60e31b81525f906001600160a01b0387169063984de9e890618683908d90859060040161d112565b602060405180830381865afa15801561869e573d5f803e3d5ffd5b505050506040513d601f19601f820116820180604052508101906186c2919061c77c565b90505f61873d82886001600160a01b031663984de9e88660016040518363ffffffff1660e01b81526004016186f892919061d112565b602060405180830381865afa158015618713573d5f803e3d5ffd5b505050506040513d601f19601f82011682018060405250810190618737919061c77c565b9061a26f565b9050618749878261a28f565b5f5b8481101561885a575f6187808d83815181106187695761876961c7ba565b60200260200101518461a18890919063ffffffff16565b9050808583815181106187955761879561c7ba565b60200260200101511115618851575f818684815181106187b7576187b761c7ba565b60200260200101510390506187d58b82618d8f90919063ffffffff16565b8884815181106187e7576187e761c7ba565b6020026020010181815250508783815181106188055761880561c7ba565b602002602001015186848151811061881f5761881f61c7ba565b6020026020010151618831919061c7a7565b8684815181106188435761884361c7ba565b602002602001018181525050505b5060010161874b565b50604051631309bd3d60e31b81525f906001600160a01b0389169063984de9e89061888c90879060019060040161d112565b602060405180830381865afa1580156188a7573d5f803e3d5ffd5b505050506040513d601f19601f820116820180604052508101906188cb919061c77c565b9050826188d8818361c7a7565b6188e2908c61d0fb565b6188ec919061ceb0565b965050505050509550959350505050565b8051805f5b8181101561896f5783818151811061891c5761891c61c7ba565b60200260200101515f1461896757818314618963576040517f6b8c3be500000000000000000000000000000000000000000000000000000000815260040160405180910390fd5b8092505b600101618902565b508082106189a9576040517f7e46bddc00000000000000000000000000000000000000000000000000000000815260040160405180910390fd5b50919050565b5f6060816189bd868861cbff565b90505f6189ca828861a336565b90506189d6858261a28f565b60405162b5059f60e51b81525f906001600160a01b038716906316a0b3e090618a07908e908e90879060040161d13c565b602060405180830381865afa158015618a22573d5f803e3d5ffd5b505050506040513d601f19601f82011682018060405250810190618a46919061c77c565b90505f8b8b81518110618a5b57618a5b61c7ba565b602002602001015182618a6e919061c7a7565b90505f898d8d81518110618a8457618a8461c7ba565b602002602001015186618a97919061d0fb565b618aa1919061ceb0565b90505f618aae828561c7a7565b90505f81618acd670de0b6b3a76400008d8103908e10025b849061a336565b618ad7919061c7a7565b90508e516001600160401b03811115618af257618af261ac70565b604051908082528060200260200182016040528015618b1b578160200160208202803683370190505b50975080888f81518110618b3157618b3161c7ba565b6020908102919091010152618b46818561cbff565b985050505050505050965096945050505050565b618b638161a34a565b15155f036114ff576040517f4876c0bc00000000000000000000000000000000000000000000000000000000815260040160405180910390fd5b5f61190e84618bac858561a188565b61a336565b8184606001518481518110618bc857618bc861c7ba565b602090810291909101015261abca5f826001811115618be957618be961b2c5565b14618bf657619c57618bfa565b6193d45b9050618c34838660c001518681518110618c1657618c1661c7ba565b60200260200101518760a001518781518110617d8757617d8761c7ba565b85608001518581518110618c4a57618c4a61c7ba565b6020026020010181815250505050505050565b6001600160a01b0382165f908152600560205260408120905b8260600151518110156114f057618cba83606001518281518110618c9c57618c9c61c7ba565b602002602001015184608001518381518110611b5457611b5461c7ba565b5f82815260208490526040902055600101618c76565b606082516001600160401b03811115618ceb57618ceb61ac70565b604051908082528060200260200182016040528015618d14578160200160208202803683370190505b5090505f5b8351811015612a285782618d4f57838181518110618d3957618d3961c7ba565b6020026020010151618d4a9061cc80565b618d6a565b838181518110618d6157618d6161c7ba565b60200260200101515b828281518110618d7c57618d7c61c7ba565b6020908102919091010152600101618d19565b5f80618d9b838561d0fb565b90506001670de0b6b3a76400006001830304018115150291505092915050565b5f61190e84618dca8585618d8f565b61a26f565b5f618ddb84848461a359565b506001901b5f1901811b1992909216911b1790565b5f6117bb83608084901b61cbff565b8154848752604080516020808402820181019092528281529084908390830182828015618e5357602002820191905f5260205f20905b81546001600160a01b03168152600190910190602001808311618e35575b50505050508760200181905250806001600160401b03811115618e7857618e7861ac70565b604051908082528060200260200182016040528015618eb157816020015b618e9e61abd2565b815260200190600190039081618e965790505b506040880152806001600160401b03811115618ecf57618ecf61ac70565b604051908082528060200260200182016040528015618ef8578160200160208202803683370190505b506060880152806001600160401b03811115618f1657618f1661ac70565b604051908082528060200260200182016040528015618f3f578160200160208202803683370190505b5060808801528651618f51908261a3f8565b60c0880152806001600160401b03811115618f6e57618f6e61ac70565b604051908082528060200260200182016040528015618f97578160200160208202803683370190505b5060a088015286515f90618faa9061a4c3565b8015618fc057505f618fbe895f015161a4d2565b115b8015618fd457508751618fd29061a08f565b155b90505f5b82811015614ff8575f865f8b602001518481518110618ff957618ff961c7ba565b6020908102919091018101516001600160a01b0316825281019190915260409081015f208151606081019092528054829060ff16600181111561903e5761903e61b2c5565b600181111561904f5761904f61b2c5565b8152905461010081046001600160a01b0316602080840191909152600160a81b90910460ff1615156040928301525f858152908c905281902054908c015180519293509091839190859081106190a7576190a761c7ba565b60200260200101819052506190bb826193e9565b8b60a0015184815181106190d1576190d161c7ba565b60209081029190910101526190f18b846001600160801b03841689618bb1565b8315155f03619101575050619198565b5f8260400151801561912557506001835160018111156191235761912361b2c5565b145b90508015619194575f61913a8d5f015161a4d2565b90505f8d6060015186815181106191535761915361c7ba565b602002602001015190505f6191738f61916c8760801c90565b89866147da565b90508015619190576191908f8861918a848661c7a7565b8d618bb1565b5050505b5050505b600101618fd8565b6060830151515f5b81811015615304575f856020015182815181106191c7576191c761c7ba565b6020908102919091018101515f848152918790526040822054909250906001600160801b0382169050876060015184815181106192065761920661c7ba565b6020026020010151811115619291576001600160a01b0383165f90815260208790526040902054606089015180516192779190879081106192495761924961c7ba565b60200260200101518361925c919061c7a7565b6192668360801c90565b619270919061cbff565b8290617b8e565b6001600160a01b0385165f90815260208990526040902055505b6192c8886060015185815181106192aa576192aa61c7ba565b602002602001015189608001518681518110611b5457611b5461c7ba565b5f858152602089905260409020555050600190910190506191a8565b5f7f7fffffffffffffffffffffffffffffffffffffffffffffffffffffffffffffff821115619342576040517f24775e06000000000000000000000000000000000000000000000000000000008152600481018390526024016116d7565b5090565b620f42408110156114ff576040517fd38d20fc000000000000000000000000000000000000000000000000000000008152600481018290526024016116d7565b6001600160a01b0381165f908152602081905260408120546119118161a4c3565b81831415806193b65750808214155b15611b8a5760405163aaad13f760e01b815260040160405180910390fd5b5f61190e826193e38686618d8f565b90618d8f565b80515f90818160018111156194005761940061b2c5565b0361941557670de0b6b3a764000091506189a9565b60018160018111156194295761942961b2c5565b036194995782602001516001600160a01b031663679aefce6040518163ffffffff1660e01b8152600401602060405180830381865afa15801561946e573d5f803e3d5ffd5b505050506040513d601f19601f82011682018060405250810190619492919061c77c565b91506189a9565b6040517fdf45063200000000000000000000000000000000000000000000000000000000815260040160405180910390fd5b606083516001600160401b038111156194e6576194e661ac70565b60405190808252806020026020018201604052801561950f578160200160208202803683370190505b5090505f5b84518110156182a55783838683815181106195315761953161c7ba565b6020026020010151619543919061d0fb565b61954d919061ceb0565b82828151811061955f5761955f61c7ba565b6020908102919091010152600101619514565b5f8181526020839052604081205c6117bb565b5f606081619593878761c7a7565b90505f6195a0828861a336565b90506195ac858261a5bc565b60405162b5059f60e51b81525f906001600160a01b038716906316a0b3e0906195dd908e908e90879060040161d13c565b602060405180830381865afa1580156195f8573d5f803e3d5ffd5b505050506040513d601f19601f8201168201806040525081019061961c919061c77c565b90505f818c8c815181106196325761963261c7ba565b6020026020010151619644919061c7a7565b90505f6196758d8d8151811061965c5761965c61c7ba565b60200260200101518b87619bf99092919063ffffffff16565b90505f619682848361c7a7565b90505f61968f828c618d8f565b90508e516001600160401b038111156196aa576196aa61ac70565b6040519080825280602002602001820160405280156196d3578160200160208202803683370190505b50975080888f815181106196e9576196e961c7ba565b6020908102919091010152618b46818561c7a7565b85515f9060609082816001600160401b0381111561971e5761971e61ac70565b604051908082528060200260200182016040528015619747578160200160208202803683370190505b5090505f5b82811015619793578a81815181106197665761976661c7ba565b60200260200101518282815181106197805761978061c7ba565b602090810291909101015260010161974c565b5087818a815181106197a7576197a761c7ba565b60200260200101516197b9919061c7a7565b818a815181106197cb576197cb61c7ba565b6020908102919091010152604051631309bd3d60e31b81525f906001600160a01b0387169063984de9e890619806908e90859060040161d112565b602060405180830381865afa158015619821573d5f803e3d5ffd5b505050506040513d601f19601f82011682018060405250810190619845919061c77c565b90505f6198bf82886001600160a01b031663984de9e8865f6040518363ffffffff1660e01b815260040161987a92919061d112565b602060405180830381865afa158015619895573d5f803e3d5ffd5b505050506040513d601f19601f820116820180604052508101906198b9919061c77c565b9061a336565b90506198cb878261a5bc565b5f838c815181106198de576198de61c7ba565b60200260200101516199128e8e815181106198fb576198fb61c7ba565b602002602001015184618d8f90919063ffffffff16565b61991c919061c7a7565b90505f81619938670de0b6b3a76400008c8103908d1002618ac6565b619942919061c7a7565b905080858e815181106199575761995761c7ba565b6020026020010151619969919061c7a7565b858e8151811061997b5761997b61c7ba565b6020908102919091010152604051631309bd3d60e31b81525f906001600160a01b038b169063984de9e8906199b790899060019060040161d112565b602060405180830381865afa1580156199d2573d5f803e3d5ffd5b505050506040513d601f19601f820116820180604052508101906199f6919061c77c565b9050866001600160401b03811115619a1057619a1061ac70565b604051908082528060200260200182016040528015619a39578160200160208202803683370190505b50975081888f81518110619a4f57619a4f61c7ba565b6020908102919091010152618b46619a67828761c7a7565b8d9087619bf9565b619a788161a663565b15155f036114ff576040517fcf0a95c000000000000000000000000000000000000000000000000000000000815260040160405180910390fd5b5f619abe85858561a672565b90505f1981146153045780821115619b1b576040517ffb8f41b20000000000000000000000000000000000000000000000000000000081526001600160a01b038416600482015260248101829052604481018390526064016116d7565b61530485858585850361a6c9565b5f321580156117ea5750619b3e60075461825e565b15905090565b32155f03619b7e576040517f67f84ab200000000000000000000000000000000000000000000000000000000815260040160405180910390fd5b6001600160a01b038084165f908152600f6020908152604080832093861683529290529081208054839290619bb490849061cbff565b9091555050505050565b5f6117be6151c382600161cc67565b5f670de0b6b3a764000080830402808314619bf257619bed83600161cbff565b611911565b5090919050565b5f815f03619c33576040517f0a0c22c700000000000000000000000000000000000000000000000000000000815260040160405180910390fd5b5f619c3e848661d0fb565b9050600183600183030401811515029150509392505050565b5f61190e82619c66868661a188565b9061a188565b5f80821215619342576040517fa8ce4432000000000000000000000000000000000000000000000000000000008152600481018390526024016116d7565b604080516001600160a01b038416602482015260448082018490528251808303909101815260649091019091526020810180517bffffffffffffffffffffffffffffffffffffffffffffffffffffffff167f095ea7b300000000000000000000000000000000000000000000000000000000179052619d29848261a81e565b6114f0576040516001600160a01b0384811660248301525f6044830152619d5d91869182169063095ea7b390606401617e59565b6114f0848261a00a565b606081471015619dac576040517fcf479181000000000000000000000000000000000000000000000000000000008152476004820152602481018390526044016116d7565b5f80856001600160a01b03168486604051619dc7919061d160565b5f6040518083038185875af1925050503d805f8114619e01576040519150601f19603f3d011682016040523d82523d5f602084013e619e06565b606091505b50915091506166c286838361a863565b6114ff619e256001835c61c7a7565b8290617393565b6114ff619e25825c600161cbff565b6001600160a01b0381165f908152602081905260408120546117be9061a08f565b6040516370a0823160e01b81523060048201525f906001600160a01b038616906370a0823190602401602060405180830381865afa158015619ea0573d5f803e3d5ffd5b505050506040513d601f19601f82011682018060405250810190619ec4919061c77c565b905082811015619f19576040517f1c6a53750000000000000000000000000000000000000000000000000000000081526001600160a01b038516600482015260248101849052604481018290526064016116d7565b6001600160a01b038581165f90815260086020526040808220849055516370a0823160e01b815230600482015290918616906370a0823190602401602060405180830381865afa158015619f6f573d5f803e3d5ffd5b505050506040513d601f19601f82011682018060405250810190619f93919061c77c565b905082811015619fe8576040517f1149424d0000000000000000000000000000000000000000000000000000000081526001600160a01b038616600482015260248101849052604481018290526064016116d7565b6001600160a01b039094165f9081526008602052604090209390935550505050565b5f8060205f8451602086015f885af18061a029576040513d5f823e3d81fd5b50505f513d9150811561a04057806001141561a04d565b6001600160a01b0384163b155b156114f0576040517f5274afe70000000000000000000000000000000000000000000000000000000081526001600160a01b03851660048201526024016116d7565b5f6117be61520582600161cc67565b5f64174876e80061854b601861a0b584600161cc67565b61a0c090600161cc67565b61a0cb90600161cc67565b61a0d690600161cc67565b61a0e190600161cc67565b61a0ec90600161cc67565b61a0f790600161cc67565b61a10290600161cc67565b61a10d90600161cc67565b61a11890600161cc67565b61a12390600161cc67565b61a12e90600161cc67565b61a13990600161cc67565b61a14490600161cc67565b61a14f90600161cc67565b61a15a90600161cc67565b61a16590600161cc67565b61a17090600161cc67565b60ff1661a17d919061cbff565b84901c62ffffff1690565b5f8061a194838561d0fb565b905061a1a8670de0b6b3a76400008261ceb0565b949350505050565b6001600160a01b0381165f908152602081905260408120546119118161825e565b6001600160a01b0381165f9081526020819052604081205481908161a1f58261a8d3565b90505f61a2018361a8e2565b905081801561a23f575061a2357f00000000000000000000000000000000000000000000000000000000000000008261d17b565b63ffffffff164211155b969095509350505050565b5f6117be6151d982600161cc67565b5f61a2686151fa82600161cc67565b1592915050565b5f8061a283670de0b6b3a76400008561d0fb565b905061a1a8838261ceb0565b5f826001600160a01b031663273c1adf6040518163ffffffff1660e01b8152600401602060405180830381865afa15801561a2cc573d5f803e3d5ffd5b505050506040513d601f19601f8201168201806040525081019061a2f0919061c77c565b905080821115611b8a576040517f3e8960dc00000000000000000000000000000000000000000000000000000000815260048101839052602481018290526044016116d7565b5f6117bb83670de0b6b3a764000084619bf9565b5f6117be6151ef82600161cc67565b610100821061a37b57604051632d0483c560e21b815260040160405180910390fd5b6001811015801561a3a1575061a39d60ff61a3988461010061c7a7565b61a9e9565b8111155b61a3be57604051632d0483c560e21b815260040160405180910390fd5b82811c15611b8a576040517fe4337c0500000000000000000000000000000000000000000000000000000000815260040160405180910390fd5b60605f826001600160401b0381111561a4135761a41361ac70565b60405190808252806020026020018201604052801561a43c578160200160208202803683370190505b5090505f61a4498561a9f8565b64ffffffffff1690505f5b8481101561a4b9575f61a47461a46b60058461d0fb565b84901c601f1690565b905061a48181600a61d270565b61a49390670de0b6b3a764000061d0fb565b84838151811061a4a55761a4a561c7ba565b60209081029190910101525060010161a454565b5090949350505050565b5f6117be61521b82600161cc67565b5f64174876e80061854b60188061a4ea85600161cc67565b61a4f590600161cc67565b61a50090600161cc67565b61a50b90600161cc67565b61a51690600161cc67565b61a52190600161cc67565b61a52c90600161cc67565b61a53790600161cc67565b61a54290600161cc67565b61a54d90600161cc67565b61a55890600161cc67565b61a56390600161cc67565b61a56e90600161cc67565b61a57990600161cc67565b61a58490600161cc67565b61a58f90600161cc67565b61a59a90600161cc67565b61a5a590600161cc67565b60ff1661a5b2919061cbff565b61a17d919061cbff565b5f826001600160a01b031663b677fa566040518163ffffffff1660e01b8152600401602060405180830381865afa15801561a5f9573d5f803e3d5ffd5b505050506040513d601f19601f8201168201806040525081019061a61d919061c77c565b905080821015611b8a576040517fe31c95be00000000000000000000000000000000000000000000000000000000815260048101839052602481018290526044016116d7565b5f6117be6151e482600161cc67565b5f816001600160a01b0316836001600160a01b03160361a69457505f19611911565b506001600160a01b038084165f9081526010602090815260408083208685168452825280832093851683529290522054611911565b6001600160a01b03831661a714576040517fe602df050000000000000000000000000000000000000000000000000000000081526001600160a01b03841660048201526024016116d7565b6001600160a01b03821661a75f576040517f94280d620000000000000000000000000000000000000000000000000000000081526001600160a01b03831660048201526024016116d7565b6001600160a01b038481165f81815260106020908152604080832088861680855290835281842095881680855295835292819020869055518581529192917fa0175360a15bca328baf7ea85c7b784d58b222a50d0ce760b10dba336d226a61910160405180910390a46040517f5687f2b80000000000000000000000000000000000000000000000000000000081526001600160a01b038481166004830152838116602483015260448201839052851690635687f2b8906064016115ac565b5f805f8060205f8651602088015f8a5af192503d91505f5190508280156166c25750811561a84f57806001146166c2565b50505050506001600160a01b03163b151590565b60608261a87357619bed8261aaf4565b815115801561a88a57506001600160a01b0384163b155b1561a8cc576040517f9996b3150000000000000000000000000000000000000000000000000000000081526001600160a01b03851660048201526024016116d7565b5080611911565b5f6117be61521082600161cc67565b5f6117be60286018808061a8f786600161cc67565b61a90290600161cc67565b61a90d90600161cc67565b61a91890600161cc67565b61a92390600161cc67565b61a92e90600161cc67565b61a93990600161cc67565b61a94490600161cc67565b61a94f90600161cc67565b61a95a90600161cc67565b61a96590600161cc67565b61a97090600161cc67565b61a97b90600161cc67565b61a98690600161cc67565b61a99190600161cc67565b61a99c90600161cc67565b61a9a790600161cc67565b61a9b290600161cc67565b60ff1661a9bf919061cbff565b61a9c9919061cbff565b61a9d3919061cbff565b61a9dd919061cbff565b83901c63ffffffff1690565b5f8282188284100282186117bb565b5f6117be6018808061aa0b85600161cc67565b61aa1690600161cc67565b61aa2190600161cc67565b61aa2c90600161cc67565b61aa3790600161cc67565b61aa4290600161cc67565b61aa4d90600161cc67565b61aa5890600161cc67565b61aa6390600161cc67565b61aa6e90600161cc67565b61aa7990600161cc67565b61aa8490600161cc67565b61aa8f90600161cc67565b61aa9a90600161cc67565b61aaa590600161cc67565b61aab090600161cc67565b61aabb90600161cc67565b61aac690600161cc67565b60ff1661aad3919061cbff565b61aadd919061cbff565b61aae7919061cbff565b83901c64ffffffffff1690565b80511561ab045780518082602001fd5b6040517fd6bda27500000000000000000000000000000000000000000000000000000000815260040160405180910390fd5b60408051608081019091525f80825260208201905b81525f6020820181905260409091015290565b828054828255905f5260205f2090810192821561abbe579160200282015b8281111561abbe578251825473ffffffffffffffffffffffffffffffffffffffff19166001600160a01b0390911617825560209092019160019091019061ab7c565b5061934292915061abe4565b61146561d27b565b6040805160608101909152805f61ab4b565b5b80821115619342575f815560010161abe5565b6001600160a01b03811681146114ff575f80fd5b80356122e48161abf8565b5f805f6060848603121561ac29575f80fd5b833561ac348161abf8565b9250602084013561ac448161abf8565b929592945050506040919091013590565b5f6020828403121561ac65575f80fd5b81356119118161abf8565b634e487b7160e01b5f52604160045260245ffd5b604051606081016001600160401b038111828210171561aca65761aca661ac70565b60405290565b60405160e081016001600160401b038111828210171561aca65761aca661ac70565b60405160c081016001600160401b038111828210171561aca65761aca661ac70565b604051608081016001600160401b038111828210171561aca65761aca661ac70565b60405161014081016001600160401b038111828210171561aca65761aca661ac70565b60405161016081016001600160401b038111828210171561aca65761aca661ac70565b604051601f8201601f191681016001600160401b038111828210171561ad805761ad8061ac70565b604052919050565b5f6001600160401b0382111561ada05761ada061ac70565b5060051b60200190565b5f82601f83011261adb9575f80fd5b8135602061adce61adc98361ad88565b61ad58565b8083825260208201915060208460051b87010193508684111561adef575f80fd5b602086015b8481101561ae1457803561ae078161abf8565b835291830191830161adf4565b509695505050505050565b803563ffffffff811681146122e4575f80fd5b5f805f8084860360c081121561ae46575f80fd5b853561ae518161abf8565b945060208601356001600160401b0381111561ae6b575f80fd5b61ae778882890161adaa565b94505061ae866040870161ae1f565b92506060605f198201121561ae99575f80fd5b5061aea261ac84565b606086013561aeb08161abf8565b8152608086013561aec08161abf8565b602082015260a086013561aed38161abf8565b6040820152939692955090935050565b600281106114ff575f80fd5b80356122e48161aee3565b80151581146114ff575f80fd5b80356122e48161aefa565b5f82601f83011261af21575f80fd5b8135602061af3161adc98361ad88565b8281526060928302850182019282820191908785111561af4f575f80fd5b8387015b8581101561afaf5781818a03121561af69575f80fd5b61af7161ac84565b813561af7c8161aee3565b81528186013561af8b8161abf8565b8187015260408281013561af9e8161aefa565b90820152845292840192810161af53565b5090979650505050505050565b5f82601f83011261afcb575f80fd5b8135602061afdb61adc98361ad88565b8083825260208201915060208460051b87010193508684111561affc575f80fd5b602086015b8481101561ae14578035835291830191830161b001565b5f60e0828403121561b028575f80fd5b61b03061acac565b90508135815260208201356001600160401b038082111561b04f575f80fd5b61b05b8583860161adaa565b6020840152604084013591508082111561b073575f80fd5b61b07f8583860161af12565b6040840152606084013591508082111561b097575f80fd5b61b0a38583860161afbc565b6060840152608084013591508082111561b0bb575f80fd5b61b0c78583860161afbc565b608084015260a084013591508082111561b0df575f80fd5b61b0eb8583860161afbc565b60a084015260c084013591508082111561b103575f80fd5b5061b1108482850161afbc565b60c08301525092915050565b8035600581106122e4575f80fd5b5f6001600160401b0382111561b1425761b14261ac70565b50601f01601f191660200190565b5f82601f83011261b15f575f80fd5b813561b16d61adc98261b12a565b81815284602083860101111561b181575f80fd5b816020850160208301375f918101602001919091529392505050565b5f60c0828403121561b1ad575f80fd5b61b1b561acce565b905061b1c08261ac0c565b815261b1ce6020830161ac0c565b602082015260408201356001600160401b038082111561b1ec575f80fd5b61b1f88583860161afbc565b60408401526060840135606084015261b2136080850161b11c565b608084015260a084013591508082111561b22b575f80fd5b5061b2388482850161b150565b60a08301525092915050565b5f805f6060848603121561b256575f80fd5b83356001600160401b038082111561b26c575f80fd5b61b2788783880161b018565b9450602086013591508082111561b28d575f80fd5b61b2998783880161b19d565b9350604086013591508082111561b2ae575f80fd5b5061b2bb8682870161afbc565b9150509250925092565b634e487b7160e01b5f52602160045260245ffd5b600281106114ff576114ff61b2c5565b5f815180845260208085019450602084015f5b8381101561b342578151805161b3118161b2d9565b8852808401516001600160a01b0316848901526040908101511515908801526060909601959082019060010161b2fc565b509495945050505050565b5f815180845260208085019450602084015f5b8381101561b3425781518752958201959082019060010161b360565b5f60e083018251845260208084015160e06020870152828151808552610100880191506020830194505f92505b8083101561b3d25784516001600160a01b0316825293830193600192909201919083019061b3a9565b5060408601519350868103604088015261b3ec818561b2e9565b93505050506060830151848203606086015261b408828261b34d565b9150506080830151848203608086015261b422828261b34d565b91505060a083015184820360a086015261b43c828261b34d565b91505060c083015184820360c08601526116fb828261b34d565b5f5b8381101561b47057818101518382015260200161b458565b50505f910152565b5f815180845261b48f81602086016020860161b456565b601f01601f19169290920160200192915050565b60a081525f61b4b560a083018861b37c565b828103602084015261b4c7818861b34d565b9050828103604084015261b4db818761b34d565b90508460608401528281036080840152615d44818561b478565b5f805f806080858703121561b508575f80fd5b84356001600160401b0381111561b51d575f80fd5b61b5298782880161b018565b97602087013597506040870135966060013595509350505050565b5f806040838503121561b555575f80fd5b823561b5608161abf8565b915061b56e6020840161ae1f565b90509250929050565b5f805f6060848603121561b589575f80fd5b833561b5948161abf8565b95602085013595506040909401359392505050565b5f806040838503121561b5ba575f80fd5b823561b5c58161abf8565b9150602083013561b5d58161aee3565b809150509250929050565b602081525f6117bb602083018461b37c565b5f806040838503121561b603575f80fd5b823561b60e8161aefa565b9150602083013561b5d58161aefa565b5f806040838503121561b62f575f80fd5b823561b63a8161abf8565b946020939093013593505050565b5f60e0828403121561b658575f80fd5b61b66061acac565b905061b66b8261aeef565b815261b6796020830161ac0c565b602082015261b68a6040830161ac0c565b604082015261b69b6060830161ac0c565b60608201526080820135608082015260a082013560a082015260c08201356001600160401b0381111561b6cc575f80fd5b61b1108482850161b150565b5f805f83850360c081121561b6eb575f80fd5b84356001600160401b038082111561b701575f80fd5b61b70d8883890161b648565b95506080601f198401121561b720575f80fd5b61b72861acf0565b92506020870135835260408701356020840152606087013560408401526080870135606084015282945060a087013592508083111561b765575f80fd5b505061b2bb8682870161b018565b61b77c8161b2d9565b9052565b5f815161b78c8161b2d9565b8084525060208201516020840152604082015160e0604085015261b7b360e085018261b34d565b905060608301516060850152608083015160808501526001600160a01b0360a08401511660a085015260c083015184820360c08601526116fb828261b478565b602081525f6117bb602083018461b780565b602081525f6117bb602083018461b34d565b5f805f6060848603121561b829575f80fd5b833561b8348161abf8565b925060208401356001600160401b038082111561b84f575f80fd5b61b2998783880161afbc565b5f805f6060848603121561b86d575f80fd5b833561b8788161abf8565b925060208401356001600160401b0381111561b892575f80fd5b61b89e8682870161adaa565b925050604084013590509250925092565b8035600481106122e4575f80fd5b5f60c0828403121561b8cd575f80fd5b61b8d561acce565b905061b8e08261ac0c565b815261b8ee6020830161ac0c565b60208201526040820135604082015260608201356001600160401b038082111561b916575f80fd5b61b9228583860161afbc565b606084015261b2136080850161b8af565b5f6020828403121561b943575f80fd5b81356001600160401b0381111561b958575f80fd5b61a1a88482850161b8bd565b838152606060208201525f61b97c606083018561b34d565b82810360408401526166c2818561b478565b5f6020828403121561b99e575f80fd5b81356001600160401b0381111561b9b3575f80fd5b61a1a88482850161adaa565b5f815180845260208085019450602084015f5b8381101561b3425781516001600160a01b038082511689528482015161b9f78161b2d9565b89860152604082810151909116908901526060908101511515908801526080909601959082019060010161b9d2565b602081525f6117bb602083018461b9bf565b5f610140898352886020840152876040840152866060840152806080840152855161ba628161b2d9565b9083015260208501516001600160a01b03908116610160840152604086015116610180830152606085015161baa36101a08401826001600160a01b03169052565b5060808501516101c083015260a08501516101e083015260c085015160e061020084015261bad561022084018261b478565b855160a0850152602086015160c0850152604086015160e08501526060860151610100850152905082810361012084015261bb10818561b37c565b9a9950505050505050505050565b5f805f6060848603121561bb30575f80fd5b83356001600160401b038082111561bb46575f80fd5b61bb528783880161b018565b9450602086013591508082111561bb67575f80fd5b61b2998783880161b8bd565b5f6020828403121561bb83575f80fd5b81356001600160401b0381111561bb98575f80fd5b61a1a88482850161b648565b5f6020828403121561bbb4575f80fd5b5035919050565b5f806040838503121561bbcc575f80fd5b823561bbd78161abf8565b915060208301356001600160401b0381111561bbf1575f80fd5b61bbfd8582860161adaa565b9150509250929050565b5f806040838503121561bc18575f80fd5b823561b60e8161abf8565b5f806040838503121561bc34575f80fd5b823561bc3f8161abf8565b9150602083013561b5d58161abf8565b5f60a0828403121561bc5f575f80fd5b60405160a081018181106001600160401b038211171561bc815761bc8161ac70565b604052823561bc8f8161aee3565b8152602083013561bc9f8161aee3565b6020820152604083013561bcb28161abf8565b6040820152606083810135908201526080928301359281019290925250919050565b5f806020838503121561bce5575f80fd5b82356001600160401b038082111561bcfb575f80fd5b818501915085601f83011261bd0e575f80fd5b81358181111561bd1c575f80fd5b86602082850101111561bd2d575f80fd5b60209290920196919550909350505050565b602081525f6117bb602083018461b478565b5f6020828403121561bd61575f80fd5b81356001600160401b0381111561bd76575f80fd5b61a1a88482850161b19d565b606081525f61bd94606083018661b34d565b84602084015282810360408401526166c2818561b478565b5f6080828403121561bdbc575f80fd5b61bdc461acf0565b9050813561bdd18161aefa565b8152602082013561bde18161aefa565b6020820152604082013561bdf48161aefa565b604082015260608201356164388161aefa565b803564ffffffffff811681146122e4575f80fd5b5f808284036101c081121561be2e575f80fd5b833561be398161abf8565b92506101a0601f19820181131561be4e575f80fd5b61be5661ad12565b915061be65866020870161bdac565b825260a0850135602083015260c0850135604083015260e0850135606083015261010061be9381870161be07565b608084015261012061bea681880161ae1f565b60a085015261beb8610140880161af07565b60c085015261beca610160880161af07565b60e085015261bedc610180880161af07565b8285015261beeb83880161af07565b9084015250929590945092505050565b5f806040838503121561bf0c575f80fd5b82356001600160401b038082111561bf22575f80fd5b61bf2e8683870161adaa565b9350602085013591508082111561bf43575f80fd5b5061bbfd8582860161adaa565b5f82601f83011261bf5f575f80fd5b8135602061bf6f61adc98361ad88565b8083825260208201915060208460051b87010193508684111561bf90575f80fd5b602086015b8481101561ae1457803561bfa88161aefa565b835291830191830161bf95565b5f805f806080858703121561bfc8575f80fd5b84356001600160401b038082111561bfde575f80fd5b61bfea8883890161adaa565b955060209150818701358181111561c000575f80fd5b8701601f8101891361c010575f80fd5b803561c01e61adc98261ad88565b81815260059190911b8201840190848101908b83111561c03c575f80fd5b928501925b8284101561c06357833561c0548161aee3565b8252928501929085019061c041565b9750505050604087013591508082111561c07b575f80fd5b61c0878883890161adaa565b9350606087013591508082111561c09c575f80fd5b5061c0a98782880161bf50565b91505092959194509250565b5f6020828403121561c0c5575f80fd5b81356119118161aefa565b5f805f806080858703121561c0e3575f80fd5b84356001600160401b0381111561c0f8575f80fd5b61c1048782880161b018565b94505060208501359250604085013561c11c8161aee3565b9396929550929360600135925050565b5f805f806080858703121561c13f575f80fd5b843561c14a8161abf8565b9350602085013561c15a8161abf8565b93969395505050506040820135916060013590565b5f805f6060848603121561c181575f80fd5b833561c18c8161abf8565b925060208401356001600160401b038082111561c1a7575f80fd5b61c1b38783880161adaa565b9350604086013591508082111561c1c8575f80fd5b5061b2bb8682870161af12565b5f805f805f60a0868803121561c1e9575f80fd5b85356001600160401b0381111561c1fe575f80fd5b61c20a8882890161b018565b95505060208601359350604086013561c2228161abf8565b9250606086013561c2328161abf8565b949793965091946080013592915050565b5f8082840361018081121561c256575f80fd5b833561c2618161abf8565b9250610160601f19820181131561c276575f80fd5b61c27e61ad35565b915061c28c6020860161af07565b825261c29a6040860161af07565b602083015261c2ab6060860161af07565b604083015261c2bc6080860161af07565b606083015261c2cd60a0860161af07565b608083015261c2de60c0860161af07565b60a083015261c2ef60e0860161af07565b60c083015261010061c30281870161af07565b60e084015261012061c31581880161af07565b82850152610140915061c32982880161af07565b9084015261c33886830161ac0c565b9083015250919491935090915050565b5f805f6060848603121561c35a575f80fd5b833561c3658161abf8565b925060208401356001600160401b0381111561c37f575f80fd5b61c38b8682870161b018565b925050604084013561c39c8161aee3565b809150509250925092565b5f805f806080858703121561c3ba575f80fd5b843561c3c58161abf8565b935060208501356001600160401b038082111561c3e0575f80fd5b61c3ec8883890161adaa565b9450604087013591508082111561c401575f80fd5b61c40d8883890161afbc565b9350606087013591508082111561c422575f80fd5b5061c0a98782880161afbc565b5f80604080848603121561c441575f80fd5b833561c44c8161abf8565b92506020848101356001600160401b0381111561c467575f80fd5b8501601f8101871361c477575f80fd5b803561c48561adc98261ad88565b81815260079190911b8201830190838101908983111561c4a3575f80fd5b928401925b8284101561c51b576080848b03121561c4bf575f80fd5b61c4c761acf0565b843561c4d28161abf8565b81528486013561c4e18161aee3565b818701528487013561c4f28161abf8565b8188015260608581013561c5058161aefa565b908201528252608093909301929084019061c4a8565b8096505050505050509250929050565b5f805f6060848603121561c53d575f80fd5b83356001600160401b038082111561c553575f80fd5b61c55f8783880161adaa565b9450602086013591508082111561c574575f80fd5b61c5808783880161adaa565b9350604086013591508082111561c595575f80fd5b5061b2bb8682870161bf50565b5f806040838503121561c5b3575f80fd5b82356001600160401b0381111561c5c8575f80fd5b61c5d48582860161adaa565b925050602083013561b5d58161abf8565b60a081525f61c5f760a083018861b37c565b866020840152828103604084015261c60f818761b34d565b9050828103606084015261c623818661b34d565b90508281036080840152615d44818561b478565b5f6020828403121561c647575f80fd5b81516119118161aefa565b5f6101606001600160a01b03808a16845281602085015261c6758285018a61b9bf565b925063ffffffff8816604085015261c6b2606085018880516001600160a01b03908116835260208083015182169084015260409182015116910152565b851660c0840152508251151560e08301526020830151151561010083015260408301511515610120830152606083015115156101408301525b979650505050505050565b6005811061b77c5761b77c61b2c5565b602081525f6001600160a01b0380845116602084015280602085015116604084015250604083015160c0606084015261c74260e084018261b34d565b905060608401516080840152608084015161c76060a085018261c6f6565b5060a0840151838203601f190160c08501526116fb828261b478565b5f6020828403121561c78c575f80fd5b5051919050565b634e487b7160e01b5f52601160045260245ffd5b818103818111156117be576117be61c793565b634e487b7160e01b5f52603260045260245ffd5b5f6101006001600160a01b03808916845281602085015261c7f18285018961b9bf565b9250866040850152808616606085015250506166c260808301848051151582526020810151151560208301526040810151151560408301526060810151151560608301525050565b5f602080838503121561c84a575f80fd5b82516001600160401b0381111561c85f575f80fd5b8301601f8101851361c86f575f80fd5b805161c87d61adc98261ad88565b81815260079190911b8201830190838101908783111561c89b575f80fd5b928401925b8284101561c6eb576080848903121561c8b7575f80fd5b61c8bf61acf0565b845161c8ca8161abf8565b81528486015161c8d98161aee3565b8187015260408581015161c8ec8161abf8565b9082015260608581015161c8ff8161aefa565b908201528252608093909301929084019061c8a0565b5f6101406001600160a01b03808916845281602085015261c9388285018961b9bf565b925061c969604085018880516001600160a01b03908116835260208083015182169084015260409182015116910152565b851660a0840152508251151560c08301526020830151151560e083015260408301511515610100830152606083015115156101208301526166c2565b815160a082019061c9b58161b2d9565b8252602083015161c9c58161b2d9565b806020840152506001600160a01b036040840151166040830152606083015160608301526080830151608083015292915050565b5f805f6060848603121561ca0b575f80fd5b8351925060208401519150604084015190509250925092565b5f6020828403121561ca34575f80fd5b81516119118161abf8565b6004811061b77c5761b77c61b2c5565b602081525f6001600160a01b038084511660208401528060208501511660408401525060408301516060830152606083015160c0608084015261ca9560e084018261b34d565b9050608084015161c76060a085018261ca3f565b6001600160a01b038616815260a060208201525f61caca60a083018761b34d565b856040840152828103606084015261c623818661b34d565b5f82601f83011261caf1575f80fd5b8151602061cb0161adc98361ad88565b8083825260208201915060208460051b87010193508684111561cb22575f80fd5b602086015b8481101561ae14578051835291830191830161cb27565b5f82601f83011261cb4d575f80fd5b815161cb5b61adc98261b12a565b81815284602083860101111561cb6f575f80fd5b61a1a882602083016020870161b456565b5f805f806080858703121561cb93575f80fd5b84516001600160401b038082111561cba9575f80fd5b61cbb58883890161cae2565b955060208701519450604087015191508082111561cbd1575f80fd5b61cbdd8883890161cae2565b9350606087015191508082111561cbf2575f80fd5b5061c0a98782880161cb3e565b808201808211156117be576117be61c793565b5f606082018583526020606060208501528186518084526080860191506020880193505f5b8181101561cc535784518352938301939183019160010161cc37565b50508481036040860152615d44818761b34d565b60ff81811683821601908111156117be576117be61c793565b5f600160ff1b820361cc945761cc9461c793565b505f0390565b6001600160a01b038881168252871660208201525f61ccbc604083018861ca3f565b85606083015260e0608083015261ccd660e083018661b34d565b82810360a084015261cce8818661b34d565b905082810360c084015261bb10818561b478565b6001600160a01b038616815284602082015260a060408201525f61cd2360a083018661b34d565b828103606084015261c623818661b34d565b5f805f806080858703121561cd48575f80fd5b8451935060208501516001600160401b038082111561cd65575f80fd5b61cd718883890161cae2565b9450604087015191508082111561cbd1575f80fd5b6001600160a01b038981168252881660208201525f61010061cdab604084018a61ca3f565b87606084015280608084015261cdc38184018861b34d565b905082810360a084015261cdd7818761b34d565b905082810360c084015261cdeb818661b34d565b905082810360e084015261cdff818561b478565b9b9a5050505050505050505050565b5f806040838503121561ce1f575f80fd5b825161ce2a8161aefa565b60208401519092506001600160401b0381111561ce45575f80fd5b61bbfd8582860161cae2565b8181035f831280158383131683831282161715612a2857612a2861c793565b634e487b7160e01b5f52601260045260245ffd5b5f8261ce925761ce9261ce70565b600160ff1b82145f198414161561ceab5761ceab61c793565b500590565b5f8261cebe5761cebe61ce70565b500490565b604081525f61ced5604083018561b780565b90506001600160a01b03831660208301529392505050565b606081525f61ceff606083018661b780565b6001600160a01b039490941660208301525060400152919050565b5f806040838503121561cf2b575f80fd5b825161cf368161aefa565b6020939093015192949293505050565b6020815261cf5860208201835161b773565b5f602083015161cf7360408401826001600160a01b03169052565b5060408301516001600160a01b03811660608401525060608301516080830152608083015160a083015260a083015160c083015260c083015160e083015260e083015161010081818501528085015191505061012081818501528085015191505061014061cfeb818501836001600160a01b03169052565b840151905061016061d007848201836001600160a01b03169052565b84015161018084810152905061a1a86101a084018261b478565b8082018281125f83128015821682158216171561d0405761d04061c793565b505092915050565b6001600160a01b038881168252871660208201525f61d06a604083018861c6f6565b60e0606083015261d07e60e083018761b34d565b85608084015282810360a084015261cce8818661b34d565b6001600160a01b038981168252881660208201525f61010061d0bb604084018a61c6f6565b80606084015261d0cd8184018961b34d565b9050828103608084015261d0e1818861b34d565b90508560a084015282810360c084015261cdeb818661b34d565b80820281158282048414176117be576117be61c793565b604081525f61d124604083018561b34d565b905061d12f8361b2d9565b8260208301529392505050565b606081525f61d14e606083018661b34d565b60208301949094525060400152919050565b5f825161d17181846020870161b456565b9190910192915050565b63ffffffff818116838216019080821115612a2857612a2861c793565b600181815b8085111561380357815f190482111561d1b85761d1b861c793565b8085161561d1c557918102915b93841c939080029061d19d565b5f8261d1e0575060016117be565b8161d1ec57505f6117be565b816001811461d202576002811461d20c5761d228565b60019150506117be565b60ff84111561d21d5761d21d61c793565b50506001821b6117be565b5060208310610133831016604e8410600b841016171561d24b575081810a6117be565b61d255838361d198565b805f190482111561d2685761d26861c793565b029392505050565b5f6117bb838361d1d2565b634e487b7160e01b5f52605160045260245ffdfea2646970667358221220ee4ae79b06607e41361d9155eb9bd1eb5004c316efc083140d0ff5f4f5ab09b364736f6c6343000818003361012060405234801562000011575f80fd5b506040516200455c3803806200455c8339810160408190526200003491620000a4565b306080526001600160a01b03821660a052805f6200005963ffffffff831642620000f2565b905063ffffffff81111562000081576040516368755a1160e01b815260040160405180910390fd5b63ffffffff91821660c0521660e052506001600160a01b03166101005262000118565b5f8060408385031215620000b6575f80fd5b82516001600160a01b0381168114620000cd575f80fd5b602084015190925063ffffffff81168114620000e7575f80fd5b809150509250929050565b808201808211156200011257634e487b7160e01b5f52601160045260245ffd5b92915050565b60805160a05160c05160e051610100516143c06200019c5f395f818161037f01528181610465015281816104ef015281816105d50152818161075a015281816108d7015281816109b60152610a9001525f818161031301528181610a1c0152610a5001525f61021e01525f8181610293015261083301525f6106b201526143c05ff3fe608060405234801562000010575f80fd5b506004361062000148575f3560e01c8063851c1bb311620000bb578063c7c90a511162000087578063db035ebc116200006b578063db035ebc1462000307578063e9d56e191462000311578063ed05beaf1462000338575f80fd5b8063c7c90a5114620002d9578063d396a66614620002f0575f80fd5b8063851c1bb3146200026b5780638d928af81462000291578063a7a4b71114620002b8578063aaabadc514620002cf575f80fd5b80636634b75311620001175780636c57f5a911620000fb5780636c57f5a9146200021057806378da80cb146200021c5780637a0b2e8d1462000254575f80fd5b80636634b75314620001ba578063675d605014620001f9575f80fd5b80630e0677ab146200014c5780632f2770db1462000165578063337d4010146200016f5780635ea81a3214620001a3575b5f80fd5b620001636200015d36600462001059565b6200034f565b005b62000163620003fb565b6200018662000180366004620010f8565b62000445565b6040516001600160a01b0390911681526020015b60405180910390f35b62000186620001b436600462001183565b62000461565b620001e8620001cb366004620011ea565b6001600160a01b03165f9081526020819052604090205460ff1690565b60405190151581526020016200019a565b620001636200020a36600462001208565b620004d1565b60015460ff16620001e8565b7f00000000000000000000000000000000000000000000000000000000000000005b60405163ffffffff90911681526020016200019a565b620001636200026536600462001251565b620005cb565b620002826200027c366004620012fe565b620006af565b6040519081526020016200019a565b7f000000000000000000000000000000000000000000000000000000000000000062000186565b62000163620002c93660046200133f565b6200072c565b6200018662000830565b62000163620002ea366004620013ba565b620008b9565b620001636200030136600462001422565b620009b4565b6200023e62000a19565b7f00000000000000000000000000000000000000000000000000000000000000006200023e565b6200016362000349366004620014b0565b62000a72565b6040517feeec802f0000000000000000000000000000000000000000000000000000000081526001600160a01b037f0000000000000000000000000000000000000000000000000000000000000000169063eeec802f90620003c490899089905f908a9082908b908b908b90600401620015b0565b5f604051808303815f87803b158015620003dc575f80fd5b505af1158015620003ef573d5f803e3d5ffd5b50505050505050505050565b6200040562000af3565b6200040f62000b6a565b6001805460ff1916811790556040517f432acbfd662dbb5d8b378384a67159b47ca9d0f1b79f97cf64cf8585fa362d50905f90a1565b5f6200045b620004558362000baa565b62000bce565b92915050565b5f807f00000000000000000000000000000000000000000000000000000000000000008484604051620004949062000e19565b620004a293929190620016d5565b604051809103905ff080158015620004bc573d5f803e3d5ffd5b509050620004ca8162000bdb565b9392505050565b604080516060810182525f80825260208201819052918101919091527f00000000000000000000000000000000000000000000000000000000000000006001600160a01b031663eeec802f84845f6200052962000a19565b5f875f6200057260408051608080820183525f80835260208084018290528385018290526060938401829052845192830185528183529282015260019181018290529182015290565b6040518963ffffffff1660e01b81526004016200059798979695949392919062001716565b5f604051808303815f87803b158015620005af575f80fd5b505af1158015620005c2573d5f803e3d5ffd5b50505050505050565b6001600160a01b037f00000000000000000000000000000000000000000000000000000000000000001663eeec802f888888620006098942620017c9565b8888886200065260408051608080820183525f80835260208084018290528385018290526060938401829052845192830185528183529282015260019181018290529182015290565b6040518963ffffffff1660e01b81526004016200067798979695949392919062001716565b5f604051808303815f87803b1580156200068f575f80fd5b505af1158015620006a2573d5f803e3d5ffd5b5050505050505050505050565b5f7f0000000000000000000000000000000000000000000000000000000000000000826040516020016200070f9291909182527fffffffff0000000000000000000000000000000000000000000000000000000016602082015260240190565b604051602081830303815290604052805190602001209050919050565b604080516060810182525f80825260208201819052918101919091526001600160a01b0380831660408301527f00000000000000000000000000000000000000000000000000000000000000001663eeec802f86865f6200078c62000a19565b5f878a620007d560408051608080820183525f80835260208084018290528385018290526060938401829052845192830185528183529282015260019181018290529182015290565b6040518963ffffffff1660e01b8152600401620007fa98979695949392919062001716565b5f604051808303815f87803b15801562000812575f80fd5b505af115801562000825573d5f803e3d5ffd5b505050505050505050565b5f7f00000000000000000000000000000000000000000000000000000000000000006001600160a01b031663aaabadc56040518163ffffffff1660e01b8152600401602060405180830381865afa1580156200088e573d5f803e3d5ffd5b505050506040513d601f19601f82011682018060405250810190620008b49190620017fa565b905090565b604080516060810182525f80825260208201819052918101919091527f00000000000000000000000000000000000000000000000000000000000000006001600160a01b031663eeec802f85855f6200091162000a19565b5f87896200095a60408051608080820183525f80835260208084018290528385018290526060938401829052845192830185528183529282015260019181018290529182015290565b6040518963ffffffff1660e01b81526004016200097f98979695949392919062001716565b5f604051808303815f87803b15801562000997575f80fd5b505af1158015620009aa573d5f803e3d5ffd5b5050505050505050565b7f00000000000000000000000000000000000000000000000000000000000000006001600160a01b031663eeec802f86865f620009f062000a19565b5f8989896040518963ffffffff1660e01b8152600401620007fa989796959493929190620015b0565b5f7f000000000000000000000000000000000000000000000000000000000000000063ffffffff16421062000a4d57505f90565b507f000000000000000000000000000000000000000000000000000000000000000090565b604080516060810182525f80825260208201819052918101919091527f00000000000000000000000000000000000000000000000000000000000000006001600160a01b031663eeec802f87878762000aca62000a19565b5f878a8a6040518963ffffffff1660e01b8152600401620003c4989796959493929190620015b0565b5f62000b225f357fffffffff0000000000000000000000000000000000000000000000000000000016620006af565b905062000b30813362000c30565b62000b67576040517f23dada5300000000000000000000000000000000000000000000000000000000815260040160405180910390fd5b50565b60015460ff161562000ba8576040517f75884cda00000000000000000000000000000000000000000000000000000000815260040160405180910390fd5b565b604080513360208201524691810191909152606081018290525f906080016200070f565b5f6200045b823062000cce565b62000be562000b6a565b6001600160a01b0381165f81815260208190526040808220805460ff19166001179055517f83a48fbcfc991335314e74d0496aab6a1987e992ddc85dddbcc4d6dd6ef2e9fc9190a250565b5f62000c3b62000830565b6040517f9be2a884000000000000000000000000000000000000000000000000000000008152600481018590526001600160a01b0384811660248301523060448301529190911690639be2a88490606401602060405180830381865afa15801562000ca8573d5f803e3d5ffd5b505050506040513d601f19601f82011682018060405250810190620004ca919062001818565b604080518082018252601081527f67363d3d37363d34f03d5260086018f30000000000000000000000000000000060209182015290517fff00000000000000000000000000000000000000000000000000000000000000918101919091526bffffffffffffffffffffffff19606083901b166021820152603581018390527f21c35dbe1b344a2488cf3321d6ce542f8e9f305544ff09e4993a62319a497c1f60558201525f90819062000d98906075015b6040516020818303038152906040528051906020012090565b6040517fd69400000000000000000000000000000000000000000000000000000000000060208201526bffffffffffffffffffffffff19606083901b1660228201527f0100000000000000000000000000000000000000000000000000000000000000603682015290915062000e119060370162000d7f565b949350505050565b612b54806200183783390190565b6001600160a01b038116811462000b67575f80fd5b634e487b7160e01b5f52604160045260245ffd5b6040516080810167ffffffffffffffff8111828210171562000e765762000e7662000e3c565b60405290565b604051601f8201601f1916810167ffffffffffffffff8111828210171562000ea85762000ea862000e3c565b604052919050565b801515811462000b67575f80fd5b5f82601f83011262000ece575f80fd5b8135602067ffffffffffffffff82111562000eed5762000eed62000e3c565b62000efd818360051b0162000e7c565b82815260079290921b8401810191818101908684111562000f1c575f80fd5b8286015b8481101562000fa0576080818903121562000f39575f80fd5b62000f4362000e50565b813562000f508162000e27565b8152818501356002811062000f63575f80fd5b8186015260408281013562000f788162000e27565b9082015260608281013562000f8d8162000eb0565b9082015283529183019160800162000f20565b509695505050505050565b803563ffffffff8116811462000fbf575f80fd5b919050565b5f6060828403121562000fd5575f80fd5b6040516060810181811067ffffffffffffffff8211171562000ffb5762000ffb62000e3c565b60405290508082356200100e8162000e27565b81526020830135620010208162000e27565b60208201526040830135620010358162000e27565b6040919091015292915050565b5f6080828403121562001053575f80fd5b50919050565b5f805f805f80610160878903121562001070575f80fd5b86356200107d8162000e27565b9550602087013567ffffffffffffffff81111562001099575f80fd5b620010a789828a0162000ebe565b955050620010b86040880162000fab565b9350620010c9886060890162000fc4565b925060c0870135620010db8162000e27565b9150620010ec8860e0890162001042565b90509295509295509295565b5f6020828403121562001109575f80fd5b5035919050565b5f82601f83011262001120575f80fd5b813567ffffffffffffffff8111156200113d576200113d62000e3c565b62001152601f8201601f191660200162000e7c565b81815284602083860101111562001167575f80fd5b816020850160208301375f918101602001919091529392505050565b5f806040838503121562001195575f80fd5b823567ffffffffffffffff80821115620011ad575f80fd5b620011bb8683870162001110565b93506020850135915080821115620011d1575f80fd5b50620011e08582860162001110565b9150509250929050565b5f60208284031215620011fb575f80fd5b8135620004ca8162000e27565b5f80604083850312156200121a575f80fd5b8235620012278162000e27565b9150602083013567ffffffffffffffff81111562001243575f80fd5b620011e08582860162000ebe565b5f805f805f805f610120888a03121562001269575f80fd5b8735620012768162000e27565b9650602088013567ffffffffffffffff81111562001292575f80fd5b620012a08a828b0162000ebe565b96505060408801359450620012b86060890162000fab565b93506080880135620012ca8162000eb0565b9250620012db8960a08a0162000fc4565b9150610100880135620012ee8162000e27565b8091505092959891949750929550565b5f602082840312156200130f575f80fd5b81357fffffffff0000000000000000000000000000000000000000000000000000000081168114620004ca575f80fd5b5f805f806080858703121562001353575f80fd5b8435620013608162000e27565b9350602085013567ffffffffffffffff8111156200137c575f80fd5b6200138a8782880162000ebe565b93505060408501356200139d8162000e27565b91506060850135620013af8162000e27565b939692955090935050565b5f805f60608486031215620013cd575f80fd5b8335620013da8162000e27565b9250602084013567ffffffffffffffff811115620013f6575f80fd5b620014048682870162000ebe565b9250506040840135620014178162000e27565b809150509250925092565b5f805f805f610140868803121562001438575f80fd5b8535620014458162000e27565b9450602086013567ffffffffffffffff81111562001461575f80fd5b6200146f8882890162000ebe565b94505062001481876040880162000fc4565b925060a0860135620014938162000e27565b9150620014a48760c0880162001042565b90509295509295909350565b5f805f805f6101008688031215620014c6575f80fd5b8535620014d38162000e27565b9450602086013567ffffffffffffffff811115620014ef575f80fd5b620014fd8882890162000ebe565b945050604086013592506060860135620015178162000e27565b9150620014a4876080880162001042565b5f815180845260208085019450602084015f5b83811015620015a55781516001600160a01b0380825116895284820151600281106200157557634e487b7160e01b5f52602160045260245ffd5b8986015260408281015190911690890152606090810151151590880152608090960195908201906001016200153b565b509495945050505050565b5f6101a06001600160a01b03808c168452816020850152620015d58285018c62001528565b60408581018c905263ffffffff8b166060870152891515608087015288516001600160a01b0390811660a088015260208a0151811660c0880152908901511660e086015292508516610100840152508235620016318162000eb0565b15156101208301526020830135620016498162000eb0565b15156101408301526040830135620016618162000eb0565b15156101608301526060830135620016798162000eb0565b801515610180840152509998505050505050505050565b5f81518084525f5b81811015620016b65760208185018101518683018201520162001698565b505f602082860101526020601f19601f83011685010191505092915050565b6001600160a01b0384168152606060208201525f620016f8606083018562001690565b82810360408401526200170c818562001690565b9695505050505050565b5f6101a06001600160a01b03808c1684528160208501526200173b8285018c62001528565b60408581018c905263ffffffff8b166060870152891515608087015288516001600160a01b0390811660a088015260208a0151811660c0880152908901511660e0860152925094909416610100830152825115156101208301526020830151151561014083015260408301511515610160830152606090920151151561018090910152979650505050505050565b63ffffffff818116838216019080821115620017f357634e487b7160e01b5f52601160045260245ffd5b5092915050565b5f602082840312156200180b575f80fd5b8151620004ca8162000e27565b5f6020828403121562001829575f80fd5b8151620004ca8162000eb056fe6101a0604052670de0b6b3a76400006005553480156200001d575f80fd5b5060405162002b5438038062002b548339810160408190526200004091620002aa565b828383838282604051806040016040528060018152602001603160f81b815250620000755f836200016160201b90919060201c565b610120526200008681600162000161565b61014052815160208084019190912060e052815190820120610100524660a0526200011360e05161010051604080517f8b73c3c69bb8fe3d512ecc4cf759cc79239f7b179b0ffacaa9a75d522b39400f60208201529081019290925260608201524660808201523060a08201525f9060c00160405160208183030381529060405280519060200120905090565b60805250503060c0526001600160a01b0316610160526003620001378382620003b8565b506004620001468282620003b8565b505050506001600160a01b03166101805250620004dc915050565b5f6020835110156200018057620001788362000199565b905062000193565b816200018d8482620003b8565b5060ff90505b92915050565b5f80829050601f81511115620001cf578260405163305a27a960e01b8152600401620001c6919062000484565b60405180910390fd5b8051620001dc82620004b8565b179392505050565b634e487b7160e01b5f52604160045260245ffd5b5f5b8381101562000214578181015183820152602001620001fa565b50505f910152565b5f82601f8301126200022c575f80fd5b81516001600160401b0380821115620002495762000249620001e4565b604051601f8301601f19908116603f01168101908282118183101715620002745762000274620001e4565b816040528381528660208588010111156200028d575f80fd5b620002a0846020830160208901620001f8565b9695505050505050565b5f805f60608486031215620002bd575f80fd5b83516001600160a01b0381168114620002d4575f80fd5b60208501519093506001600160401b0380821115620002f1575f80fd5b620002ff878388016200021c565b9350604086015191508082111562000315575f80fd5b5062000324868287016200021c565b9150509250925092565b600181811c908216806200034357607f821691505b6020821081036200036257634e487b7160e01b5f52602260045260245ffd5b50919050565b601f821115620003b357805f5260205f20601f840160051c810160208510156200038f5750805b601f840160051c820191505b81811015620003b0575f81556001016200039b565b50505b505050565b81516001600160401b03811115620003d457620003d4620001e4565b620003ec81620003e584546200032e565b8462000368565b602080601f83116001811462000422575f84156200040a5750858301515b5f19600386901b1c1916600185901b1785556200047c565b5f85815260208120601f198616915b82811015620004525788860151825594840194600190910190840162000431565b50858210156200047057878501515f19600388901b60f8161c191681555b505060018460011b0185555b505050505050565b602081525f8251806020840152620004a4816040850160208701620001f8565b601f01601f19169190910160400192915050565b8051602080830151919081101562000362575f1960209190910360031b1b16919050565b60805160a05160c05160e05161010051610120516101405161016051610180516125b0620005a45f395f8181610b6201528181610d3e01528181610e5001528181610efa0152610f9d01525f81816104870152818161066601528181610760015281816108260152818161092801528181610a5001528181610cdc0152818161115801528181611217015281816112de015261149a01525f61151c01525f6114f001525f61141201525f6113ea01525f61134501525f61136f01525f61139901526125b05ff3fe608060405234801561000f575f80fd5b5060043610610269575f3560e01c806372c9818611610157578063aa6ca808116100d2578063ce20ece711610088578063d505accf1161006e578063d505accf1461055f578063dd62ed3e14610572578063e4c4366314610585575f80fd5b8063ce20ece714610551578063d335b0cf14610557575f80fd5b8063abb1dc44116100b8578063abb1dc4414610531578063b156aa0a14610549578063b677fa5614610551575f80fd5b8063aa6ca808146104f9578063ab68e28c1461050e575f80fd5b80638d928af811610127578063979ac7021161010d578063979ac702146104b9578063984de9e8146104d3578063a9059cbb146104e6575f80fd5b80638d928af81461047a57806395d89b41146104b1575f80fd5b806372c981861461041c5780637ecebe001461042f57806381fa807c1461044257806384b0196e1461045f575f80fd5b8063313ce567116101e75780635687f2b8116101b7578063654cf15d1161019d578063654cf15d146103f3578063679aefce1461040157806370a0823114610409575f80fd5b80635687f2b8146103cd578063641579a6146103e0575f80fd5b8063313ce5671461038e578063360c340f1461039d5780633644e515146103b25780634cfe8d1a146103ba575f80fd5b806318160ddd1161023c57806323de66511161022257806323de66511461033b578063273c1adf1461035057806330adf81f14610367575f80fd5b806318160ddd1461032057806323b872dd14610328575f80fd5b806301ffc9a71461026d57806306fdde03146102d7578063095ea7b3146102ec57806316a0b3e0146102ff575b5f80fd5b6102c261027b3660046118aa565b7fffffffff00000000000000000000000000000000000000000000000000000000167f01ffc9a7000000000000000000000000000000000000000000000000000000001490565b60405190151581526020015b60405180910390f35b6102df6105a8565b6040516102ce919061192c565b6102c26102fa366004611952565b610638565b61031261030d366004611a9d565b6106df565b6040519081526020016102ce565b610312610730565b6102c2610336366004611ae7565b6107d7565b61034e610349366004611ae7565b61089d565b005b701d6329f1c35ca4bfabb9f5610000000000610312565b6103127f6e71edae12b1b97f4d1f60370fef10105fa2faae0126114a169c64845d6126c981565b604051601281526020016102ce565b6103a56108f7565b6040516102ce9190611b5f565b6103126109a1565b61034e6103c8366004611b71565b600655565b61034e6103db366004611ae7565b6109aa565b61034e6103ee366004611b71565b600555565b670de0b6b3a7640000610312565b6103126109f7565b610312610417366004611b88565b610a10565b61031261042a366004611ba3565b610abb565b61031261043d366004611b88565b610b09565b61044a610b26565b604080519283526020830191909152016102ce565b610467610be1565b6040516102ce9796959493929190611bda565b6040516001600160a01b037f00000000000000000000000000000000000000000000000000000000000000001681526020016102ce565b6102df610c3f565b61034e335f90815260026020526040902080546001019055565b6103126104e1366004611c6f565b610c51565b6102c26104f4366004611952565b610c95565b610501610d0d565b6040516102ce9190611cf6565b61052161051c366004611d74565b610db1565b6040516102ce9493929190611e12565b610539610e11565b6040516102ce9493929190611e6f565b6103a5610ec9565b5f610312565b610312610f6d565b61034e61056d366004611f1e565b610fd4565b610312610580366004611f8f565b6111cf565b610598610593366004611fbb565b611289565b6040516102ce949392919061201e565b6060600380546105b790612048565b80601f01602080910402602001604051908101604052809291908181526020018280546105e390612048565b801561062e5780601f106106055761010080835404028352916020019161062e565b820191905f5260205f20905b81548152906001019060200180831161061157829003601f168201915b5050505050905090565b60405163e1f21c6760e01b81523360048201526001600160a01b038381166024830152604482018390525f917f00000000000000000000000000000000000000000000000000000000000000009091169063e1f21c67906064015b6020604051808303815f875af11580156106af573d5f803e3d5ffd5b505050506040513d601f19601f820116820180604052508101906106d3919061208e565b50600190505b92915050565b5f806106ec856001610c51565b9050806106f981856112ab565b86868151811061070b5761070b6120a7565b602002602001015161071d91906120cf565b61072791906120e2565b95945050505050565b6040517fe4dc2aa40000000000000000000000000000000000000000000000000000000081523060048201525f907f00000000000000000000000000000000000000000000000000000000000000006001600160a01b03169063e4dc2aa4906024015b602060405180830381865afa1580156107ae573d5f803e3d5ffd5b505050506040513d601f19601f820116820180604052508101906107d291906120f5565b905090565b6040517f15dacbea0000000000000000000000000000000000000000000000000000000081523360048201526001600160a01b0384811660248301528381166044830152606482018390525f917f0000000000000000000000000000000000000000000000000000000000000000909116906315dacbea906084016020604051808303815f875af115801561086e573d5f803e3d5ffd5b505050506040513d601f19601f82011682018060405250810190610892919061208e565b506001949350505050565b6108a56112d3565b816001600160a01b0316836001600160a01b03167fddf252ad1be2c89b69c2b068fc378daa952ba7f163c4a11628f55a4df523b3ef836040516108ea91815260200190565b60405180910390a3505050565b6040517f7e361bde0000000000000000000000000000000000000000000000000000000081523060048201526060907f00000000000000000000000000000000000000000000000000000000000000006001600160a01b031690637e361bde906024015f60405180830381865afa158015610974573d5f803e3d5ffd5b505050506040513d5f823e601f3d908101601f1916820160405261099b9190810190612168565b50919050565b5f6107d2611339565b6109b26112d3565b816001600160a01b0316836001600160a01b03167f8c5be1e5ebec7d5bd14f71427d1e84f3dd0314c0f7b2291e5b200ac8c7c3b925836040516108ea91815260200190565b5f6006545f14610a08575060065490565b6107d2611462565b6040517ff7888aec0000000000000000000000000000000000000000000000000000000081523060048201526001600160a01b0382811660248301525f917f00000000000000000000000000000000000000000000000000000000000000009091169063f7888aec90604401602060405180830381865afa158015610a97573d5f803e3d5ffd5b505050506040513d601f19601f820116820180604052508101906106d991906120f5565b5f80610aca60208401846121c8565b6001811115610adb57610adb611e5b565b14610af757600554610af2906020840135906114c9565b6106d9565b6005546106d9906020840135906112ab565b6001600160a01b0381165f908152600260205260408120546106d9565b6040517ff29486a10000000000000000000000000000000000000000000000000000000081523060048201525f90819081906001600160a01b037f0000000000000000000000000000000000000000000000000000000000000000169063f29486a1906024016101a060405180830381865afa158015610ba8573d5f803e3d5ffd5b505050506040513d601f19601f82011682018060405250810190610bcc9190612288565b90508060400151925080606001519150509091565b5f6060805f805f6060610bf26114e9565b610bfa611515565b604080515f808252602082019092527f0f000000000000000000000000000000000000000000000000000000000000009b939a50919850469750309650945092509050565b6060600480546105b790612048565b50565b5f805f5b8451811015610c8d57848181518110610c7057610c706120a7565b602002602001015182610c8391906120cf565b9150600101610c55565b509392505050565b6040517fbeabacc80000000000000000000000000000000000000000000000000000000081523360048201526001600160a01b038381166024830152604482018390525f917f00000000000000000000000000000000000000000000000000000000000000009091169063beabacc890606401610693565b6040517fca4f28030000000000000000000000000000000000000000000000000000000081523060048201526060907f00000000000000000000000000000000000000000000000000000000000000006001600160a01b03169063ca4f2803906024015f60405180830381865afa158015610d8a573d5f803e3d5ffd5b505050506040513d5f823e601f3d908101601f191682016040526107d291908101906123a3565b5f60608060608787885167ffffffffffffffff811115610dd357610dd361197c565b604051908082528060200260200182016040528015610dfc578160200160208202803683370190505b50919b909a5090985094965093945050505050565b6040517f67e0e0760000000000000000000000000000000000000000000000000000000081523060048201526060908190819081906001600160a01b037f000000000000000000000000000000000000000000000000000000000000000016906367e0e076906024015f60405180830381865afa158015610e94573d5f803e3d5ffd5b505050506040513d5f823e601f3d908101601f19168201604052610ebb91908101906123d5565b935093509350935090919293565b6040517f535cfd8a0000000000000000000000000000000000000000000000000000000081523060048201526060907f00000000000000000000000000000000000000000000000000000000000000006001600160a01b03169063535cfd8a906024015f60405180830381865afa158015610f46573d5f803e3d5ffd5b505050506040513d5f823e601f3d908101601f191682016040526107d29190810190612512565b6040517fb45090f90000000000000000000000000000000000000000000000000000000081523060048201525f907f00000000000000000000000000000000000000000000000000000000000000006001600160a01b03169063b45090f990602401610793565b83421115611016576040517f62791302000000000000000000000000000000000000000000000000000000008152600481018590526024015b60405180910390fd5b5f7f6e71edae12b1b97f4d1f60370fef10105fa2faae0126114a169c64845d6126c98888886110618c6001600160a01b03165f90815260026020526040902080546001810190915590565b6040805160208101969096526001600160a01b0394851690860152929091166060840152608083015260a082015260c0810186905260e0016040516020818303038152906040528051906020012090505f6110bb82611542565b90505f6110ca82878787611589565b9050896001600160a01b0316816001600160a01b03161461112a576040517f4b800e460000000000000000000000000000000000000000000000000000000081526001600160a01b0380831660048301528b16602482015260440161100d565b60405163e1f21c6760e01b81526001600160a01b038b811660048301528a81166024830152604482018a90527f0000000000000000000000000000000000000000000000000000000000000000169063e1f21c67906064016020604051808303815f875af115801561119e573d5f803e3d5ffd5b505050506040513d601f19601f820116820180604052508101906111c2919061208e565b5050505050505050505050565b6040517f927da1050000000000000000000000000000000000000000000000000000000081523060048201526001600160a01b03838116602483015282811660448301525f917f00000000000000000000000000000000000000000000000000000000000000009091169063927da10590606401602060405180830381865afa15801561125e573d5f803e3d5ffd5b505050506040513d601f19601f8201168201806040525081019061128291906120f5565b9392505050565b60605f6060808787895167ffffffffffffffff811115610dd357610dd361197c565b5f806112b78385612544565b90506112cb670de0b6b3a76400008261255b565b949350505050565b336001600160a01b037f00000000000000000000000000000000000000000000000000000000000000001614611337576040517f089676d500000000000000000000000000000000000000000000000000000000815233600482015260240161100d565b565b5f306001600160a01b037f00000000000000000000000000000000000000000000000000000000000000001614801561139157507f000000000000000000000000000000000000000000000000000000000000000046145b156113bb57507f000000000000000000000000000000000000000000000000000000000000000090565b6107d2604080517f8b73c3c69bb8fe3d512ecc4cf759cc79239f7b179b0ffacaa9a75d522b39400f60208201527f0000000000000000000000000000000000000000000000000000000000000000918101919091527f000000000000000000000000000000000000000000000000000000000000000060608201524660808201523060a08201525f9060c00160405160208183030381529060405280519060200120905090565b6040517f4f037ee70000000000000000000000000000000000000000000000000000000081523060048201525f906001600160a01b037f00000000000000000000000000000000000000000000000000000000000000001690634f037ee790602401610793565b5f806114dd670de0b6b3a764000085612544565b90506112cb838261255b565b60606107d27f00000000000000000000000000000000000000000000000000000000000000005f6115b5565b60606107d27f000000000000000000000000000000000000000000000000000000000000000060016115b5565b5f6106d961154e611339565b836040517f19010000000000000000000000000000000000000000000000000000000000008152600281019290925260228201526042902090565b5f805f806115998888888861165e565b9250925092506115a98282611726565b50909695505050505050565b606060ff83146115cf576115c88361182d565b90506106d9565b8180546115db90612048565b80601f016020809104026020016040519081016040528092919081815260200182805461160790612048565b80156116525780601f1061162957610100808354040283529160200191611652565b820191905f5260205f20905b81548152906001019060200180831161163557829003601f168201915b505050505090506106d9565b5f80807f7fffffffffffffffffffffffffffffff5d576e7357a4501ddfe92f46681b20a084111561169757505f9150600390508261171c565b604080515f808252602082018084528a905260ff891692820192909252606081018790526080810186905260019060a0016020604051602081039080840390855afa1580156116e8573d5f803e3d5ffd5b5050604051601f1901519150506001600160a01b03811661171357505f92506001915082905061171c565b92505f91508190505b9450945094915050565b5f82600381111561173957611739611e5b565b03611742575050565b600182600381111561175657611756611e5b565b0361178d576040517ff645eedf00000000000000000000000000000000000000000000000000000000815260040160405180910390fd5b60028260038111156117a1576117a1611e5b565b036117db576040517ffce698f70000000000000000000000000000000000000000000000000000000081526004810182905260240161100d565b60038260038111156117ef576117ef611e5b565b03611829576040517fd78bce0c0000000000000000000000000000000000000000000000000000000081526004810182905260240161100d565b5050565b60605f6118398361186a565b6040805160208082528183019092529192505f91906020820181803683375050509182525060208101929092525090565b5f60ff8216601f8111156106d9576040517fb3512b0c00000000000000000000000000000000000000000000000000000000815260040160405180910390fd5b5f602082840312156118ba575f80fd5b81357fffffffff0000000000000000000000000000000000000000000000000000000081168114611282575f80fd5b5f81518084525f5b8181101561190d576020818501810151868301820152016118f1565b505f602082860101526020601f19601f83011685010191505092915050565b602081525f61128260208301846118e9565b6001600160a01b0381168114610c4e575f80fd5b5f8060408385031215611963575f80fd5b823561196e8161193e565b946020939093013593505050565b634e487b7160e01b5f52604160045260245ffd5b604051610140810167ffffffffffffffff811182821017156119b4576119b461197c565b60405290565b6040516060810167ffffffffffffffff811182821017156119b4576119b461197c565b604051601f8201601f1916810167ffffffffffffffff81118282101715611a0657611a0661197c565b604052919050565b5f67ffffffffffffffff821115611a2757611a2761197c565b5060051b60200190565b5f82601f830112611a40575f80fd5b81356020611a55611a5083611a0e565b6119dd565b8083825260208201915060208460051b870101935086841115611a76575f80fd5b602086015b84811015611a925780358352918301918301611a7b565b509695505050505050565b5f805f60608486031215611aaf575f80fd5b833567ffffffffffffffff811115611ac5575f80fd5b611ad186828701611a31565b9660208601359650604090950135949350505050565b5f805f60608486031215611af9575f80fd5b8335611b048161193e565b92506020840135611b148161193e565b929592945050506040919091013590565b5f815180845260208085019450602084015f5b83811015611b5457815187529582019590820190600101611b38565b509495945050505050565b602081525f6112826020830184611b25565b5f60208284031215611b81575f80fd5b5035919050565b5f60208284031215611b98575f80fd5b81356112828161193e565b5f60208284031215611bb3575f80fd5b813567ffffffffffffffff811115611bc9575f80fd5b820160e08185031215611282575f80fd5b7fff000000000000000000000000000000000000000000000000000000000000008816815260e060208201525f611c1460e08301896118e9565b8281036040840152611c2681896118e9565b90508660608401526001600160a01b03861660808401528460a084015282810360c0840152611c558185611b25565b9a9950505050505050505050565b60028110610c4e575f80fd5b5f8060408385031215611c80575f80fd5b823567ffffffffffffffff811115611c96575f80fd5b611ca285828601611a31565b9250506020830135611cb381611c63565b809150509250929050565b5f815180845260208085019450602084015f5b83811015611b545781516001600160a01b031687529582019590820190600101611cd1565b602081525f6112826020830184611cbe565b5f82601f830112611d17575f80fd5b813567ffffffffffffffff811115611d3157611d3161197c565b611d44601f8201601f19166020016119dd565b818152846020838601011115611d58575f80fd5b816020850160208301375f918101602001919091529392505050565b5f805f805f60a08688031215611d88575f80fd5b8535611d938161193e565b945060208601359350604086013567ffffffffffffffff80821115611db6575f80fd5b611dc289838a01611a31565b94506060880135915080821115611dd7575f80fd5b611de389838a01611a31565b93506080880135915080821115611df8575f80fd5b50611e0588828901611d08565b9150509295509295909350565b848152608060208201525f611e2a6080830186611b25565b8281036040840152611e3c8186611b25565b90508281036060840152611e5081856118e9565b979650505050505050565b634e487b7160e01b5f52602160045260245ffd5b608081525f611e816080830187611cbe565b8281036020848101919091528651808352878201928201905f5b81811015611ef4578451805160028110611ec357634e487b7160e01b5f52602160045260245ffd5b8452808501516001600160a01b03168585015260409081015115159084015293830193606090920191600101611e9b565b50508481036040860152611f088188611b25565b925050508281036060840152611e508185611b25565b5f805f805f805f60e0888a031215611f34575f80fd5b8735611f3f8161193e565b96506020880135611f4f8161193e565b95506040880135945060608801359350608088013560ff81168114611f72575f80fd5b9699959850939692959460a0840135945060c09093013592915050565b5f8060408385031215611fa0575f80fd5b8235611fab8161193e565b91506020830135611cb38161193e565b5f805f805f60a08688031215611fcf575f80fd5b8535611fda8161193e565b9450602086013567ffffffffffffffff80821115611ff6575f80fd5b61200289838a01611a31565b9550604088013594506060880135915080821115611dd7575f80fd5b608081525f6120306080830187611b25565b8560208401528281036040840152611e3c8186611b25565b600181811c9082168061205c57607f821691505b60208210810361099b57634e487b7160e01b5f52602260045260245ffd5b80518015158114612089575f80fd5b919050565b5f6020828403121561209e575f80fd5b6112828261207a565b634e487b7160e01b5f52603260045260245ffd5b634e487b7160e01b5f52601160045260245ffd5b808201808211156106d9576106d96120bb565b818103818111156106d9576106d96120bb565b5f60208284031215612105575f80fd5b5051919050565b5f82601f83011261211b575f80fd5b8151602061212b611a5083611a0e565b8083825260208201915060208460051b87010193508684111561214c575f80fd5b602086015b84811015611a925780518352918301918301612151565b5f8060408385031215612179575f80fd5b825167ffffffffffffffff80821115612190575f80fd5b61219c8683870161210c565b935060208501519150808211156121b1575f80fd5b506121be8582860161210c565b9150509250929050565b5f602082840312156121d8575f80fd5b813561128281611c63565b5f608082840312156121f3575f80fd5b6040516080810181811067ffffffffffffffff821117156122165761221661197c565b6040529050806122258361207a565b81526122336020840161207a565b60208201526122446040840161207a565b60408201526122556060840161207a565b60608201525092915050565b805164ffffffffff81168114612089575f80fd5b805163ffffffff81168114612089575f80fd5b5f6101a08284031215612299575f80fd5b6122a1611990565b6122ab84846121e3565b81526080830151602082015260a0830151604082015260c083015160608201526122d760e08401612261565b60808201526101006122ea818501612275565b60a08301526101206122fd81860161207a565b60c084015261230f610140860161207a565b60e0840152612321610160860161207a565b82840152612332610180860161207a565b90830152509392505050565b5f82601f83011261234d575f80fd5b8151602061235d611a5083611a0e565b8083825260208201915060208460051b87010193508684111561237e575f80fd5b602086015b84811015611a925780516123968161193e565b8352918301918301612383565b5f602082840312156123b3575f80fd5b815167ffffffffffffffff8111156123c9575f80fd5b6112cb8482850161233e565b5f805f80608085870312156123e8575f80fd5b845167ffffffffffffffff808211156123ff575f80fd5b61240b8883890161233e565b9550602091508187015181811115612421575f80fd5b8701601f81018913612431575f80fd5b805161243f611a5082611a0e565b8181526060918202830185019185820191908c84111561245d575f80fd5b938601935b838510156124be5780858e031215612478575f80fd5b6124806119ba565b855161248b81611c63565b81528588015161249a8161193e565b8189015260406124ab87820161207a565b9082015283529384019391860191612462565b5060408b01519098509450505050808211156124d8575f80fd5b6124e48883890161210c565b935060608701519150808211156124f9575f80fd5b506125068782880161210c565b91505092959194509250565b5f60208284031215612522575f80fd5b815167ffffffffffffffff811115612538575f80fd5b6112cb8482850161210c565b80820281158282048414176106d9576106d96120bb565b5f8261257557634e487b7160e01b5f52601260045260245ffd5b50049056fea2646970667358221220050a6cedba5ac35857eeeca7ec1670fa14e3b530d795490391544db346fd572464736f6c63430008180033a264697066735822122025d477cc8c1b24a594ffd7af86ced39a713f4acef46970ddf2ae5d060c9d561a64736f6c63430008180033608060405234801561000f575f80fd5b506107478061001d5f395ff3fe608060405234801561000f575f80fd5b506004361061003f575f3560e01c8063136deb1c14610043578063a3aef0b81461006c578063bb4ad7d514610081575b5f80fd5b61005661005136600461046d565b6100a1565b6040516100639190610507565b60405180910390f35b61007f61007a36600461046d565b6100b2565b005b61009461008f366004610553565b6100be565b6040516100639190610637565b60606100ac826101f2565b92915050565b6100bb81610324565b50565b60605f5b600183516100d091906106d7565b8110156101eb575f5b60018285516100e891906106d7565b6100f291906106d7565b8110156101e257836101058260016106ea565b81518110610115576101156106fd565b60200260200101515f01516001600160a01b031684828151811061013b5761013b6106fd565b60200260200101515f01516001600160a01b031611156101da57836101618260016106ea565b81518110610171576101716106fd565b602002602001015184828151811061018b5761018b6106fd565b60200260200101518583815181106101a5576101a56106fd565b60200260200101868460016101ba91906106ea565b815181106101ca576101ca6106fd565b6020026020010182905282905250505b6001016100d9565b506001016100c2565b5090919050565b60605f5b6001835161020491906106d7565b8110156101eb575f5b600182855161021c91906106d7565b61022691906106d7565b81101561031b57836102398260016106ea565b81518110610249576102496106fd565b60200260200101516001600160a01b031684828151811061026c5761026c6106fd565b60200260200101516001600160a01b03161115610313578361028f8260016106ea565b8151811061029f5761029f6106fd565b60200260200101518482815181106102b9576102b96106fd565b60200260200101518583815181106102d3576102d36106fd565b60200260200101868460016102e891906106ea565b815181106102f8576102f86106fd565b6001600160a01b039384166020918202929092010152911690525b60010161020d565b506001016101f6565b5f815f81518110610337576103376106fd565b602002602001015190505f600190505b82518110156103c3575f838281518110610363576103636106fd565b60200260200101519050806001600160a01b0316836001600160a01b031611156103b9576040517f6e8f194700000000000000000000000000000000000000000000000000000000815260040160405180910390fd5b9150600101610347565b505050565b634e487b7160e01b5f52604160045260245ffd5b6040516080810167ffffffffffffffff811182821017156103ff576103ff6103c8565b60405290565b604051601f8201601f1916810167ffffffffffffffff8111828210171561042e5761042e6103c8565b604052919050565b5f67ffffffffffffffff82111561044f5761044f6103c8565b5060051b60200190565b6001600160a01b03811681146100bb575f80fd5b5f602080838503121561047e575f80fd5b823567ffffffffffffffff811115610494575f80fd5b8301601f810185136104a4575f80fd5b80356104b76104b282610436565b610405565b81815260059190911b820183019083810190878311156104d5575f80fd5b928401925b828410156104fc5783356104ed81610459565b825292840192908401906104da565b979650505050505050565b602080825282518282018190525f9190848201906040850190845b818110156105475783516001600160a01b031683529284019291840191600101610522565b50909695505050505050565b5f6020808385031215610564575f80fd5b823567ffffffffffffffff81111561057a575f80fd5b8301601f8101851361058a575f80fd5b80356105986104b282610436565b81815260079190911b820183019083810190878311156105b6575f80fd5b928401925b828410156104fc57608084890312156105d2575f80fd5b6105da6103dc565b84356105e581610459565b815284860135600281106105f7575f80fd5b8187015260408581013561060a81610459565b908201526060858101358015158114610621575f80fd5b90820152825260809390930192908401906105bb565b602080825282518282018190525f919060409081850190868401855b828110156106b65781516001600160a01b03808251168652878201516002811061068b57634e487b7160e01b5f52602160045260245ffd5b8689015281870151168686015260609081015115159085015260809093019290850190600101610653565b5091979650505050505050565b634e487b7160e01b5f52601160045260245ffd5b818103818111156100ac576100ac6106c3565b808201808211156100ac576100ac6106c3565b634e487b7160e01b5f52603260045260245ffdfea2646970667358221220719175937dc9789bda491e3fc021e434161177842f74d0c4dbb623ce7ca7cf9164736f6c63430008180033","linkReferences":{}},"methodIdentifiers":{"accountDelta(address,int256)":"80047e26","addLiquidity((address,address,uint256[],uint256,uint8,bytes))":"4af29ec4","buildTokenConfig(address[])":"24e7176b","buildTokenConfig(address[],address[])":"5f70f542","buildTokenConfig(address[],address[],bool[])":"e5948689","buildTokenConfig(address[],uint8[],address[],bool[])":"608256f7","burnERC20(address,address,uint256)":"1d27af68","computeYieldFeesDue((bytes32,address[],(uint8,address,bool)[],uint256[],uint256[],uint256[],uint256[]),uint256,uint256,uint256)":"08bade29","ensurePoolNotPaused(address)":"02e1a4aa","ensureUnpausedAndGetVaultState(address)":"e460a8a9","ensureValidSwapAmount(uint256)":"b4eb0bf9","ensureValidTradeAmount(uint256)":"2cbbf198","erc4626BufferWrapOrUnwrap((uint8,uint8,address,uint256,uint256))":"43583be5","forceLock()":"6d4908c4","forceUnlock()":"7965c967","getAuthorizer()":"aaabadc5","getBufferTokenBalancesBytes(address)":"e5b08ffb","getLastLiveBalances(address)":"3cce2585","getPoolFactoryMock()":"87a76c59","getPoolTokenCountAndIndexOfToken(address,address)":"c9c1661b","getRawBalances(address)":"19a24bcb","getVaultExtension()":"b9a8effa","guardedCheckEntered()":"a408f312","internalGetBufferUnderlyingImbalance(address)":"2606a4de","internalGetBufferWrappedImbalance(address)":"a40f9592","loadPoolDataUpdatingBalancesAndYieldFees(address,uint8)":"0f682ba0","loadPoolDataUpdatingBalancesAndYieldFeesReentrancy(address,uint8)":"dc4402ed","manualAddLiquidity((bytes32,address[],(uint8,address,bool)[],uint256[],uint256[],uint256[],uint256[]),(address,address,uint256[],uint256,uint8,bytes),uint256[])":"0790de46","manualBuildPoolSwapParams((uint8,address,address,address,uint256,uint256,bytes),(uint256,uint256,uint256,uint256),(bytes32,address[],(uint8,address,bool)[],uint256[],uint256[],uint256[],uint256[]))":"16a573c2","manualComputeAndChargeAggregateSwapFees((bytes32,address[],(uint8,address,bool)[],uint256[],uint256[],uint256[],uint256[]),uint256,address,address,uint256)":"be6b4d2a","manualErc4626BufferWrapOrUnwrapReentrancy((uint8,uint8,address,uint256,uint256))":"370bc8da","manualFindTokenIndex(address[],address)":"ebfeb0a1","manualGetAggregateSwapFeeAmount(address,address)":"36918d6e","manualGetAggregateYieldFeeAmount(address,address)":"8f5aeb4b","manualGetIsUnlocked()":"b2469499","manualGetNonzeroDeltaCount()":"155075e6","manualGetPoolConfigBits(address)":"557dba68","manualGetTokenDeltas()":"1f4475c5","manualInternalSwap((uint8,address,address,address,uint256,uint256,bytes),(uint256,uint256,uint256,uint256),(bytes32,address[],(uint8,address,bool)[],uint256[],uint256[],uint256[],uint256[]))":"25b6a844","manualReentrancyAddLiquidity((bytes32,address[],(uint8,address,bool)[],uint256[],uint256[],uint256[],uint256[]),(address,address,uint256[],uint256,uint8,bytes),uint256[])":"eeda9991","manualReentrancyRemoveLiquidity((bytes32,address[],(uint8,address,bool)[],uint256[],uint256[],uint256[],uint256[]),(address,address,uint256,uint256[],uint8,bytes),uint256[])":"28121e27","manualReentrancySwap((uint8,address,address,address,uint256,uint256,bytes),(uint256,uint256,uint256,uint256),(bytes32,address[],(uint8,address,bool)[],uint256[],uint256[],uint256[],uint256[]))":"96e74a27","manualRegisterPool(address,address[])":"851c65a3","manualRegisterPoolAtTimestamp(address,address[],uint32,(address,address,address))":"0362a513","manualRegisterPoolPassThruTokens(address,address[])":"32333ce6","manualRegisterPoolWithSwapFee(address,address[],uint256)":"1f495f79","manualRemoveLiquidity((bytes32,address[],(uint8,address,bool)[],uint256[],uint256[],uint256[],uint256[]),(address,address,uint256,uint256[],uint8,bytes),uint256[])":"f1320097","manualSendToReentrancy(address,address,uint256)":"d01a3269","manualSetAccountDelta(address,int256)":"d0643b8c","manualSetAddLiquidityCalledFlag(address,bool)":"e2ddce11","manualSetAggregateSwapFeeAmount(address,address,uint256)":"44ea8763","manualSetAggregateSwapFeePercentage(address,uint256)":"cfcc2209","manualSetAggregateYieldFeeAmount(address,address,uint256)":"7004b0f1","manualSetAggregateYieldFeePercentage(address,uint256)":"920af066","manualSetBufferAsset(address,address)":"ab62c2b6","manualSetBufferBalances(address,uint256,uint256)":"0ee4cdd8","manualSetBufferOwnerShares(address,address,uint256)":"ff44deab","manualSetBufferTotalShares(address,uint256)":"3cb5b2af","manualSetHooksConfig(address,(bool,bool,bool,bool,bool,bool,bool,bool,bool,bool,address))":"c1fdcd62","manualSetInitializedPool(address,bool)":"5e3e00fa","manualSetNonZeroDeltaCount(uint256)":"5eeae6eb","manualSetPoolBalances(address,uint256[],uint256[])":"1c4e1e23","manualSetPoolConfig(address,((bool,bool,bool,bool),uint256,uint256,uint256,uint40,uint32,bool,bool,bool,bool))":"5c1c1c81","manualSetPoolConfigBits(address,bytes32)":"df138458","manualSetPoolCreator(address,address)":"79a2c0ac","manualSetPoolPauseWindowEndTime(address,uint32)":"0c87409b","manualSetPoolPaused(address,bool)":"cbde2b68","manualSetPoolRegistered(address,bool)":"352339ee","manualSetPoolTokenInfo(address,(address,uint8,address,bool)[])":"dab50579","manualSetPoolTokenInfo(address,address[],(uint8,address,bool)[])":"bb14e466","manualSetPoolTokensAndBalances(address,address[],uint256[],uint256[])":"d8f4cf3c","manualSetReservesOf(address,uint256)":"d64bc25d","manualSetStaticSwapFeePercentage(address,uint256)":"195aaef9","manualSetVaultPaused(bool)":"692407ae","manualSetVaultState(bool,bool)":"10c1dc41","manualSettleReentrancy(address)":"2d1c3beb","manualSettleUnwrap(address,address,uint256,uint256)":"b6f680f4","manualSettleWrap(address,address,uint256,uint256)":"ac004855","manualTransfer(address,address,uint256)":"00d7aadb","manualUnsafeSetStaticSwapFeePercentage(address,uint256)":"2b766278","manualUpdatePoolDataLiveBalancesAndRates(address,(bytes32,address[],(uint8,address,bool)[],uint256[],uint256[],uint256[],uint256[]),uint8)":"d86c3fef","mintERC20(address,address,uint256)":"47c07e88","mockIsUnlocked()":"b8caceee","mockWithInitializedPool(address)":"62691e5f","recoveryModeExit(address)":"87a530f8","reentrancyGuardEntered()":"d2c725e0","removeLiquidity((address,address,uint256,uint256[],uint8,bytes))":"21457897","sendTo(address,address,uint256)":"ae639329","settle(address,uint256)":"15afd409","supplyCredit(address,uint256)":"b1740c2d","swap((uint8,address,address,address,uint256,uint256,bytes))":"2bfb780c","takeDebt(address,uint256)":"3e262ba3","unguardedCheckNotEntered()":"cecc95a7","unlock(bytes)":"48c89491","updateLiveTokenBalanceInPoolData((bytes32,address[],(uint8,address,bool)[],uint256[],uint256[],uint256[],uint256[]),uint256,uint8,uint256)":"aa01edb3"},"id":123}