{"abi":[{"type":"constructor","inputs":[{"name":"mainVault","type":"address","internalType":"contract IVault"},{"name":"pauseWindowDuration","type":"uint32","internalType":"uint32"},{"name":"bufferPeriodDuration","type":"uint32","internalType":"uint32"},{"name":"minTradeAmount","type":"uint256","internalType":"uint256"},{"name":"minWrapAmount","type":"uint256","internalType":"uint256"}],"stateMutability":"nonpayable"},{"type":"fallback","stateMutability":"payable"},{"type":"receive","stateMutability":"payable"},{"type":"function","name":"addLiquidityToBuffer","inputs":[{"name":"wrappedToken","type":"address","internalType":"contract IERC4626"},{"name":"exactSharesToIssue","type":"uint256","internalType":"uint256"},{"name":"sharesOwner","type":"address","internalType":"address"}],"outputs":[{"name":"amountUnderlyingRaw","type":"uint256","internalType":"uint256"},{"name":"amountWrappedRaw","type":"uint256","internalType":"uint256"}],"stateMutability":"nonpayable"},{"type":"function","name":"areBuffersPaused","inputs":[],"outputs":[{"name":"","type":"bool","internalType":"bool"}],"stateMutability":"view"},{"type":"function","name":"collectAggregateFees","inputs":[{"name":"pool","type":"address","internalType":"address"}],"outputs":[{"name":"totalSwapFees","type":"uint256[]","internalType":"uint256[]"},{"name":"totalYieldFees","type":"uint256[]","internalType":"uint256[]"}],"stateMutability":"nonpayable"},{"type":"function","name":"disableQuery","inputs":[],"outputs":[],"stateMutability":"nonpayable"},{"type":"function","name":"disableRecoveryMode","inputs":[{"name":"pool","type":"address","internalType":"address"}],"outputs":[],"stateMutability":"nonpayable"},{"type":"function","name":"enableRecoveryMode","inputs":[{"name":"pool","type":"address","internalType":"address"}],"outputs":[],"stateMutability":"nonpayable"},{"type":"function","name":"getActionId","inputs":[{"name":"selector","type":"bytes4","internalType":"bytes4"}],"outputs":[{"name":"","type":"bytes32","internalType":"bytes32"}],"stateMutability":"view"},{"type":"function","name":"getBufferAsset","inputs":[{"name":"wrappedToken","type":"address","internalType":"contract IERC4626"}],"outputs":[{"name":"underlyingToken","type":"address","internalType":"address"}],"stateMutability":"view"},{"type":"function","name":"getBufferBalance","inputs":[{"name":"token","type":"address","internalType":"contract IERC4626"}],"outputs":[{"name":"","type":"uint256","internalType":"uint256"},{"name":"","type":"uint256","internalType":"uint256"}],"stateMutability":"view"},{"type":"function","name":"getBufferMinimumTotalSupply","inputs":[],"outputs":[{"name":"","type":"uint256","internalType":"uint256"}],"stateMutability":"pure"},{"type":"function","name":"getBufferOwnerShares","inputs":[{"name":"token","type":"address","internalType":"contract IERC4626"},{"name":"user","type":"address","internalType":"address"}],"outputs":[{"name":"shares","type":"uint256","internalType":"uint256"}],"stateMutability":"view"},{"type":"function","name":"getBufferPeriodDuration","inputs":[],"outputs":[{"name":"","type":"uint32","internalType":"uint32"}],"stateMutability":"view"},{"type":"function","name":"getBufferPeriodEndTime","inputs":[],"outputs":[{"name":"","type":"uint32","internalType":"uint32"}],"stateMutability":"view"},{"type":"function","name":"getBufferTotalShares","inputs":[{"name":"token","type":"address","internalType":"contract IERC4626"}],"outputs":[{"name":"shares","type":"uint256","internalType":"uint256"}],"stateMutability":"view"},{"type":"function","name":"getMaximumPoolTokens","inputs":[],"outputs":[{"name":"","type":"uint256","internalType":"uint256"}],"stateMutability":"pure"},{"type":"function","name":"getMinimumPoolTokens","inputs":[],"outputs":[{"name":"","type":"uint256","internalType":"uint256"}],"stateMutability":"pure"},{"type":"function","name":"getMinimumTradeAmount","inputs":[],"outputs":[{"name":"","type":"uint256","internalType":"uint256"}],"stateMutability":"view"},{"type":"function","name":"getMinimumWrapAmount","inputs":[],"outputs":[{"name":"","type":"uint256","internalType":"uint256"}],"stateMutability":"view"},{"type":"function","name":"getPauseWindowEndTime","inputs":[],"outputs":[{"name":"","type":"uint32","internalType":"uint32"}],"stateMutability":"view"},{"type":"function","name":"getPoolMinimumTotalSupply","inputs":[],"outputs":[{"name":"","type":"uint256","internalType":"uint256"}],"stateMutability":"pure"},{"type":"function","name":"getVaultPausedState","inputs":[],"outputs":[{"name":"","type":"bool","internalType":"bool"},{"name":"","type":"uint32","internalType":"uint32"},{"name":"","type":"uint32","internalType":"uint32"}],"stateMutability":"view"},{"type":"function","name":"initializeBuffer","inputs":[{"name":"wrappedToken","type":"address","internalType":"contract IERC4626"},{"name":"amountUnderlyingRaw","type":"uint256","internalType":"uint256"},{"name":"amountWrappedRaw","type":"uint256","internalType":"uint256"},{"name":"sharesOwner","type":"address","internalType":"address"}],"outputs":[{"name":"issuedShares","type":"uint256","internalType":"uint256"}],"stateMutability":"nonpayable"},{"type":"function","name":"isVaultPaused","inputs":[],"outputs":[{"name":"","type":"bool","internalType":"bool"}],"stateMutability":"view"},{"type":"function","name":"pausePool","inputs":[{"name":"pool","type":"address","internalType":"address"}],"outputs":[],"stateMutability":"nonpayable"},{"type":"function","name":"pauseVault","inputs":[],"outputs":[],"stateMutability":"nonpayable"},{"type":"function","name":"pauseVaultBuffers","inputs":[],"outputs":[],"stateMutability":"nonpayable"},{"type":"function","name":"reentrancyGuardEntered","inputs":[],"outputs":[{"name":"","type":"bool","internalType":"bool"}],"stateMutability":"view"},{"type":"function","name":"removeLiquidityFromBuffer","inputs":[{"name":"wrappedToken","type":"address","internalType":"contract IERC4626"},{"name":"sharesToRemove","type":"uint256","internalType":"uint256"}],"outputs":[{"name":"removedUnderlyingBalanceRaw","type":"uint256","internalType":"uint256"},{"name":"removedWrappedBalanceRaw","type":"uint256","internalType":"uint256"}],"stateMutability":"nonpayable"},{"type":"function","name":"removeLiquidityFromBufferHook","inputs":[{"name":"wrappedToken","type":"address","internalType":"contract IERC4626"},{"name":"sharesToRemove","type":"uint256","internalType":"uint256"},{"name":"sharesOwner","type":"address","internalType":"address"}],"outputs":[{"name":"removedUnderlyingBalanceRaw","type":"uint256","internalType":"uint256"},{"name":"removedWrappedBalanceRaw","type":"uint256","internalType":"uint256"}],"stateMutability":"nonpayable"},{"type":"function","name":"setAuthorizer","inputs":[{"name":"newAuthorizer","type":"address","internalType":"contract IAuthorizer"}],"outputs":[],"stateMutability":"nonpayable"},{"type":"function","name":"setProtocolFeeController","inputs":[{"name":"newProtocolFeeController","type":"address","internalType":"contract IProtocolFeeController"}],"outputs":[],"stateMutability":"nonpayable"},{"type":"function","name":"setStaticSwapFeePercentage","inputs":[{"name":"pool","type":"address","internalType":"address"},{"name":"swapFeePercentage","type":"uint256","internalType":"uint256"}],"outputs":[],"stateMutability":"nonpayable"},{"type":"function","name":"unpausePool","inputs":[{"name":"pool","type":"address","internalType":"address"}],"outputs":[],"stateMutability":"nonpayable"},{"type":"function","name":"unpauseVault","inputs":[],"outputs":[],"stateMutability":"nonpayable"},{"type":"function","name":"unpauseVaultBuffers","inputs":[],"outputs":[],"stateMutability":"nonpayable"},{"type":"function","name":"updateAggregateSwapFeePercentage","inputs":[{"name":"pool","type":"address","internalType":"address"},{"name":"newAggregateSwapFeePercentage","type":"uint256","internalType":"uint256"}],"outputs":[],"stateMutability":"nonpayable"},{"type":"function","name":"updateAggregateYieldFeePercentage","inputs":[{"name":"pool","type":"address","internalType":"address"},{"name":"newAggregateYieldFeePercentage","type":"uint256","internalType":"uint256"}],"outputs":[],"stateMutability":"nonpayable"},{"type":"function","name":"vault","inputs":[],"outputs":[{"name":"","type":"address","internalType":"contract IVault"}],"stateMutability":"view"},{"type":"event","name":"AggregateSwapFeePercentageChanged","inputs":[{"name":"pool","type":"address","indexed":true,"internalType":"address"},{"name":"aggregateSwapFeePercentage","type":"uint256","indexed":false,"internalType":"uint256"}],"anonymous":false},{"type":"event","name":"AggregateYieldFeePercentageChanged","inputs":[{"name":"pool","type":"address","indexed":true,"internalType":"address"},{"name":"aggregateYieldFeePercentage","type":"uint256","indexed":false,"internalType":"uint256"}],"anonymous":false},{"type":"event","name":"Approval","inputs":[{"name":"pool","type":"address","indexed":true,"internalType":"address"},{"name":"owner","type":"address","indexed":true,"internalType":"address"},{"name":"spender","type":"address","indexed":true,"internalType":"address"},{"name":"value","type":"uint256","indexed":false,"internalType":"uint256"}],"anonymous":false},{"type":"event","name":"AuthorizerChanged","inputs":[{"name":"newAuthorizer","type":"address","indexed":true,"internalType":"contract IAuthorizer"}],"anonymous":false},{"type":"event","name":"BufferSharesBurned","inputs":[{"name":"wrappedToken","type":"address","indexed":true,"internalType":"contract IERC4626"},{"name":"from","type":"address","indexed":true,"internalType":"address"},{"name":"burnedShares","type":"uint256","indexed":false,"internalType":"uint256"}],"anonymous":false},{"type":"event","name":"BufferSharesMinted","inputs":[{"name":"wrappedToken","type":"address","indexed":true,"internalType":"contract IERC4626"},{"name":"to","type":"address","indexed":true,"internalType":"address"},{"name":"issuedShares","type":"uint256","indexed":false,"internalType":"uint256"}],"anonymous":false},{"type":"event","name":"LiquidityAddedToBuffer","inputs":[{"name":"wrappedToken","type":"address","indexed":true,"internalType":"contract IERC4626"},{"name":"amountUnderlying","type":"uint256","indexed":false,"internalType":"uint256"},{"name":"amountWrapped","type":"uint256","indexed":false,"internalType":"uint256"}],"anonymous":false},{"type":"event","name":"LiquidityRemovedFromBuffer","inputs":[{"name":"wrappedToken","type":"address","indexed":true,"internalType":"contract IERC4626"},{"name":"amountUnderlying","type":"uint256","indexed":false,"internalType":"uint256"},{"name":"amountWrapped","type":"uint256","indexed":false,"internalType":"uint256"}],"anonymous":false},{"type":"event","name":"PoolBalanceChanged","inputs":[{"name":"pool","type":"address","indexed":true,"internalType":"address"},{"name":"liquidityProvider","type":"address","indexed":true,"internalType":"address"},{"name":"totalSupply","type":"uint256","indexed":false,"internalType":"uint256"},{"name":"deltas","type":"int256[]","indexed":false,"internalType":"int256[]"},{"name":"swapFeeAmountsRaw","type":"uint256[]","indexed":false,"internalType":"uint256[]"}],"anonymous":false},{"type":"event","name":"PoolInitialized","inputs":[{"name":"pool","type":"address","indexed":true,"internalType":"address"}],"anonymous":false},{"type":"event","name":"PoolPausedStateChanged","inputs":[{"name":"pool","type":"address","indexed":true,"internalType":"address"},{"name":"paused","type":"bool","indexed":false,"internalType":"bool"}],"anonymous":false},{"type":"event","name":"PoolRecoveryModeStateChanged","inputs":[{"name":"pool","type":"address","indexed":true,"internalType":"address"},{"name":"recoveryMode","type":"bool","indexed":false,"internalType":"bool"}],"anonymous":false},{"type":"event","name":"PoolRegistered","inputs":[{"name":"pool","type":"address","indexed":true,"internalType":"address"},{"name":"factory","type":"address","indexed":true,"internalType":"address"},{"name":"tokenConfig","type":"tuple[]","indexed":false,"internalType":"struct TokenConfig[]","components":[{"name":"token","type":"address","internalType":"contract IERC20"},{"name":"tokenType","type":"uint8","internalType":"enum TokenType"},{"name":"rateProvider","type":"address","internalType":"contract IRateProvider"},{"name":"paysYieldFees","type":"bool","internalType":"bool"}]},{"name":"swapFeePercentage","type":"uint256","indexed":false,"internalType":"uint256"},{"name":"pauseWindowEndTime","type":"uint32","indexed":false,"internalType":"uint32"},{"name":"roleAccounts","type":"tuple","indexed":false,"internalType":"struct PoolRoleAccounts","components":[{"name":"pauseManager","type":"address","internalType":"address"},{"name":"swapFeeManager","type":"address","internalType":"address"},{"name":"poolCreator","type":"address","internalType":"address"}]},{"name":"hooksConfig","type":"tuple","indexed":false,"internalType":"struct HooksConfig","components":[{"name":"enableHookAdjustedAmounts","type":"bool","internalType":"bool"},{"name":"shouldCallBeforeInitialize","type":"bool","internalType":"bool"},{"name":"shouldCallAfterInitialize","type":"bool","internalType":"bool"},{"name":"shouldCallComputeDynamicSwapFee","type":"bool","internalType":"bool"},{"name":"shouldCallBeforeSwap","type":"bool","internalType":"bool"},{"name":"shouldCallAfterSwap","type":"bool","internalType":"bool"},{"name":"shouldCallBeforeAddLiquidity","type":"bool","internalType":"bool"},{"name":"shouldCallAfterAddLiquidity","type":"bool","internalType":"bool"},{"name":"shouldCallBeforeRemoveLiquidity","type":"bool","internalType":"bool"},{"name":"shouldCallAfterRemoveLiquidity","type":"bool","internalType":"bool"},{"name":"hooksContract","type":"address","internalType":"address"}]},{"name":"liquidityManagement","type":"tuple","indexed":false,"internalType":"struct LiquidityManagement","components":[{"name":"disableUnbalancedLiquidity","type":"bool","internalType":"bool"},{"name":"enableAddLiquidityCustom","type":"bool","internalType":"bool"},{"name":"enableRemoveLiquidityCustom","type":"bool","internalType":"bool"},{"name":"enableDonation","type":"bool","internalType":"bool"}]}],"anonymous":false},{"type":"event","name":"ProtocolFeeControllerChanged","inputs":[{"name":"newProtocolFeeController","type":"address","indexed":true,"internalType":"contract IProtocolFeeController"}],"anonymous":false},{"type":"event","name":"Swap","inputs":[{"name":"pool","type":"address","indexed":true,"internalType":"address"},{"name":"tokenIn","type":"address","indexed":true,"internalType":"contract IERC20"},{"name":"tokenOut","type":"address","indexed":true,"internalType":"contract IERC20"},{"name":"amountIn","type":"uint256","indexed":false,"internalType":"uint256"},{"name":"amountOut","type":"uint256","indexed":false,"internalType":"uint256"},{"name":"swapFeePercentage","type":"uint256","indexed":false,"internalType":"uint256"},{"name":"swapFeeAmount","type":"uint256","indexed":false,"internalType":"uint256"}],"anonymous":false},{"type":"event","name":"SwapFeePercentageChanged","inputs":[{"name":"pool","type":"address","indexed":true,"internalType":"address"},{"name":"swapFeePercentage","type":"uint256","indexed":false,"internalType":"uint256"}],"anonymous":false},{"type":"event","name":"Transfer","inputs":[{"name":"pool","type":"address","indexed":true,"internalType":"address"},{"name":"from","type":"address","indexed":true,"internalType":"address"},{"name":"to","type":"address","indexed":true,"internalType":"address"},{"name":"value","type":"uint256","indexed":false,"internalType":"uint256"}],"anonymous":false},{"type":"event","name":"Unwrap","inputs":[{"name":"wrappedToken","type":"address","indexed":true,"internalType":"contract IERC4626"},{"name":"underlyingToken","type":"address","indexed":true,"internalType":"contract IERC20"},{"name":"burnedShares","type":"uint256","indexed":false,"internalType":"uint256"},{"name":"withdrawnUnderlying","type":"uint256","indexed":false,"internalType":"uint256"}],"anonymous":false},{"type":"event","name":"VaultBuffersPausedStateChanged","inputs":[{"name":"paused","type":"bool","indexed":false,"internalType":"bool"}],"anonymous":false},{"type":"event","name":"VaultPausedStateChanged","inputs":[{"name":"paused","type":"bool","indexed":false,"internalType":"bool"}],"anonymous":false},{"type":"event","name":"VaultQueriesDisabled","inputs":[],"anonymous":false},{"type":"event","name":"Wrap","inputs":[{"name":"underlyingToken","type":"address","indexed":true,"internalType":"contract IERC20"},{"name":"wrappedToken","type":"address","indexed":true,"internalType":"contract IERC4626"},{"name":"depositedUnderlying","type":"uint256","indexed":false,"internalType":"uint256"},{"name":"mintedShares","type":"uint256","indexed":false,"internalType":"uint256"}],"anonymous":false},{"type":"error","name":"AfterAddLiquidityHookFailed","inputs":[]},{"type":"error","name":"AfterInitializeHookFailed","inputs":[]},{"type":"error","name":"AfterRemoveLiquidityHookFailed","inputs":[]},{"type":"error","name":"AfterSwapHookFailed","inputs":[]},{"type":"error","name":"AmountGivenZero","inputs":[]},{"type":"error","name":"AmountInAboveMax","inputs":[{"name":"tokenIn","type":"address","internalType":"contract IERC20"},{"name":"amountIn","type":"uint256","internalType":"uint256"},{"name":"maxAmountIn","type":"uint256","internalType":"uint256"}]},{"type":"error","name":"AmountOutBelowMin","inputs":[{"name":"tokenOut","type":"address","internalType":"contract IERC20"},{"name":"amountOut","type":"uint256","internalType":"uint256"},{"name":"minAmountOut","type":"uint256","internalType":"uint256"}]},{"type":"error","name":"BalanceNotSettled","inputs":[]},{"type":"error","name":"BalanceOverflow","inputs":[]},{"type":"error","name":"BeforeAddLiquidityHookFailed","inputs":[]},{"type":"error","name":"BeforeInitializeHookFailed","inputs":[]},{"type":"error","name":"BeforeRemoveLiquidityHookFailed","inputs":[]},{"type":"error","name":"BeforeSwapHookFailed","inputs":[]},{"type":"error","name":"BptAmountInAboveMax","inputs":[{"name":"amountIn","type":"uint256","internalType":"uint256"},{"name":"maxAmountIn","type":"uint256","internalType":"uint256"}]},{"type":"error","name":"BptAmountOutBelowMin","inputs":[{"name":"amountOut","type":"uint256","internalType":"uint256"},{"name":"minAmountOut","type":"uint256","internalType":"uint256"}]},{"type":"error","name":"BufferAlreadyInitialized","inputs":[{"name":"wrappedToken","type":"address","internalType":"contract IERC4626"}]},{"type":"error","name":"BufferNotInitialized","inputs":[{"name":"wrappedToken","type":"address","internalType":"contract IERC4626"}]},{"type":"error","name":"BufferSharesInvalidOwner","inputs":[]},{"type":"error","name":"BufferSharesInvalidReceiver","inputs":[]},{"type":"error","name":"BufferTotalSupplyTooLow","inputs":[{"name":"totalSupply","type":"uint256","internalType":"uint256"}]},{"type":"error","name":"CannotReceiveEth","inputs":[]},{"type":"error","name":"CannotSwapSameToken","inputs":[]},{"type":"error","name":"CodecOverflow","inputs":[]},{"type":"error","name":"DoesNotSupportAddLiquidityCustom","inputs":[]},{"type":"error","name":"DoesNotSupportDonation","inputs":[]},{"type":"error","name":"DoesNotSupportRemoveLiquidityCustom","inputs":[]},{"type":"error","name":"DoesNotSupportUnbalancedLiquidity","inputs":[]},{"type":"error","name":"DynamicSwapFeeHookFailed","inputs":[]},{"type":"error","name":"ERC20InsufficientAllowance","inputs":[{"name":"spender","type":"address","internalType":"address"},{"name":"allowance","type":"uint256","internalType":"uint256"},{"name":"needed","type":"uint256","internalType":"uint256"}]},{"type":"error","name":"ERC20InsufficientBalance","inputs":[{"name":"sender","type":"address","internalType":"address"},{"name":"balance","type":"uint256","internalType":"uint256"},{"name":"needed","type":"uint256","internalType":"uint256"}]},{"type":"error","name":"ERC20InvalidApprover","inputs":[{"name":"approver","type":"address","internalType":"address"}]},{"type":"error","name":"ERC20InvalidReceiver","inputs":[{"name":"receiver","type":"address","internalType":"address"}]},{"type":"error","name":"ERC20InvalidSender","inputs":[{"name":"sender","type":"address","internalType":"address"}]},{"type":"error","name":"ERC20InvalidSpender","inputs":[{"name":"spender","type":"address","internalType":"address"}]},{"type":"error","name":"FeePrecisionTooHigh","inputs":[]},{"type":"error","name":"HookAdjustedAmountInAboveMax","inputs":[{"name":"tokenIn","type":"address","internalType":"contract IERC20"},{"name":"amountIn","type":"uint256","internalType":"uint256"},{"name":"maxAmountIn","type":"uint256","internalType":"uint256"}]},{"type":"error","name":"HookAdjustedAmountOutBelowMin","inputs":[{"name":"tokenOut","type":"address","internalType":"contract IERC20"},{"name":"amountOut","type":"uint256","internalType":"uint256"},{"name":"minAmountOut","type":"uint256","internalType":"uint256"}]},{"type":"error","name":"HookAdjustedSwapLimit","inputs":[{"name":"amount","type":"uint256","internalType":"uint256"},{"name":"limit","type":"uint256","internalType":"uint256"}]},{"type":"error","name":"HookRegistrationFailed","inputs":[{"name":"poolHooksContract","type":"address","internalType":"address"},{"name":"pool","type":"address","internalType":"address"},{"name":"poolFactory","type":"address","internalType":"address"}]},{"type":"error","name":"InvalidAddLiquidityKind","inputs":[]},{"type":"error","name":"InvalidRemoveLiquidityKind","inputs":[]},{"type":"error","name":"InvalidToken","inputs":[]},{"type":"error","name":"InvalidTokenConfiguration","inputs":[]},{"type":"error","name":"InvalidTokenType","inputs":[]},{"type":"error","name":"InvalidUnderlyingToken","inputs":[{"name":"wrappedToken","type":"address","internalType":"contract IERC4626"}]},{"type":"error","name":"MaxTokens","inputs":[]},{"type":"error","name":"MinTokens","inputs":[]},{"type":"error","name":"NotEnoughBufferShares","inputs":[]},{"type":"error","name":"NotEnoughUnderlying","inputs":[{"name":"wrappedToken","type":"address","internalType":"contract IERC4626"},{"name":"expectedUnderlyingAmount","type":"uint256","internalType":"uint256"},{"name":"actualUnderlyingAmount","type":"uint256","internalType":"uint256"}]},{"type":"error","name":"NotEnoughWrapped","inputs":[{"name":"wrappedToken","type":"address","internalType":"contract IERC4626"},{"name":"expectedWrappedAmount","type":"uint256","internalType":"uint256"},{"name":"actualWrappedAmount","type":"uint256","internalType":"uint256"}]},{"type":"error","name":"NotVaultDelegateCall","inputs":[]},{"type":"error","name":"OutOfBounds","inputs":[]},{"type":"error","name":"PauseBufferPeriodDurationTooLarge","inputs":[]},{"type":"error","name":"PercentageAboveMax","inputs":[]},{"type":"error","name":"PoolAlreadyInitialized","inputs":[{"name":"pool","type":"address","internalType":"address"}]},{"type":"error","name":"PoolAlreadyRegistered","inputs":[{"name":"pool","type":"address","internalType":"address"}]},{"type":"error","name":"PoolInRecoveryMode","inputs":[{"name":"pool","type":"address","internalType":"address"}]},{"type":"error","name":"PoolNotInRecoveryMode","inputs":[{"name":"pool","type":"address","internalType":"address"}]},{"type":"error","name":"PoolNotInitialized","inputs":[{"name":"pool","type":"address","internalType":"address"}]},{"type":"error","name":"PoolNotPaused","inputs":[{"name":"pool","type":"address","internalType":"address"}]},{"type":"error","name":"PoolNotRegistered","inputs":[{"name":"pool","type":"address","internalType":"address"}]},{"type":"error","name":"PoolPauseWindowExpired","inputs":[{"name":"pool","type":"address","internalType":"address"}]},{"type":"error","name":"PoolPaused","inputs":[{"name":"pool","type":"address","internalType":"address"}]},{"type":"error","name":"PoolTotalSupplyTooLow","inputs":[{"name":"totalSupply","type":"uint256","internalType":"uint256"}]},{"type":"error","name":"ProtocolFeesExceedTotalCollected","inputs":[]},{"type":"error","name":"QueriesDisabled","inputs":[]},{"type":"error","name":"QuoteResultSpoofed","inputs":[]},{"type":"error","name":"ReentrancyGuardReentrantCall","inputs":[]},{"type":"error","name":"RouterNotTrusted","inputs":[]},{"type":"error","name":"SafeCastOverflowedUintDowncast","inputs":[{"name":"bits","type":"uint8","internalType":"uint8"},{"name":"value","type":"uint256","internalType":"uint256"}]},{"type":"error","name":"SafeCastOverflowedUintToInt","inputs":[{"name":"value","type":"uint256","internalType":"uint256"}]},{"type":"error","name":"SenderIsNotVault","inputs":[{"name":"sender","type":"address","internalType":"address"}]},{"type":"error","name":"SenderNotAllowed","inputs":[]},{"type":"error","name":"SwapFeePercentageTooHigh","inputs":[]},{"type":"error","name":"SwapFeePercentageTooLow","inputs":[]},{"type":"error","name":"SwapLimit","inputs":[{"name":"amount","type":"uint256","internalType":"uint256"},{"name":"limit","type":"uint256","internalType":"uint256"}]},{"type":"error","name":"TokenAlreadyRegistered","inputs":[{"name":"token","type":"address","internalType":"contract IERC20"}]},{"type":"error","name":"TokenNotRegistered","inputs":[{"name":"token","type":"address","internalType":"contract IERC20"}]},{"type":"error","name":"TokensMismatch","inputs":[{"name":"pool","type":"address","internalType":"address"},{"name":"expectedToken","type":"address","internalType":"address"},{"name":"actualToken","type":"address","internalType":"address"}]},{"type":"error","name":"TradeAmountTooSmall","inputs":[]},{"type":"error","name":"VaultBuffersArePaused","inputs":[]},{"type":"error","name":"VaultIsNotUnlocked","inputs":[]},{"type":"error","name":"VaultNotPaused","inputs":[]},{"type":"error","name":"VaultPauseWindowDurationTooLarge","inputs":[]},{"type":"error","name":"VaultPauseWindowExpired","inputs":[]},{"type":"error","name":"VaultPaused","inputs":[]},{"type":"error","name":"WrapAmountTooSmall","inputs":[{"name":"wrappedToken","type":"address","internalType":"contract IERC4626"}]},{"type":"error","name":"WrongProtocolFeeControllerDeployment","inputs":[]},{"type":"error","name":"WrongUnderlyingToken","inputs":[{"name":"wrappedToken","type":"address","internalType":"contract IERC4626"},{"name":"underlyingToken","type":"address","internalType":"address"}]},{"type":"error","name":"WrongVaultAdminDeployment","inputs":[]},{"type":"error","name":"WrongVaultExtensionDeployment","inputs":[]},{"type":"error","name":"ZeroDivision","inputs":[]}],"bytecode":{"object":"0x610220604052600a6101e0908152691a5cd55b9b1bd8dad95960b21b610200526200002a90620001c1565b60c0526040805180820190915260118152701b9bdb96995c9bd1195b1d1850dbdd5b9d607a1b60208201526200006090620001c1565b60e05260408051808201909152600b81526a746f6b656e44656c74617360a81b60208201526200009090620001c1565b61010052604080518082019091526012815271185919131a5c5d5a591a5d1e50d85b1b195960721b6020820152620000c890620001c1565b61012052348015620000d8575f80fd5b5060405162004b9a38038062004b9a833981016040819052620000fb91620002c3565b6001600160a01b0385166101a08190526101c052630784ce0063ffffffff851611156200013b5760405163cc0e8fe560e01b815260040160405180910390fd5b6276a7008363ffffffff1611156200016657604051634f5277f760e11b815260040160405180910390fd5b5f620001836200017d63ffffffff8716426200033c565b620001fe565b63ffffffff808216610140528516610180529050620001a3848262000352565b63ffffffff16610160525060809190915260a0525062000410915050565b5f620001f860405180604001604052600c8152806020016b5661756c7453746f7261676560a01b815250836200023760201b60201c565b92915050565b5f63ffffffff82111562000233576040516306dfcc6560e41b8152602060048201526024810183905260440160405180910390fd5b5090565b5f60ff5f1b196001848460405160200162000254929190620003a8565b604051602081830303815290604052805190602001205f1c620002789190620003fa565b6040516020016200028b91815260200190565b6040516020818303038152906040528051906020012016905092915050565b805163ffffffff81168114620002be575f80fd5b919050565b5f805f805f60a08688031215620002d8575f80fd5b85516001600160a01b0381168114620002ef575f80fd5b9450620002ff60208701620002aa565b93506200030f60408701620002aa565b6060870151608090970151959894975095949392505050565b634e487b7160e01b5f52601160045260245ffd5b80820180821115620001f857620001f862000328565b63ffffffff81811683821601908082111562000372576200037262000328565b5092915050565b5f81515f5b818110156200039a57602081850181015186830152016200037e565b505f93019283525090919050565b7f62616c616e6365722d6c6162732e76332e73746f726167652e0000000000000081525f620003db601983018562000379565b601760f91b8152620003f1600182018562000379565b95945050505050565b81810381811115620001f857620001f862000328565b60805160a05160c05160e05161010051610120516101405161016051610180516101a0516101c051614609620005915f395f81816108340152818161085e015281816108ae0152818161093f0152818161097e015281816109c301528181610a6501528181610ab401528181610bbb01528181610e8901528181610eeb01528181610f3701528181610f74015281816110e30152818161116b0152818161120f01528181611470015281816114cf0152818161151301528181611556015281816115ad0152818161162c01528181611800015281816119c001528181611a4c01528181611af901528181611b7101528181611bec01528181611c3001528181611d2e01528181611d750152612a6001525f61107a01525f81816103cf015261333001525f81816106870152818161113e0152611e4001525f81816105af0152818161111b0152611eb301525f50505f8181612e5d0152612efb01525f8181612e9d0152612ed201525f61204301525f6104d401525f6107c401526146095ff3fe608060405260043610610288575f3560e01c80639385e39a11610152578063d446e4a6116100ca578063e253670a1161007e578063f21c38cd11610063578063f21c38cd146107e8578063f2784e0714610807578063fbfa77cf14610826576102a6565b8063e253670a14610797578063e2cb0ba0146107b6576102a6565b8063dc3f574e116100af578063dc3f574e14610750578063de1a36a61461076f578063e085c5a814610783576102a6565b8063d446e4a614610712578063db1e288d14610731576102a6565b8063bffb78b211610121578063d0965a6b11610106578063d0965a6b146106ab578063d15126ba146106c0578063d2c725e0146106df576102a6565b8063bffb78b21461065a578063cd51c12f14610679576102a6565b80639385e39a146106005780639e0879c21461061f578063a8175b2714610633578063b9212b4914610646576102a6565b806340058e35116102005780635e0b06f4116101b457806385c8c0151161019957806385c8c015146105695780638a8d123a146105a15780638f4ab9ca146105d3576102a6565b80635e0b06f41461052b578063851c1bb31461054a576102a6565b806353956aa2116101e557806353956aa2146104c657806355aca1ec146104f857806355cba7fe14610517576102a6565b806340058e35146104885780634021fe0f146104a7576102a6565b806320c1fb7a116102575780632d7713891161023c5780632d771389146104225780632e42f4d51461044157806335b60a1914610454576102a6565b806320c1fb7a146103c157806326a8a99114610404576102a6565b80630387587d1461032c578063058a628f14610368578063098401f5146103895780630b7562be146103ad576102a6565b366102a657604051637911c44b60e11b815260040160405180910390fd5b34156102c557604051637911c44b60e11b815260040160405180910390fd5b6040517f08c379a000000000000000000000000000000000000000000000000000000000815260206004820152600f60248201527f4e6f7420696d706c656d656e746564000000000000000000000000000000000060448201526064015b60405180910390fd5b348015610337575f80fd5b5061034b610346366004613fd3565b610858565b6040516001600160a01b0390911681526020015b60405180910390f35b348015610373575f80fd5b50610387610382366004613fd3565b6108a9565b005b348015610394575f80fd5b5061039d610939565b604051901515815260200161035f565b3480156103b8575f80fd5b50610387610979565b3480156103cc575f80fd5b507f00000000000000000000000000000000000000000000000000000000000000005b60405163ffffffff909116815260200161035f565b34801561040f575f80fd5b506127105b60405190815260200161035f565b34801561042d575f80fd5b5061038761043c366004613fd3565b6109be565b34801561044c575f80fd5b506008610414565b34801561045f575f80fd5b5061047361046e366004613fee565b610a5e565b6040805192835260208301919091520161035f565b348015610493575f80fd5b506104146104a2366004614018565b610bb5565b3480156104b2575f80fd5b506104736104c1366004613fd3565b610e82565b3480156104d1575f80fd5b507f0000000000000000000000000000000000000000000000000000000000000000610414565b348015610503575f80fd5b50610387610512366004613fd3565b610ee6565b348015610522575f80fd5b5061039d610f31565b348015610536575f80fd5b50610387610545366004613fee565b610f6f565b348015610555575f80fd5b5061041461056436600461405f565b611077565b348015610574575f80fd5b5061057d6110db565b60408051931515845263ffffffff928316602085015291169082015260600161035f565b3480156105ac575f80fd5b507f00000000000000000000000000000000000000000000000000000000000000006103ef565b3480156105de575f80fd5b506105f26105ed366004613fd3565b611163565b60405161035f9291906140c0565b34801561060b575f80fd5b5061041461061a3660046140ed565b61146a565b34801561062a575f80fd5b506103876114ca565b34801561063e575f80fd5b506002610414565b348015610651575f80fd5b5061038761150e565b348015610665575f80fd5b50610387610674366004613fd3565b611551565b348015610684575f80fd5b507f00000000000000000000000000000000000000000000000000000000000000006103ef565b3480156106b6575f80fd5b50620f4240610414565b3480156106cb575f80fd5b506103876106da366004613fee565b6115a8565b3480156106ea575f80fd5b507f9b779b17422d0df92223018b32b4d1fa46e071723d6817e2486d003becc55f005c61039d565b34801561071d575f80fd5b5061047361072c366004614124565b611625565b34801561073c575f80fd5b5061047361074b366004614124565b6117f9565b34801561075b575f80fd5b5061038761076a366004613fd3565b611af4565b34801561077a575f80fd5b50610387611b6c565b34801561078e575f80fd5b50610387611be7565b3480156107a2575f80fd5b506103876107b1366004613fee565b611c2b565b3480156107c1575f80fd5b507f0000000000000000000000000000000000000000000000000000000000000000610414565b3480156107f3575f80fd5b50610387610802366004613fd3565b611d29565b348015610812575f80fd5b50610414610821366004613fd3565b611d6f565b348015610831575f80fd5b507f000000000000000000000000000000000000000000000000000000000000000061034b565b5f61088b7f00000000000000000000000000000000000000000000000000000000000000006001600160a01b0316611dbd565b506001600160a01b039081165f908152600e60205260409020541690565b6108db7f00000000000000000000000000000000000000000000000000000000000000006001600160a01b0316611dbd565b6108e3611dff565b6009805473ffffffffffffffffffffffffffffffffffffffff19166001600160a01b0383169081179091556040517f94b979b6831a51293e2641426f97747feed46f17779fed9cd18d1ecefcfe92ef905f90a250565b5f61096c7f00000000000000000000000000000000000000000000000000000000000000006001600160a01b0316611dbd565b610974611e3d565b905090565b6109ab7f00000000000000000000000000000000000000000000000000000000000000006001600160a01b0316611dbd565b6109b3611dff565b6109bc5f611e7a565b565b6109f07f00000000000000000000000000000000000000000000000000000000000000006001600160a01b0316611dbd565b6109f8611dff565b610a00611f91565b600a805473ffffffffffffffffffffffffffffffffffffffff19166001600160a01b0383169081179091556040517f280a60b1e63c1774d397d35cce80eb80e51408ead755fb446e6f744ce98e5df0905f90a2610a5b612017565b50565b5f80610a927f00000000000000000000000000000000000000000000000000000000000000006001600160a01b0316611dbd565b6040516001600160a01b038581166024830152604482018590523360648301527f000000000000000000000000000000000000000000000000000000000000000016906348c894919060840160408051601f198184030181529181526020820180517bffffffffffffffffffffffffffffffffffffffffffffffffffffffff167fdb1e288d00000000000000000000000000000000000000000000000000000000179052516001600160e01b031960e084901b168152610b559190600401614185565b5f604051808303815f875af1158015610b70573d5f803e3d5ffd5b505050506040513d5f823e601f3d908101601f19168201604052610b9791908101906141fc565b806020019051810190610baa9190614282565b915091509250929050565b5f610be87f00000000000000000000000000000000000000000000000000000000000000006001600160a01b0316611dbd565b610bf0612041565b610bf861209d565b610c00611f91565b6001600160a01b038581165f908152600e60205260409020541615610c5c576040517f1690fa400000000000000000000000000000000000000000000000000000000081526001600160a01b0386166004820152602401610323565b5f856001600160a01b03166338d52e0f6040518163ffffffff1660e01b8152600401602060405180830381865afa158015610c99573d5f803e3d5ffd5b505050506040513d601f19601f82011682018060405250810190610cbd91906142a4565b90506001600160a01b038116610d0a576040517fd407f9c50000000000000000000000000000000000000000000000000000000081526001600160a01b0387166004820152602401610323565b6001600160a01b038681165f908152600e60205260409020805473ffffffffffffffffffffffffffffffffffffffff1916918316919091179055610d4e81866120df565b610d5886856120df565b610d6285856120f1565b6001600160a01b0387165f818152600b6020526040908190209290925590517f4cdad50600000000000000000000000000000000000000000000000000000000815260048101869052869190634cdad50690602401602060405180830381865afa158015610dd2573d5f803e3d5ffd5b505050506040513d601f19601f82011682018060405250810190610df691906142bf565b610e0091906142ea565b9150610e0b82612155565b610e17612710836142fd565b9150610e2286612194565b610e2d8684846121fd565b60408051868152602081018690526001600160a01b038816917fef0c05c59bfc8e2d9c16cf4a50f0b316a07e272fb5e7f23e43e6cd25c7fe1317910160405180910390a250610e7a612017565b949350505050565b5f80610eb67f00000000000000000000000000000000000000000000000000000000000000006001600160a01b0316611dbd565b6001600160a01b0383165f908152600b60205260409020546001600160801b0381169060801c5b91509150915091565b610f187f00000000000000000000000000000000000000000000000000000000000000006001600160a01b0316611dbd565b80610f2281612305565b610f2d82600161234f565b5050565b5f610f647f00000000000000000000000000000000000000000000000000000000000000006001600160a01b0316611dbd565b6109746007546124bd565b610fa17f00000000000000000000000000000000000000000000000000000000000000006001600160a01b0316611dbd565b81610fab81612305565b81670de0b6b3a7640000811115610fd557604051634c69ac5d60e01b815260040160405180910390fd5b600a546001600160a01b03163314611000576040516323dada5360e01b815260040160405180910390fd5b6001600160a01b0384165f9081526020819052604090205461102290846124e0565b6001600160a01b0385165f8181526020818152604091829020939093555185815290917fe4d371097beea42453a37406e2aef4c04f3c548f84ac50e72578662c0dcd735491015b60405180910390a250505050565b5f7f0000000000000000000000000000000000000000000000000000000000000000826040516020016110be9291909182526001600160e01b031916602082015260240190565b604051602081830303815290604052805190602001209050919050565b5f805f6111107f00000000000000000000000000000000000000000000000000000000000000006001600160a01b0316611dbd565b611118611e3d565b937f000000000000000000000000000000000000000000000000000000000000000093507f000000000000000000000000000000000000000000000000000000000000000092509050565b6060806111987f00000000000000000000000000000000000000000000000000000000000000006001600160a01b0316611dbd565b6111a0612041565b600a546001600160a01b031633146111cb576040516323dada5360e01b815260040160405180910390fd5b826111d581612305565b6040517fca4f28030000000000000000000000000000000000000000000000000000000081526001600160a01b0385811660048301525f917f00000000000000000000000000000000000000000000000000000000000000009091169063ca4f2803906024015f60405180830381865afa158015611255573d5f803e3d5ffd5b505050506040513d5f823e601f3d908101601f1916820160405261127c9190810190614310565b80519091508067ffffffffffffffff81111561129a5761129a6141b7565b6040519080825280602002602001820160405280156112c3578160200160208202803683370190505b5094508067ffffffffffffffff8111156112df576112df6141b7565b604051908082528060200260200182016040528015611308578160200160208202803683370190505b5093505f5b8251811015611461575f838281518110611329576113296143bd565b6020908102919091018101516001600160a01b03808b165f90815260068452604080822092841682529190935290912054909150611366906125fe565b888481518110611378576113786143bd565b60200260200101888581518110611391576113916143bd565b60200260200101828152508281525050505f8783815181106113b5576113b56143bd565b602002602001015111806113e157505f8683815181106113d7576113d76143bd565b6020026020010151115b15611458576001600160a01b038089165f9081526006602090815260408083209385168352929052908120558551611458908290889085908110611427576114276143bd565b6020026020010151898581518110611441576114416143bd565b602002602001015161145391906142ea565b612614565b5060010161130d565b50505050915091565b5f61149d7f00000000000000000000000000000000000000000000000000000000000000006001600160a01b0316611dbd565b506001600160a01b038083165f908152600c60209081526040808320938516835292905220545b92915050565b6114fc7f00000000000000000000000000000000000000000000000000000000000000006001600160a01b0316611dbd565b611504611dff565b6109bc6001611e7a565b6115407f00000000000000000000000000000000000000000000000000000000000000006001600160a01b0316611dbd565b611548611dff565b6109bc5f61262a565b6115837f00000000000000000000000000000000000000000000000000000000000000006001600160a01b0316611dbd565b8061158d81612305565b611595611dff565b61159e82612671565b610f2d825f6126bb565b6115da7f00000000000000000000000000000000000000000000000000000000000000006001600160a01b0316611dbd565b816115e481612305565b6001600160a01b038084165f908152600160208190526040909120015461160d91859116612744565b61161683612784565b6116208383612795565b505050565b5f806116597f00000000000000000000000000000000000000000000000000000000000000006001600160a01b0316611dbd565b611661612041565b61166961209d565b8461167381612934565b61167b611f91565b5f866001600160a01b03166338d52e0f6040518163ffffffff1660e01b8152600401602060405180830381865afa1580156116b8573d5f803e3d5ffd5b505050506040513d601f19601f820116820180604052508101906116dc91906142a4565b90506116e8878261298f565b6001600160a01b0387165f908152600b6020908152604080832054600d9092529091205461172388826001600160801b0385165b91906129f7565b9550611734888261171c8560801c90565b945061174083876120df565b61174a89866120df565b61177a611760876001600160801b0385166142ea565b8661176b8560801c90565b61177591906142ea565b6120f1565b6001600160a01b038a165f908152600b6020526040902081905591506117a189888a6121fd565b60408051878152602081018790526001600160a01b038b16917fef0c05c59bfc8e2d9c16cf4a50f0b316a07e272fb5e7f23e43e6cd25c7fe1317910160405180910390a25050506117f0612017565b50935093915050565b5f8061182d7f00000000000000000000000000000000000000000000000000000000000000006001600160a01b0316611dbd565b611835612a55565b61183d612041565b8461184781612934565b6001600160a01b038087165f908152600c60209081526040808320938816835292905220548511156118a5576040517f98c5dbd600000000000000000000000000000000000000000000000000000000815260040160405180910390fd5b6001600160a01b0386165f908152600b6020908152604080832054600d90925290912054806118dd886001600160801b0385166143d1565b6118e791906143e8565b945080876118f58460801c90565b6118ff91906143d1565b61190991906143e8565b6001600160a01b03808a165f908152600e6020526040902054919550166119308187612614565b61193a8986612614565b611965611950876001600160801b0386166142fd565b8661195b8660801c90565b61177591906142fd565b6001600160a01b038a165f908152600b60205260409020819055925061198c89888a612ab9565b8515611a185760405163ae63932960e01b81526001600160a01b0382811660048301528881166024830152604482018890527f0000000000000000000000000000000000000000000000000000000000000000169063ae639329906064015f604051808303815f87803b158015611a01575f80fd5b505af1158015611a13573d5f803e3d5ffd5b505050505b8415611aa45760405163ae63932960e01b81526001600160a01b038a811660048301528881166024830152604482018790527f0000000000000000000000000000000000000000000000000000000000000000169063ae639329906064015f604051808303815f87803b158015611a8d575f80fd5b505af1158015611a9f573d5f803e3d5ffd5b505050505b60408051878152602081018790526001600160a01b038b16917f072703282edd253eef65be9f8b821186ce1c8a21841116dd8e9f315c000e4602910160405180910390a250505050935093915050565b611b267f00000000000000000000000000000000000000000000000000000000000000006001600160a01b0316611dbd565b80611b3081612305565b611b3982612bb3565b611b4282612bfe565b158015611b545750611b52611e3d565b155b15611b6157611b61611dff565b610f2d8260016126bb565b611b9e7f00000000000000000000000000000000000000000000000000000000000000006001600160a01b0316611dbd565b611ba6611dff565b600754611bb4816001612c11565b60078190556040519091507fbd204090fd387f08e3076528bf09b4fc99d8100d749eace96c06002d3fedc625905f90a150565b611c197f00000000000000000000000000000000000000000000000000000000000000006001600160a01b0316611dbd565b611c21611dff565b6109bc600161262a565b611c5d7f00000000000000000000000000000000000000000000000000000000000000006001600160a01b0316611dbd565b81611c6781612305565b81670de0b6b3a7640000811115611c9157604051634c69ac5d60e01b815260040160405180910390fd5b600a546001600160a01b03163314611cbc576040516323dada5360e01b815260040160405180910390fd5b6001600160a01b0384165f90815260208190526040902054611cde9084612c1e565b6001600160a01b0385165f8181526020818152604091829020939093555185815290917f606eb97d83164bd6b200d638cd49c14c65d94d4f2c674cfd85e24e0e202c3ca59101611069565b611d5b7f00000000000000000000000000000000000000000000000000000000000000006001600160a01b0316611dbd565b80611d6581612305565b610f2d825f61234f565b5f611da27f00000000000000000000000000000000000000000000000000000000000000006001600160a01b0316611dbd565b506001600160a01b03165f908152600d602052604090205490565b306001600160a01b03821614610a5b576040517f9fd25b3600000000000000000000000000000000000000000000000000000000815260040160405180910390fd5b5f611e145f356001600160e01b031916611077565b9050611e208133612d3d565b610a5b576040516323dada5360e01b815260040160405180910390fd5b5f7f000000000000000000000000000000000000000000000000000000000000000063ffffffff1642111580156109745750610974600754612db6565b611e82611e3d565b15611eab578015611ea6576040516336a7e2cd60e21b815260040160405180910390fd5b611f42565b8015611f10577f000000000000000000000000000000000000000000000000000000000000000063ffffffff164210611ea6576040517f0e4460b700000000000000000000000000000000000000000000000000000000815260040160405180910390fd5b6040517ff7ff4dca00000000000000000000000000000000000000000000000000000000815260040160405180910390fd5b600754611f4f8183612dc5565b600781905560405183151581529091507fe0629fe656e45ad7fd63a24b899da368690024c07043b88e57aee5095b1d3d02906020015b60405180910390a15050565b7f9b779b17422d0df92223018b32b4d1fa46e071723d6817e2486d003becc55f005c15611fea576040517f3ee5aeb500000000000000000000000000000000000000000000000000000000815260040160405180910390fd5b6109bc60017f9b779b17422d0df92223018b32b4d1fa46e071723d6817e2486d003becc55f005b90612de3565b6109bc5f7f9b779b17422d0df92223018b32b4d1fa46e071723d6817e2486d003becc55f00612011565b7f00000000000000000000000000000000000000000000000000000000000000005c15155f036109bc576040517fc09ba73600000000000000000000000000000000000000000000000000000000815260040160405180910390fd5b6120a86007546124bd565b156109bc576040517f0f27df0900000000000000000000000000000000000000000000000000000000815260040160405180910390fd5b610f2d826120ec83612dea565b612e4c565b5f6001600160801b0383118061210d57506001600160801b0382115b15612144576040517f89560ca100000000000000000000000000000000000000000000000000000000815260040160405180910390fd5b61214e8383612f27565b9392505050565b612710811015610a5b576040517f34bdbfaa00000000000000000000000000000000000000000000000000000000815260048101829052602401610323565b6001600160a01b0381165f818152600d6020908152604080832061271090819055600c8352818420848052835281842081905590519081529192917fd66f031d33381c6408f0b32c884461e5de3df8808399b6f3a3d86b1368f8ec34910160405180910390a350565b6001600160a01b03821661223d576040517fdbe6b10e00000000000000000000000000000000000000000000000000000000815260040160405180910390fd5b6001600160a01b0383165f908152600d60205260408120546122609083906142ea565b905061226b81612155565b6001600160a01b038085165f908152600d60209081526040808320859055600c8252808320938716835292905290812080548492906122ab9084906142ea565b92505081905550826001600160a01b0316846001600160a01b03167fd66f031d33381c6408f0b32c884461e5de3df8808399b6f3a3d86b1368f8ec34846040516122f791815260200190565b60405180910390a350505050565b61230e81612f36565b610a5b576040517f9e51bd5c0000000000000000000000000000000000000000000000000000000081526001600160a01b0382166004820152602401610323565b6001600160a01b038083165f9081526001602052604090205461237491849116612f57565b6001600160a01b0382165f9081526020819052604090205461239583612bfe565b156123c95781156123c45760405163d971f59760e01b81526001600160a01b0384166004820152602401610323565b61245e565b8115612421576123d881612f74565b63ffffffff1642106123c4576040517feb5a12170000000000000000000000000000000000000000000000000000000081526001600160a01b0384166004820152602401610323565b6040517ffdcd68940000000000000000000000000000000000000000000000000000000081526001600160a01b0384166004820152602401610323565b612468818361307b565b6001600160a01b0384165f81815260208181526040918290209390935551841515815290917f57e20448028297190122571be7cb6c1b1ef85730c673f7c72f533c8662419aa7910160405180910390a2505050565b5f6114c46124cc8260016142ea565b6124d79060016142ea565b83901c60011690565b5f670de0b6b3a764000082111561250a576040516301d1b96560e61b815260040160405180910390fd5b61251964174876e800836143e8565b915061214e82601861252c5f6001614407565b612537906001614407565b612542906001614407565b61254d906001614407565b612558906001614407565b612563906001614407565b61256e906001614407565b612579906001614407565b612584906001614407565b61258f906001614407565b61259a906001614407565b6125a5906001614407565b6125b0906001614407565b6125bb906001614407565b6125c6906001614407565b6125d1906001614407565b6125dc906001614407565b6125e7906001614407565b60ff166125f491906142ea565b85919060186130a8565b5f806001600160801b038316610edd8460801c90565b610f2d8261262183612dea565b6120ec90614420565b60075461263781836130c9565b600781905560405183151581529091507f300c7ca619eb846386aa0a6e5916ac2a41406448b0a2e99ba9ccafeb899015a590602001611f85565b61267a816130e4565b610a5b576040517fef029adf0000000000000000000000000000000000000000000000000000000081526001600160a01b0382166004820152602401610323565b8015155f036126cd576126cd82613105565b6001600160a01b0382165f908152602081905260409020546126ef9082613129565b6001600160a01b0383165f81815260208181526040918290209390935551831515815290917fc2354cc2f78ea57777e55ddd43a7f22b112ce98868596880edaeb22b4f9c73a991015b60405180910390a25050565b6001600160a01b03811661275b57610f2d82613144565b336001600160a01b03821614610f2d576040516323dada5360e01b815260040160405180910390fd5b61278c613187565b610a5b816131ad565b816001600160a01b031663ce20ece76040518163ffffffff1660e01b8152600401602060405180830381865afa1580156127d1573d5f803e3d5ffd5b505050506040513d601f19601f820116820180604052508101906127f591906142bf565b81101561282e576040517fbfb2068800000000000000000000000000000000000000000000000000000000815260040160405180910390fd5b816001600160a01b031663654cf15d6040518163ffffffff1660e01b8152600401602060405180830381865afa15801561286a573d5f803e3d5ffd5b505050506040513d601f19601f8201168201806040525081019061288e91906142bf565b8111156128c7576040517f7f47834b00000000000000000000000000000000000000000000000000000000815260040160405180910390fd5b6001600160a01b0382165f908152602081905260409020546128e990826131df565b6001600160a01b0383165f8181526020818152604091829020939093555183815290917f89d41522342fabac1471ca6073a5623e5caf367b03ca6e9a001478d0cf8be4a19101612738565b6001600160a01b038181165f908152600e602052604090205416610a5b576040517f85f412990000000000000000000000000000000000000000000000000000000081526001600160a01b0382166004820152602401610323565b6001600160a01b038281165f908152600e6020526040902054811690821614610f2d576040517f36b18d090000000000000000000000000000000000000000000000000000000081526001600160a01b03808416600483015282166024820152604401610323565b5f815f03612a31576040517f0a0c22c700000000000000000000000000000000000000000000000000000000815260040160405180910390fd5b5f612a3c84866143d1565b9050600183600183030401811515029150509392505050565b336001600160a01b037f000000000000000000000000000000000000000000000000000000000000000016146109bc576040517f089676d5000000000000000000000000000000000000000000000000000000008152336004820152602401610323565b6001600160a01b038216612af9576040517f586d06df00000000000000000000000000000000000000000000000000000000815260040160405180910390fd5b6001600160a01b0383165f908152600d6020526040812054612b1c9083906142fd565b9050612b2781612155565b6001600160a01b038085165f908152600d60209081526040808320859055600c825280832093871683529290529081208054849290612b679084906142fd565b92505081905550826001600160a01b0316846001600160a01b03167f4e09f7f7fc37ce2897800e2c2a9099565edb0a133d19d84a6871b3530af8846b846040516122f791815260200190565b612bbc816130e4565b15610a5b576040517f346d76070000000000000000000000000000000000000000000000000000000081526001600160a01b0382166004820152602401610323565b5f80612c09836132f1565b509392505050565b5f6001198316821761214e565b5f670de0b6b3a7640000821115612c48576040516301d1b96560e61b815260040160405180910390fd5b612c5764174876e800836143e8565b915061214e82601880612c6b5f6001614407565b612c76906001614407565b612c81906001614407565b612c8c906001614407565b612c97906001614407565b612ca2906001614407565b612cad906001614407565b612cb8906001614407565b612cc3906001614407565b612cce906001614407565b612cd9906001614407565b612ce4906001614407565b612cef906001614407565b612cfa906001614407565b612d05906001614407565b612d10906001614407565b612d1b906001614407565b612d26906001614407565b60ff16612d3391906142ea565b6125f491906142ea565b6009546040516326f8aa2160e21b8152600481018490526001600160a01b0383811660248301523060448301525f921690639be2a88490606401602060405180830381865afa158015612d92573d5f803e3d5ffd5b505050506040513d601f19601f8201168201806040525081019061214e9190614456565b5f6114c46124d78260016142ea565b5f61214e82612dd58360016142ea565b6001811b19861691901b1790565b80825d5050565b5f7f7fffffffffffffffffffffffffffffffffffffffffffffffffffffffffffffff821115612e48576040517f24775e0600000000000000000000000000000000000000000000000000000000815260048101839052602401610323565b5090565b805f03612e57575050565b5f612e827f00000000000000000000000000000000000000000000000000000000000000008461336a565b90505f612e8f8383614475565b9050805f03612ec657612ec17f000000000000000000000000000000000000000000000000000000000000000061337d565b612ef6565b815f03612ef657612ef67f0000000000000000000000000000000000000000000000000000000000000000613393565b612f217f000000000000000000000000000000000000000000000000000000000000000085836133a2565b50505050565b5f61214e83608084901b6142ea565b6001600160a01b0381165f9081526020819052604081205461214e816133ba565b6001600160a01b0381163303612f6b575050565b610f2d82613144565b5f6114c4602860188080612f89866001614407565b612f94906001614407565b612f9f906001614407565b612faa906001614407565b612fb5906001614407565b612fc0906001614407565b612fcb906001614407565b612fd6906001614407565b612fe1906001614407565b612fec906001614407565b612ff7906001614407565b613002906001614407565b61300d906001614407565b613018906001614407565b613023906001614407565b61302e906001614407565b613039906001614407565b613044906001614407565b60ff1661305191906142ea565b61305b91906142ea565b61306591906142ea565b61306f91906142ea565b83901c63ffffffff1690565b5f61214e8261308b836001614407565b613096906001614407565b60ff1690811b600190911b1985161790565b5f6130b48484846133c4565b506001901b5f1901811b1992909216911b1790565b5f61214e826130d98360016142ea565b612dd59060016142ea565b6001600160a01b0381165f908152602081905260408120546114c490613463565b61310d611f91565b6131218161311c836001613494565b613516565b610a5b612017565b5f61214e82613139836001614407565b61308b906001614407565b5f6131595f356001600160e01b031916611077565b9050613166813384613596565b15155f03610f2d576040516323dada5360e01b815260040160405180910390fd5b61318f611e3d565b156109bc576040516336a7e2cd60e21b815260040160405180910390fd5b6131b681612bfe565b15610a5b5760405163d971f59760e01b81526001600160a01b0382166004820152602401610323565b5f670de0b6b3a7640000821115613209576040516301d1b96560e61b815260040160405180910390fd5b61321864174876e800836143e8565b915061214e826132295f6001614407565b613234906001614407565b61323f906001614407565b61324a906001614407565b613255906001614407565b613260906001614407565b61326b906001614407565b613276906001614407565b613281906001614407565b61328c906001614407565b613297906001614407565b6132a2906001614407565b6132ad906001614407565b6132b8906001614407565b6132c3906001614407565b6132ce906001614407565b6132d9906001614407565b6132e4906001614407565b85919060ff1660186130a8565b6001600160a01b0381165f9081526020819052604081205481908161331582613611565b90505f61332183612f74565b905081801561335f57506133557f00000000000000000000000000000000000000000000000000000000000000008261449c565b63ffffffff164211155b969095509350505050565b5f8181526020839052604081205c61214e565b610a5b61338c6001835c6142fd565b8290612de3565b610a5b61338c825c60016142ea565b5f828152602084905260409020611620908290612011565b5f600182166114c4565b61010082106133e657604051632d0483c560e21b815260040160405180910390fd5b6001811015801561340c575061340860ff613403846101006142fd565b613620565b8111155b61342957604051632d0483c560e21b815260040160405180910390fd5b82811c15611620576040517fe4337c0500000000000000000000000000000000000000000000000000000000815260040160405180910390fd5b5f6114c4613472826001614407565b61347d906001614407565b613488906001614407565b839060ff161c60011690565b6134d66040518060e001604052805f80191681526020016060815260200160608152602001606081526020016060815260200160608152602001606081525090565b6001600160a01b0383165f90815260056020908152604080832083835281842054600484528285206003909452919093206114c49385939092918761362f565b6001600160a01b0382165f908152600560205260408120905b826060015151811015612f215761358083606001518281518110613555576135556143bd565b602002602001015184608001518381518110613573576135736143bd565b60200260200101516120f1565b5f8281526020849052604090205560010161352f565b6009546040516326f8aa2160e21b8152600481018590526001600160a01b03848116602483015283811660448301525f921690639be2a88490606401602060405180830381865afa1580156135ed573d5f803e3d5ffd5b505050506040513d601f19601f82011682018060405250810190610e7a9190614456565b5f6114c461347d826001614407565b5f82821882841002821861214e565b815484875260408051602080840282018101909252828152908490839083018282801561368357602002820191905f5260205f20905b81546001600160a01b03168152600190910190602001808311613665575b505050505087602001819052508067ffffffffffffffff8111156136a9576136a96141b7565b6040519080825280602002602001820160405280156136f257816020015b604080516060810182525f80825260208083018290529282015282525f199092019101816136c75790505b5060408801528067ffffffffffffffff811115613711576137116141b7565b60405190808252806020026020018201604052801561373a578160200160208202803683370190505b5060608801528067ffffffffffffffff811115613759576137596141b7565b604051908082528060200260200182016040528015613782578160200160208202803683370190505b50608088015286516137949082613a01565b60c08801528067ffffffffffffffff8111156137b2576137b26141b7565b6040519080825280602002602001820160405280156137db578160200160208202803683370190505b5060a088015286515f906137ee90613acd565b801561380457505f613802895f0151613adc565b115b80156138185750875161381690613463565b155b90505f5b828110156139f6575f865f8b60200151848151811061383d5761383d6143bd565b6020908102919091018101516001600160a01b0316825281019190915260409081015f208151606081019092528054829060ff166001811115613882576138826144c0565b6001811115613893576138936144c0565b8152905461010081046001600160a01b0316602080840191909152750100000000000000000000000000000000000000000090910460ff1615156040928301525f858152908c905281902054908c015180519293509091839190859081106138fd576138fd6143bd565b602002602001018190525061391182613bdb565b8b60a001518481518110613927576139276143bd565b60209081029190910101526139478b846001600160801b03841689613cc3565b8315155f036139575750506139ee565b5f8260400151801561397b5750600183516001811115613979576139796144c0565b145b905080156139ea575f6139908d5f0151613adc565b90505f8d6060015186815181106139a9576139a96143bd565b602002602001015190505f6139c98f6139c28760801c90565b8986613d80565b905080156139e6576139e68f886139e084866142fd565b8d613cc3565b5050505b5050505b60010161381c565b505050505050505050565b60605f8267ffffffffffffffff811115613a1d57613a1d6141b7565b604051908082528060200260200182016040528015613a46578160200160208202803683370190505b5090505f613a5385613e15565b64ffffffffff1690505f5b84811015613ac3575f613a7e613a756005846143d1565b84901c601f1690565b9050613a8b81600a6145b4565b613a9d90670de0b6b3a76400006143d1565b848381518110613aaf57613aaf6143bd565b602090810291909101015250600101613a5e565b5090949350505050565b5f6114c4613488826001614407565b5f64174876e800613bd1601880613af4856001614407565b613aff906001614407565b613b0a906001614407565b613b15906001614407565b613b20906001614407565b613b2b906001614407565b613b36906001614407565b613b41906001614407565b613b4c906001614407565b613b57906001614407565b613b62906001614407565b613b6d906001614407565b613b78906001614407565b613b83906001614407565b613b8e906001614407565b613b99906001614407565b613ba4906001614407565b613baf906001614407565b60ff16613bbc91906142ea565b613bc691906142ea565b84901c62ffffff1690565b6114c491906143d1565b80515f9081816001811115613bf257613bf26144c0565b03613c0757670de0b6b3a76400009150613cbd565b6001816001811115613c1b57613c1b6144c0565b03613c8b5782602001516001600160a01b031663679aefce6040518163ffffffff1660e01b8152600401602060405180830381865afa158015613c60573d5f803e3d5ffd5b505050506040513d601f19601f82011682018060405250810190613c8491906142bf565b9150613cbd565b6040517fdf45063200000000000000000000000000000000000000000000000000000000815260040160405180910390fd5b50919050565b8184606001518481518110613cda57613cda6143bd565b6020908102919091010152613fb75f826001811115613cfb57613cfb6144c0565b14613d0857613f11613d0c565b613f265b9050613d57838660c001518681518110613d2857613d286143bd565b60200260200101518760a001518781518110613d4657613d466143bd565b60200260200101518463ffffffff16565b85608001518581518110613d6d57613d6d6143bd565b6020026020010181815250505050505050565b5f8085608001518481518110613d9857613d986143bd565b6020026020010151905084811115613e0c575f613db786830385613f37565b9050613e088760c001518681518110613dd257613dd26143bd565b60200260200101518860a001518781518110613df057613df06143bd565b602002602001015183613f639092919063ffffffff16565b9250505b50949350505050565b5f6114c460188080613e28856001614407565b613e33906001614407565b613e3e906001614407565b613e49906001614407565b613e54906001614407565b613e5f906001614407565b613e6a906001614407565b613e75906001614407565b613e80906001614407565b613e8b906001614407565b613e96906001614407565b613ea1906001614407565b613eac906001614407565b613eb7906001614407565b613ec2906001614407565b613ecd906001614407565b613ed8906001614407565b613ee3906001614407565b60ff16613ef091906142ea565b613efa91906142ea565b613f0491906142ea565b83901c64ffffffffff1690565b5f610e7a82613f208686613f77565b90613f77565b5f610e7a82613f358686613f37565b905b5f80613f4383856143d1565b90506001670de0b6b3a76400006001830304018115150291505092915050565b5f610e7a84613f728585613f37565b613f97565b5f80613f8383856143d1565b9050610e7a670de0b6b3a7640000826143e8565b5f80613fab670de0b6b3a7640000856143d1565b9050610e7a83826143e8565b6109bc6145bf565b6001600160a01b0381168114610a5b575f80fd5b5f60208284031215613fe3575f80fd5b813561214e81613fbf565b5f8060408385031215613fff575f80fd5b823561400a81613fbf565b946020939093013593505050565b5f805f806080858703121561402b575f80fd5b843561403681613fbf565b93506020850135925060408501359150606085013561405481613fbf565b939692955090935050565b5f6020828403121561406f575f80fd5b81356001600160e01b03198116811461214e575f80fd5b5f815180845260208085019450602084015f5b838110156140b557815187529582019590820190600101614099565b509495945050505050565b604081525f6140d26040830185614086565b82810360208401526140e48185614086565b95945050505050565b5f80604083850312156140fe575f80fd5b823561410981613fbf565b9150602083013561411981613fbf565b809150509250929050565b5f805f60608486031215614136575f80fd5b833561414181613fbf565b925060208401359150604084013561415881613fbf565b809150509250925092565b5f5b8381101561417d578181015183820152602001614165565b50505f910152565b602081525f82518060208401526141a3816040850160208701614163565b601f01601f19169190910160400192915050565b634e487b7160e01b5f52604160045260245ffd5b604051601f8201601f1916810167ffffffffffffffff811182821017156141f4576141f46141b7565b604052919050565b5f6020828403121561420c575f80fd5b815167ffffffffffffffff80821115614223575f80fd5b818401915084601f830112614236575f80fd5b815181811115614248576142486141b7565b61425b601f8201601f19166020016141cb565b9150808252856020828501011115614271575f80fd5b613e0c816020840160208601614163565b5f8060408385031215614293575f80fd5b505080516020909101519092909150565b5f602082840312156142b4575f80fd5b815161214e81613fbf565b5f602082840312156142cf575f80fd5b5051919050565b634e487b7160e01b5f52601160045260245ffd5b808201808211156114c4576114c46142d6565b818103818111156114c4576114c46142d6565b5f6020808385031215614321575f80fd5b825167ffffffffffffffff80821115614338575f80fd5b818501915085601f83011261434b575f80fd5b81518181111561435d5761435d6141b7565b8060051b915061436e8483016141cb565b8181529183018401918481019088841115614387575f80fd5b938501935b838510156143b157845192506143a183613fbf565b828252938501939085019061438c565b98975050505050505050565b634e487b7160e01b5f52603260045260245ffd5b80820281158282048414176114c4576114c46142d6565b5f8261440257634e487b7160e01b5f52601260045260245ffd5b500490565b60ff81811683821601908111156114c4576114c46142d6565b5f7f80000000000000000000000000000000000000000000000000000000000000008203614450576144506142d6565b505f0390565b5f60208284031215614466575f80fd5b8151801515811461214e575f80fd5b8082018281125f831280158216821582161715614494576144946142d6565b505092915050565b63ffffffff8181168382160190808211156144b9576144b96142d6565b5092915050565b634e487b7160e01b5f52602160045260245ffd5b600181815b8085111561450e57815f19048211156144f4576144f46142d6565b8085161561450157918102915b93841c93908002906144d9565b509250929050565b5f82614524575060016114c4565b8161453057505f6114c4565b816001811461454657600281146145505761456c565b60019150506114c4565b60ff841115614561576145616142d6565b50506001821b6114c4565b5060208310610133831016604e8410600b841016171561458f575081810a6114c4565b61459983836144d4565b805f19048211156145ac576145ac6142d6565b029392505050565b5f61214e8383614516565b634e487b7160e01b5f52605160045260245ffdfea264697066735822122048a095e0eaa534b2f9da0731b9b8a147df953a2d1b069f7c8ea74c9bb63fdf5f64736f6c63430008180033","linkReferences":{}},"methodIdentifiers":{"addLiquidityToBuffer(address,uint256,address)":"d446e4a6","areBuffersPaused()":"55cba7fe","collectAggregateFees(address)":"8f4ab9ca","disableQuery()":"de1a36a6","disableRecoveryMode(address)":"bffb78b2","enableRecoveryMode(address)":"dc3f574e","getActionId(bytes4)":"851c1bb3","getBufferAsset(address)":"0387587d","getBufferBalance(address)":"4021fe0f","getBufferMinimumTotalSupply()":"26a8a991","getBufferOwnerShares(address,address)":"9385e39a","getBufferPeriodDuration()":"20c1fb7a","getBufferPeriodEndTime()":"cd51c12f","getBufferTotalShares(address)":"f2784e07","getMaximumPoolTokens()":"2e42f4d5","getMinimumPoolTokens()":"a8175b27","getMinimumTradeAmount()":"e2cb0ba0","getMinimumWrapAmount()":"53956aa2","getPauseWindowEndTime()":"8a8d123a","getPoolMinimumTotalSupply()":"d0965a6b","getVaultPausedState()":"85c8c015","initializeBuffer(address,uint256,uint256,address)":"40058e35","isVaultPaused()":"098401f5","pausePool(address)":"55aca1ec","pauseVault()":"9e0879c2","pauseVaultBuffers()":"e085c5a8","reentrancyGuardEntered()":"d2c725e0","removeLiquidityFromBuffer(address,uint256)":"35b60a19","removeLiquidityFromBufferHook(address,uint256,address)":"db1e288d","setAuthorizer(address)":"058a628f","setProtocolFeeController(address)":"2d771389","setStaticSwapFeePercentage(address,uint256)":"d15126ba","unpausePool(address)":"f21c38cd","unpauseVault()":"0b7562be","unpauseVaultBuffers()":"b9212b49","updateAggregateSwapFeePercentage(address,uint256)":"5e0b06f4","updateAggregateYieldFeePercentage(address,uint256)":"e253670a","vault()":"fbfa77cf"},"id":91}