{"abi":[{"type":"constructor","inputs":[{"name":"_token","type":"address","internalType":"contract IVotes"}],"stateMutability":"nonpayable"},{"type":"receive","stateMutability":"payable"},{"type":"function","name":"BALLOT_TYPEHASH","inputs":[],"outputs":[{"name":"","type":"bytes32","internalType":"bytes32"}],"stateMutability":"view"},{"type":"function","name":"CLOCK_MODE","inputs":[],"outputs":[{"name":"","type":"string","internalType":"string"}],"stateMutability":"view"},{"type":"function","name":"COUNTING_MODE","inputs":[],"outputs":[{"name":"","type":"string","internalType":"string"}],"stateMutability":"pure"},{"type":"function","name":"EXTENDED_BALLOT_TYPEHASH","inputs":[],"outputs":[{"name":"","type":"bytes32","internalType":"bytes32"}],"stateMutability":"view"},{"type":"function","name":"cancel","inputs":[{"name":"targets","type":"address[]","internalType":"address[]"},{"name":"values","type":"uint256[]","internalType":"uint256[]"},{"name":"calldatas","type":"bytes[]","internalType":"bytes[]"},{"name":"descriptionHash","type":"bytes32","internalType":"bytes32"}],"outputs":[{"name":"","type":"uint256","internalType":"uint256"}],"stateMutability":"nonpayable"},{"type":"function","name":"castVote","inputs":[{"name":"proposalId","type":"uint256","internalType":"uint256"},{"name":"support","type":"uint8","internalType":"uint8"}],"outputs":[{"name":"","type":"uint256","internalType":"uint256"}],"stateMutability":"nonpayable"},{"type":"function","name":"castVoteBySig","inputs":[{"name":"proposalId","type":"uint256","internalType":"uint256"},{"name":"support","type":"uint8","internalType":"uint8"},{"name":"voter","type":"address","internalType":"address"},{"name":"signature","type":"bytes","internalType":"bytes"}],"outputs":[{"name":"","type":"uint256","internalType":"uint256"}],"stateMutability":"nonpayable"},{"type":"function","name":"castVoteWithReason","inputs":[{"name":"proposalId","type":"uint256","internalType":"uint256"},{"name":"support","type":"uint8","internalType":"uint8"},{"name":"reason","type":"string","internalType":"string"}],"outputs":[{"name":"","type":"uint256","internalType":"uint256"}],"stateMutability":"nonpayable"},{"type":"function","name":"castVoteWithReasonAndParams","inputs":[{"name":"proposalId","type":"uint256","internalType":"uint256"},{"name":"support","type":"uint8","internalType":"uint8"},{"name":"reason","type":"string","internalType":"string"},{"name":"params","type":"bytes","internalType":"bytes"}],"outputs":[{"name":"","type":"uint256","internalType":"uint256"}],"stateMutability":"nonpayable"},{"type":"function","name":"castVoteWithReasonAndParamsBySig","inputs":[{"name":"proposalId","type":"uint256","internalType":"uint256"},{"name":"support","type":"uint8","internalType":"uint8"},{"name":"voter","type":"address","internalType":"address"},{"name":"reason","type":"string","internalType":"string"},{"name":"params","type":"bytes","internalType":"bytes"},{"name":"signature","type":"bytes","internalType":"bytes"}],"outputs":[{"name":"","type":"uint256","internalType":"uint256"}],"stateMutability":"nonpayable"},{"type":"function","name":"clock","inputs":[],"outputs":[{"name":"","type":"uint48","internalType":"uint48"}],"stateMutability":"view"},{"type":"function","name":"eip712Domain","inputs":[],"outputs":[{"name":"fields","type":"bytes1","internalType":"bytes1"},{"name":"name","type":"string","internalType":"string"},{"name":"version","type":"string","internalType":"string"},{"name":"chainId","type":"uint256","internalType":"uint256"},{"name":"verifyingContract","type":"address","internalType":"address"},{"name":"salt","type":"bytes32","internalType":"bytes32"},{"name":"extensions","type":"uint256[]","internalType":"uint256[]"}],"stateMutability":"view"},{"type":"function","name":"execute","inputs":[{"name":"targets","type":"address[]","internalType":"address[]"},{"name":"values","type":"uint256[]","internalType":"uint256[]"},{"name":"calldatas","type":"bytes[]","internalType":"bytes[]"},{"name":"descriptionHash","type":"bytes32","internalType":"bytes32"}],"outputs":[{"name":"","type":"uint256","internalType":"uint256"}],"stateMutability":"payable"},{"type":"function","name":"getVotes","inputs":[{"name":"account","type":"address","internalType":"address"},{"name":"timepoint","type":"uint256","internalType":"uint256"}],"outputs":[{"name":"","type":"uint256","internalType":"uint256"}],"stateMutability":"view"},{"type":"function","name":"getVotesWithParams","inputs":[{"name":"account","type":"address","internalType":"address"},{"name":"timepoint","type":"uint256","internalType":"uint256"},{"name":"params","type":"bytes","internalType":"bytes"}],"outputs":[{"name":"","type":"uint256","internalType":"uint256"}],"stateMutability":"view"},{"type":"function","name":"hasVoted","inputs":[{"name":"proposalId","type":"uint256","internalType":"uint256"},{"name":"account","type":"address","internalType":"address"}],"outputs":[{"name":"","type":"bool","internalType":"bool"}],"stateMutability":"view"},{"type":"function","name":"hashProposal","inputs":[{"name":"targets","type":"address[]","internalType":"address[]"},{"name":"values","type":"uint256[]","internalType":"uint256[]"},{"name":"calldatas","type":"bytes[]","internalType":"bytes[]"},{"name":"descriptionHash","type":"bytes32","internalType":"bytes32"}],"outputs":[{"name":"","type":"uint256","internalType":"uint256"}],"stateMutability":"pure"},{"type":"function","name":"name","inputs":[],"outputs":[{"name":"","type":"string","internalType":"string"}],"stateMutability":"view"},{"type":"function","name":"nonces","inputs":[{"name":"owner","type":"address","internalType":"address"}],"outputs":[{"name":"","type":"uint256","internalType":"uint256"}],"stateMutability":"view"},{"type":"function","name":"onERC1155BatchReceived","inputs":[{"name":"","type":"address","internalType":"address"},{"name":"","type":"address","internalType":"address"},{"name":"","type":"uint256[]","internalType":"uint256[]"},{"name":"","type":"uint256[]","internalType":"uint256[]"},{"name":"","type":"bytes","internalType":"bytes"}],"outputs":[{"name":"","type":"bytes4","internalType":"bytes4"}],"stateMutability":"nonpayable"},{"type":"function","name":"onERC1155Received","inputs":[{"name":"","type":"address","internalType":"address"},{"name":"","type":"address","internalType":"address"},{"name":"","type":"uint256","internalType":"uint256"},{"name":"","type":"uint256","internalType":"uint256"},{"name":"","type":"bytes","internalType":"bytes"}],"outputs":[{"name":"","type":"bytes4","internalType":"bytes4"}],"stateMutability":"nonpayable"},{"type":"function","name":"onERC721Received","inputs":[{"name":"","type":"address","internalType":"address"},{"name":"","type":"address","internalType":"address"},{"name":"","type":"uint256","internalType":"uint256"},{"name":"","type":"bytes","internalType":"bytes"}],"outputs":[{"name":"","type":"bytes4","internalType":"bytes4"}],"stateMutability":"nonpayable"},{"type":"function","name":"proposalDeadline","inputs":[{"name":"proposalId","type":"uint256","internalType":"uint256"}],"outputs":[{"name":"","type":"uint256","internalType":"uint256"}],"stateMutability":"view"},{"type":"function","name":"proposalEta","inputs":[{"name":"proposalId","type":"uint256","internalType":"uint256"}],"outputs":[{"name":"","type":"uint256","internalType":"uint256"}],"stateMutability":"view"},{"type":"function","name":"proposalNeedsQueuing","inputs":[{"name":"","type":"uint256","internalType":"uint256"}],"outputs":[{"name":"","type":"bool","internalType":"bool"}],"stateMutability":"view"},{"type":"function","name":"proposalProposer","inputs":[{"name":"proposalId","type":"uint256","internalType":"uint256"}],"outputs":[{"name":"","type":"address","internalType":"address"}],"stateMutability":"view"},{"type":"function","name":"proposalSnapshot","inputs":[{"name":"proposalId","type":"uint256","internalType":"uint256"}],"outputs":[{"name":"","type":"uint256","internalType":"uint256"}],"stateMutability":"view"},{"type":"function","name":"proposalThreshold","inputs":[],"outputs":[{"name":"","type":"uint256","internalType":"uint256"}],"stateMutability":"view"},{"type":"function","name":"proposalVotes","inputs":[{"name":"proposalId","type":"uint256","internalType":"uint256"}],"outputs":[{"name":"againstVotes","type":"uint256","internalType":"uint256"},{"name":"forVotes","type":"uint256","internalType":"uint256"},{"name":"abstainVotes","type":"uint256","internalType":"uint256"}],"stateMutability":"view"},{"type":"function","name":"propose","inputs":[{"name":"targets","type":"address[]","internalType":"address[]"},{"name":"values","type":"uint256[]","internalType":"uint256[]"},{"name":"calldatas","type":"bytes[]","internalType":"bytes[]"},{"name":"description","type":"string","internalType":"string"}],"outputs":[{"name":"","type":"uint256","internalType":"uint256"}],"stateMutability":"nonpayable"},{"type":"function","name":"queue","inputs":[{"name":"targets","type":"address[]","internalType":"address[]"},{"name":"values","type":"uint256[]","internalType":"uint256[]"},{"name":"calldatas","type":"bytes[]","internalType":"bytes[]"},{"name":"descriptionHash","type":"bytes32","internalType":"bytes32"}],"outputs":[{"name":"","type":"uint256","internalType":"uint256"}],"stateMutability":"nonpayable"},{"type":"function","name":"quorum","inputs":[{"name":"blockNumber","type":"uint256","internalType":"uint256"}],"outputs":[{"name":"","type":"uint256","internalType":"uint256"}],"stateMutability":"pure"},{"type":"function","name":"relay","inputs":[{"name":"target","type":"address","internalType":"address"},{"name":"value","type":"uint256","internalType":"uint256"},{"name":"data","type":"bytes","internalType":"bytes"}],"outputs":[],"stateMutability":"payable"},{"type":"function","name":"state","inputs":[{"name":"proposalId","type":"uint256","internalType":"uint256"}],"outputs":[{"name":"","type":"uint8","internalType":"enum IGovernor.ProposalState"}],"stateMutability":"view"},{"type":"function","name":"supportsInterface","inputs":[{"name":"interfaceId","type":"bytes4","internalType":"bytes4"}],"outputs":[{"name":"","type":"bool","internalType":"bool"}],"stateMutability":"view"},{"type":"function","name":"token","inputs":[],"outputs":[{"name":"","type":"address","internalType":"contract IERC5805"}],"stateMutability":"view"},{"type":"function","name":"version","inputs":[],"outputs":[{"name":"","type":"string","internalType":"string"}],"stateMutability":"view"},{"type":"function","name":"votingDelay","inputs":[],"outputs":[{"name":"","type":"uint256","internalType":"uint256"}],"stateMutability":"pure"},{"type":"function","name":"votingPeriod","inputs":[],"outputs":[{"name":"","type":"uint256","internalType":"uint256"}],"stateMutability":"pure"},{"type":"event","name":"EIP712DomainChanged","inputs":[],"anonymous":false},{"type":"event","name":"ProposalCanceled","inputs":[{"name":"proposalId","type":"uint256","indexed":false,"internalType":"uint256"}],"anonymous":false},{"type":"event","name":"ProposalCreated","inputs":[{"name":"proposalId","type":"uint256","indexed":false,"internalType":"uint256"},{"name":"proposer","type":"address","indexed":false,"internalType":"address"},{"name":"targets","type":"address[]","indexed":false,"internalType":"address[]"},{"name":"values","type":"uint256[]","indexed":false,"internalType":"uint256[]"},{"name":"signatures","type":"string[]","indexed":false,"internalType":"string[]"},{"name":"calldatas","type":"bytes[]","indexed":false,"internalType":"bytes[]"},{"name":"voteStart","type":"uint256","indexed":false,"internalType":"uint256"},{"name":"voteEnd","type":"uint256","indexed":false,"internalType":"uint256"},{"name":"description","type":"string","indexed":false,"internalType":"string"}],"anonymous":false},{"type":"event","name":"ProposalExecuted","inputs":[{"name":"proposalId","type":"uint256","indexed":false,"internalType":"uint256"}],"anonymous":false},{"type":"event","name":"ProposalQueued","inputs":[{"name":"proposalId","type":"uint256","indexed":false,"internalType":"uint256"},{"name":"etaSeconds","type":"uint256","indexed":false,"internalType":"uint256"}],"anonymous":false},{"type":"event","name":"VoteCast","inputs":[{"name":"voter","type":"address","indexed":true,"internalType":"address"},{"name":"proposalId","type":"uint256","indexed":false,"internalType":"uint256"},{"name":"support","type":"uint8","indexed":false,"internalType":"uint8"},{"name":"weight","type":"uint256","indexed":false,"internalType":"uint256"},{"name":"reason","type":"string","indexed":false,"internalType":"string"}],"anonymous":false},{"type":"event","name":"VoteCastWithParams","inputs":[{"name":"voter","type":"address","indexed":true,"internalType":"address"},{"name":"proposalId","type":"uint256","indexed":false,"internalType":"uint256"},{"name":"support","type":"uint8","indexed":false,"internalType":"uint8"},{"name":"weight","type":"uint256","indexed":false,"internalType":"uint256"},{"name":"reason","type":"string","indexed":false,"internalType":"string"},{"name":"params","type":"bytes","indexed":false,"internalType":"bytes"}],"anonymous":false},{"type":"error","name":"FailedCall","inputs":[]},{"type":"error","name":"GovernorAlreadyCastVote","inputs":[{"name":"voter","type":"address","internalType":"address"}]},{"type":"error","name":"GovernorAlreadyQueuedProposal","inputs":[{"name":"proposalId","type":"uint256","internalType":"uint256"}]},{"type":"error","name":"GovernorDisabledDeposit","inputs":[]},{"type":"error","name":"GovernorInsufficientProposerVotes","inputs":[{"name":"proposer","type":"address","internalType":"address"},{"name":"votes","type":"uint256","internalType":"uint256"},{"name":"threshold","type":"uint256","internalType":"uint256"}]},{"type":"error","name":"GovernorInvalidProposalLength","inputs":[{"name":"targets","type":"uint256","internalType":"uint256"},{"name":"calldatas","type":"uint256","internalType":"uint256"},{"name":"values","type":"uint256","internalType":"uint256"}]},{"type":"error","name":"GovernorInvalidSignature","inputs":[{"name":"voter","type":"address","internalType":"address"}]},{"type":"error","name":"GovernorInvalidVoteParams","inputs":[]},{"type":"error","name":"GovernorInvalidVoteType","inputs":[]},{"type":"error","name":"GovernorInvalidVotingPeriod","inputs":[{"name":"votingPeriod","type":"uint256","internalType":"uint256"}]},{"type":"error","name":"GovernorNonexistentProposal","inputs":[{"name":"proposalId","type":"uint256","internalType":"uint256"}]},{"type":"error","name":"GovernorNotQueuedProposal","inputs":[{"name":"proposalId","type":"uint256","internalType":"uint256"}]},{"type":"error","name":"GovernorOnlyExecutor","inputs":[{"name":"account","type":"address","internalType":"address"}]},{"type":"error","name":"GovernorOnlyProposer","inputs":[{"name":"account","type":"address","internalType":"address"}]},{"type":"error","name":"GovernorQueueNotImplemented","inputs":[]},{"type":"error","name":"GovernorRestrictedProposer","inputs":[{"name":"proposer","type":"address","internalType":"address"}]},{"type":"error","name":"GovernorUnexpectedProposalState","inputs":[{"name":"proposalId","type":"uint256","internalType":"uint256"},{"name":"current","type":"uint8","internalType":"enum IGovernor.ProposalState"},{"name":"expectedStates","type":"bytes32","internalType":"bytes32"}]},{"type":"error","name":"InvalidAccountNonce","inputs":[{"name":"account","type":"address","internalType":"address"},{"name":"currentNonce","type":"uint256","internalType":"uint256"}]},{"type":"error","name":"InvalidShortString","inputs":[]},{"type":"error","name":"SafeCastOverflowedUintDowncast","inputs":[{"name":"bits","type":"uint8","internalType":"uint8"},{"name":"value","type":"uint256","internalType":"uint256"}]},{"type":"error","name":"StringTooLong","inputs":[{"name":"str","type":"string","internalType":"string"}]}],"bytecode":{"object":"0x61018060405234801562000011575f80fd5b50604051620037e2380380620037e28339810160408190526200003491620001d2565b60408051808201909152600b81526a27232a23b7bb32b93737b960a91b6020820152819080620000786040805180820190915260018152603160f81b602082015290565b62000084825f6200014f565b61012052620000958160016200014f565b61014052815160208084019190912060e052815190820120610100524660a0526200012260e05161010051604080517f8b73c3c69bb8fe3d512ecc4cf759cc79239f7b179b0ffacaa9a75d522b39400f60208201529081019290925260608201524660808201523060a08201525f9060c00160405160208183030381529060405280519060200120905090565b60805250503060c05260036200013982826200029f565b50506001600160a01b03166101605250620003dd565b5f6020835110156200016e57620001668362000187565b905062000181565b816200017b84826200029f565b5060ff90505b92915050565b5f80829050601f81511115620001bd578260405163305a27a960e01b8152600401620001b491906200036b565b60405180910390fd5b8051620001ca82620003b9565b179392505050565b5f60208284031215620001e3575f80fd5b81516001600160a01b0381168114620001fa575f80fd5b9392505050565b634e487b7160e01b5f52604160045260245ffd5b600181811c908216806200022a57607f821691505b6020821081036200024957634e487b7160e01b5f52602260045260245ffd5b50919050565b601f8211156200029a57805f5260205f20601f840160051c81016020851015620002765750805b601f840160051c820191505b8181101562000297575f815560010162000282565b50505b505050565b81516001600160401b03811115620002bb57620002bb62000201565b620002d381620002cc845462000215565b846200024f565b602080601f83116001811462000309575f8415620002f15750858301515b5f19600386901b1c1916600185901b17855562000363565b5f85815260208120601f198616915b82811015620003395788860151825594840194600190910190840162000318565b50858210156200035757878501515f19600388901b60f8161c191681555b505060018460011b0185555b505050505050565b5f602080835283518060208501525f5b8181101562000399578581018301518582016040015282016200037b565b505f604082860101526040601f19601f8301168501019250505092915050565b8051602080830151919081101562000249575f1960209190910360031b1b16919050565b60805160a05160c05160e051610100516101205161014051610160516133946200044e5f395f818161091c01528181610df10152818161120f015261190e01525f6118db01525f6118af01525f611b0d01525f611ae501525f611a4001525f611a6a01525f611a9401526133945ff3fe608060405260043610610294575f3560e01c80637b3c71d311610165578063bc197c81116100c6578063deaaa7cc1161007c578063f23a6e6111610062578063f23a6e61146108a2578063f8ce560a146108e6578063fc0c546a1461090e575f80fd5b8063deaaa7cc14610850578063eb9019d414610883575f80fd5b8063c28bc2fa116100ac578063c28bc2fa146107d9578063c59057e4146107ec578063dd4e2ba51461080b575f80fd5b8063bc197c8114610776578063c01f9e37146107ba575f80fd5b806391ddadf41161011b578063a9a9529411610101578063a9a952941461070f578063ab58fb8e1461072e578063b58131b014610764575f80fd5b806391ddadf4146106c55780639a802a6d146106f0575f80fd5b80637ecebe001161014b5780637ecebe001461064b57806384b0196e1461067f5780638ff262e3146106a6575f80fd5b80637b3c71d31461060d5780637d5e81e21461062c575f80fd5b80633932abb11161020f578063544ffc9c116101c557806356781388116101ab57806356781388146105b05780635b8d0e0d146105cf5780635f398a14146105ee575f80fd5b8063544ffc9c1461051857806354fd4d501461056b575f80fd5b806343859632116101f5578063438596321461049d578063452115d6146104e55780634bf5d7e914610504575f80fd5b80633932abb11461045c5780633e4f49e614610471575f80fd5b8063150b7a02116102645780632656227d1161024a5780632656227d146103dc5780632d63f693146103ef5780632fe3e26114610429575f80fd5b8063150b7a0214610361578063160cbed7146103bd575f80fd5b806301ffc9a7146102a157806302a251a3146102d557806306fdde03146102f4578063143489d014610315575f80fd5b3661029d57005b005b5f80fd5b3480156102ac575f80fd5b506102c06102bb3660046124da565b610940565b60405190151581526020015b60405180910390f35b3480156102e0575f80fd5b5062093a805b6040519081526020016102cc565b3480156102ff575f80fd5b506103086109dc565b6040516102cc919061254e565b348015610320575f80fd5b5061034961032f366004612560565b5f908152600460205260409020546001600160a01b031690565b6040516001600160a01b0390911681526020016102cc565b34801561036c575f80fd5b506103a461037b366004612652565b7f150b7a0200000000000000000000000000000000000000000000000000000000949350505050565b6040516001600160e01b031990911681526020016102cc565b3480156103c8575f80fd5b506102e66103d736600461281e565b610a6c565b6102e66103ea36600461281e565b610ac3565b3480156103fa575f80fd5b506102e6610409366004612560565b5f90815260046020526040902054600160a01b900465ffffffffffff1690565b348015610434575f80fd5b506102e67f3e83946653575f9a39005e1545185629e92736b7528ab20ca3816f315424a81181565b348015610467575f80fd5b50620151806102e6565b34801561047c575f80fd5b5061049061048b366004612560565b610c06565b6040516102cc91906128dc565b3480156104a8575f80fd5b506102c06104b73660046128ea565b5f8281526007602090815260408083206001600160a01b038516845260030190915290205460ff1692915050565b3480156104f0575f80fd5b506102e66104ff36600461281e565b610d68565b34801561050f575f80fd5b50610308610ded565b348015610523575f80fd5b50610550610532366004612560565b5f908152600760205260409020805460018201546002909201549092565b604080519384526020840192909252908201526060016102cc565b348015610576575f80fd5b5060408051808201909152600181527f31000000000000000000000000000000000000000000000000000000000000006020820152610308565b3480156105bb575f80fd5b506102e66105ca366004612924565b610ead565b3480156105da575f80fd5b506102e66105e936600461298a565b610ed4565b3480156105f9575f80fd5b506102e6610608366004612a3b565b611030565b348015610618575f80fd5b506102e6610627366004612ab9565b611083565b348015610637575f80fd5b506102e6610646366004612b0f565b6110c9565b348015610656575f80fd5b506102e6610665366004612bbc565b6001600160a01b03165f9081526002602052604090205490565b34801561068a575f80fd5b506106936110df565b6040516102cc9796959493929190612c0f565b3480156106b1575f80fd5b506102e66106c0366004612c98565b61113d565b3480156106d0575f80fd5b506106d961120c565b60405165ffffffffffff90911681526020016102cc565b3480156106fb575f80fd5b506102e661070a366004612ce4565b611298565b34801561071a575f80fd5b506102c0610729366004612560565b505f90565b348015610739575f80fd5b506102e6610748366004612560565b5f9081526004602052604090206001015465ffffffffffff1690565b34801561076f575f80fd5b505f6102e6565b348015610781575f80fd5b506103a4610790366004612d37565b7fbc197c810000000000000000000000000000000000000000000000000000000095945050505050565b3480156107c5575f80fd5b506102e66107d4366004612560565b6112ae565b61029b6107e7366004612dc0565b6112f0565b3480156107f7575f80fd5b506102e661080636600461281e565b61136c565b348015610816575f80fd5b506040805180820190915260208082527f737570706f72743d627261766f2671756f72756d3d666f722c6162737461696e90820152610308565b34801561085b575f80fd5b506102e67ff2aad550cf55f045cb27e9c559f9889fdfb6e6cdaa032301d6ea397784ae51d781565b34801561088e575f80fd5b506102e661089d366004612dfe565b6113a5565b3480156108ad575f80fd5b506103a46108bc366004612e26565b7ff23a6e610000000000000000000000000000000000000000000000000000000095945050505050565b3480156108f1575f80fd5b506102e6610900366004612560565b50683635c9adc5dea0000090565b348015610919575f80fd5b507f0000000000000000000000000000000000000000000000000000000000000000610349565b5f6001600160e01b031982167f65455a860000000000000000000000000000000000000000000000000000000014806109a257506001600160e01b031982167f4e2312e000000000000000000000000000000000000000000000000000000000145b806109d657507f01ffc9a7000000000000000000000000000000000000000000000000000000006001600160e01b03198316145b92915050565b6060600380546109eb90612e86565b80601f0160208091040260200160405190810160405280929190818152602001828054610a1790612e86565b8015610a625780601f10610a3957610100808354040283529160200191610a62565b820191905f5260205f20905b815481529060010190602001808311610a4557829003601f168201915b5050505050905090565b5f80610a7a8686868661136c565b9050610a8f81610a8a60046113c4565b6113e6565b505f6040517f90884a4600000000000000000000000000000000000000000000000000000000815260040160405180910390fd5b5f80610ad18686868661136c565b9050610af181610ae160056113c4565b610aeb60046113c4565b176113e6565b505f81815260046020526040902080547fff00ffffffffffffffffffffffffffffffffffffffffffffffffffffffffffff16600160f01b17905530610b333090565b6001600160a01b031614610bbc575f5b8651811015610bba57306001600160a01b0316878281518110610b6857610b68612ebe565b60200260200101516001600160a01b031603610bb257610bb2858281518110610b9357610b93612ebe565b602002602001015180519060200120600561142390919063ffffffff16565b600101610b43565b505b610bc98187878787611496565b6040518181527f712ae1383f79ac853f8d882153778e0260ef8f03b504e2866e0593e04d2b291f906020015b60405180910390a195945050505050565b5f818152600460205260408120805460ff600160f01b8204811691600160f81b9004168115610c3a57506007949350505050565b8015610c4b57506002949350505050565b5f85815260046020526040812054600160a01b900465ffffffffffff169050805f03610cab576040517f6ad06075000000000000000000000000000000000000000000000000000000008152600481018790526024015b60405180910390fd5b5f610cb461120c565b65ffffffffffff169050808210610cd157505f9695505050505050565b5f610cdb886112ae565b9050818110610cf257506001979650505050505050565b610cfb8861156b565b1580610d1a57505f888152600760205260409020805460019091015411155b15610d2d57506003979650505050505050565b5f8881526004602052604090206001015465ffffffffffff165f03610d5a57506004979650505050505050565b506005979650505050505050565b5f80610d768686868661136c565b9050610d8581610a8a5f6113c4565b505f818152600460205260409020546001600160a01b03163314610dd7576040517f233d98e3000000000000000000000000000000000000000000000000000000008152336004820152602401610ca2565b610de3868686866115bb565b9695505050505050565b60607f00000000000000000000000000000000000000000000000000000000000000006001600160a01b0316634bf5d7e96040518163ffffffff1660e01b81526004015f60405180830381865afa925050508015610e6c57506040513d5f823e601f3d908101601f19168201604052610e699190810190612ed2565b60015b610ea8575060408051808201909152601d81527f6d6f64653d626c6f636b6e756d6265722666726f6d3d64656661756c74000000602082015290565b919050565b5f80339050610ecc84828560405180602001604052805f815250611682565b949350505050565b5f80610fb587610faf7f3e83946653575f9a39005e1545185629e92736b7528ab20ca3816f315424a8118c8c8c610f278e6001600160a01b03165f90815260026020526040902080546001810190915590565b8d8d604051610f37929190612f3b565b60405180910390208c80519060200120604051602001610f949796959493929190968752602087019590955260ff9390931660408601526001600160a01b03919091166060850152608084015260a083015260c082015260e00190565b604051602081830303815290604052805190602001206116a3565b856116ea565b905080610fe0576040516394ab6c0760e01b81526001600160a01b0388166004820152602401610ca2565b61102389888a89898080601f0160208091040260200160405190810160405280939291908181526020018383808284375f920191909152508b925061175a915050565b9998505050505050505050565b5f8033905061107887828888888080601f0160208091040260200160405190810160405280939291908181526020018383808284375f920191909152508a925061175a915050565b979650505050505050565b5f80339050610de386828787878080601f0160208091040260200160405190810160405280939291908181526020018383808284375f9201919091525061168292505050565b5f6110d68585858561184d565b95945050505050565b5f6060805f805f60606110f06118a8565b6110f86118d4565b604080515f808252602082019092527f0f000000000000000000000000000000000000000000000000000000000000009b939a50919850469750309650945092509050565b5f806111c784610faf7ff2aad550cf55f045cb27e9c559f9889fdfb6e6cdaa032301d6ea397784ae51d78989896111908b6001600160a01b03165f90815260026020526040902080546001810190915590565b60408051602081019690965285019390935260ff90911660608401526001600160a01b0316608083015260a082015260c001610f94565b9050806111f2576040516394ab6c0760e01b81526001600160a01b0385166004820152602401610ca2565b610de386858760405180602001604052805f815250611682565b5f7f00000000000000000000000000000000000000000000000000000000000000006001600160a01b03166391ddadf46040518163ffffffff1660e01b8152600401602060405180830381865afa925050508015611287575060408051601f3d908101601f1916820190925261128491810190612f4a565b60015b610ea857611293611901565b905090565b5f6112a484848461190b565b90505b9392505050565b5f818152600460205260408120546112e290600160d01b810463ffffffff1690600160a01b900465ffffffffffff16612f83565b65ffffffffffff1692915050565b6112f86119b7565b5f80856001600160a01b0316858585604051611315929190612f3b565b5f6040518083038185875af1925050503d805f811461134f576040519150601f19603f3d011682016040523d82523d5f602084013e611354565b606091505b50915091506113638282611a07565b50505050505050565b5f848484846040516020016113849493929190613039565b60408051601f19818403018152919052805160209091012095945050505050565b5f6112a783836113bf60408051602081019091525f815290565b61190b565b5f8160078111156113d7576113d76128a8565b600160ff919091161b92915050565b5f806113f184610c06565b90505f836113fe836113c4565b16036112a7578381846040516331b75e4d60e01b8152600401610ca293929190613083565b81546fffffffffffffffffffffffffffffffff600160801b820481169181166001830190911603611458576114586041611a23565b6fffffffffffffffffffffffffffffffff8082165f90815260018086016020526040909120939093558354919092018216600160801b029116179055565b5f5b8451811015611563575f808683815181106114b5576114b5612ebe565b60200260200101516001600160a01b03168684815181106114d8576114d8612ebe565b60200260200101518685815181106114f2576114f2612ebe565b602002602001015160405161150791906130a5565b5f6040518083038185875af1925050503d805f8114611541576040519150601f19603f3d011682016040523d82523d5f602084013e611546565b606091505b50915091506115558282611a07565b505050806001019050611498565b505050505050565b5f8181526007602052604081206002810154600182015461158c91906130c0565b5f848152600460205260409020546115b290600160a01b900465ffffffffffff16610900565b11159392505050565b5f806115c98686868661136c565b9050611617816115d960076113c4565b6115e360066113c4565b6115ed60026113c4565b60016115fa6007826130d3565b6116059060026131cc565b61160f91906131da565b1818186113e6565b505f818152600460205260409081902080547effffffffffffffffffffffffffffffffffffffffffffffffffffffffffffff16600160f81b179055517f789cf55be980739dad1d0699b93b58e806b51c9d96619bfa8fe0a28abaa7b30c90610bf59083815260200190565b5f6110d68585858561169e60408051602081019091525f815290565b61175a565b5f6109d66116af611a34565b836040517f19010000000000000000000000000000000000000000000000000000000000008152600281019290925260228201526042902090565b5f836001600160a01b03163b5f03611748575f806117088585611b5d565b5090925090505f816003811115611721576117216128a8565b14801561173f5750856001600160a01b0316826001600160a01b0316145b925050506112a7565b611753848484611ba6565b90506112a7565b5f61176986610a8a60016113c4565b505f86815260046020526040812054611793908790600160a01b900465ffffffffffff168561190b565b90505f6117a38888888588611c91565b905083515f036117f957866001600160a01b03167fb8e138887d0aa13bab447e82de9d5c1777041ecd21ca36ba824ff1e6c07ddda4898884896040516117ec94939291906131ed565b60405180910390a2611078565b866001600160a01b03167fe2babfbac5889a709b63bb7f598b324e08bc5a4fb9ec647fb3cbc9ec07eb8712898884898960405161183a959493929190613214565b60405180910390a2979650505050505050565b5f336118598184611dbf565b61189a576040517fd9b395570000000000000000000000000000000000000000000000000000000081526001600160a01b0382166004820152602401610ca2565b5f6110788787878786611edd565b60606112937f00000000000000000000000000000000000000000000000000000000000000005f612135565b60606112937f00000000000000000000000000000000000000000000000000000000000000006001612135565b5f611293436121de565b5f7f00000000000000000000000000000000000000000000000000000000000000006040517f3a46b1a80000000000000000000000000000000000000000000000000000000081526001600160a01b038681166004830152602482018690529190911690633a46b1a890604401602060405180830381865afa158015611993573d5f803e3d5ffd5b505050506040513d601f19601f820116820180604052508101906112a49190613259565b3033146119f2576040517f47096e47000000000000000000000000000000000000000000000000000000008152336004820152602401610ca2565b565b806119ff6005612214565b036119f45750565b606082611a1c57611a1782612293565b6109d6565b50806109d6565b634e487b715f52806020526024601cfd5b5f306001600160a01b037f000000000000000000000000000000000000000000000000000000000000000016148015611a8c57507f000000000000000000000000000000000000000000000000000000000000000046145b15611ab657507f000000000000000000000000000000000000000000000000000000000000000090565b611293604080517f8b73c3c69bb8fe3d512ecc4cf759cc79239f7b179b0ffacaa9a75d522b39400f60208201527f0000000000000000000000000000000000000000000000000000000000000000918101919091527f000000000000000000000000000000000000000000000000000000000000000060608201524660808201523060a08201525f9060c00160405160208183030381529060405280519060200120905090565b5f805f8351604103611b94576020840151604085015160608601515f1a611b86888285856122d5565b955095509550505050611b9f565b505081515f91506002905b9250925092565b5f805f856001600160a01b03168585604051602401611bc6929190613270565b60408051601f198184030181529181526020820180517bffffffffffffffffffffffffffffffffffffffffffffffffffffffff16630b135d3f60e11b17905251611c1091906130a5565b5f60405180830381855afa9150503d805f8114611c48576040519150601f19603f3d011682016040523d82523d5f602084013e611c4d565b606091505b5091509150818015611c6157506020815110155b8015610de357508051630b135d3f60e11b90611c869083016020908101908401613259565b149695505050505050565b5f8581526007602090815260408083206001600160a01b03881684526003810190925282205460ff1615611cfc576040517f71c6af490000000000000000000000000000000000000000000000000000000081526001600160a01b0387166004820152602401610ca2565b6001600160a01b0386165f9081526003820160205260409020805460ff1916600117905560ff8516611d455783815f015f828254611d3a91906130c0565b90915550611db49050565b5f1960ff861601611d635783816001015f828254611d3a91906130c0565b60011960ff861601611d825783816002015f828254611d3a91906130c0565b6040517f06b337c200000000000000000000000000000000000000000000000000000000815260040160405180910390fd5b509195945050505050565b80515f906034811015611dd65760019150506109d6565b828101601319015173ffffffffffffffffffffffffffffffffffffffff1981167f2370726f706f7365723d3078000000000000000000000000000000000000000014611e27576001925050506109d6565b5f80611e346028856131da565b90505b83811015611ebc575f80611e82888481518110611e5657611e56612ebe565b01602001517fff000000000000000000000000000000000000000000000000000000000000001661239d565b9150915081611e9a57600196505050505050506109d6565b8060ff166004856001600160a01b0316901b1793505050806001019050611e37565b50856001600160a01b0316816001600160a01b031614935050505092915050565b5f611ef1868686868051906020012061136c565b905084518651141580611f0657508351865114155b80611f1057508551155b15611f5e578551845186516040517f447b05d0000000000000000000000000000000000000000000000000000000008152600481019390935260248301919091526044820152606401610ca2565b5f81815260046020526040902054600160a01b900465ffffffffffff1615611fa75780611f8a82610c06565b6040516331b75e4d60e01b8152610ca29291905f90600401613083565b5f62015180611fb461120c565b65ffffffffffff16611fc691906130c0565b90505f62093a805f848152600460205260409020805473ffffffffffffffffffffffffffffffffffffffff19166001600160a01b03871617815590915061200c836121de565b815465ffffffffffff91909116600160a01b027fffffffffffff000000000000ffffffffffffffffffffffffffffffffffffffff90911617815561204f8261242d565b815463ffffffff91909116600160d01b027fffff00000000ffffffffffffffffffffffffffffffffffffffffffffffffffff90911617815588517f7d84a6263ae0d98d3329bd7b46bb4e8d6f98cd35a7adb45c274c8b7fd5ebd5e090859087908c908c9067ffffffffffffffff8111156120cb576120cb61258d565b6040519080825280602002602001820160405280156120fe57816020015b60608152602001906001900390816120e95790505b508c8961210b8a826130c0565b8e60405161212199989796959493929190613288565b60405180910390a150505095945050505050565b606060ff831461214f576121488361245d565b90506109d6565b81805461215b90612e86565b80601f016020809104026020016040519081016040528092919081815260200182805461218790612e86565b80156121d25780601f106121a9576101008083540402835291602001916121d2565b820191905f5260205f20905b8154815290600101906020018083116121b557829003601f168201915b505050505090506109d6565b5f65ffffffffffff821115612210576040516306dfcc6560e41b81526030600482015260248101839052604401610ca2565b5090565b80545f906fffffffffffffffffffffffffffffffff80821691600160801b9004168103612245576122456031611a23565b6fffffffffffffffffffffffffffffffff8181165f908152600185810160205260408220805492905585546fffffffffffffffffffffffffffffffff19169301909116919091179092555090565b8051156122a35780518082602001fd5b6040517fd6bda27500000000000000000000000000000000000000000000000000000000815260040160405180910390fd5b5f80807f7fffffffffffffffffffffffffffffff5d576e7357a4501ddfe92f46681b20a084111561230e57505f91506003905082612393565b604080515f808252602082018084528a905260ff891692820192909252606081018790526080810186905260019060a0016020604051602081039080840390855afa15801561235f573d5f803e3d5ffd5b5050604051601f1901519150506001600160a01b03811661238a57505f925060019150829050612393565b92505f91508190505b9450945094915050565b5f8060f883901c602f811180156123b75750603a8160ff16105b156123cc57600194602f199091019350915050565b8060ff1660401080156123e2575060478160ff16105b156123f7576001946036199091019350915050565b8060ff16606010801561240d575060678160ff16105b15612422576001946056199091019350915050565b505f93849350915050565b5f63ffffffff821115612210576040516306dfcc6560e41b81526020600482015260248101839052604401610ca2565b60605f6124698361249a565b6040805160208082528183019092529192505f91906020820181803683375050509182525060208101929092525090565b5f60ff8216601f8111156109d6576040517fb3512b0c00000000000000000000000000000000000000000000000000000000815260040160405180910390fd5b5f602082840312156124ea575f80fd5b81356001600160e01b0319811681146112a7575f80fd5b5f5b8381101561251b578181015183820152602001612503565b50505f910152565b5f815180845261253a816020860160208601612501565b601f01601f19169290920160200192915050565b602081525f6112a76020830184612523565b5f60208284031215612570575f80fd5b5035919050565b80356001600160a01b0381168114610ea8575f80fd5b634e487b7160e01b5f52604160045260245ffd5b604051601f8201601f1916810167ffffffffffffffff811182821017156125ca576125ca61258d565b604052919050565b5f67ffffffffffffffff8211156125eb576125eb61258d565b50601f01601f191660200190565b5f61260b612606846125d2565b6125a1565b905082815283838301111561261e575f80fd5b828260208301375f602084830101529392505050565b5f82601f830112612643575f80fd5b6112a7838335602085016125f9565b5f805f8060808587031215612665575f80fd5b61266e85612577565b935061267c60208601612577565b925060408501359150606085013567ffffffffffffffff81111561269e575f80fd5b6126aa87828801612634565b91505092959194509250565b5f67ffffffffffffffff8211156126cf576126cf61258d565b5060051b60200190565b5f82601f8301126126e8575f80fd5b813560206126f8612606836126b6565b8083825260208201915060208460051b870101935086841115612719575f80fd5b602086015b8481101561273c5761272f81612577565b835291830191830161271e565b509695505050505050565b5f82601f830112612756575f80fd5b81356020612766612606836126b6565b8083825260208201915060208460051b870101935086841115612787575f80fd5b602086015b8481101561273c578035835291830191830161278c565b5f82601f8301126127b2575f80fd5b813560206127c2612606836126b6565b82815260059290921b840181019181810190868411156127e0575f80fd5b8286015b8481101561273c57803567ffffffffffffffff811115612802575f80fd5b6128108986838b0101612634565b8452509183019183016127e4565b5f805f8060808587031215612831575f80fd5b843567ffffffffffffffff80821115612848575f80fd5b612854888389016126d9565b95506020870135915080821115612869575f80fd5b61287588838901612747565b9450604087013591508082111561288a575f80fd5b50612897878288016127a3565b949793965093946060013593505050565b634e487b7160e01b5f52602160045260245ffd5b600881106128d857634e487b7160e01b5f52602160045260245ffd5b9052565b602081016109d682846128bc565b5f80604083850312156128fb575f80fd5b8235915061290b60208401612577565b90509250929050565b803560ff81168114610ea8575f80fd5b5f8060408385031215612935575f80fd5b8235915061290b60208401612914565b5f8083601f840112612955575f80fd5b50813567ffffffffffffffff81111561296c575f80fd5b602083019150836020828501011115612983575f80fd5b9250929050565b5f805f805f805f60c0888a0312156129a0575f80fd5b873596506129b060208901612914565b95506129be60408901612577565b9450606088013567ffffffffffffffff808211156129da575f80fd5b6129e68b838c01612945565b909650945060808a01359150808211156129fe575f80fd5b612a0a8b838c01612634565b935060a08a0135915080821115612a1f575f80fd5b50612a2c8a828b01612634565b91505092959891949750929550565b5f805f805f60808688031215612a4f575f80fd5b85359450612a5f60208701612914565b9350604086013567ffffffffffffffff80821115612a7b575f80fd5b612a8789838a01612945565b90955093506060880135915080821115612a9f575f80fd5b50612aac88828901612634565b9150509295509295909350565b5f805f8060608587031215612acc575f80fd5b84359350612adc60208601612914565b9250604085013567ffffffffffffffff811115612af7575f80fd5b612b0387828801612945565b95989497509550505050565b5f805f8060808587031215612b22575f80fd5b843567ffffffffffffffff80821115612b39575f80fd5b612b45888389016126d9565b95506020870135915080821115612b5a575f80fd5b612b6688838901612747565b94506040870135915080821115612b7b575f80fd5b612b87888389016127a3565b93506060870135915080821115612b9c575f80fd5b508501601f81018713612bad575f80fd5b6126aa878235602084016125f9565b5f60208284031215612bcc575f80fd5b6112a782612577565b5f815180845260208085019450602084015f5b83811015612c0457815187529582019590820190600101612be8565b509495945050505050565b7fff000000000000000000000000000000000000000000000000000000000000008816815260e060208201525f612c4960e0830189612523565b8281036040840152612c5b8189612523565b90508660608401526001600160a01b03861660808401528460a084015282810360c0840152612c8a8185612bd5565b9a9950505050505050505050565b5f805f8060808587031215612cab575f80fd5b84359350612cbb60208601612914565b9250612cc960408601612577565b9150606085013567ffffffffffffffff81111561269e575f80fd5b5f805f60608486031215612cf6575f80fd5b612cff84612577565b925060208401359150604084013567ffffffffffffffff811115612d21575f80fd5b612d2d86828701612634565b9150509250925092565b5f805f805f60a08688031215612d4b575f80fd5b612d5486612577565b9450612d6260208701612577565b9350604086013567ffffffffffffffff80821115612d7e575f80fd5b612d8a89838a01612747565b94506060880135915080821115612d9f575f80fd5b612dab89838a01612747565b93506080880135915080821115612a9f575f80fd5b5f805f8060608587031215612dd3575f80fd5b612ddc85612577565b935060208501359250604085013567ffffffffffffffff811115612af7575f80fd5b5f8060408385031215612e0f575f80fd5b612e1883612577565b946020939093013593505050565b5f805f805f60a08688031215612e3a575f80fd5b612e4386612577565b9450612e5160208701612577565b93506040860135925060608601359150608086013567ffffffffffffffff811115612e7a575f80fd5b612aac88828901612634565b600181811c90821680612e9a57607f821691505b602082108103612eb857634e487b7160e01b5f52602260045260245ffd5b50919050565b634e487b7160e01b5f52603260045260245ffd5b5f60208284031215612ee2575f80fd5b815167ffffffffffffffff811115612ef8575f80fd5b8201601f81018413612f08575f80fd5b8051612f16612606826125d2565b818152856020838501011115612f2a575f80fd5b6110d6826020830160208601612501565b818382375f9101908152919050565b5f60208284031215612f5a575f80fd5b815165ffffffffffff811681146112a7575f80fd5b634e487b7160e01b5f52601160045260245ffd5b65ffffffffffff818116838216019080821115612fa257612fa2612f6f565b5092915050565b5f815180845260208085019450602084015f5b83811015612c045781516001600160a01b031687529582019590820190600101612fbc565b5f8282518085526020808601955060208260051b840101602086015f5b8481101561302c57601f1986840301895261301a838351612523565b98840198925090830190600101612ffe565b5090979650505050505050565b608081525f61304b6080830187612fa9565b828103602084015261305d8187612bd5565b905082810360408401526130718186612fe1565b91505082606083015295945050505050565b8381526060810161309760208301856128bc565b826040830152949350505050565b5f82516130b6818460208701612501565b9190910192915050565b808201808211156109d6576109d6612f6f565b60ff81811683821601908111156109d6576109d6612f6f565b600181815b8085111561312657815f190482111561310c5761310c612f6f565b8085161561311957918102915b93841c93908002906130f1565b509250929050565b5f8261313c575060016109d6565b8161314857505f6109d6565b816001811461315e576002811461316857613184565b60019150506109d6565b60ff84111561317957613179612f6f565b50506001821b6109d6565b5060208310610133831016604e8410600b84101617156131a7575081810a6109d6565b6131b183836130ec565b805f19048211156131c4576131c4612f6f565b029392505050565b5f6112a760ff84168361312e565b818103818111156109d6576109d6612f6f565b84815260ff84166020820152826040820152608060608201525f610de36080830184612523565b85815260ff8516602082015283604082015260a060608201525f61323b60a0830185612523565b828103608084015261324d8185612523565b98975050505050505050565b5f60208284031215613269575f80fd5b5051919050565b828152604060208201525f6112a46040830184612523565b5f6101208b835260206001600160a01b038c16818501528160408501526132b18285018c612fa9565b915083820360608501526132c5828b612bd5565b915083820360808501528189518084528284019150828160051b850101838c015f5b8381101561331557601f19878403018552613303838351612523565b948601949250908501906001016132e7565b505086810360a0880152613329818c612fe1565b9450505050508560c08401528460e084015282810361010084015261334e8185612523565b9c9b50505050505050505050505056fea2646970667358221220b9b35fdd7d15f63472129ea7aefd42731320ddab8efab16994bf38e5bec1263b64736f6c63430008180033","linkReferences":{}},"methodIdentifiers":{"BALLOT_TYPEHASH()":"deaaa7cc","CLOCK_MODE()":"4bf5d7e9","COUNTING_MODE()":"dd4e2ba5","EXTENDED_BALLOT_TYPEHASH()":"2fe3e261","cancel(address[],uint256[],bytes[],bytes32)":"452115d6","castVote(uint256,uint8)":"56781388","castVoteBySig(uint256,uint8,address,bytes)":"8ff262e3","castVoteWithReason(uint256,uint8,string)":"7b3c71d3","castVoteWithReasonAndParams(uint256,uint8,string,bytes)":"5f398a14","castVoteWithReasonAndParamsBySig(uint256,uint8,address,string,bytes,bytes)":"5b8d0e0d","clock()":"91ddadf4","eip712Domain()":"84b0196e","execute(address[],uint256[],bytes[],bytes32)":"2656227d","getVotes(address,uint256)":"eb9019d4","getVotesWithParams(address,uint256,bytes)":"9a802a6d","hasVoted(uint256,address)":"43859632","hashProposal(address[],uint256[],bytes[],bytes32)":"c59057e4","name()":"06fdde03","nonces(address)":"7ecebe00","onERC1155BatchReceived(address,address,uint256[],uint256[],bytes)":"bc197c81","onERC1155Received(address,address,uint256,uint256,bytes)":"f23a6e61","onERC721Received(address,address,uint256,bytes)":"150b7a02","proposalDeadline(uint256)":"c01f9e37","proposalEta(uint256)":"ab58fb8e","proposalNeedsQueuing(uint256)":"a9a95294","proposalProposer(uint256)":"143489d0","proposalSnapshot(uint256)":"2d63f693","proposalThreshold()":"b58131b0","proposalVotes(uint256)":"544ffc9c","propose(address[],uint256[],bytes[],string)":"7d5e81e2","queue(address[],uint256[],bytes[],bytes32)":"160cbed7","quorum(uint256)":"f8ce560a","relay(address,uint256,bytes)":"c28bc2fa","state(uint256)":"3e4f49e6","supportsInterface(bytes4)":"01ffc9a7","token()":"fc0c546a","version()":"54fd4d50","votingDelay()":"3932abb1","votingPeriod()":"02a251a3"},"id":5}