{"abi":[{"type":"function","name":"callAfterAddLiquidityHook","inputs":[{"name":"config","type":"bytes32","internalType":"PoolConfigBits"},{"name":"router","type":"address","internalType":"address"},{"name":"amountsInScaled18","type":"uint256[]","internalType":"uint256[]"},{"name":"amountsInRaw","type":"uint256[]","internalType":"uint256[]"},{"name":"bptAmountOut","type":"uint256","internalType":"uint256"},{"name":"params","type":"tuple","internalType":"struct AddLiquidityParams","components":[{"name":"pool","type":"address","internalType":"address"},{"name":"to","type":"address","internalType":"address"},{"name":"maxAmountsIn","type":"uint256[]","internalType":"uint256[]"},{"name":"minBptAmountOut","type":"uint256","internalType":"uint256"},{"name":"kind","type":"uint8","internalType":"enum AddLiquidityKind"},{"name":"userData","type":"bytes","internalType":"bytes"}]},{"name":"poolData","type":"tuple","internalType":"struct PoolData","components":[{"name":"poolConfigBits","type":"bytes32","internalType":"PoolConfigBits"},{"name":"tokens","type":"address[]","internalType":"contract IERC20[]"},{"name":"tokenInfo","type":"tuple[]","internalType":"struct TokenInfo[]","components":[{"name":"tokenType","type":"uint8","internalType":"enum TokenType"},{"name":"rateProvider","type":"address","internalType":"contract IRateProvider"},{"name":"paysYieldFees","type":"bool","internalType":"bool"}]},{"name":"balancesRaw","type":"uint256[]","internalType":"uint256[]"},{"name":"balancesLiveScaled18","type":"uint256[]","internalType":"uint256[]"},{"name":"tokenRates","type":"uint256[]","internalType":"uint256[]"},{"name":"decimalScalingFactors","type":"uint256[]","internalType":"uint256[]"}]},{"name":"hooksContract","type":"address","internalType":"contract IHooks"}],"outputs":[{"name":"","type":"uint256[]","internalType":"uint256[]"}],"stateMutability":"nonpayable"},{"type":"function","name":"callAfterInitializeHook","inputs":[{"name":"amountsInScaled18","type":"uint256[]","internalType":"uint256[]"},{"name":"bptAmountOut","type":"uint256","internalType":"uint256"},{"name":"userData","type":"bytes","internalType":"bytes"},{"name":"hooksContract","type":"address","internalType":"contract IHooks"}],"outputs":[],"stateMutability":"nonpayable"},{"type":"function","name":"callAfterRemoveLiquidityHook","inputs":[{"name":"config","type":"bytes32","internalType":"PoolConfigBits"},{"name":"router","type":"address","internalType":"address"},{"name":"amountsOutScaled18","type":"uint256[]","internalType":"uint256[]"},{"name":"amountsOutRaw","type":"uint256[]","internalType":"uint256[]"},{"name":"bptAmountIn","type":"uint256","internalType":"uint256"},{"name":"params","type":"tuple","internalType":"struct RemoveLiquidityParams","components":[{"name":"pool","type":"address","internalType":"address"},{"name":"from","type":"address","internalType":"address"},{"name":"maxBptAmountIn","type":"uint256","internalType":"uint256"},{"name":"minAmountsOut","type":"uint256[]","internalType":"uint256[]"},{"name":"kind","type":"uint8","internalType":"enum RemoveLiquidityKind"},{"name":"userData","type":"bytes","internalType":"bytes"}]},{"name":"poolData","type":"tuple","internalType":"struct PoolData","components":[{"name":"poolConfigBits","type":"bytes32","internalType":"PoolConfigBits"},{"name":"tokens","type":"address[]","internalType":"contract IERC20[]"},{"name":"tokenInfo","type":"tuple[]","internalType":"struct TokenInfo[]","components":[{"name":"tokenType","type":"uint8","internalType":"enum TokenType"},{"name":"rateProvider","type":"address","internalType":"contract IRateProvider"},{"name":"paysYieldFees","type":"bool","internalType":"bool"}]},{"name":"balancesRaw","type":"uint256[]","internalType":"uint256[]"},{"name":"balancesLiveScaled18","type":"uint256[]","internalType":"uint256[]"},{"name":"tokenRates","type":"uint256[]","internalType":"uint256[]"},{"name":"decimalScalingFactors","type":"uint256[]","internalType":"uint256[]"}]},{"name":"hooksContract","type":"address","internalType":"contract IHooks"}],"outputs":[{"name":"","type":"uint256[]","internalType":"uint256[]"}],"stateMutability":"nonpayable"},{"type":"function","name":"callAfterSwapHook","inputs":[{"name":"config","type":"bytes32","internalType":"PoolConfigBits"},{"name":"amountCalculatedScaled18","type":"uint256","internalType":"uint256"},{"name":"amountCalculatedRaw","type":"uint256","internalType":"uint256"},{"name":"router","type":"address","internalType":"address"},{"name":"vaultSwapParams","type":"tuple","internalType":"struct VaultSwapParams","components":[{"name":"kind","type":"uint8","internalType":"enum SwapKind"},{"name":"pool","type":"address","internalType":"address"},{"name":"tokenIn","type":"address","internalType":"contract IERC20"},{"name":"tokenOut","type":"address","internalType":"contract IERC20"},{"name":"amountGivenRaw","type":"uint256","internalType":"uint256"},{"name":"limitRaw","type":"uint256","internalType":"uint256"},{"name":"userData","type":"bytes","internalType":"bytes"}]},{"name":"state","type":"tuple","internalType":"struct SwapState","components":[{"name":"indexIn","type":"uint256","internalType":"uint256"},{"name":"indexOut","type":"uint256","internalType":"uint256"},{"name":"amountGivenScaled18","type":"uint256","internalType":"uint256"},{"name":"swapFeePercentage","type":"uint256","internalType":"uint256"}]},{"name":"poolData","type":"tuple","internalType":"struct PoolData","components":[{"name":"poolConfigBits","type":"bytes32","internalType":"PoolConfigBits"},{"name":"tokens","type":"address[]","internalType":"contract IERC20[]"},{"name":"tokenInfo","type":"tuple[]","internalType":"struct TokenInfo[]","components":[{"name":"tokenType","type":"uint8","internalType":"enum TokenType"},{"name":"rateProvider","type":"address","internalType":"contract IRateProvider"},{"name":"paysYieldFees","type":"bool","internalType":"bool"}]},{"name":"balancesRaw","type":"uint256[]","internalType":"uint256[]"},{"name":"balancesLiveScaled18","type":"uint256[]","internalType":"uint256[]"},{"name":"tokenRates","type":"uint256[]","internalType":"uint256[]"},{"name":"decimalScalingFactors","type":"uint256[]","internalType":"uint256[]"}]},{"name":"hooksContract","type":"address","internalType":"contract IHooks"}],"outputs":[{"name":"","type":"uint256","internalType":"uint256"}],"stateMutability":"nonpayable"},{"type":"function","name":"callBeforeAddLiquidityHook","inputs":[{"name":"router","type":"address","internalType":"address"},{"name":"maxAmountsInScaled18","type":"uint256[]","internalType":"uint256[]"},{"name":"params","type":"tuple","internalType":"struct AddLiquidityParams","components":[{"name":"pool","type":"address","internalType":"address"},{"name":"to","type":"address","internalType":"address"},{"name":"maxAmountsIn","type":"uint256[]","internalType":"uint256[]"},{"name":"minBptAmountOut","type":"uint256","internalType":"uint256"},{"name":"kind","type":"uint8","internalType":"enum AddLiquidityKind"},{"name":"userData","type":"bytes","internalType":"bytes"}]},{"name":"poolData","type":"tuple","internalType":"struct PoolData","components":[{"name":"poolConfigBits","type":"bytes32","internalType":"PoolConfigBits"},{"name":"tokens","type":"address[]","internalType":"contract IERC20[]"},{"name":"tokenInfo","type":"tuple[]","internalType":"struct TokenInfo[]","components":[{"name":"tokenType","type":"uint8","internalType":"enum TokenType"},{"name":"rateProvider","type":"address","internalType":"contract IRateProvider"},{"name":"paysYieldFees","type":"bool","internalType":"bool"}]},{"name":"balancesRaw","type":"uint256[]","internalType":"uint256[]"},{"name":"balancesLiveScaled18","type":"uint256[]","internalType":"uint256[]"},{"name":"tokenRates","type":"uint256[]","internalType":"uint256[]"},{"name":"decimalScalingFactors","type":"uint256[]","internalType":"uint256[]"}]},{"name":"hooksContract","type":"address","internalType":"contract IHooks"}],"outputs":[],"stateMutability":"nonpayable"},{"type":"function","name":"callBeforeInitializeHook","inputs":[{"name":"exactAmountsInScaled18","type":"uint256[]","internalType":"uint256[]"},{"name":"userData","type":"bytes","internalType":"bytes"},{"name":"hooksContract","type":"address","internalType":"contract IHooks"}],"outputs":[],"stateMutability":"nonpayable"},{"type":"function","name":"callBeforeRemoveLiquidityHook","inputs":[{"name":"minAmountsOutScaled18","type":"uint256[]","internalType":"uint256[]"},{"name":"router","type":"address","internalType":"address"},{"name":"params","type":"tuple","internalType":"struct RemoveLiquidityParams","components":[{"name":"pool","type":"address","internalType":"address"},{"name":"from","type":"address","internalType":"address"},{"name":"maxBptAmountIn","type":"uint256","internalType":"uint256"},{"name":"minAmountsOut","type":"uint256[]","internalType":"uint256[]"},{"name":"kind","type":"uint8","internalType":"enum RemoveLiquidityKind"},{"name":"userData","type":"bytes","internalType":"bytes"}]},{"name":"poolData","type":"tuple","internalType":"struct PoolData","components":[{"name":"poolConfigBits","type":"bytes32","internalType":"PoolConfigBits"},{"name":"tokens","type":"address[]","internalType":"contract IERC20[]"},{"name":"tokenInfo","type":"tuple[]","internalType":"struct TokenInfo[]","components":[{"name":"tokenType","type":"uint8","internalType":"enum TokenType"},{"name":"rateProvider","type":"address","internalType":"contract IRateProvider"},{"name":"paysYieldFees","type":"bool","internalType":"bool"}]},{"name":"balancesRaw","type":"uint256[]","internalType":"uint256[]"},{"name":"balancesLiveScaled18","type":"uint256[]","internalType":"uint256[]"},{"name":"tokenRates","type":"uint256[]","internalType":"uint256[]"},{"name":"decimalScalingFactors","type":"uint256[]","internalType":"uint256[]"}]},{"name":"hooksContract","type":"address","internalType":"contract IHooks"}],"outputs":[],"stateMutability":"nonpayable"},{"type":"function","name":"callBeforeSwapHook","inputs":[{"name":"swapParams","type":"tuple","internalType":"struct PoolSwapParams","components":[{"name":"kind","type":"uint8","internalType":"enum SwapKind"},{"name":"amountGivenScaled18","type":"uint256","internalType":"uint256"},{"name":"balancesScaled18","type":"uint256[]","internalType":"uint256[]"},{"name":"indexIn","type":"uint256","internalType":"uint256"},{"name":"indexOut","type":"uint256","internalType":"uint256"},{"name":"router","type":"address","internalType":"address"},{"name":"userData","type":"bytes","internalType":"bytes"}]},{"name":"pool","type":"address","internalType":"address"},{"name":"hooksContract","type":"address","internalType":"contract IHooks"}],"outputs":[],"stateMutability":"nonpayable"},{"type":"function","name":"callComputeDynamicSwapFeeHook","inputs":[{"name":"swapParams","type":"tuple","internalType":"struct PoolSwapParams","components":[{"name":"kind","type":"uint8","internalType":"enum SwapKind"},{"name":"amountGivenScaled18","type":"uint256","internalType":"uint256"},{"name":"balancesScaled18","type":"uint256[]","internalType":"uint256[]"},{"name":"indexIn","type":"uint256","internalType":"uint256"},{"name":"indexOut","type":"uint256","internalType":"uint256"},{"name":"router","type":"address","internalType":"address"},{"name":"userData","type":"bytes","internalType":"bytes"}]},{"name":"pool","type":"address","internalType":"address"},{"name":"staticSwapFeePercentage","type":"uint256","internalType":"uint256"},{"name":"hooksContract","type":"address","internalType":"contract IHooks"}],"outputs":[{"name":"","type":"uint256","internalType":"uint256"}],"stateMutability":"view"},{"type":"error","name":"AfterAddLiquidityHookFailed","inputs":[]},{"type":"error","name":"AfterInitializeHookFailed","inputs":[]},{"type":"error","name":"AfterRemoveLiquidityHookFailed","inputs":[]},{"type":"error","name":"AfterSwapHookFailed","inputs":[]},{"type":"error","name":"BeforeAddLiquidityHookFailed","inputs":[]},{"type":"error","name":"BeforeInitializeHookFailed","inputs":[]},{"type":"error","name":"BeforeRemoveLiquidityHookFailed","inputs":[]},{"type":"error","name":"BeforeSwapHookFailed","inputs":[]},{"type":"error","name":"DynamicSwapFeeHookFailed","inputs":[]},{"type":"error","name":"HookAdjustedAmountInAboveMax","inputs":[{"name":"tokenIn","type":"address","internalType":"contract IERC20"},{"name":"amountIn","type":"uint256","internalType":"uint256"},{"name":"maxAmountIn","type":"uint256","internalType":"uint256"}]},{"type":"error","name":"HookAdjustedAmountOutBelowMin","inputs":[{"name":"tokenOut","type":"address","internalType":"contract IERC20"},{"name":"amountOut","type":"uint256","internalType":"uint256"},{"name":"minAmountOut","type":"uint256","internalType":"uint256"}]},{"type":"error","name":"HookAdjustedSwapLimit","inputs":[{"name":"amount","type":"uint256","internalType":"uint256"},{"name":"limit","type":"uint256","internalType":"uint256"}]},{"type":"error","name":"PercentageAboveMax","inputs":[]}],"bytecode":{"object":"0x608060405234801561000f575f80fd5b50611fa98061001d5f395ff3fe608060405234801561000f575f80fd5b506004361061009f575f3560e01c80637b4ce28911610072578063c09b084a11610058578063c09b084a14610137578063c454bdbc1461014a578063fba45a021461015d575f80fd5b80637b4ce28914610104578063af6be57314610117575f80fd5b80630d1c3679146100a357806343a958d2146100b85780635f7b1c8b146100de57806361beb53e146100f1575b5f80fd5b6100b66100b13660046112b9565b610170565b005b6100cb6100c6366004611401565b610184565b6040519081526020015b60405180910390f35b6100cb6100ec3660046114cd565b61019a565b6100b66100ff366004611602565b6101ba565b6100b66101123660046116f7565b6101cc565b61012a610125366004611761565b6101d9565b6040516100d59190611865565b61012a61014536600461187e565b6101eb565b6100b6610158366004611917565b6101fd565b6100b661016b36600461198a565b61020d565b61017d8585858585610218565b5050505050565b5f610191858585856102f5565b95945050505050565b5f6101ab89898989898989896103f2565b90505b98975050505050505050565b6101c684848484610677565b50505050565b61017d858585858561073a565b60606101ab8989898989898989610817565b60606101ab8989898989898989610a10565b610208838383610bfa565b505050565b610208838383610cbb565b825160808085015160608601519185015160a08701516040517f45421ec70000000000000000000000000000000000000000000000000000000081526001600160a01b038716956345421ec79561027b958d95929490938d939190600401611a4a565b6020604051808303815f875af1158015610297573d5f803e3d5ffd5b505050506040513d601f19601f820116820180604052508101906102bb9190611aba565b15155f0361017d576040517f0b2eb65200000000000000000000000000000000000000000000000000000000815260040160405180910390fd5b5f805f836001600160a01b031663a0e8f5ac8888886040518463ffffffff1660e01b815260040161032893929190611b98565b6040805180830381865afa158015610342573d5f803e3d5ffd5b505050506040513d601f19601f820116820180604052508101906103669190611bc5565b90925090508115155f036103a6576040517f53f976d400000000000000000000000000000000000000000000000000000000815260040160405180910390fd5b670de0b6b3a76400008111156103e8576040517f746e594000000000000000000000000000000000000000000000000000000000815260040160405180910390fd5b9695505050505050565b5f80808087516001811115610409576104096119df565b1461041957898660400151610420565b85604001518a5b915091505f80856001600160a01b03166318b6eb556040518061018001604052808c5f01516001811115610456576104566119df565b81526020018c604001516001600160a01b031681526020018c606001516001600160a01b031681526020018781526020018681526020018a608001518c5f0151815181106104a6576104a6611bf1565b602002602001015181526020018a608001518c60200151815181106104cd576104cd611bf1565b602002602001015181526020018f81526020018e81526020018d6001600160a01b031681526020018c602001516001600160a01b031681526020018c60c001518152506040518263ffffffff1660e01b815260040161052c9190611c05565b60408051808303815f875af1158015610547573d5f803e3d5ffd5b505050506040513d601f19601f8201168201806040525081019061056b9190611bc5565b90925090508115155f036105ab576040517f15a29dec00000000000000000000000000000000000000000000000000000000815260040160405180910390fd5b6105b48d610d7c565b15155f036105c8578a9450505050506101ae565b5f895160018111156105dc576105dc6119df565b1480156105ec57508860a0015181105b806106175750600189516001811115610607576106076119df565b14801561061757508860a0015181115b156106675760a08901516040517fcc0e4a9900000000000000000000000000000000000000000000000000000000815261065e918391600401918252602082015260400190565b60405180910390fd5b9c9b505050505050505050505050565b6040517f38be241d0000000000000000000000000000000000000000000000000000000081526001600160a01b038216906338be241d906106c090879087908790600401611ce8565b6020604051808303815f875af11580156106dc573d5f803e3d5ffd5b505050506040513d601f19601f820116820180604052508101906107009190611aba565b15155f036101c6576040517f0f23dbc600000000000000000000000000000000000000000000000000000000815260040160405180910390fd5b82516080808501516040808701519286015160a088015191517fba5f9f400000000000000000000000000000000000000000000000000000000081526001600160a01b0387169563ba5f9f409561079d958c959294909391928e92600401611d22565b6020604051808303815f875af11580156107b9573d5f803e3d5ffd5b505050506040513d601f19601f820116820180604052508101906107dd9190611aba565b15155f0361017d576040517f2aaf886600000000000000000000000000000000000000000000000000000000815260040160405180910390fd5b60605f80836001600160a01b0316632754888d8b885f015189608001518b8e8e8c608001518e60a001516040518963ffffffff1660e01b8152600401610864989796959493929190611d70565b5f604051808303815f875af115801561087f573d5f803e3d5ffd5b505050506040513d5f823e601f3d908101601f191682016040526108a69190810190611df8565b90925090508115806108ba57508751815114155b156108f1576040517f1d3391d800000000000000000000000000000000000000000000000000000000815260040160405180910390fd5b6108fa8b610d7c565b15155f0361090c5787925050506101ae565b5f5b8151811015610a01578660600151818151811061092d5761092d611bf1565b602002602001015182828151811061094757610947611bf1565b602002602001015110156109f9578560200151818151811061096b5761096b611bf1565b602002602001015182828151811061098557610985611bf1565b6020026020010151886060015183815181106109a3576109a3611bf1565b60209081029190910101516040517ffbd8a7240000000000000000000000000000000000000000000000000000000081526001600160a01b0390931660048401526024830191909152604482015260640161065e565b60010161090e565b509a9950505050505050505050565b60605f80836001600160a01b031663976907cc8b885f015189608001518d8d8d8c608001518e60a001516040518963ffffffff1660e01b8152600401610a5d989796959493929190611e9b565b5f604051808303815f875af1158015610a78573d5f803e3d5ffd5b505050506040513d5f823e601f3d908101601f19168201604052610a9f9190810190611df8565b9092509050811580610ab357508751815114155b15610aea576040517fe124916500000000000000000000000000000000000000000000000000000000815260040160405180910390fd5b610af38b610d7c565b15155f03610b055787925050506101ae565b5f5b8151811015610a015786604001518181518110610b2657610b26611bf1565b6020026020010151828281518110610b4057610b40611bf1565b60200260200101511115610bf25785602001518181518110610b6457610b64611bf1565b6020026020010151828281518110610b7e57610b7e611bf1565b602002602001015188604001518381518110610b9c57610b9c611bf1565b60209081029190910101516040517fcefa3afa0000000000000000000000000000000000000000000000000000000081526001600160a01b0390931660048401526024830191909152604482015260640161065e565b600101610b07565b6040517f1c149e280000000000000000000000000000000000000000000000000000000081526001600160a01b03821690631c149e2890610c419086908690600401611f00565b6020604051808303815f875af1158015610c5d573d5f803e3d5ffd5b505050506040513d601f19601f82011682018060405250810190610c819190611aba565b15155f03610208576040517f6061292500000000000000000000000000000000000000000000000000000000815260040160405180910390fd5b6040517f5211fa770000000000000000000000000000000000000000000000000000000081526001600160a01b03821690635211fa7790610d029086908690600401611f24565b6020604051808303815f875af1158015610d1e573d5f803e3d5ffd5b505050506040513d601f19601f82011682018060405250810190610d429190611aba565b15155f03610208576040517fe91e17e700000000000000000000000000000000000000000000000000000000815260040160405180910390fd5b5f610def610d8b826001611f4e565b610d96906001611f4e565b610da1906001611f4e565b610dac906001611f4e565b610db7906001611f4e565b610dc2906001611f4e565b610dcd906001611f4e565b610dd8906001611f4e565b610de3906001611f4e565b839060ff161c60011690565b92915050565b6001600160a01b0381168114610e09575f80fd5b50565b8035610e1781610df5565b919050565b634e487b7160e01b5f52604160045260245ffd5b60405160c0810167ffffffffffffffff81118282101715610e5357610e53610e1c565b60405290565b6040516060810167ffffffffffffffff81118282101715610e5357610e53610e1c565b60405160e0810167ffffffffffffffff81118282101715610e5357610e53610e1c565b604051601f8201601f1916810167ffffffffffffffff81118282101715610ec857610ec8610e1c565b604052919050565b5f67ffffffffffffffff821115610ee957610ee9610e1c565b5060051b60200190565b5f82601f830112610f02575f80fd5b81356020610f17610f1283610ed0565b610e9f565b8083825260208201915060208460051b870101935086841115610f38575f80fd5b602086015b84811015610f545780358352918301918301610f3d565b509695505050505050565b803560058110610e17575f80fd5b5f82601f830112610f7c575f80fd5b813567ffffffffffffffff811115610f9657610f96610e1c565b610fa9601f8201601f1916602001610e9f565b818152846020838601011115610fbd575f80fd5b816020850160208301375f918101602001919091529392505050565b5f60c08284031215610fe9575f80fd5b610ff1610e30565b9050610ffc82610e0c565b815261100a60208301610e0c565b6020820152604082013567ffffffffffffffff80821115611029575f80fd5b61103585838601610ef3565b60408401526060840135606084015261105060808501610f5f565b608084015260a0840135915080821115611068575f80fd5b5061107584828501610f6d565b60a08301525092915050565b5f82601f830112611090575f80fd5b813560206110a0610f1283610ed0565b8083825260208201915060208460051b8701019350868411156110c1575f80fd5b602086015b84811015610f545780356110d981610df5565b83529183019183016110c6565b60028110610e09575f80fd5b8035610e17816110e6565b8015158114610e09575f80fd5b5f82601f830112611119575f80fd5b81356020611129610f1283610ed0565b82815260609283028501820192828201919087851115611147575f80fd5b8387015b858110156111a75781818a031215611161575f80fd5b611169610e59565b8135611174816110e6565b81528186013561118381610df5565b81870152604082810135611196816110fd565b90820152845292840192810161114b565b5090979650505050505050565b5f60e082840312156111c4575f80fd5b6111cc610e7c565b905081358152602082013567ffffffffffffffff808211156111ec575f80fd5b6111f885838601611081565b60208401526040840135915080821115611210575f80fd5b61121c8583860161110a565b60408401526060840135915080821115611234575f80fd5b61124085838601610ef3565b60608401526080840135915080821115611258575f80fd5b61126485838601610ef3565b608084015260a084013591508082111561127c575f80fd5b61128885838601610ef3565b60a084015260c08401359150808211156112a0575f80fd5b506112ad84828501610ef3565b60c08301525092915050565b5f805f805f60a086880312156112cd575f80fd5b85356112d881610df5565b9450602086013567ffffffffffffffff808211156112f4575f80fd5b61130089838a01610ef3565b95506040880135915080821115611315575f80fd5b61132189838a01610fd9565b94506060880135915080821115611336575f80fd5b50611343888289016111b4565b925050608086013561135481610df5565b809150509295509295909350565b5f60e08284031215611372575f80fd5b61137a610e7c565b9050611385826110f2565b815260208201356020820152604082013567ffffffffffffffff808211156113ab575f80fd5b6113b785838601610ef3565b604084015260608401356060840152608084013560808401526113dc60a08501610e0c565b60a084015260c08401359150808211156113f4575f80fd5b506112ad84828501610f6d565b5f805f8060808587031215611414575f80fd5b843567ffffffffffffffff81111561142a575f80fd5b61143687828801611362565b945050602085013561144781610df5565b925060408501359150606085013561145e81610df5565b939692955090935050565b5f60808284031215611479575f80fd5b6040516080810181811067ffffffffffffffff8211171561149c5761149c610e1c565b8060405250809150823581526020830135602082015260408301356040820152606083013560608201525092915050565b5f805f805f805f80610160898b0312156114e5575f80fd5b883597506020890135965060408901359550606089013561150581610df5565b9450608089013567ffffffffffffffff80821115611521575f80fd5b908a019060e0828d031215611534575f80fd5b61153c610e7c565b611545836110f2565b815261155360208401610e0c565b602082015261156460408401610e0c565b604082015261157560608401610e0c565b60608201526080830135608082015260a083013560a082015260c08301358281111561159f575f80fd5b6115ab8e828601610f6d565b60c08301525095506115c08c60a08d01611469565b94506101208b01359150808211156115d6575f80fd5b506115e38b828c016111b4565b9250506115f36101408a01610e0c565b90509295985092959890939650565b5f805f8060808587031215611615575f80fd5b843567ffffffffffffffff8082111561162c575f80fd5b61163888838901610ef3565b9550602087013594506040870135915080821115611654575f80fd5b5061166187828801610f6d565b925050606085013561145e81610df5565b803560048110610e17575f80fd5b5f60c08284031215611690575f80fd5b611698610e30565b90506116a382610e0c565b81526116b160208301610e0c565b602082015260408201356040820152606082013567ffffffffffffffff808211156116da575f80fd5b6116e685838601610ef3565b606084015261105060808501611672565b5f805f805f60a0868803121561170b575f80fd5b853567ffffffffffffffff80821115611722575f80fd5b61172e89838a01610ef3565b96506020880135915061174082610df5565b90945060408701359080821115611755575f80fd5b61132189838a01611680565b5f805f805f805f80610100898b031215611779575f80fd5b8835975061178960208a01610e0c565b9650604089013567ffffffffffffffff808211156117a5575f80fd5b6117b18c838d01610ef3565b975060608b01359150808211156117c6575f80fd5b6117d28c838d01610ef3565b965060808b0135955060a08b01359150808211156117ee575f80fd5b6117fa8c838d01611680565b945060c08b013591508082111561180f575f80fd5b5061181c8b828c016111b4565b9250506115f360e08a01610e0c565b5f815180845260208085019450602084015f5b8381101561185a5781518752958201959082019060010161183e565b509495945050505050565b602081525f611877602083018461182b565b9392505050565b5f805f805f805f80610100898b031215611896575f80fd5b883597506118a660208a01610e0c565b9650604089013567ffffffffffffffff808211156118c2575f80fd5b6118ce8c838d01610ef3565b975060608b01359150808211156118e3575f80fd5b6118ef8c838d01610ef3565b965060808b0135955060a08b013591508082111561190b575f80fd5b6117fa8c838d01610fd9565b5f805f60608486031215611929575f80fd5b833567ffffffffffffffff80821115611940575f80fd5b61194c87838801610ef3565b94506020860135915080821115611961575f80fd5b5061196e86828701610f6d565b925050604084013561197f81610df5565b809150509250925092565b5f805f6060848603121561199c575f80fd5b833567ffffffffffffffff8111156119b2575f80fd5b6119be86828701611362565b93505060208401356119cf81610df5565b9150604084013561197f81610df5565b634e487b7160e01b5f52602160045260245ffd5b60058110611a0357611a036119df565b9052565b5f81518084525f5b81811015611a2b57602081850181015186830182015201611a0f565b505f602082860101526020601f19601f83011685010191505092915050565b6001600160a01b038881168252871660208201525f611a6c60408301886119f3565b60e06060830152611a8060e083018761182b565b85608084015282810360a0840152611a98818661182b565b905082810360c0840152611aac8185611a07565b9a9950505050505050505050565b5f60208284031215611aca575f80fd5b8151611877816110fd565b60028110611a0357611a036119df565b5f60e08301611af5848451611ad5565b6020808401516020860152604084015160e06040870152828151808552610100880191506020830194505f92505b80831015611b435784518252938301936001929092019190830190611b23565b50606086015160608801526080860151608088015260a08601519350611b7460a08801856001600160a01b03169052565b60c0860151935086810360c0880152611b8d8185611a07565b979650505050505050565b606081525f611baa6060830186611ae5565b6001600160a01b039490941660208301525060400152919050565b5f8060408385031215611bd6575f80fd5b8251611be1816110fd565b6020939093015192949293505050565b634e487b7160e01b5f52603260045260245ffd5b60208152611c17602082018351611ad5565b5f6020830151611c3260408401826001600160a01b03169052565b5060408301516001600160a01b03811660608401525060608301516080830152608083015160a083015260a083015160c083015260c083015160e083015260e0830151610100818185015280850151915050610120818185015280850151915050610140611caa818501836001600160a01b03169052565b8401519050610160611cc6848201836001600160a01b03169052565b840151610180848101529050611ce06101a0840182611a07565b949350505050565b606081525f611cfa606083018661182b565b84602084015282810360408401526103e88185611a07565b60048110611a0357611a036119df565b6001600160a01b038881168252871660208201525f611d446040830188611d12565b85606083015260e06080830152611d5e60e083018661182b565b82810360a0840152611a98818661182b565b6001600160a01b038981168252881660208201525f610100611d95604084018a611d12565b876060840152806080840152611dad8184018861182b565b905082810360a0840152611dc1818761182b565b905082810360c0840152611dd5818661182b565b905082810360e0840152611de98185611a07565b9b9a5050505050505050505050565b5f8060408385031215611e09575f80fd5b8251611e14816110fd565b8092505060208084015167ffffffffffffffff811115611e32575f80fd5b8401601f81018613611e42575f80fd5b8051611e50610f1282610ed0565b81815260059190911b82018301908381019088831115611e6e575f80fd5b928401925b82841015611e8c57835182529284019290840190611e73565b80955050505050509250929050565b6001600160a01b038981168252881660208201525f610100611ec0604084018a6119f3565b806060840152611ed28184018961182b565b90508281036080840152611ee6818861182b565b90508560a084015282810360c0840152611dd5818661182b565b604081525f611f12604083018561182b565b82810360208401526101918185611a07565b604081525f611f366040830185611ae5565b90506001600160a01b03831660208301529392505050565b60ff8181168382160190811115610def57634e487b7160e01b5f52601160045260245ffdfea264697066735822122051378aef0cd84e189f4976a48e8ac8ef9b64720147348f69ee24cdd912ac05f564736f6c63430008180033","linkReferences":{}},"methodIdentifiers":{"callAfterAddLiquidityHook(bytes32,address,uint256[],uint256[],uint256,(address,address,uint256[],uint256,uint8,bytes),(bytes32,address[],(uint8,address,bool)[],uint256[],uint256[],uint256[],uint256[]),address)":"c09b084a","callAfterInitializeHook(uint256[],uint256,bytes,address)":"61beb53e","callAfterRemoveLiquidityHook(bytes32,address,uint256[],uint256[],uint256,(address,address,uint256,uint256[],uint8,bytes),(bytes32,address[],(uint8,address,bool)[],uint256[],uint256[],uint256[],uint256[]),address)":"af6be573","callAfterSwapHook(bytes32,uint256,uint256,address,(uint8,address,address,address,uint256,uint256,bytes),(uint256,uint256,uint256,uint256),(bytes32,address[],(uint8,address,bool)[],uint256[],uint256[],uint256[],uint256[]),address)":"5f7b1c8b","callBeforeAddLiquidityHook(address,uint256[],(address,address,uint256[],uint256,uint8,bytes),(bytes32,address[],(uint8,address,bool)[],uint256[],uint256[],uint256[],uint256[]),address)":"0d1c3679","callBeforeInitializeHook(uint256[],bytes,address)":"c454bdbc","callBeforeRemoveLiquidityHook(uint256[],address,(address,address,uint256,uint256[],uint8,bytes),(bytes32,address[],(uint8,address,bool)[],uint256[],uint256[],uint256[],uint256[]),address)":"7b4ce289","callBeforeSwapHook((uint8,uint256,uint256[],uint256,uint256,address,bytes),address,address)":"fba45a02","callComputeDynamicSwapFeeHook((uint8,uint256,uint256[],uint256,uint256,address,bytes),address,uint256,address)":"43a958d2"},"id":110}