{"abi":[{"type":"constructor","inputs":[{"name":"vault_","type":"address","internalType":"contract IVault"},{"name":"name_","type":"string","internalType":"string"},{"name":"symbol_","type":"string","internalType":"string"}],"stateMutability":"nonpayable"},{"type":"function","name":"DOMAIN_SEPARATOR","inputs":[],"outputs":[{"name":"","type":"bytes32","internalType":"bytes32"}],"stateMutability":"view"},{"type":"function","name":"PERMIT_TYPEHASH","inputs":[],"outputs":[{"name":"","type":"bytes32","internalType":"bytes32"}],"stateMutability":"view"},{"type":"function","name":"allowance","inputs":[{"name":"owner","type":"address","internalType":"address"},{"name":"spender","type":"address","internalType":"address"}],"outputs":[{"name":"","type":"uint256","internalType":"uint256"}],"stateMutability":"view"},{"type":"function","name":"approve","inputs":[{"name":"spender","type":"address","internalType":"address"},{"name":"amount","type":"uint256","internalType":"uint256"}],"outputs":[{"name":"","type":"bool","internalType":"bool"}],"stateMutability":"nonpayable"},{"type":"function","name":"balanceOf","inputs":[{"name":"account","type":"address","internalType":"address"}],"outputs":[{"name":"","type":"uint256","internalType":"uint256"}],"stateMutability":"view"},{"type":"function","name":"decimals","inputs":[],"outputs":[{"name":"","type":"uint8","internalType":"uint8"}],"stateMutability":"pure"},{"type":"function","name":"eip712Domain","inputs":[],"outputs":[{"name":"fields","type":"bytes1","internalType":"bytes1"},{"name":"name","type":"string","internalType":"string"},{"name":"version","type":"string","internalType":"string"},{"name":"chainId","type":"uint256","internalType":"uint256"},{"name":"verifyingContract","type":"address","internalType":"address"},{"name":"salt","type":"bytes32","internalType":"bytes32"},{"name":"extensions","type":"uint256[]","internalType":"uint256[]"}],"stateMutability":"view"},{"type":"function","name":"emitApproval","inputs":[{"name":"owner","type":"address","internalType":"address"},{"name":"spender","type":"address","internalType":"address"},{"name":"amount","type":"uint256","internalType":"uint256"}],"outputs":[],"stateMutability":"nonpayable"},{"type":"function","name":"emitTransfer","inputs":[{"name":"from","type":"address","internalType":"address"},{"name":"to","type":"address","internalType":"address"},{"name":"amount","type":"uint256","internalType":"uint256"}],"outputs":[],"stateMutability":"nonpayable"},{"type":"function","name":"getVault","inputs":[],"outputs":[{"name":"","type":"address","internalType":"contract IVault"}],"stateMutability":"view"},{"type":"function","name":"name","inputs":[],"outputs":[{"name":"","type":"string","internalType":"string"}],"stateMutability":"view"},{"type":"function","name":"nonces","inputs":[{"name":"owner","type":"address","internalType":"address"}],"outputs":[{"name":"","type":"uint256","internalType":"uint256"}],"stateMutability":"view"},{"type":"function","name":"permit","inputs":[{"name":"owner","type":"address","internalType":"address"},{"name":"spender","type":"address","internalType":"address"},{"name":"amount","type":"uint256","internalType":"uint256"},{"name":"deadline","type":"uint256","internalType":"uint256"},{"name":"v","type":"uint8","internalType":"uint8"},{"name":"r","type":"bytes32","internalType":"bytes32"},{"name":"s","type":"bytes32","internalType":"bytes32"}],"outputs":[],"stateMutability":"nonpayable"},{"type":"function","name":"symbol","inputs":[],"outputs":[{"name":"","type":"string","internalType":"string"}],"stateMutability":"view"},{"type":"function","name":"totalSupply","inputs":[],"outputs":[{"name":"","type":"uint256","internalType":"uint256"}],"stateMutability":"view"},{"type":"function","name":"transfer","inputs":[{"name":"to","type":"address","internalType":"address"},{"name":"amount","type":"uint256","internalType":"uint256"}],"outputs":[{"name":"","type":"bool","internalType":"bool"}],"stateMutability":"nonpayable"},{"type":"function","name":"transferFrom","inputs":[{"name":"from","type":"address","internalType":"address"},{"name":"to","type":"address","internalType":"address"},{"name":"amount","type":"uint256","internalType":"uint256"}],"outputs":[{"name":"","type":"bool","internalType":"bool"}],"stateMutability":"nonpayable"},{"type":"event","name":"Approval","inputs":[{"name":"owner","type":"address","indexed":true,"internalType":"address"},{"name":"spender","type":"address","indexed":true,"internalType":"address"},{"name":"value","type":"uint256","indexed":false,"internalType":"uint256"}],"anonymous":false},{"type":"event","name":"EIP712DomainChanged","inputs":[],"anonymous":false},{"type":"event","name":"Transfer","inputs":[{"name":"from","type":"address","indexed":true,"internalType":"address"},{"name":"to","type":"address","indexed":true,"internalType":"address"},{"name":"value","type":"uint256","indexed":false,"internalType":"uint256"}],"anonymous":false},{"type":"error","name":"ECDSAInvalidSignature","inputs":[]},{"type":"error","name":"ECDSAInvalidSignatureLength","inputs":[{"name":"length","type":"uint256","internalType":"uint256"}]},{"type":"error","name":"ECDSAInvalidSignatureS","inputs":[{"name":"s","type":"bytes32","internalType":"bytes32"}]},{"type":"error","name":"ERC2612ExpiredSignature","inputs":[{"name":"deadline","type":"uint256","internalType":"uint256"}]},{"type":"error","name":"ERC2612InvalidSigner","inputs":[{"name":"signer","type":"address","internalType":"address"},{"name":"owner","type":"address","internalType":"address"}]},{"type":"error","name":"InvalidAccountNonce","inputs":[{"name":"account","type":"address","internalType":"address"},{"name":"currentNonce","type":"uint256","internalType":"uint256"}]},{"type":"error","name":"InvalidShortString","inputs":[]},{"type":"error","name":"SenderIsNotVault","inputs":[{"name":"sender","type":"address","internalType":"address"}]},{"type":"error","name":"StringTooLong","inputs":[{"name":"str","type":"string","internalType":"string"}]}],"bytecode":{"object":"0x6101806040523480156200001257600080fd5b50604051620016ca380380620016ca83398101604081905262000035916200028b565b6040805180820190915260018152603160f81b602082015282906200005c82600062000139565b610120526200006d81600162000139565b61014052815160208084019190912060e052815190820120610100524660a052620000fb60e05161010051604080517f8b73c3c69bb8fe3d512ecc4cf759cc79239f7b179b0ffacaa9a75d522b39400f60208201529081019290925260608201524660808201523060a082015260009060c00160405160208183030381529060405280519060200120905090565b60805250503060c0526001600160a01b038316610160526003620001208382620003a4565b5060046200012f8282620003a4565b50505050620004ca565b60006020835110156200015957620001518362000172565b90506200016c565b81620001668482620003a4565b5060ff90505b92915050565b600080829050601f81511115620001a9578260405163305a27a960e01b8152600401620001a0919062000470565b60405180910390fd5b8051620001b682620004a5565b179392505050565b634e487b7160e01b600052604160045260246000fd5b60005b83811015620001f1578181015183820152602001620001d7565b50506000910152565b600082601f8301126200020c57600080fd5b81516001600160401b0380821115620002295762000229620001be565b604051601f8301601f19908116603f01168101908282118183101715620002545762000254620001be565b816040528381528660208588010111156200026e57600080fd5b62000281846020830160208901620001d4565b9695505050505050565b600080600060608486031215620002a157600080fd5b83516001600160a01b0381168114620002b957600080fd5b60208501519093506001600160401b0380821115620002d757600080fd5b620002e587838801620001fa565b93506040860151915080821115620002fc57600080fd5b506200030b86828701620001fa565b9150509250925092565b600181811c908216806200032a57607f821691505b6020821081036200034b57634e487b7160e01b600052602260045260246000fd5b50919050565b601f8211156200039f57600081815260208120601f850160051c810160208610156200037a5750805b601f850160051c820191505b818110156200039b5782815560010162000386565b5050505b505050565b81516001600160401b03811115620003c057620003c0620001be565b620003d881620003d1845462000315565b8462000351565b602080601f831160018114620004105760008415620003f75750858301515b600019600386901b1c1916600185901b1785556200039b565b600085815260208120601f198616915b82811015620004415788860151825594840194600190910190840162000420565b5085821015620004605787850151600019600388901b60f8161c191681555b5050505050600190811b01905550565b602081526000825180602084015262000491816040850160208701620001d4565b601f01601f19169190910160400192915050565b805160208083015191908110156200034b5760001960209190910360031b1b16919050565b60805160a05160c05160e05161010051610120516101405161016051611162620005686000396000818161022e0152818161035a015281816103ee0152818161049d015281816105f0015281816106ff015281816108860152818161093001526109af01526000610b5001526000610b2301526000610acb01526000610aa3015260006109fe01526000610a2801526000610a5201526111626000f3fe608060405234801561001057600080fd5b506004361061010b5760003560e01c80635687f2b8116100a25780638d928af8116100715780638d928af81461022157806395d89b4114610258578063a9059cbb14610260578063d505accf14610273578063dd62ed3e1461028657600080fd5b80635687f2b8146101cd57806370a08231146101e05780637ecebe00146101f357806384b0196e1461020657600080fd5b806323de6651116100de57806323de66511461017a57806330adf81f1461018f578063313ce567146101b65780633644e515146101c557600080fd5b806306fdde0314610110578063095ea7b31461012e57806318160ddd1461015157806323b872dd14610167575b600080fd5b610118610299565b6040516101259190610eb5565b60405180910390f35b61014161013c366004610ee4565b61032b565b6040519015158152602001610125565b6101596103d6565b604051908152602001610125565b610141610175366004610f0e565b610466565b61018d610188366004610f0e565b610517565b005b6101597f6e71edae12b1b97f4d1f60370fef10105fa2faae0126114a169c64845d6126c981565b60405160128152602001610125565b610159610571565b61018d6101db366004610f0e565b61057b565b6101596101ee366004610f4a565b6105c8565b610159610201366004610f4a565b61065d565b61020e61067b565b6040516101259796959493929190610f65565b6040516001600160a01b037f0000000000000000000000000000000000000000000000000000000000000000168152602001610125565b6101186106c1565b61014161026e366004610ee4565b6106d0565b61018d610281366004610ffb565b610730565b61015961029436600461106e565b610900565b6060600380546102a8906110a1565b80601f01602080910402602001604051908101604052809291908181526020018280546102d4906110a1565b80156103215780601f106102f657610100808354040283529160200191610321565b820191906000526020600020905b81548152906001019060200180831161030457829003601f168201915b5050505050905090565b60405163e1f21c6760e01b81523360048201526001600160a01b038381166024830152604482018390526000917f00000000000000000000000000000000000000000000000000000000000000009091169063e1f21c67906064015b6020604051808303816000875af11580156103a6573d6000803e3d6000fd5b505050506040513d601f19601f820116820180604052508101906103ca91906110db565b50600190505b92915050565b6040516339370aa960e21b81523060048201526000907f00000000000000000000000000000000000000000000000000000000000000006001600160a01b03169063e4dc2aa490602401602060405180830381865afa15801561043d573d6000803e3d6000fd5b505050506040513d601f19601f8201168201806040525081019061046191906110fd565b905090565b604051630aed65f560e11b81523360048201526001600160a01b0384811660248301528381166044830152606482018390526000917f0000000000000000000000000000000000000000000000000000000000000000909116906315dacbea906084016020604051808303816000875af11580156104e8573d6000803e3d6000fd5b505050506040513d601f19601f8201168201806040525081019061050c91906110db565b506001949350505050565b61051f6109a4565b816001600160a01b0316836001600160a01b03167fddf252ad1be2c89b69c2b068fc378daa952ba7f163c4a11628f55a4df523b3ef8360405161056491815260200190565b60405180910390a3505050565b60006104616109f1565b6105836109a4565b816001600160a01b0316836001600160a01b03167f8c5be1e5ebec7d5bd14f71427d1e84f3dd0314c0f7b2291e5b200ac8c7c3b9258360405161056491815260200190565b604051633de222bb60e21b81523060048201526001600160a01b0382811660248301526000917f00000000000000000000000000000000000000000000000000000000000000009091169063f7888aec90604401602060405180830381865afa158015610639573d6000803e3d6000fd5b505050506040513d601f19601f820116820180604052508101906103d091906110fd565b6001600160a01b0381166000908152600260205260408120546103d0565b60006060806000806000606061068f610b1c565b610697610b49565b60408051600080825260208201909252600f60f81b9b939a50919850469750309650945092509050565b6060600480546102a8906110a1565b6040516317d5759960e31b81523360048201526001600160a01b038381166024830152604482018390526000917f00000000000000000000000000000000000000000000000000000000000000009091169063beabacc890606401610387565b834211156107595760405163313c898160e11b8152600481018590526024015b60405180910390fd5b60007f6e71edae12b1b97f4d1f60370fef10105fa2faae0126114a169c64845d6126c98888886107a68c6001600160a01b0316600090815260026020526040902080546001810190915590565b6040805160208101969096526001600160a01b0394851690860152929091166060840152608083015260a082015260c0810186905260e001604051602081830303815290604052805190602001209050600061080182610b76565b9050600061081182878787610ba3565b9050896001600160a01b0316816001600160a01b031614610858576040516325c0072360e11b81526001600160a01b0380831660048301528b166024820152604401610750565b60405163e1f21c6760e01b81526001600160a01b038b811660048301528a81166024830152604482018a90527f0000000000000000000000000000000000000000000000000000000000000000169063e1f21c67906064016020604051808303816000875af11580156108cf573d6000803e3d6000fd5b505050506040513d601f19601f820116820180604052508101906108f391906110db565b5050505050505050505050565b60405163927da10560e01b81523060048201526001600160a01b03838116602483015282811660448301526000917f00000000000000000000000000000000000000000000000000000000000000009091169063927da10590606401602060405180830381865afa158015610979573d6000803e3d6000fd5b505050506040513d601f19601f8201168201806040525081019061099d91906110fd565b9392505050565b336001600160a01b037f000000000000000000000000000000000000000000000000000000000000000016146109ef5760405163089676d560e01b8152336004820152602401610750565b565b6000306001600160a01b037f000000000000000000000000000000000000000000000000000000000000000016148015610a4a57507f000000000000000000000000000000000000000000000000000000000000000046145b15610a7457507f000000000000000000000000000000000000000000000000000000000000000090565b610461604080517f8b73c3c69bb8fe3d512ecc4cf759cc79239f7b179b0ffacaa9a75d522b39400f60208201527f0000000000000000000000000000000000000000000000000000000000000000918101919091527f000000000000000000000000000000000000000000000000000000000000000060608201524660808201523060a082015260009060c00160405160208183030381529060405280519060200120905090565b60606104617f00000000000000000000000000000000000000000000000000000000000000006000610bd1565b60606104617f00000000000000000000000000000000000000000000000000000000000000006001610bd1565b60006103d0610b836109f1565b8360405161190160f01b8152600281019290925260228201526042902090565b600080600080610bb588888888610c7c565b925092509250610bc58282610d4b565b50909695505050505050565b606060ff8314610beb57610be483610e08565b90506103d0565b818054610bf7906110a1565b80601f0160208091040260200160405190810160405280929190818152602001828054610c23906110a1565b8015610c705780601f10610c4557610100808354040283529160200191610c70565b820191906000526020600020905b815481529060010190602001808311610c5357829003601f168201915b505050505090506103d0565b600080807f7fffffffffffffffffffffffffffffff5d576e7357a4501ddfe92f46681b20a0841115610cb75750600091506003905082610d41565b604080516000808252602082018084528a905260ff891692820192909252606081018790526080810186905260019060a0016020604051602081039080840390855afa158015610d0b573d6000803e3d6000fd5b5050604051601f1901519150506001600160a01b038116610d3757506000925060019150829050610d41565b9250600091508190505b9450945094915050565b6000826003811115610d5f57610d5f611116565b03610d68575050565b6001826003811115610d7c57610d7c611116565b03610d9a5760405163f645eedf60e01b815260040160405180910390fd5b6002826003811115610dae57610dae611116565b03610dcf5760405163fce698f760e01b815260048101829052602401610750565b6003826003811115610de357610de3611116565b03610e04576040516335e2f38360e21b815260048101829052602401610750565b5050565b60606000610e1583610e47565b604080516020808252818301909252919250600091906020820181803683375050509182525060208101929092525090565b600060ff8216601f8111156103d057604051632cd44ac360e21b815260040160405180910390fd5b6000815180845260005b81811015610e9557602081850181015186830182015201610e79565b506000602082860101526020601f19601f83011685010191505092915050565b60208152600061099d6020830184610e6f565b80356001600160a01b0381168114610edf57600080fd5b919050565b60008060408385031215610ef757600080fd5b610f0083610ec8565b946020939093013593505050565b600080600060608486031215610f2357600080fd5b610f2c84610ec8565b9250610f3a60208501610ec8565b9150604084013590509250925092565b600060208284031215610f5c57600080fd5b61099d82610ec8565b60ff60f81b881681526000602060e081840152610f8560e084018a610e6f565b8381036040850152610f97818a610e6f565b606085018990526001600160a01b038816608086015260a0850187905284810360c0860152855180825283870192509083019060005b81811015610fe957835183529284019291840191600101610fcd565b50909c9b505050505050505050505050565b600080600080600080600060e0888a03121561101657600080fd5b61101f88610ec8565b965061102d60208901610ec8565b95506040880135945060608801359350608088013560ff8116811461105157600080fd5b9699959850939692959460a0840135945060c09093013592915050565b6000806040838503121561108157600080fd5b61108a83610ec8565b915061109860208401610ec8565b90509250929050565b600181811c908216806110b557607f821691505b6020821081036110d557634e487b7160e01b600052602260045260246000fd5b50919050565b6000602082840312156110ed57600080fd5b8151801515811461099d57600080fd5b60006020828403121561110f57600080fd5b5051919050565b634e487b7160e01b600052602160045260246000fdfea2646970667358221220c116d159a63108d3b5e70688044d2e043f532d5bac5e7fc5a0f658547014509464736f6c63430008150033","linkReferences":{}},"methodIdentifiers":{"DOMAIN_SEPARATOR()":"3644e515","PERMIT_TYPEHASH()":"30adf81f","allowance(address,address)":"dd62ed3e","approve(address,uint256)":"095ea7b3","balanceOf(address)":"70a08231","decimals()":"313ce567","eip712Domain()":"84b0196e","emitApproval(address,address,uint256)":"5687f2b8","emitTransfer(address,address,uint256)":"23de6651","getVault()":"8d928af8","name()":"06fdde03","nonces(address)":"7ecebe00","permit(address,address,uint256,uint256,uint8,bytes32,bytes32)":"d505accf","symbol()":"95d89b41","totalSupply()":"18160ddd","transfer(address,uint256)":"a9059cbb","transferFrom(address,address,uint256)":"23b872dd"},"id":11}