{"abi":[{"type":"constructor","inputs":[{"name":"vault","type":"address","internalType":"contract IVault"},{"name":"router","type":"address","internalType":"address"}],"stateMutability":"nonpayable"},{"type":"function","name":"LUCKY_NUMBER","inputs":[],"outputs":[{"name":"","type":"uint8","internalType":"uint8"}],"stateMutability":"view"},{"type":"function","name":"MAX_NUMBER","inputs":[],"outputs":[{"name":"","type":"uint8","internalType":"uint8"}],"stateMutability":"view"},{"type":"function","name":"getHookFlags","inputs":[],"outputs":[{"name":"","type":"tuple","internalType":"struct HookFlags","components":[{"name":"enableHookAdjustedAmounts","type":"bool","internalType":"bool"},{"name":"shouldCallBeforeInitialize","type":"bool","internalType":"bool"},{"name":"shouldCallAfterInitialize","type":"bool","internalType":"bool"},{"name":"shouldCallComputeDynamicSwapFee","type":"bool","internalType":"bool"},{"name":"shouldCallBeforeSwap","type":"bool","internalType":"bool"},{"name":"shouldCallAfterSwap","type":"bool","internalType":"bool"},{"name":"shouldCallBeforeAddLiquidity","type":"bool","internalType":"bool"},{"name":"shouldCallAfterAddLiquidity","type":"bool","internalType":"bool"},{"name":"shouldCallBeforeRemoveLiquidity","type":"bool","internalType":"bool"},{"name":"shouldCallAfterRemoveLiquidity","type":"bool","internalType":"bool"}]}],"stateMutability":"pure"},{"type":"function","name":"getRandomNumber","inputs":[],"outputs":[{"name":"","type":"uint8","internalType":"uint8"}],"stateMutability":"view"},{"type":"function","name":"hookSwapFeePercentage","inputs":[],"outputs":[{"name":"","type":"uint64","internalType":"uint64"}],"stateMutability":"view"},{"type":"function","name":"onAfterAddLiquidity","inputs":[{"name":"","type":"address","internalType":"address"},{"name":"","type":"address","internalType":"address"},{"name":"","type":"uint8","internalType":"enum AddLiquidityKind"},{"name":"","type":"uint256[]","internalType":"uint256[]"},{"name":"amountsInRaw","type":"uint256[]","internalType":"uint256[]"},{"name":"","type":"uint256","internalType":"uint256"},{"name":"","type":"uint256[]","internalType":"uint256[]"},{"name":"","type":"bytes","internalType":"bytes"}],"outputs":[{"name":"","type":"bool","internalType":"bool"},{"name":"","type":"uint256[]","internalType":"uint256[]"}],"stateMutability":"nonpayable"},{"type":"function","name":"onAfterInitialize","inputs":[{"name":"","type":"uint256[]","internalType":"uint256[]"},{"name":"","type":"uint256","internalType":"uint256"},{"name":"","type":"bytes","internalType":"bytes"}],"outputs":[{"name":"","type":"bool","internalType":"bool"}],"stateMutability":"nonpayable"},{"type":"function","name":"onAfterRemoveLiquidity","inputs":[{"name":"","type":"address","internalType":"address"},{"name":"","type":"address","internalType":"address"},{"name":"","type":"uint8","internalType":"enum RemoveLiquidityKind"},{"name":"","type":"uint256","internalType":"uint256"},{"name":"","type":"uint256[]","internalType":"uint256[]"},{"name":"amountsOutRaw","type":"uint256[]","internalType":"uint256[]"},{"name":"","type":"uint256[]","internalType":"uint256[]"},{"name":"","type":"bytes","internalType":"bytes"}],"outputs":[{"name":"","type":"bool","internalType":"bool"},{"name":"","type":"uint256[]","internalType":"uint256[]"}],"stateMutability":"nonpayable"},{"type":"function","name":"onAfterSwap","inputs":[{"name":"params","type":"tuple","internalType":"struct AfterSwapParams","components":[{"name":"kind","type":"uint8","internalType":"enum SwapKind"},{"name":"tokenIn","type":"address","internalType":"contract IERC20"},{"name":"tokenOut","type":"address","internalType":"contract IERC20"},{"name":"amountInScaled18","type":"uint256","internalType":"uint256"},{"name":"amountOutScaled18","type":"uint256","internalType":"uint256"},{"name":"tokenInBalanceScaled18","type":"uint256","internalType":"uint256"},{"name":"tokenOutBalanceScaled18","type":"uint256","internalType":"uint256"},{"name":"amountCalculatedScaled18","type":"uint256","internalType":"uint256"},{"name":"amountCalculatedRaw","type":"uint256","internalType":"uint256"},{"name":"router","type":"address","internalType":"address"},{"name":"pool","type":"address","internalType":"address"},{"name":"userData","type":"bytes","internalType":"bytes"}]}],"outputs":[{"name":"success","type":"bool","internalType":"bool"},{"name":"hookAdjustedAmountCalculatedRaw","type":"uint256","internalType":"uint256"}],"stateMutability":"nonpayable"},{"type":"function","name":"onBeforeAddLiquidity","inputs":[{"name":"","type":"address","internalType":"address"},{"name":"","type":"address","internalType":"address"},{"name":"","type":"uint8","internalType":"enum AddLiquidityKind"},{"name":"","type":"uint256[]","internalType":"uint256[]"},{"name":"","type":"uint256","internalType":"uint256"},{"name":"","type":"uint256[]","internalType":"uint256[]"},{"name":"","type":"bytes","internalType":"bytes"}],"outputs":[{"name":"","type":"bool","internalType":"bool"}],"stateMutability":"nonpayable"},{"type":"function","name":"onBeforeInitialize","inputs":[{"name":"","type":"uint256[]","internalType":"uint256[]"},{"name":"","type":"bytes","internalType":"bytes"}],"outputs":[{"name":"","type":"bool","internalType":"bool"}],"stateMutability":"nonpayable"},{"type":"function","name":"onBeforeRemoveLiquidity","inputs":[{"name":"","type":"address","internalType":"address"},{"name":"","type":"address","internalType":"address"},{"name":"","type":"uint8","internalType":"enum RemoveLiquidityKind"},{"name":"","type":"uint256","internalType":"uint256"},{"name":"","type":"uint256[]","internalType":"uint256[]"},{"name":"","type":"uint256[]","internalType":"uint256[]"},{"name":"","type":"bytes","internalType":"bytes"}],"outputs":[{"name":"","type":"bool","internalType":"bool"}],"stateMutability":"nonpayable"},{"type":"function","name":"onBeforeSwap","inputs":[{"name":"","type":"tuple","internalType":"struct PoolSwapParams","components":[{"name":"kind","type":"uint8","internalType":"enum SwapKind"},{"name":"amountGivenScaled18","type":"uint256","internalType":"uint256"},{"name":"balancesScaled18","type":"uint256[]","internalType":"uint256[]"},{"name":"indexIn","type":"uint256","internalType":"uint256"},{"name":"indexOut","type":"uint256","internalType":"uint256"},{"name":"router","type":"address","internalType":"address"},{"name":"userData","type":"bytes","internalType":"bytes"}]},{"name":"","type":"address","internalType":"address"}],"outputs":[{"name":"","type":"bool","internalType":"bool"}],"stateMutability":"nonpayable"},{"type":"function","name":"onComputeDynamicSwapFeePercentage","inputs":[{"name":"","type":"tuple","internalType":"struct PoolSwapParams","components":[{"name":"kind","type":"uint8","internalType":"enum SwapKind"},{"name":"amountGivenScaled18","type":"uint256","internalType":"uint256"},{"name":"balancesScaled18","type":"uint256[]","internalType":"uint256[]"},{"name":"indexIn","type":"uint256","internalType":"uint256"},{"name":"indexOut","type":"uint256","internalType":"uint256"},{"name":"router","type":"address","internalType":"address"},{"name":"userData","type":"bytes","internalType":"bytes"}]},{"name":"","type":"address","internalType":"address"},{"name":"","type":"uint256","internalType":"uint256"}],"outputs":[{"name":"","type":"bool","internalType":"bool"},{"name":"","type":"uint256","internalType":"uint256"}],"stateMutability":"view"},{"type":"function","name":"onRegister","inputs":[{"name":"","type":"address","internalType":"address"},{"name":"pool","type":"address","internalType":"address"},{"name":"","type":"tuple[]","internalType":"struct TokenConfig[]","components":[{"name":"token","type":"address","internalType":"contract IERC20"},{"name":"tokenType","type":"uint8","internalType":"enum TokenType"},{"name":"rateProvider","type":"address","internalType":"contract IRateProvider"},{"name":"paysYieldFees","type":"bool","internalType":"bool"}]},{"name":"","type":"tuple","internalType":"struct LiquidityManagement","components":[{"name":"disableUnbalancedLiquidity","type":"bool","internalType":"bool"},{"name":"enableAddLiquidityCustom","type":"bool","internalType":"bool"},{"name":"enableRemoveLiquidityCustom","type":"bool","internalType":"bool"},{"name":"enableDonation","type":"bool","internalType":"bool"}]}],"outputs":[{"name":"","type":"bool","internalType":"bool"}],"stateMutability":"nonpayable"},{"type":"function","name":"owner","inputs":[],"outputs":[{"name":"","type":"address","internalType":"address"}],"stateMutability":"view"},{"type":"function","name":"renounceOwnership","inputs":[],"outputs":[],"stateMutability":"nonpayable"},{"type":"function","name":"setHookSwapFeePercentage","inputs":[{"name":"swapFeePercentage","type":"uint64","internalType":"uint64"}],"outputs":[],"stateMutability":"nonpayable"},{"type":"function","name":"transferOwnership","inputs":[{"name":"newOwner","type":"address","internalType":"address"}],"outputs":[],"stateMutability":"nonpayable"},{"type":"event","name":"HookSwapFeePercentageChanged","inputs":[{"name":"hooksContract","type":"address","indexed":true,"internalType":"address"},{"name":"hookFeePercentage","type":"uint256","indexed":false,"internalType":"uint256"}],"anonymous":false},{"type":"event","name":"LotteryFeeCollected","inputs":[{"name":"hooksContract","type":"address","indexed":true,"internalType":"address"},{"name":"token","type":"address","indexed":true,"internalType":"contract IERC20"},{"name":"feeAmount","type":"uint256","indexed":false,"internalType":"uint256"}],"anonymous":false},{"type":"event","name":"LotteryHookExampleRegistered","inputs":[{"name":"hooksContract","type":"address","indexed":true,"internalType":"address"},{"name":"pool","type":"address","indexed":true,"internalType":"address"}],"anonymous":false},{"type":"event","name":"LotteryWinningsPaid","inputs":[{"name":"hooksContract","type":"address","indexed":true,"internalType":"address"},{"name":"winner","type":"address","indexed":true,"internalType":"address"},{"name":"token","type":"address","indexed":true,"internalType":"contract IERC20"},{"name":"amountWon","type":"uint256","indexed":false,"internalType":"uint256"}],"anonymous":false},{"type":"event","name":"OwnershipTransferred","inputs":[{"name":"previousOwner","type":"address","indexed":true,"internalType":"address"},{"name":"newOwner","type":"address","indexed":true,"internalType":"address"}],"anonymous":false},{"type":"error","name":"IndexOutOfBounds","inputs":[]},{"type":"error","name":"OwnableInvalidOwner","inputs":[{"name":"owner","type":"address","internalType":"address"}]},{"type":"error","name":"OwnableUnauthorizedAccount","inputs":[{"name":"account","type":"address","internalType":"address"}]},{"type":"error","name":"SafeERC20FailedOperation","inputs":[{"name":"token","type":"address","internalType":"address"}]},{"type":"error","name":"SenderIsNotVault","inputs":[{"name":"sender","type":"address","internalType":"address"}]}],"bytecode":{"object":"0x60e06040525f60045534801562000014575f80fd5b5060405162001902380380620019028339810160408190526200003791620000f0565b6001600160a01b03821660805233806200006a57604051631e4fbdf760e01b81525f600482015260240160405180910390fd5b620000758162000089565b506001600160a01b031660a052506200012d565b5f80546001600160a01b038381166001600160a01b0319831681178455604051919092169283917f8be0079c531659141344cd1fd0a4f28419497f9722a3daafe3b4186f6b6457e09190a35050565b6001600160a01b0381168114620000ed575f80fd5b50565b5f806040838503121562000102575f80fd5b82516200010f81620000d8565b60208401519092506200012281620000d8565b809150509250929050565b60805160a05160c0516117a66200015c5f395f50505f61040601525f8181610678015261094d01526117a65ff3fe608060405234801561000f575f80fd5b5060043610610149575f3560e01c80638da5cb5b116100c7578063dbdff2c11161007d578063f883fcaa11610063578063f883fcaa14610384578063f9e5c1971461038c578063fea9b5721461039f575f80fd5b8063dbdff2c114610357578063f2fde38b14610371575f80fd5b8063a0e8f5ac116100ad578063a0e8f5ac1461028c578063ba5f9f40146102a4578063d77153a7146102b2575f80fd5b80638da5cb5b14610255578063976907cc1461026f575f80fd5b806338be241d1161011c57806345421ec71161010257806345421ec7146102235780635211fa771461023d578063715018a61461024b575f80fd5b806338be241d146101dd5780634392312a146101f0575f80fd5b80630b89f1821461014d57806318b6eb55146101755780631c149e281461019f5780632754888d146101b2575b5f80fd5b61016061015b366004610e7b565b6103a7565b60405190151581526020015b60405180910390f35b610188610183366004610fa4565b6103f1565b60408051921515835260208301919091520161016c565b6101606101ad3660046110af565b610561565b6101cf6101c036600461111d565b5f839850989650505050505050565b60405161016c9291906111fd565b6101606101eb36600461124d565b610569565b5f5461020a90600160a01b900467ffffffffffffffff1681565b60405167ffffffffffffffff909116815260200161016c565b6101606102313660046112c3565b5f979650505050505050565b6101606101ad366004611393565b610253610572565b005b5f546040516001600160a01b03909116815260200161016c565b6101cf61027d3660046113e2565b5f849850989650505050505050565b61018861029a366004611484565b5f80935093915050565b6101606102313660046114da565b6040805161014080820183525f80835260208084018290528385018290526060808501839052608080860184905260a080870185905260c080880186905260e0808901879052610100808a01889052610120998a018890528a519889018b52958801879052878a0187905293870186905291860185905290850184905290840183905290830182905292820152600180825291810191909152905161016c919061155d565b61035f610585565b60405160ff909116815260200161016c565b61025361037f366004611615565b610593565b61035f600a81565b61025361039a366004611630565b6105ee565b61035f601481565b5f6103b061066d565b6040516001600160a01b0385169030907f8b640b5b54a040cdfb1149b7446b0c7c18c820e860ed3d8b584acea1888b7ecd905f90a35060015b949350505050565b5f806103fb61066d565b5f6001600160a01b037f00000000000000000000000000000000000000000000000000000000000000001661043861014086016101208701611615565b6001600160a01b0316036104515761044e6106d1565b90505b60048054905f6104608361166b565b90915550505f546101008501359250600160a01b900467ffffffffffffffff1615610557575f80546104a99061010087013590600160a01b900467ffffffffffffffff16610720565b90505f6104b96020870187611697565b60018111156104ca576104ca611683565b03610517575f6104fc6104e561014088016101208901611615565b846104f660608a0160408b01611615565b85610740565b905080156105115761050e81856116b2565b93505b50610555565b5f61053e61052d61014088016101208901611615565b846104f660408a0160208b01611615565b905080156105535761055081856116c5565b93505b505b505b6001925050915091565b5f5b92915050565b5f5b9392505050565b61057a6109ec565b6105835f610a31565b565b5f61058e6106d1565b905090565b61059b6109ec565b6001600160a01b0381166105e2576040517f1e4fbdf70000000000000000000000000000000000000000000000000000000081525f60048201526024015b60405180910390fd5b6105eb81610a31565b50565b6105f66109ec565b5f80547fffffffff0000000000000000ffffffffffffffffffffffffffffffffffffffff16600160a01b67ffffffffffffffff84169081029190911790915560405190815230907fb25b38640ad709be28a74117ede8cc6094d9e8b3aa27330e26b10898c92ba5229060200160405180910390a250565b336001600160a01b037f00000000000000000000000000000000000000000000000000000000000000001614610583576040517f089676d50000000000000000000000000000000000000000000000000000000081523360048201526024016105d9565b6004546040515f916014916106f3914491602001918252602082015260400190565b604051602081830303815290604052805190602001205f1c61071591906116ec565b61058e9060016116c5565b5f8061072c83856116ff565b90506103e9670de0b6b3a764000082611716565b5f60091960ff8516016108f5575f856001600160a01b0316635e01eb5a6040518163ffffffff1660e01b8152600401602060405180830381865afa15801561078a573d5f803e3d5ffd5b505050506040513d601f19601f820116820180604052508101906107ae9190611729565b6001549091505b80156108eb575f6107d26107ca6001846116b2565b600190610a8d565b5090506107e0600182610af0565b506040517f70a082310000000000000000000000000000000000000000000000000000000081523060048201525f906001600160a01b038316906370a0823190602401602060405180830381865afa15801561083e573d5f803e3d5ffd5b505050506040513d601f19601f820116820180604052508101906108629190611744565b905080156108d65761087e6001600160a01b0383168583610bdc565b816001600160a01b0316846001600160a01b0316306001600160a01b03167fad248945aa9c6e54a3aae4c347a04143e677a981dbefd64b871fd587ad6077c6846040516108cd91815260200190565b60405180910390a45b505080806108e39061175b565b9150506107b5565b505f9150506103e9565b61090160018481610c61565b5081156109e5576040517fae6393290000000000000000000000000000000000000000000000000000000081526001600160a01b038481166004830152306024830152604482018490527f0000000000000000000000000000000000000000000000000000000000000000169063ae639329906064015f604051808303815f87803b15801561098e575f80fd5b505af11580156109a0573d5f803e3d5ffd5b50506040518481526001600160a01b03861692503091507f9614d1bfde1842c37d557aba9f2b69fa1ad92fef808d832d9f4b3ab5cdd06a7b9060200160405180910390a35b50806103e9565b5f546001600160a01b03163314610583576040517f118cdaa70000000000000000000000000000000000000000000000000000000081523360048201526024016105d9565b5f80546001600160a01b0383811673ffffffffffffffffffffffffffffffffffffffff19831681178455604051919092169283917f8be0079c531659141344cd1fd0a4f28419497f9722a3daafe3b4186f6b6457e09190a35050565b5f80835f01548310610acb576040517f4e23d03500000000000000000000000000000000000000000000000000000000815260040160405180910390fd5b50505f90815260019182016020526040902080549101546001600160a01b0390911691565b6001600160a01b0381165f9081526002830160205260408120548015610bd35783545f198083019101808214610b7d575f8181526001808801602090815260408084208685528185208154815473ffffffffffffffffffffffffffffffffffffffff19166001600160a01b0391821617825582860154919095015554909216835260028901905290208390555b5f818152600180880160209081526040808420805473ffffffffffffffffffffffffffffffffffffffff1916815583018490559389556001600160a01b0388168352600289019052918120559250610563915050565b5f915050610563565b604080516001600160a01b038416602482015260448082018490528251808303909101815260649091019091526020810180517bffffffffffffffffffffffffffffffffffffffffffffffffffffffff167fa9059cbb00000000000000000000000000000000000000000000000000000000179052610c5c908490610d19565b505050565b6001600160a01b0382165f908152600284016020526040812054808203610cfb57505082546040805180820182526001600160a01b0385811680835260208084018781525f8781526001808c0184528782209651875473ffffffffffffffffffffffffffffffffffffffff19169616959095178655905194840194909455948201808955908352600288019094529190209190915561056b565b5f19015f90815260018086016020526040822001839055905061056b565b5f8060205f8451602086015f885af180610d38576040513d5f823e3d81fd5b50505f513d91508115610d4f578060011415610d5c565b6001600160a01b0384163b155b15610d9e576040517f5274afe70000000000000000000000000000000000000000000000000000000081526001600160a01b03851660048201526024016105d9565b50505050565b6001600160a01b03811681146105eb575f80fd5b8035610dc381610da4565b919050565b634e487b7160e01b5f52604160045260245ffd5b6040516080810167ffffffffffffffff81118282101715610dff57610dff610dc8565b60405290565b604051601f8201601f1916810167ffffffffffffffff81118282101715610e2e57610e2e610dc8565b604052919050565b5f67ffffffffffffffff821115610e4f57610e4f610dc8565b5060051b60200190565b600281106105eb575f80fd5b5f60808284031215610e75575f80fd5b50919050565b5f805f8060e08587031215610e8e575f80fd5b8435610e9981610da4565b9350602085810135610eaa81610da4565b935060408681013567ffffffffffffffff811115610ec6575f80fd5b8701601f81018913610ed6575f80fd5b8035610ee9610ee482610e36565b610e05565b81815260079190911b8201840190848101908b831115610f07575f80fd5b928501925b82841015610f83576080848d031215610f23575f80fd5b610f2b610ddc565b8435610f3681610da4565b815284870135610f4581610e59565b8188015284860135610f5681610da4565b818701526060858101358015158114610f6d575f80fd5b9082015282526080939093019290850190610f0c565b809750505050505050610f998660608701610e65565b905092959194509250565b5f60208284031215610fb4575f80fd5b813567ffffffffffffffff811115610fca575f80fd5b8201610180818503121561056b575f80fd5b5f82601f830112610feb575f80fd5b81356020610ffb610ee483610e36565b8083825260208201915060208460051b87010193508684111561101c575f80fd5b602086015b848110156110385780358352918301918301611021565b509695505050505050565b5f82601f830112611052575f80fd5b813567ffffffffffffffff81111561106c5761106c610dc8565b61107f601f8201601f1916602001610e05565b818152846020838601011115611093575f80fd5b816020850160208301375f918101602001919091529392505050565b5f80604083850312156110c0575f80fd5b823567ffffffffffffffff808211156110d7575f80fd5b6110e386838701610fdc565b935060208501359150808211156110f8575f80fd5b5061110585828601611043565b9150509250929050565b803560048110610dc3575f80fd5b5f805f805f805f80610100898b031215611135575f80fd5b61113e89610db8565b975061114c60208a01610db8565b965061115a60408a0161110f565b955060608901359450608089013567ffffffffffffffff8082111561117d575f80fd5b6111898c838d01610fdc565b955060a08b013591508082111561119e575f80fd5b6111aa8c838d01610fdc565b945060c08b01359150808211156111bf575f80fd5b6111cb8c838d01610fdc565b935060e08b01359150808211156111e0575f80fd5b506111ed8b828c01611043565b9150509295985092959890939650565b5f6040820184151583526020604060208501528185518084526060860191506020870193505f5b8181101561124057845183529383019391830191600101611224565b5090979650505050505050565b5f805f6060848603121561125f575f80fd5b833567ffffffffffffffff80821115611276575f80fd5b61128287838801610fdc565b945060208601359350604086013591508082111561129e575f80fd5b506112ab86828701611043565b9150509250925092565b803560058110610dc3575f80fd5b5f805f805f805f60e0888a0312156112d9575f80fd5b87356112e481610da4565b965060208801356112f481610da4565b9550611302604089016112b5565b9450606088013567ffffffffffffffff8082111561131e575f80fd5b61132a8b838c01610fdc565b955060808a0135945060a08a0135915080821115611346575f80fd5b6113528b838c01610fdc565b935060c08a0135915080821115611367575f80fd5b506113748a828b01611043565b91505092959891949750929550565b5f60e08284031215610e75575f80fd5b5f80604083850312156113a4575f80fd5b823567ffffffffffffffff8111156113ba575f80fd5b6113c685828601611383565b92505060208301356113d781610da4565b809150509250929050565b5f805f805f805f80610100898b0312156113fa575f80fd5b61140389610db8565b975061141160208a01610db8565b965061141f60408a016112b5565b9550606089013567ffffffffffffffff8082111561143b575f80fd5b6114478c838d01610fdc565b965060808b013591508082111561145c575f80fd5b6114688c838d01610fdc565b955060a08b0135945060c08b01359150808211156111bf575f80fd5b5f805f60608486031215611496575f80fd5b833567ffffffffffffffff8111156114ac575f80fd5b6114b886828701611383565b93505060208401356114c981610da4565b929592945050506040919091013590565b5f805f805f805f60e0888a0312156114f0575f80fd5b87356114fb81610da4565b9650602088013561150b81610da4565b95506115196040890161110f565b945060608801359350608088013567ffffffffffffffff8082111561153c575f80fd5b6115488b838c01610fdc565b945060a08a0135915080821115611346575f80fd5b8151151581526101408101602083015161157b602084018215159052565b50604083015161158f604084018215159052565b5060608301516115a3606084018215159052565b5060808301516115b7608084018215159052565b5060a08301516115cb60a084018215159052565b5060c08301516115df60c084018215159052565b5060e08301516115f360e084018215159052565b5061010083810151151590830152610120928301511515929091019190915290565b5f60208284031215611625575f80fd5b813561056b81610da4565b5f60208284031215611640575f80fd5b813567ffffffffffffffff8116811461056b575f80fd5b634e487b7160e01b5f52601160045260245ffd5b5f6001820161167c5761167c611657565b5060010190565b634e487b7160e01b5f52602160045260245ffd5b5f602082840312156116a7575f80fd5b813561056b81610e59565b8181038181111561056357610563611657565b8082018082111561056357610563611657565b634e487b7160e01b5f52601260045260245ffd5b5f826116fa576116fa6116d8565b500690565b808202811582820484141761056357610563611657565b5f82611724576117246116d8565b500490565b5f60208284031215611739575f80fd5b815161056b81610da4565b5f60208284031215611754575f80fd5b5051919050565b5f8161176957611769611657565b505f19019056fea2646970667358221220aea5c8bf368b3395e3e5a1e55dcef9efff4c0d546b8e4bcdd6733bd7d8c71a9c64736f6c63430008180033","linkReferences":{}},"methodIdentifiers":{"LUCKY_NUMBER()":"f883fcaa","MAX_NUMBER()":"fea9b572","getHookFlags()":"d77153a7","getRandomNumber()":"dbdff2c1","hookSwapFeePercentage()":"4392312a","onAfterAddLiquidity(address,address,uint8,uint256[],uint256[],uint256,uint256[],bytes)":"976907cc","onAfterInitialize(uint256[],uint256,bytes)":"38be241d","onAfterRemoveLiquidity(address,address,uint8,uint256,uint256[],uint256[],uint256[],bytes)":"2754888d","onAfterSwap((uint8,address,address,uint256,uint256,uint256,uint256,uint256,uint256,address,address,bytes))":"18b6eb55","onBeforeAddLiquidity(address,address,uint8,uint256[],uint256,uint256[],bytes)":"45421ec7","onBeforeInitialize(uint256[],bytes)":"1c149e28","onBeforeRemoveLiquidity(address,address,uint8,uint256,uint256[],uint256[],bytes)":"ba5f9f40","onBeforeSwap((uint8,uint256,uint256[],uint256,uint256,address,bytes),address)":"5211fa77","onComputeDynamicSwapFeePercentage((uint8,uint256,uint256[],uint256,uint256,address,bytes),address,uint256)":"a0e8f5ac","onRegister(address,address,(address,uint8,address,bool)[],(bool,bool,bool,bool))":"0b89f182","owner()":"8da5cb5b","renounceOwnership()":"715018a6","setHookSwapFeePercentage(uint64)":"f9e5c197","transferOwnership(address)":"f2fde38b"},"id":3}