{"abi":[{"type":"constructor","inputs":[{"name":"vault_","type":"address","internalType":"contract IVault"},{"name":"bptName","type":"string","internalType":"string"},{"name":"bptSymbol","type":"string","internalType":"string"}],"stateMutability":"nonpayable"},{"type":"function","name":"DOMAIN_SEPARATOR","inputs":[],"outputs":[{"name":"","type":"bytes32","internalType":"bytes32"}],"stateMutability":"view"},{"type":"function","name":"PERMIT_TYPEHASH","inputs":[],"outputs":[{"name":"","type":"bytes32","internalType":"bytes32"}],"stateMutability":"view"},{"type":"function","name":"allowance","inputs":[{"name":"owner","type":"address","internalType":"address"},{"name":"spender","type":"address","internalType":"address"}],"outputs":[{"name":"","type":"uint256","internalType":"uint256"}],"stateMutability":"view"},{"type":"function","name":"approve","inputs":[{"name":"spender","type":"address","internalType":"address"},{"name":"amount","type":"uint256","internalType":"uint256"}],"outputs":[{"name":"","type":"bool","internalType":"bool"}],"stateMutability":"nonpayable"},{"type":"function","name":"balanceOf","inputs":[{"name":"account","type":"address","internalType":"address"}],"outputs":[{"name":"","type":"uint256","internalType":"uint256"}],"stateMutability":"view"},{"type":"function","name":"decimals","inputs":[],"outputs":[{"name":"","type":"uint8","internalType":"uint8"}],"stateMutability":"pure"},{"type":"function","name":"eip712Domain","inputs":[],"outputs":[{"name":"fields","type":"bytes1","internalType":"bytes1"},{"name":"name","type":"string","internalType":"string"},{"name":"version","type":"string","internalType":"string"},{"name":"chainId","type":"uint256","internalType":"uint256"},{"name":"verifyingContract","type":"address","internalType":"address"},{"name":"salt","type":"bytes32","internalType":"bytes32"},{"name":"extensions","type":"uint256[]","internalType":"uint256[]"}],"stateMutability":"view"},{"type":"function","name":"emitApproval","inputs":[{"name":"owner","type":"address","internalType":"address"},{"name":"spender","type":"address","internalType":"address"},{"name":"amount","type":"uint256","internalType":"uint256"}],"outputs":[],"stateMutability":"nonpayable"},{"type":"function","name":"emitTransfer","inputs":[{"name":"from","type":"address","internalType":"address"},{"name":"to","type":"address","internalType":"address"},{"name":"amount","type":"uint256","internalType":"uint256"}],"outputs":[],"stateMutability":"nonpayable"},{"type":"function","name":"getRate","inputs":[],"outputs":[{"name":"","type":"uint256","internalType":"uint256"}],"stateMutability":"view"},{"type":"function","name":"getVault","inputs":[],"outputs":[{"name":"","type":"address","internalType":"contract IVault"}],"stateMutability":"view"},{"type":"function","name":"name","inputs":[],"outputs":[{"name":"","type":"string","internalType":"string"}],"stateMutability":"view"},{"type":"function","name":"nonces","inputs":[{"name":"owner","type":"address","internalType":"address"}],"outputs":[{"name":"","type":"uint256","internalType":"uint256"}],"stateMutability":"view"},{"type":"function","name":"permit","inputs":[{"name":"owner","type":"address","internalType":"address"},{"name":"spender","type":"address","internalType":"address"},{"name":"amount","type":"uint256","internalType":"uint256"},{"name":"deadline","type":"uint256","internalType":"uint256"},{"name":"v","type":"uint8","internalType":"uint8"},{"name":"r","type":"bytes32","internalType":"bytes32"},{"name":"s","type":"bytes32","internalType":"bytes32"}],"outputs":[],"stateMutability":"nonpayable"},{"type":"function","name":"revokePermit","inputs":[],"outputs":[],"stateMutability":"nonpayable"},{"type":"function","name":"supportsInterface","inputs":[{"name":"interfaceId","type":"bytes4","internalType":"bytes4"}],"outputs":[{"name":"","type":"bool","internalType":"bool"}],"stateMutability":"view"},{"type":"function","name":"symbol","inputs":[],"outputs":[{"name":"","type":"string","internalType":"string"}],"stateMutability":"view"},{"type":"function","name":"totalSupply","inputs":[],"outputs":[{"name":"","type":"uint256","internalType":"uint256"}],"stateMutability":"view"},{"type":"function","name":"transfer","inputs":[{"name":"to","type":"address","internalType":"address"},{"name":"amount","type":"uint256","internalType":"uint256"}],"outputs":[{"name":"","type":"bool","internalType":"bool"}],"stateMutability":"nonpayable"},{"type":"function","name":"transferFrom","inputs":[{"name":"from","type":"address","internalType":"address"},{"name":"to","type":"address","internalType":"address"},{"name":"amount","type":"uint256","internalType":"uint256"}],"outputs":[{"name":"","type":"bool","internalType":"bool"}],"stateMutability":"nonpayable"},{"type":"event","name":"Approval","inputs":[{"name":"owner","type":"address","indexed":true,"internalType":"address"},{"name":"spender","type":"address","indexed":true,"internalType":"address"},{"name":"value","type":"uint256","indexed":false,"internalType":"uint256"}],"anonymous":false},{"type":"event","name":"EIP712DomainChanged","inputs":[],"anonymous":false},{"type":"event","name":"Transfer","inputs":[{"name":"from","type":"address","indexed":true,"internalType":"address"},{"name":"to","type":"address","indexed":true,"internalType":"address"},{"name":"value","type":"uint256","indexed":false,"internalType":"uint256"}],"anonymous":false},{"type":"error","name":"ECDSAInvalidSignature","inputs":[]},{"type":"error","name":"ECDSAInvalidSignatureLength","inputs":[{"name":"length","type":"uint256","internalType":"uint256"}]},{"type":"error","name":"ECDSAInvalidSignatureS","inputs":[{"name":"s","type":"bytes32","internalType":"bytes32"}]},{"type":"error","name":"ERC2612ExpiredSignature","inputs":[{"name":"deadline","type":"uint256","internalType":"uint256"}]},{"type":"error","name":"ERC2612InvalidSigner","inputs":[{"name":"signer","type":"address","internalType":"address"},{"name":"owner","type":"address","internalType":"address"}]},{"type":"error","name":"InvalidAccountNonce","inputs":[{"name":"account","type":"address","internalType":"address"},{"name":"currentNonce","type":"uint256","internalType":"uint256"}]},{"type":"error","name":"InvalidShortString","inputs":[]},{"type":"error","name":"SenderIsNotVault","inputs":[{"name":"sender","type":"address","internalType":"address"}]},{"type":"error","name":"StringTooLong","inputs":[{"name":"str","type":"string","internalType":"string"}]}],"bytecode":{"object":"0x61018060405234801562000011575f80fd5b506040516200194f3803806200194f833981016040819052620000349162000280565b6040805180820190915260018152603160f81b6020820152839083906200005c825f62000137565b610120526200006d81600162000137565b61014052815160208084019190912060e052815190820120610100524660a052620000fa60e05161010051604080517f8b73c3c69bb8fe3d512ecc4cf759cc79239f7b179b0ffacaa9a75d522b39400f60208201529081019290925260608201524660808201523060a08201525f9060c00160405160208183030381529060405280519060200120905090565b60805250503060c0526001600160a01b03166101605260036200011e83826200038e565b5060046200012d82826200038e565b50505050620004b2565b5f60208351101562000156576200014e836200016f565b905062000169565b816200016384826200038e565b5060ff90505b92915050565b5f80829050601f81511115620001a5578260405163305a27a960e01b81526004016200019c91906200045a565b60405180910390fd5b8051620001b2826200048e565b179392505050565b634e487b7160e01b5f52604160045260245ffd5b5f5b83811015620001ea578181015183820152602001620001d0565b50505f910152565b5f82601f83011262000202575f80fd5b81516001600160401b03808211156200021f576200021f620001ba565b604051601f8301601f19908116603f011681019082821181831017156200024a576200024a620001ba565b8160405283815286602085880101111562000263575f80fd5b62000276846020830160208901620001ce565b9695505050505050565b5f805f6060848603121562000293575f80fd5b83516001600160a01b0381168114620002aa575f80fd5b60208501519093506001600160401b0380821115620002c7575f80fd5b620002d587838801620001f2565b93506040860151915080821115620002eb575f80fd5b50620002fa86828701620001f2565b9150509250925092565b600181811c908216806200031957607f821691505b6020821081036200033857634e487b7160e01b5f52602260045260245ffd5b50919050565b601f8211156200038957805f5260205f20601f840160051c81016020851015620003655750805b601f840160051c820191505b8181101562000386575f815560010162000371565b50505b505050565b81516001600160401b03811115620003aa57620003aa620001ba565b620003c281620003bb845462000304565b846200033e565b602080601f831160018114620003f8575f8415620003e05750858301515b5f19600386901b1c1916600185901b17855562000452565b5f85815260208120601f198616915b82811015620004285788860151825594840194600190910190840162000407565b50858210156200044657878501515f19600388901b60f8161c191681555b505060018460011b0185555b505050505050565b602081525f82518060208401526200047a816040850160208701620001ce565b601f01601f19169190910160400192915050565b8051602080830151919081101562000338575f1960209190910360031b1b16919050565b60805160a05160c05160e051610100516101205161014051610160516114026200054d5f395f81816102de01528181610421015281816104ca01528181610590015281816106ef0152818161075e0152818161089a01528181610a4f01528181610b0e0152610b8b01525f610d4201525f610d1601525f610cbf01525f610c9701525f610bf201525f610c1c01525f610c4601526114025ff3fe608060405234801561000f575f80fd5b5060043610610163575f3560e01c8063679aefce116100c757806395d89b411161007d578063a9059cbb11610063578063a9059cbb1461032a578063d505accf1461033d578063dd62ed3e14610350575f80fd5b806395d89b4114610308578063979ac70214610310575f80fd5b80637ecebe00116100ad5780637ecebe00146102a357806384b0196e146102b65780638d928af8146102d1575f80fd5b8063679aefce1461028857806370a0823114610290575f80fd5b806323de66511161011c578063313ce56711610102578063313ce5671461025e5780633644e5151461026d5780635687f2b814610275575f80fd5b806323de66511461022257806330adf81f14610237575f80fd5b8063095ea7b31161014c578063095ea7b3146101e657806318160ddd146101f957806323b872dd1461020f575f80fd5b806301ffc9a71461016757806306fdde03146101d1575b5f80fd5b6101bc6101753660046110d0565b7fffffffff00000000000000000000000000000000000000000000000000000000167f01ffc9a7000000000000000000000000000000000000000000000000000000001490565b60405190151581526020015b60405180910390f35b6101d9610363565b6040516101c89190611152565b6101bc6101f436600461117f565b6103f3565b61020161049a565b6040519081526020016101c8565b6101bc61021d3660046111a7565b610541565b6102356102303660046111a7565b610607565b005b6102017f6e71edae12b1b97f4d1f60370fef10105fa2faae0126114a169c64845d6126c981565b604051601281526020016101c8565b610201610661565b6102356102833660046111a7565b61066a565b6102016106b7565b61020161029e3660046111e0565b61071e565b6102016102b13660046111e0565b6107c9565b6102be6107e6565b6040516101c897969594939291906111f9565b6040516001600160a01b037f00000000000000000000000000000000000000000000000000000000000000001681526020016101c8565b6101d9610844565b610235335f90815260026020526040902080546001019055565b6101bc61033836600461117f565b610853565b61023561034b3660046112ac565b6108cb565b61020161035e366004611319565b610ac6565b6060600380546103729061134a565b80601f016020809104026020016040519081016040528092919081815260200182805461039e9061134a565b80156103e95780601f106103c0576101008083540402835291602001916103e9565b820191905f5260205f20905b8154815290600101906020018083116103cc57829003601f168201915b5050505050905090565b60405163e1f21c6760e01b81523360048201526001600160a01b038381166024830152604482018390525f917f00000000000000000000000000000000000000000000000000000000000000009091169063e1f21c67906064015b6020604051808303815f875af115801561046a573d5f803e3d5ffd5b505050506040513d601f19601f8201168201806040525081019061048e9190611382565b50600190505b92915050565b6040517fe4dc2aa40000000000000000000000000000000000000000000000000000000081523060048201525f907f00000000000000000000000000000000000000000000000000000000000000006001600160a01b03169063e4dc2aa4906024015b602060405180830381865afa158015610518573d5f803e3d5ffd5b505050506040513d601f19601f8201168201806040525081019061053c91906113a1565b905090565b6040517f15dacbea0000000000000000000000000000000000000000000000000000000081523360048201526001600160a01b0384811660248301528381166044830152606482018390525f917f0000000000000000000000000000000000000000000000000000000000000000909116906315dacbea906084016020604051808303815f875af11580156105d8573d5f803e3d5ffd5b505050506040513d601f19601f820116820180604052508101906105fc9190611382565b506001949350505050565b61060f610b80565b816001600160a01b0316836001600160a01b03167fddf252ad1be2c89b69c2b068fc378daa952ba7f163c4a11628f55a4df523b3ef8360405161065491815260200190565b60405180910390a3505050565b5f61053c610be6565b610672610b80565b816001600160a01b0316836001600160a01b03167f8c5be1e5ebec7d5bd14f71427d1e84f3dd0314c0f7b2291e5b200ac8c7c3b9258360405161065491815260200190565b6040517f4f037ee70000000000000000000000000000000000000000000000000000000081523060048201525f906001600160a01b037f00000000000000000000000000000000000000000000000000000000000000001690634f037ee7906024016104fd565b6040517ff7888aec0000000000000000000000000000000000000000000000000000000081523060048201526001600160a01b0382811660248301525f917f00000000000000000000000000000000000000000000000000000000000000009091169063f7888aec90604401602060405180830381865afa1580156107a5573d5f803e3d5ffd5b505050506040513d601f19601f8201168201806040525081019061049491906113a1565b6001600160a01b0381165f90815260026020526040812054610494565b5f6060805f805f60606107f7610d0f565b6107ff610d3b565b604080515f808252602082019092527f0f000000000000000000000000000000000000000000000000000000000000009b939a50919850469750309650945092509050565b6060600480546103729061134a565b6040517fbeabacc80000000000000000000000000000000000000000000000000000000081523360048201526001600160a01b038381166024830152604482018390525f917f00000000000000000000000000000000000000000000000000000000000000009091169063beabacc89060640161044e565b8342111561090d576040517f62791302000000000000000000000000000000000000000000000000000000008152600481018590526024015b60405180910390fd5b5f7f6e71edae12b1b97f4d1f60370fef10105fa2faae0126114a169c64845d6126c98888886109588c6001600160a01b03165f90815260026020526040902080546001810190915590565b6040805160208101969096526001600160a01b0394851690860152929091166060840152608083015260a082015260c0810186905260e0016040516020818303038152906040528051906020012090505f6109b282610d68565b90505f6109c182878787610daf565b9050896001600160a01b0316816001600160a01b031614610a21576040517f4b800e460000000000000000000000000000000000000000000000000000000081526001600160a01b0380831660048301528b166024820152604401610904565b60405163e1f21c6760e01b81526001600160a01b038b811660048301528a81166024830152604482018a90527f0000000000000000000000000000000000000000000000000000000000000000169063e1f21c67906064016020604051808303815f875af1158015610a95573d5f803e3d5ffd5b505050506040513d601f19601f82011682018060405250810190610ab99190611382565b5050505050505050505050565b6040517f927da1050000000000000000000000000000000000000000000000000000000081523060048201526001600160a01b03838116602483015282811660448301525f917f00000000000000000000000000000000000000000000000000000000000000009091169063927da10590606401602060405180830381865afa158015610b55573d5f803e3d5ffd5b505050506040513d601f19601f82011682018060405250810190610b7991906113a1565b9392505050565b336001600160a01b037f00000000000000000000000000000000000000000000000000000000000000001614610be4576040517f089676d5000000000000000000000000000000000000000000000000000000008152336004820152602401610904565b565b5f306001600160a01b037f000000000000000000000000000000000000000000000000000000000000000016148015610c3e57507f000000000000000000000000000000000000000000000000000000000000000046145b15610c6857507f000000000000000000000000000000000000000000000000000000000000000090565b61053c604080517f8b73c3c69bb8fe3d512ecc4cf759cc79239f7b179b0ffacaa9a75d522b39400f60208201527f0000000000000000000000000000000000000000000000000000000000000000918101919091527f000000000000000000000000000000000000000000000000000000000000000060608201524660808201523060a08201525f9060c00160405160208183030381529060405280519060200120905090565b606061053c7f00000000000000000000000000000000000000000000000000000000000000005f610ddb565b606061053c7f00000000000000000000000000000000000000000000000000000000000000006001610ddb565b5f610494610d74610be6565b836040517f19010000000000000000000000000000000000000000000000000000000000008152600281019290925260228201526042902090565b5f805f80610dbf88888888610e84565b925092509250610dcf8282610f4c565b50909695505050505050565b606060ff8314610df557610dee83611053565b9050610494565b818054610e019061134a565b80601f0160208091040260200160405190810160405280929190818152602001828054610e2d9061134a565b8015610e785780601f10610e4f57610100808354040283529160200191610e78565b820191905f5260205f20905b815481529060010190602001808311610e5b57829003601f168201915b50505050509050610494565b5f80807f7fffffffffffffffffffffffffffffff5d576e7357a4501ddfe92f46681b20a0841115610ebd57505f91506003905082610f42565b604080515f808252602082018084528a905260ff891692820192909252606081018790526080810186905260019060a0016020604051602081039080840390855afa158015610f0e573d5f803e3d5ffd5b5050604051601f1901519150506001600160a01b038116610f3957505f925060019150829050610f42565b92505f91508190505b9450945094915050565b5f826003811115610f5f57610f5f6113b8565b03610f68575050565b6001826003811115610f7c57610f7c6113b8565b03610fb3576040517ff645eedf00000000000000000000000000000000000000000000000000000000815260040160405180910390fd5b6002826003811115610fc757610fc76113b8565b03611001576040517ffce698f700000000000000000000000000000000000000000000000000000000815260048101829052602401610904565b6003826003811115611015576110156113b8565b0361104f576040517fd78bce0c00000000000000000000000000000000000000000000000000000000815260048101829052602401610904565b5050565b60605f61105f83611090565b6040805160208082528183019092529192505f91906020820181803683375050509182525060208101929092525090565b5f60ff8216601f811115610494576040517fb3512b0c00000000000000000000000000000000000000000000000000000000815260040160405180910390fd5b5f602082840312156110e0575f80fd5b81357fffffffff0000000000000000000000000000000000000000000000000000000081168114610b79575f80fd5b5f81518084525f5b8181101561113357602081850181015186830182015201611117565b505f602082860101526020601f19601f83011685010191505092915050565b602081525f610b79602083018461110f565b80356001600160a01b038116811461117a575f80fd5b919050565b5f8060408385031215611190575f80fd5b61119983611164565b946020939093013593505050565b5f805f606084860312156111b9575f80fd5b6111c284611164565b92506111d060208501611164565b9150604084013590509250925092565b5f602082840312156111f0575f80fd5b610b7982611164565b7fff00000000000000000000000000000000000000000000000000000000000000881681525f602060e0602084015261123560e084018a61110f565b8381036040850152611247818a61110f565b606085018990526001600160a01b038816608086015260a0850187905284810360c0860152855180825260208088019350909101905f5b8181101561129a5783518352928401929184019160010161127e565b50909c9b505050505050505050505050565b5f805f805f805f60e0888a0312156112c2575f80fd5b6112cb88611164565b96506112d960208901611164565b95506040880135945060608801359350608088013560ff811681146112fc575f80fd5b9699959850939692959460a0840135945060c09093013592915050565b5f806040838503121561132a575f80fd5b61133383611164565b915061134160208401611164565b90509250929050565b600181811c9082168061135e57607f821691505b60208210810361137c57634e487b7160e01b5f52602260045260245ffd5b50919050565b5f60208284031215611392575f80fd5b81518015158114610b79575f80fd5b5f602082840312156113b1575f80fd5b5051919050565b634e487b7160e01b5f52602160045260245ffdfea2646970667358221220f2008a9c8d62d5321f908a0712194331d3e070be462519d178bc142908de013e64736f6c63430008180033","linkReferences":{}},"methodIdentifiers":{"DOMAIN_SEPARATOR()":"3644e515","PERMIT_TYPEHASH()":"30adf81f","allowance(address,address)":"dd62ed3e","approve(address,uint256)":"095ea7b3","balanceOf(address)":"70a08231","decimals()":"313ce567","eip712Domain()":"84b0196e","emitApproval(address,address,uint256)":"5687f2b8","emitTransfer(address,address,uint256)":"23de6651","getRate()":"679aefce","getVault()":"8d928af8","name()":"06fdde03","nonces(address)":"7ecebe00","permit(address,address,uint256,uint256,uint8,bytes32,bytes32)":"d505accf","revokePermit()":"979ac702","supportsInterface(bytes4)":"01ffc9a7","symbol()":"95d89b41","totalSupply()":"18160ddd","transfer(address,uint256)":"a9059cbb","transferFrom(address,address,uint256)":"23b872dd"},"id":64}