{"abi":[{"type":"constructor","inputs":[{"name":"vault","type":"address","internalType":"contract IVault"},{"name":"pauseWindowDuration","type":"uint32","internalType":"uint32"}],"stateMutability":"nonpayable"},{"type":"function","name":"create","inputs":[{"name":"name","type":"string","internalType":"string"},{"name":"symbol","type":"string","internalType":"string"},{"name":"salt","type":"bytes32","internalType":"bytes32"},{"name":"tokens","type":"tuple[]","internalType":"struct TokenConfig[]","components":[{"name":"token","type":"address","internalType":"contract IERC20"},{"name":"tokenType","type":"uint8","internalType":"enum TokenType"},{"name":"rateProvider","type":"address","internalType":"contract IRateProvider"},{"name":"paysYieldFees","type":"bool","internalType":"bool"}]},{"name":"swapFeePercentage","type":"uint256","internalType":"uint256"},{"name":"protocolFeeExempt","type":"bool","internalType":"bool"},{"name":"roleAccounts","type":"tuple","internalType":"struct PoolRoleAccounts","components":[{"name":"pauseManager","type":"address","internalType":"address"},{"name":"swapFeeManager","type":"address","internalType":"address"},{"name":"poolCreator","type":"address","internalType":"address"}]},{"name":"poolHooksContract","type":"address","internalType":"address"},{"name":"liquidityManagement","type":"tuple","internalType":"struct LiquidityManagement","components":[{"name":"disableUnbalancedLiquidity","type":"bool","internalType":"bool"},{"name":"enableAddLiquidityCustom","type":"bool","internalType":"bool"},{"name":"enableRemoveLiquidityCustom","type":"bool","internalType":"bool"},{"name":"enableDonation","type":"bool","internalType":"bool"}]}],"outputs":[{"name":"pool","type":"address","internalType":"address"}],"stateMutability":"nonpayable"},{"type":"function","name":"disable","inputs":[],"outputs":[],"stateMutability":"nonpayable"},{"type":"function","name":"getActionId","inputs":[{"name":"selector","type":"bytes4","internalType":"bytes4"}],"outputs":[{"name":"","type":"bytes32","internalType":"bytes32"}],"stateMutability":"view"},{"type":"function","name":"getAuthorizer","inputs":[],"outputs":[{"name":"","type":"address","internalType":"contract IAuthorizer"}],"stateMutability":"view"},{"type":"function","name":"getDefaultLiquidityManagement","inputs":[],"outputs":[{"name":"liquidityManagement","type":"tuple","internalType":"struct LiquidityManagement","components":[{"name":"disableUnbalancedLiquidity","type":"bool","internalType":"bool"},{"name":"enableAddLiquidityCustom","type":"bool","internalType":"bool"},{"name":"enableRemoveLiquidityCustom","type":"bool","internalType":"bool"},{"name":"enableDonation","type":"bool","internalType":"bool"}]}],"stateMutability":"pure"},{"type":"function","name":"getDefaultPoolHooksContract","inputs":[],"outputs":[{"name":"","type":"address","internalType":"address"}],"stateMutability":"pure"},{"type":"function","name":"getDeploymentAddress","inputs":[{"name":"salt","type":"bytes32","internalType":"bytes32"}],"outputs":[{"name":"","type":"address","internalType":"address"}],"stateMutability":"view"},{"type":"function","name":"getNewPoolPauseWindowEndTime","inputs":[],"outputs":[{"name":"","type":"uint32","internalType":"uint32"}],"stateMutability":"view"},{"type":"function","name":"getOriginalPauseWindowEndTime","inputs":[],"outputs":[{"name":"","type":"uint32","internalType":"uint32"}],"stateMutability":"view"},{"type":"function","name":"getPauseWindowDuration","inputs":[],"outputs":[{"name":"","type":"uint32","internalType":"uint32"}],"stateMutability":"view"},{"type":"function","name":"getVault","inputs":[],"outputs":[{"name":"","type":"address","internalType":"contract IVault"}],"stateMutability":"view"},{"type":"function","name":"isDisabled","inputs":[],"outputs":[{"name":"","type":"bool","internalType":"bool"}],"stateMutability":"view"},{"type":"function","name":"isPoolFromFactory","inputs":[{"name":"pool","type":"address","internalType":"address"}],"outputs":[{"name":"","type":"bool","internalType":"bool"}],"stateMutability":"view"},{"type":"event","name":"FactoryDisabled","inputs":[],"anonymous":false},{"type":"event","name":"PoolCreated","inputs":[{"name":"pool","type":"address","indexed":true,"internalType":"address"}],"anonymous":false},{"type":"error","name":"Disabled","inputs":[]},{"type":"error","name":"PoolPauseWindowDurationOverflow","inputs":[]},{"type":"error","name":"SenderNotAllowed","inputs":[]},{"type":"error","name":"StandardPoolWithCreator","inputs":[]}],"bytecode":{"object":"0x61010060405234801562000011575f80fd5b5060405162003362380380620033628339810160408190526200003491620000df565b8181604051806020016200004890620000d1565b601f1982820381018352601f90910116604052306080526001600160a01b03831660a052815f6200008063ffffffff8316426200012d565b905063ffffffff811115620000a8576040516368755a1160e01b815260040160405180910390fd5b63ffffffff91821660c0521660e0526002620000c58282620001f1565b505050505050620002bd565b611f2e806200143483390190565b5f8060408385031215620000f1575f80fd5b82516001600160a01b038116811462000108575f80fd5b602084015190925063ffffffff8116811462000122575f80fd5b809150509250929050565b808201808211156200014d57634e487b7160e01b5f52601160045260245ffd5b92915050565b634e487b7160e01b5f52604160045260245ffd5b600181811c908216806200017c57607f821691505b6020821081036200019b57634e487b7160e01b5f52602260045260245ffd5b50919050565b601f821115620001ec57805f5260205f20601f840160051c81016020851015620001c85750805b601f840160051c820191505b81811015620001e9575f8155600101620001d4565b50505b505050565b81516001600160401b038111156200020d576200020d62000153565b62000225816200021e845462000167565b84620001a1565b602080601f8311600181146200025b575f8415620002435750858301515b5f19600386901b1c1916600185901b178555620002b5565b5f85815260208120601f198616915b828110156200028b578886015182559484019460019091019084016200026a565b5085821015620002a957878501515f19600388901b60f8161c191681555b505060018460011b0185555b505050505050565b60805160a05160c05160e051611120620003145f395f81816102310152818161042a015261045d01525f6101a301525f81816101fb015281816102bf015281816103a401526105a101525f61032801526111205ff3fe608060405234801561000f575f80fd5b50600436106100da575f3560e01c806378da80cb11610088578063aaabadc511610063578063aaabadc51461021f578063db035ebc14610227578063e9d56e191461022f578063ec88806114610255575f80fd5b806378da80cb146101a1578063851c1bb3146101d85780638d928af8146101f9575f80fd5b80636634b753116100b85780636634b7531461014857806369b93224146101835780636c57f5a914610196575f80fd5b8063193ad50f146100de5780632f2770db14610113578063337d40101461011d575b5f80fd5b604080516080810182525f808252602082018190528183018190526060820152905161010a91906109e6565b60405180910390f35b61011b61025b565b005b61013061012b366004610a19565b6102a1565b6040516001600160a01b03909116815260200161010a565b610173610156366004610a54565b6001600160a01b03165f9081526020819052604090205460ff1690565b604051901515815260200161010a565b610130610191366004610d15565b6102b9565b60015460ff16610173565b7f00000000000000000000000000000000000000000000000000000000000000005b60405163ffffffff909116815260200161010a565b6101eb6101e6366004610dee565b610325565b60405190815260200161010a565b7f0000000000000000000000000000000000000000000000000000000000000000610130565b6101306103a1565b6101c3610427565b7f00000000000000000000000000000000000000000000000000000000000000006101c3565b5f610130565b61026361047f565b61026b6104f1565b6001805460ff1916811790556040517f432acbfd662dbb5d8b378384a67159b47ca9d0f1b79f97cf64cf8585fa362d50905f90a1565b5f6102b36102ae83610530565b610553565b92915050565b5f6103077f00000000000000000000000000000000000000000000000000000000000000008b8b6040516020016102f293929190610e7a565b6040516020818303038152906040528961055e565b90506103188188888888888861059f565b9998505050505050505050565b5f7f0000000000000000000000000000000000000000000000000000000000000000826040516020016103849291909182527fffffffff0000000000000000000000000000000000000000000000000000000016602082015260240190565b604051602081830303815290604052805190602001209050919050565b5f7f00000000000000000000000000000000000000000000000000000000000000006001600160a01b031663aaabadc56040518163ffffffff1660e01b8152600401602060405180830381865afa1580156103fe573d5f803e3d5ffd5b505050506040513d601f19601f820116820180604052508101906104229190610eb7565b905090565b5f7f000000000000000000000000000000000000000000000000000000000000000063ffffffff16421061045a57505f90565b507f000000000000000000000000000000000000000000000000000000000000000090565b5f6104ac5f357fffffffff0000000000000000000000000000000000000000000000000000000016610325565b90506104b88133610636565b6104ee576040517f23dada5300000000000000000000000000000000000000000000000000000000815260040160405180910390fd5b50565b60015460ff161561052e576040517f75884cda00000000000000000000000000000000000000000000000000000000815260040160405180910390fd5b565b604080513360208201524691810191909152606081018290525f90608001610384565b5f6102b382306106d6565b5f61059461056b83610530565b60028560405160200161057f929190610eed565b6040516020818303038152906040525f61081e565b90506102b381610993565b7f00000000000000000000000000000000000000000000000000000000000000006001600160a01b031663eeec802f8888886105d9610427565b898989896040518963ffffffff1660e01b8152600401610600989796959493929190610f96565b5f604051808303815f87803b158015610617575f80fd5b505af1158015610629573d5f803e3d5ffd5b5050505050505050505050565b5f61063f6103a1565b6040517f9be2a884000000000000000000000000000000000000000000000000000000008152600481018590526001600160a01b0384811660248301523060448301529190911690639be2a88490606401602060405180830381865afa1580156106ab573d5f803e3d5ffd5b505050506040513d601f19601f820116820180604052508101906106cf91906110b4565b9392505050565b604080518082018252601081527f67363d3d37363d34f03d5260086018f30000000000000000000000000000000060209182015290517fff00000000000000000000000000000000000000000000000000000000000000918101919091526bffffffffffffffffffffffff19606083901b166021820152603581018390527f21c35dbe1b344a2488cf3321d6ce542f8e9f305544ff09e4993a62319a497c1f60558201525f90819061079f906075015b6040516020818303038152906040528051906020012090565b6040517fd69400000000000000000000000000000000000000000000000000000000000060208201526bffffffffffffffffffffffff19606083901b1660228201527f0100000000000000000000000000000000000000000000000000000000000000603682015290915061081690603701610786565b949350505050565b5f806040518060400160405280601081526020017f67363d3d37363d34f03d5260086018f30000000000000000000000000000000081525090505f858251602084015ff590506001600160a01b0381166108bf5760405162461bcd60e51b815260206004820152601160248201527f4445504c4f594d454e545f4641494c454400000000000000000000000000000060448201526064015b60405180910390fd5b6108c886610553565b92505f816001600160a01b031685876040516108e491906110cf565b5f6040518083038185875af1925050503d805f811461091e576040519150601f19603f3d011682016040523d82523d5f602084013e610923565b606091505b5050905080801561093d57506001600160a01b0384163b15155b6109895760405162461bcd60e51b815260206004820152601560248201527f494e495449414c495a4154494f4e5f4641494c4544000000000000000000000060448201526064016108b6565b5050509392505050565b61099b6104f1565b6001600160a01b0381165f81815260208190526040808220805460ff19166001179055517f83a48fbcfc991335314e74d0496aab6a1987e992ddc85dddbcc4d6dd6ef2e9fc9190a250565b815115158152602080830151151590820152604080830151151590820152606080830151151590820152608081016102b3565b5f60208284031215610a29575f80fd5b5035919050565b6001600160a01b03811681146104ee575f80fd5b8035610a4f81610a30565b919050565b5f60208284031215610a64575f80fd5b81356106cf81610a30565b634e487b7160e01b5f52604160045260245ffd5b6040516080810167ffffffffffffffff81118282101715610aa657610aa6610a6f565b60405290565b604051601f8201601f1916810167ffffffffffffffff81118282101715610ad557610ad5610a6f565b604052919050565b5f82601f830112610aec575f80fd5b813567ffffffffffffffff811115610b0657610b06610a6f565b610b19601f8201601f1916602001610aac565b818152846020838601011115610b2d575f80fd5b816020850160208301375f918101602001919091529392505050565b80151581146104ee575f80fd5b8035610a4f81610b49565b5f82601f830112610b70575f80fd5b8135602067ffffffffffffffff821115610b8c57610b8c610a6f565b610b9a818360051b01610aac565b82815260079290921b84018101918181019086841115610bb8575f80fd5b8286015b84811015610c305760808189031215610bd3575f80fd5b610bdb610a83565b8135610be681610a30565b81528185013560028110610bf8575f80fd5b81860152604082810135610c0b81610a30565b90820152606082810135610c1e81610b49565b90820152835291830191608001610bbc565b509695505050505050565b5f60608284031215610c4b575f80fd5b6040516060810181811067ffffffffffffffff82111715610c6e57610c6e610a6f565b6040529050808235610c7f81610a30565b81526020830135610c8f81610a30565b60208201526040830135610ca281610a30565b6040919091015292915050565b5f60808284031215610cbf575f80fd5b610cc7610a83565b90508135610cd481610b49565b81526020820135610ce481610b49565b60208201526040820135610cf781610b49565b60408201526060820135610d0a81610b49565b606082015292915050565b5f805f805f805f805f6101c08a8c031215610d2e575f80fd5b893567ffffffffffffffff80821115610d45575f80fd5b610d518d838e01610add565b9a5060208c0135915080821115610d66575f80fd5b610d728d838e01610add565b995060408c0135985060608c0135915080821115610d8e575f80fd5b50610d9b8c828d01610b61565b96505060808a01359450610db160a08b01610b56565b9350610dc08b60c08c01610c3b565b9250610dcf6101208b01610a44565b9150610ddf8b6101408c01610caf565b90509295985092959850929598565b5f60208284031215610dfe575f80fd5b81357fffffffff00000000000000000000000000000000000000000000000000000000811681146106cf575f80fd5b5f5b83811015610e47578181015183820152602001610e2f565b50505f910152565b5f8151808452610e66816020860160208601610e2d565b601f01601f19169290920160200192915050565b6001600160a01b0384168152606060208201525f610e9b6060830185610e4f565b8281036040840152610ead8185610e4f565b9695505050505050565b5f60208284031215610ec7575f80fd5b81516106cf81610a30565b5f8151610ee3818560208601610e2d565b9290920192915050565b5f8084545f60018260011c91506001831680610f0a57607f831692505b60208084108203610f2957634e487b7160e01b5f52602260045260245ffd5b818015610f3d5760018114610f5257610f7d565b60ff1986168952841515850289019650610f7d565b5f8b8152602090205f5b86811015610f755781548b820152908501908301610f5c565b505084890196505b505050505050610f8d8185610ed2565b95945050505050565b6001600160a01b0389811682526101a060208084018290528a519184018290525f926101c08501928c83019290855b818110156110235784518481511687528381015160028110610ff557634e487b7160e01b5f52602160045260245ffd5b8785015260408181015186169088015260609081015115159087015260809095019493820193600101610fc5565b50505050506040830189905263ffffffff881660608401529050851515608083015284516001600160a01b0390811660a08401526020860151811660c084015260408601511660e08301526001600160a01b03841661010083015282511515610120830152602083015115156101408301526040830151151561016083015260608301511515610180830152610318565b5f602082840312156110c4575f80fd5b81516106cf81610b49565b5f82516110e0818460208701610e2d565b919091019291505056fea26469706673582212208e5f62e4c4866ca9fa466ab570741dec1d0ca70ce0afdb4c96c33e3e8bde6e1e64736f6c6343000818003361018060405234801562000011575f80fd5b5060405162001f2e38038062001f2e83398101604081905262000034916200028f565b8282828282604051806040016040528060018152602001603160f81b815250620000685f836200014660201b90919060201c565b610120526200007981600162000146565b61014052815160208084019190912060e052815190820120610100524660a0526200010660e05161010051604080517f8b73c3c69bb8fe3d512ecc4cf759cc79239f7b179b0ffacaa9a75d522b39400f60208201529081019290925260608201524660808201523060a08201525f9060c00160405160208183030381529060405280519060200120905090565b60805250503060c0526001600160a01b03166101605260036200012a83826200039d565b5060046200013982826200039d565b50505050505050620004c1565b5f60208351101562000165576200015d836200017e565b905062000178565b816200017284826200039d565b5060ff90505b92915050565b5f80829050601f81511115620001b4578260405163305a27a960e01b8152600401620001ab919062000469565b60405180910390fd5b8051620001c1826200049d565b179392505050565b634e487b7160e01b5f52604160045260245ffd5b5f5b83811015620001f9578181015183820152602001620001df565b50505f910152565b5f82601f83011262000211575f80fd5b81516001600160401b03808211156200022e576200022e620001c9565b604051601f8301601f19908116603f01168101908282118183101715620002595762000259620001c9565b8160405283815286602085880101111562000272575f80fd5b62000285846020830160208901620001dd565b9695505050505050565b5f805f60608486031215620002a2575f80fd5b83516001600160a01b0381168114620002b9575f80fd5b60208501519093506001600160401b0380821115620002d6575f80fd5b620002e48783880162000201565b93506040860151915080821115620002fa575f80fd5b50620003098682870162000201565b9150509250925092565b600181811c908216806200032857607f821691505b6020821081036200034757634e487b7160e01b5f52602260045260245ffd5b50919050565b601f8211156200039857805f5260205f20601f840160051c81016020851015620003745750805b601f840160051c820191505b8181101562000395575f815560010162000380565b50505b505050565b81516001600160401b03811115620003b957620003b9620001c9565b620003d181620003ca845462000313565b846200034d565b602080601f83116001811462000407575f8415620003ef5750858301515b5f19600386901b1c1916600185901b17855562000461565b5f85815260208120601f198616915b82811015620004375788860151825594840194600190910190840162000416565b50858210156200045557878501515f19600388901b60f8161c191681555b505060018460011b0185555b505050505050565b602081525f825180602084015262000489816040850160208701620001dd565b601f01601f19169190910160400192915050565b8051602080830151919081101562000347575f1960209190910360031b1b16919050565b60805160a05160c05160e051610100516101205161014051610160516119d26200055c5f395f8181610362015281816104b7015281816105cd01528181610693015281816107f20152818161086101528181610a9b01528181610c5001528181610d0f0152610dad01525f610f6401525f610f3801525f610ee101525f610eb901525f610e1401525f610e3e01525f610e6801526119d25ff3fe608060405234801561000f575f80fd5b50600436106101a5575f3560e01c8063679aefce116100e857806395d89b4111610093578063b677fa561161006e578063b677fa56146103ba578063ce20ece7146103c8578063d505accf146103d3578063dd62ed3e146103e6575f80fd5b806395d89b411461038c578063984de9e814610394578063a9059cbb146103a7575f80fd5b80637ecebe00116100c35780637ecebe001461032757806384b0196e1461033a5780638d928af814610355575f80fd5b8063679aefce146102f957806370a082311461030157806372c9818614610314575f80fd5b806323de665111610153578063313ce5671161012e578063313ce567146102c15780633644e515146102d05780635687f2b8146102d8578063654cf15d146102eb575f80fd5b806323de665114610277578063273c1adf1461028c57806330adf81f1461029a575f80fd5b806316a0b3e01161018357806316a0b3e01461023b57806318160ddd1461025c57806323b872dd14610264575f80fd5b806301ffc9a7146101a957806306fdde0314610213578063095ea7b314610228575b5f80fd5b6101fe6101b7366004611457565b7fffffffff00000000000000000000000000000000000000000000000000000000167f01ffc9a7000000000000000000000000000000000000000000000000000000001490565b60405190151581526020015b60405180910390f35b61021b6103f9565b60405161020a91906114d9565b6101fe610236366004611506565b610489565b61024e6102493660046115d2565b610530565b60405190815260200161020a565b61024e61059d565b6101fe61027236600461161c565b610644565b61028a61028536600461161c565b61070a565b005b6729a2241af62c000061024e565b61024e7f6e71edae12b1b97f4d1f60370fef10105fa2faae0126114a169c64845d6126c981565b6040516012815260200161020a565b61024e610764565b61028a6102e636600461161c565b61076d565b67016345785d8a000061024e565b61024e6107ba565b61024e61030f366004611655565b610821565b61024e61032236600461166e565b6108cc565b61024e610335366004611655565b610954565b610342610971565b60405161020a97969594939291906116a5565b6040516001600160a01b037f000000000000000000000000000000000000000000000000000000000000000016815260200161020a565b61021b6109cf565b61024e6103a2366004611758565b6109de565b6101fe6103b5366004611506565b610a54565b6709b6e64a8ec6000061024e565b64e8d4a5100061024e565b61028a6103e13660046117aa565b610acc565b61024e6103f4366004611817565b610cc7565b60606003805461040890611848565b80601f016020809104026020016040519081016040528092919081815260200182805461043490611848565b801561047f5780601f106104565761010080835404028352916020019161047f565b820191905f5260205f20905b81548152906001019060200180831161046257829003601f168201915b5050505050905090565b60405163e1f21c6760e01b81523360048201526001600160a01b038381166024830152604482018390525f917f00000000000000000000000000000000000000000000000000000000000000009091169063e1f21c67906064015b6020604051808303815f875af1158015610500573d5f803e3d5ffd5b505050506040513d601f19601f820116820180604052508101906105249190611880565b50600190505b92915050565b5f80610547836105418760016109de565b90610d7a565b90505f8415610556575f610559565b60015b60ff1690505f8682815181106105715761057161189f565b6020026020010151905080838461058891906118c7565b61059291906118f2565b979650505050505050565b6040517fe4dc2aa40000000000000000000000000000000000000000000000000000000081523060048201525f907f00000000000000000000000000000000000000000000000000000000000000006001600160a01b03169063e4dc2aa4906024015b602060405180830381865afa15801561061b573d5f803e3d5ffd5b505050506040513d601f19601f8201168201806040525081019061063f9190611911565b905090565b6040517f15dacbea0000000000000000000000000000000000000000000000000000000081523360048201526001600160a01b0384811660248301528381166044830152606482018390525f917f0000000000000000000000000000000000000000000000000000000000000000909116906315dacbea906084016020604051808303815f875af11580156106db573d5f803e3d5ffd5b505050506040513d601f19601f820116820180604052508101906106ff9190611880565b506001949350505050565b610712610da2565b816001600160a01b0316836001600160a01b03167fddf252ad1be2c89b69c2b068fc378daa952ba7f163c4a11628f55a4df523b3ef8360405161075791815260200190565b60405180910390a3505050565b5f61063f610e08565b610775610da2565b816001600160a01b0316836001600160a01b03167f8c5be1e5ebec7d5bd14f71427d1e84f3dd0314c0f7b2291e5b200ac8c7c3b9258360405161075791815260200190565b6040517f4f037ee70000000000000000000000000000000000000000000000000000000081523060048201525f906001600160a01b037f00000000000000000000000000000000000000000000000000000000000000001690634f037ee790602401610600565b6040517ff7888aec0000000000000000000000000000000000000000000000000000000081523060048201526001600160a01b0382811660248301525f917f00000000000000000000000000000000000000000000000000000000000000009091169063f7888aec90604401602060405180830381865afa1580156108a8573d5f803e3d5ffd5b505050506040513d601f19601f8201168201806040525081019061052a9190611911565b5f806108db6040840184611928565b84608001358181106108ef576108ef61189f565b9050602002013590505f8380604001906109099190611928565b856060013581811061091d5761091d61189f565b602090810292909201359250508401356109378183611975565b61094182856118c7565b61094b91906118f2565b95945050505050565b6001600160a01b0381165f9081526002602052604081205461052a565b5f6060805f805f6060610982610f31565b61098a610f5d565b604080515f808252602082019092527f0f000000000000000000000000000000000000000000000000000000000000009b939a50919850469750309650945092509050565b60606004805461040890611848565b5f670de0b6b3a76400009050610a3483600181518110610a0057610a0061189f565b6020026020010151610541855f81518110610a1d57610a1d61189f565b602002602001015184610d7a90919063ffffffff16565b9050610a3f81610f8a565b610a4d90633b9aca006118c7565b9392505050565b6040517fbeabacc80000000000000000000000000000000000000000000000000000000081523360048201526001600160a01b038381166024830152604482018390525f917f00000000000000000000000000000000000000000000000000000000000000009091169063beabacc8906064016104e4565b83421115610b0e576040517f62791302000000000000000000000000000000000000000000000000000000008152600481018590526024015b60405180910390fd5b5f7f6e71edae12b1b97f4d1f60370fef10105fa2faae0126114a169c64845d6126c9888888610b598c6001600160a01b03165f90815260026020526040902080546001810190915590565b6040805160208101969096526001600160a01b0394851690860152929091166060840152608083015260a082015260c0810186905260e0016040516020818303038152906040528051906020012090505f610bb3826110ef565b90505f610bc282878787611136565b9050896001600160a01b0316816001600160a01b031614610c22576040517f4b800e460000000000000000000000000000000000000000000000000000000081526001600160a01b0380831660048301528b166024820152604401610b05565b60405163e1f21c6760e01b81526001600160a01b038b811660048301528a81166024830152604482018a90527f0000000000000000000000000000000000000000000000000000000000000000169063e1f21c67906064016020604051808303815f875af1158015610c96573d5f803e3d5ffd5b505050506040513d601f19601f82011682018060405250810190610cba9190611880565b5050505050505050505050565b6040517f927da1050000000000000000000000000000000000000000000000000000000081523060048201526001600160a01b03838116602483015282811660448301525f917f00000000000000000000000000000000000000000000000000000000000000009091169063927da10590606401602060405180830381865afa158015610d56573d5f803e3d5ffd5b505050506040513d601f19601f82011682018060405250810190610a4d9190611911565b5f80610d8683856118c7565b9050610d9a670de0b6b3a7640000826118f2565b949350505050565b336001600160a01b037f00000000000000000000000000000000000000000000000000000000000000001614610e06576040517f089676d5000000000000000000000000000000000000000000000000000000008152336004820152602401610b05565b565b5f306001600160a01b037f000000000000000000000000000000000000000000000000000000000000000016148015610e6057507f000000000000000000000000000000000000000000000000000000000000000046145b15610e8a57507f000000000000000000000000000000000000000000000000000000000000000090565b61063f604080517f8b73c3c69bb8fe3d512ecc4cf759cc79239f7b179b0ffacaa9a75d522b39400f60208201527f0000000000000000000000000000000000000000000000000000000000000000918101919091527f000000000000000000000000000000000000000000000000000000000000000060608201524660808201523060a08201525f9060c00160405160208183030381529060405280519060200120905090565b606061063f7f00000000000000000000000000000000000000000000000000000000000000005f611162565b606061063f7f00000000000000000000000000000000000000000000000000000000000000006001611162565b5f60018211610f97575090565b8160017001000000000000000000000000000000008210610fbd5760809190911c9060401b5b680100000000000000008210610fd85760409190911c9060201b5b6401000000008210610fef5760209190911c9060101b5b6201000082106110045760109190911c9060081b5b61010082106110185760089190911c9060041b5b6010821061102b5760049190911c9060021b5b600482106110375760011b5b600302600190811c9081858161104f5761104f6118de565b048201901c90506001818581611067576110676118de565b048201901c9050600181858161107f5761107f6118de565b048201901c90506001818581611097576110976118de565b048201901c905060018185816110af576110af6118de565b048201901c905060018185816110c7576110c76118de565b048201901c90506110e68185816110e0576110e06118de565b04821190565b90039392505050565b5f61052a6110fb610e08565b836040517f19010000000000000000000000000000000000000000000000000000000000008152600281019290925260228201526042902090565b5f805f806111468888888861120b565b92509250925061115682826112d3565b50909695505050505050565b606060ff831461117c57611175836113da565b905061052a565b81805461118890611848565b80601f01602080910402602001604051908101604052809291908181526020018280546111b490611848565b80156111ff5780601f106111d6576101008083540402835291602001916111ff565b820191905f5260205f20905b8154815290600101906020018083116111e257829003601f168201915b5050505050905061052a565b5f80807f7fffffffffffffffffffffffffffffff5d576e7357a4501ddfe92f46681b20a084111561124457505f915060039050826112c9565b604080515f808252602082018084528a905260ff891692820192909252606081018790526080810186905260019060a0016020604051602081039080840390855afa158015611295573d5f803e3d5ffd5b5050604051601f1901519150506001600160a01b0381166112c057505f9250600191508290506112c9565b92505f91508190505b9450945094915050565b5f8260038111156112e6576112e6611988565b036112ef575050565b600182600381111561130357611303611988565b0361133a576040517ff645eedf00000000000000000000000000000000000000000000000000000000815260040160405180910390fd5b600282600381111561134e5761134e611988565b03611388576040517ffce698f700000000000000000000000000000000000000000000000000000000815260048101829052602401610b05565b600382600381111561139c5761139c611988565b036113d6576040517fd78bce0c00000000000000000000000000000000000000000000000000000000815260048101829052602401610b05565b5050565b60605f6113e683611417565b6040805160208082528183019092529192505f91906020820181803683375050509182525060208101929092525090565b5f60ff8216601f81111561052a576040517fb3512b0c00000000000000000000000000000000000000000000000000000000815260040160405180910390fd5b5f60208284031215611467575f80fd5b81357fffffffff0000000000000000000000000000000000000000000000000000000081168114610a4d575f80fd5b5f81518084525f5b818110156114ba5760208185018101518683018201520161149e565b505f602082860101526020601f19601f83011685010191505092915050565b602081525f610a4d6020830184611496565b80356001600160a01b0381168114611501575f80fd5b919050565b5f8060408385031215611517575f80fd5b611520836114eb565b946020939093013593505050565b634e487b7160e01b5f52604160045260245ffd5b5f82601f830112611551575f80fd5b8135602067ffffffffffffffff8083111561156e5761156e61152e565b8260051b604051601f19603f830116810181811084821117156115935761159361152e565b60405293845260208187018101949081019250878511156115b2575f80fd5b6020870191505b84821015610592578135835291830191908301906115b9565b5f805f606084860312156115e4575f80fd5b833567ffffffffffffffff8111156115fa575f80fd5b61160686828701611542565b9660208601359650604090950135949350505050565b5f805f6060848603121561162e575f80fd5b611637846114eb565b9250611645602085016114eb565b9150604084013590509250925092565b5f60208284031215611665575f80fd5b610a4d826114eb565b5f6020828403121561167e575f80fd5b813567ffffffffffffffff811115611694575f80fd5b820160e08185031215610a4d575f80fd5b7fff00000000000000000000000000000000000000000000000000000000000000881681525f602060e060208401526116e160e084018a611496565b83810360408501526116f3818a611496565b606085018990526001600160a01b038816608086015260a0850187905284810360c0860152855180825260208088019350909101905f5b818110156117465783518352928401929184019160010161172a565b50909c9b505050505050505050505050565b5f8060408385031215611769575f80fd5b823567ffffffffffffffff81111561177f575f80fd5b61178b85828601611542565b92505060208301356002811061179f575f80fd5b809150509250929050565b5f805f805f805f60e0888a0312156117c0575f80fd5b6117c9886114eb565b96506117d7602089016114eb565b95506040880135945060608801359350608088013560ff811681146117fa575f80fd5b9699959850939692959460a0840135945060c09093013592915050565b5f8060408385031215611828575f80fd5b611831836114eb565b915061183f602084016114eb565b90509250929050565b600181811c9082168061185c57607f821691505b60208210810361187a57634e487b7160e01b5f52602260045260245ffd5b50919050565b5f60208284031215611890575f80fd5b81518015158114610a4d575f80fd5b634e487b7160e01b5f52603260045260245ffd5b634e487b7160e01b5f52601160045260245ffd5b808202811582820484141761052a5761052a6118b3565b634e487b7160e01b5f52601260045260245ffd5b5f8261190c57634e487b7160e01b5f52601260045260245ffd5b500490565b5f60208284031215611921575f80fd5b5051919050565b5f808335601e1984360301811261193d575f80fd5b83018035915067ffffffffffffffff821115611957575f80fd5b6020019150600581901b360382131561196e575f80fd5b9250929050565b8082018082111561052a5761052a6118b3565b634e487b7160e01b5f52602160045260245ffdfea2646970667358221220c892f8830919d1f01380495f93f67f12519a216222971eac3562943aba4901b964736f6c63430008180033","linkReferences":{}},"methodIdentifiers":{"create(string,string,bytes32,(address,uint8,address,bool)[],uint256,bool,(address,address,address),address,(bool,bool,bool,bool))":"69b93224","disable()":"2f2770db","getActionId(bytes4)":"851c1bb3","getAuthorizer()":"aaabadc5","getDefaultLiquidityManagement()":"193ad50f","getDefaultPoolHooksContract()":"ec888061","getDeploymentAddress(bytes32)":"337d4010","getNewPoolPauseWindowEndTime()":"db035ebc","getOriginalPauseWindowEndTime()":"e9d56e19","getPauseWindowDuration()":"78da80cb","getVault()":"8d928af8","isDisabled()":"6c57f5a9","isPoolFromFactory(address)":"6634b753"},"id":0}