{"abi":[{"type":"constructor","inputs":[{"name":"vault","type":"address","internalType":"contract IVault"},{"name":"allowedFactory","type":"address","internalType":"address"},{"name":"veBAL","type":"address","internalType":"address"},{"name":"trustedRouter","type":"address","internalType":"address"}],"stateMutability":"nonpayable"},{"type":"function","name":"getHookFlags","inputs":[],"outputs":[{"name":"hookFlags","type":"tuple","internalType":"struct HookFlags","components":[{"name":"enableHookAdjustedAmounts","type":"bool","internalType":"bool"},{"name":"shouldCallBeforeInitialize","type":"bool","internalType":"bool"},{"name":"shouldCallAfterInitialize","type":"bool","internalType":"bool"},{"name":"shouldCallComputeDynamicSwapFee","type":"bool","internalType":"bool"},{"name":"shouldCallBeforeSwap","type":"bool","internalType":"bool"},{"name":"shouldCallAfterSwap","type":"bool","internalType":"bool"},{"name":"shouldCallBeforeAddLiquidity","type":"bool","internalType":"bool"},{"name":"shouldCallAfterAddLiquidity","type":"bool","internalType":"bool"},{"name":"shouldCallBeforeRemoveLiquidity","type":"bool","internalType":"bool"},{"name":"shouldCallAfterRemoveLiquidity","type":"bool","internalType":"bool"}]}],"stateMutability":"pure"},{"type":"function","name":"onAfterAddLiquidity","inputs":[{"name":"","type":"address","internalType":"address"},{"name":"","type":"address","internalType":"address"},{"name":"","type":"uint8","internalType":"enum AddLiquidityKind"},{"name":"","type":"uint256[]","internalType":"uint256[]"},{"name":"amountsInRaw","type":"uint256[]","internalType":"uint256[]"},{"name":"","type":"uint256","internalType":"uint256"},{"name":"","type":"uint256[]","internalType":"uint256[]"},{"name":"","type":"bytes","internalType":"bytes"}],"outputs":[{"name":"","type":"bool","internalType":"bool"},{"name":"","type":"uint256[]","internalType":"uint256[]"}],"stateMutability":"nonpayable"},{"type":"function","name":"onAfterInitialize","inputs":[{"name":"","type":"uint256[]","internalType":"uint256[]"},{"name":"","type":"uint256","internalType":"uint256"},{"name":"","type":"bytes","internalType":"bytes"}],"outputs":[{"name":"","type":"bool","internalType":"bool"}],"stateMutability":"nonpayable"},{"type":"function","name":"onAfterRemoveLiquidity","inputs":[{"name":"","type":"address","internalType":"address"},{"name":"","type":"address","internalType":"address"},{"name":"","type":"uint8","internalType":"enum RemoveLiquidityKind"},{"name":"","type":"uint256","internalType":"uint256"},{"name":"","type":"uint256[]","internalType":"uint256[]"},{"name":"amountsOutRaw","type":"uint256[]","internalType":"uint256[]"},{"name":"","type":"uint256[]","internalType":"uint256[]"},{"name":"","type":"bytes","internalType":"bytes"}],"outputs":[{"name":"","type":"bool","internalType":"bool"},{"name":"","type":"uint256[]","internalType":"uint256[]"}],"stateMutability":"nonpayable"},{"type":"function","name":"onAfterSwap","inputs":[{"name":"","type":"tuple","internalType":"struct AfterSwapParams","components":[{"name":"kind","type":"uint8","internalType":"enum SwapKind"},{"name":"tokenIn","type":"address","internalType":"contract IERC20"},{"name":"tokenOut","type":"address","internalType":"contract IERC20"},{"name":"amountInScaled18","type":"uint256","internalType":"uint256"},{"name":"amountOutScaled18","type":"uint256","internalType":"uint256"},{"name":"tokenInBalanceScaled18","type":"uint256","internalType":"uint256"},{"name":"tokenOutBalanceScaled18","type":"uint256","internalType":"uint256"},{"name":"amountCalculatedScaled18","type":"uint256","internalType":"uint256"},{"name":"amountCalculatedRaw","type":"uint256","internalType":"uint256"},{"name":"router","type":"address","internalType":"address"},{"name":"pool","type":"address","internalType":"address"},{"name":"userData","type":"bytes","internalType":"bytes"}]}],"outputs":[{"name":"","type":"bool","internalType":"bool"},{"name":"","type":"uint256","internalType":"uint256"}],"stateMutability":"nonpayable"},{"type":"function","name":"onBeforeAddLiquidity","inputs":[{"name":"","type":"address","internalType":"address"},{"name":"","type":"address","internalType":"address"},{"name":"","type":"uint8","internalType":"enum AddLiquidityKind"},{"name":"","type":"uint256[]","internalType":"uint256[]"},{"name":"","type":"uint256","internalType":"uint256"},{"name":"","type":"uint256[]","internalType":"uint256[]"},{"name":"","type":"bytes","internalType":"bytes"}],"outputs":[{"name":"","type":"bool","internalType":"bool"}],"stateMutability":"nonpayable"},{"type":"function","name":"onBeforeInitialize","inputs":[{"name":"","type":"uint256[]","internalType":"uint256[]"},{"name":"","type":"bytes","internalType":"bytes"}],"outputs":[{"name":"","type":"bool","internalType":"bool"}],"stateMutability":"nonpayable"},{"type":"function","name":"onBeforeRemoveLiquidity","inputs":[{"name":"","type":"address","internalType":"address"},{"name":"","type":"address","internalType":"address"},{"name":"","type":"uint8","internalType":"enum RemoveLiquidityKind"},{"name":"","type":"uint256","internalType":"uint256"},{"name":"","type":"uint256[]","internalType":"uint256[]"},{"name":"","type":"uint256[]","internalType":"uint256[]"},{"name":"","type":"bytes","internalType":"bytes"}],"outputs":[{"name":"","type":"bool","internalType":"bool"}],"stateMutability":"nonpayable"},{"type":"function","name":"onBeforeSwap","inputs":[{"name":"","type":"tuple","internalType":"struct PoolSwapParams","components":[{"name":"kind","type":"uint8","internalType":"enum SwapKind"},{"name":"amountGivenScaled18","type":"uint256","internalType":"uint256"},{"name":"balancesScaled18","type":"uint256[]","internalType":"uint256[]"},{"name":"indexIn","type":"uint256","internalType":"uint256"},{"name":"indexOut","type":"uint256","internalType":"uint256"},{"name":"router","type":"address","internalType":"address"},{"name":"userData","type":"bytes","internalType":"bytes"}]},{"name":"","type":"address","internalType":"address"}],"outputs":[{"name":"","type":"bool","internalType":"bool"}],"stateMutability":"nonpayable"},{"type":"function","name":"onComputeDynamicSwapFeePercentage","inputs":[{"name":"params","type":"tuple","internalType":"struct PoolSwapParams","components":[{"name":"kind","type":"uint8","internalType":"enum SwapKind"},{"name":"amountGivenScaled18","type":"uint256","internalType":"uint256"},{"name":"balancesScaled18","type":"uint256[]","internalType":"uint256[]"},{"name":"indexIn","type":"uint256","internalType":"uint256"},{"name":"indexOut","type":"uint256","internalType":"uint256"},{"name":"router","type":"address","internalType":"address"},{"name":"userData","type":"bytes","internalType":"bytes"}]},{"name":"","type":"address","internalType":"address"},{"name":"staticSwapFeePercentage","type":"uint256","internalType":"uint256"}],"outputs":[{"name":"","type":"bool","internalType":"bool"},{"name":"","type":"uint256","internalType":"uint256"}],"stateMutability":"view"},{"type":"function","name":"onRegister","inputs":[{"name":"factory","type":"address","internalType":"address"},{"name":"pool","type":"address","internalType":"address"},{"name":"","type":"tuple[]","internalType":"struct TokenConfig[]","components":[{"name":"token","type":"address","internalType":"contract IERC20"},{"name":"tokenType","type":"uint8","internalType":"enum TokenType"},{"name":"rateProvider","type":"address","internalType":"contract IRateProvider"},{"name":"paysYieldFees","type":"bool","internalType":"bool"}]},{"name":"","type":"tuple","internalType":"struct LiquidityManagement","components":[{"name":"disableUnbalancedLiquidity","type":"bool","internalType":"bool"},{"name":"enableAddLiquidityCustom","type":"bool","internalType":"bool"},{"name":"enableRemoveLiquidityCustom","type":"bool","internalType":"bool"},{"name":"enableDonation","type":"bool","internalType":"bool"}]}],"outputs":[{"name":"","type":"bool","internalType":"bool"}],"stateMutability":"nonpayable"},{"type":"event","name":"VeBALFeeDiscountHookExampleRegistered","inputs":[{"name":"hooksContract","type":"address","indexed":true,"internalType":"address"},{"name":"factory","type":"address","indexed":true,"internalType":"address"},{"name":"pool","type":"address","indexed":true,"internalType":"address"}],"anonymous":false},{"type":"error","name":"SenderIsNotVault","inputs":[{"name":"sender","type":"address","internalType":"address"}]}],"bytecode":{"object":"0x610100604052348015610010575f80fd5b50604051610f75380380610f7583398101604081905261002f91610069565b6001600160a01b0393841660805291831660a05290821660c0521660e0526100c5565b6001600160a01b0381168114610066575f80fd5b50565b5f805f806080858703121561007c575f80fd5b845161008781610052565b602086015190945061009881610052565b60408601519093506100a981610052565b60608601519092506100ba81610052565b939692955090935050565b60805160a05160c05160e051610e7d6100f85f395f61044401525f61034e01525f61027601525f6104e60152610e7d5ff3fe608060405234801561000f575f80fd5b50600436106100c4575f3560e01c806345421ec71161007d578063a0e8f5ac11610058578063a0e8f5ac146101b7578063ba5f9f40146101ca578063d77153a7146101d8575f80fd5b806345421ec7146101725780635211fa771461018c578063976907cc1461019a575f80fd5b80631c149e28116100ad5780631c149e281461011c5780632754888d1461013157806338be241d1461015c575f80fd5b80630b89f182146100c857806318b6eb55146100f0575b5f80fd5b6100db6100d6366004610620565b610231565b60405190151581526020015b60405180910390f35b6101056100fe366004610748565b505f908190565b6040805192151583526020830191909152016100e7565b6100db61012a36600461085a565b5f92915050565b61014e61013f3660046108c8565b5f839850989650505050505050565b6040516100e79291906109a8565b6100db61016a3660046109f8565b5f9392505050565b6100db610180366004610a6e565b5f979650505050505050565b6100db61012a366004610b3e565b61014e6101a8366004610b8d565b5f849850989650505050505050565b6101056101c5366004610c2f565b61033a565b6100db610180366004610c85565b60408051610140810182525f808252602082018190528183018190526080820181905260a0820181905260c0820181905260e0820181905261010082018190526101208201526001606082015290516100e79190610d08565b5f61023a6104db565b6040516001600160a01b03808616919087169030907fa8ab37b72b2944e381076dcbdf6f9b0d340c59a4f1492552e7361ef53dc873dc905f90a47f00000000000000000000000000000000000000000000000000000000000000006001600160a01b0316856001600160a01b031614801561033157506040517f6634b7530000000000000000000000000000000000000000000000000000000081526001600160a01b038581166004830152861690636634b75390602401602060405180830381865afa15801561030d573d5f803e3d5ffd5b505050506040513d601f19601f820116820180604052508101906103319190610dc0565b95945050505050565b5f806103446104db565b6001600160a01b037f00000000000000000000000000000000000000000000000000000000000000001661037e60c0870160a08801610ddb565b6001600160a01b031614610397575060019050816104d3565b5f6103a860c0870160a08801610ddb565b6001600160a01b0316635e01eb5a6040518163ffffffff1660e01b8152600401602060405180830381865afa1580156103e3573d5f803e3d5ffd5b505050506040513d601f19601f820116820180604052508101906104079190610df6565b6040517f70a082310000000000000000000000000000000000000000000000000000000081526001600160a01b0380831660048301529192505f917f000000000000000000000000000000000000000000000000000000000000000016906370a0823190602401602060405180830381865afa158015610489573d5f803e3d5ffd5b505050506040513d601f19601f820116820180604052508101906104ad9190610e11565b11156104ca5760016104c0600286610e28565b92509250506104d3565b60018492509250505b935093915050565b336001600160a01b037f00000000000000000000000000000000000000000000000000000000000000001614610543576040517f089676d500000000000000000000000000000000000000000000000000000000815233600482015260240160405180910390fd5b565b6001600160a01b0381168114610559575f80fd5b50565b803561056781610545565b919050565b634e487b7160e01b5f52604160045260245ffd5b6040516080810167ffffffffffffffff811182821017156105a3576105a361056c565b60405290565b604051601f8201601f1916810167ffffffffffffffff811182821017156105d2576105d261056c565b604052919050565b5f67ffffffffffffffff8211156105f3576105f361056c565b5060051b60200190565b8015158114610559575f80fd5b5f6080828403121561061a575f80fd5b50919050565b5f805f8060e08587031215610633575f80fd5b843561063e81610545565b935060208581013561064f81610545565b935060408681013567ffffffffffffffff81111561066b575f80fd5b8701601f8101891361067b575f80fd5b803561068e610689826105da565b6105a9565b81815260079190911b8201840190848101908b8311156106ac575f80fd5b928501925b82841015610727576080848d0312156106c8575f80fd5b6106d0610580565b84356106db81610545565b815284870135600281106106ed575f80fd5b81880152848601356106fe81610545565b81870152606085810135610711816105fd565b90820152825260809390930192908501906106b1565b80975050505050505061073d866060870161060a565b905092959194509250565b5f60208284031215610758575f80fd5b813567ffffffffffffffff81111561076e575f80fd5b82016101808185031215610780575f80fd5b9392505050565b5f82601f830112610796575f80fd5b813560206107a6610689836105da565b8083825260208201915060208460051b8701019350868411156107c7575f80fd5b602086015b848110156107e357803583529183019183016107cc565b509695505050505050565b5f82601f8301126107fd575f80fd5b813567ffffffffffffffff8111156108175761081761056c565b61082a601f8201601f19166020016105a9565b81815284602083860101111561083e575f80fd5b816020850160208301375f918101602001919091529392505050565b5f806040838503121561086b575f80fd5b823567ffffffffffffffff80821115610882575f80fd5b61088e86838701610787565b935060208501359150808211156108a3575f80fd5b506108b0858286016107ee565b9150509250929050565b803560048110610567575f80fd5b5f805f805f805f80610100898b0312156108e0575f80fd5b6108e98961055c565b97506108f760208a0161055c565b965061090560408a016108ba565b955060608901359450608089013567ffffffffffffffff80821115610928575f80fd5b6109348c838d01610787565b955060a08b0135915080821115610949575f80fd5b6109558c838d01610787565b945060c08b013591508082111561096a575f80fd5b6109768c838d01610787565b935060e08b013591508082111561098b575f80fd5b506109988b828c016107ee565b9150509295985092959890939650565b5f6040820184151583526020604060208501528185518084526060860191506020870193505f5b818110156109eb578451835293830193918301916001016109cf565b5090979650505050505050565b5f805f60608486031215610a0a575f80fd5b833567ffffffffffffffff80821115610a21575f80fd5b610a2d87838801610787565b9450602086013593506040860135915080821115610a49575f80fd5b50610a56868287016107ee565b9150509250925092565b803560058110610567575f80fd5b5f805f805f805f60e0888a031215610a84575f80fd5b8735610a8f81610545565b96506020880135610a9f81610545565b9550610aad60408901610a60565b9450606088013567ffffffffffffffff80821115610ac9575f80fd5b610ad58b838c01610787565b955060808a0135945060a08a0135915080821115610af1575f80fd5b610afd8b838c01610787565b935060c08a0135915080821115610b12575f80fd5b50610b1f8a828b016107ee565b91505092959891949750929550565b5f60e0828403121561061a575f80fd5b5f8060408385031215610b4f575f80fd5b823567ffffffffffffffff811115610b65575f80fd5b610b7185828601610b2e565b9250506020830135610b8281610545565b809150509250929050565b5f805f805f805f80610100898b031215610ba5575f80fd5b610bae8961055c565b9750610bbc60208a0161055c565b9650610bca60408a01610a60565b9550606089013567ffffffffffffffff80821115610be6575f80fd5b610bf28c838d01610787565b965060808b0135915080821115610c07575f80fd5b610c138c838d01610787565b955060a08b0135945060c08b013591508082111561096a575f80fd5b5f805f60608486031215610c41575f80fd5b833567ffffffffffffffff811115610c57575f80fd5b610c6386828701610b2e565b9350506020840135610c7481610545565b929592945050506040919091013590565b5f805f805f805f60e0888a031215610c9b575f80fd5b8735610ca681610545565b96506020880135610cb681610545565b9550610cc4604089016108ba565b945060608801359350608088013567ffffffffffffffff80821115610ce7575f80fd5b610cf38b838c01610787565b945060a08a0135915080821115610af1575f80fd5b81511515815261014081016020830151610d26602084018215159052565b506040830151610d3a604084018215159052565b506060830151610d4e606084018215159052565b506080830151610d62608084018215159052565b5060a0830151610d7660a084018215159052565b5060c0830151610d8a60c084018215159052565b5060e0830151610d9e60e084018215159052565b5061010083810151151590830152610120928301511515929091019190915290565b5f60208284031215610dd0575f80fd5b8151610780816105fd565b5f60208284031215610deb575f80fd5b813561078081610545565b5f60208284031215610e06575f80fd5b815161078081610545565b5f60208284031215610e21575f80fd5b5051919050565b5f82610e4257634e487b7160e01b5f52601260045260245ffd5b50049056fea26469706673582212208f97ba0bb5e9b574a9edbf70ba618196cf5d0ead0dd8044c4abf750caf2ec03864736f6c63430008180033","linkReferences":{}},"methodIdentifiers":{"getHookFlags()":"d77153a7","onAfterAddLiquidity(address,address,uint8,uint256[],uint256[],uint256,uint256[],bytes)":"976907cc","onAfterInitialize(uint256[],uint256,bytes)":"38be241d","onAfterRemoveLiquidity(address,address,uint8,uint256,uint256[],uint256[],uint256[],bytes)":"2754888d","onAfterSwap((uint8,address,address,uint256,uint256,uint256,uint256,uint256,uint256,address,address,bytes))":"18b6eb55","onBeforeAddLiquidity(address,address,uint8,uint256[],uint256,uint256[],bytes)":"45421ec7","onBeforeInitialize(uint256[],bytes)":"1c149e28","onBeforeRemoveLiquidity(address,address,uint8,uint256,uint256[],uint256[],bytes)":"ba5f9f40","onBeforeSwap((uint8,uint256,uint256[],uint256,uint256,address,bytes),address)":"5211fa77","onComputeDynamicSwapFeePercentage((uint8,uint256,uint256[],uint256,uint256,address,bytes),address,uint256)":"a0e8f5ac","onRegister(address,address,(address,uint8,address,bool)[],(bool,bool,bool,bool))":"0b89f182"},"id":9}