{"abi":[{"type":"constructor","inputs":[{"name":"vault","type":"address","internalType":"contract IVault"},{"name":"weth","type":"address","internalType":"contract IWETH"},{"name":"permit2","type":"address","internalType":"contract IPermit2"}],"stateMutability":"nonpayable"},{"type":"receive","stateMutability":"payable"},{"type":"function","name":"addLiquidityERC4626PoolProportionalHook","inputs":[{"name":"params","type":"tuple","internalType":"struct IRouterCommon.AddLiquidityHookParams","components":[{"name":"sender","type":"address","internalType":"address"},{"name":"pool","type":"address","internalType":"address"},{"name":"maxAmountsIn","type":"uint256[]","internalType":"uint256[]"},{"name":"minBptAmountOut","type":"uint256","internalType":"uint256"},{"name":"kind","type":"uint8","internalType":"enum AddLiquidityKind"},{"name":"wethIsEth","type":"bool","internalType":"bool"},{"name":"userData","type":"bytes","internalType":"bytes"}]}],"outputs":[{"name":"underlyingAmountsIn","type":"uint256[]","internalType":"uint256[]"}],"stateMutability":"nonpayable"},{"type":"function","name":"addLiquidityERC4626PoolUnbalancedHook","inputs":[{"name":"params","type":"tuple","internalType":"struct IRouterCommon.AddLiquidityHookParams","components":[{"name":"sender","type":"address","internalType":"address"},{"name":"pool","type":"address","internalType":"address"},{"name":"maxAmountsIn","type":"uint256[]","internalType":"uint256[]"},{"name":"minBptAmountOut","type":"uint256","internalType":"uint256"},{"name":"kind","type":"uint8","internalType":"enum AddLiquidityKind"},{"name":"wethIsEth","type":"bool","internalType":"bool"},{"name":"userData","type":"bytes","internalType":"bytes"}]}],"outputs":[{"name":"bptAmountOut","type":"uint256","internalType":"uint256"}],"stateMutability":"nonpayable"},{"type":"function","name":"addLiquidityProportionalToERC4626Pool","inputs":[{"name":"pool","type":"address","internalType":"address"},{"name":"maxUnderlyingAmountsIn","type":"uint256[]","internalType":"uint256[]"},{"name":"exactBptAmountOut","type":"uint256","internalType":"uint256"},{"name":"wethIsEth","type":"bool","internalType":"bool"},{"name":"userData","type":"bytes","internalType":"bytes"}],"outputs":[{"name":"underlyingAmountsIn","type":"uint256[]","internalType":"uint256[]"}],"stateMutability":"payable"},{"type":"function","name":"addLiquidityUnbalancedNestedPool","inputs":[{"name":"parentPool","type":"address","internalType":"address"},{"name":"tokensIn","type":"address[]","internalType":"address[]"},{"name":"exactAmountsIn","type":"uint256[]","internalType":"uint256[]"},{"name":"minBptAmountOut","type":"uint256","internalType":"uint256"},{"name":"userData","type":"bytes","internalType":"bytes"}],"outputs":[{"name":"","type":"uint256","internalType":"uint256"}],"stateMutability":"nonpayable"},{"type":"function","name":"addLiquidityUnbalancedNestedPoolHook","inputs":[{"name":"params","type":"tuple","internalType":"struct IRouterCommon.AddLiquidityHookParams","components":[{"name":"sender","type":"address","internalType":"address"},{"name":"pool","type":"address","internalType":"address"},{"name":"maxAmountsIn","type":"uint256[]","internalType":"uint256[]"},{"name":"minBptAmountOut","type":"uint256","internalType":"uint256"},{"name":"kind","type":"uint8","internalType":"enum AddLiquidityKind"},{"name":"wethIsEth","type":"bool","internalType":"bool"},{"name":"userData","type":"bytes","internalType":"bytes"}]},{"name":"tokensIn","type":"address[]","internalType":"address[]"}],"outputs":[{"name":"exactBptAmountOut","type":"uint256","internalType":"uint256"}],"stateMutability":"nonpayable"},{"type":"function","name":"addLiquidityUnbalancedToERC4626Pool","inputs":[{"name":"pool","type":"address","internalType":"address"},{"name":"exactUnderlyingAmountsIn","type":"uint256[]","internalType":"uint256[]"},{"name":"minBptAmountOut","type":"uint256","internalType":"uint256"},{"name":"wethIsEth","type":"bool","internalType":"bool"},{"name":"userData","type":"bytes","internalType":"bytes"}],"outputs":[{"name":"bptAmountOut","type":"uint256","internalType":"uint256"}],"stateMutability":"payable"},{"type":"function","name":"getSender","inputs":[],"outputs":[{"name":"","type":"address","internalType":"address"}],"stateMutability":"view"},{"type":"function","name":"manualGetCurrentSwapTokenInAmounts","inputs":[],"outputs":[{"name":"","type":"bytes32","internalType":"AddressToUintMappingSlot"}],"stateMutability":"view"},{"type":"function","name":"manualGetCurrentSwapTokenOutAmounts","inputs":[],"outputs":[{"name":"","type":"bytes32","internalType":"AddressToUintMappingSlot"}],"stateMutability":"view"},{"type":"function","name":"manualGetCurrentSwapTokensInSlot","inputs":[],"outputs":[{"name":"","type":"bytes32","internalType":"bytes32"}],"stateMutability":"view"},{"type":"function","name":"manualGetCurrentSwapTokensOutSlot","inputs":[],"outputs":[{"name":"","type":"bytes32","internalType":"bytes32"}],"stateMutability":"view"},{"type":"function","name":"manualGetSettledTokenAmounts","inputs":[],"outputs":[{"name":"","type":"bytes32","internalType":"AddressToUintMappingSlot"}],"stateMutability":"view"},{"type":"function","name":"multicall","inputs":[{"name":"data","type":"bytes[]","internalType":"bytes[]"}],"outputs":[{"name":"results","type":"bytes[]","internalType":"bytes[]"}],"stateMutability":"payable"},{"type":"function","name":"permitBatchAndCall","inputs":[{"name":"permitBatch","type":"tuple[]","internalType":"struct IRouterCommon.PermitApproval[]","components":[{"name":"token","type":"address","internalType":"address"},{"name":"owner","type":"address","internalType":"address"},{"name":"spender","type":"address","internalType":"address"},{"name":"amount","type":"uint256","internalType":"uint256"},{"name":"nonce","type":"uint256","internalType":"uint256"},{"name":"deadline","type":"uint256","internalType":"uint256"}]},{"name":"permitSignatures","type":"bytes[]","internalType":"bytes[]"},{"name":"permit2Batch","type":"tuple","internalType":"struct IAllowanceTransfer.PermitBatch","components":[{"name":"details","type":"tuple[]","internalType":"struct IAllowanceTransfer.PermitDetails[]","components":[{"name":"token","type":"address","internalType":"address"},{"name":"amount","type":"uint160","internalType":"uint160"},{"name":"expiration","type":"uint48","internalType":"uint48"},{"name":"nonce","type":"uint48","internalType":"uint48"}]},{"name":"spender","type":"address","internalType":"address"},{"name":"sigDeadline","type":"uint256","internalType":"uint256"}]},{"name":"permit2Signature","type":"bytes","internalType":"bytes"},{"name":"multicallData","type":"bytes[]","internalType":"bytes[]"}],"outputs":[{"name":"results","type":"bytes[]","internalType":"bytes[]"}],"stateMutability":"payable"},{"type":"function","name":"queryAddLiquidityProportionalToERC4626Pool","inputs":[{"name":"pool","type":"address","internalType":"address"},{"name":"exactBptAmountOut","type":"uint256","internalType":"uint256"},{"name":"userData","type":"bytes","internalType":"bytes"}],"outputs":[{"name":"underlyingAmountsIn","type":"uint256[]","internalType":"uint256[]"}],"stateMutability":"nonpayable"},{"type":"function","name":"queryAddLiquidityUnbalancedNestedPool","inputs":[{"name":"parentPool","type":"address","internalType":"address"},{"name":"tokensIn","type":"address[]","internalType":"address[]"},{"name":"exactAmountsIn","type":"uint256[]","internalType":"uint256[]"},{"name":"userData","type":"bytes","internalType":"bytes"}],"outputs":[{"name":"","type":"uint256","internalType":"uint256"}],"stateMutability":"nonpayable"},{"type":"function","name":"queryAddLiquidityUnbalancedToERC4626Pool","inputs":[{"name":"pool","type":"address","internalType":"address"},{"name":"exactUnderlyingAmountsIn","type":"uint256[]","internalType":"uint256[]"},{"name":"userData","type":"bytes","internalType":"bytes"}],"outputs":[{"name":"bptAmountOut","type":"uint256","internalType":"uint256"}],"stateMutability":"nonpayable"},{"type":"function","name":"queryRemoveLiquidityProportionalFromERC4626Pool","inputs":[{"name":"pool","type":"address","internalType":"address"},{"name":"exactBptAmountIn","type":"uint256","internalType":"uint256"},{"name":"userData","type":"bytes","internalType":"bytes"}],"outputs":[{"name":"underlyingAmountsOut","type":"uint256[]","internalType":"uint256[]"}],"stateMutability":"nonpayable"},{"type":"function","name":"queryRemoveLiquidityProportionalNestedPool","inputs":[{"name":"parentPool","type":"address","internalType":"address"},{"name":"exactBptAmountIn","type":"uint256","internalType":"uint256"},{"name":"tokensOut","type":"address[]","internalType":"address[]"},{"name":"userData","type":"bytes","internalType":"bytes"}],"outputs":[{"name":"amountsOut","type":"uint256[]","internalType":"uint256[]"}],"stateMutability":"nonpayable"},{"type":"function","name":"removeLiquidityERC4626PoolProportionalHook","inputs":[{"name":"params","type":"tuple","internalType":"struct IRouterCommon.RemoveLiquidityHookParams","components":[{"name":"sender","type":"address","internalType":"address"},{"name":"pool","type":"address","internalType":"address"},{"name":"minAmountsOut","type":"uint256[]","internalType":"uint256[]"},{"name":"maxBptAmountIn","type":"uint256","internalType":"uint256"},{"name":"kind","type":"uint8","internalType":"enum RemoveLiquidityKind"},{"name":"wethIsEth","type":"bool","internalType":"bool"},{"name":"userData","type":"bytes","internalType":"bytes"}]}],"outputs":[{"name":"underlyingAmountsOut","type":"uint256[]","internalType":"uint256[]"}],"stateMutability":"nonpayable"},{"type":"function","name":"removeLiquidityProportionalFromERC4626Pool","inputs":[{"name":"pool","type":"address","internalType":"address"},{"name":"exactBptAmountIn","type":"uint256","internalType":"uint256"},{"name":"minUnderlyingAmountsOut","type":"uint256[]","internalType":"uint256[]"},{"name":"wethIsEth","type":"bool","internalType":"bool"},{"name":"userData","type":"bytes","internalType":"bytes"}],"outputs":[{"name":"underlyingAmountsOut","type":"uint256[]","internalType":"uint256[]"}],"stateMutability":"payable"},{"type":"function","name":"removeLiquidityProportionalNestedPool","inputs":[{"name":"parentPool","type":"address","internalType":"address"},{"name":"exactBptAmountIn","type":"uint256","internalType":"uint256"},{"name":"tokensOut","type":"address[]","internalType":"address[]"},{"name":"minAmountsOut","type":"uint256[]","internalType":"uint256[]"},{"name":"userData","type":"bytes","internalType":"bytes"}],"outputs":[{"name":"amountsOut","type":"uint256[]","internalType":"uint256[]"}],"stateMutability":"nonpayable"},{"type":"function","name":"removeLiquidityProportionalNestedPoolHook","inputs":[{"name":"params","type":"tuple","internalType":"struct IRouterCommon.RemoveLiquidityHookParams","components":[{"name":"sender","type":"address","internalType":"address"},{"name":"pool","type":"address","internalType":"address"},{"name":"minAmountsOut","type":"uint256[]","internalType":"uint256[]"},{"name":"maxBptAmountIn","type":"uint256","internalType":"uint256"},{"name":"kind","type":"uint8","internalType":"enum RemoveLiquidityKind"},{"name":"wethIsEth","type":"bool","internalType":"bool"},{"name":"userData","type":"bytes","internalType":"bytes"}]},{"name":"tokensOut","type":"address[]","internalType":"address[]"}],"outputs":[{"name":"amountsOut","type":"uint256[]","internalType":"uint256[]"}],"stateMutability":"nonpayable"},{"type":"error","name":"AddressEmptyCode","inputs":[{"name":"target","type":"address","internalType":"address"}]},{"type":"error","name":"AmountOutBelowMin","inputs":[{"name":"tokenOut","type":"address","internalType":"contract IERC20"},{"name":"amountOut","type":"uint256","internalType":"uint256"},{"name":"minAmountOut","type":"uint256","internalType":"uint256"}]},{"type":"error","name":"ElementNotFound","inputs":[]},{"type":"error","name":"EthTransfer","inputs":[]},{"type":"error","name":"FailedCall","inputs":[]},{"type":"error","name":"InputLengthMismatch","inputs":[]},{"type":"error","name":"InsufficientBalance","inputs":[{"name":"balance","type":"uint256","internalType":"uint256"},{"name":"needed","type":"uint256","internalType":"uint256"}]},{"type":"error","name":"InsufficientEth","inputs":[]},{"type":"error","name":"ReentrancyGuardReentrantCall","inputs":[]},{"type":"error","name":"SafeCastOverflowedUintDowncast","inputs":[{"name":"bits","type":"uint8","internalType":"uint8"},{"name":"value","type":"uint256","internalType":"uint256"}]},{"type":"error","name":"SafeERC20FailedOperation","inputs":[{"name":"token","type":"address","internalType":"address"}]},{"type":"error","name":"SenderIsNotVault","inputs":[{"name":"sender","type":"address","internalType":"address"}]},{"type":"error","name":"SwapDeadline","inputs":[]},{"type":"error","name":"TransientIndexOutOfBounds","inputs":[]},{"type":"error","name":"WrongTokensOut","inputs":[{"name":"expectedTokensOut","type":"address[]","internalType":"address[]"},{"name":"tokensOut","type":"address[]","internalType":"address[]"}]}],"bytecode":{"object":"0x600c6101c09081526b2937baba32b921b7b6b6b7b760a11b6101e05261024060405260066102009081526539b2b73232b960d11b610220526200004391906200023c565b60a052604080518082018252600c81526b2937baba32b921b7b6b6b7b760a11b602080830191909152825180840190935260118352701a5cd4995d1d5c9b915d1a131bd8dad959607a1b908301526200009c916200023c565b60c05260408051808201909152601381527f63757272656e7453776170546f6b656e73496e000000000000000000000000006020820152620000de90620002b0565b6101205260408051808201909152601481527f63757272656e7453776170546f6b656e734f757400000000000000000000000060208201526200012190620002b0565b6101405260408051808201909152601981527f63757272656e7453776170546f6b656e496e416d6f756e74730000000000000060208201526200016490620002b0565b6101605260408051808201909152601a81527f63757272656e7453776170546f6b656e4f7574416d6f756e74730000000000006020820152620001a790620002b0565b6101805260408051808201909152601381527f736574746c6564546f6b656e416d6f756e7473000000000000000000000000006020820152620001ea90620002b0565b6101a052348015620001fa575f80fd5b50604051620069d5380380620069d58339810160408190526200021d9162000304565b6001600160a01b0392831660805290821660e0521661010052620003f6565b5f60ff5f1b19600184846040516020016200025992919062000384565b604051602081830303815290604052805190602001205f1c6200027d9190620003d6565b6040516020016200029091815260200190565b604051602081830303815290604052805190602001201690505b92915050565b5f620002aa604051806040016040526011815280602001702130ba31b42937baba32b921b7b6b6b7b760791b815250836200023c60201b60201c565b6001600160a01b038116811462000301575f80fd5b50565b5f805f6060848603121562000317575f80fd5b83516200032481620002ec565b60208501519093506200033781620002ec565b60408501519092506200034a81620002ec565b809150509250925092565b5f81515f5b818110156200037657602081850181015186830152016200035a565b505f93019283525090919050565b7f62616c616e6365722d6c6162732e76332e73746f726167652e0000000000000081525f620003b7601983018562000355565b601760f91b8152620003cd600182018562000355565b95945050505050565b81810381811115620002aa57634e487b7160e01b5f52601160045260245ffd5b60805160a05160c05160e05161010051610120516101405161016051610180516101a0516162eb620006ea5f395f61042701525f81816101f601528181612df6015281816131840152818161412f0152818161416001526145fe01525f818161027701528181611007015281816113a7015281816114f701528181613c1201528181613c7401528181613cbc01528181613d7001528181613e7f01528181613eaa0152818161404c015261407d01525f8181611b5f01528181612dae01528181612ede01528181612f2a01528181612f580152818161305c015281816130a8015281816130fc01528181613fd6015281816140fe0152818161418a01526145d201525f81816116d401528181611b3701528181613faa0152818161401901526140a701525f818161069f0152614a7e01525f818161018b0152818161429e0152818161438701528181614886015281816148fb0152818161497501526149d701525f8181611cd901528181611de5015261424c01525f818161032401528181611e0e015281816133c2015281816133f6015261346a01525f818161073a0152818161089f015281816109cd01528181610b9401528181610d1901528181610e06015281816110440152818161110d015281816111cb0152818161124901528181611292015281816113ef01528181611481015281816115470152818161177f015281816118b101528181611a4a01528181611b9101528181611e7d01528181611f690152818161203c0152818161214901528181612233015281816124210152818161253f015281816126cc015281816127890152818161294b015281816129ea01528181612ab801528181612b2901528181612ce301528181612e4f015281816132ec015281816135220152818161365a0152818161381c0152818161397b01528181613b6d01528181613da801528181613ef4015281816143030152818161442f0152818161449a015281816147870152818161499901528181614a0601528181614aae0152614b6501526162eb5ff3fe60806040526004361061017b575f3560e01c80638c4ec19e116100d1578063cd791ccc1161007c578063e9c9083811610057578063e9c9083814610489578063f4f1cdee146104a8578063ff0353c8146104c7575f80fd5b8063cd791ccc14610419578063dd55a2941461044b578063e13230131461046a575f80fd5b806398f3b18c116100ac57806398f3b18c146103d4578063ac9650d8146103e7578063cb25ee65146103fa575f80fd5b80638c4ec19e1461038d5780638c824cd9146103ac57806396123406146103c0575f80fd5b806350965993116101315780635e01eb5a1161010c5780635e01eb5a1461030b5780636dcf13661461034f5780637251d34e1461036e575f80fd5b806350965993146102ba578063560561d0146102d95780635aaeaac5146102ec575f80fd5b806338947f0b1161016157806338947f0b1461024957806348bbd869146102695780634b35fab41461029b575f80fd5b80630f8fb1cc146101e857806319c6989f14610229575f80fd5b366101e457336001600160a01b037f000000000000000000000000000000000000000000000000000000000000000016146101e2576040517f0540ddf600000000000000000000000000000000000000000000000000000000815260040160405180910390fd5b005b5f80fd5b3480156101f3575f80fd5b507f00000000000000000000000000000000000000000000000000000000000000005b6040519081526020015b60405180910390f35b61023c6102373660046150e3565b6104e6565b6040516102209190615210565b61025c6102573660046153e6565b61072b565b60405161022091906154af565b348015610274575f80fd5b507f0000000000000000000000000000000000000000000000000000000000000000610216565b3480156102a6575f80fd5b5061025c6102b53660046154d1565b610882565b3480156102c5575f80fd5b5061025c6102d436600461550b565b610b85565b61025c6102e7366004615560565b610d0a565b3480156102f7575f80fd5b5061025c610306366004615625565b610df7565b348015610316575f80fd5b506040516001600160a01b037f00000000000000000000000000000000000000000000000000000000000000005c168152602001610220565b34801561035a575f80fd5b506102166103693660046156a0565b610f87565b348015610379575f80fd5b506102166103883660046154d1565b611763565b348015610398575f80fd5b506102166103a7366004615700565b611a12565b3480156103b7575f80fd5b50610216611b33565b3480156103cb575f80fd5b50610216611b5b565b6102166103e2366004615560565b611b83565b61023c6103f5366004615767565b611cc5565b348015610405575f80fd5b5061025c6104143660046157a6565b611e43565b348015610424575f80fd5b507f0000000000000000000000000000000000000000000000000000000000000000610216565b348015610456575f80fd5b5061021661046536600461582a565b611f30565b348015610475575f80fd5b506102166104843660046158ae565b612004565b348015610494575f80fd5b5061025c6104a33660046154d1565b61212c565b3480156104b3575f80fd5b5061025c6104c23660046156a0565b6126af565b3480156104d2575f80fd5b5061025c6104e136600461550b565b6132dd565b60605f6104f16133bf565b90505f5b8a81101561065b575f8a8a8381811061051057610510615915565b90506020028101906105229190615929565b8080601f0160208091040260200160405190810160405280939291908181526020018383808284375f92018290525093945061056392508491506134239050565b90505f8e8e8581811061057857610578615915565b905060c0020180360381019061058e919061596c565b8051602080830151606084015160a08501516040808901518951958a015191517fd505accf0000000000000000000000000000000000000000000000000000000081526001600160a01b0395861660048201523060248201526044810194909452606484019290925260ff909116608483015260a482019390935260c481019290925292935091169063d505accf9060e4015f604051808303815f87803b158015610637575f80fd5b505af1158015610649573d5f803e3d5ffd5b505050505050508060010190506104f5565b505f61066788806159ff565b90501115610708576040517f2a2d80d10000000000000000000000000000000000000000000000000000000081526001600160a01b037f00000000000000000000000000000000000000000000000000000000000000001690632a2d80d1906106da9033908b908b908b90600401615a82565b5f604051808303815f87803b1580156106f1575f80fd5b505af1158015610703573d5f803e3d5ffd5b505050505b6107128484611cc5565b915061071d8161345e565b509998505050505050505050565b60605f6107366133bf565b90507f00000000000000000000000000000000000000000000000000000000000000006001600160a01b03166348c894916040518060e00160405280336001600160a01b031681526020018a6001600160a01b031681526020018881526020018981526020015f60038111156107ae576107ae615ba8565b81526020018715158152602001868152506040516024016107cf9190615c47565b60408051601f198184030181529181526020820180516001600160e01b0316631d39210760e31b179052516001600160e01b031960e084901b1681526108189190600401615c59565b5f604051808303815f875af1158015610833573d5f803e3d5ffd5b505050506040513d5f823e601f3d908101601f1916820160405261085a9190810190615cad565b80602001905181019061086d9190615d3b565b91506108788161345e565b5095945050505050565b606061088c613491565b610894613517565b5f6001600160a01b037f00000000000000000000000000000000000000000000000000000000000000001663ca4f28036108d46040860160208701615d6d565b6040516001600160e01b031960e084901b1681526001600160a01b0390911660048201526024015f60405180830381865afa158015610915573d5f803e3d5ffd5b505050506040513d5f823e601f3d908101601f1916820160405261093c9190810190615d88565b80519091505f8167ffffffffffffffff81111561095b5761095b615291565b604051908082528060200260200182016040528015610984578160200160208202803683370190505b5090505f5b828110156109c9576fffffffffffffffffffffffffffffffff80168282815181106109b6576109b6615915565b6020908102919091010152600101610989565b505f7f00000000000000000000000000000000000000000000000000000000000000006001600160a01b0316634af29ec46040518060c00160405280896020016020810190610a189190615d6d565b6001600160a01b03168152602090810190610a35908b018b615d6d565b6001600160a01b03168152602081018690526060808b0135604083015201610a6360a08b0160808c01615e1d565b6004811115610a7457610a74615ba8565b8152602001610a8660c08b018b615929565b8080601f0160208091040260200160405190810160405280939291908181526020018383808284375f9201919091525050509152506040516001600160e01b031960e084901b168152610adc9190600401615e4b565b5f604051808303815f875af1158015610af7573d5f803e3d5ffd5b505050506040513d5f823e601f3d908101601f19168201604052610b1e9190810190615ec1565b50909150610b6f90508685836001610b396040850185615f1f565b808060200260200160405190810160405280939291908181526020018383602002808284375f9201919091525061357b92505050565b508095505050505050610b80613a74565b919050565b60605f610b906133bf565b90507f00000000000000000000000000000000000000000000000000000000000000006001600160a01b031663edfa35686040518060e00160405280336001600160a01b03168152602001886001600160a01b03168152602001600267ffffffffffffffff811115610c0457610c04615291565b604051908082528060200260200182016040528015610c2d578160200160208202803683370190505b508152602081018890526040015f81525f6020820152604090810187905251610c599190602401615c47565b60408051601f198184030181529181526020820180516001600160e01b0316631d39210760e31b179052516001600160e01b031960e084901b168152610ca29190600401615c59565b5f604051808303815f875af1158015610cbd573d5f803e3d5ffd5b505050506040513d5f823e601f3d908101601f19168201604052610ce49190810190615cad565b806020019051810190610cf79190615d3b565b9150610d028161345e565b509392505050565b60605f610d156133bf565b90507f00000000000000000000000000000000000000000000000000000000000000006001600160a01b03166348c894916040518060e00160405280336001600160a01b031681526020018a6001600160a01b031681526020018981526020018881526020015f6004811115610d8d57610d8d615ba8565b8152602001871515815260200186815250604051602401610dae9190615fb8565b60408051601f198184030181529181526020820180516001600160e01b03166312cd7ead60e21b179052516001600160e01b031960e084901b1681526108189190600401615c59565b60605f610e026133bf565b90507f00000000000000000000000000000000000000000000000000000000000000006001600160a01b031663edfa356863f4f1cdee60e01b6040518060e00160405280336001600160a01b031681526020018a6001600160a01b03168152602001885167ffffffffffffffff811115610e7e57610e7e615291565b604051908082528060200260200182016040528015610ea7578160200160208202803683370190505b508152602081018a90526040015f81525f6020820152604090810188905251610ed591908990602401616002565b60408051601f198184030181529181526020820180516001600160e01b03166001600160e01b03199485161790525160e084901b9092168252610f1a91600401615c59565b5f604051808303815f875af1158015610f35573d5f803e3d5ffd5b505050506040513d5f823e601f3d908101601f19168201604052610f5c9190810190615cad565b806020019051810190610f6f9190615d3b565b9150610f7a8161345e565b50949350505050565b5c90565b5f610f90613491565b610f98613517565b610fb1610fa86040850185615f1f565b90508351613a9e565b32155f5b835181101561103857611030848281518110610fd357610fd3615915565b6020026020010151868060400190610feb9190615f1f565b84818110610ffb57610ffb615915565b905060200201356110297f000000000000000000000000000000000000000000000000000000000000000090565b9190613adb565b600101610fb5565b505f6001600160a01b037f00000000000000000000000000000000000000000000000000000000000000001663ca4f28036110796040880160208901615d6d565b6040516001600160e01b031960e084901b1681526001600160a01b0390911660048201526024015f60405180830381865afa1580156110ba573d5f803e3d5ffd5b505050506040513d5f823e601f3d908101601f191682016040526110e19190810190615d88565b90505f5b8151811015611538575f82828151811061110157611101615915565b602002602001015190507f00000000000000000000000000000000000000000000000000000000000000006001600160a01b031663c673bdaf826040518263ffffffff1660e01b815260040161116691906001600160a01b0391909116815260200190565b602060405180830381865afa158015611181573d5f803e3d5ffd5b505050506040513d601f19601f820116820180604052508101906111a59190616026565b156114625760405163ca4f280360e01b81526001600160a01b0382811660048301525f917f00000000000000000000000000000000000000000000000000000000000000009091169063ca4f2803906024015f60405180830381865afa158015611211573d5f803e3d5ffd5b505050506040513d5f823e601f3d908101601f191682016040526112389190810190615d88565b90505f61124482613afb565b90505f7f00000000000000000000000000000000000000000000000000000000000000006001600160a01b0316634af29ec46040518060c00160405280876001600160a01b031681526020017f00000000000000000000000000000000000000000000000000000000000000006001600160a01b031681526020018581526020015f81526020018d60800160208101906112de9190615e1d565b60048111156112ef576112ef615ba8565b815260200161130160c08f018f615929565b8080601f0160208091040260200160405190810160405280939291908181526020018383808284375f9201919091525050509152506040516001600160e01b031960e084901b1681526113579190600401615e4b565b5f604051808303815f875af1158015611372573d5f803e3d5ffd5b505050506040513d5f823e601f3d908101601f191682016040526113999190810190615ec1565b509150506113c984826110297f000000000000000000000000000000000000000000000000000000000000000090565b6040516315afd40960e01b81526001600160a01b038581166004830152602482018390527f000000000000000000000000000000000000000000000000000000000000000016906315afd409906044016020604051808303815f875af1158015611435573d5f803e3d5ffd5b505050506040513d601f19601f820116820180604052508101906114599190616041565b5050505061152f565b604051636844846b60e01b81526001600160a01b0382811660048301527f00000000000000000000000000000000000000000000000000000000000000001690636844846b90602401602060405180830381865afa1580156114c6573d5f803e3d5ffd5b505050506040513d601f19601f820116820180604052508101906114ea9190616026565b801561151f575061151d817f00000000000000000000000000000000000000000000000000000000000000005b90613cef565b155b1561152f5761152d81613d05565b505b506001016110e5565b505f61154382613afb565b90507f00000000000000000000000000000000000000000000000000000000000000006001600160a01b0316634af29ec46040518060c001604052808960200160208101906115929190615d6d565b6001600160a01b03168152602001866115b7576115b260208b018b615d6d565b6115b9565b305b6001600160a01b03168152602081018590526060808b01356040830152016115e760a08b0160808c01615e1d565b60048111156115f8576115f8615ba8565b815260200161160a60c08b018b615929565b8080601f0160208091040260200160405190810160405280939291908181526020018383808284375f9201919091525050509152506040516001600160e01b031960e084901b1681526116609190600401615e4b565b5f604051808303815f875af115801561167b573d5f803e3d5ffd5b505050506040513d5f823e601f3d908101601f191682016040526116a29190810190615ec1565b5094505f90505b8551811015611732576116fc8682815181106116c7576116c7615915565b60200260200101516116f67f000000000000000000000000000000000000000000000000000000000000000090565b90613f66565b5061172a86828151811061171257611712615915565b6020026020010151888060400190610feb9190615f1f565b6001016116a9565b508215155f036117525761175261174c6020880188615d6d565b5f613fa4565b50505061175d613a74565b92915050565b5f61176c613491565b611774613517565b5f6001600160a01b037f00000000000000000000000000000000000000000000000000000000000000001663ca4f28036117b46040860160208701615d6d565b6040516001600160e01b031960e084901b1681526001600160a01b0390911660048201526024015f60405180830381865afa1580156117f5573d5f803e3d5ffd5b505050506040513d5f823e601f3d908101601f1916820160405261181c9190810190615d88565b90505f6118ac84836118316040830183615f1f565b808060200260200160405190810160405280939291908181526020018383602002808284375f920182905250895190935091505067ffffffffffffffff81111561187d5761187d615291565b6040519080825280602002602001820160405280156118a6578160200160208202803683370190505b5061357b565b9150507f00000000000000000000000000000000000000000000000000000000000000006001600160a01b0316634af29ec46040518060c001604052808760200160208101906118fc9190615d6d565b6001600160a01b0316815260209081019061191990890189615d6d565b6001600160a01b031681526020810185905260608089013560408301520161194760a0890160808a01615e1d565b600481111561195857611958615ba8565b815260200161196a60c0890189615929565b8080601f0160208091040260200160405190810160405280939291908181526020018383808284375f9201919091525050509152506040516001600160e01b031960e084901b1681526119c09190600401615e4b565b5f604051808303815f875af11580156119db573d5f803e3d5ffd5b505050506040513d5f823e601f3d908101601f19168201604052611a029190810190615ec1565b509350610b809250613a74915050565b5f80611a1c6133bf565b6040805160e0810182523381526001600160a01b0388811660208301529181018790525f60608201529192507f0000000000000000000000000000000000000000000000000000000000000000169063edfa35689060808101600181525f6020820152604090810187905251611a959190602401615fb8565b60408051601f198184030181529181526020820180516001600160e01b0316633928e9a760e11b179052516001600160e01b031960e084901b168152611ade9190600401615c59565b5f604051808303815f875af1158015611af9573d5f803e3d5ffd5b505050506040513d5f823e601f3d908101601f19168201604052611b209190810190615cad565b806020019051810190610cf79190616041565b5f807f000000000000000000000000000000000000000000000000000000000000000061175d565b5f807f000000000000000000000000000000000000000000000000000000000000000061175d565b5f80611b8d6133bf565b90507f00000000000000000000000000000000000000000000000000000000000000006001600160a01b03166348c894916040518060e00160405280336001600160a01b031681526020018a6001600160a01b0316815260200189815260200188815260200160016004811115611c0657611c06615ba8565b8152602001871515815260200186815250604051602401611c279190615fb8565b60408051601f198184030181529181526020820180516001600160e01b0316633928e9a760e11b179052516001600160e01b031960e084901b168152611c709190600401615c59565b5f604051808303815f875af1158015611c8b573d5f803e3d5ffd5b505050506040513d5f823e601f3d908101601f19168201604052611cb29190810190615cad565b80602001905181019061086d9190616041565b60605f611cd06133bf565b9050611cff60017f00000000000000000000000000000000000000000000000000000000000000005b906141d1565b8267ffffffffffffffff811115611d1857611d18615291565b604051908082528060200260200182016040528015611d4b57816020015b6060815260200190600190039081611d365790505b5091505f5b83811015611dde57611db930868684818110611d6e57611d6e615915565b9050602002810190611d809190615929565b8080601f0160208091040260200160405190810160405280939291908181526020018383808284375f920191909152506141d892505050565b838281518110611dcb57611dcb615915565b6020908102919091010152600101611d50565b50611e095f7f0000000000000000000000000000000000000000000000000000000000000000611cf9565b611e337f00000000000000000000000000000000000000000000000000000000000000005c61424a565b611e3c8161345e565b5092915050565b60605f611e4e6133bf565b6040805160e0810182523381526001600160a01b038a81166020830152918101879052606081018990529192507f000000000000000000000000000000000000000000000000000000000000000016906348c89491907ff4f1cdee0000000000000000000000000000000000000000000000000000000090608081015f81525f6020820152604090810188905251611eeb91908a90602401616002565b60408051601f198184030181529181526020820180516001600160e01b03166001600160e01b03199485161790525160e084901b909216825261081891600401615c59565b5f80611f3a6133bf565b6040805160e0810182523381526001600160a01b038a81166020830152918101889052606081018790529192507f000000000000000000000000000000000000000000000000000000000000000016906348c89491906336e789b360e11b9060808101600181525f6020820152604090810188905251611fbf91908b90602401616058565b60408051601f198184030181529181526020820180516001600160e01b03166001600160e01b03199485161790525160e084901b9092168252611c7091600401615c59565b5f8061200e6133bf565b6040805160e0810182523381526001600160a01b0389811660208301529181018790525f60608201529192507f0000000000000000000000000000000000000000000000000000000000000000169063edfa3568906336e789b360e11b9060808101600181525f602082015260409081018890525161209291908a90602401616058565b60408051601f198184030181529181526020820180516001600160e01b03166001600160e01b03199485161790525160e084901b90921682526120d791600401615c59565b5f604051808303815f875af11580156120f2573d5f803e3d5ffd5b505050506040513d5f823e601f3d908101601f191682016040526121199190810190615cad565b806020019051810190610f6f9190616041565b6060612136613491565b61213e613517565b5f6001600160a01b037f00000000000000000000000000000000000000000000000000000000000000001663ca4f280361217e6040860160208701615d6d565b6040516001600160e01b031960e084901b1681526001600160a01b0390911660048201526024015f60405180830381865afa1580156121bf573d5f803e3d5ffd5b505050506040513d5f823e601f3d908101601f191682016040526121e69190810190615d88565b80519091508067ffffffffffffffff81111561220457612204615291565b60405190808252806020026020018201604052801561222d578160200160208202803683370190505b5092505f7f00000000000000000000000000000000000000000000000000000000000000006001600160a01b031663214578976040518060c0016040528088602001602081019061227e9190615d6d565b6001600160a01b0316815260209081019061229b908a018a615d6d565b6001600160a01b03168152602001886060013581526020018567ffffffffffffffff8111156122cc576122cc615291565b6040519080825280602002602001820160405280156122f5578160200160208202803683370190505b50815260200161230b60a08a0160808b0161606a565b600381111561231c5761231c615ba8565b815260200161232e60c08a018a615929565b8080601f0160208091040260200160405190810160405280939291908181526020018383808284375f9201919091525050509152506040516001600160e01b031960e084901b1681526123849190600401616088565b5f604051808303815f875af115801561239f573d5f803e3d5ffd5b505050506040513d5f823e601f3d908101601f191682016040526123c691908101906160e2565b509150505f6123d3321590565b90505f5b838110156126a2575f8582815181106123f2576123f2615915565b6020908102919091010151604051630387587d60e01b81526001600160a01b0380831660048301529192505f917f00000000000000000000000000000000000000000000000000000000000000001690630387587d90602401602060405180830381865afa158015612466573d5f803e3d5ffd5b505050506040513d601f19601f8201168201806040525081019061248a9190616133565b90506001600160a01b03811661253d578483815181106124ac576124ac615915565b60200260200101518884815181106124c6576124c6615915565b60209081029190910101528315155f03612536576125366124ea60208b018b615d6d565b8885815181106124fc576124fc615915565b60200260200101518a868151811061251657612516615915565b60200260200101518c60a0016020810190612531919061614e565b61428e565b505061269a565b7f00000000000000000000000000000000000000000000000000000000000000006001600160a01b03166343583be56040518060a001604052805f600181111561258957612589615ba8565b815260200160018152602001856001600160a01b031681526020018887815181106125b6576125b6615915565b602002602001015181526020018c80604001906125d39190615f1f565b888181106125e3576125e3615915565b905060200201358152506040518263ffffffff1660e01b81526004016126099190616179565b6060604051808303815f875af1158015612625573d5f803e3d5ffd5b505050506040513d601f19601f8201168201806040525081019061264991906161cd565b909150905088848151811061266057612660615915565b60209081029190910101528315155f036126975761269761268460208b018b615d6d565b828a868151811061251657612516615915565b50505b6001016123d7565b5050505050610b80613a74565b60606126b9613491565b6126c1613517565b5f6001600160a01b037f00000000000000000000000000000000000000000000000000000000000000001663ca4f28036127016040870160208801615d6d565b6040516001600160e01b031960e084901b1681526001600160a01b0390911660048201526024015f60405180830381865afa158015612742573d5f803e3d5ffd5b505050506040513d5f823e601f3d908101601f191682016040526127699190810190615d88565b9050321561278661277d6040870187615f1f565b90508551613a9e565b5f7f00000000000000000000000000000000000000000000000000000000000000006001600160a01b031663214578976040518060c001604052808960200160208101906127d49190615d6d565b6001600160a01b031681526020908101906127f1908b018b615d6d565b6001600160a01b0316815260200189606001358152602001865167ffffffffffffffff81111561282357612823615291565b60405190808252806020026020018201604052801561284c578160200160208202803683370190505b50815260200161286260a08b0160808c0161606a565b600381111561287357612873615ba8565b815260200161288560c08b018b615929565b8080601f0160208091040260200160405190810160405280939291908181526020018383808284375f9201919091525050509152506040516001600160e01b031960e084901b1681526128db9190600401616088565b5f604051808303815f875af11580156128f6573d5f803e3d5ffd5b505050506040513d5f823e601f3d908101601f1916820160405261291d91908101906160e2565b509150505f5b8351811015612f22575f84828151811061293f5761293f615915565b602002602001015190507f00000000000000000000000000000000000000000000000000000000000000006001600160a01b031663c673bdaf826040518263ffffffff1660e01b81526004016129a491906001600160a01b0391909116815260200190565b602060405180830381865afa1580156129bf573d5f803e3d5ffd5b505050506040513d601f19601f820116820180604052508101906129e39190616026565b15612e30577f00000000000000000000000000000000000000000000000000000000000000006001600160a01b031663ae6393298230868681518110612a2b57612a2b615915565b60209081029190910101516040516001600160e01b031960e086901b1681526001600160a01b03938416600482015292909116602483015260448201526064015f604051808303815f87803b158015612a82575f80fd5b505af1158015612a94573d5f803e3d5ffd5b505060405163ca4f280360e01b81526001600160a01b0384811660048301525f93507f000000000000000000000000000000000000000000000000000000000000000016915063ca4f2803906024015f60405180830381865afa158015612afd573d5f803e3d5ffd5b505050506040513d5f823e601f3d908101601f19168201604052612b249190810190615d88565b90505f7f00000000000000000000000000000000000000000000000000000000000000006001600160a01b031663214578976040518060c00160405280866001600160a01b03168152602001306001600160a01b03168152602001888881518110612b9157612b91615915565b60200260200101518152602001855167ffffffffffffffff811115612bb857612bb8615291565b604051908082528060200260200182016040528015612be1578160200160208202803683370190505b5081526020018d6080016020810190612bfa919061606a565b6003811115612c0b57612c0b615ba8565b8152602001612c1d60c08f018f615929565b8080601f0160208091040260200160405190810160405280939291908181526020018383808284375f9201919091525050509152506040516001600160e01b031960e084901b168152612c739190600401616088565b5f604051808303815f875af1158015612c8e573d5f803e3d5ffd5b505050506040513d5f823e601f3d908101601f19168201604052612cb591908101906160e2565b509150505f5b8251811015612e28575f838281518110612cd757612cd7615915565b602002602001015190507f00000000000000000000000000000000000000000000000000000000000000006001600160a01b0316636844846b826040518263ffffffff1660e01b8152600401612d3c91906001600160a01b0391909116815260200190565b602060405180830381865afa158015612d57573d5f803e3d5ffd5b505050506040513d601f19601f82011682018060405250810190612d7b9190616026565b15612da857612da381848481518110612d9657612d96615915565b602002602001015161448c565b612e1f565b612dd2817f00000000000000000000000000000000000000000000000000000000000000006116f6565b50612e1f81848481518110612de957612de9615915565b6020026020010151612e187f000000000000000000000000000000000000000000000000000000000000000090565b9190614622565b50600101612cbb565b505050612f19565b604051636844846b60e01b81526001600160a01b0382811660048301527f00000000000000000000000000000000000000000000000000000000000000001690636844846b90602401602060405180830381865afa158015612e94573d5f803e3d5ffd5b505050506040513d601f19601f82011682018060405250810190612eb89190616026565b15612ed857612ed381848481518110612d9657612d96615915565b612f19565b612f02817f00000000000000000000000000000000000000000000000000000000000000006116f6565b50612f1981848481518110612de957612de9615915565b50600101612923565b508451612f4e7f000000000000000000000000000000000000000000000000000000000000000061464c565b14612fa157612f7c7f0000000000000000000000000000000000000000000000000000000000000000614656565b8560405163252b8a0360e21b8152600401612f989291906161f8565b60405180910390fd5b845167ffffffffffffffff811115612fbb57612fbb615291565b604051908082528060200260200182016040528015612fe4578160200160208202803683370190505b5093505f855167ffffffffffffffff81111561300257613002615291565b60405190808252806020026020018201604052801561302b578160200160208202803683370190505b5090505f5b86518110156132b7575f61308488838151811061304f5761304f615915565b602002602001015161307e7f000000000000000000000000000000000000000000000000000000000000000090565b906146f8565b90506130d088838151811061309b5761309b615915565b60200260200101516130ca7f000000000000000000000000000000000000000000000000000000000000000090565b9061474c565b15806130f257508281815181106130e9576130e9615915565b60200260200101515b1561313c576131207f0000000000000000000000000000000000000000000000000000000000000000614656565b8860405163252b8a0360e21b8152600401612f989291906161f8565b600183828151811061315057613150615915565b6020026020010190151590811515815250506131a688838151811061317757613177615915565b60200260200101516115177f000000000000000000000000000000000000000000000000000000000000000090565b8783815181106131b8576131b8615915565b60209081029190910101526131d060408a018a615f1f565b838181106131e0576131e0615915565b905060200201358783815181106131f9576131f9615915565b602002602001015110156132ae5787828151811061321957613219615915565b602002602001015187838151811061323357613233615915565b60200260200101518a806040019061324b9190615f1f565b8581811061325b5761325b615915565b6040517f2f785e460000000000000000000000000000000000000000000000000000000081526001600160a01b039095166004860152602485019390935250602090910201356044820152606401612f98565b50600101613030565b508215155f036132d1576132d161174c6020890189615d6d565b5050505061175d613a74565b60605f6132e86133bf565b90507f00000000000000000000000000000000000000000000000000000000000000006001600160a01b031663edfa35686040518060e00160405280336001600160a01b03168152602001886001600160a01b0316815260200161334b89614763565b8152602081018890526040015f81525f60208201526040908101879052516133769190602401615fb8565b60408051601f198184030181529181526020820180516001600160e01b03166312cd7ead60e21b179052516001600160e01b031960e084901b168152610ca29190600401615c59565b5f7f00000000000000000000000000000000000000000000000000000000000000005c6001600160a01b03811661341f5761341a337f0000000000000000000000000000000000000000000000000000000000000000611cf9565b600191505b5090565b60408051606080820183525f808352602080840182815284860183815291870151958701519690930151948452949091529190911a90915290565b801561348e5761348e5f7f0000000000000000000000000000000000000000000000000000000000000000611cf9565b50565b7f9b779b17422d0df92223018b32b4d1fa46e071723d6817e2486d003becc55f005c156134ea576040517f3ee5aeb500000000000000000000000000000000000000000000000000000000815260040160405180910390fd5b61351560017f9b779b17422d0df92223018b32b4d1fa46e071723d6817e2486d003becc55f00611cf9565b565b336001600160a01b037f00000000000000000000000000000000000000000000000000000000000000001614613515576040517f089676d5000000000000000000000000000000000000000000000000000000008152336004820152602401612f98565b835160609081908067ffffffffffffffff81111561359b5761359b615291565b6040519080825280602002602001820160405280156135c4578160200160208202803683370190505b5092508067ffffffffffffffff8111156135e0576135e0615291565b604051908082528060200260200182016040528015613609578160200160208202803683370190505b50915032155f5b82811015613a67575f89828151811061362b5761362b615915565b6020908102919091010151604051630387587d60e01b81526001600160a01b0380831660048301529192505f917f00000000000000000000000000000000000000000000000000000000000000001690630387587d90602401602060405180830381865afa15801561369f573d5f803e3d5ffd5b505050506040513d601f19601f820116820180604052508101906136c39190616133565b90506001600160a01b0381166137ae578983815181106136e5576136e5615915565b60200260200101518784815181106136ff576136ff615915565b60200260200101818152505089838151811061371d5761371d615915565b602002602001015186848151811061373757613737615915565b60209081029190910101528315155f036137a7576137a761375b60208e018e615d6d565b8c858151811061376d5761376d615915565b60200260200101518c868151811061378757613787615915565b60200260200101518f60a00160208101906137a2919061614e565b61487c565b5050613a5f565b8315155f0361381a575f8960018111156137ca576137ca615ba8565b036137f7576137f26137df60208e018e615d6d565b828c868151811061378757613787615915565b61381a565b61381a61380760208e018e615d6d565b828a868151811061378757613787615915565b7f00000000000000000000000000000000000000000000000000000000000000006001600160a01b03166343583be56040518060a001604052808c600181111561386657613866615ba8565b81526020015f8152602001856001600160a01b031681526020018d878151811061389257613892615915565b602002602001015181526020018b87815181106138b1576138b1615915565b60200260200101518152506040518263ffffffff1660e01b81526004016138d89190616179565b6060604051808303815f875af11580156138f4573d5f803e3d5ffd5b505050506040513d601f19601f8201168201806040525081019061391891906161cd565b90915088858151811061392d5761392d615915565b6020026020010188868151811061394657613946615915565b602090810291909101019190915252831580156139745750600189600181111561397257613972615ba8565b145b15613a5c577f00000000000000000000000000000000000000000000000000000000000000006001600160a01b031663ae639329828e5f0160208101906139bb9190615d6d565b8a87815181106139cd576139cd615915565b60200260200101518c88815181106139e7576139e7615915565b60200260200101516139f9919061621e565b6040516001600160e01b031960e086901b1681526001600160a01b03938416600482015292909116602483015260448201526064015f604051808303815f87803b158015613a45575f80fd5b505af1158015613a57573d5f803e3d5ffd5b505050505b50505b600101613610565b5050509550959350505050565b6135155f7f9b779b17422d0df92223018b32b4d1fa46e071723d6817e2486d003becc55f00611cf9565b808214613ad7576040517faaad13f700000000000000000000000000000000000000000000000000000000815260040160405180910390fd5b5050565b5f828152602084905260409020613af6908290611cf9565b90565b505050565b6060815167ffffffffffffffff811115613b1757613b17615291565b604051908082528060200260200182016040528015613b40578160200160208202803683370190505b5090505f5b8251811015613ce9575f838281518110613b6157613b61615915565b602002602001015190507f00000000000000000000000000000000000000000000000000000000000000006001600160a01b0316636844846b826040518263ffffffff1660e01b8152600401613bc691906001600160a01b0391909116815260200190565b602060405180830381865afa158015613be1573d5f803e3d5ffd5b505050506040513d601f19601f82011682018060405250810190613c059190616026565b8015613c385750613c36817f0000000000000000000000000000000000000000000000000000000000000000611517565b155b15613c6e575f613c4782613d05565b905080848481518110613c5c57613c5c615915565b60200260200101818152505050613ce0565b613c98817f0000000000000000000000000000000000000000000000000000000000000000611517565b838381518110613caa57613caa615915565b6020908102919091010152613ce0815f7f0000000000000000000000000000000000000000000000000000000000000000611029565b50600101613b45565b50919050565b5f8181526020839052604081205c5b9392505050565b5f80826001600160a01b03166338d52e0f6040518163ffffffff1660e01b8152600401602060405180830381865afa158015613d43573d5f803e3d5ffd5b505050506040513d601f19601f82011682018060405250810190613d679190616133565b90505f613d94827f0000000000000000000000000000000000000000000000000000000000000000611517565b9050805f03613da657505f9392505050565b7f00000000000000000000000000000000000000000000000000000000000000006001600160a01b03166343583be56040518060a001604052805f6001811115613df257613df2615ba8565b81526020015f8152602001876001600160a01b031681526020018481526020015f8152506040518263ffffffff1660e01b8152600401613e329190616179565b6060604051808303815f875af1158015613e4e573d5f803e3d5ffd5b505050506040513d601f19601f82011682018060405250810190613e7291906161cd565b9450613ea391508390505f7f0000000000000000000000000000000000000000000000000000000000000000611029565b613ece84847f0000000000000000000000000000000000000000000000000000000000000000611029565b6040516315afd40960e01b81526001600160a01b038581166004830152602482018590527f000000000000000000000000000000000000000000000000000000000000000016906315afd409906044016020604051808303815f875af1158015613f3a573d5f803e3d5ffd5b505050506040513d601f19601f82011682018060405250810190613f5e9190616041565b505050919050565b5f613f71838361474c565b613f9d57613f7f8383614bd8565b613f9582613f8c85614c0f565b60018601611029565b50600161175d565b505f61175d565b5f613fce7f000000000000000000000000000000000000000000000000000000000000000061464c565b90505f613ffa7f000000000000000000000000000000000000000000000000000000000000000061464c565b90505f614008600184616231565b90505b5f81126140e0575f61403f827f00000000000000000000000000000000000000000000000000000000000000005b90614c17565b90506140768682614070817f0000000000000000000000000000000000000000000000000000000000000000611517565b8861487c565b6140a1815f7f0000000000000000000000000000000000000000000000000000000000000000611029565b6140cd817f00000000000000000000000000000000000000000000000000000000000000005b90614c22565b5050806140d990616250565b905061400b565b505f6140ed600183616231565b90505b5f81126141c1575f614122827f0000000000000000000000000000000000000000000000000000000000000000614039565b90506141598682614153817f0000000000000000000000000000000000000000000000000000000000000000611517565b8861428e565b614184815f7f0000000000000000000000000000000000000000000000000000000000000000611029565b6141ae817f00000000000000000000000000000000000000000000000000000000000000006140c7565b5050806141ba90616250565b90506140f0565b506141cb8461424a565b50505050565b80825d5050565b60605f80846001600160a01b0316846040516141f49190616287565b5f60405180830381855af49150503d805f811461422c576040519150601f19603f3d011682016040523d82523d5f602084013e614231565b606091505b5091509150614241858383614ca8565b95945050505050565b7f00000000000000000000000000000000000000000000000000000000000000005c156142745750565b478015613ad757613ad76001600160a01b03831682614d16565b81156141cb578080156142d257507f00000000000000000000000000000000000000000000000000000000000000006001600160a01b0316836001600160a01b0316145b156144015760405163ae63932960e01b81526001600160a01b038481166004830152306024830152604482018490527f0000000000000000000000000000000000000000000000000000000000000000169063ae639329906064015f604051808303815f87803b158015614344575f80fd5b505af1158015614356573d5f803e3d5ffd5b50506040517f2e1a7d4d000000000000000000000000000000000000000000000000000000008152600481018590527f00000000000000000000000000000000000000000000000000000000000000006001600160a01b03169250632e1a7d4d91506024015f604051808303815f87803b1580156143d2575f80fd5b505af11580156143e4573d5f803e3d5ffd5b506143fc925050506001600160a01b03851683614d16565b6141cb565b60405163ae63932960e01b81526001600160a01b0384811660048301528581166024830152604482018490527f0000000000000000000000000000000000000000000000000000000000000000169063ae639329906064015f604051808303815f87803b158015614470575f80fd5b505af1158015614482573d5f803e3d5ffd5b5050505050505050565b805f03614497575050565b5f7f00000000000000000000000000000000000000000000000000000000000000006001600160a01b03166343583be56040518060a001604052805f60018111156144e4576144e4615ba8565b815260200160018152602001866001600160a01b031681526020018581526020015f8152506040518263ffffffff1660e01b81526004016145259190616179565b6060604051808303815f875af1158015614541573d5f803e3d5ffd5b505050506040513d601f19601f8201168201806040525081019061456591906161cd565b925050505f836001600160a01b03166338d52e0f6040518163ffffffff1660e01b8152600401602060405180830381865afa1580156145a6573d5f803e3d5ffd5b505050506040513d601f19601f820116820180604052508101906145ca9190616133565b90506145f6817f00000000000000000000000000000000000000000000000000000000000000006116f6565b506141cb81837f0000000000000000000000000000000000000000000000000000000000000000612e18565b613af6816146308585613cef565b61463a91906162a2565b5f848152602086905260409020611cf9565b5f61175d82614c0f565b60605f61466283614c0f565b90508067ffffffffffffffff81111561467d5761467d615291565b6040519080825280602002602001820160405280156146a6578160200160208202803683370190505b5091505f5b818110156146f1576146bf81855b90614dc9565b8382815181106146d1576146d1615915565b6001600160a01b03909216602092830291909101909101526001016146ab565b5050919050565b5f806147078360018601611517565b9050805f03614742576040517f66af539200000000000000000000000000000000000000000000000000000000815260040160405180910390fd5b5f19019392505050565b5f61475a8260018501611517565b15159392505050565b60405163ca4f280360e01b81526001600160a01b0382811660048301526060915f917f0000000000000000000000000000000000000000000000000000000000000000169063ca4f2803906024015f60405180830381865afa1580156147cb573d5f803e3d5ffd5b505050506040513d5f823e601f3d908101601f191682016040526147f29190810190615d88565b5190508067ffffffffffffffff81111561480e5761480e615291565b604051908082528060200260200182016040528015614837578160200160208202803683370190505b5091505f5b818110156146f1576fffffffffffffffffffffffffffffffff801683828151811061486957614869615915565b602090810291909101015260010161483c565b8080156148ba57507f00000000000000000000000000000000000000000000000000000000000000006001600160a01b0316836001600160a01b0316145b15614a7657814710156148f9576040517fa01a9df600000000000000000000000000000000000000000000000000000000815260040160405180910390fd5b7f00000000000000000000000000000000000000000000000000000000000000006001600160a01b031663d0e30db0836040518263ffffffff1660e01b81526004015f604051808303818588803b158015614952575f80fd5b505af1158015614964573d5f803e3d5ffd5b506149c09350506001600160a01b037f00000000000000000000000000000000000000000000000000000000000000001691507f0000000000000000000000000000000000000000000000000000000000000000905084614de3565b6040516315afd40960e01b81526001600160a01b037f000000000000000000000000000000000000000000000000000000000000000081166004830152602482018490527f000000000000000000000000000000000000000000000000000000000000000016906315afd409906044016020604051808303815f875af1158015614a4c573d5f803e3d5ffd5b505050506040513d601f19601f82011682018060405250810190614a709190616041565b506141cb565b81156141cb577f00000000000000000000000000000000000000000000000000000000000000006001600160a01b03166336c78516857f0000000000000000000000000000000000000000000000000000000000000000614ad686614e4e565b6040516001600160e01b031960e086901b1681526001600160a01b03938416600482015291831660248301528216604482015290861660648201526084015f604051808303815f87803b158015614b2b575f80fd5b505af1158015614b3d573d5f803e3d5ffd5b50506040516315afd40960e01b81526001600160a01b038681166004830152602482018690527f00000000000000000000000000000000000000000000000000000000000000001692506315afd40991506044016020604051808303815f875af1158015614bad573d5f803e3d5ffd5b505050506040513d601f19601f82011682018060405250810190614bd19190616041565b5050505050565b5f825c9050614bfb82611cf9613af384614bf7885f9081526020902090565b0190565b613af6614c098260016162a2565b84611cf9565b5f815c61175d565b5f613cfe82846146b9565b5f80614c318360018601611517565b90508015614c9f575f1981015f6001614c4987614c0f565b039050808214614c7b575f614c5e8783614e9a565b9050614c6b878483614ebe565b614c79818560018a01611029565b505b614c8486614ee2565b50614c93855f60018901611029565b6001935050505061175d565b5f91505061175d565b606082614cbd57614cb882614f23565b613cfe565b8151158015614cd457506001600160a01b0384163b155b15611e3c576040517f9996b3150000000000000000000000000000000000000000000000000000000081526001600160a01b0385166004820152602401612f98565b80471015614d59576040517fcf47918100000000000000000000000000000000000000000000000000000000815247600482015260248101829052604401612f98565b5f826001600160a01b0316826040515f6040518083038185875af1925050503d805f8114614da2576040519150601f19603f3d011682016040523d82523d5f602084013e614da7565b606091505b5050905080613af65760405163d6bda27560e01b815260040160405180910390fd5b5f613cfe610f83613af384614bf7875f9081526020902090565b604080516001600160a01b038416602482015260448082018490528251808303909101815260649091019091526020810180516001600160e01b03167fa9059cbb00000000000000000000000000000000000000000000000000000000179052613af6908490614f4c565b5f6001600160a01b0382111561341f576040517f6dfcc65000000000000000000000000000000000000000000000000000000000815260a0600482015260248101839052604401612f98565b5f614ea58383614fd1565b613cfe610f83613af384614bf7875f9081526020902090565b614ec88383614fd1565b613af681611cf9613af385614bf7885f9081526020902090565b5f80614ef06001845c61621e565b9050614efc8184611cf9565b5f614f13613af383614bf7875f9081526020902090565b9050805c92506146f1815f6141d1565b805115614f335780518082602001fd5b60405163d6bda27560e01b815260040160405180910390fd5b5f8060205f8451602086015f885af180614f6b576040513d5f823e3d81fd5b50505f513d91508115614f82578060011415614f8f565b6001600160a01b0384163b155b156141cb576040517f5274afe70000000000000000000000000000000000000000000000000000000081526001600160a01b0385166004820152602401612f98565b815c808210613af6576040517f0f4ae0e400000000000000000000000000000000000000000000000000000000815260040160405180910390fd5b5f8083601f84011261501c575f80fd5b50813567ffffffffffffffff811115615033575f80fd5b60208301915083602060c08302850101111561504d575f80fd5b9250929050565b5f8083601f840112615064575f80fd5b50813567ffffffffffffffff81111561507b575f80fd5b6020830191508360208260051b850101111561504d575f80fd5b5f60608284031215613ce9575f80fd5b5f8083601f8401126150b5575f80fd5b50813567ffffffffffffffff8111156150cc575f80fd5b60208301915083602082850101111561504d575f80fd5b5f805f805f805f805f60a08a8c0312156150fb575f80fd5b893567ffffffffffffffff80821115615112575f80fd5b61511e8d838e0161500c565b909b50995060208c0135915080821115615136575f80fd5b6151428d838e01615054565b909950975060408c013591508082111561515a575f80fd5b6151668d838e01615095565b965060608c013591508082111561517b575f80fd5b6151878d838e016150a5565b909650945060808c013591508082111561519f575f80fd5b506151ac8c828d01615054565b915080935050809150509295985092959850929598565b5f5b838110156151dd5781810151838201526020016151c5565b50505f910152565b5f81518084526151fc8160208601602086016151c3565b601f01601f19169290920160200192915050565b5f60208083016020845280855180835260408601915060408160051b8701019250602087015f5b8281101561526557603f198886030184526152538583516151e5565b94509285019290850190600101615237565b5092979650505050505050565b6001600160a01b038116811461348e575f80fd5b8035610b8081615272565b634e487b7160e01b5f52604160045260245ffd5b604051601f8201601f1916810167ffffffffffffffff811182821017156152ce576152ce615291565b604052919050565b5f67ffffffffffffffff8211156152ef576152ef615291565b5060051b60200190565b5f82601f830112615308575f80fd5b8135602061531d615318836152d6565b6152a5565b8083825260208201915060208460051b87010193508684111561533e575f80fd5b602086015b8481101561535a5780358352918301918301615343565b509695505050505050565b801515811461348e575f80fd5b5f67ffffffffffffffff82111561538b5761538b615291565b50601f01601f191660200190565b5f82601f8301126153a8575f80fd5b81356153b661531882615372565b8181528460208386010111156153ca575f80fd5b816020850160208301375f918101602001919091529392505050565b5f805f805f60a086880312156153fa575f80fd5b853561540581615272565b945060208601359350604086013567ffffffffffffffff80821115615428575f80fd5b61543489838a016152f9565b94506060880135915061544682615365565b9092506080870135908082111561545b575f80fd5b5061546888828901615399565b9150509295509295909350565b5f815180845260208085019450602084015f5b838110156154a457815187529582019590820190600101615488565b509495945050505050565b602081525f613cfe6020830184615475565b5f60e08284031215613ce9575f80fd5b5f602082840312156154e1575f80fd5b813567ffffffffffffffff8111156154f7575f80fd5b615503848285016154c1565b949350505050565b5f805f6060848603121561551d575f80fd5b833561552881615272565b925060208401359150604084013567ffffffffffffffff81111561554a575f80fd5b61555686828701615399565b9150509250925092565b5f805f805f60a08688031215615574575f80fd5b853561557f81615272565b9450602086013567ffffffffffffffff8082111561559b575f80fd5b6155a789838a016152f9565b9550604088013594506060880135915061544682615365565b5f82601f8301126155cf575f80fd5b813560206155df615318836152d6565b8083825260208201915060208460051b870101935086841115615600575f80fd5b602086015b8481101561535a57803561561881615272565b8352918301918301615605565b5f805f8060808587031215615638575f80fd5b843561564381615272565b935060208501359250604085013567ffffffffffffffff80821115615666575f80fd5b615672888389016155c0565b93506060870135915080821115615687575f80fd5b5061569487828801615399565b91505092959194509250565b5f80604083850312156156b1575f80fd5b823567ffffffffffffffff808211156156c8575f80fd5b6156d4868387016154c1565b935060208501359150808211156156e9575f80fd5b506156f6858286016155c0565b9150509250929050565b5f805f60608486031215615712575f80fd5b833561571d81615272565b9250602084013567ffffffffffffffff80821115615739575f80fd5b615745878388016152f9565b9350604086013591508082111561575a575f80fd5b5061555686828701615399565b5f8060208385031215615778575f80fd5b823567ffffffffffffffff81111561578e575f80fd5b61579a85828601615054565b90969095509350505050565b5f805f805f60a086880312156157ba575f80fd5b85356157c581615272565b945060208601359350604086013567ffffffffffffffff808211156157e8575f80fd5b6157f489838a016155c0565b94506060880135915080821115615809575f80fd5b61581589838a016152f9565b9350608088013591508082111561545b575f80fd5b5f805f805f60a0868803121561583e575f80fd5b853561584981615272565b9450602086013567ffffffffffffffff80821115615865575f80fd5b61587189838a016155c0565b95506040880135915080821115615886575f80fd5b61589289838a016152f9565b945060608801359350608088013591508082111561545b575f80fd5b5f805f80608085870312156158c1575f80fd5b84356158cc81615272565b9350602085013567ffffffffffffffff808211156158e8575f80fd5b6158f4888389016155c0565b94506040870135915080821115615909575f80fd5b615672888389016152f9565b634e487b7160e01b5f52603260045260245ffd5b5f808335601e1984360301811261593e575f80fd5b83018035915067ffffffffffffffff821115615958575f80fd5b60200191503681900382131561504d575f80fd5b5f60c0828403121561597c575f80fd5b60405160c0810181811067ffffffffffffffff8211171561599f5761599f615291565b60405282356159ad81615272565b815260208301356159bd81615272565b602082015260408301356159d081615272565b80604083015250606083013560608201526080830135608082015260a083013560a08201528091505092915050565b5f808335601e19843603018112615a14575f80fd5b83018035915067ffffffffffffffff821115615a2e575f80fd5b6020019150600781901b360382131561504d575f80fd5b803565ffffffffffff81168114610b80575f80fd5b81835281816020850137505f828201602090810191909152601f909101601f19169091010190565b5f60606001600160a01b03808816845260206060602086015260c085018835601e198a3603018112615ab2575f80fd5b890160208101903567ffffffffffffffff811115615ace575f80fd5b8060071b3603821315615adf575f80fd5b60608881015291829052905f9060e088015b81831015615b5d578335615b0481615272565b8616815283850135615b1581615272565b8616818601526040615b28858201615a45565b65ffffffffffff8082168385015280615b428b8901615a45565b16848b01525050506080938401936001939093019201615af1565b615b6960208d01615286565b6001600160a01b03811660808b0152965060408c013560a08a015288810360408a0152615b97818b8d615a5a565b9d9c50505050505050505050505050565b634e487b7160e01b5f52602160045260245ffd5b60048110615bcc57615bcc615ba8565b9052565b5f6001600160a01b0380835116845280602084015116602085015250604082015160e06040850152615c0560e0850182615475565b9050606083015160608501526080830151615c236080860182615bbc565b5060a0830151151560a085015260c083015184820360c086015261424182826151e5565b602081525f613cfe6020830184615bd0565b602081525f613cfe60208301846151e5565b5f82601f830112615c7a575f80fd5b8151615c8861531882615372565b818152846020838601011115615c9c575f80fd5b6155038260208301602087016151c3565b5f60208284031215615cbd575f80fd5b815167ffffffffffffffff811115615cd3575f80fd5b61550384828501615c6b565b5f82601f830112615cee575f80fd5b81516020615cfe615318836152d6565b8083825260208201915060208460051b870101935086841115615d1f575f80fd5b602086015b8481101561535a5780518352918301918301615d24565b5f60208284031215615d4b575f80fd5b815167ffffffffffffffff811115615d61575f80fd5b61550384828501615cdf565b5f60208284031215615d7d575f80fd5b8135613cfe81615272565b5f6020808385031215615d99575f80fd5b825167ffffffffffffffff811115615daf575f80fd5b8301601f81018513615dbf575f80fd5b8051615dcd615318826152d6565b81815260059190911b82018301908381019087831115615deb575f80fd5b928401925b82841015615e12578351615e0381615272565b82529284019290840190615df0565b979650505050505050565b5f60208284031215615e2d575f80fd5b813560058110613cfe575f80fd5b60058110615bcc57615bcc615ba8565b602081525f6001600160a01b0380845116602084015280602085015116604084015250604083015160c06060840152615e8760e0840182615475565b9050606084015160808401526080840151615ea560a0850182615e3b565b5060a0840151838203601f190160c085015261424182826151e5565b5f805f60608486031215615ed3575f80fd5b835167ffffffffffffffff80821115615eea575f80fd5b615ef687838801615cdf565b9450602086015193506040860151915080821115615f12575f80fd5b5061555686828701615c6b565b5f808335601e19843603018112615f34575f80fd5b83018035915067ffffffffffffffff821115615f4e575f80fd5b6020019150600581901b360382131561504d575f80fd5b5f6001600160a01b0380835116845280602084015116602085015250604082015160e06040850152615f9a60e0850182615475565b9050606083015160608501526080830151615c236080860182615e3b565b602081525f613cfe6020830184615f65565b5f815180845260208085019450602084015f5b838110156154a45781516001600160a01b031687529582019590820190600101615fdd565b604081525f6160146040830185615bd0565b82810360208401526142418185615fca565b5f60208284031215616036575f80fd5b8151613cfe81615365565b5f60208284031215616051575f80fd5b5051919050565b604081525f6160146040830185615f65565b5f6020828403121561607a575f80fd5b813560048110613cfe575f80fd5b602081525f6001600160a01b038084511660208401528060208501511660408401525060408301516060830152606083015160c060808401526160ce60e0840182615475565b90506080840151615ea560a0850182615bbc565b5f805f606084860312156160f4575f80fd5b83519250602084015167ffffffffffffffff80821115616112575f80fd5b61611e87838801615cdf565b93506040860151915080821115615f12575f80fd5b5f60208284031215616143575f80fd5b8151613cfe81615272565b5f6020828403121561615e575f80fd5b8135613cfe81615365565b6002811061348e5761348e615ba8565b815160a082019061618981616169565b8252602083015161619981616169565b806020840152506001600160a01b036040840151166040830152606083015160608301526080830151608083015292915050565b5f805f606084860312156161df575f80fd5b8351925060208401519150604084015190509250925092565b604081525f6160146040830185615fca565b634e487b7160e01b5f52601160045260245ffd5b8181038181111561175d5761175d61620a565b8181035f831280158383131683831282161715611e3c57611e3c61620a565b5f7f800000000000000000000000000000000000000000000000000000000000000082036162805761628061620a565b505f190190565b5f82516162988184602087016151c3565b9190910192915050565b8082018082111561175d5761175d61620a56fea2646970667358221220939ef86556b4a6b29d40eedd7813f771c853a9364f8d08ec51921b9f825eac8f64736f6c63430008180033","linkReferences":{}},"methodIdentifiers":{"addLiquidityERC4626PoolProportionalHook((address,address,uint256[],uint256,uint8,bool,bytes))":"4b35fab4","addLiquidityERC4626PoolUnbalancedHook((address,address,uint256[],uint256,uint8,bool,bytes))":"7251d34e","addLiquidityProportionalToERC4626Pool(address,uint256[],uint256,bool,bytes)":"560561d0","addLiquidityUnbalancedNestedPool(address,address[],uint256[],uint256,bytes)":"dd55a294","addLiquidityUnbalancedNestedPoolHook((address,address,uint256[],uint256,uint8,bool,bytes),address[])":"6dcf1366","addLiquidityUnbalancedToERC4626Pool(address,uint256[],uint256,bool,bytes)":"98f3b18c","getSender()":"5e01eb5a","manualGetCurrentSwapTokenInAmounts()":"48bbd869","manualGetCurrentSwapTokenOutAmounts()":"0f8fb1cc","manualGetCurrentSwapTokensInSlot()":"8c824cd9","manualGetCurrentSwapTokensOutSlot()":"96123406","manualGetSettledTokenAmounts()":"cd791ccc","multicall(bytes[])":"ac9650d8","permitBatchAndCall((address,address,address,uint256,uint256,uint256)[],bytes[],((address,uint160,uint48,uint48)[],address,uint256),bytes,bytes[])":"19c6989f","queryAddLiquidityProportionalToERC4626Pool(address,uint256,bytes)":"ff0353c8","queryAddLiquidityUnbalancedNestedPool(address,address[],uint256[],bytes)":"e1323013","queryAddLiquidityUnbalancedToERC4626Pool(address,uint256[],bytes)":"8c4ec19e","queryRemoveLiquidityProportionalFromERC4626Pool(address,uint256,bytes)":"50965993","queryRemoveLiquidityProportionalNestedPool(address,uint256,address[],bytes)":"5aaeaac5","removeLiquidityERC4626PoolProportionalHook((address,address,uint256[],uint256,uint8,bool,bytes))":"e9c90838","removeLiquidityProportionalFromERC4626Pool(address,uint256,uint256[],bool,bytes)":"38947f0b","removeLiquidityProportionalNestedPool(address,uint256,address[],uint256[],bytes)":"cb25ee65","removeLiquidityProportionalNestedPoolHook((address,address,uint256[],uint256,uint8,bool,bytes),address[])":"f4f1cdee"},"id":108}