{"abi":[{"type":"constructor","inputs":[{"name":"vault_","type":"address","internalType":"contract IVault"},{"name":"bptName","type":"string","internalType":"string"},{"name":"bptSymbol","type":"string","internalType":"string"}],"stateMutability":"nonpayable"},{"type":"function","name":"DOMAIN_SEPARATOR","inputs":[],"outputs":[{"name":"","type":"bytes32","internalType":"bytes32"}],"stateMutability":"view"},{"type":"function","name":"PERMIT_TYPEHASH","inputs":[],"outputs":[{"name":"","type":"bytes32","internalType":"bytes32"}],"stateMutability":"view"},{"type":"function","name":"allowance","inputs":[{"name":"owner","type":"address","internalType":"address"},{"name":"spender","type":"address","internalType":"address"}],"outputs":[{"name":"","type":"uint256","internalType":"uint256"}],"stateMutability":"view"},{"type":"function","name":"approve","inputs":[{"name":"spender","type":"address","internalType":"address"},{"name":"amount","type":"uint256","internalType":"uint256"}],"outputs":[{"name":"","type":"bool","internalType":"bool"}],"stateMutability":"nonpayable"},{"type":"function","name":"balanceOf","inputs":[{"name":"account","type":"address","internalType":"address"}],"outputs":[{"name":"","type":"uint256","internalType":"uint256"}],"stateMutability":"view"},{"type":"function","name":"decimals","inputs":[],"outputs":[{"name":"","type":"uint8","internalType":"uint8"}],"stateMutability":"pure"},{"type":"function","name":"eip712Domain","inputs":[],"outputs":[{"name":"fields","type":"bytes1","internalType":"bytes1"},{"name":"name","type":"string","internalType":"string"},{"name":"version","type":"string","internalType":"string"},{"name":"chainId","type":"uint256","internalType":"uint256"},{"name":"verifyingContract","type":"address","internalType":"address"},{"name":"salt","type":"bytes32","internalType":"bytes32"},{"name":"extensions","type":"uint256[]","internalType":"uint256[]"}],"stateMutability":"view"},{"type":"function","name":"emitApproval","inputs":[{"name":"owner","type":"address","internalType":"address"},{"name":"spender","type":"address","internalType":"address"},{"name":"amount","type":"uint256","internalType":"uint256"}],"outputs":[],"stateMutability":"nonpayable"},{"type":"function","name":"emitTransfer","inputs":[{"name":"from","type":"address","internalType":"address"},{"name":"to","type":"address","internalType":"address"},{"name":"amount","type":"uint256","internalType":"uint256"}],"outputs":[],"stateMutability":"nonpayable"},{"type":"function","name":"getRate","inputs":[],"outputs":[{"name":"","type":"uint256","internalType":"uint256"}],"stateMutability":"view"},{"type":"function","name":"getVault","inputs":[],"outputs":[{"name":"","type":"address","internalType":"contract IVault"}],"stateMutability":"view"},{"type":"function","name":"name","inputs":[],"outputs":[{"name":"","type":"string","internalType":"string"}],"stateMutability":"view"},{"type":"function","name":"nonces","inputs":[{"name":"owner","type":"address","internalType":"address"}],"outputs":[{"name":"","type":"uint256","internalType":"uint256"}],"stateMutability":"view"},{"type":"function","name":"permit","inputs":[{"name":"owner","type":"address","internalType":"address"},{"name":"spender","type":"address","internalType":"address"},{"name":"amount","type":"uint256","internalType":"uint256"},{"name":"deadline","type":"uint256","internalType":"uint256"},{"name":"v","type":"uint8","internalType":"uint8"},{"name":"r","type":"bytes32","internalType":"bytes32"},{"name":"s","type":"bytes32","internalType":"bytes32"}],"outputs":[],"stateMutability":"nonpayable"},{"type":"function","name":"supportsInterface","inputs":[{"name":"interfaceId","type":"bytes4","internalType":"bytes4"}],"outputs":[{"name":"","type":"bool","internalType":"bool"}],"stateMutability":"view"},{"type":"function","name":"symbol","inputs":[],"outputs":[{"name":"","type":"string","internalType":"string"}],"stateMutability":"view"},{"type":"function","name":"totalSupply","inputs":[],"outputs":[{"name":"","type":"uint256","internalType":"uint256"}],"stateMutability":"view"},{"type":"function","name":"transfer","inputs":[{"name":"to","type":"address","internalType":"address"},{"name":"amount","type":"uint256","internalType":"uint256"}],"outputs":[{"name":"","type":"bool","internalType":"bool"}],"stateMutability":"nonpayable"},{"type":"function","name":"transferFrom","inputs":[{"name":"from","type":"address","internalType":"address"},{"name":"to","type":"address","internalType":"address"},{"name":"amount","type":"uint256","internalType":"uint256"}],"outputs":[{"name":"","type":"bool","internalType":"bool"}],"stateMutability":"nonpayable"},{"type":"event","name":"Approval","inputs":[{"name":"owner","type":"address","indexed":true,"internalType":"address"},{"name":"spender","type":"address","indexed":true,"internalType":"address"},{"name":"value","type":"uint256","indexed":false,"internalType":"uint256"}],"anonymous":false},{"type":"event","name":"EIP712DomainChanged","inputs":[],"anonymous":false},{"type":"event","name":"Transfer","inputs":[{"name":"from","type":"address","indexed":true,"internalType":"address"},{"name":"to","type":"address","indexed":true,"internalType":"address"},{"name":"value","type":"uint256","indexed":false,"internalType":"uint256"}],"anonymous":false},{"type":"error","name":"ECDSAInvalidSignature","inputs":[]},{"type":"error","name":"ECDSAInvalidSignatureLength","inputs":[{"name":"length","type":"uint256","internalType":"uint256"}]},{"type":"error","name":"ECDSAInvalidSignatureS","inputs":[{"name":"s","type":"bytes32","internalType":"bytes32"}]},{"type":"error","name":"ERC2612ExpiredSignature","inputs":[{"name":"deadline","type":"uint256","internalType":"uint256"}]},{"type":"error","name":"ERC2612InvalidSigner","inputs":[{"name":"signer","type":"address","internalType":"address"},{"name":"owner","type":"address","internalType":"address"}]},{"type":"error","name":"InvalidAccountNonce","inputs":[{"name":"account","type":"address","internalType":"address"},{"name":"currentNonce","type":"uint256","internalType":"uint256"}]},{"type":"error","name":"InvalidShortString","inputs":[]},{"type":"error","name":"SenderIsNotVault","inputs":[{"name":"sender","type":"address","internalType":"address"}]},{"type":"error","name":"StringTooLong","inputs":[{"name":"str","type":"string","internalType":"string"}]}],"bytecode":{"object":"0x61018060405234801562000011575f80fd5b506040516200191b3803806200191b833981016040819052620000349162000280565b6040805180820190915260018152603160f81b6020820152839083906200005c825f62000137565b610120526200006d81600162000137565b61014052815160208084019190912060e052815190820120610100524660a052620000fa60e05161010051604080517f8b73c3c69bb8fe3d512ecc4cf759cc79239f7b179b0ffacaa9a75d522b39400f60208201529081019290925260608201524660808201523060a08201525f9060c00160405160208183030381529060405280519060200120905090565b60805250503060c0526001600160a01b03166101605260036200011e83826200038e565b5060046200012d82826200038e565b50505050620004b2565b5f60208351101562000156576200014e836200016f565b905062000169565b816200016384826200038e565b5060ff90505b92915050565b5f80829050601f81511115620001a5578260405163305a27a960e01b81526004016200019c91906200045a565b60405180910390fd5b8051620001b2826200048e565b179392505050565b634e487b7160e01b5f52604160045260245ffd5b5f5b83811015620001ea578181015183820152602001620001d0565b50505f910152565b5f82601f83011262000202575f80fd5b81516001600160401b03808211156200021f576200021f620001ba565b604051601f8301601f19908116603f011681019082821181831017156200024a576200024a620001ba565b8160405283815286602085880101111562000263575f80fd5b62000276846020830160208901620001ce565b9695505050505050565b5f805f6060848603121562000293575f80fd5b83516001600160a01b0381168114620002aa575f80fd5b60208501519093506001600160401b0380821115620002c7575f80fd5b620002d587838801620001f2565b93506040860151915080821115620002eb575f80fd5b50620002fa86828701620001f2565b9150509250925092565b600181811c908216806200031957607f821691505b6020821081036200033857634e487b7160e01b5f52602260045260245ffd5b50919050565b601f8211156200038957805f5260205f20601f840160051c81016020851015620003655750805b601f840160051c820191505b8181101562000386575f815560010162000371565b50505b505050565b81516001600160401b03811115620003aa57620003aa620001ba565b620003c281620003bb845462000304565b846200033e565b602080601f831160018114620003f8575f8415620003e05750858301515b5f19600386901b1c1916600185901b17855562000452565b5f85815260208120601f198616915b82811015620004285788860151825594840194600190910190840162000407565b50858210156200044657878501515f19600388901b60f8161c191681555b505060018460011b0185555b505050505050565b602081525f82518060208401526200047a816040850160208701620001ce565b601f01601f19169190910160400192915050565b8051602080830151919081101562000338575f1960209190910360031b1b16919050565b60805160a05160c05160e051610100516101205161014051610160516113ce6200054d5f395f81816102c4015281816103ed015281816104960152818161055c015281816106bb0152818161072a0152818161086601528181610a1b01528181610ada0152610b5701525f610d0e01525f610ce201525f610c8b01525f610c6301525f610bbe01525f610be801525f610c1201526113ce5ff3fe608060405234801561000f575f80fd5b5060043610610149575f3560e01c80635687f2b8116100c75780638d928af81161007d578063a9059cbb11610063578063a9059cbb146102f6578063d505accf14610309578063dd62ed3e1461031c575f80fd5b80638d928af8146102b757806395d89b41146102ee575f80fd5b806370a08231116100ad57806370a08231146102765780637ecebe001461028957806384b0196e1461029c575f80fd5b80635687f2b81461025b578063679aefce1461026e575f80fd5b806323b872dd1161011c57806330adf81f1161010257806330adf81f1461021d578063313ce567146102445780633644e51514610253575f80fd5b806323b872dd146101f557806323de665114610208575f80fd5b806301ffc9a71461014d57806306fdde03146101b7578063095ea7b3146101cc57806318160ddd146101df575b5f80fd5b6101a261015b36600461109c565b7fffffffff00000000000000000000000000000000000000000000000000000000167f01ffc9a7000000000000000000000000000000000000000000000000000000001490565b60405190151581526020015b60405180910390f35b6101bf61032f565b6040516101ae919061111e565b6101a26101da36600461114b565b6103bf565b6101e7610466565b6040519081526020016101ae565b6101a2610203366004611173565b61050d565b61021b610216366004611173565b6105d3565b005b6101e77f6e71edae12b1b97f4d1f60370fef10105fa2faae0126114a169c64845d6126c981565b604051601281526020016101ae565b6101e761062d565b61021b610269366004611173565b610636565b6101e7610683565b6101e76102843660046111ac565b6106ea565b6101e76102973660046111ac565b610795565b6102a46107b2565b6040516101ae97969594939291906111c5565b6040516001600160a01b037f00000000000000000000000000000000000000000000000000000000000000001681526020016101ae565b6101bf610810565b6101a261030436600461114b565b61081f565b61021b610317366004611278565b610897565b6101e761032a3660046112e5565b610a92565b60606003805461033e90611316565b80601f016020809104026020016040519081016040528092919081815260200182805461036a90611316565b80156103b55780601f1061038c576101008083540402835291602001916103b5565b820191905f5260205f20905b81548152906001019060200180831161039857829003601f168201915b5050505050905090565b60405163e1f21c6760e01b81523360048201526001600160a01b038381166024830152604482018390525f917f00000000000000000000000000000000000000000000000000000000000000009091169063e1f21c67906064015b6020604051808303815f875af1158015610436573d5f803e3d5ffd5b505050506040513d601f19601f8201168201806040525081019061045a919061134e565b50600190505b92915050565b6040517fe4dc2aa40000000000000000000000000000000000000000000000000000000081523060048201525f907f00000000000000000000000000000000000000000000000000000000000000006001600160a01b03169063e4dc2aa4906024015b602060405180830381865afa1580156104e4573d5f803e3d5ffd5b505050506040513d601f19601f82011682018060405250810190610508919061136d565b905090565b6040517f15dacbea0000000000000000000000000000000000000000000000000000000081523360048201526001600160a01b0384811660248301528381166044830152606482018390525f917f0000000000000000000000000000000000000000000000000000000000000000909116906315dacbea906084016020604051808303815f875af11580156105a4573d5f803e3d5ffd5b505050506040513d601f19601f820116820180604052508101906105c8919061134e565b506001949350505050565b6105db610b4c565b816001600160a01b0316836001600160a01b03167fddf252ad1be2c89b69c2b068fc378daa952ba7f163c4a11628f55a4df523b3ef8360405161062091815260200190565b60405180910390a3505050565b5f610508610bb2565b61063e610b4c565b816001600160a01b0316836001600160a01b03167f8c5be1e5ebec7d5bd14f71427d1e84f3dd0314c0f7b2291e5b200ac8c7c3b9258360405161062091815260200190565b6040517f4f037ee70000000000000000000000000000000000000000000000000000000081523060048201525f906001600160a01b037f00000000000000000000000000000000000000000000000000000000000000001690634f037ee7906024016104c9565b6040517ff7888aec0000000000000000000000000000000000000000000000000000000081523060048201526001600160a01b0382811660248301525f917f00000000000000000000000000000000000000000000000000000000000000009091169063f7888aec90604401602060405180830381865afa158015610771573d5f803e3d5ffd5b505050506040513d601f19601f82011682018060405250810190610460919061136d565b6001600160a01b0381165f90815260026020526040812054610460565b5f6060805f805f60606107c3610cdb565b6107cb610d07565b604080515f808252602082019092527f0f000000000000000000000000000000000000000000000000000000000000009b939a50919850469750309650945092509050565b60606004805461033e90611316565b6040517fbeabacc80000000000000000000000000000000000000000000000000000000081523360048201526001600160a01b038381166024830152604482018390525f917f00000000000000000000000000000000000000000000000000000000000000009091169063beabacc89060640161041a565b834211156108d9576040517f62791302000000000000000000000000000000000000000000000000000000008152600481018590526024015b60405180910390fd5b5f7f6e71edae12b1b97f4d1f60370fef10105fa2faae0126114a169c64845d6126c98888886109248c6001600160a01b03165f90815260026020526040902080546001810190915590565b6040805160208101969096526001600160a01b0394851690860152929091166060840152608083015260a082015260c0810186905260e0016040516020818303038152906040528051906020012090505f61097e82610d34565b90505f61098d82878787610d7b565b9050896001600160a01b0316816001600160a01b0316146109ed576040517f4b800e460000000000000000000000000000000000000000000000000000000081526001600160a01b0380831660048301528b1660248201526044016108d0565b60405163e1f21c6760e01b81526001600160a01b038b811660048301528a81166024830152604482018a90527f0000000000000000000000000000000000000000000000000000000000000000169063e1f21c67906064016020604051808303815f875af1158015610a61573d5f803e3d5ffd5b505050506040513d601f19601f82011682018060405250810190610a85919061134e565b5050505050505050505050565b6040517f927da1050000000000000000000000000000000000000000000000000000000081523060048201526001600160a01b03838116602483015282811660448301525f917f00000000000000000000000000000000000000000000000000000000000000009091169063927da10590606401602060405180830381865afa158015610b21573d5f803e3d5ffd5b505050506040513d601f19601f82011682018060405250810190610b45919061136d565b9392505050565b336001600160a01b037f00000000000000000000000000000000000000000000000000000000000000001614610bb0576040517f089676d50000000000000000000000000000000000000000000000000000000081523360048201526024016108d0565b565b5f306001600160a01b037f000000000000000000000000000000000000000000000000000000000000000016148015610c0a57507f000000000000000000000000000000000000000000000000000000000000000046145b15610c3457507f000000000000000000000000000000000000000000000000000000000000000090565b610508604080517f8b73c3c69bb8fe3d512ecc4cf759cc79239f7b179b0ffacaa9a75d522b39400f60208201527f0000000000000000000000000000000000000000000000000000000000000000918101919091527f000000000000000000000000000000000000000000000000000000000000000060608201524660808201523060a08201525f9060c00160405160208183030381529060405280519060200120905090565b60606105087f00000000000000000000000000000000000000000000000000000000000000005f610da7565b60606105087f00000000000000000000000000000000000000000000000000000000000000006001610da7565b5f610460610d40610bb2565b836040517f19010000000000000000000000000000000000000000000000000000000000008152600281019290925260228201526042902090565b5f805f80610d8b88888888610e50565b925092509250610d9b8282610f18565b50909695505050505050565b606060ff8314610dc157610dba8361101f565b9050610460565b818054610dcd90611316565b80601f0160208091040260200160405190810160405280929190818152602001828054610df990611316565b8015610e445780601f10610e1b57610100808354040283529160200191610e44565b820191905f5260205f20905b815481529060010190602001808311610e2757829003601f168201915b50505050509050610460565b5f80807f7fffffffffffffffffffffffffffffff5d576e7357a4501ddfe92f46681b20a0841115610e8957505f91506003905082610f0e565b604080515f808252602082018084528a905260ff891692820192909252606081018790526080810186905260019060a0016020604051602081039080840390855afa158015610eda573d5f803e3d5ffd5b5050604051601f1901519150506001600160a01b038116610f0557505f925060019150829050610f0e565b92505f91508190505b9450945094915050565b5f826003811115610f2b57610f2b611384565b03610f34575050565b6001826003811115610f4857610f48611384565b03610f7f576040517ff645eedf00000000000000000000000000000000000000000000000000000000815260040160405180910390fd5b6002826003811115610f9357610f93611384565b03610fcd576040517ffce698f7000000000000000000000000000000000000000000000000000000008152600481018290526024016108d0565b6003826003811115610fe157610fe1611384565b0361101b576040517fd78bce0c000000000000000000000000000000000000000000000000000000008152600481018290526024016108d0565b5050565b60605f61102b8361105c565b6040805160208082528183019092529192505f91906020820181803683375050509182525060208101929092525090565b5f60ff8216601f811115610460576040517fb3512b0c00000000000000000000000000000000000000000000000000000000815260040160405180910390fd5b5f602082840312156110ac575f80fd5b81357fffffffff0000000000000000000000000000000000000000000000000000000081168114610b45575f80fd5b5f81518084525f5b818110156110ff576020818501810151868301820152016110e3565b505f602082860101526020601f19601f83011685010191505092915050565b602081525f610b4560208301846110db565b80356001600160a01b0381168114611146575f80fd5b919050565b5f806040838503121561115c575f80fd5b61116583611130565b946020939093013593505050565b5f805f60608486031215611185575f80fd5b61118e84611130565b925061119c60208501611130565b9150604084013590509250925092565b5f602082840312156111bc575f80fd5b610b4582611130565b7fff00000000000000000000000000000000000000000000000000000000000000881681525f602060e0602084015261120160e084018a6110db565b8381036040850152611213818a6110db565b606085018990526001600160a01b038816608086015260a0850187905284810360c0860152855180825260208088019350909101905f5b818110156112665783518352928401929184019160010161124a565b50909c9b505050505050505050505050565b5f805f805f805f60e0888a03121561128e575f80fd5b61129788611130565b96506112a560208901611130565b95506040880135945060608801359350608088013560ff811681146112c8575f80fd5b9699959850939692959460a0840135945060c09093013592915050565b5f80604083850312156112f6575f80fd5b6112ff83611130565b915061130d60208401611130565b90509250929050565b600181811c9082168061132a57607f821691505b60208210810361134857634e487b7160e01b5f52602260045260245ffd5b50919050565b5f6020828403121561135e575f80fd5b81518015158114610b45575f80fd5b5f6020828403121561137d575f80fd5b5051919050565b634e487b7160e01b5f52602160045260245ffdfea2646970667358221220e0f9d9432586ca99561461428cb8afa46e9e73656d45866dbb5833e64e1c5d6f64736f6c63430008180033","linkReferences":{}},"methodIdentifiers":{"DOMAIN_SEPARATOR()":"3644e515","PERMIT_TYPEHASH()":"30adf81f","allowance(address,address)":"dd62ed3e","approve(address,uint256)":"095ea7b3","balanceOf(address)":"70a08231","decimals()":"313ce567","eip712Domain()":"84b0196e","emitApproval(address,address,uint256)":"5687f2b8","emitTransfer(address,address,uint256)":"23de6651","getRate()":"679aefce","getVault()":"8d928af8","name()":"06fdde03","nonces(address)":"7ecebe00","permit(address,address,uint256,uint256,uint8,bytes32,bytes32)":"d505accf","supportsInterface(bytes4)":"01ffc9a7","symbol()":"95d89b41","totalSupply()":"18160ddd","transfer(address,uint256)":"a9059cbb","transferFrom(address,address,uint256)":"23b872dd"},"id":53}