{"abi":[{"type":"constructor","inputs":[{"name":"vault","type":"address","internalType":"contract IVault"},{"name":"vaultAdmin","type":"address","internalType":"contract IVaultAdmin"}],"stateMutability":"nonpayable"},{"type":"fallback","stateMutability":"payable"},{"type":"receive","stateMutability":"payable"},{"type":"function","name":"allowance","inputs":[{"name":"token","type":"address","internalType":"address"},{"name":"owner","type":"address","internalType":"address"},{"name":"spender","type":"address","internalType":"address"}],"outputs":[{"name":"","type":"uint256","internalType":"uint256"}],"stateMutability":"view"},{"type":"function","name":"approve","inputs":[{"name":"owner","type":"address","internalType":"address"},{"name":"spender","type":"address","internalType":"address"},{"name":"amount","type":"uint256","internalType":"uint256"}],"outputs":[{"name":"","type":"bool","internalType":"bool"}],"stateMutability":"nonpayable"},{"type":"function","name":"balanceOf","inputs":[{"name":"token","type":"address","internalType":"address"},{"name":"account","type":"address","internalType":"address"}],"outputs":[{"name":"","type":"uint256","internalType":"uint256"}],"stateMutability":"view"},{"type":"function","name":"computeDynamicSwapFeePercentage","inputs":[{"name":"pool","type":"address","internalType":"address"},{"name":"swapParams","type":"tuple","internalType":"struct PoolSwapParams","components":[{"name":"kind","type":"uint8","internalType":"enum SwapKind"},{"name":"amountGivenScaled18","type":"uint256","internalType":"uint256"},{"name":"balancesScaled18","type":"uint256[]","internalType":"uint256[]"},{"name":"indexIn","type":"uint256","internalType":"uint256"},{"name":"indexOut","type":"uint256","internalType":"uint256"},{"name":"router","type":"address","internalType":"address"},{"name":"userData","type":"bytes","internalType":"bytes"}]}],"outputs":[{"name":"dynamicSwapFeePercentage","type":"uint256","internalType":"uint256"}],"stateMutability":"view"},{"type":"function","name":"getAddLiquidityCalledFlag","inputs":[{"name":"pool","type":"address","internalType":"address"}],"outputs":[{"name":"","type":"bool","internalType":"bool"}],"stateMutability":"view"},{"type":"function","name":"getAggregateSwapFeeAmount","inputs":[{"name":"pool","type":"address","internalType":"address"},{"name":"token","type":"address","internalType":"contract IERC20"}],"outputs":[{"name":"","type":"uint256","internalType":"uint256"}],"stateMutability":"view"},{"type":"function","name":"getAggregateYieldFeeAmount","inputs":[{"name":"pool","type":"address","internalType":"address"},{"name":"token","type":"address","internalType":"contract IERC20"}],"outputs":[{"name":"","type":"uint256","internalType":"uint256"}],"stateMutability":"view"},{"type":"function","name":"getBptRate","inputs":[{"name":"pool","type":"address","internalType":"address"}],"outputs":[{"name":"rate","type":"uint256","internalType":"uint256"}],"stateMutability":"view"},{"type":"function","name":"getCurrentLiveBalances","inputs":[{"name":"pool","type":"address","internalType":"address"}],"outputs":[{"name":"balancesLiveScaled18","type":"uint256[]","internalType":"uint256[]"}],"stateMutability":"view"},{"type":"function","name":"getHooksConfig","inputs":[{"name":"pool","type":"address","internalType":"address"}],"outputs":[{"name":"","type":"tuple","internalType":"struct HooksConfig","components":[{"name":"enableHookAdjustedAmounts","type":"bool","internalType":"bool"},{"name":"shouldCallBeforeInitialize","type":"bool","internalType":"bool"},{"name":"shouldCallAfterInitialize","type":"bool","internalType":"bool"},{"name":"shouldCallComputeDynamicSwapFee","type":"bool","internalType":"bool"},{"name":"shouldCallBeforeSwap","type":"bool","internalType":"bool"},{"name":"shouldCallAfterSwap","type":"bool","internalType":"bool"},{"name":"shouldCallBeforeAddLiquidity","type":"bool","internalType":"bool"},{"name":"shouldCallAfterAddLiquidity","type":"bool","internalType":"bool"},{"name":"shouldCallBeforeRemoveLiquidity","type":"bool","internalType":"bool"},{"name":"shouldCallAfterRemoveLiquidity","type":"bool","internalType":"bool"},{"name":"hooksContract","type":"address","internalType":"address"}]}],"stateMutability":"view"},{"type":"function","name":"getNonzeroDeltaCount","inputs":[],"outputs":[{"name":"","type":"uint256","internalType":"uint256"}],"stateMutability":"view"},{"type":"function","name":"getPoolConfig","inputs":[{"name":"pool","type":"address","internalType":"address"}],"outputs":[{"name":"","type":"tuple","internalType":"struct PoolConfig","components":[{"name":"liquidityManagement","type":"tuple","internalType":"struct LiquidityManagement","components":[{"name":"disableUnbalancedLiquidity","type":"bool","internalType":"bool"},{"name":"enableAddLiquidityCustom","type":"bool","internalType":"bool"},{"name":"enableRemoveLiquidityCustom","type":"bool","internalType":"bool"},{"name":"enableDonation","type":"bool","internalType":"bool"}]},{"name":"staticSwapFeePercentage","type":"uint256","internalType":"uint256"},{"name":"aggregateSwapFeePercentage","type":"uint256","internalType":"uint256"},{"name":"aggregateYieldFeePercentage","type":"uint256","internalType":"uint256"},{"name":"tokenDecimalDiffs","type":"uint40","internalType":"uint40"},{"name":"pauseWindowEndTime","type":"uint32","internalType":"uint32"},{"name":"isPoolRegistered","type":"bool","internalType":"bool"},{"name":"isPoolInitialized","type":"bool","internalType":"bool"},{"name":"isPoolPaused","type":"bool","internalType":"bool"},{"name":"isPoolInRecoveryMode","type":"bool","internalType":"bool"}]}],"stateMutability":"view"},{"type":"function","name":"getPoolData","inputs":[{"name":"pool","type":"address","internalType":"address"}],"outputs":[{"name":"","type":"tuple","internalType":"struct PoolData","components":[{"name":"poolConfigBits","type":"bytes32","internalType":"PoolConfigBits"},{"name":"tokens","type":"address[]","internalType":"contract IERC20[]"},{"name":"tokenInfo","type":"tuple[]","internalType":"struct TokenInfo[]","components":[{"name":"tokenType","type":"uint8","internalType":"enum TokenType"},{"name":"rateProvider","type":"address","internalType":"contract IRateProvider"},{"name":"paysYieldFees","type":"bool","internalType":"bool"}]},{"name":"balancesRaw","type":"uint256[]","internalType":"uint256[]"},{"name":"balancesLiveScaled18","type":"uint256[]","internalType":"uint256[]"},{"name":"tokenRates","type":"uint256[]","internalType":"uint256[]"},{"name":"decimalScalingFactors","type":"uint256[]","internalType":"uint256[]"}]}],"stateMutability":"view"},{"type":"function","name":"getPoolPausedState","inputs":[{"name":"pool","type":"address","internalType":"address"}],"outputs":[{"name":"","type":"bool","internalType":"bool"},{"name":"","type":"uint32","internalType":"uint32"},{"name":"","type":"uint32","internalType":"uint32"},{"name":"","type":"address","internalType":"address"}],"stateMutability":"view"},{"type":"function","name":"getPoolRoleAccounts","inputs":[{"name":"pool","type":"address","internalType":"address"}],"outputs":[{"name":"","type":"tuple","internalType":"struct PoolRoleAccounts","components":[{"name":"pauseManager","type":"address","internalType":"address"},{"name":"swapFeeManager","type":"address","internalType":"address"},{"name":"poolCreator","type":"address","internalType":"address"}]}],"stateMutability":"view"},{"type":"function","name":"getPoolTokenInfo","inputs":[{"name":"pool","type":"address","internalType":"address"}],"outputs":[{"name":"tokens","type":"address[]","internalType":"contract IERC20[]"},{"name":"tokenInfo","type":"tuple[]","internalType":"struct TokenInfo[]","components":[{"name":"tokenType","type":"uint8","internalType":"enum TokenType"},{"name":"rateProvider","type":"address","internalType":"contract IRateProvider"},{"name":"paysYieldFees","type":"bool","internalType":"bool"}]},{"name":"balancesRaw","type":"uint256[]","internalType":"uint256[]"},{"name":"lastBalancesLiveScaled18","type":"uint256[]","internalType":"uint256[]"}],"stateMutability":"view"},{"type":"function","name":"getPoolTokenRates","inputs":[{"name":"pool","type":"address","internalType":"address"}],"outputs":[{"name":"decimalScalingFactors","type":"uint256[]","internalType":"uint256[]"},{"name":"tokenRates","type":"uint256[]","internalType":"uint256[]"}],"stateMutability":"view"},{"type":"function","name":"getPoolTokens","inputs":[{"name":"pool","type":"address","internalType":"address"}],"outputs":[{"name":"tokens","type":"address[]","internalType":"contract IERC20[]"}],"stateMutability":"view"},{"type":"function","name":"getProtocolFeeController","inputs":[],"outputs":[{"name":"","type":"address","internalType":"contract IProtocolFeeController"}],"stateMutability":"view"},{"type":"function","name":"getReservesOf","inputs":[{"name":"token","type":"address","internalType":"contract IERC20"}],"outputs":[{"name":"","type":"uint256","internalType":"uint256"}],"stateMutability":"view"},{"type":"function","name":"getStaticSwapFeePercentage","inputs":[{"name":"pool","type":"address","internalType":"address"}],"outputs":[{"name":"","type":"uint256","internalType":"uint256"}],"stateMutability":"view"},{"type":"function","name":"getTokenDelta","inputs":[{"name":"token","type":"address","internalType":"contract IERC20"}],"outputs":[{"name":"","type":"int256","internalType":"int256"}],"stateMutability":"view"},{"type":"function","name":"getVaultAdmin","inputs":[],"outputs":[{"name":"","type":"address","internalType":"address"}],"stateMutability":"view"},{"type":"function","name":"initialize","inputs":[{"name":"pool","type":"address","internalType":"address"},{"name":"to","type":"address","internalType":"address"},{"name":"tokens","type":"address[]","internalType":"contract IERC20[]"},{"name":"exactAmountsIn","type":"uint256[]","internalType":"uint256[]"},{"name":"minBptAmountOut","type":"uint256","internalType":"uint256"},{"name":"userData","type":"bytes","internalType":"bytes"}],"outputs":[{"name":"bptAmountOut","type":"uint256","internalType":"uint256"}],"stateMutability":"nonpayable"},{"type":"function","name":"isERC4626BufferInitialized","inputs":[{"name":"wrappedToken","type":"address","internalType":"contract IERC4626"}],"outputs":[{"name":"","type":"bool","internalType":"bool"}],"stateMutability":"view"},{"type":"function","name":"isPoolInRecoveryMode","inputs":[{"name":"pool","type":"address","internalType":"address"}],"outputs":[{"name":"","type":"bool","internalType":"bool"}],"stateMutability":"view"},{"type":"function","name":"isPoolInitialized","inputs":[{"name":"pool","type":"address","internalType":"address"}],"outputs":[{"name":"","type":"bool","internalType":"bool"}],"stateMutability":"view"},{"type":"function","name":"isPoolPaused","inputs":[{"name":"pool","type":"address","internalType":"address"}],"outputs":[{"name":"","type":"bool","internalType":"bool"}],"stateMutability":"view"},{"type":"function","name":"isPoolRegistered","inputs":[{"name":"pool","type":"address","internalType":"address"}],"outputs":[{"name":"","type":"bool","internalType":"bool"}],"stateMutability":"view"},{"type":"function","name":"isQueryDisabled","inputs":[],"outputs":[{"name":"","type":"bool","internalType":"bool"}],"stateMutability":"view"},{"type":"function","name":"isUnlocked","inputs":[],"outputs":[{"name":"","type":"bool","internalType":"bool"}],"stateMutability":"view"},{"type":"function","name":"manualInitializePoolReentrancy","inputs":[{"name":"pool","type":"address","internalType":"address"},{"name":"to","type":"address","internalType":"address"},{"name":"tokens","type":"address[]","internalType":"contract IERC20[]"},{"name":"exactAmountsIn","type":"uint256[]","internalType":"uint256[]"},{"name":"minBptAmountOut","type":"uint256","internalType":"uint256"},{"name":"userData","type":"bytes","internalType":"bytes"}],"outputs":[],"stateMutability":"nonpayable"},{"type":"function","name":"manualRegisterPoolReentrancy","inputs":[{"name":"pool","type":"address","internalType":"address"},{"name":"tokenConfig","type":"tuple[]","internalType":"struct TokenConfig[]","components":[{"name":"token","type":"address","internalType":"contract IERC20"},{"name":"tokenType","type":"uint8","internalType":"enum TokenType"},{"name":"rateProvider","type":"address","internalType":"contract IRateProvider"},{"name":"paysYieldFees","type":"bool","internalType":"bool"}]},{"name":"swapFeePercentage","type":"uint256","internalType":"uint256"},{"name":"pauseWindowEndTime","type":"uint32","internalType":"uint32"},{"name":"protocolFeeExempt","type":"bool","internalType":"bool"},{"name":"roleAccounts","type":"tuple","internalType":"struct PoolRoleAccounts","components":[{"name":"pauseManager","type":"address","internalType":"address"},{"name":"swapFeeManager","type":"address","internalType":"address"},{"name":"poolCreator","type":"address","internalType":"address"}]},{"name":"poolHooksContract","type":"address","internalType":"address"},{"name":"liquidityManagement","type":"tuple","internalType":"struct LiquidityManagement","components":[{"name":"disableUnbalancedLiquidity","type":"bool","internalType":"bool"},{"name":"enableAddLiquidityCustom","type":"bool","internalType":"bool"},{"name":"enableRemoveLiquidityCustom","type":"bool","internalType":"bool"},{"name":"enableDonation","type":"bool","internalType":"bool"}]}],"outputs":[],"stateMutability":"nonpayable"},{"type":"function","name":"manuallySetSwapFee","inputs":[{"name":"pool","type":"address","internalType":"address"},{"name":"newSwapFee","type":"uint256","internalType":"uint256"}],"outputs":[],"stateMutability":"nonpayable"},{"type":"function","name":"mockExtensionHash","inputs":[{"name":"input","type":"bytes","internalType":"bytes"}],"outputs":[{"name":"","type":"bytes32","internalType":"bytes32"}],"stateMutability":"payable"},{"type":"function","name":"quote","inputs":[{"name":"data","type":"bytes","internalType":"bytes"}],"outputs":[{"name":"result","type":"bytes","internalType":"bytes"}],"stateMutability":"nonpayable"},{"type":"function","name":"quoteAndRevert","inputs":[{"name":"data","type":"bytes","internalType":"bytes"}],"outputs":[],"stateMutability":"nonpayable"},{"type":"function","name":"reentrancyGuardEntered","inputs":[],"outputs":[{"name":"","type":"bool","internalType":"bool"}],"stateMutability":"view"},{"type":"function","name":"registerPool","inputs":[{"name":"pool","type":"address","internalType":"address"},{"name":"tokenConfig","type":"tuple[]","internalType":"struct TokenConfig[]","components":[{"name":"token","type":"address","internalType":"contract IERC20"},{"name":"tokenType","type":"uint8","internalType":"enum TokenType"},{"name":"rateProvider","type":"address","internalType":"contract IRateProvider"},{"name":"paysYieldFees","type":"bool","internalType":"bool"}]},{"name":"swapFeePercentage","type":"uint256","internalType":"uint256"},{"name":"pauseWindowEndTime","type":"uint32","internalType":"uint32"},{"name":"protocolFeeExempt","type":"bool","internalType":"bool"},{"name":"roleAccounts","type":"tuple","internalType":"struct PoolRoleAccounts","components":[{"name":"pauseManager","type":"address","internalType":"address"},{"name":"swapFeeManager","type":"address","internalType":"address"},{"name":"poolCreator","type":"address","internalType":"address"}]},{"name":"poolHooksContract","type":"address","internalType":"address"},{"name":"liquidityManagement","type":"tuple","internalType":"struct LiquidityManagement","components":[{"name":"disableUnbalancedLiquidity","type":"bool","internalType":"bool"},{"name":"enableAddLiquidityCustom","type":"bool","internalType":"bool"},{"name":"enableRemoveLiquidityCustom","type":"bool","internalType":"bool"},{"name":"enableDonation","type":"bool","internalType":"bool"}]}],"outputs":[],"stateMutability":"nonpayable"},{"type":"function","name":"removeLiquidityRecovery","inputs":[{"name":"pool","type":"address","internalType":"address"},{"name":"from","type":"address","internalType":"address"},{"name":"exactBptAmountIn","type":"uint256","internalType":"uint256"}],"outputs":[{"name":"amountsOutRaw","type":"uint256[]","internalType":"uint256[]"}],"stateMutability":"nonpayable"},{"type":"function","name":"totalSupply","inputs":[{"name":"token","type":"address","internalType":"address"}],"outputs":[{"name":"","type":"uint256","internalType":"uint256"}],"stateMutability":"view"},{"type":"function","name":"transfer","inputs":[{"name":"owner","type":"address","internalType":"address"},{"name":"to","type":"address","internalType":"address"},{"name":"amount","type":"uint256","internalType":"uint256"}],"outputs":[{"name":"","type":"bool","internalType":"bool"}],"stateMutability":"nonpayable"},{"type":"function","name":"transferFrom","inputs":[{"name":"spender","type":"address","internalType":"address"},{"name":"from","type":"address","internalType":"address"},{"name":"to","type":"address","internalType":"address"},{"name":"amount","type":"uint256","internalType":"uint256"}],"outputs":[{"name":"","type":"bool","internalType":"bool"}],"stateMutability":"nonpayable"},{"type":"function","name":"vault","inputs":[],"outputs":[{"name":"","type":"address","internalType":"contract IVault"}],"stateMutability":"view"},{"type":"event","name":"AggregateSwapFeePercentageChanged","inputs":[{"name":"pool","type":"address","indexed":true,"internalType":"address"},{"name":"aggregateSwapFeePercentage","type":"uint256","indexed":false,"internalType":"uint256"}],"anonymous":false},{"type":"event","name":"AggregateYieldFeePercentageChanged","inputs":[{"name":"pool","type":"address","indexed":true,"internalType":"address"},{"name":"aggregateYieldFeePercentage","type":"uint256","indexed":false,"internalType":"uint256"}],"anonymous":false},{"type":"event","name":"Approval","inputs":[{"name":"pool","type":"address","indexed":true,"internalType":"address"},{"name":"owner","type":"address","indexed":true,"internalType":"address"},{"name":"spender","type":"address","indexed":true,"internalType":"address"},{"name":"value","type":"uint256","indexed":false,"internalType":"uint256"}],"anonymous":false},{"type":"event","name":"AuthorizerChanged","inputs":[{"name":"newAuthorizer","type":"address","indexed":true,"internalType":"contract IAuthorizer"}],"anonymous":false},{"type":"event","name":"BufferSharesBurned","inputs":[{"name":"wrappedToken","type":"address","indexed":true,"internalType":"contract IERC4626"},{"name":"from","type":"address","indexed":true,"internalType":"address"},{"name":"burnedShares","type":"uint256","indexed":false,"internalType":"uint256"}],"anonymous":false},{"type":"event","name":"BufferSharesMinted","inputs":[{"name":"wrappedToken","type":"address","indexed":true,"internalType":"contract IERC4626"},{"name":"to","type":"address","indexed":true,"internalType":"address"},{"name":"issuedShares","type":"uint256","indexed":false,"internalType":"uint256"}],"anonymous":false},{"type":"event","name":"LiquidityAddedToBuffer","inputs":[{"name":"wrappedToken","type":"address","indexed":true,"internalType":"contract IERC4626"},{"name":"amountUnderlying","type":"uint256","indexed":false,"internalType":"uint256"},{"name":"amountWrapped","type":"uint256","indexed":false,"internalType":"uint256"}],"anonymous":false},{"type":"event","name":"LiquidityRemovedFromBuffer","inputs":[{"name":"wrappedToken","type":"address","indexed":true,"internalType":"contract IERC4626"},{"name":"amountUnderlying","type":"uint256","indexed":false,"internalType":"uint256"},{"name":"amountWrapped","type":"uint256","indexed":false,"internalType":"uint256"}],"anonymous":false},{"type":"event","name":"PoolBalanceChanged","inputs":[{"name":"pool","type":"address","indexed":true,"internalType":"address"},{"name":"liquidityProvider","type":"address","indexed":true,"internalType":"address"},{"name":"totalSupply","type":"uint256","indexed":false,"internalType":"uint256"},{"name":"deltas","type":"int256[]","indexed":false,"internalType":"int256[]"},{"name":"swapFeeAmountsRaw","type":"uint256[]","indexed":false,"internalType":"uint256[]"}],"anonymous":false},{"type":"event","name":"PoolInitialized","inputs":[{"name":"pool","type":"address","indexed":true,"internalType":"address"}],"anonymous":false},{"type":"event","name":"PoolPausedStateChanged","inputs":[{"name":"pool","type":"address","indexed":true,"internalType":"address"},{"name":"paused","type":"bool","indexed":false,"internalType":"bool"}],"anonymous":false},{"type":"event","name":"PoolRecoveryModeStateChanged","inputs":[{"name":"pool","type":"address","indexed":true,"internalType":"address"},{"name":"recoveryMode","type":"bool","indexed":false,"internalType":"bool"}],"anonymous":false},{"type":"event","name":"PoolRegistered","inputs":[{"name":"pool","type":"address","indexed":true,"internalType":"address"},{"name":"factory","type":"address","indexed":true,"internalType":"address"},{"name":"tokenConfig","type":"tuple[]","indexed":false,"internalType":"struct TokenConfig[]","components":[{"name":"token","type":"address","internalType":"contract IERC20"},{"name":"tokenType","type":"uint8","internalType":"enum TokenType"},{"name":"rateProvider","type":"address","internalType":"contract IRateProvider"},{"name":"paysYieldFees","type":"bool","internalType":"bool"}]},{"name":"swapFeePercentage","type":"uint256","indexed":false,"internalType":"uint256"},{"name":"pauseWindowEndTime","type":"uint32","indexed":false,"internalType":"uint32"},{"name":"roleAccounts","type":"tuple","indexed":false,"internalType":"struct PoolRoleAccounts","components":[{"name":"pauseManager","type":"address","internalType":"address"},{"name":"swapFeeManager","type":"address","internalType":"address"},{"name":"poolCreator","type":"address","internalType":"address"}]},{"name":"hooksConfig","type":"tuple","indexed":false,"internalType":"struct HooksConfig","components":[{"name":"enableHookAdjustedAmounts","type":"bool","internalType":"bool"},{"name":"shouldCallBeforeInitialize","type":"bool","internalType":"bool"},{"name":"shouldCallAfterInitialize","type":"bool","internalType":"bool"},{"name":"shouldCallComputeDynamicSwapFee","type":"bool","internalType":"bool"},{"name":"shouldCallBeforeSwap","type":"bool","internalType":"bool"},{"name":"shouldCallAfterSwap","type":"bool","internalType":"bool"},{"name":"shouldCallBeforeAddLiquidity","type":"bool","internalType":"bool"},{"name":"shouldCallAfterAddLiquidity","type":"bool","internalType":"bool"},{"name":"shouldCallBeforeRemoveLiquidity","type":"bool","internalType":"bool"},{"name":"shouldCallAfterRemoveLiquidity","type":"bool","internalType":"bool"},{"name":"hooksContract","type":"address","internalType":"address"}]},{"name":"liquidityManagement","type":"tuple","indexed":false,"internalType":"struct LiquidityManagement","components":[{"name":"disableUnbalancedLiquidity","type":"bool","internalType":"bool"},{"name":"enableAddLiquidityCustom","type":"bool","internalType":"bool"},{"name":"enableRemoveLiquidityCustom","type":"bool","internalType":"bool"},{"name":"enableDonation","type":"bool","internalType":"bool"}]}],"anonymous":false},{"type":"event","name":"ProtocolFeeControllerChanged","inputs":[{"name":"newProtocolFeeController","type":"address","indexed":true,"internalType":"contract IProtocolFeeController"}],"anonymous":false},{"type":"event","name":"Swap","inputs":[{"name":"pool","type":"address","indexed":true,"internalType":"address"},{"name":"tokenIn","type":"address","indexed":true,"internalType":"contract IERC20"},{"name":"tokenOut","type":"address","indexed":true,"internalType":"contract IERC20"},{"name":"amountIn","type":"uint256","indexed":false,"internalType":"uint256"},{"name":"amountOut","type":"uint256","indexed":false,"internalType":"uint256"},{"name":"swapFeePercentage","type":"uint256","indexed":false,"internalType":"uint256"},{"name":"swapFeeAmount","type":"uint256","indexed":false,"internalType":"uint256"}],"anonymous":false},{"type":"event","name":"SwapFeePercentageChanged","inputs":[{"name":"pool","type":"address","indexed":true,"internalType":"address"},{"name":"swapFeePercentage","type":"uint256","indexed":false,"internalType":"uint256"}],"anonymous":false},{"type":"event","name":"Transfer","inputs":[{"name":"pool","type":"address","indexed":true,"internalType":"address"},{"name":"from","type":"address","indexed":true,"internalType":"address"},{"name":"to","type":"address","indexed":true,"internalType":"address"},{"name":"value","type":"uint256","indexed":false,"internalType":"uint256"}],"anonymous":false},{"type":"event","name":"Unwrap","inputs":[{"name":"wrappedToken","type":"address","indexed":true,"internalType":"contract IERC4626"},{"name":"underlyingToken","type":"address","indexed":true,"internalType":"contract IERC20"},{"name":"burnedShares","type":"uint256","indexed":false,"internalType":"uint256"},{"name":"withdrawnUnderlying","type":"uint256","indexed":false,"internalType":"uint256"}],"anonymous":false},{"type":"event","name":"VaultBuffersPausedStateChanged","inputs":[{"name":"paused","type":"bool","indexed":false,"internalType":"bool"}],"anonymous":false},{"type":"event","name":"VaultPausedStateChanged","inputs":[{"name":"paused","type":"bool","indexed":false,"internalType":"bool"}],"anonymous":false},{"type":"event","name":"VaultQueriesDisabled","inputs":[],"anonymous":false},{"type":"event","name":"Wrap","inputs":[{"name":"underlyingToken","type":"address","indexed":true,"internalType":"contract IERC20"},{"name":"wrappedToken","type":"address","indexed":true,"internalType":"contract IERC4626"},{"name":"depositedUnderlying","type":"uint256","indexed":false,"internalType":"uint256"},{"name":"mintedShares","type":"uint256","indexed":false,"internalType":"uint256"}],"anonymous":false},{"type":"error","name":"AddressEmptyCode","inputs":[{"name":"target","type":"address","internalType":"address"}]},{"type":"error","name":"AfterAddLiquidityHookFailed","inputs":[]},{"type":"error","name":"AfterInitializeHookFailed","inputs":[]},{"type":"error","name":"AfterRemoveLiquidityHookFailed","inputs":[]},{"type":"error","name":"AfterSwapHookFailed","inputs":[]},{"type":"error","name":"AmountGivenZero","inputs":[]},{"type":"error","name":"AmountInAboveMax","inputs":[{"name":"tokenIn","type":"address","internalType":"contract IERC20"},{"name":"amountIn","type":"uint256","internalType":"uint256"},{"name":"maxAmountIn","type":"uint256","internalType":"uint256"}]},{"type":"error","name":"AmountOutBelowMin","inputs":[{"name":"tokenOut","type":"address","internalType":"contract IERC20"},{"name":"amountOut","type":"uint256","internalType":"uint256"},{"name":"minAmountOut","type":"uint256","internalType":"uint256"}]},{"type":"error","name":"BalanceNotSettled","inputs":[]},{"type":"error","name":"BalanceOverflow","inputs":[]},{"type":"error","name":"BeforeAddLiquidityHookFailed","inputs":[]},{"type":"error","name":"BeforeInitializeHookFailed","inputs":[]},{"type":"error","name":"BeforeRemoveLiquidityHookFailed","inputs":[]},{"type":"error","name":"BeforeSwapHookFailed","inputs":[]},{"type":"error","name":"BptAmountInAboveMax","inputs":[{"name":"amountIn","type":"uint256","internalType":"uint256"},{"name":"maxAmountIn","type":"uint256","internalType":"uint256"}]},{"type":"error","name":"BptAmountOutBelowMin","inputs":[{"name":"amountOut","type":"uint256","internalType":"uint256"},{"name":"minAmountOut","type":"uint256","internalType":"uint256"}]},{"type":"error","name":"BufferAlreadyInitialized","inputs":[{"name":"wrappedToken","type":"address","internalType":"contract IERC4626"}]},{"type":"error","name":"BufferNotInitialized","inputs":[{"name":"wrappedToken","type":"address","internalType":"contract IERC4626"}]},{"type":"error","name":"BufferSharesInvalidOwner","inputs":[]},{"type":"error","name":"BufferSharesInvalidReceiver","inputs":[]},{"type":"error","name":"BufferTotalSupplyTooLow","inputs":[{"name":"totalSupply","type":"uint256","internalType":"uint256"}]},{"type":"error","name":"CannotReceiveEth","inputs":[]},{"type":"error","name":"CannotSwapSameToken","inputs":[]},{"type":"error","name":"CodecOverflow","inputs":[]},{"type":"error","name":"DoesNotSupportAddLiquidityCustom","inputs":[]},{"type":"error","name":"DoesNotSupportDonation","inputs":[]},{"type":"error","name":"DoesNotSupportRemoveLiquidityCustom","inputs":[]},{"type":"error","name":"DoesNotSupportUnbalancedLiquidity","inputs":[]},{"type":"error","name":"DynamicSwapFeeHookFailed","inputs":[]},{"type":"error","name":"ERC20InsufficientAllowance","inputs":[{"name":"spender","type":"address","internalType":"address"},{"name":"allowance","type":"uint256","internalType":"uint256"},{"name":"needed","type":"uint256","internalType":"uint256"}]},{"type":"error","name":"ERC20InsufficientBalance","inputs":[{"name":"sender","type":"address","internalType":"address"},{"name":"balance","type":"uint256","internalType":"uint256"},{"name":"needed","type":"uint256","internalType":"uint256"}]},{"type":"error","name":"ERC20InvalidApprover","inputs":[{"name":"approver","type":"address","internalType":"address"}]},{"type":"error","name":"ERC20InvalidReceiver","inputs":[{"name":"receiver","type":"address","internalType":"address"}]},{"type":"error","name":"ERC20InvalidSender","inputs":[{"name":"sender","type":"address","internalType":"address"}]},{"type":"error","name":"ERC20InvalidSpender","inputs":[{"name":"spender","type":"address","internalType":"address"}]},{"type":"error","name":"ErrorSelectorNotFound","inputs":[]},{"type":"error","name":"FailedCall","inputs":[]},{"type":"error","name":"FeePrecisionTooHigh","inputs":[]},{"type":"error","name":"HookAdjustedAmountInAboveMax","inputs":[{"name":"tokenIn","type":"address","internalType":"contract IERC20"},{"name":"amountIn","type":"uint256","internalType":"uint256"},{"name":"maxAmountIn","type":"uint256","internalType":"uint256"}]},{"type":"error","name":"HookAdjustedAmountOutBelowMin","inputs":[{"name":"tokenOut","type":"address","internalType":"contract IERC20"},{"name":"amountOut","type":"uint256","internalType":"uint256"},{"name":"minAmountOut","type":"uint256","internalType":"uint256"}]},{"type":"error","name":"HookAdjustedSwapLimit","inputs":[{"name":"amount","type":"uint256","internalType":"uint256"},{"name":"limit","type":"uint256","internalType":"uint256"}]},{"type":"error","name":"HookRegistrationFailed","inputs":[{"name":"poolHooksContract","type":"address","internalType":"address"},{"name":"pool","type":"address","internalType":"address"},{"name":"poolFactory","type":"address","internalType":"address"}]},{"type":"error","name":"InputLengthMismatch","inputs":[]},{"type":"error","name":"InsufficientBalance","inputs":[{"name":"balance","type":"uint256","internalType":"uint256"},{"name":"needed","type":"uint256","internalType":"uint256"}]},{"type":"error","name":"InvalidAddLiquidityKind","inputs":[]},{"type":"error","name":"InvalidRemoveLiquidityKind","inputs":[]},{"type":"error","name":"InvalidToken","inputs":[]},{"type":"error","name":"InvalidTokenConfiguration","inputs":[]},{"type":"error","name":"InvalidTokenType","inputs":[]},{"type":"error","name":"InvalidUnderlyingToken","inputs":[{"name":"wrappedToken","type":"address","internalType":"contract IERC4626"}]},{"type":"error","name":"MaxTokens","inputs":[]},{"type":"error","name":"MinTokens","inputs":[]},{"type":"error","name":"NotEnoughBufferShares","inputs":[]},{"type":"error","name":"NotEnoughUnderlying","inputs":[{"name":"wrappedToken","type":"address","internalType":"contract IERC4626"},{"name":"expectedUnderlyingAmount","type":"uint256","internalType":"uint256"},{"name":"actualUnderlyingAmount","type":"uint256","internalType":"uint256"}]},{"type":"error","name":"NotEnoughWrapped","inputs":[{"name":"wrappedToken","type":"address","internalType":"contract IERC4626"},{"name":"expectedWrappedAmount","type":"uint256","internalType":"uint256"},{"name":"actualWrappedAmount","type":"uint256","internalType":"uint256"}]},{"type":"error","name":"NotStaticCall","inputs":[]},{"type":"error","name":"NotVaultDelegateCall","inputs":[]},{"type":"error","name":"OutOfBounds","inputs":[]},{"type":"error","name":"PauseBufferPeriodDurationTooLarge","inputs":[]},{"type":"error","name":"PercentageAboveMax","inputs":[]},{"type":"error","name":"PoolAlreadyInitialized","inputs":[{"name":"pool","type":"address","internalType":"address"}]},{"type":"error","name":"PoolAlreadyRegistered","inputs":[{"name":"pool","type":"address","internalType":"address"}]},{"type":"error","name":"PoolInRecoveryMode","inputs":[{"name":"pool","type":"address","internalType":"address"}]},{"type":"error","name":"PoolNotInRecoveryMode","inputs":[{"name":"pool","type":"address","internalType":"address"}]},{"type":"error","name":"PoolNotInitialized","inputs":[{"name":"pool","type":"address","internalType":"address"}]},{"type":"error","name":"PoolNotPaused","inputs":[{"name":"pool","type":"address","internalType":"address"}]},{"type":"error","name":"PoolNotRegistered","inputs":[{"name":"pool","type":"address","internalType":"address"}]},{"type":"error","name":"PoolPauseWindowExpired","inputs":[{"name":"pool","type":"address","internalType":"address"}]},{"type":"error","name":"PoolPaused","inputs":[{"name":"pool","type":"address","internalType":"address"}]},{"type":"error","name":"PoolTotalSupplyTooLow","inputs":[{"name":"totalSupply","type":"uint256","internalType":"uint256"}]},{"type":"error","name":"ProtocolFeesExceedTotalCollected","inputs":[]},{"type":"error","name":"QueriesDisabled","inputs":[]},{"type":"error","name":"QuoteResultSpoofed","inputs":[]},{"type":"error","name":"ReentrancyGuardReentrantCall","inputs":[]},{"type":"error","name":"Result","inputs":[{"name":"result","type":"bytes","internalType":"bytes"}]},{"type":"error","name":"RouterNotTrusted","inputs":[]},{"type":"error","name":"SafeCastOverflowedUintToInt","inputs":[{"name":"value","type":"uint256","internalType":"uint256"}]},{"type":"error","name":"SenderIsNotVault","inputs":[{"name":"sender","type":"address","internalType":"address"}]},{"type":"error","name":"SwapFeePercentageTooHigh","inputs":[]},{"type":"error","name":"SwapFeePercentageTooLow","inputs":[]},{"type":"error","name":"SwapLimit","inputs":[{"name":"amount","type":"uint256","internalType":"uint256"},{"name":"limit","type":"uint256","internalType":"uint256"}]},{"type":"error","name":"TokenAlreadyRegistered","inputs":[{"name":"token","type":"address","internalType":"contract IERC20"}]},{"type":"error","name":"TokenNotRegistered","inputs":[{"name":"token","type":"address","internalType":"contract IERC20"}]},{"type":"error","name":"TokensMismatch","inputs":[{"name":"pool","type":"address","internalType":"address"},{"name":"expectedToken","type":"address","internalType":"address"},{"name":"actualToken","type":"address","internalType":"address"}]},{"type":"error","name":"TokensNotSorted","inputs":[]},{"type":"error","name":"TradeAmountTooSmall","inputs":[]},{"type":"error","name":"VaultBuffersArePaused","inputs":[]},{"type":"error","name":"VaultIsNotUnlocked","inputs":[]},{"type":"error","name":"VaultNotPaused","inputs":[]},{"type":"error","name":"VaultPauseWindowDurationTooLarge","inputs":[]},{"type":"error","name":"VaultPauseWindowExpired","inputs":[]},{"type":"error","name":"VaultPaused","inputs":[]},{"type":"error","name":"WrapAmountTooSmall","inputs":[{"name":"wrappedToken","type":"address","internalType":"contract IERC4626"}]},{"type":"error","name":"WrongProtocolFeeControllerDeployment","inputs":[]},{"type":"error","name":"WrongUnderlyingToken","inputs":[{"name":"wrappedToken","type":"address","internalType":"contract IERC4626"},{"name":"underlyingToken","type":"address","internalType":"address"}]},{"type":"error","name":"WrongVaultAdminDeployment","inputs":[]},{"type":"error","name":"WrongVaultExtensionDeployment","inputs":[]}],"bytecode":{"object":"0x610220604052600a6101e0908152691a5cd55b9b1bd8dad95960b21b610200526200002a906200030a565b60c0526040805180820190915260118152701b9bdb96995c9bd1195b1d1850dbdd5b9d607a1b602082015262000060906200030a565b60e05260408051808201909152600b81526a746f6b656e44656c74617360a81b602082015262000090906200030a565b61010052604080518082019091526012815271185919131a5c5d5a591a5d1e50d85b1b195960721b6020820152620000c8906200030a565b61012052348015620000d8575f80fd5b50604051620077b4380380620077b4833981016040819052620000fb91620003d2565b8181816001600160a01b0316816001600160a01b031663fbfa77cf6040518163ffffffff1660e01b8152600401602060405180830381865afa15801562000144573d5f803e3d5ffd5b505050506040513d601f19601f820116820180604052508101906200016a91906200040f565b6001600160a01b0316146200019257604051634166145b60e11b815260040160405180910390fd5b806001600160a01b0316638a8d123a6040518163ffffffff1660e01b8152600401602060405180830381865afa158015620001cf573d5f803e3d5ffd5b505050506040513d601f19601f82011682018060405250810190620001f5919062000434565b63ffffffff166101408163ffffffff1681525050806001600160a01b03166320c1fb7a6040518163ffffffff1660e01b8152600401602060405180830381865afa15801562000246573d5f803e3d5ffd5b505050506040513d601f19601f820116820180604052508101906200026c919062000434565b63ffffffff166101808163ffffffff1681525050806001600160a01b031663cd51c12f6040518163ffffffff1660e01b8152600401602060405180830381865afa158015620002bd573d5f803e3d5ffd5b505050506040513d601f19601f82011682018060405250810190620002e3919062000434565b63ffffffff16610160526001600160a01b039182166101a052166101c05250620004fa9050565b5f6200034160405180604001604052600c8152806020016b5661756c7453746f7261676560a01b815250836200034760201b60201c565b92915050565b5f60ff5f1b19600184846040516020016200036492919062000488565b604051602081830303815290604052805190602001205f1c620003889190620004da565b6040516020016200039b91815260200190565b6040516020818303038152906040528051906020012016905092915050565b6001600160a01b0381168114620003cf575f80fd5b50565b5f8060408385031215620003e4575f80fd5b8251620003f181620003ba565b60208401519092506200040481620003ba565b809150509250929050565b5f6020828403121562000420575f80fd5b81516200042d81620003ba565b9392505050565b5f6020828403121562000445575f80fd5b815163ffffffff811681146200042d575f80fd5b5f81515f5b818110156200047a57602081850181015186830152016200045e565b505f93019283525090919050565b7f62616c616e6365722d6c6162732e76332e73746f726167652e0000000000000081525f620004bb601983018562000459565b601760f91b8152620004d1600182018562000459565b95945050505050565b818103818111156200034157634e487b7160e01b5f52601160045260245ffd5b60805160a05160c05160e05161010051610120516101405161016051610180516101a0516101c05161720a620005aa5f395f8181610422015261097301525f818161094a0152611f9f01525f8181610aa0015261233a01525f6152e101525f50505f61180901525f81816117d401528181614c220152614cbf01525f8181611b7d01528181614c610152614c9601525f8181611703015281816123760152612bed01525f50505f505061720a5ff3fe6080604052600436106102e9575f3560e01c80639678709211610183578063d2c725e0116100d5578063e9ddeb2611610089578063f29486a111610063578063f29486a1146108f1578063f7888aec1461091d578063fbfa77cf1461093c57610307565b8063e9ddeb261461087a578063edfa3568146108a6578063eeec802f146108d257610307565b8063e1f21c67116100ba578063e1f21c671461081d578063e4dc2aa41461083c578063e68010c61461085b57610307565b8063d2c725e0146107d6578063db8171871461080957610307565b8063ba8a2be011610137578063c673bdaf11610111578063c673bdaf1461075f578063ca4f28031461077e578063ce8630d4146107aa57610307565b8063ba8a2be014610702578063be7d628a14610721578063beabacc81461074057610307565b8063ace9b89b11610168578063ace9b89b146106b0578063b45090f9146106cf578063b4aef0ab146106ee57610307565b806396787092146106725780639e825ff51461069157610307565b806367e0e0761161023c5780637e361bde116101f057806385e0b999116101ca57806385e0b9991461062057806385f2dbd41461063f578063927da1051461065357610307565b80637e361bde146105c0578063809846d1146105ed5780638380edb71461060c57610307565b80636c9bc732116102215780636c9bc732146105635780637060008914610582578063757d64b3146105a157610307565b806367e0e076146105155780636844846b1461054457610307565b80633a2d133b1161029e578063532cec7c11610278578063532cec7c146104c4578063535cfd8a146104e3578063590e81451461050257610307565b80633a2d133b1461045a5780634d472bdd146104865780634f037ee7146104a557610307565b806315dacbea116102cf57806315dacbea1461038e57806315e32046146103bd5780631ba0ae451461041457610307565b8062fdfa131461033057806313d21cdf1461036257610307565b3661030757604051637911c44b60e11b815260040160405180910390fd5b341561032657604051637911c44b60e11b815260040160405180910390fd5b61032e61096e565b005b34801561033b575f80fd5b5061034f61034a366004615d37565b610999565b6040519081526020015b60405180910390f35b34801561036d575f80fd5b5061038161037c366004615d6e565b6109df565b6040516103599190615e93565b348015610399575f80fd5b506103ad6103a8366004615f4c565b610a47565b6040519015158152602001610359565b3480156103c8575f80fd5b506103dc6103d7366004615d6e565b610a73565b6040516103599493929190931515845263ffffffff9283166020850152911660408301526001600160a01b0316606082015260800190565b34801561041f575f80fd5b507f00000000000000000000000000000000000000000000000000000000000000005b6040516001600160a01b039091168152602001610359565b348015610465575f80fd5b50610479610474366004615f9a565b610af8565b6040516103599190615fd8565b348015610491575f80fd5b5061034f6104a03660046161a6565b610e4b565b3480156104b0575f80fd5b5061034f6104bf366004615d6e565b610ead565b3480156104cf575f80fd5b506103ad6104de366004615d6e565b610f74565b3480156104ee575f80fd5b506104796104fd366004615d6e565b610f90565b61034f610510366004616286565b610fba565b348015610520575f80fd5b5061053461052f366004615d6e565b610fdc565b60405161035994939291906162f2565b34801561054f575f80fd5b506103ad61055e366004615d6e565b6112a8565b34801561056e575f80fd5b506103ad61057d366004615d6e565b6112d4565b34801561058d575f80fd5b5061032e61059c366004616374565b6112f0565b3480156105ac575f80fd5b5061032e6105bb366004616286565b611331565b3480156105cb575f80fd5b506105df6105da366004615d6e565b611487565b60405161035992919061639e565b3480156105f8575f80fd5b5061032e6106073660046163c2565b611658565b348015610617575f80fd5b506103ad6116f7565b34801561062b575f80fd5b5061034f61063a366004615d37565b611726565b34801561064a575f80fd5b5061044261176c565b34801561065e575f80fd5b5061034f61066d3660046164cf565b611785565b34801561067d575f80fd5b5061034f61068c366004615d6e565b6117a1565b34801561069c575f80fd5b5061034f6106ab366004615d6e565b6117c5565b3480156106bb575f80fd5b506103ad6106ca366004615d6e565b6117fa565b3480156106da575f80fd5b5061034f6106e9366004615d6e565b61182d565b3480156106f9575f80fd5b506103ad611861565b34801561070d575f80fd5b5061034f61071c3660046163c2565b611875565b34801561072c575f80fd5b506103ad61073b366004615d6e565b611a04565b34801561074b575f80fd5b506103ad61075a366004615f9a565b611a20565b34801561076a575f80fd5b506103ad610779366004615d6e565b611a3f565b348015610789575f80fd5b5061079d610798366004615d6e565b611a51565b6040516103599190616517565b3480156107b5575f80fd5b506107c96107c4366004615d6e565b611ad7565b60405161035991906165ef565b3480156107e1575f80fd5b507f9b779b17422d0df92223018b32b4d1fa46e071723d6817e2486d003becc55f005c6103ad565b348015610814575f80fd5b5061034f611b71565b348015610828575f80fd5b506103ad610837366004615f9a565b611ba0565b348015610847575f80fd5b5061034f610856366004615d6e565b611bb5565b348015610866575f80fd5b5061032e610875366004616649565b611bdb565b348015610885575f80fd5b50610899610894366004615d6e565b611c6c565b60405161035991906167ab565b3480156108b1575f80fd5b506108c56108c0366004616286565b611ce1565b6040516103599190616828565b3480156108dd575f80fd5b5061032e6108ec366004616649565b611d34565b3480156108fc575f80fd5b5061091061090b366004615d6e565b611dbe565b604051610359919061683a565b348015610928575f80fd5b5061034f610937366004615d37565b611f44565b348015610947575f80fd5b507f0000000000000000000000000000000000000000000000000000000000000000610442565b6109977f0000000000000000000000000000000000000000000000000000000000000000611f77565b565b5f6109a2611f9a565b826109ac81611fcc565b6001600160a01b038481165f9081526006602090815260408083209387168352929052205460801c5b91505b5092915050565b610a216040518060e001604052805f80191681526020016060815260200160608152602001606081526020016060815260200160608152602001606081525090565b610a29611f9a565b81610a3381612019565b610a3e836001612063565b91505b50919050565b5f610a50611f9a565b610a5c338587856120e5565b610a683385858561215c565b506001949350505050565b5f805f80610a7f611f9a565b84610a8981611fcc565b5f80610a94886122fb565b90925090508181610ac57f000000000000000000000000000000000000000000000000000000000000000082616912565b6001600160a01b03808c165f90815260016020526040902054939a5091985096501693505050509193509193565b905090565b6060610b02611f9a565b610b0a612374565b610b126123d0565b83610b1c81612019565b84610b2681612456565b6001600160a01b0386165f908152600560209081526040808320600383528184208054835181860281018601909452808452919493909190830182828015610b9557602002820191905f5260205f20905b81546001600160a01b03168152600190910190602001808311610b77575b505050505090505f815190505f8167ffffffffffffffff811115610bbb57610bbb615fea565b604051908082528060200260200182016040528015610be4578160200160208202803683370190505b5090505f805b83811015610c2e575f818152602087905260409020546001600160801b0316838281518110610c1b57610c1b61692f565b6020908102919091010152600101610bea565b50610c5782610c518d6001600160a01b03165f9081526011602052604090205490565b8b6124a0565b97505f5b83811015610cea57610c9f858281518110610c7857610c7861692f565b60200260200101518a8381518110610c9257610c9261692f565b6020026020010151612550565b888181518110610cb157610cb161692f565b6020026020010151838281518110610ccb57610ccb61692f565b60200260200101818151610cdf9190616943565b905250600101610c5b565b506001600160a01b038b165f908152600560205260408120905b84811015610d6157815f8281526020019081526020015f20549250610d4b848281518110610d3457610d3461692f565b60200260200101518461256f90919063ffffffff16565b5f82815260208490526040902055600101610d04565b50610d6e8c8c338d6120e5565b610d76612583565b15610d8657610d868c8c8c61259e565b610d918c8c8c6125ff565b6001600160a01b038c81165f81815260116020526040902054918d16917f819ce5239144079a04a704c41f4e9453355703cfee6df6771b6835557967aa2090610dda8d5f61276b565b8867ffffffffffffffff811115610df357610df3615fea565b604051908082528060200260200182016040528015610e1c578160200160208202803683370190505b50604051610e2c93929190616956565b60405180910390a35050505050505050610e4461282b565b9392505050565b5f610e54611f9a565b82610e5e81612019565b6109d58385610e8e5f80896001600160a01b03166001600160a01b031681526020019081526020015f2054612855565b6001600160a01b038089165f908152600260205260409020541661293d565b5f610eb6611f9a565b81610ec081612019565b5f610ecc846001612063565b90505f846001600160a01b031663984de9e8836080015160016040518363ffffffff1660e01b8152600401610f029291906169b7565b602060405180830381865afa158015610f1d573d5f803e3d5ffd5b505050506040513d601f19601f82011682018060405250810190610f4191906169e1565b9050610f6b610f64866001600160a01b03165f9081526011602052604090205490565b8290612a21565b95945050505050565b5f610f7d611f9a565b81610f8781611fcc565b610a3e83612a41565b6060610f9a611f9a565b81610fa481611fcc565b610faf836001612063565b608001519392505050565b5f8282604051610fcb9291906169f8565b604051809103902090505b92915050565b606080606080610fea611f9a565b84610ff481611fcc565b6001600160a01b0386165f90815260056020908152604080832060038352928190208054825181850281018501909352808352919290919083018282801561106357602002820191905f5260205f20905b81546001600160a01b03168152600190910190602001808311611045575b50508351939950839250505067ffffffffffffffff81111561108757611087615fea565b6040519080825280602002602001820160405280156110d057816020015b604080516060810182525f80825260208083018290529282015282525f199092019101816110a55790505b5095508067ffffffffffffffff8111156110ec576110ec615fea565b604051908082528060200260200182016040528015611115578160200160208202803683370190505b5094508067ffffffffffffffff81111561113157611131615fea565b60405190808252806020026020018201604052801561115a578160200160208202803683370190505b5093505f5b8181101561129d575f81815260208481526040808320546001600160a01b038d168452600490925282208a51919290918b90859081106111a1576111a161692f565b6020908102919091018101516001600160a01b0316825281019190915260409081015f208151606081019092528054829060ff1660018111156111e6576111e6615dcc565b60018111156111f7576111f7615dcc565b8152905461010081046001600160a01b03166020830152600160a81b900460ff16151560409091015288518990849081106112345761123461692f565b602002602001018190525061124f816001600160801b031690565b8783815181106112615761126161692f565b6020026020010181815250506112778160801c90565b8683815181106112895761128961692f565b60209081029190910101525060010161115f565b505050509193509193565b5f6112b1611f9a565b506001600160a01b038181165f908152600e60205260409020541615155b919050565b5f6112dd611f9a565b816112e781611fcc565b610a3e83612a62565b6001600160a01b0382165f908152602081905260409020546113129082612a6d565b6001600160a01b039092165f9081526020819052604090209190915550565b611339612b7f565b611341611f9a565b5f80336001600160a01b0316848460405161135d9291906169f8565b5f604051808303815f865af19150503d805f8114611396576040519150601f19603f3d011682016040523d82523d5f602084013e61139b565b606091505b509150915081156113ef576113b1338383612c11565b50806040517f5ab64fb80000000000000000000000000000000000000000000000000000000081526004016113e69190616828565b60405180910390fd5b5f6113f982612c86565b90507fa549b048000000000000000000000000000000000000000000000000000000007fffffffff00000000000000000000000000000000000000000000000000000000821601611476576040517f28f9554100000000000000000000000000000000000000000000000000000000815260040160405180910390fd5b61147f82612cb2565b505b50505050565b606080611492611f9a565b8261149c81611fcc565b6001600160a01b0384165f908152602081815260408083205460038352818420805483518186028101860190945280845291949390919083018282801561150a57602002820191905f5260205f20905b81546001600160a01b031681526001909101906020018083116114ec575b505050505090505f815190506115208382612cdb565b95508067ffffffffffffffff81111561153b5761153b615fea565b604051908082528060200260200182016040528015611564578160200160208202803683370190505b5094505f5b8181101561164e576001600160a01b0388165f9081526004602052604081208451829086908590811061159e5761159e61692f565b6020908102919091018101516001600160a01b0316825281019190915260409081015f208151606081019092528054829060ff1660018111156115e3576115e3615dcc565b60018111156115f4576115f4615dcc565b8152905461010081046001600160a01b03166020830152600160a81b900460ff161515604090910152905061162881612da7565b87838151811061163a5761163a61692f565b602090810291909101015250600101611569565b5050505050915091565b6116606123d0565b6040517fba8a2be0000000000000000000000000000000000000000000000000000000008152309063ba8a2be0906116a690899089908990899089908990600401616a07565b6020604051808303815f875af11580156116c2573d5f803e3d5ffd5b505050506040513d601f19601f820116820180604052508101906116e691906169e1565b506116ef61282b565b505050505050565b5f611700611f9a565b507f00000000000000000000000000000000000000000000000000000000000000005c90565b5f61172f611f9a565b8261173981611fcc565b6001600160a01b038481165f908152600660209081526040808320938716835292905220546001600160801b03166109d5565b5f611775611f9a565b50600a546001600160a01b031690565b5f61178e611f9a565b611799848484612e70565b949350505050565b5f6117aa611f9a565b506001600160a01b03165f9081526008602052604090205490565b5f6117ce611f9a565b610fd6827f00000000000000000000000000000000000000000000000000000000000000005b90612ec7565b5f611803611f9a565b610fd6827f00000000000000000000000000000000000000000000000000000000000000006117f4565b5f611836611f9a565b8161184081611fcc565b6001600160a01b0383165f9081526020819052604090205461179981612855565b5f61186a611f9a565b610af3600754612eda565b5f61187e611f9a565b611886612374565b8661189081611fcc565b6118986123d0565b6118a188612ee4565b5f6118ad896001612063565b90506118bb815f0151612ef5565b156118fd576040517f218e37470000000000000000000000000000000000000000000000000000000081526001600160a01b038a1660048201526024016113e6565b6020810151518651611910908290612f10565b5f61192e8360c001518460a001518a612f309092919063ffffffff16565b905061193c835f0151613023565b156119a4576001600160a01b03808c165f9081526002602052604090205461196891839189911661307f565b6001600160a01b038b165f90815260056020526040902061198c9084906001613140565b60c083015160a08401516119a1918a91612f30565b90505b6119b38b8b858c8c868d6131cf565b94506119c1835f015161352d565b156119ee576001600160a01b03808c165f90815260026020526040902054166119ec82878984613552565b505b5050506119f961282b565b509695505050505050565b5f611a0d611f9a565b81611a1781611fcc565b610a3e83613615565b5f611a29611f9a565b611a353385858561215c565b5060019392505050565b5f611a48611f9a565b610fd682613636565b6060611a5b611f9a565b81611a6581611fcc565b6001600160a01b0383165f9081526003602090815260409182902080548351818402810184019094528084529091830182828015611aca57602002820191905f5260205f20905b81546001600160a01b03168152600190910190602001808311611aac575b5050505050915050919050565b60408051610160810182525f80825260208201819052918101829052606081018290526080810182905260a0810182905260c0810182905260e0810182905261010081018290526101208101829052610140810191909152611b37611f9a565b81611b4181611fcc565b6001600160a01b038084165f908152600260209081526040808320549183905290912054610a3e92909116613657565b5f611b7a611f9a565b507f00000000000000000000000000000000000000000000000000000000000000005c90565b5f611ba9611f9a565b611a3533858585613770565b5f611bbe611f9a565b6001600160a01b0382165f90815260116020526040902054610fd6565b611be36123d0565b6040517feeec802f000000000000000000000000000000000000000000000000000000008152309063eeec802f90611c2d908b908b908b908b908b908b908b908b90600401616b26565b5f604051808303815f87803b158015611c44575f80fd5b505af1158015611c56573d5f803e3d5ffd5b50505050611c6261282b565b5050505050505050565b604080516060810182525f8082526020820181905291810191909152611c90611f9a565b81611c9a81611fcc565b50506001600160a01b039081165f90815260016020818152604092839020835160608101855281548616815292810154851691830191909152600201549092169082015290565b6060611ceb612b7f565b611cf3611f9a565b610e4483838080601f0160208091040260200160405190810160405280939291908181526020018383808284375f9201919091525033939250506138ea9050565b611d3c611f9a565b611d446123d0565b611d4c6138f7565b611db6886040518060e001604052808a81526020018981526020018863ffffffff168152602001871515815260200186803603810190611d8c9190616bc4565b81526001600160a01b0386166020820152604001611daf36869003860186616c34565b9052613936565b611c6261282b565b604080516101c0810182525f6101408201818152610160830182905261018083018290526101a08301829052825260208201819052918101829052606081018290526080810182905260a0810182905260c0810182905260e081018290526101008101829052610120810191909152611e35611f9a565b81611e3f81611fcc565b6001600160a01b0383165f90815260208190526040908190205481516101c081019092529080610140810180611e7485614378565b158152602001611e838561438e565b15158152602001611e938561439d565b15158152602001611ea3856143ac565b151590528152602001611eb583612855565b8152602001611ec3836143bb565b8152602001611ed1836144a5565b8152602001611edf8361458f565b64ffffffffff168152602001611ef48361468b565b63ffffffff168152602001611f0883612eda565b15158152602001611f1883612ef5565b15158152602001611f2883614792565b15158152602001611f38836147a1565b15159052949350505050565b5f611f4d611f9a565b6001600160a01b038084165f908152600f6020908152604080832093861683529290522054610e44565b365f80375f80365f845af43d5f803e808015611f91573d5ff35b3d5ffd5b505050565b6109977f00000000000000000000000000000000000000000000000000000000000000006001600160a01b03166147b0565b611fd581613636565b612016576040517f9e51bd5c0000000000000000000000000000000000000000000000000000000081526001600160a01b03821660048201526024016113e6565b50565b61202281612a41565b612016576040517f4bdace130000000000000000000000000000000000000000000000000000000081526001600160a01b03821660048201526024016113e6565b6120a56040518060e001604052805f80191681526020016060815260200160608152602001606081526020016060815260200160608152602001606081525090565b6001600160a01b0383165f9081526005602090815260408083208383528184205460048452828520600390945291909320610fd6938593909291876147f2565b5f6120f1858585612e70565b90505f19811461147f578082111561214e576040517ffb8f41b20000000000000000000000000000000000000000000000000000000081526001600160a01b038416600482015260248101829052604481018390526064016113e6565b61147f858585858503613770565b6001600160a01b03831661218e57604051634b637e8f60e11b81526001600160a01b03841660048201526024016113e6565b6001600160a01b0382166121c05760405163ec442f0560e01b81526001600160a01b03831660048201526024016113e6565b6001600160a01b038085165f908152600f60209081526040808320938716835292905220548082111561221f5760405163391434e360e21b81526001600160a01b038516600482015260248101829052604481018390526064016113e6565b6001600160a01b038581165f818152600f6020908152604080832089861680855290835281842088880390559488168084529281902080548801905551868152919392917fd1398bee19313d6bf672ccb116e51f4a1a947e91c757907f51fbb5b5e56c698f910160405180910390a46040516323de665160e01b81526001600160a01b0385811660048301528481166024830152604482018490528616906323de6651906064015b5f604051808303815f87803b1580156122de575f80fd5b505af11580156122f0573d5f803e3d5ffd5b505050505050505050565b6001600160a01b0381165f9081526020819052604081205481908161231f82614792565b90505f61232b8361468b565b9050818015612369575061235f7f000000000000000000000000000000000000000000000000000000000000000082616912565b63ffffffff164211155b969095509350505050565b7f00000000000000000000000000000000000000000000000000000000000000005c15155f03610997576040517fc09ba73600000000000000000000000000000000000000000000000000000000815260040160405180910390fd5b7f9b779b17422d0df92223018b32b4d1fa46e071723d6817e2486d003becc55f005c15612429576040517f3ee5aeb500000000000000000000000000000000000000000000000000000000815260040160405180910390fd5b61099760017f9b779b17422d0df92223018b32b4d1fa46e071723d6817e2486d003becc55f005b90614ba7565b61245f81613615565b612016576040517fef029adf0000000000000000000000000000000000000000000000000000000081526001600160a01b03821660048201526024016113e6565b6060835167ffffffffffffffff8111156124bc576124bc615fea565b6040519080825280602002602001820160405280156124e5578160200160208202803683370190505b5090505f5b84518110156125485783838683815181106125075761250761692f565b60200260200101516125199190616c99565b6125239190616cb0565b8282815181106125355761253561692f565b60209081029190910101526001016124ea565b509392505050565b61256b8261255d83614bae565b61256690616ccf565b614c10565b5050565b5f610e448261257e8560801c90565b614ce5565b5f32158015610af35750612598600754612eda565b15905090565b32155f036125bf576040516333fc255960e11b815260040160405180910390fd5b6001600160a01b038084165f908152600f60209081526040808320938616835292905290812080548392906125f5908490616d05565b9091555050505050565b6001600160a01b03821661263157604051634b637e8f60e11b81526001600160a01b03831660048201526024016113e6565b6001600160a01b038084165f908152600f6020908152604080832093861683529290522054808211156126905760405163391434e360e21b81526001600160a01b038416600482015260248101829052604481018390526064016113e6565b6001600160a01b038085165f818152600f60209081526040808320948816835293815283822086860390559181526011909152908120546126d2908490616943565b90506126dd81614d42565b6001600160a01b038581165f818152601160209081526040808320869055518781529193881692917fd1398bee19313d6bf672ccb116e51f4a1a947e91c757907f51fbb5b5e56c698f910160405180910390a46040516323de665160e01b81526001600160a01b0385811660048301525f6024830152604482018590528616906323de6651906064016122c7565b6060825167ffffffffffffffff81111561278757612787615fea565b6040519080825280602002602001820160405280156127b0578160200160208202803683370190505b5090505f5b83518110156109d857826127eb578381815181106127d5576127d561692f565b60200260200101516127e690616ccf565b612806565b8381815181106127fd576127fd61692f565b60200260200101515b8282815181106128185761281861692f565b60209081029190910101526001016127b5565b6109975f7f9b779b17422d0df92223018b32b4d1fa46e071723d6817e2486d003becc55f00612450565b5f64174876e80061293361286a836001616d18565b612875906001616d18565b612880906001616d18565b61288b906001616d18565b612896906001616d18565b6128a1906001616d18565b6128ac906001616d18565b6128b7906001616d18565b6128c2906001616d18565b6128cd906001616d18565b6128d8906001616d18565b6128e3906001616d18565b6128ee906001616d18565b6128f9906001616d18565b612904906001616d18565b61290f906001616d18565b61291a906001616d18565b612925906001616d18565b60ff1684901c62ffffff1690565b610fd69190616c99565b5f805f836001600160a01b031663a0e8f5ac8888886040518463ffffffff1660e01b815260040161297093929190616d31565b6040805180830381865afa15801561298a573d5f803e3d5ffd5b505050506040513d601f19601f820116820180604052508101906129ae9190616de2565b90925090508115155f036129ee576040517f53f976d400000000000000000000000000000000000000000000000000000000815260040160405180910390fd5b670de0b6b3a7640000811115612a17576040516301d1b96560e61b815260040160405180910390fd5b9695505050505050565b5f80612a35670de0b6b3a764000085616c99565b90506109d58382616cb0565b6001600160a01b0381165f90815260208190526040812054610a3e81612ef5565b5f80612548836122fb565b5f670de0b6b3a7640000821115612a97576040516301d1b96560e61b815260040160405180910390fd5b612aa664174876e80083616cb0565b9150610e4482612ab75f6001616d18565b612ac2906001616d18565b612acd906001616d18565b612ad8906001616d18565b612ae3906001616d18565b612aee906001616d18565b612af9906001616d18565b612b04906001616d18565b612b0f906001616d18565b612b1a906001616d18565b612b25906001616d18565b612b30906001616d18565b612b3b906001616d18565b612b46906001616d18565b612b51906001616d18565b612b5c906001616d18565b612b67906001616d18565b612b72906001616d18565b85919060ff166018614d82565b32155f03612ba0576040516333fc255960e11b815260040160405180910390fd5b5f612bac600754612eda565b90508015612be6576040517f7a19888600000000000000000000000000000000000000000000000000000000815260040160405180910390fd5b61201660017f0000000000000000000000000000000000000000000000000000000000000000612450565b606082612c2657612c2182614da3565b610e44565b8151158015612c3d57506001600160a01b0384163b155b15612c7f576040517f9996b3150000000000000000000000000000000000000000000000000000000081526001600160a01b03851660048201526024016113e6565b5080610e44565b5f600482511015612caa5760405163a728568960e01b815260040160405180910390fd5b506020015190565b805115612cc25780518082602001fd5b60405163a728568960e01b815260040160405180910390fd5b60605f8267ffffffffffffffff811115612cf757612cf7615fea565b604051908082528060200260200182016040528015612d20578160200160208202803683370190505b5090505f612d2d8561458f565b64ffffffffff1690505f5b84811015612d9d575f612d58612d4f600584616c99565b84901c601f1690565b9050612d6581600a616eee565b612d7790670de0b6b3a7640000616c99565b848381518110612d8957612d8961692f565b602090810291909101015250600101612d38565b5090949350505050565b80515f9081816001811115612dbe57612dbe615dcc565b03612dd357670de0b6b3a76400009150610a41565b6001816001811115612de757612de7615dcc565b03612e575782602001516001600160a01b031663679aefce6040518163ffffffff1660e01b8152600401602060405180830381865afa158015612e2c573d5f803e3d5ffd5b505050506040513d601f19601f82011682018060405250810190612e5091906169e1565b9150610a41565b604051636fa2831960e11b815260040160405180910390fd5b5f816001600160a01b0316836001600160a01b031603612e9257505f19610e44565b506001600160a01b038084165f9081526010602090815260408083208685168452825280832093851683529290522054610e44565b5f8181526020839052604081205c610e44565b5f60018216610fd6565b612eec6138f7565b61201681614de5565b5f610fd6612f04826001616d18565b839060ff161c60011690565b80821461256b5760405163aaad13f760e01b815260040160405180910390fd5b60605f84519050612f448185518551614e30565b5f8167ffffffffffffffff811115612f5e57612f5e615fea565b604051908082528060200260200182016040528015612f87578160200160208202803683370190505b5090505f5b8281101561301957612ff4868281518110612fa957612fa961692f565b6020026020010151868381518110612fc357612fc361692f565b6020026020010151898481518110612fdd57612fdd61692f565b6020026020010151614e5d9092919063ffffffff16565b8282815181106130065761300661692f565b6020908102919091010152600101612f8c565b5095945050505050565b5f610fd6613032826001616d18565b61303d906001616d18565b613048906001616d18565b613053906001616d18565b61305e906001616d18565b613069906001616d18565b613074906001616d18565b612f04906001616d18565b6040517f1c149e280000000000000000000000000000000000000000000000000000000081526001600160a01b03821690631c149e28906130c69086908690600401616ef9565b6020604051808303815f875af11580156130e2573d5f803e3d5ffd5b505050506040513d601f19601f820116820180604052508101906131069190616f1d565b15155f03611f95576040517f6061292500000000000000000000000000000000000000000000000000000000815260040160405180910390fd5b6020830151515f805b828110156116ef576131778660400151828151811061316a5761316a61692f565b6020026020010151612da7565b8660a00151828151811061318d5761318d61692f565b602002602001018181525050845f8281526020019081526020015f205491506131c786826131c1856001600160801b031690565b87614e72565b600101613149565b6001600160a01b0387165f908152600560205260408120815b87602001515181101561332a575f8860200151828151811061320c5761320c61692f565b602002602001015190508782815181106132285761322861692f565b60200260200101516001600160a01b0316816001600160a01b0316146132b4578a88838151811061325b5761325b61692f565b60209081029190910101516040517fffe261a10000000000000000000000000000000000000000000000000000000081526001600160a01b039283166004820152908216602482015290821660448201526064016113e6565b6132d7818884815181106132ca576132ca61692f565b6020026020010151614f2f565b6133138783815181106132ec576132ec61692f565b60200260200101518784815181106133065761330661692f565b6020026020010151614ce5565b5f83815260208590526040902055506001016131e8565b508651613338906001614f3c565b8088526001600160a01b038a165f81815260208190526040908190209290925590517f984de9e800000000000000000000000000000000000000000000000000000000815263984de9e8906133949087906001906004016169b7565b602060405180830381865afa1580156133af573d5f803e3d5ffd5b505050506040513d601f19601f820116820180604052508101906133d391906169e1565b91506133de82614d42565b6133eb620f424083616943565b91506133f689614f5e565b613401898984615051565b82821015613445576040517f8d261d5d00000000000000000000000000000000000000000000000000000000815260048101839052602481018490526044016113e6565b6001600160a01b038981165f81815260116020526040902054918a16917f819ce5239144079a04a704c41f4e9453355703cfee6df6771b6835557967aa209061348f89600161276b565b8b602001515167ffffffffffffffff8111156134ad576134ad615fea565b6040519080825280602002602001820160405280156134d6578160200160208202803683370190505b506040516134e693929190616956565b60405180910390a36040516001600160a01b038a16907fcad8c9d32507393b6508ca4a888b81979919b477510585bde8488f153072d6f3905f90a250979650505050505050565b5f610fd661353c826001616d18565b613547906001616d18565b613032906001616d18565b6040517f38be241d0000000000000000000000000000000000000000000000000000000081526001600160a01b038216906338be241d9061359b90879087908790600401616f38565b6020604051808303815f875af11580156135b7573d5f803e3d5ffd5b505050506040513d601f19601f820116820180604052508101906135db9190616f1d565b15155f03611481576040517f0f23dbc600000000000000000000000000000000000000000000000000000000815260040160405180910390fd5b6001600160a01b0381165f90815260208190526040812054610fd6906147a1565b6001600160a01b0381165f90815260208190526040812054610a3e81612eda565b60408051610160810182525f80825260208201819052918101829052606081018290526080810182905260a0810182905260c0810182905260e08101829052610100810182905261012081018290526101408101919091526040518061016001604052806136c48561516a565b151581526020016136d485613023565b151581526020016136e48561352d565b151581526020016136f485615179565b1515815260200161370485615193565b15158152602001613714856151ad565b15158152602001613724856151c7565b15158152602001613734856151e1565b15158152602001613744856151fb565b1515815260200161375485615215565b15158152602001836001600160a01b0316815250905092915050565b6001600160a01b0383166137bb576040517fe602df050000000000000000000000000000000000000000000000000000000081526001600160a01b03841660048201526024016113e6565b6001600160a01b038216613806576040517f94280d620000000000000000000000000000000000000000000000000000000081526001600160a01b03831660048201526024016113e6565b6001600160a01b038481165f81815260106020908152604080832088861680855290835281842095881680855295835292819020869055518581529192917fa0175360a15bca328baf7ea85c7b784d58b222a50d0ce760b10dba336d226a61910160405180910390a46040517f5687f2b80000000000000000000000000000000000000000000000000000000081526001600160a01b038481166004830152838116602483015260448201839052851690635687f2b8906064015b5f604051808303815f87803b1580156138d8575f80fd5b505af1158015611c62573d5f803e3d5ffd5b6060610e4483835f61522f565b6138ff6152de565b15610997576040517fda9f8b3400000000000000000000000000000000000000000000000000000000815260040160405180910390fd5b61393f82613636565b15613981576040517fdb771c800000000000000000000000000000000000000000000000000000000081526001600160a01b03831660048201526024016113e6565b80515160028110156139bf576040517f5ed4ba8f00000000000000000000000000000000000000000000000000000000815260040160405180910390fd5b60088111156139fa576040517f707bdf5800000000000000000000000000000000000000000000000000000000815260040160405180910390fd5b5f8167ffffffffffffffff811115613a1457613a14615fea565b604051908082528060200260200182016040528015613a3d578160200160208202803683370190505b5090505f805b83811015613e30575f855f01518281518110613a6157613a6161692f565b602090810291909101015180519091506001600160a01b0381161580613a985750876001600160a01b0316816001600160a01b0316145b15613acf576040517fc1ab6dc100000000000000000000000000000000000000000000000000000000815260040160405180910390fd5b836001600160a01b0316816001600160a01b03161015613b1b576040517f6e8f194700000000000000000000000000000000000000000000000000000000815260040160405180910390fd5b836001600160a01b0316816001600160a01b031603613b71576040517f4f4b634e0000000000000000000000000000000000000000000000000000000081526001600160a01b03821660048201526024016113e6565b5f806001600160a01b031683604001516001600160a01b031614159050604051806060016040528084602001516001811115613baf57613baf615dcc565b81526040808601516001600160a01b0390811660208085019190915260608801511515938301939093528c81165f9081526004845282812091871681529252902081518154829060ff191660018381811115613c0d57613c0d615dcc565b0217905550602082015181546040909301511515600160a81b027fffffffffffffffffffff00ffffffffffffffffffffffffffffffffffffffffff6001600160a01b0390921661010002919091167fffffffffffffffffffff000000000000000000000000000000000000000000ff909316929092179190911790555f83602001516001811115613ca057613ca0615dcc565b03613cd5578080613cb2575082606001515b15613cd057604051636fa2831960e11b815260040160405180910390fd5b613d46565b600183602001516001811115613ced57613ced615dcc565b03613d14578015155f03613cd057604051636fa2831960e11b815260040160405180910390fd5b6040517fa1e9dd9d00000000000000000000000000000000000000000000000000000000815260040160405180910390fd5b816001600160a01b031663313ce5676040518163ffffffff1660e01b8152600401602060405180830381865afa158015613d82573d5f803e3d5ffd5b505050506040513d601f19601f82011682018060405250810190613da69190616f62565b613db1906012616f82565b868581518110613dc357613dc361692f565b60ff929092166020928302919091018201526001600160a01b038a81165f908152600383526040812080546001808201835591835293909120909201805473ffffffffffffffffffffffffffffffffffffffff191691851691909117905591945050919091019050613a43565b506080840180516001600160a01b038781165f8181526001602081815260408084208751815490881673ffffffffffffffffffffffffffffffffffffffff1991821617825592880151938101805494881694841694909417909355958601516002909201805492861692909116919091179055600a54945184015160608a015194517f77ff76e7000000000000000000000000000000000000000000000000000000008152600481019390935283166024830152921515604482015291928392839291909116906377ff76e79060640160408051808303815f875af1158015613f1b573d5f803e3d5ffd5b505050506040513d601f19601f82011682018060405250810190613f3f9190616f9b565b9092509050613f4f83600161531b565b60c088015151909350613f63908490615328565b9250613f808760c00151602001518461535990919063ffffffff16565b9250613f9d8760c00151604001518461537490919063ffffffff16565b9250613fba8760c00151606001518461538f90919063ffffffff16565b9250613fcf613fc8866153aa565b84906153fb565b9250613fe88760400151846154fc90919063ffffffff16565b9250613ff48383615608565b92506140008382615726565b60a08801519093506001600160a01b0316156142975760a0870151875160c08901516040517f0b89f1820000000000000000000000000000000000000000000000000000000081526001600160a01b0390931692630b89f1829261406c9233928e929190600401616fbd565b6020604051808303815f875af1158015614088573d5f803e3d5ffd5b505050506040513d601f19601f820116820180604052508101906140ac9190616f1d565b15155f036140ec5760a0870151604051633ea4f60560e21b81526001600160a01b03918216600482015290891660248201523360448201526064016113e6565b5f8760a001516001600160a01b031663d77153a76040518163ffffffff1660e01b815260040161014060405180830381865afa15801561412e573d5f803e3d5ffd5b505050506040513d601f19601f82011682018060405250810190614152919061701e565b80519091508015614166575060c088015151155b156141a35760a0880151604051633ea4f60560e21b81526001600160a01b039182166004820152908a1660248201523360448201526064016113e6565b80516141b0908590615845565b93506141c981602001518561586b90919063ffffffff16565b93506141e281604001518561587b90919063ffffffff16565b93506141fb81606001518561589690919063ffffffff16565b93506142148160800151856158b190919063ffffffff16565b935061422d8160a00151856158cc90919063ffffffff16565b93506142468160c00151856158e790919063ffffffff16565b935061425f8160e001518561590290919063ffffffff16565b93506142798161010001518561591d90919063ffffffff16565b93506142938161012001518561593890919063ffffffff16565b9350505b50506001600160a01b038681165f9081526020818152604080832085905560a0890151600283529220805473ffffffffffffffffffffffffffffffffffffffff191692909316919091179091558501516142f2908790615953565b336001600160a01b0316866001600160a01b03167fbc1561eeab9f40962e2fb827a7ff9c7cdb47a9d7c84caeefa4ed90e043842dad875f0151886020015189604001518a608001516143518c60a001518961365790919063ffffffff16565b8c60c00151604051614368969594939291906170e4565b60405180910390a3505050505050565b5f61438761305e826001616d18565b1592915050565b5f610fd6613053826001616d18565b5f610fd6613048826001616d18565b5f610fd661303d826001616d18565b5f64174876e80061293360186143d2846001616d18565b6143dd906001616d18565b6143e8906001616d18565b6143f3906001616d18565b6143fe906001616d18565b614409906001616d18565b614414906001616d18565b61441f906001616d18565b61442a906001616d18565b614435906001616d18565b614440906001616d18565b61444b906001616d18565b614456906001616d18565b614461906001616d18565b61446c906001616d18565b614477906001616d18565b614482906001616d18565b61448d906001616d18565b60ff1661449a9190616d05565b84901c62ffffff1690565b5f64174876e8006129336018806144bd856001616d18565b6144c8906001616d18565b6144d3906001616d18565b6144de906001616d18565b6144e9906001616d18565b6144f4906001616d18565b6144ff906001616d18565b61450a906001616d18565b614515906001616d18565b614520906001616d18565b61452b906001616d18565b614536906001616d18565b614541906001616d18565b61454c906001616d18565b614557906001616d18565b614562906001616d18565b61456d906001616d18565b614578906001616d18565b60ff166145859190616d05565b61449a9190616d05565b5f610fd6601880806145a2856001616d18565b6145ad906001616d18565b6145b8906001616d18565b6145c3906001616d18565b6145ce906001616d18565b6145d9906001616d18565b6145e4906001616d18565b6145ef906001616d18565b6145fa906001616d18565b614605906001616d18565b614610906001616d18565b61461b906001616d18565b614626906001616d18565b614631906001616d18565b61463c906001616d18565b614647906001616d18565b614652906001616d18565b61465d906001616d18565b60ff1661466a9190616d05565b6146749190616d05565b61467e9190616d05565b83901c64ffffffffff1690565b5f610fd66028601880806146a0866001616d18565b6146ab906001616d18565b6146b6906001616d18565b6146c1906001616d18565b6146cc906001616d18565b6146d7906001616d18565b6146e2906001616d18565b6146ed906001616d18565b6146f8906001616d18565b614703906001616d18565b61470e906001616d18565b614719906001616d18565b614724906001616d18565b61472f906001616d18565b61473a906001616d18565b614745906001616d18565b614750906001616d18565b61475b906001616d18565b60ff166147689190616d05565b6147729190616d05565b61477c9190616d05565b6147869190616d05565b83901c63ffffffff1690565b5f610fd6613074826001616d18565b5f610fd6613069826001616d18565b306001600160a01b03821614612016576040517f9fd25b3600000000000000000000000000000000000000000000000000000000815260040160405180910390fd5b815484875260408051602080840282018101909252828152908490839083018282801561484657602002820191905f5260205f20905b81546001600160a01b03168152600190910190602001808311614828575b505050505087602001819052508067ffffffffffffffff81111561486c5761486c615fea565b6040519080825280602002602001820160405280156148b557816020015b604080516060810182525f80825260208083018290529282015282525f1990920191018161488a5790505b5060408801528067ffffffffffffffff8111156148d4576148d4615fea565b6040519080825280602002602001820160405280156148fd578160200160208202803683370190505b5060608801528067ffffffffffffffff81111561491c5761491c615fea565b604051908082528060200260200182016040528015614945578160200160208202803683370190505b50608088015286516149579082612cdb565b60c08801528067ffffffffffffffff81111561497557614975615fea565b60405190808252806020026020018201604052801561499e578160200160208202803683370190505b5060a088015286515f906149b190612ef5565b80156149c757505f6149c5895f01516144a5565b115b80156149db575087516149d9906147a1565b155b90505f5b828110156122f0575f865f8b602001518481518110614a0057614a0061692f565b6020908102919091018101516001600160a01b0316825281019190915260409081015f208151606081019092528054829060ff166001811115614a4557614a45615dcc565b6001811115614a5657614a56615dcc565b8152905461010081046001600160a01b0316602080840191909152600160a81b90910460ff1615156040928301525f858152908c905281902054908c01518051929350909183919085908110614aae57614aae61692f565b6020026020010181905250614ac282612da7565b8b60a001518481518110614ad857614ad861692f565b6020908102919091010152614af88b846001600160801b03841689614e72565b8315155f03614b08575050614b9f565b5f82604001518015614b2c5750600183516001811115614b2a57614b2a615dcc565b145b90508015614b9b575f614b418d5f01516144a5565b90505f8d606001518681518110614b5a57614b5a61692f565b602002602001015190505f614b7a8f614b738760801c90565b8986615af9565b90508015614b9757614b978f88614b918486616943565b8d614e72565b5050505b5050505b6001016149df565b80825d5050565b5f7f7fffffffffffffffffffffffffffffffffffffffffffffffffffffffffffffff821115614c0c576040517f24775e06000000000000000000000000000000000000000000000000000000008152600481018390526024016113e6565b5090565b805f03614c1b575050565b5f614c46837f00000000000000000000000000000000000000000000000000000000000000006117f4565b90505f614c53838361717e565b9050805f03614c8a57614c857f0000000000000000000000000000000000000000000000000000000000000000615b8e565b614cba565b815f03614cba57614cba7f0000000000000000000000000000000000000000000000000000000000000000615ba4565b6114817f00000000000000000000000000000000000000000000000000000000000000008583615bb3565b5f6001600160801b03831180614d0157506001600160801b0382115b15614d38576040517f89560ca100000000000000000000000000000000000000000000000000000000815260040160405180910390fd5b610e448383615bcb565b620f4240811015612016576040517fd38d20fc000000000000000000000000000000000000000000000000000000008152600481018290526024016113e6565b5f614d8e848484615bda565b506001901b5f1901811b1992909216911b1790565b805115614db35780518082602001fd5b6040517fd6bda27500000000000000000000000000000000000000000000000000000000815260040160405180910390fd5b614dee81612a62565b15612016576040517fd971f5970000000000000000000000000000000000000000000000000000000081526001600160a01b03821660048201526024016113e6565b8183141580614e3f5750808214155b15611f955760405163aaad13f760e01b815260040160405180910390fd5b5f61179982614e6c8686615c83565b90615c83565b8184606001518481518110614e8957614e8961692f565b6020908102919091010152615d105f826001811115614eaa57614eaa615dcc565b14614eb757614e5d614ebb565b615ca35b9050614f06838660c001518681518110614ed757614ed761692f565b60200260200101518760a001518781518110614ef557614ef561692f565b60200260200101518463ffffffff16565b85608001518581518110614f1c57614f1c61692f565b6020026020010181815250505050505050565b61256b8261256683614bae565b5f610e4482614f4c836001616d18565b60ff1690811b600190911b1985161790565b6001600160a01b0381165f9081526011602052604081208054620f42409290614f88908490616d05565b90915550506001600160a01b0381165f818152600f6020908152604080832083805282528083208054620f424090810190915590519081529192839290917fd1398bee19313d6bf672ccb116e51f4a1a947e91c757907f51fbb5b5e56c698f910160405180910390a46040516323de665160e01b81525f600482018190526024820152620f424060448201526001600160a01b038216906323de6651906064015f604051808303815f87803b15801561503f575f80fd5b505af115801561147f573d5f803e3d5ffd5b6001600160a01b0382166150835760405163ec442f0560e01b81526001600160a01b03831660048201526024016113e6565b6001600160a01b0383165f908152601160205260408120546150a6908390616d05565b6001600160a01b038086165f908152600f6020908152604080832093881683529290522080548401905590506150db81614d42565b6001600160a01b038481165f81815260116020908152604080832086905551868152938716939192917fd1398bee19313d6bf672ccb116e51f4a1a947e91c757907f51fbb5b5e56c698f910160405180910390a46040516323de665160e01b81525f60048201526001600160a01b038481166024830152604482018490528516906323de6651906064016138c1565b5f610fd6613547826001616d18565b5f610fd6615188826001616d18565b61353c906001616d18565b5f610fd66151a2826001616d18565b615188906001616d18565b5f610fd66151bc826001616d18565b6151a2906001616d18565b5f610fd66151d6826001616d18565b6151bc906001616d18565b5f610fd66151f0826001616d18565b6151d6906001616d18565b5f610fd661520a826001616d18565b6151f0906001616d18565b5f610fd6615224826001616d18565b61520a906001616d18565b606081471015615274576040517fcf479181000000000000000000000000000000000000000000000000000000008152476004820152602481018390526044016113e6565b5f80856001600160a01b0316848660405161528f91906171a5565b5f6040518083038185875af1925050503d805f81146152c9576040519150601f19603f3d011682016040523d82523d5f602084013e6152ce565b606091505b5091509150612a17868383612c11565b5f7f000000000000000000000000000000000000000000000000000000000000000063ffffffff164211158015610af35750610af3600754615cb8565b5f60011983168217610e44565b5f610e4482615338836001616d18565b615343906001616d18565b61534e906001616d18565b614f4c906001616d18565b5f610e4482615369836001616d18565b615338906001616d18565b5f610e4482615384836001616d18565b615369906001616d18565b5f610e448261539f836001616d18565b615384906001616d18565b5f805f5b83518110156109d8576153f18482815181106153cc576153cc61692f565b602002602001015160ff16600560ff16836153e79190616c99565b8491906005614d82565b91506001016153ae565b5f610e4464ffffffffff831660188080615416866001616d18565b615421906001616d18565b61542c906001616d18565b615437906001616d18565b615442906001616d18565b61544d906001616d18565b615458906001616d18565b615463906001616d18565b61546e906001616d18565b615479906001616d18565b615484906001616d18565b61548f906001616d18565b61549a906001616d18565b6154a5906001616d18565b6154b0906001616d18565b6154bb906001616d18565b6154c6906001616d18565b6154d1906001616d18565b60ff166154de9190616d05565b6154e89190616d05565b6154f29190616d05565b8591906028614d82565b5f610e4463ffffffff8316602860188080615518876001616d18565b615523906001616d18565b61552e906001616d18565b615539906001616d18565b615544906001616d18565b61554f906001616d18565b61555a906001616d18565b615565906001616d18565b615570906001616d18565b61557b906001616d18565b615586906001616d18565b615591906001616d18565b61559c906001616d18565b6155a7906001616d18565b6155b2906001616d18565b6155bd906001616d18565b6155c8906001616d18565b6155d3906001616d18565b60ff166155e09190616d05565b6155ea9190616d05565b6155f49190616d05565b6155fe9190616d05565b8591906020614d82565b5f670de0b6b3a7640000821115615632576040516301d1b96560e61b815260040160405180910390fd5b61564164174876e80083616cb0565b9150610e448260186156545f6001616d18565b61565f906001616d18565b61566a906001616d18565b615675906001616d18565b615680906001616d18565b61568b906001616d18565b615696906001616d18565b6156a1906001616d18565b6156ac906001616d18565b6156b7906001616d18565b6156c2906001616d18565b6156cd906001616d18565b6156d8906001616d18565b6156e3906001616d18565b6156ee906001616d18565b6156f9906001616d18565b615704906001616d18565b61570f906001616d18565b60ff1661571c9190616d05565b8591906018614d82565b5f670de0b6b3a7640000821115615750576040516301d1b96560e61b815260040160405180910390fd5b61575f64174876e80083616cb0565b9150610e44826018806157735f6001616d18565b61577e906001616d18565b615789906001616d18565b615794906001616d18565b61579f906001616d18565b6157aa906001616d18565b6157b5906001616d18565b6157c0906001616d18565b6157cb906001616d18565b6157d6906001616d18565b6157e1906001616d18565b6157ec906001616d18565b6157f7906001616d18565b615802906001616d18565b61580d906001616d18565b615818906001616d18565b615823906001616d18565b61582e906001616d18565b60ff1661583b9190616d05565b61571c9190616d05565b5f610e4482615855836001616d18565b615860906001616d18565b61539f906001616d18565b5f610e4482615860836001616d18565b5f610e448261588b836001616d18565b615855906001616d18565b5f610e44826158a6836001616d18565b61588b906001616d18565b5f610e44826158c1836001616d18565b6158a6906001616d18565b5f610e44826158dc836001616d18565b6158c1906001616d18565b5f610e44826158f7836001616d18565b6158dc906001616d18565b5f610e4482615912836001616d18565b6158f7906001616d18565b5f610e448261592d836001616d18565b615912906001616d18565b5f610e4482615948836001616d18565b61592d906001616d18565b816001600160a01b031663ce20ece76040518163ffffffff1660e01b8152600401602060405180830381865afa15801561598f573d5f803e3d5ffd5b505050506040513d601f19601f820116820180604052508101906159b391906169e1565b8110156159ec576040517fbfb2068800000000000000000000000000000000000000000000000000000000815260040160405180910390fd5b816001600160a01b031663654cf15d6040518163ffffffff1660e01b8152600401602060405180830381865afa158015615a28573d5f803e3d5ffd5b505050506040513d601f19601f82011682018060405250810190615a4c91906169e1565b811115615a85576040517f7f47834b00000000000000000000000000000000000000000000000000000000815260040160405180910390fd5b6001600160a01b0382165f90815260208190526040902054615aa79082612a6d565b6001600160a01b0383165f8181526020818152604091829020939093555183815290917f89d41522342fabac1471ca6073a5623e5caf367b03ca6e9a001478d0cf8be4a1910160405180910390a25050565b5f8085608001518481518110615b1157615b1161692f565b6020026020010151905084811115615b85575f615b3086830385615cd0565b9050615b818760c001518681518110615b4b57615b4b61692f565b60200260200101518860a001518781518110615b6957615b6961692f565b602002602001015183615cfc9092919063ffffffff16565b9250505b50949350505050565b612016615b9d6001835c616943565b8290614ba7565b612016615b9d825c6001616d05565b5f828152602084905260409020611f95908290612450565b5f610e4483608084901b616d05565b6101008210615bfc57604051632d0483c560e21b815260040160405180910390fd5b60018110158015615c2c5750615c2860ff615c1984610100616943565b5f828218828410028218610e44565b8111155b615c4957604051632d0483c560e21b815260040160405180910390fd5b82811c15611f95576040517fe4337c0500000000000000000000000000000000000000000000000000000000815260040160405180910390fd5b5f80615c8f8385616c99565b90506109d5670de0b6b3a764000082616cb0565b5f61179982615cb28686615cd0565b90615cd0565b5f610fd6615cc7826001616d05565b83901c60011690565b5f80615cdc8385616c99565b90506001670de0b6b3a76400006001830304018115150291505092915050565b5f61179984615d0b8585615cd0565b612a21565b6109976171c0565b6001600160a01b0381168114612016575f80fd5b80356112cf81615d18565b5f8060408385031215615d48575f80fd5b8235615d5381615d18565b91506020830135615d6381615d18565b809150509250929050565b5f60208284031215615d7e575f80fd5b8135610e4481615d18565b5f815180845260208085019450602084015f5b83811015615dc15781516001600160a01b031687529582019590820190600101615d9c565b509495945050505050565b634e487b7160e01b5f52602160045260245ffd5b6002811061201657634e487b7160e01b5f52602160045260245ffd5b5f8151615e0881615de0565b8352506020818101516001600160a01b03169083015260409081015115159082015260600190565b5f815180845260208085019450602084015f5b83811015615dc157615e56878351615dfc565b965090820190600101615e43565b5f815180845260208085019450602084015f5b83811015615dc157815187529582019590820190600101615e77565b60208152815160208201525f602083015160e06040840152615eb9610100840182615d89565b90506040840151601f1980858403016060860152615ed78383615e30565b92506060860151915080858403016080860152615ef48383615e64565b925060808601519150808584030160a0860152615f118383615e64565b925060a08601519150808584030160c0860152615f2e8383615e64565b925060c08601519150808584030160e086015250610f6b8282615e64565b5f805f8060808587031215615f5f575f80fd5b8435615f6a81615d18565b93506020850135615f7a81615d18565b92506040850135615f8a81615d18565b9396929550929360600135925050565b5f805f60608486031215615fac575f80fd5b8335615fb781615d18565b92506020840135615fc781615d18565b929592945050506040919091013590565b602081525f610e446020830184615e64565b634e487b7160e01b5f52604160045260245ffd5b60405160e0810167ffffffffffffffff8111828210171561602157616021615fea565b60405290565b6040516080810167ffffffffffffffff8111828210171561602157616021615fea565b604051610140810167ffffffffffffffff8111828210171561602157616021615fea565b604051601f8201601f1916810167ffffffffffffffff8111828210171561609757616097615fea565b604052919050565b60028110612016575f80fd5b80356112cf8161609f565b5f67ffffffffffffffff8211156160cf576160cf615fea565b5060051b60200190565b5f82601f8301126160e8575f80fd5b813560206160fd6160f8836160b6565b61606e565b8083825260208201915060208460051b87010193508684111561611e575f80fd5b602086015b848110156119f95780358352918301918301616123565b5f82601f830112616149575f80fd5b813567ffffffffffffffff81111561616357616163615fea565b616176601f8201601f191660200161606e565b81815284602083860101111561618a575f80fd5b816020850160208301375f918101602001919091529392505050565b5f80604083850312156161b7575f80fd5b82356161c281615d18565b9150602083013567ffffffffffffffff808211156161de575f80fd5b9084019060e082870312156161f1575f80fd5b6161f9615ffe565b616202836160ab565b81526020830135602082015260408301358281111561621f575f80fd5b61622b888286016160d9565b604083015250606083013560608201526080830135608082015261625160a08401615d2c565b60a082015260c083013582811115616267575f80fd5b6162738882860161613a565b60c0830152508093505050509250929050565b5f8060208385031215616297575f80fd5b823567ffffffffffffffff808211156162ae575f80fd5b818501915085601f8301126162c1575f80fd5b8135818111156162cf575f80fd5b8660208285010111156162e0575f80fd5b60209290920196919550909350505050565b608081525f6163046080830187615d89565b8281036020848101919091528651808352878201928201905f5b8181101561633f57616331838651615dfc565b94840194925060010161631e565b505084810360408601526163538188615e64565b9250505082810360608401526163698185615e64565b979650505050505050565b5f8060408385031215616385575f80fd5b823561639081615d18565b946020939093013593505050565b604081525f6163b06040830185615e64565b8281036020840152610f6b8185615e64565b5f805f805f8060c087890312156163d7575f80fd5b86356163e281615d18565b95506020878101356163f381615d18565b9550604088013567ffffffffffffffff8082111561640f575f80fd5b818a0191508a601f830112616422575f80fd5b81356164306160f8826160b6565b81815260059190911b8301840190848101908d83111561644e575f80fd5b938501935b8285101561647557843561646681615d18565b82529385019390850190616453565b9850505060608a013592508083111561648c575f80fd5b6164988b848c016160d9565b955060808a0135945060a08a01359250808311156164b4575f80fd5b50506164c289828a0161613a565b9150509295509295509295565b5f805f606084860312156164e1575f80fd5b83356164ec81615d18565b925060208401356164fc81615d18565b9150604084013561650c81615d18565b809150509250925092565b602081525f610e446020830184615d89565b8051151582526020810151616542602084018215159052565b506040810151616556604084018215159052565b50606081015161656a606084018215159052565b50608081015161657e608084018215159052565b5060a081015161659260a084018215159052565b5060c08101516165a660c084018215159052565b5060e08101516165ba60e084018215159052565b506101008181015115159083015261012080820151151590830152610140808201516001600160a01b03811682850152611481565b6101608101610fd68284616529565b8015158114612016575f80fd5b80356112cf816165fe565b803563ffffffff811681146112cf575f80fd5b5f60608284031215610a41575f80fd5b5f60808284031215610a41575f80fd5b5f805f805f805f806101a0898b031215616661575f80fd5b61666b8935615d18565b88359750602089013567ffffffffffffffff811115616688575f80fd5b8901601f81018b13616698575f80fd5b80356166a66160f8826160b6565b8082825260208201915060208360071b85010192508d8311156166c7575f80fd5b6020840193505b82841015616748576080848f0312156166e5575f80fd5b6166ed616027565b6166f78535615d18565b8435815260208501356167098161609f565b6020820152604085013561671c81615d18565b6040820152606085013561672f816165fe565b60608201528252608093909301926020909101906166ce565b99505050506040890135955061676060608a01616616565b945061676e60808a0161660b565b935061677d8a60a08b01616629565b925061678c6101008a01615d2c565b915061679c8a6101208b01616639565b90509295985092959890939650565b60608101610fd6828480516001600160a01b03908116835260208083015182169084015260409182015116910152565b5f5b838110156167f55781810151838201526020016167dd565b50505f910152565b5f81518084526168148160208601602086016167db565b601f01601f19169290920160200192915050565b602081525f610e4460208301846167fd565b81518051151582526020808201511515908301526040808201511515908301526060908101511515908201526101a0810160208301516080830152604083015160a0830152606083015160c083015260808301516168a160e084018264ffffffffff169052565b5060a08301516101006168bb8185018363ffffffff169052565b60c085015191506101206168d28186018415159052565b60e0860151151561014086015290850151151561016085015284015180151561018085015290506109d8565b634e487b7160e01b5f52601160045260245ffd5b63ffffffff8181168382160190808211156109d8576109d86168fe565b634e487b7160e01b5f52603260045260245ffd5b81810381811115610fd657610fd66168fe565b5f606082018583526020606060208501528186518084526080860191506020880193505f5b818110156169975784518352938301939183019160010161697b565b505084810360408601526169ab8187615e64565b98975050505050505050565b604081525f6169c96040830185615e64565b90506169d483615de0565b8260208301529392505050565b5f602082840312156169f1575f80fd5b5051919050565b818382375f9101908152919050565b5f6001600160a01b03808916835280881660208401525060c06040830152616a3260c0830187615d89565b8281036060840152616a448187615e64565b905084608084015282810360a0840152616a5e81856167fd565b9998505050505050505050565b5f815180845260208085019450602084015f5b83811015615dc15781516001600160a01b0380825116895284820151616aa381615de0565b898601526040828101519091169089015260609081015115159088015260809096019590820190600101616a7e565b8035616add816165fe565b151582526020810135616aef816165fe565b151560208301526040810135616b04816165fe565b151560408301526060810135616b19816165fe565b8015156060840152505050565b5f6101a06001600160a01b03808c168452816020850152616b498285018c616a6b565b925089604085015263ffffffff89166060850152871515608085015286359150616b7282615d18565b90811660a0840152602086013590616b8982615d18565b90811660c0840152604086013590616ba082615d18565b1660e08301526001600160a01b038416610100830152616a5e610120830184616ad2565b5f60608284031215616bd4575f80fd5b6040516060810181811067ffffffffffffffff82111715616bf757616bf7615fea565b6040528235616c0581615d18565b81526020830135616c1581615d18565b60208201526040830135616c2881615d18565b60408201529392505050565b5f60808284031215616c44575f80fd5b616c4c616027565b8235616c57816165fe565b81526020830135616c67816165fe565b60208201526040830135616c7a816165fe565b60408201526060830135616c8d816165fe565b60608201529392505050565b8082028115828204841417610fd657610fd66168fe565b5f82616cca57634e487b7160e01b5f52601260045260245ffd5b500490565b5f7f80000000000000000000000000000000000000000000000000000000000000008203616cff57616cff6168fe565b505f0390565b80820180821115610fd657610fd66168fe565b60ff8181168382160190811115610fd657610fd66168fe565b606081525f8451616d4181615de0565b606083015260208501516080830152604085015160e060a0840152616d6a610140840182615e64565b9050606086015160c0840152608086015160e08401526001600160a01b0360a08701511661010084015260c0860151605f1984830301610120850152616db082826167fd565b92505050616dc960208301856001600160a01b03169052565b826040830152949350505050565b80516112cf816165fe565b5f8060408385031215616df3575f80fd5b8251616dfe816165fe565b6020939093015192949293505050565b600181815b80851115616e4857815f1904821115616e2e57616e2e6168fe565b80851615616e3b57918102915b93841c9390800290616e13565b509250929050565b5f82616e5e57506001610fd6565b81616e6a57505f610fd6565b8160018114616e805760028114616e8a57616ea6565b6001915050610fd6565b60ff841115616e9b57616e9b6168fe565b50506001821b610fd6565b5060208310610133831016604e8410600b8410161715616ec9575081810a610fd6565b616ed38383616e0e565b805f1904821115616ee657616ee66168fe565b029392505050565b5f610e448383616e50565b604081525f616f0b6040830185615e64565b8281036020840152610f6b81856167fd565b5f60208284031215616f2d575f80fd5b8151610e44816165fe565b606081525f616f4a6060830186615e64565b8460208401528281036040840152612a1781856167fd565b5f60208284031215616f72575f80fd5b815160ff81168114610e44575f80fd5b60ff8281168282160390811115610fd657610fd66168fe565b5f8060408385031215616fac575f80fd5b505080516020909101519092909150565b5f6001600160a01b03808716835280861660208401525060e06040830152616fe860e0830185616a6b565b835115156060848101919091526020850151151560808501526040850151151560a0850152840151151560c08401529050610f6b565b5f610140828403121561702f575f80fd5b61703761604a565b61704083616dd7565b815261704e60208401616dd7565b602082015261705f60408401616dd7565b604082015261707060608401616dd7565b606082015261708160808401616dd7565b608082015261709260a08401616dd7565b60a08201526170a360c08401616dd7565b60c08201526170b460e08401616dd7565b60e08201526101006170c7818501616dd7565b908201526101206170d9848201616dd7565b908201529392505050565b5f6102a08083526170f78184018a616a6b565b91505086602083015263ffffffff8616604083015261713b606083018680516001600160a01b03908116835260208083015182169084015260409182015116910152565b61714860c0830185616529565b82511515610220830152602083015115156102408301526040830151151561026083015260608301511515610280830152616369565b8082018281125f83128015821682158216171561719d5761719d6168fe565b505092915050565b5f82516171b68184602087016167db565b9190910192915050565b634e487b7160e01b5f52605160045260245ffdfea264697066735822122027c98648f2768c0f3ea293997f498695ed058f84e7752221ca760e76308acb3564736f6c63430008180033","linkReferences":{}},"methodIdentifiers":{"allowance(address,address,address)":"927da105","approve(address,address,uint256)":"e1f21c67","balanceOf(address,address)":"f7888aec","computeDynamicSwapFeePercentage(address,(uint8,uint256,uint256[],uint256,uint256,address,bytes))":"4d472bdd","getAddLiquidityCalledFlag(address)":"ace9b89b","getAggregateSwapFeeAmount(address,address)":"85e0b999","getAggregateYieldFeeAmount(address,address)":"00fdfa13","getBptRate(address)":"4f037ee7","getCurrentLiveBalances(address)":"535cfd8a","getHooksConfig(address)":"ce8630d4","getNonzeroDeltaCount()":"db817187","getPoolConfig(address)":"f29486a1","getPoolData(address)":"13d21cdf","getPoolPausedState(address)":"15e32046","getPoolRoleAccounts(address)":"e9ddeb26","getPoolTokenInfo(address)":"67e0e076","getPoolTokenRates(address)":"7e361bde","getPoolTokens(address)":"ca4f2803","getProtocolFeeController()":"85f2dbd4","getReservesOf(address)":"96787092","getStaticSwapFeePercentage(address)":"b45090f9","getTokenDelta(address)":"9e825ff5","getVaultAdmin()":"1ba0ae45","initialize(address,address,address[],uint256[],uint256,bytes)":"ba8a2be0","isERC4626BufferInitialized(address)":"6844846b","isPoolInRecoveryMode(address)":"be7d628a","isPoolInitialized(address)":"532cec7c","isPoolPaused(address)":"6c9bc732","isPoolRegistered(address)":"c673bdaf","isQueryDisabled()":"b4aef0ab","isUnlocked()":"8380edb7","manualInitializePoolReentrancy(address,address,address[],uint256[],uint256,bytes)":"809846d1","manualRegisterPoolReentrancy(address,(address,uint8,address,bool)[],uint256,uint32,bool,(address,address,address),address,(bool,bool,bool,bool))":"e68010c6","manuallySetSwapFee(address,uint256)":"70600089","mockExtensionHash(bytes)":"590e8145","quote(bytes)":"edfa3568","quoteAndRevert(bytes)":"757d64b3","reentrancyGuardEntered()":"d2c725e0","registerPool(address,(address,uint8,address,bool)[],uint256,uint32,bool,(address,address,address),address,(bool,bool,bool,bool))":"eeec802f","removeLiquidityRecovery(address,address,uint256)":"3a2d133b","totalSupply(address)":"e4dc2aa4","transfer(address,address,uint256)":"beabacc8","transferFrom(address,address,address,uint256)":"15dacbea","vault()":"fbfa77cf"},"id":122}