{"abi":[{"type":"constructor","inputs":[{"name":"vaultInstance","type":"address","internalType":"contract IVault"},{"name":"_factoryAddress","type":"address","internalType":"address"},{"name":"name","type":"string","internalType":"string"},{"name":"symbol","type":"string","internalType":"string"},{"name":"_nftMetadata","type":"address","internalType":"address"}],"stateMutability":"nonpayable"},{"type":"function","name":"BRONZE_TIER_AMOUNT","inputs":[],"outputs":[{"name":"","type":"uint256","internalType":"uint256"}],"stateMutability":"view"},{"type":"function","name":"BRONZE_TIER_THRESHOLD","inputs":[],"outputs":[{"name":"","type":"uint256","internalType":"uint256"}],"stateMutability":"view"},{"type":"function","name":"COOLDOWN_PERIOD","inputs":[],"outputs":[{"name":"","type":"uint256","internalType":"uint256"}],"stateMutability":"view"},{"type":"function","name":"GOLD_TIER_AMOUNT","inputs":[],"outputs":[{"name":"","type":"uint256","internalType":"uint256"}],"stateMutability":"view"},{"type":"function","name":"GOLD_TIER_THRESHOLD","inputs":[],"outputs":[{"name":"","type":"uint256","internalType":"uint256"}],"stateMutability":"view"},{"type":"function","name":"REWARD_RATE","inputs":[],"outputs":[{"name":"","type":"uint256","internalType":"uint256"}],"stateMutability":"view"},{"type":"function","name":"SILVER_TIER_AMOUNT","inputs":[],"outputs":[{"name":"","type":"uint256","internalType":"uint256"}],"stateMutability":"view"},{"type":"function","name":"SILVER_TIER_THRESHOLD","inputs":[],"outputs":[{"name":"","type":"uint256","internalType":"uint256"}],"stateMutability":"view"},{"type":"function","name":"UPGRADE_COOLDOWN_PERIOD","inputs":[],"outputs":[{"name":"","type":"uint256","internalType":"uint256"}],"stateMutability":"view"},{"type":"function","name":"approve","inputs":[{"name":"to","type":"address","internalType":"address"},{"name":"tokenId","type":"uint256","internalType":"uint256"}],"outputs":[],"stateMutability":"nonpayable"},{"type":"function","name":"balanceOf","inputs":[{"name":"owner","type":"address","internalType":"address"}],"outputs":[{"name":"","type":"uint256","internalType":"uint256"}],"stateMutability":"view"},{"type":"function","name":"calculateRewards","inputs":[{"name":"user","type":"address","internalType":"address"},{"name":"pool","type":"address","internalType":"address"}],"outputs":[{"name":"","type":"uint256","internalType":"uint256"}],"stateMutability":"view"},{"type":"function","name":"claimRewards","inputs":[{"name":"pool","type":"address","internalType":"address"}],"outputs":[],"stateMutability":"nonpayable"},{"type":"function","name":"delegate","inputs":[{"name":"delegatee","type":"address","internalType":"address"}],"outputs":[],"stateMutability":"nonpayable"},{"type":"function","name":"delegateBySig","inputs":[{"name":"delegatee","type":"address","internalType":"address"},{"name":"nonce","type":"uint256","internalType":"uint256"},{"name":"expiry","type":"uint256","internalType":"uint256"},{"name":"v","type":"uint8","internalType":"uint8"},{"name":"r","type":"bytes32","internalType":"bytes32"},{"name":"s","type":"bytes32","internalType":"bytes32"}],"outputs":[],"stateMutability":"nonpayable"},{"type":"function","name":"delegates","inputs":[{"name":"account","type":"address","internalType":"address"}],"outputs":[{"name":"","type":"address","internalType":"address"}],"stateMutability":"view"},{"type":"function","name":"getApproved","inputs":[{"name":"tokenId","type":"uint256","internalType":"uint256"}],"outputs":[{"name":"","type":"address","internalType":"address"}],"stateMutability":"view"},{"type":"function","name":"getFeeDiscount","inputs":[{"name":"user","type":"address","internalType":"address"},{"name":"pool","type":"address","internalType":"address"}],"outputs":[{"name":"","type":"uint256","internalType":"uint256"}],"stateMutability":"view"},{"type":"function","name":"getHookFlags","inputs":[],"outputs":[{"name":"hookFlags","type":"tuple","internalType":"struct HookFlags","components":[{"name":"enableHookAdjustedAmounts","type":"bool","internalType":"bool"},{"name":"shouldCallBeforeInitialize","type":"bool","internalType":"bool"},{"name":"shouldCallAfterInitialize","type":"bool","internalType":"bool"},{"name":"shouldCallComputeDynamicSwapFee","type":"bool","internalType":"bool"},{"name":"shouldCallBeforeSwap","type":"bool","internalType":"bool"},{"name":"shouldCallAfterSwap","type":"bool","internalType":"bool"},{"name":"shouldCallBeforeAddLiquidity","type":"bool","internalType":"bool"},{"name":"shouldCallAfterAddLiquidity","type":"bool","internalType":"bool"},{"name":"shouldCallBeforeRemoveLiquidity","type":"bool","internalType":"bool"},{"name":"shouldCallAfterRemoveLiquidity","type":"bool","internalType":"bool"}]}],"stateMutability":"pure"},{"type":"function","name":"getPastTotalSupply","inputs":[{"name":"timepoint","type":"uint256","internalType":"uint256"}],"outputs":[{"name":"","type":"uint256","internalType":"uint256"}],"stateMutability":"view"},{"type":"function","name":"getPastVotes","inputs":[{"name":"account","type":"address","internalType":"address"},{"name":"timepoint","type":"uint256","internalType":"uint256"}],"outputs":[{"name":"","type":"uint256","internalType":"uint256"}],"stateMutability":"view"},{"type":"function","name":"getRemainingCooldownTime","inputs":[{"name":"user","type":"address","internalType":"address"},{"name":"pool","type":"address","internalType":"address"}],"outputs":[{"name":"","type":"uint256","internalType":"uint256"}],"stateMutability":"view"},{"type":"function","name":"getVotes","inputs":[{"name":"account","type":"address","internalType":"address"}],"outputs":[{"name":"","type":"uint256","internalType":"uint256"}],"stateMutability":"view"},{"type":"function","name":"getVotingPower","inputs":[{"name":"user","type":"address","internalType":"address"},{"name":"pool","type":"address","internalType":"address"}],"outputs":[{"name":"","type":"uint256","internalType":"uint256"}],"stateMutability":"view"},{"type":"function","name":"getYieldBoost","inputs":[{"name":"user","type":"address","internalType":"address"},{"name":"pool","type":"address","internalType":"address"}],"outputs":[{"name":"","type":"uint256","internalType":"uint256"}],"stateMutability":"view"},{"type":"function","name":"governor","inputs":[],"outputs":[{"name":"","type":"address","internalType":"contract NFTGovernor"}],"stateMutability":"view"},{"type":"function","name":"isApprovedForAll","inputs":[{"name":"owner","type":"address","internalType":"address"},{"name":"operator","type":"address","internalType":"address"}],"outputs":[{"name":"","type":"bool","internalType":"bool"}],"stateMutability":"view"},{"type":"function","name":"lastUnstakeTime","inputs":[{"name":"","type":"address","internalType":"address"},{"name":"","type":"address","internalType":"address"}],"outputs":[{"name":"","type":"uint256","internalType":"uint256"}],"stateMutability":"view"},{"type":"function","name":"name","inputs":[],"outputs":[{"name":"","type":"string","internalType":"string"}],"stateMutability":"view"},{"type":"function","name":"nftMetadata","inputs":[],"outputs":[{"name":"","type":"address","internalType":"contract NFTMetadata"}],"stateMutability":"view"},{"type":"function","name":"nftTierToFeeDiscount","inputs":[{"name":"","type":"uint256","internalType":"uint256"}],"outputs":[{"name":"","type":"uint256","internalType":"uint256"}],"stateMutability":"view"},{"type":"function","name":"nftTierToVotingPower","inputs":[{"name":"","type":"uint256","internalType":"uint256"}],"outputs":[{"name":"","type":"uint256","internalType":"uint256"}],"stateMutability":"view"},{"type":"function","name":"nftTierToYieldBoost","inputs":[{"name":"","type":"uint256","internalType":"uint256"}],"outputs":[{"name":"","type":"uint256","internalType":"uint256"}],"stateMutability":"view"},{"type":"function","name":"onAfterAddLiquidity","inputs":[{"name":"router","type":"address","internalType":"address"},{"name":"amountsInScaled18","type":"uint256[]","internalType":"uint256[]"},{"name":"bptAmountOut","type":"uint256","internalType":"uint256"},{"name":"balancesScaled18","type":"uint256[]","internalType":"uint256[]"},{"name":"userData","type":"bytes","internalType":"bytes"}],"outputs":[{"name":"success","type":"bool","internalType":"bool"}],"stateMutability":"nonpayable"},{"type":"function","name":"onAfterAddLiquidity","inputs":[{"name":"","type":"address","internalType":"address"},{"name":"","type":"address","internalType":"address"},{"name":"","type":"uint8","internalType":"enum AddLiquidityKind"},{"name":"","type":"uint256[]","internalType":"uint256[]"},{"name":"amountsInRaw","type":"uint256[]","internalType":"uint256[]"},{"name":"","type":"uint256","internalType":"uint256"},{"name":"","type":"uint256[]","internalType":"uint256[]"},{"name":"","type":"bytes","internalType":"bytes"}],"outputs":[{"name":"","type":"bool","internalType":"bool"},{"name":"","type":"uint256[]","internalType":"uint256[]"}],"stateMutability":"nonpayable"},{"type":"function","name":"onAfterInitialize","inputs":[{"name":"","type":"uint256[]","internalType":"uint256[]"},{"name":"","type":"uint256","internalType":"uint256"},{"name":"","type":"bytes","internalType":"bytes"}],"outputs":[{"name":"","type":"bool","internalType":"bool"}],"stateMutability":"nonpayable"},{"type":"function","name":"onAfterRemoveLiquidity","inputs":[{"name":"","type":"address","internalType":"address"},{"name":"","type":"address","internalType":"address"},{"name":"","type":"uint8","internalType":"enum RemoveLiquidityKind"},{"name":"","type":"uint256","internalType":"uint256"},{"name":"","type":"uint256[]","internalType":"uint256[]"},{"name":"amountsOutRaw","type":"uint256[]","internalType":"uint256[]"},{"name":"","type":"uint256[]","internalType":"uint256[]"},{"name":"","type":"bytes","internalType":"bytes"}],"outputs":[{"name":"","type":"bool","internalType":"bool"},{"name":"","type":"uint256[]","internalType":"uint256[]"}],"stateMutability":"nonpayable"},{"type":"function","name":"onAfterRemoveLiquidity","inputs":[{"name":"router","type":"address","internalType":"address"},{"name":"amountsOutScaled18","type":"uint256[]","internalType":"uint256[]"},{"name":"bptAmountIn","type":"uint256","internalType":"uint256"},{"name":"balancesScaled18","type":"uint256[]","internalType":"uint256[]"},{"name":"userData","type":"bytes","internalType":"bytes"}],"outputs":[{"name":"success","type":"bool","internalType":"bool"}],"stateMutability":"nonpayable"},{"type":"function","name":"onAfterSwap","inputs":[{"name":"","type":"tuple","internalType":"struct AfterSwapParams","components":[{"name":"kind","type":"uint8","internalType":"enum SwapKind"},{"name":"tokenIn","type":"address","internalType":"contract IERC20"},{"name":"tokenOut","type":"address","internalType":"contract IERC20"},{"name":"amountInScaled18","type":"uint256","internalType":"uint256"},{"name":"amountOutScaled18","type":"uint256","internalType":"uint256"},{"name":"tokenInBalanceScaled18","type":"uint256","internalType":"uint256"},{"name":"tokenOutBalanceScaled18","type":"uint256","internalType":"uint256"},{"name":"amountCalculatedScaled18","type":"uint256","internalType":"uint256"},{"name":"amountCalculatedRaw","type":"uint256","internalType":"uint256"},{"name":"router","type":"address","internalType":"address"},{"name":"pool","type":"address","internalType":"address"},{"name":"userData","type":"bytes","internalType":"bytes"}]}],"outputs":[{"name":"","type":"bool","internalType":"bool"},{"name":"","type":"uint256","internalType":"uint256"}],"stateMutability":"nonpayable"},{"type":"function","name":"onBeforeAddLiquidity","inputs":[{"name":"","type":"address","internalType":"address"},{"name":"","type":"address","internalType":"address"},{"name":"","type":"uint8","internalType":"enum AddLiquidityKind"},{"name":"","type":"uint256[]","internalType":"uint256[]"},{"name":"","type":"uint256","internalType":"uint256"},{"name":"","type":"uint256[]","internalType":"uint256[]"},{"name":"","type":"bytes","internalType":"bytes"}],"outputs":[{"name":"","type":"bool","internalType":"bool"}],"stateMutability":"nonpayable"},{"type":"function","name":"onBeforeInitialize","inputs":[{"name":"","type":"uint256[]","internalType":"uint256[]"},{"name":"","type":"bytes","internalType":"bytes"}],"outputs":[{"name":"","type":"bool","internalType":"bool"}],"stateMutability":"nonpayable"},{"type":"function","name":"onBeforeRemoveLiquidity","inputs":[{"name":"","type":"address","internalType":"address"},{"name":"","type":"address","internalType":"address"},{"name":"","type":"uint8","internalType":"enum RemoveLiquidityKind"},{"name":"","type":"uint256","internalType":"uint256"},{"name":"","type":"uint256[]","internalType":"uint256[]"},{"name":"","type":"uint256[]","internalType":"uint256[]"},{"name":"","type":"bytes","internalType":"bytes"}],"outputs":[{"name":"","type":"bool","internalType":"bool"}],"stateMutability":"nonpayable"},{"type":"function","name":"onBeforeSwap","inputs":[{"name":"","type":"tuple","internalType":"struct PoolSwapParams","components":[{"name":"kind","type":"uint8","internalType":"enum SwapKind"},{"name":"amountGivenScaled18","type":"uint256","internalType":"uint256"},{"name":"balancesScaled18","type":"uint256[]","internalType":"uint256[]"},{"name":"indexIn","type":"uint256","internalType":"uint256"},{"name":"indexOut","type":"uint256","internalType":"uint256"},{"name":"router","type":"address","internalType":"address"},{"name":"userData","type":"bytes","internalType":"bytes"}]},{"name":"","type":"address","internalType":"address"}],"outputs":[{"name":"","type":"bool","internalType":"bool"}],"stateMutability":"nonpayable"},{"type":"function","name":"onComputeDynamicSwapFeePercentage","inputs":[{"name":"","type":"tuple","internalType":"struct PoolSwapParams","components":[{"name":"kind","type":"uint8","internalType":"enum SwapKind"},{"name":"amountGivenScaled18","type":"uint256","internalType":"uint256"},{"name":"balancesScaled18","type":"uint256[]","internalType":"uint256[]"},{"name":"indexIn","type":"uint256","internalType":"uint256"},{"name":"indexOut","type":"uint256","internalType":"uint256"},{"name":"router","type":"address","internalType":"address"},{"name":"userData","type":"bytes","internalType":"bytes"}]},{"name":"","type":"address","internalType":"address"},{"name":"","type":"uint256","internalType":"uint256"}],"outputs":[{"name":"","type":"bool","internalType":"bool"},{"name":"","type":"uint256","internalType":"uint256"}],"stateMutability":"view"},{"type":"function","name":"onRegister","inputs":[{"name":"factory","type":"address","internalType":"address"},{"name":"pool","type":"address","internalType":"address"},{"name":"","type":"tuple[]","internalType":"struct TokenConfig[]","components":[{"name":"token","type":"address","internalType":"contract IERC20"},{"name":"tokenType","type":"uint8","internalType":"enum TokenType"},{"name":"rateProvider","type":"address","internalType":"contract IRateProvider"},{"name":"paysYieldFees","type":"bool","internalType":"bool"}]},{"name":"","type":"tuple","internalType":"struct LiquidityManagement","components":[{"name":"disableUnbalancedLiquidity","type":"bool","internalType":"bool"},{"name":"enableAddLiquidityCustom","type":"bool","internalType":"bool"},{"name":"enableRemoveLiquidityCustom","type":"bool","internalType":"bool"},{"name":"enableDonation","type":"bool","internalType":"bool"}]}],"outputs":[{"name":"","type":"bool","internalType":"bool"}],"stateMutability":"view"},{"type":"function","name":"owner","inputs":[],"outputs":[{"name":"","type":"address","internalType":"address"}],"stateMutability":"view"},{"type":"function","name":"ownerOf","inputs":[{"name":"tokenId","type":"uint256","internalType":"uint256"}],"outputs":[{"name":"","type":"address","internalType":"address"}],"stateMutability":"view"},{"type":"function","name":"renounceOwnership","inputs":[],"outputs":[],"stateMutability":"nonpayable"},{"type":"function","name":"rewardToken","inputs":[],"outputs":[{"name":"","type":"address","internalType":"contract RewardToken"}],"stateMutability":"view"},{"type":"function","name":"safeTransferFrom","inputs":[{"name":"from","type":"address","internalType":"address"},{"name":"to","type":"address","internalType":"address"},{"name":"tokenId","type":"uint256","internalType":"uint256"}],"outputs":[],"stateMutability":"nonpayable"},{"type":"function","name":"safeTransferFrom","inputs":[{"name":"from","type":"address","internalType":"address"},{"name":"to","type":"address","internalType":"address"},{"name":"tokenId","type":"uint256","internalType":"uint256"},{"name":"data","type":"bytes","internalType":"bytes"}],"outputs":[],"stateMutability":"nonpayable"},{"type":"function","name":"setApprovalForAll","inputs":[{"name":"operator","type":"address","internalType":"address"},{"name":"approved","type":"bool","internalType":"bool"}],"outputs":[],"stateMutability":"nonpayable"},{"type":"function","name":"setFeeDiscounts","inputs":[{"name":"tiers","type":"uint256[]","internalType":"uint256[]"},{"name":"discounts","type":"uint256[]","internalType":"uint256[]"}],"outputs":[],"stateMutability":"nonpayable"},{"type":"function","name":"setVotingPower","inputs":[{"name":"tiers","type":"uint256[]","internalType":"uint256[]"},{"name":"votingPower","type":"uint256[]","internalType":"uint256[]"}],"outputs":[],"stateMutability":"nonpayable"},{"type":"function","name":"setYieldBoost","inputs":[{"name":"tiers","type":"uint256[]","internalType":"uint256[]"},{"name":"boosts","type":"uint256[]","internalType":"uint256[]"}],"outputs":[],"stateMutability":"nonpayable"},{"type":"function","name":"stakingInfo","inputs":[{"name":"user","type":"address","internalType":"address"},{"name":"pool","type":"address","internalType":"address"}],"outputs":[{"name":"stakedAmount","type":"uint256","internalType":"uint256"},{"name":"stakingStartTime","type":"uint256","internalType":"uint256"},{"name":"lastMilestoneTime","type":"uint256","internalType":"uint256"},{"name":"currentTier","type":"uint256","internalType":"uint256"},{"name":"lastRewardClaim","type":"uint256","internalType":"uint256"}],"stateMutability":"view"},{"type":"function","name":"supportsInterface","inputs":[{"name":"interfaceId","type":"bytes4","internalType":"bytes4"}],"outputs":[{"name":"","type":"bool","internalType":"bool"}],"stateMutability":"view"},{"type":"function","name":"symbol","inputs":[],"outputs":[{"name":"","type":"string","internalType":"string"}],"stateMutability":"view"},{"type":"function","name":"tokenURI","inputs":[{"name":"tokenId","type":"uint256","internalType":"uint256"}],"outputs":[{"name":"","type":"string","internalType":"string"}],"stateMutability":"view"},{"type":"function","name":"transferFrom","inputs":[{"name":"from","type":"address","internalType":"address"},{"name":"to","type":"address","internalType":"address"},{"name":"tokenId","type":"uint256","internalType":"uint256"}],"outputs":[],"stateMutability":"nonpayable"},{"type":"function","name":"transferOwnership","inputs":[{"name":"newOwner","type":"address","internalType":"address"}],"outputs":[],"stateMutability":"nonpayable"},{"type":"function","name":"upgradeNFT","inputs":[{"name":"tokenId","type":"uint256","internalType":"uint256"}],"outputs":[],"stateMutability":"nonpayable"},{"type":"event","name":"Approval","inputs":[{"name":"owner","type":"address","indexed":true,"internalType":"address"},{"name":"approved","type":"address","indexed":true,"internalType":"address"},{"name":"tokenId","type":"uint256","indexed":true,"internalType":"uint256"}],"anonymous":false},{"type":"event","name":"ApprovalForAll","inputs":[{"name":"owner","type":"address","indexed":true,"internalType":"address"},{"name":"operator","type":"address","indexed":true,"internalType":"address"},{"name":"approved","type":"bool","indexed":false,"internalType":"bool"}],"anonymous":false},{"type":"event","name":"DelegateChanged","inputs":[{"name":"delegator","type":"address","indexed":true,"internalType":"address"},{"name":"fromDelegate","type":"address","indexed":true,"internalType":"address"},{"name":"toDelegate","type":"address","indexed":true,"internalType":"address"}],"anonymous":false},{"type":"event","name":"DelegateVotesChanged","inputs":[{"name":"delegate","type":"address","indexed":true,"internalType":"address"},{"name":"previousVotes","type":"uint256","indexed":false,"internalType":"uint256"},{"name":"newVotes","type":"uint256","indexed":false,"internalType":"uint256"}],"anonymous":false},{"type":"event","name":"LiquidityAdded","inputs":[{"name":"user","type":"address","indexed":true,"internalType":"address"},{"name":"pool","type":"address","indexed":true,"internalType":"address"},{"name":"amount","type":"uint256","indexed":false,"internalType":"uint256"}],"anonymous":false},{"type":"event","name":"LiquidityRemoved","inputs":[{"name":"user","type":"address","indexed":true,"internalType":"address"},{"name":"pool","type":"address","indexed":true,"internalType":"address"},{"name":"amount","type":"uint256","indexed":false,"internalType":"uint256"}],"anonymous":false},{"type":"event","name":"NFTMinted","inputs":[{"name":"user","type":"address","indexed":true,"internalType":"address"},{"name":"pool","type":"address","indexed":true,"internalType":"address"},{"name":"tokenId","type":"uint256","indexed":false,"internalType":"uint256"},{"name":"tier","type":"uint256","indexed":false,"internalType":"uint256"}],"anonymous":false},{"type":"event","name":"NFTUpgraded","inputs":[{"name":"user","type":"address","indexed":true,"internalType":"address"},{"name":"pool","type":"address","indexed":true,"internalType":"address"},{"name":"tokenId","type":"uint256","indexed":false,"internalType":"uint256"},{"name":"newTier","type":"uint256","indexed":false,"internalType":"uint256"}],"anonymous":false},{"type":"event","name":"OwnershipTransferred","inputs":[{"name":"previousOwner","type":"address","indexed":true,"internalType":"address"},{"name":"newOwner","type":"address","indexed":true,"internalType":"address"}],"anonymous":false},{"type":"event","name":"RewardsClaimed","inputs":[{"name":"user","type":"address","indexed":true,"internalType":"address"},{"name":"pool","type":"address","indexed":true,"internalType":"address"},{"name":"amount","type":"uint256","indexed":false,"internalType":"uint256"}],"anonymous":false},{"type":"event","name":"Transfer","inputs":[{"name":"from","type":"address","indexed":true,"internalType":"address"},{"name":"to","type":"address","indexed":true,"internalType":"address"},{"name":"tokenId","type":"uint256","indexed":true,"internalType":"uint256"}],"anonymous":false},{"type":"error","name":"ERC721IncorrectOwner","inputs":[{"name":"sender","type":"address","internalType":"address"},{"name":"tokenId","type":"uint256","internalType":"uint256"},{"name":"owner","type":"address","internalType":"address"}]},{"type":"error","name":"ERC721InsufficientApproval","inputs":[{"name":"operator","type":"address","internalType":"address"},{"name":"tokenId","type":"uint256","internalType":"uint256"}]},{"type":"error","name":"ERC721InvalidApprover","inputs":[{"name":"approver","type":"address","internalType":"address"}]},{"type":"error","name":"ERC721InvalidOperator","inputs":[{"name":"operator","type":"address","internalType":"address"}]},{"type":"error","name":"ERC721InvalidOwner","inputs":[{"name":"owner","type":"address","internalType":"address"}]},{"type":"error","name":"ERC721InvalidReceiver","inputs":[{"name":"receiver","type":"address","internalType":"address"}]},{"type":"error","name":"ERC721InvalidSender","inputs":[{"name":"sender","type":"address","internalType":"address"}]},{"type":"error","name":"ERC721NonexistentToken","inputs":[{"name":"tokenId","type":"uint256","internalType":"uint256"}]},{"type":"error","name":"OwnableInvalidOwner","inputs":[{"name":"owner","type":"address","internalType":"address"}]},{"type":"error","name":"OwnableUnauthorizedAccount","inputs":[{"name":"account","type":"address","internalType":"address"}]},{"type":"error","name":"ReentrancyGuardReentrantCall","inputs":[]},{"type":"error","name":"VotesExpiredSignature","inputs":[{"name":"expiry","type":"uint256","internalType":"uint256"}]}],"bytecode":{"object":"0x60a060405234801562000010575f80fd5b5060405162007c0638038062007c068339810160408190526200003391620002c2565b843384845f620000448382620003f2565b506001620000538282620003f2565b5050506001600160a01b0381166200008457604051631e4fbdf760e01b81525f600482015260240160405180910390fd5b6200008f816200017c565b506001600160a01b039081166080526001600755601480546001600160a01b0319169183169190911790556040513090620000ca90620001cd565b6001600160a01b039091168152602001604051809103905ff080158015620000f4573d5f803e3d5ffd5b50600880546001600160a01b0319166001600160a01b039290921691909117905560405130906200012590620001db565b6001600160a01b039091168152602001604051809103905ff0801580156200014f573d5f803e3d5ffd5b50600980546001600160a01b0319166001600160a01b039290921691909117905550620004be9350505050565b600680546001600160a01b038381166001600160a01b0319831681179093556040519116919082907f8be0079c531659141344cd1fd0a4f28419497f9722a3daafe3b4186f6b6457e0905f90a35050565b6137e2806200394083390190565b610ae4806200712283390190565b6001600160a01b0381168114620001fe575f80fd5b50565b634e487b7160e01b5f52604160045260245ffd5b5f82601f83011262000225575f80fd5b81516001600160401b038082111562000242576200024262000201565b604051601f8301601f19908116603f011681019082821181831017156200026d576200026d62000201565b81604052838152602092508660208588010111156200028a575f80fd5b5f91505b83821015620002ad57858201830151818301840152908201906200028e565b5f602085830101528094505050505092915050565b5f805f805f60a08688031215620002d7575f80fd5b8551620002e481620001e9565b6020870151909550620002f781620001e9565b60408701519094506001600160401b038082111562000314575f80fd5b6200032289838a0162000215565b9450606088015191508082111562000338575f80fd5b50620003478882890162000215565b92505060808601516200035a81620001e9565b809150509295509295909350565b600181811c908216806200037d57607f821691505b6020821081036200039c57634e487b7160e01b5f52602260045260245ffd5b50919050565b601f821115620003ed57805f5260205f20601f840160051c81016020851015620003c95750805b601f840160051c820191505b81811015620003ea575f8155600101620003d5565b50505b505050565b81516001600160401b038111156200040e576200040e62000201565b62000426816200041f845462000368565b84620003a2565b602080601f8311600181146200045c575f8415620004445750858301515b5f19600386901b1c1916600185901b178555620004b6565b5f85815260208120601f198616915b828110156200048c578886015182559484019460019091019084016200046b565b5085821015620004aa57878501515f19600388901b60f8161c191681555b505060018460011b0185555b505050505050565b60805161346c620004d45f395f505061346c5ff3fe608060405234801561000f575f80fd5b50600436106103a8575f3560e01c806370a08231116101ea578063a79d579d11610114578063e167711c116100a9578063ef5cfb8c11610079578063ef5cfb8c14610a8b578063f2fde38b14610a9e578063f7c618c114610ab1578063f91b598814610ac4575f80fd5b8063e167711c146109be578063e75c6104146109c8578063e985e9c514610a3f578063ecf686f814610a7a575f80fd5b8063c3cda520116100e4578063c3cda52014610929578063c87b56dd1461093f578063d77153a714610952578063ddb5093b146109ab575f80fd5b8063a79d579d146108df578063b28de389146108e9578063b88d4fde14610908578063ba5f9f401461091b575f80fd5b806390690c9a1161018a5780639ab24eb01161015a5780639ab24eb01461082a578063a0e8f5ac1461083d578063a22cb46514610855578063a60b114514610868575f80fd5b806390690c9a146107c857806392c0526a146107db57806395d89b4114610805578063976907cc1461080d575f80fd5b8063825e57ea116101c5578063825e57ea1461077e578063851cca0e146107915780638da5cb5b146107a45780638e539e8c146107b5575f80fd5b806370a0823114610763578063715018a6146107765780638187c64114610749575f80fd5b806330c0ddfb116102d65780635750ec531161026b5780635f68a6db1161023b5780635f68a6db146107235780636352211e146107365780636e99d52f14610749578063707f443914610753575f80fd5b80635750ec5314610652578063587cde1e146106f25780635997bb37146107035780635c19a95c14610712575f80fd5b806343cd09e2116102a657806343cd09e2146105f857806345421ec7146106175780635211fa771461063157806352f003e11461063f575f80fd5b806330c0ddfb146105ab57806338be241d146105bc5780633a46b1a8146105d257806342842e0e146105e5575f80fd5b80630c340a241161034c5780631c149e281161031c5780631c149e281461054557806320275bd71461055a57806323b872dd1461056d5780632754888d14610580575f80fd5b80630c340a24146104d45780630fbd1111146104e7578063145e32c51461050657806318b6eb5514610519575f80fd5b8063081812fc11610387578063081812fc1461040a578063095ea7b314610435578063098c76d41461044a5780630b89f182146104c1575f80fd5b8062c9d509146103ac57806301ffc9a7146103d257806306fdde03146103f5575b5f80fd5b6103bf6103ba3660046126ee565b610ace565b6040519081526020015b60405180910390f35b6103e56103e036600461273a565b610c05565b60405190151581526020016103c9565b6103fd610c9f565b6040516103c991906127a9565b61041d6104183660046127bb565b610d2e565b6040516001600160a01b0390911681526020016103c9565b6104486104433660046127d2565b610d55565b005b6103bf6104583660046126ee565b6001600160a01b039182165f908152600a60209081526040808320939094168252918252828120835160a081018552815481526001820154818501526002820154818601526003820154606082018190526004909201546080909101528152600e909152205490565b6103e56104cf3660046128b0565b610d64565b60085461041d906001600160a01b031681565b6103bf6104f53660046127bb565b600e6020525f908152604090205481565b60145461041d906001600160a01b031681565b61052e6105273660046129d8565b505f908190565b6040805192151583526020830191909152016103c9565b6103e5610553366004612aeb565b5f92915050565b610448610568366004612b4b565b610df1565b61044861057b366004612ba1565b610eb0565b61059d61058e366004612bed565b5f839850989650505050505050565b6040516103c9929190612ccd565b6103bf69010f0cf064dd5920000081565b6103e56105ca366004612d1d565b5f9392505050565b6103bf6105e03660046127d2565b610f52565b6104486105f3366004612ba1565b610fd7565b6103bf6106063660046127bb565b600f6020525f908152604090205481565b6103e5610625366004612d93565b5f979650505050505050565b6103e5610553366004612e63565b61044861064d366004612b4b565b610ff1565b6106ca6106603660046126ee565b6001600160a01b039182165f908152600a60209081526040808320939094168252918252829020825160a081018452815480825260018301549382018490526002830154948201859052600383015460608301819052600490930154608090920182905294929392565b604080519586526020860194909452928401919091526060830152608082015260a0016103c9565b61041d610700366004612ea7565b90565b6103bf670de0b6b3a764000081565b610448610720366004612ea7565b50565b610448610731366004612b4b565b6110a6565b61041d6107443660046127bb565b61115b565b6103bf62093a8081565b6103bf683635c9adc5dea0000081565b6103bf610771366004612ea7565b611165565b6104486111c3565b6103e561078c366004612ec2565b6111d6565b6103e561079f366004612ec2565b6114f6565b6006546001600160a01b031661041d565b6103bf6107c33660046127bb565b611626565b6104486107d63660046127bb565b611695565b6103bf6107e93660046126ee565b600b60209081525f928352604080842090915290825290205481565b6103fd6118a2565b61059d61081b366004612f60565b5f849850989650505050505050565b6103bf610838366004612ea7565b6118b1565b61052e61084b366004613002565b5f80935093915050565b610448610863366004613047565b6119e8565b6103bf6108763660046126ee565b6001600160a01b039182165f908152600a60209081526040808320939094168252918252828120835160a081018552815481526001820154818501526002820154818601526003820154606082018190526004909201546080909101528152600f909152205490565b6103bf62ed4e0081565b6103bf6108f73660046127bb565b60106020525f908152604090205481565b610448610916366004613073565b6119f3565b6103e56106253660046130db565b61044861093736600461315e565b505050505050565b6103fd61094d3660046127bb565b611a0b565b60408051610140810182525f80825260208201819052818301819052606082018190526080820181905260a0820181905260c08201819052610100820152600160e0820181905261012082015290516103c991906131bb565b6103bf6109b93660046126ee565b611b06565b6103bf62278d0081565b6103bf6109d63660046126ee565b6001600160a01b039182165f908152600a60209081526040808320939094168252918252828120835160a0810185528154815260018201548185015260028201548186015260038201546060820181905260049092015460809091015281526010909152205490565b6103e5610a4d3660046126ee565b6001600160a01b039182165f90815260056020908152604080832093909416825291909152205460ff1690565b6103bf69021e19e0c9bab240000081565b610448610a99366004612ea7565b611b61565b610448610aac366004612ea7565b611c9e565b60095461041d906001600160a01b031681565b6103bf6276a70081565b6001600160a01b038083165f908152600a602090815260408083209385168352928152828220835160a0810185528154815260018201549281019290925260028101549382019390935260038301546060820152600490920154608083018190529091908290610b3e9042613287565b6001600160a01b038681165f908152600a602090815260408083209389168352928152828220835160a081018552815481526001820154818401526002820154818601526003820154606082018190526004909201546080909101528252601090522054909150670de0b6b3a76400006064610bba838261329a565b8551670de0b6b3a764000090610bd19087906132ad565b610bdb91906132ad565b610be591906132ad565b610bef91906132c4565b610bf991906132c4565b93505050505b92915050565b5f6001600160e01b031982167f80ac58cd000000000000000000000000000000000000000000000000000000001480610c6757506001600160e01b031982167f5b5e139f00000000000000000000000000000000000000000000000000000000145b80610bff57507f01ffc9a7000000000000000000000000000000000000000000000000000000006001600160e01b0319831614610bff565b60605f8054610cad906132e3565b80601f0160208091040260200160405190810160405280929190818152602001828054610cd9906132e3565b8015610d245780601f10610cfb57610100808354040283529160200191610d24565b820191905f5260205f20905b815481529060010190602001808311610d0757829003601f168201915b5050505050905090565b5f610d3882611cf1565b505f828152600460205260409020546001600160a01b0316610bff565b610d60828233611d29565b5050565b6040517f6634b7530000000000000000000000000000000000000000000000000000000081526001600160a01b0384811660048301525f9190861690636634b75390602401602060405180830381865afa158015610dc4573d5f803e3d5ffd5b505050506040513d601f19601f82011682018060405250810190610de89190613315565b95945050505050565b610df9611d36565b8051825114610e4f5760405162461bcd60e51b815260206004820181905260248201527f417272617973206d7573742068617665207468652073616d65206c656e67746860448201526064015b60405180910390fd5b5f5b8251811015610eab57818181518110610e6c57610e6c613330565b602002602001015160105f858481518110610e8957610e89613330565b60209081029190910181015182528101919091526040015f2055600101610e51565b505050565b6001600160a01b038216610ed957604051633250574960e11b81525f6004820152602401610e46565b5f610ee5838333611d7c565b9050836001600160a01b0316816001600160a01b031614610f4c576040517f64283d7b0000000000000000000000000000000000000000000000000000000081526001600160a01b0380861660048301526024820184905282166044820152606401610e46565b50505050565b5f428210610fa25760405162461bcd60e51b815260206004820152601960248201527f4552433230566f7465733a20667574757265206c6f6f6b7570000000000000006044820152606401610e46565b5f610fac83611e7b565b5f9081526011602090815260408083206001600160a01b038816845290915290205491505092915050565b610eab83838360405180602001604052805f8152506119f3565b610ff9611d36565b805182511461104a5760405162461bcd60e51b815260206004820181905260248201527f417272617973206d7573742068617665207468652073616d65206c656e6774686044820152606401610e46565b5f5b8251811015610eab5781818151811061106757611067613330565b6020026020010151600f5f85848151811061108457611084613330565b60209081029190910181015182528101919091526040015f205560010161104c565b6110ae611d36565b80518251146110ff5760405162461bcd60e51b815260206004820181905260248201527f417272617973206d7573742068617665207468652073616d65206c656e6774686044820152606401610e46565b5f5b8251811015610eab5781818151811061111c5761111c613330565b6020026020010151600e5f85848151811061113957611139613330565b60209081029190910181015182528101919091526040015f2055600101611101565b5f610bff82611cf1565b5f6001600160a01b0382166111a8576040517f89c62b640000000000000000000000000000000000000000000000000000000081525f6004820152602401610e46565b506001600160a01b03165f9081526003602052604090205490565b6111cb611d36565b6111d45f611ef5565b565b6001600160a01b0385165f908152600a60209081526040808320338085529252822080548892919087111561124d5760405162461bcd60e51b815260206004820152601a60248201527f496e73756666696369656e74207374616b656420616d6f756e740000000000006044820152606401610e46565b6001600160a01b038084165f908152600b60209081526040808320938616835292905220546112809062093a809061329a565b4210156112cf5760405162461bcd60e51b815260206004820152601860248201527f436f6f6c646f776e20706572696f64206e6f74206f76657200000000000000006044820152606401610e46565b86815f015f8282546112e19190613287565b90915550506001600160a01b038084165f908152600b6020908152604080832093861683529290529081204290558154900361135e576001600160a01b038084165f908152600a60209081526040808320938616835292905290812081815560018101829055600281018290556003810182905560040155611368565b6113688383611f53565b5f6113738484610ace565b9050801561142a576009546040516340c10f1960e01b81526001600160a01b03868116600483015260248201849052909116906340c10f19906044015f604051808303815f87803b1580156113c6575f80fd5b505af11580156113d8573d5f803e3d5ffd5b50505050826001600160a01b0316846001600160a01b03167f9310ccfcb8de723f578a9e4282ea9f521f05ae40dc08f3068dfad528a65ee3c78360405161142191815260200190565b60405180910390a35b826001600160a01b0316846001600160a01b03167f983e86fda8e7b1e2eae380201830eaf1cac55772e8e39583da349865e81788638a60405161146f91815260200190565b60405180910390a36001600160a01b038085165f908152600a602090815260408083209387168352928152828220835160a081018552815481526001820154818401526002820154818601526003820154606082018190526004909201546080909101528252600f905220546114e6908590611fa8565b5060019998505050505050505050565b6001600160a01b0385165f908152600a60209081526040808320338085529252822080548892919084036115395742600182018190556002820181905560048201555b86815f015f82825461154b919061329a565b9091555061155b9050838361206b565b6001600160a01b038084165f908152600a602090815260408083209386168352928152828220835160a081018552815481526001820154818401526002820154818601526003820154606082018190526004909201546080909101528252600f905220546115ca908490611fa8565b816001600160a01b0316836001600160a01b03167f9d278c56ba6dc86a12eefe6b43112bd6e06648eb4ec0b950ee2d783d40e2acb48960405161160f91815260200190565b60405180910390a350600198975050505050505050565b5f4282106116765760405162461bcd60e51b815260206004820152601960248201527f4552433230566f7465733a20667574757265206c6f6f6b7570000000000000006044820152606401610e46565b5f61168083611e7b565b5f908152601260205260409020549392505050565b61169d61216d565b5f6116a78261115b565b90506001600160a01b03811633146117015760405162461bcd60e51b815260206004820152601860248201527f4e6f7420746865206f776e6572206f6620746865204e465400000000000000006044820152606401610e46565b335f908152600b60209081526040808320858452600c8352818420546001600160a01b0316845290915290205461173c9062093a809061329a565b42101561178b5760405162461bcd60e51b815260206004820181905260248201527f5570677261646520636f6f6c646f776e20706572696f64206e6f74206f7665726044820152606401610e46565b5f828152600c6020908152604080832054338452600a83528184206001600160a01b039091168085529252822080546001820154929391926117d791906117d29042613287565b6121b0565b90508160030154811161182c5760405162461bcd60e51b815260206004820152601460248201527f4e6f207570677261646520617661696c61626c650000000000000000000000006044820152606401610e46565b60038201819055335f818152600b602090815260408083206001600160a01b0388168085529083529281902042905580518981529182018590529192917fbb831840f1be0fa183e481b70ec128bc4ecb3406dbc2a76f59d437ffd6cddc49910160405180910390a3505050506107206001600755565b606060018054610cad906132e3565b5f8060015b600d5481116119e1576040517f6352211e000000000000000000000000000000000000000000000000000000008152600481018290523090636352211e90602401602060405180830381865afa925050508015611930575060408051601f3d908101601f1916820190925261192d91810190613344565b60015b156119cf57846001600160a01b0316816001600160a01b0316036119cd575f828152600c60209081526040808320546001600160a01b038981168552600a84528285209116808552908352818420825160a081018452815481526001820154818601526002820154818501526003820154606082018190526004909201546080909101528452600f909252909120546119c9908561329a565b9350505b505b806119d98161335f565b9150506118b6565b5092915050565b610d60338383612235565b6119fe848484610eb0565b610f4c33858585856122ec565b60605f611a178361115b565b5f848152600c60209081526040808320546001600160a01b038581168552600a845282852091811680865291845293829020825160a08101845281548152600182015494810194909452600281015484840152600381015460608501819052600491820154608086015260145493517f92cb829d0000000000000000000000000000000000000000000000000000000081529182018a9052602482015294955093919216906392cb829d906044015f60405180830381865afa158015611adf573d5f803e3d5ffd5b505050506040513d5f823e601f3d908101601f19168201604052610de89190810190613377565b6001600160a01b038083165f908152600b602090815260408083209385168352929052908120548190611b3d9062093a809061329a565b9050804210611b4f575f915050610bff565b611b594282613287565b949350505050565b611b6961216d565b335f908152600a602090815260408083206001600160a01b038516845290915290208054611bd95760405162461bcd60e51b815260206004820152601360248201527f4e6f207374616b696e6720706f736974696f6e000000000000000000000000006044820152606401610e46565b5f611be43384610ace565b426004848101919091556009546040516340c10f1960e01b81523392810192909252602482018390529192506001600160a01b03909116906340c10f19906044015f604051808303815f87803b158015611c3c575f80fd5b505af1158015611c4e573d5f803e3d5ffd5b50506040518381526001600160a01b03861692503391507f9310ccfcb8de723f578a9e4282ea9f521f05ae40dc08f3068dfad528a65ee3c79060200160405180910390a350506107206001600755565b611ca6611d36565b6001600160a01b038116611ce8576040517f1e4fbdf70000000000000000000000000000000000000000000000000000000081525f6004820152602401610e46565b61072081611ef5565b5f818152600260205260408120546001600160a01b031680610bff57604051637e27328960e01b815260048101849052602401610e46565b610eab838383600161240b565b6006546001600160a01b031633146111d4576040517f118cdaa7000000000000000000000000000000000000000000000000000000008152336004820152602401610e46565b5f828152600260205260408120546001600160a01b0390811690831615611da857611da8818486612553565b6001600160a01b03811615611de257611dc35f855f8061240b565b6001600160a01b0381165f90815260036020526040902080545f190190555b6001600160a01b03851615611e10576001600160a01b0385165f908152600360205260409020805460010190555b5f84815260026020526040808220805473ffffffffffffffffffffffffffffffffffffffff19166001600160a01b0389811691821790925591518793918516917fddf252ad1be2c89b69c2b068fc378daa952ba7f163c4a11628f55a4df523b3ef91a4949350505050565b6013545f9081905b80821015611ed6575f6002611e98838561329a565b611ea291906132c4565b5f81815260126020526040902054909150851015611ec257809150611ed0565b611ecd81600161329a565b92505b50611e83565b8115611eec57611ee7600183613287565b611b59565b5f949350505050565b600680546001600160a01b0383811673ffffffffffffffffffffffffffffffffffffffff19831681179093556040519116919082907f8be0079c531659141344cd1fd0a4f28419497f9722a3daafe3b4186f6b6457e0905f90a35050565b6001600160a01b038083165f908152600a6020908152604080832093851683529290529081206001810154909190611f8b9042613287565b9050611f9a825f0154826121b0565b826003018190555050505050565b60138054905f611fb78361335f565b9091555050601380545f9081526011602081815260408084206001600160a01b038816855290915282208490559154611ff290600190613287565b81526020019081526020015f205f836001600160a01b03166001600160a01b031681526020019081526020015f20548160125f60016013546120349190613287565b81526020019081526020015f205461204c919061329a565b6120569190613287565b6013545f908152601260205260409020555050565b6001600160a01b038083165f908152600a60209081526040808320938516835292905290812060028101549091906120a39042613287565b90505f6120b3835f0154836121b0565b9050826003015481111561216657600d80545f91826120d18361335f565b9190505590506120e186826125d0565b5f818152600c6020908152604091829020805473ffffffffffffffffffffffffffffffffffffffff19166001600160a01b0389811691821790925542600289015560038801869055835185815292830186905292908916917f9e8a709a89b83b7026f9ebab1f1b5b04c5edf5339369ea5ae302868f443aead7910160405180910390a3505b5050505050565b6002600754036121a9576040517f3ee5aeb500000000000000000000000000000000000000000000000000000000815260040160405180910390fd5b6002600755565b5f62ed4e0082101580156121ce575069021e19e0c9bab24000008310155b156121db57506003610bff565b6276a70082101580156121f8575069010f0cf064dd592000008310155b1561220557506002610bff565b62278d0082101580156122215750683635c9adc5dea000008310155b1561222e57506001610bff565b505f610bff565b6001600160a01b038216612280576040517f5b08ba180000000000000000000000000000000000000000000000000000000081526001600160a01b0383166004820152602401610e46565b6001600160a01b038381165f81815260056020908152604080832094871680845294825291829020805460ff191686151590811790915591519182527f17307eab39ab6107e8899845ad3d59bd9653f200f220920489ca2b5937696c31910160405180910390a3505050565b6001600160a01b0383163b1561216657604051630a85bd0160e11b81526001600160a01b0384169063150b7a029061232e9088908890879087906004016133e0565b6020604051808303815f875af1925050508015612368575060408051601f3d908101601f191682019092526123659181019061341b565b60015b6123cf573d808015612395576040519150601f19603f3d011682016040523d82523d5f602084013e61239a565b606091505b5080515f036123c757604051633250574960e11b81526001600160a01b0385166004820152602401610e46565b805181602001fd5b6001600160e01b03198116630a85bd0160e11b1461093757604051633250574960e11b81526001600160a01b0385166004820152602401610e46565b808061241f57506001600160a01b03821615155b15612517575f61242e84611cf1565b90506001600160a01b0383161580159061245a5750826001600160a01b0316816001600160a01b031614155b801561248b57506001600160a01b038082165f9081526005602090815260408083209387168352929052205460ff16155b156124cd576040517fa9fbf51f0000000000000000000000000000000000000000000000000000000081526001600160a01b0384166004820152602401610e46565b81156125155783856001600160a01b0316826001600160a01b03167f8c5be1e5ebec7d5bd14f71427d1e84f3dd0314c0f7b2291e5b200ac8c7c3b92560405160405180910390a45b505b50505f908152600460205260409020805473ffffffffffffffffffffffffffffffffffffffff19166001600160a01b0392909216919091179055565b61255e83838361264a565b610eab576001600160a01b03831661258c57604051637e27328960e01b815260048101829052602401610e46565b6040517f177e802f0000000000000000000000000000000000000000000000000000000081526001600160a01b038316600482015260248101829052604401610e46565b6001600160a01b0382166125f957604051633250574960e11b81525f6004820152602401610e46565b5f61260583835f611d7c565b90506001600160a01b03811615610eab576040517f73c6ac6e0000000000000000000000000000000000000000000000000000000081525f6004820152602401610e46565b5f6001600160a01b03831615801590611b595750826001600160a01b0316846001600160a01b031614806126a257506001600160a01b038085165f9081526005602090815260408083209387168352929052205460ff165b80611b595750505f908152600460205260409020546001600160a01b03908116911614919050565b6001600160a01b0381168114610720575f80fd5b80356126e9816126ca565b919050565b5f80604083850312156126ff575f80fd5b823561270a816126ca565b9150602083013561271a816126ca565b809150509250929050565b6001600160e01b031981168114610720575f80fd5b5f6020828403121561274a575f80fd5b813561275581612725565b9392505050565b5f5b8381101561277657818101518382015260200161275e565b50505f910152565b5f815180845261279581602086016020860161275c565b601f01601f19169290920160200192915050565b602081525f612755602083018461277e565b5f602082840312156127cb575f80fd5b5035919050565b5f80604083850312156127e3575f80fd5b82356127ee816126ca565b946020939093013593505050565b634e487b7160e01b5f52604160045260245ffd5b6040516080810167ffffffffffffffff81118282101715612833576128336127fc565b60405290565b604051601f8201601f1916810167ffffffffffffffff81118282101715612862576128626127fc565b604052919050565b5f67ffffffffffffffff821115612883576128836127fc565b5060051b60200190565b8015158114610720575f80fd5b5f608082840312156128aa575f80fd5b50919050565b5f805f8060e085870312156128c3575f80fd5b84356128ce816126ca565b93506020858101356128df816126ca565b935060408681013567ffffffffffffffff8111156128fb575f80fd5b8701601f8101891361290b575f80fd5b803561291e6129198261286a565b612839565b81815260079190911b8201840190848101908b83111561293c575f80fd5b928501925b828410156129b7576080848d031215612958575f80fd5b612960612810565b843561296b816126ca565b8152848701356002811061297d575f80fd5b818801528486013561298e816126ca565b818701526060858101356129a18161288d565b9082015282526080939093019290850190612941565b8097505050505050506129cd866060870161289a565b905092959194509250565b5f602082840312156129e8575f80fd5b813567ffffffffffffffff8111156129fe575f80fd5b82016101808185031215612755575f80fd5b5f82601f830112612a1f575f80fd5b81356020612a2f6129198361286a565b8083825260208201915060208460051b870101935086841115612a50575f80fd5b602086015b84811015612a6c5780358352918301918301612a55565b509695505050505050565b5f67ffffffffffffffff821115612a9057612a906127fc565b50601f01601f191660200190565b5f82601f830112612aad575f80fd5b8135612abb61291982612a77565b818152846020838601011115612acf575f80fd5b816020850160208301375f918101602001919091529392505050565b5f8060408385031215612afc575f80fd5b823567ffffffffffffffff80821115612b13575f80fd5b612b1f86838701612a10565b93506020850135915080821115612b34575f80fd5b50612b4185828601612a9e565b9150509250929050565b5f8060408385031215612b5c575f80fd5b823567ffffffffffffffff80821115612b73575f80fd5b612b7f86838701612a10565b93506020850135915080821115612b94575f80fd5b50612b4185828601612a10565b5f805f60608486031215612bb3575f80fd5b8335612bbe816126ca565b92506020840135612bce816126ca565b929592945050506040919091013590565b8035600481106126e9575f80fd5b5f805f805f805f80610100898b031215612c05575f80fd5b612c0e896126de565b9750612c1c60208a016126de565b9650612c2a60408a01612bdf565b955060608901359450608089013567ffffffffffffffff80821115612c4d575f80fd5b612c598c838d01612a10565b955060a08b0135915080821115612c6e575f80fd5b612c7a8c838d01612a10565b945060c08b0135915080821115612c8f575f80fd5b612c9b8c838d01612a10565b935060e08b0135915080821115612cb0575f80fd5b50612cbd8b828c01612a9e565b9150509295985092959890939650565b5f6040820184151583526020604060208501528185518084526060860191506020870193505f5b81811015612d1057845183529383019391830191600101612cf4565b5090979650505050505050565b5f805f60608486031215612d2f575f80fd5b833567ffffffffffffffff80821115612d46575f80fd5b612d5287838801612a10565b9450602086013593506040860135915080821115612d6e575f80fd5b50612d7b86828701612a9e565b9150509250925092565b8035600581106126e9575f80fd5b5f805f805f805f60e0888a031215612da9575f80fd5b8735612db4816126ca565b96506020880135612dc4816126ca565b9550612dd260408901612d85565b9450606088013567ffffffffffffffff80821115612dee575f80fd5b612dfa8b838c01612a10565b955060808a0135945060a08a0135915080821115612e16575f80fd5b612e228b838c01612a10565b935060c08a0135915080821115612e37575f80fd5b50612e448a828b01612a9e565b91505092959891949750929550565b5f60e082840312156128aa575f80fd5b5f8060408385031215612e74575f80fd5b823567ffffffffffffffff811115612e8a575f80fd5b612e9685828601612e53565b925050602083013561271a816126ca565b5f60208284031215612eb7575f80fd5b8135612755816126ca565b5f805f805f60a08688031215612ed6575f80fd5b8535612ee1816126ca565b9450602086013567ffffffffffffffff80821115612efd575f80fd5b612f0989838a01612a10565b9550604088013594506060880135915080821115612f25575f80fd5b612f3189838a01612a10565b93506080880135915080821115612f46575f80fd5b50612f5388828901612a9e565b9150509295509295909350565b5f805f805f805f80610100898b031215612f78575f80fd5b612f81896126de565b9750612f8f60208a016126de565b9650612f9d60408a01612d85565b9550606089013567ffffffffffffffff80821115612fb9575f80fd5b612fc58c838d01612a10565b965060808b0135915080821115612fda575f80fd5b612fe68c838d01612a10565b955060a08b0135945060c08b0135915080821115612c8f575f80fd5b5f805f60608486031215613014575f80fd5b833567ffffffffffffffff81111561302a575f80fd5b61303686828701612e53565b9350506020840135612bce816126ca565b5f8060408385031215613058575f80fd5b8235613063816126ca565b9150602083013561271a8161288d565b5f805f8060808587031215613086575f80fd5b8435613091816126ca565b935060208501356130a1816126ca565b925060408501359150606085013567ffffffffffffffff8111156130c3575f80fd5b6130cf87828801612a9e565b91505092959194509250565b5f805f805f805f60e0888a0312156130f1575f80fd5b87356130fc816126ca565b9650602088013561310c816126ca565b955061311a60408901612bdf565b945060608801359350608088013567ffffffffffffffff8082111561313d575f80fd5b6131498b838c01612a10565b945060a08a0135915080821115612e16575f80fd5b5f805f805f8060c08789031215613173575f80fd5b863561317e816126ca565b95506020870135945060408701359350606087013560ff811681146131a1575f80fd5b9598949750929560808101359460a0909101359350915050565b815115158152610140810160208301516131d9602084018215159052565b5060408301516131ed604084018215159052565b506060830151613201606084018215159052565b506080830151613215608084018215159052565b5060a083015161322960a084018215159052565b5060c083015161323d60c084018215159052565b5060e083015161325160e084018215159052565b5061010083810151151590830152610120928301511515929091019190915290565b634e487b7160e01b5f52601160045260245ffd5b81810381811115610bff57610bff613273565b80820180821115610bff57610bff613273565b8082028115828204841417610bff57610bff613273565b5f826132de57634e487b7160e01b5f52601260045260245ffd5b500490565b600181811c908216806132f757607f821691505b6020821081036128aa57634e487b7160e01b5f52602260045260245ffd5b5f60208284031215613325575f80fd5b81516127558161288d565b634e487b7160e01b5f52603260045260245ffd5b5f60208284031215613354575f80fd5b8151612755816126ca565b5f6001820161337057613370613273565b5060010190565b5f60208284031215613387575f80fd5b815167ffffffffffffffff81111561339d575f80fd5b8201601f810184136133ad575f80fd5b80516133bb61291982612a77565b8181528560208385010111156133cf575f80fd5b610de882602083016020860161275c565b5f6001600160a01b03808716835280861660208401525083604083015260806060830152613411608083018461277e565b9695505050505050565b5f6020828403121561342b575f80fd5b81516127558161272556fea2646970667358221220e2ce70aabcfcfe295045fb234bb7b8b88d9be92f97152c919d18eddd7ee00ce164736f6c6343000818003361018060405234801562000011575f80fd5b50604051620037e2380380620037e28339810160408190526200003491620001d2565b60408051808201909152600b81526a27232a23b7bb32b93737b960a91b6020820152819080620000786040805180820190915260018152603160f81b602082015290565b62000084825f6200014f565b61012052620000958160016200014f565b61014052815160208084019190912060e052815190820120610100524660a0526200012260e05161010051604080517f8b73c3c69bb8fe3d512ecc4cf759cc79239f7b179b0ffacaa9a75d522b39400f60208201529081019290925260608201524660808201523060a08201525f9060c00160405160208183030381529060405280519060200120905090565b60805250503060c05260036200013982826200029f565b50506001600160a01b03166101605250620003dd565b5f6020835110156200016e57620001668362000187565b905062000181565b816200017b84826200029f565b5060ff90505b92915050565b5f80829050601f81511115620001bd578260405163305a27a960e01b8152600401620001b491906200036b565b60405180910390fd5b8051620001ca82620003b9565b179392505050565b5f60208284031215620001e3575f80fd5b81516001600160a01b0381168114620001fa575f80fd5b9392505050565b634e487b7160e01b5f52604160045260245ffd5b600181811c908216806200022a57607f821691505b6020821081036200024957634e487b7160e01b5f52602260045260245ffd5b50919050565b601f8211156200029a57805f5260205f20601f840160051c81016020851015620002765750805b601f840160051c820191505b8181101562000297575f815560010162000282565b50505b505050565b81516001600160401b03811115620002bb57620002bb62000201565b620002d381620002cc845462000215565b846200024f565b602080601f83116001811462000309575f8415620002f15750858301515b5f19600386901b1c1916600185901b17855562000363565b5f85815260208120601f198616915b82811015620003395788860151825594840194600190910190840162000318565b50858210156200035757878501515f19600388901b60f8161c191681555b505060018460011b0185555b505050505050565b5f602080835283518060208501525f5b8181101562000399578581018301518582016040015282016200037b565b505f604082860101526040601f19601f8301168501019250505092915050565b8051602080830151919081101562000249575f1960209190910360031b1b16919050565b60805160a05160c05160e051610100516101205161014051610160516133946200044e5f395f818161091c01528181610df10152818161120f015261190e01525f6118db01525f6118af01525f611b0d01525f611ae501525f611a4001525f611a6a01525f611a9401526133945ff3fe608060405260043610610294575f3560e01c80637b3c71d311610165578063bc197c81116100c6578063deaaa7cc1161007c578063f23a6e6111610062578063f23a6e61146108a2578063f8ce560a146108e6578063fc0c546a1461090e575f80fd5b8063deaaa7cc14610850578063eb9019d414610883575f80fd5b8063c28bc2fa116100ac578063c28bc2fa146107d9578063c59057e4146107ec578063dd4e2ba51461080b575f80fd5b8063bc197c8114610776578063c01f9e37146107ba575f80fd5b806391ddadf41161011b578063a9a9529411610101578063a9a952941461070f578063ab58fb8e1461072e578063b58131b014610764575f80fd5b806391ddadf4146106c55780639a802a6d146106f0575f80fd5b80637ecebe001161014b5780637ecebe001461064b57806384b0196e1461067f5780638ff262e3146106a6575f80fd5b80637b3c71d31461060d5780637d5e81e21461062c575f80fd5b80633932abb11161020f578063544ffc9c116101c557806356781388116101ab57806356781388146105b05780635b8d0e0d146105cf5780635f398a14146105ee575f80fd5b8063544ffc9c1461051857806354fd4d501461056b575f80fd5b806343859632116101f5578063438596321461049d578063452115d6146104e55780634bf5d7e914610504575f80fd5b80633932abb11461045c5780633e4f49e614610471575f80fd5b8063150b7a02116102645780632656227d1161024a5780632656227d146103dc5780632d63f693146103ef5780632fe3e26114610429575f80fd5b8063150b7a0214610361578063160cbed7146103bd575f80fd5b806301ffc9a7146102a157806302a251a3146102d557806306fdde03146102f4578063143489d014610315575f80fd5b3661029d57005b005b5f80fd5b3480156102ac575f80fd5b506102c06102bb3660046124da565b610940565b60405190151581526020015b60405180910390f35b3480156102e0575f80fd5b5062093a805b6040519081526020016102cc565b3480156102ff575f80fd5b506103086109dc565b6040516102cc919061254e565b348015610320575f80fd5b5061034961032f366004612560565b5f908152600460205260409020546001600160a01b031690565b6040516001600160a01b0390911681526020016102cc565b34801561036c575f80fd5b506103a461037b366004612652565b7f150b7a0200000000000000000000000000000000000000000000000000000000949350505050565b6040516001600160e01b031990911681526020016102cc565b3480156103c8575f80fd5b506102e66103d736600461281e565b610a6c565b6102e66103ea36600461281e565b610ac3565b3480156103fa575f80fd5b506102e6610409366004612560565b5f90815260046020526040902054600160a01b900465ffffffffffff1690565b348015610434575f80fd5b506102e67f3e83946653575f9a39005e1545185629e92736b7528ab20ca3816f315424a81181565b348015610467575f80fd5b50620151806102e6565b34801561047c575f80fd5b5061049061048b366004612560565b610c06565b6040516102cc91906128dc565b3480156104a8575f80fd5b506102c06104b73660046128ea565b5f8281526007602090815260408083206001600160a01b038516845260030190915290205460ff1692915050565b3480156104f0575f80fd5b506102e66104ff36600461281e565b610d68565b34801561050f575f80fd5b50610308610ded565b348015610523575f80fd5b50610550610532366004612560565b5f908152600760205260409020805460018201546002909201549092565b604080519384526020840192909252908201526060016102cc565b348015610576575f80fd5b5060408051808201909152600181527f31000000000000000000000000000000000000000000000000000000000000006020820152610308565b3480156105bb575f80fd5b506102e66105ca366004612924565b610ead565b3480156105da575f80fd5b506102e66105e936600461298a565b610ed4565b3480156105f9575f80fd5b506102e6610608366004612a3b565b611030565b348015610618575f80fd5b506102e6610627366004612ab9565b611083565b348015610637575f80fd5b506102e6610646366004612b0f565b6110c9565b348015610656575f80fd5b506102e6610665366004612bbc565b6001600160a01b03165f9081526002602052604090205490565b34801561068a575f80fd5b506106936110df565b6040516102cc9796959493929190612c0f565b3480156106b1575f80fd5b506102e66106c0366004612c98565b61113d565b3480156106d0575f80fd5b506106d961120c565b60405165ffffffffffff90911681526020016102cc565b3480156106fb575f80fd5b506102e661070a366004612ce4565b611298565b34801561071a575f80fd5b506102c0610729366004612560565b505f90565b348015610739575f80fd5b506102e6610748366004612560565b5f9081526004602052604090206001015465ffffffffffff1690565b34801561076f575f80fd5b505f6102e6565b348015610781575f80fd5b506103a4610790366004612d37565b7fbc197c810000000000000000000000000000000000000000000000000000000095945050505050565b3480156107c5575f80fd5b506102e66107d4366004612560565b6112ae565b61029b6107e7366004612dc0565b6112f0565b3480156107f7575f80fd5b506102e661080636600461281e565b61136c565b348015610816575f80fd5b506040805180820190915260208082527f737570706f72743d627261766f2671756f72756d3d666f722c6162737461696e90820152610308565b34801561085b575f80fd5b506102e67ff2aad550cf55f045cb27e9c559f9889fdfb6e6cdaa032301d6ea397784ae51d781565b34801561088e575f80fd5b506102e661089d366004612dfe565b6113a5565b3480156108ad575f80fd5b506103a46108bc366004612e26565b7ff23a6e610000000000000000000000000000000000000000000000000000000095945050505050565b3480156108f1575f80fd5b506102e6610900366004612560565b50683635c9adc5dea0000090565b348015610919575f80fd5b507f0000000000000000000000000000000000000000000000000000000000000000610349565b5f6001600160e01b031982167f65455a860000000000000000000000000000000000000000000000000000000014806109a257506001600160e01b031982167f4e2312e000000000000000000000000000000000000000000000000000000000145b806109d657507f01ffc9a7000000000000000000000000000000000000000000000000000000006001600160e01b03198316145b92915050565b6060600380546109eb90612e86565b80601f0160208091040260200160405190810160405280929190818152602001828054610a1790612e86565b8015610a625780601f10610a3957610100808354040283529160200191610a62565b820191905f5260205f20905b815481529060010190602001808311610a4557829003601f168201915b5050505050905090565b5f80610a7a8686868661136c565b9050610a8f81610a8a60046113c4565b6113e6565b505f6040517f90884a4600000000000000000000000000000000000000000000000000000000815260040160405180910390fd5b5f80610ad18686868661136c565b9050610af181610ae160056113c4565b610aeb60046113c4565b176113e6565b505f81815260046020526040902080547fff00ffffffffffffffffffffffffffffffffffffffffffffffffffffffffffff16600160f01b17905530610b333090565b6001600160a01b031614610bbc575f5b8651811015610bba57306001600160a01b0316878281518110610b6857610b68612ebe565b60200260200101516001600160a01b031603610bb257610bb2858281518110610b9357610b93612ebe565b602002602001015180519060200120600561142390919063ffffffff16565b600101610b43565b505b610bc98187878787611496565b6040518181527f712ae1383f79ac853f8d882153778e0260ef8f03b504e2866e0593e04d2b291f906020015b60405180910390a195945050505050565b5f818152600460205260408120805460ff600160f01b8204811691600160f81b9004168115610c3a57506007949350505050565b8015610c4b57506002949350505050565b5f85815260046020526040812054600160a01b900465ffffffffffff169050805f03610cab576040517f6ad06075000000000000000000000000000000000000000000000000000000008152600481018790526024015b60405180910390fd5b5f610cb461120c565b65ffffffffffff169050808210610cd157505f9695505050505050565b5f610cdb886112ae565b9050818110610cf257506001979650505050505050565b610cfb8861156b565b1580610d1a57505f888152600760205260409020805460019091015411155b15610d2d57506003979650505050505050565b5f8881526004602052604090206001015465ffffffffffff165f03610d5a57506004979650505050505050565b506005979650505050505050565b5f80610d768686868661136c565b9050610d8581610a8a5f6113c4565b505f818152600460205260409020546001600160a01b03163314610dd7576040517f233d98e3000000000000000000000000000000000000000000000000000000008152336004820152602401610ca2565b610de3868686866115bb565b9695505050505050565b60607f00000000000000000000000000000000000000000000000000000000000000006001600160a01b0316634bf5d7e96040518163ffffffff1660e01b81526004015f60405180830381865afa925050508015610e6c57506040513d5f823e601f3d908101601f19168201604052610e699190810190612ed2565b60015b610ea8575060408051808201909152601d81527f6d6f64653d626c6f636b6e756d6265722666726f6d3d64656661756c74000000602082015290565b919050565b5f80339050610ecc84828560405180602001604052805f815250611682565b949350505050565b5f80610fb587610faf7f3e83946653575f9a39005e1545185629e92736b7528ab20ca3816f315424a8118c8c8c610f278e6001600160a01b03165f90815260026020526040902080546001810190915590565b8d8d604051610f37929190612f3b565b60405180910390208c80519060200120604051602001610f949796959493929190968752602087019590955260ff9390931660408601526001600160a01b03919091166060850152608084015260a083015260c082015260e00190565b604051602081830303815290604052805190602001206116a3565b856116ea565b905080610fe0576040516394ab6c0760e01b81526001600160a01b0388166004820152602401610ca2565b61102389888a89898080601f0160208091040260200160405190810160405280939291908181526020018383808284375f920191909152508b925061175a915050565b9998505050505050505050565b5f8033905061107887828888888080601f0160208091040260200160405190810160405280939291908181526020018383808284375f920191909152508a925061175a915050565b979650505050505050565b5f80339050610de386828787878080601f0160208091040260200160405190810160405280939291908181526020018383808284375f9201919091525061168292505050565b5f6110d68585858561184d565b95945050505050565b5f6060805f805f60606110f06118a8565b6110f86118d4565b604080515f808252602082019092527f0f000000000000000000000000000000000000000000000000000000000000009b939a50919850469750309650945092509050565b5f806111c784610faf7ff2aad550cf55f045cb27e9c559f9889fdfb6e6cdaa032301d6ea397784ae51d78989896111908b6001600160a01b03165f90815260026020526040902080546001810190915590565b60408051602081019690965285019390935260ff90911660608401526001600160a01b0316608083015260a082015260c001610f94565b9050806111f2576040516394ab6c0760e01b81526001600160a01b0385166004820152602401610ca2565b610de386858760405180602001604052805f815250611682565b5f7f00000000000000000000000000000000000000000000000000000000000000006001600160a01b03166391ddadf46040518163ffffffff1660e01b8152600401602060405180830381865afa925050508015611287575060408051601f3d908101601f1916820190925261128491810190612f4a565b60015b610ea857611293611901565b905090565b5f6112a484848461190b565b90505b9392505050565b5f818152600460205260408120546112e290600160d01b810463ffffffff1690600160a01b900465ffffffffffff16612f83565b65ffffffffffff1692915050565b6112f86119b7565b5f80856001600160a01b0316858585604051611315929190612f3b565b5f6040518083038185875af1925050503d805f811461134f576040519150601f19603f3d011682016040523d82523d5f602084013e611354565b606091505b50915091506113638282611a07565b50505050505050565b5f848484846040516020016113849493929190613039565b60408051601f19818403018152919052805160209091012095945050505050565b5f6112a783836113bf60408051602081019091525f815290565b61190b565b5f8160078111156113d7576113d76128a8565b600160ff919091161b92915050565b5f806113f184610c06565b90505f836113fe836113c4565b16036112a7578381846040516331b75e4d60e01b8152600401610ca293929190613083565b81546fffffffffffffffffffffffffffffffff600160801b820481169181166001830190911603611458576114586041611a23565b6fffffffffffffffffffffffffffffffff8082165f90815260018086016020526040909120939093558354919092018216600160801b029116179055565b5f5b8451811015611563575f808683815181106114b5576114b5612ebe565b60200260200101516001600160a01b03168684815181106114d8576114d8612ebe565b60200260200101518685815181106114f2576114f2612ebe565b602002602001015160405161150791906130a5565b5f6040518083038185875af1925050503d805f8114611541576040519150601f19603f3d011682016040523d82523d5f602084013e611546565b606091505b50915091506115558282611a07565b505050806001019050611498565b505050505050565b5f8181526007602052604081206002810154600182015461158c91906130c0565b5f848152600460205260409020546115b290600160a01b900465ffffffffffff16610900565b11159392505050565b5f806115c98686868661136c565b9050611617816115d960076113c4565b6115e360066113c4565b6115ed60026113c4565b60016115fa6007826130d3565b6116059060026131cc565b61160f91906131da565b1818186113e6565b505f818152600460205260409081902080547effffffffffffffffffffffffffffffffffffffffffffffffffffffffffffff16600160f81b179055517f789cf55be980739dad1d0699b93b58e806b51c9d96619bfa8fe0a28abaa7b30c90610bf59083815260200190565b5f6110d68585858561169e60408051602081019091525f815290565b61175a565b5f6109d66116af611a34565b836040517f19010000000000000000000000000000000000000000000000000000000000008152600281019290925260228201526042902090565b5f836001600160a01b03163b5f03611748575f806117088585611b5d565b5090925090505f816003811115611721576117216128a8565b14801561173f5750856001600160a01b0316826001600160a01b0316145b925050506112a7565b611753848484611ba6565b90506112a7565b5f61176986610a8a60016113c4565b505f86815260046020526040812054611793908790600160a01b900465ffffffffffff168561190b565b90505f6117a38888888588611c91565b905083515f036117f957866001600160a01b03167fb8e138887d0aa13bab447e82de9d5c1777041ecd21ca36ba824ff1e6c07ddda4898884896040516117ec94939291906131ed565b60405180910390a2611078565b866001600160a01b03167fe2babfbac5889a709b63bb7f598b324e08bc5a4fb9ec647fb3cbc9ec07eb8712898884898960405161183a959493929190613214565b60405180910390a2979650505050505050565b5f336118598184611dbf565b61189a576040517fd9b395570000000000000000000000000000000000000000000000000000000081526001600160a01b0382166004820152602401610ca2565b5f6110788787878786611edd565b60606112937f00000000000000000000000000000000000000000000000000000000000000005f612135565b60606112937f00000000000000000000000000000000000000000000000000000000000000006001612135565b5f611293436121de565b5f7f00000000000000000000000000000000000000000000000000000000000000006040517f3a46b1a80000000000000000000000000000000000000000000000000000000081526001600160a01b038681166004830152602482018690529190911690633a46b1a890604401602060405180830381865afa158015611993573d5f803e3d5ffd5b505050506040513d601f19601f820116820180604052508101906112a49190613259565b3033146119f2576040517f47096e47000000000000000000000000000000000000000000000000000000008152336004820152602401610ca2565b565b806119ff6005612214565b036119f45750565b606082611a1c57611a1782612293565b6109d6565b50806109d6565b634e487b715f52806020526024601cfd5b5f306001600160a01b037f000000000000000000000000000000000000000000000000000000000000000016148015611a8c57507f000000000000000000000000000000000000000000000000000000000000000046145b15611ab657507f000000000000000000000000000000000000000000000000000000000000000090565b611293604080517f8b73c3c69bb8fe3d512ecc4cf759cc79239f7b179b0ffacaa9a75d522b39400f60208201527f0000000000000000000000000000000000000000000000000000000000000000918101919091527f000000000000000000000000000000000000000000000000000000000000000060608201524660808201523060a08201525f9060c00160405160208183030381529060405280519060200120905090565b5f805f8351604103611b94576020840151604085015160608601515f1a611b86888285856122d5565b955095509550505050611b9f565b505081515f91506002905b9250925092565b5f805f856001600160a01b03168585604051602401611bc6929190613270565b60408051601f198184030181529181526020820180517bffffffffffffffffffffffffffffffffffffffffffffffffffffffff16630b135d3f60e11b17905251611c1091906130a5565b5f60405180830381855afa9150503d805f8114611c48576040519150601f19603f3d011682016040523d82523d5f602084013e611c4d565b606091505b5091509150818015611c6157506020815110155b8015610de357508051630b135d3f60e11b90611c869083016020908101908401613259565b149695505050505050565b5f8581526007602090815260408083206001600160a01b03881684526003810190925282205460ff1615611cfc576040517f71c6af490000000000000000000000000000000000000000000000000000000081526001600160a01b0387166004820152602401610ca2565b6001600160a01b0386165f9081526003820160205260409020805460ff1916600117905560ff8516611d455783815f015f828254611d3a91906130c0565b90915550611db49050565b5f1960ff861601611d635783816001015f828254611d3a91906130c0565b60011960ff861601611d825783816002015f828254611d3a91906130c0565b6040517f06b337c200000000000000000000000000000000000000000000000000000000815260040160405180910390fd5b509195945050505050565b80515f906034811015611dd65760019150506109d6565b828101601319015173ffffffffffffffffffffffffffffffffffffffff1981167f2370726f706f7365723d3078000000000000000000000000000000000000000014611e27576001925050506109d6565b5f80611e346028856131da565b90505b83811015611ebc575f80611e82888481518110611e5657611e56612ebe565b01602001517fff000000000000000000000000000000000000000000000000000000000000001661239d565b9150915081611e9a57600196505050505050506109d6565b8060ff166004856001600160a01b0316901b1793505050806001019050611e37565b50856001600160a01b0316816001600160a01b031614935050505092915050565b5f611ef1868686868051906020012061136c565b905084518651141580611f0657508351865114155b80611f1057508551155b15611f5e578551845186516040517f447b05d0000000000000000000000000000000000000000000000000000000008152600481019390935260248301919091526044820152606401610ca2565b5f81815260046020526040902054600160a01b900465ffffffffffff1615611fa75780611f8a82610c06565b6040516331b75e4d60e01b8152610ca29291905f90600401613083565b5f62015180611fb461120c565b65ffffffffffff16611fc691906130c0565b90505f62093a805f848152600460205260409020805473ffffffffffffffffffffffffffffffffffffffff19166001600160a01b03871617815590915061200c836121de565b815465ffffffffffff91909116600160a01b027fffffffffffff000000000000ffffffffffffffffffffffffffffffffffffffff90911617815561204f8261242d565b815463ffffffff91909116600160d01b027fffff00000000ffffffffffffffffffffffffffffffffffffffffffffffffffff90911617815588517f7d84a6263ae0d98d3329bd7b46bb4e8d6f98cd35a7adb45c274c8b7fd5ebd5e090859087908c908c9067ffffffffffffffff8111156120cb576120cb61258d565b6040519080825280602002602001820160405280156120fe57816020015b60608152602001906001900390816120e95790505b508c8961210b8a826130c0565b8e60405161212199989796959493929190613288565b60405180910390a150505095945050505050565b606060ff831461214f576121488361245d565b90506109d6565b81805461215b90612e86565b80601f016020809104026020016040519081016040528092919081815260200182805461218790612e86565b80156121d25780601f106121a9576101008083540402835291602001916121d2565b820191905f5260205f20905b8154815290600101906020018083116121b557829003601f168201915b505050505090506109d6565b5f65ffffffffffff821115612210576040516306dfcc6560e41b81526030600482015260248101839052604401610ca2565b5090565b80545f906fffffffffffffffffffffffffffffffff80821691600160801b9004168103612245576122456031611a23565b6fffffffffffffffffffffffffffffffff8181165f908152600185810160205260408220805492905585546fffffffffffffffffffffffffffffffff19169301909116919091179092555090565b8051156122a35780518082602001fd5b6040517fd6bda27500000000000000000000000000000000000000000000000000000000815260040160405180910390fd5b5f80807f7fffffffffffffffffffffffffffffff5d576e7357a4501ddfe92f46681b20a084111561230e57505f91506003905082612393565b604080515f808252602082018084528a905260ff891692820192909252606081018790526080810186905260019060a0016020604051602081039080840390855afa15801561235f573d5f803e3d5ffd5b5050604051601f1901519150506001600160a01b03811661238a57505f925060019150829050612393565b92505f91508190505b9450945094915050565b5f8060f883901c602f811180156123b75750603a8160ff16105b156123cc57600194602f199091019350915050565b8060ff1660401080156123e2575060478160ff16105b156123f7576001946036199091019350915050565b8060ff16606010801561240d575060678160ff16105b15612422576001946056199091019350915050565b505f93849350915050565b5f63ffffffff821115612210576040516306dfcc6560e41b81526020600482015260248101839052604401610ca2565b60605f6124698361249a565b6040805160208082528183019092529192505f91906020820181803683375050509182525060208101929092525090565b5f60ff8216601f8111156109d6576040517fb3512b0c00000000000000000000000000000000000000000000000000000000815260040160405180910390fd5b5f602082840312156124ea575f80fd5b81356001600160e01b0319811681146112a7575f80fd5b5f5b8381101561251b578181015183820152602001612503565b50505f910152565b5f815180845261253a816020860160208601612501565b601f01601f19169290920160200192915050565b602081525f6112a76020830184612523565b5f60208284031215612570575f80fd5b5035919050565b80356001600160a01b0381168114610ea8575f80fd5b634e487b7160e01b5f52604160045260245ffd5b604051601f8201601f1916810167ffffffffffffffff811182821017156125ca576125ca61258d565b604052919050565b5f67ffffffffffffffff8211156125eb576125eb61258d565b50601f01601f191660200190565b5f61260b612606846125d2565b6125a1565b905082815283838301111561261e575f80fd5b828260208301375f602084830101529392505050565b5f82601f830112612643575f80fd5b6112a7838335602085016125f9565b5f805f8060808587031215612665575f80fd5b61266e85612577565b935061267c60208601612577565b925060408501359150606085013567ffffffffffffffff81111561269e575f80fd5b6126aa87828801612634565b91505092959194509250565b5f67ffffffffffffffff8211156126cf576126cf61258d565b5060051b60200190565b5f82601f8301126126e8575f80fd5b813560206126f8612606836126b6565b8083825260208201915060208460051b870101935086841115612719575f80fd5b602086015b8481101561273c5761272f81612577565b835291830191830161271e565b509695505050505050565b5f82601f830112612756575f80fd5b81356020612766612606836126b6565b8083825260208201915060208460051b870101935086841115612787575f80fd5b602086015b8481101561273c578035835291830191830161278c565b5f82601f8301126127b2575f80fd5b813560206127c2612606836126b6565b82815260059290921b840181019181810190868411156127e0575f80fd5b8286015b8481101561273c57803567ffffffffffffffff811115612802575f80fd5b6128108986838b0101612634565b8452509183019183016127e4565b5f805f8060808587031215612831575f80fd5b843567ffffffffffffffff80821115612848575f80fd5b612854888389016126d9565b95506020870135915080821115612869575f80fd5b61287588838901612747565b9450604087013591508082111561288a575f80fd5b50612897878288016127a3565b949793965093946060013593505050565b634e487b7160e01b5f52602160045260245ffd5b600881106128d857634e487b7160e01b5f52602160045260245ffd5b9052565b602081016109d682846128bc565b5f80604083850312156128fb575f80fd5b8235915061290b60208401612577565b90509250929050565b803560ff81168114610ea8575f80fd5b5f8060408385031215612935575f80fd5b8235915061290b60208401612914565b5f8083601f840112612955575f80fd5b50813567ffffffffffffffff81111561296c575f80fd5b602083019150836020828501011115612983575f80fd5b9250929050565b5f805f805f805f60c0888a0312156129a0575f80fd5b873596506129b060208901612914565b95506129be60408901612577565b9450606088013567ffffffffffffffff808211156129da575f80fd5b6129e68b838c01612945565b909650945060808a01359150808211156129fe575f80fd5b612a0a8b838c01612634565b935060a08a0135915080821115612a1f575f80fd5b50612a2c8a828b01612634565b91505092959891949750929550565b5f805f805f60808688031215612a4f575f80fd5b85359450612a5f60208701612914565b9350604086013567ffffffffffffffff80821115612a7b575f80fd5b612a8789838a01612945565b90955093506060880135915080821115612a9f575f80fd5b50612aac88828901612634565b9150509295509295909350565b5f805f8060608587031215612acc575f80fd5b84359350612adc60208601612914565b9250604085013567ffffffffffffffff811115612af7575f80fd5b612b0387828801612945565b95989497509550505050565b5f805f8060808587031215612b22575f80fd5b843567ffffffffffffffff80821115612b39575f80fd5b612b45888389016126d9565b95506020870135915080821115612b5a575f80fd5b612b6688838901612747565b94506040870135915080821115612b7b575f80fd5b612b87888389016127a3565b93506060870135915080821115612b9c575f80fd5b508501601f81018713612bad575f80fd5b6126aa878235602084016125f9565b5f60208284031215612bcc575f80fd5b6112a782612577565b5f815180845260208085019450602084015f5b83811015612c0457815187529582019590820190600101612be8565b509495945050505050565b7fff000000000000000000000000000000000000000000000000000000000000008816815260e060208201525f612c4960e0830189612523565b8281036040840152612c5b8189612523565b90508660608401526001600160a01b03861660808401528460a084015282810360c0840152612c8a8185612bd5565b9a9950505050505050505050565b5f805f8060808587031215612cab575f80fd5b84359350612cbb60208601612914565b9250612cc960408601612577565b9150606085013567ffffffffffffffff81111561269e575f80fd5b5f805f60608486031215612cf6575f80fd5b612cff84612577565b925060208401359150604084013567ffffffffffffffff811115612d21575f80fd5b612d2d86828701612634565b9150509250925092565b5f805f805f60a08688031215612d4b575f80fd5b612d5486612577565b9450612d6260208701612577565b9350604086013567ffffffffffffffff80821115612d7e575f80fd5b612d8a89838a01612747565b94506060880135915080821115612d9f575f80fd5b612dab89838a01612747565b93506080880135915080821115612a9f575f80fd5b5f805f8060608587031215612dd3575f80fd5b612ddc85612577565b935060208501359250604085013567ffffffffffffffff811115612af7575f80fd5b5f8060408385031215612e0f575f80fd5b612e1883612577565b946020939093013593505050565b5f805f805f60a08688031215612e3a575f80fd5b612e4386612577565b9450612e5160208701612577565b93506040860135925060608601359150608086013567ffffffffffffffff811115612e7a575f80fd5b612aac88828901612634565b600181811c90821680612e9a57607f821691505b602082108103612eb857634e487b7160e01b5f52602260045260245ffd5b50919050565b634e487b7160e01b5f52603260045260245ffd5b5f60208284031215612ee2575f80fd5b815167ffffffffffffffff811115612ef8575f80fd5b8201601f81018413612f08575f80fd5b8051612f16612606826125d2565b818152856020838501011115612f2a575f80fd5b6110d6826020830160208601612501565b818382375f9101908152919050565b5f60208284031215612f5a575f80fd5b815165ffffffffffff811681146112a7575f80fd5b634e487b7160e01b5f52601160045260245ffd5b65ffffffffffff818116838216019080821115612fa257612fa2612f6f565b5092915050565b5f815180845260208085019450602084015f5b83811015612c045781516001600160a01b031687529582019590820190600101612fbc565b5f8282518085526020808601955060208260051b840101602086015f5b8481101561302c57601f1986840301895261301a838351612523565b98840198925090830190600101612ffe565b5090979650505050505050565b608081525f61304b6080830187612fa9565b828103602084015261305d8187612bd5565b905082810360408401526130718186612fe1565b91505082606083015295945050505050565b8381526060810161309760208301856128bc565b826040830152949350505050565b5f82516130b6818460208701612501565b9190910192915050565b808201808211156109d6576109d6612f6f565b60ff81811683821601908111156109d6576109d6612f6f565b600181815b8085111561312657815f190482111561310c5761310c612f6f565b8085161561311957918102915b93841c93908002906130f1565b509250929050565b5f8261313c575060016109d6565b8161314857505f6109d6565b816001811461315e576002811461316857613184565b60019150506109d6565b60ff84111561317957613179612f6f565b50506001821b6109d6565b5060208310610133831016604e8410600b84101617156131a7575081810a6109d6565b6131b183836130ec565b805f19048211156131c4576131c4612f6f565b029392505050565b5f6112a760ff84168361312e565b818103818111156109d6576109d6612f6f565b84815260ff84166020820152826040820152608060608201525f610de36080830184612523565b85815260ff8516602082015283604082015260a060608201525f61323b60a0830185612523565b828103608084015261324d8185612523565b98975050505050505050565b5f60208284031215613269575f80fd5b5051919050565b828152604060208201525f6112a46040830184612523565b5f6101208b835260206001600160a01b038c16818501528160408501526132b18285018c612fa9565b915083820360608501526132c5828b612bd5565b915083820360808501528189518084528284019150828160051b850101838c015f5b8381101561331557601f19878403018552613303838351612523565b948601949250908501906001016132e7565b505086810360a0880152613329818c612fe1565b9450505050508560c08401528460e084015282810361010084015261334e8185612523565b9c9b50505050505050505050505056fea2646970667358221220b9b35fdd7d15f63472129ea7aefd42731320ddab8efab16994bf38e5bec1263b64736f6c63430008180033608060405234801561000f575f80fd5b5060405162000ae438038062000ae4833981016040819052610030916100b6565b6040518060400160405280600c81526020016b2932bbb0b932102a37b5b2b760a11b815250604051806040016040528060038152602001621495d160ea1b8152508160039081610080919061017b565b50600461008d828261017b565b5050600580546001600160a01b0319166001600160a01b0393909316929092179091555061023a565b5f602082840312156100c6575f80fd5b81516001600160a01b03811681146100dc575f80fd5b9392505050565b634e487b7160e01b5f52604160045260245ffd5b600181811c9082168061010b57607f821691505b60208210810361012957634e487b7160e01b5f52602260045260245ffd5b50919050565b601f82111561017657805f5260205f20601f840160051c810160208510156101545750805b601f840160051c820191505b81811015610173575f8155600101610160565b50505b505050565b81516001600160401b03811115610194576101946100e3565b6101a8816101a284546100f7565b8461012f565b602080601f8311600181146101db575f84156101c45750858301515b5f19600386901b1c1916600185901b178555610232565b5f85815260208120601f198616915b82811015610209578886015182559484019460019091019084016101ea565b508582101561022657878501515f19600388901b60f8161c191681555b505060018460011b0185555b505050505050565b61089c80620002485f395ff3fe608060405234801561000f575f80fd5b50600436106100c4575f3560e01c8063313ce5671161007d57806395d89b411161005857806395d89b41146101a1578063a9059cbb146101a9578063dd62ed3e146101bc575f80fd5b8063313ce5671461015557806340c10f191461016457806370a0823114610179575f80fd5b8063095ea7b3116100ad578063095ea7b31461010d57806318160ddd1461013057806323b872dd14610142575f80fd5b80630446e8f9146100c857806306fdde03146100f8575b5f80fd5b6005546100db906001600160a01b031681565b6040516001600160a01b0390911681526020015b60405180910390f35b6101006101f4565b6040516100ef91906106f6565b61012061011b36600461075d565b610284565b60405190151581526020016100ef565b6002545b6040519081526020016100ef565b610120610150366004610785565b61029d565b604051601281526020016100ef565b61017761017236600461075d565b6102c0565b005b6101346101873660046107be565b6001600160a01b03165f9081526020819052604090205490565b610100610347565b6101206101b736600461075d565b610356565b6101346101ca3660046107de565b6001600160a01b039182165f90815260016020908152604080832093909416825291909152205490565b6060600380546102039061080f565b80601f016020809104026020016040519081016040528092919081815260200182805461022f9061080f565b801561027a5780601f106102515761010080835404028352916020019161027a565b820191905f5260205f20905b81548152906001019060200180831161025d57829003601f168201915b5050505050905090565b5f33610291818585610363565b60019150505b92915050565b5f336102aa858285610375565b6102b5858585610409565b506001949350505050565b6005546001600160a01b03163314610339576040517f08c379a000000000000000000000000000000000000000000000000000000000815260206004820152601a60248201527f4f6e6c79207374616b696e6720686f6f6b2063616e206d696e7400000000000060448201526064015b60405180910390fd5b610343828261047f565b5050565b6060600480546102039061080f565b5f33610291818585610409565b61037083838360016104b3565b505050565b6001600160a01b038381165f908152600160209081526040808320938616835292905220545f19811461040357818110156103f5576040517ffb8f41b20000000000000000000000000000000000000000000000000000000081526001600160a01b03841660048201526024810182905260448101839052606401610330565b61040384848484035f6104b3565b50505050565b6001600160a01b03831661044b576040517f96c6fd1e0000000000000000000000000000000000000000000000000000000081525f6004820152602401610330565b6001600160a01b0382166104745760405163ec442f0560e01b81525f6004820152602401610330565b6103708383836105b7565b6001600160a01b0382166104a85760405163ec442f0560e01b81525f6004820152602401610330565b6103435f83836105b7565b6001600160a01b0384166104f5576040517fe602df050000000000000000000000000000000000000000000000000000000081525f6004820152602401610330565b6001600160a01b038316610537576040517f94280d620000000000000000000000000000000000000000000000000000000081525f6004820152602401610330565b6001600160a01b038085165f908152600160209081526040808320938716835292905220829055801561040357826001600160a01b0316846001600160a01b03167f8c5be1e5ebec7d5bd14f71427d1e84f3dd0314c0f7b2291e5b200ac8c7c3b925846040516105a991815260200190565b60405180910390a350505050565b6001600160a01b0383166105e1578060025f8282546105d69190610847565b9091555061066a9050565b6001600160a01b0383165f908152602081905260409020548181101561064c576040517fe450d38c0000000000000000000000000000000000000000000000000000000081526001600160a01b03851660048201526024810182905260448101839052606401610330565b6001600160a01b0384165f9081526020819052604090209082900390555b6001600160a01b038216610686576002805482900390556106a4565b6001600160a01b0382165f9081526020819052604090208054820190555b816001600160a01b0316836001600160a01b03167fddf252ad1be2c89b69c2b068fc378daa952ba7f163c4a11628f55a4df523b3ef836040516106e991815260200190565b60405180910390a3505050565b5f602080835283518060208501525f5b8181101561072257858101830151858201604001528201610706565b505f604082860101526040601f19601f8301168501019250505092915050565b80356001600160a01b0381168114610758575f80fd5b919050565b5f806040838503121561076e575f80fd5b61077783610742565b946020939093013593505050565b5f805f60608486031215610797575f80fd5b6107a084610742565b92506107ae60208501610742565b9150604084013590509250925092565b5f602082840312156107ce575f80fd5b6107d782610742565b9392505050565b5f80604083850312156107ef575f80fd5b6107f883610742565b915061080660208401610742565b90509250929050565b600181811c9082168061082357607f821691505b60208210810361084157634e487b7160e01b5f52602260045260245ffd5b50919050565b8082018082111561029757634e487b7160e01b5f52601160045260245ffdfea2646970667358221220735c1e4ce29fc1a942fec96bdb6b34f797fe10b3cc993f57c28007975bcbdb6d64736f6c63430008180033","linkReferences":{}},"methodIdentifiers":{"BRONZE_TIER_AMOUNT()":"707f4439","BRONZE_TIER_THRESHOLD()":"e167711c","COOLDOWN_PERIOD()":"6e99d52f","GOLD_TIER_AMOUNT()":"ecf686f8","GOLD_TIER_THRESHOLD()":"a79d579d","REWARD_RATE()":"5997bb37","SILVER_TIER_AMOUNT()":"30c0ddfb","SILVER_TIER_THRESHOLD()":"f91b5988","UPGRADE_COOLDOWN_PERIOD()":"8187c641","approve(address,uint256)":"095ea7b3","balanceOf(address)":"70a08231","calculateRewards(address,address)":"00c9d509","claimRewards(address)":"ef5cfb8c","delegate(address)":"5c19a95c","delegateBySig(address,uint256,uint256,uint8,bytes32,bytes32)":"c3cda520","delegates(address)":"587cde1e","getApproved(uint256)":"081812fc","getFeeDiscount(address,address)":"098c76d4","getHookFlags()":"d77153a7","getPastTotalSupply(uint256)":"8e539e8c","getPastVotes(address,uint256)":"3a46b1a8","getRemainingCooldownTime(address,address)":"ddb5093b","getVotes(address)":"9ab24eb0","getVotingPower(address,address)":"a60b1145","getYieldBoost(address,address)":"e75c6104","governor()":"0c340a24","isApprovedForAll(address,address)":"e985e9c5","lastUnstakeTime(address,address)":"92c0526a","name()":"06fdde03","nftMetadata()":"145e32c5","nftTierToFeeDiscount(uint256)":"0fbd1111","nftTierToVotingPower(uint256)":"43cd09e2","nftTierToYieldBoost(uint256)":"b28de389","onAfterAddLiquidity(address,address,uint8,uint256[],uint256[],uint256,uint256[],bytes)":"976907cc","onAfterAddLiquidity(address,uint256[],uint256,uint256[],bytes)":"851cca0e","onAfterInitialize(uint256[],uint256,bytes)":"38be241d","onAfterRemoveLiquidity(address,address,uint8,uint256,uint256[],uint256[],uint256[],bytes)":"2754888d","onAfterRemoveLiquidity(address,uint256[],uint256,uint256[],bytes)":"825e57ea","onAfterSwap((uint8,address,address,uint256,uint256,uint256,uint256,uint256,uint256,address,address,bytes))":"18b6eb55","onBeforeAddLiquidity(address,address,uint8,uint256[],uint256,uint256[],bytes)":"45421ec7","onBeforeInitialize(uint256[],bytes)":"1c149e28","onBeforeRemoveLiquidity(address,address,uint8,uint256,uint256[],uint256[],bytes)":"ba5f9f40","onBeforeSwap((uint8,uint256,uint256[],uint256,uint256,address,bytes),address)":"5211fa77","onComputeDynamicSwapFeePercentage((uint8,uint256,uint256[],uint256,uint256,address,bytes),address,uint256)":"a0e8f5ac","onRegister(address,address,(address,uint8,address,bool)[],(bool,bool,bool,bool))":"0b89f182","owner()":"8da5cb5b","ownerOf(uint256)":"6352211e","renounceOwnership()":"715018a6","rewardToken()":"f7c618c1","safeTransferFrom(address,address,uint256)":"42842e0e","safeTransferFrom(address,address,uint256,bytes)":"b88d4fde","setApprovalForAll(address,bool)":"a22cb465","setFeeDiscounts(uint256[],uint256[])":"5f68a6db","setVotingPower(uint256[],uint256[])":"52f003e1","setYieldBoost(uint256[],uint256[])":"20275bd7","stakingInfo(address,address)":"5750ec53","supportsInterface(bytes4)":"01ffc9a7","symbol()":"95d89b41","tokenURI(uint256)":"c87b56dd","transferFrom(address,address,uint256)":"23b872dd","transferOwnership(address)":"f2fde38b","upgradeNFT(uint256)":"90690c9a"},"id":6}