{"abi":[{"type":"constructor","inputs":[{"name":"_stakingHook","type":"address","internalType":"address"}],"stateMutability":"nonpayable"},{"type":"function","name":"allowance","inputs":[{"name":"owner","type":"address","internalType":"address"},{"name":"spender","type":"address","internalType":"address"}],"outputs":[{"name":"","type":"uint256","internalType":"uint256"}],"stateMutability":"view"},{"type":"function","name":"approve","inputs":[{"name":"spender","type":"address","internalType":"address"},{"name":"value","type":"uint256","internalType":"uint256"}],"outputs":[{"name":"","type":"bool","internalType":"bool"}],"stateMutability":"nonpayable"},{"type":"function","name":"balanceOf","inputs":[{"name":"account","type":"address","internalType":"address"}],"outputs":[{"name":"","type":"uint256","internalType":"uint256"}],"stateMutability":"view"},{"type":"function","name":"decimals","inputs":[],"outputs":[{"name":"","type":"uint8","internalType":"uint8"}],"stateMutability":"view"},{"type":"function","name":"mint","inputs":[{"name":"to","type":"address","internalType":"address"},{"name":"amount","type":"uint256","internalType":"uint256"}],"outputs":[],"stateMutability":"nonpayable"},{"type":"function","name":"name","inputs":[],"outputs":[{"name":"","type":"string","internalType":"string"}],"stateMutability":"view"},{"type":"function","name":"stakingHook","inputs":[],"outputs":[{"name":"","type":"address","internalType":"address"}],"stateMutability":"view"},{"type":"function","name":"symbol","inputs":[],"outputs":[{"name":"","type":"string","internalType":"string"}],"stateMutability":"view"},{"type":"function","name":"totalSupply","inputs":[],"outputs":[{"name":"","type":"uint256","internalType":"uint256"}],"stateMutability":"view"},{"type":"function","name":"transfer","inputs":[{"name":"to","type":"address","internalType":"address"},{"name":"value","type":"uint256","internalType":"uint256"}],"outputs":[{"name":"","type":"bool","internalType":"bool"}],"stateMutability":"nonpayable"},{"type":"function","name":"transferFrom","inputs":[{"name":"from","type":"address","internalType":"address"},{"name":"to","type":"address","internalType":"address"},{"name":"value","type":"uint256","internalType":"uint256"}],"outputs":[{"name":"","type":"bool","internalType":"bool"}],"stateMutability":"nonpayable"},{"type":"event","name":"Approval","inputs":[{"name":"owner","type":"address","indexed":true,"internalType":"address"},{"name":"spender","type":"address","indexed":true,"internalType":"address"},{"name":"value","type":"uint256","indexed":false,"internalType":"uint256"}],"anonymous":false},{"type":"event","name":"Transfer","inputs":[{"name":"from","type":"address","indexed":true,"internalType":"address"},{"name":"to","type":"address","indexed":true,"internalType":"address"},{"name":"value","type":"uint256","indexed":false,"internalType":"uint256"}],"anonymous":false},{"type":"error","name":"ERC20InsufficientAllowance","inputs":[{"name":"spender","type":"address","internalType":"address"},{"name":"allowance","type":"uint256","internalType":"uint256"},{"name":"needed","type":"uint256","internalType":"uint256"}]},{"type":"error","name":"ERC20InsufficientBalance","inputs":[{"name":"sender","type":"address","internalType":"address"},{"name":"balance","type":"uint256","internalType":"uint256"},{"name":"needed","type":"uint256","internalType":"uint256"}]},{"type":"error","name":"ERC20InvalidApprover","inputs":[{"name":"approver","type":"address","internalType":"address"}]},{"type":"error","name":"ERC20InvalidReceiver","inputs":[{"name":"receiver","type":"address","internalType":"address"}]},{"type":"error","name":"ERC20InvalidSender","inputs":[{"name":"sender","type":"address","internalType":"address"}]},{"type":"error","name":"ERC20InvalidSpender","inputs":[{"name":"spender","type":"address","internalType":"address"}]}],"bytecode":{"object":"0x608060405234801561000f575f80fd5b5060405162000ae438038062000ae4833981016040819052610030916100b6565b6040518060400160405280600c81526020016b2932bbb0b932102a37b5b2b760a11b815250604051806040016040528060038152602001621495d160ea1b8152508160039081610080919061017b565b50600461008d828261017b565b5050600580546001600160a01b0319166001600160a01b0393909316929092179091555061023a565b5f602082840312156100c6575f80fd5b81516001600160a01b03811681146100dc575f80fd5b9392505050565b634e487b7160e01b5f52604160045260245ffd5b600181811c9082168061010b57607f821691505b60208210810361012957634e487b7160e01b5f52602260045260245ffd5b50919050565b601f82111561017657805f5260205f20601f840160051c810160208510156101545750805b601f840160051c820191505b81811015610173575f8155600101610160565b50505b505050565b81516001600160401b03811115610194576101946100e3565b6101a8816101a284546100f7565b8461012f565b602080601f8311600181146101db575f84156101c45750858301515b5f19600386901b1c1916600185901b178555610232565b5f85815260208120601f198616915b82811015610209578886015182559484019460019091019084016101ea565b508582101561022657878501515f19600388901b60f8161c191681555b505060018460011b0185555b505050505050565b61089c80620002485f395ff3fe608060405234801561000f575f80fd5b50600436106100c4575f3560e01c8063313ce5671161007d57806395d89b411161005857806395d89b41146101a1578063a9059cbb146101a9578063dd62ed3e146101bc575f80fd5b8063313ce5671461015557806340c10f191461016457806370a0823114610179575f80fd5b8063095ea7b3116100ad578063095ea7b31461010d57806318160ddd1461013057806323b872dd14610142575f80fd5b80630446e8f9146100c857806306fdde03146100f8575b5f80fd5b6005546100db906001600160a01b031681565b6040516001600160a01b0390911681526020015b60405180910390f35b6101006101f4565b6040516100ef91906106f6565b61012061011b36600461075d565b610284565b60405190151581526020016100ef565b6002545b6040519081526020016100ef565b610120610150366004610785565b61029d565b604051601281526020016100ef565b61017761017236600461075d565b6102c0565b005b6101346101873660046107be565b6001600160a01b03165f9081526020819052604090205490565b610100610347565b6101206101b736600461075d565b610356565b6101346101ca3660046107de565b6001600160a01b039182165f90815260016020908152604080832093909416825291909152205490565b6060600380546102039061080f565b80601f016020809104026020016040519081016040528092919081815260200182805461022f9061080f565b801561027a5780601f106102515761010080835404028352916020019161027a565b820191905f5260205f20905b81548152906001019060200180831161025d57829003601f168201915b5050505050905090565b5f33610291818585610363565b60019150505b92915050565b5f336102aa858285610375565b6102b5858585610409565b506001949350505050565b6005546001600160a01b03163314610339576040517f08c379a000000000000000000000000000000000000000000000000000000000815260206004820152601a60248201527f4f6e6c79207374616b696e6720686f6f6b2063616e206d696e7400000000000060448201526064015b60405180910390fd5b610343828261047f565b5050565b6060600480546102039061080f565b5f33610291818585610409565b61037083838360016104b3565b505050565b6001600160a01b038381165f908152600160209081526040808320938616835292905220545f19811461040357818110156103f5576040517ffb8f41b20000000000000000000000000000000000000000000000000000000081526001600160a01b03841660048201526024810182905260448101839052606401610330565b61040384848484035f6104b3565b50505050565b6001600160a01b03831661044b576040517f96c6fd1e0000000000000000000000000000000000000000000000000000000081525f6004820152602401610330565b6001600160a01b0382166104745760405163ec442f0560e01b81525f6004820152602401610330565b6103708383836105b7565b6001600160a01b0382166104a85760405163ec442f0560e01b81525f6004820152602401610330565b6103435f83836105b7565b6001600160a01b0384166104f5576040517fe602df050000000000000000000000000000000000000000000000000000000081525f6004820152602401610330565b6001600160a01b038316610537576040517f94280d620000000000000000000000000000000000000000000000000000000081525f6004820152602401610330565b6001600160a01b038085165f908152600160209081526040808320938716835292905220829055801561040357826001600160a01b0316846001600160a01b03167f8c5be1e5ebec7d5bd14f71427d1e84f3dd0314c0f7b2291e5b200ac8c7c3b925846040516105a991815260200190565b60405180910390a350505050565b6001600160a01b0383166105e1578060025f8282546105d69190610847565b9091555061066a9050565b6001600160a01b0383165f908152602081905260409020548181101561064c576040517fe450d38c0000000000000000000000000000000000000000000000000000000081526001600160a01b03851660048201526024810182905260448101839052606401610330565b6001600160a01b0384165f9081526020819052604090209082900390555b6001600160a01b038216610686576002805482900390556106a4565b6001600160a01b0382165f9081526020819052604090208054820190555b816001600160a01b0316836001600160a01b03167fddf252ad1be2c89b69c2b068fc378daa952ba7f163c4a11628f55a4df523b3ef836040516106e991815260200190565b60405180910390a3505050565b5f602080835283518060208501525f5b8181101561072257858101830151858201604001528201610706565b505f604082860101526040601f19601f8301168501019250505092915050565b80356001600160a01b0381168114610758575f80fd5b919050565b5f806040838503121561076e575f80fd5b61077783610742565b946020939093013593505050565b5f805f60608486031215610797575f80fd5b6107a084610742565b92506107ae60208501610742565b9150604084013590509250925092565b5f602082840312156107ce575f80fd5b6107d782610742565b9392505050565b5f80604083850312156107ef575f80fd5b6107f883610742565b915061080660208401610742565b90509250929050565b600181811c9082168061082357607f821691505b60208210810361084157634e487b7160e01b5f52602260045260245ffd5b50919050565b8082018082111561029757634e487b7160e01b5f52601160045260245ffdfea2646970667358221220735c1e4ce29fc1a942fec96bdb6b34f797fe10b3cc993f57c28007975bcbdb6d64736f6c63430008180033","linkReferences":{}},"methodIdentifiers":{"allowance(address,address)":"dd62ed3e","approve(address,uint256)":"095ea7b3","balanceOf(address)":"70a08231","decimals()":"313ce567","mint(address,uint256)":"40c10f19","name()":"06fdde03","stakingHook()":"0446e8f9","symbol()":"95d89b41","totalSupply()":"18160ddd","transfer(address,uint256)":"a9059cbb","transferFrom(address,address,uint256)":"23b872dd"},"id":8}