{"abi":[{"type":"constructor","inputs":[{"name":"vaultExtension","type":"address","internalType":"contract IVaultExtension"},{"name":"authorizer","type":"address","internalType":"contract IAuthorizer"},{"name":"protocolFeeController","type":"address","internalType":"contract IProtocolFeeController"}],"stateMutability":"nonpayable"},{"type":"fallback","stateMutability":"payable"},{"type":"receive","stateMutability":"payable"},{"type":"function","name":"addLiquidity","inputs":[{"name":"params","type":"tuple","internalType":"struct AddLiquidityParams","components":[{"name":"pool","type":"address","internalType":"address"},{"name":"to","type":"address","internalType":"address"},{"name":"maxAmountsIn","type":"uint256[]","internalType":"uint256[]"},{"name":"minBptAmountOut","type":"uint256","internalType":"uint256"},{"name":"kind","type":"uint8","internalType":"enum AddLiquidityKind"},{"name":"userData","type":"bytes","internalType":"bytes"}]}],"outputs":[{"name":"amountsIn","type":"uint256[]","internalType":"uint256[]"},{"name":"bptAmountOut","type":"uint256","internalType":"uint256"},{"name":"returnData","type":"bytes","internalType":"bytes"}],"stateMutability":"nonpayable"},{"type":"function","name":"erc4626BufferWrapOrUnwrap","inputs":[{"name":"params","type":"tuple","internalType":"struct BufferWrapOrUnwrapParams","components":[{"name":"kind","type":"uint8","internalType":"enum SwapKind"},{"name":"direction","type":"uint8","internalType":"enum WrappingDirection"},{"name":"wrappedToken","type":"address","internalType":"contract IERC4626"},{"name":"amountGivenRaw","type":"uint256","internalType":"uint256"},{"name":"limitRaw","type":"uint256","internalType":"uint256"}]}],"outputs":[{"name":"amountCalculatedRaw","type":"uint256","internalType":"uint256"},{"name":"amountInRaw","type":"uint256","internalType":"uint256"},{"name":"amountOutRaw","type":"uint256","internalType":"uint256"}],"stateMutability":"nonpayable"},{"type":"function","name":"getAuthorizer","inputs":[],"outputs":[{"name":"","type":"address","internalType":"contract IAuthorizer"}],"stateMutability":"view"},{"type":"function","name":"getPoolTokenCountAndIndexOfToken","inputs":[{"name":"pool","type":"address","internalType":"address"},{"name":"token","type":"address","internalType":"contract IERC20"}],"outputs":[{"name":"","type":"uint256","internalType":"uint256"},{"name":"","type":"uint256","internalType":"uint256"}],"stateMutability":"view"},{"type":"function","name":"getVaultExtension","inputs":[],"outputs":[{"name":"","type":"address","internalType":"address"}],"stateMutability":"view"},{"type":"function","name":"reentrancyGuardEntered","inputs":[],"outputs":[{"name":"","type":"bool","internalType":"bool"}],"stateMutability":"view"},{"type":"function","name":"removeLiquidity","inputs":[{"name":"params","type":"tuple","internalType":"struct RemoveLiquidityParams","components":[{"name":"pool","type":"address","internalType":"address"},{"name":"from","type":"address","internalType":"address"},{"name":"maxBptAmountIn","type":"uint256","internalType":"uint256"},{"name":"minAmountsOut","type":"uint256[]","internalType":"uint256[]"},{"name":"kind","type":"uint8","internalType":"enum RemoveLiquidityKind"},{"name":"userData","type":"bytes","internalType":"bytes"}]}],"outputs":[{"name":"bptAmountIn","type":"uint256","internalType":"uint256"},{"name":"amountsOut","type":"uint256[]","internalType":"uint256[]"},{"name":"returnData","type":"bytes","internalType":"bytes"}],"stateMutability":"nonpayable"},{"type":"function","name":"sendTo","inputs":[{"name":"token","type":"address","internalType":"contract IERC20"},{"name":"to","type":"address","internalType":"address"},{"name":"amount","type":"uint256","internalType":"uint256"}],"outputs":[],"stateMutability":"nonpayable"},{"type":"function","name":"settle","inputs":[{"name":"token","type":"address","internalType":"contract IERC20"},{"name":"amountHint","type":"uint256","internalType":"uint256"}],"outputs":[{"name":"credit","type":"uint256","internalType":"uint256"}],"stateMutability":"nonpayable"},{"type":"function","name":"swap","inputs":[{"name":"vaultSwapParams","type":"tuple","internalType":"struct VaultSwapParams","components":[{"name":"kind","type":"uint8","internalType":"enum SwapKind"},{"name":"pool","type":"address","internalType":"address"},{"name":"tokenIn","type":"address","internalType":"contract IERC20"},{"name":"tokenOut","type":"address","internalType":"contract IERC20"},{"name":"amountGivenRaw","type":"uint256","internalType":"uint256"},{"name":"limitRaw","type":"uint256","internalType":"uint256"},{"name":"userData","type":"bytes","internalType":"bytes"}]}],"outputs":[{"name":"amountCalculated","type":"uint256","internalType":"uint256"},{"name":"amountIn","type":"uint256","internalType":"uint256"},{"name":"amountOut","type":"uint256","internalType":"uint256"}],"stateMutability":"nonpayable"},{"type":"function","name":"unlock","inputs":[{"name":"data","type":"bytes","internalType":"bytes"}],"outputs":[{"name":"result","type":"bytes","internalType":"bytes"}],"stateMutability":"nonpayable"},{"type":"event","name":"AggregateSwapFeePercentageChanged","inputs":[{"name":"pool","type":"address","indexed":true,"internalType":"address"},{"name":"aggregateSwapFeePercentage","type":"uint256","indexed":false,"internalType":"uint256"}],"anonymous":false},{"type":"event","name":"AggregateYieldFeePercentageChanged","inputs":[{"name":"pool","type":"address","indexed":true,"internalType":"address"},{"name":"aggregateYieldFeePercentage","type":"uint256","indexed":false,"internalType":"uint256"}],"anonymous":false},{"type":"event","name":"Approval","inputs":[{"name":"pool","type":"address","indexed":true,"internalType":"address"},{"name":"owner","type":"address","indexed":true,"internalType":"address"},{"name":"spender","type":"address","indexed":true,"internalType":"address"},{"name":"value","type":"uint256","indexed":false,"internalType":"uint256"}],"anonymous":false},{"type":"event","name":"AuthorizerChanged","inputs":[{"name":"newAuthorizer","type":"address","indexed":true,"internalType":"contract IAuthorizer"}],"anonymous":false},{"type":"event","name":"BufferSharesBurned","inputs":[{"name":"wrappedToken","type":"address","indexed":true,"internalType":"contract IERC4626"},{"name":"from","type":"address","indexed":true,"internalType":"address"},{"name":"burnedShares","type":"uint256","indexed":false,"internalType":"uint256"}],"anonymous":false},{"type":"event","name":"BufferSharesMinted","inputs":[{"name":"wrappedToken","type":"address","indexed":true,"internalType":"contract IERC4626"},{"name":"to","type":"address","indexed":true,"internalType":"address"},{"name":"issuedShares","type":"uint256","indexed":false,"internalType":"uint256"}],"anonymous":false},{"type":"event","name":"LiquidityAddedToBuffer","inputs":[{"name":"wrappedToken","type":"address","indexed":true,"internalType":"contract IERC4626"},{"name":"amountUnderlying","type":"uint256","indexed":false,"internalType":"uint256"},{"name":"amountWrapped","type":"uint256","indexed":false,"internalType":"uint256"}],"anonymous":false},{"type":"event","name":"LiquidityRemovedFromBuffer","inputs":[{"name":"wrappedToken","type":"address","indexed":true,"internalType":"contract IERC4626"},{"name":"amountUnderlying","type":"uint256","indexed":false,"internalType":"uint256"},{"name":"amountWrapped","type":"uint256","indexed":false,"internalType":"uint256"}],"anonymous":false},{"type":"event","name":"PoolBalanceChanged","inputs":[{"name":"pool","type":"address","indexed":true,"internalType":"address"},{"name":"liquidityProvider","type":"address","indexed":true,"internalType":"address"},{"name":"totalSupply","type":"uint256","indexed":false,"internalType":"uint256"},{"name":"deltas","type":"int256[]","indexed":false,"internalType":"int256[]"},{"name":"swapFeeAmountsRaw","type":"uint256[]","indexed":false,"internalType":"uint256[]"}],"anonymous":false},{"type":"event","name":"PoolInitialized","inputs":[{"name":"pool","type":"address","indexed":true,"internalType":"address"}],"anonymous":false},{"type":"event","name":"PoolPausedStateChanged","inputs":[{"name":"pool","type":"address","indexed":true,"internalType":"address"},{"name":"paused","type":"bool","indexed":false,"internalType":"bool"}],"anonymous":false},{"type":"event","name":"PoolRecoveryModeStateChanged","inputs":[{"name":"pool","type":"address","indexed":true,"internalType":"address"},{"name":"recoveryMode","type":"bool","indexed":false,"internalType":"bool"}],"anonymous":false},{"type":"event","name":"PoolRegistered","inputs":[{"name":"pool","type":"address","indexed":true,"internalType":"address"},{"name":"factory","type":"address","indexed":true,"internalType":"address"},{"name":"tokenConfig","type":"tuple[]","indexed":false,"internalType":"struct TokenConfig[]","components":[{"name":"token","type":"address","internalType":"contract IERC20"},{"name":"tokenType","type":"uint8","internalType":"enum TokenType"},{"name":"rateProvider","type":"address","internalType":"contract IRateProvider"},{"name":"paysYieldFees","type":"bool","internalType":"bool"}]},{"name":"swapFeePercentage","type":"uint256","indexed":false,"internalType":"uint256"},{"name":"pauseWindowEndTime","type":"uint32","indexed":false,"internalType":"uint32"},{"name":"roleAccounts","type":"tuple","indexed":false,"internalType":"struct PoolRoleAccounts","components":[{"name":"pauseManager","type":"address","internalType":"address"},{"name":"swapFeeManager","type":"address","internalType":"address"},{"name":"poolCreator","type":"address","internalType":"address"}]},{"name":"hooksConfig","type":"tuple","indexed":false,"internalType":"struct HooksConfig","components":[{"name":"enableHookAdjustedAmounts","type":"bool","internalType":"bool"},{"name":"shouldCallBeforeInitialize","type":"bool","internalType":"bool"},{"name":"shouldCallAfterInitialize","type":"bool","internalType":"bool"},{"name":"shouldCallComputeDynamicSwapFee","type":"bool","internalType":"bool"},{"name":"shouldCallBeforeSwap","type":"bool","internalType":"bool"},{"name":"shouldCallAfterSwap","type":"bool","internalType":"bool"},{"name":"shouldCallBeforeAddLiquidity","type":"bool","internalType":"bool"},{"name":"shouldCallAfterAddLiquidity","type":"bool","internalType":"bool"},{"name":"shouldCallBeforeRemoveLiquidity","type":"bool","internalType":"bool"},{"name":"shouldCallAfterRemoveLiquidity","type":"bool","internalType":"bool"},{"name":"hooksContract","type":"address","internalType":"address"}]},{"name":"liquidityManagement","type":"tuple","indexed":false,"internalType":"struct LiquidityManagement","components":[{"name":"disableUnbalancedLiquidity","type":"bool","internalType":"bool"},{"name":"enableAddLiquidityCustom","type":"bool","internalType":"bool"},{"name":"enableRemoveLiquidityCustom","type":"bool","internalType":"bool"},{"name":"enableDonation","type":"bool","internalType":"bool"}]}],"anonymous":false},{"type":"event","name":"ProtocolFeeControllerChanged","inputs":[{"name":"newProtocolFeeController","type":"address","indexed":true,"internalType":"contract IProtocolFeeController"}],"anonymous":false},{"type":"event","name":"Swap","inputs":[{"name":"pool","type":"address","indexed":true,"internalType":"address"},{"name":"tokenIn","type":"address","indexed":true,"internalType":"contract IERC20"},{"name":"tokenOut","type":"address","indexed":true,"internalType":"contract IERC20"},{"name":"amountIn","type":"uint256","indexed":false,"internalType":"uint256"},{"name":"amountOut","type":"uint256","indexed":false,"internalType":"uint256"},{"name":"swapFeePercentage","type":"uint256","indexed":false,"internalType":"uint256"},{"name":"swapFeeAmount","type":"uint256","indexed":false,"internalType":"uint256"}],"anonymous":false},{"type":"event","name":"SwapFeePercentageChanged","inputs":[{"name":"pool","type":"address","indexed":true,"internalType":"address"},{"name":"swapFeePercentage","type":"uint256","indexed":false,"internalType":"uint256"}],"anonymous":false},{"type":"event","name":"Transfer","inputs":[{"name":"pool","type":"address","indexed":true,"internalType":"address"},{"name":"from","type":"address","indexed":true,"internalType":"address"},{"name":"to","type":"address","indexed":true,"internalType":"address"},{"name":"value","type":"uint256","indexed":false,"internalType":"uint256"}],"anonymous":false},{"type":"event","name":"Unwrap","inputs":[{"name":"wrappedToken","type":"address","indexed":true,"internalType":"contract IERC4626"},{"name":"underlyingToken","type":"address","indexed":true,"internalType":"contract IERC20"},{"name":"burnedShares","type":"uint256","indexed":false,"internalType":"uint256"},{"name":"withdrawnUnderlying","type":"uint256","indexed":false,"internalType":"uint256"}],"anonymous":false},{"type":"event","name":"VaultBuffersPausedStateChanged","inputs":[{"name":"paused","type":"bool","indexed":false,"internalType":"bool"}],"anonymous":false},{"type":"event","name":"VaultPausedStateChanged","inputs":[{"name":"paused","type":"bool","indexed":false,"internalType":"bool"}],"anonymous":false},{"type":"event","name":"VaultQueriesDisabled","inputs":[],"anonymous":false},{"type":"event","name":"Wrap","inputs":[{"name":"underlyingToken","type":"address","indexed":true,"internalType":"contract IERC20"},{"name":"wrappedToken","type":"address","indexed":true,"internalType":"contract IERC4626"},{"name":"depositedUnderlying","type":"uint256","indexed":false,"internalType":"uint256"},{"name":"mintedShares","type":"uint256","indexed":false,"internalType":"uint256"}],"anonymous":false},{"type":"error","name":"AddressEmptyCode","inputs":[{"name":"target","type":"address","internalType":"address"}]},{"type":"error","name":"AfterAddLiquidityHookFailed","inputs":[]},{"type":"error","name":"AfterInitializeHookFailed","inputs":[]},{"type":"error","name":"AfterRemoveLiquidityHookFailed","inputs":[]},{"type":"error","name":"AfterSwapHookFailed","inputs":[]},{"type":"error","name":"AllZeroInputs","inputs":[]},{"type":"error","name":"AmountGivenZero","inputs":[]},{"type":"error","name":"AmountInAboveMax","inputs":[{"name":"tokenIn","type":"address","internalType":"contract IERC20"},{"name":"amountIn","type":"uint256","internalType":"uint256"},{"name":"maxAmountIn","type":"uint256","internalType":"uint256"}]},{"type":"error","name":"AmountOutBelowMin","inputs":[{"name":"tokenOut","type":"address","internalType":"contract IERC20"},{"name":"amountOut","type":"uint256","internalType":"uint256"},{"name":"minAmountOut","type":"uint256","internalType":"uint256"}]},{"type":"error","name":"BalanceNotSettled","inputs":[]},{"type":"error","name":"BalanceOverflow","inputs":[]},{"type":"error","name":"BeforeAddLiquidityHookFailed","inputs":[]},{"type":"error","name":"BeforeInitializeHookFailed","inputs":[]},{"type":"error","name":"BeforeRemoveLiquidityHookFailed","inputs":[]},{"type":"error","name":"BeforeSwapHookFailed","inputs":[]},{"type":"error","name":"BptAmountInAboveMax","inputs":[{"name":"amountIn","type":"uint256","internalType":"uint256"},{"name":"maxAmountIn","type":"uint256","internalType":"uint256"}]},{"type":"error","name":"BptAmountOutBelowMin","inputs":[{"name":"amountOut","type":"uint256","internalType":"uint256"},{"name":"minAmountOut","type":"uint256","internalType":"uint256"}]},{"type":"error","name":"BufferAlreadyInitialized","inputs":[{"name":"wrappedToken","type":"address","internalType":"contract IERC4626"}]},{"type":"error","name":"BufferNotInitialized","inputs":[{"name":"wrappedToken","type":"address","internalType":"contract IERC4626"}]},{"type":"error","name":"BufferSharesInvalidOwner","inputs":[]},{"type":"error","name":"BufferSharesInvalidReceiver","inputs":[]},{"type":"error","name":"BufferTotalSupplyTooLow","inputs":[{"name":"totalSupply","type":"uint256","internalType":"uint256"}]},{"type":"error","name":"CannotReceiveEth","inputs":[]},{"type":"error","name":"CannotSwapSameToken","inputs":[]},{"type":"error","name":"DoesNotSupportAddLiquidityCustom","inputs":[]},{"type":"error","name":"DoesNotSupportDonation","inputs":[]},{"type":"error","name":"DoesNotSupportRemoveLiquidityCustom","inputs":[]},{"type":"error","name":"DoesNotSupportUnbalancedLiquidity","inputs":[]},{"type":"error","name":"DynamicSwapFeeHookFailed","inputs":[]},{"type":"error","name":"ERC20InsufficientAllowance","inputs":[{"name":"spender","type":"address","internalType":"address"},{"name":"allowance","type":"uint256","internalType":"uint256"},{"name":"needed","type":"uint256","internalType":"uint256"}]},{"type":"error","name":"ERC20InsufficientBalance","inputs":[{"name":"sender","type":"address","internalType":"address"},{"name":"balance","type":"uint256","internalType":"uint256"},{"name":"needed","type":"uint256","internalType":"uint256"}]},{"type":"error","name":"ERC20InvalidApprover","inputs":[{"name":"approver","type":"address","internalType":"address"}]},{"type":"error","name":"ERC20InvalidReceiver","inputs":[{"name":"receiver","type":"address","internalType":"address"}]},{"type":"error","name":"ERC20InvalidSender","inputs":[{"name":"sender","type":"address","internalType":"address"}]},{"type":"error","name":"ERC20InvalidSpender","inputs":[{"name":"spender","type":"address","internalType":"address"}]},{"type":"error","name":"FailedCall","inputs":[]},{"type":"error","name":"FeePrecisionTooHigh","inputs":[]},{"type":"error","name":"HookAdjustedAmountInAboveMax","inputs":[{"name":"tokenIn","type":"address","internalType":"contract IERC20"},{"name":"amountIn","type":"uint256","internalType":"uint256"},{"name":"maxAmountIn","type":"uint256","internalType":"uint256"}]},{"type":"error","name":"HookAdjustedAmountOutBelowMin","inputs":[{"name":"tokenOut","type":"address","internalType":"contract IERC20"},{"name":"amountOut","type":"uint256","internalType":"uint256"},{"name":"minAmountOut","type":"uint256","internalType":"uint256"}]},{"type":"error","name":"HookAdjustedSwapLimit","inputs":[{"name":"amount","type":"uint256","internalType":"uint256"},{"name":"limit","type":"uint256","internalType":"uint256"}]},{"type":"error","name":"HookRegistrationFailed","inputs":[{"name":"poolHooksContract","type":"address","internalType":"address"},{"name":"pool","type":"address","internalType":"address"},{"name":"poolFactory","type":"address","internalType":"address"}]},{"type":"error","name":"InputLengthMismatch","inputs":[]},{"type":"error","name":"InsufficientBalance","inputs":[{"name":"balance","type":"uint256","internalType":"uint256"},{"name":"needed","type":"uint256","internalType":"uint256"}]},{"type":"error","name":"InvalidAddLiquidityKind","inputs":[]},{"type":"error","name":"InvalidRemoveLiquidityKind","inputs":[]},{"type":"error","name":"InvalidToken","inputs":[]},{"type":"error","name":"InvalidTokenConfiguration","inputs":[]},{"type":"error","name":"InvalidTokenType","inputs":[]},{"type":"error","name":"InvalidUnderlyingToken","inputs":[{"name":"wrappedToken","type":"address","internalType":"contract IERC4626"}]},{"type":"error","name":"InvariantRatioAboveMax","inputs":[{"name":"invariantRatio","type":"uint256","internalType":"uint256"},{"name":"maxInvariantRatio","type":"uint256","internalType":"uint256"}]},{"type":"error","name":"InvariantRatioBelowMin","inputs":[{"name":"invariantRatio","type":"uint256","internalType":"uint256"},{"name":"minInvariantRatio","type":"uint256","internalType":"uint256"}]},{"type":"error","name":"MaxTokens","inputs":[]},{"type":"error","name":"MinTokens","inputs":[]},{"type":"error","name":"MultipleNonZeroInputs","inputs":[]},{"type":"error","name":"NotEnoughBufferShares","inputs":[]},{"type":"error","name":"NotEnoughUnderlying","inputs":[{"name":"wrappedToken","type":"address","internalType":"contract IERC4626"},{"name":"expectedUnderlyingAmount","type":"uint256","internalType":"uint256"},{"name":"actualUnderlyingAmount","type":"uint256","internalType":"uint256"}]},{"type":"error","name":"NotEnoughWrapped","inputs":[{"name":"wrappedToken","type":"address","internalType":"contract IERC4626"},{"name":"expectedWrappedAmount","type":"uint256","internalType":"uint256"},{"name":"actualWrappedAmount","type":"uint256","internalType":"uint256"}]},{"type":"error","name":"NotStaticCall","inputs":[]},{"type":"error","name":"NotVaultDelegateCall","inputs":[]},{"type":"error","name":"PauseBufferPeriodDurationTooLarge","inputs":[]},{"type":"error","name":"PercentageAboveMax","inputs":[]},{"type":"error","name":"PoolAlreadyInitialized","inputs":[{"name":"pool","type":"address","internalType":"address"}]},{"type":"error","name":"PoolAlreadyRegistered","inputs":[{"name":"pool","type":"address","internalType":"address"}]},{"type":"error","name":"PoolInRecoveryMode","inputs":[{"name":"pool","type":"address","internalType":"address"}]},{"type":"error","name":"PoolNotInRecoveryMode","inputs":[{"name":"pool","type":"address","internalType":"address"}]},{"type":"error","name":"PoolNotInitialized","inputs":[{"name":"pool","type":"address","internalType":"address"}]},{"type":"error","name":"PoolNotPaused","inputs":[{"name":"pool","type":"address","internalType":"address"}]},{"type":"error","name":"PoolNotRegistered","inputs":[{"name":"pool","type":"address","internalType":"address"}]},{"type":"error","name":"PoolPauseWindowExpired","inputs":[{"name":"pool","type":"address","internalType":"address"}]},{"type":"error","name":"PoolPaused","inputs":[{"name":"pool","type":"address","internalType":"address"}]},{"type":"error","name":"PoolTotalSupplyTooLow","inputs":[{"name":"totalSupply","type":"uint256","internalType":"uint256"}]},{"type":"error","name":"ProtocolFeesExceedTotalCollected","inputs":[]},{"type":"error","name":"QueriesDisabled","inputs":[]},{"type":"error","name":"QuoteResultSpoofed","inputs":[]},{"type":"error","name":"ReentrancyGuardReentrantCall","inputs":[]},{"type":"error","name":"RouterNotTrusted","inputs":[]},{"type":"error","name":"SafeCastOverflowedIntToUint","inputs":[{"name":"value","type":"int256","internalType":"int256"}]},{"type":"error","name":"SafeCastOverflowedUintToInt","inputs":[{"name":"value","type":"uint256","internalType":"uint256"}]},{"type":"error","name":"SafeERC20FailedOperation","inputs":[{"name":"token","type":"address","internalType":"address"}]},{"type":"error","name":"SenderIsNotVault","inputs":[{"name":"sender","type":"address","internalType":"address"}]},{"type":"error","name":"SwapFeePercentageTooHigh","inputs":[]},{"type":"error","name":"SwapFeePercentageTooLow","inputs":[]},{"type":"error","name":"SwapLimit","inputs":[{"name":"amount","type":"uint256","internalType":"uint256"},{"name":"limit","type":"uint256","internalType":"uint256"}]},{"type":"error","name":"TokenAlreadyRegistered","inputs":[{"name":"token","type":"address","internalType":"contract IERC20"}]},{"type":"error","name":"TokenNotRegistered","inputs":[{"name":"token","type":"address","internalType":"contract IERC20"}]},{"type":"error","name":"TokensMismatch","inputs":[{"name":"pool","type":"address","internalType":"address"},{"name":"expectedToken","type":"address","internalType":"address"},{"name":"actualToken","type":"address","internalType":"address"}]},{"type":"error","name":"TradeAmountTooSmall","inputs":[]},{"type":"error","name":"VaultBuffersArePaused","inputs":[]},{"type":"error","name":"VaultIsNotUnlocked","inputs":[]},{"type":"error","name":"VaultNotPaused","inputs":[]},{"type":"error","name":"VaultPauseWindowDurationTooLarge","inputs":[]},{"type":"error","name":"VaultPauseWindowExpired","inputs":[]},{"type":"error","name":"VaultPaused","inputs":[]},{"type":"error","name":"WrapAmountTooSmall","inputs":[{"name":"wrappedToken","type":"address","internalType":"contract IERC4626"}]},{"type":"error","name":"WrongProtocolFeeControllerDeployment","inputs":[]},{"type":"error","name":"WrongUnderlyingToken","inputs":[{"name":"wrappedToken","type":"address","internalType":"contract IERC4626"},{"name":"underlyingToken","type":"address","internalType":"address"}]},{"type":"error","name":"WrongVaultAdminDeployment","inputs":[]},{"type":"error","name":"WrongVaultExtensionDeployment","inputs":[]},{"type":"error","name":"ZeroDivision","inputs":[]}],"bytecode":{"object":"0x610200604052600a6101c0908152691a5cd55b9b1bd8dad95960b21b6101e0526200002a90620004a8565b60c0526040805180820190915260118152701b9bdb96995c9bd1195b1d1850dbdd5b9d607a1b60208201526200006090620004a8565b60e05260408051808201909152600b81526a746f6b656e44656c74617360a81b60208201526200009090620004a8565b61010052604080518082019091526012815271185919131a5c5d5a591a5d1e50d85b1b195960721b6020820152620000c890620004a8565b61012052348015620000d8575f80fd5b506040516200869938038062008699833981016040819052620000fb9162000570565b306001600160a01b0316836001600160a01b031663fbfa77cf6040518163ffffffff1660e01b8152600401602060405180830381865afa15801562000142573d5f803e3d5ffd5b505050506040513d601f19601f82011682018060405250810190620001689190620005c1565b6001600160a01b03161462000190576040516301ab9d9d60e41b815260040160405180910390fd5b306001600160a01b0316816001600160a01b031663fbfa77cf6040518163ffffffff1660e01b8152600401602060405180830381865afa158015620001d7573d5f803e3d5ffd5b505050506040513d601f19601f82011682018060405250810190620001fd9190620005c1565b6001600160a01b0316146200022557604051631bbe95c760e01b815260040160405180910390fd5b6001600160a01b038381166101a0819052600a80546001600160a01b0319169284169290921790915560408051634546891d60e11b81529051638a8d123a916004808201926020929091908290030181865afa15801562000288573d5f803e3d5ffd5b505050506040513d601f19601f82011682018060405250810190620002ae9190620005e6565b63ffffffff166101408163ffffffff1681525050826001600160a01b03166320c1fb7a6040518163ffffffff1660e01b8152600401602060405180830381865afa158015620002ff573d5f803e3d5ffd5b505050506040513d601f19601f82011682018060405250810190620003259190620005e6565b63ffffffff166101808163ffffffff1681525050826001600160a01b031663cd51c12f6040518163ffffffff1660e01b8152600401602060405180830381865afa15801562000376573d5f803e3d5ffd5b505050506040513d601f19601f820116820180604052508101906200039c9190620005e6565b63ffffffff166101608163ffffffff1681525050826001600160a01b031663e2cb0ba06040518163ffffffff1660e01b8152600401602060405180830381865afa158015620003ed573d5f803e3d5ffd5b505050506040513d601f19601f820116820180604052508101906200041391906200060b565b60808181525050826001600160a01b03166353956aa26040518163ffffffff1660e01b8152600401602060405180830381865afa15801562000457573d5f803e3d5ffd5b505050506040513d601f19601f820116820180604052508101906200047d91906200060b565b60a05250600980546001600160a01b0319166001600160a01b039290921691909117905550620006c4565b5f620004df60405180604001604052600c8152806020016b5661756c7453746f7261676560a01b81525083620004e560201b60201c565b92915050565b5f60ff5f1b19600184846040516020016200050292919062000652565b604051602081830303815290604052805190602001205f1c620005269190620006a4565b6040516020016200053991815260200190565b6040516020818303038152906040528051906020012016905092915050565b6001600160a01b03811681146200056d575f80fd5b50565b5f805f6060848603121562000583575f80fd5b8351620005908162000558565b6020850151909350620005a38162000558565b6040850151909250620005b68162000558565b809150509250925092565b5f60208284031215620005d2575f80fd5b8151620005df8162000558565b9392505050565b5f60208284031215620005f7575f80fd5b815163ffffffff81168114620005df575f80fd5b5f602082840312156200061c575f80fd5b5051919050565b5f81515f5b8181101562000644576020818501810151868301520162000628565b505f93019283525090919050565b7f62616c616e6365722d6c6162732e76332e73746f726167652e0000000000000081525f62000685601983018562000623565b601760f91b81526200069b600182018562000623565b95945050505050565b81810381811115620004df57634e487b7160e01b5f52601160045260245ffd5b60805160a05160c05160e05161010051610120516101405161016051610180516101a051617f30620007695f395f8181610277015261031101525f616c1601525f6161e701525f50505f8181610b9d01526114bb01525f8181613e1e0152613ebd01525f8181610ae801528181613e5d0152613e9201525f8181610a4401528181610a7401528181610b450152610e8f01525f61083801525f61544a0152617f305ff3fe6080604052600436106100bf575f3560e01c80634af29ec411610073578063b9a8effa1161004d578063b9a8effa14610269578063c9c1661b1461029b578063d2c725e0146102cf576100dd565b80634af29ec4146101eb578063aaabadc514610219578063ae6393291461024a576100dd565b80632bfb780c116100a45780632bfb780c1461016657806343583be5146101a057806348c89491146101bf576100dd565b806315afd409146101065780632145789714610138576100dd565b366100dd57604051637911c44b60e11b815260040160405180910390fd5b34156100fc57604051637911c44b60e11b815260040160405180910390fd5b61010461030c565b005b348015610111575f80fd5b50610125610120366004616ed0565b610337565b6040519081526020015b60405180910390f35b348015610143575f80fd5b5061015761015236600461709c565b61040c565b60405161012f939291906171eb565b348015610171575f80fd5b5061018561018036600461722c565b610556565b6040805193845260208401929092529082015260600161012f565b3480156101ab575f80fd5b506101856101ba3660046172ec565b610798565b3480156101ca575f80fd5b506101de6101d9366004617372565b610a40565b60405161012f91906173de565b3480156101f6575f80fd5b5061020a6102053660046173fe565b610b70565b60405161012f93929190617495565b348015610224575f80fd5b506009546001600160a01b03165b6040516001600160a01b03909116815260200161012f565b348015610255575f80fd5b506101046102643660046174bf565b610ce8565b348015610274575f80fd5b507f0000000000000000000000000000000000000000000000000000000000000000610232565b3480156102a6575f80fd5b506102ba6102b53660046174fd565b610d55565b6040805192835260208301919091520161012f565b3480156102da575f80fd5b506040517f9b779b17422d0df92223018b32b4d1fa46e071723d6817e2486d003becc55f005c1515815260200161012f565b6103357f0000000000000000000000000000000000000000000000000000000000000000610deb565b565b5f610340610e09565b610348610e8d565b6001600160a01b0383165f818152600860205260408082205490516370a0823160e01b81523060048201529092906370a0823190602401602060405180830381865afa15801561039a573d5f803e3d5ffd5b505050506040513d601f19601f820116820180604052508101906103be9190617534565b6001600160a01b0386165f90815260086020526040902081905590506103e4828261755f565b9250838311156103f2578392505b6103fc8584610ee9565b5050610406610f08565b92915050565b5f606080610418610e8d565b835161042381610f32565b845161042e90610f7f565b5f61043d865f01516001610f90565b905061045381602001515187606001515161104f565b60c081015160a082015160608801515f9261046d9261106f565b905061047b825f0151611164565b156104ef5786516001600160a01b039081165f908152600260205260409020546104ad91839133918b91879116611224565b86516001600160a01b03165f9081526005602052604090206104d29083906001611308565b60c082015160a083015160608901516104ec92909161106f565b90505b60606104fc83898461139f565b8651939a50919850909650915061051290611ba2565b1561054b5787516001600160a01b039081165f9081526002602052604090205484519116906105479033848a8c8e8a88611bbc565b9650505b505050509193909250565b5f805f610561610e8d565b836020015161056f81610f32565b61057c8560200151610f7f565b84608001515f036105b9576040517f57a456b700000000000000000000000000000000000000000000000000000000815260040160405180910390fd5b84606001516001600160a01b031685604001516001600160a01b03160361060c576040517fa54b181d00000000000000000000000000000000000000000000000000000000815260040160405180910390fd5b5f61061c86602001516001610f90565b90505f6106298783611db7565b90505f610637888385611e31565b9050610645835f0151611ee2565b156106be576020808901516001600160a01b038082165f90815260029093526040909220546106779284929116611ef1565b6020808901516001600160a01b03165f9081526005909152604090206106a09084906001611308565b6106ab888484611fb2565b60408301526106bb888385611e31565b90505b82516106c99061208d565b156107075760208089015160608401516001600160a01b038083165f908152600290945260409093205461070193859392911661209c565b60608301525b5f61071489848685612199565b8751939b509099509750915061072990612641565b15610767576020808a01516001600160a01b039081165f9081526002909252604090912054855191169061076390838b338e898b88612650565b9850505b5f8951600181111561077b5761077b617572565b036107885787955061078c565b8796505b50505050509193909250565b5f805f6107a3610e8d565b6107ab6128cc565b83604001516107b98161290e565b6107c1610e09565b5f85604001516001600160a01b03166338d52e0f6040518163ffffffff1660e01b8152600401602060405180830381865afa158015610802573d5f803e3d5ffd5b505050506040513d601f19601f820116820180604052508101906108269190617586565b9050610836866040015182612969565b7f0000000000000000000000000000000000000000000000000000000000000000866060015110156108aa5760408087015190517f18fe73850000000000000000000000000000000000000000000000000000000081526001600160a01b0390911660048201526024015b60405180910390fd5b6001866020015160018111156108c2576108c2617572565b03610935576108de865f015182886040015189606001516129d1565b6040808901518151848152602081018490529397509195506001600160a01b03808516939216917f844bdb9a38d1fd821344dfafdefc02959dbbcddd8e8f158cdebb56b561cb6702910160405180910390a36109a0565b61094c865f01518288604001518960600151612d98565b6040808901518151848152602081018490529397509195506001600160a01b0391821692918416917f764bd851d2423ff95fbc9b4db718c64299b808c0948fa9eec41c3b30001aea5e910160405180910390a35b5f865160018111156109b4576109b4617572565b036109f65785608001518310156109ee57608086015160405163e2ea151b60e01b81526108a1918591600401918252602082015260400190565b829450610a2f565b8560800151841115610a2b57608086015160405163e2ea151b60e01b81526108a1918691600401918252602082015260400190565b8394505b50610a38610f08565b509193909250565b60607f00000000000000000000000000000000000000000000000000000000000000005c8015155f03610a9a57610a9a60017f00000000000000000000000000000000000000000000000000000000000000005b906131ab565b610adb84848080601f0160208091040260200160405190810160405280939291908181526020018383808284375f9201919091525033939250506131b29050565b91508015155f03610b69577f00000000000000000000000000000000000000000000000000000000000000005c15610b3f576040517f20f1d86d00000000000000000000000000000000000000000000000000000000815260040160405180910390fd5b610b695f7f0000000000000000000000000000000000000000000000000000000000000000610a94565b5092915050565b60605f6060610b7d610e8d565b8351610b8881610f32565b8451610b9390610f7f565b8451610bc49060017f00000000000000000000000000000000000000000000000000000000000000005b91906131bf565b5f610bd2865f01515f610f90565b9050610be881602001515187604001515161104f565b60c081015160a082015160408801515f92610c02926131d7565b9050610c10825f01516132c0565b15610c835786516001600160a01b039081165f90815260026020526040902054610c4291339184918b918791166132cf565b86516001600160a01b03165f908152600560205260408120610c6691849190611308565b60c082015160a08301516040890151610c809290916131d7565b90505b6060610c908389846133ac565b8651939a5090985096509150610ca590613a5b565b1561054b5787516001600160a01b039081165f908152600260205260409020548451911690610cda9033848b8b8e8a88613a6a565b975050505050509193909250565b610cf0610e09565b610cf8610e8d565b610d028382613c54565b6001600160a01b0383165f9081526008602052604081208054839290610d2990849061755f565b90915550610d4390506001600160a01b0384168383613c61565b610d4b610f08565b505050565b905090565b5f8083610d6181613cd5565b6001600160a01b0385165f90815260036020908152604080832080548251818502810185019093528083529192909190830182828015610dc857602002820191905f5260205f20905b81546001600160a01b03168152600190910190602001808311610daa575b505050505090505f610dda8287613d1f565b91519450909250505b509250929050565b365f80375f80365f845af43d5f803e808015610e05573d5ff35b3d5ffd5b7f9b779b17422d0df92223018b32b4d1fa46e071723d6817e2486d003becc55f005c15610e62576040517f3ee5aeb500000000000000000000000000000000000000000000000000000000815260040160405180910390fd5b61033560017f9b779b17422d0df92223018b32b4d1fa46e071723d6817e2486d003becc55f00610a94565b7f00000000000000000000000000000000000000000000000000000000000000005c15155f03610335576040517fc09ba73600000000000000000000000000000000000000000000000000000000815260040160405180910390fd5b610f0482610ef683613daa565b610eff906175a1565b613e0c565b5050565b6103355f7f9b779b17422d0df92223018b32b4d1fa46e071723d6817e2486d003becc55f00610a94565b610f3b81613ee7565b610f7c576040517f4bdace130000000000000000000000000000000000000000000000000000000081526001600160a01b03821660048201526024016108a1565b50565b610f87613f08565b610f7c81613f47565b610fd26040518060e001604052805f80191681526020016060815260200160608152602001606081526020016060815260200160608152602001606081525090565b610fda610e09565b6001600160a01b0383165f908152600560209081526040808320838352818420546004845282852060039094529190932061101a93859390929187613f92565b6001600160a01b0383165f9081526005602090815260408083206006909252909120611047918391614364565b610406610f08565b808214610f045760405163aaad13f760e01b815260040160405180910390fd5b60605f8451905061108381855185516144a8565b5f8167ffffffffffffffff81111561109d5761109d616efa565b6040519080825280602002602001820160405280156110c6578160200160208202803683370190505b5090505f5b82811015611158576111338682815181106110e8576110e86175bb565b6020026020010151868381518110611102576111026175bb565b602002602001015189848151811061111c5761111c6175bb565b60200260200101516144d59092919063ffffffff16565b828281518110611145576111456175bb565b60209081029190910101526001016110cb565b509150505b9392505050565b5f6104066111738260016175cf565b61117e9060016175cf565b6111899060016175cf565b6111949060016175cf565b61119f9060016175cf565b6111aa9060016175cf565b6111b59060016175cf565b6111c09060016175cf565b6111cb9060016175cf565b6111d69060016175cf565b6111e19060016175cf565b6111ec9060016175cf565b6111f79060016175cf565b6112029060016175cf565b61120d9060016175cf565b6112189060016175cf565b839060ff161c60011690565b82516080808501516040808701519286015160a088015191517fba5f9f400000000000000000000000000000000000000000000000000000000081526001600160a01b0387169563ba5f9f4095611287958c959294909391928e926004016175fc565b6020604051808303815f875af11580156112a3573d5f803e3d5ffd5b505050506040513d601f19601f820116820180604052508101906112c7919061767b565b15155f03611301576040517f2aaf886600000000000000000000000000000000000000000000000000000000815260040160405180910390fd5b5050505050565b6020830151515f805b828110156113975761133f86604001518281518110611332576113326175bb565b60200260200101516144ea565b8660a001518281518110611355576113556175bb565b602002602001018181525050845f8281526020019081526020015f2054915061138f8682611389856001600160801b031690565b876145d2565b600101611311565b505050505050565b5f60608060606113ad610e09565b6113ce60405180606001604052805f81526020015f81526020015f81525090565b60208801515180825267ffffffffffffffff8111156113ef576113ef616efa565b604051908082528060200260200182016040528015611418578160200160208202803683370190505b50935060605f8860800151600381111561143457611434617572565b0361159d576040880151825190965067ffffffffffffffff81111561145b5761145b616efa565b604051908082528060200260200182016040528015611484578160200160208202803683370190505b5060808a015189516001600160a01b03165f908152601160205260409020549192506114b0918861468f565b88519094506114e1907f00000000000000000000000000000000000000000000000000000000000000005b9061473f565b15611598575f6114f38a5f0151614752565b90505f5b83518110156115955761152c82878381518110611516576115166175bb565b602002602001015161483a90919063ffffffff16565b83828151811061153e5761153e6175bb565b60200260200101818152505082818151811061155c5761155c6175bb565b6020026020010151868281518110611576576115766175bb565b6020026020010181815161158a919061755f565b9052506001016114f7565b50505b61183d565b6001886080015160038111156115b5576115b5617572565b0361164c5788516115c590614866565b876040015195508693506115dc88606001516148a9565b6040830181905260808a015189516116219290899061160f906001600160a01b03165f9081526011602052604090205490565b8d5161161a90614752565b8d51614955565b85846040015181518110611637576116376175bb565b6020026020010181935082815250505061183d565b60028860800151600381111561166457611664617572565b0361173557885161167490614866565b86935061168488606001516148a9565b604083018190526060890151805190919081106116a3576116a36175bb565b6020026020010151858360400151815181106116c1576116c16175bb565b60200260200101818152505061172b89608001518360400151868560400151815181106116f0576116f06175bb565b60200260200101516117198c5f01516001600160a01b03165f9081526011602052604090205490565b8d5161172490614752565b8d51614ae3565b909650905061183d565b60038860800151600381111561174d5761174d617572565b0361180b57885161175d90614e59565b87516040808a015160808c015160a08c015192517fab68e28c0000000000000000000000000000000000000000000000000000000081526001600160a01b039094169363ab68e28c936117b993339390928e9290600401617694565b5f604051808303815f875af11580156117d4573d5f803e3d5ffd5b505050506040513d5f823e601f3d908101601f191682016040526117fb919081019061777f565b929850909550909350905061183d565b6040517f137a9a3900000000000000000000000000000000000000000000000000000000815260040160405180910390fd5b876040015186111561188c578588604001516040517f31d38e0b0000000000000000000000000000000000000000000000000000000081526004016108a1929190918252602082015260400190565b61189586614e9c565b5f5b8251811015611ad4575f808683815181106118b4576118b46175bb565b602002602001015190506118c781614e9c565b8783815181106118d9576118d96175bb565b60200260200101515f0361195c576119368c60c001518481518110611900576119006175bb565b60200260200101518d60a00151858151811061191e5761191e6175bb565b602002602001015183614eab9092919063ffffffff16565b91508188848151811061194b5761194b6175bb565b602002602001018181525050611979565b87838151811061196e5761196e6175bb565b602002602001015191505b505f8b602001518381518110611991576119916175bb565b602002602001015190508a6060015183815181106119b1576119b16175bb565b6020026020010151821015611a2e5780828c6060015185815181106119d8576119d86175bb565b60209081029190910101516040517f2f785e460000000000000000000000000000000000000000000000000000000081526001600160a01b039093166004840152602483019190915260448201526064016108a1565b611a388183610ee9565b611a618c858581518110611a4e57611a4e6175bb565b60200260200101518d5f01518487614ebf565b858581518110611a7357611a736175bb565b602089810193845290810291909101019190915251611aca908490611a98908561780b565b8e606001518681518110611aae57611aae6175bb565b6020026020010151611ac0919061755f565b8e919060016145d2565b5050600101611897565b508751611ae1908a614ff7565b611af4885f01518960200151338961506a565b611afc6150e1565b15611b1357611b13885f01518960200151886150fc565b611b25885f0151896020015188615176565b60208089015189516001600160a01b039081165f8181526011909452604090932054911691907f819ce5239144079a04a704c41f4e9453355703cfee6df6771b6835557967aa2090611b77895f615338565b85604051611b879392919061781e565b60405180910390a35050611b99610f08565b93509350935093565b5f610406611bb18260016175cf565b6111739060016175cf565b60605f80836001600160a01b0316632754888d8b885f015189608001518b8e8e8c608001518e60a001516040518963ffffffff1660e01b8152600401611c09989796959493929190617873565b5f604051808303815f875af1158015611c24573d5f803e3d5ffd5b505050506040513d5f823e601f3d908101601f19168201604052611c4b91908101906178fb565b9092509050811580611c5f57508751815114155b15611c96576040517f1d3391d800000000000000000000000000000000000000000000000000000000815260040160405180910390fd5b611c9f8b6153f8565b15155f03611cb1578792505050611dab565b5f5b8151811015611da65786606001518181518110611cd257611cd26175bb565b6020026020010151828281518110611cec57611cec6175bb565b60200260200101511015611d9e5785602001518181518110611d1057611d106175bb565b6020026020010151828281518110611d2a57611d2a6175bb565b602002602001015188606001518381518110611d4857611d486175bb565b60209081029190910101516040517ffbd8a7240000000000000000000000000000000000000000000000000000000081526001600160a01b039093166004840152602483019190915260448201526064016108a1565b600101611cb3565b509150505b98975050505050505050565b611dde60405180608001604052805f81526020015f81526020015f81526020015f81525090565b611df082602001518460400151613d1f565b815260208201516060840151611e069190613d1f565b6020820152611e16838383611fb2565b60408201528151611e2690614752565b606082015292915050565b611e766040805160e08101909152805f81526020015f8152602001606081526020015f81526020015f81526020015f6001600160a01b03168152602001606081525090565b6040518060e00160405280855f01516001811115611e9657611e96617572565b81526020018460400151815260200183608001518152602001845f0151815260200184602001518152602001336001600160a01b031681526020018560c0015181525090509392505050565b5f61040661119f8260016175cf565b6040517f5211fa770000000000000000000000000000000000000000000000000000000081526001600160a01b03821690635211fa7790611f389086908690600401617a11565b6020604051808303815f875af1158015611f54573d5f803e3d5ffd5b505050506040513d601f19601f82011682018060405250810190611f78919061767b565b15155f03610d4b576040517fe91e17e700000000000000000000000000000000000000000000000000000000815260040160405180910390fd5b5f8084516001811115611fc757611fc7617572565b1461202c576120278360c00151836020015181518110611fe957611fe96175bb565b602002602001015161201b8560a0015185602001518151811061200e5761200e6175bb565b6020026020010151615407565b608087015191906144d5565b612085565b6120858360c00151835f015181518110612048576120486175bb565b60200260200101518460a00151845f015181518110612069576120696175bb565b602002602001015186608001516154339092919063ffffffff16565b949350505050565b5f6104066111aa8260016175cf565b5f805f836001600160a01b031663a0e8f5ac8888886040518463ffffffff1660e01b81526004016120cf93929190617a3b565b6040805180830381865afa1580156120e9573d5f803e3d5ffd5b505050506040513d601f19601f8201168201806040525081019061210d9190617a68565b90925090508115155f0361214d576040517f53f976d400000000000000000000000000000000000000000000000000000000815260040160405180910390fd5b670de0b6b3a764000081111561218f576040517f746e594000000000000000000000000000000000000000000000000000000000815260040160405180910390fd5b9695505050505050565b5f805f806121a5610e09565b6121c660405180606001604052805f81526020015f81526020015f81525090565b5f895160018111156121da576121da617572565b0361220a57606088015160208701516121f29161483a565b80825260208701805161220690839061755f565b9052505b6122178660200151615448565b88602001516001600160a01b03166372c98186876040518263ffffffff1660e01b81526004016122479190617a92565b6020604051808303815f875af1158015612263573d5f803e3d5ffd5b505050506040513d601f19601f820116820180604052508101906122879190617534565b935061229284615448565b5f895160018111156122a6576122a6617572565b0361234a5787604001518660200181815250506123038760c001518960200151815181106122d6576122d66175bb565b60200260200101516122fb8960a001518b602001518151811061200e5761200e6175bb565b869190614eab565b60808a015160a08b015191965093508592508210156123455760a089015160405163e2ea151b60e01b81526108a1918491600401918252602082015260400190565b612411565b606088015161236b90670de0b6b3a7640000818103908210028691906154a2565b808252612378908561780b565b93506123cf8760c00151895f015181518110612396576123966175bb565b60200260200101518860a001518a5f0151815181106123b7576123b76175bb565b6020026020010151866155009092919063ffffffff16565b60808a015160a08b015191965086945092508311156124115760a089015160405163e2ea151b60e01b81526108a1918591600401918252602082015260400190565b61241f896040015184613c54565b61242d896060015183610ee9565b61244887825f01518b602001518c604001518c5f0151614ebf565b60408301819052602083019190915288516060890151805161249d9391879184908110612477576124776175bb565b6020026020010151612489919061780b565b612493919061755f565b89919060016145d2565b6124d288602001518389606001518b60200151815181106124c0576124c06175bb565b6020026020010151612493919061755f565b6020808a01516001600160a01b03165f908152600590915260409020606088015189518151612539929190811061250b5761250b6175bb565b602002602001015189608001518b5f01518151811061252c5761252c6175bb565b6020026020010151615514565b815f8b5f015181526020019081526020015f208190555061258f88606001518a602001518151811061256d5761256d6175bb565b602002602001015189608001518b602001518151811061252c5761252c6175bb565b815f8b6020015181526020019081526020015f208190555089606001516001600160a01b03168a604001516001600160a01b03168b602001516001600160a01b03167f0874b2d545cb271cdbda4e093020c452328b24af12382ed62c4d00f5c26709db87878e606001518860200151604051612624949392919093845260208401929092526040830152606082015260800190565b60405180910390a45050612636610f08565b945094509450949050565b5f6104066111948260016175cf565b5f8080808751600181111561266757612667617572565b146126775789866040015161267e565b85604001518a5b915091505f80856001600160a01b03166318b6eb556040518061018001604052808c5f015160018111156126b4576126b4617572565b81526020018c604001516001600160a01b031681526020018c606001516001600160a01b031681526020018781526020018681526020018a608001518c5f015181518110612704576127046175bb565b602002602001015181526020018a608001518c602001518151811061272b5761272b6175bb565b602002602001015181526020018f81526020018e81526020018d6001600160a01b031681526020018c602001516001600160a01b031681526020018c60c001518152506040518263ffffffff1660e01b815260040161278a9190617aa4565b60408051808303815f875af11580156127a5573d5f803e3d5ffd5b505050506040513d601f19601f820116820180604052508101906127c99190617a68565b90925090508115155f03612809576040517f15a29dec00000000000000000000000000000000000000000000000000000000815260040160405180910390fd5b6128128d6153f8565b15155f03612826578a945050505050611dab565b5f8951600181111561283a5761283a617572565b14801561284a57508860a0015181105b80612875575060018951600181111561286557612865617572565b14801561287557508860a0015181115b156128bc5760a08901516040517fcc0e4a990000000000000000000000000000000000000000000000000000000081526108a1918391600401918252602082015260400190565b9c9b505050505050505050505050565b6128d7600754615571565b15610335576040517f0f27df0900000000000000000000000000000000000000000000000000000000815260040160405180910390fd5b6001600160a01b038181165f908152600e602052604090205416610f7c576040517f85f412990000000000000000000000000000000000000000000000000000000081526001600160a01b03821660048201526024016108a1565b6001600160a01b038281165f908152600e6020526040902054811690821614610f04576040517f36b18d090000000000000000000000000000000000000000000000000000000081526001600160a01b038084166004830152821660248201526044016108a1565b5f80808660018111156129e6576129e6617572565b03612a77576040517f4cdad5060000000000000000000000000000000000000000000000000000000081526004810184905283906001600160a01b03861690634cdad50690602401602060405180830381865afa158015612a49573d5f803e3d5ffd5b505050506040513d601f19601f82011682018060405250810190612a6d9190617534565b9092509050612afd565b6040517f0a28a477000000000000000000000000000000000000000000000000000000008152600481018490526001600160a01b03851690630a28a47790602401602060405180830381865afa158015612ad3573d5f803e3d5ffd5b505050506040513d601f19601f82011682018060405250810190612af79190617534565b91508290505b612b056150e1565b612d8f576001600160a01b0384165f908152600b6020526040902054816001600160801b03821610612b78576001600160801b038116829003612b5581612b5086608086901c61780b565b615514565b6001600160a01b0387165f908152600b602052604090208190559150612d799050565b5f8080896001811115612b8d57612b8d617572565b03612c54575f612b9d8489615594565b9050612bbb81612bac88613daa565b612bb69190617b7f565b615656565b6040517fba08765200000000000000000000000000000000000000000000000000000000815260048101829052306024820181905260448201529092506001600160a01b0389169063ba087652906064016020604051808303815f875af1158015612c28573d5f803e3d5ffd5b505050506040513d601f19601f82011682018060405250810190612c4c9190617534565b925050612d0d565b5f612c5f8489615694565b9050612c7881612c6e87613daa565b612bb69190617ba6565b6040517fb460af9400000000000000000000000000000000000000000000000000000000815260048101829052306024820181905260448201529093506001600160a01b0389169063b460af94906064016020604051808303815f875af1158015612ce5573d5f803e3d5ffd5b505050506040513d601f19601f82011682018060405250810190612d099190617534565b9150505b612d19888884846156d8565b612d5a84612d30846001600160801b03871661780b565b612d3a919061755f565b8287612d468760801c90565b612d50919061780b565b612b50919061755f565b6001600160a01b0388165f908152600b60205260409020819055925050505b612d838584613c54565b612d8d8683610ee9565b505b94509492505050565b5f8080866001811115612dad57612dad617572565b03612e3e576040517fef8b30f70000000000000000000000000000000000000000000000000000000081526004810184905283906001600160a01b0386169063ef8b30f790602401602060405180830381865afa158015612e10573d5f803e3d5ffd5b505050506040513d601f19601f82011682018060405250810190612e349190617534565b9092509050612eab565b60405163b3d7f6b960e01b8152600481018490526001600160a01b0385169063b3d7f6b990602401602060405180830381865afa158015612e81573d5f803e3d5ffd5b505050506040513d601f19601f82011682018060405250810190612ea59190617534565b91508290505b612eb36150e1565b612d8f576001600160a01b0384165f908152600b602052604090205481612eda8260801c90565b10612f2d575f82612eeb8360801c90565b039050612f0a612f04856001600160801b03851661780b565b82615514565b6001600160a01b0387165f908152600b6020526040902081905591506131979050565b5f8080896001811115612f4257612f42617572565b03613006575f612f528489615694565b9050612f6181612bac88613daa565b9250612f776001600160a01b038a168985615730565b6040517f6e553f65000000000000000000000000000000000000000000000000000000008152600481018490523060248201526001600160a01b03891690636e553f65906044016020604051808303815f875af1158015612fda573d5f803e3d5ffd5b505050506040513d601f19601f82011682018060405250810190612ffe9190617534565b91505061312b565b5f6130118489615594565b905061302081612c6e87613daa565b60405163b3d7f6b960e01b8152600481018290529092506001600160a01b0389169063b3d7f6b990602401602060405180830381865afa158015613066573d5f803e3d5ffd5b505050506040513d601f19601f8201168201806040525081019061308a9190617534565b92506130a06001600160a01b038a168985615730565b6040517f94bf804d000000000000000000000000000000000000000000000000000000008152600481018390523060248201526001600160a01b038916906394bf804d906044016020604051808303815f875af1158015613103573d5f803e3d5ffd5b505050506040513d601f19601f820116820180604052508101906131279190617534565b9250505b61313f6001600160a01b038916885f615730565b61314b888884846157ed565b61317882613162876001600160801b03871661780b565b61316c919061755f565b8583612d468760801c90565b6001600160a01b0388165f908152600b60205260409020819055925050505b6131a18684613c54565b612d8d8583610ee9565b80825d5050565b606061115d83835f615837565b5f828152602084905260409020610d4b908290610a94565b60605f845190506131eb81855185516144a8565b5f8167ffffffffffffffff81111561320557613205616efa565b60405190808252806020026020018201604052801561322e578160200160208202803683370190505b5090505f5b828110156111585761329b868281518110613250576132506175bb565b602002602001015186838151811061326a5761326a6175bb565b6020026020010151898481518110613284576132846175bb565b60200260200101516154339092919063ffffffff16565b8282815181106132ad576132ad6175bb565b6020908102919091010152600101613233565b5f6104066111898260016175cf565b825160808085015160608601519185015160a08701516040517f45421ec70000000000000000000000000000000000000000000000000000000081526001600160a01b038716956345421ec795613332958d95929490938d939190600401617bd5565b6020604051808303815f875af115801561334e573d5f803e3d5ffd5b505050506040513d601f19601f82011682018060405250810190613372919061767b565b15155f03611301576040517f0b2eb65200000000000000000000000000000000000000000000000000000000815260040160405180910390fd5b6060805f60606133ba610e09565b6133db60405180606001604052805f81526020015f81526020015f81525090565b60208801515180825267ffffffffffffffff8111156133fc576133fc616efa565b604051908082528060200260200182016040528015613425578160200160208202803683370190505b50945060605f8860800151600481111561344157613441617572565b036134c4576060880151825190945067ffffffffffffffff81111561346857613468616efa565b604051908082528060200260200182016040528015613491578160200160208202803683370190505b5060808a015189516001600160a01b03165f908152601160205260409020549192506134bd91866158e6565b945061376c565b6003886080015160048111156134dc576134dc617572565b0361353d5788516134ec9061598c565b865167ffffffffffffffff81111561350657613506616efa565b60405190808252806020026020018201604052801561352f578160200160208202803683370190505b5090505f935086945061376c565b60018860800151600481111561355557613555617572565b036135bc57885161356590614866565b8694506135768860400151876159cf565b6135b28960800151886135a08b5f01516001600160a01b03165f9081526011602052604090205490565b8c516135ab90614752565b8c51615a27565b909450905061376c565b6002886080015160048111156135d4576135d4617572565b036136675788516135e490614866565b876060015193506135f4876148a9565b6040830181905260808a0151895189975061363c9290879061362a906001600160a01b03165f9081526011602052604090205490565b8d5161363590614752565b8d51615dd1565b86846040015181518110613652576136526175bb565b6020026020010181935082815250505061376c565b60048860800151600481111561367f5761367f617572565b0361373a57885161368f90615f66565b8751606089015160808b015160a08b01516040517fe4c436630000000000000000000000000000000000000000000000000000000081526001600160a01b039094169363e4c43663936136e89333938e93600401617c23565b5f604051808303815f875af1158015613703573d5f803e3d5ffd5b505050506040513d5f823e601f3d908101601f1916820160405261372a9190810190617c5c565b929750909550909350905061376c565b6040517f6c02b39500000000000000000000000000000000000000000000000000000000815260040160405180910390fd5b87606001518410156137ba5760608801516040517f8d261d5d0000000000000000000000000000000000000000000000000000000081526108a1918691600401918252602082015260400190565b6137c384614e9c565b5f5b82518110156139e9575f808783815181106137e2576137e26175bb565b602002602001015190506137f581614e9c565b888381518110613807576138076175bb565b60200260200101515f0361388a576138648c60c00151848151811061382e5761382e6175bb565b60200260200101518d60a00151858151811061384c5761384c6175bb565b6020026020010151836155009092919063ffffffff16565b915081898481518110613879576138796175bb565b6020026020010181815250506138a7565b88838151811061389c5761389c6175bb565b602002602001015191505b505f8b6020015183815181106138bf576138bf6175bb565b602002602001015190508a6040015183815181106138df576138df6175bb565b602002602001015182111561395c5780828c604001518581518110613906576139066175bb565b60209081029190910101516040517f8eda85e40000000000000000000000000000000000000000000000000000000081526001600160a01b039093166004840152602483019190915260448201526064016108a1565b6139668183613c54565b61397c8c858581518110611a4e57611a4e6175bb565b85858151811061398e5761398e6175bb565b6020026020010187602001828152508281525050506139df838660200151848f6060015187815181106139c3576139c36175bb565b60200260200101516139d5919061780b565b611ac0919061755f565b50506001016137c5565b5087516139f6908a614ff7565b613a08885f0151896020015186615fa9565b60208089015189516001600160a01b039081165f8181526011909452604090932054911691907f819ce5239144079a04a704c41f4e9453355703cfee6df6771b6835557967aa2090611b778a6001615338565b5f61040661117e8260016175cf565b60605f80836001600160a01b031663976907cc8b885f015189608001518d8d8d8c608001518e60a001516040518963ffffffff1660e01b8152600401613ab7989796959493929190617cae565b5f604051808303815f875af1158015613ad2573d5f803e3d5ffd5b505050506040513d5f823e601f3d908101601f19168201604052613af991908101906178fb565b9092509050811580613b0d57508751815114155b15613b44576040517fe124916500000000000000000000000000000000000000000000000000000000815260040160405180910390fd5b613b4d8b6153f8565b15155f03613b5f578792505050611dab565b5f5b8151811015611da65786604001518181518110613b8057613b806175bb565b6020026020010151828281518110613b9a57613b9a6175bb565b60200260200101511115613c4c5785602001518181518110613bbe57613bbe6175bb565b6020026020010151828281518110613bd857613bd86175bb565b602002602001015188604001518381518110613bf657613bf66175bb565b60209081029190910101516040517fcefa3afa0000000000000000000000000000000000000000000000000000000081526001600160a01b039093166004840152602483019190915260448201526064016108a1565b600101613b61565b610f0482610eff83613daa565b6040516001600160a01b03838116602483015260448201839052610d4b91859182169063a9059cbb906064015b604051602081830303815290604052915060e01b6020820180517bffffffffffffffffffffffffffffffffffffffffffffffffffffffff838183161783525050505061610a565b613cde8161618f565b610f7c576040517f9e51bd5c0000000000000000000000000000000000000000000000000000000081526001600160a01b03821660048201526024016108a1565b5f805b8351811015613d6c57826001600160a01b0316848281518110613d4757613d476175bb565b60200260200101516001600160a01b031603613d64579050610406565b600101613d22565b506040517fddef98d70000000000000000000000000000000000000000000000000000000081526001600160a01b03831660048201526024016108a1565b5f7f7fffffffffffffffffffffffffffffffffffffffffffffffffffffffffffffff821115613e08576040517f24775e06000000000000000000000000000000000000000000000000000000008152600481018390526024016108a1565b5090565b805f03613e17575050565b5f613e42837f00000000000000000000000000000000000000000000000000000000000000006114db565b90505f613e4f8383617b7f565b9050805f03613e8657613e817f00000000000000000000000000000000000000000000000000000000000000006161b0565b613eb6565b815f03613eb657613eb67f00000000000000000000000000000000000000000000000000000000000000006161c6565b613ee184827f0000000000000000000000000000000000000000000000000000000000000000610bbd565b50505050565b6001600160a01b0381165f9081526020819052604081205461115d816161d5565b613f106161e4565b15610335576040517fda9f8b3400000000000000000000000000000000000000000000000000000000815260040160405180910390fd5b613f5081616221565b15610f7c576040517fd971f5970000000000000000000000000000000000000000000000000000000081526001600160a01b03821660048201526024016108a1565b8154848752604080516020808402820181019092528281529084908390830182828015613fe657602002820191905f5260205f20905b81546001600160a01b03168152600190910190602001808311613fc8575b505050505087602001819052508067ffffffffffffffff81111561400c5761400c616efa565b60405190808252806020026020018201604052801561405557816020015b604080516060810182525f80825260208083018290529282015282525f1990920191018161402a5790505b5060408801528067ffffffffffffffff81111561407457614074616efa565b60405190808252806020026020018201604052801561409d578160200160208202803683370190505b5060608801528067ffffffffffffffff8111156140bc576140bc616efa565b6040519080825280602002602001820160405280156140e5578160200160208202803683370190505b50608088015286516140f7908261622c565b60c08801528067ffffffffffffffff81111561411557614115616efa565b60405190808252806020026020018201604052801561413e578160200160208202803683370190505b5060a088015286515f90614151906161d5565b801561416757505f614165895f01516162f8565b115b801561417b57508751614179906163ed565b155b90505f5b82811015614359575f865f8b6020015184815181106141a0576141a06175bb565b6020908102919091018101516001600160a01b0316825281019190915260409081015f208151606081019092528054829060ff1660018111156141e5576141e5617572565b60018111156141f6576141f6617572565b8152905461010081046001600160a01b0316602080840191909152750100000000000000000000000000000000000000000090910460ff1615156040928301525f858152908c905281902054908c01518051929350909183919085908110614260576142606175bb565b6020026020010181905250614274826144ea565b8b60a00151848151811061428a5761428a6175bb565b60209081029190910101526142aa8b846001600160801b038416896145d2565b8315155f036142ba575050614351565b5f826040015180156142de57506001835160018111156142dc576142dc617572565b145b9050801561434d575f6142f38d5f01516162f8565b90505f8d60600151868151811061430c5761430c6175bb565b602002602001015190505f61432c8f6143258760801c90565b89866163fc565b90508015614349576143498f88614343848661755f565b8d6145d2565b5050505b5050505b60010161417f565b505050505050505050565b6060830151515f5b81811015611301575f8560200151828151811061438b5761438b6175bb565b6020908102919091018101515f848152918790526040822054909250906001600160801b0382169050876060015184815181106143ca576143ca6175bb565b6020026020010151811115614455576001600160a01b0383165f908152602087905260409020546060890151805161443b91908790811061440d5761440d6175bb565b602002602001015183614420919061755f565b61442a8360801c90565b614434919061780b565b8290616479565b6001600160a01b0385165f90815260208990526040902055505b61448c8860600151858151811061446e5761446e6175bb565b60200260200101518960800151868151811061252c5761252c6175bb565b5f8581526020899052604090205550506001909101905061436c565b81831415806144b75750808214155b15610d4b5760405163aaad13f760e01b815260040160405180910390fd5b5f612085826144e4868661483a565b9061483a565b80515f908181600181111561450157614501617572565b0361451657670de0b6b3a764000091506145cc565b600181600181111561452a5761452a617572565b0361459a5782602001516001600160a01b031663679aefce6040518163ffffffff1660e01b8152600401602060405180830381865afa15801561456f573d5f803e3d5ffd5b505050506040513d601f19601f820116820180604052508101906145939190617534565b91506145cc565b6040517fdf45063200000000000000000000000000000000000000000000000000000000815260040160405180910390fd5b50919050565b81846060015184815181106145e9576145e96175bb565b6020908102919091010152616ea45f82600181111561460a5761460a617572565b146146175761543361461b565b6144d55b9050614666838660c001518681518110614637576146376175bb565b60200260200101518760a001518781518110614655576146556175bb565b60200260200101518463ffffffff16565b8560800151858151811061467c5761467c6175bb565b6020026020010181815250505050505050565b6060835167ffffffffffffffff8111156146ab576146ab616efa565b6040519080825280602002602001820160405280156146d4578160200160208202803683370190505b5090505f5b84518110156147375783838683815181106146f6576146f66175bb565b60200260200101516147089190617d13565b6147129190617d3e565b828281518110614724576147246175bb565b60209081029190910101526001016146d9565b509392505050565b5f8181526020839052604081205c61115d565b5f64174876e8006148306147678360016175cf565b6147729060016175cf565b61477d9060016175cf565b6147889060016175cf565b6147939060016175cf565b61479e9060016175cf565b6147a99060016175cf565b6147b49060016175cf565b6147bf9060016175cf565b6147ca9060016175cf565b6147d59060016175cf565b6147e09060016175cf565b6147eb9060016175cf565b6147f69060016175cf565b6148019060016175cf565b61480c9060016175cf565b6148179060016175cf565b6148229060016175cf565b60ff1684901c62ffffff1690565b6104069190617d13565b5f806148468385617d13565b90506001670de0b6b3a76400006001830304018115150291505092915050565b61486f8161648d565b15155f03610f7c576040517fd4f5779c00000000000000000000000000000000000000000000000000000000815260040160405180910390fd5b8051805f5b8181101561491b578381815181106148c8576148c86175bb565b60200260200101515f146149135781831461490f576040517f6b8c3be500000000000000000000000000000000000000000000000000000000815260040160405180910390fd5b8092505b6001016148ae565b508082106145cc576040517f7e46bddc00000000000000000000000000000000000000000000000000000000815260040160405180910390fd5b5f606081614963878761755f565b90505f61497082886164a3565b905061497c85826164b7565b60405162b5059f60e51b81525f906001600160a01b038716906316a0b3e0906149ad908e908e908790600401617d51565b602060405180830381865afa1580156149c8573d5f803e3d5ffd5b505050506040513d601f19601f820116820180604052508101906149ec9190617534565b90505f818c8c81518110614a0257614a026175bb565b6020026020010151614a14919061755f565b90505f614a458d8d81518110614a2c57614a2c6175bb565b60200260200101518b876154a29092919063ffffffff16565b90505f614a52848361755f565b90505f614a5f828c61483a565b90508e5167ffffffffffffffff811115614a7b57614a7b616efa565b604051908082528060200260200182016040528015614aa4578160200160208202803683370190505b50975080888f81518110614aba57614aba6175bb565b6020908102919091010152614acf818561755f565b985050505050505050965096945050505050565b85515f90606090828167ffffffffffffffff811115614b0457614b04616efa565b604051908082528060200260200182016040528015614b2d578160200160208202803683370190505b5090505f5b82811015614b79578a8181518110614b4c57614b4c6175bb565b6020026020010151828281518110614b6657614b666175bb565b6020908102919091010152600101614b32565b5087818a81518110614b8d57614b8d6175bb565b6020026020010151614b9f919061755f565b818a81518110614bb157614bb16175bb565b6020908102919091010152604051631309bd3d60e31b81525f906001600160a01b0387169063984de9e890614bec908e908590600401617d75565b602060405180830381865afa158015614c07573d5f803e3d5ffd5b505050506040513d601f19601f82011682018060405250810190614c2b9190617534565b90505f614ca582886001600160a01b031663984de9e8865f6040518363ffffffff1660e01b8152600401614c60929190617d75565b602060405180830381865afa158015614c7b573d5f803e3d5ffd5b505050506040513d601f19601f82011682018060405250810190614c9f9190617534565b906164a3565b9050614cb187826164b7565b5f838c81518110614cc457614cc46175bb565b6020026020010151614cf88e8e81518110614ce157614ce16175bb565b60200260200101518461483a90919063ffffffff16565b614d02919061755f565b90505f81614d21670de0b6b3a76400008c8103908d10025b84906164a3565b614d2b919061755f565b905080858e81518110614d4057614d406175bb565b6020026020010151614d52919061755f565b858e81518110614d6457614d646175bb565b6020908102919091010152604051631309bd3d60e31b81525f906001600160a01b038b169063984de9e890614da0908990600190600401617d75565b602060405180830381865afa158015614dbb573d5f803e3d5ffd5b505050506040513d601f19601f82011682018060405250810190614ddf9190617534565b90508667ffffffffffffffff811115614dfa57614dfa616efa565b604051908082528060200260200182016040528015614e23578160200160208202803683370190505b50975081888f81518110614e3957614e396175bb565b6020908102919091010152614acf614e51828761755f565b8d90876154a2565b614e628161655e565b15155f03610f7c576040517fcf0a95c000000000000000000000000000000000000000000000000000000000815260040160405180910390fd5b8015610f7c57610f7c81615448565b5f61208584614eba858561483a565b61656d565b5f805f86118015614ed857508651614ed6906163ed565b155b15614fed57614f2c8760c001518481518110614ef657614ef66175bb565b60200260200101518860a001518581518110614f1457614f146175bb565b6020026020010151886155009092919063ffffffff16565b91505f614f3b885f015161658d565b9050614f47838261666c565b915082821115614f83576040517f4c69ac5d00000000000000000000000000000000000000000000000000000000815260040160405180910390fd5b6001600160a01b038681165f90815260066020908152604080832093891683529290522054614fc5614fbe846001600160801b03841661780b565b829061668c565b6001600160a01b038089165f908152600660209081526040808320938b168352929052205550505b9550959350505050565b6001600160a01b0382165f908152600560205260408120905b826060015151811015613ee15761505483606001518281518110615036576150366175bb565b60200260200101518460800151838151811061252c5761252c6175bb565b5f82815260208490526040902055600101615010565b5f61507685858561669b565b90505f19811461130157808211156150d3576040517ffb8f41b20000000000000000000000000000000000000000000000000000000081526001600160a01b038416600482015260248101829052604481018390526064016108a1565b6113018585858585036166f2565b5f32158015610d5057506150f6600754616847565b15905090565b32155f03615136576040517f67f84ab200000000000000000000000000000000000000000000000000000000815260040160405180910390fd5b6001600160a01b038084165f908152600f602090815260408083209386168352929052908120805483929061516c90849061780b565b9091555050505050565b6001600160a01b0382166151c1576040517f96c6fd1e0000000000000000000000000000000000000000000000000000000081526001600160a01b03831660048201526024016108a1565b6001600160a01b038084165f908152600f602090815260408083209386168352929052205480821115615239576040517fe450d38c0000000000000000000000000000000000000000000000000000000081526001600160a01b038416600482015260248101829052604481018390526064016108a1565b6001600160a01b038085165f818152600f602090815260408083209488168352938152838220868603905591815260119091529081205461527b90849061755f565b905061528681616851565b6001600160a01b038581165f818152601160209081526040808320869055518781529193881692917fd1398bee19313d6bf672ccb116e51f4a1a947e91c757907f51fbb5b5e56c698f910160405180910390a46040516323de665160e01b81526001600160a01b0385811660048301525f6024830152604482018590528616906323de6651906064015f604051808303815f87803b158015615326575f80fd5b505af1158015614359573d5f803e3d5ffd5b6060825167ffffffffffffffff81111561535457615354616efa565b60405190808252806020026020018201604052801561537d578160200160208202803683370190505b5090505f5b8351811015610b6957826153b8578381815181106153a2576153a26175bb565b60200260200101516153b3906175a1565b6153d3565b8381815181106153ca576153ca6175bb565b60200260200101515b8282815181106153e5576153e56175bb565b6020908102919091010152600101615382565b5f6104066111c08260016175cf565b5f670de0b6b3a76400008083040280831461542c5761542783600161780b565b61115d565b5090919050565b5f61208582615442868661666c565b9061666c565b7f0000000000000000000000000000000000000000000000000000000000000000811015610f7c576040517f1ed4d11800000000000000000000000000000000000000000000000000000000815260040160405180910390fd5b5f815f036154dc576040517f0a0c22c700000000000000000000000000000000000000000000000000000000815260040160405180910390fd5b5f6154e78486617d13565b9050600183600183030401811515029150509392505050565b5f6120858461550f858561666c565b6164a3565b5f6001600160801b0383118061553057506001600160801b0382115b15615567576040517f89560ca100000000000000000000000000000000000000000000000000000000815260040160405180910390fd5b61115d8383616891565b5f61040661558082600161780b565b61558b90600161780b565b83901c60011690565b5f806155a86155a38560801c90565b613daa565b90505f6001600160801b03851615615637576156346001600160a01b038516630a28a4776001600160801b0388165b6040518263ffffffff1660e01b81526004016155f591815260200190565b602060405180830381865afa158015615610573d5f803e3d5ffd5b505050506040513d601f19601f820116820180604052508101906155a39190617534565b90505b60026156438284617ba6565b61564d9190617d9f565b95945050505050565b5f80821215613e08576040517fa8ce4432000000000000000000000000000000000000000000000000000000008152600481018390526024016108a1565b5f806156a86001600160801b038516613daa565b90505f806156b68660801c90565b111561563757615634846001600160a01b031663b3d7f6b96155d78860801c90565b6001600160a01b0384165f908152600860205260408120546156fb90849061780b565b6001600160a01b0385165f908152600860205260408120549192509061572290849061755f565b9050611397868684846168a0565b604080516001600160a01b038416602482015260448082018490528251808303909101815260649091019091526020810180517bffffffffffffffffffffffffffffffffffffffffffffffffffffffff167f095ea7b3000000000000000000000000000000000000000000000000000000001790526157af8482616a4e565b613ee1576040516001600160a01b0384811660248301525f60448301526157e391869182169063095ea7b390606401613c8e565b613ee1848261610a565b6001600160a01b0384165f9081526008602052604081205461581090849061755f565b6001600160a01b0385165f908152600860205260408120549192509061572290849061780b565b60608147101561587c576040517fcf479181000000000000000000000000000000000000000000000000000000008152476004820152602481018390526044016108a1565b5f80856001600160a01b031684866040516158979190617dcb565b5f6040518083038185875af1925050503d805f81146158d1576040519150601f19603f3d011682016040523d82523d5f602084013e6158d6565b606091505b509150915061218f868383616a93565b6060835167ffffffffffffffff81111561590257615902616efa565b60405190808252806020026020018201604052801561592b578160200160208202803683370190505b5090505f5b8451811015614737576159678385878481518110615950576159506175bb565b60200260200101516154a29092919063ffffffff16565b828281518110615979576159796175bb565b6020908102919091010152600101615930565b61599581616b03565b15155f03610f7c576040517fefe0265d00000000000000000000000000000000000000000000000000000000815260040160405180910390fd5b815181516159de90829061104f565b5f5b81811015613ee1578381815181106159fa576159fa6175bb565b6020026020010151838281518110615a1457615a146175bb565b60209081029190910101526001016159e0565b84515f90606090828167ffffffffffffffff811115615a4857615a48616efa565b604051908082528060200260200182016040528015615a71578160200160208202803683370190505b5090508167ffffffffffffffff811115615a8d57615a8d616efa565b604051908082528060200260200182016040528015615ab6578160200160208202803683370190505b5092505f5b82811015615b2657888181518110615ad557615ad56175bb565b60200260200101518a8281518110615aef57615aef6175bb565b6020026020010151615b01919061780b565b828281518110615b1357615b136175bb565b6020908102919091010152600101615abb565b50604051631309bd3d60e31b81525f906001600160a01b0387169063984de9e890615b57908d908590600401617d75565b602060405180830381865afa158015615b72573d5f803e3d5ffd5b505050506040513d601f19601f82011682018060405250810190615b969190617534565b90505f615c1182886001600160a01b031663984de9e88660016040518363ffffffff1660e01b8152600401615bcc929190617d75565b602060405180830381865afa158015615be7573d5f803e3d5ffd5b505050506040513d601f19601f82011682018060405250810190615c0b9190617534565b9061656d565b9050615c1d8782616b12565b5f5b84811015615d2e575f615c548d8381518110615c3d57615c3d6175bb565b60200260200101518461666c90919063ffffffff16565b905080858381518110615c6957615c696175bb565b60200260200101511115615d25575f81868481518110615c8b57615c8b6175bb565b6020026020010151039050615ca98b8261483a90919063ffffffff16565b888481518110615cbb57615cbb6175bb565b602002602001018181525050878381518110615cd957615cd96175bb565b6020026020010151868481518110615cf357615cf36175bb565b6020026020010151615d05919061755f565b868481518110615d1757615d176175bb565b602002602001018181525050505b50600101615c1f565b50604051631309bd3d60e31b81525f906001600160a01b0389169063984de9e890615d60908790600190600401617d75565b602060405180830381865afa158015615d7b573d5f803e3d5ffd5b505050506040513d601f19601f82011682018060405250810190615d9f9190617534565b905082615dac818361755f565b615db6908c617d13565b615dc09190617d3e565b965050505050509550959350505050565b5f606081615ddf868861780b565b90505f615dec82886164a3565b9050615df88582616b12565b60405162b5059f60e51b81525f906001600160a01b038716906316a0b3e090615e29908e908e908790600401617d51565b602060405180830381865afa158015615e44573d5f803e3d5ffd5b505050506040513d601f19601f82011682018060405250810190615e689190617534565b90505f8b8b81518110615e7d57615e7d6175bb565b602002602001015182615e90919061755f565b90505f898d8d81518110615ea657615ea66175bb565b602002602001015186615eb99190617d13565b615ec39190617d3e565b90505f615ed0828561755f565b90505f81615eec670de0b6b3a76400008d8103908e1002614d1a565b615ef6919061755f565b90508e5167ffffffffffffffff811115615f1257615f12616efa565b604051908082528060200260200182016040528015615f3b578160200160208202803683370190505b50975080888f81518110615f5157615f516175bb565b6020908102919091010152614acf818561780b565b615f6f81616bb9565b15155f03610f7c576040517f4876c0bc00000000000000000000000000000000000000000000000000000000815260040160405180910390fd5b6001600160a01b038216615ff4576040517fec442f050000000000000000000000000000000000000000000000000000000081526001600160a01b03831660048201526024016108a1565b6001600160a01b0383165f9081526011602052604081205461601790839061780b565b6001600160a01b038086165f908152600f60209081526040808320938816835292905220805484019055905061604c81616851565b6001600160a01b038481165f81815260116020908152604080832086905551868152938716939192917fd1398bee19313d6bf672ccb116e51f4a1a947e91c757907f51fbb5b5e56c698f910160405180910390a46040516323de665160e01b81525f60048201526001600160a01b038481166024830152604482018490528516906323de6651906064015b5f604051808303815f87803b1580156160ee575f80fd5b505af1158015616100573d5f803e3d5ffd5b5050505050505050565b5f8060205f8451602086015f885af180616129576040513d5f823e3d81fd5b50505f513d9150811561614057806001141561614d565b6001600160a01b0384163b155b15613ee1576040517f5274afe70000000000000000000000000000000000000000000000000000000081526001600160a01b03851660048201526024016108a1565b6001600160a01b0381165f9081526020819052604081205461115d81616847565b610f7c6161bf6001835c61755f565b82906131ab565b610f7c6161bf825c600161780b565b5f6104066112188260016175cf565b5f7f000000000000000000000000000000000000000000000000000000000000000063ffffffff164211158015610d505750610d50600754616bc8565b5f8061473783616bd7565b60605f8267ffffffffffffffff81111561624857616248616efa565b604051908082528060200260200182016040528015616271578160200160208202803683370190505b5090505f61627e85616c50565b64ffffffffff1690505f5b848110156162ee575f6162a96162a0600584617d13565b84901c601f1690565b90506162b681600a617ebe565b6162c890670de0b6b3a7640000617d13565b8483815181106162da576162da6175bb565b602090810291909101015250600101616289565b5090949350505050565b5f64174876e8006148306018806163108560016175cf565b61631b9060016175cf565b6163269060016175cf565b6163319060016175cf565b61633c9060016175cf565b6163479060016175cf565b6163529060016175cf565b61635d9060016175cf565b6163689060016175cf565b6163739060016175cf565b61637e9060016175cf565b6163899060016175cf565b6163949060016175cf565b61639f9060016175cf565b6163aa9060016175cf565b6163b59060016175cf565b6163c09060016175cf565b6163cb9060016175cf565b60ff166163d8919061780b565b6163e2919061780b565b84901c62ffffff1690565b5f6104066112028260016175cf565b5f8085608001518481518110616414576164146175bb565b6020026020010151905084811115616470575f6164338683038561483a565b905061646c8760c00151868151811061644e5761644e6175bb565b60200260200101518860a00151878151811061191e5761191e6175bb565b9250505b50949350505050565b5f61115d6001600160801b03841683615514565b5f61649c6111f78260016175cf565b1592915050565b5f61115d83670de0b6b3a7640000846154a2565b5f826001600160a01b031663b677fa566040518163ffffffff1660e01b8152600401602060405180830381865afa1580156164f4573d5f803e3d5ffd5b505050506040513d601f19601f820116820180604052508101906165189190617534565b905080821015610d4b576040517fe31c95be00000000000000000000000000000000000000000000000000000000815260048101839052602481018290526044016108a1565b5f6104066111e18260016175cf565b5f80616581670de0b6b3a764000085617d13565b90506120858382617d3e565b5f64174876e80061483060186165a48460016175cf565b6165af9060016175cf565b6165ba9060016175cf565b6165c59060016175cf565b6165d09060016175cf565b6165db9060016175cf565b6165e69060016175cf565b6165f19060016175cf565b6165fc9060016175cf565b6166079060016175cf565b6166129060016175cf565b61661d9060016175cf565b6166289060016175cf565b6166339060016175cf565b61663e9060016175cf565b6166499060016175cf565b6166549060016175cf565b61665f9060016175cf565b60ff166163e2919061780b565b5f806166788385617d13565b9050612085670de0b6b3a764000082617d3e565b5f61115d82612b508560801c90565b5f816001600160a01b0316836001600160a01b0316036166bd57505f1961115d565b506001600160a01b038084165f908152601060209081526040808320868516845282528083209385168352929052205461115d565b6001600160a01b03831661673d576040517fe602df050000000000000000000000000000000000000000000000000000000081526001600160a01b03841660048201526024016108a1565b6001600160a01b038216616788576040517f94280d620000000000000000000000000000000000000000000000000000000081526001600160a01b03831660048201526024016108a1565b6001600160a01b038481165f81815260106020908152604080832088861680855290835281842095881680855295835292819020869055518581529192917fa0175360a15bca328baf7ea85c7b784d58b222a50d0ce760b10dba336d226a61910160405180910390a46040517f5687f2b80000000000000000000000000000000000000000000000000000000081526001600160a01b038481166004830152838116602483015260448201839052851690635687f2b8906064016160d7565b5f60018216610406565b620f4240811015610f7c576040517fd38d20fc000000000000000000000000000000000000000000000000000000008152600481018290526024016108a1565b5f61115d83608084901b61780b565b6040516370a0823160e01b81523060048201525f906001600160a01b038616906370a0823190602401602060405180830381865afa1580156168e4573d5f803e3d5ffd5b505050506040513d601f19601f820116820180604052508101906169089190617534565b90508281101561695d576040517f1c6a53750000000000000000000000000000000000000000000000000000000081526001600160a01b038516600482015260248101849052604481018290526064016108a1565b6001600160a01b038581165f90815260086020526040808220849055516370a0823160e01b815230600482015290918616906370a0823190602401602060405180830381865afa1580156169b3573d5f803e3d5ffd5b505050506040513d601f19601f820116820180604052508101906169d79190617534565b905082811015616a2c576040517f1149424d0000000000000000000000000000000000000000000000000000000081526001600160a01b038616600482015260248101849052604481018290526064016108a1565b6001600160a01b039094165f9081526008602052604090209390935550505050565b5f805f8060205f8651602088015f8a5af192503d91505f51905082801561218f57508115616a7f578060011461218f565b50505050506001600160a01b03163b151590565b606082616aa35761542782616d4c565b8151158015616aba57506001600160a01b0384163b155b15616afc576040517f9996b3150000000000000000000000000000000000000000000000000000000081526001600160a01b03851660048201526024016108a1565b508061115d565b5f6104066111d68260016175cf565b5f826001600160a01b031663273c1adf6040518163ffffffff1660e01b8152600401602060405180830381865afa158015616b4f573d5f803e3d5ffd5b505050506040513d601f19601f82011682018060405250810190616b739190617534565b905080821115610d4b576040517f3e8960dc00000000000000000000000000000000000000000000000000000000815260048101839052602481018290526044016108a1565b5f6104066111ec8260016175cf565b5f61040661558b82600161780b565b6001600160a01b0381165f90815260208190526040812054819081616bfb82616d8e565b90505f616c0783616d9d565b9050818015616c455750616c3b7f000000000000000000000000000000000000000000000000000000000000000082617ec9565b63ffffffff164211155b969095509350505050565b5f61040660188080616c638560016175cf565b616c6e9060016175cf565b616c799060016175cf565b616c849060016175cf565b616c8f9060016175cf565b616c9a9060016175cf565b616ca59060016175cf565b616cb09060016175cf565b616cbb9060016175cf565b616cc69060016175cf565b616cd19060016175cf565b616cdc9060016175cf565b616ce79060016175cf565b616cf29060016175cf565b616cfd9060016175cf565b616d089060016175cf565b616d139060016175cf565b616d1e9060016175cf565b60ff16616d2b919061780b565b616d35919061780b565b616d3f919061780b565b83901c64ffffffffff1690565b805115616d5c5780518082602001fd5b6040517fd6bda27500000000000000000000000000000000000000000000000000000000815260040160405180910390fd5b5f61040661120d8260016175cf565b5f610406602860188080616db28660016175cf565b616dbd9060016175cf565b616dc89060016175cf565b616dd39060016175cf565b616dde9060016175cf565b616de99060016175cf565b616df49060016175cf565b616dff9060016175cf565b616e0a9060016175cf565b616e159060016175cf565b616e209060016175cf565b616e2b9060016175cf565b616e369060016175cf565b616e419060016175cf565b616e4c9060016175cf565b616e579060016175cf565b616e629060016175cf565b616e6d9060016175cf565b60ff16616e7a919061780b565b616e84919061780b565b616e8e919061780b565b616e98919061780b565b83901c63ffffffff1690565b610335617ee6565b6001600160a01b0381168114610f7c575f80fd5b8035616ecb81616eac565b919050565b5f8060408385031215616ee1575f80fd5b8235616eec81616eac565b946020939093013593505050565b634e487b7160e01b5f52604160045260245ffd5b60405160c0810167ffffffffffffffff81118282101715616f3157616f31616efa565b60405290565b60405160e0810167ffffffffffffffff81118282101715616f3157616f31616efa565b604051601f8201601f1916810167ffffffffffffffff81118282101715616f8357616f83616efa565b604052919050565b5f67ffffffffffffffff821115616fa457616fa4616efa565b5060051b60200190565b5f82601f830112616fbd575f80fd5b81356020616fd2616fcd83616f8b565b616f5a565b8083825260208201915060208460051b870101935086841115616ff3575f80fd5b602086015b8481101561700f5780358352918301918301616ff8565b509695505050505050565b803560048110616ecb575f80fd5b5f67ffffffffffffffff82111561704157617041616efa565b50601f01601f191660200190565b5f82601f83011261705e575f80fd5b813561706c616fcd82617028565b818152846020838601011115617080575f80fd5b816020850160208301375f918101602001919091529392505050565b5f602082840312156170ac575f80fd5b813567ffffffffffffffff808211156170c3575f80fd5b9083019060c082860312156170d6575f80fd5b6170de616f0e565b6170e783616ec0565b81526170f560208401616ec0565b602082015260408301356040820152606083013582811115617115575f80fd5b61712187828601616fae565b6060830152506171336080840161701a565b608082015260a083013582811115617149575f80fd5b6171558782860161704f565b60a08301525095945050505050565b5f815180845260208085019450602084015f5b8381101561719357815187529582019590820190600101617177565b509495945050505050565b5f5b838110156171b85781810151838201526020016171a0565b50505f910152565b5f81518084526171d781602086016020860161719e565b601f01601f19169290920160200192915050565b838152606060208201525f6172036060830185617164565b828103604084015261218f81856171c0565b60028110610f7c575f80fd5b8035616ecb81617215565b5f6020828403121561723c575f80fd5b813567ffffffffffffffff80821115617253575f80fd5b9083019060e08286031215617266575f80fd5b61726e616f37565b61727783617221565b815261728560208401616ec0565b602082015261729660408401616ec0565b60408201526172a760608401616ec0565b60608201526080830135608082015260a083013560a082015260c0830135828111156172d1575f80fd5b6172dd8782860161704f565b60c08301525095945050505050565b5f60a082840312156172fc575f80fd5b60405160a0810181811067ffffffffffffffff8211171561731f5761731f616efa565b604052823561732d81617215565b8152602083013561733d81617215565b6020820152604083013561735081616eac565b6040820152606083810135908201526080928301359281019290925250919050565b5f8060208385031215617383575f80fd5b823567ffffffffffffffff8082111561739a575f80fd5b818501915085601f8301126173ad575f80fd5b8135818111156173bb575f80fd5b8660208285010111156173cc575f80fd5b60209290920196919550909350505050565b602081525f61115d60208301846171c0565b803560058110616ecb575f80fd5b5f6020828403121561740e575f80fd5b813567ffffffffffffffff80821115617425575f80fd5b9083019060c08286031215617438575f80fd5b617440616f0e565b61744983616ec0565b815261745760208401616ec0565b602082015260408301358281111561746d575f80fd5b61747987828601616fae565b60408301525060608301356060820152617133608084016173f0565b606081525f6174a76060830186617164565b846020840152828103604084015261218f81856171c0565b5f805f606084860312156174d1575f80fd5b83356174dc81616eac565b925060208401356174ec81616eac565b929592945050506040919091013590565b5f806040838503121561750e575f80fd5b823561751981616eac565b9150602083013561752981616eac565b809150509250929050565b5f60208284031215617544575f80fd5b5051919050565b634e487b7160e01b5f52601160045260245ffd5b818103818111156104065761040661754b565b634e487b7160e01b5f52602160045260245ffd5b5f60208284031215617596575f80fd5b815161115d81616eac565b5f600160ff1b82036175b5576175b561754b565b505f0390565b634e487b7160e01b5f52603260045260245ffd5b60ff81811683821601908111156104065761040661754b565b600481106175f8576175f8617572565b9052565b6001600160a01b038881168252871660208201525f61761e60408301886175e8565b85606083015260e0608083015261763860e0830186617164565b82810360a084015261764a8186617164565b905082810360c084015261765e81856171c0565b9a9950505050505050505050565b80518015158114616ecb575f80fd5b5f6020828403121561768b575f80fd5b61115d8261766c565b6001600160a01b038616815284602082015260a060408201525f6176bb60a0830186617164565b82810360608401526176cd8186617164565b90508281036080840152611dab81856171c0565b5f82601f8301126176f0575f80fd5b81516020617700616fcd83616f8b565b8083825260208201915060208460051b870101935086841115617721575f80fd5b602086015b8481101561700f5780518352918301918301617726565b5f82601f83011261774c575f80fd5b815161775a616fcd82617028565b81815284602083860101111561776e575f80fd5b61208582602083016020870161719e565b5f805f8060808587031215617792575f80fd5b84519350602085015167ffffffffffffffff808211156177b0575f80fd5b6177bc888389016176e1565b945060408701519150808211156177d1575f80fd5b6177dd888389016176e1565b935060608701519150808211156177f2575f80fd5b506177ff8782880161773d565b91505092959194509250565b808201808211156104065761040661754b565b5f606082018583526020606060208501528186518084526080860191506020880193505f5b8181101561785f57845183529383019391830191600101617843565b50508481036040860152611dab8187617164565b6001600160a01b038981168252881660208201525f610100617898604084018a6175e8565b8760608401528060808401526178b081840188617164565b905082810360a08401526178c48187617164565b905082810360c08401526178d88186617164565b905082810360e08401526178ec81856171c0565b9b9a5050505050505050505050565b5f806040838503121561790c575f80fd5b6179158361766c565b9150602083015167ffffffffffffffff811115617930575f80fd5b61793c858286016176e1565b9150509250929050565b60028110610f7c57610f7c617572565b6175f881617946565b5f60e08301825161796f81617946565b84526020838101518186015260408085015160e0918701919091528051928390528101915f906101008701905b808310156179bc578451825293830193600192909201919083019061799c565b50606086015160608801526080860151608088015260a086015193506179ed60a08801856001600160a01b03169052565b60c0860151935086810360c0880152617a0681856171c0565b979650505050505050565b604081525f617a23604083018561795f565b90506001600160a01b03831660208301529392505050565b606081525f617a4d606083018661795f565b6001600160a01b039490941660208301525060400152919050565b5f8060408385031215617a79575f80fd5b617a828361766c565b9150602083015190509250929050565b602081525f61115d602083018461795f565b60208152617ab6602082018351617956565b5f6020830151617ad160408401826001600160a01b03169052565b5060408301516001600160a01b03811660608401525060608301516080830152608083015160a083015260a083015160c083015260c083015160e083015260e0830151610100818185015280850151915050610120818185015280850151915050610140617b49818501836001600160a01b03169052565b8401519050610160617b65848201836001600160a01b03169052565b8401516101808481015290506120856101a08401826171c0565b8082018281125f831280158216821582161715617b9e57617b9e61754b565b505092915050565b8181035f831280158383131683831282161715610b6957610b6961754b565b600581106175f8576175f8617572565b6001600160a01b038881168252871660208201525f617bf76040830188617bc5565b60e06060830152617c0b60e0830187617164565b85608084015282810360a084015261764a8186617164565b6001600160a01b038616815260a060208201525f617c4460a0830187617164565b85604084015282810360608401526176cd8186617164565b5f805f8060808587031215617c6f575f80fd5b845167ffffffffffffffff80821115617c86575f80fd5b617c92888389016176e1565b95506020870151945060408701519150808211156177d1575f80fd5b6001600160a01b038981168252881660208201525f610100617cd3604084018a617bc5565b806060840152617ce581840189617164565b90508281036080840152617cf98188617164565b90508560a084015282810360c08401526178d88186617164565b80820281158282048414176104065761040661754b565b634e487b7160e01b5f52601260045260245ffd5b5f82617d4c57617d4c617d2a565b500490565b606081525f617d636060830186617164565b60208301949094525060400152919050565b604081525f617d876040830185617164565b9050617d9283617946565b8260208301529392505050565b5f82617dad57617dad617d2a565b600160ff1b82145f1984141615617dc657617dc661754b565b500590565b5f8251617ddc81846020870161719e565b9190910192915050565b600181815b80851115610de357815f1904821115617e0657617e0661754b565b80851615617e1357918102915b93841c9390800290617deb565b5f82617e2e57506001610406565b81617e3a57505f610406565b8160018114617e505760028114617e5a57617e76565b6001915050610406565b60ff841115617e6b57617e6b61754b565b50506001821b610406565b5060208310610133831016604e8410600b8410161715617e99575081810a610406565b617ea38383617de6565b805f1904821115617eb657617eb661754b565b029392505050565b5f61115d8383617e20565b63ffffffff818116838216019080821115610b6957610b6961754b565b634e487b7160e01b5f52605160045260245ffdfea2646970667358221220859a19993765b1c16e60cb75fbffbd872ce21d4c60f782d6537c6a249a0e967764736f6c63430008180033","linkReferences":{}},"methodIdentifiers":{"addLiquidity((address,address,uint256[],uint256,uint8,bytes))":"4af29ec4","erc4626BufferWrapOrUnwrap((uint8,uint8,address,uint256,uint256))":"43583be5","getAuthorizer()":"aaabadc5","getPoolTokenCountAndIndexOfToken(address,address)":"c9c1661b","getVaultExtension()":"b9a8effa","reentrancyGuardEntered()":"d2c725e0","removeLiquidity((address,address,uint256,uint256[],uint8,bytes))":"21457897","sendTo(address,address,uint256)":"ae639329","settle(address,uint256)":"15afd409","swap((uint8,address,address,address,uint256,uint256,bytes))":"2bfb780c","unlock(bytes)":"48c89491"},"id":68}