{"abi":[{"type":"constructor","inputs":[{"name":"vault","type":"address","internalType":"contract IVault"},{"name":"pauseWindowDuration","type":"uint32","internalType":"uint32"},{"name":"factoryVersion","type":"string","internalType":"string"},{"name":"poolVersion","type":"string","internalType":"string"}],"stateMutability":"nonpayable"},{"type":"function","name":"create","inputs":[{"name":"name","type":"string","internalType":"string"},{"name":"symbol","type":"string","internalType":"string"},{"name":"tokens","type":"tuple[]","internalType":"struct TokenConfig[]","components":[{"name":"token","type":"address","internalType":"contract IERC20"},{"name":"tokenType","type":"uint8","internalType":"enum TokenType"},{"name":"rateProvider","type":"address","internalType":"contract IRateProvider"},{"name":"paysYieldFees","type":"bool","internalType":"bool"}]},{"name":"normalizedWeights","type":"uint256[]","internalType":"uint256[]"},{"name":"roleAccounts","type":"tuple","internalType":"struct PoolRoleAccounts","components":[{"name":"pauseManager","type":"address","internalType":"address"},{"name":"swapFeeManager","type":"address","internalType":"address"},{"name":"poolCreator","type":"address","internalType":"address"}]},{"name":"swapFeePercentage","type":"uint256","internalType":"uint256"},{"name":"poolHooksContract","type":"address","internalType":"address"},{"name":"enableDonation","type":"bool","internalType":"bool"},{"name":"disableUnbalancedLiquidity","type":"bool","internalType":"bool"},{"name":"salt","type":"bytes32","internalType":"bytes32"}],"outputs":[{"name":"pool","type":"address","internalType":"address"}],"stateMutability":"nonpayable"},{"type":"function","name":"disable","inputs":[],"outputs":[],"stateMutability":"nonpayable"},{"type":"function","name":"getActionId","inputs":[{"name":"selector","type":"bytes4","internalType":"bytes4"}],"outputs":[{"name":"","type":"bytes32","internalType":"bytes32"}],"stateMutability":"view"},{"type":"function","name":"getAuthorizer","inputs":[],"outputs":[{"name":"","type":"address","internalType":"contract IAuthorizer"}],"stateMutability":"view"},{"type":"function","name":"getDefaultLiquidityManagement","inputs":[],"outputs":[{"name":"liquidityManagement","type":"tuple","internalType":"struct LiquidityManagement","components":[{"name":"disableUnbalancedLiquidity","type":"bool","internalType":"bool"},{"name":"enableAddLiquidityCustom","type":"bool","internalType":"bool"},{"name":"enableRemoveLiquidityCustom","type":"bool","internalType":"bool"},{"name":"enableDonation","type":"bool","internalType":"bool"}]}],"stateMutability":"pure"},{"type":"function","name":"getDefaultPoolHooksContract","inputs":[],"outputs":[{"name":"","type":"address","internalType":"address"}],"stateMutability":"pure"},{"type":"function","name":"getDeploymentAddress","inputs":[{"name":"salt","type":"bytes32","internalType":"bytes32"}],"outputs":[{"name":"","type":"address","internalType":"address"}],"stateMutability":"view"},{"type":"function","name":"getNewPoolPauseWindowEndTime","inputs":[],"outputs":[{"name":"","type":"uint32","internalType":"uint32"}],"stateMutability":"view"},{"type":"function","name":"getOriginalPauseWindowEndTime","inputs":[],"outputs":[{"name":"","type":"uint32","internalType":"uint32"}],"stateMutability":"view"},{"type":"function","name":"getPauseWindowDuration","inputs":[],"outputs":[{"name":"","type":"uint32","internalType":"uint32"}],"stateMutability":"view"},{"type":"function","name":"getPoolVersion","inputs":[],"outputs":[{"name":"","type":"string","internalType":"string"}],"stateMutability":"view"},{"type":"function","name":"getVault","inputs":[],"outputs":[{"name":"","type":"address","internalType":"contract IVault"}],"stateMutability":"view"},{"type":"function","name":"isDisabled","inputs":[],"outputs":[{"name":"","type":"bool","internalType":"bool"}],"stateMutability":"view"},{"type":"function","name":"isPoolFromFactory","inputs":[{"name":"pool","type":"address","internalType":"address"}],"outputs":[{"name":"","type":"bool","internalType":"bool"}],"stateMutability":"view"},{"type":"function","name":"version","inputs":[],"outputs":[{"name":"","type":"string","internalType":"string"}],"stateMutability":"view"},{"type":"event","name":"FactoryDisabled","inputs":[],"anonymous":false},{"type":"event","name":"PoolCreated","inputs":[{"name":"pool","type":"address","indexed":true,"internalType":"address"}],"anonymous":false},{"type":"error","name":"Disabled","inputs":[]},{"type":"error","name":"PoolPauseWindowDurationOverflow","inputs":[]},{"type":"error","name":"SenderNotAllowed","inputs":[]},{"type":"error","name":"StandardPoolWithCreator","inputs":[]}],"bytecode":{"object":"0x61010060405234801562000011575f80fd5b5060405162005dee38038062005dee8339810160408190526200003491620001d6565b81848460405180602001620000499062000107565b601f1982820381018352601f90910116604052306080526001600160a01b03831660a052815f6200008163ffffffff83164262000277565b905063ffffffff811115620000a9576040516368755a1160e01b815260040160405180910390fd5b63ffffffff91821660c0521660e0526002620000c6828262000327565b50505050620000db81620000f560201b60201c565b506004620000ea828262000327565b5050505050620003f3565b600362000103828262000327565b5050565b61457a806200187483390190565b634e487b7160e01b5f52604160045260245ffd5b5f82601f83011262000139575f80fd5b81516001600160401b038082111562000156576200015662000115565b604051601f8301601f19908116603f0116810190828211818310171562000181576200018162000115565b81604052838152602092508660208588010111156200019e575f80fd5b5f91505b83821015620001c15785820183015181830184015290820190620001a2565b5f602085830101528094505050505092915050565b5f805f8060808587031215620001ea575f80fd5b84516001600160a01b038116811462000201575f80fd5b602086015190945063ffffffff811681146200021b575f80fd5b60408601519093506001600160401b038082111562000238575f80fd5b620002468883890162000129565b935060608701519150808211156200025c575f80fd5b506200026b8782880162000129565b91505092959194509250565b808201808211156200029757634e487b7160e01b5f52601160045260245ffd5b92915050565b600181811c90821680620002b257607f821691505b602082108103620002d157634e487b7160e01b5f52602260045260245ffd5b50919050565b601f8211156200032257805f5260205f20601f840160051c81016020851015620002fe5750805b601f840160051c820191505b818110156200031f575f81556001016200030a565b50505b505050565b81516001600160401b0381111562000343576200034362000115565b6200035b816200035484546200029d565b84620002d7565b602080601f83116001811462000391575f8415620003795750858301515b5f19600386901b1c1916600185901b178555620003eb565b5f85815260208120601f198616915b82811015620003c157888601518255948401946001909101908401620003a0565b5085821015620003df57878501515f19600388901b60f8161c191681555b505060018460011b0185555b505050505050565b60805160a05160c05160e05161142a6200044a5f395f81816102510152818161049001526104c301525f6101c301525f818161021b0152818161040a0152818161062001526107aa01525f61038e015261142a5ff3fe608060405234801561000f575f80fd5b50600436106100f0575f3560e01c806378da80cb11610093578063db035ebc11610063578063db035ebc14610247578063e9d56e191461024f578063ec88806114610275578063fed4cdda1461027b575f80fd5b806378da80cb146101c1578063851c1bb3146101f85780638d928af814610219578063aaabadc51461023f575f80fd5b80633f819b6f116100ce5780633f819b6f1461015e57806354fd4d50146101735780636634b7531461017b5780636c57f5a9146101b6575f80fd5b8063193ad50f146100f45780632f2770db14610129578063337d401014610133575b5f80fd5b604080516080810182525f80825260208201819052818301819052606082015290516101209190610bef565b60405180910390f35b61013161028e565b005b610146610141366004610c22565b6102d4565b6040516001600160a01b039091168152602001610120565b6101666102ec565b6040516101209190610c86565b61016661037c565b6101a6610189366004610cbc565b6001600160a01b03165f9081526020819052604090205460ff1690565b6040519015158152602001610120565b60015460ff166101a6565b7f00000000000000000000000000000000000000000000000000000000000000005b60405163ffffffff9091168152602001610120565b61020b610206366004610cd7565b61038b565b604051908152602001610120565b7f0000000000000000000000000000000000000000000000000000000000000000610146565b610146610407565b6101e361048d565b7f00000000000000000000000000000000000000000000000000000000000000006101e3565b5f610146565b610146610289366004610fc0565b6104e5565b610296610688565b61029e6106fa565b6001805460ff1916811790556040517f432acbfd662dbb5d8b378384a67159b47ca9d0f1b79f97cf64cf8585fa362d50905f90a1565b5f6102e66102e183610739565b61075c565b92915050565b6060600480546102fb906110be565b80601f0160208091040260200160405190810160405280929190818152602001828054610327906110be565b80156103725780601f1061034957610100808354040283529160200191610372565b820191905f5260205f20905b81548152906001019060200180831161035557829003601f168201915b5050505050905090565b6060600380546102fb906110be565b5f7f0000000000000000000000000000000000000000000000000000000000000000826040516020016103ea9291909182527fffffffff0000000000000000000000000000000000000000000000000000000016602082015260240190565b604051602081830303815290604052805190602001209050919050565b5f7f00000000000000000000000000000000000000000000000000000000000000006001600160a01b031663aaabadc56040518163ffffffff1660e01b8152600401602060405180830381865afa158015610464573d5f803e3d5ffd5b505050506040513d601f19601f8201168201806040525081019061048891906110f6565b905090565b5f7f000000000000000000000000000000000000000000000000000000000000000063ffffffff1642106104c057505f90565b507f000000000000000000000000000000000000000000000000000000000000000090565b60408601515f906001600160a01b03161561052c576040517f61ee176400000000000000000000000000000000000000000000000000000000815260040160405180910390fd5b604080516080810182525f808252602082018190529181018290526060810182905285151560608083019190915285151582526040805160a0810182528f8152602081018f90528d51918101919091529081018b9052600480549293506106689260808301919061059c906110be565b80601f01602080910402602001604051908101604052809291908181526020018280546105c8906110be565b80156106135780601f106105ea57610100808354040283529160200191610613565b820191905f5260205f20905b8154815290600101906020018083116105f657829003601f168201915b50505050508152506106427f000000000000000000000000000000000000000000000000000000000000000090565b604051602001610653929190611111565b60405160208183030381529060405284610767565b9150610679828b895f8c8b876107a8565b509a9950505050505050505050565b5f6106b55f357fffffffff000000000000000000000000000000000000000000000000000000001661038b565b90506106c1813361083f565b6106f7576040517f23dada5300000000000000000000000000000000000000000000000000000000815260040160405180910390fd5b50565b60015460ff1615610737576040517f75884cda00000000000000000000000000000000000000000000000000000000815260040160405180910390fd5b565b604080513360208201524691810191909152606081018290525f906080016103ea565b5f6102e682306108df565b5f61079d61077483610739565b6002856040516020016107889291906111ef565b6040516020818303038152906040525f610a27565b90506102e681610b9c565b7f00000000000000000000000000000000000000000000000000000000000000006001600160a01b031663eeec802f8888886107e261048d565b898989896040518963ffffffff1660e01b8152600401610809989796959493929190611298565b5f604051808303815f87803b158015610820575f80fd5b505af1158015610832573d5f803e3d5ffd5b5050505050505050505050565b5f610848610407565b6040517f9be2a884000000000000000000000000000000000000000000000000000000008152600481018590526001600160a01b0384811660248301523060448301529190911690639be2a88490606401602060405180830381865afa1580156108b4573d5f803e3d5ffd5b505050506040513d601f19601f820116820180604052508101906108d891906113be565b9392505050565b604080518082018252601081527f67363d3d37363d34f03d5260086018f30000000000000000000000000000000060209182015290517fff00000000000000000000000000000000000000000000000000000000000000918101919091526bffffffffffffffffffffffff19606083901b166021820152603581018390527f21c35dbe1b344a2488cf3321d6ce542f8e9f305544ff09e4993a62319a497c1f60558201525f9081906109a8906075015b6040516020818303038152906040528051906020012090565b6040517fd69400000000000000000000000000000000000000000000000000000000000060208201526bffffffffffffffffffffffff19606083901b1660228201527f01000000000000000000000000000000000000000000000000000000000000006036820152909150610a1f9060370161098f565b949350505050565b5f806040518060400160405280601081526020017f67363d3d37363d34f03d5260086018f30000000000000000000000000000000081525090505f858251602084015ff590506001600160a01b038116610ac85760405162461bcd60e51b815260206004820152601160248201527f4445504c4f594d454e545f4641494c454400000000000000000000000000000060448201526064015b60405180910390fd5b610ad18661075c565b92505f816001600160a01b03168587604051610aed91906113d9565b5f6040518083038185875af1925050503d805f8114610b27576040519150601f19603f3d011682016040523d82523d5f602084013e610b2c565b606091505b50509050808015610b4657506001600160a01b0384163b15155b610b925760405162461bcd60e51b815260206004820152601560248201527f494e495449414c495a4154494f4e5f4641494c454400000000000000000000006044820152606401610abf565b5050509392505050565b610ba46106fa565b6001600160a01b0381165f81815260208190526040808220805460ff19166001179055517f83a48fbcfc991335314e74d0496aab6a1987e992ddc85dddbcc4d6dd6ef2e9fc9190a250565b815115158152602080830151151590820152604080830151151590820152606080830151151590820152608081016102e6565b5f60208284031215610c32575f80fd5b5035919050565b5f5b83811015610c53578181015183820152602001610c3b565b50505f910152565b5f8151808452610c72816020860160208601610c39565b601f01601f19169290920160200192915050565b602081525f6108d86020830184610c5b565b6001600160a01b03811681146106f7575f80fd5b8035610cb781610c98565b919050565b5f60208284031215610ccc575f80fd5b81356108d881610c98565b5f60208284031215610ce7575f80fd5b81357fffffffff00000000000000000000000000000000000000000000000000000000811681146108d8575f80fd5b634e487b7160e01b5f52604160045260245ffd5b6040516080810167ffffffffffffffff81118282101715610d4d57610d4d610d16565b60405290565b604051601f8201601f1916810167ffffffffffffffff81118282101715610d7c57610d7c610d16565b604052919050565b5f82601f830112610d93575f80fd5b813567ffffffffffffffff811115610dad57610dad610d16565b610dc0601f8201601f1916602001610d53565b818152846020838601011115610dd4575f80fd5b816020850160208301375f918101602001919091529392505050565b5f67ffffffffffffffff821115610e0957610e09610d16565b5060051b60200190565b80151581146106f7575f80fd5b8035610cb781610e13565b5f82601f830112610e3a575f80fd5b81356020610e4f610e4a83610df0565b610d53565b82815260079290921b84018101918181019086841115610e6d575f80fd5b8286015b84811015610ee55760808189031215610e88575f80fd5b610e90610d2a565b8135610e9b81610c98565b81528185013560028110610ead575f80fd5b81860152604082810135610ec081610c98565b90820152606082810135610ed381610e13565b90820152835291830191608001610e71565b509695505050505050565b5f82601f830112610eff575f80fd5b81356020610f0f610e4a83610df0565b8083825260208201915060208460051b870101935086841115610f30575f80fd5b602086015b84811015610ee55780358352918301918301610f35565b5f60608284031215610f5c575f80fd5b6040516060810181811067ffffffffffffffff82111715610f7f57610f7f610d16565b6040529050808235610f9081610c98565b81526020830135610fa081610c98565b60208201526040830135610fb381610c98565b6040919091015292915050565b5f805f805f805f805f806101808b8d031215610fda575f80fd5b8a3567ffffffffffffffff80821115610ff1575f80fd5b610ffd8e838f01610d84565b9b5060208d0135915080821115611012575f80fd5b61101e8e838f01610d84565b9a5060408d0135915080821115611033575f80fd5b61103f8e838f01610e2b565b995060608d0135915080821115611054575f80fd5b506110618d828e01610ef0565b9750506110718c60808d01610f4c565b955060e08b013594506110876101008c01610cac565b93506110966101208c01610e20565b92506110a56101408c01610e20565b91506101608b013590509295989b9194979a5092959850565b600181811c908216806110d257607f821691505b6020821081036110f057634e487b7160e01b5f52602260045260245ffd5b50919050565b5f60208284031215611106575f80fd5b81516108d881610c98565b604081525f835160a0604084015261112c60e0840182610c5b565b9050602080860151603f198086850301606087015261114b8483610c5b565b604089015160808801526060890151878203830160a0890152805180835290850195505f9350908401905b808410156111965785518252948401946001939093019290840190611176565b5060808901519450818782030160c08801526111b28186610c5b565b95505050506111cb818501866001600160a01b03169052565b50509392505050565b5f81516111e5818560208601610c39565b9290920192915050565b5f8084545f60018260011c9150600183168061120c57607f831692505b6020808410820361122b57634e487b7160e01b5f52602260045260245ffd5b81801561123f57600181146112545761127f565b60ff198616895284151585028901965061127f565b5f8b8152602090205f5b868110156112775781548b82015290850190830161125e565b505084890196505b50505050505061128f81856111d4565b95945050505050565b6001600160a01b0389811682526101a060208084018290528a519184018290525f926101c08501928c83019290855b8181101561132557845184815116875283810151600281106112f757634e487b7160e01b5f52602160045260245ffd5b87850152604081810151861690880152606090810151151590870152608090950194938201936001016112c7565b50505050506040830189905263ffffffff881660608401529050851515608083015284516001600160a01b0390811660a08401526020860151811660c084015260408601511660e08301526001600160a01b038416610100830152825115156101208301526020830151151561014083015260408301511515610160830152606083015115156101808301529998505050505050505050565b5f602082840312156113ce575f80fd5b81516108d881610e13565b5f82516113ea818460208701610c39565b919091019291505056fea2646970667358221220fe97a053a2c8047c603f5360d49d6dc3def93571c94e0643e7af4d0b8fb74fa064736f6c634300081800336102c060405234801562000011575f80fd5b506040516200457a3803806200457a83398101604081905262000034916200054f565b81608001518182845f015185602001518282604051806040016040528060018152602001603160f81b815250620000755f83620002f160201b90919060201c565b6101205262000086816001620002f1565b61014052815160208084019190912060e052815190820120610100524660a0526200011360e05161010051604080517f8b73c3c69bb8fe3d512ecc4cf759cc79239f7b179b0ffacaa9a75d522b39400f60208201529081019290925260608201524660808201523060a08201525f9060c00160405160208183030381529060405280519060200120905090565b60805250503060c0526001600160a01b0316610160526003620001378382620006d8565b506004620001468282620006d8565b505050506001600160a01b031661018052620001628162000329565b5060408201516101a08190526060830151516200018091906200033b565b5f805b6101a0518160ff161015620002be575f84606001518260ff1681518110620001af57620001af620007a4565b60200260200101519050662386f26fc10000811015620001e25760405163bd39358360e01b815260040160405180910390fd5b620001ee8184620007cc565b92508160ff165f0362000207576101c0819052620002aa565b8160ff166001036200021f576101e0819052620002aa565b8160ff166002036200023757610200819052620002aa565b8160ff166003036200024f57610220819052620002aa565b8160ff166004036200026757610240819052620002aa565b8160ff166005036200027f57610260819052620002aa565b8160ff166006036200029757610280819052620002aa565b8160ff16600703620002aa576102a08190525b50620002b681620007e2565b905062000183565b50670de0b6b3a76400008114620002e857604051631ce788a760e11b815260040160405180910390fd5b5050506200085b565b5f602083511015620003105762000308836200035c565b905062000323565b816200031d8482620006d8565b5060ff90505b92915050565b6005620003378282620006d8565b5050565b808214620003375760405163aaad13f760e01b815260040160405180910390fd5b5f80829050601f8151111562000392578260405163305a27a960e01b815260040162000389919062000803565b60405180910390fd5b80516200039f8262000837565b179392505050565b634e487b7160e01b5f52604160045260245ffd5b60405160a081016001600160401b0381118282101715620003e057620003e0620003a7565b60405290565b604051601f8201601f191681016001600160401b0381118282101715620004115762000411620003a7565b604052919050565b5f5b83811015620004355781810151838201526020016200041b565b50505f910152565b5f82601f8301126200044d575f80fd5b81516001600160401b03811115620004695762000469620003a7565b6200047e601f8201601f1916602001620003e6565b81815284602083860101111562000493575f80fd5b620004a682602083016020870162000419565b949350505050565b5f82601f830112620004be575f80fd5b815160206001600160401b03821115620004dc57620004dc620003a7565b8160051b620004ed828201620003e6565b928352848101820192828101908785111562000507575f80fd5b83870192505b8483101562000528578251825291830191908301906200050d565b979650505050505050565b80516001600160a01b03811681146200054a575f80fd5b919050565b5f806040838503121562000561575f80fd5b82516001600160401b038082111562000578575f80fd5b9084019060a082870312156200058c575f80fd5b62000596620003bb565b825182811115620005a5575f80fd5b620005b3888286016200043d565b825250602083015182811115620005c8575f80fd5b620005d6888286016200043d565b60208301525060408301516040820152606083015182811115620005f8575f80fd5b6200060688828601620004ae565b6060830152506080830151828111156200061e575f80fd5b6200062c888286016200043d565b6080830152509350620006459150506020840162000533565b90509250929050565b600181811c908216806200066357607f821691505b6020821081036200068257634e487b7160e01b5f52602260045260245ffd5b50919050565b601f821115620006d357805f5260205f20601f840160051c81016020851015620006af5750805b601f840160051c820191505b81811015620006d0575f8155600101620006bb565b50505b505050565b81516001600160401b03811115620006f457620006f4620003a7565b6200070c816200070584546200064e565b8462000688565b602080601f83116001811462000742575f84156200072a5750858301515b5f19600386901b1c1916600185901b1785556200079c565b5f85815260208120601f198616915b82811015620007725788860151825594840194600190910190840162000751565b50858210156200079057878501515f19600388901b60f8161c191681555b505060018460011b0185555b505050505050565b634e487b7160e01b5f52603260045260245ffd5b634e487b7160e01b5f52601160045260245ffd5b80820180821115620003235762000323620007b8565b5f60ff821660ff8103620007fa57620007fa620007b8565b60010192915050565b602081525f82518060208401526200082381604085016020870162000419565b601f01601f19169190910160400192915050565b8051602080830151919081101562000682575f1960209190910360031b1b16919050565b60805160a05160c05160e05161010051610120516101405161016051610180516101a0516101c0516101e05161020051610220516102405161026051610280516102a051613ba9620009d15f395f81816116ba0152611b5001525f818161168b0152611b0701525f818161165c0152611abe01525f818161162d0152611a7501525f81816115fe0152611a2c01525f81816115cf01526119e301525f81816115a0015261199a01525f8181611571015261195b01525f6118f401525f8181610c4201528181610e0001528181610eb201528181610f43015261127001525f81816104460152818161061d015281816106fb015281816107c1015281816108d40152818161095e01528181610ab601528181610db70152818161100c0152818161109601528181611124015281816111be0152818161142b015281816114ea015261176c01525f611d0b01525f611cdf01525f6118a001525f61187801525f6117d301525f6117fd01525f6118270152613ba95ff3fe608060405234801561000f575f80fd5b506004361061024f575f3560e01c80637ecebe001161013d578063abb1dc44116100b8578063ce20ece711610088578063d505accf1161006e578063d505accf14610531578063dd62ed3e14610544578063f89f27ed14610557575f80fd5b8063ce20ece71461051d578063d335b0cf14610529575f80fd5b8063abb1dc44146104cd578063b156aa0a146104e5578063b677fa56146104fa578063c0bc6f3314610508575f80fd5b806395d89b411161010d578063984de9e8116100f3578063984de9e814610492578063a9059cbb146104a5578063aa6ca808146104b8575f80fd5b806395d89b4114610470578063979ac70214610478575f80fd5b80637ecebe00146103ee57806381fa807c1461040157806384b0196e1461041e5780638d928af814610439575f80fd5b8063313ce567116101cd5780635687f2b81161019d578063679aefce11610183578063679aefce146103c057806370a08231146103c857806372c98186146103db575f80fd5b80635687f2b81461039f578063654cf15d146103b2575f80fd5b8063313ce5671461036b5780633644e5151461037a57806353b79bd71461038257806354fd4d5014610397575f80fd5b806318160ddd1161022257806323de66511161020857806323de665114610321578063273c1adf1461033657806330adf81f14610344575f80fd5b806318160ddd1461030657806323b872dd1461030e575f80fd5b806301ffc9a71461025357806306fdde03146102bd578063095ea7b3146102d257806316a0b3e0146102e5575b5f80fd5b6102a8610261366004612e78565b7fffffffff00000000000000000000000000000000000000000000000000000000167f01ffc9a7000000000000000000000000000000000000000000000000000000001490565b60405190151581526020015b60405180910390f35b6102c561055f565b6040516102b49190612efa565b6102a86102e0366004612f2b565b6105ef565b6102f86102f3366004613099565b610696565b6040519081526020016102b4565b6102f86106cb565b6102a861031c3660046130e3565b610772565b61033461032f3660046130e3565b610838565b005b6729a2241af62c00006102f8565b6102f87f6e71edae12b1b97f4d1f60370fef10105fa2faae0126114a169c64845d6126c981565b604051601281526020016102b4565b6102f8610892565b61038a61089b565b6040516102b49190613193565b6102c56109e7565b6103346103ad3660046130e3565b6109f6565b67016345785d8a00006102f8565b6102f8610a43565b6102f86103d63660046131f3565b610a76565b6102f86103e9366004613291565b610b21565b6102f86103fc3660046131f3565b610c02565b610409610c1f565b604080519283526020830191909152016102b4565b610426610cc1565b6040516102b4979695949392919061335c565b6040516001600160a01b037f00000000000000000000000000000000000000000000000000000000000000001681526020016102b4565b6102c5610d1f565b610334335f90815260026020526040902080546001019055565b6102f86104a03660046133d7565b610d31565b6102a86104b3366004612f2b565b610d70565b6104c0610de8565b6040516102b49190613426565b6104d5610e73565b6040516102b4949392919061344c565b6104ed610f2b565b6040516102b49190613506565b6709b6e64a8ec600006102f8565b610510610fb6565b6040516102b49190613518565b6509184e72a0006102f8565b6102f8611259565b61033461053f366004613596565b6112a7565b6102f8610552366004613607565b6114a2565b6104ed61155c565b60606003805461056e90613633565b80601f016020809104026020016040519081016040528092919081815260200182805461059a90613633565b80156105e55780601f106105bc576101008083540402835291602001916105e5565b820191905f5260205f20905b8154815290600101906020018083116105c857829003601f168201915b5050505050905090565b60405163e1f21c6760e01b81523360048201526001600160a01b038381166024830152604482018390525f917f00000000000000000000000000000000000000000000000000000000000000009091169063e1f21c67906064015b6020604051808303815f875af1158015610666573d5f803e3d5ffd5b505050506040513d601f19601f8201168201806040525081019061068a919061367a565b50600190505b92915050565b5f6106c38484815181106106ac576106ac613693565b60200260200101516106bd85611566565b84611710565b949350505050565b6040517fe4dc2aa40000000000000000000000000000000000000000000000000000000081523060048201525f907f00000000000000000000000000000000000000000000000000000000000000006001600160a01b03169063e4dc2aa4906024015b602060405180830381865afa158015610749573d5f803e3d5ffd5b505050506040513d601f19601f8201168201806040525081019061076d91906136a7565b905090565b6040517f15dacbea0000000000000000000000000000000000000000000000000000000081523360048201526001600160a01b0384811660248301528381166044830152606482018390525f917f0000000000000000000000000000000000000000000000000000000000000000909116906315dacbea906084016020604051808303815f875af1158015610809573d5f803e3d5ffd5b505050506040513d601f19601f8201168201806040525081019061082d919061367a565b506001949350505050565b610840611761565b816001600160a01b0316836001600160a01b03167fddf252ad1be2c89b69c2b068fc378daa952ba7f163c4a11628f55a4df523b3ef8360405161088591815260200190565b60405180910390a3505050565b5f61076d6117c7565b6108bf60405180606001604052806060815260200160608152602001606081525090565b60405163ca4f280360e01b81523060048201527f00000000000000000000000000000000000000000000000000000000000000006001600160a01b03169063ca4f2803906024015f60405180830381865afa158015610920573d5f803e3d5ffd5b505050506040513d5f823e601f3d908101601f191682016040526109479190810190613723565b8152604051633f1b0def60e11b81523060048201527f00000000000000000000000000000000000000000000000000000000000000006001600160a01b031690637e361bde906024015f60405180830381865afa1580156109aa573d5f803e3d5ffd5b505050506040513d5f823e601f3d908101601f191682016040526109d191908101906137b1565b5060208201526109df6118f0565b604082015290565b60606005805461056e90613633565b6109fe611761565b816001600160a01b0316836001600160a01b03167f8c5be1e5ebec7d5bd14f71427d1e84f3dd0314c0f7b2291e5b200ac8c7c3b9258360405161088591815260200190565b5f6040517f18e79a2000000000000000000000000000000000000000000000000000000000815260040160405180910390fd5b6040517ff7888aec0000000000000000000000000000000000000000000000000000000081523060048201526001600160a01b0382811660248301525f917f00000000000000000000000000000000000000000000000000000000000000009091169063f7888aec90604401602060405180830381865afa158015610afd573d5f803e3d5ffd5b505050506040513d601f19601f8201168201806040525081019061069091906136a7565b5f610b2a611761565b5f8260400151836060015181518110610b4557610b45613693565b602002602001015190505f8360400151846080015181518110610b6a57610b6a613693565b602002602001015190505f6001811115610b8657610b86613438565b84516001811115610b9957610b99613438565b03610bd3575f610bc883610bb08760600151611566565b84610bbe8960800151611566565b8960200151611b94565b9350610bfd92505050565b5f610bc883610be58760600151611566565b84610bf38960800151611566565b8960200151611c3c565b919050565b6001600160a01b0381165f90815260026020526040812054610690565b60405163f29486a160e01b81523060048201525f90819081906001600160a01b037f0000000000000000000000000000000000000000000000000000000000000000169063f29486a1906024016101a060405180830381865afa158015610c88573d5f803e3d5ffd5b505050506040513d601f19601f82011682018060405250810190610cac91906138b6565b90508060400151925080606001519150509091565b5f6060805f805f6060610cd2611cd8565b610cda611d04565b604080515f808252602082019092527f0f000000000000000000000000000000000000000000000000000000000000009b939a50919850469750309650945092509050565b60606004805461056e90613633565b50565b5f612e7081836001811115610d4857610d48613438565b14610d5557611d31610d59565b611dd85b90506106c3610d666118f0565b858363ffffffff16565b6040517fbeabacc80000000000000000000000000000000000000000000000000000000081523360048201526001600160a01b038381166024830152604482018390525f917f00000000000000000000000000000000000000000000000000000000000000009091169063beabacc89060640161064a565b60405163ca4f280360e01b81523060048201526060907f00000000000000000000000000000000000000000000000000000000000000006001600160a01b03169063ca4f2803906024015f60405180830381865afa158015610e4c573d5f803e3d5ffd5b505050506040513d5f823e601f3d908101601f1916820160405261076d9190810190613723565b6040517f67e0e0760000000000000000000000000000000000000000000000000000000081523060048201526060908190819081906001600160a01b037f000000000000000000000000000000000000000000000000000000000000000016906367e0e076906024015f60405180830381865afa158015610ef6573d5f803e3d5ffd5b505050506040513d5f823e601f3d908101601f19168201604052610f1d919081019061396c565b935093509350935090919293565b6040516329ae7ec560e11b81523060048201526060907f00000000000000000000000000000000000000000000000000000000000000006001600160a01b03169063535cfd8a906024015f60405180830381865afa158015610f8f573d5f803e3d5ffd5b505050506040513d5f823e601f3d908101601f1916820160405261076d9190810190613aa9565b610ff76040518060e0016040528060608152602001606081526020015f81526020015f81526020015f151581526020015f151581526020015f151581525090565b6040516329ae7ec560e11b81523060048201527f00000000000000000000000000000000000000000000000000000000000000006001600160a01b03169063535cfd8a906024015f60405180830381865afa158015611058573d5f803e3d5ffd5b505050506040513d5f823e601f3d908101601f1916820160405261107f9190810190613aa9565b8152604051633f1b0def60e11b81523060048201527f00000000000000000000000000000000000000000000000000000000000000006001600160a01b031690637e361bde906024015f60405180830381865afa1580156110e2573d5f803e3d5ffd5b505050506040513d5f823e601f3d908101601f1916820160405261110991908101906137b1565b60208301525060405163b45090f960e01b81523060048201527f00000000000000000000000000000000000000000000000000000000000000006001600160a01b03169063b45090f990602401602060405180830381865afa158015611171573d5f803e3d5ffd5b505050506040513d601f19601f8201168201806040525081019061119591906136a7565b60408201526111a26106cb565b606082015260405163f29486a160e01b81523060048201525f907f00000000000000000000000000000000000000000000000000000000000000006001600160a01b03169063f29486a1906024016101a060405180830381865afa15801561120c573d5f803e3d5ffd5b505050506040513d601f19601f8201168201806040525081019061123091906138b6565b60e081015115156080840152610100810151151560a08401526101200151151560c08301525090565b60405163b45090f960e01b81523060048201525f907f00000000000000000000000000000000000000000000000000000000000000006001600160a01b03169063b45090f99060240161072e565b834211156112e9576040517f62791302000000000000000000000000000000000000000000000000000000008152600481018590526024015b60405180910390fd5b5f7f6e71edae12b1b97f4d1f60370fef10105fa2faae0126114a169c64845d6126c98888886113348c6001600160a01b03165f90815260026020526040902080546001810190915590565b6040805160208101969096526001600160a01b0394851690860152929091166060840152608083015260a082015260c0810186905260e0016040516020818303038152906040528051906020012090505f61138e82611e45565b90505f61139d82878787611e8c565b9050896001600160a01b0316816001600160a01b0316146113fd576040517f4b800e460000000000000000000000000000000000000000000000000000000081526001600160a01b0380831660048301528b1660248201526044016112e0565b60405163e1f21c6760e01b81526001600160a01b038b811660048301528a81166024830152604482018a90527f0000000000000000000000000000000000000000000000000000000000000000169063e1f21c67906064016020604051808303815f875af1158015611471573d5f803e3d5ffd5b505050506040513d601f19601f82011682018060405250810190611495919061367a565b5050505050505050505050565b6040517f927da1050000000000000000000000000000000000000000000000000000000081523060048201526001600160a01b03838116602483015282811660448301525f917f00000000000000000000000000000000000000000000000000000000000000009091169063927da10590606401602060405180830381865afa158015611531573d5f803e3d5ffd5b505050506040513d601f19601f8201168201806040525081019061155591906136a7565b9392505050565b606061076d6118f0565b5f815f0361159557507f0000000000000000000000000000000000000000000000000000000000000000919050565b816001036115c457507f0000000000000000000000000000000000000000000000000000000000000000919050565b816002036115f357507f0000000000000000000000000000000000000000000000000000000000000000919050565b8160030361162257507f0000000000000000000000000000000000000000000000000000000000000000919050565b8160040361165157507f0000000000000000000000000000000000000000000000000000000000000000919050565b8160050361168057507f0000000000000000000000000000000000000000000000000000000000000000919050565b816006036116af57507f0000000000000000000000000000000000000000000000000000000000000000919050565b816007036116de57507f0000000000000000000000000000000000000000000000000000000000000000919050565b6040517fc1ab6dc100000000000000000000000000000000000000000000000000000000815260040160405180910390fd5b5f612e706001831161172457611eb8611728565b611ed85b90505f61174b611744670de0b6b3a7640000878563ffffffff16565b8590611eec565b90506117578682611f9f565b9695505050505050565b336001600160a01b037f000000000000000000000000000000000000000000000000000000000000000016146117c5576040517f089676d50000000000000000000000000000000000000000000000000000000081523360048201526024016112e0565b565b5f306001600160a01b037f00000000000000000000000000000000000000000000000000000000000000001614801561181f57507f000000000000000000000000000000000000000000000000000000000000000046145b1561184957507f000000000000000000000000000000000000000000000000000000000000000090565b61076d604080517f8b73c3c69bb8fe3d512ecc4cf759cc79239f7b179b0ffacaa9a75d522b39400f60208201527f0000000000000000000000000000000000000000000000000000000000000000918101919091527f000000000000000000000000000000000000000000000000000000000000000060608201524660808201523060a08201525f9060c00160405160208183030381529060405280519060200120905090565b60607f00000000000000000000000000000000000000000000000000000000000000005f8167ffffffffffffffff81111561192d5761192d612f55565b604051908082528060200260200182016040528015611956578160200160208202803683370190505b5090507f0000000000000000000000000000000000000000000000000000000000000000815f8151811061198c5761198c613693565b6020026020010181815250507f0000000000000000000000000000000000000000000000000000000000000000816001815181106119cc576119cc613693565b6020026020010181815250506002821115610690577f000000000000000000000000000000000000000000000000000000000000000081600281518110611a1557611a15613693565b6020026020010181815250506003821115610690577f000000000000000000000000000000000000000000000000000000000000000081600381518110611a5e57611a5e613693565b6020026020010181815250506004821115610690577f000000000000000000000000000000000000000000000000000000000000000081600481518110611aa757611aa7613693565b6020026020010181815250506005821115610690577f000000000000000000000000000000000000000000000000000000000000000081600581518110611af057611af0613693565b6020026020010181815250506006821115610690577f000000000000000000000000000000000000000000000000000000000000000081600681518110611b3957611b39613693565b6020026020010181815250506007821115610690577f000000000000000000000000000000000000000000000000000000000000000081600781518110611b8257611b82613693565b60200260200101818152505092915050565b5f611ba786670429d069189e0000611fcb565b821115611be0576040517f340a453300000000000000000000000000000000000000000000000000000000815260040160405180910390fd5b5f611beb8388613aef565b90505f611bf88883611ed8565b90505f611c058887611eb8565b90505f611c128383611eec565b9050611c2e670de0b6b3a7640000828103908310028990611fcb565b9a9950505050505050505050565b5f611c4f84670429d069189e0000611fcb565b821115611c88576040517f64590b9f00000000000000000000000000000000000000000000000000000000815260040160405180910390fd5b5f611c9d611c968487613b02565b8690611ed8565b90505f611caa8588611ed8565b90505f611cb78383611eec565b90505f611ccc670de0b6b3a764000083613b02565b9050611c2e8a82611f9f565b606061076d7f00000000000000000000000000000000000000000000000000000000000000005f611feb565b606061076d7f00000000000000000000000000000000000000000000000000000000000000006001611feb565b670de0b6b3a76400005f5b8351811015611d9e57611d94611d8d858381518110611d5d57611d5d613693565b6020026020010151858481518110611d7757611d77613693565b602002602001015161208d90919063ffffffff16565b8390611fcb565b9150600101611d3c565b50805f03610690576040517f2654368900000000000000000000000000000000000000000000000000000000815260040160405180910390fd5b670de0b6b3a76400005f5b8351811015611d9e57611e3b611e34858381518110611e0457611e04613693565b6020026020010151858481518110611e1e57611e1e613693565b6020026020010151611eec90919063ffffffff16565b8390611f9f565b9150600101611de3565b5f610690611e516117c7565b836040517f19010000000000000000000000000000000000000000000000000000000000008152600281019290925260228201526042902090565b5f805f80611e9c88888888612139565b925092509250611eac8282612201565b50909695505050505050565b5f80611ecc670de0b6b3a764000085613b15565b90506106c38382613b40565b5f61155583670de0b6b3a764000084612308565b5f670de0b6b3a76400008203611f03575081610690565b611f16670de0b6b3a76400006002613b15565b8203611f2d57611f268384611f9f565b9050610690565b611f40670de0b6b3a76400006004613b15565b8203611f65575f611f518485611f9f565b9050611f5d8182611f9f565b915050610690565b5f611f708484612366565b90505f611f7f82612710611f9f565b611f8a906001613aef565b9050611f968183613aef565b92505050610690565b5f80611fab8385613b15565b90506001670de0b6b3a76400006001830304018115150291505092915050565b5f80611fd78385613b15565b90506106c3670de0b6b3a764000082613b40565b606060ff8314611ffe57611f2683612504565b81805461200a90613633565b80601f016020809104026020016040519081016040528092919081815260200182805461203690613633565b80156120815780601f1061205857610100808354040283529160200191612081565b820191905f5260205f20905b81548152906001019060200180831161206457829003601f168201915b50505050509050610690565b5f670de0b6b3a764000082036120a4575081610690565b6120b7670de0b6b3a76400006002613b15565b82036120c757611f268384611fcb565b6120da670de0b6b3a76400006004613b15565b82036120f7575f6120eb8485611fcb565b9050611f5d8182611fcb565b5f6121028484612366565b90505f61211182612710611f9f565b61211c906001613aef565b905080821015612130575f92505050610690565b90039050610690565b5f80807f7fffffffffffffffffffffffffffffff5d576e7357a4501ddfe92f46681b20a084111561217257505f915060039050826121f7565b604080515f808252602082018084528a905260ff891692820192909252606081018790526080810186905260019060a0016020604051602081039080840390855afa1580156121c3573d5f803e3d5ffd5b5050604051601f1901519150506001600160a01b0381166121ee57505f9250600191508290506121f7565b92505f91508190505b9450945094915050565b5f82600381111561221457612214613438565b0361221d575050565b600182600381111561223157612231613438565b03612268576040517ff645eedf00000000000000000000000000000000000000000000000000000000815260040160405180910390fd5b600282600381111561227c5761227c613438565b036122b6576040517ffce698f7000000000000000000000000000000000000000000000000000000008152600481018290526024016112e0565b60038260038111156122ca576122ca613438565b03612304576040517fd78bce0c000000000000000000000000000000000000000000000000000000008152600481018290526024016112e0565b5050565b5f815f03612342576040517f0a0c22c700000000000000000000000000000000000000000000000000000000815260040160405180910390fd5b5f61234d8486613b15565b9050600183600183030401811515029150509392505050565b5f815f0361237d5750670de0b6b3a7640000610690565b825f0361238b57505f610690565b60ff83901c156123c7576040517f022701e000000000000000000000000000000000000000000000000000000000815260040160405180910390fd5b826123fb68056bc75e2d631000007f4000000000000000000000000000000000000000000000000000000000000000613b40565b8310612433576040517fd831731100000000000000000000000000000000000000000000000000000000815260040160405180910390fd5b825f670c7d713b49da0000831380156124535750670f43fc2c04ee000083125b15612489575f61246284612541565b9050670de0b6b3a764000080820784020583670de0b6b3a764000083050201915050612497565b8161249384612667565b0290505b670de0b6b3a76400009005680238fd42c5cf03ffff1981128015906124c5575068070c1cc73b00c800008113155b6124fb576040517fa2f9f7e300000000000000000000000000000000000000000000000000000000815260040160405180910390fd5b61175781612a19565b60605f61251083612e30565b6040805160208082528183019092529192505f91906020820181803683375050509182525060208101929092525090565b670de0b6b3a7640000025f806ec097ce7bc90715b34b9f1000000000808401906ec097ce7bc90715b34b9f0fffffffff198501028161258257612582613b2c565b0590505f6ec097ce7bc90715b34b9f100000000082800205905081806ec097ce7bc90715b34b9f100000000081840205915060038205016ec097ce7bc90715b34b9f100000000082840205915060058205016ec097ce7bc90715b34b9f100000000082840205915060078205016ec097ce7bc90715b34b9f100000000082840205915060098205016ec097ce7bc90715b34b9f1000000000828402059150600b8205016ec097ce7bc90715b34b9f1000000000828402059150600d8205016ec097ce7bc90715b34b9f1000000000828402059150600f82050160020295945050505050565b5f80670de0b6b3a764000083121561269f57826ec097ce7bc90715b34b9f10000000008161269757612697613b2c565b059250600190505b5f7e1600ef3172e58d2e933ec884fde10064c63b5372d805e203c000000000000084126126ef57770195e54c5dd42177f53a27172fa9ec630262827000000000840593506806f05b59d3b2000000015b73011798004d755d3c8bc8e03204cf44619e0000008412612727576b1425982cf597cd205cef7380840593506803782dace9d9000000015b606493840293026e01855144814a7ff805980ff0084000841261276f576e01855144814a7ff805980ff008400068056bc75e2d63100000850205935068ad78ebc5ac62000000015b6b02df0ab5a80a22c61ab5a70084126127aa576b02df0ab5a80a22c61ab5a70068056bc75e2d6310000085020593506856bc75e2d631000000015b693f1fce3da636ea5cf85084126127e157693f1fce3da636ea5cf85068056bc75e2d631000008502059350682b5e3af16b18800000015b690127fa27722cc06cc5e2841261281857690127fa27722cc06cc5e268056bc75e2d6310000085020593506815af1d78b58c400000015b68280e60114edb805d03841261284d5768280e60114edb805d0368056bc75e2d631000008502059350680ad78ebc5ac6200000015b680ebc5fb41746121110841261287857680ebc5fb4174612111068056bc75e2d631000009485020593015b6808f00f760a4b2db55d84126128ad576808f00f760a4b2db55d68056bc75e2d6310000085020593506802b5e3af16b1880000015b6806f5f177578893793784126128e2576806f5f177578893793768056bc75e2d63100000850205935068015af1d78b58c40000015b6806248f33704b2866038412612916576806248f33704b28660368056bc75e2d63100000850205935067ad78ebc5ac620000015b6805c548670b9510e7ac841261294a576805c548670b9510e7ac68056bc75e2d6310000085020593506756bc75e2d6310000015b5f68056bc75e2d63100000850168056bc75e2d63100000808703028161297257612972613b2c565b0590505f68056bc75e2d63100000828002059050818068056bc75e2d63100000818402059150600382050168056bc75e2d63100000828402059150600582050168056bc75e2d63100000828402059150600782050168056bc75e2d63100000828402059150600982050168056bc75e2d63100000828402059150600b8205016002025f606486830105905086612a085780612a0c565b805f035b9998505050505050505050565b5f680238fd42c5cf03ffff198212158015612a3d575068070c1cc73b00c800008213155b612a73576040517fd4794efd00000000000000000000000000000000000000000000000000000000815260040160405180910390fd5b5f80831215612a8657825f039250600190505b5f6806f05b59d3b20000008412612ac557506806f05b59d3b1ffffff1990920191770195e54c5dd42177f53a27172fa9ec630262827000000000612afb565b6803782dace9d90000008412612af757506803782dace9d8ffffff19909201916b1425982cf597cd205cef7380612afb565b5060015b6064939093029268056bc75e2d6310000068ad78ebc5ac620000008512612b4b5768ad78ebc5ac61ffffff199094019368056bc75e2d631000006e01855144814a7ff805980ff008400082020590505b6856bc75e2d6310000008512612b87576856bc75e2d630ffffff199094019368056bc75e2d631000006b02df0ab5a80a22c61ab5a70082020590505b682b5e3af16b188000008512612bc157682b5e3af16b187fffff199094019368056bc75e2d63100000693f1fce3da636ea5cf85082020590505b6815af1d78b58c4000008512612bfb576815af1d78b58c3fffff199094019368056bc75e2d63100000690127fa27722cc06cc5e282020590505b680ad78ebc5ac62000008512612c3457680ad78ebc5ac61fffff199094019368056bc75e2d6310000068280e60114edb805d0382020590505b68056bc75e2d631000008512612c6d5768056bc75e2d630fffff199094019368056bc75e2d63100000680ebc5fb4174612111082020590505b6802b5e3af16b18800008512612ca6576802b5e3af16b187ffff199094019368056bc75e2d631000006808f00f760a4b2db55d82020590505b68015af1d78b58c400008512612cdf5768015af1d78b58c3ffff199094019368056bc75e2d631000006806f5f177578893793782020590505b68056bc75e2d631000008581019086906002908280020505918201919050600368056bc75e2d631000008883020505918201919050600468056bc75e2d631000008883020505918201919050600568056bc75e2d631000008883020505918201919050600668056bc75e2d631000008883020505918201919050600768056bc75e2d631000008883020505918201919050600868056bc75e2d631000008883020505918201919050600968056bc75e2d631000008883020505918201919050600a68056bc75e2d631000008883020505918201919050600b68056bc75e2d631000008883020505918201919050600c68056bc75e2d6310000088830205059182019190505f606468056bc75e2d6310000085850205860205905085612e045780612e24565b806ec097ce7bc90715b34b9f100000000081612e2257612e22613b2c565b055b98975050505050505050565b5f60ff8216601f811115610690576040517fb3512b0c00000000000000000000000000000000000000000000000000000000815260040160405180910390fd5b6117c5613b5f565b5f60208284031215612e88575f80fd5b81357fffffffff0000000000000000000000000000000000000000000000000000000081168114611555575f80fd5b5f81518084525f5b81811015612edb57602081850181015186830182015201612ebf565b505f602082860101526020601f19601f83011685010191505092915050565b602081525f6115556020830184612eb7565b6001600160a01b0381168114610d2e575f80fd5b8035610bfd81612f0c565b5f8060408385031215612f3c575f80fd5b8235612f4781612f0c565b946020939093013593505050565b634e487b7160e01b5f52604160045260245ffd5b60405160e0810167ffffffffffffffff81118282101715612f8c57612f8c612f55565b60405290565b604051610140810167ffffffffffffffff81118282101715612f8c57612f8c612f55565b6040516060810167ffffffffffffffff81118282101715612f8c57612f8c612f55565b604051601f8201601f1916810167ffffffffffffffff8111828210171561300257613002612f55565b604052919050565b5f67ffffffffffffffff82111561302357613023612f55565b5060051b60200190565b5f82601f83011261303c575f80fd5b8135602061305161304c8361300a565b612fd9565b8083825260208201915060208460051b870101935086841115613072575f80fd5b602086015b8481101561308e5780358352918301918301613077565b509695505050505050565b5f805f606084860312156130ab575f80fd5b833567ffffffffffffffff8111156130c1575f80fd5b6130cd8682870161302d565b9660208601359650604090950135949350505050565b5f805f606084860312156130f5575f80fd5b833561310081612f0c565b9250602084013561311081612f0c565b929592945050506040919091013590565b5f815180845260208085019450602084015f5b838110156131595781516001600160a01b031687529582019590820190600101613134565b509495945050505050565b5f815180845260208085019450602084015f5b8381101561315957815187529582019590820190600101613177565b602081525f8251606060208401526131ae6080840182613121565b90506020840151601f19808584030160408601526131cc8383613164565b92506040860151915080858403016060860152506131ea8282613164565b95945050505050565b5f60208284031215613203575f80fd5b813561155581612f0c565b60028110610d2e575f80fd5b8035610bfd8161320e565b5f82601f830112613234575f80fd5b813567ffffffffffffffff81111561324e5761324e612f55565b613261601f8201601f1916602001612fd9565b818152846020838601011115613275575f80fd5b816020850160208301375f918101602001919091529392505050565b5f602082840312156132a1575f80fd5b813567ffffffffffffffff808211156132b8575f80fd5b9083019060e082860312156132cb575f80fd5b6132d3612f69565b6132dc8361321a565b8152602083013560208201526040830135828111156132f9575f80fd5b6133058782860161302d565b604083015250606083013560608201526080830135608082015261332b60a08401612f20565b60a082015260c083013582811115613341575f80fd5b61334d87828601613225565b60c08301525095945050505050565b7fff000000000000000000000000000000000000000000000000000000000000008816815260e060208201525f61339660e0830189612eb7565b82810360408401526133a88189612eb7565b90508660608401526001600160a01b03861660808401528460a084015282810360c0840152611c2e8185613164565b5f80604083850312156133e8575f80fd5b823567ffffffffffffffff8111156133fe575f80fd5b61340a8582860161302d565b925050602083013561341b8161320e565b809150509250929050565b602081525f6115556020830184613121565b634e487b7160e01b5f52602160045260245ffd5b608081525f61345e6080830187613121565b8281036020848101919091528651808352878201928201905f5b818110156134d15784518051600281106134a057634e487b7160e01b5f52602160045260245ffd5b8452808501516001600160a01b03168585015260409081015115159084015293830193606090920191600101613478565b505084810360408601526134e58188613164565b9250505082810360608401526134fb8185613164565b979650505050505050565b602081525f6115556020830184613164565b602081525f825160e06020840152613534610100840182613164565b90506020840151601f198483030160408501526135518282613164565b91505060408401516060840152606084015160808401526080840151151560a084015260a0840151151560c084015260c0840151151560e08401528091505092915050565b5f805f805f805f60e0888a0312156135ac575f80fd5b87356135b781612f0c565b965060208801356135c781612f0c565b95506040880135945060608801359350608088013560ff811681146135ea575f80fd5b9699959850939692959460a0840135945060c09093013592915050565b5f8060408385031215613618575f80fd5b823561362381612f0c565b9150602083013561341b81612f0c565b600181811c9082168061364757607f821691505b60208210810361366557634e487b7160e01b5f52602260045260245ffd5b50919050565b80518015158114610bfd575f80fd5b5f6020828403121561368a575f80fd5b6115558261366b565b634e487b7160e01b5f52603260045260245ffd5b5f602082840312156136b7575f80fd5b5051919050565b5f82601f8301126136cd575f80fd5b815160206136dd61304c8361300a565b8083825260208201915060208460051b8701019350868411156136fe575f80fd5b602086015b8481101561308e57805161371681612f0c565b8352918301918301613703565b5f60208284031215613733575f80fd5b815167ffffffffffffffff811115613749575f80fd5b6106c3848285016136be565b5f82601f830112613764575f80fd5b8151602061377461304c8361300a565b8083825260208201915060208460051b870101935086841115613795575f80fd5b602086015b8481101561308e578051835291830191830161379a565b5f80604083850312156137c2575f80fd5b825167ffffffffffffffff808211156137d9575f80fd5b6137e586838701613755565b935060208501519150808211156137fa575f80fd5b5061380785828601613755565b9150509250929050565b5f60808284031215613821575f80fd5b6040516080810181811067ffffffffffffffff8211171561384457613844612f55565b6040529050806138538361366b565b81526138616020840161366b565b60208201526138726040840161366b565b60408201526138836060840161366b565b60608201525092915050565b805164ffffffffff81168114610bfd575f80fd5b805163ffffffff81168114610bfd575f80fd5b5f6101a082840312156138c7575f80fd5b6138cf612f92565b6138d98484613811565b81526080830151602082015260a0830151604082015260c0830151606082015261390560e0840161388f565b60808201526101006139188185016138a3565b60a083015261012061392b81860161366b565b60c084015261393d610140860161366b565b60e084015261394f610160860161366b565b82840152613960610180860161366b565b90830152509392505050565b5f805f806080858703121561397f575f80fd5b845167ffffffffffffffff80821115613996575f80fd5b6139a2888389016136be565b95506020915081870151818111156139b8575f80fd5b8701601f810189136139c8575f80fd5b80516139d661304c8261300a565b8181526060918202830185019185820191908c8411156139f4575f80fd5b938601935b83851015613a555780858e031215613a0f575f80fd5b613a17612fb6565b8551613a228161320e565b815285880151613a3181612f0c565b818901526040613a4287820161366b565b90820152835293840193918601916139f9565b5060408b0151909850945050505080821115613a6f575f80fd5b613a7b88838901613755565b93506060870151915080821115613a90575f80fd5b50613a9d87828801613755565b91505092959194509250565b5f60208284031215613ab9575f80fd5b815167ffffffffffffffff811115613acf575f80fd5b6106c384828501613755565b634e487b7160e01b5f52601160045260245ffd5b8082018082111561069057610690613adb565b8181038181111561069057610690613adb565b808202811582820484141761069057610690613adb565b634e487b7160e01b5f52601260045260245ffd5b5f82613b5a57634e487b7160e01b5f52601260045260245ffd5b500490565b634e487b7160e01b5f52605160045260245ffdfea26469706673582212206bb415e34df715fbad342a1b37d9210e884ff6402e5f7be32d09a7bfbb1dcc4164736f6c63430008180033","linkReferences":{}},"methodIdentifiers":{"create(string,string,(address,uint8,address,bool)[],uint256[],(address,address,address),uint256,address,bool,bool,bytes32)":"fed4cdda","disable()":"2f2770db","getActionId(bytes4)":"851c1bb3","getAuthorizer()":"aaabadc5","getDefaultLiquidityManagement()":"193ad50f","getDefaultPoolHooksContract()":"ec888061","getDeploymentAddress(bytes32)":"337d4010","getNewPoolPauseWindowEndTime()":"db035ebc","getOriginalPauseWindowEndTime()":"e9d56e19","getPauseWindowDuration()":"78da80cb","getPoolVersion()":"3f819b6f","getVault()":"8d928af8","isDisabled()":"6c57f5a9","isPoolFromFactory(address)":"6634b753","version()":"54fd4d50"},"id":43}