{"abi":[{"type":"constructor","inputs":[{"name":"pauseWindowDuration","type":"uint32","internalType":"uint32"}],"stateMutability":"nonpayable"},{"type":"function","name":"getNewPoolPauseWindowEndTime","inputs":[],"outputs":[{"name":"","type":"uint32","internalType":"uint32"}],"stateMutability":"view"},{"type":"function","name":"getOriginalPauseWindowEndTime","inputs":[],"outputs":[{"name":"","type":"uint32","internalType":"uint32"}],"stateMutability":"view"},{"type":"function","name":"getPauseWindowDuration","inputs":[],"outputs":[{"name":"","type":"uint32","internalType":"uint32"}],"stateMutability":"view"},{"type":"error","name":"PoolPauseWindowDurationOverflow","inputs":[]}],"bytecode":{"object":"0x60c060405234801561000f575f80fd5b5060405161022e38038061022e83398101604081905261002e9161007a565b5f61003f63ffffffff8316426100a4565b905063ffffffff811115610066576040516368755a1160e01b815260040160405180910390fd5b63ffffffff9182166080521660a0526100c9565b5f6020828403121561008a575f80fd5b815163ffffffff8116811461009d575f80fd5b9392505050565b808201808211156100c357634e487b7160e01b5f52601160045260245ffd5b92915050565b60805160a05161013a6100f45f395f818160880152818160af015260e201525f6045015261013a5ff3fe608060405234801561000f575f80fd5b506004361061003f575f3560e01c806378da80cb14610043578063db035ebc1461007e578063e9d56e1914610086575b5f80fd5b7f00000000000000000000000000000000000000000000000000000000000000005b60405163ffffffff909116815260200160405180910390f35b6100656100ac565b7f0000000000000000000000000000000000000000000000000000000000000000610065565b5f7f000000000000000000000000000000000000000000000000000000000000000063ffffffff1642106100df57505f90565b507f00000000000000000000000000000000000000000000000000000000000000009056fea2646970667358221220d7d3b649f2b15104062601301655407e67d9fa5d74dd692a1d6f42f375f5f75664736f6c63430008180033","linkReferences":{}},"methodIdentifiers":{"getNewPoolPauseWindowEndTime()":"db035ebc","getOriginalPauseWindowEndTime()":"e9d56e19","getPauseWindowDuration()":"78da80cb"},"id":48}