{"abi":[{"type":"function","name":"getHookFlags","inputs":[],"outputs":[{"name":"hookFlags","type":"tuple","internalType":"struct HookFlags","components":[{"name":"enableHookAdjustedAmounts","type":"bool","internalType":"bool"},{"name":"shouldCallBeforeInitialize","type":"bool","internalType":"bool"},{"name":"shouldCallAfterInitialize","type":"bool","internalType":"bool"},{"name":"shouldCallComputeDynamicSwapFee","type":"bool","internalType":"bool"},{"name":"shouldCallBeforeSwap","type":"bool","internalType":"bool"},{"name":"shouldCallAfterSwap","type":"bool","internalType":"bool"},{"name":"shouldCallBeforeAddLiquidity","type":"bool","internalType":"bool"},{"name":"shouldCallAfterAddLiquidity","type":"bool","internalType":"bool"},{"name":"shouldCallBeforeRemoveLiquidity","type":"bool","internalType":"bool"},{"name":"shouldCallAfterRemoveLiquidity","type":"bool","internalType":"bool"}]}],"stateMutability":"pure"},{"type":"function","name":"onAfterAddLiquidity","inputs":[{"name":"router","type":"address","internalType":"address"},{"name":"pool","type":"address","internalType":"address"},{"name":"kind","type":"uint8","internalType":"enum AddLiquidityKind"},{"name":"amountsInScaled18","type":"uint256[]","internalType":"uint256[]"},{"name":"amountsInRaw","type":"uint256[]","internalType":"uint256[]"},{"name":"bptAmountOut","type":"uint256","internalType":"uint256"},{"name":"balancesScaled18","type":"uint256[]","internalType":"uint256[]"},{"name":"userData","type":"bytes","internalType":"bytes"}],"outputs":[{"name":"","type":"bool","internalType":"bool"},{"name":"","type":"uint256[]","internalType":"uint256[]"}],"stateMutability":"nonpayable"},{"type":"function","name":"onAfterInitialize","inputs":[{"name":"exactAmountsIn","type":"uint256[]","internalType":"uint256[]"},{"name":"bptAmountOut","type":"uint256","internalType":"uint256"},{"name":"userData","type":"bytes","internalType":"bytes"}],"outputs":[{"name":"","type":"bool","internalType":"bool"}],"stateMutability":"nonpayable"},{"type":"function","name":"onAfterRemoveLiquidity","inputs":[{"name":"router","type":"address","internalType":"address"},{"name":"pool","type":"address","internalType":"address"},{"name":"kind","type":"uint8","internalType":"enum RemoveLiquidityKind"},{"name":"bptAmountIn","type":"uint256","internalType":"uint256"},{"name":"amountsOutScaled18","type":"uint256[]","internalType":"uint256[]"},{"name":"amountsOutRaw","type":"uint256[]","internalType":"uint256[]"},{"name":"balancesScaled18","type":"uint256[]","internalType":"uint256[]"},{"name":"userData","type":"bytes","internalType":"bytes"}],"outputs":[{"name":"","type":"bool","internalType":"bool"},{"name":"","type":"uint256[]","internalType":"uint256[]"}],"stateMutability":"nonpayable"},{"type":"function","name":"onAfterSwap","inputs":[{"name":"params","type":"tuple","internalType":"struct AfterSwapParams","components":[{"name":"kind","type":"uint8","internalType":"enum SwapKind"},{"name":"tokenIn","type":"address","internalType":"contract IERC20"},{"name":"tokenOut","type":"address","internalType":"contract IERC20"},{"name":"amountInScaled18","type":"uint256","internalType":"uint256"},{"name":"amountOutScaled18","type":"uint256","internalType":"uint256"},{"name":"tokenInBalanceScaled18","type":"uint256","internalType":"uint256"},{"name":"tokenOutBalanceScaled18","type":"uint256","internalType":"uint256"},{"name":"amountCalculatedScaled18","type":"uint256","internalType":"uint256"},{"name":"amountCalculatedRaw","type":"uint256","internalType":"uint256"},{"name":"router","type":"address","internalType":"address"},{"name":"pool","type":"address","internalType":"address"},{"name":"userData","type":"bytes","internalType":"bytes"}]}],"outputs":[{"name":"","type":"bool","internalType":"bool"},{"name":"","type":"uint256","internalType":"uint256"}],"stateMutability":"nonpayable"},{"type":"function","name":"onBeforeAddLiquidity","inputs":[{"name":"router","type":"address","internalType":"address"},{"name":"pool","type":"address","internalType":"address"},{"name":"kind","type":"uint8","internalType":"enum AddLiquidityKind"},{"name":"maxAmountsInScaled18","type":"uint256[]","internalType":"uint256[]"},{"name":"minBptAmountOut","type":"uint256","internalType":"uint256"},{"name":"balancesScaled18","type":"uint256[]","internalType":"uint256[]"},{"name":"userData","type":"bytes","internalType":"bytes"}],"outputs":[{"name":"","type":"bool","internalType":"bool"}],"stateMutability":"nonpayable"},{"type":"function","name":"onBeforeInitialize","inputs":[{"name":"exactAmountsIn","type":"uint256[]","internalType":"uint256[]"},{"name":"userData","type":"bytes","internalType":"bytes"}],"outputs":[{"name":"","type":"bool","internalType":"bool"}],"stateMutability":"nonpayable"},{"type":"function","name":"onBeforeRemoveLiquidity","inputs":[{"name":"router","type":"address","internalType":"address"},{"name":"pool","type":"address","internalType":"address"},{"name":"kind","type":"uint8","internalType":"enum RemoveLiquidityKind"},{"name":"maxBptAmountIn","type":"uint256","internalType":"uint256"},{"name":"minAmountsOutScaled18","type":"uint256[]","internalType":"uint256[]"},{"name":"balancesScaled18","type":"uint256[]","internalType":"uint256[]"},{"name":"userData","type":"bytes","internalType":"bytes"}],"outputs":[{"name":"","type":"bool","internalType":"bool"}],"stateMutability":"nonpayable"},{"type":"function","name":"onBeforeSwap","inputs":[{"name":"params","type":"tuple","internalType":"struct PoolSwapParams","components":[{"name":"kind","type":"uint8","internalType":"enum SwapKind"},{"name":"amountGivenScaled18","type":"uint256","internalType":"uint256"},{"name":"balancesScaled18","type":"uint256[]","internalType":"uint256[]"},{"name":"indexIn","type":"uint256","internalType":"uint256"},{"name":"indexOut","type":"uint256","internalType":"uint256"},{"name":"router","type":"address","internalType":"address"},{"name":"userData","type":"bytes","internalType":"bytes"}]},{"name":"pool","type":"address","internalType":"address"}],"outputs":[{"name":"","type":"bool","internalType":"bool"}],"stateMutability":"nonpayable"},{"type":"function","name":"onComputeDynamicSwapFeePercentage","inputs":[{"name":"params","type":"tuple","internalType":"struct PoolSwapParams","components":[{"name":"kind","type":"uint8","internalType":"enum SwapKind"},{"name":"amountGivenScaled18","type":"uint256","internalType":"uint256"},{"name":"balancesScaled18","type":"uint256[]","internalType":"uint256[]"},{"name":"indexIn","type":"uint256","internalType":"uint256"},{"name":"indexOut","type":"uint256","internalType":"uint256"},{"name":"router","type":"address","internalType":"address"},{"name":"userData","type":"bytes","internalType":"bytes"}]},{"name":"pool","type":"address","internalType":"address"},{"name":"staticSwapFeePercentage","type":"uint256","internalType":"uint256"}],"outputs":[{"name":"","type":"bool","internalType":"bool"},{"name":"","type":"uint256","internalType":"uint256"}],"stateMutability":"view"},{"type":"function","name":"onRegister","inputs":[{"name":"factory","type":"address","internalType":"address"},{"name":"pool","type":"address","internalType":"address"},{"name":"tokenConfig","type":"tuple[]","internalType":"struct TokenConfig[]","components":[{"name":"token","type":"address","internalType":"contract IERC20"},{"name":"tokenType","type":"uint8","internalType":"enum TokenType"},{"name":"rateProvider","type":"address","internalType":"contract IRateProvider"},{"name":"paysYieldFees","type":"bool","internalType":"bool"}]},{"name":"liquidityManagement","type":"tuple","internalType":"struct LiquidityManagement","components":[{"name":"disableUnbalancedLiquidity","type":"bool","internalType":"bool"},{"name":"enableAddLiquidityCustom","type":"bool","internalType":"bool"},{"name":"enableRemoveLiquidityCustom","type":"bool","internalType":"bool"},{"name":"enableDonation","type":"bool","internalType":"bool"}]}],"outputs":[{"name":"","type":"bool","internalType":"bool"}],"stateMutability":"nonpayable"}],"bytecode":{"object":"0x608060405234801561000f575f80fd5b50610b168061001d5f395ff3fe608060405234801561000f575f80fd5b50600436106100c4575f3560e01c806345421ec71161007d578063a0e8f5ac11610058578063a0e8f5ac146101a5578063ba5f9f40146101bd578063d77153a7146101cb575f80fd5b806345421ec71461016a5780635211fa7714610184578063976907cc14610192575f80fd5b80631c149e28116100ad5780631c149e28146101205780632754888d1461013357806338be241d14610154575f80fd5b80630b89f182146100c857806318b6eb55146100f4575b5f80fd5b6100df6100d6366004610343565b505f9392505050565b60405190151581526020015b60405180910390f35b61010961010236600461046f565b505f908190565b6040805192151583526020830191909152016100eb565b6100df61012e36600461057a565b610224565b6101466101413660046105e8565b61022e565b6040516100eb9291906106c8565b6100df610162366004610718565b505f92915050565b6100df61017836600461078e565b505f9695505050505050565b6100df61012e36600461085e565b6101466101a03660046108ad565b610245565b6101096101b336600461094f565b505f928392509050565b6100df6101783660046109a5565b60408051610140810182525f80825260208201819052818301819052606082018190526080820181905260a0820181905260c0820181905260e08201819052610100820181905261012082015290516100eb9190610a28565b5f805b9392505050565b5f606081855b915091509850989650505050505050565b5f60608186610234565b73ffffffffffffffffffffffffffffffffffffffff81168114610270575f80fd5b50565b803561027e8161024f565b919050565b7f4e487b71000000000000000000000000000000000000000000000000000000005f52604160045260245ffd5b6040516080810167ffffffffffffffff811182821017156102d3576102d3610283565b60405290565b604051601f8201601f1916810167ffffffffffffffff8111828210171561030257610302610283565b604052919050565b5f67ffffffffffffffff82111561032357610323610283565b5060051b60200190565b5f6080828403121561033d575f80fd5b50919050565b5f805f8060e08587031215610356575f80fd5b84356103618161024f565b93506020858101356103728161024f565b935060408681013567ffffffffffffffff81111561038e575f80fd5b8701601f8101891361039e575f80fd5b80356103b16103ac8261030a565b6102d9565b81815260079190911b8201840190848101908b8311156103cf575f80fd5b928501925b8284101561044e576080848d0312156103eb575f80fd5b6103f36102b0565b84356103fe8161024f565b81528487013560028110610410575f80fd5b81880152848601356104218161024f565b818701526060858101358015158114610438575f80fd5b90820152825260809390930192908501906103d4565b809750505050505050610464866060870161032d565b905092959194509250565b5f6020828403121561047f575f80fd5b813567ffffffffffffffff811115610495575f80fd5b82016101808185031215610227575f80fd5b5f82601f8301126104b6575f80fd5b813560206104c66103ac8361030a565b8083825260208201915060208460051b8701019350868411156104e7575f80fd5b602086015b8481101561050357803583529183019183016104ec565b509695505050505050565b5f82601f83011261051d575f80fd5b813567ffffffffffffffff81111561053757610537610283565b61054a601f8201601f19166020016102d9565b81815284602083860101111561055e575f80fd5b816020850160208301375f918101602001919091529392505050565b5f806040838503121561058b575f80fd5b823567ffffffffffffffff808211156105a2575f80fd5b6105ae868387016104a7565b935060208501359150808211156105c3575f80fd5b506105d08582860161050e565b9150509250929050565b80356004811061027e575f80fd5b5f805f805f805f80610100898b031215610600575f80fd5b61060989610273565b975061061760208a01610273565b965061062560408a016105da565b955060608901359450608089013567ffffffffffffffff80821115610648575f80fd5b6106548c838d016104a7565b955060a08b0135915080821115610669575f80fd5b6106758c838d016104a7565b945060c08b013591508082111561068a575f80fd5b6106968c838d016104a7565b935060e08b01359150808211156106ab575f80fd5b506106b88b828c0161050e565b9150509295985092959890939650565b5f6040820184151583526020604060208501528185518084526060860191506020870193505f5b8181101561070b578451835293830193918301916001016106ef565b5090979650505050505050565b5f805f6060848603121561072a575f80fd5b833567ffffffffffffffff80821115610741575f80fd5b61074d878388016104a7565b9450602086013593506040860135915080821115610769575f80fd5b506107768682870161050e565b9150509250925092565b80356005811061027e575f80fd5b5f805f805f805f60e0888a0312156107a4575f80fd5b87356107af8161024f565b965060208801356107bf8161024f565b95506107cd60408901610780565b9450606088013567ffffffffffffffff808211156107e9575f80fd5b6107f58b838c016104a7565b955060808a0135945060a08a0135915080821115610811575f80fd5b61081d8b838c016104a7565b935060c08a0135915080821115610832575f80fd5b5061083f8a828b0161050e565b91505092959891949750929550565b5f60e0828403121561033d575f80fd5b5f806040838503121561086f575f80fd5b823567ffffffffffffffff811115610885575f80fd5b6108918582860161084e565b92505060208301356108a28161024f565b809150509250929050565b5f805f805f805f80610100898b0312156108c5575f80fd5b6108ce89610273565b97506108dc60208a01610273565b96506108ea60408a01610780565b9550606089013567ffffffffffffffff80821115610906575f80fd5b6109128c838d016104a7565b965060808b0135915080821115610927575f80fd5b6109338c838d016104a7565b955060a08b0135945060c08b013591508082111561068a575f80fd5b5f805f60608486031215610961575f80fd5b833567ffffffffffffffff811115610977575f80fd5b6109838682870161084e565b93505060208401356109948161024f565b929592945050506040919091013590565b5f805f805f805f60e0888a0312156109bb575f80fd5b87356109c68161024f565b965060208801356109d68161024f565b95506109e4604089016105da565b945060608801359350608088013567ffffffffffffffff80821115610a07575f80fd5b610a138b838c016104a7565b945060a08a0135915080821115610811575f80fd5b81511515815261014081016020830151610a46602084018215159052565b506040830151610a5a604084018215159052565b506060830151610a6e606084018215159052565b506080830151610a82608084018215159052565b5060a0830151610a9660a084018215159052565b5060c0830151610aaa60c084018215159052565b5060e0830151610abe60e084018215159052565b506101008381015115159083015261012092830151151592909101919091529056fea2646970667358221220f6a93fd18aaf8f020abed2aac246dc2be559385fbf964053febc6766de418e0264736f6c63430008180033","linkReferences":{}},"methodIdentifiers":{"getHookFlags()":"d77153a7","onAfterAddLiquidity(address,address,uint8,uint256[],uint256[],uint256,uint256[],bytes)":"976907cc","onAfterInitialize(uint256[],uint256,bytes)":"38be241d","onAfterRemoveLiquidity(address,address,uint8,uint256,uint256[],uint256[],uint256[],bytes)":"2754888d","onAfterSwap((uint8,address,address,uint256,uint256,uint256,uint256,uint256,uint256,address,address,bytes))":"18b6eb55","onBeforeAddLiquidity(address,address,uint8,uint256[],uint256,uint256[],bytes)":"45421ec7","onBeforeInitialize(uint256[],bytes)":"1c149e28","onBeforeRemoveLiquidity(address,address,uint8,uint256,uint256[],uint256[],bytes)":"ba5f9f40","onBeforeSwap((uint8,uint256,uint256[],uint256,uint256,address,bytes),address)":"5211fa77","onComputeDynamicSwapFeePercentage((uint8,uint256,uint256[],uint256,uint256,address,bytes),address,uint256)":"a0e8f5ac","onRegister(address,address,(address,uint8,address,bool)[],(bool,bool,bool,bool))":"0b89f182"},"id":104}