{"abi":[{"type":"constructor","inputs":[{"name":"vault","type":"address","internalType":"contract IVault"},{"name":"name","type":"string","internalType":"string"},{"name":"symbol","type":"string","internalType":"string"}],"stateMutability":"nonpayable"},{"type":"function","name":"DOMAIN_SEPARATOR","inputs":[],"outputs":[{"name":"","type":"bytes32","internalType":"bytes32"}],"stateMutability":"view"},{"type":"function","name":"PERMIT_TYPEHASH","inputs":[],"outputs":[{"name":"","type":"bytes32","internalType":"bytes32"}],"stateMutability":"view"},{"type":"function","name":"allowance","inputs":[{"name":"owner","type":"address","internalType":"address"},{"name":"spender","type":"address","internalType":"address"}],"outputs":[{"name":"","type":"uint256","internalType":"uint256"}],"stateMutability":"view"},{"type":"function","name":"approve","inputs":[{"name":"spender","type":"address","internalType":"address"},{"name":"amount","type":"uint256","internalType":"uint256"}],"outputs":[{"name":"","type":"bool","internalType":"bool"}],"stateMutability":"nonpayable"},{"type":"function","name":"balanceOf","inputs":[{"name":"account","type":"address","internalType":"address"}],"outputs":[{"name":"","type":"uint256","internalType":"uint256"}],"stateMutability":"view"},{"type":"function","name":"computeBalance","inputs":[{"name":"balancesLiveScaled18","type":"uint256[]","internalType":"uint256[]"},{"name":"tokenInIndex","type":"uint256","internalType":"uint256"},{"name":"invariantRatio","type":"uint256","internalType":"uint256"}],"outputs":[{"name":"newBalance","type":"uint256","internalType":"uint256"}],"stateMutability":"pure"},{"type":"function","name":"computeInvariant","inputs":[{"name":"balancesLiveScaled18","type":"uint256[]","internalType":"uint256[]"},{"name":"","type":"uint8","internalType":"enum Rounding"}],"outputs":[{"name":"invariant","type":"uint256","internalType":"uint256"}],"stateMutability":"pure"},{"type":"function","name":"decimals","inputs":[],"outputs":[{"name":"","type":"uint8","internalType":"uint8"}],"stateMutability":"pure"},{"type":"function","name":"eip712Domain","inputs":[],"outputs":[{"name":"fields","type":"bytes1","internalType":"bytes1"},{"name":"name","type":"string","internalType":"string"},{"name":"version","type":"string","internalType":"string"},{"name":"chainId","type":"uint256","internalType":"uint256"},{"name":"verifyingContract","type":"address","internalType":"address"},{"name":"salt","type":"bytes32","internalType":"bytes32"},{"name":"extensions","type":"uint256[]","internalType":"uint256[]"}],"stateMutability":"view"},{"type":"function","name":"emitApproval","inputs":[{"name":"owner","type":"address","internalType":"address"},{"name":"spender","type":"address","internalType":"address"},{"name":"amount","type":"uint256","internalType":"uint256"}],"outputs":[],"stateMutability":"nonpayable"},{"type":"function","name":"emitTransfer","inputs":[{"name":"from","type":"address","internalType":"address"},{"name":"to","type":"address","internalType":"address"},{"name":"amount","type":"uint256","internalType":"uint256"}],"outputs":[],"stateMutability":"nonpayable"},{"type":"function","name":"getMaximumInvariantRatio","inputs":[],"outputs":[{"name":"","type":"uint256","internalType":"uint256"}],"stateMutability":"pure"},{"type":"function","name":"getMaximumSwapFeePercentage","inputs":[],"outputs":[{"name":"","type":"uint256","internalType":"uint256"}],"stateMutability":"pure"},{"type":"function","name":"getMinimumInvariantRatio","inputs":[],"outputs":[{"name":"","type":"uint256","internalType":"uint256"}],"stateMutability":"pure"},{"type":"function","name":"getMinimumSwapFeePercentage","inputs":[],"outputs":[{"name":"","type":"uint256","internalType":"uint256"}],"stateMutability":"pure"},{"type":"function","name":"getRate","inputs":[],"outputs":[{"name":"","type":"uint256","internalType":"uint256"}],"stateMutability":"view"},{"type":"function","name":"getVault","inputs":[],"outputs":[{"name":"","type":"address","internalType":"contract IVault"}],"stateMutability":"view"},{"type":"function","name":"name","inputs":[],"outputs":[{"name":"","type":"string","internalType":"string"}],"stateMutability":"view"},{"type":"function","name":"nonces","inputs":[{"name":"owner","type":"address","internalType":"address"}],"outputs":[{"name":"","type":"uint256","internalType":"uint256"}],"stateMutability":"view"},{"type":"function","name":"onSwap","inputs":[{"name":"params","type":"tuple","internalType":"struct PoolSwapParams","components":[{"name":"kind","type":"uint8","internalType":"enum SwapKind"},{"name":"amountGivenScaled18","type":"uint256","internalType":"uint256"},{"name":"balancesScaled18","type":"uint256[]","internalType":"uint256[]"},{"name":"indexIn","type":"uint256","internalType":"uint256"},{"name":"indexOut","type":"uint256","internalType":"uint256"},{"name":"router","type":"address","internalType":"address"},{"name":"userData","type":"bytes","internalType":"bytes"}]}],"outputs":[{"name":"amountCalculatedScaled18","type":"uint256","internalType":"uint256"}],"stateMutability":"pure"},{"type":"function","name":"permit","inputs":[{"name":"owner","type":"address","internalType":"address"},{"name":"spender","type":"address","internalType":"address"},{"name":"amount","type":"uint256","internalType":"uint256"},{"name":"deadline","type":"uint256","internalType":"uint256"},{"name":"v","type":"uint8","internalType":"uint8"},{"name":"r","type":"bytes32","internalType":"bytes32"},{"name":"s","type":"bytes32","internalType":"bytes32"}],"outputs":[],"stateMutability":"nonpayable"},{"type":"function","name":"revokePermit","inputs":[],"outputs":[],"stateMutability":"nonpayable"},{"type":"function","name":"supportsInterface","inputs":[{"name":"interfaceId","type":"bytes4","internalType":"bytes4"}],"outputs":[{"name":"","type":"bool","internalType":"bool"}],"stateMutability":"view"},{"type":"function","name":"symbol","inputs":[],"outputs":[{"name":"","type":"string","internalType":"string"}],"stateMutability":"view"},{"type":"function","name":"totalSupply","inputs":[],"outputs":[{"name":"","type":"uint256","internalType":"uint256"}],"stateMutability":"view"},{"type":"function","name":"transfer","inputs":[{"name":"to","type":"address","internalType":"address"},{"name":"amount","type":"uint256","internalType":"uint256"}],"outputs":[{"name":"","type":"bool","internalType":"bool"}],"stateMutability":"nonpayable"},{"type":"function","name":"transferFrom","inputs":[{"name":"from","type":"address","internalType":"address"},{"name":"to","type":"address","internalType":"address"},{"name":"amount","type":"uint256","internalType":"uint256"}],"outputs":[{"name":"","type":"bool","internalType":"bool"}],"stateMutability":"nonpayable"},{"type":"event","name":"Approval","inputs":[{"name":"owner","type":"address","indexed":true,"internalType":"address"},{"name":"spender","type":"address","indexed":true,"internalType":"address"},{"name":"value","type":"uint256","indexed":false,"internalType":"uint256"}],"anonymous":false},{"type":"event","name":"EIP712DomainChanged","inputs":[],"anonymous":false},{"type":"event","name":"Transfer","inputs":[{"name":"from","type":"address","indexed":true,"internalType":"address"},{"name":"to","type":"address","indexed":true,"internalType":"address"},{"name":"value","type":"uint256","indexed":false,"internalType":"uint256"}],"anonymous":false},{"type":"error","name":"ECDSAInvalidSignature","inputs":[]},{"type":"error","name":"ECDSAInvalidSignatureLength","inputs":[{"name":"length","type":"uint256","internalType":"uint256"}]},{"type":"error","name":"ECDSAInvalidSignatureS","inputs":[{"name":"s","type":"bytes32","internalType":"bytes32"}]},{"type":"error","name":"ERC2612ExpiredSignature","inputs":[{"name":"deadline","type":"uint256","internalType":"uint256"}]},{"type":"error","name":"ERC2612InvalidSigner","inputs":[{"name":"signer","type":"address","internalType":"address"},{"name":"owner","type":"address","internalType":"address"}]},{"type":"error","name":"InvalidAccountNonce","inputs":[{"name":"account","type":"address","internalType":"address"},{"name":"currentNonce","type":"uint256","internalType":"uint256"}]},{"type":"error","name":"InvalidShortString","inputs":[]},{"type":"error","name":"SenderIsNotVault","inputs":[{"name":"sender","type":"address","internalType":"address"}]},{"type":"error","name":"StringTooLong","inputs":[{"name":"str","type":"string","internalType":"string"}]}],"bytecode":{"object":"0x61018060405234801562000011575f80fd5b5060405162001f5338038062001f5383398101604081905262000034916200028f565b8282828282604051806040016040528060018152602001603160f81b815250620000685f836200014660201b90919060201c565b610120526200007981600162000146565b61014052815160208084019190912060e052815190820120610100524660a0526200010660e05161010051604080517f8b73c3c69bb8fe3d512ecc4cf759cc79239f7b179b0ffacaa9a75d522b39400f60208201529081019290925260608201524660808201523060a08201525f9060c00160405160208183030381529060405280519060200120905090565b60805250503060c0526001600160a01b03166101605260036200012a83826200039d565b5060046200013982826200039d565b50505050505050620004c1565b5f60208351101562000165576200015d836200017e565b905062000178565b816200017284826200039d565b5060ff90505b92915050565b5f80829050601f81511115620001b4578260405163305a27a960e01b8152600401620001ab919062000469565b60405180910390fd5b8051620001c1826200049d565b179392505050565b634e487b7160e01b5f52604160045260245ffd5b5f5b83811015620001f9578181015183820152602001620001df565b50505f910152565b5f82601f83011262000211575f80fd5b81516001600160401b03808211156200022e576200022e620001c9565b604051601f8301601f19908116603f01168101908282118183101715620002595762000259620001c9565b8160405283815286602085880101111562000272575f80fd5b62000285846020830160208901620001dd565b9695505050505050565b5f805f60608486031215620002a2575f80fd5b83516001600160a01b0381168114620002b9575f80fd5b60208501519093506001600160401b0380821115620002d6575f80fd5b620002e48783880162000201565b93506040860151915080821115620002fa575f80fd5b50620003098682870162000201565b9150509250925092565b600181811c908216806200032857607f821691505b6020821081036200034757634e487b7160e01b5f52602260045260245ffd5b50919050565b601f8211156200039857805f5260205f20601f840160051c81016020851015620003745750805b601f840160051c820191505b8181101562000395575f815560010162000380565b50505b505050565b81516001600160401b03811115620003b957620003b9620001c9565b620003d181620003ca845462000313565b846200034d565b602080601f83116001811462000407575f8415620003ef5750858301515b5f19600386901b1c1916600185901b17855562000461565b5f85815260208120601f198616915b82811015620004375788860151825594840194600190910190840162000416565b50858210156200045557878501515f19600388901b60f8161c191681555b505060018460011b0185555b505050505050565b602081525f825180602084015262000489816040850160208701620001dd565b601f01601f19169190910160400192915050565b8051602080830151919081101562000347575f1960209190910360031b1b16919050565b60805160a05160c05160e051610100516101205161014051610160516119f76200055c5f395f818161036d015281816104dc015281816105f2015281816106b8015281816108170152818161088601528181610ac001528181610c7501528181610d340152610dd201525f610f8901525f610f5d01525f610f0601525f610ede01525f610e3901525f610e6301525f610e8d01526119f75ff3fe608060405234801561000f575f80fd5b50600436106101b0575f3560e01c8063679aefce116100f3578063979ac70211610093578063b677fa561161006e578063b677fa56146103df578063ce20ece7146103ed578063d505accf146103f8578063dd62ed3e1461040b575f80fd5b8063979ac7021461039f578063984de9e8146103b9578063a9059cbb146103cc575f80fd5b80637ecebe00116100ce5780637ecebe001461033257806384b0196e146103455780638d928af81461036057806395d89b4114610397575f80fd5b8063679aefce1461030457806370a082311461030c57806372c981861461031f575f80fd5b806323de66511161015e578063313ce56711610139578063313ce567146102cc5780633644e515146102db5780635687f2b8146102e3578063654cf15d146102f6575f80fd5b806323de665114610282578063273c1adf1461029757806330adf81f146102a5575f80fd5b806316a0b3e01161018e57806316a0b3e01461024657806318160ddd1461026757806323b872dd1461026f575f80fd5b806301ffc9a7146101b457806306fdde031461021e578063095ea7b314610233575b5f80fd5b6102096101c236600461147c565b7fffffffff00000000000000000000000000000000000000000000000000000000167f01ffc9a7000000000000000000000000000000000000000000000000000000001490565b60405190151581526020015b60405180910390f35b61022661041e565b60405161021591906114fe565b61020961024136600461152b565b6104ae565b6102596102543660046115f7565b610555565b604051908152602001610215565b6102596105c2565b61020961027d366004611641565b610669565b610295610290366004611641565b61072f565b005b6729a2241af62c0000610259565b6102597f6e71edae12b1b97f4d1f60370fef10105fa2faae0126114a169c64845d6126c981565b60405160128152602001610215565b610259610789565b6102956102f1366004611641565b610792565b67016345785d8a0000610259565b6102596107df565b61025961031a36600461167a565b610846565b61025961032d366004611693565b6108f1565b61025961034036600461167a565b610979565b61034d610996565b60405161021597969594939291906116ca565b6040516001600160a01b037f0000000000000000000000000000000000000000000000000000000000000000168152602001610215565b6102266109f4565b610295335f90815260026020526040902080546001019055565b6102596103c736600461177d565b610a03565b6102096103da36600461152b565b610a79565b6709b6e64a8ec60000610259565b64e8d4a51000610259565b6102956104063660046117cf565b610af1565b61025961041936600461183c565b610cec565b60606003805461042d9061186d565b80601f01602080910402602001604051908101604052809291908181526020018280546104599061186d565b80156104a45780601f1061047b576101008083540402835291602001916104a4565b820191905f5260205f20905b81548152906001019060200180831161048757829003601f168201915b5050505050905090565b60405163e1f21c6760e01b81523360048201526001600160a01b038381166024830152604482018390525f917f00000000000000000000000000000000000000000000000000000000000000009091169063e1f21c67906064015b6020604051808303815f875af1158015610525573d5f803e3d5ffd5b505050506040513d601f19601f8201168201806040525081019061054991906118a5565b50600190505b92915050565b5f8061056c83610566876001610a03565b90610d9f565b90505f841561057b575f61057e565b60015b60ff1690505f868281518110610596576105966118c4565b602002602001015190508083846105ad91906118ec565b6105b79190611917565b979650505050505050565b6040517fe4dc2aa40000000000000000000000000000000000000000000000000000000081523060048201525f907f00000000000000000000000000000000000000000000000000000000000000006001600160a01b03169063e4dc2aa4906024015b602060405180830381865afa158015610640573d5f803e3d5ffd5b505050506040513d601f19601f820116820180604052508101906106649190611936565b905090565b6040517f15dacbea0000000000000000000000000000000000000000000000000000000081523360048201526001600160a01b0384811660248301528381166044830152606482018390525f917f0000000000000000000000000000000000000000000000000000000000000000909116906315dacbea906084016020604051808303815f875af1158015610700573d5f803e3d5ffd5b505050506040513d601f19601f8201168201806040525081019061072491906118a5565b506001949350505050565b610737610dc7565b816001600160a01b0316836001600160a01b03167fddf252ad1be2c89b69c2b068fc378daa952ba7f163c4a11628f55a4df523b3ef8360405161077c91815260200190565b60405180910390a3505050565b5f610664610e2d565b61079a610dc7565b816001600160a01b0316836001600160a01b03167f8c5be1e5ebec7d5bd14f71427d1e84f3dd0314c0f7b2291e5b200ac8c7c3b9258360405161077c91815260200190565b6040517f4f037ee70000000000000000000000000000000000000000000000000000000081523060048201525f906001600160a01b037f00000000000000000000000000000000000000000000000000000000000000001690634f037ee790602401610625565b6040517ff7888aec0000000000000000000000000000000000000000000000000000000081523060048201526001600160a01b0382811660248301525f917f00000000000000000000000000000000000000000000000000000000000000009091169063f7888aec90604401602060405180830381865afa1580156108cd573d5f803e3d5ffd5b505050506040513d601f19601f8201168201806040525081019061054f9190611936565b5f80610900604084018461194d565b8460800135818110610914576109146118c4565b9050602002013590505f83806040019061092e919061194d565b8560600135818110610942576109426118c4565b6020908102929092013592505084013561095c818361199a565b61096682856118ec565b6109709190611917565b95945050505050565b6001600160a01b0381165f9081526002602052604081205461054f565b5f6060805f805f60606109a7610f56565b6109af610f82565b604080515f808252602082019092527f0f000000000000000000000000000000000000000000000000000000000000009b939a50919850469750309650945092509050565b60606004805461042d9061186d565b5f670de0b6b3a76400009050610a5983600181518110610a2557610a256118c4565b6020026020010151610566855f81518110610a4257610a426118c4565b602002602001015184610d9f90919063ffffffff16565b9050610a6481610faf565b610a7290633b9aca006118ec565b9392505050565b6040517fbeabacc80000000000000000000000000000000000000000000000000000000081523360048201526001600160a01b038381166024830152604482018390525f917f00000000000000000000000000000000000000000000000000000000000000009091169063beabacc890606401610509565b83421115610b33576040517f62791302000000000000000000000000000000000000000000000000000000008152600481018590526024015b60405180910390fd5b5f7f6e71edae12b1b97f4d1f60370fef10105fa2faae0126114a169c64845d6126c9888888610b7e8c6001600160a01b03165f90815260026020526040902080546001810190915590565b6040805160208101969096526001600160a01b0394851690860152929091166060840152608083015260a082015260c0810186905260e0016040516020818303038152906040528051906020012090505f610bd882611114565b90505f610be78287878761115b565b9050896001600160a01b0316816001600160a01b031614610c47576040517f4b800e460000000000000000000000000000000000000000000000000000000081526001600160a01b0380831660048301528b166024820152604401610b2a565b60405163e1f21c6760e01b81526001600160a01b038b811660048301528a81166024830152604482018a90527f0000000000000000000000000000000000000000000000000000000000000000169063e1f21c67906064016020604051808303815f875af1158015610cbb573d5f803e3d5ffd5b505050506040513d601f19601f82011682018060405250810190610cdf91906118a5565b5050505050505050505050565b6040517f927da1050000000000000000000000000000000000000000000000000000000081523060048201526001600160a01b03838116602483015282811660448301525f917f00000000000000000000000000000000000000000000000000000000000000009091169063927da10590606401602060405180830381865afa158015610d7b573d5f803e3d5ffd5b505050506040513d601f19601f82011682018060405250810190610a729190611936565b5f80610dab83856118ec565b9050610dbf670de0b6b3a764000082611917565b949350505050565b336001600160a01b037f00000000000000000000000000000000000000000000000000000000000000001614610e2b576040517f089676d5000000000000000000000000000000000000000000000000000000008152336004820152602401610b2a565b565b5f306001600160a01b037f000000000000000000000000000000000000000000000000000000000000000016148015610e8557507f000000000000000000000000000000000000000000000000000000000000000046145b15610eaf57507f000000000000000000000000000000000000000000000000000000000000000090565b610664604080517f8b73c3c69bb8fe3d512ecc4cf759cc79239f7b179b0ffacaa9a75d522b39400f60208201527f0000000000000000000000000000000000000000000000000000000000000000918101919091527f000000000000000000000000000000000000000000000000000000000000000060608201524660808201523060a08201525f9060c00160405160208183030381529060405280519060200120905090565b60606106647f00000000000000000000000000000000000000000000000000000000000000005f611187565b60606106647f00000000000000000000000000000000000000000000000000000000000000006001611187565b5f60018211610fbc575090565b8160017001000000000000000000000000000000008210610fe25760809190911c9060401b5b680100000000000000008210610ffd5760409190911c9060201b5b64010000000082106110145760209190911c9060101b5b6201000082106110295760109190911c9060081b5b610100821061103d5760089190911c9060041b5b601082106110505760049190911c9060021b5b6004821061105c5760011b5b600302600190811c9081858161107457611074611903565b048201901c9050600181858161108c5761108c611903565b048201901c905060018185816110a4576110a4611903565b048201901c905060018185816110bc576110bc611903565b048201901c905060018185816110d4576110d4611903565b048201901c905060018185816110ec576110ec611903565b048201901c905061110b81858161110557611105611903565b04821190565b90039392505050565b5f61054f611120610e2d565b836040517f19010000000000000000000000000000000000000000000000000000000000008152600281019290925260228201526042902090565b5f805f8061116b88888888611230565b92509250925061117b82826112f8565b50909695505050505050565b606060ff83146111a15761119a836113ff565b905061054f565b8180546111ad9061186d565b80601f01602080910402602001604051908101604052809291908181526020018280546111d99061186d565b80156112245780601f106111fb57610100808354040283529160200191611224565b820191905f5260205f20905b81548152906001019060200180831161120757829003601f168201915b5050505050905061054f565b5f80807f7fffffffffffffffffffffffffffffff5d576e7357a4501ddfe92f46681b20a084111561126957505f915060039050826112ee565b604080515f808252602082018084528a905260ff891692820192909252606081018790526080810186905260019060a0016020604051602081039080840390855afa1580156112ba573d5f803e3d5ffd5b5050604051601f1901519150506001600160a01b0381166112e557505f9250600191508290506112ee565b92505f91508190505b9450945094915050565b5f82600381111561130b5761130b6119ad565b03611314575050565b6001826003811115611328576113286119ad565b0361135f576040517ff645eedf00000000000000000000000000000000000000000000000000000000815260040160405180910390fd5b6002826003811115611373576113736119ad565b036113ad576040517ffce698f700000000000000000000000000000000000000000000000000000000815260048101829052602401610b2a565b60038260038111156113c1576113c16119ad565b036113fb576040517fd78bce0c00000000000000000000000000000000000000000000000000000000815260048101829052602401610b2a565b5050565b60605f61140b8361143c565b6040805160208082528183019092529192505f91906020820181803683375050509182525060208101929092525090565b5f60ff8216601f81111561054f576040517fb3512b0c00000000000000000000000000000000000000000000000000000000815260040160405180910390fd5b5f6020828403121561148c575f80fd5b81357fffffffff0000000000000000000000000000000000000000000000000000000081168114610a72575f80fd5b5f81518084525f5b818110156114df576020818501810151868301820152016114c3565b505f602082860101526020601f19601f83011685010191505092915050565b602081525f610a7260208301846114bb565b80356001600160a01b0381168114611526575f80fd5b919050565b5f806040838503121561153c575f80fd5b61154583611510565b946020939093013593505050565b634e487b7160e01b5f52604160045260245ffd5b5f82601f830112611576575f80fd5b8135602067ffffffffffffffff8083111561159357611593611553565b8260051b604051601f19603f830116810181811084821117156115b8576115b8611553565b60405293845260208187018101949081019250878511156115d7575f80fd5b6020870191505b848210156105b7578135835291830191908301906115de565b5f805f60608486031215611609575f80fd5b833567ffffffffffffffff81111561161f575f80fd5b61162b86828701611567565b9660208601359650604090950135949350505050565b5f805f60608486031215611653575f80fd5b61165c84611510565b925061166a60208501611510565b9150604084013590509250925092565b5f6020828403121561168a575f80fd5b610a7282611510565b5f602082840312156116a3575f80fd5b813567ffffffffffffffff8111156116b9575f80fd5b820160e08185031215610a72575f80fd5b7fff00000000000000000000000000000000000000000000000000000000000000881681525f602060e0602084015261170660e084018a6114bb565b8381036040850152611718818a6114bb565b606085018990526001600160a01b038816608086015260a0850187905284810360c0860152855180825260208088019350909101905f5b8181101561176b5783518352928401929184019160010161174f565b50909c9b505050505050505050505050565b5f806040838503121561178e575f80fd5b823567ffffffffffffffff8111156117a4575f80fd5b6117b085828601611567565b9250506020830135600281106117c4575f80fd5b809150509250929050565b5f805f805f805f60e0888a0312156117e5575f80fd5b6117ee88611510565b96506117fc60208901611510565b95506040880135945060608801359350608088013560ff8116811461181f575f80fd5b9699959850939692959460a0840135945060c09093013592915050565b5f806040838503121561184d575f80fd5b61185683611510565b915061186460208401611510565b90509250929050565b600181811c9082168061188157607f821691505b60208210810361189f57634e487b7160e01b5f52602260045260245ffd5b50919050565b5f602082840312156118b5575f80fd5b81518015158114610a72575f80fd5b634e487b7160e01b5f52603260045260245ffd5b634e487b7160e01b5f52601160045260245ffd5b808202811582820484141761054f5761054f6118d8565b634e487b7160e01b5f52601260045260245ffd5b5f8261193157634e487b7160e01b5f52601260045260245ffd5b500490565b5f60208284031215611946575f80fd5b5051919050565b5f808335601e19843603018112611962575f80fd5b83018035915067ffffffffffffffff82111561197c575f80fd5b6020019150600581901b3603821315611993575f80fd5b9250929050565b8082018082111561054f5761054f6118d8565b634e487b7160e01b5f52602160045260245ffdfea2646970667358221220675141513abbba745c65bf8a5851bf34a4ac3034aa61f9aada4380b2bcae8eba64736f6c63430008180033","linkReferences":{}},"methodIdentifiers":{"DOMAIN_SEPARATOR()":"3644e515","PERMIT_TYPEHASH()":"30adf81f","allowance(address,address)":"dd62ed3e","approve(address,uint256)":"095ea7b3","balanceOf(address)":"70a08231","computeBalance(uint256[],uint256,uint256)":"16a0b3e0","computeInvariant(uint256[],uint8)":"984de9e8","decimals()":"313ce567","eip712Domain()":"84b0196e","emitApproval(address,address,uint256)":"5687f2b8","emitTransfer(address,address,uint256)":"23de6651","getMaximumInvariantRatio()":"273c1adf","getMaximumSwapFeePercentage()":"654cf15d","getMinimumInvariantRatio()":"b677fa56","getMinimumSwapFeePercentage()":"ce20ece7","getRate()":"679aefce","getVault()":"8d928af8","name()":"06fdde03","nonces(address)":"7ecebe00","onSwap((uint8,uint256,uint256[],uint256,uint256,address,bytes))":"72c98186","permit(address,address,uint256,uint256,uint8,bytes32,bytes32)":"d505accf","revokePermit()":"979ac702","supportsInterface(bytes4)":"01ffc9a7","symbol()":"95d89b41","totalSupply()":"18160ddd","transfer(address,uint256)":"a9059cbb","transferFrom(address,address,uint256)":"23b872dd"},"id":13}