{"abi":[{"type":"constructor","inputs":[{"name":"mainVault","type":"address","internalType":"contract IVault"},{"name":"pauseWindowDuration","type":"uint32","internalType":"uint32"},{"name":"bufferPeriodDuration","type":"uint32","internalType":"uint32"},{"name":"minTradeAmount","type":"uint256","internalType":"uint256"},{"name":"minWrapAmount","type":"uint256","internalType":"uint256"}],"stateMutability":"nonpayable"},{"type":"fallback","stateMutability":"payable"},{"type":"receive","stateMutability":"payable"},{"type":"function","name":"addLiquidityToBuffer","inputs":[{"name":"wrappedToken","type":"address","internalType":"contract IERC4626"},{"name":"exactSharesToIssue","type":"uint256","internalType":"uint256"},{"name":"sharesOwner","type":"address","internalType":"address"}],"outputs":[{"name":"amountUnderlyingRaw","type":"uint256","internalType":"uint256"},{"name":"amountWrappedRaw","type":"uint256","internalType":"uint256"}],"stateMutability":"nonpayable"},{"type":"function","name":"addLiquidityToBufferUnbalancedForTests","inputs":[{"name":"wrappedToken","type":"address","internalType":"contract IERC4626"},{"name":"underlyingAmount","type":"uint256","internalType":"uint256"},{"name":"wrappedAmount","type":"uint256","internalType":"uint256"}],"outputs":[],"stateMutability":"nonpayable"},{"type":"function","name":"areBuffersPaused","inputs":[],"outputs":[{"name":"","type":"bool","internalType":"bool"}],"stateMutability":"view"},{"type":"function","name":"collectAggregateFees","inputs":[{"name":"pool","type":"address","internalType":"address"}],"outputs":[{"name":"totalSwapFees","type":"uint256[]","internalType":"uint256[]"},{"name":"totalYieldFees","type":"uint256[]","internalType":"uint256[]"}],"stateMutability":"nonpayable"},{"type":"function","name":"disableQuery","inputs":[],"outputs":[],"stateMutability":"nonpayable"},{"type":"function","name":"disableRecoveryMode","inputs":[{"name":"pool","type":"address","internalType":"address"}],"outputs":[],"stateMutability":"nonpayable"},{"type":"function","name":"enableRecoveryMode","inputs":[{"name":"pool","type":"address","internalType":"address"}],"outputs":[],"stateMutability":"nonpayable"},{"type":"function","name":"getActionId","inputs":[{"name":"selector","type":"bytes4","internalType":"bytes4"}],"outputs":[{"name":"","type":"bytes32","internalType":"bytes32"}],"stateMutability":"view"},{"type":"function","name":"getBufferAsset","inputs":[{"name":"wrappedToken","type":"address","internalType":"contract IERC4626"}],"outputs":[{"name":"underlyingToken","type":"address","internalType":"address"}],"stateMutability":"view"},{"type":"function","name":"getBufferBalance","inputs":[{"name":"token","type":"address","internalType":"contract IERC4626"}],"outputs":[{"name":"","type":"uint256","internalType":"uint256"},{"name":"","type":"uint256","internalType":"uint256"}],"stateMutability":"view"},{"type":"function","name":"getBufferMinimumTotalSupply","inputs":[],"outputs":[{"name":"","type":"uint256","internalType":"uint256"}],"stateMutability":"pure"},{"type":"function","name":"getBufferOwnerShares","inputs":[{"name":"token","type":"address","internalType":"contract IERC4626"},{"name":"user","type":"address","internalType":"address"}],"outputs":[{"name":"shares","type":"uint256","internalType":"uint256"}],"stateMutability":"view"},{"type":"function","name":"getBufferPeriodDuration","inputs":[],"outputs":[{"name":"","type":"uint32","internalType":"uint32"}],"stateMutability":"view"},{"type":"function","name":"getBufferPeriodEndTime","inputs":[],"outputs":[{"name":"","type":"uint32","internalType":"uint32"}],"stateMutability":"view"},{"type":"function","name":"getBufferTotalShares","inputs":[{"name":"token","type":"address","internalType":"contract IERC4626"}],"outputs":[{"name":"shares","type":"uint256","internalType":"uint256"}],"stateMutability":"view"},{"type":"function","name":"getMaximumPoolTokens","inputs":[],"outputs":[{"name":"","type":"uint256","internalType":"uint256"}],"stateMutability":"pure"},{"type":"function","name":"getMinimumPoolTokens","inputs":[],"outputs":[{"name":"","type":"uint256","internalType":"uint256"}],"stateMutability":"pure"},{"type":"function","name":"getMinimumTradeAmount","inputs":[],"outputs":[{"name":"","type":"uint256","internalType":"uint256"}],"stateMutability":"view"},{"type":"function","name":"getMinimumWrapAmount","inputs":[],"outputs":[{"name":"","type":"uint256","internalType":"uint256"}],"stateMutability":"view"},{"type":"function","name":"getPauseWindowEndTime","inputs":[],"outputs":[{"name":"","type":"uint32","internalType":"uint32"}],"stateMutability":"view"},{"type":"function","name":"getPoolMinimumTotalSupply","inputs":[],"outputs":[{"name":"","type":"uint256","internalType":"uint256"}],"stateMutability":"pure"},{"type":"function","name":"getVaultPausedState","inputs":[],"outputs":[{"name":"","type":"bool","internalType":"bool"},{"name":"","type":"uint32","internalType":"uint32"},{"name":"","type":"uint32","internalType":"uint32"}],"stateMutability":"view"},{"type":"function","name":"initializeBuffer","inputs":[{"name":"wrappedToken","type":"address","internalType":"contract IERC4626"},{"name":"amountUnderlyingRaw","type":"uint256","internalType":"uint256"},{"name":"amountWrappedRaw","type":"uint256","internalType":"uint256"},{"name":"sharesOwner","type":"address","internalType":"address"}],"outputs":[{"name":"issuedShares","type":"uint256","internalType":"uint256"}],"stateMutability":"nonpayable"},{"type":"function","name":"isVaultPaused","inputs":[],"outputs":[{"name":"","type":"bool","internalType":"bool"}],"stateMutability":"view"},{"type":"function","name":"manualBurnBufferShares","inputs":[{"name":"wrappedToken","type":"address","internalType":"contract IERC4626"},{"name":"from","type":"address","internalType":"address"},{"name":"amount","type":"uint256","internalType":"uint256"}],"outputs":[],"stateMutability":"nonpayable"},{"type":"function","name":"manualDisableRecoveryMode","inputs":[{"name":"pool","type":"address","internalType":"address"}],"outputs":[],"stateMutability":"nonpayable"},{"type":"function","name":"manualEnableRecoveryMode","inputs":[{"name":"pool","type":"address","internalType":"address"}],"outputs":[],"stateMutability":"nonpayable"},{"type":"function","name":"manualMintBufferShares","inputs":[{"name":"wrappedToken","type":"address","internalType":"contract IERC4626"},{"name":"to","type":"address","internalType":"address"},{"name":"amount","type":"uint256","internalType":"uint256"}],"outputs":[],"stateMutability":"nonpayable"},{"type":"function","name":"manualMintMinimumBufferSupplyReserve","inputs":[{"name":"wrappedToken","type":"address","internalType":"contract IERC4626"}],"outputs":[],"stateMutability":"nonpayable"},{"type":"function","name":"manualPausePool","inputs":[{"name":"pool","type":"address","internalType":"address"}],"outputs":[],"stateMutability":"nonpayable"},{"type":"function","name":"manualPauseVault","inputs":[],"outputs":[],"stateMutability":"nonpayable"},{"type":"function","name":"manualReentrancyAddLiquidityToBuffer","inputs":[{"name":"wrappedToken","type":"address","internalType":"contract IERC4626"},{"name":"exactSharesToIssue","type":"uint256","internalType":"uint256"},{"name":"sharesOwner","type":"address","internalType":"address"}],"outputs":[],"stateMutability":"nonpayable"},{"type":"function","name":"manualReentrancyDisableRecoveryMode","inputs":[{"name":"pool","type":"address","internalType":"address"}],"outputs":[],"stateMutability":"nonpayable"},{"type":"function","name":"manualReentrancyInitializeBuffer","inputs":[{"name":"wrappedToken","type":"address","internalType":"contract IERC4626"},{"name":"amountUnderlying","type":"uint256","internalType":"uint256"},{"name":"amountWrapped","type":"uint256","internalType":"uint256"},{"name":"sharesOwner","type":"address","internalType":"address"}],"outputs":[],"stateMutability":"nonpayable"},{"type":"function","name":"manualReentrancyRemoveLiquidityFromBufferHook","inputs":[{"name":"wrappedToken","type":"address","internalType":"contract IERC4626"},{"name":"sharesToRemove","type":"uint256","internalType":"uint256"},{"name":"sharesOwner","type":"address","internalType":"address"}],"outputs":[],"stateMutability":"nonpayable"},{"type":"function","name":"manualUnpausePool","inputs":[{"name":"pool","type":"address","internalType":"address"}],"outputs":[],"stateMutability":"nonpayable"},{"type":"function","name":"manualUnpauseVault","inputs":[],"outputs":[],"stateMutability":"nonpayable"},{"type":"function","name":"mockEnsurePoolNotInRecoveryMode","inputs":[{"name":"pool","type":"address","internalType":"address"}],"outputs":[],"stateMutability":"view"},{"type":"function","name":"mockWithValidPercentage","inputs":[{"name":"percentage","type":"uint256","internalType":"uint256"}],"outputs":[],"stateMutability":"pure"},{"type":"function","name":"pausePool","inputs":[{"name":"pool","type":"address","internalType":"address"}],"outputs":[],"stateMutability":"nonpayable"},{"type":"function","name":"pauseVault","inputs":[],"outputs":[],"stateMutability":"nonpayable"},{"type":"function","name":"pauseVaultBuffers","inputs":[],"outputs":[],"stateMutability":"nonpayable"},{"type":"function","name":"reentrancyGuardEntered","inputs":[],"outputs":[{"name":"","type":"bool","internalType":"bool"}],"stateMutability":"view"},{"type":"function","name":"removeLiquidityFromBuffer","inputs":[{"name":"wrappedToken","type":"address","internalType":"contract IERC4626"},{"name":"sharesToRemove","type":"uint256","internalType":"uint256"}],"outputs":[{"name":"removedUnderlyingBalanceRaw","type":"uint256","internalType":"uint256"},{"name":"removedWrappedBalanceRaw","type":"uint256","internalType":"uint256"}],"stateMutability":"nonpayable"},{"type":"function","name":"removeLiquidityFromBufferHook","inputs":[{"name":"wrappedToken","type":"address","internalType":"contract IERC4626"},{"name":"sharesToRemove","type":"uint256","internalType":"uint256"},{"name":"sharesOwner","type":"address","internalType":"address"}],"outputs":[{"name":"removedUnderlyingBalanceRaw","type":"uint256","internalType":"uint256"},{"name":"removedWrappedBalanceRaw","type":"uint256","internalType":"uint256"}],"stateMutability":"nonpayable"},{"type":"function","name":"setAuthorizer","inputs":[{"name":"newAuthorizer","type":"address","internalType":"contract IAuthorizer"}],"outputs":[],"stateMutability":"nonpayable"},{"type":"function","name":"setProtocolFeeController","inputs":[{"name":"newProtocolFeeController","type":"address","internalType":"contract IProtocolFeeController"}],"outputs":[],"stateMutability":"nonpayable"},{"type":"function","name":"setStaticSwapFeePercentage","inputs":[{"name":"pool","type":"address","internalType":"address"},{"name":"swapFeePercentage","type":"uint256","internalType":"uint256"}],"outputs":[],"stateMutability":"nonpayable"},{"type":"function","name":"unpausePool","inputs":[{"name":"pool","type":"address","internalType":"address"}],"outputs":[],"stateMutability":"nonpayable"},{"type":"function","name":"unpauseVault","inputs":[],"outputs":[],"stateMutability":"nonpayable"},{"type":"function","name":"unpauseVaultBuffers","inputs":[],"outputs":[],"stateMutability":"nonpayable"},{"type":"function","name":"updateAggregateSwapFeePercentage","inputs":[{"name":"pool","type":"address","internalType":"address"},{"name":"newAggregateSwapFeePercentage","type":"uint256","internalType":"uint256"}],"outputs":[],"stateMutability":"nonpayable"},{"type":"function","name":"updateAggregateYieldFeePercentage","inputs":[{"name":"pool","type":"address","internalType":"address"},{"name":"newAggregateYieldFeePercentage","type":"uint256","internalType":"uint256"}],"outputs":[],"stateMutability":"nonpayable"},{"type":"function","name":"vault","inputs":[],"outputs":[{"name":"","type":"address","internalType":"contract IVault"}],"stateMutability":"view"},{"type":"event","name":"AggregateSwapFeePercentageChanged","inputs":[{"name":"pool","type":"address","indexed":true,"internalType":"address"},{"name":"aggregateSwapFeePercentage","type":"uint256","indexed":false,"internalType":"uint256"}],"anonymous":false},{"type":"event","name":"AggregateYieldFeePercentageChanged","inputs":[{"name":"pool","type":"address","indexed":true,"internalType":"address"},{"name":"aggregateYieldFeePercentage","type":"uint256","indexed":false,"internalType":"uint256"}],"anonymous":false},{"type":"event","name":"Approval","inputs":[{"name":"pool","type":"address","indexed":true,"internalType":"address"},{"name":"owner","type":"address","indexed":true,"internalType":"address"},{"name":"spender","type":"address","indexed":true,"internalType":"address"},{"name":"value","type":"uint256","indexed":false,"internalType":"uint256"}],"anonymous":false},{"type":"event","name":"AuthorizerChanged","inputs":[{"name":"newAuthorizer","type":"address","indexed":true,"internalType":"contract IAuthorizer"}],"anonymous":false},{"type":"event","name":"BufferSharesBurned","inputs":[{"name":"wrappedToken","type":"address","indexed":true,"internalType":"contract IERC4626"},{"name":"from","type":"address","indexed":true,"internalType":"address"},{"name":"burnedShares","type":"uint256","indexed":false,"internalType":"uint256"}],"anonymous":false},{"type":"event","name":"BufferSharesMinted","inputs":[{"name":"wrappedToken","type":"address","indexed":true,"internalType":"contract IERC4626"},{"name":"to","type":"address","indexed":true,"internalType":"address"},{"name":"issuedShares","type":"uint256","indexed":false,"internalType":"uint256"}],"anonymous":false},{"type":"event","name":"LiquidityAddedToBuffer","inputs":[{"name":"wrappedToken","type":"address","indexed":true,"internalType":"contract IERC4626"},{"name":"amountUnderlying","type":"uint256","indexed":false,"internalType":"uint256"},{"name":"amountWrapped","type":"uint256","indexed":false,"internalType":"uint256"}],"anonymous":false},{"type":"event","name":"LiquidityRemovedFromBuffer","inputs":[{"name":"wrappedToken","type":"address","indexed":true,"internalType":"contract IERC4626"},{"name":"amountUnderlying","type":"uint256","indexed":false,"internalType":"uint256"},{"name":"amountWrapped","type":"uint256","indexed":false,"internalType":"uint256"}],"anonymous":false},{"type":"event","name":"PoolBalanceChanged","inputs":[{"name":"pool","type":"address","indexed":true,"internalType":"address"},{"name":"liquidityProvider","type":"address","indexed":true,"internalType":"address"},{"name":"totalSupply","type":"uint256","indexed":false,"internalType":"uint256"},{"name":"deltas","type":"int256[]","indexed":false,"internalType":"int256[]"},{"name":"swapFeeAmountsRaw","type":"uint256[]","indexed":false,"internalType":"uint256[]"}],"anonymous":false},{"type":"event","name":"PoolInitialized","inputs":[{"name":"pool","type":"address","indexed":true,"internalType":"address"}],"anonymous":false},{"type":"event","name":"PoolPausedStateChanged","inputs":[{"name":"pool","type":"address","indexed":true,"internalType":"address"},{"name":"paused","type":"bool","indexed":false,"internalType":"bool"}],"anonymous":false},{"type":"event","name":"PoolRecoveryModeStateChanged","inputs":[{"name":"pool","type":"address","indexed":true,"internalType":"address"},{"name":"recoveryMode","type":"bool","indexed":false,"internalType":"bool"}],"anonymous":false},{"type":"event","name":"PoolRegistered","inputs":[{"name":"pool","type":"address","indexed":true,"internalType":"address"},{"name":"factory","type":"address","indexed":true,"internalType":"address"},{"name":"tokenConfig","type":"tuple[]","indexed":false,"internalType":"struct TokenConfig[]","components":[{"name":"token","type":"address","internalType":"contract IERC20"},{"name":"tokenType","type":"uint8","internalType":"enum TokenType"},{"name":"rateProvider","type":"address","internalType":"contract IRateProvider"},{"name":"paysYieldFees","type":"bool","internalType":"bool"}]},{"name":"swapFeePercentage","type":"uint256","indexed":false,"internalType":"uint256"},{"name":"pauseWindowEndTime","type":"uint32","indexed":false,"internalType":"uint32"},{"name":"roleAccounts","type":"tuple","indexed":false,"internalType":"struct PoolRoleAccounts","components":[{"name":"pauseManager","type":"address","internalType":"address"},{"name":"swapFeeManager","type":"address","internalType":"address"},{"name":"poolCreator","type":"address","internalType":"address"}]},{"name":"hooksConfig","type":"tuple","indexed":false,"internalType":"struct HooksConfig","components":[{"name":"enableHookAdjustedAmounts","type":"bool","internalType":"bool"},{"name":"shouldCallBeforeInitialize","type":"bool","internalType":"bool"},{"name":"shouldCallAfterInitialize","type":"bool","internalType":"bool"},{"name":"shouldCallComputeDynamicSwapFee","type":"bool","internalType":"bool"},{"name":"shouldCallBeforeSwap","type":"bool","internalType":"bool"},{"name":"shouldCallAfterSwap","type":"bool","internalType":"bool"},{"name":"shouldCallBeforeAddLiquidity","type":"bool","internalType":"bool"},{"name":"shouldCallAfterAddLiquidity","type":"bool","internalType":"bool"},{"name":"shouldCallBeforeRemoveLiquidity","type":"bool","internalType":"bool"},{"name":"shouldCallAfterRemoveLiquidity","type":"bool","internalType":"bool"},{"name":"hooksContract","type":"address","internalType":"address"}]},{"name":"liquidityManagement","type":"tuple","indexed":false,"internalType":"struct LiquidityManagement","components":[{"name":"disableUnbalancedLiquidity","type":"bool","internalType":"bool"},{"name":"enableAddLiquidityCustom","type":"bool","internalType":"bool"},{"name":"enableRemoveLiquidityCustom","type":"bool","internalType":"bool"},{"name":"enableDonation","type":"bool","internalType":"bool"}]}],"anonymous":false},{"type":"event","name":"ProtocolFeeControllerChanged","inputs":[{"name":"newProtocolFeeController","type":"address","indexed":true,"internalType":"contract IProtocolFeeController"}],"anonymous":false},{"type":"event","name":"Swap","inputs":[{"name":"pool","type":"address","indexed":true,"internalType":"address"},{"name":"tokenIn","type":"address","indexed":true,"internalType":"contract IERC20"},{"name":"tokenOut","type":"address","indexed":true,"internalType":"contract IERC20"},{"name":"amountIn","type":"uint256","indexed":false,"internalType":"uint256"},{"name":"amountOut","type":"uint256","indexed":false,"internalType":"uint256"},{"name":"swapFeePercentage","type":"uint256","indexed":false,"internalType":"uint256"},{"name":"swapFeeAmount","type":"uint256","indexed":false,"internalType":"uint256"}],"anonymous":false},{"type":"event","name":"SwapFeePercentageChanged","inputs":[{"name":"pool","type":"address","indexed":true,"internalType":"address"},{"name":"swapFeePercentage","type":"uint256","indexed":false,"internalType":"uint256"}],"anonymous":false},{"type":"event","name":"Transfer","inputs":[{"name":"pool","type":"address","indexed":true,"internalType":"address"},{"name":"from","type":"address","indexed":true,"internalType":"address"},{"name":"to","type":"address","indexed":true,"internalType":"address"},{"name":"value","type":"uint256","indexed":false,"internalType":"uint256"}],"anonymous":false},{"type":"event","name":"Unwrap","inputs":[{"name":"wrappedToken","type":"address","indexed":true,"internalType":"contract IERC4626"},{"name":"underlyingToken","type":"address","indexed":true,"internalType":"contract IERC20"},{"name":"burnedShares","type":"uint256","indexed":false,"internalType":"uint256"},{"name":"withdrawnUnderlying","type":"uint256","indexed":false,"internalType":"uint256"}],"anonymous":false},{"type":"event","name":"VaultBuffersPausedStateChanged","inputs":[{"name":"paused","type":"bool","indexed":false,"internalType":"bool"}],"anonymous":false},{"type":"event","name":"VaultPausedStateChanged","inputs":[{"name":"paused","type":"bool","indexed":false,"internalType":"bool"}],"anonymous":false},{"type":"event","name":"VaultQueriesDisabled","inputs":[],"anonymous":false},{"type":"event","name":"Wrap","inputs":[{"name":"underlyingToken","type":"address","indexed":true,"internalType":"contract IERC20"},{"name":"wrappedToken","type":"address","indexed":true,"internalType":"contract IERC4626"},{"name":"depositedUnderlying","type":"uint256","indexed":false,"internalType":"uint256"},{"name":"mintedShares","type":"uint256","indexed":false,"internalType":"uint256"}],"anonymous":false},{"type":"error","name":"AfterAddLiquidityHookFailed","inputs":[]},{"type":"error","name":"AfterInitializeHookFailed","inputs":[]},{"type":"error","name":"AfterRemoveLiquidityHookFailed","inputs":[]},{"type":"error","name":"AfterSwapHookFailed","inputs":[]},{"type":"error","name":"AmountGivenZero","inputs":[]},{"type":"error","name":"AmountInAboveMax","inputs":[{"name":"tokenIn","type":"address","internalType":"contract IERC20"},{"name":"amountIn","type":"uint256","internalType":"uint256"},{"name":"maxAmountIn","type":"uint256","internalType":"uint256"}]},{"type":"error","name":"AmountOutBelowMin","inputs":[{"name":"tokenOut","type":"address","internalType":"contract IERC20"},{"name":"amountOut","type":"uint256","internalType":"uint256"},{"name":"minAmountOut","type":"uint256","internalType":"uint256"}]},{"type":"error","name":"BalanceNotSettled","inputs":[]},{"type":"error","name":"BalanceOverflow","inputs":[]},{"type":"error","name":"BeforeAddLiquidityHookFailed","inputs":[]},{"type":"error","name":"BeforeInitializeHookFailed","inputs":[]},{"type":"error","name":"BeforeRemoveLiquidityHookFailed","inputs":[]},{"type":"error","name":"BeforeSwapHookFailed","inputs":[]},{"type":"error","name":"BptAmountInAboveMax","inputs":[{"name":"amountIn","type":"uint256","internalType":"uint256"},{"name":"maxAmountIn","type":"uint256","internalType":"uint256"}]},{"type":"error","name":"BptAmountOutBelowMin","inputs":[{"name":"amountOut","type":"uint256","internalType":"uint256"},{"name":"minAmountOut","type":"uint256","internalType":"uint256"}]},{"type":"error","name":"BufferAlreadyInitialized","inputs":[{"name":"wrappedToken","type":"address","internalType":"contract IERC4626"}]},{"type":"error","name":"BufferNotInitialized","inputs":[{"name":"wrappedToken","type":"address","internalType":"contract IERC4626"}]},{"type":"error","name":"BufferSharesInvalidOwner","inputs":[]},{"type":"error","name":"BufferSharesInvalidReceiver","inputs":[]},{"type":"error","name":"BufferTotalSupplyTooLow","inputs":[{"name":"totalSupply","type":"uint256","internalType":"uint256"}]},{"type":"error","name":"CannotReceiveEth","inputs":[]},{"type":"error","name":"CannotSwapSameToken","inputs":[]},{"type":"error","name":"CodecOverflow","inputs":[]},{"type":"error","name":"DoesNotSupportAddLiquidityCustom","inputs":[]},{"type":"error","name":"DoesNotSupportDonation","inputs":[]},{"type":"error","name":"DoesNotSupportRemoveLiquidityCustom","inputs":[]},{"type":"error","name":"DoesNotSupportUnbalancedLiquidity","inputs":[]},{"type":"error","name":"DynamicSwapFeeHookFailed","inputs":[]},{"type":"error","name":"ERC20InsufficientAllowance","inputs":[{"name":"spender","type":"address","internalType":"address"},{"name":"allowance","type":"uint256","internalType":"uint256"},{"name":"needed","type":"uint256","internalType":"uint256"}]},{"type":"error","name":"ERC20InsufficientBalance","inputs":[{"name":"sender","type":"address","internalType":"address"},{"name":"balance","type":"uint256","internalType":"uint256"},{"name":"needed","type":"uint256","internalType":"uint256"}]},{"type":"error","name":"ERC20InvalidApprover","inputs":[{"name":"approver","type":"address","internalType":"address"}]},{"type":"error","name":"ERC20InvalidReceiver","inputs":[{"name":"receiver","type":"address","internalType":"address"}]},{"type":"error","name":"ERC20InvalidSender","inputs":[{"name":"sender","type":"address","internalType":"address"}]},{"type":"error","name":"ERC20InvalidSpender","inputs":[{"name":"spender","type":"address","internalType":"address"}]},{"type":"error","name":"FeePrecisionTooHigh","inputs":[]},{"type":"error","name":"HookAdjustedAmountInAboveMax","inputs":[{"name":"tokenIn","type":"address","internalType":"contract IERC20"},{"name":"amountIn","type":"uint256","internalType":"uint256"},{"name":"maxAmountIn","type":"uint256","internalType":"uint256"}]},{"type":"error","name":"HookAdjustedAmountOutBelowMin","inputs":[{"name":"tokenOut","type":"address","internalType":"contract IERC20"},{"name":"amountOut","type":"uint256","internalType":"uint256"},{"name":"minAmountOut","type":"uint256","internalType":"uint256"}]},{"type":"error","name":"HookAdjustedSwapLimit","inputs":[{"name":"amount","type":"uint256","internalType":"uint256"},{"name":"limit","type":"uint256","internalType":"uint256"}]},{"type":"error","name":"HookRegistrationFailed","inputs":[{"name":"poolHooksContract","type":"address","internalType":"address"},{"name":"pool","type":"address","internalType":"address"},{"name":"poolFactory","type":"address","internalType":"address"}]},{"type":"error","name":"InvalidAddLiquidityKind","inputs":[]},{"type":"error","name":"InvalidRemoveLiquidityKind","inputs":[]},{"type":"error","name":"InvalidToken","inputs":[]},{"type":"error","name":"InvalidTokenConfiguration","inputs":[]},{"type":"error","name":"InvalidTokenType","inputs":[]},{"type":"error","name":"InvalidUnderlyingToken","inputs":[{"name":"wrappedToken","type":"address","internalType":"contract IERC4626"}]},{"type":"error","name":"MaxTokens","inputs":[]},{"type":"error","name":"MinTokens","inputs":[]},{"type":"error","name":"NotEnoughBufferShares","inputs":[]},{"type":"error","name":"NotEnoughUnderlying","inputs":[{"name":"wrappedToken","type":"address","internalType":"contract IERC4626"},{"name":"expectedUnderlyingAmount","type":"uint256","internalType":"uint256"},{"name":"actualUnderlyingAmount","type":"uint256","internalType":"uint256"}]},{"type":"error","name":"NotEnoughWrapped","inputs":[{"name":"wrappedToken","type":"address","internalType":"contract IERC4626"},{"name":"expectedWrappedAmount","type":"uint256","internalType":"uint256"},{"name":"actualWrappedAmount","type":"uint256","internalType":"uint256"}]},{"type":"error","name":"NotVaultDelegateCall","inputs":[]},{"type":"error","name":"OutOfBounds","inputs":[]},{"type":"error","name":"PauseBufferPeriodDurationTooLarge","inputs":[]},{"type":"error","name":"PercentageAboveMax","inputs":[]},{"type":"error","name":"PoolAlreadyInitialized","inputs":[{"name":"pool","type":"address","internalType":"address"}]},{"type":"error","name":"PoolAlreadyRegistered","inputs":[{"name":"pool","type":"address","internalType":"address"}]},{"type":"error","name":"PoolInRecoveryMode","inputs":[{"name":"pool","type":"address","internalType":"address"}]},{"type":"error","name":"PoolNotInRecoveryMode","inputs":[{"name":"pool","type":"address","internalType":"address"}]},{"type":"error","name":"PoolNotInitialized","inputs":[{"name":"pool","type":"address","internalType":"address"}]},{"type":"error","name":"PoolNotPaused","inputs":[{"name":"pool","type":"address","internalType":"address"}]},{"type":"error","name":"PoolNotRegistered","inputs":[{"name":"pool","type":"address","internalType":"address"}]},{"type":"error","name":"PoolPauseWindowExpired","inputs":[{"name":"pool","type":"address","internalType":"address"}]},{"type":"error","name":"PoolPaused","inputs":[{"name":"pool","type":"address","internalType":"address"}]},{"type":"error","name":"PoolTotalSupplyTooLow","inputs":[{"name":"totalSupply","type":"uint256","internalType":"uint256"}]},{"type":"error","name":"ProtocolFeesExceedTotalCollected","inputs":[]},{"type":"error","name":"QueriesDisabled","inputs":[]},{"type":"error","name":"QuoteResultSpoofed","inputs":[]},{"type":"error","name":"ReentrancyGuardReentrantCall","inputs":[]},{"type":"error","name":"RouterNotTrusted","inputs":[]},{"type":"error","name":"SafeCastOverflowedUintDowncast","inputs":[{"name":"bits","type":"uint8","internalType":"uint8"},{"name":"value","type":"uint256","internalType":"uint256"}]},{"type":"error","name":"SafeCastOverflowedUintToInt","inputs":[{"name":"value","type":"uint256","internalType":"uint256"}]},{"type":"error","name":"SenderIsNotVault","inputs":[{"name":"sender","type":"address","internalType":"address"}]},{"type":"error","name":"SenderNotAllowed","inputs":[]},{"type":"error","name":"SwapFeePercentageTooHigh","inputs":[]},{"type":"error","name":"SwapFeePercentageTooLow","inputs":[]},{"type":"error","name":"SwapLimit","inputs":[{"name":"amount","type":"uint256","internalType":"uint256"},{"name":"limit","type":"uint256","internalType":"uint256"}]},{"type":"error","name":"TokenAlreadyRegistered","inputs":[{"name":"token","type":"address","internalType":"contract IERC20"}]},{"type":"error","name":"TokenNotRegistered","inputs":[{"name":"token","type":"address","internalType":"contract IERC20"}]},{"type":"error","name":"TokensMismatch","inputs":[{"name":"pool","type":"address","internalType":"address"},{"name":"expectedToken","type":"address","internalType":"address"},{"name":"actualToken","type":"address","internalType":"address"}]},{"type":"error","name":"TradeAmountTooSmall","inputs":[]},{"type":"error","name":"VaultBuffersArePaused","inputs":[]},{"type":"error","name":"VaultIsNotUnlocked","inputs":[]},{"type":"error","name":"VaultNotPaused","inputs":[]},{"type":"error","name":"VaultPauseWindowDurationTooLarge","inputs":[]},{"type":"error","name":"VaultPauseWindowExpired","inputs":[]},{"type":"error","name":"VaultPaused","inputs":[]},{"type":"error","name":"WrapAmountTooSmall","inputs":[{"name":"wrappedToken","type":"address","internalType":"contract IERC4626"}]},{"type":"error","name":"WrongProtocolFeeControllerDeployment","inputs":[]},{"type":"error","name":"WrongUnderlyingToken","inputs":[{"name":"wrappedToken","type":"address","internalType":"contract IERC4626"},{"name":"underlyingToken","type":"address","internalType":"address"}]},{"type":"error","name":"WrongVaultAdminDeployment","inputs":[]},{"type":"error","name":"WrongVaultExtensionDeployment","inputs":[]},{"type":"error","name":"ZeroDivision","inputs":[]}],"bytecode":{"object":"0x610220604052600a6101e0908152691a5cd55b9b1bd8dad95960b21b610200526200002a90620001cb565b60c0526040805180820190915260118152701b9bdb96995c9bd1195b1d1850dbdd5b9d607a1b60208201526200006090620001cb565b60e05260408051808201909152600b81526a746f6b656e44656c74617360a81b60208201526200009090620001cb565b61010052604080518082019091526012815271185919131a5c5d5a591a5d1e50d85b1b195960721b6020820152620000c890620001cb565b61012052348015620000d8575f80fd5b506040516200550f3803806200550f833981016040819052620000fb91620002cd565b6001600160a01b0385166101a08190526101c0528484848484630784ce0063ffffffff85161115620001405760405163cc0e8fe560e01b815260040160405180910390fd5b6276a7008363ffffffff1611156200016b57604051634f5277f760e11b815260040160405180910390fd5b5f620001886200018263ffffffff87164262000346565b62000208565b63ffffffff808216610140528516610180529050620001a884826200035c565b63ffffffff16610160525060809190915260a052506200041a9650505050505050565b5f6200020260405180604001604052600c8152806020016b5661756c7453746f7261676560a01b815250836200024160201b60201c565b92915050565b5f63ffffffff8211156200023d576040516306dfcc6560e41b8152602060048201526024810183905260440160405180910390fd5b5090565b5f60ff5f1b19600184846040516020016200025e929190620003b2565b604051602081830303815290604052805190602001205f1c62000282919062000404565b6040516020016200029591815260200190565b6040516020818303038152906040528051906020012016905092915050565b805163ffffffff81168114620002c8575f80fd5b919050565b5f805f805f60a08688031215620002e2575f80fd5b85516001600160a01b0381168114620002f9575f80fd5b94506200030960208701620002b4565b93506200031960408701620002b4565b6060870151608090970151959894975095949392505050565b634e487b7160e01b5f52601160045260245ffd5b8082018082111562000202576200020262000332565b63ffffffff8181168382160190808211156200037c576200037c62000332565b5092915050565b5f81515f5b81811015620003a4576020818501810151868301520162000388565b505f93019283525090919050565b7f62616c616e6365722d6c6162732e76332e73746f726167652e0000000000000081525f620003e5601983018562000383565b601760f91b8152620003fb600182018562000383565b95945050505050565b8181038181111562000202576200020262000332565b60805160a05160c05160e05161010051610120516101405161016051610180516101a0516101c051614f746200059b5f395f8181610ade01528181610b0801528181610b5801528181610be801528181610c27015281816111a30152818161123501528181611284015281816113ff015281816116a70152818161173b01528181611787015281816117c40152818161195101528181611a0301528181611aa701528181611d6401528181611dc301528181611dfd01528181611e4001528181611e9701528181611f11015281816120d60152818161229601528181612322015281816123cf01528181612447015281816124c201528181612506015281816126180152818161265f015261339501525f6118e801525f818161052f0152613c1401525f81816108f3015281816119ac015261284101525f81816107e801528181611989015261276001525f50505f818161390701526139a501525f8181613947015261397c01525f612bd301525f6106b001525f610a300152614f745ff3fe608060405260043610610358575f3560e01c806385c8c015116101ba578063d15126ba116100f6578063e253670a11610094578063e99ac9a31161006e578063e99ac9a314610a73578063f21c38cd14610a92578063f2784e0714610ab1578063fbfa77cf14610ad057610376565b8063e253670a14610a03578063e2cb0ba014610a22578063e833889414610a5457610376565b8063db1e288d116100d0578063db1e288d1461099d578063dc3f574e146109bc578063de1a36a6146109db578063e085c5a8146109ef57610376565b8063d15126ba1461092c578063d2c725e01461094b578063d446e4a61461097e57610376565b80639e0879c211610163578063bffb78b21161013d578063bffb78b2146108b2578063cc671ff7146108d1578063cd51c12f146108e5578063d0965a6b1461091757610376565b80639e0879c214610877578063a8175b271461088b578063b9212b491461089e57610376565b80638f4ab9ca116101945780638f4ab9ca1461080c57806391b77cf3146108395780639385e39a1461085857610376565b806385c8c0151461078357806388e5101a146107bb5780638a8d123a146107da57610376565b80632d7713891161029457806353956aa2116102325780635e0b06f41161020c5780635e0b06f4146107075780636b230291146107265780637578abb914610745578063851c1bb31461076457610376565b806353956aa2146106a257806355aca1ec146106d457806355cba7fe146106f357610376565b80633828ecad1161026e5780633828ecad1461062657806340058e35146106455780634021fe0f1461066457806352b9e33d1461068357610376565b80632d771389146105c05780632e42f4d5146105df57806335b60a19146105f257610376565b80631558356e1161030157806320c1fb7a116102db57806320c1fb7a1461052157806325002fcf1461056457806326a8a9911461058357806327521d0c146105a157610376565b80631558356e146104c457806316df26cb146104e35780631f568ea31461050257610376565b8063098401f511610332578063098401f51461046d5780630b7562be146104915780630b9df1f6146104a557610376565b80630387587d146103fc578063058a628f14610438578063071d8a021461045957610376565b3661037657604051637911c44b60e11b815260040160405180910390fd5b341561039557604051637911c44b60e11b815260040160405180910390fd5b6040517f08c379a000000000000000000000000000000000000000000000000000000000815260206004820152600f60248201527f4e6f7420696d706c656d656e746564000000000000000000000000000000000060448201526064015b60405180910390fd5b348015610407575f80fd5b5061041b6104163660046148b7565b610b02565b6040516001600160a01b0390911681526020015b60405180910390f35b348015610443575f80fd5b506104576104523660046148b7565b610b53565b005b348015610464575f80fd5b50610457610bd6565b348015610478575f80fd5b50610481610be2565b604051901515815260200161042f565b34801561049c575f80fd5b50610457610c22565b3480156104b0575f80fd5b506104576104bf3660046148b7565b610c65565b3480156104cf575f80fd5b506104576104de3660046148b7565b610c71565b3480156104ee575f80fd5b506104576104fd3660046148b7565b610ca6565b34801561050d575f80fd5b5061045761051c3660046148d2565b610d23565b34801561052c575f80fd5b507f00000000000000000000000000000000000000000000000000000000000000005b60405163ffffffff909116815260200161042f565b34801561056f575f80fd5b5061045761057e366004614904565b6110dd565b34801561058e575f80fd5b506127105b60405190815260200161042f565b3480156105ac575f80fd5b506104576105bb3660046148b7565b61118a565b3480156105cb575f80fd5b506104576105da3660046148b7565b61119e565b3480156105ea575f80fd5b506008610593565b3480156105fd575f80fd5b5061061161060c36600461494b565b61122e565b6040805192835260208301919091520161042f565b348015610631575f80fd5b50610457610640366004614975565b61136c565b348015610650575f80fd5b5061059361065f366004614904565b6113f9565b34801561066f575f80fd5b5061061161067e3660046148b7565b6116a0565b34801561068e575f80fd5b5061045761069d3660046148b7565b611704565b3480156106ad575f80fd5b507f0000000000000000000000000000000000000000000000000000000000000000610593565b3480156106df575f80fd5b506104576106ee3660046148b7565b611736565b3480156106fe575f80fd5b50610481611781565b348015610712575f80fd5b5061045761072136600461494b565b6117bf565b348015610731575f80fd5b506104576107403660046149b4565b6118c7565b348015610750575f80fd5b5061045761075f3660046148b7565b6118d2565b34801561076f575f80fd5b5061059361077e3660046149f2565b6118e5565b34801561078e575f80fd5b50610797611949565b60408051931515845263ffffffff928316602085015291169082015260600161042f565b3480156107c6575f80fd5b506104576107d5366004614a19565b6119d1565b3480156107e5575f80fd5b507f000000000000000000000000000000000000000000000000000000000000000061054f565b348015610817575f80fd5b5061082b6108263660046148b7565b6119fb565b60405161042f929190614a6a565b348015610844575f80fd5b50610457610853366004614975565b611d02565b348015610863575f80fd5b50610593610872366004614a97565b611d5e565b348015610882575f80fd5b50610457611dbe565b348015610896575f80fd5b506002610593565b3480156108a9575f80fd5b50610457611df8565b3480156108bd575f80fd5b506104576108cc3660046148b7565b611e3b565b3480156108dc575f80fd5b50610457610c5c565b3480156108f0575f80fd5b507f000000000000000000000000000000000000000000000000000000000000000061054f565b348015610922575f80fd5b50620f4240610593565b348015610937575f80fd5b5061045761094636600461494b565b611e92565b348015610956575f80fd5b507f9b779b17422d0df92223018b32b4d1fa46e071723d6817e2486d003becc55f005c610481565b348015610989575f80fd5b50610611610998366004614975565b611f0a565b3480156109a8575f80fd5b506106116109b7366004614975565b6120cf565b3480156109c7575f80fd5b506104576109d63660046148b7565b6123ca565b3480156109e6575f80fd5b50610457612442565b3480156109fa575f80fd5b506104576124bd565b348015610a0e575f80fd5b50610457610a1d36600461494b565b612501565b348015610a2d575f80fd5b507f0000000000000000000000000000000000000000000000000000000000000000610593565b348015610a5f575f80fd5b50610457610a6e3660046149b4565b6125ff565b348015610a7e575f80fd5b50610457610a8d3660046148b7565b61260a565b348015610a9d575f80fd5b50610457610aac3660046148b7565b612613565b348015610abc575f80fd5b50610593610acb3660046148b7565b612659565b348015610adb575f80fd5b507f000000000000000000000000000000000000000000000000000000000000000061041b565b5f610b357f00000000000000000000000000000000000000000000000000000000000000006001600160a01b03166126a7565b506001600160a01b039081165f908152600e60205260409020541690565b610b857f00000000000000000000000000000000000000000000000000000000000000006001600160a01b03166126a7565b610b8d6126e9565b600980546001600160a01b0319166001600160a01b0383169081179091556040517f94b979b6831a51293e2641426f97747feed46f17779fed9cd18d1ecefcfe92ef905f90a250565b610be06001612727565b565b5f610c157f00000000000000000000000000000000000000000000000000000000000000006001600160a01b03166126a7565b610c1d61283e565b905090565b610c547f00000000000000000000000000000000000000000000000000000000000000006001600160a01b03166126a7565b610c5c6126e9565b610be05f612727565b610c6e8161287b565b50565b6001600160a01b0381165f90815260016020819052604090912080546001600160a01b03191633179055610c6e9082906128c6565b610cae612a34565b6040517fbffb78b20000000000000000000000000000000000000000000000000000000081526001600160a01b0382166004820152309063bffb78b2906024015f604051808303815f87803b158015610d05575f80fd5b505af1158015610d17573d5f803e3d5ffd5b50505050610c6e612aba565b6001600160a01b0383165f908152600b60205260409020548215610f1257836001600160a01b03166338d52e0f6040518163ffffffff1660e01b8152600401602060405180830381865afa158015610d7d573d5f803e3d5ffd5b505050506040513d601f19601f82011682018060405250810190610da19190614ace565b6040516323b872dd60e01b8152336004820152306024820152604481018590526001600160a01b0391909116906323b872dd906064016020604051808303815f875af1158015610df3573d5f803e3d5ffd5b505050506040513d601f19601f82011682018060405250810190610e179190614ae9565b508260085f866001600160a01b03166338d52e0f6040518163ffffffff1660e01b8152600401602060405180830381865afa158015610e58573d5f803e3d5ffd5b505050506040513d601f19601f82011682018060405250810190610e7c9190614ace565b6001600160a01b03166001600160a01b031681526020019081526020015f205f828254610ea99190614b1c565b90915550506001600160a01b0384165f908152600d602052604081208054859290610ed5908490614b1c565b90915550506001600160a01b0384165f908152600c6020908152604080832033845290915281208054859290610f0c908490614b1c565b90915550505b811561108c576040516323b872dd60e01b8152336004820152306024820152604481018390526001600160a01b038516906323b872dd906064016020604051808303815f875af1158015610f68573d5f803e3d5ffd5b505050506040513d601f19601f82011682018060405250810190610f8c9190614ae9565b506001600160a01b0384165f9081526008602052604081208054849290610fb4908490614b1c565b909155505060405163266d6a8360e11b8152600481018390525f906001600160a01b03861690634cdad50690602401602060405180830381865afa158015610ffe573d5f803e3d5ffd5b505050506040513d601f19601f820116820180604052508101906110229190614b2f565b6001600160a01b0386165f908152600d602052604081208054929350839290919061104e908490614b1c565b90915550506001600160a01b0385165f908152600c6020908152604080832033845290915281208054839290611085908490614b1c565b9091555050505b6110bc6110a2846001600160801b038416614b1c565b836110ad8460801c90565b6110b79190614b1c565b612ae4565b6001600160a01b039094165f908152600b6020526040902093909355505050565b6110e5612a34565b6040517f40058e350000000000000000000000000000000000000000000000000000000081526001600160a01b03808616600483015260248201859052604482018490528216606482015230906340058e35906084016020604051808303815f875af1158015611157573d5f803e3d5ffd5b505050506040513d601f19601f8201168201806040525081019061117b9190614b2f565b50611184612aba565b50505050565b6111938161287b565b610c6e816001612b48565b6111d07f00000000000000000000000000000000000000000000000000000000000000006001600160a01b03166126a7565b6111d86126e9565b6111e0612a34565b600a80546001600160a01b0319166001600160a01b0383169081179091556040517f280a60b1e63c1774d397d35cce80eb80e51408ead755fb446e6f744ce98e5df0905f90a2610c6e612aba565b5f806112627f00000000000000000000000000000000000000000000000000000000000000006001600160a01b03166126a7565b6040516001600160a01b038581166024830152604482018590523360648301527f000000000000000000000000000000000000000000000000000000000000000016906348c894919060840160408051601f198184030181529181526020820180517bffffffffffffffffffffffffffffffffffffffffffffffffffffffff1663db1e288d60e01b179052516001600160e01b031960e084901b16815261130c9190600401614b68565b5f604051808303815f875af1158015611327573d5f803e3d5ffd5b505050506040513d5f823e601f3d908101601f1916820160405261134e9190810190614bdf565b8060200190518101906113619190614c65565b915091509250929050565b611374612a34565b60405163db1e288d60e01b81526001600160a01b0380851660048301526024820184905282166044820152309063db1e288d906064015b60408051808303815f875af11580156113c6573d5f803e3d5ffd5b505050506040513d601f19601f820116820180604052508101906113ea9190614c65565b50506113f4612aba565b505050565b5f61142c7f00000000000000000000000000000000000000000000000000000000000000006001600160a01b03166126a7565b611434612bd1565b61143c612c2d565b611444612a34565b6001600160a01b038581165f908152600e602052604090205416156114a0576040517f1690fa400000000000000000000000000000000000000000000000000000000081526001600160a01b03861660048201526024016103f3565b5f856001600160a01b03166338d52e0f6040518163ffffffff1660e01b8152600401602060405180830381865afa1580156114dd573d5f803e3d5ffd5b505050506040513d601f19601f820116820180604052508101906115019190614ace565b90506001600160a01b03811661154e576040517fd407f9c50000000000000000000000000000000000000000000000000000000081526001600160a01b03871660048201526024016103f3565b6001600160a01b038681165f908152600e6020526040902080546001600160a01b0319169183169190911790556115858186612c6f565b61158f8685612c6f565b6115998585612ae4565b6001600160a01b0387165f818152600b60205260409081902092909255905163266d6a8360e11b815260048101869052869190634cdad50690602401602060405180830381865afa1580156115f0573d5f803e3d5ffd5b505050506040513d601f19601f820116820180604052508101906116149190614b2f565b61161e9190614b1c565b915061162982612c81565b61163561271083614c87565b915061164086612cc0565b61164b868484612d29565b60408051868152602081018690526001600160a01b038816917fef0c05c59bfc8e2d9c16cf4a50f0b316a07e272fb5e7f23e43e6cd25c7fe1317910160405180910390a250611698612aba565b949350505050565b5f806116d47f00000000000000000000000000000000000000000000000000000000000000006001600160a01b03166126a7565b6001600160a01b0383165f908152600b60205260409020546001600160801b0381169060801c5b91509150915091565b6001600160a01b0381165f90815260016020526040812080546001600160a01b03191633179055610c6e9082906128c6565b6117687f00000000000000000000000000000000000000000000000000000000000000006001600160a01b03166126a7565b8061177281612e31565b61177d8260016128c6565b5050565b5f6117b47f00000000000000000000000000000000000000000000000000000000000000006001600160a01b03166126a7565b610c1d600754612e7b565b6117f17f00000000000000000000000000000000000000000000000000000000000000006001600160a01b03166126a7565b816117fb81612e31565b81670de0b6b3a764000081111561182557604051634c69ac5d60e01b815260040160405180910390fd5b600a546001600160a01b03163314611850576040516323dada5360e01b815260040160405180910390fd5b6001600160a01b0384165f908152602081905260409020546118729084612e9e565b6001600160a01b0385165f8181526020818152604091829020939093555185815290917fe4d371097beea42453a37406e2aef4c04f3c548f84ac50e72578662c0dcd735491015b60405180910390a250505050565b6113f4838383612d29565b6118db81612fbc565b610c6e815f612b48565b5f7f00000000000000000000000000000000000000000000000000000000000000008260405160200161192c9291909182526001600160e01b031916602082015260240190565b604051602081830303815290604052805190602001209050919050565b5f805f61197e7f00000000000000000000000000000000000000000000000000000000000000006001600160a01b03166126a7565b61198661283e565b937f000000000000000000000000000000000000000000000000000000000000000093507f000000000000000000000000000000000000000000000000000000000000000092509050565b80670de0b6b3a764000081111561177d57604051634c69ac5d60e01b815260040160405180910390fd5b606080611a307f00000000000000000000000000000000000000000000000000000000000000006001600160a01b03166126a7565b611a38612bd1565b600a546001600160a01b03163314611a63576040516323dada5360e01b815260040160405180910390fd5b82611a6d81612e31565b6040517fca4f28030000000000000000000000000000000000000000000000000000000081526001600160a01b0385811660048301525f917f00000000000000000000000000000000000000000000000000000000000000009091169063ca4f2803906024015f60405180830381865afa158015611aed573d5f803e3d5ffd5b505050506040513d5f823e601f3d908101601f19168201604052611b149190810190614c9a565b80519091508067ffffffffffffffff811115611b3257611b32614b9a565b604051908082528060200260200182016040528015611b5b578160200160208202803683370190505b5094508067ffffffffffffffff811115611b7757611b77614b9a565b604051908082528060200260200182016040528015611ba0578160200160208202803683370190505b5093505f5b8251811015611cf9575f838281518110611bc157611bc1614d47565b6020908102919091018101516001600160a01b03808b165f90815260068452604080822092841682529190935290912054909150611bfe90613006565b888481518110611c1057611c10614d47565b60200260200101888581518110611c2957611c29614d47565b60200260200101828152508281525050505f878381518110611c4d57611c4d614d47565b60200260200101511180611c7957505f868381518110611c6f57611c6f614d47565b6020026020010151115b15611cf0576001600160a01b038089165f9081526006602090815260408083209385168352929052908120558551611cf0908290889085908110611cbf57611cbf614d47565b6020026020010151898581518110611cd957611cd9614d47565b6020026020010151611ceb9190614b1c565b61301c565b50600101611ba5565b50505050915091565b611d0a612a34565b6040517fd446e4a60000000000000000000000000000000000000000000000000000000081526001600160a01b0380851660048301526024820184905282166044820152309063d446e4a6906064016113ab565b5f611d917f00000000000000000000000000000000000000000000000000000000000000006001600160a01b03166126a7565b506001600160a01b038083165f908152600c60209081526040808320938516835292905220545b92915050565b611df07f00000000000000000000000000000000000000000000000000000000000000006001600160a01b03166126a7565b610bd66126e9565b611e2a7f00000000000000000000000000000000000000000000000000000000000000006001600160a01b03166126a7565b611e326126e9565b610be05f613032565b611e6d7f00000000000000000000000000000000000000000000000000000000000000006001600160a01b03166126a7565b80611e7781612e31565b611e7f6126e9565b611e8882612fbc565b61177d825f612b48565b611ec47f00000000000000000000000000000000000000000000000000000000000000006001600160a01b03166126a7565b81611ece81612e31565b6001600160a01b038084165f9081526001602081905260409091200154611ef791859116613079565b611f00836130b9565b6113f483836130ca565b5f80611f3e7f00000000000000000000000000000000000000000000000000000000000000006001600160a01b03166126a7565b611f46612bd1565b611f4e612c2d565b84611f5881613269565b611f60612a34565b5f866001600160a01b03166338d52e0f6040518163ffffffff1660e01b8152600401602060405180830381865afa158015611f9d573d5f803e3d5ffd5b505050506040513d601f19601f82011682018060405250810190611fc19190614ace565b9050611fcd87826132c4565b6001600160a01b0387165f908152600b6020908152604080832054600d9092529091205461200888826001600160801b0385165b919061332c565b955061201988826120018560801c90565b94506120258387612c6f565b61202f8986612c6f565b612050612045876001600160801b038516614b1c565b866110ad8560801c90565b6001600160a01b038a165f908152600b60205260409020819055915061207789888a612d29565b60408051878152602081018790526001600160a01b038b16917fef0c05c59bfc8e2d9c16cf4a50f0b316a07e272fb5e7f23e43e6cd25c7fe1317910160405180910390a25050506120c6612aba565b50935093915050565b5f806121037f00000000000000000000000000000000000000000000000000000000000000006001600160a01b03166126a7565b61210b61338a565b612113612bd1565b8461211d81613269565b6001600160a01b038087165f908152600c602090815260408083209388168352929052205485111561217b576040517f98c5dbd600000000000000000000000000000000000000000000000000000000815260040160405180910390fd5b6001600160a01b0386165f908152600b6020908152604080832054600d90925290912054806121b3886001600160801b038516614d5b565b6121bd9190614d72565b945080876121cb8460801c90565b6121d59190614d5b565b6121df9190614d72565b6001600160a01b03808a165f908152600e602052604090205491955016612206818761301c565b612210898661301c565b61223b612226876001600160801b038616614c87565b866122318660801c90565b6110b79190614c87565b6001600160a01b038a165f908152600b60205260409020819055925061226289888a6133ee565b85156122ee5760405163ae63932960e01b81526001600160a01b0382811660048301528881166024830152604482018890527f0000000000000000000000000000000000000000000000000000000000000000169063ae639329906064015f604051808303815f87803b1580156122d7575f80fd5b505af11580156122e9573d5f803e3d5ffd5b505050505b841561237a5760405163ae63932960e01b81526001600160a01b038a811660048301528881166024830152604482018790527f0000000000000000000000000000000000000000000000000000000000000000169063ae639329906064015f604051808303815f87803b158015612363575f80fd5b505af1158015612375573d5f803e3d5ffd5b505050505b60408051878152602081018790526001600160a01b038b16917f072703282edd253eef65be9f8b821186ce1c8a21841116dd8e9f315c000e4602910160405180910390a250505050935093915050565b6123fc7f00000000000000000000000000000000000000000000000000000000000000006001600160a01b03166126a7565b8061240681612e31565b61240f8261287b565b612418826134e8565b15801561242a575061242861283e565b155b15612437576124376126e9565b61177d826001612b48565b6124747f00000000000000000000000000000000000000000000000000000000000000006001600160a01b03166126a7565b61247c6126e9565b60075461248a8160016134fb565b60078190556040519091507fbd204090fd387f08e3076528bf09b4fc99d8100d749eace96c06002d3fedc625905f90a150565b6124ef7f00000000000000000000000000000000000000000000000000000000000000006001600160a01b03166126a7565b6124f76126e9565b610be06001613032565b6125337f00000000000000000000000000000000000000000000000000000000000000006001600160a01b03166126a7565b8161253d81612e31565b81670de0b6b3a764000081111561256757604051634c69ac5d60e01b815260040160405180910390fd5b600a546001600160a01b03163314612592576040516323dada5360e01b815260040160405180910390fd5b6001600160a01b0384165f908152602081905260409020546125b49084613508565b6001600160a01b0385165f8181526020818152604091829020939093555185815290917f606eb97d83164bd6b200d638cd49c14c65d94d4f2c674cfd85e24e0e202c3ca591016118b9565b6113f48383836133ee565b610c6e81612cc0565b6126457f00000000000000000000000000000000000000000000000000000000000000006001600160a01b03166126a7565b8061264f81612e31565b61177d825f6128c6565b5f61268c7f00000000000000000000000000000000000000000000000000000000000000006001600160a01b03166126a7565b506001600160a01b03165f908152600d602052604090205490565b306001600160a01b03821614610c6e576040517f9fd25b3600000000000000000000000000000000000000000000000000000000815260040160405180910390fd5b5f6126fe5f356001600160e01b0319166118e5565b905061270a8133613627565b610c6e576040516323dada5360e01b815260040160405180910390fd5b61272f61283e565b15612758578015612753576040516336a7e2cd60e21b815260040160405180910390fd5b6127ef565b80156127bd577f000000000000000000000000000000000000000000000000000000000000000063ffffffff164210612753576040517f0e4460b700000000000000000000000000000000000000000000000000000000815260040160405180910390fd5b6040517ff7ff4dca00000000000000000000000000000000000000000000000000000000815260040160405180910390fd5b6007546127fc81836136a0565b600781905560405183151581529091507fe0629fe656e45ad7fd63a24b899da368690024c07043b88e57aee5095b1d3d02906020015b60405180910390a15050565b5f7f000000000000000000000000000000000000000000000000000000000000000063ffffffff164211158015610c1d5750610c1d6007546136be565b612884816136cd565b15610c6e576040517f346d76070000000000000000000000000000000000000000000000000000000081526001600160a01b03821660048201526024016103f3565b6001600160a01b038083165f908152600160205260409020546128eb918491166136ee565b6001600160a01b0382165f9081526020819052604090205461290c836134e8565b1561294057811561293b5760405163d971f59760e01b81526001600160a01b03841660048201526024016103f3565b6129d5565b81156129985761294f8161370b565b63ffffffff16421061293b576040517feb5a12170000000000000000000000000000000000000000000000000000000081526001600160a01b03841660048201526024016103f3565b6040517ffdcd68940000000000000000000000000000000000000000000000000000000081526001600160a01b03841660048201526024016103f3565b6129df8183613812565b6001600160a01b0384165f81815260208181526040918290209390935551841515815290917f57e20448028297190122571be7cb6c1b1ef85730c673f7c72f533c8662419aa7910160405180910390a2505050565b7f9b779b17422d0df92223018b32b4d1fa46e071723d6817e2486d003becc55f005c15612a8d576040517f3ee5aeb500000000000000000000000000000000000000000000000000000000815260040160405180910390fd5b610be060017f9b779b17422d0df92223018b32b4d1fa46e071723d6817e2486d003becc55f005b9061383f565b610be05f7f9b779b17422d0df92223018b32b4d1fa46e071723d6817e2486d003becc55f00612ab4565b5f6001600160801b03831180612b0057506001600160801b0382115b15612b37576040517f89560ca100000000000000000000000000000000000000000000000000000000815260040160405180910390fd5b612b418383613846565b9392505050565b8015155f03612b5a57612b5a82613855565b6001600160a01b0382165f90815260208190526040902054612b7c9082613879565b6001600160a01b0383165f81815260208181526040918290209390935551831515815290917fc2354cc2f78ea57777e55ddd43a7f22b112ce98868596880edaeb22b4f9c73a991015b60405180910390a25050565b7f00000000000000000000000000000000000000000000000000000000000000005c15155f03610be0576040517fc09ba73600000000000000000000000000000000000000000000000000000000815260040160405180910390fd5b612c38600754612e7b565b15610be0576040517f0f27df0900000000000000000000000000000000000000000000000000000000815260040160405180910390fd5b61177d82612c7c83613894565b6138f6565b612710811015610c6e576040517f34bdbfaa000000000000000000000000000000000000000000000000000000008152600481018290526024016103f3565b6001600160a01b0381165f818152600d6020908152604080832061271090819055600c8352818420848052835281842081905590519081529192917fd66f031d33381c6408f0b32c884461e5de3df8808399b6f3a3d86b1368f8ec34910160405180910390a350565b6001600160a01b038216612d69576040517fdbe6b10e00000000000000000000000000000000000000000000000000000000815260040160405180910390fd5b6001600160a01b0383165f908152600d6020526040812054612d8c908390614b1c565b9050612d9781612c81565b6001600160a01b038085165f908152600d60209081526040808320859055600c825280832093871683529290529081208054849290612dd7908490614b1c565b92505081905550826001600160a01b0316846001600160a01b03167fd66f031d33381c6408f0b32c884461e5de3df8808399b6f3a3d86b1368f8ec3484604051612e2391815260200190565b60405180910390a350505050565b612e3a816139cb565b610c6e576040517f9e51bd5c0000000000000000000000000000000000000000000000000000000081526001600160a01b03821660048201526024016103f3565b5f611db8612e8a826001614b1c565b612e95906001614b1c565b83901c60011690565b5f670de0b6b3a7640000821115612ec8576040516301d1b96560e61b815260040160405180910390fd5b612ed764174876e80083614d72565b9150612b41826018612eea5f6001614d91565b612ef5906001614d91565b612f00906001614d91565b612f0b906001614d91565b612f16906001614d91565b612f21906001614d91565b612f2c906001614d91565b612f37906001614d91565b612f42906001614d91565b612f4d906001614d91565b612f58906001614d91565b612f63906001614d91565b612f6e906001614d91565b612f79906001614d91565b612f84906001614d91565b612f8f906001614d91565b612f9a906001614d91565b612fa5906001614d91565b60ff16612fb29190614b1c565b85919060186139ec565b612fc5816136cd565b610c6e576040517fef029adf0000000000000000000000000000000000000000000000000000000081526001600160a01b03821660048201526024016103f3565b5f806001600160801b0383166116fb8460801c90565b61177d8261302983613894565b612c7c90614daa565b60075461303f8183613a0d565b600781905560405183151581529091507f300c7ca619eb846386aa0a6e5916ac2a41406448b0a2e99ba9ccafeb899015a590602001612832565b6001600160a01b0381166130905761177d82613a28565b336001600160a01b0382161461177d576040516323dada5360e01b815260040160405180910390fd5b6130c1613a6b565b610c6e81613a91565b816001600160a01b031663ce20ece76040518163ffffffff1660e01b8152600401602060405180830381865afa158015613106573d5f803e3d5ffd5b505050506040513d601f19601f8201168201806040525081019061312a9190614b2f565b811015613163576040517fbfb2068800000000000000000000000000000000000000000000000000000000815260040160405180910390fd5b816001600160a01b031663654cf15d6040518163ffffffff1660e01b8152600401602060405180830381865afa15801561319f573d5f803e3d5ffd5b505050506040513d601f19601f820116820180604052508101906131c39190614b2f565b8111156131fc576040517f7f47834b00000000000000000000000000000000000000000000000000000000815260040160405180910390fd5b6001600160a01b0382165f9081526020819052604090205461321e9082613ac3565b6001600160a01b0383165f8181526020818152604091829020939093555183815290917f89d41522342fabac1471ca6073a5623e5caf367b03ca6e9a001478d0cf8be4a19101612bc5565b6001600160a01b038181165f908152600e602052604090205416610c6e576040517f85f412990000000000000000000000000000000000000000000000000000000081526001600160a01b03821660048201526024016103f3565b6001600160a01b038281165f908152600e602052604090205481169082161461177d576040517f36b18d090000000000000000000000000000000000000000000000000000000081526001600160a01b038084166004830152821660248201526044016103f3565b5f815f03613366576040517f0a0c22c700000000000000000000000000000000000000000000000000000000815260040160405180910390fd5b5f6133718486614d5b565b9050600183600183030401811515029150509392505050565b336001600160a01b037f00000000000000000000000000000000000000000000000000000000000000001614610be0576040517f089676d50000000000000000000000000000000000000000000000000000000081523360048201526024016103f3565b6001600160a01b03821661342e576040517f586d06df00000000000000000000000000000000000000000000000000000000815260040160405180910390fd5b6001600160a01b0383165f908152600d6020526040812054613451908390614c87565b905061345c81612c81565b6001600160a01b038085165f908152600d60209081526040808320859055600c82528083209387168352929052908120805484929061349c908490614c87565b92505081905550826001600160a01b0316846001600160a01b03167f4e09f7f7fc37ce2897800e2c2a9099565edb0a133d19d84a6871b3530af8846b84604051612e2391815260200190565b5f806134f383613bd5565b509392505050565b5f60011983168217612b41565b5f670de0b6b3a7640000821115613532576040516301d1b96560e61b815260040160405180910390fd5b61354164174876e80083614d72565b9150612b41826018806135555f6001614d91565b613560906001614d91565b61356b906001614d91565b613576906001614d91565b613581906001614d91565b61358c906001614d91565b613597906001614d91565b6135a2906001614d91565b6135ad906001614d91565b6135b8906001614d91565b6135c3906001614d91565b6135ce906001614d91565b6135d9906001614d91565b6135e4906001614d91565b6135ef906001614d91565b6135fa906001614d91565b613605906001614d91565b613610906001614d91565b60ff1661361d9190614b1c565b612fb29190614b1c565b6009546040516326f8aa2160e21b8152600481018490526001600160a01b0383811660248301523060448301525f921690639be2a88490606401602060405180830381865afa15801561367c573d5f803e3d5ffd5b505050506040513d601f19601f82011682018060405250810190612b419190614ae9565b5f612b41826136b0836001614b1c565b6001811b19861691901b1790565b5f611db8612e95826001614b1c565b6001600160a01b0381165f90815260208190526040812054611db890613c4e565b6001600160a01b0381163303613702575050565b61177d82613a28565b5f611db8602860188080613720866001614d91565b61372b906001614d91565b613736906001614d91565b613741906001614d91565b61374c906001614d91565b613757906001614d91565b613762906001614d91565b61376d906001614d91565b613778906001614d91565b613783906001614d91565b61378e906001614d91565b613799906001614d91565b6137a4906001614d91565b6137af906001614d91565b6137ba906001614d91565b6137c5906001614d91565b6137d0906001614d91565b6137db906001614d91565b60ff166137e89190614b1c565b6137f29190614b1c565b6137fc9190614b1c565b6138069190614b1c565b83901c63ffffffff1690565b5f612b4182613822836001614d91565b61382d906001614d91565b60ff1690811b600190911b1985161790565b80825d5050565b5f612b4183608084901b614b1c565b61385d612a34565b6138718161386c836001613c7f565b613d01565b610c6e612aba565b5f612b4182613889836001614d91565b613822906001614d91565b5f7f7fffffffffffffffffffffffffffffffffffffffffffffffffffffffffffffff8211156138f2576040517f24775e06000000000000000000000000000000000000000000000000000000008152600481018390526024016103f3565b5090565b805f03613901575050565b5f61392c7f000000000000000000000000000000000000000000000000000000000000000084613d81565b90505f6139398383614de0565b9050805f036139705761396b7f0000000000000000000000000000000000000000000000000000000000000000613d94565b6139a0565b815f036139a0576139a07f0000000000000000000000000000000000000000000000000000000000000000613daa565b6111847f00000000000000000000000000000000000000000000000000000000000000008583613db9565b6001600160a01b0381165f90815260208190526040812054612b4181613dd1565b5f6139f8848484613ddb565b506001901b5f1901811b1992909216911b1790565b5f612b4182613a1d836001614b1c565b6136b0906001614b1c565b5f613a3d5f356001600160e01b0319166118e5565b9050613a4a813384613e7a565b15155f0361177d576040516323dada5360e01b815260040160405180910390fd5b613a7361283e565b15610be0576040516336a7e2cd60e21b815260040160405180910390fd5b613a9a816134e8565b15610c6e5760405163d971f59760e01b81526001600160a01b03821660048201526024016103f3565b5f670de0b6b3a7640000821115613aed576040516301d1b96560e61b815260040160405180910390fd5b613afc64174876e80083614d72565b9150612b4182613b0d5f6001614d91565b613b18906001614d91565b613b23906001614d91565b613b2e906001614d91565b613b39906001614d91565b613b44906001614d91565b613b4f906001614d91565b613b5a906001614d91565b613b65906001614d91565b613b70906001614d91565b613b7b906001614d91565b613b86906001614d91565b613b91906001614d91565b613b9c906001614d91565b613ba7906001614d91565b613bb2906001614d91565b613bbd906001614d91565b613bc8906001614d91565b85919060ff1660186139ec565b6001600160a01b0381165f90815260208190526040812054819081613bf982613ef5565b90505f613c058361370b565b9050818015613c435750613c397f000000000000000000000000000000000000000000000000000000000000000082614e07565b63ffffffff164211155b969095509350505050565b5f611db8613c5d826001614d91565b613c68906001614d91565b613c73906001614d91565b839060ff161c60011690565b613cc16040518060e001604052805f80191681526020016060815260200160608152602001606081526020016060815260200160608152602001606081525090565b6001600160a01b0383165f9081526005602090815260408083208383528184205460048452828520600390945291909320611db893859390929187613f04565b6001600160a01b0382165f908152600560205260408120905b82606001515181101561118457613d6b83606001518281518110613d4057613d40614d47565b602002602001015184608001518381518110613d5e57613d5e614d47565b6020026020010151612ae4565b5f82815260208490526040902055600101613d1a565b5f8181526020839052604081205c612b41565b610c6e613da36001835c614c87565b829061383f565b610c6e613da3825c6001614b1c565b5f8281526020849052604090206113f4908290612ab4565b5f60018216611db8565b6101008210613dfd57604051632d0483c560e21b815260040160405180910390fd5b60018110158015613e235750613e1f60ff613e1a84610100614c87565b6142d6565b8111155b613e4057604051632d0483c560e21b815260040160405180910390fd5b82811c156113f4576040517fe4337c0500000000000000000000000000000000000000000000000000000000815260040160405180910390fd5b6009546040516326f8aa2160e21b8152600481018590526001600160a01b03848116602483015283811660448301525f921690639be2a88490606401602060405180830381865afa158015613ed1573d5f803e3d5ffd5b505050506040513d601f19601f820116820180604052508101906116989190614ae9565b5f611db8613c68826001614d91565b8154848752604080516020808402820181019092528281529084908390830182828015613f5857602002820191905f5260205f20905b81546001600160a01b03168152600190910190602001808311613f3a575b505050505087602001819052508067ffffffffffffffff811115613f7e57613f7e614b9a565b604051908082528060200260200182016040528015613fc757816020015b604080516060810182525f80825260208083018290529282015282525f19909201910181613f9c5790505b5060408801528067ffffffffffffffff811115613fe657613fe6614b9a565b60405190808252806020026020018201604052801561400f578160200160208202803683370190505b5060608801528067ffffffffffffffff81111561402e5761402e614b9a565b604051908082528060200260200182016040528015614057578160200160208202803683370190505b506080880152865161406990826142e5565b60c08801528067ffffffffffffffff81111561408757614087614b9a565b6040519080825280602002602001820160405280156140b0578160200160208202803683370190505b5060a088015286515f906140c3906143b1565b80156140d957505f6140d7895f01516143c0565b115b80156140ed575087516140eb90613c4e565b155b90505f5b828110156142cb575f865f8b60200151848151811061411257614112614d47565b6020908102919091018101516001600160a01b0316825281019190915260409081015f208151606081019092528054829060ff16600181111561415757614157614e2b565b600181111561416857614168614e2b565b8152905461010081046001600160a01b0316602080840191909152750100000000000000000000000000000000000000000090910460ff1615156040928301525f858152908c905281902054908c015180519293509091839190859081106141d2576141d2614d47565b60200260200101819052506141e6826144bf565b8b60a0015184815181106141fc576141fc614d47565b602090810291909101015261421c8b846001600160801b038416896145a7565b8315155f0361422c5750506142c3565b5f82604001518015614250575060018351600181111561424e5761424e614e2b565b145b905080156142bf575f6142658d5f01516143c0565b90505f8d60600151868151811061427e5761427e614d47565b602002602001015190505f61429e8f6142978760801c90565b8986614664565b905080156142bb576142bb8f886142b58486614c87565b8d6145a7565b5050505b5050505b6001016140f1565b505050505050505050565b5f828218828410028218612b41565b60605f8267ffffffffffffffff81111561430157614301614b9a565b60405190808252806020026020018201604052801561432a578160200160208202803683370190505b5090505f614337856146f9565b64ffffffffff1690505f5b848110156143a7575f614362614359600584614d5b565b84901c601f1690565b905061436f81600a614f1f565b61438190670de0b6b3a7640000614d5b565b84838151811061439357614393614d47565b602090810291909101015250600101614342565b5090949350505050565b5f611db8613c73826001614d91565b5f64174876e8006144b56018806143d8856001614d91565b6143e3906001614d91565b6143ee906001614d91565b6143f9906001614d91565b614404906001614d91565b61440f906001614d91565b61441a906001614d91565b614425906001614d91565b614430906001614d91565b61443b906001614d91565b614446906001614d91565b614451906001614d91565b61445c906001614d91565b614467906001614d91565b614472906001614d91565b61447d906001614d91565b614488906001614d91565b614493906001614d91565b60ff166144a09190614b1c565b6144aa9190614b1c565b84901c62ffffff1690565b611db89190614d5b565b80515f90818160018111156144d6576144d6614e2b565b036144eb57670de0b6b3a764000091506145a1565b60018160018111156144ff576144ff614e2b565b0361456f5782602001516001600160a01b031663679aefce6040518163ffffffff1660e01b8152600401602060405180830381865afa158015614544573d5f803e3d5ffd5b505050506040513d601f19601f820116820180604052508101906145689190614b2f565b91506145a1565b6040517fdf45063200000000000000000000000000000000000000000000000000000000815260040160405180910390fd5b50919050565b81846060015184815181106145be576145be614d47565b602090810291909101015261489b5f8260018111156145df576145df614e2b565b146145ec576147f56145f0565b61480a5b905061463b838660c00151868151811061460c5761460c614d47565b60200260200101518760a00151878151811061462a5761462a614d47565b60200260200101518463ffffffff16565b8560800151858151811061465157614651614d47565b6020026020010181815250505050505050565b5f808560800151848151811061467c5761467c614d47565b60200260200101519050848111156146f0575f61469b8683038561481b565b90506146ec8760c0015186815181106146b6576146b6614d47565b60200260200101518860a0015187815181106146d4576146d4614d47565b6020026020010151836148479092919063ffffffff16565b9250505b50949350505050565b5f611db86018808061470c856001614d91565b614717906001614d91565b614722906001614d91565b61472d906001614d91565b614738906001614d91565b614743906001614d91565b61474e906001614d91565b614759906001614d91565b614764906001614d91565b61476f906001614d91565b61477a906001614d91565b614785906001614d91565b614790906001614d91565b61479b906001614d91565b6147a6906001614d91565b6147b1906001614d91565b6147bc906001614d91565b6147c7906001614d91565b60ff166147d49190614b1c565b6147de9190614b1c565b6147e89190614b1c565b83901c64ffffffffff1690565b5f61169882614804868661485b565b9061485b565b5f61169882614819868661481b565b905b5f806148278385614d5b565b90506001670de0b6b3a76400006001830304018115150291505092915050565b5f61169884614856858561481b565b61487b565b5f806148678385614d5b565b9050611698670de0b6b3a764000082614d72565b5f8061488f670de0b6b3a764000085614d5b565b90506116988382614d72565b610be0614f2a565b6001600160a01b0381168114610c6e575f80fd5b5f602082840312156148c7575f80fd5b8135612b41816148a3565b5f805f606084860312156148e4575f80fd5b83356148ef816148a3565b95602085013595506040909401359392505050565b5f805f8060808587031215614917575f80fd5b8435614922816148a3565b935060208501359250604085013591506060850135614940816148a3565b939692955090935050565b5f806040838503121561495c575f80fd5b8235614967816148a3565b946020939093013593505050565b5f805f60608486031215614987575f80fd5b8335614992816148a3565b92506020840135915060408401356149a9816148a3565b809150509250925092565b5f805f606084860312156149c6575f80fd5b83356149d1816148a3565b925060208401356149e1816148a3565b929592945050506040919091013590565b5f60208284031215614a02575f80fd5b81356001600160e01b031981168114612b41575f80fd5b5f60208284031215614a29575f80fd5b5035919050565b5f815180845260208085019450602084015f5b83811015614a5f57815187529582019590820190600101614a43565b509495945050505050565b604081525f614a7c6040830185614a30565b8281036020840152614a8e8185614a30565b95945050505050565b5f8060408385031215614aa8575f80fd5b8235614ab3816148a3565b91506020830135614ac3816148a3565b809150509250929050565b5f60208284031215614ade575f80fd5b8151612b41816148a3565b5f60208284031215614af9575f80fd5b81518015158114612b41575f80fd5b634e487b7160e01b5f52601160045260245ffd5b80820180821115611db857611db8614b08565b5f60208284031215614b3f575f80fd5b5051919050565b5f5b83811015614b60578181015183820152602001614b48565b50505f910152565b602081525f8251806020840152614b86816040850160208701614b46565b601f01601f19169190910160400192915050565b634e487b7160e01b5f52604160045260245ffd5b604051601f8201601f1916810167ffffffffffffffff81118282101715614bd757614bd7614b9a565b604052919050565b5f60208284031215614bef575f80fd5b815167ffffffffffffffff80821115614c06575f80fd5b818401915084601f830112614c19575f80fd5b815181811115614c2b57614c2b614b9a565b614c3e601f8201601f1916602001614bae565b9150808252856020828501011115614c54575f80fd5b6146f0816020840160208601614b46565b5f8060408385031215614c76575f80fd5b505080516020909101519092909150565b81810381811115611db857611db8614b08565b5f6020808385031215614cab575f80fd5b825167ffffffffffffffff80821115614cc2575f80fd5b818501915085601f830112614cd5575f80fd5b815181811115614ce757614ce7614b9a565b8060051b9150614cf8848301614bae565b8181529183018401918481019088841115614d11575f80fd5b938501935b83851015614d3b5784519250614d2b836148a3565b8282529385019390850190614d16565b98975050505050505050565b634e487b7160e01b5f52603260045260245ffd5b8082028115828204841417611db857611db8614b08565b5f82614d8c57634e487b7160e01b5f52601260045260245ffd5b500490565b60ff8181168382160190811115611db857611db8614b08565b5f7f80000000000000000000000000000000000000000000000000000000000000008203614dda57614dda614b08565b505f0390565b8082018281125f831280158216821582161715614dff57614dff614b08565b505092915050565b63ffffffff818116838216019080821115614e2457614e24614b08565b5092915050565b634e487b7160e01b5f52602160045260245ffd5b600181815b80851115614e7957815f1904821115614e5f57614e5f614b08565b80851615614e6c57918102915b93841c9390800290614e44565b509250929050565b5f82614e8f57506001611db8565b81614e9b57505f611db8565b8160018114614eb15760028114614ebb57614ed7565b6001915050611db8565b60ff841115614ecc57614ecc614b08565b50506001821b611db8565b5060208310610133831016604e8410600b8410161715614efa575081810a611db8565b614f048383614e3f565b805f1904821115614f1757614f17614b08565b029392505050565b5f612b418383614e81565b634e487b7160e01b5f52605160045260245ffdfea26469706673582212205ecde7d5ce49623b1bbccc5586183ed4ecd2c2c3131567134583ba6e12a2d61d64736f6c63430008180033","linkReferences":{}},"methodIdentifiers":{"addLiquidityToBuffer(address,uint256,address)":"d446e4a6","addLiquidityToBufferUnbalancedForTests(address,uint256,uint256)":"1f568ea3","areBuffersPaused()":"55cba7fe","collectAggregateFees(address)":"8f4ab9ca","disableQuery()":"de1a36a6","disableRecoveryMode(address)":"bffb78b2","enableRecoveryMode(address)":"dc3f574e","getActionId(bytes4)":"851c1bb3","getBufferAsset(address)":"0387587d","getBufferBalance(address)":"4021fe0f","getBufferMinimumTotalSupply()":"26a8a991","getBufferOwnerShares(address,address)":"9385e39a","getBufferPeriodDuration()":"20c1fb7a","getBufferPeriodEndTime()":"cd51c12f","getBufferTotalShares(address)":"f2784e07","getMaximumPoolTokens()":"2e42f4d5","getMinimumPoolTokens()":"a8175b27","getMinimumTradeAmount()":"e2cb0ba0","getMinimumWrapAmount()":"53956aa2","getPauseWindowEndTime()":"8a8d123a","getPoolMinimumTotalSupply()":"d0965a6b","getVaultPausedState()":"85c8c015","initializeBuffer(address,uint256,uint256,address)":"40058e35","isVaultPaused()":"098401f5","manualBurnBufferShares(address,address,uint256)":"e8338894","manualDisableRecoveryMode(address)":"7578abb9","manualEnableRecoveryMode(address)":"27521d0c","manualMintBufferShares(address,address,uint256)":"6b230291","manualMintMinimumBufferSupplyReserve(address)":"e99ac9a3","manualPausePool(address)":"1558356e","manualPauseVault()":"071d8a02","manualReentrancyAddLiquidityToBuffer(address,uint256,address)":"91b77cf3","manualReentrancyDisableRecoveryMode(address)":"16df26cb","manualReentrancyInitializeBuffer(address,uint256,uint256,address)":"25002fcf","manualReentrancyRemoveLiquidityFromBufferHook(address,uint256,address)":"3828ecad","manualUnpausePool(address)":"52b9e33d","manualUnpauseVault()":"cc671ff7","mockEnsurePoolNotInRecoveryMode(address)":"0b9df1f6","mockWithValidPercentage(uint256)":"88e5101a","pausePool(address)":"55aca1ec","pauseVault()":"9e0879c2","pauseVaultBuffers()":"e085c5a8","reentrancyGuardEntered()":"d2c725e0","removeLiquidityFromBuffer(address,uint256)":"35b60a19","removeLiquidityFromBufferHook(address,uint256,address)":"db1e288d","setAuthorizer(address)":"058a628f","setProtocolFeeController(address)":"2d771389","setStaticSwapFeePercentage(address,uint256)":"d15126ba","unpausePool(address)":"f21c38cd","unpauseVault()":"0b7562be","unpauseVaultBuffers()":"b9212b49","updateAggregateSwapFeePercentage(address,uint256)":"5e0b06f4","updateAggregateYieldFeePercentage(address,uint256)":"e253670a","vault()":"fbfa77cf"},"id":121}