{"abi":[{"type":"constructor","inputs":[{"name":"authorizer","type":"address","internalType":"contract IAuthorizer"},{"name":"pauseWindowDuration","type":"uint32","internalType":"uint32"},{"name":"bufferPeriodDuration","type":"uint32","internalType":"uint32"},{"name":"minTradeAmount","type":"uint256","internalType":"uint256"},{"name":"minWrapAmount","type":"uint256","internalType":"uint256"},{"name":"vaultCreationCodeHash_","type":"bytes32","internalType":"bytes32"},{"name":"vaultAdminCreationCodeHash_","type":"bytes32","internalType":"bytes32"},{"name":"vaultExtensionCreationCodeHash_","type":"bytes32","internalType":"bytes32"}],"stateMutability":"nonpayable"},{"type":"function","name":"create","inputs":[{"name":"salt","type":"bytes32","internalType":"bytes32"},{"name":"targetAddress","type":"address","internalType":"address"},{"name":"vaultCreationCode","type":"bytes","internalType":"bytes"},{"name":"vaultAdminCreationCode","type":"bytes","internalType":"bytes"},{"name":"vaultExtensionCreationCode","type":"bytes","internalType":"bytes"}],"outputs":[],"stateMutability":"nonpayable"},{"type":"function","name":"getActionId","inputs":[{"name":"selector","type":"bytes4","internalType":"bytes4"}],"outputs":[{"name":"","type":"bytes32","internalType":"bytes32"}],"stateMutability":"view"},{"type":"function","name":"getDeploymentAddress","inputs":[{"name":"salt","type":"bytes32","internalType":"bytes32"}],"outputs":[{"name":"","type":"address","internalType":"address"}],"stateMutability":"view"},{"type":"function","name":"vaultAdminCreationCodeHash","inputs":[],"outputs":[{"name":"","type":"bytes32","internalType":"bytes32"}],"stateMutability":"view"},{"type":"function","name":"vaultCreationCodeHash","inputs":[],"outputs":[{"name":"","type":"bytes32","internalType":"bytes32"}],"stateMutability":"view"},{"type":"function","name":"vaultExtensionCreationCodeHash","inputs":[],"outputs":[{"name":"","type":"bytes32","internalType":"bytes32"}],"stateMutability":"view"},{"type":"event","name":"VaultCreated","inputs":[{"name":"vault","type":"address","indexed":false,"internalType":"address"}],"anonymous":false},{"type":"error","name":"Create2EmptyBytecode","inputs":[]},{"type":"error","name":"FailedDeployment","inputs":[]},{"type":"error","name":"InsufficientBalance","inputs":[{"name":"balance","type":"uint256","internalType":"uint256"},{"name":"needed","type":"uint256","internalType":"uint256"}]},{"type":"error","name":"InvalidBytecode","inputs":[{"name":"contractName","type":"string","internalType":"string"}]},{"type":"error","name":"SenderNotAllowed","inputs":[]},{"type":"error","name":"VaultAddressMismatch","inputs":[]}],"bytecode":{"object":"0x6101c0604052348015610010575f80fd5b5060405161335b38038061335b83398101604081905261002f9161008b565b30608052336101a05260a09290925260c05260e0526001600160a01b03949094166101005263ffffffff928316610120529116610140526101605261018052610107565b805163ffffffff81168114610086575f80fd5b919050565b5f805f805f805f80610100898b0312156100a3575f80fd5b88516001600160a01b03811681146100b9575f80fd5b97506100c760208a01610073565b96506100d560408a01610073565b9550606089015194506080890151935060a0890151925060c0890151915060e089015190509295985092959890939650565b60805160a05160c05160e05161010051610120516101405161016051610180516101a0516131ce61018d5f395f50505f61048601525f61046001525f61043601525f61040c01525f81816105330152610a9801525f818160f0015261030f01525f818161012c015261028801525f818160a801526101fc01525f61016101526131ce5ff3fe608060405234801561000f575f80fd5b506004361061006f575f3560e01c8063a65be7d01161004d578063a65be7d0146100eb578063bfd4036a14610112578063cfa4dd8d14610127575f80fd5b8063337d4010146100735780638108101a146100a3578063851c1bb3146100d8575b5f80fd5b610086610081366004610b10565b61014e565b6040516001600160a01b0390911681526020015b60405180910390f35b6100ca7f000000000000000000000000000000000000000000000000000000000000000081565b60405190815260200161009a565b6100ca6100e6366004610b27565b61015e565b6100ca7f000000000000000000000000000000000000000000000000000000000000000081565b610125610120366004610bab565b6101da565b005b6100ca7f000000000000000000000000000000000000000000000000000000000000000081565b5f61015882610636565b92915050565b5f7f0000000000000000000000000000000000000000000000000000000000000000826040516020016101bd9291909182527fffffffff0000000000000000000000000000000000000000000000000000000016602082015260240190565b604051602081830303815290604052805190602001209050919050565b6101e2610641565b85856040516101f2929190610c64565b60405180910390207f00000000000000000000000000000000000000000000000000000000000000001461026e576040516363fa3cb760e11b815260206004820152600560248201527f5661756c7400000000000000000000000000000000000000000000000000000060448201526064015b60405180910390fd5b838360405161027e929190610c64565b60405180910390207f0000000000000000000000000000000000000000000000000000000000000000146102f5576040516363fa3cb760e11b815260206004820152600a60248201527f5661756c7441646d696e000000000000000000000000000000000000000000006044820152606401610265565b8181604051610305929190610c64565b60405180910390207f00000000000000000000000000000000000000000000000000000000000000001461037c576040516363fa3cb760e11b815260206004820152600e60248201527f5661756c74457874656e73696f6e0000000000000000000000000000000000006044820152606401610265565b5f6103868961014e565b9050806001600160a01b0316886001600160a01b0316146103ba5760405163b4c1be7b60e01b815260040160405180910390fd5b5f816040516103c890610b03565b6001600160a01b039091168152602001604051809103905ff0801580156103f1573d5f803e3d5ffd5b50604080516001600160a01b038516602082015263ffffffff7f00000000000000000000000000000000000000000000000000000000000000008116928201929092527f00000000000000000000000000000000000000000000000000000000000000009190911660608201527f000000000000000000000000000000000000000000000000000000000000000060808201527f000000000000000000000000000000000000000000000000000000000000000060a08201529091505f906104f290829081908a908a9060c0015b60408051601f19818403018152908290526104de939291602001610ca0565b6040516020818303038152906040526106b3565b90505f6105275f60015f1b888888876040516020016104bf9291906001600160a01b0392831681529116602082015260400190565b90505f6105b78d8c8c857f000000000000000000000000000000000000000000000000000000000000000089604051602001610583939291906001600160a01b0393841681529183166020830152909116604082015260600190565b60408051601f19818403018152908290526105a2939291602001610ca0565b6040516020818303038152906040525f610799565b9050846001600160a01b0316816001600160a01b0316146105eb5760405163b4c1be7b60e01b815260040160405180910390fd5b6040516001600160a01b03861681527f2e49a5810fda2439a23771848b4acec786b0a64d4de3d124ac57fc8739c388759060200160405180910390a150505050505050505050505050565b5f6101588230610909565b5f61066e5f357fffffffff000000000000000000000000000000000000000000000000000000001661015e565b905061067a8133610a51565b6106b0576040517f23dada5300000000000000000000000000000000000000000000000000000000815260040160405180910390fd5b50565b5f834710156106f7576040517fcf47918100000000000000000000000000000000000000000000000000000000815247600482015260248101859052604401610265565b81515f03610731576040517f4ca249dc00000000000000000000000000000000000000000000000000000000815260040160405180910390fd5b8282516020840186f590503d151981151615610752576040513d5f823e3d81fd5b6001600160a01b038116610792576040517fb06ebf3d00000000000000000000000000000000000000000000000000000000815260040160405180910390fd5b9392505050565b5f806040518060400160405280601081526020017f67363d3d37363d34f03d5260086018f30000000000000000000000000000000081525090505f858251602084015ff590506001600160a01b0381166108355760405162461bcd60e51b815260206004820152601160248201527f4445504c4f594d454e545f4641494c45440000000000000000000000000000006044820152606401610265565b61083e86610636565b92505f816001600160a01b0316858760405161085a9190610cbf565b5f6040518083038185875af1925050503d805f8114610894576040519150601f19603f3d011682016040523d82523d5f602084013e610899565b606091505b505090508080156108b357506001600160a01b0384163b15155b6108ff5760405162461bcd60e51b815260206004820152601560248201527f494e495449414c495a4154494f4e5f4641494c454400000000000000000000006044820152606401610265565b5050509392505050565b604080518082018252601081527f67363d3d37363d34f03d5260086018f30000000000000000000000000000000060209182015290517fff00000000000000000000000000000000000000000000000000000000000000918101919091526bffffffffffffffffffffffff19606083901b166021820152603581018390527f21c35dbe1b344a2488cf3321d6ce542f8e9f305544ff09e4993a62319a497c1f60558201525f9081906109d2906075015b6040516020818303038152906040528051906020012090565b6040517fd69400000000000000000000000000000000000000000000000000000000000060208201526bffffffffffffffffffffffff19606083901b1660228201527f01000000000000000000000000000000000000000000000000000000000000006036820152909150610a49906037016109b9565b949350505050565b6040517f9be2a884000000000000000000000000000000000000000000000000000000008152600481018390526001600160a01b0382811660248301523060448301525f917f000000000000000000000000000000000000000000000000000000000000000090911690639be2a88490606401602060405180830381865afa158015610adf573d5f803e3d5ffd5b505050506040513d601f19601f820116820180604052508101906107929190610cca565b6124af80610cea83390190565b5f60208284031215610b20575f80fd5b5035919050565b5f60208284031215610b37575f80fd5b81357fffffffff0000000000000000000000000000000000000000000000000000000081168114610792575f80fd5b5f8083601f840112610b76575f80fd5b50813567ffffffffffffffff811115610b8d575f80fd5b602083019150836020828501011115610ba4575f80fd5b9250929050565b5f805f805f805f8060a0898b031215610bc2575f80fd5b8835975060208901356001600160a01b0381168114610bdf575f80fd5b9650604089013567ffffffffffffffff80821115610bfb575f80fd5b610c078c838d01610b66565b909850965060608b0135915080821115610c1f575f80fd5b610c2b8c838d01610b66565b909650945060808b0135915080821115610c43575f80fd5b50610c508b828c01610b66565b999c989b5096995094979396929594505050565b818382375f9101908152919050565b5f81515f5b81811015610c925760208185018101518683015201610c78565b505f93019283525090919050565b828482375f8382015f8152610cb58185610c73565b9695505050505050565b5f6107928284610c73565b5f60208284031215610cda575f80fd5b81518015158114610792575f80fdfe60e060405234801561000f575f80fd5b50604051620024af380380620024af8339810160408190526100309161004a565b306080526001600160a01b031660a081905260c052610077565b5f6020828403121561005a575f80fd5b81516001600160a01b0381168114610070575f80fd5b9392505050565b60805160a05160c0516123c7620000e85f395f818161042c0152818161095301528181610dbc01528181610fa101528181611095015281816112c7015281816113fd015281816114d2015281816116660152611a9101525f81816103450152610b8801525f61078301526123c75ff3fe608060405234801561000f575f80fd5b506004361061019a575f3560e01c80638a3c5c69116100e8578063aaabadc511610093578063f70614451161006e578063f706144514610404578063fa399f2a14610417578063fbfa77cf1461042a578063fd267f3914610450575f80fd5b8063aaabadc5146103d6578063abaa3356146103de578063cf7b287f146103f1575f80fd5b80638f4ab9ca116100c35780638f4ab9ca1461039d5780639e95f3fd146103b0578063a93df2a4146103c3575f80fd5b80638a3c5c69146103305780638d928af8146103435780638df44c541461037d575f80fd5b806371447ea8116101485780637869ee18116101235780637869ee18146102c05780637a2b97dc146102c7578063851c1bb31461031d575f80fd5b806371447ea81461027257806371ecc8fb1461028557806377ff76e714610298575f80fd5b806352f125f01161017857806352f125f0146101ec57806355fb76af146101ff5780635c15a0b414610207575f80fd5b80630ddd60c61461019e5780631377c16c146101c45780633af52712146101d9575b5f80fd5b6101b16101ac366004611e8a565b610463565b6040519081526020015b60405180910390f35b6101d76101d2366004611ebe565b610477565b005b6101d76101e7366004611ebe565b6104c6565b6101d76101fa366004611ee8565b61050f565b6001546101b1565b61025d610215366004611ee8565b6001600160a01b03165f9081526002602090815260409182902082518084019093525467ffffffffffffffff8116808452600160401b90910460ff1615159290910182905291565b604080519283529015156020830152016101bb565b6101d7610280366004611ee8565b610537565b6101d7610293366004611ee8565b6105b4565b6102ab6102a6366004611f17565b61062c565b604080519283526020830191909152016101bb565b5f546101b1565b61025d6102d5366004611ee8565b6001600160a01b03165f9081526003602090815260409182902082518084019093525467ffffffffffffffff8116808452600160401b90910460ff1615159290910182905291565b6101b161032b366004611f5f565b610780565b6101d761033e366004611f86565b6107e4565b7f00000000000000000000000000000000000000000000000000000000000000005b6040516001600160a01b0390911681526020016101bb565b61039061038b366004611ee8565b61085b565b6040516101bb9190611f9d565b6101d76103ab366004611ee8565b61093e565b6103906103be366004611ee8565b610a3a565b6101d76103d1366004611f86565b610b15565b610365610b85565b6101d76103ec366004611ebe565b610c0b565b6101d76103ff366004611fe0565b610c5c565b6101d7610412366004611fe0565b610d5f565b6101d7610425366004611ee8565b610d78565b7f0000000000000000000000000000000000000000000000000000000000000000610365565b6101d761045e366004611ebe565b610e37565b5f61046e8383610e88565b90505b92915050565b8161048181610eb8565b81670de0b6b3a76400008111156104aa5760405162dc369d60e21b815260040160405180910390fd5b836104b48161093e565b6104bf85855f610f6c565b5050505050565b816104d081610eb8565b81670de0b6b3a76400008111156104f95760405162dc369d60e21b815260040160405180910390fd5b836105038161093e565b6104bf85856001610f6c565b6001600160a01b038082165f908152600460205260409020546105349183911661115a565b50565b806105418161093e565b6001600160a01b0382165f9081526003602090815260409182902082518084019093525467ffffffffffffffff81168352600160401b900460ff161580159183018290526001549161059e5750815167ffffffffffffffff168114155b156105ae576105ae84825f611255565b50505050565b806105be8161093e565b6001600160a01b0382165f90815260026020908152604080832081518083019092525467ffffffffffffffff81168252600160401b900460ff1615801592820183905292549092909161061c5750815167ffffffffffffffff168114155b156105ae576105ae84825f61138c565b5f806106366114c7565b6001600160a01b038581165f90815260046020526040902080547fffffffffffffffffffffffff00000000000000000000000000000000000000001691861691909117905582610687575f54610689565b5f5b9150826106985760015461069a565b5f5b905060405180604001604052806106b08461152d565b67ffffffffffffffff90811682528515156020928301526001600160a01b0388165f908152600283526040908190208451815495909401511515600160401b0268ffffffffffffffffff1990951693909216929092179290921790915580518082019091528061071f8361152d565b67ffffffffffffffff90811682529415156020918201526001600160a01b039096165f90815260038752604090208151815492909701511515600160401b0268ffffffffffffffffff19909216969094169590951794909417909155929050565b5f7f0000000000000000000000000000000000000000000000000000000000000000826040516020016107c79291909182526001600160e01b031916602082015260240190565b604051602081830303815290604052805190602001209050919050565b806706f05b59d3b2000081111561080e57604051637e6eb7fb60e01b815260040160405180910390fd5b61081781611580565b61081f6115d2565b5f8290556040518281527fbf5ac0fc89bbf8819be79f280146b65ea2af2a9705cd9cfe0c9d93f6e87f307d906020015b60405180910390a15050565b60605f8061086884611629565b915091508067ffffffffffffffff81111561088557610885612017565b6040519080825280602002602001820160405280156108ae578160200160208202803683370190505b5092505f5b81811015610936576001600160a01b0385165f90815260076020526040812084519091908590849081106108e9576108e961202b565b60200260200101516001600160a01b03166001600160a01b031681526020019081526020015f20548482815181106109235761092361202b565b60209081029190910101526001016108b3565b505050919050565b6040516001600160a01b0382811660248301527f000000000000000000000000000000000000000000000000000000000000000016906348c894919060440160408051601f198184030181529181526020820180517bffffffffffffffffffffffffffffffffffffffffffffffffffffffff167ffa399f2a00000000000000000000000000000000000000000000000000000000179052516001600160e01b031960e084901b1681526109f49190600401612061565b5f604051808303815f875af1158015610a0f573d5f803e3d5ffd5b505050506040513d5f823e601f3d908101601f19168201604052610a3691908101906120c4565b5050565b60605f80610a4784611629565b915091508067ffffffffffffffff811115610a6457610a64612017565b604051908082528060200260200182016040528015610a8d578160200160208202803683370190505b5092505f5b81811015610936576001600160a01b0385165f9081526008602052604081208451909190859084908110610ac857610ac861202b565b60200260200101516001600160a01b03166001600160a01b031681526020019081526020015f2054848281518110610b0257610b0261202b565b6020908102919091010152600101610a92565b806706f05b59d3b20000811115610b3f576040516353c24f4760e11b815260040160405180910390fd5b610b4881611580565b610b506115d2565b60018290556040518281527f48c5c3ccec54c4e0ea08d83d838fa9bb725eb0b52c591cb00bd6e63bca8c44f69060200161084f565b5f7f00000000000000000000000000000000000000000000000000000000000000006001600160a01b031663aaabadc56040518163ffffffff1660e01b8152600401602060405180830381865afa158015610be2573d5f803e3d5ffd5b505050506040513d601f19601f82011682018060405250810190610c069190612153565b905090565b610c136115d2565b806706f05b59d3b20000811115610c3d576040516353c24f4760e11b815260040160405180910390fd5b610c4681611580565b82610c508161093e565b6105ae84846001611255565b610c646115d2565b5f80610c6f84611629565b915091505f5b818110156104bf575f838281518110610c9057610c9061202b565b6020908102919091018101516001600160a01b038089165f908152600784526040808220928416825291909352909120549091508015610d55576001600160a01b038088165f90815260076020908152604080832093861680845293909152812055610cfd9087836116dc565b856001600160a01b0316826001600160a01b0316886001600160a01b03167f1c2887fcb98f75e66bb9a36311f2d3d22fb204e6362106f30e9df7eaf63131b584604051610d4c91815260200190565b60405180910390a45b5050600101610c75565b81610d6981610eb8565b610d73838361115a565b505050565b610d806114c7565b6040517f8f4ab9ca0000000000000000000000000000000000000000000000000000000081526001600160a01b0382811660048301525f9182917f00000000000000000000000000000000000000000000000000000000000000001690638f4ab9ca906024015f604051808303815f875af1158015610e01573d5f803e3d5ffd5b505050506040513d5f823e601f3d908101601f19168201604052610e2891908101906121fd565b91509150610d7383838361175c565b610e3f6115d2565b806706f05b59d3b20000811115610e6957604051637e6eb7fb60e01b815260040160405180910390fd5b610e7281611580565b82610e7c8161093e565b6105ae8484600161138c565b5f610ea382670de0b6b3a76400008581039086100290611773565b610ead9084612271565b905061047181611580565b6001600160a01b038082165f908152600460205260409020541680610f19576040517f8bcbf3530000000000000000000000000000000000000000000000000000000081526001600160a01b03831660048201526024015b60405180910390fd5b6001600160a01b0381163314610a36576040517ffbecdbf40000000000000000000000000000000000000000000000000000000081523360048201526001600160a01b0383166024820152604401610f10565b5f816001811115610f7f57610f7f612284565b03611078576001600160a01b038084165f9081526005602052604081208490557f000000000000000000000000000000000000000000000000000000000000000090911690635e0b06f4908590610fd790829061179b565b6040516001600160e01b031960e085901b1681526001600160a01b03909216600483015260248201526044015f604051808303815f87803b15801561101a575f80fd5b505af115801561102c573d5f803e3d5ffd5b50505050826001600160a01b03167fb7cf36369623c01ed7b2eafc4025224e924a2836d5fb49428a0f65417586bf5c8360405161106b91815260200190565b60405180910390a2505050565b6001600160a01b038084165f9081526006602052604090208390557f00000000000000000000000000000000000000000000000000000000000000001663e253670a846110c681600161179b565b6040516001600160e01b031960e085901b1681526001600160a01b03909216600483015260248201526044015f604051808303815f87803b158015611109575f80fd5b505af115801561111b573d5f803e3d5ffd5b50505050826001600160a01b03167f47f70ddbc624c299cef7841aaea0a86b677c800203e953104e958c9ec9bdab348360405161106b91815260200190565b5f8061116584611629565b915091505f5b818110156104bf575f8382815181106111865761118661202b565b6020908102919091018101516001600160a01b038089165f90815260088452604080822092841682529190935290912054909150801561124b576001600160a01b038088165f908152600860209081526040808320938616808452939091528120556111f39087836116dc565b856001600160a01b0316826001600160a01b0316886001600160a01b03167f938f3a3a03ee425ccc0f8010b0468938cbafd3750fa43bbdf09c6f75e97e51f98460405161124291815260200190565b60405180910390a45b505060010161116b565b60405180604001604052806112698461152d565b67ffffffffffffffff90811682528315156020928301526001600160a01b038087165f90815260038452604090208451815495909401511515600160401b0268ffffffffffffffffff199095169390921692909217929092179091557f00000000000000000000000000000000000000000000000000000000000000001663e253670a846112f881600161179b565b6040516001600160e01b031960e085901b1681526001600160a01b03909216600483015260248201526044015f604051808303815f87803b15801561133b575f80fd5b505af115801561134d573d5f803e3d5ffd5b50505050826001600160a01b03167faf47449d1c3597ccc9f5ec3acad03cef57aa90a719000441b320687087948efd8360405161106b91815260200190565b60405180604001604052806113a08461152d565b67ffffffffffffffff90811682528315156020928301526001600160a01b038087165f90815260028452604081208551815496909501511515600160401b0268ffffffffffffffffff1990961694909316939093179390931790557f000000000000000000000000000000000000000000000000000000000000000090911690635e0b06f490859061143390829061179b565b6040516001600160e01b031960e085901b1681526001600160a01b03909216600483015260248201526044015f604051808303815f87803b158015611476575f80fd5b505af1158015611488573d5f803e3d5ffd5b50505050826001600160a01b03167f97cff4b6e6d80e307faab8b730d9f69264e860f2e0e10cfb8cdaf8a2f44e839e8360405161106b91815260200190565b336001600160a01b037f0000000000000000000000000000000000000000000000000000000000000000161461152b576040517f089676d5000000000000000000000000000000000000000000000000000000008152336004820152602401610f10565b565b5f67ffffffffffffffff82111561157c57604080517f6dfcc650000000000000000000000000000000000000000000000000000000008152600481019190915260248101839052604401610f10565b5090565b8064174876e8006115918183612298565b61159b91906122b7565b14610534576040517f833fb3ce00000000000000000000000000000000000000000000000000000000815260040160405180910390fd5b5f6115e75f356001600160e01b031916610780565b90506115f38133611835565b610534576040517f23dada5300000000000000000000000000000000000000000000000000000000815260040160405180910390fd5b6040517fca4f28030000000000000000000000000000000000000000000000000000000081526001600160a01b0382811660048301526060915f917f0000000000000000000000000000000000000000000000000000000000000000169063ca4f2803906024015f60405180830381865afa1580156116aa573d5f803e3d5ffd5b505050506040513d5f823e601f3d908101601f191682016040526116d191908101906122ce565b915081519050915091565b604080516001600160a01b038416602482015260448082018490528251808303909101815260649091019091526020810180517bffffffffffffffffffffffffffffffffffffffffffffffffffffffff167fa9059cbb00000000000000000000000000000000000000000000000000000000179052610d739084906118ce565b611767835f84611953565b610d7383600183611953565b5f8061177f83856122b7565b9050611793670de0b6b3a764000082612298565b949350505050565b5f8080808460018111156117b1576117b1612284565b036117ee5750506001600160a01b0383165f9081526002602090815260408083205460059092529091205467ffffffffffffffff90911690611822565b50506001600160a01b0383165f9081526003602090815260408083205460069092529091205467ffffffffffffffff909116905b61182c8282610e88565b95945050505050565b5f61183e610b85565b6040517f9be2a884000000000000000000000000000000000000000000000000000000008152600481018590526001600160a01b0384811660248301523060448301529190911690639be2a88490606401602060405180830381865afa1580156118aa573d5f803e3d5ffd5b505050506040513d601f19601f8201168201806040525081019061046e9190612363565b5f8060205f8451602086015f885af1806118ed576040513d5f823e3d81fd5b50505f513d91508115611904578060011415611911565b6001600160a01b0384163b155b156105ae576040517f5274afe70000000000000000000000000000000000000000000000000000000081526001600160a01b0385166004820152602401610f10565b5f8083600181111561196757611967612284565b14611993576001600160a01b0384165f9081526003602052604090205467ffffffffffffffff166119b6565b6001600160a01b0384165f9081526002602052604090205467ffffffffffffffff165b67ffffffffffffffff1690505f808460018111156119d6576119d6612284565b146119f8576001600160a01b0385165f90815260066020526040902054611a11565b6001600160a01b0385165f908152600560205260409020545b90505f805f83118015611a2357505f84115b90508015611a3857611a358484610e88565b91505b5f80611a4389611629565b915091505f5b81811015611de0575f888281518110611a6457611a6461202b565b60200260200101511115611dd8575f838281518110611a8557611a8561202b565b602002602001015190507f00000000000000000000000000000000000000000000000000000000000000006001600160a01b031663ae63932982308c8681518110611ad257611ad261202b565b60209081029190910101516040516001600160e01b031960e086901b1681526001600160a01b03938416600482015292909116602483015260448201526064015f604051808303815f87803b158015611b29575f80fd5b505af1158015611b3b573d5f803e3d5ffd5b505f9250611b47915050565b8a6001811115611b5957611b59612284565b03611bc957806001600160a01b03168b6001600160a01b03167fae7ebad9fc3d1d17965f063fa520d393595e2ef6c8e22ae8413b60900444e19f8b8581518110611ba557611ba561202b565b6020026020010151604051611bbc91815260200190565b60405180910390a3611c30565b806001600160a01b03168b6001600160a01b03167fe505e41b0d437b47350a9990142ccf38acb11ffa0e5af8f973b9e172f3d5d5e28b8581518110611c1057611c1061202b565b6020026020010151604051611c2791815260200190565b60405180910390a35b8415611d1a575f611c63878b8581518110611c4d57611c4d61202b565b6020026020010151611dec90919063ffffffff16565b90505f611c70828b611e00565b6001600160a01b03808f165f908152600760209081526040808320938816835292905290812080549293508392909190611cab908490612271565b92505081905550808b8581518110611cc557611cc561202b565b6020026020010151611cd7919061237e565b6001600160a01b03808f165f90815260086020908152604080832093881683529290529081208054909190611d0d908490612271565b90915550611dd692505050565b865f03611d7e57888281518110611d3357611d3361202b565b6020908102919091018101516001600160a01b03808e165f9081526007845260408082209286168252919093528220805491929091611d73908490612271565b90915550611dd69050565b888281518110611d9057611d9061202b565b6020908102919091018101516001600160a01b03808e165f9081526008845260408082209286168252919093528220805491929091611dd0908490612271565b90915550505b505b600101611a49565b50505050505050505050565b5f61046e83670de0b6b3a764000084611e2c565b5f80611e0c83856122b7565b90506001670de0b6b3a76400006001830304018115150291505092915050565b5f815f03611e66576040517f0a0c22c700000000000000000000000000000000000000000000000000000000815260040160405180910390fd5b5f611e7184866122b7565b9050600183600183030401811515029150509392505050565b5f8060408385031215611e9b575f80fd5b50508035926020909101359150565b6001600160a01b0381168114610534575f80fd5b5f8060408385031215611ecf575f80fd5b8235611eda81611eaa565b946020939093013593505050565b5f60208284031215611ef8575f80fd5b8135611f0381611eaa565b9392505050565b8015158114610534575f80fd5b5f805f60608486031215611f29575f80fd5b8335611f3481611eaa565b92506020840135611f4481611eaa565b91506040840135611f5481611f0a565b809150509250925092565b5f60208284031215611f6f575f80fd5b81356001600160e01b031981168114611f03575f80fd5b5f60208284031215611f96575f80fd5b5035919050565b602080825282518282018190525f9190848201906040850190845b81811015611fd457835183529284019291840191600101611fb8565b50909695505050505050565b5f8060408385031215611ff1575f80fd5b8235611ffc81611eaa565b9150602083013561200c81611eaa565b809150509250929050565b634e487b7160e01b5f52604160045260245ffd5b634e487b7160e01b5f52603260045260245ffd5b5f5b83811015612059578181015183820152602001612041565b50505f910152565b602081525f825180602084015261207f81604085016020870161203f565b601f01601f19169190910160400192915050565b604051601f8201601f1916810167ffffffffffffffff811182821017156120bc576120bc612017565b604052919050565b5f602082840312156120d4575f80fd5b815167ffffffffffffffff808211156120eb575f80fd5b818401915084601f8301126120fe575f80fd5b81518181111561211057612110612017565b612123601f8201601f1916602001612093565b9150808252856020828501011115612139575f80fd5b61214a81602084016020860161203f565b50949350505050565b5f60208284031215612163575f80fd5b8151611f0381611eaa565b5f67ffffffffffffffff82111561218757612187612017565b5060051b60200190565b5f82601f8301126121a0575f80fd5b815160206121b56121b08361216e565b612093565b8083825260208201915060208460051b8701019350868411156121d6575f80fd5b602086015b848110156121f257805183529183019183016121db565b509695505050505050565b5f806040838503121561220e575f80fd5b825167ffffffffffffffff80821115612225575f80fd5b61223186838701612191565b93506020850151915080821115612246575f80fd5b5061225385828601612191565b9150509250929050565b634e487b7160e01b5f52601160045260245ffd5b808201808211156104715761047161225d565b634e487b7160e01b5f52602160045260245ffd5b5f826122b257634e487b7160e01b5f52601260045260245ffd5b500490565b80820281158282048414176104715761047161225d565b5f60208083850312156122df575f80fd5b825167ffffffffffffffff8111156122f5575f80fd5b8301601f81018513612305575f80fd5b80516123136121b08261216e565b81815260059190911b82018301908381019087831115612331575f80fd5b928401925b8284101561235857835161234981611eaa565b82529284019290840190612336565b979650505050505050565b5f60208284031215612373575f80fd5b8151611f0381611f0a565b818103818111156104715761047161225d56fea2646970667358221220045f1041108a4bb877872bfc801369afb5d0d3a955168d258289303f516043a064736f6c63430008180033a2646970667358221220c83cae37a87cdd75ef7de3f4ef0325fa7e281e75b0e5625ae03031defca556ef64736f6c63430008180033","linkReferences":{}},"methodIdentifiers":{"create(bytes32,address,bytes,bytes,bytes)":"bfd4036a","getActionId(bytes4)":"851c1bb3","getDeploymentAddress(bytes32)":"337d4010","vaultAdminCreationCodeHash()":"cfa4dd8d","vaultCreationCodeHash()":"8108101a","vaultExtensionCreationCodeHash()":"a65be7d0"},"id":95}