{"abi":[{"type":"constructor","inputs":[{"name":"mainVault","type":"address","internalType":"contract IVault"},{"name":"vaultAdmin","type":"address","internalType":"contract IVaultAdmin"}],"stateMutability":"nonpayable"},{"type":"fallback","stateMutability":"payable"},{"type":"receive","stateMutability":"payable"},{"type":"function","name":"allowance","inputs":[{"name":"token","type":"address","internalType":"address"},{"name":"owner","type":"address","internalType":"address"},{"name":"spender","type":"address","internalType":"address"}],"outputs":[{"name":"","type":"uint256","internalType":"uint256"}],"stateMutability":"view"},{"type":"function","name":"approve","inputs":[{"name":"owner","type":"address","internalType":"address"},{"name":"spender","type":"address","internalType":"address"},{"name":"amount","type":"uint256","internalType":"uint256"}],"outputs":[{"name":"","type":"bool","internalType":"bool"}],"stateMutability":"nonpayable"},{"type":"function","name":"balanceOf","inputs":[{"name":"token","type":"address","internalType":"address"},{"name":"account","type":"address","internalType":"address"}],"outputs":[{"name":"","type":"uint256","internalType":"uint256"}],"stateMutability":"view"},{"type":"function","name":"computeDynamicSwapFeePercentage","inputs":[{"name":"pool","type":"address","internalType":"address"},{"name":"swapParams","type":"tuple","internalType":"struct PoolSwapParams","components":[{"name":"kind","type":"uint8","internalType":"enum SwapKind"},{"name":"amountGivenScaled18","type":"uint256","internalType":"uint256"},{"name":"balancesScaled18","type":"uint256[]","internalType":"uint256[]"},{"name":"indexIn","type":"uint256","internalType":"uint256"},{"name":"indexOut","type":"uint256","internalType":"uint256"},{"name":"router","type":"address","internalType":"address"},{"name":"userData","type":"bytes","internalType":"bytes"}]}],"outputs":[{"name":"dynamicSwapFeePercentage","type":"uint256","internalType":"uint256"}],"stateMutability":"view"},{"type":"function","name":"getAddLiquidityCalledFlag","inputs":[{"name":"pool","type":"address","internalType":"address"}],"outputs":[{"name":"","type":"bool","internalType":"bool"}],"stateMutability":"view"},{"type":"function","name":"getAggregateSwapFeeAmount","inputs":[{"name":"pool","type":"address","internalType":"address"},{"name":"token","type":"address","internalType":"contract IERC20"}],"outputs":[{"name":"","type":"uint256","internalType":"uint256"}],"stateMutability":"view"},{"type":"function","name":"getAggregateYieldFeeAmount","inputs":[{"name":"pool","type":"address","internalType":"address"},{"name":"token","type":"address","internalType":"contract IERC20"}],"outputs":[{"name":"","type":"uint256","internalType":"uint256"}],"stateMutability":"view"},{"type":"function","name":"getBptRate","inputs":[{"name":"pool","type":"address","internalType":"address"}],"outputs":[{"name":"rate","type":"uint256","internalType":"uint256"}],"stateMutability":"view"},{"type":"function","name":"getCurrentLiveBalances","inputs":[{"name":"pool","type":"address","internalType":"address"}],"outputs":[{"name":"balancesLiveScaled18","type":"uint256[]","internalType":"uint256[]"}],"stateMutability":"view"},{"type":"function","name":"getHooksConfig","inputs":[{"name":"pool","type":"address","internalType":"address"}],"outputs":[{"name":"","type":"tuple","internalType":"struct HooksConfig","components":[{"name":"enableHookAdjustedAmounts","type":"bool","internalType":"bool"},{"name":"shouldCallBeforeInitialize","type":"bool","internalType":"bool"},{"name":"shouldCallAfterInitialize","type":"bool","internalType":"bool"},{"name":"shouldCallComputeDynamicSwapFee","type":"bool","internalType":"bool"},{"name":"shouldCallBeforeSwap","type":"bool","internalType":"bool"},{"name":"shouldCallAfterSwap","type":"bool","internalType":"bool"},{"name":"shouldCallBeforeAddLiquidity","type":"bool","internalType":"bool"},{"name":"shouldCallAfterAddLiquidity","type":"bool","internalType":"bool"},{"name":"shouldCallBeforeRemoveLiquidity","type":"bool","internalType":"bool"},{"name":"shouldCallAfterRemoveLiquidity","type":"bool","internalType":"bool"},{"name":"hooksContract","type":"address","internalType":"address"}]}],"stateMutability":"view"},{"type":"function","name":"getNonzeroDeltaCount","inputs":[],"outputs":[{"name":"","type":"uint256","internalType":"uint256"}],"stateMutability":"view"},{"type":"function","name":"getPoolConfig","inputs":[{"name":"pool","type":"address","internalType":"address"}],"outputs":[{"name":"","type":"tuple","internalType":"struct PoolConfig","components":[{"name":"liquidityManagement","type":"tuple","internalType":"struct LiquidityManagement","components":[{"name":"disableUnbalancedLiquidity","type":"bool","internalType":"bool"},{"name":"enableAddLiquidityCustom","type":"bool","internalType":"bool"},{"name":"enableRemoveLiquidityCustom","type":"bool","internalType":"bool"},{"name":"enableDonation","type":"bool","internalType":"bool"}]},{"name":"staticSwapFeePercentage","type":"uint256","internalType":"uint256"},{"name":"aggregateSwapFeePercentage","type":"uint256","internalType":"uint256"},{"name":"aggregateYieldFeePercentage","type":"uint256","internalType":"uint256"},{"name":"tokenDecimalDiffs","type":"uint40","internalType":"uint40"},{"name":"pauseWindowEndTime","type":"uint32","internalType":"uint32"},{"name":"isPoolRegistered","type":"bool","internalType":"bool"},{"name":"isPoolInitialized","type":"bool","internalType":"bool"},{"name":"isPoolPaused","type":"bool","internalType":"bool"},{"name":"isPoolInRecoveryMode","type":"bool","internalType":"bool"}]}],"stateMutability":"view"},{"type":"function","name":"getPoolData","inputs":[{"name":"pool","type":"address","internalType":"address"}],"outputs":[{"name":"","type":"tuple","internalType":"struct PoolData","components":[{"name":"poolConfigBits","type":"bytes32","internalType":"PoolConfigBits"},{"name":"tokens","type":"address[]","internalType":"contract IERC20[]"},{"name":"tokenInfo","type":"tuple[]","internalType":"struct TokenInfo[]","components":[{"name":"tokenType","type":"uint8","internalType":"enum TokenType"},{"name":"rateProvider","type":"address","internalType":"contract IRateProvider"},{"name":"paysYieldFees","type":"bool","internalType":"bool"}]},{"name":"balancesRaw","type":"uint256[]","internalType":"uint256[]"},{"name":"balancesLiveScaled18","type":"uint256[]","internalType":"uint256[]"},{"name":"tokenRates","type":"uint256[]","internalType":"uint256[]"},{"name":"decimalScalingFactors","type":"uint256[]","internalType":"uint256[]"}]}],"stateMutability":"view"},{"type":"function","name":"getPoolPausedState","inputs":[{"name":"pool","type":"address","internalType":"address"}],"outputs":[{"name":"","type":"bool","internalType":"bool"},{"name":"","type":"uint32","internalType":"uint32"},{"name":"","type":"uint32","internalType":"uint32"},{"name":"","type":"address","internalType":"address"}],"stateMutability":"view"},{"type":"function","name":"getPoolRoleAccounts","inputs":[{"name":"pool","type":"address","internalType":"address"}],"outputs":[{"name":"","type":"tuple","internalType":"struct PoolRoleAccounts","components":[{"name":"pauseManager","type":"address","internalType":"address"},{"name":"swapFeeManager","type":"address","internalType":"address"},{"name":"poolCreator","type":"address","internalType":"address"}]}],"stateMutability":"view"},{"type":"function","name":"getPoolTokenInfo","inputs":[{"name":"pool","type":"address","internalType":"address"}],"outputs":[{"name":"tokens","type":"address[]","internalType":"contract IERC20[]"},{"name":"tokenInfo","type":"tuple[]","internalType":"struct TokenInfo[]","components":[{"name":"tokenType","type":"uint8","internalType":"enum TokenType"},{"name":"rateProvider","type":"address","internalType":"contract IRateProvider"},{"name":"paysYieldFees","type":"bool","internalType":"bool"}]},{"name":"balancesRaw","type":"uint256[]","internalType":"uint256[]"},{"name":"lastBalancesLiveScaled18","type":"uint256[]","internalType":"uint256[]"}],"stateMutability":"view"},{"type":"function","name":"getPoolTokenRates","inputs":[{"name":"pool","type":"address","internalType":"address"}],"outputs":[{"name":"decimalScalingFactors","type":"uint256[]","internalType":"uint256[]"},{"name":"tokenRates","type":"uint256[]","internalType":"uint256[]"}],"stateMutability":"view"},{"type":"function","name":"getPoolTokens","inputs":[{"name":"pool","type":"address","internalType":"address"}],"outputs":[{"name":"tokens","type":"address[]","internalType":"contract IERC20[]"}],"stateMutability":"view"},{"type":"function","name":"getProtocolFeeController","inputs":[],"outputs":[{"name":"","type":"address","internalType":"contract IProtocolFeeController"}],"stateMutability":"view"},{"type":"function","name":"getReservesOf","inputs":[{"name":"token","type":"address","internalType":"contract IERC20"}],"outputs":[{"name":"","type":"uint256","internalType":"uint256"}],"stateMutability":"view"},{"type":"function","name":"getStaticSwapFeePercentage","inputs":[{"name":"pool","type":"address","internalType":"address"}],"outputs":[{"name":"","type":"uint256","internalType":"uint256"}],"stateMutability":"view"},{"type":"function","name":"getTokenDelta","inputs":[{"name":"token","type":"address","internalType":"contract IERC20"}],"outputs":[{"name":"","type":"int256","internalType":"int256"}],"stateMutability":"view"},{"type":"function","name":"getVaultAdmin","inputs":[],"outputs":[{"name":"","type":"address","internalType":"address"}],"stateMutability":"view"},{"type":"function","name":"initialize","inputs":[{"name":"pool","type":"address","internalType":"address"},{"name":"to","type":"address","internalType":"address"},{"name":"tokens","type":"address[]","internalType":"contract IERC20[]"},{"name":"exactAmountsIn","type":"uint256[]","internalType":"uint256[]"},{"name":"minBptAmountOut","type":"uint256","internalType":"uint256"},{"name":"userData","type":"bytes","internalType":"bytes"}],"outputs":[{"name":"bptAmountOut","type":"uint256","internalType":"uint256"}],"stateMutability":"nonpayable"},{"type":"function","name":"isERC4626BufferInitialized","inputs":[{"name":"wrappedToken","type":"address","internalType":"contract IERC4626"}],"outputs":[{"name":"","type":"bool","internalType":"bool"}],"stateMutability":"view"},{"type":"function","name":"isPoolInRecoveryMode","inputs":[{"name":"pool","type":"address","internalType":"address"}],"outputs":[{"name":"","type":"bool","internalType":"bool"}],"stateMutability":"view"},{"type":"function","name":"isPoolInitialized","inputs":[{"name":"pool","type":"address","internalType":"address"}],"outputs":[{"name":"","type":"bool","internalType":"bool"}],"stateMutability":"view"},{"type":"function","name":"isPoolPaused","inputs":[{"name":"pool","type":"address","internalType":"address"}],"outputs":[{"name":"","type":"bool","internalType":"bool"}],"stateMutability":"view"},{"type":"function","name":"isPoolRegistered","inputs":[{"name":"pool","type":"address","internalType":"address"}],"outputs":[{"name":"","type":"bool","internalType":"bool"}],"stateMutability":"view"},{"type":"function","name":"isQueryDisabled","inputs":[],"outputs":[{"name":"","type":"bool","internalType":"bool"}],"stateMutability":"view"},{"type":"function","name":"isUnlocked","inputs":[],"outputs":[{"name":"","type":"bool","internalType":"bool"}],"stateMutability":"view"},{"type":"function","name":"quote","inputs":[{"name":"data","type":"bytes","internalType":"bytes"}],"outputs":[{"name":"result","type":"bytes","internalType":"bytes"}],"stateMutability":"nonpayable"},{"type":"function","name":"quoteAndRevert","inputs":[{"name":"data","type":"bytes","internalType":"bytes"}],"outputs":[],"stateMutability":"nonpayable"},{"type":"function","name":"reentrancyGuardEntered","inputs":[],"outputs":[{"name":"","type":"bool","internalType":"bool"}],"stateMutability":"view"},{"type":"function","name":"registerPool","inputs":[{"name":"pool","type":"address","internalType":"address"},{"name":"tokenConfig","type":"tuple[]","internalType":"struct TokenConfig[]","components":[{"name":"token","type":"address","internalType":"contract IERC20"},{"name":"tokenType","type":"uint8","internalType":"enum TokenType"},{"name":"rateProvider","type":"address","internalType":"contract IRateProvider"},{"name":"paysYieldFees","type":"bool","internalType":"bool"}]},{"name":"swapFeePercentage","type":"uint256","internalType":"uint256"},{"name":"pauseWindowEndTime","type":"uint32","internalType":"uint32"},{"name":"protocolFeeExempt","type":"bool","internalType":"bool"},{"name":"roleAccounts","type":"tuple","internalType":"struct PoolRoleAccounts","components":[{"name":"pauseManager","type":"address","internalType":"address"},{"name":"swapFeeManager","type":"address","internalType":"address"},{"name":"poolCreator","type":"address","internalType":"address"}]},{"name":"poolHooksContract","type":"address","internalType":"address"},{"name":"liquidityManagement","type":"tuple","internalType":"struct LiquidityManagement","components":[{"name":"disableUnbalancedLiquidity","type":"bool","internalType":"bool"},{"name":"enableAddLiquidityCustom","type":"bool","internalType":"bool"},{"name":"enableRemoveLiquidityCustom","type":"bool","internalType":"bool"},{"name":"enableDonation","type":"bool","internalType":"bool"}]}],"outputs":[],"stateMutability":"nonpayable"},{"type":"function","name":"removeLiquidityRecovery","inputs":[{"name":"pool","type":"address","internalType":"address"},{"name":"from","type":"address","internalType":"address"},{"name":"exactBptAmountIn","type":"uint256","internalType":"uint256"}],"outputs":[{"name":"amountsOutRaw","type":"uint256[]","internalType":"uint256[]"}],"stateMutability":"nonpayable"},{"type":"function","name":"totalSupply","inputs":[{"name":"token","type":"address","internalType":"address"}],"outputs":[{"name":"","type":"uint256","internalType":"uint256"}],"stateMutability":"view"},{"type":"function","name":"transfer","inputs":[{"name":"owner","type":"address","internalType":"address"},{"name":"to","type":"address","internalType":"address"},{"name":"amount","type":"uint256","internalType":"uint256"}],"outputs":[{"name":"","type":"bool","internalType":"bool"}],"stateMutability":"nonpayable"},{"type":"function","name":"transferFrom","inputs":[{"name":"spender","type":"address","internalType":"address"},{"name":"from","type":"address","internalType":"address"},{"name":"to","type":"address","internalType":"address"},{"name":"amount","type":"uint256","internalType":"uint256"}],"outputs":[{"name":"","type":"bool","internalType":"bool"}],"stateMutability":"nonpayable"},{"type":"function","name":"vault","inputs":[],"outputs":[{"name":"","type":"address","internalType":"contract IVault"}],"stateMutability":"view"},{"type":"event","name":"AggregateSwapFeePercentageChanged","inputs":[{"name":"pool","type":"address","indexed":true,"internalType":"address"},{"name":"aggregateSwapFeePercentage","type":"uint256","indexed":false,"internalType":"uint256"}],"anonymous":false},{"type":"event","name":"AggregateYieldFeePercentageChanged","inputs":[{"name":"pool","type":"address","indexed":true,"internalType":"address"},{"name":"aggregateYieldFeePercentage","type":"uint256","indexed":false,"internalType":"uint256"}],"anonymous":false},{"type":"event","name":"Approval","inputs":[{"name":"pool","type":"address","indexed":true,"internalType":"address"},{"name":"owner","type":"address","indexed":true,"internalType":"address"},{"name":"spender","type":"address","indexed":true,"internalType":"address"},{"name":"value","type":"uint256","indexed":false,"internalType":"uint256"}],"anonymous":false},{"type":"event","name":"AuthorizerChanged","inputs":[{"name":"newAuthorizer","type":"address","indexed":true,"internalType":"contract IAuthorizer"}],"anonymous":false},{"type":"event","name":"BufferSharesBurned","inputs":[{"name":"wrappedToken","type":"address","indexed":true,"internalType":"contract IERC4626"},{"name":"from","type":"address","indexed":true,"internalType":"address"},{"name":"burnedShares","type":"uint256","indexed":false,"internalType":"uint256"}],"anonymous":false},{"type":"event","name":"BufferSharesMinted","inputs":[{"name":"wrappedToken","type":"address","indexed":true,"internalType":"contract IERC4626"},{"name":"to","type":"address","indexed":true,"internalType":"address"},{"name":"issuedShares","type":"uint256","indexed":false,"internalType":"uint256"}],"anonymous":false},{"type":"event","name":"LiquidityAddedToBuffer","inputs":[{"name":"wrappedToken","type":"address","indexed":true,"internalType":"contract IERC4626"},{"name":"amountUnderlying","type":"uint256","indexed":false,"internalType":"uint256"},{"name":"amountWrapped","type":"uint256","indexed":false,"internalType":"uint256"}],"anonymous":false},{"type":"event","name":"LiquidityRemovedFromBuffer","inputs":[{"name":"wrappedToken","type":"address","indexed":true,"internalType":"contract IERC4626"},{"name":"amountUnderlying","type":"uint256","indexed":false,"internalType":"uint256"},{"name":"amountWrapped","type":"uint256","indexed":false,"internalType":"uint256"}],"anonymous":false},{"type":"event","name":"PoolBalanceChanged","inputs":[{"name":"pool","type":"address","indexed":true,"internalType":"address"},{"name":"liquidityProvider","type":"address","indexed":true,"internalType":"address"},{"name":"totalSupply","type":"uint256","indexed":false,"internalType":"uint256"},{"name":"deltas","type":"int256[]","indexed":false,"internalType":"int256[]"},{"name":"swapFeeAmountsRaw","type":"uint256[]","indexed":false,"internalType":"uint256[]"}],"anonymous":false},{"type":"event","name":"PoolInitialized","inputs":[{"name":"pool","type":"address","indexed":true,"internalType":"address"}],"anonymous":false},{"type":"event","name":"PoolPausedStateChanged","inputs":[{"name":"pool","type":"address","indexed":true,"internalType":"address"},{"name":"paused","type":"bool","indexed":false,"internalType":"bool"}],"anonymous":false},{"type":"event","name":"PoolRecoveryModeStateChanged","inputs":[{"name":"pool","type":"address","indexed":true,"internalType":"address"},{"name":"recoveryMode","type":"bool","indexed":false,"internalType":"bool"}],"anonymous":false},{"type":"event","name":"PoolRegistered","inputs":[{"name":"pool","type":"address","indexed":true,"internalType":"address"},{"name":"factory","type":"address","indexed":true,"internalType":"address"},{"name":"tokenConfig","type":"tuple[]","indexed":false,"internalType":"struct TokenConfig[]","components":[{"name":"token","type":"address","internalType":"contract IERC20"},{"name":"tokenType","type":"uint8","internalType":"enum TokenType"},{"name":"rateProvider","type":"address","internalType":"contract IRateProvider"},{"name":"paysYieldFees","type":"bool","internalType":"bool"}]},{"name":"swapFeePercentage","type":"uint256","indexed":false,"internalType":"uint256"},{"name":"pauseWindowEndTime","type":"uint32","indexed":false,"internalType":"uint32"},{"name":"roleAccounts","type":"tuple","indexed":false,"internalType":"struct PoolRoleAccounts","components":[{"name":"pauseManager","type":"address","internalType":"address"},{"name":"swapFeeManager","type":"address","internalType":"address"},{"name":"poolCreator","type":"address","internalType":"address"}]},{"name":"hooksConfig","type":"tuple","indexed":false,"internalType":"struct HooksConfig","components":[{"name":"enableHookAdjustedAmounts","type":"bool","internalType":"bool"},{"name":"shouldCallBeforeInitialize","type":"bool","internalType":"bool"},{"name":"shouldCallAfterInitialize","type":"bool","internalType":"bool"},{"name":"shouldCallComputeDynamicSwapFee","type":"bool","internalType":"bool"},{"name":"shouldCallBeforeSwap","type":"bool","internalType":"bool"},{"name":"shouldCallAfterSwap","type":"bool","internalType":"bool"},{"name":"shouldCallBeforeAddLiquidity","type":"bool","internalType":"bool"},{"name":"shouldCallAfterAddLiquidity","type":"bool","internalType":"bool"},{"name":"shouldCallBeforeRemoveLiquidity","type":"bool","internalType":"bool"},{"name":"shouldCallAfterRemoveLiquidity","type":"bool","internalType":"bool"},{"name":"hooksContract","type":"address","internalType":"address"}]},{"name":"liquidityManagement","type":"tuple","indexed":false,"internalType":"struct LiquidityManagement","components":[{"name":"disableUnbalancedLiquidity","type":"bool","internalType":"bool"},{"name":"enableAddLiquidityCustom","type":"bool","internalType":"bool"},{"name":"enableRemoveLiquidityCustom","type":"bool","internalType":"bool"},{"name":"enableDonation","type":"bool","internalType":"bool"}]}],"anonymous":false},{"type":"event","name":"ProtocolFeeControllerChanged","inputs":[{"name":"newProtocolFeeController","type":"address","indexed":true,"internalType":"contract IProtocolFeeController"}],"anonymous":false},{"type":"event","name":"Swap","inputs":[{"name":"pool","type":"address","indexed":true,"internalType":"address"},{"name":"tokenIn","type":"address","indexed":true,"internalType":"contract IERC20"},{"name":"tokenOut","type":"address","indexed":true,"internalType":"contract IERC20"},{"name":"amountIn","type":"uint256","indexed":false,"internalType":"uint256"},{"name":"amountOut","type":"uint256","indexed":false,"internalType":"uint256"},{"name":"swapFeePercentage","type":"uint256","indexed":false,"internalType":"uint256"},{"name":"swapFeeAmount","type":"uint256","indexed":false,"internalType":"uint256"}],"anonymous":false},{"type":"event","name":"SwapFeePercentageChanged","inputs":[{"name":"pool","type":"address","indexed":true,"internalType":"address"},{"name":"swapFeePercentage","type":"uint256","indexed":false,"internalType":"uint256"}],"anonymous":false},{"type":"event","name":"Transfer","inputs":[{"name":"pool","type":"address","indexed":true,"internalType":"address"},{"name":"from","type":"address","indexed":true,"internalType":"address"},{"name":"to","type":"address","indexed":true,"internalType":"address"},{"name":"value","type":"uint256","indexed":false,"internalType":"uint256"}],"anonymous":false},{"type":"event","name":"Unwrap","inputs":[{"name":"wrappedToken","type":"address","indexed":true,"internalType":"contract IERC4626"},{"name":"underlyingToken","type":"address","indexed":true,"internalType":"contract IERC20"},{"name":"burnedShares","type":"uint256","indexed":false,"internalType":"uint256"},{"name":"withdrawnUnderlying","type":"uint256","indexed":false,"internalType":"uint256"}],"anonymous":false},{"type":"event","name":"VaultBuffersPausedStateChanged","inputs":[{"name":"paused","type":"bool","indexed":false,"internalType":"bool"}],"anonymous":false},{"type":"event","name":"VaultPausedStateChanged","inputs":[{"name":"paused","type":"bool","indexed":false,"internalType":"bool"}],"anonymous":false},{"type":"event","name":"VaultQueriesDisabled","inputs":[],"anonymous":false},{"type":"event","name":"Wrap","inputs":[{"name":"underlyingToken","type":"address","indexed":true,"internalType":"contract IERC20"},{"name":"wrappedToken","type":"address","indexed":true,"internalType":"contract IERC4626"},{"name":"depositedUnderlying","type":"uint256","indexed":false,"internalType":"uint256"},{"name":"mintedShares","type":"uint256","indexed":false,"internalType":"uint256"}],"anonymous":false},{"type":"error","name":"AddressEmptyCode","inputs":[{"name":"target","type":"address","internalType":"address"}]},{"type":"error","name":"AfterAddLiquidityHookFailed","inputs":[]},{"type":"error","name":"AfterInitializeHookFailed","inputs":[]},{"type":"error","name":"AfterRemoveLiquidityHookFailed","inputs":[]},{"type":"error","name":"AfterSwapHookFailed","inputs":[]},{"type":"error","name":"AmountGivenZero","inputs":[]},{"type":"error","name":"AmountInAboveMax","inputs":[{"name":"tokenIn","type":"address","internalType":"contract IERC20"},{"name":"amountIn","type":"uint256","internalType":"uint256"},{"name":"maxAmountIn","type":"uint256","internalType":"uint256"}]},{"type":"error","name":"AmountOutBelowMin","inputs":[{"name":"tokenOut","type":"address","internalType":"contract IERC20"},{"name":"amountOut","type":"uint256","internalType":"uint256"},{"name":"minAmountOut","type":"uint256","internalType":"uint256"}]},{"type":"error","name":"BalanceNotSettled","inputs":[]},{"type":"error","name":"BalanceOverflow","inputs":[]},{"type":"error","name":"BeforeAddLiquidityHookFailed","inputs":[]},{"type":"error","name":"BeforeInitializeHookFailed","inputs":[]},{"type":"error","name":"BeforeRemoveLiquidityHookFailed","inputs":[]},{"type":"error","name":"BeforeSwapHookFailed","inputs":[]},{"type":"error","name":"BptAmountInAboveMax","inputs":[{"name":"amountIn","type":"uint256","internalType":"uint256"},{"name":"maxAmountIn","type":"uint256","internalType":"uint256"}]},{"type":"error","name":"BptAmountOutBelowMin","inputs":[{"name":"amountOut","type":"uint256","internalType":"uint256"},{"name":"minAmountOut","type":"uint256","internalType":"uint256"}]},{"type":"error","name":"BufferAlreadyInitialized","inputs":[{"name":"wrappedToken","type":"address","internalType":"contract IERC4626"}]},{"type":"error","name":"BufferNotInitialized","inputs":[{"name":"wrappedToken","type":"address","internalType":"contract IERC4626"}]},{"type":"error","name":"BufferSharesInvalidOwner","inputs":[]},{"type":"error","name":"BufferSharesInvalidReceiver","inputs":[]},{"type":"error","name":"BufferTotalSupplyTooLow","inputs":[{"name":"totalSupply","type":"uint256","internalType":"uint256"}]},{"type":"error","name":"CannotReceiveEth","inputs":[]},{"type":"error","name":"CannotSwapSameToken","inputs":[]},{"type":"error","name":"CodecOverflow","inputs":[]},{"type":"error","name":"DoesNotSupportAddLiquidityCustom","inputs":[]},{"type":"error","name":"DoesNotSupportDonation","inputs":[]},{"type":"error","name":"DoesNotSupportRemoveLiquidityCustom","inputs":[]},{"type":"error","name":"DoesNotSupportUnbalancedLiquidity","inputs":[]},{"type":"error","name":"DynamicSwapFeeHookFailed","inputs":[]},{"type":"error","name":"ERC20InsufficientAllowance","inputs":[{"name":"spender","type":"address","internalType":"address"},{"name":"allowance","type":"uint256","internalType":"uint256"},{"name":"needed","type":"uint256","internalType":"uint256"}]},{"type":"error","name":"ERC20InsufficientBalance","inputs":[{"name":"sender","type":"address","internalType":"address"},{"name":"balance","type":"uint256","internalType":"uint256"},{"name":"needed","type":"uint256","internalType":"uint256"}]},{"type":"error","name":"ERC20InvalidApprover","inputs":[{"name":"approver","type":"address","internalType":"address"}]},{"type":"error","name":"ERC20InvalidReceiver","inputs":[{"name":"receiver","type":"address","internalType":"address"}]},{"type":"error","name":"ERC20InvalidSender","inputs":[{"name":"sender","type":"address","internalType":"address"}]},{"type":"error","name":"ERC20InvalidSpender","inputs":[{"name":"spender","type":"address","internalType":"address"}]},{"type":"error","name":"ErrorSelectorNotFound","inputs":[]},{"type":"error","name":"FailedCall","inputs":[]},{"type":"error","name":"FeePrecisionTooHigh","inputs":[]},{"type":"error","name":"HookAdjustedAmountInAboveMax","inputs":[{"name":"tokenIn","type":"address","internalType":"contract IERC20"},{"name":"amountIn","type":"uint256","internalType":"uint256"},{"name":"maxAmountIn","type":"uint256","internalType":"uint256"}]},{"type":"error","name":"HookAdjustedAmountOutBelowMin","inputs":[{"name":"tokenOut","type":"address","internalType":"contract IERC20"},{"name":"amountOut","type":"uint256","internalType":"uint256"},{"name":"minAmountOut","type":"uint256","internalType":"uint256"}]},{"type":"error","name":"HookAdjustedSwapLimit","inputs":[{"name":"amount","type":"uint256","internalType":"uint256"},{"name":"limit","type":"uint256","internalType":"uint256"}]},{"type":"error","name":"HookRegistrationFailed","inputs":[{"name":"poolHooksContract","type":"address","internalType":"address"},{"name":"pool","type":"address","internalType":"address"},{"name":"poolFactory","type":"address","internalType":"address"}]},{"type":"error","name":"InputLengthMismatch","inputs":[]},{"type":"error","name":"InsufficientBalance","inputs":[{"name":"balance","type":"uint256","internalType":"uint256"},{"name":"needed","type":"uint256","internalType":"uint256"}]},{"type":"error","name":"InvalidAddLiquidityKind","inputs":[]},{"type":"error","name":"InvalidRemoveLiquidityKind","inputs":[]},{"type":"error","name":"InvalidToken","inputs":[]},{"type":"error","name":"InvalidTokenConfiguration","inputs":[]},{"type":"error","name":"InvalidTokenType","inputs":[]},{"type":"error","name":"InvalidUnderlyingToken","inputs":[{"name":"wrappedToken","type":"address","internalType":"contract IERC4626"}]},{"type":"error","name":"MaxTokens","inputs":[]},{"type":"error","name":"MinTokens","inputs":[]},{"type":"error","name":"NotEnoughBufferShares","inputs":[]},{"type":"error","name":"NotEnoughUnderlying","inputs":[{"name":"wrappedToken","type":"address","internalType":"contract IERC4626"},{"name":"expectedUnderlyingAmount","type":"uint256","internalType":"uint256"},{"name":"actualUnderlyingAmount","type":"uint256","internalType":"uint256"}]},{"type":"error","name":"NotEnoughWrapped","inputs":[{"name":"wrappedToken","type":"address","internalType":"contract IERC4626"},{"name":"expectedWrappedAmount","type":"uint256","internalType":"uint256"},{"name":"actualWrappedAmount","type":"uint256","internalType":"uint256"}]},{"type":"error","name":"NotStaticCall","inputs":[]},{"type":"error","name":"NotVaultDelegateCall","inputs":[]},{"type":"error","name":"OutOfBounds","inputs":[]},{"type":"error","name":"PauseBufferPeriodDurationTooLarge","inputs":[]},{"type":"error","name":"PercentageAboveMax","inputs":[]},{"type":"error","name":"PoolAlreadyInitialized","inputs":[{"name":"pool","type":"address","internalType":"address"}]},{"type":"error","name":"PoolAlreadyRegistered","inputs":[{"name":"pool","type":"address","internalType":"address"}]},{"type":"error","name":"PoolInRecoveryMode","inputs":[{"name":"pool","type":"address","internalType":"address"}]},{"type":"error","name":"PoolNotInRecoveryMode","inputs":[{"name":"pool","type":"address","internalType":"address"}]},{"type":"error","name":"PoolNotInitialized","inputs":[{"name":"pool","type":"address","internalType":"address"}]},{"type":"error","name":"PoolNotPaused","inputs":[{"name":"pool","type":"address","internalType":"address"}]},{"type":"error","name":"PoolNotRegistered","inputs":[{"name":"pool","type":"address","internalType":"address"}]},{"type":"error","name":"PoolPauseWindowExpired","inputs":[{"name":"pool","type":"address","internalType":"address"}]},{"type":"error","name":"PoolPaused","inputs":[{"name":"pool","type":"address","internalType":"address"}]},{"type":"error","name":"PoolTotalSupplyTooLow","inputs":[{"name":"totalSupply","type":"uint256","internalType":"uint256"}]},{"type":"error","name":"ProtocolFeesExceedTotalCollected","inputs":[]},{"type":"error","name":"QueriesDisabled","inputs":[]},{"type":"error","name":"QuoteResultSpoofed","inputs":[]},{"type":"error","name":"ReentrancyGuardReentrantCall","inputs":[]},{"type":"error","name":"Result","inputs":[{"name":"result","type":"bytes","internalType":"bytes"}]},{"type":"error","name":"RouterNotTrusted","inputs":[]},{"type":"error","name":"SafeCastOverflowedUintToInt","inputs":[{"name":"value","type":"uint256","internalType":"uint256"}]},{"type":"error","name":"SenderIsNotVault","inputs":[{"name":"sender","type":"address","internalType":"address"}]},{"type":"error","name":"SwapFeePercentageTooHigh","inputs":[]},{"type":"error","name":"SwapFeePercentageTooLow","inputs":[]},{"type":"error","name":"SwapLimit","inputs":[{"name":"amount","type":"uint256","internalType":"uint256"},{"name":"limit","type":"uint256","internalType":"uint256"}]},{"type":"error","name":"TokenAlreadyRegistered","inputs":[{"name":"token","type":"address","internalType":"contract IERC20"}]},{"type":"error","name":"TokenNotRegistered","inputs":[{"name":"token","type":"address","internalType":"contract IERC20"}]},{"type":"error","name":"TokensMismatch","inputs":[{"name":"pool","type":"address","internalType":"address"},{"name":"expectedToken","type":"address","internalType":"address"},{"name":"actualToken","type":"address","internalType":"address"}]},{"type":"error","name":"TokensNotSorted","inputs":[]},{"type":"error","name":"TradeAmountTooSmall","inputs":[]},{"type":"error","name":"VaultBuffersArePaused","inputs":[]},{"type":"error","name":"VaultIsNotUnlocked","inputs":[]},{"type":"error","name":"VaultNotPaused","inputs":[]},{"type":"error","name":"VaultPauseWindowDurationTooLarge","inputs":[]},{"type":"error","name":"VaultPauseWindowExpired","inputs":[]},{"type":"error","name":"VaultPaused","inputs":[]},{"type":"error","name":"WrapAmountTooSmall","inputs":[{"name":"wrappedToken","type":"address","internalType":"contract IERC4626"}]},{"type":"error","name":"WrongProtocolFeeControllerDeployment","inputs":[]},{"type":"error","name":"WrongUnderlyingToken","inputs":[{"name":"wrappedToken","type":"address","internalType":"contract IERC4626"},{"name":"underlyingToken","type":"address","internalType":"address"}]},{"type":"error","name":"WrongVaultAdminDeployment","inputs":[]},{"type":"error","name":"WrongVaultExtensionDeployment","inputs":[]}],"bytecode":{"object":"0x610220604052600a6101e0908152691a5cd55b9b1bd8dad95960b21b610200526200002a9062000305565b60c0526040805180820190915260118152701b9bdb96995c9bd1195b1d1850dbdd5b9d607a1b6020820152620000609062000305565b60e05260408051808201909152600b81526a746f6b656e44656c74617360a81b6020820152620000909062000305565b61010052604080518082019091526012815271185919131a5c5d5a591a5d1e50d85b1b195960721b6020820152620000c89062000305565b61012052348015620000d8575f80fd5b506040516200741838038062007418833981016040819052620000fb91620003cd565b816001600160a01b0316816001600160a01b031663fbfa77cf6040518163ffffffff1660e01b8152600401602060405180830381865afa15801562000142573d5f803e3d5ffd5b505050506040513d601f19601f820116820180604052508101906200016891906200040a565b6001600160a01b0316146200019057604051634166145b60e11b815260040160405180910390fd5b806001600160a01b0316638a8d123a6040518163ffffffff1660e01b8152600401602060405180830381865afa158015620001cd573d5f803e3d5ffd5b505050506040513d601f19601f82011682018060405250810190620001f391906200042f565b63ffffffff166101408163ffffffff1681525050806001600160a01b03166320c1fb7a6040518163ffffffff1660e01b8152600401602060405180830381865afa15801562000244573d5f803e3d5ffd5b505050506040513d601f19601f820116820180604052508101906200026a91906200042f565b63ffffffff166101808163ffffffff1681525050806001600160a01b031663cd51c12f6040518163ffffffff1660e01b8152600401602060405180830381865afa158015620002bb573d5f803e3d5ffd5b505050506040513d601f19601f82011682018060405250810190620002e191906200042f565b63ffffffff16610160526001600160a01b039182166101a052166101c052620004f5565b5f6200033c60405180604001604052600c8152806020016b5661756c7453746f7261676560a01b815250836200034260201b60201c565b92915050565b5f60ff5f1b19600184846040516020016200035f92919062000483565b604051602081830303815290604052805190602001205f1c620003839190620004d5565b6040516020016200039691815260200190565b6040516020818303038152906040528051906020012016905092915050565b6001600160a01b0381168114620003ca575f80fd5b50565b5f8060408385031215620003df575f80fd5b8251620003ec81620003b5565b6020840151909250620003ff81620003b5565b809150509250929050565b5f602082840312156200041b575f80fd5b81516200042881620003b5565b9392505050565b5f6020828403121562000440575f80fd5b815163ffffffff8116811462000428575f80fd5b5f81515f5b8181101562000475576020818501810151868301520162000459565b505f93019283525090919050565b7f62616c616e6365722d6c6162732e76332e73746f726167652e0000000000000081525f620004b6601983018562000454565b601760f91b8152620004cc600182018562000454565b95945050505050565b818103818111156200033c57634e487b7160e01b5f52601160045260245ffd5b60805160a05160c05160e05161010051610120516101405161016051610180516101a0516101c051616e73620005a55f395f81816103f601526108d701525f81816108ae0152611d8001525f8181610a04015261211b01525f614f9701525f50505f61167101525f8181611636015281816148f9015261499601525f81816119e501528181614938015261496d01525f81816115650152818161215701526128bc01525f50505f5050616e735ff3fe6080604052600436106102bd575f3560e01c80639e825ff51161016d578063d2c725e0116100ca578063edfa35681161007e578063f29486a111610063578063f29486a114610855578063f7888aec14610881578063fbfa77cf146108a0576102db565b8063edfa35681461080a578063eeec802f14610836576102db565b8063e1f21c67116100af578063e1f21c67146107a0578063e4dc2aa4146107bf578063e9ddeb26146107de576102db565b8063d2c725e014610759578063db8171871461078c576102db565b8063be7d628a11610121578063c673bdaf11610106578063c673bdaf146106e2578063ca4f280314610701578063ce8630d41461072d576102db565b8063be7d628a146106a4578063beabacc8146106c3576102db565b8063b45090f911610152578063b45090f914610652578063b4aef0ab14610671578063ba8a2be014610685576102db565b80639e825ff514610614578063ace9b89b14610633576102db565b806367e0e0761161021b5780638380edb7116101cf57806385f2dbd4116101b457806385f2dbd4146105c2578063927da105146105d657806396787092146105f5576102db565b80638380edb71461058f57806385e0b999146105a3576102db565b80636c9bc732116102005780636c9bc73214610524578063757d64b3146105435780637e361bde14610562576102db565b806367e0e076146104d65780636844846b14610505576102db565b80633a2d133b116102725780634f037ee7116102575780634f037ee714610479578063532cec7c14610498578063535cfd8a146104b7576102db565b80633a2d133b1461042e5780634d472bdd1461045a576102db565b806315dacbea116102a357806315dacbea1461036257806315e32046146103915780631ba0ae45146103e8576102db565b8062fdfa131461030457806313d21cdf14610336576102db565b366102db57604051637911c44b60e11b815260040160405180910390fd5b34156102fa57604051637911c44b60e11b815260040160405180910390fd5b6103026108d2565b005b34801561030f575f80fd5b5061032361031e366004615b20565b6108fd565b6040519081526020015b60405180910390f35b348015610341575f80fd5b50610355610350366004615b57565b610943565b60405161032d9190615c7c565b34801561036d575f80fd5b5061038161037c366004615d35565b6109ab565b604051901515815260200161032d565b34801561039c575f80fd5b506103b06103ab366004615b57565b6109d7565b60405161032d9493929190931515845263ffffffff9283166020850152911660408301526001600160a01b0316606082015260800190565b3480156103f3575f80fd5b507f00000000000000000000000000000000000000000000000000000000000000005b6040516001600160a01b03909116815260200161032d565b348015610439575f80fd5b5061044d610448366004615d83565b610a5c565b60405161032d9190615dc1565b348015610465575f80fd5b50610323610474366004615f8f565b610daf565b348015610484575f80fd5b50610323610493366004615b57565b610e11565b3480156104a3575f80fd5b506103816104b2366004615b57565b610ed8565b3480156104c2575f80fd5b5061044d6104d1366004615b57565b610ef4565b3480156104e1575f80fd5b506104f56104f0366004615b57565b610f1e565b60405161032d949392919061606f565b348015610510575f80fd5b5061038161051f366004615b57565b6111ea565b34801561052f575f80fd5b5061038161053e366004615b57565b611216565b34801561054e575f80fd5b5061030261055d3660046160f1565b611232565b34801561056d575f80fd5b5061058161057c366004615b57565b611388565b60405161032d92919061615d565b34801561059a575f80fd5b50610381611559565b3480156105ae575f80fd5b506103236105bd366004615b20565b611588565b3480156105cd575f80fd5b506104166115ce565b3480156105e1575f80fd5b506103236105f0366004616181565b6115e7565b348015610600575f80fd5b5061032361060f366004615b57565b611603565b34801561061f575f80fd5b5061032361062e366004615b57565b611627565b34801561063e575f80fd5b5061038161064d366004615b57565b611662565b34801561065d575f80fd5b5061032361066c366004615b57565b611695565b34801561067c575f80fd5b506103816116c9565b348015610690575f80fd5b5061032361069f3660046161c9565b6116dd565b3480156106af575f80fd5b506103816106be366004615b57565b61186c565b3480156106ce575f80fd5b506103816106dd366004615d83565b611888565b3480156106ed575f80fd5b506103816106fc366004615b57565b6118a7565b34801561070c575f80fd5b5061072061071b366004615b57565b6118b9565b60405161032d91906162d6565b348015610738575f80fd5b5061074c610747366004615b57565b61193f565b60405161032d91906163ae565b348015610764575f80fd5b507f9b779b17422d0df92223018b32b4d1fa46e071723d6817e2486d003becc55f005c610381565b348015610797575f80fd5b506103236119d9565b3480156107ab575f80fd5b506103816107ba366004615d83565b611a08565b3480156107ca575f80fd5b506103236107d9366004615b57565b611a1d565b3480156107e9575f80fd5b506107fd6107f8366004615b57565b611a43565b60405161032d91906163bd565b348015610815575f80fd5b506108296108243660046160f1565b611ab8565b60405161032d919061643a565b348015610841575f80fd5b50610302610850366004616497565b611b0b565b348015610860575f80fd5b5061087461086f366004615b57565b611b9f565b60405161032d91906165f9565b34801561088c575f80fd5b5061032361089b366004615b20565b611d25565b3480156108ab575f80fd5b507f0000000000000000000000000000000000000000000000000000000000000000610416565b6108fb7f0000000000000000000000000000000000000000000000000000000000000000611d58565b565b5f610906611d7b565b8261091081611dad565b6001600160a01b038481165f9081526006602090815260408083209387168352929052205460801c5b91505b5092915050565b6109856040518060e001604052805f80191681526020016060815260200160608152602001606081526020016060815260200160608152602001606081525090565b61098d611d7b565b8161099781611dfa565b6109a2836001611e44565b91505b50919050565b5f6109b4611d7b565b6109c033858785611ec6565b6109cc33858585611f3d565b506001949350505050565b5f805f806109e3611d7b565b846109ed81611dad565b5f806109f8886120dc565b90925090508181610a297f0000000000000000000000000000000000000000000000000000000000000000826166d1565b6001600160a01b03808c165f90815260016020526040902054939a5091985096501693505050509193509193565b905090565b6060610a66611d7b565b610a6e612155565b610a766121b1565b83610a8081611dfa565b84610a8a81612237565b6001600160a01b0386165f908152600560209081526040808320600383528184208054835181860281018601909452808452919493909190830182828015610af957602002820191905f5260205f20905b81546001600160a01b03168152600190910190602001808311610adb575b505050505090505f815190505f8167ffffffffffffffff811115610b1f57610b1f615dd3565b604051908082528060200260200182016040528015610b48578160200160208202803683370190505b5090505f805b83811015610b92575f818152602087905260409020546001600160801b0316838281518110610b7f57610b7f6166ee565b6020908102919091010152600101610b4e565b50610bbb82610bb58d6001600160a01b03165f9081526011602052604090205490565b8b612281565b97505f5b83811015610c4e57610c03858281518110610bdc57610bdc6166ee565b60200260200101518a8381518110610bf657610bf66166ee565b6020026020010151612331565b888181518110610c1557610c156166ee565b6020026020010151838281518110610c2f57610c2f6166ee565b60200260200101818151610c439190616702565b905250600101610bbf565b506001600160a01b038b165f908152600560205260408120905b84811015610cc557815f8281526020019081526020015f20549250610caf848281518110610c9857610c986166ee565b60200260200101518461235090919063ffffffff16565b5f82815260208490526040902055600101610c68565b50610cd28c8c338d611ec6565b610cda612364565b15610cea57610cea8c8c8c61237f565b610cf58c8c8c6123e0565b6001600160a01b038c81165f81815260116020526040902054918d16917f819ce5239144079a04a704c41f4e9453355703cfee6df6771b6835557967aa2090610d3e8d5f61254c565b8867ffffffffffffffff811115610d5757610d57615dd3565b604051908082528060200260200182016040528015610d80578160200160208202803683370190505b50604051610d9093929190616715565b60405180910390a35050505050505050610da861260c565b9392505050565b5f610db8611d7b565b82610dc281611dfa565b6109398385610df25f80896001600160a01b03166001600160a01b031681526020019081526020015f2054612636565b6001600160a01b038089165f908152600260205260409020541661271e565b5f610e1a611d7b565b81610e2481611dfa565b5f610e30846001611e44565b90505f846001600160a01b031663984de9e8836080015160016040518363ffffffff1660e01b8152600401610e66929190616776565b602060405180830381865afa158015610e81573d5f803e3d5ffd5b505050506040513d601f19601f82011682018060405250810190610ea591906167a0565b9050610ecf610ec8866001600160a01b03165f9081526011602052604090205490565b8290612802565b95945050505050565b5f610ee1611d7b565b81610eeb81611dad565b6109a283612822565b6060610efe611d7b565b81610f0881611dad565b610f13836001611e44565b608001519392505050565b606080606080610f2c611d7b565b84610f3681611dad565b6001600160a01b0386165f908152600560209081526040808320600383529281902080548251818502810185019093528083529192909190830182828015610fa557602002820191905f5260205f20905b81546001600160a01b03168152600190910190602001808311610f87575b50508351939950839250505067ffffffffffffffff811115610fc957610fc9615dd3565b60405190808252806020026020018201604052801561101257816020015b604080516060810182525f80825260208083018290529282015282525f19909201910181610fe75790505b5095508067ffffffffffffffff81111561102e5761102e615dd3565b604051908082528060200260200182016040528015611057578160200160208202803683370190505b5094508067ffffffffffffffff81111561107357611073615dd3565b60405190808252806020026020018201604052801561109c578160200160208202803683370190505b5093505f5b818110156111df575f81815260208481526040808320546001600160a01b038d168452600490925282208a51919290918b90859081106110e3576110e36166ee565b6020908102919091018101516001600160a01b0316825281019190915260409081015f208151606081019092528054829060ff16600181111561112857611128615bb5565b600181111561113957611139615bb5565b8152905461010081046001600160a01b03166020830152600160a81b900460ff1615156040909101528851899084908110611176576111766166ee565b6020026020010181905250611191816001600160801b031690565b8783815181106111a3576111a36166ee565b6020026020010181815250506111b98160801c90565b8683815181106111cb576111cb6166ee565b6020908102919091010152506001016110a1565b505050509193509193565b5f6111f3611d7b565b506001600160a01b038181165f908152600e60205260409020541615155b919050565b5f61121f611d7b565b8161122981611dad565b6109a283612843565b61123a61284e565b611242611d7b565b5f80336001600160a01b0316848460405161125e9291906167b7565b5f604051808303815f865af19150503d805f8114611297576040519150601f19603f3d011682016040523d82523d5f602084013e61129c565b606091505b509150915081156112f0576112b23383836128e0565b50806040517f5ab64fb80000000000000000000000000000000000000000000000000000000081526004016112e7919061643a565b60405180910390fd5b5f6112fa82612955565b90507fa549b048000000000000000000000000000000000000000000000000000000007fffffffff00000000000000000000000000000000000000000000000000000000821601611377576040517f28f9554100000000000000000000000000000000000000000000000000000000815260040160405180910390fd5b61138082612981565b505b50505050565b606080611393611d7b565b8261139d81611dad565b6001600160a01b0384165f908152602081815260408083205460038352818420805483518186028101860190945280845291949390919083018282801561140b57602002820191905f5260205f20905b81546001600160a01b031681526001909101906020018083116113ed575b505050505090505f8151905061142183826129aa565b95508067ffffffffffffffff81111561143c5761143c615dd3565b604051908082528060200260200182016040528015611465578160200160208202803683370190505b5094505f5b8181101561154f576001600160a01b0388165f9081526004602052604081208451829086908590811061149f5761149f6166ee565b6020908102919091018101516001600160a01b0316825281019190915260409081015f208151606081019092528054829060ff1660018111156114e4576114e4615bb5565b60018111156114f5576114f5615bb5565b8152905461010081046001600160a01b03166020830152600160a81b900460ff161515604090910152905061152981612a76565b87838151811061153b5761153b6166ee565b60209081029190910101525060010161146a565b5050505050915091565b5f611562611d7b565b507f00000000000000000000000000000000000000000000000000000000000000005c90565b5f611591611d7b565b8261159b81611dad565b6001600160a01b038481165f908152600660209081526040808320938716835292905220546001600160801b0316610939565b5f6115d7611d7b565b50600a546001600160a01b031690565b5f6115f0611d7b565b6115fb848484612b3f565b949350505050565b5f61160c611d7b565b506001600160a01b03165f9081526008602052604090205490565b5f611630611d7b565b61165c827f00000000000000000000000000000000000000000000000000000000000000005b90612b96565b92915050565b5f61166b611d7b565b61165c827f0000000000000000000000000000000000000000000000000000000000000000611656565b5f61169e611d7b565b816116a881611dad565b6001600160a01b0383165f908152602081905260409020546115fb81612636565b5f6116d2611d7b565b610a57600754612ba9565b5f6116e6611d7b565b6116ee612155565b866116f881611dad565b6117006121b1565b61170988612bb3565b5f611715896001611e44565b9050611723815f0151612bc4565b15611765576040517f218e37470000000000000000000000000000000000000000000000000000000081526001600160a01b038a1660048201526024016112e7565b6020810151518651611778908290612bdf565b5f6117968360c001518460a001518a612bff9092919063ffffffff16565b90506117a4835f0151612cf2565b1561180c576001600160a01b03808c165f908152600260205260409020546117d0918391899116612d4e565b6001600160a01b038b165f9081526005602052604090206117f49084906001612e0f565b60c083015160a0840151611809918a91612bff565b90505b61181b8b8b858c8c868d612ea6565b9450611829835f0151613204565b15611856576001600160a01b03808c165f908152600260205260409020541661185482878984613229565b505b50505061186161260c565b509695505050505050565b5f611875611d7b565b8161187f81611dad565b6109a2836132ec565b5f611891611d7b565b61189d33858585611f3d565b5060019392505050565b5f6118b0611d7b565b61165c8261330d565b60606118c3611d7b565b816118cd81611dad565b6001600160a01b0383165f908152600360209081526040918290208054835181840281018401909452808452909183018282801561193257602002820191905f5260205f20905b81546001600160a01b03168152600190910190602001808311611914575b5050505050915050919050565b60408051610160810182525f80825260208201819052918101829052606081018290526080810182905260a0810182905260c0810182905260e081018290526101008101829052610120810182905261014081019190915261199f611d7b565b816119a981611dad565b6001600160a01b038084165f9081526002602090815260408083205491839052909120546109a29290911661332e565b5f6119e2611d7b565b507f00000000000000000000000000000000000000000000000000000000000000005c90565b5f611a11611d7b565b61189d33858585613447565b5f611a26611d7b565b6001600160a01b0382165f9081526011602052604090205461165c565b604080516060810182525f8082526020820181905291810191909152611a67611d7b565b81611a7181611dad565b50506001600160a01b039081165f90815260016020818152604092839020835160608101855281548616815292810154851691830191909152600201549092169082015290565b6060611ac261284e565b611aca611d7b565b610da883838080601f0160208091040260200160405190810160405280939291908181526020018383808284375f9201919091525033939250506135c19050565b611b13611d7b565b611b1b6121b1565b611b236135ce565b611b8d886040518060e001604052808a81526020018981526020018863ffffffff168152602001871515815260200186803603810190611b6391906167c6565b81526001600160a01b0386166020820152604001611b8636869003860186616836565b905261360d565b611b9561260c565b5050505050505050565b604080516101c0810182525f6101408201818152610160830182905261018083018290526101a08301829052825260208201819052918101829052606081018290526080810182905260a0810182905260c0810182905260e081018290526101008101829052610120810191909152611c16611d7b565b81611c2081611dad565b6001600160a01b0383165f90815260208190526040908190205481516101c081019092529080610140810180611c558561404f565b158152602001611c6485614065565b15158152602001611c7485614074565b15158152602001611c8485614083565b151590528152602001611c9683612636565b8152602001611ca483614092565b8152602001611cb28361417c565b8152602001611cc083614266565b64ffffffffff168152602001611cd583614362565b63ffffffff168152602001611ce983612ba9565b15158152602001611cf983612bc4565b15158152602001611d0983614469565b15158152602001611d1983614478565b15159052949350505050565b5f611d2e611d7b565b6001600160a01b038084165f908152600f6020908152604080832093861683529290522054610da8565b365f80375f80365f845af43d5f803e808015611d72573d5ff35b3d5ffd5b505050565b6108fb7f00000000000000000000000000000000000000000000000000000000000000006001600160a01b0316614487565b611db68161330d565b611df7576040517f9e51bd5c0000000000000000000000000000000000000000000000000000000081526001600160a01b03821660048201526024016112e7565b50565b611e0381612822565b611df7576040517f4bdace130000000000000000000000000000000000000000000000000000000081526001600160a01b03821660048201526024016112e7565b611e866040518060e001604052805f80191681526020016060815260200160608152602001606081526020016060815260200160608152602001606081525090565b6001600160a01b0383165f908152600560209081526040808320838352818420546004845282852060039094529190932061165c938593909291876144c9565b5f611ed2858585612b3f565b90505f1981146113805780821115611f2f576040517ffb8f41b20000000000000000000000000000000000000000000000000000000081526001600160a01b038416600482015260248101829052604481018390526064016112e7565b611380858585858503613447565b6001600160a01b038316611f6f57604051634b637e8f60e11b81526001600160a01b03841660048201526024016112e7565b6001600160a01b038216611fa15760405163ec442f0560e01b81526001600160a01b03831660048201526024016112e7565b6001600160a01b038085165f908152600f6020908152604080832093871683529290522054808211156120005760405163391434e360e21b81526001600160a01b038516600482015260248101829052604481018390526064016112e7565b6001600160a01b038581165f818152600f6020908152604080832089861680855290835281842088880390559488168084529281902080548801905551868152919392917fd1398bee19313d6bf672ccb116e51f4a1a947e91c757907f51fbb5b5e56c698f910160405180910390a46040516323de665160e01b81526001600160a01b0385811660048301528481166024830152604482018490528616906323de6651906064015b5f604051808303815f87803b1580156120bf575f80fd5b505af11580156120d1573d5f803e3d5ffd5b505050505050505050565b6001600160a01b0381165f9081526020819052604081205481908161210082614469565b90505f61210c83614362565b905081801561214a57506121407f0000000000000000000000000000000000000000000000000000000000000000826166d1565b63ffffffff164211155b969095509350505050565b7f00000000000000000000000000000000000000000000000000000000000000005c15155f036108fb576040517fc09ba73600000000000000000000000000000000000000000000000000000000815260040160405180910390fd5b7f9b779b17422d0df92223018b32b4d1fa46e071723d6817e2486d003becc55f005c1561220a576040517f3ee5aeb500000000000000000000000000000000000000000000000000000000815260040160405180910390fd5b6108fb60017f9b779b17422d0df92223018b32b4d1fa46e071723d6817e2486d003becc55f005b9061487e565b612240816132ec565b611df7576040517fef029adf0000000000000000000000000000000000000000000000000000000081526001600160a01b03821660048201526024016112e7565b6060835167ffffffffffffffff81111561229d5761229d615dd3565b6040519080825280602002602001820160405280156122c6578160200160208202803683370190505b5090505f5b84518110156123295783838683815181106122e8576122e86166ee565b60200260200101516122fa919061689b565b61230491906168b2565b828281518110612316576123166166ee565b60209081029190910101526001016122cb565b509392505050565b61234c8261233e83614885565b612347906168d1565b6148e7565b5050565b5f610da88261235f8560801c90565b6149bc565b5f32158015610a575750612379600754612ba9565b15905090565b32155f036123a0576040516333fc255960e11b815260040160405180910390fd5b6001600160a01b038084165f908152600f60209081526040808320938616835292905290812080548392906123d6908490616907565b9091555050505050565b6001600160a01b03821661241257604051634b637e8f60e11b81526001600160a01b03831660048201526024016112e7565b6001600160a01b038084165f908152600f6020908152604080832093861683529290522054808211156124715760405163391434e360e21b81526001600160a01b038416600482015260248101829052604481018390526064016112e7565b6001600160a01b038085165f818152600f60209081526040808320948816835293815283822086860390559181526011909152908120546124b3908490616702565b90506124be81614a19565b6001600160a01b038581165f818152601160209081526040808320869055518781529193881692917fd1398bee19313d6bf672ccb116e51f4a1a947e91c757907f51fbb5b5e56c698f910160405180910390a46040516323de665160e01b81526001600160a01b0385811660048301525f6024830152604482018590528616906323de6651906064016120a8565b6060825167ffffffffffffffff81111561256857612568615dd3565b604051908082528060200260200182016040528015612591578160200160208202803683370190505b5090505f5b835181101561093c57826125cc578381815181106125b6576125b66166ee565b60200260200101516125c7906168d1565b6125e7565b8381815181106125de576125de6166ee565b60200260200101515b8282815181106125f9576125f96166ee565b6020908102919091010152600101612596565b6108fb5f7f9b779b17422d0df92223018b32b4d1fa46e071723d6817e2486d003becc55f00612231565b5f64174876e80061271461264b83600161691a565b61265690600161691a565b61266190600161691a565b61266c90600161691a565b61267790600161691a565b61268290600161691a565b61268d90600161691a565b61269890600161691a565b6126a390600161691a565b6126ae90600161691a565b6126b990600161691a565b6126c490600161691a565b6126cf90600161691a565b6126da90600161691a565b6126e590600161691a565b6126f090600161691a565b6126fb90600161691a565b61270690600161691a565b60ff1684901c62ffffff1690565b61165c919061689b565b5f805f836001600160a01b031663a0e8f5ac8888886040518463ffffffff1660e01b815260040161275193929190616933565b6040805180830381865afa15801561276b573d5f803e3d5ffd5b505050506040513d601f19601f8201168201806040525081019061278f91906169e4565b90925090508115155f036127cf576040517f53f976d400000000000000000000000000000000000000000000000000000000815260040160405180910390fd5b670de0b6b3a76400008111156127f8576040516301d1b96560e61b815260040160405180910390fd5b9695505050505050565b5f80612816670de0b6b3a76400008561689b565b905061093983826168b2565b6001600160a01b0381165f908152602081905260408120546109a281612bc4565b5f80612329836120dc565b32155f0361286f576040516333fc255960e11b815260040160405180910390fd5b5f61287b600754612ba9565b905080156128b5576040517f7a19888600000000000000000000000000000000000000000000000000000000815260040160405180910390fd5b611df760017f0000000000000000000000000000000000000000000000000000000000000000612231565b6060826128f5576128f082614a59565b610da8565b815115801561290c57506001600160a01b0384163b155b1561294e576040517f9996b3150000000000000000000000000000000000000000000000000000000081526001600160a01b03851660048201526024016112e7565b5080610da8565b5f6004825110156129795760405163a728568960e01b815260040160405180910390fd5b506020015190565b8051156129915780518082602001fd5b60405163a728568960e01b815260040160405180910390fd5b60605f8267ffffffffffffffff8111156129c6576129c6615dd3565b6040519080825280602002602001820160405280156129ef578160200160208202803683370190505b5090505f6129fc85614266565b64ffffffffff1690505f5b84811015612a6c575f612a27612a1e60058461689b565b84901c601f1690565b9050612a3481600a616af0565b612a4690670de0b6b3a764000061689b565b848381518110612a5857612a586166ee565b602090810291909101015250600101612a07565b5090949350505050565b80515f9081816001811115612a8d57612a8d615bb5565b03612aa257670de0b6b3a764000091506109a5565b6001816001811115612ab657612ab6615bb5565b03612b265782602001516001600160a01b031663679aefce6040518163ffffffff1660e01b8152600401602060405180830381865afa158015612afb573d5f803e3d5ffd5b505050506040513d601f19601f82011682018060405250810190612b1f91906167a0565b91506109a5565b604051636fa2831960e11b815260040160405180910390fd5b5f816001600160a01b0316836001600160a01b031603612b6157505f19610da8565b506001600160a01b038084165f9081526010602090815260408083208685168452825280832093851683529290522054610da8565b5f8181526020839052604081205c610da8565b5f6001821661165c565b612bbb6135ce565b611df781614a9b565b5f61165c612bd382600161691a565b839060ff161c60011690565b80821461234c5760405163aaad13f760e01b815260040160405180910390fd5b60605f84519050612c138185518551614ae6565b5f8167ffffffffffffffff811115612c2d57612c2d615dd3565b604051908082528060200260200182016040528015612c56578160200160208202803683370190505b5090505f5b82811015612ce857612cc3868281518110612c7857612c786166ee565b6020026020010151868381518110612c9257612c926166ee565b6020026020010151898481518110612cac57612cac6166ee565b6020026020010151614b139092919063ffffffff16565b828281518110612cd557612cd56166ee565b6020908102919091010152600101612c5b565b5095945050505050565b5f61165c612d0182600161691a565b612d0c90600161691a565b612d1790600161691a565b612d2290600161691a565b612d2d90600161691a565b612d3890600161691a565b612d4390600161691a565b612bd390600161691a565b6040517f1c149e280000000000000000000000000000000000000000000000000000000081526001600160a01b03821690631c149e2890612d959086908690600401616afb565b6020604051808303815f875af1158015612db1573d5f803e3d5ffd5b505050506040513d601f19601f82011682018060405250810190612dd59190616b1f565b15155f03611d76576040517f6061292500000000000000000000000000000000000000000000000000000000815260040160405180910390fd5b6020830151515f805b82811015612e9e57612e4686604001518281518110612e3957612e396166ee565b6020026020010151612a76565b8660a001518281518110612e5c57612e5c6166ee565b602002602001018181525050845f8281526020019081526020015f20549150612e968682612e90856001600160801b031690565b87614b28565b600101612e18565b505050505050565b6001600160a01b0387165f908152600560205260408120815b876020015151811015613001575f88602001518281518110612ee357612ee36166ee565b60200260200101519050878281518110612eff57612eff6166ee565b60200260200101516001600160a01b0316816001600160a01b031614612f8b578a888381518110612f3257612f326166ee565b60209081029190910101516040517fffe261a10000000000000000000000000000000000000000000000000000000081526001600160a01b039283166004820152908216602482015290821660448201526064016112e7565b612fae81888481518110612fa157612fa16166ee565b6020026020010151614be5565b612fea878381518110612fc357612fc36166ee565b6020026020010151878481518110612fdd57612fdd6166ee565b60200260200101516149bc565b5f8381526020859052604090205550600101612ebf565b50865161300f906001614bf2565b8088526001600160a01b038a165f81815260208190526040908190209290925590517f984de9e800000000000000000000000000000000000000000000000000000000815263984de9e89061306b908790600190600401616776565b602060405180830381865afa158015613086573d5f803e3d5ffd5b505050506040513d601f19601f820116820180604052508101906130aa91906167a0565b91506130b582614a19565b6130c2620f424083616702565b91506130cd89614c14565b6130d8898984614d07565b8282101561311c576040517f8d261d5d00000000000000000000000000000000000000000000000000000000815260048101839052602481018490526044016112e7565b6001600160a01b038981165f81815260116020526040902054918a16917f819ce5239144079a04a704c41f4e9453355703cfee6df6771b6835557967aa209061316689600161254c565b8b602001515167ffffffffffffffff81111561318457613184615dd3565b6040519080825280602002602001820160405280156131ad578160200160208202803683370190505b506040516131bd93929190616715565b60405180910390a36040516001600160a01b038a16907fcad8c9d32507393b6508ca4a888b81979919b477510585bde8488f153072d6f3905f90a250979650505050505050565b5f61165c61321382600161691a565b61321e90600161691a565b612d0190600161691a565b6040517f38be241d0000000000000000000000000000000000000000000000000000000081526001600160a01b038216906338be241d9061327290879087908790600401616b3a565b6020604051808303815f875af115801561328e573d5f803e3d5ffd5b505050506040513d601f19601f820116820180604052508101906132b29190616b1f565b15155f03611382576040517f0f23dbc600000000000000000000000000000000000000000000000000000000815260040160405180910390fd5b6001600160a01b0381165f9081526020819052604081205461165c90614478565b6001600160a01b0381165f908152602081905260408120546109a281612ba9565b60408051610160810182525f80825260208201819052918101829052606081018290526080810182905260a0810182905260c0810182905260e081018290526101008101829052610120810182905261014081019190915260405180610160016040528061339b85614e20565b151581526020016133ab85612cf2565b151581526020016133bb85613204565b151581526020016133cb85614e2f565b151581526020016133db85614e49565b151581526020016133eb85614e63565b151581526020016133fb85614e7d565b1515815260200161340b85614e97565b1515815260200161341b85614eb1565b1515815260200161342b85614ecb565b15158152602001836001600160a01b0316815250905092915050565b6001600160a01b038316613492576040517fe602df050000000000000000000000000000000000000000000000000000000081526001600160a01b03841660048201526024016112e7565b6001600160a01b0382166134dd576040517f94280d620000000000000000000000000000000000000000000000000000000081526001600160a01b03831660048201526024016112e7565b6001600160a01b038481165f81815260106020908152604080832088861680855290835281842095881680855295835292819020869055518581529192917fa0175360a15bca328baf7ea85c7b784d58b222a50d0ce760b10dba336d226a61910160405180910390a46040517f5687f2b80000000000000000000000000000000000000000000000000000000081526001600160a01b038481166004830152838116602483015260448201839052851690635687f2b8906064015b5f604051808303815f87803b1580156135af575f80fd5b505af1158015611b95573d5f803e3d5ffd5b6060610da883835f614ee5565b6135d6614f94565b156108fb576040517fda9f8b3400000000000000000000000000000000000000000000000000000000815260040160405180910390fd5b6136168261330d565b15613658576040517fdb771c800000000000000000000000000000000000000000000000000000000081526001600160a01b03831660048201526024016112e7565b8051516002811015613696576040517f5ed4ba8f00000000000000000000000000000000000000000000000000000000815260040160405180910390fd5b60088111156136d1576040517f707bdf5800000000000000000000000000000000000000000000000000000000815260040160405180910390fd5b5f8167ffffffffffffffff8111156136eb576136eb615dd3565b604051908082528060200260200182016040528015613714578160200160208202803683370190505b5090505f805b83811015613b07575f855f01518281518110613738576137386166ee565b602090810291909101015180519091506001600160a01b038116158061376f5750876001600160a01b0316816001600160a01b0316145b156137a6576040517fc1ab6dc100000000000000000000000000000000000000000000000000000000815260040160405180910390fd5b836001600160a01b0316816001600160a01b031610156137f2576040517f6e8f194700000000000000000000000000000000000000000000000000000000815260040160405180910390fd5b836001600160a01b0316816001600160a01b031603613848576040517f4f4b634e0000000000000000000000000000000000000000000000000000000081526001600160a01b03821660048201526024016112e7565b5f806001600160a01b031683604001516001600160a01b03161415905060405180606001604052808460200151600181111561388657613886615bb5565b81526040808601516001600160a01b0390811660208085019190915260608801511515938301939093528c81165f9081526004845282812091871681529252902081518154829060ff1916600183818111156138e4576138e4615bb5565b0217905550602082015181546040909301511515600160a81b027fffffffffffffffffffff00ffffffffffffffffffffffffffffffffffffffffff6001600160a01b0390921661010002919091167fffffffffffffffffffff000000000000000000000000000000000000000000ff909316929092179190911790555f8360200151600181111561397757613977615bb5565b036139ac578080613989575082606001515b156139a757604051636fa2831960e11b815260040160405180910390fd5b613a1d565b6001836020015160018111156139c4576139c4615bb5565b036139eb578015155f036139a757604051636fa2831960e11b815260040160405180910390fd5b6040517fa1e9dd9d00000000000000000000000000000000000000000000000000000000815260040160405180910390fd5b816001600160a01b031663313ce5676040518163ffffffff1660e01b8152600401602060405180830381865afa158015613a59573d5f803e3d5ffd5b505050506040513d601f19601f82011682018060405250810190613a7d9190616b64565b613a88906012616b84565b868581518110613a9a57613a9a6166ee565b60ff929092166020928302919091018201526001600160a01b038a81165f908152600383526040812080546001808201835591835293909120909201805473ffffffffffffffffffffffffffffffffffffffff19169185169190911790559194505091909101905061371a565b506080840180516001600160a01b038781165f8181526001602081815260408084208751815490881673ffffffffffffffffffffffffffffffffffffffff1991821617825592880151938101805494881694841694909417909355958601516002909201805492861692909116919091179055600a54945184015160608a015194517f77ff76e7000000000000000000000000000000000000000000000000000000008152600481019390935283166024830152921515604482015291928392839291909116906377ff76e79060640160408051808303815f875af1158015613bf2573d5f803e3d5ffd5b505050506040513d601f19601f82011682018060405250810190613c169190616b9d565b9092509050613c26836001614fd1565b60c088015151909350613c3a908490614fde565b9250613c578760c00151602001518461500f90919063ffffffff16565b9250613c748760c00151604001518461502a90919063ffffffff16565b9250613c918760c00151606001518461504590919063ffffffff16565b9250613ca6613c9f86615060565b84906150b1565b9250613cbf8760400151846151b290919063ffffffff16565b9250613ccb83836152be565b9250613cd783826153dc565b60a08801519093506001600160a01b031615613f6e5760a0870151875160c08901516040517f0b89f1820000000000000000000000000000000000000000000000000000000081526001600160a01b0390931692630b89f18292613d439233928e929190600401616c26565b6020604051808303815f875af1158015613d5f573d5f803e3d5ffd5b505050506040513d601f19601f82011682018060405250810190613d839190616b1f565b15155f03613dc35760a0870151604051633ea4f60560e21b81526001600160a01b03918216600482015290891660248201523360448201526064016112e7565b5f8760a001516001600160a01b031663d77153a76040518163ffffffff1660e01b815260040161014060405180830381865afa158015613e05573d5f803e3d5ffd5b505050506040513d601f19601f82011682018060405250810190613e299190616c87565b80519091508015613e3d575060c088015151155b15613e7a5760a0880151604051633ea4f60560e21b81526001600160a01b039182166004820152908a1660248201523360448201526064016112e7565b8051613e879085906154fb565b9350613ea081602001518561552190919063ffffffff16565b9350613eb981604001518561553190919063ffffffff16565b9350613ed281606001518561554c90919063ffffffff16565b9350613eeb81608001518561556790919063ffffffff16565b9350613f048160a001518561558290919063ffffffff16565b9350613f1d8160c001518561559d90919063ffffffff16565b9350613f368160e00151856155b890919063ffffffff16565b9350613f50816101000151856155d390919063ffffffff16565b9350613f6a816101200151856155ee90919063ffffffff16565b9350505b50506001600160a01b038681165f9081526020818152604080832085905560a0890151600283529220805473ffffffffffffffffffffffffffffffffffffffff19169290931691909117909155850151613fc9908790615609565b336001600160a01b0316866001600160a01b03167fbc1561eeab9f40962e2fb827a7ff9c7cdb47a9d7c84caeefa4ed90e043842dad875f0151886020015189604001518a608001516140288c60a001518961332e90919063ffffffff16565b8c60c0015160405161403f96959493929190616d4d565b60405180910390a3505050505050565b5f61405e612d2d82600161691a565b1592915050565b5f61165c612d2282600161691a565b5f61165c612d1782600161691a565b5f61165c612d0c82600161691a565b5f64174876e80061271460186140a984600161691a565b6140b490600161691a565b6140bf90600161691a565b6140ca90600161691a565b6140d590600161691a565b6140e090600161691a565b6140eb90600161691a565b6140f690600161691a565b61410190600161691a565b61410c90600161691a565b61411790600161691a565b61412290600161691a565b61412d90600161691a565b61413890600161691a565b61414390600161691a565b61414e90600161691a565b61415990600161691a565b61416490600161691a565b60ff166141719190616907565b84901c62ffffff1690565b5f64174876e80061271460188061419485600161691a565b61419f90600161691a565b6141aa90600161691a565b6141b590600161691a565b6141c090600161691a565b6141cb90600161691a565b6141d690600161691a565b6141e190600161691a565b6141ec90600161691a565b6141f790600161691a565b61420290600161691a565b61420d90600161691a565b61421890600161691a565b61422390600161691a565b61422e90600161691a565b61423990600161691a565b61424490600161691a565b61424f90600161691a565b60ff1661425c9190616907565b6141719190616907565b5f61165c6018808061427985600161691a565b61428490600161691a565b61428f90600161691a565b61429a90600161691a565b6142a590600161691a565b6142b090600161691a565b6142bb90600161691a565b6142c690600161691a565b6142d190600161691a565b6142dc90600161691a565b6142e790600161691a565b6142f290600161691a565b6142fd90600161691a565b61430890600161691a565b61431390600161691a565b61431e90600161691a565b61432990600161691a565b61433490600161691a565b60ff166143419190616907565b61434b9190616907565b6143559190616907565b83901c64ffffffffff1690565b5f61165c60286018808061437786600161691a565b61438290600161691a565b61438d90600161691a565b61439890600161691a565b6143a390600161691a565b6143ae90600161691a565b6143b990600161691a565b6143c490600161691a565b6143cf90600161691a565b6143da90600161691a565b6143e590600161691a565b6143f090600161691a565b6143fb90600161691a565b61440690600161691a565b61441190600161691a565b61441c90600161691a565b61442790600161691a565b61443290600161691a565b60ff1661443f9190616907565b6144499190616907565b6144539190616907565b61445d9190616907565b83901c63ffffffff1690565b5f61165c612d4382600161691a565b5f61165c612d3882600161691a565b306001600160a01b03821614611df7576040517f9fd25b3600000000000000000000000000000000000000000000000000000000815260040160405180910390fd5b815484875260408051602080840282018101909252828152908490839083018282801561451d57602002820191905f5260205f20905b81546001600160a01b031681526001909101906020018083116144ff575b505050505087602001819052508067ffffffffffffffff81111561454357614543615dd3565b60405190808252806020026020018201604052801561458c57816020015b604080516060810182525f80825260208083018290529282015282525f199092019101816145615790505b5060408801528067ffffffffffffffff8111156145ab576145ab615dd3565b6040519080825280602002602001820160405280156145d4578160200160208202803683370190505b5060608801528067ffffffffffffffff8111156145f3576145f3615dd3565b60405190808252806020026020018201604052801561461c578160200160208202803683370190505b506080880152865161462e90826129aa565b60c08801528067ffffffffffffffff81111561464c5761464c615dd3565b604051908082528060200260200182016040528015614675578160200160208202803683370190505b5060a088015286515f9061468890612bc4565b801561469e57505f61469c895f015161417c565b115b80156146b2575087516146b090614478565b155b90505f5b828110156120d1575f865f8b6020015184815181106146d7576146d76166ee565b6020908102919091018101516001600160a01b0316825281019190915260409081015f208151606081019092528054829060ff16600181111561471c5761471c615bb5565b600181111561472d5761472d615bb5565b8152905461010081046001600160a01b0316602080840191909152600160a81b90910460ff1615156040928301525f858152908c905281902054908c01518051929350909183919085908110614785576147856166ee565b602002602001018190525061479982612a76565b8b60a0015184815181106147af576147af6166ee565b60209081029190910101526147cf8b846001600160801b03841689614b28565b8315155f036147df575050614876565b5f82604001518015614803575060018351600181111561480157614801615bb5565b145b90508015614872575f6148188d5f015161417c565b90505f8d606001518681518110614831576148316166ee565b602002602001015190505f6148518f61484a8760801c90565b89866157af565b9050801561486e5761486e8f886148688486616702565b8d614b28565b5050505b5050505b6001016146b6565b80825d5050565b5f7f7fffffffffffffffffffffffffffffffffffffffffffffffffffffffffffffff8211156148e3576040517f24775e06000000000000000000000000000000000000000000000000000000008152600481018390526024016112e7565b5090565b805f036148f2575050565b5f61491d837f0000000000000000000000000000000000000000000000000000000000000000611656565b90505f61492a8383616de7565b9050805f036149615761495c7f0000000000000000000000000000000000000000000000000000000000000000615844565b614991565b815f03614991576149917f000000000000000000000000000000000000000000000000000000000000000061585a565b6113827f00000000000000000000000000000000000000000000000000000000000000008583615869565b5f6001600160801b038311806149d857506001600160801b0382115b15614a0f576040517f89560ca100000000000000000000000000000000000000000000000000000000815260040160405180910390fd5b610da88383615881565b620f4240811015611df7576040517fd38d20fc000000000000000000000000000000000000000000000000000000008152600481018290526024016112e7565b805115614a695780518082602001fd5b6040517fd6bda27500000000000000000000000000000000000000000000000000000000815260040160405180910390fd5b614aa481612843565b15611df7576040517fd971f5970000000000000000000000000000000000000000000000000000000081526001600160a01b03821660048201526024016112e7565b8183141580614af55750808214155b15611d765760405163aaad13f760e01b815260040160405180910390fd5b5f6115fb82614b228686615890565b90615890565b8184606001518481518110614b3f57614b3f6166ee565b6020908102919091010152615af95f826001811115614b6057614b60615bb5565b14614b6d57614b13614b71565b6158b05b9050614bbc838660c001518681518110614b8d57614b8d6166ee565b60200260200101518760a001518781518110614bab57614bab6166ee565b60200260200101518463ffffffff16565b85608001518581518110614bd257614bd26166ee565b6020026020010181815250505050505050565b61234c8261234783614885565b5f610da882614c0283600161691a565b60ff1690811b600190911b1985161790565b6001600160a01b0381165f9081526011602052604081208054620f42409290614c3e908490616907565b90915550506001600160a01b0381165f818152600f6020908152604080832083805282528083208054620f424090810190915590519081529192839290917fd1398bee19313d6bf672ccb116e51f4a1a947e91c757907f51fbb5b5e56c698f910160405180910390a46040516323de665160e01b81525f600482018190526024820152620f424060448201526001600160a01b038216906323de6651906064015f604051808303815f87803b158015614cf5575f80fd5b505af1158015611380573d5f803e3d5ffd5b6001600160a01b038216614d395760405163ec442f0560e01b81526001600160a01b03831660048201526024016112e7565b6001600160a01b0383165f90815260116020526040812054614d5c908390616907565b6001600160a01b038086165f908152600f602090815260408083209388168352929052208054840190559050614d9181614a19565b6001600160a01b038481165f81815260116020908152604080832086905551868152938716939192917fd1398bee19313d6bf672ccb116e51f4a1a947e91c757907f51fbb5b5e56c698f910160405180910390a46040516323de665160e01b81525f60048201526001600160a01b038481166024830152604482018490528516906323de665190606401613598565b5f61165c61321e82600161691a565b5f61165c614e3e82600161691a565b61321390600161691a565b5f61165c614e5882600161691a565b614e3e90600161691a565b5f61165c614e7282600161691a565b614e5890600161691a565b5f61165c614e8c82600161691a565b614e7290600161691a565b5f61165c614ea682600161691a565b614e8c90600161691a565b5f61165c614ec082600161691a565b614ea690600161691a565b5f61165c614eda82600161691a565b614ec090600161691a565b606081471015614f2a576040517fcf479181000000000000000000000000000000000000000000000000000000008152476004820152602481018390526044016112e7565b5f80856001600160a01b03168486604051614f459190616e0e565b5f6040518083038185875af1925050503d805f8114614f7f576040519150601f19603f3d011682016040523d82523d5f602084013e614f84565b606091505b50915091506127f88683836128e0565b5f7f000000000000000000000000000000000000000000000000000000000000000063ffffffff164211158015610a575750610a576007546158c5565b5f60011983168217610da8565b5f610da882614fee83600161691a565b614ff990600161691a565b61500490600161691a565b614c0290600161691a565b5f610da88261501f83600161691a565b614fee90600161691a565b5f610da88261503a83600161691a565b61501f90600161691a565b5f610da88261505583600161691a565b61503a90600161691a565b5f805f5b835181101561093c576150a7848281518110615082576150826166ee565b602002602001015160ff16600560ff168361509d919061689b565b84919060056158dd565b9150600101615064565b5f610da864ffffffffff8316601880806150cc86600161691a565b6150d790600161691a565b6150e290600161691a565b6150ed90600161691a565b6150f890600161691a565b61510390600161691a565b61510e90600161691a565b61511990600161691a565b61512490600161691a565b61512f90600161691a565b61513a90600161691a565b61514590600161691a565b61515090600161691a565b61515b90600161691a565b61516690600161691a565b61517190600161691a565b61517c90600161691a565b61518790600161691a565b60ff166151949190616907565b61519e9190616907565b6151a89190616907565b85919060286158dd565b5f610da863ffffffff83166028601880806151ce87600161691a565b6151d990600161691a565b6151e490600161691a565b6151ef90600161691a565b6151fa90600161691a565b61520590600161691a565b61521090600161691a565b61521b90600161691a565b61522690600161691a565b61523190600161691a565b61523c90600161691a565b61524790600161691a565b61525290600161691a565b61525d90600161691a565b61526890600161691a565b61527390600161691a565b61527e90600161691a565b61528990600161691a565b60ff166152969190616907565b6152a09190616907565b6152aa9190616907565b6152b49190616907565b85919060206158dd565b5f670de0b6b3a76400008211156152e8576040516301d1b96560e61b815260040160405180910390fd5b6152f764174876e800836168b2565b9150610da882601861530a5f600161691a565b61531590600161691a565b61532090600161691a565b61532b90600161691a565b61533690600161691a565b61534190600161691a565b61534c90600161691a565b61535790600161691a565b61536290600161691a565b61536d90600161691a565b61537890600161691a565b61538390600161691a565b61538e90600161691a565b61539990600161691a565b6153a490600161691a565b6153af90600161691a565b6153ba90600161691a565b6153c590600161691a565b60ff166153d29190616907565b85919060186158dd565b5f670de0b6b3a7640000821115615406576040516301d1b96560e61b815260040160405180910390fd5b61541564174876e800836168b2565b9150610da8826018806154295f600161691a565b61543490600161691a565b61543f90600161691a565b61544a90600161691a565b61545590600161691a565b61546090600161691a565b61546b90600161691a565b61547690600161691a565b61548190600161691a565b61548c90600161691a565b61549790600161691a565b6154a290600161691a565b6154ad90600161691a565b6154b890600161691a565b6154c390600161691a565b6154ce90600161691a565b6154d990600161691a565b6154e490600161691a565b60ff166154f19190616907565b6153d29190616907565b5f610da88261550b83600161691a565b61551690600161691a565b61505590600161691a565b5f610da88261551683600161691a565b5f610da88261554183600161691a565b61550b90600161691a565b5f610da88261555c83600161691a565b61554190600161691a565b5f610da88261557783600161691a565b61555c90600161691a565b5f610da88261559283600161691a565b61557790600161691a565b5f610da8826155ad83600161691a565b61559290600161691a565b5f610da8826155c883600161691a565b6155ad90600161691a565b5f610da8826155e383600161691a565b6155c890600161691a565b5f610da8826155fe83600161691a565b6155e390600161691a565b816001600160a01b031663ce20ece76040518163ffffffff1660e01b8152600401602060405180830381865afa158015615645573d5f803e3d5ffd5b505050506040513d601f19601f8201168201806040525081019061566991906167a0565b8110156156a2576040517fbfb2068800000000000000000000000000000000000000000000000000000000815260040160405180910390fd5b816001600160a01b031663654cf15d6040518163ffffffff1660e01b8152600401602060405180830381865afa1580156156de573d5f803e3d5ffd5b505050506040513d601f19601f8201168201806040525081019061570291906167a0565b81111561573b576040517f7f47834b00000000000000000000000000000000000000000000000000000000815260040160405180910390fd5b6001600160a01b0382165f9081526020819052604090205461575d90826158fe565b6001600160a01b0383165f8181526020818152604091829020939093555183815290917f89d41522342fabac1471ca6073a5623e5caf367b03ca6e9a001478d0cf8be4a1910160405180910390a25050565b5f80856080015184815181106157c7576157c76166ee565b602002602001015190508481111561583b575f6157e686830385615a10565b90506158378760c001518681518110615801576158016166ee565b60200260200101518860a00151878151811061581f5761581f6166ee565b602002602001015183615a3c9092919063ffffffff16565b9250505b50949350505050565b611df76158536001835c616702565b829061487e565b611df7615853825c6001616907565b5f828152602084905260409020611d76908290612231565b5f610da883608084901b616907565b5f8061589c838561689b565b9050610939670de0b6b3a7640000826168b2565b5f6115fb826158bf8686615a10565b90615a10565b5f61165c6158d4826001616907565b83901c60011690565b5f6158e9848484615a50565b506001901b5f1901811b1992909216911b1790565b5f670de0b6b3a7640000821115615928576040516301d1b96560e61b815260040160405180910390fd5b61593764174876e800836168b2565b9150610da8826159485f600161691a565b61595390600161691a565b61595e90600161691a565b61596990600161691a565b61597490600161691a565b61597f90600161691a565b61598a90600161691a565b61599590600161691a565b6159a090600161691a565b6159ab90600161691a565b6159b690600161691a565b6159c190600161691a565b6159cc90600161691a565b6159d790600161691a565b6159e290600161691a565b6159ed90600161691a565b6159f890600161691a565b615a0390600161691a565b85919060ff1660186158dd565b5f80615a1c838561689b565b90506001670de0b6b3a76400006001830304018115150291505092915050565b5f6115fb84615a4b8585615a10565b612802565b6101008210615a7257604051632d0483c560e21b815260040160405180910390fd5b60018110158015615aa25750615a9e60ff615a8f84610100616702565b5f828218828410028218610da8565b8111155b615abf57604051632d0483c560e21b815260040160405180910390fd5b82811c15611d76576040517fe4337c0500000000000000000000000000000000000000000000000000000000815260040160405180910390fd5b6108fb616e29565b6001600160a01b0381168114611df7575f80fd5b803561121181615b01565b5f8060408385031215615b31575f80fd5b8235615b3c81615b01565b91506020830135615b4c81615b01565b809150509250929050565b5f60208284031215615b67575f80fd5b8135610da881615b01565b5f815180845260208085019450602084015f5b83811015615baa5781516001600160a01b031687529582019590820190600101615b85565b509495945050505050565b634e487b7160e01b5f52602160045260245ffd5b60028110611df757634e487b7160e01b5f52602160045260245ffd5b5f8151615bf181615bc9565b8352506020818101516001600160a01b03169083015260409081015115159082015260600190565b5f815180845260208085019450602084015f5b83811015615baa57615c3f878351615be5565b965090820190600101615c2c565b5f815180845260208085019450602084015f5b83811015615baa57815187529582019590820190600101615c60565b60208152815160208201525f602083015160e06040840152615ca2610100840182615b72565b90506040840151601f1980858403016060860152615cc08383615c19565b92506060860151915080858403016080860152615cdd8383615c4d565b925060808601519150808584030160a0860152615cfa8383615c4d565b925060a08601519150808584030160c0860152615d178383615c4d565b925060c08601519150808584030160e086015250610ecf8282615c4d565b5f805f8060808587031215615d48575f80fd5b8435615d5381615b01565b93506020850135615d6381615b01565b92506040850135615d7381615b01565b9396929550929360600135925050565b5f805f60608486031215615d95575f80fd5b8335615da081615b01565b92506020840135615db081615b01565b929592945050506040919091013590565b602081525f610da86020830184615c4d565b634e487b7160e01b5f52604160045260245ffd5b60405160e0810167ffffffffffffffff81118282101715615e0a57615e0a615dd3565b60405290565b6040516080810167ffffffffffffffff81118282101715615e0a57615e0a615dd3565b604051610140810167ffffffffffffffff81118282101715615e0a57615e0a615dd3565b604051601f8201601f1916810167ffffffffffffffff81118282101715615e8057615e80615dd3565b604052919050565b60028110611df7575f80fd5b803561121181615e88565b5f67ffffffffffffffff821115615eb857615eb8615dd3565b5060051b60200190565b5f82601f830112615ed1575f80fd5b81356020615ee6615ee183615e9f565b615e57565b8083825260208201915060208460051b870101935086841115615f07575f80fd5b602086015b848110156118615780358352918301918301615f0c565b5f82601f830112615f32575f80fd5b813567ffffffffffffffff811115615f4c57615f4c615dd3565b615f5f601f8201601f1916602001615e57565b818152846020838601011115615f73575f80fd5b816020850160208301375f918101602001919091529392505050565b5f8060408385031215615fa0575f80fd5b8235615fab81615b01565b9150602083013567ffffffffffffffff80821115615fc7575f80fd5b9084019060e08287031215615fda575f80fd5b615fe2615de7565b615feb83615e94565b815260208301356020820152604083013582811115616008575f80fd5b61601488828601615ec2565b604083015250606083013560608201526080830135608082015261603a60a08401615b15565b60a082015260c083013582811115616050575f80fd5b61605c88828601615f23565b60c0830152508093505050509250929050565b608081525f6160816080830187615b72565b8281036020848101919091528651808352878201928201905f5b818110156160bc576160ae838651615be5565b94840194925060010161609b565b505084810360408601526160d08188615c4d565b9250505082810360608401526160e68185615c4d565b979650505050505050565b5f8060208385031215616102575f80fd5b823567ffffffffffffffff80821115616119575f80fd5b818501915085601f83011261612c575f80fd5b81358181111561613a575f80fd5b86602082850101111561614b575f80fd5b60209290920196919550909350505050565b604081525f61616f6040830185615c4d565b8281036020840152610ecf8185615c4d565b5f805f60608486031215616193575f80fd5b833561619e81615b01565b925060208401356161ae81615b01565b915060408401356161be81615b01565b809150509250925092565b5f805f805f8060c087890312156161de575f80fd5b86356161e981615b01565b95506020878101356161fa81615b01565b9550604088013567ffffffffffffffff80821115616216575f80fd5b818a0191508a601f830112616229575f80fd5b8135616237615ee182615e9f565b81815260059190911b8301840190848101908d831115616255575f80fd5b938501935b8285101561627c57843561626d81615b01565b8252938501939085019061625a565b9850505060608a0135925080831115616293575f80fd5b61629f8b848c01615ec2565b955060808a0135945060a08a01359250808311156162bb575f80fd5b50506162c989828a01615f23565b9150509295509295509295565b602081525f610da86020830184615b72565b8051151582526020810151616301602084018215159052565b506040810151616315604084018215159052565b506060810151616329606084018215159052565b50608081015161633d608084018215159052565b5060a081015161635160a084018215159052565b5060c081015161636560c084018215159052565b5060e081015161637960e084018215159052565b506101008181015115159083015261012080820151151590830152610140808201516001600160a01b03811682850152611382565b610160810161165c82846162e8565b6060810161165c828480516001600160a01b03908116835260208083015182169084015260409182015116910152565b5f5b838110156164075781810151838201526020016163ef565b50505f910152565b5f81518084526164268160208601602086016163ed565b601f01601f19169290920160200192915050565b602081525f610da8602083018461640f565b8015158114611df7575f80fd5b80356112118161644c565b803563ffffffff81168114611211575f80fd5b5f606082840312156109a5575f80fd5b5f608082840312156109a5575f80fd5b5f805f805f805f806101a0898b0312156164af575f80fd5b6164b98935615b01565b88359750602089013567ffffffffffffffff8111156164d6575f80fd5b8901601f81018b136164e6575f80fd5b80356164f4615ee182615e9f565b8082825260208201915060208360071b85010192508d831115616515575f80fd5b6020840193505b82841015616596576080848f031215616533575f80fd5b61653b615e10565b6165458535615b01565b84358152602085013561655781615e88565b6020820152604085013561656a81615b01565b6040820152606085013561657d8161644c565b606082015282526080939093019260209091019061651c565b9950505050604089013595506165ae60608a01616464565b94506165bc60808a01616459565b93506165cb8a60a08b01616477565b92506165da6101008a01615b15565b91506165ea8a6101208b01616487565b90509295985092959890939650565b81518051151582526020808201511515908301526040808201511515908301526060908101511515908201526101a0810160208301516080830152604083015160a0830152606083015160c0830152608083015161666060e084018264ffffffffff169052565b5060a083015161010061667a8185018363ffffffff169052565b60c085015191506101206166918186018415159052565b60e08601511515610140860152908501511515610160850152840151801515610180850152905061093c565b634e487b7160e01b5f52601160045260245ffd5b63ffffffff81811683821601908082111561093c5761093c6166bd565b634e487b7160e01b5f52603260045260245ffd5b8181038181111561165c5761165c6166bd565b5f606082018583526020606060208501528186518084526080860191506020880193505f5b818110156167565784518352938301939183019160010161673a565b5050848103604086015261676a8187615c4d565b98975050505050505050565b604081525f6167886040830185615c4d565b905061679383615bc9565b8260208301529392505050565b5f602082840312156167b0575f80fd5b5051919050565b818382375f9101908152919050565b5f606082840312156167d6575f80fd5b6040516060810181811067ffffffffffffffff821117156167f9576167f9615dd3565b604052823561680781615b01565b8152602083013561681781615b01565b6020820152604083013561682a81615b01565b60408201529392505050565b5f60808284031215616846575f80fd5b61684e615e10565b82356168598161644c565b815260208301356168698161644c565b6020820152604083013561687c8161644c565b6040820152606083013561688f8161644c565b60608201529392505050565b808202811582820484141761165c5761165c6166bd565b5f826168cc57634e487b7160e01b5f52601260045260245ffd5b500490565b5f7f80000000000000000000000000000000000000000000000000000000000000008203616901576169016166bd565b505f0390565b8082018082111561165c5761165c6166bd565b60ff818116838216019081111561165c5761165c6166bd565b606081525f845161694381615bc9565b606083015260208501516080830152604085015160e060a084015261696c610140840182615c4d565b9050606086015160c0840152608086015160e08401526001600160a01b0360a08701511661010084015260c0860151605f19848303016101208501526169b2828261640f565b925050506169cb60208301856001600160a01b03169052565b826040830152949350505050565b80516112118161644c565b5f80604083850312156169f5575f80fd5b8251616a008161644c565b6020939093015192949293505050565b600181815b80851115616a4a57815f1904821115616a3057616a306166bd565b80851615616a3d57918102915b93841c9390800290616a15565b509250929050565b5f82616a605750600161165c565b81616a6c57505f61165c565b8160018114616a825760028114616a8c57616aa8565b600191505061165c565b60ff841115616a9d57616a9d6166bd565b50506001821b61165c565b5060208310610133831016604e8410600b8410161715616acb575081810a61165c565b616ad58383616a10565b805f1904821115616ae857616ae86166bd565b029392505050565b5f610da88383616a52565b604081525f616b0d6040830185615c4d565b8281036020840152610ecf818561640f565b5f60208284031215616b2f575f80fd5b8151610da88161644c565b606081525f616b4c6060830186615c4d565b84602084015282810360408401526127f8818561640f565b5f60208284031215616b74575f80fd5b815160ff81168114610da8575f80fd5b60ff828116828216039081111561165c5761165c6166bd565b5f8060408385031215616bae575f80fd5b505080516020909101519092909150565b5f815180845260208085019450602084015f5b83811015615baa5781516001600160a01b0380825116895284820151616bf781615bc9565b898601526040828101519091169089015260609081015115159088015260809096019590820190600101616bd2565b5f6001600160a01b03808716835280861660208401525060e06040830152616c5160e0830185616bbf565b835115156060848101919091526020850151151560808501526040850151151560a0850152840151151560c08401529050610ecf565b5f6101408284031215616c98575f80fd5b616ca0615e33565b616ca9836169d9565b8152616cb7602084016169d9565b6020820152616cc8604084016169d9565b6040820152616cd9606084016169d9565b6060820152616cea608084016169d9565b6080820152616cfb60a084016169d9565b60a0820152616d0c60c084016169d9565b60c0820152616d1d60e084016169d9565b60e0820152610100616d308185016169d9565b90820152610120616d428482016169d9565b908201529392505050565b5f6102a0808352616d608184018a616bbf565b91505086602083015263ffffffff86166040830152616da4606083018680516001600160a01b03908116835260208083015182169084015260409182015116910152565b616db160c08301856162e8565b825115156102208301526020830151151561024083015260408301511515610260830152606083015115156102808301526160e6565b8082018281125f831280158216821582161715616e0657616e066166bd565b505092915050565b5f8251616e1f8184602087016163ed565b9190910192915050565b634e487b7160e01b5f52605160045260245ffdfea2646970667358221220e8700b8822eee3c7df108a9d8ab431f7bd44eb1371582b290b4d565059f0608e64736f6c63430008180033","linkReferences":{}},"methodIdentifiers":{"allowance(address,address,address)":"927da105","approve(address,address,uint256)":"e1f21c67","balanceOf(address,address)":"f7888aec","computeDynamicSwapFeePercentage(address,(uint8,uint256,uint256[],uint256,uint256,address,bytes))":"4d472bdd","getAddLiquidityCalledFlag(address)":"ace9b89b","getAggregateSwapFeeAmount(address,address)":"85e0b999","getAggregateYieldFeeAmount(address,address)":"00fdfa13","getBptRate(address)":"4f037ee7","getCurrentLiveBalances(address)":"535cfd8a","getHooksConfig(address)":"ce8630d4","getNonzeroDeltaCount()":"db817187","getPoolConfig(address)":"f29486a1","getPoolData(address)":"13d21cdf","getPoolPausedState(address)":"15e32046","getPoolRoleAccounts(address)":"e9ddeb26","getPoolTokenInfo(address)":"67e0e076","getPoolTokenRates(address)":"7e361bde","getPoolTokens(address)":"ca4f2803","getProtocolFeeController()":"85f2dbd4","getReservesOf(address)":"96787092","getStaticSwapFeePercentage(address)":"b45090f9","getTokenDelta(address)":"9e825ff5","getVaultAdmin()":"1ba0ae45","initialize(address,address,address[],uint256[],uint256,bytes)":"ba8a2be0","isERC4626BufferInitialized(address)":"6844846b","isPoolInRecoveryMode(address)":"be7d628a","isPoolInitialized(address)":"532cec7c","isPoolPaused(address)":"6c9bc732","isPoolRegistered(address)":"c673bdaf","isQueryDisabled()":"b4aef0ab","isUnlocked()":"8380edb7","quote(bytes)":"edfa3568","quoteAndRevert(bytes)":"757d64b3","reentrancyGuardEntered()":"d2c725e0","registerPool(address,(address,uint8,address,bool)[],uint256,uint32,bool,(address,address,address),address,(bool,bool,bool,bool))":"eeec802f","removeLiquidityRecovery(address,address,uint256)":"3a2d133b","totalSupply(address)":"e4dc2aa4","transfer(address,address,uint256)":"beabacc8","transferFrom(address,address,address,uint256)":"15dacbea","vault()":"fbfa77cf"},"id":94}