{"abi":[{"type":"constructor","inputs":[{"name":"params","type":"tuple","internalType":"struct WeightedPool.NewPoolParams","components":[{"name":"name","type":"string","internalType":"string"},{"name":"symbol","type":"string","internalType":"string"},{"name":"numTokens","type":"uint256","internalType":"uint256"},{"name":"normalizedWeights","type":"uint256[]","internalType":"uint256[]"},{"name":"version","type":"string","internalType":"string"}]},{"name":"vault","type":"address","internalType":"contract IVault"}],"stateMutability":"nonpayable"},{"type":"function","name":"DOMAIN_SEPARATOR","inputs":[],"outputs":[{"name":"","type":"bytes32","internalType":"bytes32"}],"stateMutability":"view"},{"type":"function","name":"PERMIT_TYPEHASH","inputs":[],"outputs":[{"name":"","type":"bytes32","internalType":"bytes32"}],"stateMutability":"view"},{"type":"function","name":"allowance","inputs":[{"name":"owner","type":"address","internalType":"address"},{"name":"spender","type":"address","internalType":"address"}],"outputs":[{"name":"","type":"uint256","internalType":"uint256"}],"stateMutability":"view"},{"type":"function","name":"approve","inputs":[{"name":"spender","type":"address","internalType":"address"},{"name":"amount","type":"uint256","internalType":"uint256"}],"outputs":[{"name":"","type":"bool","internalType":"bool"}],"stateMutability":"nonpayable"},{"type":"function","name":"balanceOf","inputs":[{"name":"account","type":"address","internalType":"address"}],"outputs":[{"name":"","type":"uint256","internalType":"uint256"}],"stateMutability":"view"},{"type":"function","name":"computeBalance","inputs":[{"name":"balancesLiveScaled18","type":"uint256[]","internalType":"uint256[]"},{"name":"tokenInIndex","type":"uint256","internalType":"uint256"},{"name":"invariantRatio","type":"uint256","internalType":"uint256"}],"outputs":[{"name":"newBalance","type":"uint256","internalType":"uint256"}],"stateMutability":"view"},{"type":"function","name":"computeInvariant","inputs":[{"name":"balancesLiveScaled18","type":"uint256[]","internalType":"uint256[]"},{"name":"rounding","type":"uint8","internalType":"enum Rounding"}],"outputs":[{"name":"","type":"uint256","internalType":"uint256"}],"stateMutability":"view"},{"type":"function","name":"decimals","inputs":[],"outputs":[{"name":"","type":"uint8","internalType":"uint8"}],"stateMutability":"pure"},{"type":"function","name":"eip712Domain","inputs":[],"outputs":[{"name":"fields","type":"bytes1","internalType":"bytes1"},{"name":"name","type":"string","internalType":"string"},{"name":"version","type":"string","internalType":"string"},{"name":"chainId","type":"uint256","internalType":"uint256"},{"name":"verifyingContract","type":"address","internalType":"address"},{"name":"salt","type":"bytes32","internalType":"bytes32"},{"name":"extensions","type":"uint256[]","internalType":"uint256[]"}],"stateMutability":"view"},{"type":"function","name":"emitApproval","inputs":[{"name":"owner","type":"address","internalType":"address"},{"name":"spender","type":"address","internalType":"address"},{"name":"amount","type":"uint256","internalType":"uint256"}],"outputs":[],"stateMutability":"nonpayable"},{"type":"function","name":"emitTransfer","inputs":[{"name":"from","type":"address","internalType":"address"},{"name":"to","type":"address","internalType":"address"},{"name":"amount","type":"uint256","internalType":"uint256"}],"outputs":[],"stateMutability":"nonpayable"},{"type":"function","name":"getAggregateFeePercentages","inputs":[],"outputs":[{"name":"aggregateSwapFeePercentage","type":"uint256","internalType":"uint256"},{"name":"aggregateYieldFeePercentage","type":"uint256","internalType":"uint256"}],"stateMutability":"view"},{"type":"function","name":"getCurrentLiveBalances","inputs":[],"outputs":[{"name":"balancesLiveScaled18","type":"uint256[]","internalType":"uint256[]"}],"stateMutability":"view"},{"type":"function","name":"getMaximumInvariantRatio","inputs":[],"outputs":[{"name":"","type":"uint256","internalType":"uint256"}],"stateMutability":"pure"},{"type":"function","name":"getMaximumSwapFeePercentage","inputs":[],"outputs":[{"name":"","type":"uint256","internalType":"uint256"}],"stateMutability":"pure"},{"type":"function","name":"getMinimumInvariantRatio","inputs":[],"outputs":[{"name":"","type":"uint256","internalType":"uint256"}],"stateMutability":"pure"},{"type":"function","name":"getMinimumSwapFeePercentage","inputs":[],"outputs":[{"name":"","type":"uint256","internalType":"uint256"}],"stateMutability":"pure"},{"type":"function","name":"getNormalizedWeights","inputs":[],"outputs":[{"name":"","type":"uint256[]","internalType":"uint256[]"}],"stateMutability":"view"},{"type":"function","name":"getRate","inputs":[],"outputs":[{"name":"","type":"uint256","internalType":"uint256"}],"stateMutability":"pure"},{"type":"function","name":"getStaticSwapFeePercentage","inputs":[],"outputs":[{"name":"","type":"uint256","internalType":"uint256"}],"stateMutability":"view"},{"type":"function","name":"getTokenInfo","inputs":[],"outputs":[{"name":"tokens","type":"address[]","internalType":"contract IERC20[]"},{"name":"tokenInfo","type":"tuple[]","internalType":"struct TokenInfo[]","components":[{"name":"tokenType","type":"uint8","internalType":"enum TokenType"},{"name":"rateProvider","type":"address","internalType":"contract IRateProvider"},{"name":"paysYieldFees","type":"bool","internalType":"bool"}]},{"name":"balancesRaw","type":"uint256[]","internalType":"uint256[]"},{"name":"lastBalancesLiveScaled18","type":"uint256[]","internalType":"uint256[]"}],"stateMutability":"view"},{"type":"function","name":"getTokens","inputs":[],"outputs":[{"name":"tokens","type":"address[]","internalType":"contract IERC20[]"}],"stateMutability":"view"},{"type":"function","name":"getVault","inputs":[],"outputs":[{"name":"","type":"address","internalType":"contract IVault"}],"stateMutability":"view"},{"type":"function","name":"getWeightedPoolDynamicData","inputs":[],"outputs":[{"name":"data","type":"tuple","internalType":"struct WeightedPoolDynamicData","components":[{"name":"balancesLiveScaled18","type":"uint256[]","internalType":"uint256[]"},{"name":"tokenRates","type":"uint256[]","internalType":"uint256[]"},{"name":"staticSwapFeePercentage","type":"uint256","internalType":"uint256"},{"name":"totalSupply","type":"uint256","internalType":"uint256"},{"name":"isPoolInitialized","type":"bool","internalType":"bool"},{"name":"isPoolPaused","type":"bool","internalType":"bool"},{"name":"isPoolInRecoveryMode","type":"bool","internalType":"bool"}]}],"stateMutability":"view"},{"type":"function","name":"getWeightedPoolImmutableData","inputs":[],"outputs":[{"name":"data","type":"tuple","internalType":"struct WeightedPoolImmutableData","components":[{"name":"tokens","type":"address[]","internalType":"contract IERC20[]"},{"name":"decimalScalingFactors","type":"uint256[]","internalType":"uint256[]"},{"name":"normalizedWeights","type":"uint256[]","internalType":"uint256[]"}]}],"stateMutability":"view"},{"type":"function","name":"name","inputs":[],"outputs":[{"name":"","type":"string","internalType":"string"}],"stateMutability":"view"},{"type":"function","name":"nonces","inputs":[{"name":"owner","type":"address","internalType":"address"}],"outputs":[{"name":"","type":"uint256","internalType":"uint256"}],"stateMutability":"view"},{"type":"function","name":"onSwap","inputs":[{"name":"request","type":"tuple","internalType":"struct PoolSwapParams","components":[{"name":"kind","type":"uint8","internalType":"enum SwapKind"},{"name":"amountGivenScaled18","type":"uint256","internalType":"uint256"},{"name":"balancesScaled18","type":"uint256[]","internalType":"uint256[]"},{"name":"indexIn","type":"uint256","internalType":"uint256"},{"name":"indexOut","type":"uint256","internalType":"uint256"},{"name":"router","type":"address","internalType":"address"},{"name":"userData","type":"bytes","internalType":"bytes"}]}],"outputs":[{"name":"","type":"uint256","internalType":"uint256"}],"stateMutability":"view"},{"type":"function","name":"permit","inputs":[{"name":"owner","type":"address","internalType":"address"},{"name":"spender","type":"address","internalType":"address"},{"name":"amount","type":"uint256","internalType":"uint256"},{"name":"deadline","type":"uint256","internalType":"uint256"},{"name":"v","type":"uint8","internalType":"uint8"},{"name":"r","type":"bytes32","internalType":"bytes32"},{"name":"s","type":"bytes32","internalType":"bytes32"}],"outputs":[],"stateMutability":"nonpayable"},{"type":"function","name":"supportsInterface","inputs":[{"name":"interfaceId","type":"bytes4","internalType":"bytes4"}],"outputs":[{"name":"","type":"bool","internalType":"bool"}],"stateMutability":"view"},{"type":"function","name":"symbol","inputs":[],"outputs":[{"name":"","type":"string","internalType":"string"}],"stateMutability":"view"},{"type":"function","name":"totalSupply","inputs":[],"outputs":[{"name":"","type":"uint256","internalType":"uint256"}],"stateMutability":"view"},{"type":"function","name":"transfer","inputs":[{"name":"to","type":"address","internalType":"address"},{"name":"amount","type":"uint256","internalType":"uint256"}],"outputs":[{"name":"","type":"bool","internalType":"bool"}],"stateMutability":"nonpayable"},{"type":"function","name":"transferFrom","inputs":[{"name":"from","type":"address","internalType":"address"},{"name":"to","type":"address","internalType":"address"},{"name":"amount","type":"uint256","internalType":"uint256"}],"outputs":[{"name":"","type":"bool","internalType":"bool"}],"stateMutability":"nonpayable"},{"type":"function","name":"version","inputs":[],"outputs":[{"name":"","type":"string","internalType":"string"}],"stateMutability":"view"},{"type":"event","name":"Approval","inputs":[{"name":"owner","type":"address","indexed":true,"internalType":"address"},{"name":"spender","type":"address","indexed":true,"internalType":"address"},{"name":"value","type":"uint256","indexed":false,"internalType":"uint256"}],"anonymous":false},{"type":"event","name":"EIP712DomainChanged","inputs":[],"anonymous":false},{"type":"event","name":"Transfer","inputs":[{"name":"from","type":"address","indexed":true,"internalType":"address"},{"name":"to","type":"address","indexed":true,"internalType":"address"},{"name":"value","type":"uint256","indexed":false,"internalType":"uint256"}],"anonymous":false},{"type":"error","name":"BaseOutOfBounds","inputs":[]},{"type":"error","name":"ECDSAInvalidSignature","inputs":[]},{"type":"error","name":"ECDSAInvalidSignatureLength","inputs":[{"name":"length","type":"uint256","internalType":"uint256"}]},{"type":"error","name":"ECDSAInvalidSignatureS","inputs":[{"name":"s","type":"bytes32","internalType":"bytes32"}]},{"type":"error","name":"ERC2612ExpiredSignature","inputs":[{"name":"deadline","type":"uint256","internalType":"uint256"}]},{"type":"error","name":"ERC2612InvalidSigner","inputs":[{"name":"signer","type":"address","internalType":"address"},{"name":"owner","type":"address","internalType":"address"}]},{"type":"error","name":"ExponentOutOfBounds","inputs":[]},{"type":"error","name":"InputLengthMismatch","inputs":[]},{"type":"error","name":"InvalidAccountNonce","inputs":[{"name":"account","type":"address","internalType":"address"},{"name":"currentNonce","type":"uint256","internalType":"uint256"}]},{"type":"error","name":"InvalidExponent","inputs":[]},{"type":"error","name":"InvalidShortString","inputs":[]},{"type":"error","name":"InvalidToken","inputs":[]},{"type":"error","name":"MaxInRatio","inputs":[]},{"type":"error","name":"MaxOutRatio","inputs":[]},{"type":"error","name":"MinWeight","inputs":[]},{"type":"error","name":"NormalizedWeightInvariant","inputs":[]},{"type":"error","name":"ProductOutOfBounds","inputs":[]},{"type":"error","name":"SenderIsNotVault","inputs":[{"name":"sender","type":"address","internalType":"address"}]},{"type":"error","name":"StringTooLong","inputs":[{"name":"str","type":"string","internalType":"string"}]},{"type":"error","name":"WeightedPoolBptRateUnsupported","inputs":[]},{"type":"error","name":"ZeroDivision","inputs":[]},{"type":"error","name":"ZeroInvariant","inputs":[]}],"bytecode":{"object":"0x6102c060405234801562000011575f80fd5b50604051620045463803806200454683398101604081905262000034916200054f565b81608001518182845f015185602001518282604051806040016040528060018152602001603160f81b815250620000755f83620002f160201b90919060201c565b6101205262000086816001620002f1565b61014052815160208084019190912060e052815190820120610100524660a0526200011360e05161010051604080517f8b73c3c69bb8fe3d512ecc4cf759cc79239f7b179b0ffacaa9a75d522b39400f60208201529081019290925260608201524660808201523060a08201525f9060c00160405160208183030381529060405280519060200120905090565b60805250503060c0526001600160a01b0316610160526003620001378382620006d8565b506004620001468282620006d8565b505050506001600160a01b031661018052620001628162000329565b5060408201516101a08190526060830151516200018091906200033b565b5f805b6101a0518160ff161015620002be575f84606001518260ff1681518110620001af57620001af620007a4565b60200260200101519050662386f26fc10000811015620001e25760405163bd39358360e01b815260040160405180910390fd5b620001ee8184620007cc565b92508160ff165f0362000207576101c0819052620002aa565b8160ff166001036200021f576101e0819052620002aa565b8160ff166002036200023757610200819052620002aa565b8160ff166003036200024f57610220819052620002aa565b8160ff166004036200026757610240819052620002aa565b8160ff166005036200027f57610260819052620002aa565b8160ff166006036200029757610280819052620002aa565b8160ff16600703620002aa576102a08190525b50620002b681620007e2565b905062000183565b50670de0b6b3a76400008114620002e857604051631ce788a760e11b815260040160405180910390fd5b5050506200085b565b5f602083511015620003105762000308836200035c565b905062000323565b816200031d8482620006d8565b5060ff90505b92915050565b6005620003378282620006d8565b5050565b808214620003375760405163aaad13f760e01b815260040160405180910390fd5b5f80829050601f8151111562000392578260405163305a27a960e01b815260040162000389919062000803565b60405180910390fd5b80516200039f8262000837565b179392505050565b634e487b7160e01b5f52604160045260245ffd5b60405160a081016001600160401b0381118282101715620003e057620003e0620003a7565b60405290565b604051601f8201601f191681016001600160401b0381118282101715620004115762000411620003a7565b604052919050565b5f5b83811015620004355781810151838201526020016200041b565b50505f910152565b5f82601f8301126200044d575f80fd5b81516001600160401b03811115620004695762000469620003a7565b6200047e601f8201601f1916602001620003e6565b81815284602083860101111562000493575f80fd5b620004a682602083016020870162000419565b949350505050565b5f82601f830112620004be575f80fd5b815160206001600160401b03821115620004dc57620004dc620003a7565b8160051b620004ed828201620003e6565b928352848101820192828101908785111562000507575f80fd5b83870192505b8483101562000528578251825291830191908301906200050d565b979650505050505050565b80516001600160a01b03811681146200054a575f80fd5b919050565b5f806040838503121562000561575f80fd5b82516001600160401b038082111562000578575f80fd5b9084019060a082870312156200058c575f80fd5b62000596620003bb565b825182811115620005a5575f80fd5b620005b3888286016200043d565b825250602083015182811115620005c8575f80fd5b620005d6888286016200043d565b60208301525060408301516040820152606083015182811115620005f8575f80fd5b6200060688828601620004ae565b6060830152506080830151828111156200061e575f80fd5b6200062c888286016200043d565b6080830152509350620006459150506020840162000533565b90509250929050565b600181811c908216806200066357607f821691505b6020821081036200068257634e487b7160e01b5f52602260045260245ffd5b50919050565b601f821115620006d357805f5260205f20601f840160051c81016020851015620006af5750805b601f840160051c820191505b81811015620006d0575f8155600101620006bb565b50505b505050565b81516001600160401b03811115620006f457620006f4620003a7565b6200070c816200070584546200064e565b8462000688565b602080601f83116001811462000742575f84156200072a5750858301515b5f19600386901b1c1916600185901b1785556200079c565b5f85815260208120601f198616915b82811015620007725788860151825594840194600190910190840162000751565b50858210156200079057878501515f19600388901b60f8161c191681555b505060018460011b0185555b505050505050565b634e487b7160e01b5f52603260045260245ffd5b634e487b7160e01b5f52601160045260245ffd5b80820180821115620003235762000323620007b8565b5f60ff821660ff8103620007fa57620007fa620007b8565b60010192915050565b602081525f82518060208401526200082381604085016020870162000419565b601f01601f19169190910160400192915050565b8051602080830151919081101562000682575f1960209190910360031b1b16919050565b60805160a05160c05160e05161010051610120516101405161016051610180516101a0516101c0516101e05161020051610220516102405161026051610280516102a051613b75620009d15f395f81816116830152611b1901525f81816116540152611ad001525f81816116250152611a8701525f81816115f60152611a3e01525f81816115c701526119f501525f818161159801526119ac01525f8181611569015261196301525f818161153a015261192401525f6118bd01525f8181610c0e01528181610dc901528181610e7b01528181610f0c015261123901525f818161042c015281816105e9015281816106c70152818161078d015281816108a00152818161092a01528181610a8201528181610d8001528181610fd50152818161105f015281816110ed01528181611187015281816113f4015281816114b3015261173501525f611cd401525f611ca801525f61186901525f61184101525f61179c01525f6117c601525f6117f00152613b755ff3fe608060405234801561000f575f80fd5b5060043610610235575f3560e01c806372c981861161013d578063abb1dc44116100b8578063ce20ece711610088578063d505accf1161006e578063d505accf146104fd578063dd62ed3e14610510578063f89f27ed14610523575f80fd5b8063ce20ece7146104e9578063d335b0cf146104f5575f80fd5b8063abb1dc4414610499578063b156aa0a146104b1578063b677fa56146104c6578063c0bc6f33146104d4575f80fd5b80638d928af81161010d578063984de9e8116100f3578063984de9e81461045e578063a9059cbb14610471578063aa6ca80814610484575f80fd5b80638d928af81461041f57806395d89b4114610456575f80fd5b806372c98186146103c15780637ecebe00146103d457806381fa807c146103e757806384b0196e14610404575f80fd5b806330adf81f116101cd57806354fd4d501161019d578063654cf15d11610183578063654cf15d14610398578063679aefce146103a657806370a08231146103ae575f80fd5b806354fd4d501461037d5780635687f2b814610385575f80fd5b806330adf81f1461032a578063313ce567146103515780633644e5151461036057806353b79bd714610368575f80fd5b806318160ddd1161020857806318160ddd146102ec57806323b872dd146102f457806323de665114610307578063273c1adf1461031c575f80fd5b806301ffc9a71461023957806306fdde03146102a3578063095ea7b3146102b857806316a0b3e0146102cb575b5f80fd5b61028e610247366004612e41565b7fffffffff00000000000000000000000000000000000000000000000000000000167f01ffc9a7000000000000000000000000000000000000000000000000000000001490565b60405190151581526020015b60405180910390f35b6102ab61052b565b60405161029a9190612ec3565b61028e6102c6366004612ef7565b6105bb565b6102de6102d9366004613065565b610662565b60405190815260200161029a565b6102de610697565b61028e6103023660046130af565b61073e565b61031a6103153660046130af565b610804565b005b6729a2241af62c00006102de565b6102de7f6e71edae12b1b97f4d1f60370fef10105fa2faae0126114a169c64845d6126c981565b6040516012815260200161029a565b6102de61085e565b610370610867565b60405161029a919061315f565b6102ab6109b3565b61031a6103933660046130af565b6109c2565b67016345785d8a00006102de565b6102de610a0f565b6102de6103bc3660046131bf565b610a42565b6102de6103cf36600461325d565b610aed565b6102de6103e23660046131bf565b610bce565b6103ef610beb565b6040805192835260208301919091520161029a565b61040c610c8d565b60405161029a9796959493929190613328565b6040516001600160a01b037f000000000000000000000000000000000000000000000000000000000000000016815260200161029a565b6102ab610ceb565b6102de61046c3660046133a3565b610cfa565b61028e61047f366004612ef7565b610d39565b61048c610db1565b60405161029a91906133f2565b6104a1610e3c565b60405161029a9493929190613418565b6104b9610ef4565b60405161029a91906134d2565b6709b6e64a8ec600006102de565b6104dc610f7f565b60405161029a91906134e4565b6509184e72a0006102de565b6102de611222565b61031a61050b366004613562565b611270565b6102de61051e3660046135d3565b61146b565b6104b9611525565b60606003805461053a906135ff565b80601f0160208091040260200160405190810160405280929190818152602001828054610566906135ff565b80156105b15780601f10610588576101008083540402835291602001916105b1565b820191905f5260205f20905b81548152906001019060200180831161059457829003601f168201915b5050505050905090565b60405163e1f21c6760e01b81523360048201526001600160a01b038381166024830152604482018390525f917f00000000000000000000000000000000000000000000000000000000000000009091169063e1f21c67906064015b6020604051808303815f875af1158015610632573d5f803e3d5ffd5b505050506040513d601f19601f820116820180604052508101906106569190613646565b50600190505b92915050565b5f61068f8484815181106106785761067861365f565b60200260200101516106898561152f565b846116d9565b949350505050565b6040517fe4dc2aa40000000000000000000000000000000000000000000000000000000081523060048201525f907f00000000000000000000000000000000000000000000000000000000000000006001600160a01b03169063e4dc2aa4906024015b602060405180830381865afa158015610715573d5f803e3d5ffd5b505050506040513d601f19601f820116820180604052508101906107399190613673565b905090565b6040517f15dacbea0000000000000000000000000000000000000000000000000000000081523360048201526001600160a01b0384811660248301528381166044830152606482018390525f917f0000000000000000000000000000000000000000000000000000000000000000909116906315dacbea906084016020604051808303815f875af11580156107d5573d5f803e3d5ffd5b505050506040513d601f19601f820116820180604052508101906107f99190613646565b506001949350505050565b61080c61172a565b816001600160a01b0316836001600160a01b03167fddf252ad1be2c89b69c2b068fc378daa952ba7f163c4a11628f55a4df523b3ef8360405161085191815260200190565b60405180910390a3505050565b5f610739611790565b61088b60405180606001604052806060815260200160608152602001606081525090565b60405163ca4f280360e01b81523060048201527f00000000000000000000000000000000000000000000000000000000000000006001600160a01b03169063ca4f2803906024015f60405180830381865afa1580156108ec573d5f803e3d5ffd5b505050506040513d5f823e601f3d908101601f1916820160405261091391908101906136ef565b8152604051633f1b0def60e11b81523060048201527f00000000000000000000000000000000000000000000000000000000000000006001600160a01b031690637e361bde906024015f60405180830381865afa158015610976573d5f803e3d5ffd5b505050506040513d5f823e601f3d908101601f1916820160405261099d919081019061377d565b5060208201526109ab6118b9565b604082015290565b60606005805461053a906135ff565b6109ca61172a565b816001600160a01b0316836001600160a01b03167f8c5be1e5ebec7d5bd14f71427d1e84f3dd0314c0f7b2291e5b200ac8c7c3b9258360405161085191815260200190565b5f6040517f18e79a2000000000000000000000000000000000000000000000000000000000815260040160405180910390fd5b6040517ff7888aec0000000000000000000000000000000000000000000000000000000081523060048201526001600160a01b0382811660248301525f917f00000000000000000000000000000000000000000000000000000000000000009091169063f7888aec90604401602060405180830381865afa158015610ac9573d5f803e3d5ffd5b505050506040513d601f19601f8201168201806040525081019061065c9190613673565b5f610af661172a565b5f8260400151836060015181518110610b1157610b1161365f565b602002602001015190505f8360400151846080015181518110610b3657610b3661365f565b602002602001015190505f6001811115610b5257610b52613404565b84516001811115610b6557610b65613404565b03610b9f575f610b9483610b7c876060015161152f565b84610b8a896080015161152f565b8960200151611b5d565b9350610bc992505050565b5f610b9483610bb1876060015161152f565b84610bbf896080015161152f565b8960200151611c05565b919050565b6001600160a01b0381165f9081526002602052604081205461065c565b60405163f29486a160e01b81523060048201525f90819081906001600160a01b037f0000000000000000000000000000000000000000000000000000000000000000169063f29486a1906024016101a060405180830381865afa158015610c54573d5f803e3d5ffd5b505050506040513d601f19601f82011682018060405250810190610c789190613882565b90508060400151925080606001519150509091565b5f6060805f805f6060610c9e611ca1565b610ca6611ccd565b604080515f808252602082019092527f0f000000000000000000000000000000000000000000000000000000000000009b939a50919850469750309650945092509050565b60606004805461053a906135ff565b5f612e3981836001811115610d1157610d11613404565b14610d1e57611cfa610d22565b611da15b905061068f610d2f6118b9565b858363ffffffff16565b6040517fbeabacc80000000000000000000000000000000000000000000000000000000081523360048201526001600160a01b038381166024830152604482018390525f917f00000000000000000000000000000000000000000000000000000000000000009091169063beabacc890606401610616565b60405163ca4f280360e01b81523060048201526060907f00000000000000000000000000000000000000000000000000000000000000006001600160a01b03169063ca4f2803906024015f60405180830381865afa158015610e15573d5f803e3d5ffd5b505050506040513d5f823e601f3d908101601f1916820160405261073991908101906136ef565b6040517f67e0e0760000000000000000000000000000000000000000000000000000000081523060048201526060908190819081906001600160a01b037f000000000000000000000000000000000000000000000000000000000000000016906367e0e076906024015f60405180830381865afa158015610ebf573d5f803e3d5ffd5b505050506040513d5f823e601f3d908101601f19168201604052610ee69190810190613938565b935093509350935090919293565b6040516329ae7ec560e11b81523060048201526060907f00000000000000000000000000000000000000000000000000000000000000006001600160a01b03169063535cfd8a906024015f60405180830381865afa158015610f58573d5f803e3d5ffd5b505050506040513d5f823e601f3d908101601f191682016040526107399190810190613a75565b610fc06040518060e0016040528060608152602001606081526020015f81526020015f81526020015f151581526020015f151581526020015f151581525090565b6040516329ae7ec560e11b81523060048201527f00000000000000000000000000000000000000000000000000000000000000006001600160a01b03169063535cfd8a906024015f60405180830381865afa158015611021573d5f803e3d5ffd5b505050506040513d5f823e601f3d908101601f191682016040526110489190810190613a75565b8152604051633f1b0def60e11b81523060048201527f00000000000000000000000000000000000000000000000000000000000000006001600160a01b031690637e361bde906024015f60405180830381865afa1580156110ab573d5f803e3d5ffd5b505050506040513d5f823e601f3d908101601f191682016040526110d2919081019061377d565b60208301525060405163b45090f960e01b81523060048201527f00000000000000000000000000000000000000000000000000000000000000006001600160a01b03169063b45090f990602401602060405180830381865afa15801561113a573d5f803e3d5ffd5b505050506040513d601f19601f8201168201806040525081019061115e9190613673565b604082015261116b610697565b606082015260405163f29486a160e01b81523060048201525f907f00000000000000000000000000000000000000000000000000000000000000006001600160a01b03169063f29486a1906024016101a060405180830381865afa1580156111d5573d5f803e3d5ffd5b505050506040513d601f19601f820116820180604052508101906111f99190613882565b60e081015115156080840152610100810151151560a08401526101200151151560c08301525090565b60405163b45090f960e01b81523060048201525f907f00000000000000000000000000000000000000000000000000000000000000006001600160a01b03169063b45090f9906024016106fa565b834211156112b2576040517f62791302000000000000000000000000000000000000000000000000000000008152600481018590526024015b60405180910390fd5b5f7f6e71edae12b1b97f4d1f60370fef10105fa2faae0126114a169c64845d6126c98888886112fd8c6001600160a01b03165f90815260026020526040902080546001810190915590565b6040805160208101969096526001600160a01b0394851690860152929091166060840152608083015260a082015260c0810186905260e0016040516020818303038152906040528051906020012090505f61135782611e0e565b90505f61136682878787611e55565b9050896001600160a01b0316816001600160a01b0316146113c6576040517f4b800e460000000000000000000000000000000000000000000000000000000081526001600160a01b0380831660048301528b1660248201526044016112a9565b60405163e1f21c6760e01b81526001600160a01b038b811660048301528a81166024830152604482018a90527f0000000000000000000000000000000000000000000000000000000000000000169063e1f21c67906064016020604051808303815f875af115801561143a573d5f803e3d5ffd5b505050506040513d601f19601f8201168201806040525081019061145e9190613646565b5050505050505050505050565b6040517f927da1050000000000000000000000000000000000000000000000000000000081523060048201526001600160a01b03838116602483015282811660448301525f917f00000000000000000000000000000000000000000000000000000000000000009091169063927da10590606401602060405180830381865afa1580156114fa573d5f803e3d5ffd5b505050506040513d601f19601f8201168201806040525081019061151e9190613673565b9392505050565b60606107396118b9565b5f815f0361155e57507f0000000000000000000000000000000000000000000000000000000000000000919050565b8160010361158d57507f0000000000000000000000000000000000000000000000000000000000000000919050565b816002036115bc57507f0000000000000000000000000000000000000000000000000000000000000000919050565b816003036115eb57507f0000000000000000000000000000000000000000000000000000000000000000919050565b8160040361161a57507f0000000000000000000000000000000000000000000000000000000000000000919050565b8160050361164957507f0000000000000000000000000000000000000000000000000000000000000000919050565b8160060361167857507f0000000000000000000000000000000000000000000000000000000000000000919050565b816007036116a757507f0000000000000000000000000000000000000000000000000000000000000000919050565b6040517fc1ab6dc100000000000000000000000000000000000000000000000000000000815260040160405180910390fd5b5f612e39600183116116ed57611e816116f1565b611ea15b90505f61171461170d670de0b6b3a7640000878563ffffffff16565b8590611eb5565b90506117208682611f68565b9695505050505050565b336001600160a01b037f0000000000000000000000000000000000000000000000000000000000000000161461178e576040517f089676d50000000000000000000000000000000000000000000000000000000081523360048201526024016112a9565b565b5f306001600160a01b037f0000000000000000000000000000000000000000000000000000000000000000161480156117e857507f000000000000000000000000000000000000000000000000000000000000000046145b1561181257507f000000000000000000000000000000000000000000000000000000000000000090565b610739604080517f8b73c3c69bb8fe3d512ecc4cf759cc79239f7b179b0ffacaa9a75d522b39400f60208201527f0000000000000000000000000000000000000000000000000000000000000000918101919091527f000000000000000000000000000000000000000000000000000000000000000060608201524660808201523060a08201525f9060c00160405160208183030381529060405280519060200120905090565b60607f00000000000000000000000000000000000000000000000000000000000000005f8167ffffffffffffffff8111156118f6576118f6612f21565b60405190808252806020026020018201604052801561191f578160200160208202803683370190505b5090507f0000000000000000000000000000000000000000000000000000000000000000815f815181106119555761195561365f565b6020026020010181815250507f0000000000000000000000000000000000000000000000000000000000000000816001815181106119955761199561365f565b602002602001018181525050600282111561065c577f0000000000000000000000000000000000000000000000000000000000000000816002815181106119de576119de61365f565b602002602001018181525050600382111561065c577f000000000000000000000000000000000000000000000000000000000000000081600381518110611a2757611a2761365f565b602002602001018181525050600482111561065c577f000000000000000000000000000000000000000000000000000000000000000081600481518110611a7057611a7061365f565b602002602001018181525050600582111561065c577f000000000000000000000000000000000000000000000000000000000000000081600581518110611ab957611ab961365f565b602002602001018181525050600682111561065c577f000000000000000000000000000000000000000000000000000000000000000081600681518110611b0257611b0261365f565b602002602001018181525050600782111561065c577f000000000000000000000000000000000000000000000000000000000000000081600781518110611b4b57611b4b61365f565b60200260200101818152505092915050565b5f611b7086670429d069189e0000611f94565b821115611ba9576040517f340a453300000000000000000000000000000000000000000000000000000000815260040160405180910390fd5b5f611bb48388613abb565b90505f611bc18883611ea1565b90505f611bce8887611e81565b90505f611bdb8383611eb5565b9050611bf7670de0b6b3a7640000828103908310028990611f94565b9a9950505050505050505050565b5f611c1884670429d069189e0000611f94565b821115611c51576040517f64590b9f00000000000000000000000000000000000000000000000000000000815260040160405180910390fd5b5f611c66611c5f8487613ace565b8690611ea1565b90505f611c738588611ea1565b90505f611c808383611eb5565b90505f611c95670de0b6b3a764000083613ace565b9050611bf78a82611f68565b60606107397f00000000000000000000000000000000000000000000000000000000000000005f611fb4565b60606107397f00000000000000000000000000000000000000000000000000000000000000006001611fb4565b670de0b6b3a76400005f5b8351811015611d6757611d5d611d56858381518110611d2657611d2661365f565b6020026020010151858481518110611d4057611d4061365f565b602002602001015161205690919063ffffffff16565b8390611f94565b9150600101611d05565b50805f0361065c576040517f2654368900000000000000000000000000000000000000000000000000000000815260040160405180910390fd5b670de0b6b3a76400005f5b8351811015611d6757611e04611dfd858381518110611dcd57611dcd61365f565b6020026020010151858481518110611de757611de761365f565b6020026020010151611eb590919063ffffffff16565b8390611f68565b9150600101611dac565b5f61065c611e1a611790565b836040517f19010000000000000000000000000000000000000000000000000000000000008152600281019290925260228201526042902090565b5f805f80611e6588888888612102565b925092509250611e7582826121ca565b50909695505050505050565b5f80611e95670de0b6b3a764000085613ae1565b905061068f8382613b0c565b5f61151e83670de0b6b3a7640000846122d1565b5f670de0b6b3a76400008203611ecc57508161065c565b611edf670de0b6b3a76400006002613ae1565b8203611ef657611eef8384611f68565b905061065c565b611f09670de0b6b3a76400006004613ae1565b8203611f2e575f611f1a8485611f68565b9050611f268182611f68565b91505061065c565b5f611f39848461232f565b90505f611f4882612710611f68565b611f53906001613abb565b9050611f5f8183613abb565b9250505061065c565b5f80611f748385613ae1565b90506001670de0b6b3a76400006001830304018115150291505092915050565b5f80611fa08385613ae1565b905061068f670de0b6b3a764000082613b0c565b606060ff8314611fc757611eef836124cd565b818054611fd3906135ff565b80601f0160208091040260200160405190810160405280929190818152602001828054611fff906135ff565b801561204a5780601f106120215761010080835404028352916020019161204a565b820191905f5260205f20905b81548152906001019060200180831161202d57829003601f168201915b5050505050905061065c565b5f670de0b6b3a7640000820361206d57508161065c565b612080670de0b6b3a76400006002613ae1565b820361209057611eef8384611f94565b6120a3670de0b6b3a76400006004613ae1565b82036120c0575f6120b48485611f94565b9050611f268182611f94565b5f6120cb848461232f565b90505f6120da82612710611f68565b6120e5906001613abb565b9050808210156120f9575f9250505061065c565b9003905061065c565b5f80807f7fffffffffffffffffffffffffffffff5d576e7357a4501ddfe92f46681b20a084111561213b57505f915060039050826121c0565b604080515f808252602082018084528a905260ff891692820192909252606081018790526080810186905260019060a0016020604051602081039080840390855afa15801561218c573d5f803e3d5ffd5b5050604051601f1901519150506001600160a01b0381166121b757505f9250600191508290506121c0565b92505f91508190505b9450945094915050565b5f8260038111156121dd576121dd613404565b036121e6575050565b60018260038111156121fa576121fa613404565b03612231576040517ff645eedf00000000000000000000000000000000000000000000000000000000815260040160405180910390fd5b600282600381111561224557612245613404565b0361227f576040517ffce698f7000000000000000000000000000000000000000000000000000000008152600481018290526024016112a9565b600382600381111561229357612293613404565b036122cd576040517fd78bce0c000000000000000000000000000000000000000000000000000000008152600481018290526024016112a9565b5050565b5f815f0361230b576040517f0a0c22c700000000000000000000000000000000000000000000000000000000815260040160405180910390fd5b5f6123168486613ae1565b9050600183600183030401811515029150509392505050565b5f815f036123465750670de0b6b3a764000061065c565b825f0361235457505f61065c565b60ff83901c15612390576040517f022701e000000000000000000000000000000000000000000000000000000000815260040160405180910390fd5b826123c468056bc75e2d631000007f4000000000000000000000000000000000000000000000000000000000000000613b0c565b83106123fc576040517fd831731100000000000000000000000000000000000000000000000000000000815260040160405180910390fd5b825f670c7d713b49da00008313801561241c5750670f43fc2c04ee000083125b15612452575f61242b8461250a565b9050670de0b6b3a764000080820784020583670de0b6b3a764000083050201915050612460565b8161245c84612630565b0290505b670de0b6b3a76400009005680238fd42c5cf03ffff19811280159061248e575068070c1cc73b00c800008113155b6124c4576040517fa2f9f7e300000000000000000000000000000000000000000000000000000000815260040160405180910390fd5b611720816129e2565b60605f6124d983612df9565b6040805160208082528183019092529192505f91906020820181803683375050509182525060208101929092525090565b670de0b6b3a7640000025f806ec097ce7bc90715b34b9f1000000000808401906ec097ce7bc90715b34b9f0fffffffff198501028161254b5761254b613af8565b0590505f6ec097ce7bc90715b34b9f100000000082800205905081806ec097ce7bc90715b34b9f100000000081840205915060038205016ec097ce7bc90715b34b9f100000000082840205915060058205016ec097ce7bc90715b34b9f100000000082840205915060078205016ec097ce7bc90715b34b9f100000000082840205915060098205016ec097ce7bc90715b34b9f1000000000828402059150600b8205016ec097ce7bc90715b34b9f1000000000828402059150600d8205016ec097ce7bc90715b34b9f1000000000828402059150600f82050160020295945050505050565b5f80670de0b6b3a764000083121561266857826ec097ce7bc90715b34b9f10000000008161266057612660613af8565b059250600190505b5f7e1600ef3172e58d2e933ec884fde10064c63b5372d805e203c000000000000084126126b857770195e54c5dd42177f53a27172fa9ec630262827000000000840593506806f05b59d3b2000000015b73011798004d755d3c8bc8e03204cf44619e00000084126126f0576b1425982cf597cd205cef7380840593506803782dace9d9000000015b606493840293026e01855144814a7ff805980ff00840008412612738576e01855144814a7ff805980ff008400068056bc75e2d63100000850205935068ad78ebc5ac62000000015b6b02df0ab5a80a22c61ab5a7008412612773576b02df0ab5a80a22c61ab5a70068056bc75e2d6310000085020593506856bc75e2d631000000015b693f1fce3da636ea5cf85084126127aa57693f1fce3da636ea5cf85068056bc75e2d631000008502059350682b5e3af16b18800000015b690127fa27722cc06cc5e284126127e157690127fa27722cc06cc5e268056bc75e2d6310000085020593506815af1d78b58c400000015b68280e60114edb805d0384126128165768280e60114edb805d0368056bc75e2d631000008502059350680ad78ebc5ac6200000015b680ebc5fb41746121110841261284157680ebc5fb4174612111068056bc75e2d631000009485020593015b6808f00f760a4b2db55d8412612876576808f00f760a4b2db55d68056bc75e2d6310000085020593506802b5e3af16b1880000015b6806f5f177578893793784126128ab576806f5f177578893793768056bc75e2d63100000850205935068015af1d78b58c40000015b6806248f33704b28660384126128df576806248f33704b28660368056bc75e2d63100000850205935067ad78ebc5ac620000015b6805c548670b9510e7ac8412612913576805c548670b9510e7ac68056bc75e2d6310000085020593506756bc75e2d6310000015b5f68056bc75e2d63100000850168056bc75e2d63100000808703028161293b5761293b613af8565b0590505f68056bc75e2d63100000828002059050818068056bc75e2d63100000818402059150600382050168056bc75e2d63100000828402059150600582050168056bc75e2d63100000828402059150600782050168056bc75e2d63100000828402059150600982050168056bc75e2d63100000828402059150600b8205016002025f6064868301059050866129d157806129d5565b805f035b9998505050505050505050565b5f680238fd42c5cf03ffff198212158015612a06575068070c1cc73b00c800008213155b612a3c576040517fd4794efd00000000000000000000000000000000000000000000000000000000815260040160405180910390fd5b5f80831215612a4f57825f039250600190505b5f6806f05b59d3b20000008412612a8e57506806f05b59d3b1ffffff1990920191770195e54c5dd42177f53a27172fa9ec630262827000000000612ac4565b6803782dace9d90000008412612ac057506803782dace9d8ffffff19909201916b1425982cf597cd205cef7380612ac4565b5060015b6064939093029268056bc75e2d6310000068ad78ebc5ac620000008512612b145768ad78ebc5ac61ffffff199094019368056bc75e2d631000006e01855144814a7ff805980ff008400082020590505b6856bc75e2d6310000008512612b50576856bc75e2d630ffffff199094019368056bc75e2d631000006b02df0ab5a80a22c61ab5a70082020590505b682b5e3af16b188000008512612b8a57682b5e3af16b187fffff199094019368056bc75e2d63100000693f1fce3da636ea5cf85082020590505b6815af1d78b58c4000008512612bc4576815af1d78b58c3fffff199094019368056bc75e2d63100000690127fa27722cc06cc5e282020590505b680ad78ebc5ac62000008512612bfd57680ad78ebc5ac61fffff199094019368056bc75e2d6310000068280e60114edb805d0382020590505b68056bc75e2d631000008512612c365768056bc75e2d630fffff199094019368056bc75e2d63100000680ebc5fb4174612111082020590505b6802b5e3af16b18800008512612c6f576802b5e3af16b187ffff199094019368056bc75e2d631000006808f00f760a4b2db55d82020590505b68015af1d78b58c400008512612ca85768015af1d78b58c3ffff199094019368056bc75e2d631000006806f5f177578893793782020590505b68056bc75e2d631000008581019086906002908280020505918201919050600368056bc75e2d631000008883020505918201919050600468056bc75e2d631000008883020505918201919050600568056bc75e2d631000008883020505918201919050600668056bc75e2d631000008883020505918201919050600768056bc75e2d631000008883020505918201919050600868056bc75e2d631000008883020505918201919050600968056bc75e2d631000008883020505918201919050600a68056bc75e2d631000008883020505918201919050600b68056bc75e2d631000008883020505918201919050600c68056bc75e2d6310000088830205059182019190505f606468056bc75e2d6310000085850205860205905085612dcd5780612ded565b806ec097ce7bc90715b34b9f100000000081612deb57612deb613af8565b055b98975050505050505050565b5f60ff8216601f81111561065c576040517fb3512b0c00000000000000000000000000000000000000000000000000000000815260040160405180910390fd5b61178e613b2b565b5f60208284031215612e51575f80fd5b81357fffffffff000000000000000000000000000000000000000000000000000000008116811461151e575f80fd5b5f81518084525f5b81811015612ea457602081850181015186830182015201612e88565b505f602082860101526020601f19601f83011685010191505092915050565b602081525f61151e6020830184612e80565b6001600160a01b0381168114612ee9575f80fd5b50565b8035610bc981612ed5565b5f8060408385031215612f08575f80fd5b8235612f1381612ed5565b946020939093013593505050565b634e487b7160e01b5f52604160045260245ffd5b60405160e0810167ffffffffffffffff81118282101715612f5857612f58612f21565b60405290565b604051610140810167ffffffffffffffff81118282101715612f5857612f58612f21565b6040516060810167ffffffffffffffff81118282101715612f5857612f58612f21565b604051601f8201601f1916810167ffffffffffffffff81118282101715612fce57612fce612f21565b604052919050565b5f67ffffffffffffffff821115612fef57612fef612f21565b5060051b60200190565b5f82601f830112613008575f80fd5b8135602061301d61301883612fd6565b612fa5565b8083825260208201915060208460051b87010193508684111561303e575f80fd5b602086015b8481101561305a5780358352918301918301613043565b509695505050505050565b5f805f60608486031215613077575f80fd5b833567ffffffffffffffff81111561308d575f80fd5b61309986828701612ff9565b9660208601359650604090950135949350505050565b5f805f606084860312156130c1575f80fd5b83356130cc81612ed5565b925060208401356130dc81612ed5565b929592945050506040919091013590565b5f815180845260208085019450602084015f5b838110156131255781516001600160a01b031687529582019590820190600101613100565b509495945050505050565b5f815180845260208085019450602084015f5b8381101561312557815187529582019590820190600101613143565b602081525f82516060602084015261317a60808401826130ed565b90506020840151601f19808584030160408601526131988383613130565b92506040860151915080858403016060860152506131b68282613130565b95945050505050565b5f602082840312156131cf575f80fd5b813561151e81612ed5565b60028110612ee9575f80fd5b8035610bc9816131da565b5f82601f830112613200575f80fd5b813567ffffffffffffffff81111561321a5761321a612f21565b61322d601f8201601f1916602001612fa5565b818152846020838601011115613241575f80fd5b816020850160208301375f918101602001919091529392505050565b5f6020828403121561326d575f80fd5b813567ffffffffffffffff80821115613284575f80fd5b9083019060e08286031215613297575f80fd5b61329f612f35565b6132a8836131e6565b8152602083013560208201526040830135828111156132c5575f80fd5b6132d187828601612ff9565b60408301525060608301356060820152608083013560808201526132f760a08401612eec565b60a082015260c08301358281111561330d575f80fd5b613319878286016131f1565b60c08301525095945050505050565b7fff000000000000000000000000000000000000000000000000000000000000008816815260e060208201525f61336260e0830189612e80565b82810360408401526133748189612e80565b90508660608401526001600160a01b03861660808401528460a084015282810360c0840152611bf78185613130565b5f80604083850312156133b4575f80fd5b823567ffffffffffffffff8111156133ca575f80fd5b6133d685828601612ff9565b92505060208301356133e7816131da565b809150509250929050565b602081525f61151e60208301846130ed565b634e487b7160e01b5f52602160045260245ffd5b608081525f61342a60808301876130ed565b8281036020848101919091528651808352878201928201905f5b8181101561349d57845180516002811061346c57634e487b7160e01b5f52602160045260245ffd5b8452808501516001600160a01b03168585015260409081015115159084015293830193606090920191600101613444565b505084810360408601526134b18188613130565b9250505082810360608401526134c78185613130565b979650505050505050565b602081525f61151e6020830184613130565b602081525f825160e06020840152613500610100840182613130565b90506020840151601f1984830301604085015261351d8282613130565b91505060408401516060840152606084015160808401526080840151151560a084015260a0840151151560c084015260c0840151151560e08401528091505092915050565b5f805f805f805f60e0888a031215613578575f80fd5b873561358381612ed5565b9650602088013561359381612ed5565b95506040880135945060608801359350608088013560ff811681146135b6575f80fd5b9699959850939692959460a0840135945060c09093013592915050565b5f80604083850312156135e4575f80fd5b82356135ef81612ed5565b915060208301356133e781612ed5565b600181811c9082168061361357607f821691505b60208210810361363157634e487b7160e01b5f52602260045260245ffd5b50919050565b80518015158114610bc9575f80fd5b5f60208284031215613656575f80fd5b61151e82613637565b634e487b7160e01b5f52603260045260245ffd5b5f60208284031215613683575f80fd5b5051919050565b5f82601f830112613699575f80fd5b815160206136a961301883612fd6565b8083825260208201915060208460051b8701019350868411156136ca575f80fd5b602086015b8481101561305a5780516136e281612ed5565b83529183019183016136cf565b5f602082840312156136ff575f80fd5b815167ffffffffffffffff811115613715575f80fd5b61068f8482850161368a565b5f82601f830112613730575f80fd5b8151602061374061301883612fd6565b8083825260208201915060208460051b870101935086841115613761575f80fd5b602086015b8481101561305a5780518352918301918301613766565b5f806040838503121561378e575f80fd5b825167ffffffffffffffff808211156137a5575f80fd5b6137b186838701613721565b935060208501519150808211156137c6575f80fd5b506137d385828601613721565b9150509250929050565b5f608082840312156137ed575f80fd5b6040516080810181811067ffffffffffffffff8211171561381057613810612f21565b60405290508061381f83613637565b815261382d60208401613637565b602082015261383e60408401613637565b604082015261384f60608401613637565b60608201525092915050565b805164ffffffffff81168114610bc9575f80fd5b805163ffffffff81168114610bc9575f80fd5b5f6101a08284031215613893575f80fd5b61389b612f5e565b6138a584846137dd565b81526080830151602082015260a0830151604082015260c083015160608201526138d160e0840161385b565b60808201526101006138e481850161386f565b60a08301526101206138f7818601613637565b60c08401526139096101408601613637565b60e084015261391b6101608601613637565b8284015261392c6101808601613637565b90830152509392505050565b5f805f806080858703121561394b575f80fd5b845167ffffffffffffffff80821115613962575f80fd5b61396e8883890161368a565b9550602091508187015181811115613984575f80fd5b8701601f81018913613994575f80fd5b80516139a261301882612fd6565b8181526060918202830185019185820191908c8411156139c0575f80fd5b938601935b83851015613a215780858e0312156139db575f80fd5b6139e3612f82565b85516139ee816131da565b8152858801516139fd81612ed5565b818901526040613a0e878201613637565b90820152835293840193918601916139c5565b5060408b0151909850945050505080821115613a3b575f80fd5b613a4788838901613721565b93506060870151915080821115613a5c575f80fd5b50613a6987828801613721565b91505092959194509250565b5f60208284031215613a85575f80fd5b815167ffffffffffffffff811115613a9b575f80fd5b61068f84828501613721565b634e487b7160e01b5f52601160045260245ffd5b8082018082111561065c5761065c613aa7565b8181038181111561065c5761065c613aa7565b808202811582820484141761065c5761065c613aa7565b634e487b7160e01b5f52601260045260245ffd5b5f82613b2657634e487b7160e01b5f52601260045260245ffd5b500490565b634e487b7160e01b5f52605160045260245ffdfea2646970667358221220ef6e1dbb94fbce3e40978ba6f011ceae2caef46d230610123da559edbcd2e3da64736f6c63430008180033","linkReferences":{}},"methodIdentifiers":{"DOMAIN_SEPARATOR()":"3644e515","PERMIT_TYPEHASH()":"30adf81f","allowance(address,address)":"dd62ed3e","approve(address,uint256)":"095ea7b3","balanceOf(address)":"70a08231","computeBalance(uint256[],uint256,uint256)":"16a0b3e0","computeInvariant(uint256[],uint8)":"984de9e8","decimals()":"313ce567","eip712Domain()":"84b0196e","emitApproval(address,address,uint256)":"5687f2b8","emitTransfer(address,address,uint256)":"23de6651","getAggregateFeePercentages()":"81fa807c","getCurrentLiveBalances()":"b156aa0a","getMaximumInvariantRatio()":"273c1adf","getMaximumSwapFeePercentage()":"654cf15d","getMinimumInvariantRatio()":"b677fa56","getMinimumSwapFeePercentage()":"ce20ece7","getNormalizedWeights()":"f89f27ed","getRate()":"679aefce","getStaticSwapFeePercentage()":"d335b0cf","getTokenInfo()":"abb1dc44","getTokens()":"aa6ca808","getVault()":"8d928af8","getWeightedPoolDynamicData()":"c0bc6f33","getWeightedPoolImmutableData()":"53b79bd7","name()":"06fdde03","nonces(address)":"7ecebe00","onSwap((uint8,uint256,uint256[],uint256,uint256,address,bytes))":"72c98186","permit(address,address,uint256,uint256,uint8,bytes32,bytes32)":"d505accf","supportsInterface(bytes4)":"01ffc9a7","symbol()":"95d89b41","totalSupply()":"18160ddd","transfer(address,uint256)":"a9059cbb","transferFrom(address,address,uint256)":"23b872dd","version()":"54fd4d50"},"id":40}