{"abi":[{"type":"constructor","inputs":[{"name":"vault","type":"address","internalType":"contract IVault"}],"stateMutability":"nonpayable"},{"type":"function","name":"MAX_EXIT_FEE_PERCENTAGE","inputs":[],"outputs":[{"name":"","type":"uint64","internalType":"uint64"}],"stateMutability":"view"},{"type":"function","name":"exitFeePercentage","inputs":[],"outputs":[{"name":"","type":"uint64","internalType":"uint64"}],"stateMutability":"view"},{"type":"function","name":"getHookFlags","inputs":[],"outputs":[{"name":"","type":"tuple","internalType":"struct HookFlags","components":[{"name":"enableHookAdjustedAmounts","type":"bool","internalType":"bool"},{"name":"shouldCallBeforeInitialize","type":"bool","internalType":"bool"},{"name":"shouldCallAfterInitialize","type":"bool","internalType":"bool"},{"name":"shouldCallComputeDynamicSwapFee","type":"bool","internalType":"bool"},{"name":"shouldCallBeforeSwap","type":"bool","internalType":"bool"},{"name":"shouldCallAfterSwap","type":"bool","internalType":"bool"},{"name":"shouldCallBeforeAddLiquidity","type":"bool","internalType":"bool"},{"name":"shouldCallAfterAddLiquidity","type":"bool","internalType":"bool"},{"name":"shouldCallBeforeRemoveLiquidity","type":"bool","internalType":"bool"},{"name":"shouldCallAfterRemoveLiquidity","type":"bool","internalType":"bool"}]}],"stateMutability":"pure"},{"type":"function","name":"onAfterAddLiquidity","inputs":[{"name":"","type":"address","internalType":"address"},{"name":"","type":"address","internalType":"address"},{"name":"","type":"uint8","internalType":"enum AddLiquidityKind"},{"name":"","type":"uint256[]","internalType":"uint256[]"},{"name":"amountsInRaw","type":"uint256[]","internalType":"uint256[]"},{"name":"","type":"uint256","internalType":"uint256"},{"name":"","type":"uint256[]","internalType":"uint256[]"},{"name":"","type":"bytes","internalType":"bytes"}],"outputs":[{"name":"","type":"bool","internalType":"bool"},{"name":"","type":"uint256[]","internalType":"uint256[]"}],"stateMutability":"nonpayable"},{"type":"function","name":"onAfterInitialize","inputs":[{"name":"","type":"uint256[]","internalType":"uint256[]"},{"name":"","type":"uint256","internalType":"uint256"},{"name":"","type":"bytes","internalType":"bytes"}],"outputs":[{"name":"","type":"bool","internalType":"bool"}],"stateMutability":"nonpayable"},{"type":"function","name":"onAfterRemoveLiquidity","inputs":[{"name":"","type":"address","internalType":"address"},{"name":"pool","type":"address","internalType":"address"},{"name":"kind","type":"uint8","internalType":"enum RemoveLiquidityKind"},{"name":"","type":"uint256","internalType":"uint256"},{"name":"","type":"uint256[]","internalType":"uint256[]"},{"name":"amountsOutRaw","type":"uint256[]","internalType":"uint256[]"},{"name":"","type":"uint256[]","internalType":"uint256[]"},{"name":"","type":"bytes","internalType":"bytes"}],"outputs":[{"name":"","type":"bool","internalType":"bool"},{"name":"hookAdjustedAmountsOutRaw","type":"uint256[]","internalType":"uint256[]"}],"stateMutability":"nonpayable"},{"type":"function","name":"onAfterSwap","inputs":[{"name":"","type":"tuple","internalType":"struct AfterSwapParams","components":[{"name":"kind","type":"uint8","internalType":"enum SwapKind"},{"name":"tokenIn","type":"address","internalType":"contract IERC20"},{"name":"tokenOut","type":"address","internalType":"contract IERC20"},{"name":"amountInScaled18","type":"uint256","internalType":"uint256"},{"name":"amountOutScaled18","type":"uint256","internalType":"uint256"},{"name":"tokenInBalanceScaled18","type":"uint256","internalType":"uint256"},{"name":"tokenOutBalanceScaled18","type":"uint256","internalType":"uint256"},{"name":"amountCalculatedScaled18","type":"uint256","internalType":"uint256"},{"name":"amountCalculatedRaw","type":"uint256","internalType":"uint256"},{"name":"router","type":"address","internalType":"address"},{"name":"pool","type":"address","internalType":"address"},{"name":"userData","type":"bytes","internalType":"bytes"}]}],"outputs":[{"name":"","type":"bool","internalType":"bool"},{"name":"","type":"uint256","internalType":"uint256"}],"stateMutability":"nonpayable"},{"type":"function","name":"onBeforeAddLiquidity","inputs":[{"name":"","type":"address","internalType":"address"},{"name":"","type":"address","internalType":"address"},{"name":"","type":"uint8","internalType":"enum AddLiquidityKind"},{"name":"","type":"uint256[]","internalType":"uint256[]"},{"name":"","type":"uint256","internalType":"uint256"},{"name":"","type":"uint256[]","internalType":"uint256[]"},{"name":"","type":"bytes","internalType":"bytes"}],"outputs":[{"name":"","type":"bool","internalType":"bool"}],"stateMutability":"nonpayable"},{"type":"function","name":"onBeforeInitialize","inputs":[{"name":"","type":"uint256[]","internalType":"uint256[]"},{"name":"","type":"bytes","internalType":"bytes"}],"outputs":[{"name":"","type":"bool","internalType":"bool"}],"stateMutability":"nonpayable"},{"type":"function","name":"onBeforeRemoveLiquidity","inputs":[{"name":"","type":"address","internalType":"address"},{"name":"","type":"address","internalType":"address"},{"name":"","type":"uint8","internalType":"enum RemoveLiquidityKind"},{"name":"","type":"uint256","internalType":"uint256"},{"name":"","type":"uint256[]","internalType":"uint256[]"},{"name":"","type":"uint256[]","internalType":"uint256[]"},{"name":"","type":"bytes","internalType":"bytes"}],"outputs":[{"name":"","type":"bool","internalType":"bool"}],"stateMutability":"nonpayable"},{"type":"function","name":"onBeforeSwap","inputs":[{"name":"","type":"tuple","internalType":"struct PoolSwapParams","components":[{"name":"kind","type":"uint8","internalType":"enum SwapKind"},{"name":"amountGivenScaled18","type":"uint256","internalType":"uint256"},{"name":"balancesScaled18","type":"uint256[]","internalType":"uint256[]"},{"name":"indexIn","type":"uint256","internalType":"uint256"},{"name":"indexOut","type":"uint256","internalType":"uint256"},{"name":"router","type":"address","internalType":"address"},{"name":"userData","type":"bytes","internalType":"bytes"}]},{"name":"","type":"address","internalType":"address"}],"outputs":[{"name":"","type":"bool","internalType":"bool"}],"stateMutability":"nonpayable"},{"type":"function","name":"onComputeDynamicSwapFeePercentage","inputs":[{"name":"","type":"tuple","internalType":"struct PoolSwapParams","components":[{"name":"kind","type":"uint8","internalType":"enum SwapKind"},{"name":"amountGivenScaled18","type":"uint256","internalType":"uint256"},{"name":"balancesScaled18","type":"uint256[]","internalType":"uint256[]"},{"name":"indexIn","type":"uint256","internalType":"uint256"},{"name":"indexOut","type":"uint256","internalType":"uint256"},{"name":"router","type":"address","internalType":"address"},{"name":"userData","type":"bytes","internalType":"bytes"}]},{"name":"","type":"address","internalType":"address"},{"name":"","type":"uint256","internalType":"uint256"}],"outputs":[{"name":"","type":"bool","internalType":"bool"},{"name":"","type":"uint256","internalType":"uint256"}],"stateMutability":"view"},{"type":"function","name":"onRegister","inputs":[{"name":"","type":"address","internalType":"address"},{"name":"pool","type":"address","internalType":"address"},{"name":"","type":"tuple[]","internalType":"struct TokenConfig[]","components":[{"name":"token","type":"address","internalType":"contract IERC20"},{"name":"tokenType","type":"uint8","internalType":"enum TokenType"},{"name":"rateProvider","type":"address","internalType":"contract IRateProvider"},{"name":"paysYieldFees","type":"bool","internalType":"bool"}]},{"name":"liquidityManagement","type":"tuple","internalType":"struct LiquidityManagement","components":[{"name":"disableUnbalancedLiquidity","type":"bool","internalType":"bool"},{"name":"enableAddLiquidityCustom","type":"bool","internalType":"bool"},{"name":"enableRemoveLiquidityCustom","type":"bool","internalType":"bool"},{"name":"enableDonation","type":"bool","internalType":"bool"}]}],"outputs":[{"name":"","type":"bool","internalType":"bool"}],"stateMutability":"nonpayable"},{"type":"function","name":"owner","inputs":[],"outputs":[{"name":"","type":"address","internalType":"address"}],"stateMutability":"view"},{"type":"function","name":"renounceOwnership","inputs":[],"outputs":[],"stateMutability":"nonpayable"},{"type":"function","name":"setExitFeePercentage","inputs":[{"name":"newExitFeePercentage","type":"uint64","internalType":"uint64"}],"outputs":[],"stateMutability":"nonpayable"},{"type":"function","name":"transferOwnership","inputs":[{"name":"newOwner","type":"address","internalType":"address"}],"outputs":[],"stateMutability":"nonpayable"},{"type":"event","name":"ExitFeeCharged","inputs":[{"name":"pool","type":"address","indexed":true,"internalType":"address"},{"name":"token","type":"address","indexed":true,"internalType":"contract IERC20"},{"name":"feeAmount","type":"uint256","indexed":false,"internalType":"uint256"}],"anonymous":false},{"type":"event","name":"ExitFeeHookExampleRegistered","inputs":[{"name":"hooksContract","type":"address","indexed":true,"internalType":"address"},{"name":"pool","type":"address","indexed":true,"internalType":"address"}],"anonymous":false},{"type":"event","name":"ExitFeePercentageChanged","inputs":[{"name":"hookContract","type":"address","indexed":true,"internalType":"address"},{"name":"exitFeePercentage","type":"uint256","indexed":false,"internalType":"uint256"}],"anonymous":false},{"type":"event","name":"OwnershipTransferred","inputs":[{"name":"previousOwner","type":"address","indexed":true,"internalType":"address"},{"name":"newOwner","type":"address","indexed":true,"internalType":"address"}],"anonymous":false},{"type":"error","name":"ExitFeeAboveLimit","inputs":[{"name":"feePercentage","type":"uint256","internalType":"uint256"},{"name":"limit","type":"uint256","internalType":"uint256"}]},{"type":"error","name":"OwnableInvalidOwner","inputs":[{"name":"owner","type":"address","internalType":"address"}]},{"type":"error","name":"OwnableUnauthorizedAccount","inputs":[{"name":"account","type":"address","internalType":"address"}]},{"type":"error","name":"PoolDoesNotSupportDonation","inputs":[]},{"type":"error","name":"SenderIsNotVault","inputs":[{"name":"sender","type":"address","internalType":"address"}]}],"bytecode":{"object":"0x60a060405234801561000f575f80fd5b506040516116ff3803806116ff83398101604081905261002e916100bf565b6001600160a01b038116608052338061006057604051631e4fbdf760e01b81525f600482015260240160405180910390fd5b61006981610070565b50506100ec565b5f80546001600160a01b038381166001600160a01b0319831681178455604051919092169283917f8be0079c531659141344cd1fd0a4f28419497f9722a3daafe3b4186f6b6457e09190a35050565b5f602082840312156100cf575f80fd5b81516001600160a01b03811681146100e5575f80fd5b9392505050565b6080516115ed6101125f395f818161045101528181610630015261089001526115ed5ff3fe608060405234801561000f575f80fd5b5060043610610115575f3560e01c8063715018a6116100ad578063a6ddbe021161007d578063d77153a711610063578063d77153a714610288578063ea2f6f7a14610329578063f2fde38b1461033c575f80fd5b8063a6ddbe021461026b578063ba5f9f401461027a575f80fd5b8063715018a6146102125780638da5cb5b1461021c578063976907cc14610236578063a0e8f5ac14610253575f80fd5b806338be241d116100e857806338be241d146101a157806345421ec7146101b75780634bdd9fe6146101d15780635211fa7714610204575f80fd5b80630b89f1821461011957806318b6eb55146101415780631c149e281461016d5780632754888d14610180575b5f80fd5b61012c610127366004610a97565b61034f565b60405190151581526020015b60405180910390f35b61015661014f366004610bbd565b505f908190565b604080519215158352602083019190915201610138565b61012c61017b366004610cd7565b6103e2565b61019361018e366004610d45565b6103ea565b604051610138929190610e25565b61012c6101af366004610e75565b5f9392505050565b61012c6101c5366004610eeb565b5f979650505050505050565b5f546101eb90600160a01b900467ffffffffffffffff1681565b60405167ffffffffffffffff9091168152602001610138565b61012c61017b366004610fbb565b61021a610732565b005b5f546040516001600160a01b039091168152602001610138565b61019361024436600461100a565b5f849850989650505050505050565b6101566102613660046110ac565b5f80935093915050565b6101eb67016345785d8a000081565b61012c6101c5366004611102565b6040805161014080820183525f80835260208084018290528385018290526060808501839052608080860184905260a080870185905260c080880186905260e0808901879052610100808a01889052610120998a018890528a519889018b52958801879052878a0187905293870186905291860185905285018490528401839052830182905282015260018082529181019190915290516101389190611185565b61021a61033736600461123d565b610745565b61021a61034a366004611264565b61082f565b5f610358610885565b610368608083016060840161127f565b15155f036103a2576040517fdfcf485a00000000000000000000000000000000000000000000000000000000815260040160405180910390fd5b6040516001600160a01b0385169030907f3821b125c944c16bb117550ddb8765fb7f6138a5dca86e4a2a265f552dd0c59b905f90a3506001949350505050565b5f5b92915050565b5f60606103f5610885565b5f88600381111561040857610408611298565b1461041757505f905083610725565b6040517fca4f28030000000000000000000000000000000000000000000000000000000081526001600160a01b038a811660048301525f917f00000000000000000000000000000000000000000000000000000000000000009091169063ca4f2803906024015f60405180830381865afa158015610497573d5f803e3d5ffd5b505050506040513d5f823e601f3d908101601f191682016040526104be91908101906112ac565b90505f815167ffffffffffffffff8111156104db576104db6109e1565b604051908082528060200260200182016040528015610504578160200160208202803683370190505b505f54889450909150600160a01b900467ffffffffffffffff161561071e575f5b875181101561062d575f8054895161057191600160a01b900467ffffffffffffffff16908b908590811061055b5761055b611341565b60200260200101516108e990919063ffffffff16565b90508083838151811061058657610586611341565b602002602001018181525050808583815181106105a5576105a5611341565b602002602001018181516105b99190611369565b90525083518490839081106105d0576105d0611341565b60200260200101516001600160a01b03168d6001600160a01b03167f70a4868eae45ffc86aa2da146051ad91fcf2a4222b8f737ddd5e4354f15088428360405161061c91815260200190565b60405180910390a350600101610525565b507f00000000000000000000000000000000000000000000000000000000000000006001600160a01b0316634af29ec46040518060c001604052808e6001600160a01b03168152602001336001600160a01b031681526020018481526020015f8152602001600360048111156106a5576106a5611298565b815260200160405180602001604052805f8152508152506040518263ffffffff1660e01b81526004016106d891906113e9565b5f604051808303815f875af11580156106f3573d5f803e3d5ffd5b505050506040513d5f823e601f3d908101601f1916820160405261071a91908101906114cd565b5050505b6001935050505b9850989650505050505050565b61073a610911565b6107435f610956565b565b61074d610911565b67016345785d8a000067ffffffffffffffff821611156107b8576040517f05631b5c00000000000000000000000000000000000000000000000000000000815267ffffffffffffffff8216600482015267016345785d8a000060248201526044015b60405180910390fd5b5f80547fffffffff0000000000000000ffffffffffffffffffffffffffffffffffffffff16600160a01b67ffffffffffffffff84169081029190911790915560405190815230907f478db868729e0648ee7be6cb2a2a864333d8efe68d3a5ee1a7cce6e6895d57119060200160405180910390a250565b610837610911565b6001600160a01b038116610879576040517f1e4fbdf70000000000000000000000000000000000000000000000000000000081525f60048201526024016107af565b61088281610956565b50565b336001600160a01b037f00000000000000000000000000000000000000000000000000000000000000001614610743576040517f089676d50000000000000000000000000000000000000000000000000000000081523360048201526024016107af565b5f806108f58385611581565b9050610909670de0b6b3a764000082611598565b949350505050565b5f546001600160a01b03163314610743576040517f118cdaa70000000000000000000000000000000000000000000000000000000081523360048201526024016107af565b5f80546001600160a01b038381167fffffffffffffffffffffffff0000000000000000000000000000000000000000831681178455604051919092169283917f8be0079c531659141344cd1fd0a4f28419497f9722a3daafe3b4186f6b6457e09190a35050565b6001600160a01b0381168114610882575f80fd5b80356109dc816109bd565b919050565b634e487b7160e01b5f52604160045260245ffd5b6040516080810167ffffffffffffffff81118282101715610a1857610a186109e1565b60405290565b604051601f8201601f1916810167ffffffffffffffff81118282101715610a4757610a476109e1565b604052919050565b5f67ffffffffffffffff821115610a6857610a686109e1565b5060051b60200190565b803580151581146109dc575f80fd5b5f60808284031215610a91575f80fd5b50919050565b5f805f8060e08587031215610aaa575f80fd5b8435610ab5816109bd565b9350602085810135610ac6816109bd565b935060408681013567ffffffffffffffff811115610ae2575f80fd5b8701601f81018913610af2575f80fd5b8035610b05610b0082610a4f565b610a1e565b81815260079190911b8201840190848101908b831115610b23575f80fd5b928501925b82841015610b9c576080848d031215610b3f575f80fd5b610b476109f5565b8435610b52816109bd565b81528487013560028110610b64575f80fd5b8188015284860135610b75816109bd565b818701526060610b86868201610a72565b9082015282526080939093019290850190610b28565b809750505050505050610bb28660608701610a81565b905092959194509250565b5f60208284031215610bcd575f80fd5b813567ffffffffffffffff811115610be3575f80fd5b82016101808185031215610bf5575f80fd5b9392505050565b5f82601f830112610c0b575f80fd5b81356020610c1b610b0083610a4f565b8083825260208201915060208460051b870101935086841115610c3c575f80fd5b602086015b84811015610c585780358352918301918301610c41565b509695505050505050565b5f67ffffffffffffffff821115610c7c57610c7c6109e1565b50601f01601f191660200190565b5f82601f830112610c99575f80fd5b8135610ca7610b0082610c63565b818152846020838601011115610cbb575f80fd5b816020850160208301375f918101602001919091529392505050565b5f8060408385031215610ce8575f80fd5b823567ffffffffffffffff80821115610cff575f80fd5b610d0b86838701610bfc565b93506020850135915080821115610d20575f80fd5b50610d2d85828601610c8a565b9150509250929050565b8035600481106109dc575f80fd5b5f805f805f805f80610100898b031215610d5d575f80fd5b610d66896109d1565b9750610d7460208a016109d1565b9650610d8260408a01610d37565b955060608901359450608089013567ffffffffffffffff80821115610da5575f80fd5b610db18c838d01610bfc565b955060a08b0135915080821115610dc6575f80fd5b610dd28c838d01610bfc565b945060c08b0135915080821115610de7575f80fd5b610df38c838d01610bfc565b935060e08b0135915080821115610e08575f80fd5b50610e158b828c01610c8a565b9150509295985092959890939650565b5f6040820184151583526020604060208501528185518084526060860191506020870193505f5b81811015610e6857845183529383019391830191600101610e4c565b5090979650505050505050565b5f805f60608486031215610e87575f80fd5b833567ffffffffffffffff80821115610e9e575f80fd5b610eaa87838801610bfc565b9450602086013593506040860135915080821115610ec6575f80fd5b50610ed386828701610c8a565b9150509250925092565b8035600581106109dc575f80fd5b5f805f805f805f60e0888a031215610f01575f80fd5b8735610f0c816109bd565b96506020880135610f1c816109bd565b9550610f2a60408901610edd565b9450606088013567ffffffffffffffff80821115610f46575f80fd5b610f528b838c01610bfc565b955060808a0135945060a08a0135915080821115610f6e575f80fd5b610f7a8b838c01610bfc565b935060c08a0135915080821115610f8f575f80fd5b50610f9c8a828b01610c8a565b91505092959891949750929550565b5f60e08284031215610a91575f80fd5b5f8060408385031215610fcc575f80fd5b823567ffffffffffffffff811115610fe2575f80fd5b610fee85828601610fab565b9250506020830135610fff816109bd565b809150509250929050565b5f805f805f805f80610100898b031215611022575f80fd5b61102b896109d1565b975061103960208a016109d1565b965061104760408a01610edd565b9550606089013567ffffffffffffffff80821115611063575f80fd5b61106f8c838d01610bfc565b965060808b0135915080821115611084575f80fd5b6110908c838d01610bfc565b955060a08b0135945060c08b0135915080821115610de7575f80fd5b5f805f606084860312156110be575f80fd5b833567ffffffffffffffff8111156110d4575f80fd5b6110e086828701610fab565b93505060208401356110f1816109bd565b929592945050506040919091013590565b5f805f805f805f60e0888a031215611118575f80fd5b8735611123816109bd565b96506020880135611133816109bd565b955061114160408901610d37565b945060608801359350608088013567ffffffffffffffff80821115611164575f80fd5b6111708b838c01610bfc565b945060a08a0135915080821115610f6e575f80fd5b815115158152610140810160208301516111a3602084018215159052565b5060408301516111b7604084018215159052565b5060608301516111cb606084018215159052565b5060808301516111df608084018215159052565b5060a08301516111f360a084018215159052565b5060c083015161120760c084018215159052565b5060e083015161121b60e084018215159052565b5061010083810151151590830152610120928301511515929091019190915290565b5f6020828403121561124d575f80fd5b813567ffffffffffffffff81168114610bf5575f80fd5b5f60208284031215611274575f80fd5b8135610bf5816109bd565b5f6020828403121561128f575f80fd5b610bf582610a72565b634e487b7160e01b5f52602160045260245ffd5b5f60208083850312156112bd575f80fd5b825167ffffffffffffffff8111156112d3575f80fd5b8301601f810185136112e3575f80fd5b80516112f1610b0082610a4f565b81815260059190911b8201830190838101908783111561130f575f80fd5b928401925b82841015611336578351611327816109bd565b82529284019290840190611314565b979650505050505050565b634e487b7160e01b5f52603260045260245ffd5b634e487b7160e01b5f52601160045260245ffd5b818103818111156103e4576103e4611355565b6005811061139857634e487b7160e01b5f52602160045260245ffd5b9052565b5f5b838110156113b657818101518382015260200161139e565b50505f910152565b5f81518084526113d581602086016020860161139c565b601f01601f19169290920160200192915050565b602080825282516001600160a01b0390811683830152838201511660408084019190915283015160c06060840152805160e084018190525f929182019083906101008601905b8083101561144f578351825292840192600192909201919084019061142f565b50606087015160808701526080870151935061146e60a087018561137c565b60a0870151868203601f190160c0880152935061133681856113be565b5f82601f83011261149a575f80fd5b81516114a8610b0082610c63565b8181528460208386010111156114bc575f80fd5b61090982602083016020870161139c565b5f805f606084860312156114df575f80fd5b835167ffffffffffffffff808211156114f6575f80fd5b818601915086601f830112611509575f80fd5b81516020611519610b0083610a4f565b82815260059290921b8401810191818101908a841115611537575f80fd5b948201945b838610156115555785518252948201949082019061153c565b9189015160408a01519298509650909350505080821115611574575f80fd5b50610ed38682870161148b565b80820281158282048414176103e4576103e4611355565b5f826115b257634e487b7160e01b5f52601260045260245ffd5b50049056fea26469706673582212201a1794e5b377955aa497d1c364cb28bb24d5e0e37fb1c00843942d6b4259acb364736f6c63430008180033","linkReferences":{}},"methodIdentifiers":{"MAX_EXIT_FEE_PERCENTAGE()":"a6ddbe02","exitFeePercentage()":"4bdd9fe6","getHookFlags()":"d77153a7","onAfterAddLiquidity(address,address,uint8,uint256[],uint256[],uint256,uint256[],bytes)":"976907cc","onAfterInitialize(uint256[],uint256,bytes)":"38be241d","onAfterRemoveLiquidity(address,address,uint8,uint256,uint256[],uint256[],uint256[],bytes)":"2754888d","onAfterSwap((uint8,address,address,uint256,uint256,uint256,uint256,uint256,uint256,address,address,bytes))":"18b6eb55","onBeforeAddLiquidity(address,address,uint8,uint256[],uint256,uint256[],bytes)":"45421ec7","onBeforeInitialize(uint256[],bytes)":"1c149e28","onBeforeRemoveLiquidity(address,address,uint8,uint256,uint256[],uint256[],bytes)":"ba5f9f40","onBeforeSwap((uint8,uint256,uint256[],uint256,uint256,address,bytes),address)":"5211fa77","onComputeDynamicSwapFeePercentage((uint8,uint256,uint256[],uint256,uint256,address,bytes),address,uint256)":"a0e8f5ac","onRegister(address,address,(address,uint8,address,bool)[],(bool,bool,bool,bool))":"0b89f182","owner()":"8da5cb5b","renounceOwnership()":"715018a6","setExitFeePercentage(uint64)":"ea2f6f7a","transferOwnership(address)":"f2fde38b"},"id":2}